{
  "contractName": "BasicToken",
  "abi": [
    {
      "constant": true,
      "inputs": [],
      "name": "totalSupply",
      "outputs": [
        {
          "name": "",
          "type": "uint256"
        }
      ],
      "payable": false,
      "stateMutability": "view",
      "type": "function"
    },
    {
      "constant": true,
      "inputs": [
        {
          "name": "_owner",
          "type": "address"
        }
      ],
      "name": "balanceOf",
      "outputs": [
        {
          "name": "balance",
          "type": "uint256"
        }
      ],
      "payable": false,
      "stateMutability": "view",
      "type": "function"
    }
  ],
  "bytecode": "0x6060604052341561000f57600080fd5b60f28061001d6000396000f30060606040526004361060485763ffffffff7c010000000000000000000000000000000000000000000000000000000060003504166318160ddd8114604d57806370a0823114606f575b600080fd5b3415605757600080fd5b605d6098565b60405190815260200160405180910390f35b3415607957600080fd5b605d73ffffffffffffffffffffffffffffffffffffffff60043516609e565b60005481565b73ffffffffffffffffffffffffffffffffffffffff16600090815260016020526040902054905600a165627a7a72305820180f42e18dadd2117f5bceabcfbd4be5bcfe9e60074960dedad3dafd14a77d440029",
  "source": "pragma solidity ^0.4.13;\n\n\nimport './ERC20Basic.sol';\nimport './math/SafeMath.sol';\n\n\n/**\n * @title Basic token\n * @dev Basic version of StandardToken, with no allowances. \n */\ncontract BasicToken is ERC20Basic {\n  using SafeMath for uint256;\n\n  mapping(address => uint256) balances;\n\n  /**\n  * @dev Gets the balance of the specified address.\n  * @param _owner The address to query the the balance of. \n  * @return An uint256 representing the amount owned by the passed address.\n  */\n  function balanceOf(address _owner) public constant returns (uint256 balance) {\n    return balances[_owner];\n  }\n\n}",
  "sourcePath": "/Users/maxhoward/Desktop/Ethereum/Development/Matryx AWS/Projects/matryx-alpha-source/contracts/MatryxToken/BasicToken.sol",
  "compiler": {
    "name": "solc",
    "version": "0.4.19+commit.c4cbbb05.Emscripten.clang"
  },
  "schemaVersion": "2.0.0",
  "updatedAt": "2018-03-29T18:43:54.469Z"
}