{
  "contractName": "BasicToken",
  "abi": [
    {
      "constant": true,
      "inputs": [],
      "name": "totalSupply",
      "outputs": [
        {
          "name": "",
          "type": "uint256"
        }
      ],
      "payable": false,
      "stateMutability": "view",
      "type": "function"
    },
    {
      "constant": true,
      "inputs": [
        {
          "name": "_owner",
          "type": "address"
        }
      ],
      "name": "balanceOf",
      "outputs": [
        {
          "name": "balance",
          "type": "uint256"
        }
      ],
      "payable": false,
      "stateMutability": "view",
      "type": "function"
    }
  ],
  "bytecode": "0x608060405234801561001057600080fd5b5060f68061001f6000396000f30060806040526004361060485763ffffffff7c010000000000000000000000000000000000000000000000000000000060003504166318160ddd8114604d57806370a08231146071575b600080fd5b348015605857600080fd5b50605f609c565b60408051918252519081900360200190f35b348015607c57600080fd5b50605f73ffffffffffffffffffffffffffffffffffffffff6004351660a2565b60005481565b73ffffffffffffffffffffffffffffffffffffffff16600090815260016020526040902054905600a165627a7a72305820fdc501289a04620c47c6e73af2b6829108cfc6856e18e4f0533c7188b51c44cd0029",
  "source": "pragma solidity ^0.4.13;\n\n\nimport './ERC20Basic.sol';\nimport './math/SafeMath.sol';\n\n\n/**\n * @title Basic token\n * @dev Basic version of StandardToken, with no allowances. \n */\ncontract BasicToken is ERC20Basic {\n  using SafeMath for uint256;\n\n  mapping(address => uint256) balances;\n\n  /**\n  * @dev Gets the balance of the specified address.\n  * @param _owner The address to query the the balance of. \n  * @return An uint256 representing the amount owned by the passed address.\n  */\n  function balanceOf(address _owner) public constant returns (uint256 balance) {\n    return balances[_owner];\n  }\n\n}",
  "sourcePath": "/Users/maxhoward/Desktop/Ethereum/Development/Matryx/Projects/MatryxPlatform/contracts/MatryxToken/BasicToken.sol",
  "compiler": {
    "name": "solc",
    "version": "0.4.24+commit.e67f0147.Emscripten.clang"
  },
  "schemaVersion": "2.0.0",
  "updatedAt": "2018-06-28T20:34:57.527Z"
}