{
  "contractName": "Haltable",
  "abi": [
    {
      "constant": true,
      "inputs": [],
      "name": "owner",
      "outputs": [
        {
          "name": "",
          "type": "address"
        }
      ],
      "payable": false,
      "stateMutability": "view",
      "type": "function"
    },
    {
      "constant": true,
      "inputs": [],
      "name": "halted",
      "outputs": [
        {
          "name": "",
          "type": "bool"
        }
      ],
      "payable": false,
      "stateMutability": "view",
      "type": "function"
    },
    {
      "constant": false,
      "inputs": [
        {
          "name": "newOwner",
          "type": "address"
        }
      ],
      "name": "transferOwnership",
      "outputs": [],
      "payable": false,
      "stateMutability": "nonpayable",
      "type": "function"
    },
    {
      "constant": false,
      "inputs": [],
      "name": "halt",
      "outputs": [],
      "payable": false,
      "stateMutability": "nonpayable",
      "type": "function"
    },
    {
      "constant": false,
      "inputs": [],
      "name": "unhalt",
      "outputs": [],
      "payable": false,
      "stateMutability": "nonpayable",
      "type": "function"
    }
  ],
  "bytecode": "0x608060405260008054600160a060020a03191633179055610304806100256000396000f30060806040526004361061006c5763ffffffff7c01000000000000000000000000000000000000000000000000000000006000350416635ed7ca5b81146100715780638da5cb5b14610088578063b9b8af0b146100c6578063cb3e64fd146100ef578063f2fde38b14610104575b600080fd5b34801561007d57600080fd5b50610086610132565b005b34801561009457600080fd5b5061009d610197565b6040805173ffffffffffffffffffffffffffffffffffffffff9092168252519081900360200190f35b3480156100d257600080fd5b506100db6101b3565b604080519115158252519081900360200190f35b3480156100fb57600080fd5b506100866101d4565b34801561011057600080fd5b5061008673ffffffffffffffffffffffffffffffffffffffff6004351661024b565b60005473ffffffffffffffffffffffffffffffffffffffff16331461015657600080fd5b600080547fffffffffffffffffffffff00ffffffffffffffffffffffffffffffffffffffff1674010000000000000000000000000000000000000000179055565b60005473ffffffffffffffffffffffffffffffffffffffff1681565b60005474010000000000000000000000000000000000000000900460ff1681565b60005473ffffffffffffffffffffffffffffffffffffffff1633146101f857600080fd5b60005474010000000000000000000000000000000000000000900460ff16151561022157600080fd5b600080547fffffffffffffffffffffff00ffffffffffffffffffffffffffffffffffffffff169055565b60005473ffffffffffffffffffffffffffffffffffffffff16331461026f57600080fd5b73ffffffffffffffffffffffffffffffffffffffff8116151561029157600080fd5b600080547fffffffffffffffffffffffff00000000000000000000000000000000000000001673ffffffffffffffffffffffffffffffffffffffff929092169190911790555600a165627a7a72305820a74d18833f53023787ac495a03ad1bae695a2fffd3f9edc0669d8095cdb1af620029",
  "source": "\n/**\n * This smart contract code is Copyright 2017 TokenMarket Ltd. For more information see https://tokenmarket.net\n *\n * Licensed under the Apache License, version 2.0: https://github.com/TokenMarketNet/ico/blob/master/LICENSE.txt\n */\n\npragma solidity ^0.4.13;\n\nimport \"./ownership/Ownable.sol\";\n\n/*\n * Haltable\n *\n * Abstract contract that allows children to implement an\n * emergency stop mechanism. Differs from Pausable by causing a throw when in halt mode.\n *\n *\n * Originally envisioned in FirstBlood ICO contract.\n */\ncontract Haltable is Ownable {\n  bool public halted;\n\n  modifier stopInEmergency {\n    //if (halted) throw;\n    require(!halted);\n    _;\n  }\n\n  modifier onlyInEmergency {\n    //if (!halted) throw;\n    require(halted);\n    _;\n  }\n\n  // called by the owner on emergency, triggers stopped state\n  function halt() external onlyOwner {\n    halted = true;\n  }\n\n  // called by the owner on end of emergency, returns to normal state\n  function unhalt() external onlyOwner onlyInEmergency {\n    halted = false;\n  }\n\n}",
  "sourcePath": "/Users/maxhoward/Desktop/Ethereum/Development/Matryx/Projects/MatryxPlatform/contracts/MatryxToken/Haltable.sol",
  "compiler": {
    "name": "solc",
    "version": "0.4.24+commit.e67f0147.Emscripten.clang"
  },
  "schemaVersion": "2.0.0",
  "updatedAt": "2018-07-03T00:19:58.504Z"
}