{
  "contractName": "Haltable",
  "abi": [
    {
      "constant": true,
      "inputs": [],
      "name": "owner",
      "outputs": [
        {
          "name": "",
          "type": "address"
        }
      ],
      "payable": false,
      "stateMutability": "view",
      "type": "function"
    },
    {
      "constant": true,
      "inputs": [],
      "name": "halted",
      "outputs": [
        {
          "name": "",
          "type": "bool"
        }
      ],
      "payable": false,
      "stateMutability": "view",
      "type": "function"
    },
    {
      "constant": false,
      "inputs": [
        {
          "name": "newOwner",
          "type": "address"
        }
      ],
      "name": "transferOwnership",
      "outputs": [],
      "payable": false,
      "stateMutability": "nonpayable",
      "type": "function"
    },
    {
      "constant": false,
      "inputs": [],
      "name": "halt",
      "outputs": [],
      "payable": false,
      "stateMutability": "nonpayable",
      "type": "function"
    },
    {
      "constant": false,
      "inputs": [],
      "name": "unhalt",
      "outputs": [],
      "payable": false,
      "stateMutability": "nonpayable",
      "type": "function"
    }
  ],
  "bytecode": "0x606060405260008054600160a060020a033316600160a060020a0319909116179055610306806100306000396000f30060606040526004361061006c5763ffffffff7c01000000000000000000000000000000000000000000000000000000006000350416635ed7ca5b81146100715780638da5cb5b14610086578063b9b8af0b146100c2578063cb3e64fd146100e9578063f2fde38b146100fc575b600080fd5b341561007c57600080fd5b610084610128565b005b341561009157600080fd5b610099610191565b60405173ffffffffffffffffffffffffffffffffffffffff909116815260200160405180910390f35b34156100cd57600080fd5b6100d56101ad565b604051901515815260200160405180910390f35b34156100f457600080fd5b6100846101ce565b341561010757600080fd5b61008473ffffffffffffffffffffffffffffffffffffffff60043516610249565b6000543373ffffffffffffffffffffffffffffffffffffffff90811691161461015057600080fd5b600080547fffffffffffffffffffffff00ffffffffffffffffffffffffffffffffffffffff1674010000000000000000000000000000000000000000179055565b60005473ffffffffffffffffffffffffffffffffffffffff1681565b60005474010000000000000000000000000000000000000000900460ff1681565b6000543373ffffffffffffffffffffffffffffffffffffffff9081169116146101f657600080fd5b60005474010000000000000000000000000000000000000000900460ff16151561021f57600080fd5b600080547fffffffffffffffffffffff00ffffffffffffffffffffffffffffffffffffffff169055565b6000543373ffffffffffffffffffffffffffffffffffffffff90811691161461027157600080fd5b73ffffffffffffffffffffffffffffffffffffffff8116151561029357600080fd5b600080547fffffffffffffffffffffffff00000000000000000000000000000000000000001673ffffffffffffffffffffffffffffffffffffffff929092169190911790555600a165627a7a723058208c4387bbbdc69a06d09cb345d8acdca0a1f3aa0b659f44a5c56614b3cd739a720029",
  "source": "\n/**\n * This smart contract code is Copyright 2017 TokenMarket Ltd. For more information see https://tokenmarket.net\n *\n * Licensed under the Apache License, version 2.0: https://github.com/TokenMarketNet/ico/blob/master/LICENSE.txt\n */\n\npragma solidity ^0.4.13;\n\nimport \"./ownership/Ownable.sol\";\n\n/*\n * Haltable\n *\n * Abstract contract that allows children to implement an\n * emergency stop mechanism. Differs from Pausable by causing a throw when in halt mode.\n *\n *\n * Originally envisioned in FirstBlood ICO contract.\n */\ncontract Haltable is Ownable {\n  bool public halted;\n\n  modifier stopInEmergency {\n    //if (halted) throw;\n    require(!halted);\n    _;\n  }\n\n  modifier onlyInEmergency {\n    //if (!halted) throw;\n    require(halted);\n    _;\n  }\n\n  // called by the owner on emergency, triggers stopped state\n  function halt() external onlyOwner {\n    halted = true;\n  }\n\n  // called by the owner on end of emergency, returns to normal state\n  function unhalt() external onlyOwner onlyInEmergency {\n    halted = false;\n  }\n\n}",
  "sourcePath": "/Users/maxhoward/Desktop/Ethereum/Development/Matryx AWS/Projects/matryx-alpha-source/contracts/MatryxToken/Haltable.sol",
  "compiler": {
    "name": "solc",
    "version": "0.4.19+commit.c4cbbb05.Emscripten.clang"
  },
  "schemaVersion": "2.0.0",
  "updatedAt": "2018-03-30T22:31:23.241Z"
}