{
  "contractName": "LibTournamentEntrantMethods",
  "abi": [
    {
      "constant": false,
      "inputs": [
        {
          "name": "data",
          "type": "LibConstruction.TournamentData storage"
        },
        {
          "name": "stateData",
          "type": "LibTournamentStateManagement.StateData storage"
        },
        {
          "name": "entryData",
          "type": "LibTournamentStateManagement.EntryData storage"
        },
        {
          "name": "_entrantAddress",
          "type": "address"
        }
      ],
      "name": "enterUserInTournament",
      "outputs": [
        {
          "name": "_success",
          "type": "bool"
        }
      ],
      "payable": false,
      "stateMutability": "nonpayable",
      "type": "function"
    },
    {
      "constant": true,
      "inputs": [
        {
          "components": [
            {
              "name": "category",
              "type": "bytes32"
            },
            {
              "name": "title",
              "type": "bytes32[3]"
            },
            {
              "name": "descriptionHash",
              "type": "bytes32[2]"
            },
            {
              "name": "fileHash",
              "type": "bytes32[2]"
            },
            {
              "name": "initialBounty",
              "type": "uint256"
            },
            {
              "name": "entryFee",
              "type": "uint256"
            }
          ],
          "name": "data",
          "type": "tuple"
        }
      ],
      "name": "getEntryFee",
      "outputs": [
        {
          "name": "",
          "type": "uint256"
        }
      ],
      "payable": false,
      "stateMutability": "view",
      "type": "function"
    },
    {
      "constant": false,
      "inputs": [
        {
          "name": "stateData",
          "type": "LibTournamentStateManagement.StateData storage"
        },
        {
          "name": "entryData",
          "type": "LibTournamentStateManagement.EntryData storage"
        },
        {
          "name": "matryxTokenAddress",
          "type": "address"
        }
      ],
      "name": "collectMyEntryFee",
      "outputs": [],
      "payable": false,
      "stateMutability": "nonpayable",
      "type": "function"
    },
    {
      "constant": false,
      "inputs": [
        {
          "name": "_platformAddress",
          "type": "address"
        },
        {
          "name": "_roundAddress",
          "type": "address"
        },
        {
          "name": "entryData",
          "type": "LibTournamentStateManagement.EntryData storage"
        },
        {
          "components": [
            {
              "name": "title",
              "type": "bytes32[3]"
            },
            {
              "name": "descriptionHash",
              "type": "bytes32[2]"
            },
            {
              "name": "fileHash",
              "type": "bytes32[2]"
            },
            {
              "name": "timeSubmitted",
              "type": "uint256"
            },
            {
              "name": "timeUpdated",
              "type": "uint256"
            }
          ],
          "name": "submissionData",
          "type": "tuple"
        }
      ],
      "name": "createSubmission",
      "outputs": [
        {
          "name": "_submissionAddress",
          "type": "address"
        }
      ],
      "payable": false,
      "stateMutability": "nonpayable",
      "type": "function"
    },
    {
      "constant": false,
      "inputs": [
        {
          "name": "stateData",
          "type": "LibTournamentStateManagement.StateData storage"
        },
        {
          "name": "entryData",
          "type": "LibTournamentStateManagement.EntryData storage"
        },
        {
          "name": "matryxTokenAddress",
          "type": "address"
        }
      ],
      "name": "withdrawFromAbandoned",
      "outputs": [],
      "payable": false,
      "stateMutability": "nonpayable",
      "type": "function"
    }
  ],
  "bytecode": "0x61120a610030600b82828239805160001a6073146000811461002057610022565bfe5b5030600052607381538281f30073000000000000000000000000000000000000000030146080604052600436106100835763ffffffff7c010000000000000000000000000000000000000000000000000000000060003504166309d1ebd08114610088578063734e4a16146100be578063a09c5c99146100e0578063b4a25e5c1461010d578063ddc23bd01461012d575b600080fd5b81801561009457600080fd5b506100a86100a3366004610dd3565b61014d565b6040516100b591906110b1565b60405180910390f35b8180156100ca57600080fd5b506100de6100d9366004610e53565b610326565b005b8180156100ec57600080fd5b506101006100fb366004610ebf565b610337565b6040516100b5919061111e565b61012061011b366004610ea0565b610496565b6040516100b5919061114a565b81801561013957600080fd5b506100de610148366004610e53565b61049d565b6000808473ffffffffffffffffffffffffffffffffffffffff166357c60fb03388866040518463ffffffff167c01000000000000000000000000000000000000000000000000000000000281526004016101a9939291906110da565b602060405180830381600087803b1580156101c357600080fd5b505af11580156101d7573d6000803e3d6000fd5b505050506040513d601f19601f820116820180604052506101fb9190810190610dad565b90506102156001856001015461090590919063ffffffff16565b600185810191909155336000818152600387016020908152604080832073ffffffffffffffffffffffffffffffffffffffff878116808652918452828520805460ff19168817815586865260028c018552838620805491890182905597810188559685529290932090940180547fffffffffffffffffffffffff00000000000000000000000000000000000000001690921790915591517fab9583d90000000000000000000000000000000000000000000000000000000081529188169163ab9583d9916102e79185906004016110bf565b600060405180830381600087803b15801561030157600080fd5b505af1158015610315573d6000803e3d6000fd5b505050508091505b50949350505050565b6103328383338461091b565b505050565b73ffffffffffffffffffffffffffffffffffffffff81166000908152600483016020526040812054819060ff16151560011415610377576000915061031d565b73ffffffffffffffffffffffffffffffffffffffff831660009081526004850160205260409020805460ff1916600190811782556009880154910181905560028601546103c99163ffffffff61090516565b600286015560058401546103e490600163ffffffff61090516565b60058501556040517f0386922b00000000000000000000000000000000000000000000000000000000815273__LibTournamentStateManagement__________90630386922b9061043990889060040161113c565b604080518083038186803b15801561045057600080fd5b505af4158015610464573d6000803e3d6000fd5b505050506040513d601f19601f820116820180604052506104889190810190610f32565b506001979650505050505050565b60a0015190565b600080808060046040517f5726b16f00000000000000000000000000000000000000000000000000000000815273__LibTournamentStateManagement__________90635726b16f906104f4908b9060040161113c565b60206040518083038186803b15801561050c57600080fd5b505af4158015610520573d6000803e3d6000fd5b505050506040513d601f19601f820116820180604052506105449190810190610f14565b14610584576040517f08c379a000000000000000000000000000000000000000000000000000000000815260040161057b9061112c565b60405180910390fd5b3360009081526020879052604090205460ff16156105a157600080fd5b6040517f0386922b00000000000000000000000000000000000000000000000000000000815273__LibTournamentStateManagement__________90630386922b906105f1908a9060040161113c565b604080518083038186803b15801561060857600080fd5b505af415801561061c573d6000803e3d6000fd5b505050506040513d601f19601f820116820180604052506106409190810190610f32565b905080945050856005015492503073ffffffffffffffffffffffffffffffffffffffff1663f49bff7b6040518163ffffffff167c0100000000000000000000000000000000000000000000000000000000028152600401602060405180830381600087803b1580156106b157600080fd5b505af11580156106c5573d6000803e3d6000fd5b505050506040513d601f19601f820116820180604052506106e99190810190610f14565b6004880154909250610100900460ff1615156107e7578373ffffffffffffffffffffffffffffffffffffffff166307417cf16040518163ffffffff167c0100000000000000000000000000000000000000000000000000000000028152600401602060405180830381600087803b15801561076357600080fd5b505af1158015610777573d6000803e3d6000fd5b505050506040513d601f19601f8201168201806040525061079b9190810190610f14565b60038801549091506107b3908263ffffffff610b2f16565b60038801556004870180547fffffffffffffffffffffffffffffffffffffffffffffffffffffffffffff00ff166101001790555b8473ffffffffffffffffffffffffffffffffffffffff1663a9059cbb3361083f670de0b6b3a76400006108338b60050154610833670de0b6b3a76400008a610b4690919063ffffffff16565b9063ffffffff610b6a16565b6040518363ffffffff167c0100000000000000000000000000000000000000000000000000000000028152600401610878929190611103565b602060405180830381600087803b15801561089257600080fd5b505af11580156108a6573d6000803e3d6000fd5b505050506040513d601f19601f820116820180604052506108ca9190810190610e35565b15156108d557600080fd5b6108e18787338861091b565b505033600090815260209490945250506040909120805460ff191660011790555050565b60008282018381101561091457fe5b9392505050565b60008073__LibTournamentStateManagement__________630386922b876040518263ffffffff167c0100000000000000000000000000000000000000000000000000000000028152600401610971919061113c565b604080518083038186803b15801561098857600080fd5b505af415801561099c573d6000803e3d6000fd5b505050506040513d601f19601f820116820180604052506109c09190810190610f32565b73ffffffffffffffffffffffffffffffffffffffff86811660009081526004808a016020526040918290206001015491517fa9059cbb000000000000000000000000000000000000000000000000000000008152939650879550918516935063a9059cbb92610a329289929101611103565b602060405180830381600087803b158015610a4c57600080fd5b505af1158015610a60573d6000803e3d6000fd5b505050506040513d601f19601f82011682018060405250610a849190810190610e35565b1515610a8f57600080fd5b73ffffffffffffffffffffffffffffffffffffffff841660009081526004860160205260409020600101546002870154610ace9163ffffffff610b2f16565b600287015573ffffffffffffffffffffffffffffffffffffffff841660009081526004860160205260408120805460ff191681556001908101919091556005860154610b1f9163ffffffff610b2f16565b8560050181905550505050505050565b600082821115610b3b57fe5b508082035b92915050565b6000828202831580610b625750828482811515610b5f57fe5b04145b151561091457fe5b6000808284811515610b7857fe5b04949350505050565b600061091482356111b2565b600061091482516111b2565b6000601f82018313610baa57600080fd5b6002610bbd610bb88261117f565b611158565b91508183856020840282011115610bd357600080fd5b60005b83811015610bff5781610be98882610c76565b8452506020928301929190910190600101610bd6565b5050505092915050565b6000601f82018313610c1a57600080fd5b6003610c28610bb88261117f565b91508183856020840282011115610c3e57600080fd5b60005b83811015610bff5781610c548882610c76565b8452506020928301929190910190600101610c41565b600061091482516111cb565b6000610914823561119d565b60006101208284031215610c9557600080fd5b610c9f60a0611158565b90506000610cad8484610c09565b8252506060610cbe84848301610b99565b60208301525060a0610cd284828501610b99565b60408301525060e0610ce684828501610c76565b606083015250610100610cfb84828501610c76565b60808301525092915050565b60006101408284031215610d1a57600080fd5b610d2460c0611158565b90506000610d328484610c76565b8252506020610d4384848301610c09565b6020830152506080610d5784828501610b99565b60408301525060c0610d6b84828501610b99565b606083015250610100610d8084828501610c76565b608083015250610120610d9584828501610c76565b60a08301525092915050565b6000610914825161119d565b600060208284031215610dbf57600080fd5b6000610dcb8484610b8d565b949350505050565b6000806000806101808587031215610dea57600080fd5b6000610df68787610b81565b9450506020610e0787828801610b81565b9350506040610e1887828801610c76565b9250506060610e2987828801610c82565b91505092959194509250565b600060208284031215610e4757600080fd5b6000610dcb8484610c6a565b600080600060608486031215610e6857600080fd5b6000610e748686610c76565b9350506020610e8586828701610c76565b9250506040610e9686828701610b81565b9150509250925092565b60006101408284031215610eb357600080fd5b6000610dcb8484610d07565b60008060008060808587031215610ed557600080fd5b6000610ee18787610c76565b9450506020610ef287828801610c76565b9350506040610f0387828801610c76565b9250506060610e2987828801610b81565b600060208284031215610f2657600080fd5b6000610dcb8484610da1565b60008060408385031215610f4557600080fd5b6000610f518585610da1565b9250506020610f6285828601610b8d565b9150509250929050565b610f75816111b2565b82525050565b610f84816111a0565b610f8d8261119d565b60005b82811015610fbd57610fa385835161100f565b610fac826111ac565b602095909501949150600101610f90565b5050505050565b610fcd816111a6565b610fd68261119d565b60005b82811015610fbd57610fec85835161100f565b610ff5826111ac565b602095909501949150600101610fd9565b610f75816111cb565b610f758161119d565b601f81527f5468697320746f75726e616d656e74206973207374696c6c2076616c69642e00602082015260400190565b9052565b805161012083019061105e8482610fc4565b5060208201516110716060850182610f7b565b50604082015161108460a0850182610f7b565b50606082015161109760e085018261100f565b5060808201516110ab61010085018261100f565b50505050565b60208101610b408284610f6c565b604081016110cd8285610f6c565b6109146020830184610f6c565b61016081016110e98286610f6c565b6110f66020830185610f6c565b610dcb604083018461104c565b604081016111118285610f6c565b610914602083018461100f565b60208101610b408284611006565b60208082528101610b4081611018565b60208101610b408284611048565b60208101610b40828461100f565b60405181810167ffffffffffffffff8111828210171561117757600080fd5b604052919050565b600067ffffffffffffffff82111561119657600080fd5b5060200290565b90565b50600290565b50600390565b60200190565b73ffffffffffffffffffffffffffffffffffffffff1690565b1515905600a265627a7a72305820c1e7ba4f31cd0c9ccc3dad33097da4f3b25a96fe98b1e2fd2d395e6a99a3049c6c6578706572696d656e74616cf50037",
  "source": "pragma solidity ^0.4.18;\npragma experimental ABIEncoderV2;\n\nimport \"../math/SafeMath.sol\";\nimport \"./LibTournamentStateManagement.sol\";\nimport \"../LibEnums.sol\";\nimport \"../../interfaces/IMatryxToken.sol\";\nimport \"../../interfaces/IMatryxPlatform.sol\";\nimport \"../../interfaces/IMatryxTournament.sol\";\n\nlibrary LibTournamentEntrantMethods\n{\n    using SafeMath for uint256;\n\n    struct uint256_optional\n    {\n        bool exists;\n        uint256 value;\n    }\n\n    /// @dev Enters the user into the tournament.\n    /// @param _entrantAddress Address of the user to enter.\n    /// @return success Whether or not the user was entered successfully.\n    function enterUserInTournament(LibConstruction.TournamentData storage data, LibTournamentStateManagement.StateData storage stateData, LibTournamentStateManagement.EntryData storage entryData, address _entrantAddress) public returns (bool _success)\n    {\n        if(entryData.addressToEntryFeePaid[_entrantAddress].exists == true)\n        {\n            return false;\n        }\n\n        // Change the tournament's state to reflect the user entering.\n        entryData.addressToEntryFeePaid[_entrantAddress].exists = true;\n        entryData.addressToEntryFeePaid[_entrantAddress].value = data.entryFee;\n        stateData.entryFeesTotal = stateData.entryFeesTotal.add(data.entryFee);\n        entryData.numberOfEntrants = entryData.numberOfEntrants.add(1);\n\n        (, address currentRoundAddress) = LibTournamentStateManagement.currentRound(stateData);\n\n        return true;\n    }\n\n    /// @dev Returns the fee in MTX to be payed by a prospective entrant.\n    /// @return Entry fee for this tournament.\n    function getEntryFee(LibConstruction.TournamentData data) public view returns (uint256)\n    {\n        return data.entryFee;\n    }\n\n    function collectMyEntryFee(LibTournamentStateManagement.StateData storage stateData, LibTournamentStateManagement.EntryData storage entryData, address matryxTokenAddress) public\n    {\n        returnEntryFeeToEntrant(stateData, entryData, msg.sender, matryxTokenAddress);\n    }\n\n    function returnEntryFeeToEntrant(LibTournamentStateManagement.StateData storage stateData, LibTournamentStateManagement.EntryData storage entryData, address _entrant, address matryxTokenAddress) internal\n    {\n        // Make sure entrants don't withdraw their entry fee early\n        (,address currentRoundAddress) = LibTournamentStateManagement.currentRound(stateData);\n        IMatryxToken matryxToken = IMatryxToken(matryxTokenAddress);\n        require(matryxToken.transfer(_entrant, entryData.addressToEntryFeePaid[_entrant].value));\n        stateData.entryFeesTotal = stateData.entryFeesTotal.sub(entryData.addressToEntryFeePaid[_entrant].value);\n        entryData.addressToEntryFeePaid[_entrant].exists = false;\n        entryData.addressToEntryFeePaid[_entrant].value = 0;\n        entryData.numberOfEntrants = entryData.numberOfEntrants.sub(1);\n    }\n\n    // function createSubmission(address currentRoundAddress, LibTournamentStateManagement.EntryData storage entryData, address platformAddress, LibConstruction.SubmissionData submissionData) public returns (address _submissionAddress)\n    // function createSubmission(address[3] _requiredAddresses, LibTournamentStateManagement.EntryData storage entryData, LibConstruction.SubmissionData submissionData) public returns (address _submissionAddress)\n    function createSubmission(address _platformAddress, address _roundAddress, LibTournamentStateManagement.EntryData storage entryData, LibConstruction.SubmissionData submissionData) public returns (address _submissionAddress)\n    {\n        address submissionAddress = IMatryxRound(_roundAddress).createSubmission(msg.sender, _platformAddress, submissionData);\n\n        entryData.numberOfSubmissions = entryData.numberOfSubmissions.add(1);\n        entryData.entrantToSubmissionToSubmissionIndex[msg.sender][submissionAddress].exists = true;\n        entryData.entrantToSubmissionToSubmissionIndex[msg.sender][submissionAddress].value = entryData.entrantToSubmissions[msg.sender].length;\n        entryData.entrantToSubmissions[msg.sender].push(submissionAddress);\n        IMatryxPlatform(_platformAddress).updateSubmissions(msg.sender, submissionAddress);\n        return submissionAddress;\n    }\n\n    function withdrawFromAbandoned(LibTournamentStateManagement.StateData storage stateData, LibTournamentStateManagement.EntryData storage entryData, address matryxTokenAddress) public\n    {\n        require(LibTournamentStateManagement.getState(stateData) == uint256(LibEnums.TournamentState.Abandoned), \"This tournament is still valid.\");\n        require(!entryData.hasWithdrawn[msg.sender]);\n\n        address currentRoundAddress;\n        (, currentRoundAddress) = LibTournamentStateManagement.currentRound(stateData);\n        uint256 numberOfEntrants = entryData.numberOfEntrants;\n        uint256 bounty = IMatryxTournament(this).getBounty();\n\n        // If this is the first withdrawal being made...\n        if(!stateData.hasBeenWithdrawnFrom)\n        {\n            uint256 roundBounty = IMatryxRound(currentRoundAddress).transferBountyToTournament();\n            stateData.roundBountyAllocation = stateData.roundBountyAllocation.sub(roundBounty);\n\n            stateData.hasBeenWithdrawnFrom = true;\n        }\n\n        require(IMatryxToken(matryxTokenAddress).transfer(msg.sender, bounty.mul(10**18).div(entryData.numberOfEntrants).div(10**18)));\n        returnEntryFeeToEntrant(stateData, entryData, msg.sender, matryxTokenAddress);\n\n        entryData.hasWithdrawn[msg.sender] = true;\n    }\n}\n",
  "sourcePath": "/Users/maxhoward/Desktop/Ethereum/MatryxPlatform/libraries/tournament/LibTournamentEntrantMethods.sol",
  "compiler": {
    "name": "solc",
    "version": "0.4.24+commit.e67f0147.Emscripten.clang"
  },
  "schemaVersion": "2.0.1",
  "updatedAt": "2018-08-07T00:09:08.848Z"
}