{
  "contractName": "LibTournamentStateManagement",
  "abi": [
    {
      "constant": true,
      "inputs": [
        {
          "name": "stateData",
          "type": "LibTournamentStateManagement.StateData storage"
        }
      ],
      "name": "getState",
      "outputs": [
        {
          "name": "_state",
          "type": "uint256"
        }
      ],
      "payable": false,
      "stateMutability": "view",
      "type": "function"
    },
    {
      "constant": true,
      "inputs": [
        {
          "name": "stateData",
          "type": "LibTournamentStateManagement.StateData storage"
        }
      ],
      "name": "currentRound",
      "outputs": [
        {
          "name": "_currentRound",
          "type": "uint256"
        },
        {
          "name": "_currentRoundAddress",
          "type": "address"
        }
      ],
      "payable": false,
      "stateMutability": "view",
      "type": "function"
    }
  ],
  "bytecode": "0x610598610030600b82828239805160001a6073146000811461002057610022565bfe5b5030600052607381538281f30073000000000000000000000000000000000000000030146080604052600436106100625763ffffffff7c01000000000000000000000000000000000000000000000000000000006000350416630386922b81146100675780635726b16f14610091575b600080fd5b61007a6100753660046104b7565b6100b1565b604051610088929190610527565b60405180910390f35b6100a461009f3660046104b7565b61031c565b6040516100889190610513565b8054600090819060011080156101bc57506004835484907ffffffffffffffffffffffffffffffffffffffffffffffffffffffffffffffffe81019081106100f457fe5b9060005260206000200160009054906101000a900473ffffffffffffffffffffffffffffffffffffffff1673ffffffffffffffffffffffffffffffffffffffff16631865c57d6040518163ffffffff167c0100000000000000000000000000000000000000000000000000000000028152600401602060405180830381600087803b15801561018257600080fd5b505af1158015610196573d6000803e3d6000fd5b505050506040513d601f19601f820116820180604052506101ba91908101906104dd565b145b801561029f575060008354849060001981019081106101d757fe5b9060005260206000200160009054906101000a900473ffffffffffffffffffffffffffffffffffffffff1673ffffffffffffffffffffffffffffffffffffffff16631865c57d6040518163ffffffff167c0100000000000000000000000000000000000000000000000000000000028152600401602060405180830381600087803b15801561026557600080fd5b505af1158015610279573d6000803e3d6000fd5b505050506040513d601f19601f8201168201806040525061029d91908101906104dd565b145b1561030657825460001981019084907ffffffffffffffffffffffffffffffffffffffffffffffffffffffffffffffffe81019081106102da57fe5b60009182526020909120015490925073ffffffffffffffffffffffffffffffffffffffff169050610317565b82548360001982018281106102da57fe5b915091565b60008060008061032b856100b1565b6004870154919450925060ff16156103475760035b9350610490565b600083111561048b578173ffffffffffffffffffffffffffffffffffffffff16631865c57d6040518163ffffffff167c0100000000000000000000000000000000000000000000000000000000028152600401602060405180830381600087803b1580156103b457600080fd5b505af11580156103c8573d6000803e3d6000fd5b505050506040513d601f19601f820116820180604052506103ec91908101906104dd565b90506001831461044c5760018114806104055750600281145b806104105750600381145b8061041b5750600481145b15610427576002610340565b801515610435576001610340565b6005811415610445576003610340565b6004610340565b80151561045a576000610340565b60018114806104695750600281145b806104745750600381145b8061047f5750600481145b15610435576002610340565b600093505b505050919050565b60006104a4823561055b565b9392505050565b60006104a4825161055b565b6000602082840312156104c957600080fd5b60006104d58484610498565b949350505050565b6000602082840312156104ef57600080fd5b60006104d584846104ab565b61050481610542565b82525050565b6105048161055b565b60208101610521828461050a565b92915050565b60408101610535828561050a565b6104a460208301846104fb565b73ffffffffffffffffffffffffffffffffffffffff1690565b905600a265627a7a723058201f536f96609c2a0b566cf56686ffbeb9f8e944fdf43215e087d9083624aa555b6c6578706572696d656e74616cf50037",
  "source": "pragma solidity ^0.4.18;\npragma experimental ABIEncoderV2;\n\nimport \"../../interfaces/IMatryxRound.sol\";\n\nlibrary LibTournamentStateManagement\n{    \n    enum TournamentState { NotYetOpen, OnHold, Open, Closed, Abandoned}\n    enum RoundState { NotYetOpen, Unfunded, Open, InReview, HasWinners, Closed, Abandoned }\n\n    struct uint256_optional\n    {\n        bool exists;\n        uint256 value;\n    }\n\n    struct StateData\n    {\n        address[] rounds;\n        mapping(address=>bool) isRound;\n        uint256 entryFeesTotal;\n        uint256 roundBountyAllocation;\n        bool closed;\n    }\n\n    struct EntryData\n    {\n        mapping(address=>bool) hasWithdrawn;\n        uint256 numberOfSubmissions;\n        mapping(address=>address[]) entrantToSubmissions;\n        mapping(address=>mapping(address=>uint256_optional)) entrantToSubmissionToSubmissionIndex;\n        mapping(address=>uint256_optional) addressToEntryFeePaid;\n        uint256 numberOfEntrants;\n        bool winnersChosen;\n    }\n    \n    /// @dev Returns the state of the tournament.\n    /// @return _state Current round's state : NotYetOpen, Open, Closed or Abandoned\n    function getState(StateData storage stateData) public view returns (uint256 _state)\n    {\n        uint256 numberOfRounds;\n        address roundAddress;\n        (numberOfRounds, roundAddress) = currentRound(stateData);\n\n        if(stateData.closed)\n        {\n            return uint256(TournamentState.Closed);\n        }\n        else if(numberOfRounds > 0)\n        {\n            uint256 roundState = IMatryxRound(roundAddress).getState();\n            if(numberOfRounds != 1)\n            {\n                if(roundState == uint256(RoundState.Unfunded) || roundState == uint256(RoundState.Open) || roundState == uint256(RoundState.InReview)\n                    || roundState == uint256(RoundState.HasWinners))\n                {\n                    return uint256(TournamentState.Open);\n                }\n                else if(roundState == uint256(RoundState.NotYetOpen))\n                {\n                    return uint256(TournamentState.OnHold);\n                }\n                else if(roundState == uint256(RoundState.Closed))\n                {\n                    return uint256(TournamentState.Closed);\n                }\n                else\n                {\n                    return uint256(TournamentState.Abandoned);\n                }\n            }\n            else if(roundState == uint256(RoundState.NotYetOpen))\n            {\n                return uint256(TournamentState.NotYetOpen);\n            }\n            else if(roundState == uint256(RoundState.Unfunded) || roundState == uint256(RoundState.Open) || roundState == uint256(RoundState.InReview)\n                    || roundState == uint256(RoundState.HasWinners))\n            {\n                return uint256(TournamentState.Open);\n            }\n            else if(roundState == uint256(RoundState.Closed))\n            {\n                return uint256(TournamentState.Closed);\n            }\n            else\n            {\n                return uint256(TournamentState.Abandoned);\n            }\n        }\n        \n        return 0;\n    }\n\n    /// @dev Returns the current round number.\n    /// @return _currentRound Number of the current round.\n    function currentRound(StateData storage stateData) public view returns (uint256 _currentRound, address _currentRoundAddress)\n    {\n        if(stateData.rounds.length > 1 && \n           IMatryxRound(stateData.rounds[stateData.rounds.length-2]).getState() == uint256(RoundState.HasWinners) &&\n           IMatryxRound(stateData.rounds[stateData.rounds.length-1]).getState() == uint256(RoundState.NotYetOpen))\n        {\n            return (stateData.rounds.length-1, stateData.rounds[stateData.rounds.length-2]);\n        }\n        else\n        {\n            return (stateData.rounds.length, stateData.rounds[stateData.rounds.length-1]);\n        }\n    }\n\n    ///@dev Returns the round that was created implicitly for the user after they chose the \"DoNothing\" option\n    ///     when choosing their round winners.\n    ///@return _ghostAddress Address of the upcoming round created during winner selection\n    function getGhostRound(StateData storage stateData) internal returns (uint256 _index, address _ghostAddress)\n    {\n        if(IMatryxRound(stateData.rounds[stateData.rounds.length-2]).getState() == uint256(RoundState.HasWinners) &&\n           IMatryxRound(stateData.rounds[stateData.rounds.length-1]).getState() == uint256(RoundState.NotYetOpen))\n        {\n            return (stateData.rounds.length-1, stateData.rounds[stateData.rounds.length-1]);\n        }\n\n        return (0, address(0x0));\n    }\n}",
  "sourcePath": "/Users/samhessenauer/Documents/Software/git.nosync/MatryxPlatform/libraries/tournament/LibTournamentStateManagement.sol",
  "compiler": {
    "name": "solc",
    "version": "0.4.24+commit.e67f0147.Emscripten.clang"
  },
  "schemaVersion": "2.0.0",
  "updatedAt": "2018-07-06T01:59:51.533Z"
}