{
  "contractName": "LibTournamentAdminMethods",
  "abi": [
    {
      "anonymous": false,
      "inputs": [
        {
          "indexed": false,
          "name": "_startTime",
          "type": "uint256"
        },
        {
          "indexed": false,
          "name": "_endTime",
          "type": "uint256"
        },
        {
          "indexed": false,
          "name": "_reviewPeriodDuration",
          "type": "uint256"
        },
        {
          "indexed": false,
          "name": "_roundAddress",
          "type": "address"
        },
        {
          "indexed": false,
          "name": "_roundNumber",
          "type": "uint256"
        }
      ],
      "name": "NewRound",
      "type": "event"
    },
    {
      "anonymous": false,
      "inputs": [
        {
          "indexed": false,
          "name": "_submissionAddresses",
          "type": "address[]"
        }
      ],
      "name": "RoundWinnersChosen",
      "type": "event"
    },
    {
      "constant": false,
      "inputs": [
        {
          "name": "self",
          "type": "LibConstruction.TournamentData storage"
        },
        {
          "components": [
            {
              "name": "title_1",
              "type": "bytes32"
            },
            {
              "name": "title_2",
              "type": "bytes32"
            },
            {
              "name": "title_3",
              "type": "bytes32"
            },
            {
              "name": "descriptionHash_1",
              "type": "bytes32"
            },
            {
              "name": "descriptionHash_2",
              "type": "bytes32"
            },
            {
              "name": "fileHash_1",
              "type": "bytes32"
            },
            {
              "name": "fileHash_2",
              "type": "bytes32"
            },
            {
              "name": "entryFee",
              "type": "uint256"
            },
            {
              "name": "entryFeeChanged",
              "type": "bool"
            }
          ],
          "name": "tournamentData",
          "type": "tuple"
        },
        {
          "name": "_category",
          "type": "string"
        },
        {
          "name": "platformAddress",
          "type": "address"
        }
      ],
      "name": "update",
      "outputs": [],
      "payable": false,
      "stateMutability": "nonpayable",
      "type": "function"
    },
    {
      "constant": false,
      "inputs": [
        {
          "name": "stateData",
          "type": "LibTournamentStateManagement.StateData storage"
        },
        {
          "name": "platformAddress",
          "type": "address"
        },
        {
          "name": "matryxTokenAddress",
          "type": "address"
        },
        {
          "name": "_submissionAddresses",
          "type": "address[]"
        },
        {
          "name": "_rewardDistribution",
          "type": "uint256[]"
        },
        {
          "components": [
            {
              "name": "start",
              "type": "uint256"
            },
            {
              "name": "end",
              "type": "uint256"
            },
            {
              "name": "reviewPeriodDuration",
              "type": "uint256"
            },
            {
              "name": "bounty",
              "type": "uint256"
            }
          ],
          "name": "_roundData",
          "type": "tuple"
        },
        {
          "name": "_selectWinnerAction",
          "type": "uint256"
        }
      ],
      "name": "selectWinners",
      "outputs": [],
      "payable": false,
      "stateMutability": "nonpayable",
      "type": "function"
    },
    {
      "constant": false,
      "inputs": [
        {
          "name": "stateData",
          "type": "LibTournamentStateManagement.StateData storage"
        },
        {
          "components": [
            {
              "name": "start",
              "type": "uint256"
            },
            {
              "name": "end",
              "type": "uint256"
            },
            {
              "name": "reviewPeriodDuration",
              "type": "uint256"
            },
            {
              "name": "bounty",
              "type": "uint256"
            }
          ],
          "name": "_roundData",
          "type": "tuple"
        },
        {
          "name": "matryxTokenAddress",
          "type": "address"
        }
      ],
      "name": "editGhostRound",
      "outputs": [],
      "payable": false,
      "stateMutability": "nonpayable",
      "type": "function"
    },
    {
      "constant": false,
      "inputs": [
        {
          "name": "stateData",
          "type": "LibTournamentStateManagement.StateData storage"
        },
        {
          "name": "_mtxAllocation",
          "type": "uint256"
        },
        {
          "name": "matryxTokenAddress",
          "type": "address"
        }
      ],
      "name": "allocateMoreToRound",
      "outputs": [],
      "payable": false,
      "stateMutability": "nonpayable",
      "type": "function"
    },
    {
      "constant": false,
      "inputs": [
        {
          "name": "stateData",
          "type": "LibTournamentStateManagement.StateData storage"
        }
      ],
      "name": "jumpToNextRound",
      "outputs": [],
      "payable": false,
      "stateMutability": "nonpayable",
      "type": "function"
    },
    {
      "constant": false,
      "inputs": [
        {
          "name": "stateData",
          "type": "LibTournamentStateManagement.StateData storage"
        },
        {
          "name": "platformAddress",
          "type": "address"
        },
        {
          "name": "matryxTokenAddress",
          "type": "address"
        }
      ],
      "name": "stopTournament",
      "outputs": [],
      "payable": false,
      "stateMutability": "nonpayable",
      "type": "function"
    },
    {
      "constant": false,
      "inputs": [
        {
          "name": "stateData",
          "type": "LibTournamentStateManagement.StateData storage"
        },
        {
          "name": "platformAddress",
          "type": "address"
        },
        {
          "name": "matryxTokenAddress",
          "type": "address"
        },
        {
          "name": "remainingBalance",
          "type": "uint256"
        },
        {
          "name": "currentRoundAddress",
          "type": "address"
        }
      ],
      "name": "closeTournament",
      "outputs": [],
      "payable": false,
      "stateMutability": "nonpayable",
      "type": "function"
    },
    {
      "constant": false,
      "inputs": [
        {
          "name": "stateData",
          "type": "LibTournamentStateManagement.StateData storage"
        },
        {
          "name": "platformAddress",
          "type": "address"
        },
        {
          "name": "matryxTokenAddress",
          "type": "address"
        },
        {
          "name": "matryxRoundFactoryAddress",
          "type": "address"
        },
        {
          "components": [
            {
              "name": "start",
              "type": "uint256"
            },
            {
              "name": "end",
              "type": "uint256"
            },
            {
              "name": "reviewPeriodDuration",
              "type": "uint256"
            },
            {
              "name": "bounty",
              "type": "uint256"
            }
          ],
          "name": "roundData",
          "type": "tuple"
        },
        {
          "name": "_automaticCreation",
          "type": "bool"
        }
      ],
      "name": "createRound",
      "outputs": [
        {
          "name": "_roundAddress",
          "type": "address"
        }
      ],
      "payable": false,
      "stateMutability": "nonpayable",
      "type": "function"
    }
  ],
  "bytecode": "0x6128a8610030600b82828239805160001a6073146000811461002057610022565bfe5b5030600052607381538281f30073000000000000000000000000000000000000000030146080604052600436106100a45763ffffffff7c010000000000000000000000000000000000000000000000000000000060003504166345fbeca081146100a95780635014b851146100cb5780635f3368e9146100eb5780635fd45f0b1461010b578063672ec6231461012b578063a91d59d61461014b578063af4109491461016b578063cfa037dc1461018b575b600080fd5b8180156100b557600080fd5b506100c96100c4366004612274565b6101c1565b005b8180156100d757600080fd5b506100c96100e63660046120bc565b6102e7565b8180156100f757600080fd5b506100c961010636600461218a565b610607565b81801561011757600080fd5b506100c9610126366004612242565b6109d6565b81801561013757600080fd5b506100c96101463660046121ff565b610d3a565b81801561015757600080fd5b506100c9610166366004611fe6565b6111d2565b81801561017757600080fd5b506100c9610186366004611fc8565b6113a6565b81801561019757600080fd5b506101ab6101a6366004612033565b611567565b6040516101b89190612595565b60405180910390f35b6101d26101cd83611942565b611968565b1515610274576040517f8785494e00000000000000000000000000000000000000000000000000000000815273ffffffffffffffffffffffffffffffffffffffff821690638785494e9061022e903090889087906004016125f0565b600060405180830381600087803b15801561024857600080fd5b505af115801561025c573d6000803e3d6000fd5b5050835161027292508691506020850190611c06565b505b82511561028d5782516001850155604083015160028501555b6060830151156102ac5760608301516004850155608083015160058501555b60a0830151156102cb5760a0830151600685015560c083015160078501555b826101000151156102e15760e083015160098501555b50505050565b600080600073__LibTournamentStateManagement__________630386922b8b6040518263ffffffff167c010000000000000000000000000000000000000000000000000000000002815260040161033f91906126ba565b604080518083038186803b15801561035657600080fd5b505af415801561036a573d6000803e3d6000fd5b505050506040513d601f19601f8201168201806040525061038e919081019061230e565b9350508273ffffffffffffffffffffffffffffffffffffffff16631865c57d6040518163ffffffff167c0100000000000000000000000000000000000000000000000000000000028152600401602060405180830381600087803b1580156103f557600080fd5b505af1158015610409573d6000803e3d6000fd5b505050506040513d601f19601f8201168201806040525061042d91908101906122f0565b9150600382148061043e5750600482145b151561047f576040517f08c379a00000000000000000000000000000000000000000000000000000000081526004016104769061269a565b60405180910390fd5b3073ffffffffffffffffffffffffffffffffffffffff166312065fe06040518163ffffffff167c0100000000000000000000000000000000000000000000000000000000028152600401602060405180830381600087803b1580156104e357600080fd5b505af11580156104f7573d6000803e3d6000fd5b505050506040513d601f19601f8201168201806040525061051b91908101906122f0565b90507f5ec9914f46ca24eeb7222e98b6f699b769ab33c1d88072c0651eb9bb19478ad58760405161054c9190612648565b60405180910390a16040517f6a3c195300000000000000000000000000000000000000000000000000000000815273ffffffffffffffffffffffffffffffffffffffff841690636a3c1953906105ac908a908a908a908a90600401612659565b600060405180830381600087803b1580156105c657600080fd5b505af11580156105da573d6000803e3d6000fd5b50600292506105e7915050565b8414156105fb576105fb8a8a8a8487610607565b50505050505050505050565b60008173ffffffffffffffffffffffffffffffffffffffff16631865c57d6040518163ffffffff167c0100000000000000000000000000000000000000000000000000000000028152600401602060405180830381600087803b15801561066d57600080fd5b505af1158015610681573d6000803e3d6000fd5b505050506040513d601f19601f820116820180604052506106a591908101906122f0565b905060058273ffffffffffffffffffffffffffffffffffffffff16631865c57d6040518163ffffffff167c0100000000000000000000000000000000000000000000000000000000028152600401602060405180830381600087803b15801561070d57600080fd5b505af1158015610721573d6000803e3d6000fd5b505050506040513d601f19601f8201168201806040525061074591908101906122f0565b1461074f57600080fd5b6003860154610764908463ffffffff61196d16565b60038701556040517fa9059cbb00000000000000000000000000000000000000000000000000000000815273ffffffffffffffffffffffffffffffffffffffff85169063a9059cbb906107bd908590879060040161262d565b602060405180830381600087803b1580156107d757600080fd5b505af11580156107eb573d6000803e3d6000fd5b505050506040513d601f19601f8201168201806040525061080f9190810190611faa565b506040517f5325cdba00000000000000000000000000000000000000000000000000000000815273ffffffffffffffffffffffffffffffffffffffff831690635325cdba906108629086906004016126c8565b600060405180830381600087803b15801561087c57600080fd5b505af1158015610890573d6000803e3d6000fd5b505050508473ffffffffffffffffffffffffffffffffffffffff1663e14feaea87600001805490508473ffffffffffffffffffffffffffffffffffffffff1663f49bff7b6040518163ffffffff167c0100000000000000000000000000000000000000000000000000000000028152600401602060405180830381600087803b15801561091c57600080fd5b505af1158015610930573d6000803e3d6000fd5b505050506040513d601f19601f8201168201806040525061095491908101906122f0565b6040518363ffffffff167c010000000000000000000000000000000000000000000000000000000002815260040161098d9291906126f1565b600060405180830381600087803b1580156109a757600080fd5b505af11580156109bb573d6000803e3d6000fd5b5050506004909601805460ff19166001179055505050505050565b6000803073ffffffffffffffffffffffffffffffffffffffff166312065fe06040518163ffffffff167c0100000000000000000000000000000000000000000000000000000000028152600401602060405180830381600087803b158015610a3d57600080fd5b505af1158015610a51573d6000803e3d6000fd5b505050506040513d601f19601f82011682018060405250610a7591908101906122f0565b841115610a8157600080fd5b6040517f0386922b00000000000000000000000000000000000000000000000000000000815273__LibTournamentStateManagement__________90630386922b90610ad19088906004016126ba565b604080518083038186803b158015610ae857600080fd5b505af4158015610afc573d6000803e3d6000fd5b505050506040513d601f19601f82011682018060405250610b20919081019061230e565b9250508173ffffffffffffffffffffffffffffffffffffffff16631865c57d6040518163ffffffff167c0100000000000000000000000000000000000000000000000000000000028152600401602060405180830381600087803b158015610b8757600080fd5b505af1158015610b9b573d6000803e3d6000fd5b505050506040513d601f19601f82011682018060405250610bbf91908101906122f0565b9050801580610bce5750600181145b80610bd95750600281145b1515610be457600080fd5b6003850154610bf9908563ffffffff61196d16565b60038601556040517fa9059cbb00000000000000000000000000000000000000000000000000000000815273ffffffffffffffffffffffffffffffffffffffff84169063a9059cbb90610c52908590889060040161262d565b602060405180830381600087803b158015610c6c57600080fd5b505af1158015610c80573d6000803e3d6000fd5b505050506040513d601f19601f82011682018060405250610ca49190810190611faa565b1515610caf57600080fd5b6040517f38e4389500000000000000000000000000000000000000000000000000000000815273ffffffffffffffffffffffffffffffffffffffff8316906338e4389590610d019087906004016126c8565b600060405180830381600087803b158015610d1b57600080fd5b505af1158015610d2f573d6000803e3d6000fd5b505050505050505050565b600080600080600080610d4c89611983565b6040517f0386922b000000000000000000000000000000000000000000000000000000008152919750955073__LibTournamentStateManagement__________90630386922b90610da1908c906004016126ba565b604080518083038186803b158015610db857600080fd5b505af4158015610dcc573d6000803e3d6000fd5b505050506040513d601f19601f82011682018060405250610df0919081019061230e565b94505073ffffffffffffffffffffffffffffffffffffffff851615610d2f578473ffffffffffffffffffffffffffffffffffffffff1663f49bff7b6040518163ffffffff167c0100000000000000000000000000000000000000000000000000000000028152600401602060405180830381600087803b158015610e7357600080fd5b505af1158015610e87573d6000803e3d6000fd5b505050506040513d601f19601f82011682018060405250610eab91908101906122f0565b92508288606001511115610fa1576060880151610ece908463ffffffff611bef16565b60038a0154909250610ee6908363ffffffff61196d16565b60038a01556040517fa9059cbb00000000000000000000000000000000000000000000000000000000815273ffffffffffffffffffffffffffffffffffffffff88169063a9059cbb90610f3f908890869060040161262d565b602060405180830381600087803b158015610f5957600080fd5b505af1158015610f6d573d6000803e3d6000fd5b505050506040513d601f19601f82011682018060405250610f919190810190611faa565b1515610f9c57600080fd5b611065565b8288606001511015611065576060880151610fc390849063ffffffff611bef16565b60038a0154909150610fdb908263ffffffff611bef16565b60038a01556040517f2f0713bb00000000000000000000000000000000000000000000000000000000815273ffffffffffffffffffffffffffffffffffffffff861690632f0713bb906110329084906004016126c8565b600060405180830381600087803b15801561104c57600080fd5b505af1158015611060573d6000803e3d6000fd5b505050505b8473ffffffffffffffffffffffffffffffffffffffff1663f89474be8a6000016001890381548110151561109557fe5b9060005260206000200160009054906101000a900473ffffffffffffffffffffffffffffffffffffffff1673ffffffffffffffffffffffffffffffffffffffff1663439f5ac26040518163ffffffff167c0100000000000000000000000000000000000000000000000000000000028152600401602060405180830381600087803b15801561112357600080fd5b505af1158015611137573d6000803e3d6000fd5b505050506040513d601f19601f8201168201806040525061115b91908101906122f0565b8a6040518363ffffffff167c01000000000000000000000000000000000000000000000000000000000281526004016111959291906126d6565b600060405180830381600087803b1580156111af57600080fd5b505af11580156111c3573d6000803e3d6000fd5b50505050505050505050505050565b6000803073ffffffffffffffffffffffffffffffffffffffff166312065fe06040518163ffffffff167c0100000000000000000000000000000000000000000000000000000000028152600401602060405180830381600087803b15801561123957600080fd5b505af115801561124d573d6000803e3d6000fd5b505050506040513d601f19601f8201168201806040525061127191908101906122f0565b6040517f0386922b00000000000000000000000000000000000000000000000000000000815290925073__LibTournamentStateManagement__________90630386922b906112c49088906004016126ba565b604080518083038186803b1580156112db57600080fd5b505af41580156112ef573d6000803e3d6000fd5b505050506040513d601f19601f82011682018060405250611313919081019061230e565b9150508073ffffffffffffffffffffffffffffffffffffffff1663e278fe6f6040518163ffffffff167c0100000000000000000000000000000000000000000000000000000000028152600401600060405180830381600087803b15801561137a57600080fd5b505af115801561138e573d6000803e3d6000fd5b5050505061139f8585858585610607565b5050505050565b60008073__LibTournamentStateManagement__________630386922b846040518263ffffffff167c01000000000000000000000000000000000000000000000000000000000281526004016113fc91906126ba565b604080518083038186803b15801561141357600080fd5b505af4158015611427573d6000803e3d6000fd5b505050506040513d601f19601f8201168201806040525061144b919081019061230e565b915091508073ffffffffffffffffffffffffffffffffffffffff1663e278fe6f6040518163ffffffff167c0100000000000000000000000000000000000000000000000000000000028152600401600060405180830381600087803b1580156114b357600080fd5b505af11580156114c7573d6000803e3d6000fd5b5050845485925060018501915081106114dc57fe5b6000918252602082200154604080517f0e3db9f2000000000000000000000000000000000000000000000000000000008152905173ffffffffffffffffffffffffffffffffffffffff90921692630e3db9f29260048084019382900301818387803b15801561154a57600080fd5b505af115801561155e573d6000803e3d6000fd5b50505050505050565b60008080803330148061164057508873ffffffffffffffffffffffffffffffffffffffff1663c8ab6c876040518163ffffffff167c0100000000000000000000000000000000000000000000000000000000028152600401602060405180830381600087803b1580156115d957600080fd5b505af11580156115ed573d6000803e3d6000fd5b505050506040513d601f19601f820116820180604052506116119190810190611f84565b73ffffffffffffffffffffffffffffffffffffffff163373ffffffffffffffffffffffffffffffffffffffff16145b8061165c575033600090815260018b01602052604090205460ff165b151561166757600080fd5b60208601518651106116a5576040517f08c379a0000000000000000000000000000000000000000000000000000000008152600401610476906126aa565b85514211156116d257855160208701516116c49163ffffffff611bef16565b428088528101602088015292505b8691508415156116ed5760608601516000106116ed57600080fd5b89546040517faf1237af00000000000000000000000000000000000000000000000000000000815273ffffffffffffffffffffffffffffffffffffffff84169163af1237af91611747918d91309133918d906004016125a3565b602060405180830381600087803b15801561176157600080fd5b505af1158015611775573d6000803e3d6000fd5b505050506040513d601f19601f820116820180604052506117999190810190611f84565b8a54909150158015906117af5750606086015115155b1561187d57606086015160038b01546117cd9163ffffffff61196d16565b60038b015560608601516040517fa9059cbb00000000000000000000000000000000000000000000000000000000815273ffffffffffffffffffffffffffffffffffffffff8a169163a9059cbb9161182991859160040161262d565b602060405180830381600087803b15801561184357600080fd5b505af1158015611857573d6000803e3d6000fd5b505050506040513d601f19601f8201168201806040525061187b9190810190611faa565b505b895460018082018c5560008c8152602080822090930180547fffffffffffffffffffffffff00000000000000000000000000000000000000001673ffffffffffffffffffffffffffffffffffffffff86169081179091558152818d018352604090819020805460ff1916909217909155875191880151888201518d5492517f7d3cfca05a07773179cf217e8ffc51764c3dce48e826d85feb2b280f7674eeef9461192d94909392918791906126ff565b60405180910390a19998505050505050505050565b61194a611c84565b50604080518082019091528151815260209182019181019190915290565b511590565b60008282018381101561197c57fe5b9392505050565b6000806004835484907ffffffffffffffffffffffffffffffffffffffffffffffffffffffffffffffffe81019081106119b857fe5b9060005260206000200160009054906101000a900473ffffffffffffffffffffffffffffffffffffffff1673ffffffffffffffffffffffffffffffffffffffff16631865c57d6040518163ffffffff167c0100000000000000000000000000000000000000000000000000000000028152600401602060405180830381600087803b158015611a4657600080fd5b505af1158015611a5a573d6000803e3d6000fd5b505050506040513d601f19601f82011682018060405250611a7e91908101906122f0565b148015611b8057506000835484907fffffffffffffffffffffffffffffffffffffffffffffffffffffffffffffffff8101908110611ab857fe5b9060005260206000200160009054906101000a900473ffffffffffffffffffffffffffffffffffffffff1673ffffffffffffffffffffffffffffffffffffffff16631865c57d6040518163ffffffff167c0100000000000000000000000000000000000000000000000000000000028152600401602060405180830381600087803b158015611b4657600080fd5b505af1158015611b5a573d6000803e3d6000fd5b505050506040513d601f19601f82011682018060405250611b7e91908101906122f0565b145b15611be35782547fffffffffffffffffffffffffffffffffffffffffffffffffffffffffffffffff810190849082908110611bb757fe5b60009182526020909120015490925073ffffffffffffffffffffffffffffffffffffffff169050611bea565b5060009050805b915091565b600082821115611bfb57fe5b508082035b92915050565b828054600181600116156101000203166002900490600052602060002090601f016020900481019282601f10611c4757805160ff1916838001178555611c74565b82800160010185558215611c74579182015b82811115611c74578251825591602001919060010190611c59565b50611c80929150611c9b565b5090565b604080518082019091526000808252602082015290565b611cb591905b80821115611c805760008155600101611ca1565b90565b600061197c82356127e5565b600061197c82516127e5565b6000601f82018313611ce157600080fd5b8135611cf4611cef82612768565b612741565b91508181835260208401935060208101905083856020840282011115611d1957600080fd5b60005b83811015611d455781611d2f8882611cb8565b8452506020928301929190910190600101611d1c565b5050505092915050565b6000601f82018313611d6057600080fd5b8135611d6e611cef82612768565b91508181835260208401935060208101905083856020840282011115611d9357600080fd5b60005b83811015611d455781611da98882611dd7565b8452506020928301929190910190600101611d96565b600061197c82356127fe565b600061197c82516127fe565b600061197c8235611cb5565b6000601f82018313611df457600080fd5b8135611e02611cef82612789565b91508082526020830160208301858383011115611e1e57600080fd5b611e2983828461280e565b50505092915050565b600060808284031215611e4457600080fd5b611e4e6080612741565b90506000611e5c8484611dd7565b8252506020611e6d84848301611dd7565b6020830152506040611e8184828501611dd7565b6040830152506060611e9584828501611dd7565b60608301525092915050565b60006101208284031215611eb457600080fd5b611ebf610120612741565b90506000611ecd8484611dd7565b8252506020611ede84848301611dd7565b6020830152506040611ef284828501611dd7565b6040830152506060611f0684828501611dd7565b6060830152506080611f1a84828501611dd7565b60808301525060a0611f2e84828501611dd7565b60a08301525060c0611f4284828501611dd7565b60c08301525060e0611f5684828501611dd7565b60e083015250610100611f6b84828501611dbf565b6101008301525092915050565b600061197c8251611cb5565b600060208284031215611f9657600080fd5b6000611fa28484611cc4565b949350505050565b600060208284031215611fbc57600080fd5b6000611fa28484611dcb565b600060208284031215611fda57600080fd5b6000611fa28484611dd7565b600080600060608486031215611ffb57600080fd5b60006120078686611dd7565b935050602061201886828701611cb8565b925050604061202986828701611cb8565b9150509250925092565b600080600080600080610120878903121561204d57600080fd5b60006120598989611dd7565b965050602061206a89828a01611cb8565b955050604061207b89828a01611cb8565b945050606061208c89828a01611cb8565b935050608061209d89828a01611e32565b9250506101006120af89828a01611dbf565b9150509295509295509295565b6000806000806000806000610140888a0312156120d857600080fd5b60006120e48a8a611dd7565b97505060206120f58a828b01611cb8565b96505060406121068a828b01611cb8565b955050606088013567ffffffffffffffff81111561212357600080fd5b61212f8a828b01611cd0565b945050608088013567ffffffffffffffff81111561214c57600080fd5b6121588a828b01611d4f565b93505060a06121698a828b01611e32565b92505061012061217b8a828b01611dd7565b91505092959891949750929550565b600080600080600060a086880312156121a257600080fd5b60006121ae8888611dd7565b95505060206121bf88828901611cb8565b94505060406121d088828901611cb8565b93505060606121e188828901611dd7565b92505060806121f288828901611cb8565b9150509295509295909350565b600080600060c0848603121561221457600080fd5b60006122208686611dd7565b935050602061223186828701611e32565b92505060a061202986828701611cb8565b60008060006060848603121561225757600080fd5b60006122638686611dd7565b935050602061201886828701611dd7565b600080600080610180858703121561228b57600080fd5b60006122978787611dd7565b94505060206122a887828801611ea1565b93505061014085013567ffffffffffffffff8111156122c657600080fd5b6122d287828801611de3565b9250506101606122e487828801611cb8565b91505092959194509250565b60006020828403121561230257600080fd5b6000611fa28484611f78565b6000806040838503121561232157600080fd5b600061232d8585611f78565b925050602061233e85828601611cc4565b9150509250929050565b612351816127e5565b82525050565b6000612362826127e1565b808452602084019350612374836127cf565b60005b828110156123a45761238a868351612348565b612393826127cf565b602096909601959150600101612377565b5093949350505050565b60006123b9826127e1565b8084526020840193506123cb836127cf565b60005b828110156123a4576123e186835161258c565b6123ea826127cf565b6020969096019591506001016123ce565b61235181612803565b600061240f826127e1565b80845261242381602086016020860161281a565b61242c81612846565b9093016020019392505050565b6000815460018116600081146124565760018114612474576124b0565b60028204607f16855260ff19821660208601526040850192506124b0565b6002820480865260208601955061248a856127d5565b60005b828110156124a95781548882015260019091019060200161248d565b8701945050505b505092915050565b603781527f526f756e64206973206e6f7420696e20726576696577206f722077696e6e657260208201527f732068617665206e6f74206265656e2063686f73656e2e000000000000000000604082015260600190565b601c81527f54696d6520706172616d65746572732061726520696e76616c69642e00000000602082015260400190565b8051608083019061254f848261258c565b506020820151612562602085018261258c565b506040820151612575604085018261258c565b5060608201516102e1606085018261258c565b9052565b61235181611cb5565b60208101611c008284612348565b61010081016125b28288612348565b6125bf60208301876123fb565b6125cc6040830186612348565b6125d9606083018561258c565b6125e6608083018461253e565b9695505050505050565b606081016125fe8286612348565b81810360208301526126108185612439565b905081810360408301526126248184612404565b95945050505050565b6040810161263b8285612348565b61197c602083018461258c565b6020808252810161197c8184612357565b60e0808252810161266a8187612357565b9050818103602083015261267e81866123ae565b905061268d604083018561253e565b61262460c083018461258c565b60208082528101611c00816124b8565b60208082528101611c008161250e565b60208101611c008284612588565b60208101611c00828461258c565b60a081016126e4828561258c565b61197c602083018461253e565b6040810161263b828561258c565b60a0810161270d828861258c565b61271a602083018761258c565b612727604083018661258c565b6127346060830185612348565b6125e6608083018461258c565b60405181810167ffffffffffffffff8111828210171561276057600080fd5b604052919050565b600067ffffffffffffffff82111561277f57600080fd5b5060209081020190565b600067ffffffffffffffff8211156127a057600080fd5b506020601f919091017fffffffffffffffffffffffffffffffffffffffffffffffffffffffffffffffe0160190565b60200190565b60009081526020902090565b5190565b73ffffffffffffffffffffffffffffffffffffffff1690565b151590565b6000611c00826127e5565b82818337506000910152565b60005b8381101561283557818101518382015260200161281d565b838111156102e15750506000910152565b601f017fffffffffffffffffffffffffffffffffffffffffffffffffffffffffffffffe016905600a265627a7a7230582011268d1b397d7c8bf5e380479ddee257f5a9f7745651e5b3f76550cd6480f1946c6578706572696d656e74616cf50037",
  "source": "pragma solidity ^0.4.18;\npragma experimental ABIEncoderV2;\n\nimport \"../math/SafeMath.sol\";\nimport \"../strings/strings.sol\";\nimport \"../../interfaces/factories/IMatryxRoundFactory.sol\";\nimport \"./LibTournamentStateManagement.sol\";\nimport \"../../interfaces/IMatryxPlatform.sol\";\nimport \"../../interfaces/IMatryxToken.sol\";\nimport \"../../interfaces/IMatryxTournament.sol\";\nimport \"../../interfaces/IMatryxRound.sol\";\n\nlibrary LibTournamentAdminMethods\n{\n    using SafeMath for uint256;\n    using strings for *;\n\n    enum RoundState { NotYetOpen, Unfunded, Open, InReview, HasWinners, Closed, Abandoned }\n    enum SelectWinnerAction { DoNothing, StartNextRound, CloseTournament }\n\n    event NewRound(uint256 _startTime, uint256 _endTime, uint256 _reviewPeriodDuration, address _roundAddress, uint256 _roundNumber);\n    event RoundWinnersChosen(address[] _submissionAddresses);\n\n    function update(LibConstruction.TournamentData storage self, LibConstruction.TournamentModificationData tournamentData, string _category, address platformAddress)\n    {\n        // TODO: Update the category on the platform\n        if(_category.toSlice().empty() == false)\n        {\n            IMatryxPlatform(platformAddress).switchTournamentCategory(address(this), self.category, _category);\n            self.category = _category;\n        }\n        if(tournamentData.title_1 != 0x0)\n        {\n            self.title_1 = tournamentData.title_1;\n            self.title_2 = tournamentData.title_2;\n            self.title_2 = tournamentData.title_3;\n        }\n        if(tournamentData.descriptionHash_1 != 0x0)\n        {\n            self.descriptionHash_1 = tournamentData.descriptionHash_1;\n            self.descriptionHash_2 = tournamentData.descriptionHash_2;\n        }\n        if(tournamentData.fileHash_1 != 0x0)\n        {\n            self.fileHash_1 = tournamentData.fileHash_1;\n            self.fileHash_2 = tournamentData.fileHash_2;\n        }\n        if(tournamentData.entryFeeChanged)\n        {\n            self.entryFee = tournamentData.entryFee;\n        }\n    }\n\n    /// @dev Chooses the winner(s) of the current round. If this is the last round, \n    //       this method will also close the tournament.\n    /// @param _submissionAddresses The winning submission addresses\n    /// @param _rewardDistribution Distribution indicating how to split the reward among the submissions\n    function selectWinners(LibTournamentStateManagement.StateData storage stateData, address platformAddress, address matryxTokenAddress, address[] _submissionAddresses, uint256[] _rewardDistribution, LibConstruction.RoundData _roundData, uint256 _selectWinnerAction) public\n    {\n        // Round must be in review or have winners to close\n        (,address currentRoundAddress) = LibTournamentStateManagement.currentRound(stateData);\n        uint256 roundState = uint256(IMatryxRound(currentRoundAddress).getState());\n        require(roundState == uint256(RoundState.InReview) || roundState == uint256(RoundState.HasWinners), \"Round is not in review or winners have not been chosen.\");\n        uint256 remainingBalance = IMatryxTournament(this).getBalance();\n        // Event to notify web3 of the winning submission address\n        emit RoundWinnersChosen(_submissionAddresses);\n        IMatryxRound(currentRoundAddress).selectWinningSubmissions(_submissionAddresses, _rewardDistribution, _roundData, _selectWinnerAction);\n        if(_selectWinnerAction == uint256(SelectWinnerAction.CloseTournament))\n        {\n            closeTournament(stateData, platformAddress, matryxTokenAddress, remainingBalance, currentRoundAddress);\n        }\n    }\n\n    function editGhostRound(LibTournamentStateManagement.StateData storage stateData, LibConstruction.RoundData _roundData, address matryxTokenAddress) public\n    {\n\n        (uint256 ghostRoundIndex, address ghostRoundAddress) = LibTournamentStateManagement.getGhostRound(stateData);\n        (,address currentRoundAddress) = LibTournamentStateManagement.currentRound(stateData);\n        if(ghostRoundAddress != 0x0)\n        {\n            uint256 ghostRoundBounty = IMatryxRound(ghostRoundAddress).getBounty();\n            if(_roundData.bounty > ghostRoundBounty)\n            {\n                // Transfer to ghost round\n                uint256 addAmount = _roundData.bounty.sub(ghostRoundBounty);\n                stateData.roundBountyAllocation = stateData.roundBountyAllocation.add(addAmount);\n                require(IMatryxToken(matryxTokenAddress).transfer(ghostRoundAddress, addAmount));\n            }\n            else if(_roundData.bounty < ghostRoundBounty)\n            {\n                // Have ghost round transfer to the tournament\n                uint256 subAmount = ghostRoundBounty.sub(_roundData.bounty);\n                stateData.roundBountyAllocation = stateData.roundBountyAllocation.sub(subAmount);\n                IMatryxRound(ghostRoundAddress).transferToTournament(subAmount);\n            }\n\n            IMatryxRound(ghostRoundAddress).editRound(IMatryxRound(stateData.rounds[ghostRoundIndex-1]).getEndTime(), _roundData);\n        }\n    }\n\n    ///@dev Allocates some of this tournament's balance to the current round\n    function allocateMoreToRound(LibTournamentStateManagement.StateData storage stateData, uint256 _mtxAllocation, address matryxTokenAddress) public\n    {\n        require(_mtxAllocation <= IMatryxTournament(this).getBalance());\n        (, address currentRoundAddress) = LibTournamentStateManagement.currentRound(stateData);\n        uint256 currentRoundState = IMatryxRound(currentRoundAddress).getState();\n        require(currentRoundState == uint256(RoundState.NotYetOpen) || \n                currentRoundState == uint256(RoundState.Unfunded) || \n                currentRoundState == uint256(RoundState.Open));\n\n        stateData.roundBountyAllocation = stateData.roundBountyAllocation.add(_mtxAllocation);\n        require(IMatryxToken(matryxTokenAddress).transfer(currentRoundAddress, _mtxAllocation));\n        IMatryxRound(currentRoundAddress).addBounty(_mtxAllocation);\n    }\n\n    /// @dev This function should be called after the user selects winners for their tournament and chooses the \"DoNothing\" option\n    function jumpToNextRound(LibTournamentStateManagement.StateData storage stateData) public\n    {\n        (uint256 currentRoundIndex, address currentRoundAddress) = LibTournamentStateManagement.currentRound(stateData);\n        IMatryxRound(currentRoundAddress).closeRound();\n        IMatryxRound(stateData.rounds[currentRoundIndex+1]).startNow();\n    }\n\n    /// @dev This function closes the tournament after the tournament owner selects their winners with the \"DoNothing\" option\n    function stopTournament(LibTournamentStateManagement.StateData storage stateData, address platformAddress, address matryxTokenAddress) public\n    {\n        uint256 remainingBalance = IMatryxTournament(this).getBalance();\n        (,address currentRoundAddress) = LibTournamentStateManagement.currentRound(stateData);\n        IMatryxRound(currentRoundAddress).closeRound();\n        closeTournament(stateData, platformAddress, matryxTokenAddress, remainingBalance, currentRoundAddress);\n    }\n\n    // @dev Chooses the winner of the tournament.\n    function closeTournament(LibTournamentStateManagement.StateData storage stateData, address platformAddress, address matryxTokenAddress, uint256 remainingBalance, address currentRoundAddress) public\n    {\n        uint256 roundState = uint256(IMatryxRound(currentRoundAddress).getState());\n        require(IMatryxRound(currentRoundAddress).getState() == uint256(RoundState.Closed));\n        // Transfer the remaining MTX in the tournament to the current round\n        stateData.roundBountyAllocation = stateData.roundBountyAllocation.add(remainingBalance);\n        IMatryxToken(matryxTokenAddress).transfer(currentRoundAddress, remainingBalance);\n        IMatryxRound(currentRoundAddress).transferAllToWinners(remainingBalance);\n        IMatryxPlatform(platformAddress).invokeTournamentClosedEvent(stateData.rounds.length, IMatryxRound(currentRoundAddress).getBounty());\n            \n        stateData.closed = true;\n    }\n\n    /// @dev Creates a new round.\n    /// @return The new round's address.\n    function createRound(LibTournamentStateManagement.StateData storage stateData, address platformAddress, address matryxTokenAddress, address matryxRoundFactoryAddress, LibConstruction.RoundData roundData, bool _automaticCreation) public returns (address _roundAddress)\n    {\n        // only this, the tournamentFactory or rounds can call createRound\n        require(msg.sender == address(this) || msg.sender == IMatryxPlatform(platformAddress).getTournamentFactoryAddress() || stateData.isRound[msg.sender]);\n        require(roundData.start < roundData.end, \"Time parameters are invalid.\");\n    \n        // Argument for start & duration instead of start & end\n        if(roundData.start < now)\n        {\n            uint256 duration = roundData.end.sub(roundData.start);\n            roundData.start = now;\n            roundData.end = now + duration;\n        }\n\n        IMatryxRoundFactory roundFactory = IMatryxRoundFactory(matryxRoundFactoryAddress);\n        address newRoundAddress;\n\n        if(_automaticCreation == false)\n        {\n            require(roundData.bounty > 0);\n        }\n\n        newRoundAddress = roundFactory.createRound(platformAddress, this, msg.sender, stateData.rounds.length, roundData);\n\n        // Transfer the round bounty to the round.\n        // If this is the first round, the bounty is transfered to the round *by the platform in createTournament* (by tournament.sendBountyToRound)\n        if(stateData.rounds.length != 0 && roundData.bounty != 0)\n        {\n            stateData.roundBountyAllocation = stateData.roundBountyAllocation.add(roundData.bounty);\n            IMatryxToken(matryxTokenAddress).transfer(newRoundAddress, roundData.bounty);\n        }\n\n        stateData.rounds.push(newRoundAddress);\n        stateData.isRound[newRoundAddress] = true;\n\n        // Triggers Event displaying start time, end, address, and round number\n        emit NewRound(roundData.start, roundData.end, roundData.reviewPeriodDuration, newRoundAddress, stateData.rounds.length);\n\n        return newRoundAddress;\n    }\n}",
  "sourcePath": "/Users/maxhoward/Desktop/Ethereum/Development/Matryx/Projects/MatryxPlatform/libraries/tournament/LibTournamentAdminMethods.sol",
  "compiler": {
    "name": "solc",
    "version": "0.4.24+commit.e67f0147.Emscripten.clang"
  },
  "schemaVersion": "2.0.0",
  "updatedAt": "2018-07-12T19:21:19.866Z"
}