{
  "contractName": "LibTournamentAdminMethods",
  "abi": [
    {
      "anonymous": false,
      "inputs": [
        {
          "indexed": false,
          "name": "_startTime",
          "type": "uint256"
        },
        {
          "indexed": false,
          "name": "_endTime",
          "type": "uint256"
        },
        {
          "indexed": false,
          "name": "_reviewPeriodDuration",
          "type": "uint256"
        },
        {
          "indexed": false,
          "name": "_roundAddress",
          "type": "address"
        },
        {
          "indexed": false,
          "name": "_roundNumber",
          "type": "uint256"
        }
      ],
      "name": "NewRound",
      "type": "event"
    },
    {
      "anonymous": false,
      "inputs": [
        {
          "indexed": false,
          "name": "_submissionAddresses",
          "type": "address[]"
        }
      ],
      "name": "RoundWinnersChosen",
      "type": "event"
    },
    {
      "constant": false,
      "inputs": [
        {
          "name": "self",
          "type": "LibConstruction.TournamentData storage"
        },
        {
          "components": [
            {
              "name": "category",
              "type": "bytes32"
            },
            {
              "name": "title",
              "type": "bytes32[3]"
            },
            {
              "name": "descriptionHash",
              "type": "bytes32[2]"
            },
            {
              "name": "fileHash",
              "type": "bytes32[2]"
            },
            {
              "name": "entryFee",
              "type": "uint256"
            },
            {
              "name": "entryFeeChanged",
              "type": "bool"
            }
          ],
          "name": "tournamentData",
          "type": "tuple"
        },
        {
          "name": "platformAddress",
          "type": "address"
        }
      ],
      "name": "update",
      "outputs": [],
      "payable": false,
      "stateMutability": "nonpayable",
      "type": "function"
    },
    {
      "constant": false,
      "inputs": [
        {
          "name": "stateData",
          "type": "LibTournamentStateManagement.StateData storage"
        },
        {
          "name": "platformAddress",
          "type": "address"
        },
        {
          "name": "matryxTokenAddress",
          "type": "address"
        },
        {
          "components": [
            {
              "name": "winningSubmissions",
              "type": "address[]"
            },
            {
              "name": "rewardDistribution",
              "type": "uint256[]"
            },
            {
              "name": "selectWinnerAction",
              "type": "uint256"
            },
            {
              "name": "rewardDistributionTotal",
              "type": "uint256"
            }
          ],
          "name": "_selectWinnersData",
          "type": "tuple"
        },
        {
          "components": [
            {
              "name": "start",
              "type": "uint256"
            },
            {
              "name": "end",
              "type": "uint256"
            },
            {
              "name": "reviewPeriodDuration",
              "type": "uint256"
            },
            {
              "name": "bounty",
              "type": "uint256"
            },
            {
              "name": "closed",
              "type": "bool"
            }
          ],
          "name": "_roundData",
          "type": "tuple"
        }
      ],
      "name": "selectWinners",
      "outputs": [],
      "payable": false,
      "stateMutability": "nonpayable",
      "type": "function"
    },
    {
      "constant": false,
      "inputs": [
        {
          "name": "stateData",
          "type": "LibTournamentStateManagement.StateData storage"
        },
        {
          "components": [
            {
              "name": "start",
              "type": "uint256"
            },
            {
              "name": "end",
              "type": "uint256"
            },
            {
              "name": "reviewPeriodDuration",
              "type": "uint256"
            },
            {
              "name": "bounty",
              "type": "uint256"
            },
            {
              "name": "closed",
              "type": "bool"
            }
          ],
          "name": "_roundData",
          "type": "tuple"
        },
        {
          "name": "matryxTokenAddress",
          "type": "address"
        }
      ],
      "name": "editGhostRound",
      "outputs": [],
      "payable": false,
      "stateMutability": "nonpayable",
      "type": "function"
    },
    {
      "constant": false,
      "inputs": [
        {
          "name": "stateData",
          "type": "LibTournamentStateManagement.StateData storage"
        },
        {
          "name": "_mtxAllocation",
          "type": "uint256"
        },
        {
          "name": "matryxTokenAddress",
          "type": "address"
        }
      ],
      "name": "allocateMoreToRound",
      "outputs": [],
      "payable": false,
      "stateMutability": "nonpayable",
      "type": "function"
    },
    {
      "constant": false,
      "inputs": [
        {
          "name": "stateData",
          "type": "LibTournamentStateManagement.StateData storage"
        }
      ],
      "name": "jumpToNextRound",
      "outputs": [],
      "payable": false,
      "stateMutability": "nonpayable",
      "type": "function"
    },
    {
      "constant": false,
      "inputs": [
        {
          "name": "stateData",
          "type": "LibTournamentStateManagement.StateData storage"
        },
        {
          "name": "platformAddress",
          "type": "address"
        },
        {
          "name": "matryxTokenAddress",
          "type": "address"
        }
      ],
      "name": "stopTournament",
      "outputs": [],
      "payable": false,
      "stateMutability": "nonpayable",
      "type": "function"
    },
    {
      "constant": false,
      "inputs": [
        {
          "name": "stateData",
          "type": "LibTournamentStateManagement.StateData storage"
        },
        {
          "name": "platformAddress",
          "type": "address"
        },
        {
          "name": "matryxTokenAddress",
          "type": "address"
        },
        {
          "name": "matryxRoundFactoryAddress",
          "type": "address"
        },
        {
          "components": [
            {
              "name": "start",
              "type": "uint256"
            },
            {
              "name": "end",
              "type": "uint256"
            },
            {
              "name": "reviewPeriodDuration",
              "type": "uint256"
            },
            {
              "name": "bounty",
              "type": "uint256"
            },
            {
              "name": "closed",
              "type": "bool"
            }
          ],
          "name": "roundData",
          "type": "tuple"
        },
        {
          "name": "_automaticCreation",
          "type": "bool"
        }
      ],
      "name": "createRound",
      "outputs": [
        {
          "name": "_roundAddress",
          "type": "address"
        }
      ],
      "payable": false,
      "stateMutability": "nonpayable",
      "type": "function"
    }
  ],
  "bytecode": "0x612617610030600b82828239805160001a6073146000811461002057610022565bfe5b5030600052607381538281f30073000000000000000000000000000000000000000030146080604052600436106100995763ffffffff7c01000000000000000000000000000000000000000000000000000000006000350416635fd45f0b811461009e578063672ec623146100c0578063a91d59d6146100e0578063af41094914610100578063b43475ff14610120578063cfa037dc14610140578063d06b592414610176575b600080fd5b8180156100aa57600080fd5b506100be6100b93660046120e6565b610196565b005b8180156100cc57600080fd5b506100be6100db3660046120a3565b6104fa565b8180156100ec57600080fd5b506100be6100fb366004611f3f565b6108ef565b81801561010c57600080fd5b506100be61011b366004611f21565b610ac3565b81801561012c57600080fd5b506100be61013b366004612118565b610c84565b81801561014c57600080fd5b5061016061015b366004611f8c565b610d9a565b60405161016d91906123d2565b60405180910390f35b81801561018257600080fd5b506100be610191366004612015565b6111a9565b6000803073ffffffffffffffffffffffffffffffffffffffff166312065fe06040518163ffffffff167c0100000000000000000000000000000000000000000000000000000000028152600401602060405180830381600087803b1580156101fd57600080fd5b505af1158015610211573d6000803e3d6000fd5b505050506040513d601f19601f82011682018060405250610235919081019061215d565b84111561024157600080fd5b6040517f0386922b00000000000000000000000000000000000000000000000000000000815273__LibTournamentStateManagement__________90630386922b906102919088906004016124b3565b604080518083038186803b1580156102a857600080fd5b505af41580156102bc573d6000803e3d6000fd5b505050506040513d601f19601f820116820180604052506102e0919081019061217b565b9250508173ffffffffffffffffffffffffffffffffffffffff16631865c57d6040518163ffffffff167c0100000000000000000000000000000000000000000000000000000000028152600401602060405180830381600087803b15801561034757600080fd5b505af115801561035b573d6000803e3d6000fd5b505050506040513d601f19601f8201168201806040525061037f919081019061215d565b905080158061038e5750600181145b806103995750600281145b15156103a457600080fd5b60038501546103b9908563ffffffff6114b816565b60038601556040517fa9059cbb00000000000000000000000000000000000000000000000000000000815273ffffffffffffffffffffffffffffffffffffffff84169063a9059cbb906104129085908890600401612447565b602060405180830381600087803b15801561042c57600080fd5b505af1158015610440573d6000803e3d6000fd5b505050506040513d601f19601f820116820180604052506104649190810190611f03565b151561046f57600080fd5b6040517f38e4389500000000000000000000000000000000000000000000000000000000815273ffffffffffffffffffffffffffffffffffffffff8316906338e43895906104c19087906004016124c1565b600060405180830381600087803b1580156104db57600080fd5b505af11580156104ef573d6000803e3d6000fd5b505050505050505050565b600080600080600061050b886114ce565b909550935073ffffffffffffffffffffffffffffffffffffffff8416156108e5578373ffffffffffffffffffffffffffffffffffffffff1663f49bff7b6040518163ffffffff167c0100000000000000000000000000000000000000000000000000000000028152600401602060405180830381600087803b15801561059057600080fd5b505af11580156105a4573d6000803e3d6000fd5b505050506040513d601f19601f820116820180604052506105c8919081019061215d565b925082876060015111156106be5760608701516105eb908463ffffffff61173a16565b6003890154909250610603908363ffffffff6114b816565b60038901556040517fa9059cbb00000000000000000000000000000000000000000000000000000000815273ffffffffffffffffffffffffffffffffffffffff87169063a9059cbb9061065c9087908690600401612447565b602060405180830381600087803b15801561067657600080fd5b505af115801561068a573d6000803e3d6000fd5b505050506040513d601f19601f820116820180604052506106ae9190810190611f03565b15156106b957600080fd5b610782565b82876060015110156107825760608701516106e090849063ffffffff61173a16565b60038901549091506106f8908263ffffffff61173a16565b60038901556040517f2f0713bb00000000000000000000000000000000000000000000000000000000815273ffffffffffffffffffffffffffffffffffffffff851690632f0713bb9061074f9084906004016124c1565b600060405180830381600087803b15801561076957600080fd5b505af115801561077d573d6000803e3d6000fd5b505050505b8373ffffffffffffffffffffffffffffffffffffffff16638fa4e7b989600001600188038154811015156107b257fe5b9060005260206000200160009054906101000a900473ffffffffffffffffffffffffffffffffffffffff1673ffffffffffffffffffffffffffffffffffffffff1663439f5ac26040518163ffffffff167c0100000000000000000000000000000000000000000000000000000000028152600401602060405180830381600087803b15801561084057600080fd5b505af1158015610854573d6000803e3d6000fd5b505050506040513d601f19601f82011682018060405250610878919081019061215d565b896040518363ffffffff167c01000000000000000000000000000000000000000000000000000000000281526004016108b29291906124cf565b600060405180830381600087803b1580156108cc57600080fd5b505af11580156108e0573d6000803e3d6000fd5b505050505b5050505050505050565b6000803073ffffffffffffffffffffffffffffffffffffffff166312065fe06040518163ffffffff167c0100000000000000000000000000000000000000000000000000000000028152600401602060405180830381600087803b15801561095657600080fd5b505af115801561096a573d6000803e3d6000fd5b505050506040513d601f19601f8201168201806040525061098e919081019061215d565b6040517f0386922b00000000000000000000000000000000000000000000000000000000815290925073__LibTournamentStateManagement__________90630386922b906109e19088906004016124b3565b604080518083038186803b1580156109f857600080fd5b505af4158015610a0c573d6000803e3d6000fd5b505050506040513d601f19601f82011682018060405250610a30919081019061217b565b9150508073ffffffffffffffffffffffffffffffffffffffff1663e278fe6f6040518163ffffffff167c0100000000000000000000000000000000000000000000000000000000028152600401600060405180830381600087803b158015610a9757600080fd5b505af1158015610aab573d6000803e3d6000fd5b50505050610abc8585858585611751565b5050505050565b60008073__LibTournamentStateManagement__________630386922b846040518263ffffffff167c0100000000000000000000000000000000000000000000000000000000028152600401610b1991906124b3565b604080518083038186803b158015610b3057600080fd5b505af4158015610b44573d6000803e3d6000fd5b505050506040513d601f19601f82011682018060405250610b68919081019061217b565b915091508073ffffffffffffffffffffffffffffffffffffffff1663e278fe6f6040518163ffffffff167c0100000000000000000000000000000000000000000000000000000000028152600401600060405180830381600087803b158015610bd057600080fd5b505af1158015610be4573d6000803e3d6000fd5b505084548592506001850191508110610bf957fe5b6000918252602082200154604080517f0e3db9f2000000000000000000000000000000000000000000000000000000008152905173ffffffffffffffffffffffffffffffffffffffff90921692630e3db9f29260048084019382900301818387803b158015610c6757600080fd5b505af1158015610c7b573d6000803e3d6000fd5b50505050505050565b815115610d1a57825482516040517fb3abaaaa00000000000000000000000000000000000000000000000000000000815273ffffffffffffffffffffffffffffffffffffffff84169263b3abaaaa92610ce392309291906004016123e0565b600060405180830381600087803b158015610cfd57600080fd5b505af1158015610d11573d6000803e3d6000fd5b50508351855550505b60208201515115610d3c576020820151610d3a9060018501906003611a9d565b505b60408201515115610d5e576040820151610d5c9060048501906002611add565b505b60608201515115610d80576060820151610d7e9060068501906002611add565b505b8160a0015115610d9557608082015160098401555b505050565b600080808033301480610e7357508873ffffffffffffffffffffffffffffffffffffffff1663c8ab6c876040518163ffffffff167c0100000000000000000000000000000000000000000000000000000000028152600401602060405180830381600087803b158015610e0c57600080fd5b505af1158015610e20573d6000803e3d6000fd5b505050506040513d601f19601f82011682018060405250610e449190810190611edd565b73ffffffffffffffffffffffffffffffffffffffff163373ffffffffffffffffffffffffffffffffffffffff16145b80610e8f575033600090815260018b01602052604090205460ff165b1515610e9a57600080fd5b6020860151865110610ee1576040517f08c379a0000000000000000000000000000000000000000000000000000000008152600401610ed890612483565b60405180910390fd5b8551421115610f1d5785516020870151610f009163ffffffff61173a16565b42808852909350610f17908463ffffffff6114b816565b60208701525b869150841515610f38576060860151600010610f3857600080fd5b6040517f911132e200000000000000000000000000000000000000000000000000000000815273ffffffffffffffffffffffffffffffffffffffff83169063911132e290610f90908c90309033908c90600401612408565b602060405180830381600087803b158015610faa57600080fd5b505af1158015610fbe573d6000803e3d6000fd5b505050506040513d601f19601f82011682018060405250610fe29190810190611edd565b8a5490915015801590610ff85750606086015115155b156110c657606086015160038b01546110169163ffffffff6114b816565b60038b015560608601516040517fa9059cbb00000000000000000000000000000000000000000000000000000000815273ffffffffffffffffffffffffffffffffffffffff8a169163a9059cbb91611072918591600401612447565b602060405180830381600087803b15801561108c57600080fd5b505af11580156110a0573d6000803e3d6000fd5b505050506040513d601f19601f820116820180604052506110c49190810190611f03565b505b895460018082018c5560008c8152602080822090930180547fffffffffffffffffffffffff00000000000000000000000000000000000000001673ffffffffffffffffffffffffffffffffffffffff86169081179091558152818d01835260409081902080547fffffffffffffffffffffffffffffffffffffffffffffffffffffffffffffff0016909217909155875191880151888201518d5492517f7d3cfca05a07773179cf217e8ffc51764c3dce48e826d85feb2b280f7674eeef9461119494909392918791906124f8565b60405180910390a19998505050505050505050565b600080600073__LibTournamentStateManagement__________630386922b896040518263ffffffff167c010000000000000000000000000000000000000000000000000000000002815260040161120191906124b3565b604080518083038186803b15801561121857600080fd5b505af415801561122c573d6000803e3d6000fd5b505050506040513d601f19601f82011682018060405250611250919081019061217b565b9350508273ffffffffffffffffffffffffffffffffffffffff16631865c57d6040518163ffffffff167c0100000000000000000000000000000000000000000000000000000000028152600401602060405180830381600087803b1580156112b757600080fd5b505af11580156112cb573d6000803e3d6000fd5b505050506040513d601f19601f820116820180604052506112ef919081019061215d565b915060038214806113005750600482145b1515611338576040517f08c379a0000000000000000000000000000000000000000000000000000000008152600401610ed890612473565b3073ffffffffffffffffffffffffffffffffffffffff166312065fe06040518163ffffffff167c0100000000000000000000000000000000000000000000000000000000028152600401602060405180830381600087803b15801561139c57600080fd5b505af11580156113b0573d6000803e3d6000fd5b505050506040513d601f19601f820116820180604052506113d4919081019061215d565b90507f5ec9914f46ca24eeb7222e98b6f699b769ab33c1d88072c0651eb9bb19478ad585600001516040516114099190612462565b60405180910390a16040517f856646fd00000000000000000000000000000000000000000000000000000000815273ffffffffffffffffffffffffffffffffffffffff84169063856646fd906114659088908890600401612493565b600060405180830381600087803b15801561147f57600080fd5b505af1158015611493573d6000803e3d6000fd5b50600292506114a0915050565b856040015114156108e5576108e58888888487611751565b6000828201838110156114c757fe5b9392505050565b6000806004835484907ffffffffffffffffffffffffffffffffffffffffffffffffffffffffffffffffe810190811061150357fe5b9060005260206000200160009054906101000a900473ffffffffffffffffffffffffffffffffffffffff1673ffffffffffffffffffffffffffffffffffffffff16631865c57d6040518163ffffffff167c0100000000000000000000000000000000000000000000000000000000028152600401602060405180830381600087803b15801561159157600080fd5b505af11580156115a5573d6000803e3d6000fd5b505050506040513d601f19601f820116820180604052506115c9919081019061215d565b1480156116cb57506000835484907fffffffffffffffffffffffffffffffffffffffffffffffffffffffffffffffff810190811061160357fe5b9060005260206000200160009054906101000a900473ffffffffffffffffffffffffffffffffffffffff1673ffffffffffffffffffffffffffffffffffffffff16631865c57d6040518163ffffffff167c0100000000000000000000000000000000000000000000000000000000028152600401602060405180830381600087803b15801561169157600080fd5b505af11580156116a5573d6000803e3d6000fd5b505050506040513d601f19601f820116820180604052506116c9919081019061215d565b145b1561172e5782547fffffffffffffffffffffffffffffffffffffffffffffffffffffffffffffffff81019084908290811061170257fe5b60009182526020909120015490925073ffffffffffffffffffffffffffffffffffffffff169050611735565b5060009050805b915091565b60008282111561174657fe5b508082035b92915050565b60058173ffffffffffffffffffffffffffffffffffffffff16631865c57d6040518163ffffffff167c0100000000000000000000000000000000000000000000000000000000028152600401602060405180830381600087803b1580156117b757600080fd5b505af11580156117cb573d6000803e3d6000fd5b505050506040513d601f19601f820116820180604052506117ef919081019061215d565b146117f957600080fd5b600385015461180e908363ffffffff6114b816565b60038601556040517fa9059cbb00000000000000000000000000000000000000000000000000000000815273ffffffffffffffffffffffffffffffffffffffff84169063a9059cbb906118679084908690600401612447565b602060405180830381600087803b15801561188157600080fd5b505af1158015611895573d6000803e3d6000fd5b505050506040513d601f19601f820116820180604052506118b99190810190611f03565b506040517f5325cdba00000000000000000000000000000000000000000000000000000000815273ffffffffffffffffffffffffffffffffffffffff821690635325cdba9061190c9085906004016124c1565b600060405180830381600087803b15801561192657600080fd5b505af115801561193a573d6000803e3d6000fd5b505050508373ffffffffffffffffffffffffffffffffffffffff1663e14feaea86600001805490508373ffffffffffffffffffffffffffffffffffffffff1663f49bff7b6040518163ffffffff167c0100000000000000000000000000000000000000000000000000000000028152600401602060405180830381600087803b1580156119c657600080fd5b505af11580156119da573d6000803e3d6000fd5b505050506040513d601f19601f820116820180604052506119fe919081019061215d565b6040518363ffffffff167c0100000000000000000000000000000000000000000000000000000000028152600401611a379291906124ea565b600060405180830381600087803b158015611a5157600080fd5b505af1158015611a65573d6000803e3d6000fd5b505050600490950180547fffffffffffffffffffffffffffffffffffffffffffffffffffffffffffffff001660011790555050505050565b8260038101928215611acd579160200282015b82811115611acd5782518255602090920191600190910190611ab0565b50611ad9929150611b0c565b5090565b8260028101928215611acd5791602002820182811115611acd5782518255602090920191600190910190611ab0565b611b2691905b80821115611ad95760008155600101611b12565b90565b60006114c782356125b4565b60006114c782516125b4565b6000601f82018313611b5257600080fd5b8135611b65611b608261256b565b612544565b91508181835260208401935060208101905083856020840282011115611b8a57600080fd5b60005b83811015611bb65781611ba08882611b29565b8452506020928301929190910190600101611b8d565b5050505092915050565b6000601f82018313611bd157600080fd5b6002611bdf611b608261258c565b91508183856020840282011115611bf557600080fd5b60005b83811015611bb65781611c0b8882611d0a565b8452506020928301929190910190600101611bf8565b6000601f82018313611c3257600080fd5b6003611c40611b608261258c565b91508183856020840282011115611c5657600080fd5b60005b83811015611bb65781611c6c8882611d0a565b8452506020928301929190910190600101611c59565b6000601f82018313611c9357600080fd5b8135611ca1611b608261256b565b91508181835260208401935060208101905083856020840282011115611cc657600080fd5b60005b83811015611bb65781611cdc8882611d0a565b8452506020928301929190910190600101611cc9565b60006114c782356125cd565b60006114c782516125cd565b60006114c78235611b26565b600060a08284031215611d2857600080fd5b611d3260a0612544565b90506000611d408484611d0a565b8252506020611d5184848301611d0a565b6020830152506040611d6584828501611d0a565b6040830152506060611d7984828501611d0a565b6060830152506080611d8d84828501611cf2565b60808301525092915050565b600060808284031215611dab57600080fd5b611db56080612544565b9050813567ffffffffffffffff811115611dce57600080fd5b611dda84828501611b41565b825250602082013567ffffffffffffffff811115611df757600080fd5b611e0384828501611c82565b6020830152506040611e1784828501611d0a565b6040830152506060611e2b84828501611d0a565b60608301525092915050565b60006101408284031215611e4a57600080fd5b611e5460c0612544565b90506000611e628484611d0a565b8252506020611e7384848301611c21565b6020830152506080611e8784828501611bc0565b60408301525060c0611e9b84828501611bc0565b606083015250610100611eb084828501611d0a565b608083015250610120611ec584828501611cf2565b60a08301525092915050565b60006114c78251611b26565b600060208284031215611eef57600080fd5b6000611efb8484611b35565b949350505050565b600060208284031215611f1557600080fd5b6000611efb8484611cfe565b600060208284031215611f3357600080fd5b6000611efb8484611d0a565b600080600060608486031215611f5457600080fd5b6000611f608686611d0a565b9350506020611f7186828701611b29565b9250506040611f8286828701611b29565b9150509250925092565b6000806000806000806101408789031215611fa657600080fd5b6000611fb28989611d0a565b9650506020611fc389828a01611b29565b9550506040611fd489828a01611b29565b9450506060611fe589828a01611b29565b9350506080611ff689828a01611d16565b92505061012061200889828a01611cf2565b9150509295509295509295565b6000806000806000610120868803121561202e57600080fd5b600061203a8888611d0a565b955050602061204b88828901611b29565b945050604061205c88828901611b29565b935050606086013567ffffffffffffffff81111561207957600080fd5b61208588828901611d99565b925050608061209688828901611d16565b9150509295509295909350565b600080600060e084860312156120b857600080fd5b60006120c48686611d0a565b93505060206120d586828701611d16565b92505060c0611f8286828701611b29565b6000806000606084860312156120fb57600080fd5b60006121078686611d0a565b9350506020611f7186828701611d0a565b6000806000610180848603121561212e57600080fd5b600061213a8686611d0a565b935050602061214b86828701611e37565b925050610160611f8286828701611b29565b60006020828403121561216f57600080fd5b6000611efb8484611ed1565b6000806040838503121561218e57600080fd5b600061219a8585611ed1565b92505060206121ab85828601611b35565b9150509250929050565b6121be816125b4565b82525050565b60006121cf826125b0565b8084526020840193506121e1836125aa565b60005b82811015612211576121f78683516121b5565b612200826125aa565b6020969096019591506001016121e4565b5093949350505050565b6000612226826125b0565b808452602084019350612238836125aa565b60005b828110156122115761224e868351612271565b612257826125aa565b60209690960195915060010161223b565b6121be816125cd565b6121be81611b26565b6121be816125d2565b603781527f526f756e64206973206e6f7420696e20726576696577206f722077696e6e657260208201527f732068617665206e6f74206265656e2063686f73656e2e000000000000000000604082015260600190565b601c81527f54696d6520706172616d65746572732061726520696e76616c69642e00000000602082015260400190565b805160a083019061231a8482612271565b50602082015161232d6020850182612271565b5060408201516123406040850182612271565b5060608201516123536060850182612271565b5060808201516123666080850182612268565b50505050565b805160808084526000919084019061238482826121c4565b9150506020830151848203602086015261239e828261221b565b91505060408301516123b36040860182612271565b5060608301516123c66060860182612271565b509392505050565b9052565b6020810161174b82846121b5565b606081016123ee82866121b5565b6123fb6020830185612271565b611efb6040830184612271565b610100810161241782876121b5565b612424602083018661227a565b61243160408301856121b5565b61243e6060830184612309565b95945050505050565b6040810161245582856121b5565b6114c76020830184612271565b602080825281016114c781846121c4565b6020808252810161174b81612283565b6020808252810161174b816122d9565b60c080825281016124a4818561236c565b90506114c76020830184612309565b6020810161174b82846123ce565b6020810161174b8284612271565b60c081016124dd8285612271565b6114c76020830184612309565b604081016124558285612271565b60a081016125068288612271565b6125136020830187612271565b6125206040830186612271565b61252d60608301856121b5565b61253a6080830184612271565b9695505050505050565b60405181810167ffffffffffffffff8111828210171561256357600080fd5b604052919050565b600067ffffffffffffffff82111561258257600080fd5b5060209081020190565b600067ffffffffffffffff8211156125a357600080fd5b5060200290565b60200190565b5190565b73ffffffffffffffffffffffffffffffffffffffff1690565b151590565b600061174b826125b45600a265627a7a72305820d91068b4ec41035746239d1c605b3c599a6476d1f8780c33e5b98c059f0fc7af6c6578706572696d656e74616cf50037",
  "source": "pragma solidity ^0.4.18;\npragma experimental ABIEncoderV2;\n\nimport \"../math/SafeMath.sol\";\nimport \"../strings/strings.sol\";\nimport \"../../interfaces/factories/IMatryxRoundFactory.sol\";\nimport \"./LibTournamentStateManagement.sol\";\nimport \"../LibEnums.sol\";\nimport \"../../interfaces/IMatryxPlatform.sol\";\nimport \"../../interfaces/IMatryxToken.sol\";\nimport \"../../interfaces/IMatryxTournament.sol\";\nimport \"../../interfaces/IMatryxRound.sol\";\n\nlibrary LibTournamentAdminMethods\n{\n    using SafeMath for uint256;\n    using strings for *;\n\n    event NewRound(uint256 _startTime, uint256 _endTime, uint256 _reviewPeriodDuration, address _roundAddress, uint256 _roundNumber);\n    event RoundWinnersChosen(address[] _submissionAddresses);\n\n    function update(LibConstruction.TournamentData storage self, LibConstruction.TournamentModificationData tournamentData, address platformAddress) public\n    {\n        // TODO: Update the category on the platform\n        if(tournamentData.category != 0x0)\n        {\n            IMatryxPlatform(platformAddress).switchTournamentCategory(address(this), self.category, tournamentData.category);\n            self.category = tournamentData.category;\n        }\n        if(tournamentData.title[0] != 0x0)\n        {\n            self.title = tournamentData.title;\n        }\n        if(tournamentData.descriptionHash[0] != 0x0)\n        {\n            self.descriptionHash = tournamentData.descriptionHash;\n        }\n        if(tournamentData.fileHash[0] != 0x0)\n        {\n            self.fileHash = tournamentData.fileHash;\n        }\n        if(tournamentData.entryFeeChanged)\n        {\n            self.entryFee = tournamentData.entryFee;\n        }\n    }\n\n    /// @dev Chooses the winner(s) of the current round. If this is the last round,\n    //       this method will also close the tournament.\n    /// @param stateData State data for the tournament\n    /// @param _selectWinnersData Struct containing winning submission information\n    function selectWinners(LibTournamentStateManagement.StateData storage stateData, address platformAddress, address matryxTokenAddress, LibRound.SelectWinnersData _selectWinnersData, LibConstruction.RoundData _roundData) public\n    {\n        // Round must be in review or have winners to close\n        (,address currentRoundAddress) = LibTournamentStateManagement.currentRound(stateData);\n        uint256 roundState = uint256(IMatryxRound(currentRoundAddress).getState());\n        require(roundState == uint256(LibEnums.RoundState.InReview) || roundState == uint256(LibEnums.RoundState.HasWinners), \"Round is not in review or winners have not been chosen.\");\n        uint256 remainingBalance = IMatryxTournament(this).getBalance();\n        // Event to notify web3 of the winning submission address\n        emit RoundWinnersChosen(_selectWinnersData.winningSubmissions);\n        IMatryxRound(currentRoundAddress).selectWinningSubmissions(_selectWinnersData, _roundData);\n        if(_selectWinnersData.selectWinnerAction == uint256(LibEnums.SelectWinnerAction.CloseTournament))\n        {\n            closeTournament(stateData, platformAddress, matryxTokenAddress, remainingBalance, currentRoundAddress);\n        }\n    }\n\n    /// @dev Edits the next round that is created during the previous rounds ChooseWinningSubmissions\n    /// @param stateData State data for the tournament (see above)\n    /// @param _roundData Incoming new round data\n    function editGhostRound(LibTournamentStateManagement.StateData storage stateData, LibConstruction.RoundData _roundData, address matryxTokenAddress) public\n    {\n\n        (uint256 ghostRoundIndex, address ghostRoundAddress) = LibTournamentStateManagement.getGhostRound(stateData);\n        if(ghostRoundAddress != 0x0)\n        {\n            uint256 ghostRoundBounty = IMatryxRound(ghostRoundAddress).getBounty();\n            if(_roundData.bounty > ghostRoundBounty)\n            {\n                // Transfer to ghost round\n                uint256 addAmount = _roundData.bounty.sub(ghostRoundBounty);\n                stateData.roundBountyAllocation = stateData.roundBountyAllocation.add(addAmount);\n                require(IMatryxToken(matryxTokenAddress).transfer(ghostRoundAddress, addAmount));\n            }\n            else if(_roundData.bounty < ghostRoundBounty)\n            {\n                // Have ghost round transfer to the tournament\n                uint256 subAmount = ghostRoundBounty.sub(_roundData.bounty);\n                stateData.roundBountyAllocation = stateData.roundBountyAllocation.sub(subAmount);\n                IMatryxRound(ghostRoundAddress).transferToTournament(subAmount);\n            }\n\n            IMatryxRound(ghostRoundAddress).editRound(IMatryxRound(stateData.rounds[ghostRoundIndex-1]).getEndTime(), _roundData);\n        }\n    }\n\n    ///@dev Allocates some of this tournament's balance to the current round\n    function allocateMoreToRound(LibTournamentStateManagement.StateData storage stateData, uint256 _mtxAllocation, address matryxTokenAddress) public\n    {\n        require(_mtxAllocation <= IMatryxTournament(this).getBalance());\n        (, address currentRoundAddress) = LibTournamentStateManagement.currentRound(stateData);\n        uint256 currentRoundState = IMatryxRound(currentRoundAddress).getState();\n        require(\n            currentRoundState == uint256(LibEnums.RoundState.NotYetOpen) ||\n            currentRoundState == uint256(LibEnums.RoundState.Unfunded) ||\n            currentRoundState == uint256(LibEnums.RoundState.Open));\n\n        stateData.roundBountyAllocation = stateData.roundBountyAllocation.add(_mtxAllocation);\n        require(IMatryxToken(matryxTokenAddress).transfer(currentRoundAddress, _mtxAllocation));\n        IMatryxRound(currentRoundAddress).addBounty(_mtxAllocation);\n    }\n\n    /// @dev This function should be called after the user selects winners for their tournament and chooses the \"DoNothing\" option\n    function jumpToNextRound(LibTournamentStateManagement.StateData storage stateData) public\n    {\n        (uint256 currentRoundIndex, address currentRoundAddress) = LibTournamentStateManagement.currentRound(stateData);\n        IMatryxRound(currentRoundAddress).closeRound();\n        IMatryxRound(stateData.rounds[currentRoundIndex+1]).startNow();\n    }\n\n    /// @dev This function closes the tournament after the tournament owner selects their winners with the \"DoNothing\" option\n    function stopTournament(LibTournamentStateManagement.StateData storage stateData, address platformAddress, address matryxTokenAddress) public\n    {\n        uint256 remainingBalance = IMatryxTournament(this).getBalance();\n        (,address currentRoundAddress) = LibTournamentStateManagement.currentRound(stateData);\n        IMatryxRound(currentRoundAddress).closeRound();\n        closeTournament(stateData, platformAddress, matryxTokenAddress, remainingBalance, currentRoundAddress);\n    }\n\n    // @dev Chooses the winner of the tournament.\n    function closeTournament(LibTournamentStateManagement.StateData storage stateData, address platformAddress, address matryxTokenAddress, uint256 remainingBalance, address currentRoundAddress) internal\n    {\n        require(IMatryxRound(currentRoundAddress).getState() == uint256(LibEnums.RoundState.Closed));\n        // Transfer the remaining MTX in the tournament to the current round\n        stateData.roundBountyAllocation = stateData.roundBountyAllocation.add(remainingBalance);\n        IMatryxToken(matryxTokenAddress).transfer(currentRoundAddress, remainingBalance);\n        IMatryxRound(currentRoundAddress).transferAllToWinners(remainingBalance);\n        IMatryxPlatform(platformAddress).invokeTournamentClosedEvent(stateData.rounds.length, IMatryxRound(currentRoundAddress).getBounty());\n\n        stateData.closed = true;\n    }\n\n    /// @dev Creates a new round.\n    /// @return The new round's address.\n    function createRound(LibTournamentStateManagement.StateData storage stateData, address platformAddress, address matryxTokenAddress, address matryxRoundFactoryAddress, LibConstruction.RoundData roundData, bool _automaticCreation) public returns (address _roundAddress)\n    {\n        // only this, the tournamentFactory or rounds can call createRound\n        require(msg.sender == address(this) || msg.sender == IMatryxPlatform(platformAddress).getTournamentFactoryAddress() || stateData.isRound[msg.sender]);\n        require(roundData.start < roundData.end, \"Time parameters are invalid.\");\n\n        // Argument for start & duration instead of start & end\n        if(roundData.start < now)\n        {\n            uint256 duration = roundData.end.sub(roundData.start);\n            roundData.start = now;\n            roundData.end = now.add(duration);\n        }\n\n        IMatryxRoundFactory roundFactory = IMatryxRoundFactory(matryxRoundFactoryAddress);\n        address newRoundAddress;\n\n        if(_automaticCreation == false)\n        {\n            require(roundData.bounty > 0);\n        }\n\n        newRoundAddress = roundFactory.createRound(platformAddress, this, msg.sender, roundData);\n\n        // Transfer the round bounty to the round.\n        // If this is the first round, the bounty is transfered to the round *by the platform in createTournament* (by tournament.sendBountyToRound)\n        if(stateData.rounds.length != 0 && roundData.bounty != 0)\n        {\n            stateData.roundBountyAllocation = stateData.roundBountyAllocation.add(roundData.bounty);\n            IMatryxToken(matryxTokenAddress).transfer(newRoundAddress, roundData.bounty);\n        }\n\n        stateData.rounds.push(newRoundAddress);\n        stateData.isRound[newRoundAddress] = true;\n\n        // Triggers Event displaying start time, end, address, and round number\n        emit NewRound(roundData.start, roundData.end, roundData.reviewPeriodDuration, newRoundAddress, stateData.rounds.length);\n\n        return newRoundAddress;\n    }\n}\n",
  "sourcePath": "/Users/maxhoward/Desktop/Ethereum/MatryxPlatform/libraries/tournament/LibTournamentAdminMethods.sol",
  "compiler": {
    "name": "solc",
    "version": "0.4.24+commit.e67f0147.Emscripten.clang"
  },
  "schemaVersion": "2.0.1",
  "updatedAt": "2018-08-01T22:11:57.955Z"
}