{
  "contractName": "LibTournamentAdminMethods",
  "abi": [
    {
      "anonymous": false,
      "inputs": [
        {
          "indexed": false,
          "name": "_startTime",
          "type": "uint256"
        },
        {
          "indexed": false,
          "name": "_endTime",
          "type": "uint256"
        },
        {
          "indexed": false,
          "name": "_reviewPeriodDuration",
          "type": "uint256"
        },
        {
          "indexed": false,
          "name": "_roundAddress",
          "type": "address"
        },
        {
          "indexed": false,
          "name": "_roundNumber",
          "type": "uint256"
        }
      ],
      "name": "NewRound",
      "type": "event"
    },
    {
      "anonymous": false,
      "inputs": [
        {
          "indexed": false,
          "name": "_submissionAddresses",
          "type": "address[]"
        }
      ],
      "name": "RoundWinnersChosen",
      "type": "event"
    },
    {
      "constant": false,
      "inputs": [
        {
          "name": "self",
          "type": "LibConstruction.TournamentData storage"
        },
        {
          "components": [
            {
              "name": "title_1",
              "type": "bytes32"
            },
            {
              "name": "title_2",
              "type": "bytes32"
            },
            {
              "name": "title_3",
              "type": "bytes32"
            },
            {
              "name": "descriptionHash_1",
              "type": "bytes32"
            },
            {
              "name": "descriptionHash_2",
              "type": "bytes32"
            },
            {
              "name": "fileHash_1",
              "type": "bytes32"
            },
            {
              "name": "fileHash_2",
              "type": "bytes32"
            },
            {
              "name": "entryFee",
              "type": "uint256"
            },
            {
              "name": "entryFeeChanged",
              "type": "bool"
            }
          ],
          "name": "tournamentData",
          "type": "tuple"
        },
        {
          "name": "_category",
          "type": "string"
        },
        {
          "name": "platformAddress",
          "type": "address"
        }
      ],
      "name": "update",
      "outputs": [],
      "payable": false,
      "stateMutability": "nonpayable",
      "type": "function"
    },
    {
      "constant": false,
      "inputs": [
        {
          "name": "stateData",
          "type": "LibTournamentStateManagement.StateData storage"
        },
        {
          "name": "platformAddress",
          "type": "address"
        },
        {
          "name": "matryxTokenAddress",
          "type": "address"
        },
        {
          "name": "_submissionAddresses",
          "type": "address[]"
        },
        {
          "name": "_rewardDistribution",
          "type": "uint256[]"
        },
        {
          "components": [
            {
              "name": "start",
              "type": "uint256"
            },
            {
              "name": "end",
              "type": "uint256"
            },
            {
              "name": "reviewPeriodDuration",
              "type": "uint256"
            },
            {
              "name": "bounty",
              "type": "uint256"
            }
          ],
          "name": "_roundData",
          "type": "tuple"
        },
        {
          "name": "_selectWinnerAction",
          "type": "uint256"
        }
      ],
      "name": "selectWinners",
      "outputs": [],
      "payable": false,
      "stateMutability": "nonpayable",
      "type": "function"
    },
    {
      "constant": false,
      "inputs": [
        {
          "name": "stateData",
          "type": "LibTournamentStateManagement.StateData storage"
        },
        {
          "components": [
            {
              "name": "start",
              "type": "uint256"
            },
            {
              "name": "end",
              "type": "uint256"
            },
            {
              "name": "reviewPeriodDuration",
              "type": "uint256"
            },
            {
              "name": "bounty",
              "type": "uint256"
            }
          ],
          "name": "_roundData",
          "type": "tuple"
        },
        {
          "name": "matryxTokenAddress",
          "type": "address"
        }
      ],
      "name": "editGhostRound",
      "outputs": [],
      "payable": false,
      "stateMutability": "nonpayable",
      "type": "function"
    },
    {
      "constant": false,
      "inputs": [
        {
          "name": "stateData",
          "type": "LibTournamentStateManagement.StateData storage"
        },
        {
          "name": "_mtxAllocation",
          "type": "uint256"
        },
        {
          "name": "matryxTokenAddress",
          "type": "address"
        }
      ],
      "name": "allocateMoreToRound",
      "outputs": [],
      "payable": false,
      "stateMutability": "nonpayable",
      "type": "function"
    },
    {
      "constant": false,
      "inputs": [
        {
          "name": "stateData",
          "type": "LibTournamentStateManagement.StateData storage"
        }
      ],
      "name": "jumpToNextRound",
      "outputs": [],
      "payable": false,
      "stateMutability": "nonpayable",
      "type": "function"
    },
    {
      "constant": false,
      "inputs": [
        {
          "name": "stateData",
          "type": "LibTournamentStateManagement.StateData storage"
        },
        {
          "name": "platformAddress",
          "type": "address"
        },
        {
          "name": "matryxTokenAddress",
          "type": "address"
        }
      ],
      "name": "stopTournament",
      "outputs": [],
      "payable": false,
      "stateMutability": "nonpayable",
      "type": "function"
    },
    {
      "constant": false,
      "inputs": [
        {
          "name": "stateData",
          "type": "LibTournamentStateManagement.StateData storage"
        },
        {
          "name": "platformAddress",
          "type": "address"
        },
        {
          "name": "matryxTokenAddress",
          "type": "address"
        },
        {
          "name": "remainingBalance",
          "type": "uint256"
        },
        {
          "name": "currentRoundAddress",
          "type": "address"
        }
      ],
      "name": "closeTournament",
      "outputs": [],
      "payable": false,
      "stateMutability": "nonpayable",
      "type": "function"
    },
    {
      "constant": false,
      "inputs": [
        {
          "name": "stateData",
          "type": "LibTournamentStateManagement.StateData storage"
        },
        {
          "name": "platformAddress",
          "type": "address"
        },
        {
          "name": "matryxTokenAddress",
          "type": "address"
        },
        {
          "name": "matryxRoundFactoryAddress",
          "type": "address"
        },
        {
          "components": [
            {
              "name": "start",
              "type": "uint256"
            },
            {
              "name": "end",
              "type": "uint256"
            },
            {
              "name": "reviewPeriodDuration",
              "type": "uint256"
            },
            {
              "name": "bounty",
              "type": "uint256"
            }
          ],
          "name": "roundData",
          "type": "tuple"
        },
        {
          "name": "_automaticCreation",
          "type": "bool"
        }
      ],
      "name": "createRound",
      "outputs": [
        {
          "name": "_roundAddress",
          "type": "address"
        }
      ],
      "payable": false,
      "stateMutability": "nonpayable",
      "type": "function"
    },
    {
      "constant": false,
      "inputs": [
        {
          "name": "stateData",
          "type": "LibTournamentStateManagement.StateData storage"
        },
        {
          "name": "platformAddress",
          "type": "address"
        },
        {
          "name": "matryxTokenAddress",
          "type": "address"
        },
        {
          "name": "matryxRoundFactoryAddress",
          "type": "address"
        },
        {
          "components": [
            {
              "name": "start",
              "type": "uint256"
            },
            {
              "name": "end",
              "type": "uint256"
            },
            {
              "name": "reviewPeriodDuration",
              "type": "uint256"
            },
            {
              "name": "bounty",
              "type": "uint256"
            }
          ],
          "name": "roundData",
          "type": "tuple"
        },
        {
          "name": "_automaticCreation",
          "type": "bool"
        }
      ],
      "name": "createRoundTwo",
      "outputs": [
        {
          "name": "_roundAddress",
          "type": "address"
        }
      ],
      "payable": false,
      "stateMutability": "nonpayable",
      "type": "function"
    }
  ],
  "bytecode": "0x612764610030600b82828239805160001a6073146000811461002057610022565bfe5b5030600052607381538281f30073000000000000000000000000000000000000000030146080604052600436106100af5763ffffffff7c010000000000000000000000000000000000000000000000000000000060003504166345fbeca081146100b45780635014b851146100d65780635f3368e9146100f65780635fd45f0b14610116578063672ec62314610136578063a91d59d614610156578063af41094914610176578063be9935d914610196578063cfa037dc14610196575b600080fd5b8180156100c057600080fd5b506100d46100cf366004612130565b6101cc565b005b8180156100e257600080fd5b506100d46100f1366004611f78565b6102f2565b81801561010257600080fd5b506100d4610111366004612046565b610612565b81801561012257600080fd5b506100d46101313660046120fe565b6109e1565b81801561014257600080fd5b506100d46101513660046120bb565b610c1c565b81801561016257600080fd5b506100d4610171366004611ea2565b6110b5565b81801561018257600080fd5b506100d4610191366004611e84565b611282565b8180156101a257600080fd5b506101b66101b1366004611eef565b611443565b6040516101c39190612451565b60405180910390f35b6101dd6101d8836117fe565b611824565b151561027f576040517f8785494e00000000000000000000000000000000000000000000000000000000815273ffffffffffffffffffffffffffffffffffffffff821690638785494e90610239903090889087906004016124ac565b600060405180830381600087803b15801561025357600080fd5b505af1158015610267573d6000803e3d6000fd5b5050835161027d92508691506020850190611ac2565b505b8251156102985782516001850155604083015160028501555b6060830151156102b75760608301516004850155608083015160058501555b60a0830151156102d65760a0830151600685015560c083015160078501555b826101000151156102ec5760e083015160098501555b50505050565b600080600073__LibTournamentStateManagement__________630386922b8b6040518263ffffffff167c010000000000000000000000000000000000000000000000000000000002815260040161034a9190612576565b604080518083038186803b15801561036157600080fd5b505af4158015610375573d6000803e3d6000fd5b505050506040513d601f19601f8201168201806040525061039991908101906121ca565b9350508273ffffffffffffffffffffffffffffffffffffffff16631865c57d6040518163ffffffff167c0100000000000000000000000000000000000000000000000000000000028152600401602060405180830381600087803b15801561040057600080fd5b505af1158015610414573d6000803e3d6000fd5b505050506040513d601f19601f8201168201806040525061043891908101906121ac565b915060038214806104495750600482145b151561048a576040517f08c379a000000000000000000000000000000000000000000000000000000000815260040161048190612556565b60405180910390fd5b3073ffffffffffffffffffffffffffffffffffffffff166312065fe06040518163ffffffff167c0100000000000000000000000000000000000000000000000000000000028152600401602060405180830381600087803b1580156104ee57600080fd5b505af1158015610502573d6000803e3d6000fd5b505050506040513d601f19601f8201168201806040525061052691908101906121ac565b90507f5ec9914f46ca24eeb7222e98b6f699b769ab33c1d88072c0651eb9bb19478ad5876040516105579190612504565b60405180910390a16040517f6a3c195300000000000000000000000000000000000000000000000000000000815273ffffffffffffffffffffffffffffffffffffffff841690636a3c1953906105b7908a908a908a908a90600401612515565b600060405180830381600087803b1580156105d157600080fd5b505af11580156105e5573d6000803e3d6000fd5b50600292506105f2915050565b841415610606576106068a8a8a8487610612565b50505050505050505050565b60008173ffffffffffffffffffffffffffffffffffffffff16631865c57d6040518163ffffffff167c0100000000000000000000000000000000000000000000000000000000028152600401602060405180830381600087803b15801561067857600080fd5b505af115801561068c573d6000803e3d6000fd5b505050506040513d601f19601f820116820180604052506106b091908101906121ac565b905060058273ffffffffffffffffffffffffffffffffffffffff16631865c57d6040518163ffffffff167c0100000000000000000000000000000000000000000000000000000000028152600401602060405180830381600087803b15801561071857600080fd5b505af115801561072c573d6000803e3d6000fd5b505050506040513d601f19601f8201168201806040525061075091908101906121ac565b1461075a57600080fd5b600386015461076f908463ffffffff61182916565b60038701556040517fa9059cbb00000000000000000000000000000000000000000000000000000000815273ffffffffffffffffffffffffffffffffffffffff85169063a9059cbb906107c890859087906004016124e9565b602060405180830381600087803b1580156107e257600080fd5b505af11580156107f6573d6000803e3d6000fd5b505050506040513d601f19601f8201168201806040525061081a9190810190611e66565b506040517f5325cdba00000000000000000000000000000000000000000000000000000000815273ffffffffffffffffffffffffffffffffffffffff831690635325cdba9061086d908690600401612584565b600060405180830381600087803b15801561088757600080fd5b505af115801561089b573d6000803e3d6000fd5b505050508473ffffffffffffffffffffffffffffffffffffffff1663e14feaea87600001805490508473ffffffffffffffffffffffffffffffffffffffff1663f49bff7b6040518163ffffffff167c0100000000000000000000000000000000000000000000000000000000028152600401602060405180830381600087803b15801561092757600080fd5b505af115801561093b573d6000803e3d6000fd5b505050506040513d601f19601f8201168201806040525061095f91908101906121ac565b6040518363ffffffff167c01000000000000000000000000000000000000000000000000000000000281526004016109989291906125ad565b600060405180830381600087803b1580156109b257600080fd5b505af11580156109c6573d6000803e3d6000fd5b5050506004909601805460ff19166001179055505050505050565b60008073__LibTournamentStateManagement__________630386922b866040518263ffffffff167c0100000000000000000000000000000000000000000000000000000000028152600401610a379190612576565b604080518083038186803b158015610a4e57600080fd5b505af4158015610a62573d6000803e3d6000fd5b505050506040513d601f19601f82011682018060405250610a8691908101906121ca565b9250508173ffffffffffffffffffffffffffffffffffffffff16631865c57d6040518163ffffffff167c0100000000000000000000000000000000000000000000000000000000028152600401602060405180830381600087803b158015610aed57600080fd5b505af1158015610b01573d6000803e3d6000fd5b505050506040513d601f19601f82011682018060405250610b2591908101906121ac565b9050801580610b345750600181145b80610b3f5750600281145b1515610b4a57600080fd5b6003850154610b5f908563ffffffff61182916565b60038601556040517fa9059cbb00000000000000000000000000000000000000000000000000000000815273ffffffffffffffffffffffffffffffffffffffff84169063a9059cbb90610bb890859088906004016124e9565b602060405180830381600087803b158015610bd257600080fd5b505af1158015610be6573d6000803e3d6000fd5b505050506040513d601f19601f82011682018060405250610c0a9190810190611e66565b1515610c1557600080fd5b5050505050565b600080600080600080610c2e8961183f565b6040517f0386922b000000000000000000000000000000000000000000000000000000008152919750955073__LibTournamentStateManagement__________90630386922b90610c83908c90600401612576565b604080518083038186803b158015610c9a57600080fd5b505af4158015610cae573d6000803e3d6000fd5b505050506040513d601f19601f82011682018060405250610cd291908101906121ca565b94505073ffffffffffffffffffffffffffffffffffffffff8516156110aa578473ffffffffffffffffffffffffffffffffffffffff1663f49bff7b6040518163ffffffff167c0100000000000000000000000000000000000000000000000000000000028152600401602060405180830381600087803b158015610d5557600080fd5b505af1158015610d69573d6000803e3d6000fd5b505050506040513d601f19601f82011682018060405250610d8d91908101906121ac565b92508288606001511115610e83576060880151610db0908463ffffffff611aab16565b60038a0154909250610dc8908363ffffffff61182916565b60038a01556040517fa9059cbb00000000000000000000000000000000000000000000000000000000815273ffffffffffffffffffffffffffffffffffffffff88169063a9059cbb90610e2190889086906004016124e9565b602060405180830381600087803b158015610e3b57600080fd5b505af1158015610e4f573d6000803e3d6000fd5b505050506040513d601f19601f82011682018060405250610e739190810190611e66565b1515610e7e57600080fd5b610f47565b8288606001511015610f47576060880151610ea590849063ffffffff611aab16565b60038a0154909150610ebd908263ffffffff611aab16565b60038a01556040517f2f0713bb00000000000000000000000000000000000000000000000000000000815273ffffffffffffffffffffffffffffffffffffffff861690632f0713bb90610f14908490600401612584565b600060405180830381600087803b158015610f2e57600080fd5b505af1158015610f42573d6000803e3d6000fd5b505050505b8473ffffffffffffffffffffffffffffffffffffffff1663f89474be8a60000160018903815481101515610f7757fe5b9060005260206000200160009054906101000a900473ffffffffffffffffffffffffffffffffffffffff1673ffffffffffffffffffffffffffffffffffffffff1663439f5ac26040518163ffffffff167c0100000000000000000000000000000000000000000000000000000000028152600401602060405180830381600087803b15801561100557600080fd5b505af1158015611019573d6000803e3d6000fd5b505050506040513d601f19601f8201168201806040525061103d91908101906121ac565b8a6040518363ffffffff167c0100000000000000000000000000000000000000000000000000000000028152600401611077929190612592565b600060405180830381600087803b15801561109157600080fd5b505af11580156110a5573d6000803e3d6000fd5b505050505b505050505050505050565b6000803073ffffffffffffffffffffffffffffffffffffffff166312065fe06040518163ffffffff167c0100000000000000000000000000000000000000000000000000000000028152600401602060405180830381600087803b15801561111c57600080fd5b505af1158015611130573d6000803e3d6000fd5b505050506040513d601f19601f8201168201806040525061115491908101906121ac565b6040517f0386922b00000000000000000000000000000000000000000000000000000000815290925073__LibTournamentStateManagement__________90630386922b906111a7908890600401612576565b604080518083038186803b1580156111be57600080fd5b505af41580156111d2573d6000803e3d6000fd5b505050506040513d601f19601f820116820180604052506111f691908101906121ca565b9150508073ffffffffffffffffffffffffffffffffffffffff1663e278fe6f6040518163ffffffff167c0100000000000000000000000000000000000000000000000000000000028152600401600060405180830381600087803b15801561125d57600080fd5b505af1158015611271573d6000803e3d6000fd5b50505050610c158585858585610612565b60008073__LibTournamentStateManagement__________630386922b846040518263ffffffff167c01000000000000000000000000000000000000000000000000000000000281526004016112d89190612576565b604080518083038186803b1580156112ef57600080fd5b505af4158015611303573d6000803e3d6000fd5b505050506040513d601f19601f8201168201806040525061132791908101906121ca565b915091508073ffffffffffffffffffffffffffffffffffffffff1663e278fe6f6040518163ffffffff167c0100000000000000000000000000000000000000000000000000000000028152600401600060405180830381600087803b15801561138f57600080fd5b505af11580156113a3573d6000803e3d6000fd5b5050845485925060018501915081106113b857fe5b6000918252602082200154604080517f0e3db9f2000000000000000000000000000000000000000000000000000000008152905173ffffffffffffffffffffffffffffffffffffffff90921692630e3db9f29260048084019382900301818387803b15801561142657600080fd5b505af115801561143a573d6000803e3d6000fd5b50505050505050565b600080803330148061151b57508773ffffffffffffffffffffffffffffffffffffffff1663c8ab6c876040518163ffffffff167c0100000000000000000000000000000000000000000000000000000000028152600401602060405180830381600087803b1580156114b457600080fd5b505af11580156114c8573d6000803e3d6000fd5b505050506040513d601f19601f820116820180604052506114ec9190810190611e40565b73ffffffffffffffffffffffffffffffffffffffff163373ffffffffffffffffffffffffffffffffffffffff16145b80611537575033600090815260018a01602052604090205460ff165b151561154257600080fd5b84514211801590611557575060208501518551105b151561158f576040517f08c379a000000000000000000000000000000000000000000000000000000000815260040161048190612566565b8591508315156115aa5760608501516000106115aa57600080fd5b88546040517faf1237af00000000000000000000000000000000000000000000000000000000815273ffffffffffffffffffffffffffffffffffffffff84169163af1237af91611604918c91309133918c9060040161245f565b602060405180830381600087803b15801561161e57600080fd5b505af1158015611632573d6000803e3d6000fd5b505050506040513d601f19601f820116820180604052506116569190810190611e40565b89549091501580159061166c5750606085015115155b1561173a57606085015160038a015461168a9163ffffffff61182916565b60038a015560608501516040517fa9059cbb00000000000000000000000000000000000000000000000000000000815273ffffffffffffffffffffffffffffffffffffffff89169163a9059cbb916116e69185916004016124e9565b602060405180830381600087803b15801561170057600080fd5b505af1158015611714573d6000803e3d6000fd5b505050506040513d601f19601f820116820180604052506117389190810190611e66565b505b885460018082018b5560008b8152602080822090930180547fffffffffffffffffffffffff00000000000000000000000000000000000000001673ffffffffffffffffffffffffffffffffffffffff86169081179091558152818c018352604090819020805460ff1916909217909155865191870151878201518c5492517f7d3cfca05a07773179cf217e8ffc51764c3dce48e826d85feb2b280f7674eeef946117ea94909392918791906125bb565b60405180910390a198975050505050505050565b611806611b40565b50604080518082019091528151815260209182019181019190915290565b511590565b60008282018381101561183857fe5b9392505050565b6000806004835484907ffffffffffffffffffffffffffffffffffffffffffffffffffffffffffffffffe810190811061187457fe5b9060005260206000200160009054906101000a900473ffffffffffffffffffffffffffffffffffffffff1673ffffffffffffffffffffffffffffffffffffffff16631865c57d6040518163ffffffff167c0100000000000000000000000000000000000000000000000000000000028152600401602060405180830381600087803b15801561190257600080fd5b505af1158015611916573d6000803e3d6000fd5b505050506040513d601f19601f8201168201806040525061193a91908101906121ac565b148015611a3c57506000835484907fffffffffffffffffffffffffffffffffffffffffffffffffffffffffffffffff810190811061197457fe5b9060005260206000200160009054906101000a900473ffffffffffffffffffffffffffffffffffffffff1673ffffffffffffffffffffffffffffffffffffffff16631865c57d6040518163ffffffff167c0100000000000000000000000000000000000000000000000000000000028152600401602060405180830381600087803b158015611a0257600080fd5b505af1158015611a16573d6000803e3d6000fd5b505050506040513d601f19601f82011682018060405250611a3a91908101906121ac565b145b15611a9f5782547fffffffffffffffffffffffffffffffffffffffffffffffffffffffffffffffff810190849082908110611a7357fe5b60009182526020909120015490925073ffffffffffffffffffffffffffffffffffffffff169050611aa6565b5060009050805b915091565b600082821115611ab757fe5b508082035b92915050565b828054600181600116156101000203166002900490600052602060002090601f016020900481019282601f10611b0357805160ff1916838001178555611b30565b82800160010185558215611b30579182015b82811115611b30578251825591602001919060010190611b15565b50611b3c929150611b57565b5090565b604080518082019091526000808252602082015290565b611b7191905b80821115611b3c5760008155600101611b5d565b90565b600061183882356126a1565b600061183882516126a1565b6000601f82018313611b9d57600080fd5b8135611bb0611bab82612624565b6125fd565b91508181835260208401935060208101905083856020840282011115611bd557600080fd5b60005b83811015611c015781611beb8882611b74565b8452506020928301929190910190600101611bd8565b5050505092915050565b6000601f82018313611c1c57600080fd5b8135611c2a611bab82612624565b91508181835260208401935060208101905083856020840282011115611c4f57600080fd5b60005b83811015611c015781611c658882611c93565b8452506020928301929190910190600101611c52565b600061183882356126ba565b600061183882516126ba565b60006118388235611b71565b6000601f82018313611cb057600080fd5b8135611cbe611bab82612645565b91508082526020830160208301858383011115611cda57600080fd5b611ce58382846126ca565b50505092915050565b600060808284031215611d0057600080fd5b611d0a60806125fd565b90506000611d188484611c93565b8252506020611d2984848301611c93565b6020830152506040611d3d84828501611c93565b6040830152506060611d5184828501611c93565b60608301525092915050565b60006101208284031215611d7057600080fd5b611d7b6101206125fd565b90506000611d898484611c93565b8252506020611d9a84848301611c93565b6020830152506040611dae84828501611c93565b6040830152506060611dc284828501611c93565b6060830152506080611dd684828501611c93565b60808301525060a0611dea84828501611c93565b60a08301525060c0611dfe84828501611c93565b60c08301525060e0611e1284828501611c93565b60e083015250610100611e2784828501611c7b565b6101008301525092915050565b60006118388251611b71565b600060208284031215611e5257600080fd5b6000611e5e8484611b80565b949350505050565b600060208284031215611e7857600080fd5b6000611e5e8484611c87565b600060208284031215611e9657600080fd5b6000611e5e8484611c93565b600080600060608486031215611eb757600080fd5b6000611ec38686611c93565b9350506020611ed486828701611b74565b9250506040611ee586828701611b74565b9150509250925092565b6000806000806000806101208789031215611f0957600080fd5b6000611f158989611c93565b9650506020611f2689828a01611b74565b9550506040611f3789828a01611b74565b9450506060611f4889828a01611b74565b9350506080611f5989828a01611cee565b925050610100611f6b89828a01611c7b565b9150509295509295509295565b6000806000806000806000610140888a031215611f9457600080fd5b6000611fa08a8a611c93565b9750506020611fb18a828b01611b74565b9650506040611fc28a828b01611b74565b955050606088013567ffffffffffffffff811115611fdf57600080fd5b611feb8a828b01611b8c565b945050608088013567ffffffffffffffff81111561200857600080fd5b6120148a828b01611c0b565b93505060a06120258a828b01611cee565b9250506101206120378a828b01611c93565b91505092959891949750929550565b600080600080600060a0868803121561205e57600080fd5b600061206a8888611c93565b955050602061207b88828901611b74565b945050604061208c88828901611b74565b935050606061209d88828901611c93565b92505060806120ae88828901611b74565b9150509295509295909350565b600080600060c084860312156120d057600080fd5b60006120dc8686611c93565b93505060206120ed86828701611cee565b92505060a0611ee586828701611b74565b60008060006060848603121561211357600080fd5b600061211f8686611c93565b9350506020611ed486828701611c93565b600080600080610180858703121561214757600080fd5b60006121538787611c93565b945050602061216487828801611d5d565b93505061014085013567ffffffffffffffff81111561218257600080fd5b61218e87828801611c9f565b9250506101606121a087828801611b74565b91505092959194509250565b6000602082840312156121be57600080fd5b6000611e5e8484611e34565b600080604083850312156121dd57600080fd5b60006121e98585611e34565b92505060206121fa85828601611b80565b9150509250929050565b61220d816126a1565b82525050565b600061221e8261269d565b8084526020840193506122308361268b565b60005b8281101561226057612246868351612204565b61224f8261268b565b602096909601959150600101612233565b5093949350505050565b60006122758261269d565b8084526020840193506122878361268b565b60005b828110156122605761229d868351612448565b6122a68261268b565b60209690960195915060010161228a565b61220d816126bf565b60006122cb8261269d565b8084526122df8160208601602086016126d6565b6122e881612702565b9093016020019392505050565b60008154600181166000811461231257600181146123305761236c565b60028204607f16855260ff198216602086015260408501925061236c565b6002820480865260208601955061234685612691565b60005b8281101561236557815488820152600190910190602001612349565b8701945050505b505092915050565b603781527f526f756e64206973206e6f7420696e20726576696577206f722077696e6e657260208201527f732068617665206e6f74206265656e2063686f73656e2e000000000000000000604082015260600190565b601c81527f54696d6520706172616d65746572732061726520696e76616c69642e00000000602082015260400190565b8051608083019061240b8482612448565b50602082015161241e6020850182612448565b5060408201516124316040850182612448565b5060608201516102ec6060850182612448565b9052565b61220d81611b71565b60208101611abc8284612204565b610100810161246e8288612204565b61247b60208301876122b7565b6124886040830186612204565b6124956060830185612448565b6124a260808301846123fa565b9695505050505050565b606081016124ba8286612204565b81810360208301526124cc81856122f5565b905081810360408301526124e081846122c0565b95945050505050565b604081016124f78285612204565b6118386020830184612448565b602080825281016118388184612213565b60e080825281016125268187612213565b9050818103602083015261253a818661226a565b905061254960408301856123fa565b6124e060c0830184612448565b60208082528101611abc81612374565b60208082528101611abc816123ca565b60208101611abc8284612444565b60208101611abc8284612448565b60a081016125a08285612448565b61183860208301846123fa565b604081016124f78285612448565b60a081016125c98288612448565b6125d66020830187612448565b6125e36040830186612448565b6125f06060830185612204565b6124a26080830184612448565b60405181810167ffffffffffffffff8111828210171561261c57600080fd5b604052919050565b600067ffffffffffffffff82111561263b57600080fd5b5060209081020190565b600067ffffffffffffffff82111561265c57600080fd5b506020601f919091017fffffffffffffffffffffffffffffffffffffffffffffffffffffffffffffffe0160190565b60200190565b60009081526020902090565b5190565b73ffffffffffffffffffffffffffffffffffffffff1690565b151590565b6000611abc826126a1565b82818337506000910152565b60005b838110156126f15781810151838201526020016126d9565b838111156102ec5750506000910152565b601f017fffffffffffffffffffffffffffffffffffffffffffffffffffffffffffffffe016905600a265627a7a72305820d6dcd064cac623faba945d4a3f8339b78a99345de0f4473d622dc9077ef53bdb6c6578706572696d656e74616cf50037",
  "source": "pragma solidity ^0.4.18;\npragma experimental ABIEncoderV2;\n\nimport \"../math/SafeMath.sol\";\nimport \"../strings/strings.sol\";\nimport \"../../interfaces/factories/IMatryxRoundFactory.sol\";\nimport \"./LibTournamentStateManagement.sol\";\nimport \"../../interfaces/IMatryxPlatform.sol\";\nimport \"../../interfaces/IMatryxToken.sol\";\nimport \"../../interfaces/IMatryxTournament.sol\";\nimport \"../../interfaces/IMatryxRound.sol\";\n\nlibrary LibTournamentAdminMethods\n{\n    using SafeMath for uint256;\n    using strings for *;\n\n    enum RoundState { NotYetOpen, Unfunded, Open, InReview, HasWinners, Closed, Abandoned }\n    enum SelectWinnerAction { DoNothing, StartNextRound, CloseTournament }\n\n    event NewRound(uint256 _startTime, uint256 _endTime, uint256 _reviewPeriodDuration, address _roundAddress, uint256 _roundNumber);\n    event RoundWinnersChosen(address[] _submissionAddresses);\n\n    function update(LibConstruction.TournamentData storage self, LibConstruction.TournamentModificationData tournamentData, string _category, address platformAddress)\n    {\n        // TODO: Update the category on the platform\n        if(_category.toSlice().empty() == false)\n        {\n            IMatryxPlatform(platformAddress).switchTournamentCategory(address(this), self.category, _category);\n            self.category = _category;\n        }\n        if(tournamentData.title_1 != 0x0)\n        {\n            self.title_1 = tournamentData.title_1;\n            self.title_2 = tournamentData.title_2;\n            self.title_2 = tournamentData.title_3;\n        }\n        if(tournamentData.descriptionHash_1 != 0x0)\n        {\n            self.descriptionHash_1 = tournamentData.descriptionHash_1;\n            self.descriptionHash_2 = tournamentData.descriptionHash_2;\n        }\n        if(tournamentData.fileHash_1 != 0x0)\n        {\n            self.fileHash_1 = tournamentData.fileHash_1;\n            self.fileHash_2 = tournamentData.fileHash_2;\n        }\n        if(tournamentData.entryFeeChanged)\n        {\n            self.entryFee = tournamentData.entryFee;\n        }\n    }\n\n    /// @dev Chooses the winner(s) of the current round. If this is the last round, \n    //       this method will also close the tournament.\n    /// @param _submissionAddresses The winning submission addresses\n    /// @param _rewardDistribution Distribution indicating how to split the reward among the submissions\n    function selectWinners(LibTournamentStateManagement.StateData storage stateData, address platformAddress, address matryxTokenAddress, address[] _submissionAddresses, uint256[] _rewardDistribution, LibConstruction.RoundData _roundData, uint256 _selectWinnerAction) public\n    {\n        // Round must be in review or have winners to close\n        (,address currentRoundAddress) = LibTournamentStateManagement.currentRound(stateData);\n        uint256 roundState = uint256(IMatryxRound(currentRoundAddress).getState());\n        require(roundState == uint256(RoundState.InReview) || roundState == uint256(RoundState.HasWinners), \"Round is not in review or winners have not been chosen.\");\n        uint256 remainingBalance = IMatryxTournament(this).getBalance();\n        // Event to notify web3 of the winning submission address\n        emit RoundWinnersChosen(_submissionAddresses);\n        IMatryxRound(currentRoundAddress).selectWinningSubmissions(_submissionAddresses, _rewardDistribution, _roundData, _selectWinnerAction);\n        if(_selectWinnerAction == uint256(SelectWinnerAction.CloseTournament))\n        {\n            closeTournament(stateData, platformAddress, matryxTokenAddress, remainingBalance, currentRoundAddress);\n        }\n    }\n\n    function editGhostRound(LibTournamentStateManagement.StateData storage stateData, LibConstruction.RoundData _roundData, address matryxTokenAddress) public\n    {\n\n        (uint256 ghostRoundIndex, address ghostRoundAddress) = LibTournamentStateManagement.getGhostRound(stateData);\n        (,address currentRoundAddress) = LibTournamentStateManagement.currentRound(stateData);\n        if(ghostRoundAddress != 0x0)\n        {\n            uint256 ghostRoundBounty = IMatryxRound(ghostRoundAddress).getBounty();\n            if(_roundData.bounty > ghostRoundBounty)\n            {\n                // Transfer to ghost round\n                uint256 addAmount = _roundData.bounty.sub(ghostRoundBounty);\n                stateData.roundBountyAllocation = stateData.roundBountyAllocation.add(addAmount);\n                require(IMatryxToken(matryxTokenAddress).transfer(ghostRoundAddress, addAmount));\n            }\n            else if(_roundData.bounty < ghostRoundBounty)\n            {\n                // Have ghost round transfer to the tournament\n                uint256 subAmount = ghostRoundBounty.sub(_roundData.bounty);\n                stateData.roundBountyAllocation = stateData.roundBountyAllocation.sub(subAmount);\n                IMatryxRound(ghostRoundAddress).transferToTournament(subAmount);\n            }\n\n            IMatryxRound(ghostRoundAddress).editRound(IMatryxRound(stateData.rounds[ghostRoundIndex-1]).getEndTime(), _roundData);\n        }\n    }\n\n    ///@dev Allocates some of this tournament's balance to the current round\n    function allocateMoreToRound(LibTournamentStateManagement.StateData storage stateData, uint256 _mtxAllocation, address matryxTokenAddress) public\n    {\n        (, address currentRoundAddress) = LibTournamentStateManagement.currentRound(stateData);\n        uint256 currentRoundState = IMatryxRound(currentRoundAddress).getState();\n        require(currentRoundState == uint256(RoundState.NotYetOpen) || \n                currentRoundState == uint256(RoundState.Unfunded) || \n                currentRoundState == uint256(RoundState.Open));\n\n        stateData.roundBountyAllocation = stateData.roundBountyAllocation.add(_mtxAllocation);\n        require(IMatryxToken(matryxTokenAddress).transfer(currentRoundAddress, _mtxAllocation));\n    }\n\n    /// @dev This function should be called after the user selects winners for their tournament and chooses the \"DoNothing\" option\n    function jumpToNextRound(LibTournamentStateManagement.StateData storage stateData) public\n    {\n        (uint256 currentRoundIndex, address currentRoundAddress) = LibTournamentStateManagement.currentRound(stateData);\n        IMatryxRound(currentRoundAddress).closeRound();\n        IMatryxRound(stateData.rounds[currentRoundIndex+1]).startNow();\n    }\n\n    /// @dev This function closes the tournament after the tournament owner selects their winners with the \"DoNothing\" option\n    function stopTournament(LibTournamentStateManagement.StateData storage stateData, address platformAddress, address matryxTokenAddress) public\n    {\n        uint256 remainingBalance = IMatryxTournament(this).getBalance();\n        (,address currentRoundAddress) = LibTournamentStateManagement.currentRound(stateData);\n        IMatryxRound(currentRoundAddress).closeRound();\n        closeTournament(stateData, platformAddress, matryxTokenAddress, remainingBalance, currentRoundAddress);\n    }\n\n    // @dev Chooses the winner of the tournament.\n    function closeTournament(LibTournamentStateManagement.StateData storage stateData, address platformAddress, address matryxTokenAddress, uint256 remainingBalance, address currentRoundAddress) public\n    {\n        uint256 roundState = uint256(IMatryxRound(currentRoundAddress).getState());\n        require(IMatryxRound(currentRoundAddress).getState() == uint256(RoundState.Closed));\n        // Transfer the remaining MTX in the tournament to the current round\n        stateData.roundBountyAllocation = stateData.roundBountyAllocation.add(remainingBalance);\n        IMatryxToken(matryxTokenAddress).transfer(currentRoundAddress, remainingBalance);\n        IMatryxRound(currentRoundAddress).transferAllToWinners(remainingBalance);\n        IMatryxPlatform(platformAddress).invokeTournamentClosedEvent(stateData.rounds.length, IMatryxRound(currentRoundAddress).getBounty());\n            \n        stateData.closed = true;\n    }\n\n    /// @dev Creates a new round.\n    /// @return The new round's address.\n    function createRound(LibTournamentStateManagement.StateData storage stateData, address platformAddress, address matryxTokenAddress, address matryxRoundFactoryAddress, LibConstruction.RoundData roundData, bool _automaticCreation) public returns (address _roundAddress)\n    {\n        // only this, the tournamentFactory or rounds can call createRound\n        require(msg.sender == address(this) || msg.sender == IMatryxPlatform(platformAddress).getTournamentFactoryAddress() || stateData.isRound[msg.sender]);\n        require((roundData.start >= now && roundData.start < roundData.end), \"Time parameters are invalid.\");\n\n        IMatryxRoundFactory roundFactory = IMatryxRoundFactory(matryxRoundFactoryAddress);\n        address newRoundAddress;\n\n        if(_automaticCreation == false)\n        {\n            require(roundData.bounty > 0);\n        }\n\n        newRoundAddress = roundFactory.createRound(platformAddress, this, msg.sender, stateData.rounds.length, roundData);\n\n        // Transfer the round bounty to the round.\n        // If this is the first round, the bounty is transfered to the round *by the platform in createTournament* (by tournament.sendBountyToRound)\n        if(stateData.rounds.length != 0 && roundData.bounty != 0)\n        {\n            stateData.roundBountyAllocation = stateData.roundBountyAllocation.add(roundData.bounty);\n            IMatryxToken(matryxTokenAddress).transfer(newRoundAddress, roundData.bounty);\n        }\n\n        stateData.rounds.push(newRoundAddress);\n        stateData.isRound[newRoundAddress] = true;\n\n        // Triggers Event displaying start time, end, address, and round number\n        emit NewRound(roundData.start, roundData.end, roundData.reviewPeriodDuration, newRoundAddress, stateData.rounds.length);\n\n        return newRoundAddress;\n    }\n\n    function createRoundTwo(LibTournamentStateManagement.StateData storage stateData, address platformAddress, address matryxTokenAddress, address matryxRoundFactoryAddress, LibConstruction.RoundData roundData, bool _automaticCreation) public returns (address _roundAddress)\n    {\n        // only this, the tournamentFactory or rounds can call createRound\n        require(msg.sender == address(this) || msg.sender == IMatryxPlatform(platformAddress).getTournamentFactoryAddress() || stateData.isRound[msg.sender]);\n        require((roundData.start >= now && roundData.start < roundData.end), \"Time parameters are invalid.\");\n\n        IMatryxRoundFactory roundFactory = IMatryxRoundFactory(matryxRoundFactoryAddress);\n        address newRoundAddress;\n\n        if(_automaticCreation == false)\n        {\n            require(roundData.bounty > 0);\n        }\n\n        newRoundAddress = roundFactory.createRound(platformAddress, this, msg.sender, stateData.rounds.length, roundData);\n        // Transfer the round bounty to the round.\n        // If this is the first round, the bounty is transfered to the round *by the platform in createTournament* (by tournament.sendBountyToRound)\n        if(stateData.rounds.length != 0 && roundData.bounty != 0)\n        {\n            stateData.roundBountyAllocation = stateData.roundBountyAllocation.add(roundData.bounty);\n            IMatryxToken(matryxTokenAddress).transfer(newRoundAddress, roundData.bounty);\n        }\n\n        stateData.rounds.push(newRoundAddress);\n        stateData.isRound[newRoundAddress] = true;\n\n        // Triggers Event displaying start time, end, address, and round number\n        emit NewRound(roundData.start, roundData.end, roundData.reviewPeriodDuration, newRoundAddress, stateData.rounds.length);\n\n        return newRoundAddress;\n    }\n}",
  "sourcePath": "/Users/samhessenauer/Documents/Software/git.nosync/MatryxPlatform/libraries/tournament/LibTournamentAdminMethods.sol",
  "compiler": {
    "name": "solc",
    "version": "0.4.24+commit.e67f0147.Emscripten.clang"
  },
  "schemaVersion": "2.0.0",
  "updatedAt": "2018-07-06T17:49:30.573Z"
}