{
  "contractName": "LibTournamentEntrantMethods",
  "abi": [
    {
      "constant": false,
      "inputs": [
        {
          "name": "data",
          "type": "LibConstruction.TournamentData storage"
        },
        {
          "name": "stateData",
          "type": "LibTournamentStateManagement.StateData storage"
        },
        {
          "name": "entryData",
          "type": "LibTournamentStateManagement.EntryData storage"
        },
        {
          "name": "_entrantAddress",
          "type": "address"
        }
      ],
      "name": "enterUserInTournament",
      "outputs": [
        {
          "name": "_success",
          "type": "bool"
        }
      ],
      "payable": false,
      "stateMutability": "nonpayable",
      "type": "function"
    },
    {
      "constant": true,
      "inputs": [
        {
          "components": [
            {
              "name": "category",
              "type": "string"
            },
            {
              "name": "title_1",
              "type": "bytes32"
            },
            {
              "name": "title_2",
              "type": "bytes32"
            },
            {
              "name": "title_3",
              "type": "bytes32"
            },
            {
              "name": "descriptionHash_1",
              "type": "bytes32"
            },
            {
              "name": "descriptionHash_2",
              "type": "bytes32"
            },
            {
              "name": "fileHash_1",
              "type": "bytes32"
            },
            {
              "name": "fileHash_2",
              "type": "bytes32"
            },
            {
              "name": "bounty",
              "type": "uint256"
            },
            {
              "name": "entryFee",
              "type": "uint256"
            }
          ],
          "name": "data",
          "type": "tuple"
        }
      ],
      "name": "getEntryFee",
      "outputs": [
        {
          "name": "",
          "type": "uint256"
        }
      ],
      "payable": false,
      "stateMutability": "view",
      "type": "function"
    },
    {
      "constant": false,
      "inputs": [
        {
          "name": "stateData",
          "type": "LibTournamentStateManagement.StateData storage"
        },
        {
          "name": "entryData",
          "type": "LibTournamentStateManagement.EntryData storage"
        },
        {
          "name": "matryxTokenAddress",
          "type": "address"
        }
      ],
      "name": "collectMyEntryFee",
      "outputs": [],
      "payable": false,
      "stateMutability": "nonpayable",
      "type": "function"
    },
    {
      "constant": false,
      "inputs": [
        {
          "name": "stateData",
          "type": "LibTournamentStateManagement.StateData storage"
        },
        {
          "name": "entryData",
          "type": "LibTournamentStateManagement.EntryData storage"
        },
        {
          "name": "platformAddress",
          "type": "address"
        },
        {
          "name": "_contributors",
          "type": "address[]"
        },
        {
          "name": "_contributorRewardDistribution",
          "type": "uint128[]"
        },
        {
          "name": "_references",
          "type": "address[]"
        },
        {
          "components": [
            {
              "name": "title",
              "type": "string"
            },
            {
              "name": "owner",
              "type": "address"
            },
            {
              "name": "contentHash",
              "type": "bytes"
            },
            {
              "name": "isPublic",
              "type": "bool"
            }
          ],
          "name": "submissionData",
          "type": "tuple"
        }
      ],
      "name": "createSubmission",
      "outputs": [
        {
          "name": "_submissionAddress",
          "type": "address"
        }
      ],
      "payable": false,
      "stateMutability": "nonpayable",
      "type": "function"
    },
    {
      "constant": false,
      "inputs": [
        {
          "name": "stateData",
          "type": "LibTournamentStateManagement.StateData storage"
        },
        {
          "name": "entryData",
          "type": "LibTournamentStateManagement.EntryData storage"
        },
        {
          "name": "matryxTokenAddress",
          "type": "address"
        }
      ],
      "name": "withdrawFromAbandoned",
      "outputs": [],
      "payable": false,
      "stateMutability": "nonpayable",
      "type": "function"
    }
  ],
  "bytecode": "0x611c8b610030600b82828239805160001a6073146000811461002057610022565bfe5b5030600052607381538281f30073000000000000000000000000000000000000000030146080604052600436106100835763ffffffff7c01000000000000000000000000000000000000000000000000000000006000350416633a9ed3e38114610088578063734e4a16146100be578063a09c5c99146100e0578063b4a25e5c1461010d578063ddc23bd01461012d575b600080fd5b81801561009457600080fd5b506100a86100a3366004611699565b61014d565b6040516100b59190611a1c565b60405180910390f35b8180156100ca57600080fd5b506100de6100d936600461164c565b6106ba565b005b8180156100ec57600080fd5b506101006100fb3660046117ca565b6106cb565b6040516100b59190611ae5565b61012061011b366004611795565b6108b2565b6040516100b59190611b11565b81801561013957600080fd5b506100de61014836600461164c565b6108ba565b600080600073__LibTournamentStateManagement__________630386922b8b6040518263ffffffff167c01000000000000000000000000000000000000000000000000000000000281526004016101a59190611b03565b604080518083038186803b1580156101bc57600080fd5b505af41580156101d0573d6000803e3d6000fd5b505050506040513d601f19601f820116820180604052506101f49190810190611849565b9050809250508173ffffffffffffffffffffffffffffffffffffffff16638734fe4c8888888c73ffffffffffffffffffffffffffffffffffffffff16636a44e43d8a602001516040518263ffffffff167c01000000000000000000000000000000000000000000000000000000000281526004016102729190611a1c565b602060405180830381600087803b15801561028c57600080fd5b505af11580156102a0573d6000803e3d6000fd5b505050506040513d601f19601f820116820180604052506102c49190810190611608565b896040518663ffffffff167c0100000000000000000000000000000000000000000000000000000000028152600401610301959493929190611a80565b602060405180830381600087803b15801561031b57600080fd5b505af115801561032f573d6000803e3d6000fd5b505050506040513d601f19601f820116820180604052506103539190810190611608565b6040517f8c593a8c00000000000000000000000000000000000000000000000000000000815290915073ffffffffffffffffffffffffffffffffffffffff891690638c593a8c906103aa9084908990600401611a45565b602060405180830381600087803b1580156103c457600080fd5b505af11580156103d8573d6000803e3d6000fd5b505050506040513d601f19601f820116820180604052506103fc919081019061162e565b506001898101546104129163ffffffff610e8216565b896001018190555060018960030160003373ffffffffffffffffffffffffffffffffffffffff1673ffffffffffffffffffffffffffffffffffffffff16815260200190815260200160002060008373ffffffffffffffffffffffffffffffffffffffff1673ffffffffffffffffffffffffffffffffffffffff16815260200190815260200160002060000160006101000a81548160ff0219169083151502179055508860020160003373ffffffffffffffffffffffffffffffffffffffff1673ffffffffffffffffffffffffffffffffffffffff168152602001908152602001600020805490508960030160003373ffffffffffffffffffffffffffffffffffffffff1673ffffffffffffffffffffffffffffffffffffffff16815260200190815260200160002060008373ffffffffffffffffffffffffffffffffffffffff1673ffffffffffffffffffffffffffffffffffffffff168152602001908152602001600020600101819055508860020160003373ffffffffffffffffffffffffffffffffffffffff1673ffffffffffffffffffffffffffffffffffffffff1681526020019081526020016000208190806001815401808255809150509060018203906000526020600020016000909192909190916101000a81548173ffffffffffffffffffffffffffffffffffffffff021916908373ffffffffffffffffffffffffffffffffffffffff160217905550508773ffffffffffffffffffffffffffffffffffffffff1663ab9583d933836040518363ffffffff167c010000000000000000000000000000000000000000000000000000000002815260040161067a929190611a2a565b600060405180830381600087803b15801561069457600080fd5b505af11580156106a8573d6000803e3d6000fd5b50929c9b505050505050505050505050565b6106c683833384610e98565b505050565b73ffffffffffffffffffffffffffffffffffffffff81166000908152600483016020526040812054819060ff1615156001141561070b57600091506108a9565b73ffffffffffffffffffffffffffffffffffffffff831660009081526004850160205260409020805460ff19166001908117825560098801549101819055600286015461075d9163ffffffff610e8216565b6002860155600584015461077890600163ffffffff610e8216565b60058501556040517f0386922b00000000000000000000000000000000000000000000000000000000815273__LibTournamentStateManagement__________90630386922b906107cd908890600401611b03565b604080518083038186803b1580156107e457600080fd5b505af41580156107f8573d6000803e3d6000fd5b505050506040513d601f19601f8201168201806040525061081c9190810190611849565b6040517fdaff8cd400000000000000000000000000000000000000000000000000000000815290925073ffffffffffffffffffffffffffffffffffffffff8316915063daff8cd490610872908690600401611a1c565b600060405180830381600087803b15801561088c57600080fd5b505af11580156108a0573d6000803e3d6000fd5b50505050600191505b50949350505050565b610120015190565b600080808060046040517f5726b16f00000000000000000000000000000000000000000000000000000000815273__LibTournamentStateManagement__________90635726b16f90610911908b90600401611b03565b60206040518083038186803b15801561092957600080fd5b505af415801561093d573d6000803e3d6000fd5b505050506040513d601f19601f82011682018060405250610961919081019061182b565b146109a1576040517f08c379a000000000000000000000000000000000000000000000000000000000815260040161099890611af3565b60405180910390fd5b3360009081526020879052604090205460ff16156109be57600080fd5b6040517f0386922b00000000000000000000000000000000000000000000000000000000815273__LibTournamentStateManagement__________90630386922b90610a0e908a90600401611b03565b604080518083038186803b158015610a2557600080fd5b505af4158015610a39573d6000803e3d6000fd5b505050506040513d601f19601f82011682018060405250610a5d9190810190611849565b905080945050856005015492503073ffffffffffffffffffffffffffffffffffffffff1663f49bff7b6040518163ffffffff167c0100000000000000000000000000000000000000000000000000000000028152600401602060405180830381600087803b158015610ace57600080fd5b505af1158015610ae2573d6000803e3d6000fd5b505050506040513d601f19601f82011682018060405250610b06919081019061182b565b915060008573ffffffffffffffffffffffffffffffffffffffff166370a08231866040518263ffffffff167c0100000000000000000000000000000000000000000000000000000000028152600401610b5f9190611a1c565b602060405180830381600087803b158015610b7957600080fd5b505af1158015610b8d573d6000803e3d6000fd5b505050506040513d601f19601f82011682018060405250610bb1919081019061182b565b1115610d5c578373ffffffffffffffffffffffffffffffffffffffff166307417cf16040518163ffffffff167c0100000000000000000000000000000000000000000000000000000000028152600401602060405180830381600087803b158015610c1b57600080fd5b505af1158015610c2f573d6000803e3d6000fd5b505050506040513d601f19601f82011682018060405250610c53919081019061182b565b6003880154909150610c6b908263ffffffff61128216565b6003880155610c7c87873388610e98565b8473ffffffffffffffffffffffffffffffffffffffff1663a9059cbb33610cc16002610cb58b600501548861129990919063ffffffff16565b9063ffffffff6112b016565b6040518363ffffffff167c0100000000000000000000000000000000000000000000000000000000028152600401610cfa929190611a65565b602060405180830381600087803b158015610d1457600080fd5b505af1158015610d28573d6000803e3d6000fd5b505050506040513d601f19601f82011682018060405250610d4c919081019061162e565b1515610d5757600080fd5b610e5e565b610d6887873388610e98565b73ffffffffffffffffffffffffffffffffffffffff851663a9059cbb33610dc8610d9987600163ffffffff61128216565b610dbc8881610daf82600263ffffffff61128216565b8a9063ffffffff6112b016565b9063ffffffff61129916565b6040518363ffffffff167c0100000000000000000000000000000000000000000000000000000000028152600401610e01929190611a65565b602060405180830381600087803b158015610e1b57600080fd5b505af1158015610e2f573d6000803e3d6000fd5b505050506040513d601f19601f82011682018060405250610e53919081019061162e565b1515610e5e57600080fd5b505033600090815260209490945250506040909120805460ff191660011790555050565b600082820183811015610e9157fe5b9392505050565b600080600073__LibTournamentStateManagement__________635726b16f886040518263ffffffff167c0100000000000000000000000000000000000000000000000000000000028152600401610ef09190611b03565b60206040518083038186803b158015610f0857600080fd5b505af4158015610f1c573d6000803e3d6000fd5b505050506040513d601f19601f82011682018060405250610f40919081019061182b565b6040517f0386922b00000000000000000000000000000000000000000000000000000000815290935073__LibTournamentStateManagement__________90630386922b90610f93908a90600401611b03565b604080518083038186803b158015610faa57600080fd5b505af4158015610fbe573d6000803e3d6000fd5b505050506040513d601f19601f82011682018060405250610fe29190810190611849565b9250600190506040517ffe71f3e400000000000000000000000000000000000000000000000000000000815273ffffffffffffffffffffffffffffffffffffffff84169063fe71f3e49061103a908990600401611a1c565b602060405180830381600087803b15801561105457600080fd5b505af1158015611068573d6000803e3d6000fd5b505050506040513d601f19601f8201168201806040525061108c919081019061182b565b1461109657600080fd5b5073ffffffffffffffffffffffffffffffffffffffff848116600090815260048088016020526040918290206001015491517fa9059cbb000000000000000000000000000000000000000000000000000000008152869384169263a9059cbb92611103928a929101611a65565b602060405180830381600087803b15801561111d57600080fd5b505af1158015611131573d6000803e3d6000fd5b505050506040513d601f19601f82011682018060405250611155919081019061162e565b151561116057600080fd5b73ffffffffffffffffffffffffffffffffffffffff85166000908152600487016020526040902060010154600288015461119f9163ffffffff61128216565b600288015573ffffffffffffffffffffffffffffffffffffffff851660009081526004870160205260408120805460ff1916815560019081019190915560058701546111f09163ffffffff61128216565b60058701556040517f0e4142a100000000000000000000000000000000000000000000000000000000815273ffffffffffffffffffffffffffffffffffffffff831690630e4142a190611247908890600401611a1c565b600060405180830381600087803b15801561126157600080fd5b505af1158015611275573d6000803e3d6000fd5b5050505050505050505050565b60008282111561128e57fe5b508082035b92915050565b60008082848115156112a757fe5b04949350505050565b60008282028315806112cc57508284828115156112c957fe5b04145b1515610e9157fe5b6000610e918235611bb7565b6000610e918251611bb7565b6000601f820183136112fd57600080fd5b813561131061130b82611b46565b611b1f565b9150818183526020840193506020810190508385602084028201111561133557600080fd5b60005b83811015611361578161134b88826112d4565b8452506020928301929190910190600101611338565b5050505092915050565b6000601f8201831361137c57600080fd5b813561138a61130b82611b46565b915081818352602084019350602081019050838560208402820111156113af57600080fd5b60005b8381101561136157816113c588826115f0565b84525060209283019291909101906001016113b2565b6000610e918235611bd0565b6000610e918251611bd0565b6000610e918235611bea565b6000601f8201831361141057600080fd5b813561141e61130b82611b67565b9150808252602083016020830185838301111561143a57600080fd5b611445838284611bed565b50505092915050565b60006080828403121561146057600080fd5b61146a6080611b1f565b9050813567ffffffffffffffff81111561148357600080fd5b61148f848285016113ff565b82525060206114a0848483016112d4565b602083015250604082013567ffffffffffffffff8111156114c057600080fd5b6114cc848285016113ff565b60408301525060606114e0848285016113db565b60608301525092915050565b600061014082840312156114ff57600080fd5b61150a610140611b1f565b9050813567ffffffffffffffff81111561152357600080fd5b61152f848285016113ff565b8252506020611540848483016113f3565b6020830152506040611554848285016113f3565b6040830152506060611568848285016113f3565b606083015250608061157c848285016113f3565b60808301525060a0611590848285016113f3565b60a08301525060c06115a4848285016113f3565b60c08301525060e06115b8848285016113f3565b60e0830152506101006115cd848285016113f3565b610100830152506101206115e3848285016113f3565b6101208301525092915050565b6000610e918235611bd5565b6000610e918251611bea565b60006020828403121561161a57600080fd5b600061162684846112e0565b949350505050565b60006020828403121561164057600080fd5b600061162684846113e7565b60008060006060848603121561166157600080fd5b600061166d86866113f3565b935050602061167e868287016113f3565b925050604061168f868287016112d4565b9150509250925092565b600080600080600080600060e0888a0312156116b457600080fd5b60006116c08a8a6113f3565b97505060206116d18a828b016113f3565b96505060406116e28a828b016112d4565b955050606088013567ffffffffffffffff8111156116ff57600080fd5b61170b8a828b016112ec565b945050608088013567ffffffffffffffff81111561172857600080fd5b6117348a828b0161136b565b93505060a088013567ffffffffffffffff81111561175157600080fd5b61175d8a828b016112ec565b92505060c088013567ffffffffffffffff81111561177a57600080fd5b6117868a828b0161144e565b91505092959891949750929550565b6000602082840312156117a757600080fd5b813567ffffffffffffffff8111156117be57600080fd5b611626848285016114ec565b600080600080608085870312156117e057600080fd5b60006117ec87876113f3565b94505060206117fd878288016113f3565b935050604061180e878288016113f3565b925050606061181f878288016112d4565b91505092959194509250565b60006020828403121561183d57600080fd5b600061162684846115fc565b6000806040838503121561185c57600080fd5b600061186885856115fc565b9250506020611879858286016112e0565b9150509250929050565b61188c81611bb7565b82525050565b600061189d82611bb3565b8084526020840193506118af83611bad565b60005b828110156118df576118c5868351611883565b6118ce82611bad565b6020969096019591506001016118b2565b5093949350505050565b60006118f482611bb3565b80845260208401935061190683611bad565b60005b828110156118df5761191c868351611a0a565b61192582611bad565b602096909601959150600101611909565b61188c81611bd0565b600061194a82611bb3565b80845261195e816020860160208601611bf9565b61196781611c29565b9093016020019392505050565b601f81527f5468697320746f75726e616d656e74206973207374696c6c2076616c69642e00602082015260400190565b9052565b80516080808452600091908401906119c0828261193f565b91505060208301516119d56020860182611883565b50604083015184820360408601526119ed828261193f565b9150506060830151611a026060860182611936565b509392505050565b61188c81611bd5565b61188c81611bea565b602081016112938284611883565b60408101611a388285611883565b610e916020830184611883565b60408101611a538285611883565b81810360208301526116268184611892565b60408101611a738285611883565b610e916020830184611a13565b60a08082528101611a918188611892565b90508181036020830152611aa581876118e9565b90508181036040830152611ab98186611892565b9050611ac86060830185611883565b8181036080830152611ada81846119a8565b979650505050505050565b602081016112938284611936565b6020808252810161129381611974565b6020810161129382846119a4565b602081016112938284611a13565b60405181810167ffffffffffffffff81118282101715611b3e57600080fd5b604052919050565b600067ffffffffffffffff821115611b5d57600080fd5b5060209081020190565b600067ffffffffffffffff821115611b7e57600080fd5b506020601f919091017fffffffffffffffffffffffffffffffffffffffffffffffffffffffffffffffe0160190565b60200190565b5190565b73ffffffffffffffffffffffffffffffffffffffff1690565b151590565b6fffffffffffffffffffffffffffffffff1690565b90565b82818337506000910152565b60005b83811015611c14578181015183820152602001611bfc565b83811115611c23576000848401525b50505050565b601f017fffffffffffffffffffffffffffffffffffffffffffffffffffffffffffffffe016905600a265627a7a723058205c7fa21f5386a367185afbbfd7e0607e8d93cf3186bec1cf09952850860db60b6c6578706572696d656e74616cf50037",
  "source": "pragma solidity ^0.4.18;\npragma experimental ABIEncoderV2;\n\nimport \"../math/SafeMath.sol\";\nimport \"./LibTournamentStateManagement.sol\";\nimport \"../../interfaces/IMatryxToken.sol\";\nimport \"../../interfaces/IMatryxPlatform.sol\";\nimport \"../../interfaces/IMatryxTournament.sol\";\n\nlibrary LibTournamentEntrantMethods\n{\n    using SafeMath for uint256;\n\n    enum TournamentState { NotYetOpen, OnHold, Open, Closed, Abandoned}\n    enum ParticipantType { Nonentrant, Entrant, Contributor, Author }\n\n    struct uint256_optional\n    {\n        bool exists;\n        uint256 value;\n    }\n\n    /// @dev Enters the user into the tournament.\n    /// @param _entrantAddress Address of the user to enter.\n    /// @return success Whether or not the user was entered successfully.\n    function enterUserInTournament(LibConstruction.TournamentData storage data, LibTournamentStateManagement.StateData storage stateData, LibTournamentStateManagement.EntryData storage entryData, address _entrantAddress) public returns (bool _success)\n    {\n        if(entryData.addressToEntryFeePaid[_entrantAddress].exists == true)\n        {\n            return false;\n        }\n\n        // Change the tournament's state to reflect the user entering.\n        entryData.addressToEntryFeePaid[_entrantAddress].exists = true;\n        entryData.addressToEntryFeePaid[_entrantAddress].value = data.entryFee;\n        stateData.entryFeesTotal = stateData.entryFeesTotal.add(data.entryFee);\n        entryData.numberOfEntrants = entryData.numberOfEntrants.add(1);\n\n        (, address currentRoundAddress) = LibTournamentStateManagement.currentRound(stateData);\n        IMatryxRound(currentRoundAddress).becomeEntrant(_entrantAddress);\n\n        return true;\n    }\n\n    /// @dev Returns the fee in MTX to be payed by a prospective entrant.\n    /// @return Entry fee for this tournament.\n    function getEntryFee(LibConstruction.TournamentData data) public view returns (uint256)\n    {\n        return data.entryFee;\n    }\n\n    function collectMyEntryFee(LibTournamentStateManagement.StateData storage stateData, LibTournamentStateManagement.EntryData storage entryData, address matryxTokenAddress) public\n    {\n        returnEntryFeeToEntrant(stateData, entryData, msg.sender, matryxTokenAddress);\n    }\n\n    function returnEntryFeeToEntrant(LibTournamentStateManagement.StateData storage stateData, LibTournamentStateManagement.EntryData storage entryData, address _entrant, address matryxTokenAddress) internal\n    {\n        // Make sure entrants don't withdraw their entry fee early\n        uint256 currentState = LibTournamentStateManagement.getState(stateData);\n        (,address currentRoundAddress) = LibTournamentStateManagement.currentRound(stateData);\n        require(IMatryxRound(currentRoundAddress).getParticipantType(_entrant) == uint256(ParticipantType.Entrant));\n\n        IMatryxToken matryxToken = IMatryxToken(matryxTokenAddress);\n        require(matryxToken.transfer(_entrant, entryData.addressToEntryFeePaid[_entrant].value));\n        stateData.entryFeesTotal = stateData.entryFeesTotal.sub(entryData.addressToEntryFeePaid[_entrant].value);\n        entryData.addressToEntryFeePaid[_entrant].exists = false;\n        entryData.addressToEntryFeePaid[_entrant].value = 0;\n        entryData.numberOfEntrants = entryData.numberOfEntrants.sub(1);\n        IMatryxRound(currentRoundAddress).becomeNonentrant(_entrant);\n    }\n\n    function createSubmission(LibTournamentStateManagement.StateData storage stateData, LibTournamentStateManagement.EntryData storage entryData, address platformAddress, address[] _contributors, uint128[] _contributorRewardDistribution, address[] _references, LibConstruction.SubmissionData submissionData) public returns (address _submissionAddress)\n    {\n        address currentRoundAddress;\n        (, currentRoundAddress) = LibTournamentStateManagement.currentRound(stateData);\n        address submissionAddress = IMatryxRound(currentRoundAddress).createSubmission(_contributors, _contributorRewardDistribution, _references, IMatryxPlatform(platformAddress).peerAddress(submissionData.owner), submissionData);\n        // Send out reference requests to the authors of other submissions\n        IMatryxPlatform(platformAddress).handleReferenceRequestsForSubmission(submissionAddress, _references);\n\n        entryData.numberOfSubmissions = entryData.numberOfSubmissions.add(1);\n        entryData.entrantToSubmissionToSubmissionIndex[msg.sender][submissionAddress].exists = true;\n        entryData.entrantToSubmissionToSubmissionIndex[msg.sender][submissionAddress].value = entryData.entrantToSubmissions[msg.sender].length;\n        entryData.entrantToSubmissions[msg.sender].push(submissionAddress);\n        IMatryxPlatform(platformAddress).updateSubmissions(msg.sender, submissionAddress);\n        \n        return submissionAddress;\n    }\n\n    function withdrawFromAbandoned(LibTournamentStateManagement.StateData storage stateData, LibTournamentStateManagement.EntryData storage entryData, address matryxTokenAddress) public\n    {\n        require(LibTournamentStateManagement.getState(stateData) == uint256(TournamentState.Abandoned), \"This tournament is still valid.\");\n        require(!entryData.hasWithdrawn[msg.sender]);\n\n        address currentRoundAddress;\n        (, currentRoundAddress) = LibTournamentStateManagement.currentRound(stateData);\n        uint256 numberOfEntrants = entryData.numberOfEntrants;\n        uint256 bounty = IMatryxTournament(this).getBounty();\n        // If this is the first withdrawal being made...\n        if(IMatryxToken(matryxTokenAddress).balanceOf(currentRoundAddress) > 0)\n        {\n            uint256 roundBounty = IMatryxRound(currentRoundAddress).transferBountyToTournament();\n            stateData.roundBountyAllocation = stateData.roundBountyAllocation.sub(roundBounty);\n            returnEntryFeeToEntrant(stateData, entryData, msg.sender, matryxTokenAddress);\n            require(IMatryxToken(matryxTokenAddress).transfer(msg.sender, bounty.div(entryData.numberOfEntrants).mul(2)));\n        }\n        else\n        {\n            returnEntryFeeToEntrant(stateData, entryData, msg.sender, matryxTokenAddress);\n            require(IMatryxToken(matryxTokenAddress).transfer(msg.sender, bounty.mul(numberOfEntrants.sub(2)).div(numberOfEntrants).div(numberOfEntrants.sub(1))));\n        }\n\n        entryData.hasWithdrawn[msg.sender] = true;\n    }\n}",
  "sourcePath": "/Users/samhessenauer/Documents/Software/git.nosync/MatryxPlatform/libraries/tournament/LibTournamentEntrantMethods.sol",
  "compiler": {
    "name": "solc",
    "version": "0.4.24+commit.e67f0147.Emscripten.clang"
  },
  "schemaVersion": "2.0.0",
  "updatedAt": "2018-07-06T17:52:25.085Z"
}