{
  "contractName": "LibTournamentEntrantMethods",
  "abi": [
    {
      "constant": false,
      "inputs": [
        {
          "name": "data",
          "type": "LibConstruction.TournamentData storage"
        },
        {
          "name": "stateData",
          "type": "LibTournamentStateManagement.StateData storage"
        },
        {
          "name": "entryData",
          "type": "LibTournamentStateManagement.EntryData storage"
        },
        {
          "name": "_entrantAddress",
          "type": "address"
        }
      ],
      "name": "enterUserInTournament",
      "outputs": [
        {
          "name": "_success",
          "type": "bool"
        }
      ],
      "payable": false,
      "stateMutability": "nonpayable",
      "type": "function"
    },
    {
      "constant": true,
      "inputs": [
        {
          "components": [
            {
              "name": "category",
              "type": "bytes32"
            },
            {
              "name": "title",
              "type": "bytes32[3]"
            },
            {
              "name": "descriptionHash",
              "type": "bytes32[2]"
            },
            {
              "name": "fileHash",
              "type": "bytes32[2]"
            },
            {
              "name": "initialBounty",
              "type": "uint256"
            },
            {
              "name": "entryFee",
              "type": "uint256"
            }
          ],
          "name": "data",
          "type": "tuple"
        }
      ],
      "name": "getEntryFee",
      "outputs": [
        {
          "name": "",
          "type": "uint256"
        }
      ],
      "payable": false,
      "stateMutability": "view",
      "type": "function"
    },
    {
      "constant": false,
      "inputs": [
        {
          "name": "stateData",
          "type": "LibTournamentStateManagement.StateData storage"
        },
        {
          "name": "entryData",
          "type": "LibTournamentStateManagement.EntryData storage"
        },
        {
          "name": "matryxTokenAddress",
          "type": "address"
        }
      ],
      "name": "collectMyEntryFee",
      "outputs": [],
      "payable": false,
      "stateMutability": "nonpayable",
      "type": "function"
    },
    {
      "constant": false,
      "inputs": [
        {
          "name": "_platformAddress",
          "type": "address"
        },
        {
          "name": "_roundAddress",
          "type": "address"
        },
        {
          "name": "entryData",
          "type": "LibTournamentStateManagement.EntryData storage"
        },
        {
          "components": [
            {
              "name": "title",
              "type": "bytes32[3]"
            },
            {
              "name": "descriptionHash",
              "type": "bytes32[2]"
            },
            {
              "name": "fileHash",
              "type": "bytes32[2]"
            },
            {
              "name": "timeSubmitted",
              "type": "uint256"
            },
            {
              "name": "timeUpdated",
              "type": "uint256"
            }
          ],
          "name": "submissionData",
          "type": "tuple"
        }
      ],
      "name": "createSubmission",
      "outputs": [
        {
          "name": "_submissionAddress",
          "type": "address"
        }
      ],
      "payable": false,
      "stateMutability": "nonpayable",
      "type": "function"
    },
    {
      "constant": false,
      "inputs": [
        {
          "name": "stateData",
          "type": "LibTournamentStateManagement.StateData storage"
        },
        {
          "name": "entryData",
          "type": "LibTournamentStateManagement.EntryData storage"
        },
        {
          "name": "matryxTokenAddress",
          "type": "address"
        }
      ],
      "name": "withdrawFromAbandoned",
      "outputs": [],
      "payable": false,
      "stateMutability": "nonpayable",
      "type": "function"
    }
  ],
  "bytecode": "0x6110b4610030600b82828239805160001a6073146000811461002057610022565bfe5b5030600052607381538281f30073000000000000000000000000000000000000000030146080604052600436106100835763ffffffff7c010000000000000000000000000000000000000000000000000000000060003504166309d1ebd08114610088578063734e4a16146100be578063a09c5c99146100e0578063b4a25e5c1461010d578063ddc23bd01461012d575b600080fd5b81801561009457600080fd5b506100a86100a3366004610c7d565b61014d565b6040516100b59190610f5b565b60405180910390f35b8180156100ca57600080fd5b506100de6100d9366004610cfd565b610323565b005b8180156100ec57600080fd5b506101006100fb366004610d69565b610334565b6040516100b59190610fc8565b61012061011b366004610d4a565b6103ef565b6040516100b59190610ff4565b81801561013957600080fd5b506100de610148366004610cfd565b6103f6565b6000808473ffffffffffffffffffffffffffffffffffffffff166357c60fb03388866040518463ffffffff167c01000000000000000000000000000000000000000000000000000000000281526004016101a993929190610f84565b602060405180830381600087803b1580156101c357600080fd5b505af11580156101d7573d6000803e3d6000fd5b505050506040513d601f19601f820116820180604052506101fb9190810190610c5f565b90506102156001856001015461086690919063ffffffff16565b600185810191909155336000818152600387016020908152604080832073ffffffffffffffffffffffffffffffffffffffff878116808652918452828520805460ff19168817815586865260028c018552838620805491890182905597810188559685529290932090940180547fffffffffffffffffffffffff00000000000000000000000000000000000000001690921790915591517fab9583d90000000000000000000000000000000000000000000000000000000081529188169163ab9583d9916102e7918590600401610f69565b600060405180830381600087803b15801561030157600080fd5b505af1158015610315573d6000803e3d6000fd5b509298975050505050505050565b61032f8383338461087c565b505050565b73ffffffffffffffffffffffffffffffffffffffff8116600090815260048301602052604081205460ff16151560011415610371575060006103e7565b73ffffffffffffffffffffffffffffffffffffffff821660009081526004840160205260409020805460ff1916600190811782556009870154910181905560028501546103c39163ffffffff61086616565b600285015560058301546103de90600163ffffffff61086616565b60058401555060015b949350505050565b60a0015190565b600080808060046040517f5726b16f00000000000000000000000000000000000000000000000000000000815273__LibTournamentStateManagement__________90635726b16f9061044d908b90600401610fe6565b60206040518083038186803b15801561046557600080fd5b505af4158015610479573d6000803e3d6000fd5b505050506040513d601f19601f8201168201806040525061049d9190810190610dbe565b146104dd576040517f08c379a00000000000000000000000000000000000000000000000000000000081526004016104d490610fd6565b60405180910390fd5b3360009081526020879052604090205460ff16156104fa57600080fd5b6040517f0386922b00000000000000000000000000000000000000000000000000000000815273__LibTournamentStateManagement__________90630386922b9061054a908a90600401610fe6565b604080518083038186803b15801561056157600080fd5b505af4158015610575573d6000803e3d6000fd5b505050506040513d601f19601f820116820180604052506105999190810190610ddc565b6004890154909550610100900460ff1615159050610699578373ffffffffffffffffffffffffffffffffffffffff166307417cf16040518163ffffffff167c0100000000000000000000000000000000000000000000000000000000028152600401602060405180830381600087803b15801561061557600080fd5b505af1158015610629573d6000803e3d6000fd5b505050506040513d601f19601f8201168201806040525061064d9190810190610dbe565b6003880154909350610665908463ffffffff6109e116565b60038801556004870180547fffffffffffffffffffffffffffffffffffffffffffffffffffffffffffff00ff166101001790555b3073ffffffffffffffffffffffffffffffffffffffff1663f49bff7b6040518163ffffffff167c0100000000000000000000000000000000000000000000000000000000028152600401602060405180830381600087803b1580156106fd57600080fd5b505af1158015610711573d6000803e3d6000fd5b505050506040513d601f19601f820116820180604052506107359190810190610dbe565b6005870154909250905073ffffffffffffffffffffffffffffffffffffffff851663a9059cbb33610786670de0b6b3a764000061077a8681898463ffffffff6109f816565b9063ffffffff610a1c16565b6040518363ffffffff167c01000000000000000000000000000000000000000000000000000000000281526004016107bf929190610fad565b602060405180830381600087803b1580156107d957600080fd5b505af11580156107ed573d6000803e3d6000fd5b505050506040513d601f19601f820116820180604052506108119190810190610cdf565b151561081c57600080fd5b33600090815260048701602052604090205460ff1615610842576108428787338861087c565b505033600090815260209490945250506040909120805460ff191660011790555050565b60008282018381101561087557fe5b9392505050565b73ffffffffffffffffffffffffffffffffffffffff828116600090815260048086016020526040918290206001015491517fa9059cbb0000000000000000000000000000000000000000000000000000000081529284169263a9059cbb926108e692879201610fad565b602060405180830381600087803b15801561090057600080fd5b505af1158015610914573d6000803e3d6000fd5b505050506040513d601f19601f820116820180604052506109389190810190610cdf565b151561094357600080fd5b73ffffffffffffffffffffffffffffffffffffffff8216600090815260048401602052604090206001015460028501546109829163ffffffff6109e116565b600285015573ffffffffffffffffffffffffffffffffffffffff821660009081526004840160205260408120805460ff1916815560019081019190915560058401546109d39163ffffffff6109e116565b836005018190555050505050565b6000828211156109ed57fe5b508082035b92915050565b6000828202831580610a145750828482811515610a1157fe5b04145b151561087557fe5b6000808284811515610a2a57fe5b04949350505050565b6000610875823561105c565b6000610875825161105c565b6000601f82018313610a5c57600080fd5b6002610a6f610a6a82611029565b611002565b91508183856020840282011115610a8557600080fd5b60005b83811015610ab15781610a9b8882610b28565b8452506020928301929190910190600101610a88565b5050505092915050565b6000601f82018313610acc57600080fd5b6003610ada610a6a82611029565b91508183856020840282011115610af057600080fd5b60005b83811015610ab15781610b068882610b28565b8452506020928301929190910190600101610af3565b60006108758251611075565b60006108758235611047565b60006101208284031215610b4757600080fd5b610b5160a0611002565b90506000610b5f8484610abb565b8252506060610b7084848301610a4b565b60208301525060a0610b8484828501610a4b565b60408301525060e0610b9884828501610b28565b606083015250610100610bad84828501610b28565b60808301525092915050565b60006101408284031215610bcc57600080fd5b610bd660c0611002565b90506000610be48484610b28565b8252506020610bf584848301610abb565b6020830152506080610c0984828501610a4b565b60408301525060c0610c1d84828501610a4b565b606083015250610100610c3284828501610b28565b608083015250610120610c4784828501610b28565b60a08301525092915050565b60006108758251611047565b600060208284031215610c7157600080fd5b60006103e78484610a3f565b6000806000806101808587031215610c9457600080fd5b6000610ca08787610a33565b9450506020610cb187828801610a33565b9350506040610cc287828801610b28565b9250506060610cd387828801610b34565b91505092959194509250565b600060208284031215610cf157600080fd5b60006103e78484610b1c565b600080600060608486031215610d1257600080fd5b6000610d1e8686610b28565b9350506020610d2f86828701610b28565b9250506040610d4086828701610a33565b9150509250925092565b60006101408284031215610d5d57600080fd5b60006103e78484610bb9565b60008060008060808587031215610d7f57600080fd5b6000610d8b8787610b28565b9450506020610d9c87828801610b28565b9350506040610dad87828801610b28565b9250506060610cd387828801610a33565b600060208284031215610dd057600080fd5b60006103e78484610c53565b60008060408385031215610def57600080fd5b6000610dfb8585610c53565b9250506020610e0c85828601610a3f565b9150509250929050565b610e1f8161105c565b82525050565b610e2e8161104a565b610e3782611047565b60005b82811015610e6757610e4d858351610eb9565b610e5682611056565b602095909501949150600101610e3a565b5050505050565b610e7781611050565b610e8082611047565b60005b82811015610e6757610e96858351610eb9565b610e9f82611056565b602095909501949150600101610e83565b610e1f81611075565b610e1f81611047565b601f81527f5468697320746f75726e616d656e74206973207374696c6c2076616c69642e00602082015260400190565b9052565b8051610120830190610f088482610e6e565b506020820151610f1b6060850182610e25565b506040820151610f2e60a0850182610e25565b506060820151610f4160e0850182610eb9565b506080820151610f55610100850182610eb9565b50505050565b602081016109f28284610e16565b60408101610f778285610e16565b6108756020830184610e16565b6101608101610f938286610e16565b610fa06020830185610e16565b6103e76040830184610ef6565b60408101610fbb8285610e16565b6108756020830184610eb9565b602081016109f28284610eb0565b602080825281016109f281610ec2565b602081016109f28284610ef2565b602081016109f28284610eb9565b60405181810167ffffffffffffffff8111828210171561102157600080fd5b604052919050565b600067ffffffffffffffff82111561104057600080fd5b5060200290565b90565b50600290565b50600390565b60200190565b73ffffffffffffffffffffffffffffffffffffffff1690565b1515905600a265627a7a7230582021cc192252eeaa0f1a39b96a8c821e29ddcbccd295e44630259c1d32912ef4236c6578706572696d656e74616cf50037",
  "source": "pragma solidity ^0.4.18;\npragma experimental ABIEncoderV2;\n\nimport \"../math/SafeMath.sol\";\nimport \"./LibTournamentStateManagement.sol\";\nimport \"../LibEnums.sol\";\nimport \"../../interfaces/IMatryxToken.sol\";\nimport \"../../interfaces/IMatryxPlatform.sol\";\nimport \"../../interfaces/IMatryxTournament.sol\";\n\nlibrary LibTournamentEntrantMethods\n{\n    using SafeMath for uint256;\n\n    struct uint256_optional\n    {\n        bool exists;\n        uint256 value;\n    }\n\n    /// @dev Enters the user into the tournament.\n    /// @param _entrantAddress Address of the user to enter.\n    /// @return success Whether or not the user was entered successfully.\n    function enterUserInTournament(LibConstruction.TournamentData storage data, LibTournamentStateManagement.StateData storage stateData, LibTournamentStateManagement.EntryData storage entryData, address _entrantAddress) public returns (bool _success)\n    {\n        if(entryData.addressToEntryFeePaid[_entrantAddress].exists == true)\n        {\n            return false;\n        }\n\n        // Change the tournament's state to reflect the user entering.\n        entryData.addressToEntryFeePaid[_entrantAddress].exists = true;\n        entryData.addressToEntryFeePaid[_entrantAddress].value = data.entryFee;\n        stateData.entryFeesTotal = stateData.entryFeesTotal.add(data.entryFee);\n        entryData.numberOfEntrants = entryData.numberOfEntrants.add(1);\n\n        return true;\n    }\n\n    /// @dev Returns the fee in MTX to be payed by a prospective entrant.\n    /// @return Entry fee for this tournament.\n    function getEntryFee(LibConstruction.TournamentData data) public view returns (uint256)\n    {\n        return data.entryFee;\n    }\n\n    function collectMyEntryFee(LibTournamentStateManagement.StateData storage stateData, LibTournamentStateManagement.EntryData storage entryData, address matryxTokenAddress) public\n    {\n        returnEntryFeeToEntrant(stateData, entryData, msg.sender, matryxTokenAddress);\n    }\n\n    function returnEntryFeeToEntrant(LibTournamentStateManagement.StateData storage stateData, LibTournamentStateManagement.EntryData storage entryData, address _entrant, address matryxTokenAddress) internal\n    {\n        // Transfer entry fee\n        require(IMatryxToken(matryxTokenAddress).transfer(_entrant, entryData.addressToEntryFeePaid[_entrant].value));\n\n        // Update tournament state and entry data\n        stateData.entryFeesTotal = stateData.entryFeesTotal.sub(entryData.addressToEntryFeePaid[_entrant].value);\n        entryData.addressToEntryFeePaid[_entrant].exists = false;\n        entryData.addressToEntryFeePaid[_entrant].value = 0;\n        entryData.numberOfEntrants = entryData.numberOfEntrants.sub(1);\n    }\n\n    function createSubmission(address _platformAddress, address _roundAddress, LibTournamentStateManagement.EntryData storage entryData, LibConstruction.SubmissionData submissionData) public returns (address _submissionAddress)\n    {\n        // Create submission\n        address submissionAddress = IMatryxRound(_roundAddress).createSubmission(msg.sender, _platformAddress, submissionData);\n\n        // Update tournament entry data\n        entryData.numberOfSubmissions = entryData.numberOfSubmissions.add(1);\n        entryData.entrantToSubmissionToSubmissionIndex[msg.sender][submissionAddress].exists = true;\n        entryData.entrantToSubmissionToSubmissionIndex[msg.sender][submissionAddress].value = entryData.entrantToSubmissions[msg.sender].length;\n        entryData.entrantToSubmissions[msg.sender].push(submissionAddress);\n        IMatryxPlatform(_platformAddress).updateSubmissions(msg.sender, submissionAddress);\n        return submissionAddress;\n    }\n\n    function withdrawFromAbandoned(LibTournamentStateManagement.StateData storage stateData, LibTournamentStateManagement.EntryData storage entryData, address matryxTokenAddress) public\n    {\n        require(LibTournamentStateManagement.getState(stateData) == uint256(LibEnums.TournamentState.Abandoned), \"This tournament is still valid.\");\n        require(!entryData.hasWithdrawn[msg.sender]);\n\n        address currentRoundAddress;\n        (, currentRoundAddress) = LibTournamentStateManagement.currentRound(stateData);\n\n        // If this is the first withdrawal being made...\n        if(!stateData.hasBeenWithdrawnFrom)\n        {\n            uint256 roundBounty = IMatryxRound(currentRoundAddress).transferBountyToTournament();\n            stateData.roundBountyAllocation = stateData.roundBountyAllocation.sub(roundBounty);\n\n            stateData.hasBeenWithdrawnFrom = true;\n        }\n\n        // Transfer an even share of the remaining tournament bounty to the entrant\n        uint256 bounty = IMatryxTournament(this).getBounty();\n        uint256 numberOfEntrants = entryData.numberOfEntrants;\n        require(IMatryxToken(matryxTokenAddress).transfer(msg.sender, bounty.mul(10**18).div(entryData.numberOfEntrants).div(10**18)));\n\n        // Return entry fee to entrant if they haven't widthdrawn it yet\n        if (entryData.addressToEntryFeePaid[msg.sender].exists)\n        {\n            returnEntryFeeToEntrant(stateData, entryData, msg.sender, matryxTokenAddress);\n        }\n\n        entryData.hasWithdrawn[msg.sender] = true;\n    }\n}\n",
  "sourcePath": "/Users/maxhoward/Desktop/Ethereum/MatryxPlatform/libraries/tournament/LibTournamentEntrantMethods.sol",
  "compiler": {
    "name": "solc",
    "version": "0.4.24+commit.e67f0147.Emscripten.clang"
  },
  "schemaVersion": "2.0.1",
  "updatedAt": "2018-08-14T20:31:47.474Z"
}