{
  "contractName": "LibTournamentEntrantMethods",
  "abi": [
    {
      "constant": false,
      "inputs": [
        {
          "name": "data",
          "type": "LibConstruction.TournamentData storage"
        },
        {
          "name": "stateData",
          "type": "LibTournamentStateManagement.StateData storage"
        },
        {
          "name": "entryData",
          "type": "LibTournamentStateManagement.EntryData storage"
        },
        {
          "name": "_entrantAddress",
          "type": "address"
        }
      ],
      "name": "enterUserInTournament",
      "outputs": [
        {
          "name": "_success",
          "type": "bool"
        }
      ],
      "payable": false,
      "stateMutability": "nonpayable",
      "type": "function"
    },
    {
      "constant": true,
      "inputs": [
        {
          "components": [
            {
              "name": "category",
              "type": "string"
            },
            {
              "name": "title_1",
              "type": "bytes32"
            },
            {
              "name": "title_2",
              "type": "bytes32"
            },
            {
              "name": "title_3",
              "type": "bytes32"
            },
            {
              "name": "descriptionHash_1",
              "type": "bytes32"
            },
            {
              "name": "descriptionHash_2",
              "type": "bytes32"
            },
            {
              "name": "fileHash_1",
              "type": "bytes32"
            },
            {
              "name": "fileHash_2",
              "type": "bytes32"
            },
            {
              "name": "initialBounty",
              "type": "uint256"
            },
            {
              "name": "entryFee",
              "type": "uint256"
            }
          ],
          "name": "data",
          "type": "tuple"
        }
      ],
      "name": "getEntryFee",
      "outputs": [
        {
          "name": "",
          "type": "uint256"
        }
      ],
      "payable": false,
      "stateMutability": "view",
      "type": "function"
    },
    {
      "constant": false,
      "inputs": [
        {
          "name": "stateData",
          "type": "LibTournamentStateManagement.StateData storage"
        },
        {
          "name": "entryData",
          "type": "LibTournamentStateManagement.EntryData storage"
        },
        {
          "name": "matryxTokenAddress",
          "type": "address"
        }
      ],
      "name": "collectMyEntryFee",
      "outputs": [],
      "payable": false,
      "stateMutability": "nonpayable",
      "type": "function"
    },
    {
      "constant": false,
      "inputs": [
        {
          "name": "stateData",
          "type": "LibTournamentStateManagement.StateData storage"
        },
        {
          "name": "entryData",
          "type": "LibTournamentStateManagement.EntryData storage"
        },
        {
          "name": "platformAddress",
          "type": "address"
        },
        {
          "name": "_contributors",
          "type": "address[]"
        },
        {
          "name": "_contributorRewardDistribution",
          "type": "uint128[]"
        },
        {
          "name": "_references",
          "type": "address[]"
        },
        {
          "components": [
            {
              "name": "title",
              "type": "string"
            },
            {
              "name": "owner",
              "type": "address"
            },
            {
              "name": "descriptionHash",
              "type": "bytes"
            },
            {
              "name": "fileHash",
              "type": "bytes"
            },
            {
              "name": "isPublic",
              "type": "bool"
            }
          ],
          "name": "submissionData",
          "type": "tuple"
        }
      ],
      "name": "createSubmission",
      "outputs": [
        {
          "name": "_submissionAddress",
          "type": "address"
        }
      ],
      "payable": false,
      "stateMutability": "nonpayable",
      "type": "function"
    },
    {
      "constant": false,
      "inputs": [
        {
          "name": "stateData",
          "type": "LibTournamentStateManagement.StateData storage"
        },
        {
          "name": "entryData",
          "type": "LibTournamentStateManagement.EntryData storage"
        },
        {
          "name": "matryxTokenAddress",
          "type": "address"
        }
      ],
      "name": "withdrawFromAbandoned",
      "outputs": [],
      "payable": false,
      "stateMutability": "nonpayable",
      "type": "function"
    }
  ],
  "bytecode": "0x611c7d610030600b82828239805160001a6073146000811461002057610022565bfe5b5030600052607381538281f30073000000000000000000000000000000000000000030146080604052600436106100835763ffffffff7c01000000000000000000000000000000000000000000000000000000006000350416633a9ed3e38114610088578063734e4a16146100be578063a09c5c99146100e0578063b4a25e5c1461010d578063ddc23bd01461012d575b600080fd5b81801561009457600080fd5b506100a86100a3366004611671565b61014d565b6040516100b59190611a0e565b60405180910390f35b8180156100ca57600080fd5b506100de6100d9366004611624565b6106ba565b005b8180156100ec57600080fd5b506101006100fb3660046117a2565b6106cb565b6040516100b59190611ad7565b61012061011b36600461176d565b6108b2565b6040516100b59190611b03565b81801561013957600080fd5b506100de610148366004611624565b6108ba565b600080600073__LibTournamentStateManagement__________630386922b8b6040518263ffffffff167c01000000000000000000000000000000000000000000000000000000000281526004016101a59190611af5565b604080518083038186803b1580156101bc57600080fd5b505af41580156101d0573d6000803e3d6000fd5b505050506040513d601f19601f820116820180604052506101f49190810190611821565b9050809250508173ffffffffffffffffffffffffffffffffffffffff1663754b0c3d8888888c73ffffffffffffffffffffffffffffffffffffffff16636a44e43d8a602001516040518263ffffffff167c01000000000000000000000000000000000000000000000000000000000281526004016102729190611a0e565b602060405180830381600087803b15801561028c57600080fd5b505af11580156102a0573d6000803e3d6000fd5b505050506040513d601f19601f820116820180604052506102c491908101906115e0565b896040518663ffffffff167c0100000000000000000000000000000000000000000000000000000000028152600401610301959493929190611a72565b602060405180830381600087803b15801561031b57600080fd5b505af115801561032f573d6000803e3d6000fd5b505050506040513d601f19601f8201168201806040525061035391908101906115e0565b6040517f8c593a8c00000000000000000000000000000000000000000000000000000000815290915073ffffffffffffffffffffffffffffffffffffffff891690638c593a8c906103aa9084908990600401611a37565b602060405180830381600087803b1580156103c457600080fd5b505af11580156103d8573d6000803e3d6000fd5b505050506040513d601f19601f820116820180604052506103fc9190810190611606565b506001898101546104129163ffffffff610e2e16565b896001018190555060018960030160003373ffffffffffffffffffffffffffffffffffffffff1673ffffffffffffffffffffffffffffffffffffffff16815260200190815260200160002060008373ffffffffffffffffffffffffffffffffffffffff1673ffffffffffffffffffffffffffffffffffffffff16815260200190815260200160002060000160006101000a81548160ff0219169083151502179055508860020160003373ffffffffffffffffffffffffffffffffffffffff1673ffffffffffffffffffffffffffffffffffffffff168152602001908152602001600020805490508960030160003373ffffffffffffffffffffffffffffffffffffffff1673ffffffffffffffffffffffffffffffffffffffff16815260200190815260200160002060008373ffffffffffffffffffffffffffffffffffffffff1673ffffffffffffffffffffffffffffffffffffffff168152602001908152602001600020600101819055508860020160003373ffffffffffffffffffffffffffffffffffffffff1673ffffffffffffffffffffffffffffffffffffffff1681526020019081526020016000208190806001815401808255809150509060018203906000526020600020016000909192909190916101000a81548173ffffffffffffffffffffffffffffffffffffffff021916908373ffffffffffffffffffffffffffffffffffffffff160217905550508773ffffffffffffffffffffffffffffffffffffffff1663ab9583d933836040518363ffffffff167c010000000000000000000000000000000000000000000000000000000002815260040161067a929190611a1c565b600060405180830381600087803b15801561069457600080fd5b505af11580156106a8573d6000803e3d6000fd5b50929c9b505050505050505050505050565b6106c683833384610e44565b505050565b73ffffffffffffffffffffffffffffffffffffffff81166000908152600483016020526040812054819060ff1615156001141561070b57600091506108a9565b73ffffffffffffffffffffffffffffffffffffffff831660009081526004850160205260409020805460ff19166001908117825560098801549101819055600286015461075d9163ffffffff610e2e16565b6002860155600584015461077890600163ffffffff610e2e16565b60058501556040517f0386922b00000000000000000000000000000000000000000000000000000000815273__LibTournamentStateManagement__________90630386922b906107cd908890600401611af5565b604080518083038186803b1580156107e457600080fd5b505af41580156107f8573d6000803e3d6000fd5b505050506040513d601f19601f8201168201806040525061081c9190810190611821565b6040517fdaff8cd400000000000000000000000000000000000000000000000000000000815290925073ffffffffffffffffffffffffffffffffffffffff8316915063daff8cd490610872908690600401611a0e565b600060405180830381600087803b15801561088c57600080fd5b505af11580156108a0573d6000803e3d6000fd5b50505050600191505b50949350505050565b610120015190565b600080808060046040517f5726b16f00000000000000000000000000000000000000000000000000000000815273__LibTournamentStateManagement__________90635726b16f90610911908b90600401611af5565b60206040518083038186803b15801561092957600080fd5b505af415801561093d573d6000803e3d6000fd5b505050506040513d601f19601f820116820180604052506109619190810190611803565b146109a1576040517f08c379a000000000000000000000000000000000000000000000000000000000815260040161099890611ae5565b60405180910390fd5b3360009081526020879052604090205460ff16156109be57600080fd5b6040517f0386922b00000000000000000000000000000000000000000000000000000000815273__LibTournamentStateManagement__________90630386922b90610a0e908a90600401611af5565b604080518083038186803b158015610a2557600080fd5b505af4158015610a39573d6000803e3d6000fd5b505050506040513d601f19601f82011682018060405250610a5d9190810190611821565b905080945050856005015492503073ffffffffffffffffffffffffffffffffffffffff1663f49bff7b6040518163ffffffff167c0100000000000000000000000000000000000000000000000000000000028152600401602060405180830381600087803b158015610ace57600080fd5b505af1158015610ae2573d6000803e3d6000fd5b505050506040513d601f19601f82011682018060405250610b069190810190611803565b3360009081526020889052604090205490925060ff161515610e25576004870154610100900460ff161515610d08578373ffffffffffffffffffffffffffffffffffffffff166307417cf16040518163ffffffff167c0100000000000000000000000000000000000000000000000000000000028152600401602060405180830381600087803b158015610b9957600080fd5b505af1158015610bad573d6000803e3d6000fd5b505050506040513d601f19601f82011682018060405250610bd19190810190611803565b6003880154909150610be9908263ffffffff61122e16565b6003880155610bfa87873388610e44565b8473ffffffffffffffffffffffffffffffffffffffff1663a9059cbb33610c3f6002610c338b600501548861124590919063ffffffff16565b9063ffffffff61125c16565b6040518363ffffffff167c0100000000000000000000000000000000000000000000000000000000028152600401610c78929190611a57565b602060405180830381600087803b158015610c9257600080fd5b505af1158015610ca6573d6000803e3d6000fd5b505050506040513d601f19601f82011682018060405250610cca9190810190611606565b1515610cd557600080fd5b6004870180547fffffffffffffffffffffffffffffffffffffffffffffffffffffffffffff00ff16610100179055610e0a565b610d1487873388610e44565b73ffffffffffffffffffffffffffffffffffffffff851663a9059cbb33610d74610d4587600163ffffffff61122e16565b610d688881610d5b82600263ffffffff61122e16565b8a9063ffffffff61125c16565b9063ffffffff61124516565b6040518363ffffffff167c0100000000000000000000000000000000000000000000000000000000028152600401610dad929190611a57565b602060405180830381600087803b158015610dc757600080fd5b505af1158015610ddb573d6000803e3d6000fd5b505050506040513d601f19601f82011682018060405250610dff9190810190611606565b1515610e0a57600080fd5b336000908152602087905260409020805460ff191660011790555b50505050505050565b600082820183811015610e3d57fe5b9392505050565b600080600073__LibTournamentStateManagement__________635726b16f886040518263ffffffff167c0100000000000000000000000000000000000000000000000000000000028152600401610e9c9190611af5565b60206040518083038186803b158015610eb457600080fd5b505af4158015610ec8573d6000803e3d6000fd5b505050506040513d601f19601f82011682018060405250610eec9190810190611803565b6040517f0386922b00000000000000000000000000000000000000000000000000000000815290935073__LibTournamentStateManagement__________90630386922b90610f3f908a90600401611af5565b604080518083038186803b158015610f5657600080fd5b505af4158015610f6a573d6000803e3d6000fd5b505050506040513d601f19601f82011682018060405250610f8e9190810190611821565b9250600190506040517ffe71f3e400000000000000000000000000000000000000000000000000000000815273ffffffffffffffffffffffffffffffffffffffff84169063fe71f3e490610fe6908990600401611a0e565b602060405180830381600087803b15801561100057600080fd5b505af1158015611014573d6000803e3d6000fd5b505050506040513d601f19601f820116820180604052506110389190810190611803565b1461104257600080fd5b5073ffffffffffffffffffffffffffffffffffffffff848116600090815260048088016020526040918290206001015491517fa9059cbb000000000000000000000000000000000000000000000000000000008152869384169263a9059cbb926110af928a929101611a57565b602060405180830381600087803b1580156110c957600080fd5b505af11580156110dd573d6000803e3d6000fd5b505050506040513d601f19601f820116820180604052506111019190810190611606565b151561110c57600080fd5b73ffffffffffffffffffffffffffffffffffffffff85166000908152600487016020526040902060010154600288015461114b9163ffffffff61122e16565b600288015573ffffffffffffffffffffffffffffffffffffffff851660009081526004870160205260408120805460ff19168155600190810191909155600587015461119c9163ffffffff61122e16565b60058701556040517f0e4142a100000000000000000000000000000000000000000000000000000000815273ffffffffffffffffffffffffffffffffffffffff831690630e4142a1906111f3908890600401611a0e565b600060405180830381600087803b15801561120d57600080fd5b505af1158015611221573d6000803e3d6000fd5b5050505050505050505050565b60008282111561123a57fe5b508082035b92915050565b600080828481151561125357fe5b04949350505050565b6000828202831580611278575082848281151561127557fe5b04145b1515610e3d57fe5b6000610e3d8235611ba9565b6000610e3d8251611ba9565b6000601f820183136112a957600080fd5b81356112bc6112b782611b38565b611b11565b915081818352602084019350602081019050838560208402820111156112e157600080fd5b60005b8381101561130d57816112f78882611280565b84525060209283019291909101906001016112e4565b5050505092915050565b6000601f8201831361132857600080fd5b81356113366112b782611b38565b9150818183526020840193506020810190508385602084028201111561135b57600080fd5b60005b8381101561130d578161137188826115c8565b845250602092830192919091019060010161135e565b6000610e3d8235611bc2565b6000610e3d8251611bc2565b6000610e3d8235611bdc565b6000601f820183136113bc57600080fd5b81356113ca6112b782611b59565b915080825260208301602083018583830111156113e657600080fd5b6113f1838284611bdf565b50505092915050565b600060a0828403121561140c57600080fd5b61141660a0611b11565b9050813567ffffffffffffffff81111561142f57600080fd5b61143b848285016113ab565b825250602061144c84848301611280565b602083015250604082013567ffffffffffffffff81111561146c57600080fd5b611478848285016113ab565b604083015250606082013567ffffffffffffffff81111561149857600080fd5b6114a4848285016113ab565b60608301525060806114b884828501611387565b60808301525092915050565b600061014082840312156114d757600080fd5b6114e2610140611b11565b9050813567ffffffffffffffff8111156114fb57600080fd5b611507848285016113ab565b82525060206115188484830161139f565b602083015250604061152c8482850161139f565b60408301525060606115408482850161139f565b60608301525060806115548482850161139f565b60808301525060a06115688482850161139f565b60a08301525060c061157c8482850161139f565b60c08301525060e06115908482850161139f565b60e0830152506101006115a58482850161139f565b610100830152506101206115bb8482850161139f565b6101208301525092915050565b6000610e3d8235611bc7565b6000610e3d8251611bdc565b6000602082840312156115f257600080fd5b60006115fe848461128c565b949350505050565b60006020828403121561161857600080fd5b60006115fe8484611393565b60008060006060848603121561163957600080fd5b6000611645868661139f565b93505060206116568682870161139f565b925050604061166786828701611280565b9150509250925092565b600080600080600080600060e0888a03121561168c57600080fd5b60006116988a8a61139f565b97505060206116a98a828b0161139f565b96505060406116ba8a828b01611280565b955050606088013567ffffffffffffffff8111156116d757600080fd5b6116e38a828b01611298565b945050608088013567ffffffffffffffff81111561170057600080fd5b61170c8a828b01611317565b93505060a088013567ffffffffffffffff81111561172957600080fd5b6117358a828b01611298565b92505060c088013567ffffffffffffffff81111561175257600080fd5b61175e8a828b016113fa565b91505092959891949750929550565b60006020828403121561177f57600080fd5b813567ffffffffffffffff81111561179657600080fd5b6115fe848285016114c4565b600080600080608085870312156117b857600080fd5b60006117c4878761139f565b94505060206117d58782880161139f565b93505060406117e68782880161139f565b92505060606117f787828801611280565b91505092959194509250565b60006020828403121561181557600080fd5b60006115fe84846115d4565b6000806040838503121561183457600080fd5b600061184085856115d4565b92505060206118518582860161128c565b9150509250929050565b61186481611ba9565b82525050565b600061187582611ba5565b80845260208401935061188783611b9f565b60005b828110156118b75761189d86835161185b565b6118a682611b9f565b60209690960195915060010161188a565b5093949350505050565b60006118cc82611ba5565b8084526020840193506118de83611b9f565b60005b828110156118b7576118f48683516119fc565b6118fd82611b9f565b6020969096019591506001016118e1565b61186481611bc2565b600061192282611ba5565b808452611936816020860160208601611beb565b61193f81611c1b565b9093016020019392505050565b601f81527f5468697320746f75726e616d656e74206973207374696c6c2076616c69642e00602082015260400190565b9052565b805160a0808452600091908401906119988282611917565b91505060208301516119ad602086018261185b565b50604083015184820360408601526119c58282611917565b915050606083015184820360608601526119df8282611917565b91505060808301516119f4608086018261190e565b509392505050565b61186481611bc7565b61186481611bdc565b6020810161123f828461185b565b60408101611a2a828561185b565b610e3d602083018461185b565b60408101611a45828561185b565b81810360208301526115fe818461186a565b60408101611a65828561185b565b610e3d6020830184611a05565b60a08082528101611a83818861186a565b90508181036020830152611a9781876118c1565b90508181036040830152611aab818661186a565b9050611aba606083018561185b565b8181036080830152611acc8184611980565b979650505050505050565b6020810161123f828461190e565b6020808252810161123f8161194c565b6020810161123f828461197c565b6020810161123f8284611a05565b60405181810167ffffffffffffffff81118282101715611b3057600080fd5b604052919050565b600067ffffffffffffffff821115611b4f57600080fd5b5060209081020190565b600067ffffffffffffffff821115611b7057600080fd5b506020601f919091017fffffffffffffffffffffffffffffffffffffffffffffffffffffffffffffffe0160190565b60200190565b5190565b73ffffffffffffffffffffffffffffffffffffffff1690565b151590565b6fffffffffffffffffffffffffffffffff1690565b90565b82818337506000910152565b60005b83811015611c06578181015183820152602001611bee565b83811115611c15576000848401525b50505050565b601f017fffffffffffffffffffffffffffffffffffffffffffffffffffffffffffffffe016905600a265627a7a72305820cdda5490a76f904d7b06470665b83a34600ce24d18e85e5c0b1fbe7a872e679d6c6578706572696d656e74616cf50037",
  "source": "pragma solidity ^0.4.18;\npragma experimental ABIEncoderV2;\n\nimport \"../math/SafeMath.sol\";\nimport \"./LibTournamentStateManagement.sol\";\nimport \"../../interfaces/IMatryxToken.sol\";\nimport \"../../interfaces/IMatryxPlatform.sol\";\nimport \"../../interfaces/IMatryxTournament.sol\";\n\nlibrary LibTournamentEntrantMethods\n{\n    using SafeMath for uint256;\n\n    enum TournamentState { NotYetOpen, OnHold, Open, Closed, Abandoned}\n    enum ParticipantType { Nonentrant, Entrant, Contributor, Author }\n\n    struct uint256_optional\n    {\n        bool exists;\n        uint256 value;\n    }\n\n    /// @dev Enters the user into the tournament.\n    /// @param _entrantAddress Address of the user to enter.\n    /// @return success Whether or not the user was entered successfully.\n    function enterUserInTournament(LibConstruction.TournamentData storage data, LibTournamentStateManagement.StateData storage stateData, LibTournamentStateManagement.EntryData storage entryData, address _entrantAddress) public returns (bool _success)\n    {\n        if(entryData.addressToEntryFeePaid[_entrantAddress].exists == true)\n        {\n            return false;\n        }\n\n        // Change the tournament's state to reflect the user entering.\n        entryData.addressToEntryFeePaid[_entrantAddress].exists = true;\n        entryData.addressToEntryFeePaid[_entrantAddress].value = data.entryFee;\n        stateData.entryFeesTotal = stateData.entryFeesTotal.add(data.entryFee);\n        entryData.numberOfEntrants = entryData.numberOfEntrants.add(1);\n\n        (, address currentRoundAddress) = LibTournamentStateManagement.currentRound(stateData);\n        IMatryxRound(currentRoundAddress).becomeEntrant(_entrantAddress);\n\n        return true;\n    }\n\n    /// @dev Returns the fee in MTX to be payed by a prospective entrant.\n    /// @return Entry fee for this tournament.\n    function getEntryFee(LibConstruction.TournamentData data) public view returns (uint256)\n    {\n        return data.entryFee;\n    }\n\n    function collectMyEntryFee(LibTournamentStateManagement.StateData storage stateData, LibTournamentStateManagement.EntryData storage entryData, address matryxTokenAddress) public\n    {\n        returnEntryFeeToEntrant(stateData, entryData, msg.sender, matryxTokenAddress);\n    }\n\n    function returnEntryFeeToEntrant(LibTournamentStateManagement.StateData storage stateData, LibTournamentStateManagement.EntryData storage entryData, address _entrant, address matryxTokenAddress) internal\n    {\n        // Make sure entrants don't withdraw their entry fee early\n        uint256 currentState = LibTournamentStateManagement.getState(stateData);\n        (,address currentRoundAddress) = LibTournamentStateManagement.currentRound(stateData);\n        require(IMatryxRound(currentRoundAddress).getParticipantType(_entrant) == uint256(ParticipantType.Entrant));\n\n        IMatryxToken matryxToken = IMatryxToken(matryxTokenAddress);\n        require(matryxToken.transfer(_entrant, entryData.addressToEntryFeePaid[_entrant].value));\n        stateData.entryFeesTotal = stateData.entryFeesTotal.sub(entryData.addressToEntryFeePaid[_entrant].value);\n        entryData.addressToEntryFeePaid[_entrant].exists = false;\n        entryData.addressToEntryFeePaid[_entrant].value = 0;\n        entryData.numberOfEntrants = entryData.numberOfEntrants.sub(1);\n        IMatryxRound(currentRoundAddress).becomeNonentrant(_entrant);\n    }\n\n    function createSubmission(LibTournamentStateManagement.StateData storage stateData, LibTournamentStateManagement.EntryData storage entryData, address platformAddress, address[] _contributors, uint128[] _contributorRewardDistribution, address[] _references, LibConstruction.SubmissionData submissionData) public returns (address _submissionAddress)\n    {\n        address currentRoundAddress;\n        (, currentRoundAddress) = LibTournamentStateManagement.currentRound(stateData);\n        address submissionAddress = IMatryxRound(currentRoundAddress).createSubmission(_contributors, _contributorRewardDistribution, _references, IMatryxPlatform(platformAddress).peerAddress(submissionData.owner), submissionData);\n        // Send out reference requests to the authors of other submissions\n        IMatryxPlatform(platformAddress).handleReferenceRequestsForSubmission(submissionAddress, _references);\n\n        entryData.numberOfSubmissions = entryData.numberOfSubmissions.add(1);\n        entryData.entrantToSubmissionToSubmissionIndex[msg.sender][submissionAddress].exists = true;\n        entryData.entrantToSubmissionToSubmissionIndex[msg.sender][submissionAddress].value = entryData.entrantToSubmissions[msg.sender].length;\n        entryData.entrantToSubmissions[msg.sender].push(submissionAddress);\n        IMatryxPlatform(platformAddress).updateSubmissions(msg.sender, submissionAddress);\n        \n        return submissionAddress;\n    }\n\n    function withdrawFromAbandoned(LibTournamentStateManagement.StateData storage stateData, LibTournamentStateManagement.EntryData storage entryData, address matryxTokenAddress) public\n    {\n        require(LibTournamentStateManagement.getState(stateData) == uint256(TournamentState.Abandoned), \"This tournament is still valid.\");\n        require(!entryData.hasWithdrawn[msg.sender]);\n\n        address currentRoundAddress;\n        (, currentRoundAddress) = LibTournamentStateManagement.currentRound(stateData);\n        uint256 numberOfEntrants = entryData.numberOfEntrants;\n        uint256 bounty = IMatryxTournament(this).getBounty();\n        if(entryData.hasWithdrawn[msg.sender] == false)\n        {\n            // If this is the first withdrawal being made...\n            if(stateData.hasBeenWithdrawnFrom == false)\n            {\n                uint256 roundBounty = IMatryxRound(currentRoundAddress).transferBountyToTournament();\n                stateData.roundBountyAllocation = stateData.roundBountyAllocation.sub(roundBounty);\n                returnEntryFeeToEntrant(stateData, entryData, msg.sender, matryxTokenAddress);\n                require(IMatryxToken(matryxTokenAddress).transfer(msg.sender, bounty.div(entryData.numberOfEntrants).mul(2)));\n                \n                stateData.hasBeenWithdrawnFrom = true;\n            }\n            else\n            {\n                returnEntryFeeToEntrant(stateData, entryData, msg.sender, matryxTokenAddress);\n                require(IMatryxToken(matryxTokenAddress).transfer(msg.sender, bounty.mul(numberOfEntrants.sub(2)).div(numberOfEntrants).div(numberOfEntrants.sub(1))));\n            }\n\n            entryData.hasWithdrawn[msg.sender] = true;\n        }\n    }\n}",
  "sourcePath": "/Users/maxhoward/Desktop/Ethereum/Development/Matryx/Projects/MatryxPlatform/libraries/tournament/LibTournamentEntrantMethods.sol",
  "compiler": {
    "name": "solc",
    "version": "0.4.24+commit.e67f0147.Emscripten.clang"
  },
  "schemaVersion": "2.0.0",
  "updatedAt": "2018-07-12T19:23:06.735Z"
}