{
  "contractName": "MatryxRound",
  "abi": [
    {
      "constant": true,
      "inputs": [],
      "name": "tournamentAddress",
      "outputs": [
        {
          "name": "",
          "type": "address"
        }
      ],
      "payable": false,
      "stateMutability": "view",
      "type": "function"
    },
    {
      "constant": true,
      "inputs": [],
      "name": "matryxTokenAddress",
      "outputs": [
        {
          "name": "",
          "type": "address"
        }
      ],
      "payable": false,
      "stateMutability": "view",
      "type": "function"
    },
    {
      "constant": true,
      "inputs": [
        {
          "name": "_sender",
          "type": "address"
        }
      ],
      "name": "isOwner",
      "outputs": [
        {
          "name": "_isOwner",
          "type": "bool"
        }
      ],
      "payable": false,
      "stateMutability": "view",
      "type": "function"
    },
    {
      "constant": true,
      "inputs": [],
      "name": "endTime",
      "outputs": [
        {
          "name": "",
          "type": "uint256"
        }
      ],
      "payable": false,
      "stateMutability": "view",
      "type": "function"
    },
    {
      "constant": true,
      "inputs": [],
      "name": "reviewPeriod",
      "outputs": [
        {
          "name": "",
          "type": "uint256"
        }
      ],
      "payable": false,
      "stateMutability": "view",
      "type": "function"
    },
    {
      "constant": true,
      "inputs": [],
      "name": "winningSubmission",
      "outputs": [
        {
          "name": "",
          "type": "address"
        }
      ],
      "payable": false,
      "stateMutability": "view",
      "type": "function"
    },
    {
      "constant": true,
      "inputs": [],
      "name": "nextRound",
      "outputs": [
        {
          "name": "",
          "type": "address"
        }
      ],
      "payable": false,
      "stateMutability": "view",
      "type": "function"
    },
    {
      "constant": true,
      "inputs": [],
      "name": "roundIndex",
      "outputs": [
        {
          "name": "",
          "type": "uint256"
        }
      ],
      "payable": false,
      "stateMutability": "view",
      "type": "function"
    },
    {
      "constant": true,
      "inputs": [],
      "name": "startTime",
      "outputs": [
        {
          "name": "",
          "type": "uint256"
        }
      ],
      "payable": false,
      "stateMutability": "view",
      "type": "function"
    },
    {
      "constant": true,
      "inputs": [],
      "name": "getOwner",
      "outputs": [
        {
          "name": "_owner",
          "type": "address"
        }
      ],
      "payable": false,
      "stateMutability": "view",
      "type": "function"
    },
    {
      "constant": true,
      "inputs": [],
      "name": "owner",
      "outputs": [
        {
          "name": "",
          "type": "address"
        }
      ],
      "payable": false,
      "stateMutability": "view",
      "type": "function"
    },
    {
      "constant": true,
      "inputs": [],
      "name": "bounty",
      "outputs": [
        {
          "name": "",
          "type": "uint256"
        }
      ],
      "payable": false,
      "stateMutability": "view",
      "type": "function"
    },
    {
      "constant": true,
      "inputs": [],
      "name": "matryxSubmissionFactoryAddress",
      "outputs": [
        {
          "name": "",
          "type": "address"
        }
      ],
      "payable": false,
      "stateMutability": "view",
      "type": "function"
    },
    {
      "constant": true,
      "inputs": [],
      "name": "previousRound",
      "outputs": [
        {
          "name": "",
          "type": "address"
        }
      ],
      "payable": false,
      "stateMutability": "view",
      "type": "function"
    },
    {
      "constant": true,
      "inputs": [],
      "name": "platformAddress",
      "outputs": [
        {
          "name": "",
          "type": "address"
        }
      ],
      "payable": false,
      "stateMutability": "view",
      "type": "function"
    },
    {
      "constant": false,
      "inputs": [
        {
          "name": "newOwner",
          "type": "address"
        }
      ],
      "name": "transferOwnership",
      "outputs": [],
      "payable": false,
      "stateMutability": "nonpayable",
      "type": "function"
    },
    {
      "inputs": [
        {
          "name": "_matryxTokenAddress",
          "type": "address"
        },
        {
          "name": "_platformAddress",
          "type": "address"
        },
        {
          "name": "_tournamentAddress",
          "type": "address"
        },
        {
          "name": "_matryxSubmissionFactoryAddress",
          "type": "address"
        },
        {
          "name": "_owner",
          "type": "address"
        },
        {
          "name": "_bounty",
          "type": "uint256"
        }
      ],
      "payable": false,
      "stateMutability": "nonpayable",
      "type": "constructor"
    },
    {
      "constant": false,
      "inputs": [
        {
          "name": "_submissionAddress",
          "type": "address"
        }
      ],
      "name": "removeSubmission",
      "outputs": [
        {
          "name": "",
          "type": "bool"
        }
      ],
      "payable": false,
      "stateMutability": "nonpayable",
      "type": "function"
    },
    {
      "constant": true,
      "inputs": [],
      "name": "isOpen",
      "outputs": [
        {
          "name": "",
          "type": "bool"
        }
      ],
      "payable": false,
      "stateMutability": "view",
      "type": "function"
    },
    {
      "constant": true,
      "inputs": [],
      "name": "isInReview",
      "outputs": [
        {
          "name": "",
          "type": "bool"
        }
      ],
      "payable": false,
      "stateMutability": "view",
      "type": "function"
    },
    {
      "constant": true,
      "inputs": [
        {
          "name": "_index",
          "type": "uint256"
        }
      ],
      "name": "submissionIsAccessible",
      "outputs": [
        {
          "name": "",
          "type": "bool"
        }
      ],
      "payable": false,
      "stateMutability": "view",
      "type": "function"
    },
    {
      "constant": true,
      "inputs": [
        {
          "name": "_requester",
          "type": "address"
        }
      ],
      "name": "requesterIsContributor",
      "outputs": [
        {
          "name": "",
          "type": "bool"
        }
      ],
      "payable": false,
      "stateMutability": "view",
      "type": "function"
    },
    {
      "constant": false,
      "inputs": [
        {
          "name": "_participantAddress",
          "type": "address"
        },
        {
          "name": "_type",
          "type": "uint256"
        }
      ],
      "name": "setParticipantType",
      "outputs": [],
      "payable": false,
      "stateMutability": "nonpayable",
      "type": "function"
    },
    {
      "constant": true,
      "inputs": [],
      "name": "getPlatform",
      "outputs": [
        {
          "name": "",
          "type": "address"
        }
      ],
      "payable": false,
      "stateMutability": "view",
      "type": "function"
    },
    {
      "constant": true,
      "inputs": [],
      "name": "getTournament",
      "outputs": [
        {
          "name": "",
          "type": "address"
        }
      ],
      "payable": false,
      "stateMutability": "view",
      "type": "function"
    },
    {
      "constant": true,
      "inputs": [],
      "name": "getBounty",
      "outputs": [
        {
          "name": "",
          "type": "uint256"
        }
      ],
      "payable": false,
      "stateMutability": "view",
      "type": "function"
    },
    {
      "constant": true,
      "inputs": [],
      "name": "getTokenAddress",
      "outputs": [
        {
          "name": "",
          "type": "address"
        }
      ],
      "payable": false,
      "stateMutability": "view",
      "type": "function"
    },
    {
      "constant": true,
      "inputs": [],
      "name": "getSubmissions",
      "outputs": [
        {
          "name": "_submissions",
          "type": "address[]"
        }
      ],
      "payable": false,
      "stateMutability": "view",
      "type": "function"
    },
    {
      "constant": true,
      "inputs": [
        {
          "name": "_index",
          "type": "uint256"
        }
      ],
      "name": "getSubmissionAddress",
      "outputs": [
        {
          "name": "_submissionAddress",
          "type": "address"
        }
      ],
      "payable": false,
      "stateMutability": "view",
      "type": "function"
    },
    {
      "constant": true,
      "inputs": [
        {
          "name": "_index",
          "type": "uint256"
        }
      ],
      "name": "getSubmissionAuthor",
      "outputs": [
        {
          "name": "",
          "type": "address"
        }
      ],
      "payable": false,
      "stateMutability": "view",
      "type": "function"
    },
    {
      "constant": true,
      "inputs": [
        {
          "name": "_submissionAddress",
          "type": "address"
        }
      ],
      "name": "getBalance",
      "outputs": [
        {
          "name": "",
          "type": "uint256"
        }
      ],
      "payable": false,
      "stateMutability": "view",
      "type": "function"
    },
    {
      "constant": true,
      "inputs": [],
      "name": "submissionChosen",
      "outputs": [
        {
          "name": "",
          "type": "bool"
        }
      ],
      "payable": false,
      "stateMutability": "view",
      "type": "function"
    },
    {
      "constant": true,
      "inputs": [],
      "name": "getWinningSubmissionAddress",
      "outputs": [
        {
          "name": "",
          "type": "address"
        }
      ],
      "payable": false,
      "stateMutability": "view",
      "type": "function"
    },
    {
      "constant": true,
      "inputs": [],
      "name": "numberOfSubmissions",
      "outputs": [
        {
          "name": "",
          "type": "uint256"
        }
      ],
      "payable": false,
      "stateMutability": "view",
      "type": "function"
    },
    {
      "constant": false,
      "inputs": [
        {
          "name": "_duration",
          "type": "uint256"
        },
        {
          "name": "_reviewPeriod",
          "type": "uint256"
        }
      ],
      "name": "Start",
      "outputs": [],
      "payable": false,
      "stateMutability": "nonpayable",
      "type": "function"
    },
    {
      "constant": false,
      "inputs": [
        {
          "name": "_submissionAddress",
          "type": "address"
        }
      ],
      "name": "chooseWinningSubmission",
      "outputs": [],
      "payable": false,
      "stateMutability": "nonpayable",
      "type": "function"
    },
    {
      "constant": false,
      "inputs": [
        {
          "name": "_submissionAddress",
          "type": "address"
        },
        {
          "name": "_remainingBounty",
          "type": "uint256"
        }
      ],
      "name": "awardBounty",
      "outputs": [],
      "payable": false,
      "stateMutability": "nonpayable",
      "type": "function"
    },
    {
      "constant": false,
      "inputs": [
        {
          "name": "_title",
          "type": "string"
        },
        {
          "name": "_owner",
          "type": "address"
        },
        {
          "name": "_author",
          "type": "address"
        },
        {
          "name": "_externalAddress",
          "type": "bytes"
        },
        {
          "name": "_references",
          "type": "address[]"
        },
        {
          "name": "_contributors",
          "type": "address[]"
        },
        {
          "name": "_publicallyAccessible",
          "type": "bool"
        }
      ],
      "name": "createSubmission",
      "outputs": [
        {
          "name": "_submissionAddress",
          "type": "address"
        }
      ],
      "payable": false,
      "stateMutability": "nonpayable",
      "type": "function"
    }
  ],
  "bytecode": "0x6060604052341561000f57600080fd5b60405160c08061167d8339810160405280805191906020018051919060200180519190602001805191906020018051919060200180516000805460048054600160a060020a0319908116600160a060020a039c8d16179091556001805482169a8c169a909a17909955600280548a16988b16989098179097559587163389161787169388169390931785555050600380549094169190941617909155600b91909155600c805460a060020a60ff02191690556115ac9081906100d190396000f3006060604052600436106101cc5763ffffffff7c010000000000000000000000000000000000000000000000000000000060003504166303d66a9781146101d15780630b2992081461020057806310fe9ae81461022157806319e28e43146102345780631cdb7de514610256578063241b15ad1461027857806329cc545e1461029d5780632f54bf6e146102b05780632fc1f190146102e35780633197cbb6146102f65780633b249810146103095780633d6227801461031c578063417e5bc21461033257806345b12a0d1461034557806347535d7b1461035857806347e405531461036b57806354f6aa201461037e57806356974da3146103e45780635a7d5f50146103fa578063648036ae1461041357806378e97925146104265780638499a13814610439578063893d20e8146104585780638da5cb5b1461046b578063943dfef11461047e578063a64c3c4d14610491578063a68e8a86146104b0578063b0ff5492146104c3578063b288e1a9146104d6578063dbe55e56146104e9578063df4f9dba146104fc578063e76c293e14610512578063ecf251fd14610525578063f2fde38b14610538578063f3eda8e814610557578063f49bff7b14610686578063f8b2cb4f14610699575b600080fd5b34156101dc57600080fd5b6101e46106b8565b604051600160a060020a03909116815260200160405180910390f35b341561020b57600080fd5b61021f600160a060020a03600435166106c7565b005b341561022c57600080fd5b6101e4610822565b341561023f57600080fd5b61021f600160a060020a0360043516602435610832565b341561026157600080fd5b61021f600160a060020a0360043516602435610915565b341561028357600080fd5b61028b610958565b60405190815260200160405180910390f35b34156102a857600080fd5b6101e4610962565b34156102bb57600080fd5b6102cf600160a060020a0360043516610971565b604051901515815260200160405180910390f35b34156102ee57600080fd5b6101e4610985565b341561030157600080fd5b61028b610994565b341561031457600080fd5b61028b61099a565b341561032757600080fd5b6101e46004356109a0565b341561033d57600080fd5b6101e4610af2565b341561035057600080fd5b6102cf610b01565b341561036357600080fd5b6102cf610b22565b341561037657600080fd5b6101e4610b75565b341561038957600080fd5b610391610b84565b60405160208082528190810183818151815260200191508051906020019060200280838360005b838110156103d05780820151838201526020016103b8565b505050509050019250505060405180910390f35b34156103ef57600080fd5b6102cf600435610bec565b341561040557600080fd5b61021f600435602435610cac565b341561041e57600080fd5b61028b610cd8565b341561043157600080fd5b61028b610cde565b341561044457600080fd5b6102cf600160a060020a0360043516610ce4565b341561046357600080fd5b6101e4610d01565b341561047657600080fd5b6101e4610d10565b341561048957600080fd5b61028b610d1f565b341561049c57600080fd5b6102cf600160a060020a0360043516610d25565b34156104bb57600080fd5b6102cf610f2b565b34156104ce57600080fd5b6101e4610f79565b34156104e157600080fd5b6101e4610f88565b34156104f457600080fd5b6101e4610f97565b341561050757600080fd5b6101e4600435610fa6565b341561051d57600080fd5b6101e4610fe0565b341561053057600080fd5b6101e4610fef565b341561054357600080fd5b61021f600160a060020a0360043516610ffe565b341561056257600080fd5b6101e460046024813581810190830135806020601f820181900481020160405190810160405281815292919060208401838380828437509496600160a060020a0387358116976020808201359092169750919550606082019450604091820135860180820194503592508291601f8301829004820290910190519081016040528181529291906020840183838082843782019150505050505091908035906020019082018035906020019080806020026020016040519081016040528093929190818152602001838360200280828437820191505050505050919080359060200190820180359060200190808060200260200160405190810160405280939291908181526020018383602002808284375094965050505091351515915061105d9050565b341561069157600080fd5b61028b611477565b34156106a457600080fd5b61028b600160a060020a036004351661147d565b600254600160a060020a031681565b60025460009033600160a060020a039081169116146106e557600080fd5b600160a060020a0382166000908152600f6020526040902054829060ff16151561070e57600080fd5b610716610f2b565b151561072157600080fd5b600c80547fffffffffffffffffffffff00ffffffffffffffffffffffffffffffffffffffff600160a060020a0380871673ffffffffffffffffffffffffffffffffffffffff1990931692909217167401000000000000000000000000000000000000000017909155600454600b5491169250829063a9059cbb9085906000604051602001526040517c010000000000000000000000000000000000000000000000000000000063ffffffff8516028152600160a060020a0390921660048301526024820152604401602060405180830381600087803b151561080257600080fd5b6102c65a03f1151561081357600080fd5b50505060405180515050505050565b600454600160a060020a03165b90565b60025460009033600160a060020a0390811691161461085057600080fd5b600160a060020a0383166000908152600f6020526040902054839060ff16151561087957600080fd5b600454600160a060020a031691508163a9059cbb85856000604051602001526040517c010000000000000000000000000000000000000000000000000000000063ffffffff8516028152600160a060020a0390921660048301526024820152604401602060405180830381600087803b15156108f457600080fd5b6102c65a03f1151561090557600080fd5b5050506040518051505050505050565b600160a060020a0333166000908152600f602052604090205460ff16151561093c57600080fd5b600160a060020a039091166000908152600d6020526040902055565b6011546010540390565b600454600160a060020a031681565b600054600160a060020a0391821691161490565b600154600160a060020a031690565b60095481565b600a5481565b60008033836010818154811015156109b457fe5b6000918252602082200154600160a060020a03169063a52dd12f908490604051602001526040517c010000000000000000000000000000000000000000000000000000000063ffffffff8416028152600160a060020a039091166004820152602401602060405180830381600087803b1515610a2f57600080fd5b6102c65a03f11515610a4057600080fd5b505050604051805190501515610a5557600080fd5b6010805486908110610a6357fe5b6000918252602082200154600160a060020a03169350839063a5faa12590604051602001526040518163ffffffff167c0100000000000000000000000000000000000000000000000000000000028152600401602060405180830381600087803b1515610acf57600080fd5b6102c65a03f11515610ae057600080fd5b50505060405180519695505050505050565b600c54600160a060020a031681565b600c5474010000000000000000000000000000000000000000900460ff1690565b600854600954600c546000924290819011801593909111159174010000000000000000000000000000000000000000900460ff16159084908490610b635750825b8015610b6c5750815b95945050505050565b600754600160a060020a031681565b610b8c611527565b6010805480602002602001604051908101604052809291908181526020018280548015610be257602002820191906000526020600020905b8154600160a060020a03168152600190910190602001808311610bc4575b5050505050905090565b60105460009081908310610bff57600080fd5b6010805484908110610c0d57fe5b6000918252602082200154600160a060020a03169150819063a52dd12f903390604051602001526040517c010000000000000000000000000000000000000000000000000000000063ffffffff8416028152600160a060020a039091166004820152602401602060405180830381600087803b1515610c8b57600080fd5b6102c65a03f11515610c9c57600080fd5b5050506040518051949350505050565b60085415610cb957600080fd5b426008819055610ccf908363ffffffff61151116565b600955600a5550565b60055481565b60085481565b600160a060020a03166000908152600d6020526040902054151590565b600054600160a060020a031690565b600054600160a060020a031681565b600b5481565b6002546000908190819033600160a060020a03908116911614610d4757600080fd5b600160a060020a0333166000908152600f602052604090205460ff1615610f1f57600160a060020a0384166000908152600f6020526040902060010154601080549091908110610d9357fe5b6000918252602082200154600160a060020a03169250829063a5faa12590604051602001526040518163ffffffff167c0100000000000000000000000000000000000000000000000000000000028152600401602060405180830381600087803b1515610dff57600080fd5b6102c65a03f11515610e1057600080fd5b5050506040518051915050600160a060020a03821663a0bf8fe36040518163ffffffff167c0100000000000000000000000000000000000000000000000000000000028152600401600060405180830381600087803b1515610e7157600080fd5b6102c65a03f11515610e8257600080fd5b505050600160a060020a038082166000908152600e60209081526040808320805473ffffffffffffffffffffffffffffffffffffffff191690559287168252600f90522060010154601080549091908110610ed957fe5b6000918252602090912001805473ffffffffffffffffffffffffffffffffffffffff19169055601154610f1390600163ffffffff61151116565b60115560019250610f24565b600092505b5050919050565b600954600a5460009142818110801593909201901115908290610f4b5750805b8015610f725750600c5474010000000000000000000000000000000000000000900460ff16155b9250505090565b600354600160a060020a031681565b600654600160a060020a031681565b600154600160a060020a031681565b6010546000908210610fb757600080fd5b6010805483908110610fc557fe5b600091825260209091200154600160a060020a031692915050565b600254600160a060020a031690565b600c54600160a060020a031690565b60005433600160a060020a0390811691161461101957600080fd5b600160a060020a038116151561102e57600080fd5b6000805473ffffffffffffffffffffffffffffffffffffffff1916600160a060020a0392909216919091179055565b6002546000908190819033600160a060020a0390811691161461107f57600080fd5b611087610b22565b151561109257600080fd5b600160a060020a03881615156110a757600080fd5b600354600154600254600160a060020a039283169263288d58bd9281169116308e8e8e8e8e8e8e6000604051602001526040517c010000000000000000000000000000000000000000000000000000000063ffffffff8d16028152600160a060020a03808c16600483019081528b821660248401528a82166044840152888216608484015290871660a483015282151561012483015261014060648301908152909160c481019060e4810190610104810190610144018c818151815260200191508051906020019080838360005b8381101561118d578082015183820152602001611175565b50505050905090810190601f1680156111ba5780820380516001836020036101000a031916815260200191505b50858103845289818151815260200191508051906020019080838360005b838110156111f05780820151838201526020016111d8565b50505050905090810190601f16801561121d5780820380516001836020036101000a031916815260200191505b50858103835288818151815260200191508051906020019060200280838360005b8381101561125657808201518382015260200161123e565b50505050905001858103825287818151815260200191508051906020019060200280838360005b8381101561129557808201518382015260200161127d565b505050509050019e505050505050505050505050505050602060405180830381600087803b15156112c557600080fd5b6102c65a03f115156112d657600080fd5b50505060405180519050915060408051908101604090815260018252601054602080840191909152600160a060020a0385166000908152600f909152208151815460ff19169015151781556020820151600191820155601080549092509081016113408382611539565b5060009182526020808320919091018054600160a060020a0386811673ffffffffffffffffffffffffffffffffffffffff1992831681179093553381168552600e8452604080862080549093169093179091558b168352600d90915281206003905590505b84518110156113ec576002600d60008784815181106113c057fe5b90602001906020020151600160a060020a031681526020810191909152604001600020556001016113a5565b600254600160a060020a0316634644c51b836040517c010000000000000000000000000000000000000000000000000000000063ffffffff8416028152600160a060020a039091166004820152602401600060405180830381600087803b151561145557600080fd5b6102c65a03f1151561146657600080fd5b50929b9a5050505050505050505050565b600b5490565b600454600090600160a060020a03166370a082318383604051602001526040517c010000000000000000000000000000000000000000000000000000000063ffffffff8416028152600160a060020a039091166004820152602401602060405180830381600087803b15156114f157600080fd5b6102c65a03f1151561150257600080fd5b50505060405180519392505050565b60008282018381101561152057fe5b9392505050565b60206040519081016040526000815290565b81548183558181151161155d5760008381526020902061155d918101908301611562565b505050565b61082f91905b8082111561157c5760008155600101611568565b50905600a165627a7a7230582056c951aaf0e2cf288bca6887ebb2efba34376e02eab0b32d14fbea235b7f2b6c0029",
  "source": "pragma solidity ^0.4.18;\n\nimport '../libraries/math/SafeMath.sol';\nimport '../interfaces/IMatryxToken.sol';\nimport '../interfaces/IMatryxTournament.sol';\nimport '../interfaces/IMatryxRound.sol';\nimport '../interfaces/factories/IMatryxSubmissionFactory.sol';\nimport '../interfaces/IMatryxSubmission.sol';\nimport './Ownable.sol';\n\n/// @title MatryxRound - A round within a Matryx tournament.\n/// @author Max Howard - <max@nanome.ai>, Sam Hessenauer - <sam@nanome.ai>\ncontract MatryxRound is Ownable, IMatryxRound {\n\tusing SafeMath for uint256;\n\n\t//TODO: allow for refunds\n\t// TODO: condense and put in structs\n\taddress public platformAddress;\n\taddress public tournamentAddress;\n\taddress public matryxSubmissionFactoryAddress;\n\taddress public matryxTokenAddress;\n\n\tuint256 public roundIndex;\n\taddress public previousRound;\n\taddress public nextRound;\n\tuint256 public startTime;\n\tuint256 public endTime;\n\tuint256 public reviewPeriod;\n\tuint256 public bounty;\n\taddress public winningSubmission;\n\tbool winningSubmissionChosen;\n\n\tmapping(address=>uint) addressToParticipantType;\n \tmapping(address=>address) authorToSubmissionAddress;\n\tmapping(address=>uint256_optional) addressToSubmissionIndex;\n\taddress[] submissions;\n\tuint256 numberSubmissionsRemoved;\n\n\tfunction MatryxRound(address _matryxTokenAddress, address _platformAddress, address _tournamentAddress, address _matryxSubmissionFactoryAddress, address _owner, uint256 _bounty) public\n\t{\n\t\tmatryxTokenAddress = _matryxTokenAddress;\n\t\tplatformAddress = _platformAddress;\n\t\ttournamentAddress = _tournamentAddress;\n\t\towner = _owner;\n\t\tmatryxSubmissionFactoryAddress = _matryxSubmissionFactoryAddress;\n\t\tbounty = _bounty;\n\t\twinningSubmissionChosen = false;\n\t}\n\n\t/*\n\t * Structs\n\t */\n\n\tstruct uint256_optional\n    {\n        bool exists;\n        uint256 value;\n    }\n\n    /*\n     * Enums\n     */\n\n\tenum participantType { nonentrant, entrant, contributor, author }\n\n\t/*\n     * Modifiers\n     */\n\n    /// @dev Requires that this round is in the open submission state.\n\tmodifier duringOpenSubmission()\n\t{\n\t\trequire(isOpen());\n\t\t_;\n\t}\n\n\t/// @dev Requires that this round is in the winner selection state.\n\tmodifier duringReviewPeriod()\n\t{\n\t\t//require(endTime != 0);\n\t\trequire(isInReview());\n\t\t_;\n\t}\n\n\t// @dev Requires that a winner has been selected for this round.\n\tmodifier afterWinnerSelected()\n\t{\n\t\trequire(winningSubmissionChosen == true);\n\t\t_;\n\t}\n\n\tmodifier onlySubmission()\n\t{\n\t\trequire(addressToSubmissionIndex[msg.sender].exists);\n\t\t_;\n\t}\n\n\tmodifier onlyTournament()\n\t{\n\t\trequire(msg.sender == tournamentAddress);\n\t\t_;\n\t}\n\n\t/// @dev Requires that this round's tournament is open.\n\tmodifier whileTournamentOpen()\n\t{\n\t\tIMatryxTournament tournament = IMatryxTournament(tournamentAddress);\n\t\trequire(tournament.isOpen());\n\t\t_;\n\t}\n\n\t/// @dev Requires that the desired submission is accessible to the requester.\n\tmodifier whenAccessible(address _requester, uint256 _index)\n\t{\n\t\trequire(IMatryxSubmission(submissions[_index]).isAccessible(_requester));\n\t\t_;\n\t}\n\n\tmodifier ifSubmissionExists(address _submissionAddress)\n\t{\n\t\trequire(addressToSubmissionIndex[_submissionAddress].exists);\n\t\t_;\n\t}\n\n\t/// @dev Requires the function caller to be the platform or the owner of this tournament\n\tmodifier tournamentOrOwner()\n    {\n        require((msg.sender == tournamentAddress)||(msg.sender == owner));\n        _;\n    }\n\n\t/// @dev Requires that the sender be the submission's author.\n\t// modifier onlySubmissionAuthor(uint256 _submissionIndex)\n\t// {\n\t// \trequire(IMatryxSubmission(submissions[_submissionIndex]).getAuthor() == msg.sender);\n\t// \t_;\n\t// }\n\n\t/*\n\t * State Maintenance Methods\n\t */\n\n\tfunction removeSubmission(address _submissionAddress) public onlyTournament returns (bool)\n\t{\n\t\tif(addressToSubmissionIndex[msg.sender].exists)\n\t\t{\n\t\t\tIMatryxSubmission submission = IMatryxSubmission(submissions[addressToSubmissionIndex[_submissionAddress].value]);\n\t\t\taddress author = submission.getAuthor();\n\t\t\tsubmission.deleteSubmission();\n\n\t\t\tdelete authorToSubmissionAddress[author];\n\t\t\tdelete submissions[addressToSubmissionIndex[_submissionAddress].value];\n\n\t\t\tnumberSubmissionsRemoved = numberSubmissionsRemoved.add(1);\n\t\t\treturn true;\n\t\t}\n\n\t\treturn false;\n\t}\n\n\t/*\n     * Access Control Methods\n     */\n\n\t/// @dev Returns whether or not this round is open to new submissions.\n\t/// @return Whether or not this round is open to submissions.\n    function isOpen() public constant returns (bool)\n\t{\n\t\tbool roundStartedBeforeNow = startTime <= now;\n\t\tbool roundEndsAfterNow = now <= endTime;\n\t\tbool winningSubmissionNotYetChosen = !winningSubmissionChosen;\n\t\tbool result = roundStartedBeforeNow && roundEndsAfterNow && winningSubmissionNotYetChosen;\n\t\treturn result;\n\t}\n\n\t/// @dev Returns whether or not this round is in the review period.\n\t/// @return Whether or not the round is being reviewed.\n\tfunction isInReview() public constant returns (bool)\n\t{\n\t\tbool roundEndedAfterNow = now >= endTime;\n\t\tbool roundReviewNotOver = now <= endTime+reviewPeriod;\n\t\treturn roundEndedAfterNow && roundReviewNotOver && !winningSubmissionChosen;\n\t}\n\n\t/// @dev Returns whether or not the submission is accessible to the requester.\n\t/// @param _index Index of the submission being requested.\n    /// @return Whether or not the submission is accessible to the requester.\n\tfunction submissionIsAccessible(uint256 _index) public constant returns (bool)\n\t{\n\t\trequire(_index < submissions.length);\n\n\t\tIMatryxSubmission submission = IMatryxSubmission(submissions[_index]);\n\t\treturn submission.isAccessible(msg.sender);\n\t}\n\n\t/// @dev Returns whether or not the submission is accessible to the requester.\n\t/// @param _submissionAddress Address of the submission being requested.\n    /// @return Whether or not the submission is accessible to the requester.\n\t// function submissionIsAccessible(address _submissionAddress) public constant returns (bool)\n\t// {\n\t// \trequire(addressToSubmissionIndex[_submissionAddress]);\n\n\t// \tIMatryxSubmission submission = IMatryxSubmission(_submissionAddress);\n\t// \treturn submission.isAccessible(msg.sender);\n\t// }\n\n\t/// @dev Returns true if the sender is an entrant in this round.\n\t/// @param _requester Address being tested.\n\t/// @return Whether or not the requester is a contributor in this round.\n\tfunction requesterIsContributor(address _requester) public constant returns (bool)\n\t{\n\t\treturn addressToParticipantType[_requester] != 0;\n\t}\n\n\tfunction setParticipantType(address _participantAddress, uint256 _type) public onlySubmission\n\t{\n\t\taddressToParticipantType[_participantAddress] = _type;\n\t}\n\n\t/*\n     * Getter Methods\n     */\n\n    function getPlatform() public constant returns (address) {\n\t\treturn platformAddress;\n\t}\n\n    function getTournament() public constant returns (address) {\n\t\treturn tournamentAddress;\n\t}\n\n    function getBounty() public constant returns (uint256) \n    { \n    \treturn bounty;\n    }\n\n    function getTokenAddress() public constant returns (address)\n    {\n    \treturn matryxTokenAddress;\n    }\n\n\t/// @dev Returns all submissions made to this round.\n\t/// @return _submissions All submissions made to this round.\n\tfunction getSubmissions() public constant returns (address[] _submissions)\n\t{\n\t\treturn submissions;\n\t}\n\n\tfunction getSubmissionAddress(uint256 _index) public constant returns (address _submissionAddress)\n\t{\n\t\trequire(_index < submissions.length);\n\n\t\treturn submissions[_index];\n\t}\n\n\t/// @dev Returns the author of a submission.\n\t/// @param _index Index of the submission.\n\t/// @return Address of this submission's author.\n\tfunction getSubmissionAuthor(uint256 _index) public constant whenAccessible(msg.sender, _index) returns (address) \n\t{\n\t\tIMatryxSubmission submission = IMatryxSubmission(submissions[_index]);\n\t\treturn submission.getAuthor();\n\t}\n\n\t/// @dev Returns the balance of a particular submission\n\t/// @param _submissionAddress Address of the submission\n\t/// @return Balance of the bounty \n\tfunction getBalance(address _submissionAddress) public constant returns (uint256)\n\t{\n\t\treturn IMatryxToken(matryxTokenAddress).balanceOf(_submissionAddress);\n\t}\n\n\t/// @dev Returns whether or not a winning submission has been chosen.\n\t/// @return Whether or not a submission has been chosen.\n\tfunction submissionChosen() public constant returns (bool)\n\t{\n\t\treturn winningSubmissionChosen;\n\t}\n\n\t/// @dev Returns the index of this round's winning submission.\n\t/// @return Index of the winning submission.\n\tfunction getWinningSubmissionAddress() public constant returns (address)\n\t{\n\t\treturn winningSubmission;\n\t}\n\n\t/// @dev Returns the number of submissions made to this round.\n\t/// @return Number of submissions made to this round.\n\tfunction numberOfSubmissions() public constant returns (uint256)\n\t{\n\t\treturn submissions.length - numberSubmissionsRemoved;\n\t}\n\n\t/*\n     * Round Admin Methods\n     */\n\n    /// @dev Starts the round (callable only by the owner of the round).\n    /// @param _duration Duration of the round in seconds.\n\tfunction Start(uint256 _duration, uint256 _reviewPeriod) public\n\t{\n\t\trequire(startTime == 0);\n\t\tstartTime = now;\n\t\tendTime = startTime.add(_duration);\n\t\treviewPeriod = _reviewPeriod;\n\t}\n\n\t/// @dev Choose a winning submission for the round (callable only by the owner of the round).\n    /// @param _submissionAddress Index of the winning submission.\n\tfunction chooseWinningSubmission(address _submissionAddress) public onlyTournament ifSubmissionExists(_submissionAddress) duringReviewPeriod\n\t{\n\t\twinningSubmission = _submissionAddress;\n\t\twinningSubmissionChosen = true;\n\n\t\tIMatryxToken token = IMatryxToken(matryxTokenAddress);\n\t\ttoken.transfer(_submissionAddress, bounty);\n\t}\n\n\t/// @dev Award bounty to a submission. Called by tournament to close a tournament after a \n\t/// round winner has been chosen.\n\t/// @param _submissionAddress Index of the tournament winning submission.\n\t/// @param _remainingBounty Bounty to award the submission.\n\tfunction awardBounty(address _submissionAddress, uint256 _remainingBounty) public onlyTournament ifSubmissionExists(_submissionAddress)\n\t{\n\t\tIMatryxToken token = IMatryxToken(matryxTokenAddress);\n\t\ttoken.transfer(_submissionAddress, _remainingBounty);\n\t}\n\n\t/*\n     * Entrant Methods\n     */\n\n    /// @dev Create a new submission.\n    /// @param _title Title of the submission.\n    /// @param _externalAddress Off-chain content hash of submission details (ipfs hash)\n    /// @param _author Author of this submission.\n    /// @param _references Addresses of submissions referenced in creating this submission\n    /// @param _contributors Contributors to this submission.\n    /// @return _submissionIndex Location of this submission within this round.\n\tfunction createSubmission(string _title, address _owner, address _author, bytes _externalAddress, address[] _references, address[] _contributors, bool _publicallyAccessible) public onlyTournament duringOpenSubmission returns (address _submissionAddress)\n\t{\n\t\trequire(_author != 0x0);\n\t\t\n        address submissionAddress = IMatryxSubmissionFactory(matryxSubmissionFactoryAddress).createSubmission(platformAddress, tournamentAddress, this, _title, _owner, _author, _externalAddress, _references, _contributors, _publicallyAccessible);\n        //submission bookkeeping\n        addressToSubmissionIndex[submissionAddress] = uint256_optional({exists:true, value: submissions.length});\n        submissions.push(submissionAddress);\n        authorToSubmissionAddress[msg.sender] = submissionAddress;\n\n        // round participant bookkeeping\n        addressToParticipantType[_author] = uint(participantType.author);\n        for(uint256 i = 0; i < _contributors.length; i++)\n        {\n        \taddressToParticipantType[_contributors[i]] = uint(participantType.contributor);\n        }\n\n        IMatryxTournament(tournamentAddress).invokeSubmissionCreatedEvent(submissionAddress);\n        return submissionAddress;\n\t}\n}",
  "sourcePath": "/Users/maxhoward/Desktop/Ethereum/Development/Matryx AWS/Projects/matryx-alpha-source/contracts/MatryxRound.sol",
  "compiler": {
    "name": "solc",
    "version": "0.4.19+commit.c4cbbb05.Emscripten.clang"
  },
  "schemaVersion": "2.0.0",
  "updatedAt": "2018-03-26T22:01:40.488Z"
}