{
  "contractName": "MatryxRoundFactory",
  "abi": [
    {
      "constant": true,
      "inputs": [
        {
          "name": "_sender",
          "type": "address"
        }
      ],
      "name": "isOwner",
      "outputs": [
        {
          "name": "_isOwner",
          "type": "bool"
        }
      ],
      "payable": false,
      "stateMutability": "view",
      "type": "function"
    },
    {
      "constant": true,
      "inputs": [],
      "name": "getOwner",
      "outputs": [
        {
          "name": "_owner",
          "type": "address"
        }
      ],
      "payable": false,
      "stateMutability": "view",
      "type": "function"
    },
    {
      "constant": true,
      "inputs": [],
      "name": "owner",
      "outputs": [
        {
          "name": "",
          "type": "address"
        }
      ],
      "payable": false,
      "stateMutability": "view",
      "type": "function"
    },
    {
      "constant": true,
      "inputs": [],
      "name": "matryxSubmissionFactoryAddress",
      "outputs": [
        {
          "name": "",
          "type": "address"
        }
      ],
      "payable": false,
      "stateMutability": "view",
      "type": "function"
    },
    {
      "constant": false,
      "inputs": [
        {
          "name": "newOwner",
          "type": "address"
        }
      ],
      "name": "transferOwnership",
      "outputs": [],
      "payable": false,
      "stateMutability": "nonpayable",
      "type": "function"
    },
    {
      "inputs": [
        {
          "name": "_matryxSubmissionFactoryAddress",
          "type": "address"
        }
      ],
      "payable": false,
      "stateMutability": "nonpayable",
      "type": "constructor"
    },
    {
      "constant": false,
      "inputs": [
        {
          "name": "_platformAddress",
          "type": "address"
        },
        {
          "name": "_tournamentAddress",
          "type": "address"
        },
        {
          "components": [
            {
              "name": "start",
              "type": "uint256"
            },
            {
              "name": "end",
              "type": "uint256"
            },
            {
              "name": "reviewPeriodDuration",
              "type": "uint256"
            },
            {
              "name": "bounty",
              "type": "uint256"
            },
            {
              "name": "closed",
              "type": "bool"
            }
          ],
          "name": "roundData",
          "type": "tuple"
        }
      ],
      "name": "createRound",
      "outputs": [
        {
          "name": "_roundAddress",
          "type": "address"
        }
      ],
      "payable": false,
      "stateMutability": "nonpayable",
      "type": "function"
    },
    {
      "constant": false,
      "inputs": [
        {
          "name": "_nameHash",
          "type": "bytes32"
        },
        {
          "name": "_contractAddress",
          "type": "address"
        }
      ],
      "name": "setContractAddress",
      "outputs": [],
      "payable": false,
      "stateMutability": "nonpayable",
      "type": "function"
    },
    {
      "constant": true,
      "inputs": [
        {
          "name": "_nameHash",
          "type": "bytes32"
        }
      ],
      "name": "getContractAddress",
      "outputs": [
        {
          "name": "contractAddress",
          "type": "address"
        }
      ],
      "payable": false,
      "stateMutability": "view",
      "type": "function"
    }
  ],
  "bytecode": "0x608060405234801561001057600080fd5b50604051602080611467833981018060405261002f9190810190610075565b6000805433600160a060020a03199182161790915560018054909116600160a060020a03929092169190911790556100a7565b600061006e825161009b565b9392505050565b60006020828403121561008757600080fd5b60006100938484610062565b949350505050565b600160a060020a031690565b6113b1806100b66000396000f30060806040526004361061008d5763ffffffff7c01000000000000000000000000000000000000000000000000000000006000350416630d2020dd81146100925780632f54bf6e146100c85780634f07a646146100f5578063893d20e8146101155780638da5cb5b1461012a578063b0ff54921461013f578063e001f84114610154578063f2fde38b14610176575b600080fd5b34801561009e57600080fd5b506100b26100ad3660046104c6565b610196565b6040516100bf91906105a2565b60405180910390f35b3480156100d457600080fd5b506100e86100e3366004610453565b6101be565b6040516100bf91906105f5565b34801561010157600080fd5b506100b2610110366004610479565b6101df565b34801561012157600080fd5b506100b261023d565b34801561013657600080fd5b506100b2610259565b34801561014b57600080fd5b506100b2610275565b34801561016057600080fd5b5061017461016f3660046104e4565b610291565b005b34801561018257600080fd5b50610174610191366004610453565b610308565b60009081526002602052604090205473ffffffffffffffffffffffffffffffffffffffff1690565b60005473ffffffffffffffffffffffffffffffffffffffff91821691161490565b60015460009081908590859073ffffffffffffffffffffffffffffffffffffffff168561020a610395565b61021794939291906105b6565b604051809103906000f080158015610233573d6000803e3d6000fd5b5095945050505050565b60005473ffffffffffffffffffffffffffffffffffffffff1690565b60005473ffffffffffffffffffffffffffffffffffffffff1681565b60015473ffffffffffffffffffffffffffffffffffffffff1681565b60005473ffffffffffffffffffffffffffffffffffffffff1633146102b557600080fd5b60009182526002602052604090912080547fffffffffffffffffffffffff00000000000000000000000000000000000000001673ffffffffffffffffffffffffffffffffffffffff909216919091179055565b60005473ffffffffffffffffffffffffffffffffffffffff16331461032c57600080fd5b73ffffffffffffffffffffffffffffffffffffffff8116151561034e57600080fd5b600080547fffffffffffffffffffffffff00000000000000000000000000000000000000001673ffffffffffffffffffffffffffffffffffffffff92909216919091179055565b604051610d2c8061064c83390190565b60006103b1823561062a565b9392505050565b60006103b18235610643565b60006103b18235610648565b600060a082840312156103e257600080fd5b6103ec60a0610603565b905060006103fa84846103c4565b825250602061040b848483016103c4565b602083015250604061041f848285016103c4565b6040830152506060610433848285016103c4565b6060830152506080610447848285016103b8565b60808301525092915050565b60006020828403121561046557600080fd5b600061047184846103a5565b949350505050565b600080600060e0848603121561048e57600080fd5b600061049a86866103a5565b93505060206104ab868287016103a5565b92505060406104bc868287016103d0565b9150509250925092565b6000602082840312156104d857600080fd5b600061047184846103c4565b600080604083850312156104f757600080fd5b600061050385856103c4565b9250506020610514858286016103a5565b9150509250929050565b6105278161062a565b82525050565b61052781610643565b805160a08301906105478482610599565b50602082015161055a6020850182610599565b50604082015161056d6040850182610599565b5060608201516105806060850182610599565b506080820151610593608085018261052d565b50505050565b61052781610648565b602081016105b0828461051e565b92915050565b61010081016105c5828761051e565b6105d2602083018661051e565b6105df604083018561051e565b6105ec6060830184610536565b95945050505050565b602081016105b0828461052d565b60405181810167ffffffffffffffff8111828210171561062257600080fd5b604052919050565b73ffffffffffffffffffffffffffffffffffffffff1690565b151590565b90560060806040523480156200001157600080fd5b506040516101008062000d2c83398101806040526200003491908101906200012e565b83600055826001558160025560005b6004811015620000625760208102820151600382015560010162000043565b5050505050620001d5565b60006200007b8251620001c1565b9392505050565b60006200007b8251620001cd565b600060a08284031215620000a357600080fd5b620000af60a062000199565b90506000620000bf848462000120565b8252506020620000d28484830162000120565b6020830152506040620000e88482850162000120565b6040830152506060620000fe8482850162000120565b6060830152506080620001148482850162000082565b60808301525092915050565b60006200007b8251620001d2565b60008060008061010085870312156200014657600080fd5b60006200015487876200006d565b945050602062000167878288016200006d565b93505060406200017a878288016200006d565b92505060606200018d8782880162000090565b91505092959194509250565b60405181810167ffffffffffffffff81118282101715620001b957600080fd5b604052919050565b600160a060020a031690565b151590565b90565b610b4780620001e56000396000f3006080604052600436106100565763ffffffff7c01000000000000000000000000000000000000000000000000000000006000350416631e0197e28114610a2e5780634bde38c814610a59578063d34a478c14610a6e575b34801561006257600080fd5b507c0100000000000000000000000000000000000000000000000000000000806000350463b6a3497581146101c0576338e4389581146101ce57631865c57d81146101d657632fc1f19081146101e75763e76c293e81146101ef57633bc5de3081146101f75763c828371e81146101ff5763439f5ac2811461020757637bc935be811461020f5763f49bff7b81146102175763e45ceed2811461021f576310fe9ae8811461022b576354f6aa2081146102375763f8b2cb4f811461023f5763e9e8b44681146102555763389994f9811461025e5763ed09846081146102665763241b15ad811461026e57638fa4e7b9811461027957632f0713bb81146102825763856646fd811461028b576307417cf1811461029457635325cdba811461029d57630e3db9f281146102a65763e278fe6f81146102ae576357c60fb081146102b75761dead6000526002601ea060003560005260046000a060206000f35b6101c982610396565b6102c0565b6101c96103bf565b6101c96101e2836103ea565b6102d5565b6101c961044a565b6101c961045a565b6101c961046a565b6101c961049f565b6101c96104af565b6101c96104c0565b6101c96104d1565b6101c96101e2836104e2565b6101c96101e2836104f3565b6101c9610522565b6101c96101e261024f60006102c6565b84610570565b6101c9826105ad565b6101c96105bf565b6101c96105d2565b6101c96101e2610614565b6101c98261061f565b6101c98261067d565b6101c9826106da565b6101c98261074e565b6101c9826107a0565b6101c96108a2565b6101c9826108cc565b6102c0826108ea565b506102d0565b6020026004013590565b6102df565b8060005260206000f35b6102f3565b8015156102f057600080fd5b50565b61030e565b6000610309828414838510176102e4565b500390565b61032b565b808201610325818314828410176102e4565b92915050565b610349565b610339816103ea565b610345600282146102e4565b5050565b610363565b610357816103ea565b610345600382146102e4565b61037d565b610371816103ea565b610345600482146102e4565b610391565b61038f33600154146102e4565b565b6103ba565b6103a060006102c6565b6000526001600e0160205260406000205460005260206000f35b6103e5565b6103c7610382565b6103d160006102c6565b6006546103de8282610313565b6006555050565b610445565b6000604051826305b00ec102815260005460048201526003602482015260086044820152600c606482015261043b6020600060848473__LibRound______________________________5af46102e4565b5050600051919050565b610455565b61038f6000546102d5565b610465565b61038f6001546102d5565b61049a565b6040805160035481526004546020820152600554918101919091526006546060820152600754608082015260a081f35b6104aa565b61038f6003546102d5565b6104bb565b60045461038f906102d5565b6104cc565b60055461038f906102d5565b6104dd565b60065461038f906102d5565b6104ee565b60006103253083610570565b61051d565b6000816310fe9ae8026000526105156020600060046000806000545af16102e4565b505060005190565b61056b565b600c6000526020600020600c54604051806020825260208201915082825260005b838110156105605784810154602093909301928352600101610543565b506020830260400181f35b6105a8565b600061057b826104f3565b826370a08231026000528360045261059d602060006024600080865af16102e4565b505060005192915050565b6105ba565b6102f06101e23083610570565b6105cd565b61038f6000600854116102d5565b61060f565b6008600052602060002060085460405180602082526020820191508282526000838110156105605784810154602093909301928352600101610543565b61061a565b600c5490565b610678565b610627610382565b6040518163b6668750028152600354600482015261064560006102c6565b602482015260a06024604483013761034560008060e48473__LibRound______________________________5af46102e4565b6106d5565b610685610382565b6106996000610693836103ea565b146102e4565b6040518163a9059cbb0281523360048201526106b560006102c6565b602482015261034560008060448460006106ce886104f3565b5af16102e4565b610749565b6106e2610382565b6106eb8161034e565b60405181636e86d66202815260036004820152600860248201526004360380600460448401376044820160408151018152610743600080846044018673__LibRound______________________________5af46102e4565b50505050565b61079b565b610756610382565b61075f816104e2565b6040518263a9059cbb028152600154600482015281602482015261078d60008060448460006106ce896104f3565b610796826102d5565b505050565b61089d565b6107a8610382565b6040516107b4826104f3565b60085460096000908152600b547ff3f7a9fe364faab93b216da50a3214154f22a0a2b415b23a84c8169e8b636ee3917f6e1540171b6c0c960b71a7020d9f60077f6af931a8bbf590da0223dacf75c7af91670de0b6b3a76400000290610819906102c6565b60065401670de0b6b3a76400000260005b85811015610892578085015483838387015402048a63a9059cbb028a528160048b01528060248b015261086660008060448d60008e5af16102e4565b8a6309b542bb028a528060048b015261088860008060248d6000875af16102e4565b505060010161082a565b505050505050505050565b6108c7565b6108aa610382565b6108bb6001600301546003546102f8565b42600381905501600455565b6108e5565b6108d4610382565b6108dd81610368565b506001600755565b610a2b565b6108f2610382565b6108fb81610330565b61090560006102c6565b61090e816102e4565b60405182636c4074f702815281600482015261092a60016102c6565b602482015260015460448201523060648201526101206044608483013761095e602060006101a48460006002545af16102e4565b600051806000526001600e016020526001604060002055600c6000526020600020600c5460018101600c55828183015585636a44e43d02600052846004526109b26020600060246000806000545af16102e4565b60005180600052600e60205260406000208054816000526020600020811515610a0b57600d80546000829052600181019091557fd7b6990105719101dabeb77144f2a3385c8033acd3af97e9423a695e81ad1eb5018490555b6001820183558682820155610a1f876102d5565b50505050505050505050565b50005b348015610a3a57600080fd5b50610a43610a83565b604051610a509190610ae6565b60405180910390f35b348015610a6557600080fd5b50610a43610a9f565b348015610a7a57600080fd5b50610a43610abb565b60015473ffffffffffffffffffffffffffffffffffffffff1681565b60005473ffffffffffffffffffffffffffffffffffffffff1681565b60025473ffffffffffffffffffffffffffffffffffffffff1681565b610ae081610af4565b82525050565b602081016103258284610ad7565b73ffffffffffffffffffffffffffffffffffffffff16905600a265627a7a72305820e56bb3e41be3217abe57ac8781c7b441a85bdf230210944d940343d04c2a19d06c6578706572696d656e74616cf50037a265627a7a723058206bb7afa639ea649d98614efa6fb08023a3064758d7b7f34b68c6f7a4d98ae5066c6578706572696d656e74616cf50037",
  "source": "pragma solidity ^0.4.24;\npragma experimental ABIEncoderV2;\n\nimport \"../Ownable.sol\";\nimport \"../JMatryxRound.sol\";\nimport \"../../interfaces/IMatryxPlatform.sol\";\nimport \"../../libraries/LibConstruction.sol\";\n\ncontract MatryxRoundFactory is Ownable {\n    address public matryxSubmissionFactoryAddress;\n\n    mapping(bytes32=>address) contracts;\n\n    constructor(address _matryxSubmissionFactoryAddress) public {\n        matryxSubmissionFactoryAddress = _matryxSubmissionFactoryAddress;\n    }\n\n    function createRound(address _platformAddress, address _tournamentAddress, LibConstruction.RoundData roundData) public returns (address _roundAddress) {\n        JMatryxRound newRound = new JMatryxRound(_platformAddress, _tournamentAddress, matryxSubmissionFactoryAddress, roundData);\n        return newRound;\n    }\n\n    /// @dev Sets an address for a contract the platform should know about.\n    /// @param _nameHash Keccak256 hash of the name of the contract to give an address to.\n    /// @param _contractAddress Address to be assigned for the given contract name.\n    function setContractAddress(bytes32 _nameHash, address _contractAddress) public onlyOwner\n    {\n        contracts[_nameHash] = _contractAddress;\n    }\n\n    /// @dev Gets the address of a contract the platform knows about.\n    /// @param _nameHash Keccak256 hash of the name of the contract to look for.\n    /// @return Address of the contract with the designated name.\n    function getContractAddress(bytes32 _nameHash) public view returns (address contractAddress)\n    {\n        return contracts[_nameHash];\n    }\n}\n",
  "sourcePath": "/Users/maxhoward/Desktop/Ethereum/MatryxPlatform/contracts/factories/MatryxRoundFactory.sol",
  "compiler": {
    "name": "solc",
    "version": "0.4.24+commit.e67f0147.Emscripten.clang"
  },
  "schemaVersion": "2.0.1",
  "updatedAt": "2018-08-10T16:29:52.424Z"
}