{
  "contractName": "MatryxTournament",
  "abi": [
    {
      "constant": true,
      "inputs": [
        {
          "name": "_sender",
          "type": "address"
        }
      ],
      "name": "isOwner",
      "outputs": [
        {
          "name": "_isOwner",
          "type": "bool"
        }
      ],
      "payable": false,
      "stateMutability": "view",
      "type": "function"
    },
    {
      "constant": true,
      "inputs": [],
      "name": "tournamentOpenedTime",
      "outputs": [
        {
          "name": "",
          "type": "uint256"
        }
      ],
      "payable": false,
      "stateMutability": "view",
      "type": "function"
    },
    {
      "constant": true,
      "inputs": [],
      "name": "matryxRoundFactoryAddress",
      "outputs": [
        {
          "name": "",
          "type": "address"
        }
      ],
      "payable": false,
      "stateMutability": "view",
      "type": "function"
    },
    {
      "constant": true,
      "inputs": [],
      "name": "owner",
      "outputs": [
        {
          "name": "",
          "type": "address"
        }
      ],
      "payable": false,
      "stateMutability": "view",
      "type": "function"
    },
    {
      "constant": true,
      "inputs": [],
      "name": "platformAddress",
      "outputs": [
        {
          "name": "",
          "type": "address"
        }
      ],
      "payable": false,
      "stateMutability": "view",
      "type": "function"
    },
    {
      "constant": true,
      "inputs": [],
      "name": "timeCreated",
      "outputs": [
        {
          "name": "",
          "type": "uint256"
        }
      ],
      "payable": false,
      "stateMutability": "view",
      "type": "function"
    },
    {
      "constant": false,
      "inputs": [
        {
          "name": "newOwner",
          "type": "address"
        }
      ],
      "name": "transferOwnership",
      "outputs": [],
      "payable": false,
      "stateMutability": "nonpayable",
      "type": "function"
    },
    {
      "inputs": [
        {
          "name": "_category",
          "type": "string"
        },
        {
          "components": [
            {
              "name": "category",
              "type": "string"
            },
            {
              "name": "title_1",
              "type": "bytes32"
            },
            {
              "name": "title_2",
              "type": "bytes32"
            },
            {
              "name": "title_3",
              "type": "bytes32"
            },
            {
              "name": "descriptionHash_1",
              "type": "bytes32"
            },
            {
              "name": "descriptionHash_2",
              "type": "bytes32"
            },
            {
              "name": "fileHash_1",
              "type": "bytes32"
            },
            {
              "name": "fileHash_2",
              "type": "bytes32"
            },
            {
              "name": "initialBounty",
              "type": "uint256"
            },
            {
              "name": "entryFee",
              "type": "uint256"
            }
          ],
          "name": "tournamentData",
          "type": "tuple"
        },
        {
          "components": [
            {
              "name": "start",
              "type": "uint256"
            },
            {
              "name": "end",
              "type": "uint256"
            },
            {
              "name": "reviewPeriodDuration",
              "type": "uint256"
            },
            {
              "name": "bounty",
              "type": "uint256"
            }
          ],
          "name": "roundData",
          "type": "tuple"
        },
        {
          "name": "_platformAddress",
          "type": "address"
        },
        {
          "name": "_matryxTokenAddress",
          "type": "address"
        },
        {
          "name": "_matryxRoundFactoryAddress",
          "type": "address"
        },
        {
          "name": "_owner",
          "type": "address"
        }
      ],
      "payable": false,
      "stateMutability": "nonpayable",
      "type": "constructor"
    },
    {
      "anonymous": false,
      "inputs": [
        {
          "indexed": false,
          "name": "_startTime",
          "type": "uint256"
        },
        {
          "indexed": false,
          "name": "_endTime",
          "type": "uint256"
        },
        {
          "indexed": false,
          "name": "_reviewPeriodDuration",
          "type": "uint256"
        },
        {
          "indexed": false,
          "name": "_roundAddress",
          "type": "address"
        },
        {
          "indexed": false,
          "name": "_roundNumber",
          "type": "uint256"
        }
      ],
      "name": "NewRound",
      "type": "event"
    },
    {
      "anonymous": false,
      "inputs": [
        {
          "indexed": false,
          "name": "_roundIndex",
          "type": "uint256"
        },
        {
          "indexed": false,
          "name": "_submissionAddress",
          "type": "address"
        }
      ],
      "name": "SubmissionCreated",
      "type": "event"
    },
    {
      "anonymous": false,
      "inputs": [
        {
          "indexed": false,
          "name": "_submissionAddresses",
          "type": "address[]"
        }
      ],
      "name": "RoundWinnersChosen",
      "type": "event"
    },
    {
      "constant": false,
      "inputs": [
        {
          "name": "_submissionAddress",
          "type": "address"
        }
      ],
      "name": "invokeSubmissionCreatedEvent",
      "outputs": [],
      "payable": false,
      "stateMutability": "nonpayable",
      "type": "function"
    },
    {
      "constant": false,
      "inputs": [
        {
          "name": "_submissionAddress",
          "type": "address"
        },
        {
          "name": "_author",
          "type": "address"
        }
      ],
      "name": "removeSubmission",
      "outputs": [
        {
          "name": "",
          "type": "bool"
        }
      ],
      "payable": false,
      "stateMutability": "nonpayable",
      "type": "function"
    },
    {
      "constant": true,
      "inputs": [
        {
          "name": "_sender",
          "type": "address"
        }
      ],
      "name": "isEntrant",
      "outputs": [
        {
          "name": "",
          "type": "bool"
        }
      ],
      "payable": false,
      "stateMutability": "view",
      "type": "function"
    },
    {
      "constant": true,
      "inputs": [],
      "name": "getState",
      "outputs": [
        {
          "name": "",
          "type": "uint256"
        }
      ],
      "payable": false,
      "stateMutability": "view",
      "type": "function"
    },
    {
      "constant": true,
      "inputs": [],
      "name": "getPlatform",
      "outputs": [
        {
          "name": "_platformAddress",
          "type": "address"
        }
      ],
      "payable": false,
      "stateMutability": "view",
      "type": "function"
    },
    {
      "constant": true,
      "inputs": [],
      "name": "getTokenAddress",
      "outputs": [
        {
          "name": "_matryxTokenAddress",
          "type": "address"
        }
      ],
      "payable": false,
      "stateMutability": "view",
      "type": "function"
    },
    {
      "constant": true,
      "inputs": [],
      "name": "getData",
      "outputs": [
        {
          "components": [
            {
              "name": "category",
              "type": "string"
            },
            {
              "name": "title_1",
              "type": "bytes32"
            },
            {
              "name": "title_2",
              "type": "bytes32"
            },
            {
              "name": "title_3",
              "type": "bytes32"
            },
            {
              "name": "descriptionHash_1",
              "type": "bytes32"
            },
            {
              "name": "descriptionHash_2",
              "type": "bytes32"
            },
            {
              "name": "fileHash_1",
              "type": "bytes32"
            },
            {
              "name": "fileHash_2",
              "type": "bytes32"
            },
            {
              "name": "initialBounty",
              "type": "uint256"
            },
            {
              "name": "entryFee",
              "type": "uint256"
            }
          ],
          "name": "_data",
          "type": "tuple"
        }
      ],
      "payable": false,
      "stateMutability": "view",
      "type": "function"
    },
    {
      "constant": true,
      "inputs": [
        {
          "name": "_roundAddress",
          "type": "address"
        }
      ],
      "name": "isRound",
      "outputs": [
        {
          "name": "_isRound",
          "type": "bool"
        }
      ],
      "payable": false,
      "stateMutability": "view",
      "type": "function"
    },
    {
      "constant": true,
      "inputs": [],
      "name": "getRounds",
      "outputs": [
        {
          "name": "_rounds",
          "type": "address[]"
        }
      ],
      "payable": false,
      "stateMutability": "view",
      "type": "function"
    },
    {
      "constant": true,
      "inputs": [],
      "name": "getTitle",
      "outputs": [
        {
          "name": "_title",
          "type": "bytes32[3]"
        }
      ],
      "payable": false,
      "stateMutability": "view",
      "type": "function"
    },
    {
      "constant": true,
      "inputs": [],
      "name": "getCategory",
      "outputs": [
        {
          "name": "_category",
          "type": "string"
        }
      ],
      "payable": false,
      "stateMutability": "view",
      "type": "function"
    },
    {
      "constant": true,
      "inputs": [],
      "name": "getOwner",
      "outputs": [
        {
          "name": "_owner",
          "type": "address"
        }
      ],
      "payable": false,
      "stateMutability": "view",
      "type": "function"
    },
    {
      "constant": true,
      "inputs": [],
      "name": "getDescriptionHash",
      "outputs": [
        {
          "name": "_descriptionHash",
          "type": "bytes32[2]"
        }
      ],
      "payable": false,
      "stateMutability": "view",
      "type": "function"
    },
    {
      "constant": true,
      "inputs": [],
      "name": "getFileHash",
      "outputs": [
        {
          "name": "_fileHash",
          "type": "bytes32[2]"
        }
      ],
      "payable": false,
      "stateMutability": "view",
      "type": "function"
    },
    {
      "constant": true,
      "inputs": [],
      "name": "currentRound",
      "outputs": [
        {
          "name": "_currentRound",
          "type": "uint256"
        },
        {
          "name": "_currentRoundAddress",
          "type": "address"
        }
      ],
      "payable": false,
      "stateMutability": "view",
      "type": "function"
    },
    {
      "constant": true,
      "inputs": [],
      "name": "getBounty",
      "outputs": [
        {
          "name": "_tournamentBounty",
          "type": "uint256"
        }
      ],
      "payable": false,
      "stateMutability": "view",
      "type": "function"
    },
    {
      "constant": true,
      "inputs": [],
      "name": "getBalance",
      "outputs": [
        {
          "name": "_tournamentBalance",
          "type": "uint256"
        }
      ],
      "payable": false,
      "stateMutability": "view",
      "type": "function"
    },
    {
      "constant": true,
      "inputs": [],
      "name": "mySubmissions",
      "outputs": [
        {
          "name": "",
          "type": "address[]"
        }
      ],
      "payable": false,
      "stateMutability": "view",
      "type": "function"
    },
    {
      "constant": true,
      "inputs": [],
      "name": "submissionCount",
      "outputs": [
        {
          "name": "_submissionCount",
          "type": "uint256"
        }
      ],
      "payable": false,
      "stateMutability": "view",
      "type": "function"
    },
    {
      "constant": true,
      "inputs": [],
      "name": "entrantCount",
      "outputs": [
        {
          "name": "_entrantCount",
          "type": "uint256"
        }
      ],
      "payable": false,
      "stateMutability": "view",
      "type": "function"
    },
    {
      "constant": false,
      "inputs": [
        {
          "components": [
            {
              "name": "title_1",
              "type": "bytes32"
            },
            {
              "name": "title_2",
              "type": "bytes32"
            },
            {
              "name": "title_3",
              "type": "bytes32"
            },
            {
              "name": "descriptionHash_1",
              "type": "bytes32"
            },
            {
              "name": "descriptionHash_2",
              "type": "bytes32"
            },
            {
              "name": "fileHash_1",
              "type": "bytes32"
            },
            {
              "name": "fileHash_2",
              "type": "bytes32"
            },
            {
              "name": "entryFee",
              "type": "uint256"
            },
            {
              "name": "entryFeeChanged",
              "type": "bool"
            }
          ],
          "name": "tournamentData",
          "type": "tuple"
        },
        {
          "name": "_category",
          "type": "string"
        }
      ],
      "name": "update",
      "outputs": [],
      "payable": false,
      "stateMutability": "nonpayable",
      "type": "function"
    },
    {
      "constant": false,
      "inputs": [
        {
          "name": "_fundsToAdd",
          "type": "uint256"
        }
      ],
      "name": "addFunds",
      "outputs": [],
      "payable": false,
      "stateMutability": "nonpayable",
      "type": "function"
    },
    {
      "constant": false,
      "inputs": [
        {
          "name": "_submissionAddresses",
          "type": "address[]"
        },
        {
          "name": "_rewardDistribution",
          "type": "uint256[]"
        },
        {
          "components": [
            {
              "name": "start",
              "type": "uint256"
            },
            {
              "name": "end",
              "type": "uint256"
            },
            {
              "name": "reviewPeriodDuration",
              "type": "uint256"
            },
            {
              "name": "bounty",
              "type": "uint256"
            }
          ],
          "name": "_roundData",
          "type": "tuple"
        },
        {
          "name": "_selectWinnerAction",
          "type": "uint256"
        }
      ],
      "name": "selectWinners",
      "outputs": [],
      "payable": false,
      "stateMutability": "nonpayable",
      "type": "function"
    },
    {
      "constant": false,
      "inputs": [
        {
          "components": [
            {
              "name": "start",
              "type": "uint256"
            },
            {
              "name": "end",
              "type": "uint256"
            },
            {
              "name": "reviewPeriodDuration",
              "type": "uint256"
            },
            {
              "name": "bounty",
              "type": "uint256"
            }
          ],
          "name": "_roundData",
          "type": "tuple"
        }
      ],
      "name": "editGhostRound",
      "outputs": [],
      "payable": false,
      "stateMutability": "nonpayable",
      "type": "function"
    },
    {
      "constant": false,
      "inputs": [
        {
          "name": "_mtxAllocation",
          "type": "uint256"
        }
      ],
      "name": "allocateMoreToRound",
      "outputs": [],
      "payable": false,
      "stateMutability": "nonpayable",
      "type": "function"
    },
    {
      "constant": false,
      "inputs": [],
      "name": "jumpToNextRound",
      "outputs": [],
      "payable": false,
      "stateMutability": "nonpayable",
      "type": "function"
    },
    {
      "constant": false,
      "inputs": [],
      "name": "stopTournament",
      "outputs": [],
      "payable": false,
      "stateMutability": "nonpayable",
      "type": "function"
    },
    {
      "constant": false,
      "inputs": [
        {
          "components": [
            {
              "name": "start",
              "type": "uint256"
            },
            {
              "name": "end",
              "type": "uint256"
            },
            {
              "name": "reviewPeriodDuration",
              "type": "uint256"
            },
            {
              "name": "bounty",
              "type": "uint256"
            }
          ],
          "name": "roundData",
          "type": "tuple"
        },
        {
          "name": "_automaticCreation",
          "type": "bool"
        }
      ],
      "name": "createRound",
      "outputs": [
        {
          "name": "_roundAddress",
          "type": "address"
        }
      ],
      "payable": false,
      "stateMutability": "nonpayable",
      "type": "function"
    },
    {
      "constant": false,
      "inputs": [
        {
          "name": "_roundIndex",
          "type": "uint256"
        },
        {
          "name": "_bountyMTX",
          "type": "uint256"
        }
      ],
      "name": "sendBountyToRound",
      "outputs": [],
      "payable": false,
      "stateMutability": "nonpayable",
      "type": "function"
    },
    {
      "constant": false,
      "inputs": [
        {
          "name": "_entrantAddress",
          "type": "address"
        }
      ],
      "name": "enterUserInTournament",
      "outputs": [
        {
          "name": "_success",
          "type": "bool"
        }
      ],
      "payable": false,
      "stateMutability": "nonpayable",
      "type": "function"
    },
    {
      "constant": true,
      "inputs": [],
      "name": "getEntryFee",
      "outputs": [
        {
          "name": "",
          "type": "uint256"
        }
      ],
      "payable": false,
      "stateMutability": "view",
      "type": "function"
    },
    {
      "constant": false,
      "inputs": [],
      "name": "collectMyEntryFee",
      "outputs": [],
      "payable": false,
      "stateMutability": "nonpayable",
      "type": "function"
    },
    {
      "constant": false,
      "inputs": [
        {
          "name": "_contributors",
          "type": "address[]"
        },
        {
          "name": "_contributorRewardDistribution",
          "type": "uint128[]"
        },
        {
          "name": "_references",
          "type": "address[]"
        },
        {
          "components": [
            {
              "name": "title",
              "type": "string"
            },
            {
              "name": "owner",
              "type": "address"
            },
            {
              "name": "descriptionHash",
              "type": "bytes"
            },
            {
              "name": "fileHash",
              "type": "bytes"
            },
            {
              "name": "isPublic",
              "type": "bool"
            }
          ],
          "name": "submissionData",
          "type": "tuple"
        }
      ],
      "name": "createSubmission",
      "outputs": [
        {
          "name": "_submissionAddress",
          "type": "address"
        }
      ],
      "payable": false,
      "stateMutability": "nonpayable",
      "type": "function"
    },
    {
      "constant": false,
      "inputs": [],
      "name": "withdrawFromAbandoned",
      "outputs": [],
      "payable": false,
      "stateMutability": "nonpayable",
      "type": "function"
    }
  ],
  "bytecode": "0x60806040523480156200001157600080fd5b5060405162003d5038038062003d50833981018060405262000037919081019062000582565b6000805460018054600160a060020a03888116600160a060020a0319928316179092556002805487841690831617905542600d5590841691811633171617905585518051879160039162000093918391602090910190620002a7565b5060208281015160018301556040830151600283015560608301516003808401919091556080840151600484015560a0840151600584015560c0840151600684015560e0840151600784015561010084015160088401556101209093015160099092019190915588516200010b92918a0190620002a7565b506200012285600064010000000062000130810204565b5050505050505050620007d9565b600080600160009054906101000a9004600160a060020a0316600160a060020a03166310fe9ae86040518163ffffffff167c0100000000000000000000000000000000000000000000000000000000028152600401602060405180830381600087803b158015620001a057600080fd5b505af1158015620001b5573d6000803e3d6000fd5b505050506040513d601f19601f82011682018060405250620001db919081019062000561565b6001546002546040517fcfa037dc00000000000000000000000000000000000000000000000000000000815292935073__LibTournamentAdminMethods_____________9263cfa037dc926200024b92600f92600160a060020a0392831692889216908b908b90600401620006e2565b60206040518083038186803b1580156200026457600080fd5b505af415801562000279573d6000803e3d6000fd5b505050506040513d601f19601f820116820180604052506200029f919081019062000561565b949350505050565b828054600181600116156101000203166002900490600052602060002090601f016020900481019282601f10620002ea57805160ff19168380011785556200031a565b828001600101855582156200031a579182015b828111156200031a578251825591602001919060010190620002fd565b50620003289291506200032c565b5090565b6200034991905b8082111562000328576000815560010162000333565b90565b60006200035a825162000799565b9392505050565b60006200035a825162000349565b6000601f820183136200038157600080fd5b815162000398620003928262000771565b6200074a565b91508082526020830160208301858383011115620003b557600080fd5b620003c2838284620007aa565b50505092915050565b600060808284031215620003de57600080fd5b620003ea60806200074a565b90506000620003fa848462000361565b82525060206200040d8484830162000361565b6020830152506040620004238482850162000361565b6040830152506060620004398482850162000361565b60608301525092915050565b600061014082840312156200045957600080fd5b620004666101406200074a565b82519091506001604060020a038111156200048057600080fd5b6200048e848285016200036f565b8252506020620004a18484830162000361565b6020830152506040620004b78482850162000361565b6040830152506060620004cd8482850162000361565b6060830152506080620004e38482850162000361565b60808301525060a0620004f98482850162000361565b60a08301525060c06200050f8482850162000361565b60c08301525060e0620005258482850162000361565b60e0830152506101006200053c8482850162000361565b61010083015250610120620005548482850162000361565b6101208301525092915050565b6000602082840312156200057457600080fd5b60006200029f84846200034c565b6000806000806000806000610140888a0312156200059f57600080fd5b87516001604060020a03811115620005b657600080fd5b620005c48a828b016200036f565b97505060208801516001604060020a03811115620005e157600080fd5b620005ef8a828b0162000445565b9650506040620006028a828b01620003cb565b95505060c0620006158a828b016200034c565b94505060e0620006288a828b016200034c565b9350506101006200063c8a828b016200034c565b925050610120620006508a828b016200034c565b91505092959891949750929550565b6200066a8162000799565b82525050565b6200066a81620007a5565b805160808301906200068e8482620006d7565b506020820151620006a36020850182620006d7565b506040820151620006b86040850182620006d7565b506060820151620006cd6060850182620006d7565b50505050565b9052565b6200066a8162000349565b6101208101620006f38289620006d3565b6200070260208301886200065f565b6200071160408301876200065f565b6200072060608301866200065f565b6200072f60808301856200067b565b6200073f61010083018462000670565b979650505050505050565b6040518181016001604060020a03811182821017156200076957600080fd5b604052919050565b60006001604060020a038211156200078857600080fd5b506020601f91909101601f19160190565b600160a060020a031690565b151590565b60005b83811015620007c7578181015183820152602001620007ad565b83811115620006cd5750506000910152565b61356780620007e96000396000f3006080604052600436106101f85763ffffffff7c0100000000000000000000000000000000000000000000000000000000600035041663072a456081146101fd57806310fe9ae81461021f57806312065fe01461024a5780631865c57d1461026c57806323721e2414610281578063245edf06146102a157806328d576d7146102c35780632f54bf6e146102f05780632fc1f190146103105780633809eba2146103255780633bc5de3014610345578063447411f31461036757806345df19451461037c5780634644c51b1461039157806352c01fab146103b1578063542fe6c2146103d15780636984d070146103e65780636ec02be9146104085780636fe564201461041d57806380258e47146104325780638493f71f14610454578063893d20e81461046957806389f3beb61461047e5780638a19c8bc146104935780638a5989d2146104b65780638c1fc0bb146104d65780638da5cb5b146104f6578063934b5fee1461050b5780639baec2071461052b578063a968c4b914610540578063b6cd26db14610560578063be99970514610580578063c2f897bf146105a0578063d3de0a6d146105b5578063dbe55e56146105d5578063e139a20c146105ea578063e586a4f0146105ff578063f1653f6e14610614578063f2fde38b14610629578063f49bff7b14610649578063ff3c1a8f1461065e575b600080fd5b34801561020957600080fd5b5061021d610218366004612b68565b610680565b005b34801561022b57600080fd5b506102346107ef565b6040516102419190613065565b60405180910390f35b34801561025657600080fd5b5061025f610898565b60405161024191906133ca565b34801561027857600080fd5b5061025f610a19565b34801561028d57600080fd5b5061021d61029c366004612bd4565b610abd565b3480156102ad57600080fd5b506102b6610c8d565b60405161024191906130c7565b3480156102cf57600080fd5b506102e36102de3660046128f8565b610cb3565b60405161024191906130e3565b3480156102fc57600080fd5b506102e361030b3660046128f8565b610d9d565b34801561031c57600080fd5b50610234610dbe565b34801561033157600080fd5b50610234610340366004612aee565b610dda565b34801561035157600080fd5b5061035a610e09565b604051610241919061333c565b34801561037357600080fd5b5061025f610f12565b34801561038857600080fd5b5061021d610f18565b34801561039d57600080fd5b5061021d6103ac3660046128f8565b611048565b3480156103bd57600080fd5b506102e36103cc3660046128f8565b6110ab565b3480156103dd57600080fd5b5061021d6110d6565b3480156103f257600080fd5b506103fb61120c565b60405161024191906130b6565b34801561041457600080fd5b5061025f61127e565b34801561042957600080fd5b50610234611284565b34801561043e57600080fd5b506104476112a0565b6040516102419190613159565b34801561046057600080fd5b506102b661132d565b34801561047557600080fd5b5061023461134d565b34801561048a57600080fd5b5061025f611369565b34801561049f57600080fd5b506104a861136f565b6040516102419291906133d8565b3480156104c257600080fd5b506102346104d136600461296e565b61141d565b3480156104e257600080fd5b506102e36104f13660046128f8565b61173a565b34801561050257600080fd5b50610234611765565b34801561051757600080fd5b5061021d610526366004612a2e565b611781565b34801561053757600080fd5b5061021d611913565b34801561054c57600080fd5b506102e361055b366004612934565b611a66565b34801561056c57600080fd5b5061021d61057b366004612b1e565b611bc4565b34801561058c57600080fd5b5061021d61059b366004612b68565b611c59565b3480156105ac57600080fd5b5061021d611e34565b3480156105c157600080fd5b5061021d6105d0366004612ad0565b611edb565b3480156105e157600080fd5b50610234612016565b3480156105f657600080fd5b506103fb612032565b34801561060b57600080fd5b5061025f6120b1565b34801561062057600080fd5b5061025f6120b7565b34801561063557600080fd5b5061021d6106443660046128f8565b6120bd565b34801561065557600080fd5b5061025f61214a565b34801561066a57600080fd5b5061067361227b565b60405161024191906130d5565b6000805473ffffffffffffffffffffffffffffffffffffffff1633146106a557600080fd5b600160009054906101000a900473ffffffffffffffffffffffffffffffffffffffff1673ffffffffffffffffffffffffffffffffffffffff166310fe9ae86040518163ffffffff167c0100000000000000000000000000000000000000000000000000000000028152600401602060405180830381600087803b15801561072b57600080fd5b505af115801561073f573d6000803e3d6000fd5b505050506040513d601f19601f820116820180604052506107639190810190612916565b6040517f5fd45f0b00000000000000000000000000000000000000000000000000000000815290915073__LibTournamentAdminMethods_____________90635fd45f0b906107bb90600f9086908690600401613321565b60006040518083038186803b1580156107d357600080fd5b505af41580156107e7573d6000803e3d6000fd5b505050505050565b600154604080517f10fe9ae8000000000000000000000000000000000000000000000000000000008152905160009273ffffffffffffffffffffffffffffffffffffffff16916310fe9ae891600480830192602092919082900301818787803b15801561085b57600080fd5b505af115801561086f573d6000803e3d6000fd5b505050506040513d601f19601f820116820180604052506108939190810190612916565b905090565b600080600160009054906101000a900473ffffffffffffffffffffffffffffffffffffffff1673ffffffffffffffffffffffffffffffffffffffff166310fe9ae86040518163ffffffff167c0100000000000000000000000000000000000000000000000000000000028152600401602060405180830381600087803b15801561092157600080fd5b505af1158015610935573d6000803e3d6000fd5b505050506040513d601f19601f820116820180604052506109599190810190612916565b6011546040517f70a08231000000000000000000000000000000000000000000000000000000008152919250610a139173ffffffffffffffffffffffffffffffffffffffff8416906370a08231906109b5903090600401613065565b602060405180830381600087803b1580156109cf57600080fd5b505af11580156109e3573d6000803e3d6000fd5b505050506040513d601f19601f82011682018060405250610a079190810190612b86565b9063ffffffff6122a316565b91505090565b6040517f5726b16f00000000000000000000000000000000000000000000000000000000815260009073__LibTournamentStateManagement__________90635726b16f90610a6d90600f9060040161316a565b60206040518083038186803b158015610a8557600080fd5b505af4158015610a99573d6000803e3d6000fd5b505050506040513d601f19601f820116820180604052506108939190810190612b86565b60015460009073ffffffffffffffffffffffffffffffffffffffff163314610ae457600080fd5b601254610af7908363ffffffff6122b516565b601255600154604080517f10fe9ae8000000000000000000000000000000000000000000000000000000008152905173ffffffffffffffffffffffffffffffffffffffff909216916310fe9ae8916004808201926020929091908290030181600087803b158015610b6757600080fd5b505af1158015610b7b573d6000803e3d6000fd5b505050506040513d601f19601f82011682018060405250610b9f9190810190612916565b90508073ffffffffffffffffffffffffffffffffffffffff1663a9059cbb600f60000185815481101515610bcf57fe5b6000918252602090912001546040517c010000000000000000000000000000000000000000000000000000000063ffffffff8416028152610c2b9173ffffffffffffffffffffffffffffffffffffffff1690869060040161309b565b602060405180830381600087803b158015610c4557600080fd5b505af1158015610c59573d6000803e3d6000fd5b505050506040513d601f19601f82011682018060405250610c7d9190810190612ab2565b1515610c8857600080fd5b505050565b610c95612458565b610c9d612458565b60075481526008548160015b6020020152905090565b60015460009073ffffffffffffffffffffffffffffffffffffffff163314610cda57600080fd5b6002610ce4610a19565b14610cee57600080fd5b6040517fa09c5c9900000000000000000000000000000000000000000000000000000000815273__LibTournamentEntrantMethods___________9063a09c5c9990610d4790600390600f906014908890600401613395565b60206040518083038186803b158015610d5f57600080fd5b505af4158015610d73573d6000803e3d6000fd5b505050506040513d601f19601f82011682018060405250610d979190810190612ab2565b92915050565b60005473ffffffffffffffffffffffffffffffffffffffff91821691161490565b60015473ffffffffffffffffffffffffffffffffffffffff1690565b3360009081526010602052604081205460ff161515610df857600080fd5b610e0283836122c4565b9392505050565b610e11612473565b60408051600380546101606020601f600260001961010060018716150201909416939093049283018190040284018101909452610140830181815292939192849290918491840182828015610ea75780601f10610e7c57610100808354040283529160200191610ea7565b820191906000526020600020905b815481529060010190602001808311610e8a57829003601f168201915b505050918352505060018201546020820152600282015460408201526003820154606082015260048201546080820152600582015460a0820152600682015460c0820152600782015460e0820152600882015461010082015260099091015461012090910152905090565b600e5481565b600154604080517f10fe9ae8000000000000000000000000000000000000000000000000000000008152905160009273ffffffffffffffffffffffffffffffffffffffff16916310fe9ae891600480830192602092919082900301818787803b158015610f8457600080fd5b505af1158015610f98573d6000803e3d6000fd5b505050506040513d601f19601f82011682018060405250610fbc9190810190612916565b6040517f734e4a1600000000000000000000000000000000000000000000000000000000815290915073__LibTournamentEntrantMethods___________9063734e4a169061101590600f906014908690600401613268565b60006040518083038186803b15801561102d57600080fd5b505af4158015611041573d6000803e3d6000fd5b5050505050565b3360009081526010602052604090205460ff16151561106657600080fd5b600f546040517f5fbb3d346317d5ecdb86412d4c69c7503ff4dbed1eccd4cb6290453ea0b1a322916110a0916000199091019084906133d8565b60405180910390a150565b73ffffffffffffffffffffffffffffffffffffffff1660009081526018602052604090205460ff1690565b3360009081526018602052604081205460ff168015156110f557600080fd5b600160009054906101000a900473ffffffffffffffffffffffffffffffffffffffff1673ffffffffffffffffffffffffffffffffffffffff166310fe9ae86040518163ffffffff167c0100000000000000000000000000000000000000000000000000000000028152600401602060405180830381600087803b15801561117b57600080fd5b505af115801561118f573d6000803e3d6000fd5b505050506040513d601f19601f820116820180604052506111b39190810190612916565b6040517fddc23bd000000000000000000000000000000000000000000000000000000000815290925073__LibTournamentEntrantMethods___________9063ddc23bd0906107bb90600f906014908790600401613268565b6060600f60000180548060200260200160405190810160405280929190818152602001828054801561127457602002820191906000526020600020905b815473ffffffffffffffffffffffffffffffffffffffff168152600190910190602001808311611249575b5050505050905090565b60155490565b60025473ffffffffffffffffffffffffffffffffffffffff1681565b60038054604080516020601f60026000196101006001881615020190951694909404938401819004810282018101909252828152606093909290918301828280156112745780601f1061130157610100808354040283529160200191611274565b820191906000526020600020905b81548152906001019060200180831161130f57509395945050505050565b611335612458565b61133d612458565b6009548152600a54816001610ca9565b60005473ffffffffffffffffffffffffffffffffffffffff1690565b60195490565b60008073__LibTournamentStateManagement__________630386922b600f6040518263ffffffff167c01000000000000000000000000000000000000000000000000000000000281526004016113c6919061316a565b604080518083038186803b1580156113dd57600080fd5b505af41580156113f1573d6000803e3d6000fd5b505050506040513d601f19601f820116820180604052506114159190810190612ba4565b915091509091565b3360009081526018602052604081205460ff1680151561143c57600080fd5b6001546040517f532311c4000000000000000000000000000000000000000000000000000000008152339173ffffffffffffffffffffffffffffffffffffffff1690819063532311c490611494908590600401613065565b602060405180830381600087803b1580156114ae57600080fd5b505af11580156114c2573d6000803e3d6000fd5b505050506040513d601f19601f820116820180604052506114e69190810190612ab2565b15156114f157600080fd5b60006114fb61136f565b9150600190508173ffffffffffffffffffffffffffffffffffffffff16631865c57d6040518163ffffffff167c0100000000000000000000000000000000000000000000000000000000028152600401602060405180830381600087803b15801561156557600080fd5b505af1158015611579573d6000803e3d6000fd5b505050506040513d601f19601f8201168201806040525061159d9190810190612b86565b14156115a857600080fd5b60026115b2610a19565b146115bc57600080fd5b60155415156116675760015460048054600554600654600754600854600b54600c546040517f201afb7600000000000000000000000000000000000000000000000000000000815273ffffffffffffffffffffffffffffffffffffffff9099169863201afb76986116349897969594939291016130f1565b600060405180830381600087803b15801561164e57600080fd5b505af1158015611662573d6000803e3d6000fd5b505050505b6001546040517f3a9ed3e300000000000000000000000000000000000000000000000000000000815273__LibTournamentEntrantMethods___________91633a9ed3e3916116dd91600f9160149173ffffffffffffffffffffffffffffffffffffffff16908f908f908f908f90600401613283565b60206040518083038186803b1580156116f557600080fd5b505af4158015611709573d6000803e3d6000fd5b505050506040513d601f19601f8201168201806040525061172d9190810190612916565b9998505050505050505050565b73ffffffffffffffffffffffffffffffffffffffff1660009081526010602052604090205460ff1690565b60005473ffffffffffffffffffffffffffffffffffffffff1681565b6000805473ffffffffffffffffffffffffffffffffffffffff1633146117a657600080fd5b600160009054906101000a900473ffffffffffffffffffffffffffffffffffffffff1673ffffffffffffffffffffffffffffffffffffffff166310fe9ae86040518163ffffffff167c0100000000000000000000000000000000000000000000000000000000028152600401602060405180830381600087803b15801561182c57600080fd5b505af1158015611840573d6000803e3d6000fd5b505050506040513d601f19601f820116820180604052506118649190810190612916565b6001546040517f5014b85100000000000000000000000000000000000000000000000000000000815291925073__LibTournamentAdminMethods_____________91635014b851916118dc91600f9173ffffffffffffffffffffffffffffffffffffffff169086908b908b908b908b906004016131fc565b60006040518083038186803b1580156118f457600080fd5b505af4158015611908573d6000803e3d6000fd5b505050505050505050565b6000805473ffffffffffffffffffffffffffffffffffffffff16331461193857600080fd5b600160009054906101000a900473ffffffffffffffffffffffffffffffffffffffff1673ffffffffffffffffffffffffffffffffffffffff166310fe9ae86040518163ffffffff167c0100000000000000000000000000000000000000000000000000000000028152600401602060405180830381600087803b1580156119be57600080fd5b505af11580156119d2573d6000803e3d6000fd5b505050506040513d601f19601f820116820180604052506119f69190810190612916565b6001546040517fa91d59d600000000000000000000000000000000000000000000000000000000815291925073__LibTournamentAdminMethods_____________9163a91d59d69161101591600f9173ffffffffffffffffffffffffffffffffffffffff16908690600401613178565b60015460009073ffffffffffffffffffffffffffffffffffffffff163314611a8d57600080fd5b73ffffffffffffffffffffffffffffffffffffffff80831660009081526017602090815260408083209387168352929052205460ff161515611ace57600080fd5b601554611ae290600163ffffffff6122a316565b60155573ffffffffffffffffffffffffffffffffffffffff80831660009081526016602090815260408083206017835281842094881684529390915290206001015481548110611b2e57fe5b6000918252602080832090910180547fffffffffffffffffffffffff000000000000000000000000000000000000000016905573ffffffffffffffffffffffffffffffffffffffff848116835260178252604080842091871684529152812080547fffffffffffffffffffffffffffffffffffffffffffffffffffffffffffffff00168155600190810191909155905092915050565b60005473ffffffffffffffffffffffffffffffffffffffff163314611be857600080fd5b6001546040517f45fbeca000000000000000000000000000000000000000000000000000000000815273__LibTournamentAdminMethods_____________916345fbeca0916107bb916003918791879173ffffffffffffffffffffffffffffffffffffffff9091169060040161334d565b6000803073ffffffffffffffffffffffffffffffffffffffff16631865c57d6040518163ffffffff167c0100000000000000000000000000000000000000000000000000000000028152600401602060405180830381600087803b158015611cc057600080fd5b505af1158015611cd4573d6000803e3d6000fd5b505050506040513d601f19601f82011682018060405250611cf89190810190612b86565b9150811580611d075750600282145b80611d125750600182145b1515611d1d57600080fd5b600160009054906101000a900473ffffffffffffffffffffffffffffffffffffffff1673ffffffffffffffffffffffffffffffffffffffff166310fe9ae86040518163ffffffff167c0100000000000000000000000000000000000000000000000000000000028152600401602060405180830381600087803b158015611da357600080fd5b505af1158015611db7573d6000803e3d6000fd5b505050506040513d601f19601f82011682018060405250611ddb9190810190612916565b6040517f23b872dd00000000000000000000000000000000000000000000000000000000815290915073ffffffffffffffffffffffffffffffffffffffff8216906323b872dd90610c2b90339030908890600401613073565b60005473ffffffffffffffffffffffffffffffffffffffff163314611e5857600080fd5b6040517faf41094900000000000000000000000000000000000000000000000000000000815273__LibTournamentAdminMethods_____________9063af41094990611ea990600f9060040161316a565b60006040518083038186803b158015611ec157600080fd5b505af4158015611ed5573d6000803e3d6000fd5b50505050565b6000805473ffffffffffffffffffffffffffffffffffffffff163314611f0057600080fd5b600160009054906101000a900473ffffffffffffffffffffffffffffffffffffffff1673ffffffffffffffffffffffffffffffffffffffff166310fe9ae86040518163ffffffff167c0100000000000000000000000000000000000000000000000000000000028152600401602060405180830381600087803b158015611f8657600080fd5b505af1158015611f9a573d6000803e3d6000fd5b505050506040513d601f19601f82011682018060405250611fbe9190810190612916565b6040517f672ec62300000000000000000000000000000000000000000000000000000000815290915073__LibTournamentAdminMethods_____________9063672ec623906107bb90600f90869086906004016132f9565b60015473ffffffffffffffffffffffffffffffffffffffff1681565b3360009081526016602090815260409182902080548351818402810184019094528084526060938493909291908301828280156120a557602002820191906000526020600020905b815473ffffffffffffffffffffffffffffffffffffffff16815260019091019060200180831161207a575b50939695505050505050565b600c5490565b600d5481565b60005473ffffffffffffffffffffffffffffffffffffffff1633146120e157600080fd5b73ffffffffffffffffffffffffffffffffffffffff8116151561210357600080fd5b600080547fffffffffffffffffffffffff00000000000000000000000000000000000000001673ffffffffffffffffffffffffffffffffffffffff92909216919091179055565b600080600160009054906101000a900473ffffffffffffffffffffffffffffffffffffffff1673ffffffffffffffffffffffffffffffffffffffff166310fe9ae86040518163ffffffff167c0100000000000000000000000000000000000000000000000000000000028152600401602060405180830381600087803b1580156121d357600080fd5b505af11580156121e7573d6000803e3d6000fd5b505050506040513d601f19601f8201168201806040525061220b9190810190612916565b6012546011546040517f70a08231000000000000000000000000000000000000000000000000000000008152929350610a139261226f919073ffffffffffffffffffffffffffffffffffffffff8616906370a08231906109b5903090600401613065565b9063ffffffff6122b516565b6122836124c7565b61228b6124c7565b60045481526005546020820152600654816002610ca9565b6000828211156122af57fe5b50900390565b600082820183811015610e0257fe5b600080600160009054906101000a900473ffffffffffffffffffffffffffffffffffffffff1673ffffffffffffffffffffffffffffffffffffffff166310fe9ae86040518163ffffffff167c0100000000000000000000000000000000000000000000000000000000028152600401602060405180830381600087803b15801561234d57600080fd5b505af1158015612361573d6000803e3d6000fd5b505050506040513d601f19601f820116820180604052506123859190810190612916565b6001546002546040517fcfa037dc00000000000000000000000000000000000000000000000000000000815292935073__LibTournamentAdminMethods_____________9263cfa037dc9261240092600f9273ffffffffffffffffffffffffffffffffffffffff92831692889216908b908b906004016131a0565b60206040518083038186803b15801561241857600080fd5b505af415801561242c573d6000803e3d6000fd5b505050506040513d601f19601f820116820180604052506124509190810190612916565b949350505050565b60408051808201825290600290829080388339509192915050565b6040805161014081018252606080825260006020830181905292820183905281018290526080810182905260a0810182905260c0810182905260e08101829052610100810182905261012081019190915290565b6060604051908101604052806003906020820280388339509192915050565b6000610e02823561349a565b6000610e02825161349a565b6000601f8201831361250f57600080fd5b813561252261251d8261341a565b6133f3565b9150818183526020840193506020810190508385602084028201111561254757600080fd5b60005b83811015612573578161255d88826124e6565b845250602092830192919091019060010161254a565b5050505092915050565b6000601f8201831361258e57600080fd5b813561259c61251d8261341a565b915081818352602084019350602081019050838560208402820111156125c157600080fd5b60005b8381101561257357816125d788826128e0565b84525060209283019291909101906001016125c4565b6000601f820183136125fe57600080fd5b813561260c61251d8261341a565b9150818183526020840193506020810190508385602084028201111561263157600080fd5b60005b8381101561257357816126478882612675565b8452506020928301929190910190600101612634565b6000610e0282356134b3565b6000610e0282516134b3565b6000610e028235613487565b6000601f8201831361269257600080fd5b81356126a061251d8261343b565b915080825260208301602083018583830111156126bc57600080fd5b6126c78382846134cd565b50505092915050565b6000608082840312156126e257600080fd5b6126ec60806133f3565b905060006126fa8484612675565b825250602061270b84848301612675565b602083015250604061271f84828501612675565b604083015250606061273384828501612675565b60608301525092915050565b600060a0828403121561275157600080fd5b61275b60a06133f3565b9050813567ffffffffffffffff81111561277457600080fd5b61278084828501612681565b8252506020612791848483016124e6565b602083015250604082013567ffffffffffffffff8111156127b157600080fd5b6127bd84828501612681565b604083015250606082013567ffffffffffffffff8111156127dd57600080fd5b6127e984828501612681565b60608301525060806127fd8482850161265d565b60808301525092915050565b6000610120828403121561281c57600080fd5b6128276101206133f3565b905060006128358484612675565b825250602061284684848301612675565b602083015250604061285a84828501612675565b604083015250606061286e84828501612675565b606083015250608061288284828501612675565b60808301525060a061289684828501612675565b60a08301525060c06128aa84828501612675565b60c08301525060e06128be84828501612675565b60e0830152506101006128d38482850161265d565b6101008301525092915050565b6000610e0282356134b8565b6000610e028251613487565b60006020828403121561290a57600080fd5b600061245084846124e6565b60006020828403121561292857600080fd5b600061245084846124f2565b6000806040838503121561294757600080fd5b600061295385856124e6565b9250506020612964858286016124e6565b9150509250929050565b6000806000806080858703121561298457600080fd5b843567ffffffffffffffff81111561299b57600080fd5b6129a7878288016124fe565b945050602085013567ffffffffffffffff8111156129c457600080fd5b6129d08782880161257d565b935050604085013567ffffffffffffffff8111156129ed57600080fd5b6129f9878288016124fe565b925050606085013567ffffffffffffffff811115612a1657600080fd5b612a228782880161273f565b91505092959194509250565b60008060008060e08587031215612a4457600080fd5b843567ffffffffffffffff811115612a5b57600080fd5b612a67878288016124fe565b945050602085013567ffffffffffffffff811115612a8457600080fd5b612a90878288016125ed565b9350506040612aa1878288016126d0565b92505060c0612a2287828801612675565b600060208284031215612ac457600080fd5b60006124508484612669565b600060808284031215612ae257600080fd5b600061245084846126d0565b60008060a08385031215612b0157600080fd5b6000612b0d85856126d0565b92505060806129648582860161265d565b6000806101408385031215612b3257600080fd5b6000612b3e8585612809565b92505061012083013567ffffffffffffffff811115612b5c57600080fd5b61296485828601612681565b600060208284031215612b7a57600080fd5b60006124508484612675565b600060208284031215612b9857600080fd5b600061245084846128ec565b60008060408385031215612bb757600080fd5b6000612bc385856128ec565b9250506020612964858286016124f2565b60008060408385031215612be757600080fd5b6000612bf38585612675565b925050602061296485828601612675565b612c0d8161349a565b82525050565b6000612c1e8261348a565b808452602084019350612c3083613481565b60005b82811015612c6057612c46868351612c04565b612c4f82613481565b602096909601959150600101612c33565b5093949350505050565b6000612c758261348a565b808452602084019350612c8783613481565b60005b82811015612c6057612c9d868351612c04565b612ca682613481565b602096909601959150600101612c8a565b612cc08161348e565b612cc982613487565b60005b8281101561104157612cdf858351612dde565b612ce882613481565b602095909501949150600101612ccc565b612d0281613494565b612d0b82613487565b60005b8281101561104157612d21858351612dde565b612d2a82613481565b602095909501949150600101612d0e565b6000612d468261348a565b808452602084019350612d5883613481565b60005b82811015612c6057612d6e86835161305c565b612d7782613481565b602096909601959150600101612d5b565b6000612d938261348a565b808452602084019350612da583613481565b60005b82811015612c6057612dbb868351612dde565b612dc482613481565b602096909601959150600101612da8565b612c0d816134b3565b612c0d81613487565b6000612df28261348a565b808452612e068160208601602086016134d9565b612e0f81613505565b9093016020019392505050565b9052565b80516080830190612e318482612dde565b506020820151612e446020850182612dde565b506040820151612e576040850182612dde565b506060820151611ed56060850182612dde565b805160a080845260009190840190612e828282612de7565b9150506020830151612e976020860182612c04565b5060408301518482036040860152612eaf8282612de7565b91505060608301518482036060860152612ec98282612de7565b9150506080830151612ede6080860182612dd5565b509392505050565b805161014080845260009190840190612eff8282612de7565b9150506020830151612f146020860182612dde565b506040830151612f276040860182612dde565b506060830151612f3a6060860182612dde565b506080830151612f4d6080860182612dde565b5060a0830151612f6060a0860182612dde565b5060c0830151612f7360c0860182612dde565b5060e0830151612f8660e0860182612dde565b50610100830151612f9b610100860182612dde565b50610120830151612ede610120860182612dde565b8051610120830190612fc28482612dde565b506020820151612fd56020850182612dde565b506040820151612fe86040850182612dde565b506060820151612ffb6060850182612dde565b50608082015161300e6080850182612dde565b5060a082015161302160a0850182612dde565b5060c082015161303460c0850182612dde565b5060e082015161304760e0850182612dde565b50610100820151611ed5610100850182612dd5565b612c0d816134b8565b60208101610d978284612c04565b606081016130818286612c04565b61308e6020830185612c04565b6124506040830184612dde565b604081016130a98285612c04565b610e026020830184612dde565b60208082528101610e028184612c13565b60408101610d978284612cb7565b60608101610d978284612cf9565b60208101610d978284612dd5565b60e081016130ff828a612dde565b61310c6020830189612dde565b6131196040830188612dde565b6131266060830187612dde565b6131336080830186612dde565b61314060a0830185612dde565b61314d60c0830184612dde565b98975050505050505050565b60208082528101610e028184612de7565b60208101610d978284612e1c565b606081016131868286612e1c565b6131936020830185612c04565b6124506040830184612c04565b61012081016131af8289612e1c565b6131bc6020830188612c04565b6131c96040830187612c04565b6131d66060830186612c04565b6131e36080830185612e20565b6131f1610100830184612dd5565b979650505050505050565b610140810161320b828a612e1c565b6132186020830189612c04565b6132256040830188612c04565b81810360608301526132378187612c6a565b9050818103608083015261324b8186612d88565b905061325a60a0830185612e20565b61314d610120830184612dde565b606081016132768286612e1c565b6131936020830185612e1c565b60e08101613291828a612e1c565b61329e6020830189612e1c565b6132ab6040830188612c04565b81810360608301526132bd8187612c6a565b905081810360808301526132d18186612d3b565b905081810360a08301526132e58185612c6a565b905081810360c083015261172d8184612e6a565b60c081016133078286612e1c565b6133146020830185612e20565b61245060a0830184612c04565b6060810161332f8286612e1c565b6131936020830185612dde565b60208082528101610e028184612ee6565b610180810161335c8287612e1c565b6133696020830186612fb0565b81810361014083015261337c8185612de7565b905061338c610160830184612c04565b95945050505050565b608081016133a38287612e1c565b6133b06020830186612e1c565b6133bd6040830185612e1c565b61338c6060830184612c04565b60208101610d978284612dde565b604081016133e68285612dde565b610e026020830184612c04565b60405181810167ffffffffffffffff8111828210171561341257600080fd5b604052919050565b600067ffffffffffffffff82111561343157600080fd5b5060209081020190565b600067ffffffffffffffff82111561345257600080fd5b506020601f919091017fffffffffffffffffffffffffffffffffffffffffffffffffffffffffffffffe0160190565b60200190565b90565b5190565b50600290565b50600390565b73ffffffffffffffffffffffffffffffffffffffff1690565b151590565b6fffffffffffffffffffffffffffffffff1690565b82818337506000910152565b60005b838110156134f45781810151838201526020016134dc565b83811115611ed55750506000910152565b601f017fffffffffffffffffffffffffffffffffffffffffffffffffffffffffffffffe016905600a265627a7a72305820defe5e8884bb102985c96168b4c7c2e59a25e6e58b49d0625d700edd41b9fb176c6578706572696d656e74616cf50037",
  "source": " pragma solidity ^0.4.18;\n pragma experimental ABIEncoderV2;\n\nimport \"../libraries/strings/strings.sol\";\nimport \"../libraries/math/SafeMath.sol\";\nimport \"../libraries/LibConstruction.sol\";\n//import \"../libraries/interfaces/tournament/iLibTournamentStateManagement.sol\";\nimport \"../libraries/tournament/LibTournamentStateManagement.sol\";\nimport \"../libraries/tournament/LibTournamentAdminMethods.sol\";\nimport \"../libraries/tournament/LibTournamentEntrantMethods.sol\";\nimport \"../interfaces/IMatryxPlatform.sol\";\nimport \"../interfaces/IMatryxTournament.sol\";\nimport \"../interfaces/factories/IMatryxRoundFactory.sol\";\nimport \"../interfaces/IMatryxRound.sol\";\nimport \"../interfaces/IMatryxToken.sol\";\nimport \"./Ownable.sol\";\n\n/// @title Tournament - The Matryx tournament.\n/// @author Max Howard - <max@nanome.ai>, Sam Hessenauer - <sam@nanome.ai>\ncontract MatryxTournament is Ownable, IMatryxTournament {\n    using SafeMath for uint256;\n    using strings for *;\n    using LibTournamentAdminMethods for LibConstruction.TournamentData;\n\n    // TODO: condense and put in structs\n    // Platform identification\n    address public platformAddress;\n    address public matryxRoundFactoryAddress;\n\n    // TODO: Create setter for this (resume here for upgrade system.)\n    // address public libTournamentStateManagement;\n\n    //Tournament identification\n    LibConstruction.TournamentData data;\n    // Timing and State\n    uint256 public timeCreated;\n    uint256 public tournamentOpenedTime;\n    LibTournamentStateManagement.StateData stateData;\n    // Submission tracking\n    LibTournamentStateManagement.EntryData entryData;\n\n    // address roundDelegate;\n    // bytes4 fnSelector_chooseWinner = bytes4(keccak256(\"chooseWinner(address)\"));\n    // bytes4 fnSelector_createRound = bytes4(keccak256(\"createRound(uint256)\"));\n    // bytes4 fnSelector_startRound = bytes4(keccak256(\"startRound(uint256)\"));\n\n    constructor(string _category, LibConstruction.TournamentData tournamentData, LibConstruction.RoundData roundData, address _platformAddress, address _matryxTokenAddress, address _matryxRoundFactoryAddress, address _owner) \n    {\n        //Clean inputs\n        //require(_owner != 0x0);\n        //require(tournamentData.title[0] != 0x0);\n        //require(tournamentData.Bounty > 0);\n        //require(_matryxRoundFactoryAddress != 0x0);\n        \n        platformAddress = _platformAddress;\n        matryxRoundFactoryAddress = _matryxRoundFactoryAddress;\n\n        timeCreated = now;\n        // Identification\n        owner = _owner;\n        data = tournamentData;\n        data.category = _category;\n\n        _createRound(roundData, false);\n        // roundDelegate = IMatryxPlatform(platformAddress).getRoundLibAddress();\n    }\n\n    /*\n     * Structs\n     */\n\n    struct uint256_optional\n    {\n        bool exists;\n        uint256 value;\n    }\n\n    struct SubmissionLocation\n    {\n        uint256 roundIndex;\n        uint256 submissionIndex;\n    }\n\n    /*\n     * Events\n     */\n\n    event NewRound(uint256 _startTime, uint256 _endTime, uint256 _reviewPeriodDuration, address _roundAddress, uint256 _roundNumber);\n    //event RoundStarted(uint256 _roundIndex);\n    // Fired at the end of every round, one time per submission created in that round\n    event SubmissionCreated(uint256 _roundIndex, address _submissionAddress);\n    event RoundWinnersChosen(address[] _submissionAddresses);\n\n    /// @dev Allows rounds to invoke SubmissionCreated events on this tournament.\n    /// @param _submissionAddress Address of the submission.\n    function invokeSubmissionCreatedEvent(address _submissionAddress) public onlyRound\n    {\n        emit SubmissionCreated(stateData.rounds.length-1, _submissionAddress);\n    }\n\n    /*\n     * Modifiers\n     */\n\n    /// @dev Requires the function caller to be the platform.\n    modifier onlyPlatform()\n    {\n        require(msg.sender == platformAddress);\n        _;\n    }\n\n    modifier onlyRound()\n    {\n        require(stateData.isRound[msg.sender]);\n        _;\n    }\n\n    // modifier onlySubmission(address _submissionAddress, address _author)\n    // {\n    //     // If the submission does not exist,\n    //     // the address of the submission we return will not be msg.sender\n    //     // It will either be \n    //     // 1) The first submission, or\n    //     // 2) all 0s from having deleted it previously.\n    //     uint256 indexOfSubmission = entrantToSubmissionToSubmissionIndex[_author][_submissionAddress].value;\n    //     address submissionAddress = entrantToSubmissions[_author][indexOfSubmission];\n    //     require(_submissionAddress == msg.sender);\n    //     _;\n    // }\n\n    modifier onlyPeerLinked(address _sender)\n    {\n        IMatryxPlatform platform = IMatryxPlatform(platformAddress);\n        require(platform.hasPeer(_sender));\n        _;\n    }\n\n    /// @dev Requires the function caller to be an entrant.\n    modifier onlyEntrant()\n    {\n        bool senderIsEntrant = entryData.addressToEntryFeePaid[msg.sender].exists;\n        require(senderIsEntrant);\n        _;\n    }\n\n    /// @dev Requires the function caller to be the platform or the owner of this tournament\n    modifier platformOrOwner()\n    {\n        require((msg.sender == platformAddress)||(msg.sender == owner));\n        _;\n    }\n\n    modifier whileTournamentOpen()\n    {\n        require(getState() == uint256(TournamentState.Open));\n        _;\n    }\n\n    modifier ifRoundHasFunds()\n    {\n        // require((IMatryxRound(currentRound()[1]).getState()) != uint256(RoundState.Unfunded));\n        address currentRoundAddress;\n\n        (,currentRoundAddress) = currentRound();\n        require(IMatryxRound(currentRoundAddress).getState() != uint256(RoundState.Unfunded));\n        _;\n    }\n\n    modifier onlyOwner()\n    {\n        require(msg.sender == owner);\n        _;\n    }\n\n    // /// @dev Requires the tournament to be open.\n    // modifier duringReviewPeriod()\n    // {\n    //     // TODO: Finish me!\n    //     require(isInReview());\n    //     _;\n    // }\n\n    // TODO: Use MatryxToken\n    // modifier whileBountyLeft(uint256 _nextRoundBounty)\n    // {\n    //     require(BountyLeft.sub(_nextRoundBounty) >= 0);\n    //     _;\n    // }\n\n    /*\n    * State Maintenance Methods\n    */\n\n    function removeSubmission(address _submissionAddress, address _author) public onlyPlatform returns (bool)\n    {\n        require(entryData.entrantToSubmissionToSubmissionIndex[_author][_submissionAddress].exists);\n        entryData.numberOfSubmissions = entryData.numberOfSubmissions.sub(1);\n        delete entryData.entrantToSubmissions[_author][entryData.entrantToSubmissionToSubmissionIndex[_author][_submissionAddress].value];\n        delete entryData.entrantToSubmissionToSubmissionIndex[_author][_submissionAddress];\n        return true;\n    }\n\n    /*\n     * Access Control Methods\n     */\n\n    /// @dev Returns whether or not the sender is an entrant in this tournament\n    /// @param _sender Explicit sender address.\n    /// @return Whether or not the sender is an entrant in this tournament.\n    function isEntrant(address _sender) public view returns (bool)\n    {\n        return entryData.addressToEntryFeePaid[_sender].exists;\n    }\n\n    enum TournamentState { NotYetOpen, OnHold, Open, Closed, Abandoned}\n    enum RoundState { NotYetOpen, Unfunded, Open, InReview, HasWinners, Closed, Abandoned }\n    enum ParticipantType { Nonentrant, Entrant, Contributor, Author }\n    enum SelectWinnerAction { DoNothing, StartNextRound, CloseTournament }\n    /// @dev Returns the state of the tournament. One of:\n    /// NotYetOpen, Open, Closed, Abandoned\n    function getState() public view returns (uint256)\n    {\n        return LibTournamentStateManagement.getState(stateData);\n    }\n\n    /*\n     * Getter Methods\n     */\n\n    function getPlatform() public view returns (address _platformAddress)\n    {\n        return platformAddress;\n    }\n\n    function getTokenAddress() public view returns (address _matryxTokenAddress)\n    {\n        return IMatryxPlatform(platformAddress).getTokenAddress();\n    }\n\n    function getData() public view returns (LibConstruction.TournamentData _data)\n    {\n        return data;\n    }\n\n    function isRound(address _roundAddress) public view returns (bool _isRound)\n    {\n        return stateData.isRound[_roundAddress];\n    }\n\n    function getRounds() public view returns (address[] _rounds)\n    {\n        return stateData.rounds;\n    }\n\n    function getTitle() public view returns (bytes32[3] _title)\n    {\n        bytes32[3] memory title;\n        title[0] = data.title_1;\n        title[1] = data.title_2;\n        title[2] = data.title_3;\n        return title;\n    }\n\n    function getCategory() public view returns (string _category)\n    {\n        // return IMatryxPlatform(platformAddress).hashForCategory(categoryHash);\n        // TODO: Fix me\n        return data.category;\n    }\n\n    function getOwner() public view returns (address _owner)\n    {\n        return owner;\n    }\n\n    // @dev Returns the external address of the tournament.\n    // @return _descriptionHash Off-chain content hash of tournament details (ipfs hash)\n    function getDescriptionHash() public view returns (bytes32[2] _descriptionHash)\n    {\n        bytes32[2] memory descriptionHash;\n        descriptionHash[0] = data.descriptionHash_1;\n        descriptionHash[1] = data.descriptionHash_2;\n        return descriptionHash;\n    }\n\n    function getFileHash() public view returns (bytes32[2] _fileHash)\n    {\n        bytes32[2] memory fileHash;\n        fileHash[0] = data.fileHash_1;\n        fileHash[1] = data.fileHash_2;\n        return fileHash;\n    }\n\n    /// @dev Returns the current round number.\n    /// @return _currentRound Number of the current round.\n    function currentRound() public view returns (uint256 _currentRound, address _currentRoundAddress)\n    {\n        return LibTournamentStateManagement.currentRound(stateData);\n    }\n\n    ///@dev Returns this tournament's bounty.\n    function getBounty() public view returns (uint256 _tournamentBounty)\n    {  \n        IMatryxToken token = IMatryxToken(IMatryxPlatform(platformAddress).getTokenAddress());\n        return token.balanceOf(address(this)).sub(stateData.entryFeesTotal).add(stateData.roundBountyAllocation);\n    }\n\n    // @dev Returns the remaining bounty this tournament is able to award.\n    function getBalance() public view returns (uint256 _tournamentBalance)\n    {\n        IMatryxToken token = IMatryxToken(IMatryxPlatform(platformAddress).getTokenAddress());\n        return token.balanceOf(address(this)).sub(stateData.entryFeesTotal);\n    }\n\n    ///@dev Returns the round that was created implicitly for the user after they chose the \"DoNothing\" option\n    ///     when choosing their round winners.\n    ///@return _ghostAddress Address of the upcoming round created during winner selection\n    function getGhostRound() internal returns (uint256 _index, address _ghostAddress)\n    {\n        return LibTournamentStateManagement.getGhostRound(stateData);\n    }\n\n    /// @dev Returns all of the sender's submissions to this tournament.\n    /// @return (_roundIndices[], _submissionIndices[]) Locations of the sender's submissions.\n    function mySubmissions() public view returns (address[])\n    {\n        address[] memory _mySubmissions = entryData.entrantToSubmissions[msg.sender];\n        return _mySubmissions;\n    }\n\n    /// @dev Returns the number of submissions made to this tournament.\n    /// @return _submissionCount Number of submissions made to this tournament.\n    function submissionCount() public view returns (uint256 _submissionCount)\n    {\n        return entryData.numberOfSubmissions;\n    }\n\n    function entrantCount() public view returns (uint256 _entrantCount)\n    {\n        return entryData.numberOfEntrants;\n    }\n\n    /*\n     * Setter Methods\n     */\n\n    function update(LibConstruction.TournamentModificationData tournamentData, string _category) public onlyOwner\n    {\n        data.update(tournamentData, _category, platformAddress);\n    }\n\n    function addFunds(uint256 _fundsToAdd) public\n    {\n        uint256 tournamentState = this.getState();\n        require(tournamentState == uint256(TournamentState.NotYetOpen) || \n                tournamentState == uint256(TournamentState.Open) || \n                tournamentState == uint256(TournamentState.OnHold));\n\n        address matryxTokenAddress = IMatryxPlatform(platformAddress).getTokenAddress();\n        require(IMatryxToken(matryxTokenAddress).transferFrom(msg.sender, address(this), _fundsToAdd));\n    }\n\n    /*\n     * Tournament Admin Methods\n     */\n\n    /// @dev Chooses the winner(s) of the current round. If this is the last round, \n    //       this method will also close the tournament.\n    /// @param _submissionAddresses The winning submission addresses\n    /// @param _rewardDistribution Distribution indicating how to split the reward among the submissions\n    function selectWinners(address[] _submissionAddresses, uint256[] _rewardDistribution, LibConstruction.RoundData _roundData, uint256 _selectWinnerAction) public onlyOwner\n    {\n        address matryxTokenAddress = IMatryxPlatform(platformAddress).getTokenAddress();\n        LibTournamentAdminMethods.selectWinners(stateData, platformAddress, matryxTokenAddress, _submissionAddresses, _rewardDistribution, _roundData, _selectWinnerAction);\n    }\n\n    function editGhostRound(LibConstruction.RoundData _roundData) public onlyOwner\n    {\n        address matryxTokenAddress = IMatryxPlatform(platformAddress).getTokenAddress();\n        LibTournamentAdminMethods.editGhostRound(stateData, _roundData, matryxTokenAddress);\n    }\n\n    ///@dev Allocates some of this tournament's balance to the current round\n    function allocateMoreToRound(uint256 _mtxAllocation) public onlyOwner\n    {\n        address matryxTokenAddress = IMatryxPlatform(platformAddress).getTokenAddress();\n        LibTournamentAdminMethods.allocateMoreToRound(stateData, _mtxAllocation, matryxTokenAddress);\n    }\n\n    /// @dev This function should be called after the user selects winners for their tournament and chooses the \"DoNothing\" option\n    function jumpToNextRound() public onlyOwner\n    {\n        LibTournamentAdminMethods.jumpToNextRound(stateData);\n    }\n\n    /// @dev This function closes the tournament after the tournament owner selects their winners with the \"DoNothing\" option\n    function stopTournament() public onlyOwner\n    {\n        address matryxTokenAddress = IMatryxPlatform(platformAddress).getTokenAddress();\n        LibTournamentAdminMethods.stopTournament(stateData, platformAddress, matryxTokenAddress);\n    }\n\n    /// @dev Creates a new round.\n    /// @return The new round's address.\n    function createRound(LibConstruction.RoundData roundData, bool _automaticCreation) public onlyRound returns (address _roundAddress)\n    {\n        return _createRound(roundData, _automaticCreation);\n    }\n\n    function _createRound(LibConstruction.RoundData roundData, bool _automaticCreation) private returns (address _roundAddress)\n    {\n        address matryxTokenAddress = IMatryxPlatform(platformAddress).getTokenAddress();\n        return LibTournamentAdminMethods.createRound(stateData, platformAddress, matryxTokenAddress, matryxRoundFactoryAddress, roundData, _automaticCreation);\n    }\n\n    function sendBountyToRound(uint256 _roundIndex, uint256 _bountyMTX) public onlyPlatform\n    {\n        stateData.roundBountyAllocation = stateData.roundBountyAllocation.add(_bountyMTX);\n        IMatryxToken token = IMatryxToken(IMatryxPlatform(platformAddress).getTokenAddress());\n        require(token.transfer(stateData.rounds[_roundIndex], _bountyMTX));\n    }\n\n    /*\n     * Entrant Methods\n     */\n\n    // LibTournamentEntrantMethods\n    /// @dev Enters the user into the tournament.\n    /// @param _entrantAddress Address of the user to enter.\n    /// @return success Whether or not the user was entered successfully.\n    function enterUserInTournament(address _entrantAddress) public onlyPlatform whileTournamentOpen returns (bool _success)\n    {\n        return LibTournamentEntrantMethods.enterUserInTournament(data, stateData, entryData, _entrantAddress);\n    }\n\n    /// @dev Returns the fee in MTX to be payed by a prospective entrant.\n    /// @return Entry fee for this tournament.\n    function getEntryFee() public view returns (uint256)\n    {\n        return data.entryFee;\n    }\n\n    function collectMyEntryFee() public\n    {\n        address matryxTokenAddress = IMatryxPlatform(platformAddress).getTokenAddress();\n        LibTournamentEntrantMethods.collectMyEntryFee(stateData, entryData, matryxTokenAddress);\n    }\n\n    function createSubmission(address[] _contributors, uint128[] _contributorRewardDistribution, address[] _references, LibConstruction.SubmissionData submissionData) public onlyEntrant onlyPeerLinked(msg.sender) ifRoundHasFunds whileTournamentOpen returns (address _submissionAddress)\n    {\n        if(entryData.numberOfSubmissions == 0)\n        {\n            IMatryxPlatform(platformAddress).invokeTournamentOpenedEvent(data.title_1, data.title_2, data.title_3, data.descriptionHash_1, data.descriptionHash_2, data.initialBounty, data.entryFee);\n        }\n\n        return LibTournamentEntrantMethods.createSubmission(stateData, entryData, platformAddress, _contributors, _contributorRewardDistribution, _references, submissionData);\n    }\n\n    function withdrawFromAbandoned() public onlyEntrant\n    {\n        address matryxTokenAddress = IMatryxPlatform(platformAddress).getTokenAddress();\n        LibTournamentEntrantMethods.withdrawFromAbandoned(stateData, entryData, matryxTokenAddress);\n    }\n}",
  "sourcePath": "/Users/maxhoward/Desktop/Ethereum/Development/Matryx/Projects/MatryxPlatform/contracts/MatryxTournament.sol",
  "compiler": {
    "name": "solc",
    "version": "0.4.24+commit.e67f0147.Emscripten.clang"
  },
  "schemaVersion": "2.0.0",
  "updatedAt": "2018-07-12T19:03:55.834Z"
}