{
  "contractName": "MatryxSubmission",
  "abi": [
    {
      "constant": true,
      "inputs": [],
      "name": "approvedReferences",
      "outputs": [
        {
          "name": "",
          "type": "uint256"
        }
      ],
      "payable": false,
      "stateMutability": "view",
      "type": "function"
    },
    {
      "constant": true,
      "inputs": [
        {
          "name": "_sender",
          "type": "address"
        }
      ],
      "name": "isOwner",
      "outputs": [
        {
          "name": "_isOwner",
          "type": "bool"
        }
      ],
      "payable": false,
      "stateMutability": "view",
      "type": "function"
    },
    {
      "constant": true,
      "inputs": [],
      "name": "trustDelegate",
      "outputs": [
        {
          "name": "",
          "type": "address"
        }
      ],
      "payable": false,
      "stateMutability": "view",
      "type": "function"
    },
    {
      "constant": true,
      "inputs": [],
      "name": "approvalTrust",
      "outputs": [
        {
          "name": "",
          "type": "uint128"
        }
      ],
      "payable": false,
      "stateMutability": "view",
      "type": "function"
    },
    {
      "constant": true,
      "inputs": [
        {
          "name": "",
          "type": "uint256"
        }
      ],
      "name": "approvingPeers",
      "outputs": [
        {
          "name": "",
          "type": "address"
        }
      ],
      "payable": false,
      "stateMutability": "view",
      "type": "function"
    },
    {
      "constant": true,
      "inputs": [],
      "name": "getOwner",
      "outputs": [
        {
          "name": "_owner",
          "type": "address"
        }
      ],
      "payable": false,
      "stateMutability": "view",
      "type": "function"
    },
    {
      "constant": true,
      "inputs": [],
      "name": "owner",
      "outputs": [
        {
          "name": "",
          "type": "address"
        }
      ],
      "payable": false,
      "stateMutability": "view",
      "type": "function"
    },
    {
      "constant": true,
      "inputs": [
        {
          "name": "",
          "type": "uint256"
        }
      ],
      "name": "missingReferences",
      "outputs": [
        {
          "name": "",
          "type": "address"
        }
      ],
      "payable": false,
      "stateMutability": "view",
      "type": "function"
    },
    {
      "constant": true,
      "inputs": [],
      "name": "publicallyAccessibleDuringTournament",
      "outputs": [
        {
          "name": "",
          "type": "bool"
        }
      ],
      "payable": false,
      "stateMutability": "view",
      "type": "function"
    },
    {
      "constant": true,
      "inputs": [],
      "name": "totalReferenceCount",
      "outputs": [
        {
          "name": "",
          "type": "uint256"
        }
      ],
      "payable": false,
      "stateMutability": "view",
      "type": "function"
    },
    {
      "constant": true,
      "inputs": [],
      "name": "totalPossibleTrust",
      "outputs": [
        {
          "name": "",
          "type": "uint256"
        }
      ],
      "payable": false,
      "stateMutability": "view",
      "type": "function"
    },
    {
      "constant": false,
      "inputs": [
        {
          "name": "newOwner",
          "type": "address"
        }
      ],
      "name": "transferOwnership",
      "outputs": [],
      "payable": false,
      "stateMutability": "nonpayable",
      "type": "function"
    },
    {
      "inputs": [
        {
          "name": "_platformAddress",
          "type": "address"
        },
        {
          "name": "_tournamentAddress",
          "type": "address"
        },
        {
          "name": "_roundAddress",
          "type": "address"
        },
        {
          "name": "_title",
          "type": "string"
        },
        {
          "name": "_submissionOwner",
          "type": "address"
        },
        {
          "name": "_submissionAuthor",
          "type": "address"
        },
        {
          "name": "_externalAddress",
          "type": "bytes"
        },
        {
          "name": "_references",
          "type": "address[]"
        },
        {
          "name": "_contributors",
          "type": "address[]"
        },
        {
          "name": "_contributorRewardDistribution",
          "type": "uint128[]"
        }
      ],
      "payable": false,
      "stateMutability": "nonpayable",
      "type": "constructor"
    },
    {
      "constant": true,
      "inputs": [],
      "name": "getTournament",
      "outputs": [
        {
          "name": "",
          "type": "address"
        }
      ],
      "payable": false,
      "stateMutability": "view",
      "type": "function"
    },
    {
      "constant": true,
      "inputs": [],
      "name": "getRound",
      "outputs": [
        {
          "name": "",
          "type": "address"
        }
      ],
      "payable": false,
      "stateMutability": "view",
      "type": "function"
    },
    {
      "constant": true,
      "inputs": [
        {
          "name": "_requester",
          "type": "address"
        }
      ],
      "name": "isAccessible",
      "outputs": [
        {
          "name": "",
          "type": "bool"
        }
      ],
      "payable": false,
      "stateMutability": "view",
      "type": "function"
    },
    {
      "constant": true,
      "inputs": [],
      "name": "getTitle",
      "outputs": [
        {
          "name": "",
          "type": "string"
        }
      ],
      "payable": false,
      "stateMutability": "view",
      "type": "function"
    },
    {
      "constant": true,
      "inputs": [],
      "name": "getAuthor",
      "outputs": [
        {
          "name": "",
          "type": "address"
        }
      ],
      "payable": false,
      "stateMutability": "view",
      "type": "function"
    },
    {
      "constant": true,
      "inputs": [],
      "name": "getExternalAddress",
      "outputs": [
        {
          "name": "",
          "type": "bytes"
        }
      ],
      "payable": false,
      "stateMutability": "view",
      "type": "function"
    },
    {
      "constant": true,
      "inputs": [],
      "name": "getReferences",
      "outputs": [
        {
          "name": "",
          "type": "address[]"
        }
      ],
      "payable": false,
      "stateMutability": "view",
      "type": "function"
    },
    {
      "constant": true,
      "inputs": [],
      "name": "getContributors",
      "outputs": [
        {
          "name": "",
          "type": "address[]"
        }
      ],
      "payable": false,
      "stateMutability": "view",
      "type": "function"
    },
    {
      "constant": true,
      "inputs": [],
      "name": "getTimeSubmitted",
      "outputs": [
        {
          "name": "",
          "type": "uint256"
        }
      ],
      "payable": false,
      "stateMutability": "view",
      "type": "function"
    },
    {
      "constant": true,
      "inputs": [],
      "name": "getTimeUpdated",
      "outputs": [
        {
          "name": "",
          "type": "uint256"
        }
      ],
      "payable": false,
      "stateMutability": "view",
      "type": "function"
    },
    {
      "constant": false,
      "inputs": [],
      "name": "makeExternallyAccessibleDuringTournament",
      "outputs": [],
      "payable": false,
      "stateMutability": "nonpayable",
      "type": "function"
    },
    {
      "constant": false,
      "inputs": [
        {
          "name": "_title",
          "type": "string"
        }
      ],
      "name": "updateTitle",
      "outputs": [],
      "payable": false,
      "stateMutability": "nonpayable",
      "type": "function"
    },
    {
      "constant": false,
      "inputs": [
        {
          "name": "_externalAddress",
          "type": "bytes"
        }
      ],
      "name": "updateExternalAddress",
      "outputs": [],
      "payable": false,
      "stateMutability": "nonpayable",
      "type": "function"
    },
    {
      "constant": false,
      "inputs": [
        {
          "name": "_newTrustDelegate",
          "type": "address"
        }
      ],
      "name": "setTrustDelegate",
      "outputs": [],
      "payable": false,
      "stateMutability": "nonpayable",
      "type": "function"
    },
    {
      "constant": false,
      "inputs": [
        {
          "name": "_reference",
          "type": "address"
        }
      ],
      "name": "addReference",
      "outputs": [],
      "payable": false,
      "stateMutability": "nonpayable",
      "type": "function"
    },
    {
      "constant": true,
      "inputs": [
        {
          "name": "_reference",
          "type": "address"
        }
      ],
      "name": "addressIsFlagged",
      "outputs": [
        {
          "name": "",
          "type": "bool"
        },
        {
          "name": "",
          "type": "bool"
        }
      ],
      "payable": false,
      "stateMutability": "view",
      "type": "function"
    },
    {
      "constant": false,
      "inputs": [
        {
          "name": "_reference",
          "type": "address"
        }
      ],
      "name": "removeReference",
      "outputs": [],
      "payable": false,
      "stateMutability": "nonpayable",
      "type": "function"
    },
    {
      "constant": false,
      "inputs": [],
      "name": "receiveReferenceRequest",
      "outputs": [],
      "payable": false,
      "stateMutability": "nonpayable",
      "type": "function"
    },
    {
      "constant": false,
      "inputs": [],
      "name": "cancelReferenceRequest",
      "outputs": [],
      "payable": false,
      "stateMutability": "nonpayable",
      "type": "function"
    },
    {
      "constant": false,
      "inputs": [
        {
          "name": "_reference",
          "type": "address"
        }
      ],
      "name": "approveReference",
      "outputs": [],
      "payable": false,
      "stateMutability": "nonpayable",
      "type": "function"
    },
    {
      "constant": false,
      "inputs": [
        {
          "name": "_reference",
          "type": "address"
        }
      ],
      "name": "removeReferenceApproval",
      "outputs": [],
      "payable": false,
      "stateMutability": "nonpayable",
      "type": "function"
    },
    {
      "constant": false,
      "inputs": [
        {
          "name": "_reference",
          "type": "address"
        }
      ],
      "name": "flagMissingReference",
      "outputs": [],
      "payable": false,
      "stateMutability": "nonpayable",
      "type": "function"
    },
    {
      "constant": false,
      "inputs": [
        {
          "name": "_reference",
          "type": "address"
        }
      ],
      "name": "removeMissingReferenceFlag",
      "outputs": [],
      "payable": false,
      "stateMutability": "nonpayable",
      "type": "function"
    },
    {
      "constant": false,
      "inputs": [
        {
          "name": "_contributor",
          "type": "address"
        }
      ],
      "name": "addContributor",
      "outputs": [],
      "payable": false,
      "stateMutability": "nonpayable",
      "type": "function"
    },
    {
      "constant": false,
      "inputs": [
        {
          "name": "_contributorIndex",
          "type": "uint256"
        }
      ],
      "name": "removeContributor",
      "outputs": [],
      "payable": false,
      "stateMutability": "nonpayable",
      "type": "function"
    },
    {
      "constant": false,
      "inputs": [],
      "name": "getBalance",
      "outputs": [
        {
          "name": "",
          "type": "uint256"
        }
      ],
      "payable": false,
      "stateMutability": "nonpayable",
      "type": "function"
    },
    {
      "constant": false,
      "inputs": [],
      "name": "withdrawReward",
      "outputs": [],
      "payable": false,
      "stateMutability": "nonpayable",
      "type": "function"
    },
    {
      "constant": false,
      "inputs": [
        {
          "name": "_recipient",
          "type": "address"
        }
      ],
      "name": "withdrawReward",
      "outputs": [],
      "payable": false,
      "stateMutability": "nonpayable",
      "type": "function"
    },
    {
      "constant": true,
      "inputs": [],
      "name": "getTransferAmount",
      "outputs": [
        {
          "name": "",
          "type": "uint256"
        }
      ],
      "payable": false,
      "stateMutability": "view",
      "type": "function"
    },
    {
      "constant": false,
      "inputs": [],
      "name": "deleteSubmission",
      "outputs": [],
      "payable": false,
      "stateMutability": "nonpayable",
      "type": "function"
    }
  ],
  "bytecode": "0x60606040526040517f6164645265666572656e636528616464726573732900000000000000000000008152601501604051908190039020601580547c010000000000000000000000000000000000000000000000000000000090920475010000000000000000000000000000000000000000000260a860020a63ffffffff02199092169190911790556040517f72656d6f76655265666572656e636528616464726573732900000000000000008152601801604051908190039020601580547c01000000000000000000000000000000000000000000000000000000009092047901000000000000000000000000000000000000000000000000000260c860020a63ffffffff02199092169190911790556040517f617070726f76655265666572656e63652861646472657373290000000000000081526019016040519081900390206016805463ffffffff19167c01000000000000000000000000000000000000000000000000000000009092049190911790556040517f72656d6f76655265666572656e6365417070726f76616c2861646472657373298152602001604051908190039020601680547c01000000000000000000000000000000000000000000000000000000009092046401000000000267ffffffff00000000199092169190911790556040517f666c61674d697373696e675265666572656e63652861646472657373290000008152601d01604051908190039020601680547c01000000000000000000000000000000000000000000000000000000009092046801000000000000000002604060020a63ffffffff02199092169190911790556040517f72656d6f76654d697373696e675265666572656e6365466c616728616464726581527f73732900000000000000000000000000000000000000000000000000000000006020820152602301604051908190039020601680547c01000000000000000000000000000000000000000000000000000000009092046c0100000000000000000000000002606060020a63ffffffff02199092169190911790556040517f72657665727449665265666572656e6365466c6167676564286164647265737381527f29000000000000000000000000000000000000000000000000000000000000006020820152602101604051908190039020601680547c010000000000000000000000000000000000000000000000000000000090920470010000000000000000000000000000000002608060020a63ffffffff02199092169190911790553415620003ae57600080fd5b60405162002a6a38038062002a6a83398101604052808051919060200180519190602001805191906020018051820191906020018051919060200180519190602001805182019190602001805182019190602001805182019190602001805160008054600160a060020a03338116600160a060020a031990921691909117825591909301929150861615156200044357600080fd5b60018054600160a060020a03808e16600160a060020a031992831617909255600280548d841690831617905560038054928c169290911691909117905560048880516200049592916020019062000694565b5060008054600160a060020a03808a16600160a060020a03199283161790925560058054928916929091169190911790556006858051620004db92916020019062000694565b506007848051620004f192916020019062000719565b508a600160a060020a031663f3dc0d256000604051602001526040518163ffffffff167c0100000000000000000000000000000000000000000000000000000000028152600401602060405180830381600087803b15156200055257600080fd5b6102c65a03f115156200056457600080fd5b505050604051805160158054600160a060020a039092166101000261010060a860020a031990921691909117905550600090505b60075463ffffffff8216101562000668576001600e600060078463ffffffff16815481101515620005c557fe5b6000918252602080832090910154600160a060020a03168352820192909252604001812080549215156401000000000264ff000000001990931692909217909155600780548392600e92909163ffffffff85169081106200062257fe5b600091825260208083209190910154600160a060020a031683528201929092526040019020805463ffffffff191663ffffffff9290921691909117905560010162000598565b60128380516200067d92916020019062000719565b50504260135550620007c898505050505050505050565b828054600181600116156101000203166002900490600052602060002090601f016020900481019282601f10620006d757805160ff191683800117855562000707565b8280016001018555821562000707579182015b8281111562000707578251825591602001919060010190620006ea565b506200071592915062000781565b5090565b82805482825590600052602060002090810192821562000773579160200282015b82811115620007735782518254600160a060020a031916600160a060020a0391909116178255602092909201916001909101906200073a565b5062000715929150620007a1565b6200079e91905b8082111562000715576000815560010162000788565b90565b6200079e91905b8082111562000715578054600160a060020a0319168155600101620007a8565b61229280620007d86000396000f3006060604052600436106102035763ffffffff7c01000000000000000000000000000000000000000000000000000000006000350416630cbfdb2d81146102085780630eff2507146102365780630fb3395c1461027e57806310f83530146102aa57806312065fe0146102fb5780631abaf3fc1461032057806323bab50b146103335780632f54bf6e1461035f57806332c9c9d31461039f57806337fb13b0146103cb578063444e31ca1461041c5780635c11a3e41461042f5780636e27bcc6146104b957806374756091146104f55780637a6337fa1461050b57806382966f8b1461057157806389054583146105a9578063893d20e8146105bf5780638da5cb5b146105d25780638efa5410146105e55780639c1b92a1146105f85780639f8743f71461060e578063a0bf8fe314610621578063a33d954314610634578063a52dd12f14610647578063a5faa12514610673578063ac260ba014610686578063ae1ca69214610699578063af157c19146106ac578063b579184f146106bf578063b86e321c146106eb578063c7af355114610717578063c86569781461072a578063c885bc581461073d578063e4e3e83a14610750578063e7139ec01461077c578063e76c293e146107a8578063e786bb98146107bb578063e9946c23146107e7578063f2fde38b146107fa578063f5c758d614610826578063ff3c1a8f14610839575b600080fd5b341561021357600080fd5b61023473ffffffffffffffffffffffffffffffffffffffff6004351661084c565b005b341561024157600080fd5b61026273ffffffffffffffffffffffffffffffffffffffff6004351661090f565b6040519115158252151560208201526040908101905180910390f35b341561028957600080fd5b61023473ffffffffffffffffffffffffffffffffffffffff60043516610955565b34156102b557600080fd5b61023460046024813581810190830135806020601f82018190048102016040519081016040528181529291906020840183838082843750949650610a4295505050505050565b341561030657600080fd5b61030e610b1b565b60405190815260200160405180910390f35b341561032b57600080fd5b61030e610bd0565b341561033e57600080fd5b61023473ffffffffffffffffffffffffffffffffffffffff60043516610bd6565b341561036a57600080fd5b61038b73ffffffffffffffffffffffffffffffffffffffff60043516610cc7565b604051901515815260200160405180910390f35b34156103aa57600080fd5b61023473ffffffffffffffffffffffffffffffffffffffff60043516610ce8565b34156103d657600080fd5b61023460046024813581810190830135806020601f82018190048102016040519081016040528181529291906020840183838082843750949650610da495505050505050565b341561042757600080fd5b610234610e79565b341561043a57600080fd5b610442610eba565b60405160208082528190810183818151815260200191508051906020019080838360005b8381101561047e578082015183820152602001610466565b50505050905090810190601f1680156104ab5780820380516001836020036101000a031916815260200191505b509250505060405180910390f35b34156104c457600080fd5b6104cc610f79565b60405173ffffffffffffffffffffffffffffffffffffffff909116815260200160405180910390f35b341561050057600080fd5b610234600435610f9a565b341561051657600080fd5b61051e611004565b60405160208082528190810183818151815260200191508051906020019060200280838360005b8381101561055d578082015183820152602001610545565b505050509050019250505060405180910390f35b341561057c57600080fd5b61058461108e565b6040516fffffffffffffffffffffffffffffffff909116815260200160405180910390f35b34156105b457600080fd5b6104cc6004356110a6565b34156105ca57600080fd5b6104cc6110db565b34156105dd57600080fd5b6104cc6110f8565b34156105f057600080fd5b61030e611114565b341561060357600080fd5b6104cc60043561111a565b341561061957600080fd5b6104cc611128565b341561062c57600080fd5b610234611144565b341561063f57600080fd5b61030e61118f565b341561065257600080fd5b61038b73ffffffffffffffffffffffffffffffffffffffff600435166112c7565b341561067e57600080fd5b6104cc6117ad565b341561069157600080fd5b61038b6117e2565b34156106a457600080fd5b61030e6117eb565b34156106b757600080fd5b61051e6117f1565b34156106ca57600080fd5b61023473ffffffffffffffffffffffffffffffffffffffff6004351661187a565b34156106f657600080fd5b61023473ffffffffffffffffffffffffffffffffffffffff60043516611994565b341561072257600080fd5b610234611d4c565b341561073557600080fd5b61030e611d88565b341561074857600080fd5b610234611d8e565b341561075b57600080fd5b61023473ffffffffffffffffffffffffffffffffffffffff60043516611dce565b341561078757600080fd5b61023473ffffffffffffffffffffffffffffffffffffffff60043516611e86565b34156107b357600080fd5b6104cc611f36565b34156107c657600080fd5b61023473ffffffffffffffffffffffffffffffffffffffff60043516611f52565b34156107f257600080fd5b61030e611fc6565b341561080557600080fd5b61023473ffffffffffffffffffffffffffffffffffffffff60043516611fcc565b341561083157600080fd5b61023461205d565b341561084457600080fd5b6104426120b2565b60155460165461010090910473ffffffffffffffffffffffffffffffffffffffff16907c01000000000000000000000000000000000000000000000000000000006c01000000000000000000000000909104810204826040517c010000000000000000000000000000000000000000000000000000000063ffffffff841602815273ffffffffffffffffffffffffffffffffffffffff90911660048201526024016000604051808303818661646e5a03f492505050151561090c57600080fd5b50565b73ffffffffffffffffffffffffffffffffffffffff166000908152600e6020908152604080832054600c9092529091205460ff6601000000000000909204821692911690565b6000543373ffffffffffffffffffffffffffffffffffffffff90811691161461097d57600080fd5b60155473ffffffffffffffffffffffffffffffffffffffff610100820416907c01000000000000000000000000000000000000000000000000000000007501000000000000000000000000000000000000000000909104810204826040517c010000000000000000000000000000000000000000000000000000000063ffffffff841602815273ffffffffffffffffffffffffffffffffffffffff90911660048201526024016000604051808303818661646e5a03f492505050151561090c57600080fd5b6000543373ffffffffffffffffffffffffffffffffffffffff908116911614610a6a57600080fd5b60035473ffffffffffffffffffffffffffffffffffffffff16806347535d7b6000604051602001526040518163ffffffff167c0100000000000000000000000000000000000000000000000000000000028152600401602060405180830381600087803b1515610ad957600080fd5b6102c65a03f11515610aea57600080fd5b505050604051805190501515610aff57600080fd5b6006828051610b129291602001906121a0565b50504260145550565b60035460009073ffffffffffffffffffffffffffffffffffffffff16818163f8b2cb4f3083604051602001526040517c010000000000000000000000000000000000000000000000000000000063ffffffff841602815273ffffffffffffffffffffffffffffffffffffffff9091166004820152602401602060405180830381600087803b1515610bab57600080fd5b6102c65a03f11515610bbc57600080fd5b50505060405180519350839150505b505090565b60105481565b6000543373ffffffffffffffffffffffffffffffffffffffff908116911614610bfe57600080fd5b60155473ffffffffffffffffffffffffffffffffffffffff610100820416907c0100000000000000000000000000000000000000000000000000000000790100000000000000000000000000000000000000000000000000909104810204826040517c010000000000000000000000000000000000000000000000000000000063ffffffff841602815273ffffffffffffffffffffffffffffffffffffffff90911660048201526024016000604051808303818661646e5a03f492505050151561090c57600080fd5b60005473ffffffffffffffffffffffffffffffffffffffff91821691161490565b60155460165461010090910473ffffffffffffffffffffffffffffffffffffffff16907c010000000000000000000000000000000000000000000000000000000068010000000000000000909104810204826040517c010000000000000000000000000000000000000000000000000000000063ffffffff841602815273ffffffffffffffffffffffffffffffffffffffff90911660048201526024016000604051808303818661646e5a03f492505050151561090c57600080fd5b6000543373ffffffffffffffffffffffffffffffffffffffff908116911614610dcc57600080fd5b60035473ffffffffffffffffffffffffffffffffffffffff16806347535d7b6000604051602001526040518163ffffffff167c0100000000000000000000000000000000000000000000000000000000028152600401602060405180830381600087803b1515610e3b57600080fd5b6102c65a03f11515610e4c57600080fd5b505050604051805190501515610e6157600080fd5b6004828051610e749291602001906121a0565b505050565b6001543373ffffffffffffffffffffffffffffffffffffffff908116911614610ea157600080fd5b601154610eb590600163ffffffff61213a16565b601155565b610ec261221a565b33610ecc816112c7565b1515610ed757600080fd5b60068054600181600116156101000203166002900480601f016020809104026020016040519081016040528092919081815260200182805460018160011615610100020316600290048015610f6d5780601f10610f4257610100808354040283529160200191610f6d565b820191906000526020600020905b815481529060010190602001808311610f5057829003601f168201915b505050505091505b5090565b601554610100900473ffffffffffffffffffffffffffffffffffffffff1681565b6000543373ffffffffffffffffffffffffffffffffffffffff908116911614610fc257600080fd5b6012805482908110610fd057fe5b600091825260209091200180547fffffffffffffffffffffffff000000000000000000000000000000000000000016905550565b61100c61221a565b33611016816112c7565b151561102157600080fd5b6007805480602002602001604051908101604052809291908181526020018280548015610f6d57602002820191906000526020600020905b815473ffffffffffffffffffffffffffffffffffffffff16815260019091019060200180831161105957505050505091505090565b6009546fffffffffffffffffffffffffffffffff1681565b600b8054829081106110b457fe5b60009182526020909120015473ffffffffffffffffffffffffffffffffffffffff16905081565b60005473ffffffffffffffffffffffffffffffffffffffff165b90565b60005473ffffffffffffffffffffffffffffffffffffffff1681565b60145490565b600d8054829081106110b457fe5b60035473ffffffffffffffffffffffffffffffffffffffff1690565b6003543373ffffffffffffffffffffffffffffffffffffffff90811691161461116c57600080fd5b61117461214c565b60055473ffffffffffffffffffffffffffffffffffffffff16ff5b600080600061119c610b1b565b9150600a54600014156111c657600d5460009011156111be5760009250610bcb565b819250610bcb565b60015461127d9073ffffffffffffffffffffffffffffffffffffffff1663b20a2dce6000604051602001526040518163ffffffff167c0100000000000000000000000000000000000000000000000000000000028152600401602060405180830381600087803b151561123857600080fd5b6102c65a03f1151561124957600080fd5b50505060405180516009546fffffffffffffffffffffffffffffffff169150670de0b6b3a76400000363ffffffff61215616565b9050611294600a548261217a90919063ffffffff16565b90506112a6818363ffffffff61215616565b90506112c081670de0b6b3a764000063ffffffff61217a16565b9392505050565b60035460025460009173ffffffffffffffffffffffffffffffffffffffff908116911682808080808080808089632fc1f19082604051602001526040518163ffffffff167c0100000000000000000000000000000000000000000000000000000000028152600401602060405180830381600087803b151561134857600080fd5b6102c65a03f1151561135957600080fd5b5050506040518051905073ffffffffffffffffffffffffffffffffffffffff168d73ffffffffffffffffffffffffffffffffffffffff16149850600360009054906101000a900473ffffffffffffffffffffffffffffffffffffffff1673ffffffffffffffffffffffffffffffffffffffff168d73ffffffffffffffffffffffffffffffffffffffff16149750600560009054906101000a900473ffffffffffffffffffffffffffffffffffffffff1673ffffffffffffffffffffffffffffffffffffffff168d73ffffffffffffffffffffffffffffffffffffffff16149650601560009054906101000a900460ff169550600360009054906101000a900473ffffffffffffffffffffffffffffffffffffffff1673ffffffffffffffffffffffffffffffffffffffff1663a68e8a866000604051602001526040518163ffffffff167c0100000000000000000000000000000000000000000000000000000000028152600401602060405180830381600087803b15156114d957600080fd5b6102c65a03f115156114ea57600080fd5b5050506040518051905080611584575060025473ffffffffffffffffffffffffffffffffffffffff1663a68e8a866000604051602001526040518163ffffffff167c0100000000000000000000000000000000000000000000000000000000028152600401602060405180830381600087803b151561156857600080fd5b6102c65a03f1151561157957600080fd5b505050604051805190505b60025490955073ffffffffffffffffffffffffffffffffffffffff166352c01fab8e6000604051602001526040517c010000000000000000000000000000000000000000000000000000000063ffffffff841602815273ffffffffffffffffffffffffffffffffffffffff9091166004820152602401602060405180830381600087803b151561161357600080fd5b6102c65a03f1151561162457600080fd5b505050604051805194505073ffffffffffffffffffffffffffffffffffffffff8a16632f54bf6e8e6000604051602001526040517c010000000000000000000000000000000000000000000000000000000063ffffffff841602815273ffffffffffffffffffffffffffffffffffffffff9091166004820152602401602060405180830381600087803b15156116b957600080fd5b6102c65a03f115156116ca57600080fd5b5050506040518051905092508480156116e7575082806116e75750835b91508a73ffffffffffffffffffffffffffffffffffffffff166347535d7b6000604051602001526040518163ffffffff167c0100000000000000000000000000000000000000000000000000000000028152600401602060405180830381600087803b151561175557600080fd5b6102c65a03f1151561176657600080fd5b50505060405180519050159050888061177c5750875b806117845750865b8061178c5750855b806117945750815b8061179c5750805b9d9c50505050505050505050505050565b6000336117b9816112c7565b15156117c457600080fd5b505060055473ffffffffffffffffffffffffffffffffffffffff1690565b60155460ff1681565b60135490565b6117f961221a565b33611803816112c7565b151561180e57600080fd5b6012805480602002602001604051908101604052809291908181526020018280548015610f6d5760200282019190600052602060002090815473ffffffffffffffffffffffffffffffffffffffff16815260019091019060200180831161105957505050505091505090565b600080543373ffffffffffffffffffffffffffffffffffffffff9081169116146118a357600080fd5b60128054600181016118b5838261222c565b50600091825260209091200180547fffffffffffffffffffffffff00000000000000000000000000000000000000001673ffffffffffffffffffffffffffffffffffffffff8481169190911790915560035416905080631cdb7de58360026040517c010000000000000000000000000000000000000000000000000000000063ffffffff851602815273ffffffffffffffffffffffffffffffffffffffff90921660048301526024820152604401600060405180830381600087803b151561197c57600080fd5b6102c65a03f1151561198d57600080fd5b5050505050565b600080546003548291829182918291829182913373ffffffffffffffffffffffffffffffffffffffff90811692811683149291161481806119d25750805b15156119dd57600080fd5b6119e5610b1b565b60015490995073ffffffffffffffffffffffffffffffffffffffff166310fe9ae86000604051602001526040518163ffffffff167c0100000000000000000000000000000000000000000000000000000000028152600401602060405180830381600087803b1515611a5657600080fd5b6102c65a03f11515611a6757600080fd5b505050604051805190509750611a7b61118f565b96508773ffffffffffffffffffffffffffffffffffffffff1663a9059cbb8b896000604051602001526040517c010000000000000000000000000000000000000000000000000000000063ffffffff851602815273ffffffffffffffffffffffffffffffffffffffff90921660048301526024820152604401602060405180830381600087803b1515611b0d57600080fd5b6102c65a03f11515611b1e57600080fd5b505050604051805150611b399050898863ffffffff61213a16565b9550600094505b600754851015611d4057600e6000600787815481101515611b5d57fe5b600091825260208083209091015473ffffffffffffffffffffffffffffffffffffffff16835282019290925260400190205460ff650100000000009091041615611d3557611c3a600a54611c2e670de0b6b3a7640000600e600060078b815481101515611bc657fe5b600091825260208083209091015473ffffffffffffffffffffffffffffffffffffffff1683528201929092526040019020600101546fffffffffffffffffffffffffffffffff700100000000000000000000000000000000909104169063ffffffff61215616565b9063ffffffff61217a16565b9350611c58670de0b6b3a7640000611c2e888763ffffffff61215616565b92508773ffffffffffffffffffffffffffffffffffffffff1663a9059cbb600787815481101515611c8557fe5b600091825260208220015473ffffffffffffffffffffffffffffffffffffffff16908690604051602001526040517c010000000000000000000000000000000000000000000000000000000063ffffffff851602815273ffffffffffffffffffffffffffffffffffffffff90921660048301526024820152604401602060405180830381600087803b1515611d1957600080fd5b6102c65a03f11515611d2a57600080fd5b505050604051805150505b600190940193611b40565b50505050505050505050565b6001543373ffffffffffffffffffffffffffffffffffffffff908116911614611d7457600080fd5b601154610eb590600163ffffffff61219116565b60115481565b6000546003543373ffffffffffffffffffffffffffffffffffffffff9081169281168314929116148180611dbf5750805b1515611dca57600080fd5b5050565b60155460165461010090910473ffffffffffffffffffffffffffffffffffffffff16907c0100000000000000000000000000000000000000000000000000000000640100000000909104810204826040517c010000000000000000000000000000000000000000000000000000000063ffffffff841602815273ffffffffffffffffffffffffffffffffffffffff90911660048201526024016000604051808303818661646e5a03f492505050151561090c57600080fd5b60155460165461010090910473ffffffffffffffffffffffffffffffffffffffff16907c010000000000000000000000000000000000000000000000000000000090810204826040517c010000000000000000000000000000000000000000000000000000000063ffffffff841602815273ffffffffffffffffffffffffffffffffffffffff90911660048201526024016000604051808303818661646e5a03f492505050151561090c57600080fd5b60025473ffffffffffffffffffffffffffffffffffffffff1690565b6000543373ffffffffffffffffffffffffffffffffffffffff908116911614611f7a57600080fd5b6015805473ffffffffffffffffffffffffffffffffffffffff909216610100027fffffffffffffffffffffff0000000000000000000000000000000000000000ff909216919091179055565b600a5481565b6000543373ffffffffffffffffffffffffffffffffffffffff908116911614611ff457600080fd5b73ffffffffffffffffffffffffffffffffffffffff8116151561201657600080fd5b600080547fffffffffffffffffffffffff00000000000000000000000000000000000000001673ffffffffffffffffffffffffffffffffffffffff92909216919091179055565b6000543373ffffffffffffffffffffffffffffffffffffffff90811691161461208557600080fd5b601580547fffffffffffffffffffffffffffffffffffffffffffffffffffffffffffffff00166001179055565b6120ba61221a565b336120c4816112c7565b15156120cf57600080fd5b60048054600181600116156101000203166002900480601f016020809104026020016040519081016040528092919081815260200182805460018160011615610100020316600290048015610f6d5780601f10610f4257610100808354040283529160200191610f6d565b60008282111561214657fe5b50900390565b612154611d8e565b565b6000828202831580612172575082848281151561216f57fe5b04145b15156112c057fe5b600080828481151561218857fe5b04949350505050565b6000828201838110156112c057fe5b828054600181600116156101000203166002900490600052602060002090601f016020900481019282601f106121e157805160ff191683800117855561220e565b8280016001018555821561220e579182015b8281111561220e5782518255916020019190600101906121f3565b50610f7592915061224c565b60206040519081016040526000815290565b815481835581811511610e7457600083815260209020610e749181019083015b6110f591905b80821115610f7557600081556001016122525600a165627a7a72305820750be1fa22b8674e3de7224c3a0caef4d4195dbc07084d6fd7fa875273fb87520029",
  "source": "pragma solidity ^0.4.18;\n\nimport '../libraries/math/SafeMath.sol';\nimport './reputation/SubmissionTrust.sol';\nimport '../interfaces/IMatryxToken.sol';\nimport '../interfaces/IMatryxPeer.sol';\nimport '../interfaces/IMatryxPlatform.sol';\nimport '../interfaces/IMatryxTournament.sol';\nimport '../interfaces/IMatryxRound.sol';\nimport '../interfaces/IMatryxSubmission.sol';\nimport './Ownable.sol';\n\ncontract MatryxSubmission is Ownable, IMatryxSubmission {\n\tusing SafeMath for uint256;\n\tusing SafeMath for uint128;\n\tusing SafeMath for uint32;\n\n\t// Parent identification\n\taddress private platformAddress;\n\taddress private tournamentAddress;\n\taddress private roundAddress;\n\t\n\t// Submission\n\tstring title;\n\taddress author;\n\tbytes externalAddress;\n\taddress[] references;\n\n\t// Tracks the normalized trust gained through peers approving this submission\n\tmapping(address=>uint128) authorToApprovalTrustGiven;\n\tuint128 public approvalTrust;\n\tuint256 public totalPossibleTrust;\n\taddress[] public approvingPeers;\n\n\t// Tracks the proportion of references this submission has approved\n\tmapping(address=>uint128_optional) missingReferenceToIndex;\n\taddress[] public missingReferences;\n\tmapping(address=>ReferenceInfo) addressToReferenceInfo;\n\tmapping(address=>ReferenceStats) referenceStatsByAuthor;\n\tuint256 public approvedReferences;\n\tuint256 public totalReferenceCount;\n\n\taddress[] contributors;\n\tuint256 timeSubmitted;\n\tuint256 timeUpdated;\n\tbool public publicallyAccessibleDuringTournament;\n\n\taddress public trustDelegate;\n\tbytes4 fnSelector_addReference = bytes4(keccak256(\"addReference(address)\"));\n\tbytes4 fnSelector_removeReference = bytes4(keccak256(\"removeReference(address)\"));\n\tbytes4 fnSelector_approveReference = bytes4(keccak256(\"approveReference(address)\"));\n\tbytes4 fnSelector_removeReferenceApproval = bytes4(keccak256(\"removeReferenceApproval(address)\"));\n\tbytes4 fnSelector_flagMissingReference = bytes4(keccak256(\"flagMissingReference(address)\"));\n\tbytes4 fnSelector_removeMissingReferenceFlag = bytes4(keccak256(\"removeMissingReferenceFlag(address)\"));\n\n\tbytes4 fnSelector_revertIfReferenceFlagged = bytes4(keccak256(\"revertIfReferenceFlagged(address)\"));\n\n\tfunction MatryxSubmission(address _platformAddress, address _tournamentAddress, address _roundAddress, string _title, address _submissionOwner, address _submissionAuthor, bytes _externalAddress, address[] _references, address[] _contributors, uint128[] _contributorRewardDistribution) public\n\t{\n\t\trequire(_submissionAuthor != 0x0);\n\t\t\n\t\tplatformAddress = _platformAddress;\n\t\ttournamentAddress = _tournamentAddress;\n\t\troundAddress = _roundAddress;\n\n\t\ttitle = _title;\n\t\towner = _submissionOwner;\n\t\tauthor = _submissionAuthor;\n\t\texternalAddress = _externalAddress;\n\t\treferences = _references;\n\t\ttrustDelegate = IMatryxPlatform(_platformAddress).getSubmissionTrustLibrary();\n\n\t\tfor(uint32 i = 0; i < references.length;i++)\n\t\t{\n\t\t\taddressToReferenceInfo[references[i]].exists = true;\n\t\t\taddressToReferenceInfo[references[i]].index = i;\n\t\t}\n\t\t\n\t\tcontributors = _contributors;\n\t\ttimeSubmitted = now;\n\t}\n\n\t/*\n\t * Structs\n\t */\n\n\tstruct ReferenceInfo\n\t{\n\t\tuint32 index;\n\t\tbool exists;\n\t\tbool approved;\n\t\tbool flagged;\n\t\tuint128 negativeReputationAffect;\n\t\tuint128 positiveReputationAffect;\n\t\tuint128 authorReputation;\n\t}\n\n\tstruct ReferenceStats\n\t{\n\t\tuint32 numberMissing;\n\t\tuint32 numberApproved;\n\t}\n\n\tstruct uint128_optional\n\t{\n\t\tbool exists;\n\t\tuint128 value;\n\t}\n\n\t/*\n\t * Modifiers \n\t */\n\n\tmodifier onlyAuthor() {\n    \trequire(msg.sender == author);\n    \t_;\n  \t}\n\n  \tmodifier onlyPlatform() {\n  \t\trequire(msg.sender == platformAddress);\n  \t\t_;\n  \t}\n\n  \tmodifier onlyRound()\n  \t{\n  \t\trequire(msg.sender == roundAddress);\n  \t\t_;\n  \t}\n\n  \tmodifier ownerOrRound()\n  \t{\n  \t\tbool isOwner = msg.sender == owner;\n  \t\tbool isRound = msg.sender == roundAddress;\n  \t\trequire(isOwner || isRound);\n  \t\t_;\n  \t}\n\n  \tmodifier onlyOwningPeer(address _reference)\n  \t{\n  \t\trequire(IMatryxPlatform(platformAddress).peerExistsAndOwnsSubmission(msg.sender, _reference));\n  \t\t_;\n  \t}\n\n\t// A modifier to ensure that information can only obtained\n\t// about this submission when it should be.\n\tmodifier whenAccessible(address _requester)\n\t{\n\t\trequire(isAccessible(_requester));\n\t\t_;\n\t}\n\n\tmodifier duringOpenSubmission()\n\t{\n\t\tIMatryxRound round = IMatryxRound(roundAddress);\n\t\trequire(round.isOpen());\n\t\t_;\n\t}\n\n\t/*\n\t * Getter Methods\n\t */\n\n\tfunction getTournament() public constant returns (address) {\n\t\treturn tournamentAddress;\n\t}\n\n\tfunction getRound() public constant returns (address) {\n\t\treturn roundAddress;\n\t}\n\n\tfunction isAccessible(address _requester) public constant returns (bool)\n\t{\n\t\tIMatryxRound round = IMatryxRound(roundAddress);\n\t\tOwnable ownableTournament = Ownable(tournamentAddress);\n\n\t\tbool isPlatform = _requester == IMatryxTournament(tournamentAddress).getPlatform();\n\t\tbool isRound = _requester == roundAddress;\n\t\tbool ownsThisSubmission = _requester == author;\n\t\tbool submissionExternallyAccessible = publicallyAccessibleDuringTournament;\n\t\tbool duringReviewPeriod = IMatryxRound(roundAddress).isInReview() || IMatryxTournament(tournamentAddress).isInReview();\n\t\tbool requesterIsEntrant = IMatryxTournament(tournamentAddress).isEntrant(_requester);\n\t\tbool requesterOwnsTournament = ownableTournament.isOwner(_requester);\n\t\tbool duringReviewAndRequesterInTournament = duringReviewPeriod && (requesterOwnsTournament || requesterIsEntrant);\n\t\tbool roundClosed = !round.isOpen();\n\n\t\treturn isPlatform || isRound || ownsThisSubmission || submissionExternallyAccessible || duringReviewAndRequesterInTournament || roundClosed;\n\t}\n\n\tfunction getTitle() public constant whenAccessible(msg.sender) returns(string) {\n\t\treturn title;\n\t}\n\n\tfunction getAuthor() public constant whenAccessible(msg.sender) returns(address) {\n\t\treturn author;\n\t}\n\n\tfunction getExternalAddress() public constant whenAccessible(msg.sender) returns (bytes)\n\t{\n\t\treturn externalAddress;\n\t}\n\n\tfunction getReferences() public constant whenAccessible(msg.sender) returns(address[]) {\n\t\treturn references;\n\t}\n\n\tfunction getContributors() public constant whenAccessible(msg.sender) returns(address[]) {\n\t\treturn contributors;\n\t}\n\n\tfunction getTimeSubmitted() public constant returns(uint256) {\n\t\treturn timeSubmitted;\n\t}\n\n\tfunction getTimeUpdated() public constant returns(uint256) {\n\t\treturn timeUpdated;\n\t}\n\n\t/*\n\t * Setter Methods\n\t */\n\n\tfunction makeExternallyAccessibleDuringTournament() onlyOwner public\n\t{\n\t\tpublicallyAccessibleDuringTournament = true;\n\t}\n\n    /// @dev Edit the title of a submission (callable only by submission's owner).\n    /// @param _title New title for the submission.\n\tfunction updateTitle(string _title) onlyOwner duringOpenSubmission public \n\t{\n\t\ttitle = _title;\n\t}\n\n\t/// @dev Update the external address of a submission (callable only by submission's owner).\n    /// @param _externalAddress New content hash for the body of the submission.\n\tfunction updateExternalAddress(bytes _externalAddress) onlyOwner duringOpenSubmission public\n\t{\n\t\texternalAddress = _externalAddress;\n\t\ttimeUpdated = now;\n\t}\n\n\tfunction setTrustDelegate(address _newTrustDelegate) onlyOwner public\n\t{\n\t\ttrustDelegate = _newTrustDelegate;\n\t}\n\n\t/// @dev Add a missing reference to a submission (callable only by submission's owner).\n    /// @param _reference Address of additional reference to include.\n\tfunction addReference(address _reference) onlyOwner public \n\t{\n\t\trequire(trustDelegate.delegatecall(fnSelector_addReference, _reference));\n\t}\n\n\tfunction addressIsFlagged(address _reference) public constant returns (bool, bool)\n\t{\n\t\treturn (addressToReferenceInfo[_reference].flagged, missingReferenceToIndex[_reference].exists);\n\t}\n\n\t/// @dev Remove an erroneous reference to a submission (callable only by submission's owner).\n    /// @param _reference Address of reference to remove.\n\tfunction removeReference(address _reference) onlyOwner public\n\t{\n\t\trequire(trustDelegate.delegatecall(fnSelector_removeReference, _reference));\n\t}\n\n\tfunction receiveReferenceRequest() public onlyPlatform\n\t{\n\t\ttotalReferenceCount = totalReferenceCount.add(1);\n\t}\n\n\tfunction cancelReferenceRequest() public onlyPlatform\n\t{\n\t\ttotalReferenceCount = totalReferenceCount.sub(1);\n\t}\n\n\t/// @dev Called by the owner of _reference when this submission is approved to list _reference\n\t/// as a reference.\n\t/// _reference Reference being approved by msg.sender.\n\tfunction approveReference(address _reference) public\n\t{\n\t\trequire(trustDelegate.delegatecall(fnSelector_approveReference, _reference));\n\t}\n\n\t/// @dev \t\t\t  Called by the owner of the _reference to remove their approval of a reference\n\t///\t\t \t\t\t  within this submission.\n\t/// @param _reference Reference that peer is revoking the approval of to be included\n\t///\t\t\t\t\t  in this submission.\n\tfunction removeReferenceApproval(address _reference) public\n\t{\n\t\trequire(trustDelegate.delegatecall(fnSelector_removeReferenceApproval, _reference));\n\t}\n\n\t/// @dev \tCalled by the owner of _reference when this submission does not list _reference\n\t/// \t\tas a reference.\n\t/// @param  _reference Missing reference in this submission.\n\tfunction flagMissingReference(address _reference) public\n\t{\n\t\trequire(trustDelegate.delegatecall(fnSelector_flagMissingReference, _reference));\n\t}\n\n\t/// @dev \t\t\t  Called by the owner of _reference to remove a missing reference flag placed on a reference\n\t///\t\t \t\t\t  as missing.\n\t/// @param _reference Reference previously marked by peer as missing.\n\tfunction removeMissingReferenceFlag(address _reference) public\n\t{\n\t\trequire(trustDelegate.delegatecall(fnSelector_removeMissingReferenceFlag, _reference));\n\t}\n\n\t/// @dev Add a contributor to a submission (callable only by submission's owner).\n    /// @param _contributor Address of contributor to add to the submission.\n\tfunction addContributor(address _contributor) onlyOwner public\n\t{\n\t\tcontributors.push(_contributor);\n\n\t\tIMatryxRound round = IMatryxRound(roundAddress);\n\t\tround.setParticipantType(_contributor, 2);\n\t}\n\n\t/// @dev Remove a contributor from a submission (callable only by submission's owner).\n    /// @param _contributorIndex Index of the contributor to remove from the submission.\n\tfunction removeContributor(uint256 _contributorIndex) onlyOwner public \n\t{\n\t\tdelete contributors[_contributorIndex];\n\t}\n\n\tfunction getBalance() public returns (uint256)\n\t{\n\t\tIMatryxRound round = IMatryxRound(roundAddress);\n\t\tuint256 _balance = round.getBalance(this);\n\t\treturn _balance;\n\t}\n\t\n\tfunction withdrawReward(address _recipient) public ownerOrRound\n\t{\n\t\tuint submissionReward = getBalance();\n\t\tIMatryxToken token = IMatryxToken(IMatryxPlatform(platformAddress).getTokenAddress());\n\n\t\t// Transfer reward to submission author\n\t\tuint256 transferAmount = getTransferAmount();\n\t\ttoken.transfer(_recipient, transferAmount);\n\n\t\t// Distribute reward to references\n\t\tuint256 remainingReward = submissionReward.sub(transferAmount);\n\t\tfor(uint i = 0; i < references.length; i++)\n\t\t{\n\t\t\tif(addressToReferenceInfo[references[i]].approved)\n\t\t\t{\n\t\t\t\tuint256 weight = (addressToReferenceInfo[references[i]].authorReputation).mul(1*10**18).div(totalPossibleTrust);\n\t\t\t\tuint256 weightedReward = remainingReward.mul(weight).div(1*10**18);\n\t\t\t\ttoken.transfer(references[i], weightedReward);\n\t\t\t}\n\t\t}\n\t}\n\n\tfunction withdrawReward() public ownerOrRound\n\t{\n\t\t// withdrawReward(msg.sender);\n\t}\n\n\tfunction getTransferAmount() public constant returns (uint256)\n\t{\n\t\tuint submissionReward = getBalance();\n\t\tif(totalPossibleTrust == 0)\n\t\t{\n\t\t\tif(missingReferences.length > 0)\n\t\t\t{\n\t\t\t\treturn 0;\n\t\t\t}\n\n\t\t\treturn submissionReward;\n\t\t}\n\n\t\t// transfer amount calculated as:\n\t\t// normalizedAndReferenceCountWeightedTrustInSubmission * \n\t\t// (1 - submissionGratitude) * \n\t\t// submissionReward\n\t\tuint256 transferAmount = approvalTrust.mul(1*10**18 - IMatryxPlatform(platformAddress).getSubmissionGratitude());\n\t\ttransferAmount = transferAmount.div(totalPossibleTrust);\n\t\ttransferAmount = transferAmount.mul(submissionReward);\n\t\ttransferAmount = transferAmount.div(1*10**18);\n\n\t\treturn transferAmount;\n\t}\n\n\tfunction prepareToDelete() internal\n\t{\n\t\twithdrawReward();\n\t\t// TODO: Remove references on other submissions so that MTX is not burned!\n\t}\n\n\t// @dev Removes a submission permanently.\n \t// @param _recipient Address to send the refunded ether to.\n\tfunction deleteSubmission() onlyRound public\n\t{\n\t\tprepareToDelete();\n\t\tselfdestruct(author);\n\t}\n}",
  "sourcePath": "/Users/maxhoward/Desktop/Ethereum/Development/Matryx AWS/Projects/matryx-alpha-source/contracts/MatryxSubmission.sol",
  "compiler": {
    "name": "solc",
    "version": "0.4.19+commit.c4cbbb05.Emscripten.clang"
  },
  "schemaVersion": "2.0.0",
  "updatedAt": "2018-04-02T03:27:08.693Z"
}