{
  "contractName": "MatryxPeer",
  "abi": [
    {
      "constant": true,
      "inputs": [
        {
          "name": "_sender",
          "type": "address"
        }
      ],
      "name": "isOwner",
      "outputs": [
        {
          "name": "_isOwner",
          "type": "bool"
        }
      ],
      "payable": false,
      "stateMutability": "view",
      "type": "function"
    },
    {
      "constant": true,
      "inputs": [],
      "name": "getOwner",
      "outputs": [
        {
          "name": "_owner",
          "type": "address"
        }
      ],
      "payable": false,
      "stateMutability": "view",
      "type": "function"
    },
    {
      "constant": true,
      "inputs": [],
      "name": "owner",
      "outputs": [
        {
          "name": "",
          "type": "address"
        }
      ],
      "payable": false,
      "stateMutability": "view",
      "type": "function"
    },
    {
      "constant": false,
      "inputs": [
        {
          "name": "newOwner",
          "type": "address"
        }
      ],
      "name": "transferOwnership",
      "outputs": [],
      "payable": false,
      "stateMutability": "nonpayable",
      "type": "function"
    },
    {
      "inputs": [
        {
          "name": "_platformAddress",
          "type": "address"
        },
        {
          "name": "_owner",
          "type": "address"
        },
        {
          "name": "_initialTrust",
          "type": "uint128"
        }
      ],
      "payable": false,
      "stateMutability": "nonpayable",
      "type": "constructor"
    },
    {
      "constant": true,
      "inputs": [],
      "name": "getReputation",
      "outputs": [
        {
          "name": "",
          "type": "uint128"
        }
      ],
      "payable": false,
      "stateMutability": "view",
      "type": "function"
    },
    {
      "constant": false,
      "inputs": [
        {
          "name": "_newTotalTrust",
          "type": "uint128"
        },
        {
          "name": "_senderReputation",
          "type": "uint128"
        }
      ],
      "name": "receiveTrust",
      "outputs": [
        {
          "name": "",
          "type": "uint128"
        }
      ],
      "payable": false,
      "stateMutability": "nonpayable",
      "type": "function"
    },
    {
      "constant": false,
      "inputs": [
        {
          "name": "_newTotalTrust",
          "type": "uint128"
        },
        {
          "name": "_senderReputation",
          "type": "uint128"
        }
      ],
      "name": "receiveDistrust",
      "outputs": [
        {
          "name": "",
          "type": "uint128"
        }
      ],
      "payable": false,
      "stateMutability": "nonpayable",
      "type": "function"
    },
    {
      "constant": true,
      "inputs": [
        {
          "name": "_peerAddress",
          "type": "address"
        }
      ],
      "name": "getPeersInfluenceOnMyReputation",
      "outputs": [
        {
          "name": "",
          "type": "uint256"
        }
      ],
      "payable": false,
      "stateMutability": "view",
      "type": "function"
    },
    {
      "constant": false,
      "inputs": [
        {
          "name": "_submissionAddress",
          "type": "address"
        },
        {
          "name": "_missingReference",
          "type": "address"
        }
      ],
      "name": "flagMissingReference",
      "outputs": [],
      "payable": false,
      "stateMutability": "nonpayable",
      "type": "function"
    },
    {
      "constant": true,
      "inputs": [
        {
          "name": "_submissionAddress",
          "type": "address"
        }
      ],
      "name": "getMissingReferenceCount",
      "outputs": [
        {
          "name": "",
          "type": "uint128"
        },
        {
          "name": "",
          "type": "uint128"
        }
      ],
      "payable": false,
      "stateMutability": "view",
      "type": "function"
    },
    {
      "constant": false,
      "inputs": [
        {
          "name": "_submissionAddress",
          "type": "address"
        },
        {
          "name": "_missingReference",
          "type": "address"
        }
      ],
      "name": "removeMissingReferenceFlag",
      "outputs": [],
      "payable": false,
      "stateMutability": "nonpayable",
      "type": "function"
    },
    {
      "constant": false,
      "inputs": [
        {
          "name": "_trustRemoved",
          "type": "uint128"
        }
      ],
      "name": "restoreTrust",
      "outputs": [],
      "payable": false,
      "stateMutability": "nonpayable",
      "type": "function"
    },
    {
      "constant": false,
      "inputs": [
        {
          "name": "_trustGiven",
          "type": "uint128"
        }
      ],
      "name": "revokeTrust",
      "outputs": [],
      "payable": false,
      "stateMutability": "nonpayable",
      "type": "function"
    },
    {
      "constant": true,
      "inputs": [
        {
          "name": "_submissionAddress",
          "type": "address"
        }
      ],
      "name": "getReferenceCount",
      "outputs": [
        {
          "name": "",
          "type": "uint128"
        }
      ],
      "payable": false,
      "stateMutability": "view",
      "type": "function"
    },
    {
      "constant": true,
      "inputs": [
        {
          "name": "_submissionAddress",
          "type": "address"
        }
      ],
      "name": "getReferenceProportion",
      "outputs": [
        {
          "name": "",
          "type": "uint128"
        }
      ],
      "payable": false,
      "stateMutability": "view",
      "type": "function"
    },
    {
      "constant": true,
      "inputs": [],
      "name": "peersJudged",
      "outputs": [
        {
          "name": "",
          "type": "uint256"
        }
      ],
      "payable": false,
      "stateMutability": "view",
      "type": "function"
    },
    {
      "constant": true,
      "inputs": [
        {
          "name": "_peer",
          "type": "address"
        }
      ],
      "name": "getJudgingPeerToUnnormalizedTrust",
      "outputs": [
        {
          "name": "",
          "type": "uint128"
        }
      ],
      "payable": false,
      "stateMutability": "view",
      "type": "function"
    }
  ],
  "bytecode": "0x6080604052600180546001608060020a031916670de0b6b3a764000017905534801561002a57600080fd5b50604051606080611e718339810160409081528151602083015191909201516000805460028054600160a060020a03968716600160a060020a03199182161790915594909316928416331790931691909117909155600380546001608060020a039092166001608060020a0319909216919091179055611dc2806100af6000396000f3006080604052600436106100f05763ffffffff7c0100000000000000000000000000000000000000000000000000000000600035041663268c7dcb81146100f55780632f54bf6e1461012b5780634073996a1461016d57806341a83f95146101ad57806357f09082146101e15780636a7940c9146102345780637b52de8214610291578063889b2687146102bf578063893d20e8146102d45780638da5cb5b146103125780639726b679146103275780639eff7df114610351578063a277568f1461037b578063b6c3d15b146103a9578063bc465765146103d9578063f2fde38b14610409578063ffe6a18e14610437575b600080fd5b34801561010157600080fd5b5061012973ffffffffffffffffffffffffffffffffffffffff6004358116906024351661044c565b005b34801561013757600080fd5b5061015973ffffffffffffffffffffffffffffffffffffffff6004351661096d565b604080519115158252519081900360200190f35b34801561017957600080fd5b5061019b73ffffffffffffffffffffffffffffffffffffffff6004351661098e565b60408051918252519081900360200190f35b3480156101b957600080fd5b5061012973ffffffffffffffffffffffffffffffffffffffff600435811690602435166109cc565b3480156101ed57600080fd5b5061020f73ffffffffffffffffffffffffffffffffffffffff60043516610e2a565b604080516fffffffffffffffffffffffffffffffff9092168252519081900360200190f35b34801561024057600080fd5b5061026273ffffffffffffffffffffffffffffffffffffffff60043516610e64565b604080516fffffffffffffffffffffffffffffffff938416815291909216602082015281519081900390910190f35b34801561029d57600080fd5b5061020f73ffffffffffffffffffffffffffffffffffffffff60043516610eb7565b3480156102cb57600080fd5b5061019b610fe3565b3480156102e057600080fd5b506102e9610fe9565b6040805173ffffffffffffffffffffffffffffffffffffffff9092168252519081900360200190f35b34801561031e57600080fd5b506102e9611005565b34801561033357600080fd5b506101296fffffffffffffffffffffffffffffffff60043516611021565b34801561035d57600080fd5b506101296fffffffffffffffffffffffffffffffff60043516611179565b34801561038757600080fd5b5061020f73ffffffffffffffffffffffffffffffffffffffff600435166111fa565b3480156103b557600080fd5b5061020f6fffffffffffffffffffffffffffffffff60043581169060243516611248565b3480156103e557600080fd5b5061020f6fffffffffffffffffffffffffffffffff60043581169060243516611584565b34801561041557600080fd5b5061012973ffffffffffffffffffffffffffffffffffffffff60043516611944565b34801561044357600080fd5b5061020f6119d1565b600080548190849073ffffffffffffffffffffffffffffffffffffffff1633148061048c57503373ffffffffffffffffffffffffffffffffffffffff8216145b151561049757600080fd5b600254604080517f818b5fa800000000000000000000000000000000000000000000000000000000815273ffffffffffffffffffffffffffffffffffffffff8089166004830152915188939290921691829163818b5fa89160248083019260209291908290030181600087803b15801561051057600080fd5b505af1158015610524573d6000803e3d6000fd5b505050506040513d602081101561053a57600080fd5b5051151561054757600080fd5b600254604080517f818b5fa800000000000000000000000000000000000000000000000000000000815273ffffffffffffffffffffffffffffffffffffffff808a166004830152915189939290921691829163818b5fa89160248083019260209291908290030181600087803b1580156105c057600080fd5b505af11580156105d4573d6000803e3d6000fd5b505050506040513d60208110156105ea57600080fd5b505115156105f757600080fd5b73ffffffffffffffffffffffffffffffffffffffff8916600090815260106020526040902054610640906fffffffffffffffffffffffffffffffff16600163ffffffff6119e916565b73ffffffffffffffffffffffffffffffffffffffff8a16600090815260106020526040902080546fffffffffffffffffffffffffffffffff19166fffffffffffffffffffffffffffffffff9283161790556007546106a091166001611a10565b600780546fffffffffffffffffffffffffffffffff19166fffffffffffffffffffffffffffffffff92909216919091179055604080517f0cbfdb2d00000000000000000000000000000000000000000000000000000000815273ffffffffffffffffffffffffffffffffffffffff8a8116600483015291518b995091891691630cbfdb2d9160248082019260009290919082900301818387803b15801561074657600080fd5b505af115801561075a573d6000803e3d6000fd5b505050508673ffffffffffffffffffffffffffffffffffffffff1663a5faa1256040518163ffffffff167c0100000000000000000000000000000000000000000000000000000000028152600401602060405180830381600087803b1580156107c257600080fd5b505af11580156107d6573d6000803e3d6000fd5b505050506040513d60208110156107ec57600080fd5b505160015473ffffffffffffffffffffffffffffffffffffffff821660009081526004602052604090205491975061083f916fffffffffffffffffffffffffffffffff908116911663ffffffff611a1016565b73ffffffffffffffffffffffffffffffffffffffff878116600081815260046020818152604080842080546fffffffffffffffffffffffffffffffff19166fffffffffffffffffffffffffffffffff9889161790558f86168452600e8252808420958f1684529490528382205484517f9726b67900000000000000000000000000000000000000000000000000000000815295169085015291519092639726b67992602480830193919282900301818387803b1580156108fe57600080fd5b505af1158015610912573d6000803e3d6000fd5b50505073ffffffffffffffffffffffffffffffffffffffff998a166000908152600e602090815260408083209b909c168252999099525050509590942080546fffffffffffffffffffffffffffffffff191690555050505050565b60005473ffffffffffffffffffffffffffffffffffffffff91821691161490565b73ffffffffffffffffffffffffffffffffffffffff81166000908152600a60205260409020546fffffffffffffffffffffffffffffffff165b919050565b60008054819073ffffffffffffffffffffffffffffffffffffffff1633146109f357600080fd5b826000808291508173ffffffffffffffffffffffffffffffffffffffff1663893d20e86040518163ffffffff167c0100000000000000000000000000000000000000000000000000000000028152600401602060405180830381600087803b158015610a5e57600080fd5b505af1158015610a72573d6000803e3d6000fd5b505050506040513d6020811015610a8857600080fd5b5051905073ffffffffffffffffffffffffffffffffffffffff81163314610aae57600080fd5b600254604080517f818b5fa800000000000000000000000000000000000000000000000000000000815273ffffffffffffffffffffffffffffffffffffffff808b16600483015291518a939290921691829163818b5fa89160248083019260209291908290030181600087803b158015610b2757600080fd5b505af1158015610b3b573d6000803e3d6000fd5b505050506040513d6020811015610b5157600080fd5b50511515610b5e57600080fd5b600254604080517f818b5fa800000000000000000000000000000000000000000000000000000000815273ffffffffffffffffffffffffffffffffffffffff808c16600483015291518b939290921691829163818b5fa89160248083019260209291908290030181600087803b158015610bd757600080fd5b505af1158015610beb573d6000803e3d6000fd5b505050506040513d6020811015610c0157600080fd5b50511515610c0e57600080fd5b73ffffffffffffffffffffffffffffffffffffffff8b16600090815260106020526040902054610c57906fffffffffffffffffffffffffffffffff16600163ffffffff611a1016565b73ffffffffffffffffffffffffffffffffffffffff8c811660008181526010602052604080822080546fffffffffffffffffffffffffffffffff19166fffffffffffffffffffffffffffffffff969096169590951790945583517f32c9c9d3000000000000000000000000000000000000000000000000000000008152928e16600484015292518e9c5090926332c9c9d3926024808201939182900301818387803b158015610d0557600080fd5b505af1158015610d19573d6000803e3d6000fd5b505050508873ffffffffffffffffffffffffffffffffffffffff1663a5faa1256040518163ffffffff167c0100000000000000000000000000000000000000000000000000000000028152600401602060405180830381600087803b158015610d8157600080fd5b505af1158015610d95573d6000803e3d6000fd5b505050506040513d6020811015610dab57600080fd5b50519750610db888611a3b565b73ffffffffffffffffffffffffffffffffffffffff9b8c166000908152600e602090815260408083209d909e1682529b909b529a90992080546fffffffffffffffffffffffffffffffff19166fffffffffffffffffffffffffffffffff909b169a909a17909955505050505050505050565b73ffffffffffffffffffffffffffffffffffffffff166000908152600860205260409020546fffffffffffffffffffffffffffffffff1690565b73ffffffffffffffffffffffffffffffffffffffff166000908152601060205260409020546fffffffffffffffffffffffffffffffff808216927001000000000000000000000000000000009092041690565b73ffffffffffffffffffffffffffffffffffffffff8116600090815260106020526040812054610f0f906fffffffffffffffffffffffffffffffff700100000000000000000000000000000000820481169116611a10565b6fffffffffffffffffffffffffffffffff161515610f2f575060006109c7565b73ffffffffffffffffffffffffffffffffffffffff8216600090815260106020526040902054610fdd90610f8b906fffffffffffffffffffffffffffffffff700100000000000000000000000000000000820481169116611a10565b73ffffffffffffffffffffffffffffffffffffffff841660009081526010602052604090205470010000000000000000000000000000000090046fffffffffffffffffffffffffffffffff1690611cdd565b92915050565b60065490565b60005473ffffffffffffffffffffffffffffffffffffffff1690565b60005473ffffffffffffffffffffffffffffffffffffffff1681565b60015433600090815260086020526040902054611059916fffffffffffffffffffffffffffffffff918216911663ffffffff611a1016565b33600090815260086020908152604080832080546fffffffffffffffffffffffffffffffff19166fffffffffffffffffffffffffffffffff95861617905560099091529020546110aa911682611a10565b33600090815260096020908152604080832080546fffffffffffffffffffffffffffffffff19166fffffffffffffffffffffffffffffffff958616179055600a9091529020546110fb911682611a10565b336000908152600a6020526040902080546fffffffffffffffffffffffffffffffff19166fffffffffffffffffffffffffffffffff928316179055600354611144911682611a10565b600380546fffffffffffffffffffffffffffffffff19166fffffffffffffffffffffffffffffffff9290921691909117905550565b600154336000908152600860205260409020546111b1916fffffffffffffffffffffffffffffffff918216911663ffffffff6119e916565b33600090815260086020526040902080546fffffffffffffffffffffffffffffffff19166fffffffffffffffffffffffffffffffff9283161790556003546111449116826119e9565b73ffffffffffffffffffffffffffffffffffffffff1660009081526010602052604090205470010000000000000000000000000000000090046fffffffffffffffffffffffffffffffff1690565b600254604080517f3e44cf78000000000000000000000000000000000000000000000000000000008152336004820152905160009283928392839273ffffffffffffffffffffffffffffffffffffffff16918291633e44cf789160248082019260209290919082900301818887803b1580156112c357600080fd5b505af11580156112d7573d6000803e3d6000fd5b505050506040513d60208110156112ed57600080fd5b505115156112fa57600080fd5b336000908152600b602052604090205460ff161561138157336000908152600a602052604090205460035461134a916fffffffffffffffffffffffffffffffff918216911663ffffffff6119e916565b600380546fffffffffffffffffffffffffffffffff19166fffffffffffffffffffffffffffffffff929092169190911790556113f6565b336000818152600b60205260408120805460ff19166001908117909155600c805491820181559091527fdf6966c971051c3d54ec59162606531493a51404a002842f56009d7e5cf4a8c70180547fffffffffffffffffffffffff00000000000000000000000000000000000000001690911790555b336000908152600a602090815260408083205460015460089093529220546fffffffffffffffffffffffffffffffff928316965061143e92908116911663ffffffff611a1016565b33600090815260086020818152604080842080546fffffffffffffffffffffffffffffffff199081166fffffffffffffffffffffffffffffffff978816178255600984529190942080549091168c8616179055525461149e911688611cdd565b92506114c26fffffffffffffffffffffffffffffffff84168763ffffffff611d1816565b6001549092506114ed906fffffffffffffffffffffffffffffffff808516911663ffffffff611cdd16565b336000908152600a6020526040902080546fffffffffffffffffffffffffffffffff19166fffffffffffffffffffffffffffffffff8381169190911790915560035491935061153d911683611a10565b600380546fffffffffffffffffffffffffffffffff19166fffffffffffffffffffffffffffffffff928316179055611577908316856119e9565b94505b5050505092915050565b600254604080517f3e44cf78000000000000000000000000000000000000000000000000000000008152336004820152905160009283928392839273ffffffffffffffffffffffffffffffffffffffff16918291633e44cf789160248082019260209290919082900301818887803b1580156115ff57600080fd5b505af1158015611613573d6000803e3d6000fd5b505050506040513d602081101561162957600080fd5b5051151561163657600080fd5b336000908152600b602052604081205490945060ff16156116c257336000908152600a60205260409020546003546fffffffffffffffffffffffffffffffff918216955061168b91168563ffffffff6119e916565b600380546fffffffffffffffffffffffffffffffff19166fffffffffffffffffffffffffffffffff92909216919091179055611737565b336000818152600b60205260408120805460ff19166001908117909155600c805491820181559091527fdf6966c971051c3d54ec59162606531493a51404a002842f56009d7e5cf4a8c70180547fffffffffffffffffffffffff00000000000000000000000000000000000000001690911790555b6fffffffffffffffffffffffffffffffff8716158061177c5750600154336000908152600860205260409020546fffffffffffffffffffffffffffffffff9182169116105b156117d35733600090815260086020908152604080832080546fffffffffffffffffffffffffffffffff1990811690915560098352818420805482169055600a90925290912080549091169055929350839261157a565b6001543360009081526008602052604090205461180b916fffffffffffffffffffffffffffffffff918216911663ffffffff6119e916565b33600090815260086020818152604080842080546fffffffffffffffffffffffffffffffff199081166fffffffffffffffffffffffffffffffff978816178255600984529190942080549091168c8616179055525461186b911688611cdd565b925061188f6fffffffffffffffffffffffffffffffff84168763ffffffff611d1816565b6001549092506118ba906fffffffffffffffffffffffffffffffff808516911663ffffffff611cdd16565b336000908152600a6020526040902080546fffffffffffffffffffffffffffffffff19166fffffffffffffffffffffffffffffffff8381169190911790915560035491935061190a911683611a10565b600380546fffffffffffffffffffffffffffffffff19166fffffffffffffffffffffffffffffffff928316179055611577908516836119e9565b60005473ffffffffffffffffffffffffffffffffffffffff16331461196857600080fd5b73ffffffffffffffffffffffffffffffffffffffff8116151561198a57600080fd5b600080547fffffffffffffffffffffffff00000000000000000000000000000000000000001673ffffffffffffffffffffffffffffffffffffffff92909216919091179055565b6003546fffffffffffffffffffffffffffffffff1690565b60006fffffffffffffffffffffffffffffffff8084169083161115611a0a57fe5b50900390565b60008282016fffffffffffffffffffffffffffffffff8085169082161015611a3457fe5b9392505050565b60015473ffffffffffffffffffffffffffffffffffffffff821660009081526004602052604081205490916fffffffffffffffffffffffffffffffff908116911610611b625760015473ffffffffffffffffffffffffffffffffffffffff8316600090815260046020526040902054611acf916fffffffffffffffffffffffffffffffff918216911663ffffffff6119e916565b73ffffffffffffffffffffffffffffffffffffffff8316600090815260046020526040902080546fffffffffffffffffffffffffffffffff19166fffffffffffffffffffffffffffffffff928316179055600754611b2f911660016119e9565b600780546fffffffffffffffffffffffffffffffff19166fffffffffffffffffffffffffffffffff929092169190911790555b73ffffffffffffffffffffffffffffffffffffffff821660009081526005602052604090205460ff161515611c1c5773ffffffffffffffffffffffffffffffffffffffff82166000818152600560205260408120805460ff191660019081179091556006805491820181559091527ff652222313e28459528d920b65115c16c04f3efc82aaedc97be59f3f377c0d3f0180547fffffffffffffffffffffffff00000000000000000000000000000000000000001690911790555b600754600354604080517fbc4657650000000000000000000000000000000000000000000000000000000081526fffffffffffffffffffffffffffffffff93841660048201529290911660248301525173ffffffffffffffffffffffffffffffffffffffff84169163bc4657659160448083019260209291908290030181600087803b158015611cab57600080fd5b505af1158015611cbf573d6000803e3d6000fd5b505050506040513d6020811015611cd557600080fd5b505192915050565b600080826fffffffffffffffffffffffffffffffff16846fffffffffffffffffffffffffffffffff16811515611d0f57fe5b04949350505050565b60008282026fffffffffffffffffffffffffffffffff84161580611d8e5750826fffffffffffffffffffffffffffffffff16846fffffffffffffffffffffffffffffffff16826fffffffffffffffffffffffffffffffff16811515611d7957fe5b046fffffffffffffffffffffffffffffffff16145b1515611a3457fe00a165627a7a723058202f0f006375931abf310515736cc049a16b74975163a57c764f7294efb168ed640029",
  "source": "pragma solidity ^0.4.18;\n\nimport \"../libraries/math/SafeMath.sol\";\nimport \"../libraries/math/SafeMath128.sol\";\nimport \"../interfaces/IMatryxPlatform.sol\";\nimport \"../interfaces/IMatryxTournament.sol\";\nimport \"../interfaces/IMatryxRound.sol\";\nimport \"../interfaces/IMatryxSubmission.sol\";\nimport \"./Ownable.sol\";\n\n/// @title MatryxPeer - A peer within the MatryxPlatform.\n/// @author Max Howard - <max@nanome.ai>\ncontract MatryxPeer is Ownable {\n    using SafeMath for uint256;\n    using SafeMath128 for uint128;\n\n    uint128 one_eighteenDecimal = 1*10**18;\n\n    // TODO: condense and put in structs\n    address platformAddress;\n\n    uint128 globalTrust;\n    mapping(address=>uint128) judgedPeerToUnnormalizedTrust;\n    mapping(address=>bool) haveJudgedPeer;\n    address[] judgedPeers;\n\n    uint128 totalTrustGiven;\n    mapping(address=>uint128) judgingPeerToUnnormalizedTrust;\n    mapping(address=>uint128) judgingPeerToTotalTrustGiven;\n\n    mapping(address=>uint128) judgingPeerToInfluenceOnMyReputation;\n    mapping(address=>bool) peerHasJudgedMe;\n    address[] judgingPeers;\n\n    //Keep track of how much trust/distrust was given when approving/flagging a submission\n    mapping(address=>mapping(address=>uint128)) submissionToReferenceToTrustGiven;\n    mapping(address=>mapping(address=>uint128)) submissionToReferenceToDistrustGiven;\n\n    // Tracks the proportion of references this peer has approved on a given submission\n    mapping(address=>uint256) submissionToReferenceCount;\n    mapping(address=>ReferencesMetadata) submissionToReferencesMetadata;\n\n    /*\n        * Structs\n        */\n\n    struct ReferencesMetadata\n    {\n        uint128 missingReferenceCount;\n        uint128 referenceCount;\n    }\n\n    /*\n        * Modifiers\n        */\n\n    modifier onlyPlatform()\n    {\n        require(msg.sender == platformAddress);\n        _;\n    }\n\n    modifier onlyPeer()\n    {\n        IMatryxPlatform platform = IMatryxPlatform(platformAddress);\n        require(platform.isPeer(msg.sender));\n        _;\n    }\n\n    // modifier notMe()\n    // {\n    // \trequire(msg.sender != address(this));\n    // \t_;\n    // }\n\n    // modifier notOwner()\n    // {\n    // \trequire(msg.sender != owner);\n    // \t_;\n    // }\n\n    modifier ownerOrSubmission(address _submission)\n    {\n        require((msg.sender == owner) || (msg.sender == _submission));\n        _;\n    }\n\n    modifier forExistingSubmission(address _submission)\n    {\n        IMatryxPlatform platform = IMatryxPlatform(platformAddress);\n        require(platform.isSubmission(_submission));\n        _;\n    }\n\n    modifier senderOwnsReference(address _reference)\n    {\n        Ownable referencedSubmission = Ownable(_reference);\n        address referenceOwner = referencedSubmission.getOwner();\n        require(referenceOwner == msg.sender);\n        _;\n    }\n\n    constructor(address _platformAddress, address _owner, uint128 _initialTrust) public\n    {\n        platformAddress = _platformAddress;\n        owner = _owner;\n        globalTrust = _initialTrust;\n    }\n\n    function getReputation() public view returns (uint128)\n    {\n        return globalTrust;\n    }\n\n    function giveTrust(address _peer) internal returns (uint128)\n    {\n        judgedPeerToUnnormalizedTrust[_peer] = judgedPeerToUnnormalizedTrust[_peer].add(one_eighteenDecimal);\n        totalTrustGiven = totalTrustGiven.add(1);\n\n        //if I have never judged this peer before, update structs to reflect that I have now\n        if (haveJudgedPeer[_peer] == false){\n            haveJudgedPeer[_peer] = true;\n            judgedPeers.push(_peer);\n        }\n\n        return MatryxPeer(_peer).receiveTrust(totalTrustGiven, globalTrust);\n    }\n\n    function giveDistrust(address _peer) internal returns (uint128)\n    {\n        if(judgedPeerToUnnormalizedTrust[_peer] >= one_eighteenDecimal)\n        {\n            judgedPeerToUnnormalizedTrust[_peer] = judgedPeerToUnnormalizedTrust[_peer].sub(one_eighteenDecimal);\n            totalTrustGiven = totalTrustGiven.sub(1);\n        }\n\n        // if I have never judged this peer before, update structs to reflect that I have now\n        if (haveJudgedPeer[_peer] == false){\n            haveJudgedPeer[_peer] = true;\n            judgedPeers.push(_peer);\n        }\n\n        return MatryxPeer(_peer).receiveDistrust(totalTrustGiven, globalTrust);\n    }\n\n    function receiveTrust(uint128 _newTotalTrust, uint128 _senderReputation) public /*notMe notOwner*/ onlyPeer returns (uint128)\n    {\n        // remove peer's influence on my reputation before adding their new influence\n        if(peerHasJudgedMe[msg.sender])\n        {\n            globalTrust = globalTrust.sub(judgingPeerToInfluenceOnMyReputation[msg.sender]);\n        }\n        // if we've never been judged by this peer before,\n        // update state to reflect that we have now.\n        else\n        {\n            peerHasJudgedMe[msg.sender] = true;\n            judgingPeers.push(msg.sender);\n        }\n\n        // update state variables so we can look at them later\n        uint128 peersOldInfluenceOnMyReputation = judgingPeerToInfluenceOnMyReputation[msg.sender];\n        judgingPeerToUnnormalizedTrust[msg.sender] = judgingPeerToUnnormalizedTrust[msg.sender].add(one_eighteenDecimal);\n        judgingPeerToTotalTrustGiven[msg.sender] = _newTotalTrust;\n        // calculate peer's new influence on my reputation\n        uint128 peersNewNormalizedOpinionOfMe = judgingPeerToUnnormalizedTrust[msg.sender].div(_newTotalTrust);\n        uint128 peersNewInfluenceOnMyReputation = peersNewNormalizedOpinionOfMe.mul(_senderReputation);\n        // _senderReputation and peersNewNormalizedOpinionOfMe are both 18 decimal numbers;\n        // we must divide by 1*10**18 in order to retain the correct number of decimals.\n        peersNewInfluenceOnMyReputation = peersNewInfluenceOnMyReputation.div(one_eighteenDecimal);\n        judgingPeerToInfluenceOnMyReputation[msg.sender] = peersNewInfluenceOnMyReputation;\n        // add this influence to my reputation\n        globalTrust = globalTrust.add(peersNewInfluenceOnMyReputation);\n        return uint128(peersNewInfluenceOnMyReputation.sub(peersOldInfluenceOnMyReputation));\n    }\n\n    function receiveDistrust(uint128 _newTotalTrust, uint128 _senderReputation) public /*notMe notOwner*/ onlyPeer returns (uint128)\n    {\n        uint128 peersOldInfluenceOnMyReputation = 0;\n        // remove peer's influence on my reputation before adding their new influence\n        if(peerHasJudgedMe[msg.sender])\n        {\n            //store the old influence on my reputation\n            peersOldInfluenceOnMyReputation = judgingPeerToInfluenceOnMyReputation[msg.sender];\n            globalTrust = globalTrust.sub(judgingPeerToInfluenceOnMyReputation[msg.sender]);\n        }\n        // if we've never been judged by this peer before,\n        // update state to reflect that we have now.\n        else\n        {\n            peerHasJudgedMe[msg.sender] = true;\n            judgingPeers.push(msg.sender);\n            //globalTrust = globalTrust.sub(one_eighteenDecimal);\n        }\n\n        //I don't have enough trust to be able to deduct some of it for having a submission flagged\n        // if(judgingPeerToUnnormalizedTrust[msg.sender] < one_eighteenDecimal)\n        // {\n        // \trevert();\n        // \t//return 0;\n        // }\n\n        //if the new total trust is zero, we don't have any new influence to add\n        //so we update the data strustures and return\n        if(_newTotalTrust == 0 || judgingPeerToUnnormalizedTrust[msg.sender] < one_eighteenDecimal)\n        {\n            judgingPeerToUnnormalizedTrust[msg.sender] = 0;\n            judgingPeerToTotalTrustGiven[msg.sender] = 0;\n            judgingPeerToInfluenceOnMyReputation[msg.sender] = 0;\n            return uint128(peersOldInfluenceOnMyReputation);\n        }\n\n        judgingPeerToUnnormalizedTrust[msg.sender] = judgingPeerToUnnormalizedTrust[msg.sender].sub(one_eighteenDecimal);\n        judgingPeerToTotalTrustGiven[msg.sender] = _newTotalTrust;\n        // calculate peer's new influence on my reputation\n        uint128 peersNewNormalizedOpinionOfMe = judgingPeerToUnnormalizedTrust[msg.sender].div(_newTotalTrust);\n        uint128 peersNewInfluenceOnMyReputation = peersNewNormalizedOpinionOfMe.mul(_senderReputation);\n        // _senderReputation and peersNewNormalizedOpinionOfMe are both 18 decimal numbers;\n        // we must divide by 1*10**18 in order to retain the correct number of decimals.\n        peersNewInfluenceOnMyReputation = peersNewInfluenceOnMyReputation.div(one_eighteenDecimal);\n        judgingPeerToInfluenceOnMyReputation[msg.sender] = peersNewInfluenceOnMyReputation;\n        // add this influence to my reputation\n        globalTrust = globalTrust.add(peersNewInfluenceOnMyReputation);\n        return uint128(peersOldInfluenceOnMyReputation.sub(peersNewInfluenceOnMyReputation));\n    }\n\n    function getPeersInfluenceOnMyReputation(address _peerAddress) public view returns (uint256)\n    {\n        return judgingPeerToInfluenceOnMyReputation[_peerAddress];\n    }\n\n    /// @dev \t\t\t\t\t  Flags a missing reference to a submission within another\n    ///\t\t\t\t\t\t\t  submission. This method should be called by the owner of\n    /// \t\t\t\t\t\t  this peer in order to approve a reference to one of\n    /// \t \t\t\t\t\t  their works within someone else's submission.\n    /// @param _submissionAddress Address of the submission missing a reference.\n    /// @param _missingReference  Reference that is missing.\n    function flagMissingReference(address _submissionAddress, address _missingReference) public onlyOwner senderOwnsReference(_missingReference) forExistingSubmission(_submissionAddress) forExistingSubmission(_missingReference)\n    {\n        // Require that we're the author of the reference we're claiming is missing.\n        // Require that the platform knows the submission.\n        // Require that the platform knows the reference we're attempting to flag.\n\n        // Add 1 to the state vars keeping track of the number of\n        // this peer's submissions that _submission fails to reference\n        // as well as the submission's total number of references to submissions by this peer\n        submissionToReferencesMetadata[_submissionAddress].missingReferenceCount = submissionToReferencesMetadata[_submissionAddress].missingReferenceCount.add(1);\n\n        IMatryxSubmission submission = IMatryxSubmission(_submissionAddress);\n        submission.flagMissingReference(_missingReference);\n\n        address submissionAuthor = submission.getAuthor();\n        submissionToReferenceToDistrustGiven[_submissionAddress][_missingReference] = giveDistrust(submissionAuthor);\n    }\n\n    function getMissingReferenceCount(address _submissionAddress) public view returns (uint128, uint128)\n    {\n        return (submissionToReferencesMetadata[_submissionAddress].missingReferenceCount, submissionToReferencesMetadata[_submissionAddress].referenceCount);\n    }\n\n    /// @dev\t\t\t\t\t  Removes a flag on a missing reference from a submission.\n    /// @param _submissionAddress Address of the submission which was previously flagged as missing a reference\n    ///\t\t\t\t\t\t\t  to this peer's work.\n    /// @param _missingReference  Address of the reference to vindicate.\n    function removeMissingReferenceFlag(address _submissionAddress, address _missingReference) public ownerOrSubmission(_submissionAddress) forExistingSubmission(_submissionAddress) forExistingSubmission(_missingReference)\n    {\n        // Require that the platform knows the submission.\n        // Require that the platform knows the reference we'd like to vindicate.\n        // Require that we're the author of the reference we're attempting to vindicate\n        // Require that we've flagged the submission before.\n        //require(submissionToReferenceToDistrustGiven[_submissionAddress][_missingReference] > 0);\n\n        submissionToReferencesMetadata[_submissionAddress].missingReferenceCount = submissionToReferencesMetadata[_submissionAddress].missingReferenceCount.sub(1);\n        totalTrustGiven = totalTrustGiven.add(1);\n\n        IMatryxSubmission submission = IMatryxSubmission(_submissionAddress);\n        submission.removeMissingReferenceFlag(_missingReference);\n\n        address submissionAuthor = submission.getAuthor();\n\n        judgedPeerToUnnormalizedTrust[submissionAuthor] = judgedPeerToUnnormalizedTrust[submissionAuthor].add(one_eighteenDecimal);\n\n        MatryxPeer(submissionAuthor).restoreTrust(submissionToReferenceToDistrustGiven[_submissionAddress][_missingReference]);\n\n        //clean up previous distrust given\n        submissionToReferenceToDistrustGiven[_submissionAddress][_missingReference] = 0;\n    }\n\n    function restoreTrust(uint128 _trustRemoved) public\n    {\n        //restore the trust that was taken away upon flagging the submission\n        judgingPeerToUnnormalizedTrust[msg.sender] = judgingPeerToUnnormalizedTrust[msg.sender].add(one_eighteenDecimal);\n        judgingPeerToTotalTrustGiven[msg.sender] = judgingPeerToTotalTrustGiven[msg.sender].add(_trustRemoved);\n        judgingPeerToInfluenceOnMyReputation[msg.sender] = judgingPeerToInfluenceOnMyReputation[msg.sender].add(_trustRemoved);\n\n        globalTrust = globalTrust.add(_trustRemoved);\n    }\n\n    function revokeTrust(uint128 _trustGiven) public\n    {\n        //revoke the trust that was given upon approving the submission\n        judgingPeerToUnnormalizedTrust[msg.sender] = judgingPeerToUnnormalizedTrust[msg.sender].sub(one_eighteenDecimal);\n        // this reverts ( \n        //judgingPeerToTotalTrustGiven[msg.sender] = judgingPeerToTotalTrustGiven[msg.sender].sub(_trustGiven);\n        //judgingPeerToInfluenceOnMyReputation[msg.sender] = judgingPeerToInfluenceOnMyReputation[msg.sender].sub(_trustGiven);\n\n        globalTrust = globalTrust.sub(_trustGiven);\n    }\n\n    function getReferenceCount(address _submissionAddress) public view returns (uint128)\n    {\n        return submissionToReferencesMetadata[_submissionAddress].referenceCount;\n    }\n\n    function getReferenceProportion(address _submissionAddress) public view returns (uint128)\n    {\n        if(submissionToReferencesMetadata[_submissionAddress].referenceCount.add(submissionToReferencesMetadata[_submissionAddress].missingReferenceCount) == 0)\n        {\n            return 0;\n        }\n\n        return submissionToReferencesMetadata[_submissionAddress].referenceCount.div(submissionToReferencesMetadata[_submissionAddress].referenceCount.add(submissionToReferencesMetadata[_submissionAddress].missingReferenceCount));\n    }\n\n    function peersJudged() public view returns (uint256)\n    {\n        return judgedPeers.length;\n    }\n\n    function getJudgingPeerToUnnormalizedTrust(address _peer) public view returns (uint128)\n    {\n        return judgingPeerToUnnormalizedTrust[_peer];\n    }\n\n    // function normalizedTrustInPeer(address _peer) public onlyOwner view returns (uint128)\n    // {\n    // \tuint128 normalizedTrust = judgedPeerToUnnormalizedTrust[_peer].div(totalTrustGiven);\n    // \tif(normalizedTrust > 0)\n    // \t{\n    // \t\treturn normalizedTrust;\n    // \t}\n\n    // \treturn 0;\n    // }\n}\n",
  "sourcePath": "/Users/maxhoward/Desktop/Ethereum/MatryxPlatform/contracts/MatryxPeer.sol",
  "compiler": {
    "name": "solc",
    "version": "0.4.24+commit.e67f0147.Emscripten.clang"
  },
  "schemaVersion": "2.0.1",
  "updatedAt": "2018-08-08T23:33:46.284Z"
}