{
  "contractName": "MatryxTournament",
  "abi": [
    {
      "constant": true,
      "inputs": [
        {
          "name": "_sender",
          "type": "address"
        }
      ],
      "name": "isOwner",
      "outputs": [
        {
          "name": "_isOwner",
          "type": "bool"
        }
      ],
      "payable": false,
      "stateMutability": "view",
      "type": "function"
    },
    {
      "constant": true,
      "inputs": [],
      "name": "matryxRoundFactoryAddress",
      "outputs": [
        {
          "name": "",
          "type": "address"
        }
      ],
      "payable": false,
      "stateMutability": "view",
      "type": "function"
    },
    {
      "constant": true,
      "inputs": [],
      "name": "getOwner",
      "outputs": [
        {
          "name": "_owner",
          "type": "address"
        }
      ],
      "payable": false,
      "stateMutability": "view",
      "type": "function"
    },
    {
      "constant": true,
      "inputs": [],
      "name": "owner",
      "outputs": [
        {
          "name": "",
          "type": "address"
        }
      ],
      "payable": false,
      "stateMutability": "view",
      "type": "function"
    },
    {
      "constant": true,
      "inputs": [],
      "name": "platformAddress",
      "outputs": [
        {
          "name": "",
          "type": "address"
        }
      ],
      "payable": false,
      "stateMutability": "view",
      "type": "function"
    },
    {
      "constant": false,
      "inputs": [
        {
          "name": "newOwner",
          "type": "address"
        }
      ],
      "name": "transferOwnership",
      "outputs": [],
      "payable": false,
      "stateMutability": "nonpayable",
      "type": "function"
    },
    {
      "inputs": [
        {
          "name": "_owner",
          "type": "address"
        },
        {
          "name": "_platformAddress",
          "type": "address"
        },
        {
          "name": "_matryxRoundFactoryAddress",
          "type": "address"
        },
        {
          "components": [
            {
              "name": "category",
              "type": "bytes32"
            },
            {
              "name": "title",
              "type": "bytes32[3]"
            },
            {
              "name": "descriptionHash",
              "type": "bytes32[2]"
            },
            {
              "name": "fileHash",
              "type": "bytes32[2]"
            },
            {
              "name": "initialBounty",
              "type": "uint256"
            },
            {
              "name": "entryFee",
              "type": "uint256"
            }
          ],
          "name": "tournamentData",
          "type": "tuple"
        },
        {
          "components": [
            {
              "name": "start",
              "type": "uint256"
            },
            {
              "name": "end",
              "type": "uint256"
            },
            {
              "name": "reviewPeriodDuration",
              "type": "uint256"
            },
            {
              "name": "bounty",
              "type": "uint256"
            },
            {
              "name": "closed",
              "type": "bool"
            }
          ],
          "name": "roundData",
          "type": "tuple"
        }
      ],
      "payable": false,
      "stateMutability": "nonpayable",
      "type": "constructor"
    },
    {
      "anonymous": false,
      "inputs": [
        {
          "indexed": false,
          "name": "_roundIndex",
          "type": "uint256"
        },
        {
          "indexed": false,
          "name": "_submissionAddress",
          "type": "address"
        }
      ],
      "name": "SubmissionCreated",
      "type": "event"
    },
    {
      "anonymous": false,
      "inputs": [
        {
          "indexed": false,
          "name": "_submissionAddresses",
          "type": "address[]"
        }
      ],
      "name": "RoundWinnersChosen",
      "type": "event"
    },
    {
      "constant": false,
      "inputs": [
        {
          "name": "_submissionAddress",
          "type": "address"
        }
      ],
      "name": "invokeSubmissionCreatedEvent",
      "outputs": [],
      "payable": false,
      "stateMutability": "nonpayable",
      "type": "function"
    },
    {
      "constant": false,
      "inputs": [
        {
          "name": "_winningAddresses",
          "type": "address[]"
        }
      ],
      "name": "invokeRoundWinnersChosenEvent",
      "outputs": [],
      "payable": false,
      "stateMutability": "nonpayable",
      "type": "function"
    },
    {
      "constant": false,
      "inputs": [
        {
          "name": "_submissionAddress",
          "type": "address"
        },
        {
          "name": "_author",
          "type": "address"
        }
      ],
      "name": "removeSubmission",
      "outputs": [],
      "payable": false,
      "stateMutability": "nonpayable",
      "type": "function"
    },
    {
      "constant": true,
      "inputs": [
        {
          "name": "_sender",
          "type": "address"
        }
      ],
      "name": "isEntrant",
      "outputs": [
        {
          "name": "",
          "type": "bool"
        }
      ],
      "payable": false,
      "stateMutability": "view",
      "type": "function"
    },
    {
      "constant": true,
      "inputs": [],
      "name": "getState",
      "outputs": [
        {
          "name": "",
          "type": "uint256"
        }
      ],
      "payable": false,
      "stateMutability": "view",
      "type": "function"
    },
    {
      "constant": true,
      "inputs": [],
      "name": "getPlatform",
      "outputs": [
        {
          "name": "_platformAddress",
          "type": "address"
        }
      ],
      "payable": false,
      "stateMutability": "view",
      "type": "function"
    },
    {
      "constant": true,
      "inputs": [],
      "name": "getTokenAddress",
      "outputs": [
        {
          "name": "_matryxTokenAddress",
          "type": "address"
        }
      ],
      "payable": false,
      "stateMutability": "view",
      "type": "function"
    },
    {
      "constant": true,
      "inputs": [],
      "name": "getData",
      "outputs": [
        {
          "components": [
            {
              "name": "category",
              "type": "bytes32"
            },
            {
              "name": "title",
              "type": "bytes32[3]"
            },
            {
              "name": "descriptionHash",
              "type": "bytes32[2]"
            },
            {
              "name": "fileHash",
              "type": "bytes32[2]"
            },
            {
              "name": "initialBounty",
              "type": "uint256"
            },
            {
              "name": "entryFee",
              "type": "uint256"
            }
          ],
          "name": "_data",
          "type": "tuple"
        }
      ],
      "payable": false,
      "stateMutability": "view",
      "type": "function"
    },
    {
      "constant": true,
      "inputs": [
        {
          "name": "_roundAddress",
          "type": "address"
        }
      ],
      "name": "isRound",
      "outputs": [
        {
          "name": "_isRound",
          "type": "bool"
        }
      ],
      "payable": false,
      "stateMutability": "view",
      "type": "function"
    },
    {
      "constant": true,
      "inputs": [],
      "name": "getRounds",
      "outputs": [
        {
          "name": "_rounds",
          "type": "address[]"
        }
      ],
      "payable": false,
      "stateMutability": "view",
      "type": "function"
    },
    {
      "constant": true,
      "inputs": [],
      "name": "getCategory",
      "outputs": [
        {
          "name": "_category",
          "type": "bytes32"
        }
      ],
      "payable": false,
      "stateMutability": "view",
      "type": "function"
    },
    {
      "constant": true,
      "inputs": [],
      "name": "getTitle",
      "outputs": [
        {
          "name": "_title",
          "type": "bytes32[3]"
        }
      ],
      "payable": false,
      "stateMutability": "view",
      "type": "function"
    },
    {
      "constant": true,
      "inputs": [],
      "name": "getDescriptionHash",
      "outputs": [
        {
          "name": "_descriptionHash",
          "type": "bytes32[2]"
        }
      ],
      "payable": false,
      "stateMutability": "view",
      "type": "function"
    },
    {
      "constant": true,
      "inputs": [],
      "name": "getFileHash",
      "outputs": [
        {
          "name": "_fileHash",
          "type": "bytes32[2]"
        }
      ],
      "payable": false,
      "stateMutability": "view",
      "type": "function"
    },
    {
      "constant": true,
      "inputs": [],
      "name": "currentRound",
      "outputs": [
        {
          "name": "_currentRound",
          "type": "uint256"
        },
        {
          "name": "_currentRoundAddress",
          "type": "address"
        }
      ],
      "payable": false,
      "stateMutability": "view",
      "type": "function"
    },
    {
      "constant": true,
      "inputs": [],
      "name": "getBounty",
      "outputs": [
        {
          "name": "_tournamentBounty",
          "type": "uint256"
        }
      ],
      "payable": false,
      "stateMutability": "view",
      "type": "function"
    },
    {
      "constant": true,
      "inputs": [],
      "name": "getBalance",
      "outputs": [
        {
          "name": "_tournamentBalance",
          "type": "uint256"
        }
      ],
      "payable": false,
      "stateMutability": "view",
      "type": "function"
    },
    {
      "constant": true,
      "inputs": [],
      "name": "getEntryFee",
      "outputs": [
        {
          "name": "",
          "type": "uint256"
        }
      ],
      "payable": false,
      "stateMutability": "view",
      "type": "function"
    },
    {
      "constant": true,
      "inputs": [],
      "name": "mySubmissions",
      "outputs": [
        {
          "name": "",
          "type": "address[]"
        }
      ],
      "payable": false,
      "stateMutability": "view",
      "type": "function"
    },
    {
      "constant": true,
      "inputs": [],
      "name": "submissionCount",
      "outputs": [
        {
          "name": "_submissionCount",
          "type": "uint256"
        }
      ],
      "payable": false,
      "stateMutability": "view",
      "type": "function"
    },
    {
      "constant": true,
      "inputs": [],
      "name": "entrantCount",
      "outputs": [
        {
          "name": "_entrantCount",
          "type": "uint256"
        }
      ],
      "payable": false,
      "stateMutability": "view",
      "type": "function"
    },
    {
      "constant": false,
      "inputs": [
        {
          "components": [
            {
              "name": "category",
              "type": "bytes32"
            },
            {
              "name": "title",
              "type": "bytes32[3]"
            },
            {
              "name": "descriptionHash",
              "type": "bytes32[2]"
            },
            {
              "name": "fileHash",
              "type": "bytes32[2]"
            },
            {
              "name": "entryFee",
              "type": "uint256"
            },
            {
              "name": "entryFeeChanged",
              "type": "bool"
            }
          ],
          "name": "tournamentData",
          "type": "tuple"
        }
      ],
      "name": "update",
      "outputs": [],
      "payable": false,
      "stateMutability": "nonpayable",
      "type": "function"
    },
    {
      "constant": false,
      "inputs": [
        {
          "components": [
            {
              "name": "winningSubmissions",
              "type": "address[]"
            },
            {
              "name": "rewardDistribution",
              "type": "uint256[]"
            },
            {
              "name": "selectWinnerAction",
              "type": "uint256"
            },
            {
              "name": "rewardDistributionTotal",
              "type": "uint256"
            }
          ],
          "name": "_selectWinnersData",
          "type": "tuple"
        },
        {
          "components": [
            {
              "name": "start",
              "type": "uint256"
            },
            {
              "name": "end",
              "type": "uint256"
            },
            {
              "name": "reviewPeriodDuration",
              "type": "uint256"
            },
            {
              "name": "bounty",
              "type": "uint256"
            },
            {
              "name": "closed",
              "type": "bool"
            }
          ],
          "name": "_roundData",
          "type": "tuple"
        }
      ],
      "name": "selectWinners",
      "outputs": [],
      "payable": false,
      "stateMutability": "nonpayable",
      "type": "function"
    },
    {
      "constant": false,
      "inputs": [
        {
          "components": [
            {
              "name": "start",
              "type": "uint256"
            },
            {
              "name": "end",
              "type": "uint256"
            },
            {
              "name": "reviewPeriodDuration",
              "type": "uint256"
            },
            {
              "name": "bounty",
              "type": "uint256"
            },
            {
              "name": "closed",
              "type": "bool"
            }
          ],
          "name": "_roundData",
          "type": "tuple"
        }
      ],
      "name": "editGhostRound",
      "outputs": [],
      "payable": false,
      "stateMutability": "nonpayable",
      "type": "function"
    },
    {
      "constant": false,
      "inputs": [
        {
          "name": "_mtxAllocation",
          "type": "uint256"
        }
      ],
      "name": "allocateMoreToRound",
      "outputs": [],
      "payable": false,
      "stateMutability": "nonpayable",
      "type": "function"
    },
    {
      "constant": false,
      "inputs": [],
      "name": "jumpToNextRound",
      "outputs": [],
      "payable": false,
      "stateMutability": "nonpayable",
      "type": "function"
    },
    {
      "constant": false,
      "inputs": [],
      "name": "stopTournament",
      "outputs": [],
      "payable": false,
      "stateMutability": "nonpayable",
      "type": "function"
    },
    {
      "constant": false,
      "inputs": [
        {
          "components": [
            {
              "name": "start",
              "type": "uint256"
            },
            {
              "name": "end",
              "type": "uint256"
            },
            {
              "name": "reviewPeriodDuration",
              "type": "uint256"
            },
            {
              "name": "bounty",
              "type": "uint256"
            },
            {
              "name": "closed",
              "type": "bool"
            }
          ],
          "name": "roundData",
          "type": "tuple"
        },
        {
          "name": "_automaticCreation",
          "type": "bool"
        }
      ],
      "name": "createRound",
      "outputs": [
        {
          "name": "_roundAddress",
          "type": "address"
        }
      ],
      "payable": false,
      "stateMutability": "nonpayable",
      "type": "function"
    },
    {
      "constant": false,
      "inputs": [
        {
          "name": "_roundIndex",
          "type": "uint256"
        },
        {
          "name": "_bountyMTX",
          "type": "uint256"
        }
      ],
      "name": "sendBountyToRound",
      "outputs": [],
      "payable": false,
      "stateMutability": "nonpayable",
      "type": "function"
    },
    {
      "constant": false,
      "inputs": [
        {
          "name": "_entrantAddress",
          "type": "address"
        }
      ],
      "name": "enterUserInTournament",
      "outputs": [
        {
          "name": "_success",
          "type": "bool"
        }
      ],
      "payable": false,
      "stateMutability": "nonpayable",
      "type": "function"
    },
    {
      "constant": false,
      "inputs": [],
      "name": "collectMyEntryFee",
      "outputs": [],
      "payable": false,
      "stateMutability": "nonpayable",
      "type": "function"
    },
    {
      "constant": false,
      "inputs": [
        {
          "components": [
            {
              "name": "title",
              "type": "bytes32[3]"
            },
            {
              "name": "descriptionHash",
              "type": "bytes32[2]"
            },
            {
              "name": "fileHash",
              "type": "bytes32[2]"
            },
            {
              "name": "timeSubmitted",
              "type": "uint256"
            },
            {
              "name": "timeUpdated",
              "type": "uint256"
            }
          ],
          "name": "submissionData",
          "type": "tuple"
        },
        {
          "components": [
            {
              "name": "contributors",
              "type": "address[]"
            },
            {
              "name": "contributorRewardDistribution",
              "type": "uint256[]"
            },
            {
              "name": "references",
              "type": "address[]"
            }
          ],
          "name": "contribsAndRefs",
          "type": "tuple"
        }
      ],
      "name": "createSubmission",
      "outputs": [
        {
          "name": "_submissionAddress",
          "type": "address"
        }
      ],
      "payable": false,
      "stateMutability": "nonpayable",
      "type": "function"
    },
    {
      "constant": false,
      "inputs": [],
      "name": "withdrawFromAbandoned",
      "outputs": [],
      "payable": false,
      "stateMutability": "nonpayable",
      "type": "function"
    }
  ],
  "bytecode": "0x60806040523480156200001157600080fd5b506040516102408062003bb08339810180604052620000349190810190620005d7565b60008054600160a060020a03191633179055600160a060020a03851615156200005c57600080fd5b60208201515115156200006e57600080fd5b60808201516000106200008057600080fd5b600160a060020a03831615156200009657600080fd5b60008054600160a060020a03808816600160a060020a031992831617909255600180548784169083161790556002805492861692909116919091179055815160039081556020830151839190620000f19060049083620002d1565b50604082015162000109906004830190600262000316565b50606082015162000121906006830190600262000316565b506080820151600882015560a0909101516009909101556200014e8160016401000000006200015a810204565b505050505050620007af565b600080600160009054906101000a9004600160a060020a0316600160a060020a03166310fe9ae86040518163ffffffff167c0100000000000000000000000000000000000000000000000000000000028152600401602060405180830381600087803b158015620001ca57600080fd5b505af1158015620001df573d6000803e3d6000fd5b505050506040513d601f19601f82011682018060405250620002059190810190620005b6565b6001546002546040517fcfa037dc00000000000000000000000000000000000000000000000000000000815292935073__LibTournamentAdminMethods_____________9263cfa037dc926200027592600d92600160a060020a0392831692889216908b908b90600401620006f1565b60206040518083038186803b1580156200028e57600080fd5b505af4158015620002a3573d6000803e3d6000fd5b505050506040513d601f19601f82011682018060405250620002c99190810190620005b6565b949350505050565b826003810192821562000304579160200282015b82811115620003045782518255602090920191600190910190620002e5565b506200031292915062000348565b5090565b8260028101928215620003045791602002820182811115620003045782518255602090920191600190910190620002e5565b6200036591905b808211156200031257600081556001016200034f565b90565b60006200037682516200079e565b9392505050565b6000601f820183136200038f57600080fd5b6002620003a6620003a08262000780565b62000759565b91508183856020840282011115620003bd57600080fd5b60005b83811015620003ed5781620003d688826200046f565b8452506020928301929190910190600101620003c0565b5050505092915050565b6000601f820183136200040957600080fd5b60036200041a620003a08262000780565b915081838560208402820111156200043157600080fd5b60005b83811015620003ed57816200044a88826200046f565b845250602092830192919091019060010162000434565b6000620003768251620007aa565b600062000376825162000365565b600060a082840312156200049057600080fd5b6200049c60a062000759565b90506000620004ac84846200046f565b8252506020620004bf848483016200046f565b6020830152506040620004d5848285016200046f565b6040830152506060620004eb848285016200046f565b6060830152506080620005018482850162000461565b60808301525092915050565b600061014082840312156200052157600080fd5b6200052d60c062000759565b905060006200053d84846200046f565b82525060206200055084848301620003f7565b602083015250608062000566848285016200037d565b60408301525060c06200057c848285016200037d565b60608301525061010062000593848285016200046f565b608083015250610120620005aa848285016200046f565b60a08301525092915050565b600060208284031215620005c957600080fd5b6000620002c9848462000368565b60008060008060006102408688031215620005f157600080fd5b6000620005ff888862000368565b9550506020620006128882890162000368565b9450506040620006258882890162000368565b935050606062000638888289016200050d565b9250506101a06200064c888289016200047d565b9150509295509295909350565b62000664816200079e565b82525050565b6200066481620007aa565b805160a0830190620006888482620006e6565b5060208201516200069d6020850182620006e6565b506040820151620006b26040850182620006e6565b506060820151620006c76060850182620006e6565b506080820151620006dc60808501826200066a565b50505050565b9052565b620006648162000365565b6101408101620007028289620006e2565b62000711602083018862000659565b62000720604083018762000659565b6200072f606083018662000659565b6200073e608083018562000675565b6200074e6101208301846200066a565b979650505050505050565b6040518181016001604060020a03811182821017156200077857600080fd5b604052919050565b60006001604060020a038211156200079757600080fd5b5060200290565b600160a060020a031690565b151590565b6133f180620007bf6000396000f3006080604052600436106101e25763ffffffff7c0100000000000000000000000000000000000000000000000000000000600035041663072a456081146101e757806310fe9ae81461020957806312065fe0146102345780631865c57d1461025657806323721e241461026b578063245edf061461028b57806328d576d7146102ad57806329db6063146102da5780632f54bf6e146102fa5780632fc1f1901461031a57806331691a7b1461032f5780633bc5de301461034f57806345df1945146103715780634644c51b1461038657806352c01fab146103a6578063542fe6c2146103c6578063583c3a92146103db57806367f69ab1146103fb5780636984d0701461041b5780636ec02be91461043d5780636fe564201461045257806380258e47146104675780638493f71f1461047c578063893d20e81461049157806389f3beb6146104a65780638a19c8bc146104bb5780638c1fc0bb146104de5780638da5cb5b146104fe5780639baec20714610513578063a968c4b914610528578063c2f897bf14610548578063d60561ce1461055d578063dbe55e561461057d578063e139a20c14610592578063e586a4f0146105a7578063f2fde38b146105bc578063f49bff7b146105dc578063fa8f3ac5146105f1578063ff3c1a8f14610611575b600080fd5b3480156101f357600080fd5b50610207610202366004612a63565b610633565b005b34801561021557600080fd5b5061021e6107a2565b60405161022b9190613094565b60405180910390f35b34801561024057600080fd5b5061024961084b565b60405161022b919061312e565b34801561026257600080fd5b506102496109cc565b34801561027757600080fd5b50610207610286366004612acf565b610a70565b34801561029757600080fd5b506102a0610c40565b60405161022b9190613104565b3480156102b957600080fd5b506102cd6102c836600461289c565b610c7c565b60405161022b9190613120565b3480156102e657600080fd5b506102076102f5366004612912565b610d79565b34801561030657600080fd5b506102cd61031536600461289c565b610dd1565b34801561032657600080fd5b5061021e610df2565b34801561033b57600080fd5b5061020761034a366004612965565b610e0e565b34801561035b57600080fd5b50610364610f49565b60405161022b9190613291565b34801561037d57600080fd5b50610207611024565b34801561039257600080fd5b506102076103a136600461289c565b61115a565b3480156103b257600080fd5b506102cd6103c136600461289c565b6111d0565b3480156103d257600080fd5b506102076111fb565b3480156103e757600080fd5b506102076103f63660046129b3565b611331565b34801561040757600080fd5b5061021e610416366004612983565b6114bd565b34801561042757600080fd5b506104306114ee565b60405161022b91906130f3565b34801561044957600080fd5b5061024961155f565b34801561045e57600080fd5b5061021e611565565b34801561047357600080fd5b50610249611581565b34801561048857600080fd5b506102a0611587565b34801561049d57600080fd5b5061021e6115bc565b3480156104b257600080fd5b506102496115d8565b3480156104c757600080fd5b506104d06115de565b60405161022b9291906132ff565b3480156104ea57600080fd5b506102cd6104f936600461289c565b61168c565b34801561050a57600080fd5b5061021e6116b7565b34801561051f57600080fd5b506102076116d3565b34801561053457600080fd5b506102076105433660046128d8565b611859565b34801561055457600080fd5b506102076119ac565b34801561056957600080fd5b50610207610578366004612a44565b611a53565b34801561058957600080fd5b5061021e611ae4565b34801561059e57600080fd5b50610430611b00565b3480156105b357600080fd5b50610249611b76565b3480156105c857600080fd5b506102076105d736600461289c565b611b7c565b3480156105e857600080fd5b50610249611c09565b3480156105fd57600080fd5b5061021e61060c3660046129fa565b611d3a565b34801561061d57600080fd5b506106266120ee565b60405161022b9190613112565b6000805473ffffffffffffffffffffffffffffffffffffffff16331461065857600080fd5b600160009054906101000a900473ffffffffffffffffffffffffffffffffffffffff1673ffffffffffffffffffffffffffffffffffffffff166310fe9ae86040518163ffffffff167c0100000000000000000000000000000000000000000000000000000000028152600401602060405180830381600087803b1580156106de57600080fd5b505af11580156106f2573d6000803e3d6000fd5b505050506040513d601f19601f8201168201806040525061071691908101906128ba565b6040517f5fd45f0b00000000000000000000000000000000000000000000000000000000815290915073__LibTournamentAdminMethods_____________90635fd45f0b9061076e90600d9086908690600401613276565b60006040518083038186803b15801561078657600080fd5b505af415801561079a573d6000803e3d6000fd5b505050505050565b600154604080517f10fe9ae8000000000000000000000000000000000000000000000000000000008152905160009273ffffffffffffffffffffffffffffffffffffffff16916310fe9ae891600480830192602092919082900301818787803b15801561080e57600080fd5b505af1158015610822573d6000803e3d6000fd5b505050506040513d601f19601f8201168201806040525061084691908101906128ba565b905090565b600080600160009054906101000a900473ffffffffffffffffffffffffffffffffffffffff1673ffffffffffffffffffffffffffffffffffffffff166310fe9ae86040518163ffffffff167c0100000000000000000000000000000000000000000000000000000000028152600401602060405180830381600087803b1580156108d457600080fd5b505af11580156108e8573d6000803e3d6000fd5b505050506040513d601f19601f8201168201806040525061090c91908101906128ba565b600f546040517f70a082310000000000000000000000000000000000000000000000000000000081529192506109c69173ffffffffffffffffffffffffffffffffffffffff8416906370a0823190610968903090600401613094565b602060405180830381600087803b15801561098257600080fd5b505af1158015610996573d6000803e3d6000fd5b505050506040513d601f19601f820116820180604052506109ba9190810190612a81565b9063ffffffff61212416565b91505090565b6040517f5726b16f00000000000000000000000000000000000000000000000000000000815260009073__LibTournamentStateManagement__________90635726b16f90610a2090600d9060040161314d565b60206040518083038186803b158015610a3857600080fd5b505af4158015610a4c573d6000803e3d6000fd5b505050506040513d601f19601f820116820180604052506108469190810190612a81565b60015460009073ffffffffffffffffffffffffffffffffffffffff163314610a9757600080fd5b601054610aaa908363ffffffff61213616565b601055600154604080517f10fe9ae8000000000000000000000000000000000000000000000000000000008152905173ffffffffffffffffffffffffffffffffffffffff909216916310fe9ae8916004808201926020929091908290030181600087803b158015610b1a57600080fd5b505af1158015610b2e573d6000803e3d6000fd5b505050506040513d601f19601f82011682018060405250610b5291908101906128ba565b90508073ffffffffffffffffffffffffffffffffffffffff1663a9059cbb600d60000185815481101515610b8257fe5b6000918252602090912001546040517c010000000000000000000000000000000000000000000000000000000063ffffffff8416028152610bde9173ffffffffffffffffffffffffffffffffffffffff169086906004016130d8565b602060405180830381600087803b158015610bf857600080fd5b505af1158015610c0c573d6000803e3d6000fd5b505050506040513d601f19601f82011682018060405250610c309190810190612947565b1515610c3b57600080fd5b505050565b610c486122d9565b60408051808201918290529060079060029082845b81548152600190910190602001808311610c5d575b5050505050905090565b60015460009073ffffffffffffffffffffffffffffffffffffffff163314610ca357600080fd5b6000610cad6109cc565b90506002811480610cbe5750600181145b1515610cc957600080fd5b6040517fa09c5c9900000000000000000000000000000000000000000000000000000000815273__LibTournamentEntrantMethods___________9063a09c5c9990610d2290600390600d9060129089906004016132ca565b60206040518083038186803b158015610d3a57600080fd5b505af4158015610d4e573d6000803e3d6000fd5b505050506040513d601f19601f82011682018060405250610d729190810190612947565b9392505050565b336000908152600e602052604090205460ff161515610d9757600080fd5b7f5ec9914f46ca24eeb7222e98b6f699b769ab33c1d88072c0651eb9bb19478ad581604051610dc691906130f3565b60405180910390a150565b60005473ffffffffffffffffffffffffffffffffffffffff91821691161490565b60015473ffffffffffffffffffffffffffffffffffffffff1690565b6000805473ffffffffffffffffffffffffffffffffffffffff163314610e3357600080fd5b600160009054906101000a900473ffffffffffffffffffffffffffffffffffffffff1673ffffffffffffffffffffffffffffffffffffffff166310fe9ae86040518163ffffffff167c0100000000000000000000000000000000000000000000000000000000028152600401602060405180830381600087803b158015610eb957600080fd5b505af1158015610ecd573d6000803e3d6000fd5b505050506040513d601f19601f82011682018060405250610ef191908101906128ba565b6040517f672ec62300000000000000000000000000000000000000000000000000000000815290915073__LibTournamentAdminMethods_____________9063672ec6239061076e90600d908690869060040161324e565b610f516122f4565b6040805160c08101825260038054825282516060810193849052919290916020840191600490849082845b81548152600190910190602001808311610f7c575050509183525050604080518082019182905260209092019190600484019060029082845b81548152600190910190602001808311610fb5575050509183525050604080518082019182905260209092019190600684019060029082845b81548152600190910190602001808311610fee575050505050815260200160088201548152602001600982015481525050905090565b3360009081526016602052604081205460ff1680151561104357600080fd5b600160009054906101000a900473ffffffffffffffffffffffffffffffffffffffff1673ffffffffffffffffffffffffffffffffffffffff166310fe9ae86040518163ffffffff167c0100000000000000000000000000000000000000000000000000000000028152600401602060405180830381600087803b1580156110c957600080fd5b505af11580156110dd573d6000803e3d6000fd5b505050506040513d601f19601f8201168201806040525061110191908101906128ba565b6040517f734e4a1600000000000000000000000000000000000000000000000000000000815290925073__LibTournamentEntrantMethods___________9063734e4a169061076e90600d906012908790600401613233565b336000908152600e602052604090205460ff16151561117857600080fd5b600d546040517f5fbb3d346317d5ecdb86412d4c69c7503ff4dbed1eccd4cb6290453ea0b1a32291610dc6917fffffffffffffffffffffffffffffffffffffffffffffffffffffffffffffffff9091019084906132ff565b73ffffffffffffffffffffffffffffffffffffffff1660009081526016602052604090205460ff1690565b3360009081526016602052604081205460ff1680151561121a57600080fd5b600160009054906101000a900473ffffffffffffffffffffffffffffffffffffffff1673ffffffffffffffffffffffffffffffffffffffff166310fe9ae86040518163ffffffff167c0100000000000000000000000000000000000000000000000000000000028152600401602060405180830381600087803b1580156112a057600080fd5b505af11580156112b4573d6000803e3d6000fd5b505050506040513d601f19601f820116820180604052506112d891908101906128ba565b6040517fddc23bd000000000000000000000000000000000000000000000000000000000815290925073__LibTournamentEntrantMethods___________9063ddc23bd09061076e90600d906012908790600401613233565b6000805473ffffffffffffffffffffffffffffffffffffffff16331461135657600080fd5b600160009054906101000a900473ffffffffffffffffffffffffffffffffffffffff1673ffffffffffffffffffffffffffffffffffffffff166310fe9ae86040518163ffffffff167c0100000000000000000000000000000000000000000000000000000000028152600401602060405180830381600087803b1580156113dc57600080fd5b505af11580156113f0573d6000803e3d6000fd5b505050506040513d601f19601f8201168201806040525061141491908101906128ba565b6001546040517fd06b592400000000000000000000000000000000000000000000000000000000815291925073__LibTournamentAdminMethods_____________9163d06b59249161148891600d9173ffffffffffffffffffffffffffffffffffffffff16908690899089906004016131df565b60006040518083038186803b1580156114a057600080fd5b505af41580156114b4573d6000803e3d6000fd5b50505050505050565b336000908152600e602052604081205460ff1615156114db57600080fd5b6114e58383612145565b90505b92915050565b6060600d600001805480602002602001604051908101604052809291908181526020018280548015610c7257602002820191906000526020600020905b815473ffffffffffffffffffffffffffffffffffffffff16815260019091019060200180831161152b575050505050905090565b60135490565b60025473ffffffffffffffffffffffffffffffffffffffff1681565b60035490565b61158f6122d9565b60408051808201918290526009805482529091600290600a60208501808311610c5d575050505050905090565b60005473ffffffffffffffffffffffffffffffffffffffff1690565b60175490565b60008073__LibTournamentStateManagement__________630386922b600d6040518263ffffffff167c0100000000000000000000000000000000000000000000000000000000028152600401611635919061314d565b604080518083038186803b15801561164c57600080fd5b505af4158015611660573d6000803e3d6000fd5b505050506040513d601f19601f820116820180604052506116849190810190612a9f565b915091509091565b73ffffffffffffffffffffffffffffffffffffffff166000908152600e602052604090205460ff1690565b60005473ffffffffffffffffffffffffffffffffffffffff1681565b6000805473ffffffffffffffffffffffffffffffffffffffff1633146116f857600080fd5b600160009054906101000a900473ffffffffffffffffffffffffffffffffffffffff1673ffffffffffffffffffffffffffffffffffffffff166310fe9ae86040518163ffffffff167c0100000000000000000000000000000000000000000000000000000000028152600401602060405180830381600087803b15801561177e57600080fd5b505af1158015611792573d6000803e3d6000fd5b505050506040513d601f19601f820116820180604052506117b691908101906128ba565b6001546040517fa91d59d600000000000000000000000000000000000000000000000000000000815291925073__LibTournamentAdminMethods_____________9163a91d59d69161182691600d9173ffffffffffffffffffffffffffffffffffffffff1690869060040161315b565b60006040518083038186803b15801561183e57600080fd5b505af4158015611852573d6000803e3d6000fd5b5050505050565b60015473ffffffffffffffffffffffffffffffffffffffff16331461187d57600080fd5b73ffffffffffffffffffffffffffffffffffffffff80821660009081526015602090815260408083209386168352929052205460ff1615156118be57600080fd5b6013546118d290600163ffffffff61212416565b60135573ffffffffffffffffffffffffffffffffffffffff8082166000908152601460209081526040808320601583528184209487168452939091529020600101548154811061191e57fe5b6000918252602080832090910180547fffffffffffffffffffffffff000000000000000000000000000000000000000016905573ffffffffffffffffffffffffffffffffffffffff928316825260158152604080832094909316825292909252812080547fffffffffffffffffffffffffffffffffffffffffffffffffffffffffffffff0016815560010155565b60005473ffffffffffffffffffffffffffffffffffffffff1633146119d057600080fd5b6040517faf41094900000000000000000000000000000000000000000000000000000000815273__LibTournamentAdminMethods_____________9063af41094990611a2190600d9060040161314d565b60006040518083038186803b158015611a3957600080fd5b505af4158015611a4d573d6000803e3d6000fd5b50505050565b60005473ffffffffffffffffffffffffffffffffffffffff163314611a7757600080fd5b6001546040517fb43475ff00000000000000000000000000000000000000000000000000000000815273__LibTournamentAdminMethods_____________9163b43475ff9161182691600391869173ffffffffffffffffffffffffffffffffffffffff16906004016132a0565b60015473ffffffffffffffffffffffffffffffffffffffff1681565b33600090815260146020908152604091829020805483518184028101840190945280845260609392830182828015610c725760200282019190600052602060002090815473ffffffffffffffffffffffffffffffffffffffff16815260019091019060200180831161152b575050505050905090565b600c5490565b60005473ffffffffffffffffffffffffffffffffffffffff163314611ba057600080fd5b73ffffffffffffffffffffffffffffffffffffffff81161515611bc257600080fd5b600080547fffffffffffffffffffffffff00000000000000000000000000000000000000001673ffffffffffffffffffffffffffffffffffffffff92909216919091179055565b600080600160009054906101000a900473ffffffffffffffffffffffffffffffffffffffff1673ffffffffffffffffffffffffffffffffffffffff166310fe9ae86040518163ffffffff167c0100000000000000000000000000000000000000000000000000000000028152600401602060405180830381600087803b158015611c9257600080fd5b505af1158015611ca6573d6000803e3d6000fd5b505050506040513d601f19601f82011682018060405250611cca91908101906128ba565b601054600f546040517f70a082310000000000000000000000000000000000000000000000000000000081529293506109c692611d2e919073ffffffffffffffffffffffffffffffffffffffff8616906370a0823190610968903090600401613094565b9063ffffffff61213616565b336000908152601660205260408120548190819060ff16801515611d5d57600080fd5b6001546040517f532311c4000000000000000000000000000000000000000000000000000000008152339173ffffffffffffffffffffffffffffffffffffffff1690819063532311c490611db5908590600401613094565b602060405180830381600087803b158015611dcf57600080fd5b505af1158015611de3573d6000803e3d6000fd5b505050506040513d601f19601f82011682018060405250611e079190810190612947565b1515611e1257600080fd5b6000611e1c6115de565b9150600190508173ffffffffffffffffffffffffffffffffffffffff16631865c57d6040518163ffffffff167c0100000000000000000000000000000000000000000000000000000000028152600401602060405180830381600087803b158015611e8657600080fd5b505af1158015611e9a573d6000803e3d6000fd5b505050506040513d601f19601f82011682018060405250611ebe9190810190612a81565b1415611ec957600080fd5b6002611ed36109cc565b14611edd57600080fd5b6040517f0386922b00000000000000000000000000000000000000000000000000000000815273__LibTournamentStateManagement__________90630386922b90611f2e90600d9060040161314d565b604080518083038186803b158015611f4557600080fd5b505af4158015611f59573d6000803e3d6000fd5b505050506040513d601f19601f82011682018060405250611f7d9190810190612a9f565b6001546040517f09d1ebd000000000000000000000000000000000000000000000000000000000815291985073__LibTournamentEntrantMethods___________92506309d1ebd091611ff09173ffffffffffffffffffffffffffffffffffffffff16908a906012908f906004016130a2565b60206040518083038186803b15801561200857600080fd5b505af415801561201c573d6000803e3d6000fd5b505050506040513d601f19601f8201168201806040525061204091908101906128ba565b885151909550151580612057575060408801515115155b156120e1576040517f0a181f5200000000000000000000000000000000000000000000000000000000815273ffffffffffffffffffffffffffffffffffffffff861690630a181f52906120ae908b9060040161313c565b600060405180830381600087803b1580156120c857600080fd5b505af11580156120dc573d6000803e3d6000fd5b505050505b5092979650505050505050565b6120f661233e565b6040805160608101918290526004805482529091600390600560208501808311610c5d575050505050905090565b60008282111561213057fe5b50900390565b600082820183811015610d7257fe5b600080600160009054906101000a900473ffffffffffffffffffffffffffffffffffffffff1673ffffffffffffffffffffffffffffffffffffffff166310fe9ae86040518163ffffffff167c0100000000000000000000000000000000000000000000000000000000028152600401602060405180830381600087803b1580156121ce57600080fd5b505af11580156121e2573d6000803e3d6000fd5b505050506040513d601f19601f8201168201806040525061220691908101906128ba565b6001546002546040517fcfa037dc00000000000000000000000000000000000000000000000000000000815292935073__LibTournamentAdminMethods_____________9263cfa037dc9261228192600d9273ffffffffffffffffffffffffffffffffffffffff92831692889216908b908b90600401613183565b60206040518083038186803b15801561229957600080fd5b505af41580156122ad573d6000803e3d6000fd5b505050506040513d601f19601f820116820180604052506122d191908101906128ba565b949350505050565b60408051808201825290600290829080388339509192915050565b604080516101408101909152600081526020810161231061233e565b815260200161231d6122d9565b815260200161232a6122d9565b815260200160008152602001600081525090565b6060604051908101604052806003906020820280388339509192915050565b60006114e58235613399565b60006114e58251613399565b6000601f8201831361238657600080fd5b813561239961239482613341565b61331a565b915081818352602084019350602081019050838560208402820111156123be57600080fd5b60005b838110156123ea57816123d4888261235d565b84525060209283019291909101906001016123c1565b5050505092915050565b6000601f8201831361240557600080fd5b813561241361239482613341565b9150818183526020840193506020810190508385602084028201111561243857600080fd5b60005b838110156123ea578161244e888261235d565b845250602092830192919091019060010161243b565b6000601f8201831361247557600080fd5b600261248361239482613362565b9150818385602084028201111561249957600080fd5b60005b838110156123ea57816124af88826125ae565b845250602092830192919091019060010161249c565b6000601f820183136124d657600080fd5b60036124e461239482613362565b915081838560208402820111156124fa57600080fd5b60005b838110156123ea578161251088826125ae565b84525060209283019291909101906001016124fd565b6000601f8201831361253757600080fd5b813561254561239482613341565b9150818183526020840193506020810190508385602084028201111561256a57600080fd5b60005b838110156123ea578161258088826125ae565b845250602092830192919091019060010161256d565b60006114e582356133b2565b60006114e582516133b2565b60006114e58235613386565b6000606082840312156125cc57600080fd5b6125d6606061331a565b9050813567ffffffffffffffff8111156125ef57600080fd5b6125fb84828501612375565b825250602082013567ffffffffffffffff81111561261857600080fd5b61262484828501612526565b602083015250604082013567ffffffffffffffff81111561264457600080fd5b61265084828501612375565b60408301525092915050565b600060a0828403121561266e57600080fd5b61267860a061331a565b9050600061268684846125ae565b8252506020612697848483016125ae565b60208301525060406126ab848285016125ae565b60408301525060606126bf848285016125ae565b60608301525060806126d384828501612596565b60808301525092915050565b6000608082840312156126f157600080fd5b6126fb608061331a565b9050813567ffffffffffffffff81111561271457600080fd5b61272084828501612375565b825250602082013567ffffffffffffffff81111561273d57600080fd5b61274984828501612526565b602083015250604061275d848285016125ae565b6040830152506060612771848285016125ae565b60608301525092915050565b6000610120828403121561279057600080fd5b61279a60a061331a565b905060006127a884846124c5565b82525060606127b984848301612464565b60208301525060a06127cd84828501612464565b60408301525060e06127e1848285016125ae565b6060830152506101006126d3848285016125ae565b6000610140828403121561280957600080fd5b61281360c061331a565b9050600061282184846125ae565b8252506020612832848483016124c5565b602083015250608061284684828501612464565b60408301525060c061285a84828501612464565b60608301525061010061286f848285016125ae565b60808301525061012061288484828501612596565b60a08301525092915050565b60006114e58251613386565b6000602082840312156128ae57600080fd5b60006122d1848461235d565b6000602082840312156128cc57600080fd5b60006122d18484612369565b600080604083850312156128eb57600080fd5b60006128f7858561235d565b92505060206129088582860161235d565b9150509250929050565b60006020828403121561292457600080fd5b813567ffffffffffffffff81111561293b57600080fd5b6122d1848285016123f4565b60006020828403121561295957600080fd5b60006122d184846125a2565b600060a0828403121561297757600080fd5b60006122d1848461265c565b60008060c0838503121561299657600080fd5b60006129a2858561265c565b92505060a061290885828601612596565b60008060c083850312156129c657600080fd5b823567ffffffffffffffff8111156129dd57600080fd5b6129e9858286016126df565b92505060206129088582860161265c565b6000806101408385031215612a0e57600080fd5b6000612a1a858561277d565b92505061012083013567ffffffffffffffff811115612a3857600080fd5b612908858286016125ba565b60006101408284031215612a5757600080fd5b60006122d184846127f6565b600060208284031215612a7557600080fd5b60006122d184846125ae565b600060208284031215612a9357600080fd5b60006122d18484612890565b60008060408385031215612ab257600080fd5b6000612abe8585612890565b925050602061290885828601612369565b60008060408385031215612ae257600080fd5b6000612aee85856125ae565b9250506020612908858286016125ae565b612b0881613399565b82525050565b6000612b1982613389565b808452602084019350612b2b83613380565b60005b82811015612b5b57612b41868351612aff565b612b4a82613380565b602096909601959150600101612b2e565b5093949350505050565b6000612b7082613389565b808452602084019350612b8283613380565b60005b82811015612b5b57612b98868351612aff565b612ba182613380565b602096909601959150600101612b85565b6000612bbd82613389565b808452602084019350612bcf83613380565b60005b82811015612b5b57612be5868351612aff565b612bee82613380565b602096909601959150600101612bd2565b612c088161338d565b612c1182613386565b60005b8281101561185257612c27858351612e2e565b612c3082613380565b602095909501949150600101612c14565b612c4a8161338d565b612c5382613386565b60005b8281101561185257612c69858351612e2e565b612c7282613380565b602095909501949150600101612c56565b612c8c8161338d565b612c9582613386565b60005b8281101561185257612cab858351612e2e565b612cb482613380565b602095909501949150600101612c98565b612cce81613393565b612cd782613386565b60005b8281101561185257612ced858351612e2e565b612cf682613380565b602095909501949150600101612cda565b612d1081613393565b612d1982613386565b60005b8281101561185257612d2f858351612e2e565b612d3882613380565b602095909501949150600101612d1c565b612d5281613393565b612d5b82613386565b60005b8281101561185257612d71858351612e2e565b612d7a82613380565b602095909501949150600101612d5e565b6000612d9682613389565b808452602084019350612da883613380565b60005b82811015612b5b57612dbe868351612e2e565b612dc782613380565b602096909601959150600101612dab565b6000612de382613389565b808452602084019350612df583613380565b60005b82811015612b5b57612e0b868351612e2e565b612e1482613380565b602096909601959150600101612df8565b612b08816133b2565b612b0881613386565b8051606080845260009190840190612e4f8282612b65565b91505060208301518482036020860152612e698282612d8b565b91505060408301518482036040860152612e838282612b65565b95945050505050565b9052565b805160a0830190612ea18482612e2e565b506020820151612eb46020850182612e2e565b506040820151612ec76040850182612e2e565b506060820151612eda6060850182612e2e565b506080820151611a4d6080850182612e25565b8051608080845260009190840190612f058282612bb2565b91505060208301518482036020860152612f1f8282612dd8565b9150506040830151612f346040860182612e2e565b506060830151612f476060860182612e2e565b509392505050565b8051610120830190612f618482612d49565b506020820151612f746060850182612c83565b506040820151612f8760a0850182612c83565b506060820151612f9a60e0850182612e2e565b506080820151611a4d610100850182612e2e565b8051610140830190612fc08482612e2e565b506020820151612fd36020850182612d07565b506040820151612fe66080850182612c41565b506060820151612ff960c0850182612c41565b50608082015161300d610100850182612e2e565b5060a0820151611a4d610120850182612e2e565b80516101408301906130338482612e2e565b5060208201516130466020850182612d49565b5060408201516130596080850182612c83565b50606082015161306c60c0850182612c83565b506080820151613080610100850182612e2e565b5060a0820151611a4d610120850182612e25565b602081016114e88284612aff565b61018081016130b18287612aff565b6130be6020830186612aff565b6130cb6040830185612e8c565b612e836060830184612f4f565b604081016130e68285612aff565b610d726020830184612e2e565b602080825281016114e58184612b0e565b604081016114e88284612bff565b606081016114e88284612cc5565b602081016114e88284612e25565b602081016114e88284612e2e565b602080825281016114e58184612e37565b602081016114e88284612e8c565b606081016131698286612e8c565b6131766020830185612aff565b6122d16040830184612aff565b61014081016131928289612e8c565b61319f6020830188612aff565b6131ac6040830187612aff565b6131b96060830186612aff565b6131c66080830185612e90565b6131d4610120830184612e25565b979650505050505050565b61012081016131ee8288612e8c565b6131fb6020830187612aff565b6132086040830186612aff565b818103606083015261321a8185612eed565b90506132296080830184612e90565b9695505050505050565b606081016132418286612e8c565b6131766020830185612e8c565b60e0810161325c8286612e8c565b6132696020830185612e90565b6122d160c0830184612aff565b606081016132848286612e8c565b6131766020830185612e2e565b61014081016114e88284612fae565b61018081016132af8286612e8c565b6132bc6020830185613021565b6122d1610160830184612aff565b608081016132d88287612e8c565b6132e56020830186612e8c565b6132f26040830185612e8c565b612e836060830184612aff565b6040810161330d8285612e2e565b610d726020830184612aff565b60405181810167ffffffffffffffff8111828210171561333957600080fd5b604052919050565b600067ffffffffffffffff82111561335857600080fd5b5060209081020190565b600067ffffffffffffffff82111561337957600080fd5b5060200290565b60200190565b90565b5190565b50600290565b50600390565b73ffffffffffffffffffffffffffffffffffffffff1690565b1515905600a265627a7a723058205d28bfb0b714ddffe646d76e3c5fe5b1807fc6bf3a27b1bff1b5415d5591ce946c6578706572696d656e74616cf50037",
  "source": "pragma solidity ^0.4.18;\npragma experimental ABIEncoderV2;\n\nimport \"../libraries/strings/strings.sol\";\nimport \"../libraries/math/SafeMath.sol\";\nimport \"../libraries/LibConstruction.sol\";\nimport \"../libraries/tournament/LibTournamentStateManagement.sol\";\nimport \"../libraries/tournament/LibTournamentAdminMethods.sol\";\nimport \"../libraries/tournament/LibTournamentEntrantMethods.sol\";\nimport \"../libraries/LibEnums.sol\";\nimport \"../interfaces/IMatryxPlatform.sol\";\nimport \"../interfaces/IMatryxTournament.sol\";\nimport \"../interfaces/IMatryxSubmission.sol\";\nimport \"../interfaces/IMatryxRound.sol\";\nimport \"../interfaces/IMatryxToken.sol\";\nimport \"./Ownable.sol\";\n\n/// @title Tournament - The Matryx tournament.\n/// @author Max Howard - <max@nanome.ai>, Sam Hessenauer - <sam@nanome.ai>\ncontract MatryxTournament is Ownable, IMatryxTournament {\n    using SafeMath for uint256;\n    using strings for *;\n    using LibTournamentAdminMethods for LibConstruction.TournamentData;\n\n    // TODO: condense and put in structs\n    // TODO: Create setter for this (resume here for upgrade system.)\n\n    address public platformAddress;\n    address public matryxRoundFactoryAddress;\n\n    LibConstruction.TournamentData data;\n    LibTournamentStateManagement.StateData stateData;\n    LibTournamentStateManagement.EntryData entryData;\n\n    constructor(address _owner, address _platformAddress, address _matryxRoundFactoryAddress, LibConstruction.TournamentData tournamentData, LibConstruction.RoundData roundData)\n    {\n        //Clean inputs\n        require(_owner != 0x0);\n        require(tournamentData.title[0] != 0);\n        require(tournamentData.initialBounty > 0);\n        require(_matryxRoundFactoryAddress != 0x0);\n\n        owner = _owner;\n        platformAddress = _platformAddress;\n        matryxRoundFactoryAddress = _matryxRoundFactoryAddress;\n        data = tournamentData;\n\n        _createRound(roundData, true); // _automaticCreation\n    }\n\n    /*\n     * Structs\n     */\n\n    struct uint256_optional\n    {\n        bool exists;\n        uint256 value;\n    }\n\n    struct SubmissionLocation\n    {\n        uint256 roundIndex;\n        uint256 submissionIndex;\n    }\n\n    /*\n     * Events\n     */\n\n    event SubmissionCreated(uint256 _roundIndex, address _submissionAddress);\n    event RoundWinnersChosen(address[] _submissionAddresses);\n\n    /// @dev Allows rounds to invoke SubmissionCreated events on this tournament.\n    /// @param _submissionAddress Address of the submission.\n    function invokeSubmissionCreatedEvent(address _submissionAddress) public onlyRound\n    {\n        emit SubmissionCreated(stateData.rounds.length-1, _submissionAddress);\n    }\n\n    /// @dev Allows rounds to invoke SubmissionCreated events on this tournament.\n    /// @param _winningAddresses Addresses of the winning submissions.\n    function invokeRoundWinnersChosenEvent(address[] _winningAddresses) public onlyRound\n    {\n        emit RoundWinnersChosen(_winningAddresses);\n    }\n\n    /*\n     * Modifiers\n     */\n    modifier onlyOwner()\n    {\n        require(msg.sender == owner);\n        _;\n    }\n\n    /// @dev Requires the function caller to be the platform.\n    modifier onlyPlatform() {\n        require(msg.sender == platformAddress);\n        _;\n    }\n\n    modifier onlyRound() {\n        require(stateData.isRound[msg.sender]);\n        _;\n    }\n\n    modifier onlyPeerLinked(address _sender) {\n        IMatryxPlatform platform = IMatryxPlatform(platformAddress);\n        require(platform.hasPeer(_sender));\n        _;\n    }\n\n    /// @dev Requires the function caller to be an entrant.\n    modifier onlyEntrant()\n    {\n        bool senderIsEntrant = entryData.addressToEntryFeePaid[msg.sender].exists;\n        require(senderIsEntrant);\n        _;\n    }\n\n    modifier whileTournamentOpen()\n    {\n        require(getState() == uint256(LibEnums.TournamentState.Open));\n        _;\n    }\n\n    modifier whileEnterable()\n    {\n        uint256 state = getState();\n        require(state == uint256(LibEnums.TournamentState.Open) ||\n                state == uint256(LibEnums.TournamentState.OnHold));\n        _;\n    }\n\n    modifier ifRoundHasFunds()\n    {\n        address currentRoundAddress;\n        (,currentRoundAddress) = currentRound();\n        require(IMatryxRound(currentRoundAddress).getState() != uint256(LibEnums.RoundState.Unfunded));\n        _;\n    }\n\n    /*\n    * State Maintenance Methods\n    */\n\n    function removeSubmission(address _submissionAddress, address _author) public onlyPlatform\n    {\n        require(entryData.entrantToSubmissionToSubmissionIndex[_author][_submissionAddress].exists);\n        entryData.numberOfSubmissions = entryData.numberOfSubmissions.sub(1);\n        delete entryData.entrantToSubmissions[_author][entryData.entrantToSubmissionToSubmissionIndex[_author][_submissionAddress].value];\n        delete entryData.entrantToSubmissionToSubmissionIndex[_author][_submissionAddress];\n    }\n\n    /*\n     * Access Control Methods\n     */\n\n    /// @dev Returns whether or not the sender is an entrant in this tournament\n    /// @param _sender Explicit sender address.\n    /// @return Whether or not the sender is an entrant in this tournament.\n    function isEntrant(address _sender) public view returns (bool)\n    {\n        return entryData.addressToEntryFeePaid[_sender].exists;\n    }\n\n    /// @dev Returns the state of the tournament. One of:\n    /// { NotYetOpen, OnHold, Open, Closed, Abandoned }\n    function getState() public view returns (uint256)\n    {\n        return LibTournamentStateManagement.getState(stateData);\n    }\n\n    /*\n     * Getter Methods\n     */\n\n    function getPlatform() public view returns (address _platformAddress)\n    {\n        return platformAddress;\n    }\n\n    function getTokenAddress() public view returns (address _matryxTokenAddress)\n    {\n        return IMatryxPlatform(platformAddress).getTokenAddress();\n    }\n\n    function getData() public view returns (LibConstruction.TournamentData _data)\n    {\n        return data;\n    }\n\n    /// @dev Returns bool indicating whether _address corresponds to an existing round or not\n    function isRound(address _roundAddress) public view returns (bool _isRound)\n    {\n        return stateData.isRound[_roundAddress];\n    }\n\n    /// @dev Returns list of round addresses in the tournament\n    function getRounds() public view returns (address[] _rounds)\n    {\n        return stateData.rounds;\n    }\n\n    function getCategory() public view returns (bytes32 _category)\n    {\n        return data.category;\n    }\n\n    function getTitle() public view returns (bytes32[3] _title)\n    {\n        return data.title;\n    }\n\n    // @dev Returns the external address of the tournament.\n    // @return _descriptionHash Off-chain content hash of tournament details (ipfs hash)\n    function getDescriptionHash() public view returns (bytes32[2] _descriptionHash)\n    {\n        return data.descriptionHash;\n    }\n\n    function getFileHash() public view returns (bytes32[2] _fileHash)\n    {\n        return data.fileHash;\n    }\n\n    /// @dev Returns the current round number and address.\n    /// @return (_currentRound, _currentRoundAddress) Number and address of the current round.\n    function currentRound() public view returns (uint256 _currentRound, address _currentRoundAddress)\n    {\n        return LibTournamentStateManagement.currentRound(stateData);\n    }\n\n    ///@dev Returns this tournament's bounty.\n    function getBounty() public view returns (uint256 _tournamentBounty)\n    {\n        IMatryxToken token = IMatryxToken(IMatryxPlatform(platformAddress).getTokenAddress());\n        return token.balanceOf(address(this)).sub(stateData.entryFeesTotal).add(stateData.roundBountyAllocation);\n    }\n\n    // @dev Returns the remaining bounty this tournament is able to award.\n    function getBalance() public view returns (uint256 _tournamentBalance)\n    {\n        IMatryxToken token = IMatryxToken(IMatryxPlatform(platformAddress).getTokenAddress());\n        return token.balanceOf(address(this)).sub(stateData.entryFeesTotal);\n    }\n\n    /// @dev Returns the fee in MTX to be payed by a prospective entrant.\n    /// @return Entry fee for this tournament.\n    function getEntryFee() public view returns (uint256)\n    {\n        return data.entryFee;\n    }\n\n    /// @dev Returns all of the sender's submissions to this tournament.\n    /// @return (_roundIndices[], _submissionIndices[]) Locations of the sender's submissions.\n    function mySubmissions() public view returns (address[])\n    {\n        return entryData.entrantToSubmissions[msg.sender];\n    }\n\n    /// @dev Returns the number of submissions made to this tournament.\n    /// @return _submissionCount Number of submissions made to this tournament.\n    function submissionCount() public view returns (uint256 _submissionCount)\n    {\n        return entryData.numberOfSubmissions;\n    }\n\n    function entrantCount() public view returns (uint256 _entrantCount)\n    {\n        return entryData.numberOfEntrants;\n    }\n\n    /*\n     * Setter Methods\n     */\n\n    function update(LibConstruction.TournamentModificationData tournamentData) public onlyOwner\n    {\n        data.update(tournamentData, platformAddress);\n    }\n\n    /*\n     * Tournament Admin Methods\n     */\n\n    /// @dev Chooses the winner(s) of the current round.\n    /// @param _selectWinnersData Struct containing winning submission information including:\n    ///        winningSubmissions: Winning submission addresses\n    ///        rewardDistribution: Distribution indicating how to split the reward among the submissions\n    ///        selectWinnerAction: SelectWinnerAction (DoNothing, StartNextRound, CloseTournament) indicating what to do after winner selection\n    ///        rewardDistributionTotal: (Unused)\n    /// @param _roundData Struct containing data for the next round including:\n    ///        start: Start time (seconds since unix-epoch) for next round\n    ///        end: End time (seconds since unix-epoch) for next round\n    ///        reviewPeriodDuration: Number of seconds to allow for winning submissions to be selected in next round\n    ///        bounty: Bounty in MTX for next round\n    ///        closed: (Unused)\n    function selectWinners(LibRound.SelectWinnersData _selectWinnersData, LibConstruction.RoundData _roundData) public onlyOwner\n    {\n        address matryxTokenAddress = IMatryxPlatform(platformAddress).getTokenAddress();\n        LibTournamentAdminMethods.selectWinners(stateData, platformAddress, matryxTokenAddress, _selectWinnersData, _roundData);\n    }\n\n    /// @dev modifies the future \"Ghost\" Round Information\n    function editGhostRound(LibConstruction.RoundData _roundData) public onlyOwner\n    {\n        address matryxTokenAddress = IMatryxPlatform(platformAddress).getTokenAddress();\n        LibTournamentAdminMethods.editGhostRound(stateData, _roundData, matryxTokenAddress);\n    }\n\n    ///@dev Allocates some of this tournament's balance to the current round\n    function allocateMoreToRound(uint256 _mtxAllocation) public onlyOwner\n    {\n        address matryxTokenAddress = IMatryxPlatform(platformAddress).getTokenAddress();\n        LibTournamentAdminMethods.allocateMoreToRound(stateData, _mtxAllocation, matryxTokenAddress);\n    }\n\n    /// @dev This function should be called after the user selects winners for their tournament and chooses the \"Start Next Round\" option\n    function jumpToNextRound() public onlyOwner\n    {\n        LibTournamentAdminMethods.jumpToNextRound(stateData);\n    }\n\n    /// @dev This function closes the tournament after the tournament owner selects winners with the \"Close Tournament\" option\n    function stopTournament() public onlyOwner\n    {\n        address matryxTokenAddress = IMatryxPlatform(platformAddress).getTokenAddress();\n        LibTournamentAdminMethods.stopTournament(stateData, platformAddress, matryxTokenAddress);\n    }\n\n    /// @dev Creates a new round.\n    /// @return The new round's address.\n    function createRound(LibConstruction.RoundData roundData, bool _automaticCreation) public onlyRound returns (address _roundAddress)\n    {\n        return _createRound(roundData, _automaticCreation);\n    }\n\n    function _createRound(LibConstruction.RoundData roundData, bool _automaticCreation) private returns (address _roundAddress)\n    {\n        address matryxTokenAddress = IMatryxPlatform(platformAddress).getTokenAddress();\n        return LibTournamentAdminMethods.createRound(stateData, platformAddress, matryxTokenAddress, matryxRoundFactoryAddress, roundData, _automaticCreation);\n    }\n\n    function sendBountyToRound(uint256 _roundIndex, uint256 _bountyMTX) public onlyPlatform\n    {\n        stateData.roundBountyAllocation = stateData.roundBountyAllocation.add(_bountyMTX);\n        IMatryxToken token = IMatryxToken(IMatryxPlatform(platformAddress).getTokenAddress());\n        require(token.transfer(stateData.rounds[_roundIndex], _bountyMTX));\n    }\n\n    /*\n     * Entrant Methods\n     */\n\n    /// @dev Enters the user into the tournament.\n    /// @param _entrantAddress Address of the user to enter.\n    /// @return success Whether or not the user was entered successfully.\n    function enterUserInTournament(address _entrantAddress) public onlyPlatform whileEnterable returns (bool _success)\n    {\n        return LibTournamentEntrantMethods.enterUserInTournament(data, stateData, entryData, _entrantAddress);\n    }\n\n    function collectMyEntryFee() public onlyEntrant\n    {\n        address matryxTokenAddress = IMatryxPlatform(platformAddress).getTokenAddress();\n        LibTournamentEntrantMethods.collectMyEntryFee(stateData, entryData, matryxTokenAddress);\n    }\n\n    function createSubmission(LibConstruction.SubmissionData submissionData, LibConstruction.ContributorsAndReferences contribsAndRefs) public onlyEntrant onlyPeerLinked(msg.sender) ifRoundHasFunds whileTournamentOpen returns (address _submissionAddress)\n    {\n        address currentRoundAddress;\n        (, currentRoundAddress) = LibTournamentStateManagement.currentRound(stateData);\n        address newSubmission = LibTournamentEntrantMethods.createSubmission(platformAddress, currentRoundAddress, entryData, submissionData);\n\n        if (contribsAndRefs.contributors.length != 0 || contribsAndRefs.references.length != 0)\n        {\n            IMatryxSubmission(newSubmission).setContributorsAndReferences(contribsAndRefs);\n        }\n\n        return newSubmission;\n    }\n\n    function withdrawFromAbandoned() public onlyEntrant\n    {\n        address matryxTokenAddress = IMatryxPlatform(platformAddress).getTokenAddress();\n        LibTournamentEntrantMethods.withdrawFromAbandoned(stateData, entryData, matryxTokenAddress);\n    }\n}\n",
  "sourcePath": "/Users/maxhoward/Desktop/Ethereum/MatryxPlatform/contracts/MatryxTournament.sol",
  "compiler": {
    "name": "solc",
    "version": "0.4.24+commit.e67f0147.Emscripten.clang"
  },
  "schemaVersion": "2.0.1",
  "updatedAt": "2018-08-17T22:42:59.570Z"
}