{
  "contractName": "MatryxRoundFactory",
  "abi": [
    {
      "constant": true,
      "inputs": [],
      "name": "matryxTokenAddress",
      "outputs": [
        {
          "name": "",
          "type": "address"
        }
      ],
      "payable": false,
      "stateMutability": "view",
      "type": "function"
    },
    {
      "constant": true,
      "inputs": [],
      "name": "matryxSubmissionFactoryAddress",
      "outputs": [
        {
          "name": "",
          "type": "address"
        }
      ],
      "payable": false,
      "stateMutability": "view",
      "type": "function"
    },
    {
      "inputs": [
        {
          "name": "_matryxTokenAddress",
          "type": "address"
        },
        {
          "name": "_matryxSubmissionFactoryAddress",
          "type": "address"
        }
      ],
      "payable": false,
      "stateMutability": "nonpayable",
      "type": "constructor"
    },
    {
      "constant": false,
      "inputs": [
        {
          "name": "_platformAddress",
          "type": "address"
        },
        {
          "name": "_tournamentAddress",
          "type": "address"
        },
        {
          "name": "_owner",
          "type": "address"
        },
        {
          "name": "_bountyMTX",
          "type": "uint256"
        }
      ],
      "name": "createRound",
      "outputs": [
        {
          "name": "_roundAddress",
          "type": "address"
        }
      ],
      "payable": false,
      "stateMutability": "nonpayable",
      "type": "function"
    }
  ],
  "bytecode": "0x6060604052341561000f57600080fd5b604051604080611c19833981016040528080519190602001805160018054600160a060020a03958616600160a060020a0319918216179091556000805492909516911617835550611bb29182915061006790396000f3006060604052600436106100565763ffffffff7c010000000000000000000000000000000000000000000000000000000060003504166329cc545e811461005b5780637f12d52a14610097578063b0ff5492146100d2575b600080fd5b341561006657600080fd5b61006e6100e5565b60405173ffffffffffffffffffffffffffffffffffffffff909116815260200160405180910390f35b34156100a257600080fd5b61006e73ffffffffffffffffffffffffffffffffffffffff60043581169060243581169060443516606435610101565b34156100dd57600080fd5b61006e610199565b60015473ffffffffffffffffffffffffffffffffffffffff1681565b600154600080549091829173ffffffffffffffffffffffffffffffffffffffff91821691889188911687876101346101b5565b73ffffffffffffffffffffffffffffffffffffffff968716815294861660208601529285166040808601919091529185166060850152909316608083015260a082015260c0019051809103906000f080151561018f57600080fd5b9695505050505050565b60005473ffffffffffffffffffffffffffffffffffffffff1681565b6040516119c1806101c68339019056006060604052341561000f57600080fd5b60405160c0806119c18339810160405280805191906020018051919060200180519190602001805191906020018051919060200180516000805460048054600160a060020a0319908116600160a060020a039c8d16179091556001805482169a8c169a909a17909955600280548a16988b16989098179097559587163389161787169388169390931785555050600380549094169190941617909155600b91909155600c805460a060020a60ff02191690556118f09081906100d190396000f3006060604052600436106101cc5763ffffffff7c010000000000000000000000000000000000000000000000000000000060003504166303d66a9781146101d15780630b2992081461020d57806310fe9ae81461023b57806319e28e431461024e5780631cdb7de51461027d578063241b15ad146102ac57806329cc545e146102d15780632f54bf6e146102e45780632fc1f190146103245780633197cbb6146103375780633b2498101461034a5780633d6227801461035d578063417e5bc21461037357806345b12a0d1461038657806347535d7b1461039957806347e40553146103ac57806354f6aa20146103bf57806356974da3146104255780635a7d5f501461043b578063648036ae1461045457806378e97925146104675780638499a1381461047a578063893d20e8146104a65780638da5cb5b146104b9578063943dfef1146104cc578063a64c3c4d146104df578063a68e8a861461050b578063b0ff54921461051e578063b288e1a914610531578063dbe55e5614610544578063df4f9dba14610557578063e76c293e1461056d578063ecf251fd14610580578063f2fde38b14610593578063f3eda8e8146105bf578063f49bff7b146106fb578063f8b2cb4f1461070e575b600080fd5b34156101dc57600080fd5b6101e461073a565b60405173ffffffffffffffffffffffffffffffffffffffff909116815260200160405180910390f35b341561021857600080fd5b61023973ffffffffffffffffffffffffffffffffffffffff60043516610756565b005b341561024657600080fd5b6101e46108e5565b341561025957600080fd5b61023973ffffffffffffffffffffffffffffffffffffffff60043516602435610902565b341561028857600080fd5b61023973ffffffffffffffffffffffffffffffffffffffff60043516602435610a19565b34156102b757600080fd5b6102bf610a76565b60405190815260200160405180910390f35b34156102dc57600080fd5b6101e4610a80565b34156102ef57600080fd5b61031073ffffffffffffffffffffffffffffffffffffffff60043516610a9c565b604051901515815260200160405180910390f35b341561032f57600080fd5b6101e4610abd565b341561034257600080fd5b6102bf610ad9565b341561035557600080fd5b6102bf610adf565b341561036857600080fd5b6101e4600435610ae5565b341561037e57600080fd5b6101e4610c5e565b341561039157600080fd5b610310610c7a565b34156103a457600080fd5b610310610c9b565b34156103b757600080fd5b6101e4610cee565b34156103ca57600080fd5b6103d2610d0a565b60405160208082528190810183818151815260200191508051906020019060200280838360005b838110156104115780820151838201526020016103f9565b505050509050019250505060405180910390f35b341561043057600080fd5b610310600435610d7f565b341561044657600080fd5b610239600435602435610e59565b341561045f57600080fd5b6102bf610e85565b341561047257600080fd5b6102bf610e8b565b341561048557600080fd5b61031073ffffffffffffffffffffffffffffffffffffffff60043516610e91565b34156104b157600080fd5b6101e4610ebb565b34156104c457600080fd5b6101e4610ed7565b34156104d757600080fd5b6102bf610ef3565b34156104ea57600080fd5b61031073ffffffffffffffffffffffffffffffffffffffff60043516610ef9565b341561051657600080fd5b61031061114d565b341561052957600080fd5b6101e461119b565b341561053c57600080fd5b6101e46111b7565b341561054f57600080fd5b6101e46111d3565b341561056257600080fd5b6101e46004356111ef565b341561057857600080fd5b6101e4611236565b341561058b57600080fd5b6101e4611252565b341561059e57600080fd5b61023973ffffffffffffffffffffffffffffffffffffffff6004351661126e565b34156105ca57600080fd5b6101e460046024813581810190830135806020601f82018190048102016040519081016040528181529291906020840183838082843750949673ffffffffffffffffffffffffffffffffffffffff87358116976020808201359092169750919550606082019450604091820135860180820194503592508291601f830182900482029091019051908101604052818152929190602084018383808284378201915050505050509190803590602001908201803590602001908080602002602001604051908101604052809392919081815260200183836020028082843782019150505050505091908035906020019082018035906020019080806020026020016040519081016040528093929190818152602001838360200280828437509496505050509135151591506112f49050565b341561070657600080fd5b6102bf6117a1565b341561071957600080fd5b6102bf73ffffffffffffffffffffffffffffffffffffffff600435166117a7565b60025473ffffffffffffffffffffffffffffffffffffffff1681565b6002546000903373ffffffffffffffffffffffffffffffffffffffff90811691161461078157600080fd5b73ffffffffffffffffffffffffffffffffffffffff82166000908152600f6020526040902054829060ff1615156107b757600080fd5b6107bf61114d565b15156107ca57600080fd5b600c80547fffffffffffffffffffffff00ffffffffffffffffffffffffffffffffffffffff73ffffffffffffffffffffffffffffffffffffffff80871673ffffffffffffffffffffffffffffffffffffffff1990931692909217167401000000000000000000000000000000000000000017909155600454600b5491169250829063a9059cbb9085906000604051602001526040517c010000000000000000000000000000000000000000000000000000000063ffffffff851602815273ffffffffffffffffffffffffffffffffffffffff90921660048301526024820152604401602060405180830381600087803b15156108c557600080fd5b6102c65a03f115156108d657600080fd5b50505060405180515050505050565b60045473ffffffffffffffffffffffffffffffffffffffff165b90565b6002546000903373ffffffffffffffffffffffffffffffffffffffff90811691161461092d57600080fd5b73ffffffffffffffffffffffffffffffffffffffff83166000908152600f6020526040902054839060ff16151561096357600080fd5b60045473ffffffffffffffffffffffffffffffffffffffff1691508163a9059cbb85856000604051602001526040517c010000000000000000000000000000000000000000000000000000000063ffffffff851602815273ffffffffffffffffffffffffffffffffffffffff90921660048301526024820152604401602060405180830381600087803b15156109f857600080fd5b6102c65a03f11515610a0957600080fd5b5050506040518051505050505050565b73ffffffffffffffffffffffffffffffffffffffff33166000908152600f602052604090205460ff161515610a4d57600080fd5b73ffffffffffffffffffffffffffffffffffffffff9091166000908152600d6020526040902055565b6011546010540390565b60045473ffffffffffffffffffffffffffffffffffffffff1681565b60005473ffffffffffffffffffffffffffffffffffffffff91821691161490565b60015473ffffffffffffffffffffffffffffffffffffffff1690565b60095481565b600a5481565b6000803383601081815481101515610af957fe5b600091825260208220015473ffffffffffffffffffffffffffffffffffffffff169063a52dd12f908490604051602001526040517c010000000000000000000000000000000000000000000000000000000063ffffffff841602815273ffffffffffffffffffffffffffffffffffffffff9091166004820152602401602060405180830381600087803b1515610b8e57600080fd5b6102c65a03f11515610b9f57600080fd5b505050604051805190501515610bb457600080fd5b6010805486908110610bc257fe5b600091825260208220015473ffffffffffffffffffffffffffffffffffffffff169350839063a5faa12590604051602001526040518163ffffffff167c0100000000000000000000000000000000000000000000000000000000028152600401602060405180830381600087803b1515610c3b57600080fd5b6102c65a03f11515610c4c57600080fd5b50505060405180519695505050505050565b600c5473ffffffffffffffffffffffffffffffffffffffff1681565b600c5474010000000000000000000000000000000000000000900460ff1690565b600854600954600c546000924290819011801593909111159174010000000000000000000000000000000000000000900460ff16159084908490610cdc5750825b8015610ce55750815b95945050505050565b60075473ffffffffffffffffffffffffffffffffffffffff1681565b610d1261186b565b6010805480602002602001604051908101604052809291908181526020018280548015610d7557602002820191906000526020600020905b815473ffffffffffffffffffffffffffffffffffffffff168152600190910190602001808311610d4a575b5050505050905090565b60105460009081908310610d9257600080fd5b6010805484908110610da057fe5b600091825260208220015473ffffffffffffffffffffffffffffffffffffffff169150819063a52dd12f903390604051602001526040517c010000000000000000000000000000000000000000000000000000000063ffffffff841602815273ffffffffffffffffffffffffffffffffffffffff9091166004820152602401602060405180830381600087803b1515610e3857600080fd5b6102c65a03f11515610e4957600080fd5b5050506040518051949350505050565b60085415610e6657600080fd5b426008819055610e7c908363ffffffff61185516565b600955600a5550565b60055481565b60085481565b73ffffffffffffffffffffffffffffffffffffffff166000908152600d6020526040902054151590565b60005473ffffffffffffffffffffffffffffffffffffffff1690565b60005473ffffffffffffffffffffffffffffffffffffffff1681565b600b5481565b600254600090819081903373ffffffffffffffffffffffffffffffffffffffff908116911614610f2857600080fd5b73ffffffffffffffffffffffffffffffffffffffff33166000908152600f602052604090205460ff16156111415773ffffffffffffffffffffffffffffffffffffffff84166000908152600f6020526040902060010154601080549091908110610f8e57fe5b600091825260208220015473ffffffffffffffffffffffffffffffffffffffff169250829063a5faa12590604051602001526040518163ffffffff167c0100000000000000000000000000000000000000000000000000000000028152600401602060405180830381600087803b151561100757600080fd5b6102c65a03f1151561101857600080fd5b505050604051805191505073ffffffffffffffffffffffffffffffffffffffff821663a0bf8fe36040518163ffffffff167c0100000000000000000000000000000000000000000000000000000000028152600401600060405180830381600087803b151561108657600080fd5b6102c65a03f1151561109757600080fd5b50505073ffffffffffffffffffffffffffffffffffffffff8082166000908152600e60209081526040808320805473ffffffffffffffffffffffffffffffffffffffff191690559287168252600f905220600101546010805490919081106110fb57fe5b6000918252602090912001805473ffffffffffffffffffffffffffffffffffffffff1916905560115461113590600163ffffffff61185516565b60115560019250611146565b600092505b5050919050565b600954600a546000914281811080159390920190111590829061116d5750805b80156111945750600c5474010000000000000000000000000000000000000000900460ff16155b9250505090565b60035473ffffffffffffffffffffffffffffffffffffffff1681565b60065473ffffffffffffffffffffffffffffffffffffffff1681565b60015473ffffffffffffffffffffffffffffffffffffffff1681565b601054600090821061120057600080fd5b601080548390811061120e57fe5b60009182526020909120015473ffffffffffffffffffffffffffffffffffffffff1692915050565b60025473ffffffffffffffffffffffffffffffffffffffff1690565b600c5473ffffffffffffffffffffffffffffffffffffffff1690565b6000543373ffffffffffffffffffffffffffffffffffffffff90811691161461129657600080fd5b73ffffffffffffffffffffffffffffffffffffffff811615156112b857600080fd5b6000805473ffffffffffffffffffffffffffffffffffffffff191673ffffffffffffffffffffffffffffffffffffffff92909216919091179055565b600254600090819081903373ffffffffffffffffffffffffffffffffffffffff90811691161461132357600080fd5b61132b610c9b565b151561133657600080fd5b73ffffffffffffffffffffffffffffffffffffffff8816151561135857600080fd5b60035460015460025473ffffffffffffffffffffffffffffffffffffffff9283169263288d58bd9281169116308e8e8e8e8e8e8e6000604051602001526040517c010000000000000000000000000000000000000000000000000000000063ffffffff8d1602815273ffffffffffffffffffffffffffffffffffffffff808c16600483019081528b821660248401528a82166044840152888216608484015290871660a483015282151561012483015261014060648301908152909160c481019060e4810190610104810190610144018c818151815260200191508051906020019080838360005b83811015611458578082015183820152602001611440565b50505050905090810190601f1680156114855780820380516001836020036101000a031916815260200191505b50858103845289818151815260200191508051906020019080838360005b838110156114bb5780820151838201526020016114a3565b50505050905090810190601f1680156114e85780820380516001836020036101000a031916815260200191505b50858103835288818151815260200191508051906020019060200280838360005b83811015611521578082015183820152602001611509565b50505050905001858103825287818151815260200191508051906020019060200280838360005b83811015611560578082015183820152602001611548565b505050509050019e505050505050505050505050505050602060405180830381600087803b151561159057600080fd5b6102c65a03f115156115a157600080fd5b5050506040518051905091506040805190810160409081526001825260105460208084019190915273ffffffffffffffffffffffffffffffffffffffff85166000908152600f90915220815181547fffffffffffffffffffffffffffffffffffffffffffffffffffffffffffffff0016901515178155602082015160019182015560108054909250908101611636838261187d565b506000918252602080832091909101805473ffffffffffffffffffffffffffffffffffffffff86811673ffffffffffffffffffffffffffffffffffffffff1992831681179093553381168552600e8452604080862080549093169093179091558b168352600d90915281206003905590505b84518110156116fc576002600d60008784815181106116c357fe5b9060200190602002015173ffffffffffffffffffffffffffffffffffffffff1681526020810191909152604001600020556001016116a8565b60025473ffffffffffffffffffffffffffffffffffffffff16634644c51b836040517c010000000000000000000000000000000000000000000000000000000063ffffffff841602815273ffffffffffffffffffffffffffffffffffffffff9091166004820152602401600060405180830381600087803b151561177f57600080fd5b6102c65a03f1151561179057600080fd5b50929b9a5050505050505050505050565b600b5490565b60045460009073ffffffffffffffffffffffffffffffffffffffff166370a082318383604051602001526040517c010000000000000000000000000000000000000000000000000000000063ffffffff841602815273ffffffffffffffffffffffffffffffffffffffff9091166004820152602401602060405180830381600087803b151561183557600080fd5b6102c65a03f1151561184657600080fd5b50505060405180519392505050565b60008282018381101561186457fe5b9392505050565b60206040519081016040526000815290565b8154818355818115116118a1576000838152602090206118a19181019083016118a6565b505050565b6108ff91905b808211156118c057600081556001016118ac565b50905600a165627a7a72305820e2d2c67e28acd7327e47aaa56656a6f84f11c35f3b0b55e571f175a2c5cb82e10029a165627a7a723058204e530f177516982c945211f7a1a772dc5eca3e581e395f0123726435fb97e5840029",
  "source": "pragma solidity ^0.4.18;\n\nimport '../MatryxRound.sol';\n\ncontract MatryxRoundFactory {\n\taddress public matryxSubmissionFactoryAddress;\n\taddress public matryxTokenAddress;\n\n\tfunction MatryxRoundFactory(address _matryxTokenAddress, address _matryxSubmissionFactoryAddress) public {\n\t\tmatryxTokenAddress = _matryxTokenAddress;\n\t\tmatryxSubmissionFactoryAddress = _matryxSubmissionFactoryAddress;\n\t}\n\n\tfunction createRound(address _platformAddress, address _tournamentAddress, address _owner, uint256 _bountyMTX) public returns (address _roundAddress) {\n\t\tMatryxRound newRound = new MatryxRound(matryxTokenAddress, _platformAddress, _tournamentAddress, matryxSubmissionFactoryAddress, _owner, _bountyMTX);\n\t\treturn newRound;\n\t}\n}",
  "sourcePath": "/Users/maxhoward/Desktop/Ethereum/Development/Matryx AWS/Projects/matryx-alpha-source/contracts/factories/MatryxRoundFactory.sol",
  "compiler": {
    "name": "solc",
    "version": "0.4.19+commit.c4cbbb05.Emscripten.clang"
  },
  "schemaVersion": "2.0.0",
  "updatedAt": "2018-03-29T02:57:28.052Z"
}