{
  "contractName": "MatryxQueryEncrypter",
  "abi": [
    {
      "inputs": [
        {
          "name": "_querier",
          "type": "address"
        }
      ],
      "payable": false,
      "stateMutability": "nonpayable",
      "type": "constructor"
    },
    {
      "constant": false,
      "inputs": [
        {
          "name": "_query",
          "type": "bytes32"
        }
      ],
      "name": "generateQueryID",
      "outputs": [
        {
          "name": "_id",
          "type": "uint256"
        }
      ],
      "payable": false,
      "stateMutability": "nonpayable",
      "type": "function"
    }
  ],
  "bytecode": "0x6060604052341561000f57600080fd5b60405160208061017a8339810160405280805160008054600160a060020a03338116600160a060020a03199283161790925560018054929093169116179055505061011b8061005f6000396000f300606060405260043610603e5763ffffffff7c010000000000000000000000000000000000000000000000000000000060003504166372de26dd81146043575b600080fd5b3415604d57600080fd5b60566004356068565b60405190815260200160405180910390f35b600080543373ffffffffffffffffffffffffffffffffffffffff908116911614609057600080fd5b43428333604051938452602084019290925260408084019190915273ffffffffffffffffffffffffffffffffffffffff9091166c01000000000000000000000000026060830152607490910190519081900390206002819055929150505600a165627a7a723058202a6a9473188a310f04e6ff29104d5c7ecfd069e0d25d076e2ee50e2d03fc91a40029",
  "source": "pragma solidity ^0.4.18;\n\nimport \"./MatryxOracleMessenger.sol\";\n\n/// @title MatryxQueryEncrypter - Readies queries and takes query results from the web client.\n/// @author Max Howard - <max@nanome.ai>\ncontract MatryxQueryEncrypter {\n\n  // The owner of this contract. i.e. The single MatryxOracleMessenger contract.\n  MatryxOracleMessenger owner;\n  // The address of the querier (user) for the query this resolver has been given.\n  address querier;\n  // The id of the query (this contract generates this value).\n  uint256 queryID;\n\n  function MatryxQueryEncrypter(address _querier) public {\n    owner = MatryxOracleMessenger(msg.sender);\n    querier = _querier;\n  }\n\n  modifier owneronly { \n    require(msg.sender == address(owner));\n    _;\n  }\n\n  /// @dev Generates a Query ID for this query and returns it.\n  /// @param _query Query being made.\n  /// @return _id Query ID generated.\n  function generateQueryID(bytes32 _query) owneronly public returns (uint256 _id) {\n    // Set the queryID for this QueryResolver by hashing:\n    // 1) The current blocknumber\n    // 2) The time\n    // 3) The query itself\n    // 4) The sender of the query.\n    queryID = uint256(keccak256(block.number, now, _query, msg.sender));\n\n    // Return to the MatryxOracleMessenger the queryID we just created.\n    return (queryID);\n  }\n}",
  "sourcePath": "/Users/maxhoward/Desktop/Ethereum/Development/Matryx AWS/Projects/matryx-alpha-source/contracts/MatryxQueryEncrypter.sol",
  "compiler": {
    "name": "solc",
    "version": "0.4.19+commit.c4cbbb05.Emscripten.clang"
  },
  "schemaVersion": "2.0.0",
  "updatedAt": "2018-03-29T04:51:13.316Z"
}