{
  "contractName": "MatryxPlatform",
  "abi": [
    {
      "constant": true,
      "inputs": [],
      "name": "matryxTournamentFactoryAddress",
      "outputs": [
        {
          "name": "",
          "type": "address"
        }
      ],
      "payable": false,
      "stateMutability": "view",
      "type": "function"
    },
    {
      "constant": true,
      "inputs": [],
      "name": "matryxTokenAddress",
      "outputs": [
        {
          "name": "",
          "type": "address"
        }
      ],
      "payable": false,
      "stateMutability": "view",
      "type": "function"
    },
    {
      "constant": true,
      "inputs": [
        {
          "name": "_sender",
          "type": "address"
        }
      ],
      "name": "isOwner",
      "outputs": [
        {
          "name": "_isOwner",
          "type": "bool"
        }
      ],
      "payable": false,
      "stateMutability": "view",
      "type": "function"
    },
    {
      "constant": true,
      "inputs": [
        {
          "name": "",
          "type": "address"
        }
      ],
      "name": "peerExists",
      "outputs": [
        {
          "name": "",
          "type": "bool"
        }
      ],
      "payable": false,
      "stateMutability": "view",
      "type": "function"
    },
    {
      "constant": true,
      "inputs": [],
      "name": "getOwner",
      "outputs": [
        {
          "name": "_owner",
          "type": "address"
        }
      ],
      "payable": false,
      "stateMutability": "view",
      "type": "function"
    },
    {
      "constant": true,
      "inputs": [],
      "name": "matryxRoundLibAddress",
      "outputs": [
        {
          "name": "",
          "type": "address"
        }
      ],
      "payable": false,
      "stateMutability": "view",
      "type": "function"
    },
    {
      "constant": true,
      "inputs": [],
      "name": "owner",
      "outputs": [
        {
          "name": "",
          "type": "address"
        }
      ],
      "payable": false,
      "stateMutability": "view",
      "type": "function"
    },
    {
      "constant": true,
      "inputs": [
        {
          "name": "",
          "type": "address"
        }
      ],
      "name": "ownerToPeerAndPeerToOwner",
      "outputs": [
        {
          "name": "",
          "type": "address"
        }
      ],
      "payable": false,
      "stateMutability": "view",
      "type": "function"
    },
    {
      "constant": true,
      "inputs": [],
      "name": "matryxPeerFactoryAddress",
      "outputs": [
        {
          "name": "",
          "type": "address"
        }
      ],
      "payable": false,
      "stateMutability": "view",
      "type": "function"
    },
    {
      "constant": true,
      "inputs": [],
      "name": "matryxSubmissionFactoryAddress",
      "outputs": [
        {
          "name": "",
          "type": "address"
        }
      ],
      "payable": false,
      "stateMutability": "view",
      "type": "function"
    },
    {
      "constant": true,
      "inputs": [
        {
          "name": "",
          "type": "uint256"
        }
      ],
      "name": "categoryList",
      "outputs": [
        {
          "name": "",
          "type": "bytes32"
        }
      ],
      "payable": false,
      "stateMutability": "view",
      "type": "function"
    },
    {
      "constant": true,
      "inputs": [
        {
          "name": "",
          "type": "uint256"
        }
      ],
      "name": "allTournaments",
      "outputs": [
        {
          "name": "",
          "type": "address"
        }
      ],
      "payable": false,
      "stateMutability": "view",
      "type": "function"
    },
    {
      "constant": false,
      "inputs": [
        {
          "name": "newOwner",
          "type": "address"
        }
      ],
      "name": "transferOwnership",
      "outputs": [],
      "payable": false,
      "stateMutability": "nonpayable",
      "type": "function"
    },
    {
      "inputs": [
        {
          "name": "_matryxTokenAddress",
          "type": "address"
        },
        {
          "name": "_matryxPeerFactoryAddress",
          "type": "address"
        },
        {
          "name": "_matryxTournamentFactoryAddress",
          "type": "address"
        },
        {
          "name": "_matryxSubmissionFactoryAddress",
          "type": "address"
        }
      ],
      "payable": false,
      "stateMutability": "nonpayable",
      "type": "constructor"
    },
    {
      "anonymous": false,
      "inputs": [
        {
          "indexed": false,
          "name": "_discipline",
          "type": "bytes32"
        },
        {
          "indexed": false,
          "name": "_owner",
          "type": "address"
        },
        {
          "indexed": false,
          "name": "_tournamentAddress",
          "type": "address"
        },
        {
          "indexed": false,
          "name": "_tournamentName",
          "type": "bytes32[3]"
        },
        {
          "indexed": false,
          "name": "_descriptionHash",
          "type": "bytes32[2]"
        },
        {
          "indexed": false,
          "name": "_MTXReward",
          "type": "uint256"
        },
        {
          "indexed": false,
          "name": "_entryFee",
          "type": "uint256"
        }
      ],
      "name": "TournamentCreated",
      "type": "event"
    },
    {
      "anonymous": false,
      "inputs": [
        {
          "indexed": false,
          "name": "_tournamentAddress",
          "type": "address"
        },
        {
          "indexed": false,
          "name": "_tournamentName_1",
          "type": "bytes32"
        },
        {
          "indexed": false,
          "name": "_tournamentName_2",
          "type": "bytes32"
        },
        {
          "indexed": false,
          "name": "_tournamentName_3",
          "type": "bytes32"
        },
        {
          "indexed": false,
          "name": "_externalAddress_1",
          "type": "bytes32"
        },
        {
          "indexed": false,
          "name": "_externalAddress_2",
          "type": "bytes32"
        },
        {
          "indexed": false,
          "name": "_MTXReward",
          "type": "uint256"
        },
        {
          "indexed": false,
          "name": "_entryFee",
          "type": "uint256"
        }
      ],
      "name": "TournamentOpened",
      "type": "event"
    },
    {
      "anonymous": false,
      "inputs": [
        {
          "indexed": false,
          "name": "_tournamentAddress",
          "type": "address"
        },
        {
          "indexed": false,
          "name": "_finalRoundNumber",
          "type": "uint256"
        },
        {
          "indexed": false,
          "name": "_MTXReward",
          "type": "uint256"
        }
      ],
      "name": "TournamentClosed",
      "type": "event"
    },
    {
      "anonymous": false,
      "inputs": [
        {
          "indexed": false,
          "name": "_entrant",
          "type": "address"
        },
        {
          "indexed": false,
          "name": "_tournamentAddress",
          "type": "address"
        }
      ],
      "name": "UserEnteredTournament",
      "type": "event"
    },
    {
      "anonymous": false,
      "inputs": [
        {
          "indexed": false,
          "name": "queryID",
          "type": "string"
        }
      ],
      "name": "QueryID",
      "type": "event"
    },
    {
      "anonymous": false,
      "inputs": [
        {
          "indexed": false,
          "name": "time",
          "type": "uint256"
        }
      ],
      "name": "TimeStamp",
      "type": "event"
    },
    {
      "constant": false,
      "inputs": [
        {
          "name": "_finalRoundNumber",
          "type": "uint256"
        },
        {
          "name": "_MTXReward",
          "type": "uint256"
        }
      ],
      "name": "invokeTournamentClosedEvent",
      "outputs": [],
      "payable": false,
      "stateMutability": "nonpayable",
      "type": "function"
    },
    {
      "constant": false,
      "inputs": [
        {
          "name": "_nameHash",
          "type": "bytes32"
        },
        {
          "name": "_contractAddress",
          "type": "address"
        }
      ],
      "name": "setContractAddress",
      "outputs": [],
      "payable": false,
      "stateMutability": "nonpayable",
      "type": "function"
    },
    {
      "constant": false,
      "inputs": [
        {
          "name": "_matryxTokenAddress",
          "type": "address"
        }
      ],
      "name": "setTokenAddress",
      "outputs": [],
      "payable": false,
      "stateMutability": "nonpayable",
      "type": "function"
    },
    {
      "constant": false,
      "inputs": [
        {
          "name": "_nameHash",
          "type": "bytes32"
        }
      ],
      "name": "getContractAddress",
      "outputs": [
        {
          "name": "contractAddress",
          "type": "address"
        }
      ],
      "payable": false,
      "stateMutability": "nonpayable",
      "type": "function"
    },
    {
      "constant": false,
      "inputs": [
        {
          "name": "_owner",
          "type": "address"
        },
        {
          "name": "_submission",
          "type": "address"
        }
      ],
      "name": "updateSubmissions",
      "outputs": [],
      "payable": false,
      "stateMutability": "nonpayable",
      "type": "function"
    },
    {
      "constant": false,
      "inputs": [
        {
          "name": "_submissionAddress",
          "type": "address"
        },
        {
          "name": "_tournamentAddress",
          "type": "address"
        }
      ],
      "name": "removeSubmission",
      "outputs": [],
      "payable": false,
      "stateMutability": "nonpayable",
      "type": "function"
    },
    {
      "constant": false,
      "inputs": [
        {
          "name": "_tournamentAddress",
          "type": "address"
        },
        {
          "name": "_category",
          "type": "bytes32"
        }
      ],
      "name": "addTournamentToCategory",
      "outputs": [],
      "payable": false,
      "stateMutability": "nonpayable",
      "type": "function"
    },
    {
      "constant": false,
      "inputs": [
        {
          "name": "_tournamentAddress",
          "type": "address"
        },
        {
          "name": "_category",
          "type": "bytes32"
        }
      ],
      "name": "removeTournamentFromCategory",
      "outputs": [],
      "payable": false,
      "stateMutability": "nonpayable",
      "type": "function"
    },
    {
      "constant": false,
      "inputs": [
        {
          "name": "_tournamentAddress",
          "type": "address"
        },
        {
          "name": "_oldCategory",
          "type": "bytes32"
        },
        {
          "name": "_newCategory",
          "type": "bytes32"
        }
      ],
      "name": "switchTournamentCategory",
      "outputs": [],
      "payable": false,
      "stateMutability": "nonpayable",
      "type": "function"
    },
    {
      "constant": true,
      "inputs": [
        {
          "name": "_category",
          "type": "bytes32"
        }
      ],
      "name": "getTournamentsByCategory",
      "outputs": [
        {
          "name": "",
          "type": "address[]"
        }
      ],
      "payable": false,
      "stateMutability": "view",
      "type": "function"
    },
    {
      "constant": true,
      "inputs": [
        {
          "name": "_category",
          "type": "bytes32"
        }
      ],
      "name": "getCategoryCount",
      "outputs": [
        {
          "name": "",
          "type": "uint256"
        }
      ],
      "payable": false,
      "stateMutability": "view",
      "type": "function"
    },
    {
      "constant": true,
      "inputs": [
        {
          "name": "_index",
          "type": "uint256"
        }
      ],
      "name": "getCategoryByIndex",
      "outputs": [
        {
          "name": "",
          "type": "bytes32"
        }
      ],
      "payable": false,
      "stateMutability": "view",
      "type": "function"
    },
    {
      "constant": true,
      "inputs": [],
      "name": "getAllCategories",
      "outputs": [
        {
          "name": "",
          "type": "uint256"
        },
        {
          "name": "",
          "type": "bytes32[]"
        }
      ],
      "payable": false,
      "stateMutability": "view",
      "type": "function"
    },
    {
      "constant": false,
      "inputs": [
        {
          "name": "_tournamentAddress",
          "type": "address"
        }
      ],
      "name": "enterTournament",
      "outputs": [
        {
          "name": "_success",
          "type": "bool"
        }
      ],
      "payable": false,
      "stateMutability": "nonpayable",
      "type": "function"
    },
    {
      "constant": false,
      "inputs": [
        {
          "components": [
            {
              "name": "category",
              "type": "bytes32"
            },
            {
              "name": "title",
              "type": "bytes32[3]"
            },
            {
              "name": "descriptionHash",
              "type": "bytes32[2]"
            },
            {
              "name": "fileHash",
              "type": "bytes32[2]"
            },
            {
              "name": "initialBounty",
              "type": "uint256"
            },
            {
              "name": "entryFee",
              "type": "uint256"
            }
          ],
          "name": "tournamentData",
          "type": "tuple"
        },
        {
          "components": [
            {
              "name": "start",
              "type": "uint256"
            },
            {
              "name": "end",
              "type": "uint256"
            },
            {
              "name": "reviewPeriodDuration",
              "type": "uint256"
            },
            {
              "name": "bounty",
              "type": "uint256"
            },
            {
              "name": "closed",
              "type": "bool"
            }
          ],
          "name": "roundData",
          "type": "tuple"
        }
      ],
      "name": "createTournament",
      "outputs": [
        {
          "name": "_tournamentAddress",
          "type": "address"
        }
      ],
      "payable": false,
      "stateMutability": "nonpayable",
      "type": "function"
    },
    {
      "constant": false,
      "inputs": [],
      "name": "createPeer",
      "outputs": [
        {
          "name": "",
          "type": "address"
        }
      ],
      "payable": false,
      "stateMutability": "nonpayable",
      "type": "function"
    },
    {
      "constant": true,
      "inputs": [
        {
          "name": "_peerAddress",
          "type": "address"
        }
      ],
      "name": "isPeer",
      "outputs": [
        {
          "name": "",
          "type": "bool"
        }
      ],
      "payable": false,
      "stateMutability": "view",
      "type": "function"
    },
    {
      "constant": true,
      "inputs": [
        {
          "name": "_sender",
          "type": "address"
        }
      ],
      "name": "hasPeer",
      "outputs": [
        {
          "name": "",
          "type": "bool"
        }
      ],
      "payable": false,
      "stateMutability": "view",
      "type": "function"
    },
    {
      "constant": true,
      "inputs": [
        {
          "name": "_peer",
          "type": "address"
        },
        {
          "name": "_reference",
          "type": "address"
        }
      ],
      "name": "peerExistsAndOwnsSubmission",
      "outputs": [
        {
          "name": "",
          "type": "bool"
        }
      ],
      "payable": false,
      "stateMutability": "view",
      "type": "function"
    },
    {
      "constant": true,
      "inputs": [
        {
          "name": "_sender",
          "type": "address"
        }
      ],
      "name": "peerAddress",
      "outputs": [
        {
          "name": "",
          "type": "address"
        }
      ],
      "payable": false,
      "stateMutability": "view",
      "type": "function"
    },
    {
      "constant": true,
      "inputs": [
        {
          "name": "_submissionAddress",
          "type": "address"
        }
      ],
      "name": "isSubmission",
      "outputs": [
        {
          "name": "",
          "type": "bool"
        }
      ],
      "payable": false,
      "stateMutability": "view",
      "type": "function"
    },
    {
      "constant": true,
      "inputs": [
        {
          "name": "_tournamentAddress",
          "type": "address"
        }
      ],
      "name": "isTournament",
      "outputs": [
        {
          "name": "",
          "type": "bool"
        }
      ],
      "payable": false,
      "stateMutability": "view",
      "type": "function"
    },
    {
      "constant": true,
      "inputs": [
        {
          "name": "_tournamentAddress",
          "type": "address"
        }
      ],
      "name": "getTournament_IsMine",
      "outputs": [
        {
          "name": "_isMine",
          "type": "bool"
        }
      ],
      "payable": false,
      "stateMutability": "view",
      "type": "function"
    },
    {
      "constant": false,
      "inputs": [
        {
          "name": "_gratitude",
          "type": "uint256"
        }
      ],
      "name": "setSubmissionGratitude",
      "outputs": [],
      "payable": false,
      "stateMutability": "nonpayable",
      "type": "function"
    },
    {
      "constant": true,
      "inputs": [],
      "name": "getNow",
      "outputs": [
        {
          "name": "",
          "type": "uint256"
        }
      ],
      "payable": false,
      "stateMutability": "view",
      "type": "function"
    },
    {
      "constant": true,
      "inputs": [],
      "name": "getTokenAddress",
      "outputs": [
        {
          "name": "",
          "type": "address"
        }
      ],
      "payable": false,
      "stateMutability": "view",
      "type": "function"
    },
    {
      "constant": true,
      "inputs": [],
      "name": "getTournamentFactoryAddress",
      "outputs": [
        {
          "name": "",
          "type": "address"
        }
      ],
      "payable": false,
      "stateMutability": "view",
      "type": "function"
    },
    {
      "constant": true,
      "inputs": [],
      "name": "getSubmissionGratitude",
      "outputs": [
        {
          "name": "",
          "type": "uint256"
        }
      ],
      "payable": false,
      "stateMutability": "view",
      "type": "function"
    },
    {
      "constant": true,
      "inputs": [],
      "name": "myTournaments",
      "outputs": [
        {
          "name": "",
          "type": "address[]"
        }
      ],
      "payable": false,
      "stateMutability": "view",
      "type": "function"
    },
    {
      "constant": true,
      "inputs": [],
      "name": "mySubmissions",
      "outputs": [
        {
          "name": "",
          "type": "address[]"
        }
      ],
      "payable": false,
      "stateMutability": "view",
      "type": "function"
    },
    {
      "constant": true,
      "inputs": [],
      "name": "tournamentCount",
      "outputs": [
        {
          "name": "_tournamentCount",
          "type": "uint256"
        }
      ],
      "payable": false,
      "stateMutability": "view",
      "type": "function"
    },
    {
      "constant": true,
      "inputs": [
        {
          "name": "_index",
          "type": "uint256"
        }
      ],
      "name": "getTournamentAtIndex",
      "outputs": [
        {
          "name": "_tournamentAddress",
          "type": "address"
        }
      ],
      "payable": false,
      "stateMutability": "view",
      "type": "function"
    },
    {
      "constant": true,
      "inputs": [],
      "name": "getTournaments",
      "outputs": [
        {
          "name": "",
          "type": "address[]"
        }
      ],
      "payable": false,
      "stateMutability": "view",
      "type": "function"
    }
  ],
  "bytecode": "0x60c0604052600160808190526702c68af0bb14000060a08190526017805460ff19169092179091556018553480156200003757600080fd5b50604051608080620029ce8339810180604052620000599190810190620000cc565b6000805433600160a060020a031991821617909155600180548216600160a060020a03968716179055600280548216948616949094179093556003805484169285169290921790915560048054909216921691909117905562000142565b6000620000c5825162000136565b9392505050565b60008060008060808587031215620000e357600080fd5b6000620000f18787620000b7565b94505060206200010487828801620000b7565b93505060406200011787828801620000b7565b92505060606200012a87828801620000b7565b91505092959194509250565b600160a060020a031690565b61287c80620001526000396000f30060806040526004361061022f5763ffffffff7c01000000000000000000000000000000000000000000000000000000006000350416630d2020dd811461023457806310fe9ae81461026a5780631411f0a81461027f5780631d2245f5146102ac57806326a4e8d2146102ce57806327252a0c146102f057806329cc545e146103055780632f54bf6e1461031a5780633e44cf7814610347578063453dd3e71461036757806351488bce14610387578063523b6ba2146103a7578063532311c4146103c75780636a44e43d146103e75780636c81a1e1146104075780636e2b2c7c1461042757806370e592b81461043c5780637e10faa81461045c578063818b5fa81461047c578063893d20e81461049c5780638ac70272146104b15780638da5cb5b146104c6578063984ed206146104db57806399db60dd146104fb578063a2d0ab471461051b578063a968c4b914610530578063ab9583d914610550578063b0ff549214610570578063b20a2dce14610585578063b3abaaaa1461059a578063bbe4fd50146105ba578063c13ae92a146105cf578063c21260a5146105ef578063c839984a1461060f578063c8ab6c871461062f578063dadd0a5714610644578063e001f84114610667578063e10f1b0614610687578063e139a20c146106a7578063e14feaea146106bc578063e8a0ed0d146106dc578063eb19a6b6146106fc578063f2fde38b1461071c578063f7468a3c1461073c578063f7c3609d1461075c578063f7f20cb314610771575b600080fd5b34801561024057600080fd5b5061025461024f36600461237c565b610786565b6040516102619190612651565b60405180910390f35b34801561027657600080fd5b506102546107ae565b34801561028b57600080fd5b5061029f61029a36600461237c565b6107ca565b60405161026191906126dc565b3480156102b857600080fd5b506102c16107ed565b60405161026191906126bd565b3480156102da57600080fd5b506102ee6102e936600461226b565b610865565b005b3480156102fc57600080fd5b506102546108c5565b34801561031157600080fd5b506102546108e1565b34801561032657600080fd5b5061033a61033536600461226b565b6108fd565b60405161026191906126ce565b34801561035357600080fd5b5061033a61036236600461226b565b61091e565b34801561037357600080fd5b506102c161038236600461237c565b610949565b34801561039357600080fd5b5061033a6103a23660046122a7565b6109c2565b3480156103b357600080fd5b5061029f6103c236600461237c565b610a44565b3480156103d357600080fd5b5061033a6103e236600461226b565b610a73565b3480156103f357600080fd5b5061025461040236600461226b565b610aa0565b34801561041357600080fd5b506102ee6104223660046122e1565b610acb565b34801561043357600080fd5b5061029f610c4c565b34801561044857600080fd5b5061033a61045736600461226b565b610c52565b34801561046857600080fd5b506102546104773660046123b9565b610c67565b34801561048857600080fd5b5061033a61049736600461226b565b610f53565b3480156104a857600080fd5b50610254610f7e565b3480156104bd57600080fd5b50610254610f9a565b3480156104d257600080fd5b50610254610fb6565b3480156104e757600080fd5b506102546104f636600461237c565b610fd2565b34801561050757600080fd5b5061025461051636600461226b565b611025565b34801561052757600080fd5b5061025461104d565b34801561053c57600080fd5b506102ee61054b3660046122a7565b611069565b34801561055c57600080fd5b506102ee61056b3660046122a7565b6112ee565b34801561057c57600080fd5b50610254611435565b34801561059157600080fd5b5061029f611451565b3480156105a657600080fd5b506102ee6105b5366004612311565b61146c565b3480156105c657600080fd5b5061029f6114ea565b3480156105db57600080fd5b506102ee6105ea36600461237c565b611528565b3480156105fb57600080fd5b5061029f61060a36600461237c565b611596565b34801561061b57600080fd5b5061025461062a36600461237c565b6115b5565b34801561063b57600080fd5b506102546115ea565b34801561065057600080fd5b50610659611606565b60405161026192919061279b565b34801561067357600080fd5b506102ee61068236600461239a565b61166d565b34801561069357600080fd5b5061033a6106a236600461226b565b6116d9565b3480156106b357600080fd5b506102c1611704565b3480156106c857600080fd5b506102ee6106d7366004612409565b61177a565b3480156106e857600080fd5b5061033a6106f736600461226b565b6117d7565b34801561070857600080fd5b506102ee6107173660046122e1565b6118e1565b34801561072857600080fd5b506102ee61073736600461226b565b611a75565b34801561074857600080fd5b5061033a61075736600461226b565b611af7565b34801561076857600080fd5b50610254611d1b565b34801561077d57600080fd5b506102c1611f24565b60009081526006602052604090205473ffffffffffffffffffffffffffffffffffffffff1690565b60015473ffffffffffffffffffffffffffffffffffffffff1690565b60006008828154811015156107db57fe5b90600052602060002001549050919050565b3360009081526013602090815260409182902080548351818402810184019094528084526060939283018282801561085b57602002820191906000526020600020905b815473ffffffffffffffffffffffffffffffffffffffff168152600190910190602001808311610830575b5050505050905090565b60005473ffffffffffffffffffffffffffffffffffffffff16331461088957600080fd5b6001805473ffffffffffffffffffffffffffffffffffffffff191673ffffffffffffffffffffffffffffffffffffffff92909216919091179055565b60035473ffffffffffffffffffffffffffffffffffffffff1681565b60015473ffffffffffffffffffffffffffffffffffffffff1681565b60005473ffffffffffffffffffffffffffffffffffffffff91821691161490565b73ffffffffffffffffffffffffffffffffffffffff166000908152600e602052604090205460ff1690565b6000818152600a60209081526040918290208054835181840281018401909452808452606093928301828280156109b657602002820191906000526020600020905b815473ffffffffffffffffffffffffffffffffffffffff16815260019091019060200180831161098b575b50505050509050919050565b73ffffffffffffffffffffffffffffffffffffffff8083166000818152600e60209081526040808320548686168085526012845282852054958552600f84528285205490961684526010835281842095845294909152812054909260ff9081169281169116828015610a315750815b8015610a3a5750805b9695505050505050565b6000818152600c6020908152604080832054600a909252822054610a6d9163ffffffff611f9116565b92915050565b73ffffffffffffffffffffffffffffffffffffffff9081166000908152600f602052604090205416151590565b73ffffffffffffffffffffffffffffffffffffffff9081166000908152600f60205260409020541690565b6000823373ffffffffffffffffffffffffffffffffffffffff82161480610b22575033600090815260146020908152604080832073ffffffffffffffffffffffffffffffffffffffff8516845290915290205460ff165b80610b2c57503330145b1515610b3757600080fd5b6000838152600b6020908152604080832073ffffffffffffffffffffffffffffffffffffffff8816845290915290205460ff1615610c465773ffffffffffffffffffffffffffffffffffffffff84166000818152600d6020908152604080832054878452600b8352818420948452938252808320805460ff19169055868352600a90915281208054929450909184908110610bce57fe5b6000918252602080832091909101805473ffffffffffffffffffffffffffffffffffffffff191673ffffffffffffffffffffffffffffffffffffffff9485161790559186168152600d82526040808220829055858252600c9092522054610c36906001611fa3565b6000848152600c60205260409020555b50505050565b60075490565b600e6020526000908152604090205460ff1681565b6003546040517f02f47d6700000000000000000000000000000000000000000000000000000000815260009173ffffffffffffffffffffffffffffffffffffffff1690829082906302f47d6790610cc690889088903390600401612770565b602060405180830381600087803b158015610ce057600080fd5b505af1158015610cf4573d6000803e3d6000fd5b505050506040513d601f19601f82011682018060405250610d189190810190612289565b90507f7f0842c9f62d65d689dd2d073fc3a8408ceeeb2cf7f0feb21bc6af149babbe1d85600001513383886020015189604001518a608001518b60a00151604051610d6997969594939291906126ea565b60405180910390a160015460808601516040517f23b872dd00000000000000000000000000000000000000000000000000000000815273ffffffffffffffffffffffffffffffffffffffff909216916323b872dd91610dce913391869160040161267a565b602060405180830381600087803b158015610de857600080fd5b505af1158015610dfc573d6000803e3d6000fd5b505050506040513d601f19601f82011682018060405250610e20919081019061235e565b1515610e2b57600080fd5b60608401516040517f23721e2400000000000000000000000000000000000000000000000000000000815273ffffffffffffffffffffffffffffffffffffffff8316916323721e2491610e8391600091600401612755565b600060405180830381600087803b158015610e9d57600080fd5b505af1158015610eb1573d6000803e3d6000fd5b50506007805460018082019092557fa66cc928b5edb82af9bd49922954155ab7b0942694bea4ce44661d9a8736c68801805473ffffffffffffffffffffffffffffffffffffffff191673ffffffffffffffffffffffffffffffffffffffff86169081179091556000908152601160205260409020805460ff1916909117905550610f3d90503382611fb9565b610f4b8186600001516118e1565b949350505050565b73ffffffffffffffffffffffffffffffffffffffff1660009081526012602052604090205460ff1690565b60005473ffffffffffffffffffffffffffffffffffffffff1690565b60055473ffffffffffffffffffffffffffffffffffffffff1681565b60005473ffffffffffffffffffffffffffffffffffffffff1681565b600080821015610fe157600080fd5b6007548210610fef57600080fd5b6007805483908110610ffd57fe5b60009182526020909120015473ffffffffffffffffffffffffffffffffffffffff1692915050565b600f6020526000908152604090205473ffffffffffffffffffffffffffffffffffffffff1681565b60025473ffffffffffffffffffffffffffffffffffffffff1681565b73ffffffffffffffffffffffffffffffffffffffff8116600090815260116020526040812054819060ff16151561109f57600080fd5b73ffffffffffffffffffffffffffffffffffffffff841660009081526012602052604090205460ff1615156110d357600080fd5b33600090815260106020908152604080832073ffffffffffffffffffffffffffffffffffffffff8816845290915290205460ff16151561111257600080fd5b8373ffffffffffffffffffffffffffffffffffffffff1663893d20e86040518163ffffffff167c0100000000000000000000000000000000000000000000000000000000028152600401602060405180830381600087803b15801561117657600080fd5b505af115801561118a573d6000803e3d6000fd5b505050506040513d601f19601f820116820180604052506111ae9190810190612289565b73ffffffffffffffffffffffffffffffffffffffff8082166000818152601660209081526040808320948a1683529381528382206001015460128252848320805460ff1916905592825260159052919091208054929450909250908290811061121357fe5b60009182526020808320909101805473ffffffffffffffffffffffffffffffffffffffff1916905573ffffffffffffffffffffffffffffffffffffffff84811683526016825260408084208883168552909252818320805460ff1916815560010192909255517fa968c4b90000000000000000000000000000000000000000000000000000000081529084169063a968c4b9906112b6908790869060040161265f565b600060405180830381600087803b1580156112d057600080fd5b505af11580156112e4573d6000803e3d6000fd5b5050505050505050565b336000818152601160205260408082205481517f4c6962546f75726e616d656e74456e7472616e744d6574686f647300000000008152915191829003601b0190912060ff909116929061134090610786565b73ffffffffffffffffffffffffffffffffffffffff1614905081806113625750805b151561136d57600080fd5b5050604080518082018252600180825273ffffffffffffffffffffffffffffffffffffffff948516600081815260156020908152858220805482870190815284845260168352878420989099168084529782528683209551865490151560ff1991821617875598519585019590955584548085018655948252808220909401805473ffffffffffffffffffffffffffffffffffffffff191687179055908152601083528381209481529382528284208054861682179055601290915291208054909216179055565b60045473ffffffffffffffffffffffffffffffffffffffff1681565b60175460009060ff16151561146557600080fd5b5060185490565b823373ffffffffffffffffffffffffffffffffffffffff821614806114c1575033600090815260146020908152604080832073ffffffffffffffffffffffffffffffffffffffff8516845290915290205460ff165b806114cb57503330145b15156114d657600080fd5b6114e08484610acb565b610c4684836118e1565b60007fdfbf6547deaf4fa5dd154ec1daf5350032f31d34e4c755104dfbf6049163c0874260405161151b91906126dc565b60405180910390a1504290565b60005473ffffffffffffffffffffffffffffffffffffffff16331461154c57600080fd5b600081101580156115655750670de0b6b3a76400008111155b151561156d57fe5b60408051808201909152600180825260209091018290526017805460ff19169091179055601855565b60088054829081106115a457fe5b600091825260209091200154905081565b60078054829081106115c357fe5b60009182526020909120015473ffffffffffffffffffffffffffffffffffffffff16905081565b60035473ffffffffffffffffffffffffffffffffffffffff1690565b6000606060088054905060088080548060200260200160405190810160405280929190818152602001828054801561165e57602002820191906000526020600020905b81548152600190910190602001808311611649575b50505050509050915091509091565b60005473ffffffffffffffffffffffffffffffffffffffff16331461169157600080fd5b600091825260066020526040909120805473ffffffffffffffffffffffffffffffffffffffff191673ffffffffffffffffffffffffffffffffffffffff909216919091179055565b73ffffffffffffffffffffffffffffffffffffffff1660009081526011602052604090205460ff1690565b3360009081526015602090815260409182902080548351818402810184019094528084526060939283018282801561085b5760200282019190600052602060002090815473ffffffffffffffffffffffffffffffffffffffff168152600190910190602001808311610830575050505050905090565b3360009081526011602052604090205460ff16151561179857600080fd5b7f575670c81f31b6e19bd59bbbe1729f3f052ae8a508d3977e1e1b2b752a256edb3383836040516117cb939291906126a2565b60405180910390a15050565b73ffffffffffffffffffffffffffffffffffffffff8116600090815260116020526040812054819060ff16151561180d57600080fd5b8290503373ffffffffffffffffffffffffffffffffffffffff168173ffffffffffffffffffffffffffffffffffffffff1663893d20e86040518163ffffffff167c0100000000000000000000000000000000000000000000000000000000028152600401602060405180830381600087803b15801561188b57600080fd5b505af115801561189f573d6000803e3d6000fd5b505050506040513d601f19601f820116820180604052506118c39190810190612289565b73ffffffffffffffffffffffffffffffffffffffff16149392505050565b813373ffffffffffffffffffffffffffffffffffffffff82161480611936575033600090815260146020908152604080832073ffffffffffffffffffffffffffffffffffffffff8516845290915290205460ff165b8061194057503330145b151561194b57600080fd5b60008281526009602052604090205460ff1615156119ae576008805460018181019092557ff3f7a9fe364faab93b216da50a3214154f22a0a2b415b23a84c8169e8b636ee3018390556000838152600960205260409020805460ff191690911790555b6000828152600b6020908152604080832073ffffffffffffffffffffffffffffffffffffffff8716845290915290205460ff161515611a70576000828152600b6020908152604080832073ffffffffffffffffffffffffffffffffffffffff8716808552908352818420805460ff19166001908117909155600d8452828520808201889055878652600a85529285208054938490559083018155845291909220909101805473ffffffffffffffffffffffffffffffffffffffff191690911790555b505050565b60005473ffffffffffffffffffffffffffffffffffffffff163314611a9957600080fd5b73ffffffffffffffffffffffffffffffffffffffff81161515611abb57600080fd5b6000805473ffffffffffffffffffffffffffffffffffffffff191673ffffffffffffffffffffffffffffffffffffffff92909216919091179055565b600080600033611b0681610a73565b1515611b1157600080fd5b33600090815260146020908152604080832073ffffffffffffffffffffffffffffffffffffffff89168452909152902054859060ff1615611b5157600080fd5b73ffffffffffffffffffffffffffffffffffffffff861660009081526011602052604090205460ff161515611b8557600080fd5b8593508373ffffffffffffffffffffffffffffffffffffffff1663e586a4f06040518163ffffffff167c0100000000000000000000000000000000000000000000000000000000028152600401602060405180830381600087803b158015611bec57600080fd5b505af1158015611c00573d6000803e3d6000fd5b505050506040513d601f19601f82011682018060405250611c2491908101906123eb565b6040517f28d576d700000000000000000000000000000000000000000000000000000000815290935073ffffffffffffffffffffffffffffffffffffffff8516906328d576d790611c79903390600401612651565b602060405180830381600087803b158015611c9357600080fd5b505af1158015611ca7573d6000803e3d6000fd5b505050506040513d601f19601f82011682018060405250611ccb919081019061235e565b1515611cd657600080fd5b7f5891a745b8d042d48bd1e4aed889e63bdc3e44242bb75694ea97573460e03a8b3387604051611d0792919061265f565b60405180910390a150600195945050505050565b6001546040517f70a0823100000000000000000000000000000000000000000000000000000000815260009182918291829173ffffffffffffffffffffffffffffffffffffffff909116906370a0823190611d7a903390600401612651565b602060405180830381600087803b158015611d9457600080fd5b505af1158015611da8573d6000803e3d6000fd5b505050506040513d601f19601f82011682018060405250611dcc91908101906123eb565b11611dd657600080fd5b336000908152600f602052604090205473ffffffffffffffffffffffffffffffffffffffff1615611e0657600080fd5b6002546040517f48bf957700000000000000000000000000000000000000000000000000000000815273ffffffffffffffffffffffffffffffffffffffff909116925082906348bf957790611e5f903390600401612651565b602060405180830381600087803b158015611e7957600080fd5b505af1158015611e8d573d6000803e3d6000fd5b505050506040513d601f19601f82011682018060405250611eb19190810190612289565b73ffffffffffffffffffffffffffffffffffffffff166000818152600e60209081526040808320805460ff1916600117905533808452600f909252808320805473ffffffffffffffffffffffffffffffffffffffff19908116861790915593835290912080549092161790555090919050565b6060600780548060200260200160405190810160405280929190818152602001828054801561085b5760200282019190600052602060002090815473ffffffffffffffffffffffffffffffffffffffff168152600190910190602001808311610830575050505050905090565b600082821115611f9d57fe5b50900390565b600082820183811015611fb257fe5b9392505050565b73ffffffffffffffffffffffffffffffffffffffff918216600081815260136020908152604080832080546001808201835591855283852001805473ffffffffffffffffffffffffffffffffffffffff19169690971695861790965592825260148152828220938252929092529020805460ff19169091179055565b6000611fb28235612819565b6000611fb28251612819565b6000601f8201831361205e57600080fd5b600261207161206c826127e2565b6127bb565b9150818385602084028201111561208757600080fd5b60005b838110156120b3578161209d8882612136565b845250602092830192919091019060010161208a565b5050505092915050565b6000601f820183136120ce57600080fd5b60036120dc61206c826127e2565b915081838560208402820111156120f257600080fd5b60005b838110156120b357816121088882612136565b84525060209283019291909101906001016120f5565b6000611fb28235612832565b6000611fb28251612832565b6000611fb28235612806565b600060a0828403121561215457600080fd5b61215e60a06127bb565b9050600061216c8484612136565b825250602061217d84848301612136565b602083015250604061219184828501612136565b60408301525060606121a584828501612136565b60608301525060806121b98482850161211e565b60808301525092915050565b600061014082840312156121d857600080fd5b6121e260c06127bb565b905060006121f08484612136565b8252506020612201848483016120bd565b60208301525060806122158482850161204d565b60408301525060c06122298482850161204d565b60608301525061010061223e84828501612136565b60808301525061012061225384828501612136565b60a08301525092915050565b6000611fb28251612806565b60006020828403121561227d57600080fd5b6000610f4b8484612035565b60006020828403121561229b57600080fd5b6000610f4b8484612041565b600080604083850312156122ba57600080fd5b60006122c68585612035565b92505060206122d785828601612035565b9150509250929050565b600080604083850312156122f457600080fd5b60006123008585612035565b92505060206122d785828601612136565b60008060006060848603121561232657600080fd5b60006123328686612035565b935050602061234386828701612136565b925050604061235486828701612136565b9150509250925092565b60006020828403121561237057600080fd5b6000610f4b848461212a565b60006020828403121561238e57600080fd5b6000610f4b8484612136565b600080604083850312156123ad57600080fd5b60006122c68585612136565b6000806101e083850312156123cd57600080fd5b60006123d985856121c5565b9250506101406122d785828601612142565b6000602082840312156123fd57600080fd5b6000610f4b848461225f565b6000806040838503121561241c57600080fd5b60006123008585612136565b61243181612819565b82525050565b600061244282612809565b80845260208401935061245483612800565b60005b828110156124845761246a868351612428565b61247382612800565b602096909601959150600101612457565b5093949350505050565b6124978161280d565b6124a082612806565b60005b828110156124d0576124b685835161256f565b6124bf82612800565b6020959095019491506001016124a3565b5050505050565b6124e081612813565b6124e982612806565b60005b828110156124d0576124ff85835161256f565b61250882612800565b6020959095019491506001016124ec565b600061252482612809565b80845260208401935061253683612800565b60005b828110156124845761254c86835161256f565b61255582612800565b602096909601959150600101612539565b61243181612832565b61243181612806565b61243181612837565b805160a0830190612592848261256f565b5060208201516125a5602085018261256f565b5060408201516125b8604085018261256f565b5060608201516125cb606085018261256f565b506080820151610c466080850182612566565b80516101408301906125f0848261256f565b50602082015161260360208501826124d7565b506040820151612616608085018261248e565b50606082015161262960c085018261248e565b50608082015161263d61010085018261256f565b5060a0820151610c4661012085018261256f565b60208101610a6d8284612428565b6040810161266d8285612428565b611fb26020830184612428565b606081016126888286612428565b6126956020830185612428565b610f4b604083018461256f565b606081016126b08286612428565b612695602083018561256f565b60208082528101611fb28184612437565b60208101610a6d8284612566565b60208101610a6d828461256f565b61014081016126f9828a61256f565b6127066020830189612428565b6127136040830188612428565b61272060608301876124d7565b61272d60c083018661248e565b61273b61010083018561256f565b61274961012083018461256f565b98975050505050505050565b604081016127638285612578565b611fb2602083018461256f565b610200810161277f82866125de565b61278d610140830185612581565b610f4b6101e0830184612428565b604081016127a9828561256f565b8181036020830152610f4b8184612519565b60405181810167ffffffffffffffff811182821017156127da57600080fd5b604052919050565b600067ffffffffffffffff8211156127f957600080fd5b5060200290565b60200190565b90565b5190565b50600290565b50600390565b73ffffffffffffffffffffffffffffffffffffffff1690565b151590565b6000610a6d826128065600a265627a7a7230582071ca9183303857e1d40b4a6c8c8f930475376a8060c84f0d161820e60f6f62886c6578706572696d656e74616cf50037",
  "source": "pragma solidity ^0.4.18;\npragma experimental ABIEncoderV2;\n\nimport \"../libraries/math/SafeMath.sol\";\nimport \"../libraries/math/SafeMath128.sol\";\nimport \"../interfaces/IMatryxToken.sol\";\nimport \"../interfaces/IMatryxPeer.sol\";\nimport \"../interfaces/IMatryxPlatform.sol\";\nimport \"../interfaces/factories/IMatryxPeerFactory.sol\";\nimport \"../interfaces/factories/IMatryxTournamentFactory.sol\";\nimport \"../interfaces/IMatryxTournament.sol\";\nimport \"../interfaces/IMatryxRound.sol\";\nimport \"../interfaces/IMatryxSubmission.sol\";\nimport \"./Ownable.sol\";\n\n/// @title MatryxPlatform - The Matryx platform contract.\n/// @author Max Howard - <max@nanome.ai>, Sam Hessenauer - <sam@nanome.ai>\ncontract MatryxPlatform is Ownable {\n    using SafeMath for uint256;\n    using SafeMath128 for uint128;\n\n    // TODO: condense and put in structs\n    // Matryx Addresses\n    address public matryxTokenAddress;\n    address public matryxPeerFactoryAddress;\n    address public matryxTournamentFactoryAddress;\n    address public matryxSubmissionFactoryAddress;\n    address public matryxRoundLibAddress;\n\n    //Contract Signatures to addresses\n    mapping(bytes32=>address) private contracts;\n\n    address[] public allTournaments;\n\n    // Category Data\n    bytes32[] public categoryList;\n    mapping(bytes32=>bool) categoryExists;\n    mapping(bytes32=>address[]) categoryToTournamentList;\n    mapping(bytes32=>mapping(address=>bool)) tournamentExistsInCategory;\n    mapping(bytes32=>uint256) emptyCountByCategory;\n    mapping(address=>CategoryInfo) tournamentAddressToCategoryInfo;\n\n    //Peer Mappings\n    mapping(address=>bool) public peerExists;\n    mapping(address=>address) public ownerToPeerAndPeerToOwner;\n    mapping(address=>mapping(address=>bool)) addressToOwnsSubmission;\n\n    // Tournament and Submission Mappings\n    mapping(address=>bool) tournamentExists;\n    mapping(address=>bool) submissionExists;\n    mapping(address=>address[]) ownerToTournamentArray;\n    mapping(address=>mapping(address=>bool)) entrantToOwnsTournament;\n    mapping(address=>address[]) ownerToSubmissionArray;\n    mapping(address=>mapping(address=>uint256_optional))  ownerToSubmissionToSubmissionIndex;\n\n    // Hyperparams\n    uint256_optional submissionGratitude = uint256_optional({exists: true, value: 2*10**17});\n\n    /*\n    * Structs\n    */\n\n    struct uint256_optional\n    {\n        bool exists;\n        uint256 value;\n    }\n\n    struct CategoryInfo\n    {\n        uint256 index;\n        bytes32 category;\n    }\n\n    /*\n    * Events\n    */\n    event TournamentCreated(bytes32 _discipline, address _owner, address _tournamentAddress, bytes32[3] _tournamentName, bytes32[2] _descriptionHash, uint256 _MTXReward, uint256 _entryFee);\n    event TournamentOpened(address _tournamentAddress, bytes32 _tournamentName_1, bytes32 _tournamentName_2, bytes32 _tournamentName_3, bytes32 _externalAddress_1, bytes32 _externalAddress_2, uint256 _MTXReward, uint256 _entryFee);\n    event TournamentClosed(address _tournamentAddress, uint256 _finalRoundNumber, uint256 _MTXReward);\n    event UserEnteredTournament(address _entrant, address _tournamentAddress);\n    event QueryID(string queryID);\n\n    constructor(address _matryxTokenAddress, address _matryxPeerFactoryAddress, address _matryxTournamentFactoryAddress, address _matryxSubmissionFactoryAddress) public\n    {\n        matryxTokenAddress = _matryxTokenAddress;\n        matryxPeerFactoryAddress = _matryxPeerFactoryAddress;\n        matryxTournamentFactoryAddress = _matryxTournamentFactoryAddress;\n        matryxSubmissionFactoryAddress = _matryxSubmissionFactoryAddress;\n    }\n\n\n    /// @dev Allows tournaments to invoke tournamentClosed events on the platform.\n    /// @param _finalRoundNumber Index of the round containing the winning submission.\n    function invokeTournamentClosedEvent(uint256 _finalRoundNumber, uint256 _MTXReward) public onlyTournament\n    {\n        emit TournamentClosed(msg.sender, _finalRoundNumber, _MTXReward);\n    }\n\n    /*\n    * Modifiers\n    */\n    modifier onlyTournament {\n        require(tournamentExists[msg.sender]);\n        _;\n    }\n\n    modifier onlyTournamentOrTournamentLib {\n        bool isTournament = tournamentExists[msg.sender];\n        bool isTournamentLib = getContractAddress(keccak256(\"LibTournamentEntrantMethods\")) == msg.sender;\n\n        require(isTournament || isTournamentLib);\n        _;\n    }\n\n    modifier onlySubmission{\n        require(submissionExists[msg.sender]);\n        _;\n    }\n\n    modifier onlyPeerLinked(address _sender) {\n        require(hasPeer(_sender));\n        _;\n    }\n\n    modifier onlyTournamentOwnerOrPlatform(address _tournamentAddress){\n        require(msg.sender == _tournamentAddress || entrantToOwnsTournament[msg.sender][_tournamentAddress] || msg.sender == address(this));\n        _;\n    }\n\n    modifier notOwner(address _tournamentAddress) {\n        require(entrantToOwnsTournament[msg.sender][_tournamentAddress] == false);\n        _;\n    }\n\n    /*\n    * State Maintenance Methods\n    */\n\n    /// @dev Sets an address for a contract the platform should know about.\n    /// @param _nameHash Keccak256 hash of the name of the contract to give an address to.\n    /// @param _contractAddress Address to be assigned for the given contract name.\n    function setContractAddress(bytes32 _nameHash, address _contractAddress) public onlyOwner {\n        contracts[_nameHash] = _contractAddress;\n    }\n\n    /// @dev explicitly set the MatryxToken address\n    /// @param _matryxTokenAddress address of Matryx Token\n    function setTokenAddress(address _matryxTokenAddress) public onlyOwner {\n        matryxTokenAddress = _matryxTokenAddress;\n    }\n\n    /// @dev Gets the address of a contract the platform knows about.\n    /// @param _nameHash Keccak256 hash of the name of the contract to look for.\n    /// @return Address of the contract with the designated name.\n    function getContractAddress(bytes32 _nameHash) public returns (address contractAddress) {\n        return contracts[_nameHash];\n    }\n\n    /// @dev Updates tournament ownership data.\n    /// @param _owner address of the owner.\n    /// @param _tournament address of the tournament.\n    function updateUsersTournaments(address _owner, address _tournament) internal {\n        ownerToTournamentArray[_owner].push(_tournament);\n        entrantToOwnsTournament[_owner][_tournament] = true;\n    }\n\n    /// @dev Updates submission mappings.\n    /// @param _owner owner of the submission.\n    /// @param _submission the submission address\n    function updateSubmissions(address _owner, address _submission) public onlyTournamentOrTournamentLib {\n        ownerToSubmissionToSubmissionIndex[_owner][_submission] = uint256_optional({exists:true, value:ownerToSubmissionArray[_owner].length});\n        ownerToSubmissionArray[_owner].push(_submission);\n        addressToOwnsSubmission[_owner][_submission] = true;\n        submissionExists[_submission] = true;\n    }\n\n    /// @dev removes a submission from a tournament\n    /// @param _submissionAddress address of a particular MatryxSubmission\n    /// @param _tournamentAddress address of a particular MatryxTournament\n    function removeSubmission(address _submissionAddress, address _tournamentAddress) public {\n        require(tournamentExists[_tournamentAddress]);\n        require(submissionExists[_submissionAddress]);\n        require(addressToOwnsSubmission[msg.sender][_submissionAddress]);\n\n        address owner = Ownable(_submissionAddress).getOwner();\n        uint256 submissionIndex = ownerToSubmissionToSubmissionIndex[owner][_submissionAddress].value;\n\n        submissionExists[_submissionAddress] = false;\n        delete ownerToSubmissionArray[owner][submissionIndex];\n        delete ownerToSubmissionToSubmissionIndex[owner][_submissionAddress];\n\n        IMatryxTournament(_tournamentAddress).removeSubmission(_submissionAddress, owner);\n    }\n\n    /// @dev Associated a tournament with a specific cateogory (sorting and filtering purposes)\n    /// @param _tournamentAddress address of a particular MatryxTournament\n    /// @param _category hash the category that the tournament belongs to\n    function addTournamentToCategory(address _tournamentAddress, bytes32 _category) public onlyTournamentOwnerOrPlatform(_tournamentAddress) {\n        if(categoryExists[_category] == false)\n        {\n            categoryList.push(_category);\n            categoryExists[_category] = true;\n        }\n\n        if(tournamentExistsInCategory[_category][_tournamentAddress] == false)\n        {\n            tournamentExistsInCategory[_category][_tournamentAddress] = true;\n            tournamentAddressToCategoryInfo[_tournamentAddress].category = _category;\n            tournamentAddressToCategoryInfo[_tournamentAddress].index = (categoryToTournamentList[_category]).length;\n            categoryToTournamentList[_category].push(_tournamentAddress);\n        }\n    }\n\n    /// @dev Disassociated a tournament from a specific category\n    /// @param _tournamentAddress address of a particular MatryxTournament\n    /// @param _category hash of the category that the tournament belongs to\n    function removeTournamentFromCategory(address _tournamentAddress, bytes32 _category) public onlyTournamentOwnerOrPlatform(_tournamentAddress) {\n        if(tournamentExistsInCategory[_category][_tournamentAddress])\n        {\n            // It's there! Let's remove it\n            uint256 indexInCategoryList = tournamentAddressToCategoryInfo[_tournamentAddress].index;\n            tournamentExistsInCategory[_category][_tournamentAddress] = false;\n            categoryToTournamentList[_category][indexInCategoryList] = 0x0;\n            tournamentAddressToCategoryInfo[_tournamentAddress].index = 0;\n            emptyCountByCategory[_category] = emptyCountByCategory[_category].add(1);\n        }\n    }\n\n    /// @dev Changes a tournament from one category to another\n    /// @param _tournamentAddress address of a particular MatryxTournament\n    /// @param _oldCategory hash of the category that the tournament previously belonged to\n    /// @param _newCategory hash of the category that the tournament will now belong to\n    function switchTournamentCategory(address _tournamentAddress, bytes32 _oldCategory, bytes32 _newCategory) public onlyTournamentOwnerOrPlatform(_tournamentAddress){\n        removeTournamentFromCategory(_tournamentAddress, _oldCategory);\n        addTournamentToCategory(_tournamentAddress, _newCategory);\n    }\n\n    /*\n     * Getters\n     */\n\n    function getTournamentsByCategory(bytes32 _category) external view returns (address[]){\n        return categoryToTournamentList[_category];\n    }\n\n    function getCategoryCount(bytes32 _category) external view returns (uint256) {\n        return categoryToTournamentList[_category].length.sub(emptyCountByCategory[_category]);\n    }\n\n    function getCategoryByIndex(uint256 _index) public view returns (bytes32){\n        return categoryList[_index];\n    }\n\n    function getAllCategories() public view returns (uint256, bytes32[]){\n        return (categoryList.length, categoryList);\n    }\n\n    /*\n    * Tournament Entry Methods\n    */\n\n    /// @dev Enter the user into a tournament and charge the entry fee.\n    /// @param _tournamentAddress Address of the tournament to enter into.\n    /// @return _success Whether or not user was successfully entered into the tournament.\n    function enterTournament(address _tournamentAddress) public onlyPeerLinked(msg.sender) notOwner(_tournamentAddress) returns (bool _success){\n        require(tournamentExists[_tournamentAddress]);\n\n        IMatryxTournament tournament = IMatryxTournament(_tournamentAddress);\n        uint256 entryFee = tournament.getEntryFee();\n\n        require(tournament.enterUserInTournament(msg.sender));\n        emit UserEnteredTournament(msg.sender, _tournamentAddress);\n        return true;\n    }\n\n    /*\n    * Tournament Admin Methods\n    */\n\n    /// @dev Create a new tournament.\n    /// @param tournamentData Data to populate the new tournament with. Includes:\n    ///    category: Discipline the tournament falls under.\n    ///    title: Name of the new tournament.\n    ///    contentHash: Off-chain content hash of tournament details (ipfs hash)\n    ///    initialBounty: Total tournament reward in MTX.\n    ///    entryFee: Fee to charge participant upon entering into the tournament.\n    /// @param roundData Data to populate the first round of the tournament with. Includes:\n    ///    startTime: The start time (unix-epoch-based) of the first round.\n    ///    endTime: The end time (unix-epoch-based) of the first round.\n    ///    reviewPeriodDuration: The amount of the tournament owner has to determine the winners of the round.\n    ///    bounty: The reward for the first round's winners.\n    /// @return _tournamentAddress Address of the newly created tournament.\n    function createTournament(LibConstruction.TournamentData tournamentData, LibConstruction.RoundData roundData) public returns (address _tournamentAddress){\n        IMatryxTournamentFactory tournamentFactory = IMatryxTournamentFactory(matryxTournamentFactoryAddress);\n        address newTournament = tournamentFactory.createTournament(tournamentData, roundData, msg.sender);\n\n        emit TournamentCreated(tournamentData.category, msg.sender, newTournament, tournamentData.title, tournamentData.descriptionHash, tournamentData.initialBounty, tournamentData.entryFee);\n\n        require(IMatryxToken(matryxTokenAddress).transferFrom(msg.sender, newTournament, tournamentData.initialBounty));\n        IMatryxTournament(newTournament).sendBountyToRound(0, roundData.bounty);\n        // update data structures\n        allTournaments.push(newTournament);\n        tournamentExists[newTournament] = true;\n        updateUsersTournaments(msg.sender, newTournament);\n\n        addTournamentToCategory(newTournament, tournamentData.category);\n\n        return newTournament;\n    }\n\n    /*\n    * Access Control Methods\n    */\n\n    function createPeer() public returns (address) {\n        require(IMatryxToken(matryxTokenAddress).balanceOf(msg.sender) > 0);\n        require(ownerToPeerAndPeerToOwner[msg.sender] == 0x0);\n        IMatryxPeerFactory peerFactory = IMatryxPeerFactory(matryxPeerFactoryAddress);\n        address peer = peerFactory.createPeer(msg.sender);\n        peerExists[peer] = true;\n        ownerToPeerAndPeerToOwner[msg.sender] = peer;\n        ownerToPeerAndPeerToOwner[peer] = msg.sender;\n    }\n\n    function isPeer(address _peerAddress) public view returns (bool) {\n        return peerExists[_peerAddress];\n    }\n\n    function hasPeer(address _sender) public view returns (bool) {\n        return (ownerToPeerAndPeerToOwner[_sender] != 0x0);\n    }\n\n    function peerExistsAndOwnsSubmission(address _peer, address _reference) public view returns (bool) {\n        bool isAPeer = peerExists[_peer];\n        bool referenceIsSubmission = submissionExists[_reference];\n        bool peerOwnsSubmission = addressToOwnsSubmission[ownerToPeerAndPeerToOwner[_peer]][_reference];\n\n        return isAPeer && referenceIsSubmission && peerOwnsSubmission;\n    }\n\n    function peerAddress(address _sender) public view returns (address){\n        return ownerToPeerAndPeerToOwner[_sender];\n    }\n\n    function isSubmission(address _submissionAddress) public view returns (bool){\n        return submissionExists[_submissionAddress];\n    }\n\n    function isTournament(address _tournamentAddress) public view returns (bool){\n        return tournamentExists[_tournamentAddress];\n    }\n\n    /// @dev Returns whether or not the given tournament belongs to the sender.\n    /// @param _tournamentAddress Address of the tournament to check.\n    /// @return _isMine Whether or not the tournament belongs to the sender.\n    function getTournament_IsMine(address _tournamentAddress) public view returns (bool _isMine) {\n        require(tournamentExists[_tournamentAddress]);\n        Ownable tournament = Ownable(_tournamentAddress);\n        return (tournament.getOwner() == msg.sender);\n    }\n\n    /*\n    * Setter Methods\n    */\n\n    /// @dev              Set the relative amount of MTX to be delivered to a submission's\n    ///                   references\n    /// @param _gratitude Weight from 0 to 1 (18 decimal uint) specifying enforced submission\n    ///                   gratitude\n    function setSubmissionGratitude(uint256 _gratitude) public onlyOwner {\n        assert(_gratitude >= 0 && _gratitude <= (1*10**18));\n        submissionGratitude = uint256_optional({exists: true, value: _gratitude});\n    }\n\n    event TimeStamp(uint256 time);\n\n    function getNow() public view returns (uint256) {\n        emit TimeStamp(now);\n        return now;\n    }\n\n    /*\n    * Getter Methods\n    */\n\n    function getTokenAddress() public view returns (address) {\n        return matryxTokenAddress;\n    }\n\n    function getTournamentFactoryAddress() public view returns (address)\n    {\n        return matryxTournamentFactoryAddress;\n    }\n\n    /// @dev    Returns a weight from 0 to 1 (18 decimal uint) indicating\n    ///         how much of a submission's reward goes to its references.\n    /// @return Relative amount of MTX going to references of submissions under this tournament.\n    function getSubmissionGratitude() public view returns (uint256)\n    {\n        require(submissionGratitude.exists);\n        return submissionGratitude.value;\n    }\n\n    /// @dev    Returns addresses for submissions the sender has created.\n    /// @return Address array representing submissions.\n    function myTournaments() public view returns (address[])\n    {\n        return ownerToTournamentArray[msg.sender];\n    }\n\n    function mySubmissions() public view returns (address[])\n    {\n        return ownerToSubmissionArray[msg.sender];\n    }\n\n    /// @dev    Returns the total number of tournaments\n    /// @return _tournamentCount Total number of tournaments.\n    function tournamentCount() public view returns (uint256 _tournamentCount)\n    {\n        return allTournaments.length;\n    }\n\n    function getTournamentAtIndex(uint256 _index) public view returns (address _tournamentAddress)\n    {\n        require(_index >= 0);\n        require(_index < allTournaments.length);\n        return allTournaments[_index];\n    }\n\n    function getTournaments() public view returns (address[])\n    {\n        return allTournaments;\n    }\n}\n",
  "sourcePath": "/Users/maxhoward/Desktop/Ethereum/MatryxPlatform/contracts/MatryxPlatform.sol",
  "compiler": {
    "name": "solc",
    "version": "0.4.24+commit.e67f0147.Emscripten.clang"
  },
  "schemaVersion": "2.0.1",
  "updatedAt": "2018-08-17T23:02:20.252Z"
}