{
  "contractName": "MatryxOracleMessenger",
  "abi": [
    {
      "constant": true,
      "inputs": [],
      "name": "getOwner",
      "outputs": [
        {
          "name": "_deployer",
          "type": "address"
        }
      ],
      "payable": false,
      "stateMutability": "view",
      "type": "function"
    },
    {
      "constant": false,
      "inputs": [
        {
          "name": "_queryID",
          "type": "uint256"
        },
        {
          "name": "_response",
          "type": "uint256"
        }
      ],
      "name": "storeQueryResponse",
      "outputs": [
        {
          "name": "success",
          "type": "bool"
        }
      ],
      "payable": false,
      "stateMutability": "nonpayable",
      "type": "function"
    },
    {
      "constant": true,
      "inputs": [],
      "name": "owner",
      "outputs": [
        {
          "name": "_owner",
          "type": "address"
        }
      ],
      "payable": false,
      "stateMutability": "view",
      "type": "function"
    },
    {
      "constant": false,
      "inputs": [
        {
          "name": "_query",
          "type": "bytes32"
        },
        {
          "name": "_sender",
          "type": "address"
        }
      ],
      "name": "Query",
      "outputs": [],
      "payable": false,
      "stateMutability": "nonpayable",
      "type": "function"
    },
    {
      "constant": false,
      "inputs": [
        {
          "name": "newOwner",
          "type": "address"
        }
      ],
      "name": "transferOwnership",
      "outputs": [],
      "payable": false,
      "stateMutability": "nonpayable",
      "type": "function"
    },
    {
      "anonymous": false,
      "inputs": [
        {
          "indexed": false,
          "name": "id",
          "type": "uint256"
        },
        {
          "indexed": false,
          "name": "sender",
          "type": "address"
        }
      ],
      "name": "QueryPerformed",
      "type": "event"
    },
    {
      "anonymous": false,
      "inputs": [
        {
          "indexed": false,
          "name": "storedResponse",
          "type": "uint256"
        }
      ],
      "name": "StoredResponse",
      "type": "event"
    },
    {
      "anonymous": false,
      "inputs": [
        {
          "indexed": false,
          "name": "newResponse",
          "type": "uint256"
        },
        {
          "indexed": false,
          "name": "oldResponse",
          "type": "uint256"
        }
      ],
      "name": "FailedToStore",
      "type": "event"
    }
  ],
  "bytecode": "0x6060604052336000806101000a81548173ffffffffffffffffffffffffffffffffffffffff021916908373ffffffffffffffffffffffffffffffffffffffff160217905550610a87806100536000396000f30060606040526004361061006d576000357c0100000000000000000000000000000000000000000000000000000000900463ffffffff168063893d20e8146100725780638b72062a146100c75780638da5cb5b1461010b578063d4a0182014610160578063f2fde38b146101a6575b600080fd5b341561007d57600080fd5b6100856101df565b604051808273ffffffffffffffffffffffffffffffffffffffff1673ffffffffffffffffffffffffffffffffffffffff16815260200191505060405180910390f35b34156100d257600080fd5b6100f16004808035906020019091908035906020019091905050610208565b604051808215151515815260200191505060405180910390f35b341561011657600080fd5b61011e61035a565b604051808273ffffffffffffffffffffffffffffffffffffffff1673ffffffffffffffffffffffffffffffffffffffff16815260200191505060405180910390f35b341561016b57600080fd5b6101a460048080356000191690602001909190803573ffffffffffffffffffffffffffffffffffffffff16906020019091905050610383565b005b34156101b157600080fd5b6101dd600480803573ffffffffffffffffffffffffffffffffffffffff16906020019091905050610692565b005b60008060009054906101000a900473ffffffffffffffffffffffffffffffffffffffff16905090565b6000806000809054906101000a900473ffffffffffffffffffffffffffffffffffffffff1673ffffffffffffffffffffffffffffffffffffffff163373ffffffffffffffffffffffffffffffffffffffff1614151561026657600080fd5b6003600085815260200190815260200160002054905060008311801561028c5750600081145b156102fc578260036000868152602001908152602001600020819055507fae8527266ba82a48a206c6cbaa4634e0d5e70b8c6017ac015e19fa75664d557860036000868152602001908152602001600020546040518082815260200191505060405180910390a160019150610353565b7fe0ecffc2c891b346f2eeb89101dba4c5748fb0f27fd023b97cdcac60c0a1585c836003600087815260200190815260200160002054604051808381526020018281526020019250505060405180910390a1600091505b5092915050565b60008060009054906101000a900473ffffffffffffffffffffffffffffffffffffffff16905090565b6000806000600160008573ffffffffffffffffffffffffffffffffffffffff1673ffffffffffffffffffffffffffffffffffffffff16815260200190815260200160002060009054906101000a900473ffffffffffffffffffffffffffffffffffffffff1673ffffffffffffffffffffffffffffffffffffffff16111561046b57600160008473ffffffffffffffffffffffffffffffffffffffff1673ffffffffffffffffffffffffffffffffffffffff16815260200190815260200160002060009054906101000a900473ffffffffffffffffffffffffffffffffffffffff169150610541565b8261047461076c565b808273ffffffffffffffffffffffffffffffffffffffff1673ffffffffffffffffffffffffffffffffffffffff168152602001915050604051809103906000f08015156104c057600080fd5b915081600160008573ffffffffffffffffffffffffffffffffffffffff1673ffffffffffffffffffffffffffffffffffffffff16815260200190815260200160002060006101000a81548173ffffffffffffffffffffffffffffffffffffffff021916908373ffffffffffffffffffffffffffffffffffffffff1602179055505b8173ffffffffffffffffffffffffffffffffffffffff1663a3b61a9c856000604051602001526040518263ffffffff167c0100000000000000000000000000000000000000000000000000000000028152600401808260001916600019168152602001915050602060405180830381600087803b15156105c057600080fd5b6102c65a03f115156105d157600080fd5b50505060405180519050905080600260008573ffffffffffffffffffffffffffffffffffffffff1673ffffffffffffffffffffffffffffffffffffffff168152602001908152602001600020819055507f1c16af450a72e7153ed6faee28677e32f11936f8ab2e63322d032d1f753b5aea8184604051808381526020018273ffffffffffffffffffffffffffffffffffffffff1673ffffffffffffffffffffffffffffffffffffffff1681526020019250505060405180910390a150505050565b6000809054906101000a900473ffffffffffffffffffffffffffffffffffffffff1673ffffffffffffffffffffffffffffffffffffffff163373ffffffffffffffffffffffffffffffffffffffff161415156106ed57600080fd5b600073ffffffffffffffffffffffffffffffffffffffff168173ffffffffffffffffffffffffffffffffffffffff161415151561072957600080fd5b806000806101000a81548173ffffffffffffffffffffffffffffffffffffffff021916908373ffffffffffffffffffffffffffffffffffffffff16021790555050565b6040516102df8061077d8339019056006060604052341561000f57600080fd5b6040516020806102df83398101604052808051906020019091905050336000806101000a81548173ffffffffffffffffffffffffffffffffffffffff021916908373ffffffffffffffffffffffffffffffffffffffff16021790555080600160006101000a81548173ffffffffffffffffffffffffffffffffffffffff021916908373ffffffffffffffffffffffffffffffffffffffff16021790555050610223806100bc6000396000f30060606040526004361061004c576000357c0100000000000000000000000000000000000000000000000000000000900463ffffffff16806341c0e1b514610051578063a3b61a9c14610066575b600080fd5b341561005c57600080fd5b6100646100a1565b005b341561007157600080fd5b61008b600480803560001916906020019091905050610115565b6040518082815260200191505060405180910390f35b6000809054906101000a900473ffffffffffffffffffffffffffffffffffffffff1673ffffffffffffffffffffffffffffffffffffffff163373ffffffffffffffffffffffffffffffffffffffff161415156100fc57600080fd5b3373ffffffffffffffffffffffffffffffffffffffff16ff5b60008060009054906101000a900473ffffffffffffffffffffffffffffffffffffffff1673ffffffffffffffffffffffffffffffffffffffff163373ffffffffffffffffffffffffffffffffffffffff1614151561017257600080fd5b434283336040518085815260200184815260200183600019166000191681526020018273ffffffffffffffffffffffffffffffffffffffff1673ffffffffffffffffffffffffffffffffffffffff166c0100000000000000000000000002815260140194505050505060405180910390206001900460028190555060025490509190505600a165627a7a72305820fbfdcb4d24db9340a6fd7f364b82aabbd8452fa24a5d436f9298a490f32a55cb0029a165627a7a723058209d53f3de6b88715ece913a2c0132693dbaac86bb75e13aec246966d2e87af78a0029",
  "source": "pragma solidity ^0.4.18;\n\nimport \"./Ownable.sol\";\nimport \"./MatryxQueryEncrypter.sol\";\n\n// The actual part to be included in a client contract\ncontract MatryxOracleMessenger is Ownable {\n\n  // An event to let our node know that a new query has been performed.\n  event QueryPerformed(uint256 id, address sender);\n\n  event StoredResponse(uint256 storedResponse);\n  event FailedToStore(uint256 newResponse, uint256 oldResponse);\n\n  // Map from user addresses to MatryxQueryEncrypters. We assume each user only\n  // sends one query at a time.\n  mapping(address => MatryxQueryEncrypter) internal queryEncrypters;\n  // Map from user addresses (queriers) to QueryIDs. We assume each user only\n  // makes one query at a time.\n  mapping(address => uint256) internal fromQuerierToQueryID;\n  // Map from QueryIDs to responses (bytes32s. aka dynamically-sized byte arrays.)\n  mapping(uint256 => uint256) internal queryResponses;\n\n  // Requires that the platform owner (Nanome) is the sender\n  // This is used to verify that we're the only ones acting as an oracle.\n  modifier storerIsPlatformOwner()\n  {\n    require(msg.sender == owner);\n    _;\n  }\n\n  function getOwner() public view returns (address _deployer)\n  {\n    return owner;\n  }\n\n  function latestResponseFromOracle(address _sender) internal view returns (uint256 _response)\n  {\n        uint256 queryID = fromQuerierToQueryID[_sender];\n        uint256 response = queryResponses[queryID];\n        return response;\n  }\n\n  // Uses [the user's existing]/[a new] QueryResolver,\n  // depending on whether or not the user has submitted a query before.\n  // Then, returns the queryID for the user to use in tracking the results\n  // of their query.\n  function Query(bytes32 _query, address _sender) external {\n    MatryxQueryEncrypter encrypter;\n    // If there's already a queryResolver for this user\n    if(address(queryEncrypters[_sender]) > 0x0)\n    {\n        // Use that one.\n        encrypter = queryEncrypters[_sender];\n    }\n    else\n    {\n        // Otherwise, create a new one and assign it.\n        encrypter = new MatryxQueryEncrypter(_sender);\n        queryEncrypters[_sender] = encrypter;\n    }\n\n    // Get the queryID from the QueryResolver.\n    uint256 queryID = encrypter.query(_query);\n    // Store that id under the sender's (querier's) address.\n    fromQuerierToQueryID[_sender] = queryID;\n\n    // Let our Alpha Matryx server know that a query has been performed!\n    QueryPerformed(queryID, _sender);\n  }\n\n  // (Only to be used by MatryxPlatform, MatryxOracleMessenger and MatryxQueryEncrypter.\n  // This is not a user function.)\n  // This function can be called (successfully) from Nanome's private chain\n  function storeQueryResponse(uint256 _queryID,  uint256 _response) storerIsPlatformOwner public returns (bool success)\n  {\n      // Make sure:\n      // 1) The response is not empty and\n      // 2) There has not yet been a response created for this query\n      uint256 existingResponse = queryResponses[_queryID];\n      if(_response > 0 && existingResponse == 0)\n      {\n          // If these conditions hold, we set the response here.\n          queryResponses[_queryID] = _response;\n          StoredResponse(queryResponses[_queryID]);\n          return true;\n      }\n      else\n      {\n        // Otherwise, we do nothing with the response,\n        // and return false (unsuccessful storage of response).\n        FailedToStore(_response, queryResponses[_queryID]);\n        return false;\n      }\n  }\n}",
  "sourcePath": "/Users/maxhoward/Desktop/Ethereum Development/Matryx AWS/Projects/matryx-alpha-source/contracts/MatryxOracleMessenger.sol",
  "compiler": {
    "name": "solc",
    "version": "0.4.18+commit.9cf6e910.Emscripten.clang"
  },
  "schemaVersion": "1.0.1",
  "updatedAt": "2017-12-07T21:54:28.466Z"
}