{
  "contractName": "MatryxTournament",
  "abi": [
    {
      "constant": true,
      "inputs": [
        {
          "name": "_sender",
          "type": "address"
        }
      ],
      "name": "isOwner",
      "outputs": [
        {
          "name": "_isOwner",
          "type": "bool"
        }
      ],
      "payable": false,
      "stateMutability": "view",
      "type": "function"
    },
    {
      "constant": true,
      "inputs": [],
      "name": "matryxRoundFactoryAddress",
      "outputs": [
        {
          "name": "",
          "type": "address"
        }
      ],
      "payable": false,
      "stateMutability": "view",
      "type": "function"
    },
    {
      "constant": true,
      "inputs": [],
      "name": "getOwner",
      "outputs": [
        {
          "name": "_owner",
          "type": "address"
        }
      ],
      "payable": false,
      "stateMutability": "view",
      "type": "function"
    },
    {
      "constant": true,
      "inputs": [],
      "name": "owner",
      "outputs": [
        {
          "name": "",
          "type": "address"
        }
      ],
      "payable": false,
      "stateMutability": "view",
      "type": "function"
    },
    {
      "constant": true,
      "inputs": [],
      "name": "platformAddress",
      "outputs": [
        {
          "name": "",
          "type": "address"
        }
      ],
      "payable": false,
      "stateMutability": "view",
      "type": "function"
    },
    {
      "constant": false,
      "inputs": [
        {
          "name": "newOwner",
          "type": "address"
        }
      ],
      "name": "transferOwnership",
      "outputs": [],
      "payable": false,
      "stateMutability": "nonpayable",
      "type": "function"
    },
    {
      "inputs": [
        {
          "name": "_owner",
          "type": "address"
        },
        {
          "name": "_platformAddress",
          "type": "address"
        },
        {
          "name": "_matryxRoundFactoryAddress",
          "type": "address"
        },
        {
          "components": [
            {
              "name": "category",
              "type": "bytes32"
            },
            {
              "name": "title",
              "type": "bytes32[3]"
            },
            {
              "name": "descriptionHash",
              "type": "bytes32[2]"
            },
            {
              "name": "fileHash",
              "type": "bytes32[2]"
            },
            {
              "name": "initialBounty",
              "type": "uint256"
            },
            {
              "name": "entryFee",
              "type": "uint256"
            }
          ],
          "name": "tournamentData",
          "type": "tuple"
        },
        {
          "components": [
            {
              "name": "start",
              "type": "uint256"
            },
            {
              "name": "end",
              "type": "uint256"
            },
            {
              "name": "reviewPeriodDuration",
              "type": "uint256"
            },
            {
              "name": "bounty",
              "type": "uint256"
            },
            {
              "name": "closed",
              "type": "bool"
            }
          ],
          "name": "roundData",
          "type": "tuple"
        }
      ],
      "payable": false,
      "stateMutability": "nonpayable",
      "type": "constructor"
    },
    {
      "anonymous": false,
      "inputs": [
        {
          "indexed": false,
          "name": "_startTime",
          "type": "uint256"
        },
        {
          "indexed": false,
          "name": "_endTime",
          "type": "uint256"
        },
        {
          "indexed": false,
          "name": "_reviewPeriodDuration",
          "type": "uint256"
        },
        {
          "indexed": false,
          "name": "_roundAddress",
          "type": "address"
        },
        {
          "indexed": false,
          "name": "_roundNumber",
          "type": "uint256"
        }
      ],
      "name": "NewRound",
      "type": "event"
    },
    {
      "anonymous": false,
      "inputs": [
        {
          "indexed": false,
          "name": "_roundIndex",
          "type": "uint256"
        },
        {
          "indexed": false,
          "name": "_submissionAddress",
          "type": "address"
        }
      ],
      "name": "SubmissionCreated",
      "type": "event"
    },
    {
      "anonymous": false,
      "inputs": [
        {
          "indexed": false,
          "name": "_submissionAddresses",
          "type": "address[]"
        }
      ],
      "name": "RoundWinnersChosen",
      "type": "event"
    },
    {
      "constant": false,
      "inputs": [
        {
          "name": "_submissionAddress",
          "type": "address"
        }
      ],
      "name": "invokeSubmissionCreatedEvent",
      "outputs": [],
      "payable": false,
      "stateMutability": "nonpayable",
      "type": "function"
    },
    {
      "constant": false,
      "inputs": [
        {
          "name": "_submissionAddress",
          "type": "address"
        },
        {
          "name": "_author",
          "type": "address"
        }
      ],
      "name": "removeSubmission",
      "outputs": [
        {
          "name": "",
          "type": "bool"
        }
      ],
      "payable": false,
      "stateMutability": "nonpayable",
      "type": "function"
    },
    {
      "constant": true,
      "inputs": [
        {
          "name": "_sender",
          "type": "address"
        }
      ],
      "name": "isEntrant",
      "outputs": [
        {
          "name": "",
          "type": "bool"
        }
      ],
      "payable": false,
      "stateMutability": "view",
      "type": "function"
    },
    {
      "constant": true,
      "inputs": [],
      "name": "getState",
      "outputs": [
        {
          "name": "",
          "type": "uint256"
        }
      ],
      "payable": false,
      "stateMutability": "view",
      "type": "function"
    },
    {
      "constant": true,
      "inputs": [],
      "name": "getPlatform",
      "outputs": [
        {
          "name": "_platformAddress",
          "type": "address"
        }
      ],
      "payable": false,
      "stateMutability": "view",
      "type": "function"
    },
    {
      "constant": true,
      "inputs": [],
      "name": "getTokenAddress",
      "outputs": [
        {
          "name": "_matryxTokenAddress",
          "type": "address"
        }
      ],
      "payable": false,
      "stateMutability": "view",
      "type": "function"
    },
    {
      "constant": true,
      "inputs": [],
      "name": "getData",
      "outputs": [
        {
          "components": [
            {
              "name": "category",
              "type": "bytes32"
            },
            {
              "name": "title",
              "type": "bytes32[3]"
            },
            {
              "name": "descriptionHash",
              "type": "bytes32[2]"
            },
            {
              "name": "fileHash",
              "type": "bytes32[2]"
            },
            {
              "name": "initialBounty",
              "type": "uint256"
            },
            {
              "name": "entryFee",
              "type": "uint256"
            }
          ],
          "name": "_data",
          "type": "tuple"
        }
      ],
      "payable": false,
      "stateMutability": "view",
      "type": "function"
    },
    {
      "constant": true,
      "inputs": [
        {
          "name": "_roundAddress",
          "type": "address"
        }
      ],
      "name": "isRound",
      "outputs": [
        {
          "name": "_isRound",
          "type": "bool"
        }
      ],
      "payable": false,
      "stateMutability": "view",
      "type": "function"
    },
    {
      "constant": true,
      "inputs": [],
      "name": "getRounds",
      "outputs": [
        {
          "name": "_rounds",
          "type": "address[]"
        }
      ],
      "payable": false,
      "stateMutability": "view",
      "type": "function"
    },
    {
      "constant": true,
      "inputs": [],
      "name": "getCategory",
      "outputs": [
        {
          "name": "_category",
          "type": "bytes32"
        }
      ],
      "payable": false,
      "stateMutability": "view",
      "type": "function"
    },
    {
      "constant": true,
      "inputs": [],
      "name": "getTitle",
      "outputs": [
        {
          "name": "_title",
          "type": "bytes32[3]"
        }
      ],
      "payable": false,
      "stateMutability": "view",
      "type": "function"
    },
    {
      "constant": true,
      "inputs": [],
      "name": "getDescriptionHash",
      "outputs": [
        {
          "name": "_descriptionHash",
          "type": "bytes32[2]"
        }
      ],
      "payable": false,
      "stateMutability": "view",
      "type": "function"
    },
    {
      "constant": true,
      "inputs": [],
      "name": "getFileHash",
      "outputs": [
        {
          "name": "_fileHash",
          "type": "bytes32[2]"
        }
      ],
      "payable": false,
      "stateMutability": "view",
      "type": "function"
    },
    {
      "constant": true,
      "inputs": [],
      "name": "currentRound",
      "outputs": [
        {
          "name": "_currentRound",
          "type": "uint256"
        },
        {
          "name": "_currentRoundAddress",
          "type": "address"
        }
      ],
      "payable": false,
      "stateMutability": "view",
      "type": "function"
    },
    {
      "constant": true,
      "inputs": [],
      "name": "getBounty",
      "outputs": [
        {
          "name": "_tournamentBounty",
          "type": "uint256"
        }
      ],
      "payable": false,
      "stateMutability": "view",
      "type": "function"
    },
    {
      "constant": true,
      "inputs": [],
      "name": "getBalance",
      "outputs": [
        {
          "name": "_tournamentBalance",
          "type": "uint256"
        }
      ],
      "payable": false,
      "stateMutability": "view",
      "type": "function"
    },
    {
      "constant": true,
      "inputs": [],
      "name": "getEntryFee",
      "outputs": [
        {
          "name": "",
          "type": "uint256"
        }
      ],
      "payable": false,
      "stateMutability": "view",
      "type": "function"
    },
    {
      "constant": true,
      "inputs": [],
      "name": "mySubmissions",
      "outputs": [
        {
          "name": "",
          "type": "address[]"
        }
      ],
      "payable": false,
      "stateMutability": "view",
      "type": "function"
    },
    {
      "constant": true,
      "inputs": [],
      "name": "submissionCount",
      "outputs": [
        {
          "name": "_submissionCount",
          "type": "uint256"
        }
      ],
      "payable": false,
      "stateMutability": "view",
      "type": "function"
    },
    {
      "constant": true,
      "inputs": [],
      "name": "entrantCount",
      "outputs": [
        {
          "name": "_entrantCount",
          "type": "uint256"
        }
      ],
      "payable": false,
      "stateMutability": "view",
      "type": "function"
    },
    {
      "constant": false,
      "inputs": [
        {
          "components": [
            {
              "name": "category",
              "type": "bytes32"
            },
            {
              "name": "title",
              "type": "bytes32[3]"
            },
            {
              "name": "descriptionHash",
              "type": "bytes32[2]"
            },
            {
              "name": "fileHash",
              "type": "bytes32[2]"
            },
            {
              "name": "entryFee",
              "type": "uint256"
            },
            {
              "name": "entryFeeChanged",
              "type": "bool"
            }
          ],
          "name": "tournamentData",
          "type": "tuple"
        }
      ],
      "name": "update",
      "outputs": [],
      "payable": false,
      "stateMutability": "nonpayable",
      "type": "function"
    },
    {
      "constant": false,
      "inputs": [
        {
          "name": "_fundsToAdd",
          "type": "uint256"
        }
      ],
      "name": "addFunds",
      "outputs": [],
      "payable": false,
      "stateMutability": "nonpayable",
      "type": "function"
    },
    {
      "constant": false,
      "inputs": [
        {
          "components": [
            {
              "name": "winningSubmissions",
              "type": "address[]"
            },
            {
              "name": "rewardDistribution",
              "type": "uint256[]"
            },
            {
              "name": "selectWinnerAction",
              "type": "uint256"
            },
            {
              "name": "rewardDistributionTotal",
              "type": "uint256"
            }
          ],
          "name": "_selectWinnersData",
          "type": "tuple"
        },
        {
          "components": [
            {
              "name": "start",
              "type": "uint256"
            },
            {
              "name": "end",
              "type": "uint256"
            },
            {
              "name": "reviewPeriodDuration",
              "type": "uint256"
            },
            {
              "name": "bounty",
              "type": "uint256"
            },
            {
              "name": "closed",
              "type": "bool"
            }
          ],
          "name": "_roundData",
          "type": "tuple"
        }
      ],
      "name": "selectWinners",
      "outputs": [],
      "payable": false,
      "stateMutability": "nonpayable",
      "type": "function"
    },
    {
      "constant": false,
      "inputs": [
        {
          "components": [
            {
              "name": "start",
              "type": "uint256"
            },
            {
              "name": "end",
              "type": "uint256"
            },
            {
              "name": "reviewPeriodDuration",
              "type": "uint256"
            },
            {
              "name": "bounty",
              "type": "uint256"
            },
            {
              "name": "closed",
              "type": "bool"
            }
          ],
          "name": "_roundData",
          "type": "tuple"
        }
      ],
      "name": "editGhostRound",
      "outputs": [],
      "payable": false,
      "stateMutability": "nonpayable",
      "type": "function"
    },
    {
      "constant": false,
      "inputs": [
        {
          "name": "_mtxAllocation",
          "type": "uint256"
        }
      ],
      "name": "allocateMoreToRound",
      "outputs": [],
      "payable": false,
      "stateMutability": "nonpayable",
      "type": "function"
    },
    {
      "constant": false,
      "inputs": [],
      "name": "jumpToNextRound",
      "outputs": [],
      "payable": false,
      "stateMutability": "nonpayable",
      "type": "function"
    },
    {
      "constant": false,
      "inputs": [],
      "name": "stopTournament",
      "outputs": [],
      "payable": false,
      "stateMutability": "nonpayable",
      "type": "function"
    },
    {
      "constant": false,
      "inputs": [
        {
          "components": [
            {
              "name": "start",
              "type": "uint256"
            },
            {
              "name": "end",
              "type": "uint256"
            },
            {
              "name": "reviewPeriodDuration",
              "type": "uint256"
            },
            {
              "name": "bounty",
              "type": "uint256"
            },
            {
              "name": "closed",
              "type": "bool"
            }
          ],
          "name": "roundData",
          "type": "tuple"
        },
        {
          "name": "_automaticCreation",
          "type": "bool"
        }
      ],
      "name": "createRound",
      "outputs": [
        {
          "name": "_roundAddress",
          "type": "address"
        }
      ],
      "payable": false,
      "stateMutability": "nonpayable",
      "type": "function"
    },
    {
      "constant": false,
      "inputs": [
        {
          "name": "_roundIndex",
          "type": "uint256"
        },
        {
          "name": "_bountyMTX",
          "type": "uint256"
        }
      ],
      "name": "sendBountyToRound",
      "outputs": [],
      "payable": false,
      "stateMutability": "nonpayable",
      "type": "function"
    },
    {
      "constant": false,
      "inputs": [
        {
          "name": "_entrantAddress",
          "type": "address"
        }
      ],
      "name": "enterUserInTournament",
      "outputs": [
        {
          "name": "_success",
          "type": "bool"
        }
      ],
      "payable": false,
      "stateMutability": "nonpayable",
      "type": "function"
    },
    {
      "constant": false,
      "inputs": [],
      "name": "collectMyEntryFee",
      "outputs": [],
      "payable": false,
      "stateMutability": "nonpayable",
      "type": "function"
    },
    {
      "constant": false,
      "inputs": [
        {
          "components": [
            {
              "name": "title",
              "type": "bytes32[3]"
            },
            {
              "name": "descriptionHash",
              "type": "bytes32[2]"
            },
            {
              "name": "fileHash",
              "type": "bytes32[2]"
            },
            {
              "name": "timeSubmitted",
              "type": "uint256"
            },
            {
              "name": "timeUpdated",
              "type": "uint256"
            }
          ],
          "name": "submissionData",
          "type": "tuple"
        },
        {
          "components": [
            {
              "name": "contributors",
              "type": "address[]"
            },
            {
              "name": "contributorRewardDistribution",
              "type": "uint256[]"
            },
            {
              "name": "references",
              "type": "address[]"
            }
          ],
          "name": "contribsAndRefs",
          "type": "tuple"
        }
      ],
      "name": "createSubmission",
      "outputs": [
        {
          "name": "_submissionAddress",
          "type": "address"
        }
      ],
      "payable": false,
      "stateMutability": "nonpayable",
      "type": "function"
    },
    {
      "constant": false,
      "inputs": [],
      "name": "withdrawFromAbandoned",
      "outputs": [],
      "payable": false,
      "stateMutability": "nonpayable",
      "type": "function"
    }
  ],
  "bytecode": "0x60806040523480156200001157600080fd5b506040516102408062003c878339810180604052620000349190810190620005d7565b60008054600160a060020a03191633179055600160a060020a03851615156200005c57600080fd5b60208201515115156200006e57600080fd5b60808201516000106200008057600080fd5b600160a060020a03831615156200009657600080fd5b60018054600160a060020a03808716600160a060020a031992831617909255600280548684169083161790556000805492881692909116919091179055815160039081556020830151839190620000f19060049083620002d1565b50604082015162000109906004830190600262000316565b50606082015162000121906006830190600262000316565b506080820151600882015560a0909101516009909101556200014e8160006401000000006200015a810204565b505050505050620007af565b600080600160009054906101000a9004600160a060020a0316600160a060020a03166310fe9ae86040518163ffffffff167c0100000000000000000000000000000000000000000000000000000000028152600401602060405180830381600087803b158015620001ca57600080fd5b505af1158015620001df573d6000803e3d6000fd5b505050506040513d601f19601f82011682018060405250620002059190810190620005b6565b6001546002546040517fcfa037dc00000000000000000000000000000000000000000000000000000000815292935073__LibTournamentAdminMethods_____________9263cfa037dc926200027592600d92600160a060020a0392831692889216908b908b90600401620006f1565b60206040518083038186803b1580156200028e57600080fd5b505af4158015620002a3573d6000803e3d6000fd5b505050506040513d601f19601f82011682018060405250620002c99190810190620005b6565b949350505050565b826003810192821562000304579160200282015b82811115620003045782518255602090920191600190910190620002e5565b506200031292915062000348565b5090565b8260028101928215620003045791602002820182811115620003045782518255602090920191600190910190620002e5565b6200036591905b808211156200031257600081556001016200034f565b90565b60006200037682516200079e565b9392505050565b6000601f820183136200038f57600080fd5b6002620003a6620003a08262000780565b62000759565b91508183856020840282011115620003bd57600080fd5b60005b83811015620003ed5781620003d688826200046f565b8452506020928301929190910190600101620003c0565b5050505092915050565b6000601f820183136200040957600080fd5b60036200041a620003a08262000780565b915081838560208402820111156200043157600080fd5b60005b83811015620003ed57816200044a88826200046f565b845250602092830192919091019060010162000434565b6000620003768251620007aa565b600062000376825162000365565b600060a082840312156200049057600080fd5b6200049c60a062000759565b90506000620004ac84846200046f565b8252506020620004bf848483016200046f565b6020830152506040620004d5848285016200046f565b6040830152506060620004eb848285016200046f565b6060830152506080620005018482850162000461565b60808301525092915050565b600061014082840312156200052157600080fd5b6200052d60c062000759565b905060006200053d84846200046f565b82525060206200055084848301620003f7565b602083015250608062000566848285016200037d565b60408301525060c06200057c848285016200037d565b60608301525061010062000593848285016200046f565b608083015250610120620005aa848285016200046f565b60a08301525092915050565b600060208284031215620005c957600080fd5b6000620002c9848462000368565b60008060008060006102408688031215620005f157600080fd5b6000620005ff888862000368565b9550506020620006128882890162000368565b9450506040620006258882890162000368565b935050606062000638888289016200050d565b9250506101a06200064c888289016200047d565b9150509295509295909350565b62000664816200079e565b82525050565b6200066481620007aa565b805160a0830190620006888482620006e6565b5060208201516200069d6020850182620006e6565b506040820151620006b26040850182620006e6565b506060820151620006c76060850182620006e6565b506080820151620006dc60808501826200066a565b50505050565b9052565b620006648162000365565b6101408101620007028289620006e2565b62000711602083018862000659565b62000720604083018762000659565b6200072f606083018662000659565b6200073e608083018562000675565b6200074e6101208301846200066a565b979650505050505050565b6040518181016001604060020a03811182821017156200077857600080fd5b604052919050565b60006001604060020a038211156200079757600080fd5b5060200290565b600160a060020a031690565b151590565b6134c880620007bf6000396000f3006080604052600436106101e25763ffffffff7c0100000000000000000000000000000000000000000000000000000000600035041663072a456081146101e757806310fe9ae81461020957806312065fe0146102345780631865c57d1461025657806323721e241461026b578063245edf061461028b57806328d576d7146102ad5780632f54bf6e146102da5780632fc1f190146102fa57806331691a7b1461030f5780633bc5de301461032f57806345df1945146103515780634644c51b1461036657806352c01fab14610386578063542fe6c2146103a6578063583c3a92146103bb57806367f69ab1146103db5780636984d070146103fb5780636ec02be91461041d5780636fe564201461043257806380258e47146104475780638493f71f1461045c578063893d20e81461047157806389f3beb6146104865780638a19c8bc1461049b5780638c1fc0bb146104be5780638da5cb5b146104de5780639baec207146104f3578063a968c4b914610508578063be99970514610528578063c2f897bf14610548578063d60561ce1461055d578063dbe55e561461057d578063e139a20c14610592578063e586a4f0146105a7578063f2fde38b146105bc578063f49bff7b146105dc578063fa8f3ac5146105f1578063ff3c1a8f14610611575b600080fd5b3480156101f357600080fd5b50610207610202366004612b12565b610633565b005b34801561021557600080fd5b5061021e6107a2565b60405161022b9190613143565b60405180910390f35b34801561024057600080fd5b5061024961084b565b60405161022b9190613205565b34801561026257600080fd5b506102496109cc565b34801561027757600080fd5b50610207610286366004612b7e565b610a70565b34801561029757600080fd5b506102a0610c40565b60405161022b91906131db565b3480156102b957600080fd5b506102cd6102c8366004612980565b610c7c565b60405161022b91906131f7565b3480156102e657600080fd5b506102cd6102f5366004612980565b610d66565b34801561030657600080fd5b5061021e610d87565b34801561031b57600080fd5b5061020761032a366004612a14565b610da3565b34801561033b57600080fd5b50610344610ede565b60405161022b9190613368565b34801561035d57600080fd5b50610207610fb9565b34801561037257600080fd5b50610207610381366004612980565b6110e9565b34801561039257600080fd5b506102cd6103a1366004612980565b61116a565b3480156103b257600080fd5b50610207611195565b3480156103c757600080fd5b506102076103d6366004612a62565b6112cb565b3480156103e757600080fd5b5061021e6103f6366004612a32565b611457565b34801561040757600080fd5b50610410611486565b60405161022b91906131ca565b34801561042957600080fd5b506102496114f7565b34801561043e57600080fd5b5061021e6114fd565b34801561045357600080fd5b50610249611519565b34801561046857600080fd5b506102a061151f565b34801561047d57600080fd5b5061021e611554565b34801561049257600080fd5b50610249611570565b3480156104a757600080fd5b506104b0611576565b60405161022b9291906133d6565b3480156104ca57600080fd5b506102cd6104d9366004612980565b611624565b3480156104ea57600080fd5b5061021e61164f565b3480156104ff57600080fd5b5061020761166b565b34801561051457600080fd5b506102cd6105233660046129bc565b6117be565b34801561053457600080fd5b50610207610543366004612b12565b61191c565b34801561055457600080fd5b50610207611af7565b34801561056957600080fd5b50610207610578366004612af3565b611b9e565b34801561058957600080fd5b5061021e611c2f565b34801561059e57600080fd5b50610410611c4b565b3480156105b357600080fd5b50610249611cca565b3480156105c857600080fd5b506102076105d7366004612980565b611cd0565b3480156105e857600080fd5b50610249611d5d565b3480156105fd57600080fd5b5061021e61060c366004612aa9565b611e8e565b34801561061d57600080fd5b50610626612242565b60405161022b91906131e9565b6000805473ffffffffffffffffffffffffffffffffffffffff16331461065857600080fd5b600160009054906101000a900473ffffffffffffffffffffffffffffffffffffffff1673ffffffffffffffffffffffffffffffffffffffff166310fe9ae86040518163ffffffff167c0100000000000000000000000000000000000000000000000000000000028152600401602060405180830381600087803b1580156106de57600080fd5b505af11580156106f2573d6000803e3d6000fd5b505050506040513d601f19601f82011682018060405250610716919081019061299e565b6040517f5fd45f0b00000000000000000000000000000000000000000000000000000000815290915073__LibTournamentAdminMethods_____________90635fd45f0b9061076e90600d908690869060040161334d565b60006040518083038186803b15801561078657600080fd5b505af415801561079a573d6000803e3d6000fd5b505050505050565b600154604080517f10fe9ae8000000000000000000000000000000000000000000000000000000008152905160009273ffffffffffffffffffffffffffffffffffffffff16916310fe9ae891600480830192602092919082900301818787803b15801561080e57600080fd5b505af1158015610822573d6000803e3d6000fd5b505050506040513d601f19601f82011682018060405250610846919081019061299e565b905090565b600080600160009054906101000a900473ffffffffffffffffffffffffffffffffffffffff1673ffffffffffffffffffffffffffffffffffffffff166310fe9ae86040518163ffffffff167c0100000000000000000000000000000000000000000000000000000000028152600401602060405180830381600087803b1580156108d457600080fd5b505af11580156108e8573d6000803e3d6000fd5b505050506040513d601f19601f8201168201806040525061090c919081019061299e565b600f546040517f70a082310000000000000000000000000000000000000000000000000000000081529192506109c69173ffffffffffffffffffffffffffffffffffffffff8416906370a0823190610968903090600401613143565b602060405180830381600087803b15801561098257600080fd5b505af1158015610996573d6000803e3d6000fd5b505050506040513d601f19601f820116820180604052506109ba9190810190612b30565b9063ffffffff61227816565b91505090565b6040517f5726b16f00000000000000000000000000000000000000000000000000000000815260009073__LibTournamentStateManagement__________90635726b16f90610a2090600d90600401613224565b60206040518083038186803b158015610a3857600080fd5b505af4158015610a4c573d6000803e3d6000fd5b505050506040513d601f19601f820116820180604052506108469190810190612b30565b60015460009073ffffffffffffffffffffffffffffffffffffffff163314610a9757600080fd5b601054610aaa908363ffffffff61228a16565b601055600154604080517f10fe9ae8000000000000000000000000000000000000000000000000000000008152905173ffffffffffffffffffffffffffffffffffffffff909216916310fe9ae8916004808201926020929091908290030181600087803b158015610b1a57600080fd5b505af1158015610b2e573d6000803e3d6000fd5b505050506040513d601f19601f82011682018060405250610b52919081019061299e565b90508073ffffffffffffffffffffffffffffffffffffffff1663a9059cbb600d60000185815481101515610b8257fe5b6000918252602090912001546040517c010000000000000000000000000000000000000000000000000000000063ffffffff8416028152610bde9173ffffffffffffffffffffffffffffffffffffffff169086906004016131af565b602060405180830381600087803b158015610bf857600080fd5b505af1158015610c0c573d6000803e3d6000fd5b505050506040513d601f19601f82011682018060405250610c3091908101906129f6565b1515610c3b57600080fd5b505050565b610c4861242d565b60408051808201918290529060079060029082845b81548152600190910190602001808311610c5d575b5050505050905090565b60015460009073ffffffffffffffffffffffffffffffffffffffff163314610ca357600080fd5b6002610cad6109cc565b14610cb757600080fd5b6040517fa09c5c9900000000000000000000000000000000000000000000000000000000815273__LibTournamentEntrantMethods___________9063a09c5c9990610d1090600390600d9060129088906004016133a1565b60206040518083038186803b158015610d2857600080fd5b505af4158015610d3c573d6000803e3d6000fd5b505050506040513d601f19601f82011682018060405250610d6091908101906129f6565b92915050565b60005473ffffffffffffffffffffffffffffffffffffffff91821691161490565b60015473ffffffffffffffffffffffffffffffffffffffff1690565b6000805473ffffffffffffffffffffffffffffffffffffffff163314610dc857600080fd5b600160009054906101000a900473ffffffffffffffffffffffffffffffffffffffff1673ffffffffffffffffffffffffffffffffffffffff166310fe9ae86040518163ffffffff167c0100000000000000000000000000000000000000000000000000000000028152600401602060405180830381600087803b158015610e4e57600080fd5b505af1158015610e62573d6000803e3d6000fd5b505050506040513d601f19601f82011682018060405250610e86919081019061299e565b6040517f672ec62300000000000000000000000000000000000000000000000000000000815290915073__LibTournamentAdminMethods_____________9063672ec6239061076e90600d9086908690600401613325565b610ee6612448565b6040805160c08101825260038054825282516060810193849052919290916020840191600490849082845b81548152600190910190602001808311610f11575050509183525050604080518082019182905260209092019190600484019060029082845b81548152600190910190602001808311610f4a575050509183525050604080518082019182905260209092019190600684019060029082845b81548152600190910190602001808311610f83575050505050815260200160088201548152602001600982015481525050905090565b600154604080517f10fe9ae8000000000000000000000000000000000000000000000000000000008152905160009273ffffffffffffffffffffffffffffffffffffffff16916310fe9ae891600480830192602092919082900301818787803b15801561102557600080fd5b505af1158015611039573d6000803e3d6000fd5b505050506040513d601f19601f8201168201806040525061105d919081019061299e565b6040517f734e4a1600000000000000000000000000000000000000000000000000000000815290915073__LibTournamentEntrantMethods___________9063734e4a16906110b690600d90601290869060040161330a565b60006040518083038186803b1580156110ce57600080fd5b505af41580156110e2573d6000803e3d6000fd5b5050505050565b336000908152600e602052604090205460ff16151561110757600080fd5b600d546040517f5fbb3d346317d5ecdb86412d4c69c7503ff4dbed1eccd4cb6290453ea0b1a3229161115f917fffffffffffffffffffffffffffffffffffffffffffffffffffffffffffffffff9091019084906133d6565b60405180910390a150565b73ffffffffffffffffffffffffffffffffffffffff1660009081526016602052604090205460ff1690565b3360009081526016602052604081205460ff168015156111b457600080fd5b600160009054906101000a900473ffffffffffffffffffffffffffffffffffffffff1673ffffffffffffffffffffffffffffffffffffffff166310fe9ae86040518163ffffffff167c0100000000000000000000000000000000000000000000000000000000028152600401602060405180830381600087803b15801561123a57600080fd5b505af115801561124e573d6000803e3d6000fd5b505050506040513d601f19601f82011682018060405250611272919081019061299e565b6040517fddc23bd000000000000000000000000000000000000000000000000000000000815290925073__LibTournamentEntrantMethods___________9063ddc23bd09061076e90600d90601290879060040161330a565b6000805473ffffffffffffffffffffffffffffffffffffffff1633146112f057600080fd5b600160009054906101000a900473ffffffffffffffffffffffffffffffffffffffff1673ffffffffffffffffffffffffffffffffffffffff166310fe9ae86040518163ffffffff167c0100000000000000000000000000000000000000000000000000000000028152600401602060405180830381600087803b15801561137657600080fd5b505af115801561138a573d6000803e3d6000fd5b505050506040513d601f19601f820116820180604052506113ae919081019061299e565b6001546040517fd06b592400000000000000000000000000000000000000000000000000000000815291925073__LibTournamentAdminMethods_____________9163d06b59249161142291600d9173ffffffffffffffffffffffffffffffffffffffff16908690899089906004016132b6565b60006040518083038186803b15801561143a57600080fd5b505af415801561144e573d6000803e3d6000fd5b50505050505050565b336000908152600e602052604081205460ff16151561147557600080fd5b61147f8383612299565b9392505050565b6060600d600001805480602002602001604051908101604052809291908181526020018280548015610c7257602002820191906000526020600020905b815473ffffffffffffffffffffffffffffffffffffffff1681526001909101906020018083116114c3575050505050905090565b60135490565b60025473ffffffffffffffffffffffffffffffffffffffff1681565b60035490565b61152761242d565b60408051808201918290526009805482529091600290600a60208501808311610c5d575050505050905090565b60005473ffffffffffffffffffffffffffffffffffffffff1690565b60175490565b60008073__LibTournamentStateManagement__________630386922b600d6040518263ffffffff167c01000000000000000000000000000000000000000000000000000000000281526004016115cd9190613224565b604080518083038186803b1580156115e457600080fd5b505af41580156115f8573d6000803e3d6000fd5b505050506040513d601f19601f8201168201806040525061161c9190810190612b4e565b915091509091565b73ffffffffffffffffffffffffffffffffffffffff166000908152600e602052604090205460ff1690565b60005473ffffffffffffffffffffffffffffffffffffffff1681565b6000805473ffffffffffffffffffffffffffffffffffffffff16331461169057600080fd5b600160009054906101000a900473ffffffffffffffffffffffffffffffffffffffff1673ffffffffffffffffffffffffffffffffffffffff166310fe9ae86040518163ffffffff167c0100000000000000000000000000000000000000000000000000000000028152600401602060405180830381600087803b15801561171657600080fd5b505af115801561172a573d6000803e3d6000fd5b505050506040513d601f19601f8201168201806040525061174e919081019061299e565b6001546040517fa91d59d600000000000000000000000000000000000000000000000000000000815291925073__LibTournamentAdminMethods_____________9163a91d59d6916110b691600d9173ffffffffffffffffffffffffffffffffffffffff16908690600401613232565b60015460009073ffffffffffffffffffffffffffffffffffffffff1633146117e557600080fd5b73ffffffffffffffffffffffffffffffffffffffff80831660009081526015602090815260408083209387168352929052205460ff16151561182657600080fd5b60135461183a90600163ffffffff61227816565b60135573ffffffffffffffffffffffffffffffffffffffff8083166000908152601460209081526040808320601583528184209488168452939091529020600101548154811061188657fe5b6000918252602080832090910180547fffffffffffffffffffffffff000000000000000000000000000000000000000016905573ffffffffffffffffffffffffffffffffffffffff848116835260158252604080842091871684529152812080547fffffffffffffffffffffffffffffffffffffffffffffffffffffffffffffff00168155600190810191909155905092915050565b6000803073ffffffffffffffffffffffffffffffffffffffff16631865c57d6040518163ffffffff167c0100000000000000000000000000000000000000000000000000000000028152600401602060405180830381600087803b15801561198357600080fd5b505af1158015611997573d6000803e3d6000fd5b505050506040513d601f19601f820116820180604052506119bb9190810190612b30565b91508115806119ca5750600282145b806119d55750600182145b15156119e057600080fd5b600160009054906101000a900473ffffffffffffffffffffffffffffffffffffffff1673ffffffffffffffffffffffffffffffffffffffff166310fe9ae86040518163ffffffff167c0100000000000000000000000000000000000000000000000000000000028152600401602060405180830381600087803b158015611a6657600080fd5b505af1158015611a7a573d6000803e3d6000fd5b505050506040513d601f19601f82011682018060405250611a9e919081019061299e565b6040517f23b872dd00000000000000000000000000000000000000000000000000000000815290915073ffffffffffffffffffffffffffffffffffffffff8216906323b872dd90610bde90339030908890600401613187565b60005473ffffffffffffffffffffffffffffffffffffffff163314611b1b57600080fd5b6040517faf41094900000000000000000000000000000000000000000000000000000000815273__LibTournamentAdminMethods_____________9063af41094990611b6c90600d90600401613224565b60006040518083038186803b158015611b8457600080fd5b505af4158015611b98573d6000803e3d6000fd5b50505050565b60005473ffffffffffffffffffffffffffffffffffffffff163314611bc257600080fd5b6001546040517fb43475ff00000000000000000000000000000000000000000000000000000000815273__LibTournamentAdminMethods_____________9163b43475ff916110b691600391869173ffffffffffffffffffffffffffffffffffffffff1690600401613377565b60015473ffffffffffffffffffffffffffffffffffffffff1681565b336000908152601460209081526040918290208054835181840281018401909452808452606093849390929190830182828015611cbe57602002820191906000526020600020905b815473ffffffffffffffffffffffffffffffffffffffff168152600190910190602001808311611c93575b50939695505050505050565b600c5490565b60005473ffffffffffffffffffffffffffffffffffffffff163314611cf457600080fd5b73ffffffffffffffffffffffffffffffffffffffff81161515611d1657600080fd5b600080547fffffffffffffffffffffffff00000000000000000000000000000000000000001673ffffffffffffffffffffffffffffffffffffffff92909216919091179055565b600080600160009054906101000a900473ffffffffffffffffffffffffffffffffffffffff1673ffffffffffffffffffffffffffffffffffffffff166310fe9ae86040518163ffffffff167c0100000000000000000000000000000000000000000000000000000000028152600401602060405180830381600087803b158015611de657600080fd5b505af1158015611dfa573d6000803e3d6000fd5b505050506040513d601f19601f82011682018060405250611e1e919081019061299e565b601054600f546040517f70a082310000000000000000000000000000000000000000000000000000000081529293506109c692611e82919073ffffffffffffffffffffffffffffffffffffffff8616906370a0823190610968903090600401613143565b9063ffffffff61228a16565b336000908152601660205260408120548190819060ff16801515611eb157600080fd5b6001546040517f532311c4000000000000000000000000000000000000000000000000000000008152339173ffffffffffffffffffffffffffffffffffffffff1690819063532311c490611f09908590600401613143565b602060405180830381600087803b158015611f2357600080fd5b505af1158015611f37573d6000803e3d6000fd5b505050506040513d601f19601f82011682018060405250611f5b91908101906129f6565b1515611f6657600080fd5b6000611f70611576565b9150600190508173ffffffffffffffffffffffffffffffffffffffff16631865c57d6040518163ffffffff167c0100000000000000000000000000000000000000000000000000000000028152600401602060405180830381600087803b158015611fda57600080fd5b505af1158015611fee573d6000803e3d6000fd5b505050506040513d601f19601f820116820180604052506120129190810190612b30565b141561201d57600080fd5b60026120276109cc565b1461203157600080fd5b6040517f0386922b00000000000000000000000000000000000000000000000000000000815273__LibTournamentStateManagement__________90630386922b9061208290600d90600401613224565b604080518083038186803b15801561209957600080fd5b505af41580156120ad573d6000803e3d6000fd5b505050506040513d601f19601f820116820180604052506120d19190810190612b4e565b6001546040517f09d1ebd000000000000000000000000000000000000000000000000000000000815291985073__LibTournamentEntrantMethods___________92506309d1ebd0916121449173ffffffffffffffffffffffffffffffffffffffff16908a906012908f90600401613151565b60206040518083038186803b15801561215c57600080fd5b505af4158015612170573d6000803e3d6000fd5b505050506040513d601f19601f82011682018060405250612194919081019061299e565b8851519095501515806121ab575060408801515115155b15612235576040517f0a181f5200000000000000000000000000000000000000000000000000000000815273ffffffffffffffffffffffffffffffffffffffff861690630a181f5290612202908b90600401613213565b600060405180830381600087803b15801561221c57600080fd5b505af1158015612230573d6000803e3d6000fd5b505050505b5092979650505050505050565b61224a612492565b6040805160608101918290526004805482529091600390600560208501808311610c5d575050505050905090565b60008282111561228457fe5b50900390565b60008282018381101561147f57fe5b600080600160009054906101000a900473ffffffffffffffffffffffffffffffffffffffff1673ffffffffffffffffffffffffffffffffffffffff166310fe9ae86040518163ffffffff167c0100000000000000000000000000000000000000000000000000000000028152600401602060405180830381600087803b15801561232257600080fd5b505af1158015612336573d6000803e3d6000fd5b505050506040513d601f19601f8201168201806040525061235a919081019061299e565b6001546002546040517fcfa037dc00000000000000000000000000000000000000000000000000000000815292935073__LibTournamentAdminMethods_____________9263cfa037dc926123d592600d9273ffffffffffffffffffffffffffffffffffffffff92831692889216908b908b9060040161325a565b60206040518083038186803b1580156123ed57600080fd5b505af4158015612401573d6000803e3d6000fd5b505050506040513d601f19601f82011682018060405250612425919081019061299e565b949350505050565b60408051808201825290600290829080388339509192915050565b6040805161014081019091526000815260208101612464612492565b815260200161247161242d565b815260200161247e61242d565b815260200160008152602001600081525090565b6060604051908101604052806003906020820280388339509192915050565b600061147f8235613470565b600061147f8251613470565b6000601f820183136124da57600080fd5b81356124ed6124e882613418565b6133f1565b9150818183526020840193506020810190508385602084028201111561251257600080fd5b60005b8381101561253e578161252888826124b1565b8452506020928301929190910190600101612515565b5050505092915050565b6000601f8201831361255957600080fd5b60026125676124e882613439565b9150818385602084028201111561257d57600080fd5b60005b8381101561253e57816125938882612692565b8452506020928301929190910190600101612580565b6000601f820183136125ba57600080fd5b60036125c86124e882613439565b915081838560208402820111156125de57600080fd5b60005b8381101561253e57816125f48882612692565b84525060209283019291909101906001016125e1565b6000601f8201831361261b57600080fd5b81356126296124e882613418565b9150818183526020840193506020810190508385602084028201111561264e57600080fd5b60005b8381101561253e57816126648882612692565b8452506020928301929190910190600101612651565b600061147f8235613489565b600061147f8251613489565b600061147f823561345d565b6000606082840312156126b057600080fd5b6126ba60606133f1565b9050813567ffffffffffffffff8111156126d357600080fd5b6126df848285016124c9565b825250602082013567ffffffffffffffff8111156126fc57600080fd5b6127088482850161260a565b602083015250604082013567ffffffffffffffff81111561272857600080fd5b612734848285016124c9565b60408301525092915050565b600060a0828403121561275257600080fd5b61275c60a06133f1565b9050600061276a8484612692565b825250602061277b84848301612692565b602083015250604061278f84828501612692565b60408301525060606127a384828501612692565b60608301525060806127b78482850161267a565b60808301525092915050565b6000608082840312156127d557600080fd5b6127df60806133f1565b9050813567ffffffffffffffff8111156127f857600080fd5b612804848285016124c9565b825250602082013567ffffffffffffffff81111561282157600080fd5b61282d8482850161260a565b602083015250604061284184828501612692565b604083015250606061285584828501612692565b60608301525092915050565b6000610120828403121561287457600080fd5b61287e60a06133f1565b9050600061288c84846125a9565b825250606061289d84848301612548565b60208301525060a06128b184828501612548565b60408301525060e06128c584828501612692565b6060830152506101006127b784828501612692565b600061014082840312156128ed57600080fd5b6128f760c06133f1565b905060006129058484612692565b8252506020612916848483016125a9565b602083015250608061292a84828501612548565b60408301525060c061293e84828501612548565b60608301525061010061295384828501612692565b6080830152506101206129688482850161267a565b60a08301525092915050565b600061147f825161345d565b60006020828403121561299257600080fd5b600061242584846124b1565b6000602082840312156129b057600080fd5b600061242584846124bd565b600080604083850312156129cf57600080fd5b60006129db85856124b1565b92505060206129ec858286016124b1565b9150509250929050565b600060208284031215612a0857600080fd5b60006124258484612686565b600060a08284031215612a2657600080fd5b60006124258484612740565b60008060c08385031215612a4557600080fd5b6000612a518585612740565b92505060a06129ec8582860161267a565b60008060c08385031215612a7557600080fd5b823567ffffffffffffffff811115612a8c57600080fd5b612a98858286016127c3565b92505060206129ec85828601612740565b6000806101408385031215612abd57600080fd5b6000612ac98585612861565b92505061012083013567ffffffffffffffff811115612ae757600080fd5b6129ec8582860161269e565b60006101408284031215612b0657600080fd5b600061242584846128da565b600060208284031215612b2457600080fd5b60006124258484612692565b600060208284031215612b4257600080fd5b60006124258484612974565b60008060408385031215612b6157600080fd5b6000612b6d8585612974565b92505060206129ec858286016124bd565b60008060408385031215612b9157600080fd5b6000612b9d8585612692565b92505060206129ec85828601612692565b612bb781613470565b82525050565b6000612bc882613460565b808452602084019350612bda83613457565b60005b82811015612c0a57612bf0868351612bae565b612bf982613457565b602096909601959150600101612bdd565b5093949350505050565b6000612c1f82613460565b808452602084019350612c3183613457565b60005b82811015612c0a57612c47868351612bae565b612c5082613457565b602096909601959150600101612c34565b6000612c6c82613460565b808452602084019350612c7e83613457565b60005b82811015612c0a57612c94868351612bae565b612c9d82613457565b602096909601959150600101612c81565b612cb781613464565b612cc08261345d565b60005b828110156110e257612cd6858351612edd565b612cdf82613457565b602095909501949150600101612cc3565b612cf981613464565b612d028261345d565b60005b828110156110e257612d18858351612edd565b612d2182613457565b602095909501949150600101612d05565b612d3b81613464565b612d448261345d565b60005b828110156110e257612d5a858351612edd565b612d6382613457565b602095909501949150600101612d47565b612d7d8161346a565b612d868261345d565b60005b828110156110e257612d9c858351612edd565b612da582613457565b602095909501949150600101612d89565b612dbf8161346a565b612dc88261345d565b60005b828110156110e257612dde858351612edd565b612de782613457565b602095909501949150600101612dcb565b612e018161346a565b612e0a8261345d565b60005b828110156110e257612e20858351612edd565b612e2982613457565b602095909501949150600101612e0d565b6000612e4582613460565b808452602084019350612e5783613457565b60005b82811015612c0a57612e6d868351612edd565b612e7682613457565b602096909601959150600101612e5a565b6000612e9282613460565b808452602084019350612ea483613457565b60005b82811015612c0a57612eba868351612edd565b612ec382613457565b602096909601959150600101612ea7565b612bb781613489565b612bb78161345d565b8051606080845260009190840190612efe8282612c14565b91505060208301518482036020860152612f188282612e3a565b91505060408301518482036040860152612f328282612c14565b95945050505050565b9052565b805160a0830190612f508482612edd565b506020820151612f636020850182612edd565b506040820151612f766040850182612edd565b506060820151612f896060850182612edd565b506080820151611b986080850182612ed4565b8051608080845260009190840190612fb48282612c61565b91505060208301518482036020860152612fce8282612e87565b9150506040830151612fe36040860182612edd565b506060830151612ff66060860182612edd565b509392505050565b80516101208301906130108482612df8565b5060208201516130236060850182612d32565b50604082015161303660a0850182612d32565b50606082015161304960e0850182612edd565b506080820151611b98610100850182612edd565b805161014083019061306f8482612edd565b5060208201516130826020850182612db6565b5060408201516130956080850182612cf0565b5060608201516130a860c0850182612cf0565b5060808201516130bc610100850182612edd565b5060a0820151611b98610120850182612edd565b80516101408301906130e28482612edd565b5060208201516130f56020850182612df8565b5060408201516131086080850182612d32565b50606082015161311b60c0850182612d32565b50608082015161312f610100850182612edd565b5060a0820151611b98610120850182612ed4565b60208101610d608284612bae565b61018081016131608287612bae565b61316d6020830186612bae565b61317a6040830185612f3b565b612f326060830184612ffe565b606081016131958286612bae565b6131a26020830185612bae565b6124256040830184612edd565b604081016131bd8285612bae565b61147f6020830184612edd565b6020808252810161147f8184612bbd565b60408101610d608284612cae565b60608101610d608284612d74565b60208101610d608284612ed4565b60208101610d608284612edd565b6020808252810161147f8184612ee6565b60208101610d608284612f3b565b606081016132408286612f3b565b61324d6020830185612bae565b6124256040830184612bae565b61014081016132698289612f3b565b6132766020830188612bae565b6132836040830187612bae565b6132906060830186612bae565b61329d6080830185612f3f565b6132ab610120830184612ed4565b979650505050505050565b61012081016132c58288612f3b565b6132d26020830187612bae565b6132df6040830186612bae565b81810360608301526132f18185612f9c565b90506133006080830184612f3f565b9695505050505050565b606081016133188286612f3b565b61324d6020830185612f3b565b60e081016133338286612f3b565b6133406020830185612f3f565b61242560c0830184612bae565b6060810161335b8286612f3b565b61324d6020830185612edd565b6101408101610d60828461305d565b61018081016133868286612f3b565b61339360208301856130d0565b612425610160830184612bae565b608081016133af8287612f3b565b6133bc6020830186612f3b565b6133c96040830185612f3b565b612f326060830184612bae565b604081016133e48285612edd565b61147f6020830184612bae565b60405181810167ffffffffffffffff8111828210171561341057600080fd5b604052919050565b600067ffffffffffffffff82111561342f57600080fd5b5060209081020190565b600067ffffffffffffffff82111561345057600080fd5b5060200290565b60200190565b90565b5190565b50600290565b50600390565b73ffffffffffffffffffffffffffffffffffffffff1690565b1515905600a265627a7a72305820b142e112e347928b5ef2d6bcbb34b7dd63f361a1198c5b0881569d8c3151c8bd6c6578706572696d656e74616cf50037",
  "source": "pragma solidity ^0.4.18;\npragma experimental ABIEncoderV2;\n\nimport \"../libraries/strings/strings.sol\";\nimport \"../libraries/math/SafeMath.sol\";\nimport \"../libraries/LibConstruction.sol\";\n//import \"../libraries/interfaces/tournament/iLibTournamentStateManagement.sol\";\nimport \"../libraries/tournament/LibTournamentStateManagement.sol\";\nimport \"../libraries/tournament/LibTournamentAdminMethods.sol\";\nimport \"../libraries/tournament/LibTournamentEntrantMethods.sol\";\nimport \"../libraries/LibEnums.sol\";\nimport \"../interfaces/IMatryxPlatform.sol\";\nimport \"../interfaces/IMatryxTournament.sol\";\nimport \"../interfaces/IMatryxSubmission.sol\";\nimport \"../interfaces/factories/IMatryxRoundFactory.sol\";\nimport \"../interfaces/IMatryxRound.sol\";\nimport \"../interfaces/IMatryxToken.sol\";\nimport \"./Ownable.sol\";\n\n/// @title Tournament - The Matryx tournament.\n/// @author Max Howard - <max@nanome.ai>, Sam Hessenauer - <sam@nanome.ai>\ncontract MatryxTournament is Ownable, IMatryxTournament {\n    using SafeMath for uint256;\n    using strings for *;\n    using LibTournamentAdminMethods for LibConstruction.TournamentData;\n\n    // TODO: condense and put in structs\n    // Platform identification\n    address public platformAddress;\n    address public matryxRoundFactoryAddress;\n\n    // TODO: Create setter for this (resume here for upgrade system.)\n    // address public libTournamentStateManagement;\n\n    //Tournament identification\n    LibConstruction.TournamentData data;\n    LibTournamentStateManagement.StateData stateData;\n    // Submission tracking\n    LibTournamentStateManagement.EntryData entryData;\n\n    // address roundDelegate;\n    // bytes4 fnSelector_chooseWinner = bytes4(keccak256(\"chooseWinner(address)\"));\n    // bytes4 fnSelector_createRound = bytes4(keccak256(\"createRound(uint256)\"));\n    // bytes4 fnSelector_startRound = bytes4(keccak256(\"startRound(uint256)\"));\n\n    constructor(address _owner, address _platformAddress, address _matryxRoundFactoryAddress, LibConstruction.TournamentData tournamentData, LibConstruction.RoundData roundData)\n    {\n        //Clean inputs\n        require(_owner != 0x0);\n        require(tournamentData.title[0] != 0x0);\n        require(tournamentData.initialBounty > 0);\n        require(_matryxRoundFactoryAddress != 0x0);\n\n        platformAddress = _platformAddress;\n        matryxRoundFactoryAddress = _matryxRoundFactoryAddress;\n\n        // Identification\n        owner = _owner;\n        data = tournamentData;\n\n        _createRound(roundData, false);\n        // roundDelegate = IMatryxPlatform(platformAddress).getRoundLibAddress();\n    }\n\n    /*\n     * Structs\n     */\n\n    struct uint256_optional\n    {\n        bool exists;\n        uint256 value;\n    }\n\n    struct SubmissionLocation\n    {\n        uint256 roundIndex;\n        uint256 submissionIndex;\n    }\n\n    /*\n     * Events\n     */\n\n    event NewRound(uint256 _startTime, uint256 _endTime, uint256 _reviewPeriodDuration, address _roundAddress, uint256 _roundNumber);\n    //event RoundStarted(uint256 _roundIndex);\n    // Fired at the end of every round, one time per submission created in that round\n    event SubmissionCreated(uint256 _roundIndex, address _submissionAddress);\n    event RoundWinnersChosen(address[] _submissionAddresses);\n\n    /// @dev Allows rounds to invoke SubmissionCreated events on this tournament.\n    /// @param _submissionAddress Address of the submission.\n    function invokeSubmissionCreatedEvent(address _submissionAddress) public onlyRound\n    {\n        emit SubmissionCreated(stateData.rounds.length-1, _submissionAddress);\n    }\n\n    /*\n     * Modifiers\n     */\n\n    /// @dev Requires the function caller to be the platform.\n    modifier onlyPlatform() {\n        require(msg.sender == platformAddress);\n        _;\n    }\n\n    modifier onlyRound() {\n        require(stateData.isRound[msg.sender]);\n        _;\n    }\n\n    // modifier onlySubmission(address _submissionAddress, address _author)\n    // {\n    //     // If the submission does not exist,\n    //     // the address of the submission we return will not be msg.sender\n    //     // It will either be\n    //     // 1) The first submission, or\n    //     // 2) all 0s from having deleted it previously.\n    //     uint256 indexOfSubmission = entrantToSubmissionToSubmissionIndex[_author][_submissionAddress].value;\n    //     address submissionAddress = entrantToSubmissions[_author][indexOfSubmission];\n    //     require(_submissionAddress == msg.sender);\n    //     _;\n    // }\n\n    modifier onlyPeerLinked(address _sender) {\n        IMatryxPlatform platform = IMatryxPlatform(platformAddress);\n        require(platform.hasPeer(_sender));\n        _;\n    }\n\n    /// @dev Requires the function caller to be an entrant.\n    modifier onlyEntrant()\n    {\n        bool senderIsEntrant = entryData.addressToEntryFeePaid[msg.sender].exists;\n        require(senderIsEntrant);\n        _;\n    }\n\n    modifier whileTournamentOpen()\n    {\n        require(getState() == uint256(LibEnums.TournamentState.Open));\n        _;\n    }\n\n    modifier ifRoundHasFunds()\n    {\n        address currentRoundAddress;\n\n        (,currentRoundAddress) = currentRound();\n        require(IMatryxRound(currentRoundAddress).getState() != uint256(LibEnums.RoundState.Unfunded));\n        _;\n    }\n\n    modifier onlyOwner()\n    {\n        require(msg.sender == owner);\n        _;\n    }\n\n    // /// @dev Requires the tournament to be open.\n    // modifier duringReviewPeriod()\n    // {\n    //     // TODO: Finish me!\n    //     require(isInReview());\n    //     _;\n    // }\n\n    // TODO: Use MatryxToken\n    // modifier whileBountyLeft(uint256 _nextRoundBounty)\n    // {\n    //     require(BountyLeft.sub(_nextRoundBounty) >= 0);\n    //     _;\n    // }\n\n    /*\n    * State Maintenance Methods\n    */\n\n    function removeSubmission(address _submissionAddress, address _author) public onlyPlatform returns (bool)\n    {\n        require(entryData.entrantToSubmissionToSubmissionIndex[_author][_submissionAddress].exists);\n        entryData.numberOfSubmissions = entryData.numberOfSubmissions.sub(1);\n        delete entryData.entrantToSubmissions[_author][entryData.entrantToSubmissionToSubmissionIndex[_author][_submissionAddress].value];\n        delete entryData.entrantToSubmissionToSubmissionIndex[_author][_submissionAddress];\n        return true;\n    }\n\n    /*\n     * Access Control Methods\n     */\n\n    /// @dev Returns whether or not the sender is an entrant in this tournament\n    /// @param _sender Explicit sender address.\n    /// @return Whether or not the sender is an entrant in this tournament.\n    function isEntrant(address _sender) public view returns (bool)\n    {\n        return entryData.addressToEntryFeePaid[_sender].exists;\n    }\n\n    /// @dev Returns the state of the tournament. One of:\n    /// NotYetOpen, Open, Closed, Abandoned\n    function getState() public view returns (uint256)\n    {\n        return LibTournamentStateManagement.getState(stateData);\n    }\n\n    /*\n     * Getter Methods\n     */\n\n    function getPlatform() public view returns (address _platformAddress)\n    {\n        return platformAddress;\n    }\n\n    function getTokenAddress() public view returns (address _matryxTokenAddress)\n    {\n        return IMatryxPlatform(platformAddress).getTokenAddress();\n    }\n\n    function getData() public view returns (LibConstruction.TournamentData _data)\n    {\n        return data;\n    }\n\n    /// @dev Returns bool indicating whether _address corresponds to an existing round or not\n    function isRound(address _roundAddress) public view returns (bool _isRound)\n    {\n        return stateData.isRound[_roundAddress];\n    }\n\n    /// @dev Returns list of round addresses in the tournament\n    function getRounds() public view returns (address[] _rounds)\n    {\n        return stateData.rounds;\n    }\n\n    function getCategory() public view returns (bytes32 _category)\n    {\n        return data.category;\n    }\n\n    function getTitle() public view returns (bytes32[3] _title)\n    {\n        return data.title;\n    }\n\n    // @dev Returns the external address of the tournament.\n    // @return _descriptionHash Off-chain content hash of tournament details (ipfs hash)\n    function getDescriptionHash() public view returns (bytes32[2] _descriptionHash)\n    {\n        return data.descriptionHash;\n    }\n\n    function getFileHash() public view returns (bytes32[2] _fileHash)\n    {\n        return data.fileHash;\n    }\n\n    /// @dev Returns the current round number.\n    /// @return _currentRound Number of the current round.\n    function currentRound() public view returns (uint256 _currentRound, address _currentRoundAddress)\n    {\n        return LibTournamentStateManagement.currentRound(stateData);\n    }\n\n    ///@dev Returns this tournament's bounty.\n    function getBounty() public view returns (uint256 _tournamentBounty)\n    {\n        IMatryxToken token = IMatryxToken(IMatryxPlatform(platformAddress).getTokenAddress());\n        return token.balanceOf(address(this)).sub(stateData.entryFeesTotal).add(stateData.roundBountyAllocation);\n    }\n\n    // @dev Returns the remaining bounty this tournament is able to award.\n    function getBalance() public view returns (uint256 _tournamentBalance)\n    {\n        IMatryxToken token = IMatryxToken(IMatryxPlatform(platformAddress).getTokenAddress());\n        return token.balanceOf(address(this)).sub(stateData.entryFeesTotal);\n    }\n\n    /// @dev Returns the fee in MTX to be payed by a prospective entrant.\n    /// @return Entry fee for this tournament.\n    function getEntryFee() public view returns (uint256)\n    {\n        return data.entryFee;\n    }\n\n    /// @dev Returns all of the sender's submissions to this tournament.\n    /// @return (_roundIndices[], _submissionIndices[]) Locations of the sender's submissions.\n    function mySubmissions() public view returns (address[])\n    {\n        address[] memory _mySubmissions = entryData.entrantToSubmissions[msg.sender];\n        return _mySubmissions;\n    }\n\n    /// @dev Returns the number of submissions made to this tournament.\n    /// @return _submissionCount Number of submissions made to this tournament.\n    function submissionCount() public view returns (uint256 _submissionCount)\n    {\n        return entryData.numberOfSubmissions;\n    }\n\n    function entrantCount() public view returns (uint256 _entrantCount)\n    {\n        return entryData.numberOfEntrants;\n    }\n\n    /*\n     * Setter Methods\n     */\n\n    function update(LibConstruction.TournamentModificationData tournamentData) public onlyOwner\n    {\n        data.update(tournamentData, platformAddress);\n    }\n\n    /// @dev Add additional funds to the tournament\n    function addFunds(uint256 _fundsToAdd) public\n    {\n        uint256 tournamentState = this.getState();\n        require(\n            tournamentState == uint256(LibEnums.TournamentState.NotYetOpen) ||\n            tournamentState == uint256(LibEnums.TournamentState.Open) ||\n            tournamentState == uint256(LibEnums.TournamentState.OnHold));\n\n        address matryxTokenAddress = IMatryxPlatform(platformAddress).getTokenAddress();\n        require(IMatryxToken(matryxTokenAddress).transferFrom(msg.sender, address(this), _fundsToAdd));\n    }\n\n    /*\n     * Tournament Admin Methods\n     */\n\n    /// @dev Chooses the winner(s) of the current round. If this is the last round,\n    //       this method will also close the tournament.\n    /// @param _selectWinnersData Struct containing winning submission information including:\n    ///        winningSubmissions: Winning submission addresses\n    ///        rewardDistribution: Distribution indicating how to split the reward among the submissions\n    ///        selectWinnerAction: SelectWinnerAction (DoNothing, StartNextRound, CloseTournament) indicating what to do after winner selection\n    ///        rewardDistributionTotal: (Unused)\n    /// @param _roundData Struct containing data for the next round including:\n    ///   start: Start time (seconds since unix-epoch) for next round\n    ///   end: End time (seconds since unix-epoch) for next round\n    ///   reviewPeriodDuration: Number of seconds to allow for winning submissions to be selected in next round\n    ///   bounty: Bounty in MTX for next round\n    ///   closed: (Unused)\n    function selectWinners(LibRound.SelectWinnersData _selectWinnersData, LibConstruction.RoundData _roundData) public onlyOwner\n    {\n        address matryxTokenAddress = IMatryxPlatform(platformAddress).getTokenAddress();\n        LibTournamentAdminMethods.selectWinners(stateData, platformAddress, matryxTokenAddress, _selectWinnersData, _roundData);\n    }\n\n    /// @dev modifies the future \"Ghost\" Round Information\n    function editGhostRound(LibConstruction.RoundData _roundData) public onlyOwner\n    {\n        address matryxTokenAddress = IMatryxPlatform(platformAddress).getTokenAddress();\n        LibTournamentAdminMethods.editGhostRound(stateData, _roundData, matryxTokenAddress);\n    }\n\n    ///@dev Allocates some of this tournament's balance to the current round\n    function allocateMoreToRound(uint256 _mtxAllocation) public onlyOwner\n    {\n        address matryxTokenAddress = IMatryxPlatform(platformAddress).getTokenAddress();\n        LibTournamentAdminMethods.allocateMoreToRound(stateData, _mtxAllocation, matryxTokenAddress);\n    }\n\n    /// @dev This function should be called after the user selects winners for their tournament and chooses the \"DoNothing\" option\n    function jumpToNextRound() public onlyOwner\n    {\n        LibTournamentAdminMethods.jumpToNextRound(stateData);\n    }\n\n    /// @dev This function closes the tournament after the tournament owner selects their winners with the \"DoNothing\" option\n    function stopTournament() public onlyOwner\n    {\n        address matryxTokenAddress = IMatryxPlatform(platformAddress).getTokenAddress();\n        LibTournamentAdminMethods.stopTournament(stateData, platformAddress, matryxTokenAddress);\n    }\n\n    /// @dev Creates a new round.\n    /// @return The new round's address.\n    function createRound(LibConstruction.RoundData roundData, bool _automaticCreation) public onlyRound returns (address _roundAddress)\n    {\n        return _createRound(roundData, _automaticCreation);\n    }\n\n    function _createRound(LibConstruction.RoundData roundData, bool _automaticCreation) private returns (address _roundAddress)\n    {\n        address matryxTokenAddress = IMatryxPlatform(platformAddress).getTokenAddress();\n        return LibTournamentAdminMethods.createRound(stateData, platformAddress, matryxTokenAddress, matryxRoundFactoryAddress, roundData, _automaticCreation);\n    }\n\n    function sendBountyToRound(uint256 _roundIndex, uint256 _bountyMTX) public onlyPlatform\n    {\n        stateData.roundBountyAllocation = stateData.roundBountyAllocation.add(_bountyMTX);\n        IMatryxToken token = IMatryxToken(IMatryxPlatform(platformAddress).getTokenAddress());\n        require(token.transfer(stateData.rounds[_roundIndex], _bountyMTX));\n    }\n\n    /*\n     * Entrant Methods\n     */\n\n    // LibTournamentEntrantMethods\n    /// @dev Enters the user into the tournament.\n    /// @param _entrantAddress Address of the user to enter.\n    /// @return success Whether or not the user was entered successfully.\n    function enterUserInTournament(address _entrantAddress) public onlyPlatform whileTournamentOpen returns (bool _success)\n    {\n        return LibTournamentEntrantMethods.enterUserInTournament(data, stateData, entryData, _entrantAddress);\n    }\n\n    function collectMyEntryFee() public\n    {\n        address matryxTokenAddress = IMatryxPlatform(platformAddress).getTokenAddress();\n        LibTournamentEntrantMethods.collectMyEntryFee(stateData, entryData, matryxTokenAddress);\n    }\n\n    function createSubmission(LibConstruction.SubmissionData submissionData, LibConstruction.ContributorsAndReferences contribsAndRefs) public onlyEntrant onlyPeerLinked(msg.sender) ifRoundHasFunds whileTournamentOpen returns (address _submissionAddress)\n    {\n        address currentRoundAddress;\n        (, currentRoundAddress) = LibTournamentStateManagement.currentRound(stateData);\n        address newSubmission = LibTournamentEntrantMethods.createSubmission(platformAddress, currentRoundAddress, entryData, submissionData);\n\n        if (contribsAndRefs.contributors.length != 0 || contribsAndRefs.references.length != 0)\n        {\n            IMatryxSubmission(newSubmission).setContributorsAndReferences(contribsAndRefs);\n        }\n        // Send out reference requests to the authors of other submissions\n        // IMatryxPlatform(platformAddress).handleReferenceRequestsForSubmission(newSubmission, contribsAndRefs.references);\n\n        return newSubmission;\n    }\n\n    function withdrawFromAbandoned() public onlyEntrant\n    {\n        address matryxTokenAddress = IMatryxPlatform(platformAddress).getTokenAddress();\n        LibTournamentEntrantMethods.withdrawFromAbandoned(stateData, entryData, matryxTokenAddress);\n    }\n}\n",
  "sourcePath": "/Users/maxhoward/Desktop/Ethereum/MatryxPlatform/contracts/MatryxTournament.sol",
  "compiler": {
    "name": "solc",
    "version": "0.4.24+commit.e67f0147.Emscripten.clang"
  },
  "schemaVersion": "2.0.1",
  "updatedAt": "2018-08-10T16:15:12.981Z"
}