{
  "contractName": "MatryxOracle",
  "abi": [
    {
      "constant": false,
      "inputs": [
        {
          "name": "_queryID",
          "type": "uint256"
        },
        {
          "name": "_response",
          "type": "bytes32"
        }
      ],
      "name": "storeQueryResponse",
      "outputs": [
        {
          "name": "success",
          "type": "bool"
        }
      ],
      "payable": false,
      "stateMutability": "nonpayable",
      "type": "function"
    },
    {
      "constant": true,
      "inputs": [],
      "name": "getDeployer",
      "outputs": [
        {
          "name": "_deployer",
          "type": "address"
        }
      ],
      "payable": false,
      "stateMutability": "view",
      "type": "function"
    },
    {
      "constant": false,
      "inputs": [
        {
          "name": "_query",
          "type": "bytes32"
        }
      ],
      "name": "Query",
      "outputs": [],
      "payable": false,
      "stateMutability": "nonpayable",
      "type": "function"
    },
    {
      "inputs": [],
      "payable": false,
      "stateMutability": "nonpayable",
      "type": "constructor"
    },
    {
      "anonymous": false,
      "inputs": [
        {
          "indexed": false,
          "name": "id",
          "type": "uint256"
        }
      ],
      "name": "QueryPerformed",
      "type": "event"
    }
  ],
  "bytecode": "0x6060604052341561000f57600080fd5b336000806101000a81548173ffffffffffffffffffffffffffffffffffffffff021916908373ffffffffffffffffffffffffffffffffffffffff16021790555061080f8061005e6000396000f300606060405260043610610057576000357c0100000000000000000000000000000000000000000000000000000000900463ffffffff16806308c4fc5f1461005c57806372630531146100a4578063a99fe225146100f9575b600080fd5b341561006757600080fd5b61008a600480803590602001909190803560001916906020019091905050610120565b604051808215151515815260200191505060405180910390f35b34156100af57600080fd5b6100b76101e3565b604051808273ffffffffffffffffffffffffffffffffffffffff1673ffffffffffffffffffffffffffffffffffffffff16815260200191505060405180910390f35b341561010457600080fd5b61011e60048080356000191690602001909190505061020c565b005b60008060009054906101000a900473ffffffffffffffffffffffffffffffffffffffff1673ffffffffffffffffffffffffffffffffffffffff163373ffffffffffffffffffffffffffffffffffffffff1614151561017d57600080fd5b600060010282600019161180156101ae57506000600102600360008581526020019081526020016000205460001916145b156101d85781600360008581526020019081526020016000208160001916905550600190506101dd565b600090505b92915050565b60008060009054906101000a900473ffffffffffffffffffffffffffffffffffffffff16905090565b6000806000600160003373ffffffffffffffffffffffffffffffffffffffff1673ffffffffffffffffffffffffffffffffffffffff16815260200190815260200160002060009054906101000a900473ffffffffffffffffffffffffffffffffffffffff1673ffffffffffffffffffffffffffffffffffffffff1611156102f457600160003373ffffffffffffffffffffffffffffffffffffffff1673ffffffffffffffffffffffffffffffffffffffff16815260200190815260200160002060009054906101000a900473ffffffffffffffffffffffffffffffffffffffff1691506103ca565b336102fd6104f4565b808273ffffffffffffffffffffffffffffffffffffffff1673ffffffffffffffffffffffffffffffffffffffff168152602001915050604051809103906000f080151561034957600080fd5b915081600160003373ffffffffffffffffffffffffffffffffffffffff1673ffffffffffffffffffffffffffffffffffffffff16815260200190815260200160002060006101000a81548173ffffffffffffffffffffffffffffffffffffffff021916908373ffffffffffffffffffffffffffffffffffffffff1602179055505b8173ffffffffffffffffffffffffffffffffffffffff1663a3b61a9c846000604051602001526040518263ffffffff167c0100000000000000000000000000000000000000000000000000000000028152600401808260001916600019168152602001915050602060405180830381600087803b151561044957600080fd5b6102c65a03f1151561045a57600080fd5b505050604051805190509050336002600083815260200190815260200160002060006101000a81548173ffffffffffffffffffffffffffffffffffffffff021916908373ffffffffffffffffffffffffffffffffffffffff1602179055507f77648a2d725d6999f4d35a96ca3dd3c9ad2507928023c5a58408022fca55a334816040518082815260200191505060405180910390a1505050565b6040516102df806105058339019056006060604052341561000f57600080fd5b6040516020806102df83398101604052808051906020019091905050336000806101000a81548173ffffffffffffffffffffffffffffffffffffffff021916908373ffffffffffffffffffffffffffffffffffffffff16021790555080600160006101000a81548173ffffffffffffffffffffffffffffffffffffffff021916908373ffffffffffffffffffffffffffffffffffffffff16021790555050610223806100bc6000396000f30060606040526004361061004c576000357c0100000000000000000000000000000000000000000000000000000000900463ffffffff16806341c0e1b514610051578063a3b61a9c14610066575b600080fd5b341561005c57600080fd5b6100646100a1565b005b341561007157600080fd5b61008b600480803560001916906020019091905050610115565b6040518082815260200191505060405180910390f35b6000809054906101000a900473ffffffffffffffffffffffffffffffffffffffff1673ffffffffffffffffffffffffffffffffffffffff163373ffffffffffffffffffffffffffffffffffffffff161415156100fc57600080fd5b3373ffffffffffffffffffffffffffffffffffffffff16ff5b60008060009054906101000a900473ffffffffffffffffffffffffffffffffffffffff1673ffffffffffffffffffffffffffffffffffffffff163373ffffffffffffffffffffffffffffffffffffffff1614151561017257600080fd5b434283336040518085815260200184815260200183600019166000191681526020018273ffffffffffffffffffffffffffffffffffffffff1673ffffffffffffffffffffffffffffffffffffffff166c0100000000000000000000000002815260140194505050505060405180910390206001900460028190555060025490509190505600a165627a7a72305820788d98f8f31a4f7ec0a187e6583782caedac3a71f523c6699320056593980e0f0029a165627a7a72305820f38afcd206cbadd1799babf03954e489e5345f21aea83cd65fb787d435e17c230029",
  "source": "pragma solidity ^0.4.18;\n\nimport \"./MatryxQueryResolver.sol\";\n\n// The actual part to be included in a client contract\ncontract MatryxOracle {\n\n  // The original deployer of this contract (A Matryx private chain.\n  // It is worth mentioning that neither this oracle nor this address \n  // will exist in the Mainnet version of Matryx. For now however,\n  // Alpha Matryx needs this address and this class to ensure the \n  // initial security of users MTX balances. Our sincere and humbled\n  // apologies. \n  address deployer;\n\n  // An event to let our node know that a new query has been performed.\n  event QueryPerformed(uint256 id);\n\n  // Map from user addresses to MatryxQueryResolvers. We assume each user only\n  // sends one query at a time.\n  mapping(address => MatryxQueryResolver) private queryResolvers;\n  // Map from user addresses (queriers) to QueryIDs. We assume each user only\n  // makes one query at a time.\n  mapping(uint256 => address) private queryIDForQuerier;\n  // Map from QueryIDs to responses (bytes32s. aka dynamically-sized byte arrays.)\n  mapping(uint256 => bytes32) internal queryResponses;\n\n  // Constructor for the Oracle (deployer specified for Alpha Matryx)\n  function MatryxOracle() public\n  {\n    deployer = msg.sender;\n  }\n\n  // Requires that the platform deployer (Nanome) is the sender\n  // This is used to verify that we're the only ones acting as an oracle.\n  modifier submitterIsPlatformDeployer()\n  {\n    require(msg.sender == deployer);\n    _;\n  }\n\n  function getDeployer() public view returns (address _deployer)\n  {\n    return deployer;\n  }\n\n  // Uses [the user's existing]/[a new] QueryResolver,\n  // depending on whether or not the user has submitted a query before.\n  // Then, returns the queryID for the user to use in tracking the results\n  // of their query.\n  function Query(bytes32 _query) external {\n    MatryxQueryResolver resolver;\n    // If there's already a queryResolver for this user\n    if(address(queryResolvers[msg.sender]) > 0x0)\n    {\n        // Use that one.\n        resolver = queryResolvers[msg.sender];\n    }\n    else\n    {\n        // Otherwise, create a new one and assign it.\n        resolver = new MatryxQueryResolver(msg.sender);\n        queryResolvers[msg.sender] = resolver;\n    }\n\n    // Get the queryID from the QueryResolver.\n    uint256 queryID = resolver.query(_query);\n    // Store that id under the sender's (querier's) address.\n    queryIDForQuerier[queryID] = msg.sender;\n\n    // Let our Alpha Matryx server know that a query has been performed!\n    QueryPerformed(queryID);\n  }\n\n  // (Only to be used by MatryxPlatform, TinyOracle and MatryxQueryResolver.\n  // This is not a user function.)\n  // This function can be called (successfully) from Nanome's private chain\n  function storeQueryResponse(uint256 _queryID, bytes32 _response) submitterIsPlatformDeployer external returns (bool success)\n  {\n      // Make sure:\n      // 1) The response is not empty and\n      // 2) There has not yet been a response created for this query\n      if(_response > 0 && queryResponses[_queryID] == 0x0)\n      {\n          // If these conditions hold, we set the response here.\n          queryResponses[_queryID] = _response;\n          return true;\n      }\n      else\n      {\n        // Otherwise, we do nothing with the response,\n        // and return false (unsuccessful storage of response).\n        return false;\n      }\n  }\n}",
  "sourcePath": "/Users/maxhoward/Desktop/Ethereum Development/matryx-platform-alpha-contracts/contracts/MatryxOracle.sol",
  "compiler": {
    "name": "solc",
    "version": "0.4.18+commit.9cf6e910.Emscripten.clang"
  },
  "schemaVersion": "1.0.1",
  "updatedAt": "2017-11-15T02:35:41.435Z"
}