{
  "contractName": "MatryxSubmission",
  "abi": [
    {
      "constant": true,
      "inputs": [],
      "name": "approvedReferences",
      "outputs": [
        {
          "name": "",
          "type": "uint256"
        }
      ],
      "payable": false,
      "stateMutability": "view",
      "type": "function"
    },
    {
      "constant": true,
      "inputs": [
        {
          "name": "",
          "type": "address"
        }
      ],
      "name": "addressToAmountWithdrawn",
      "outputs": [
        {
          "name": "",
          "type": "uint256"
        }
      ],
      "payable": false,
      "stateMutability": "view",
      "type": "function"
    },
    {
      "constant": true,
      "inputs": [],
      "name": "contributorBountyDivisor",
      "outputs": [
        {
          "name": "",
          "type": "uint128"
        }
      ],
      "payable": false,
      "stateMutability": "view",
      "type": "function"
    },
    {
      "constant": true,
      "inputs": [
        {
          "name": "_sender",
          "type": "address"
        }
      ],
      "name": "isOwner",
      "outputs": [
        {
          "name": "_isOwner",
          "type": "bool"
        }
      ],
      "payable": false,
      "stateMutability": "view",
      "type": "function"
    },
    {
      "constant": true,
      "inputs": [
        {
          "name": "",
          "type": "address"
        }
      ],
      "name": "contributorToBountyDividend",
      "outputs": [
        {
          "name": "",
          "type": "uint128"
        }
      ],
      "payable": false,
      "stateMutability": "view",
      "type": "function"
    },
    {
      "constant": true,
      "inputs": [],
      "name": "trustDelegate",
      "outputs": [
        {
          "name": "",
          "type": "address"
        }
      ],
      "payable": false,
      "stateMutability": "view",
      "type": "function"
    },
    {
      "constant": true,
      "inputs": [],
      "name": "approvalTrust",
      "outputs": [
        {
          "name": "",
          "type": "uint128"
        }
      ],
      "payable": false,
      "stateMutability": "view",
      "type": "function"
    },
    {
      "constant": true,
      "inputs": [
        {
          "name": "",
          "type": "uint256"
        }
      ],
      "name": "approvingPeers",
      "outputs": [
        {
          "name": "",
          "type": "address"
        }
      ],
      "payable": false,
      "stateMutability": "view",
      "type": "function"
    },
    {
      "constant": true,
      "inputs": [],
      "name": "getOwner",
      "outputs": [
        {
          "name": "_owner",
          "type": "address"
        }
      ],
      "payable": false,
      "stateMutability": "view",
      "type": "function"
    },
    {
      "constant": true,
      "inputs": [],
      "name": "owner",
      "outputs": [
        {
          "name": "",
          "type": "address"
        }
      ],
      "payable": false,
      "stateMutability": "view",
      "type": "function"
    },
    {
      "constant": true,
      "inputs": [
        {
          "name": "",
          "type": "uint256"
        }
      ],
      "name": "missingReferences",
      "outputs": [
        {
          "name": "",
          "type": "address"
        }
      ],
      "payable": false,
      "stateMutability": "view",
      "type": "function"
    },
    {
      "constant": true,
      "inputs": [],
      "name": "totalReferenceCount",
      "outputs": [
        {
          "name": "",
          "type": "uint256"
        }
      ],
      "payable": false,
      "stateMutability": "view",
      "type": "function"
    },
    {
      "constant": true,
      "inputs": [],
      "name": "isPublic",
      "outputs": [
        {
          "name": "",
          "type": "bool"
        }
      ],
      "payable": false,
      "stateMutability": "view",
      "type": "function"
    },
    {
      "constant": true,
      "inputs": [],
      "name": "totalPossibleTrust",
      "outputs": [
        {
          "name": "",
          "type": "uint256"
        }
      ],
      "payable": false,
      "stateMutability": "view",
      "type": "function"
    },
    {
      "constant": false,
      "inputs": [
        {
          "name": "newOwner",
          "type": "address"
        }
      ],
      "name": "transferOwnership",
      "outputs": [],
      "payable": false,
      "stateMutability": "nonpayable",
      "type": "function"
    },
    {
      "inputs": [
        {
          "name": "_contributors",
          "type": "address[]"
        },
        {
          "name": "_contributorRewardDistribution",
          "type": "uint128[]"
        },
        {
          "name": "_references",
          "type": "address[]"
        },
        {
          "components": [
            {
              "name": "platformAddress",
              "type": "address"
            },
            {
              "name": "tournamentAddress",
              "type": "address"
            },
            {
              "name": "roundAddress",
              "type": "address"
            }
          ],
          "name": "requiredAddresses",
          "type": "tuple"
        },
        {
          "components": [
            {
              "name": "title",
              "type": "string"
            },
            {
              "name": "owner",
              "type": "address"
            },
            {
              "name": "descriptionHash",
              "type": "bytes"
            },
            {
              "name": "fileHash",
              "type": "bytes"
            },
            {
              "name": "isPublic",
              "type": "bool"
            }
          ],
          "name": "submissionData",
          "type": "tuple"
        }
      ],
      "payable": false,
      "stateMutability": "nonpayable",
      "type": "constructor"
    },
    {
      "constant": true,
      "inputs": [],
      "name": "getTournament",
      "outputs": [
        {
          "name": "",
          "type": "address"
        }
      ],
      "payable": false,
      "stateMutability": "view",
      "type": "function"
    },
    {
      "constant": true,
      "inputs": [],
      "name": "getRound",
      "outputs": [
        {
          "name": "",
          "type": "address"
        }
      ],
      "payable": false,
      "stateMutability": "view",
      "type": "function"
    },
    {
      "constant": true,
      "inputs": [
        {
          "name": "_requester",
          "type": "address"
        }
      ],
      "name": "isAccessible",
      "outputs": [
        {
          "name": "",
          "type": "bool"
        }
      ],
      "payable": false,
      "stateMutability": "view",
      "type": "function"
    },
    {
      "constant": true,
      "inputs": [],
      "name": "getTitle",
      "outputs": [
        {
          "name": "",
          "type": "string"
        }
      ],
      "payable": false,
      "stateMutability": "view",
      "type": "function"
    },
    {
      "constant": true,
      "inputs": [],
      "name": "getAuthor",
      "outputs": [
        {
          "name": "",
          "type": "address"
        }
      ],
      "payable": false,
      "stateMutability": "view",
      "type": "function"
    },
    {
      "constant": true,
      "inputs": [],
      "name": "getDescriptionHash",
      "outputs": [
        {
          "name": "",
          "type": "bytes"
        }
      ],
      "payable": false,
      "stateMutability": "view",
      "type": "function"
    },
    {
      "constant": true,
      "inputs": [],
      "name": "getFileHash",
      "outputs": [
        {
          "name": "",
          "type": "bytes"
        }
      ],
      "payable": false,
      "stateMutability": "view",
      "type": "function"
    },
    {
      "constant": true,
      "inputs": [],
      "name": "getReferences",
      "outputs": [
        {
          "name": "",
          "type": "address[]"
        }
      ],
      "payable": false,
      "stateMutability": "view",
      "type": "function"
    },
    {
      "constant": true,
      "inputs": [],
      "name": "getContributors",
      "outputs": [
        {
          "name": "",
          "type": "address[]"
        }
      ],
      "payable": false,
      "stateMutability": "view",
      "type": "function"
    },
    {
      "constant": true,
      "inputs": [],
      "name": "getTimeSubmitted",
      "outputs": [
        {
          "name": "",
          "type": "uint256"
        }
      ],
      "payable": false,
      "stateMutability": "view",
      "type": "function"
    },
    {
      "constant": true,
      "inputs": [],
      "name": "getTimeUpdated",
      "outputs": [
        {
          "name": "",
          "type": "uint256"
        }
      ],
      "payable": false,
      "stateMutability": "view",
      "type": "function"
    },
    {
      "constant": true,
      "inputs": [],
      "name": "getTotalWinnings",
      "outputs": [
        {
          "name": "",
          "type": "uint256"
        }
      ],
      "payable": false,
      "stateMutability": "view",
      "type": "function"
    },
    {
      "constant": false,
      "inputs": [
        {
          "name": "_contributorsToAdd",
          "type": "address[]"
        },
        {
          "name": "_contributorRewardDistribution",
          "type": "uint128[]"
        },
        {
          "name": "_contributorsToRemove",
          "type": "address[]"
        },
        {
          "components": [
            {
              "name": "title",
              "type": "string"
            },
            {
              "name": "owner",
              "type": "address"
            },
            {
              "name": "descriptionHash",
              "type": "bytes"
            },
            {
              "name": "fileHash",
              "type": "bytes"
            },
            {
              "name": "isPublic",
              "type": "bool"
            }
          ],
          "name": "_data",
          "type": "tuple"
        }
      ],
      "name": "update",
      "outputs": [],
      "payable": false,
      "stateMutability": "nonpayable",
      "type": "function"
    },
    {
      "constant": false,
      "inputs": [
        {
          "name": "_public",
          "type": "bool"
        }
      ],
      "name": "updateIsPublic",
      "outputs": [],
      "payable": false,
      "stateMutability": "nonpayable",
      "type": "function"
    },
    {
      "constant": false,
      "inputs": [
        {
          "name": "_title",
          "type": "string"
        }
      ],
      "name": "updateTitle",
      "outputs": [],
      "payable": false,
      "stateMutability": "nonpayable",
      "type": "function"
    },
    {
      "constant": false,
      "inputs": [
        {
          "name": "_descriptionHash",
          "type": "bytes"
        }
      ],
      "name": "updateDescription",
      "outputs": [],
      "payable": false,
      "stateMutability": "nonpayable",
      "type": "function"
    },
    {
      "constant": false,
      "inputs": [
        {
          "name": "_fileHash",
          "type": "bytes"
        }
      ],
      "name": "updateFile",
      "outputs": [],
      "payable": false,
      "stateMutability": "nonpayable",
      "type": "function"
    },
    {
      "constant": false,
      "inputs": [
        {
          "name": "_amount",
          "type": "uint256"
        }
      ],
      "name": "addToWinnings",
      "outputs": [],
      "payable": false,
      "stateMutability": "nonpayable",
      "type": "function"
    },
    {
      "constant": false,
      "inputs": [
        {
          "name": "_newTrustDelegate",
          "type": "address"
        }
      ],
      "name": "setTrustDelegate",
      "outputs": [],
      "payable": false,
      "stateMutability": "nonpayable",
      "type": "function"
    },
    {
      "constant": false,
      "inputs": [
        {
          "name": "_reference",
          "type": "address"
        }
      ],
      "name": "addReference",
      "outputs": [],
      "payable": false,
      "stateMutability": "nonpayable",
      "type": "function"
    },
    {
      "constant": false,
      "inputs": [
        {
          "name": "_reference",
          "type": "address"
        }
      ],
      "name": "removeReference",
      "outputs": [],
      "payable": false,
      "stateMutability": "nonpayable",
      "type": "function"
    },
    {
      "constant": false,
      "inputs": [],
      "name": "receiveReferenceRequest",
      "outputs": [],
      "payable": false,
      "stateMutability": "nonpayable",
      "type": "function"
    },
    {
      "constant": false,
      "inputs": [],
      "name": "cancelReferenceRequest",
      "outputs": [],
      "payable": false,
      "stateMutability": "nonpayable",
      "type": "function"
    },
    {
      "constant": false,
      "inputs": [
        {
          "name": "_reference",
          "type": "address"
        }
      ],
      "name": "approveReference",
      "outputs": [],
      "payable": false,
      "stateMutability": "nonpayable",
      "type": "function"
    },
    {
      "constant": false,
      "inputs": [
        {
          "name": "_reference",
          "type": "address"
        }
      ],
      "name": "removeReferenceApproval",
      "outputs": [],
      "payable": false,
      "stateMutability": "nonpayable",
      "type": "function"
    },
    {
      "constant": false,
      "inputs": [
        {
          "name": "_reference",
          "type": "address"
        }
      ],
      "name": "flagMissingReference",
      "outputs": [],
      "payable": false,
      "stateMutability": "nonpayable",
      "type": "function"
    },
    {
      "constant": false,
      "inputs": [
        {
          "name": "_reference",
          "type": "address"
        }
      ],
      "name": "removeMissingReferenceFlag",
      "outputs": [],
      "payable": false,
      "stateMutability": "nonpayable",
      "type": "function"
    },
    {
      "constant": false,
      "inputs": [
        {
          "name": "_contributor",
          "type": "address"
        },
        {
          "name": "_bountyAllocation",
          "type": "uint128"
        }
      ],
      "name": "addContributor",
      "outputs": [],
      "payable": false,
      "stateMutability": "nonpayable",
      "type": "function"
    },
    {
      "constant": false,
      "inputs": [
        {
          "name": "_contributorsToAdd",
          "type": "address[]"
        },
        {
          "name": "_distribution",
          "type": "uint128[]"
        }
      ],
      "name": "addContributors",
      "outputs": [],
      "payable": false,
      "stateMutability": "nonpayable",
      "type": "function"
    },
    {
      "constant": false,
      "inputs": [
        {
          "name": "_contributorIndex",
          "type": "uint256"
        }
      ],
      "name": "removeContributor",
      "outputs": [],
      "payable": false,
      "stateMutability": "nonpayable",
      "type": "function"
    },
    {
      "constant": false,
      "inputs": [
        {
          "name": "_contributorsToRemove",
          "type": "address[]"
        }
      ],
      "name": "removeContributors",
      "outputs": [],
      "payable": false,
      "stateMutability": "nonpayable",
      "type": "function"
    },
    {
      "constant": false,
      "inputs": [],
      "name": "getBalance",
      "outputs": [
        {
          "name": "",
          "type": "uint256"
        }
      ],
      "payable": false,
      "stateMutability": "nonpayable",
      "type": "function"
    },
    {
      "constant": false,
      "inputs": [],
      "name": "withdrawReward",
      "outputs": [],
      "payable": false,
      "stateMutability": "nonpayable",
      "type": "function"
    },
    {
      "constant": true,
      "inputs": [],
      "name": "getTransferAmount",
      "outputs": [
        {
          "name": "",
          "type": "uint256"
        }
      ],
      "payable": false,
      "stateMutability": "view",
      "type": "function"
    },
    {
      "constant": true,
      "inputs": [],
      "name": "myReward",
      "outputs": [
        {
          "name": "",
          "type": "uint256"
        }
      ],
      "payable": false,
      "stateMutability": "view",
      "type": "function"
    }
  ],
  "bytecode": "0x60806040819052670de0b6b3a7640000600a55601c805460a860020a63ffffffff021916780fb3395c0000000000000000000000000000000000000000001760c860020a63ffffffff0219167c23bab50b00000000000000000000000000000000000000000000000000179055601d80547f72657665727449665265666572656e6365466c616767656428616464726573739092527f290000000000000000000000000000000000000000000000000000000000000060a05263ffffffff1990911663e7139ec01767ffffffff00000000191667e4e3e83a0000000017604060020a63ffffffff0219166b32c9c9d3000000000000000017606060020a63ffffffff0219166f0cbfdb2d00000000000000000000000017608060020a63ffffffff02191673b57e2855000000000000000000000000000000001790553480156200014857600080fd5b506040516200454f3803806200454f83398101806040526200016e9190810190620009fe565b6000805433600160a060020a03199182161782558351600180548316600160a060020a0392831617905560208086015160028054851691841691909117905560408601516003805490941692169190911790915582518051620001d6926004920190620005de565b50602082015160008054600160a060020a031916600160a060020a0392831617908190556001546040517f6a44e43d00000000000000000000000000000000000000000000000000000000815290831692636a44e43d926200023e9291169060040162000aee565b602060405180830381600087803b1580156200025957600080fd5b505af11580156200026e573d6000803e3d6000fd5b505050506040513d601f19601f82011682018060405250620002949190810190620009d5565b60058054600160a060020a031916600160a060020a039283161790819055161515620002bf57600080fd5b60408201518051620002da91600691602090910190620005de565b5060608201518051620002f691600791602090910190620005de565b5083516200030c90600890602087019062000663565b508260000151600160a060020a031663f3dc0d256040518163ffffffff167c0100000000000000000000000000000000000000000000000000000000028152600401602060405180830381600087803b1580156200036957600080fd5b505af11580156200037e573d6000803e3d6000fd5b505050506040513d601f19601f82011682018060405250620003a49190810190620009d5565b601c80546080850151151560ff19600160a060020a03949094166101000261010060a860020a031990921691909117929092169190911790555060005b60085463ffffffff82161015620004b15760016011600060088463ffffffff168154811015156200040e57fe5b6000918252602080832090910154600160a060020a03168352820192909252604001812080549215156401000000000264ff000000001990931692909217909155600880548392601192909163ffffffff85169081106200046b57fe5b600091825260208083209190910154600160a060020a031683528201929092526040019020805463ffffffff191663ffffffff92909216919091179055600101620003e1565b620004c68686640100000000620004ed810204565b8551620004db90601590602089019062000663565b505042601a555062000bc49350505050565b8051825160009114620004ff57600080fd5b5060005b82518163ffffffff161015620005d957818163ffffffff168151811015156200052857fe5b6020908102919091010151601780546001608060020a031981166001608060020a03918216909301169190911790558151829063ffffffff83169081106200056c57fe5b9060200190602002015160166000858463ffffffff168151811015156200058f57fe5b602090810291909101810151600160a060020a0316825281019190915260400160002080546001608060020a0319166001608060020a039290921691909117905560010162000503565b505050565b828054600181600116156101000203166002900490600052602060002090601f016020900481019282601f106200062157805160ff191683800117855562000651565b8280016001018555821562000651579182015b828111156200065157825182559160200191906001019062000634565b506200065f929150620006c9565b5090565b828054828255906000526020600020908101928215620006bb579160200282015b82811115620006bb5782518254600160a060020a031916600160a060020a0390911617825560209092019160019091019062000684565b506200065f929150620006e9565b620006e691905b808211156200065f5760008155600101620006d0565b90565b620006e691905b808211156200065f578054600160a060020a0319168155600101620006f0565b60006200071e825162000b74565b9392505050565b6000601f820183136200073757600080fd5b81516200074e620007488262000b2b565b62000b04565b915081818352602084019350602081019050838560208402820111156200077457600080fd5b60005b83811015620007a457816200078d888262000710565b845250602092830192919091019060010162000777565b5050505092915050565b6000601f82018313620007c057600080fd5b8151620007d1620007488262000b2b565b91508181835260208401935060208101905083856020840282011115620007f757600080fd5b60005b83811015620007a45781620008108882620009c7565b8452506020928301929190910190600101620007fa565b60006200071e825162000b80565b6000601f820183136200084757600080fd5b815162000858620007488262000b4c565b915080825260208301602083018583830111156200087557600080fd5b6200088283828462000b91565b50505092915050565b6000606082840312156200089e57600080fd5b620008aa606062000b04565b90506000620008ba848462000710565b8252506020620008cd8484830162000710565b6020830152506040620008e38482850162000710565b60408301525092915050565b600060a082840312156200090257600080fd5b6200090e60a062000b04565b82519091506001604060020a038111156200092857600080fd5b620009368482850162000835565b8252506020620009498484830162000710565b60208301525060408201516001604060020a038111156200096957600080fd5b620009778482850162000835565b60408301525060608201516001604060020a038111156200099757600080fd5b620009a58482850162000835565b6060830152506080620009bb8482850162000827565b60808301525092915050565b60006200071e825162000b85565b600060208284031215620009e857600080fd5b6000620009f6848462000710565b949350505050565b600080600080600060e0868803121562000a1757600080fd5b85516001604060020a0381111562000a2e57600080fd5b62000a3c8882890162000725565b95505060208601516001604060020a0381111562000a5957600080fd5b62000a6788828901620007ae565b94505060408601516001604060020a0381111562000a8457600080fd5b62000a928882890162000725565b935050606062000aa5888289016200088b565b92505060c08601516001604060020a0381111562000ac257600080fd5b62000ad088828901620008ef565b9150509295509295909350565b62000ae88162000b74565b82525050565b6020810162000afe828462000add565b92915050565b6040518181016001604060020a038111828210171562000b2357600080fd5b604052919050565b60006001604060020a0382111562000b4257600080fd5b5060209081020190565b60006001604060020a0382111562000b6357600080fd5b506020601f91909101601f19160190565b600160a060020a031690565b151590565b6001608060020a031690565b60005b8381101562000bae57818101518382015260200162000b94565b8381111562000bbe576000848401525b50505050565b61397b8062000bd46000396000f30060806040526004361061025b5763ffffffff7c010000000000000000000000000000000000000000000000000000000060003504166309b542bb81146102605780630cbfdb2d146102825780630fb3395c146102a257806312065fe0146102c25780631abaf3fc146102ed5780631af73c32146103025780631c6d3d79146103225780631c96e14d1461034257806323bab50b14610362578063245edf061461038257806329f9e665146103a45780632f54bf6e146103c65780633214152f146103f357806332c9c9d31461041357806337fb13b0146104335780634284957014610453578063444e31ca146104685780634586de5d1461047d5780636948f4061461049d5780636e27bcc6146104bd57806374756091146104df5780637a6337fa146104ff57806382966f8b146105215780638493f71f14610536578063890545831461054b578063893d20e81461056b578063898fb033146105805780638da5cb5b146105a05780638efa5410146105b55780639b057610146105ca5780639c1b92a1146105df5780639f8743f7146105ff578063a33d954314610614578063a52dd12f14610629578063a5faa12514610649578063ae1ca6921461065e578063af157c1914610673578063c7af355114610688578063c86569781461069d578063c885bc58146106b2578063d3dc4c37146106c7578063dc9a1535146106e7578063e4e3e83a146106fc578063e7139ec01461071c578063e76c293e1461073c578063e786bb9814610751578063e9946c2314610771578063f2fde38b14610786578063f889b6d4146107a6578063ff3c1a8f146107c6575b600080fd5b34801561026c57600080fd5b5061028061027b36600461365e565b6107db565b005b34801561028e57600080fd5b5061028061029d36600461341b565b6108c8565b3480156102ae57600080fd5b506102806102bd36600461341b565b610a86565b3480156102ce57600080fd5b506102d7610b47565b6040516102e491906137f2565b60405180910390f35b3480156102f957600080fd5b506102d7610bff565b34801561030e57600080fd5b5061028061031d366004613499565b610c05565b34801561032e57600080fd5b5061028061033d366004613629565b610d42565b34801561034e57600080fd5b506102d761035d36600461341b565b610e34565b34801561036e57600080fd5b5061028061037d36600461341b565b610e46565b34801561038e57600080fd5b50610397610f08565b6040516102e491906137c5565b3480156103b057600080fd5b506103b9610fb1565b6040516102e491906137e4565b3480156103d257600080fd5b506103e66103e136600461341b565b610fc9565b6040516102e491906137b7565b3480156103ff57600080fd5b5061028061040e36600461352d565b610fea565b34801561041f57600080fd5b5061028061042e36600461341b565b611165565b34801561043f57600080fd5b5061028061044e366004613629565b61131f565b34801561045f57600080fd5b506102d761140d565b34801561047457600080fd5b5061028061141e565b34801561048957600080fd5b506103b961049836600461341b565b61145b565b3480156104a957600080fd5b506102806104b83660046134ce565b61147f565b3480156104c957600080fd5b506104d26114ad565b6040516102e49190613762565b3480156104eb57600080fd5b506102806104fa36600461365e565b6114ce565b34801561050b57600080fd5b5061051461164c565b6040516102e491906137a6565b34801561052d57600080fd5b506103b96116d0565b34801561054257600080fd5b506103976116e8565b34801561055757600080fd5b506104d261056636600461365e565b61175a565b34801561057757600080fd5b506104d261178f565b34801561058c57600080fd5b5061028061059b366004613629565b6117ab565b3480156105ac57600080fd5b506104d2611894565b3480156105c157600080fd5b506102d76118b0565b3480156105d657600080fd5b506102d76118b6565b3480156105eb57600080fd5b506104d26105fa36600461365e565b6118bc565b34801561060b57600080fd5b506104d26118ca565b34801561062057600080fd5b506102d76118e6565b34801561063557600080fd5b506103e661064436600461341b565b6119ff565b34801561065557600080fd5b506104d2612186565b34801561066a57600080fd5b506102d76121bb565b34801561067f57600080fd5b506105146121c1565b34801561069457600080fd5b50610280612244565b3480156106a957600080fd5b506102d761227c565b3480156106be57600080fd5b50610280612282565b3480156106d357600080fd5b506102806106e23660046135ed565b6127a3565b3480156106f357600080fd5b506103e66127f8565b34801561070857600080fd5b5061028061071736600461341b565b612801565b34801561072857600080fd5b5061028061073736600461341b565b6129bb565b34801561074857600080fd5b506104d2612af5565b34801561075d57600080fd5b5061028061076c36600461341b565b612b11565b34801561077d57600080fd5b506102d7612b81565b34801561079257600080fd5b506102806107a136600461341b565b612b87565b3480156107b257600080fd5b506102806107c136600461345f565b612c14565b3480156107d257600080fd5b50610397612db8565b60035473ffffffffffffffffffffffffffffffffffffffff163314806108a457506003546040517fb6a3497500000000000000000000000000000000000000000000000000000000815273ffffffffffffffffffffffffffffffffffffffff9091169063b6a3497590610852903390600401613762565b602060405180830381600087803b15801561086c57600080fd5b505af1158015610880573d6000803e3d6000fd5b505050506040513d601f19601f820116820180604052506108a4919081019061360b565b15156108af57600080fd5b6009546108c2908263ffffffff612e2a16565b60095550565b6001546040517f3e44cf7800000000000000000000000000000000000000000000000000000000815273ffffffffffffffffffffffffffffffffffffffff909116908190633e44cf7890610920903390600401613762565b602060405180830381600087803b15801561093a57600080fd5b505af115801561094e573d6000803e3d6000fd5b505050506040513d601f19601f82011682018060405250610972919081019061360b565b151561097d57600080fd5b601c60019054906101000a900473ffffffffffffffffffffffffffffffffffffffff1673ffffffffffffffffffffffffffffffffffffffff16601d600c9054906101000a90047c0100000000000000000000000000000000000000000000000000000000027c01000000000000000000000000000000000000000000000000000000009004836040518263ffffffff167c0100000000000000000000000000000000000000000000000000000000028152600401808273ffffffffffffffffffffffffffffffffffffffff1673ffffffffffffffffffffffffffffffffffffffff168152602001915050600060405180830381865af4925050501515610a8257600080fd5b5050565b60005473ffffffffffffffffffffffffffffffffffffffff163314610aaa57600080fd5b601c546040805163ffffffff7c010000000000000000000000000000000000000000000000000000000075010000000000000000000000000000000000000000008504810281900491821602825273ffffffffffffffffffffffffffffffffffffffff85811660048401529251610100909404929092169260248083019260009291908290030181865af4925050501515610b4457600080fd5b50565b6003546040517ff8b2cb4f00000000000000000000000000000000000000000000000000000000815260009173ffffffffffffffffffffffffffffffffffffffff16908290829063f8b2cb4f90610ba29030906004016137d6565b602060405180830381600087803b158015610bbc57600080fd5b505af1158015610bd0573d6000803e3d6000fd5b505050506040513d601f19601f82011682018060405250610bf4919081019061367c565b90508092505b505090565b60135481565b6000805473ffffffffffffffffffffffffffffffffffffffff163314610c2a57600080fd5b5060005b81518163ffffffff161015610a825760166000838363ffffffff16815181101515610c5557fe5b602090810290910181015173ffffffffffffffffffffffffffffffffffffffff168252810191909152604001600090812054601780546fffffffffffffffffffffffffffffffff928316818416039092166fffffffffffffffffffffffffffffffff1990921691909117905582516016908290859063ffffffff8616908110610cda57fe5b60209081029190910181015173ffffffffffffffffffffffffffffffffffffffff16825281019190915260400160002080546fffffffffffffffffffffffffffffffff19166fffffffffffffffffffffffffffffffff92909216919091179055600101610c2e565b60005473ffffffffffffffffffffffffffffffffffffffff163314610d6657600080fd5b600354604080517f1865c57d000000000000000000000000000000000000000000000000000000008152905173ffffffffffffffffffffffffffffffffffffffff909216918291631865c57d9160048083019260209291908290030181600087803b158015610dd457600080fd5b505af1158015610de8573d6000803e3d6000fd5b505050506040513d601f19601f82011682018060405250610e0c919081019061367c565b600114610e1857600080fd5b8151610e2b906007906020850190613114565b505042601b5550565b60186020526000908152604090205481565b60005473ffffffffffffffffffffffffffffffffffffffff163314610e6a57600080fd5b601c546040805163ffffffff7c01000000000000000000000000000000000000000000000000000000007901000000000000000000000000000000000000000000000000008504810281900491821602825273ffffffffffffffffffffffffffffffffffffffff85811660048401529251610100909404929092169260248083019260009291908290030181865af4925050501515610b4457600080fd5b606033610f14816119ff565b1515610f1f57600080fd5b6006805460408051602060026001851615610100026000190190941693909304601f81018490048402820184019092528181529291830182828015610fa55780601f10610f7a57610100808354040283529160200191610fa5565b820191906000526020600020905b815481529060010190602001808311610f8857829003601f168201915b505050505091505b5090565b6017546fffffffffffffffffffffffffffffffff1681565b60005473ffffffffffffffffffffffffffffffffffffffff91821691161490565b610fff610ffa8260000151612e40565b612e66565b1515611021578051805161101b91600491602090910190613114565b5042601b555b602081015173ffffffffffffffffffffffffffffffffffffffff161561108f576020810151600080547fffffffffffffffffffffffff00000000000000000000000000000000000000001673ffffffffffffffffffffffffffffffffffffffff90921691909117905542601b555b604081015151156110b957604081015180516110b391600691602090910190613114565b5042601b555b604081015151156110e357606081015180516110dd91600791602090910190613114565b5042601b555b806080015115611126576080810151601c80547fffffffffffffffffffffffffffffffffffffffffffffffffffffffffffffff001691151591909117905542601b555b83511561114a57825184511461113b57600080fd5b611145848461147f565b42601b555b81511561115f5761115a82610c05565b42601b555b50505050565b6001546040517f3e44cf7800000000000000000000000000000000000000000000000000000000815273ffffffffffffffffffffffffffffffffffffffff909116908190633e44cf78906111bd903390600401613762565b602060405180830381600087803b1580156111d757600080fd5b505af11580156111eb573d6000803e3d6000fd5b505050506040513d601f19601f8201168201806040525061120f919081019061360b565b151561121a57600080fd5b601c60019054906101000a900473ffffffffffffffffffffffffffffffffffffffff1673ffffffffffffffffffffffffffffffffffffffff16601d60089054906101000a90047c0100000000000000000000000000000000000000000000000000000000027c01000000000000000000000000000000000000000000000000000000009004836040518263ffffffff167c0100000000000000000000000000000000000000000000000000000000028152600401808273ffffffffffffffffffffffffffffffffffffffff1673ffffffffffffffffffffffffffffffffffffffff168152602001915050600060405180830381865af4925050501515610a8257600080fd5b60005473ffffffffffffffffffffffffffffffffffffffff16331461134357600080fd5b600354604080517f1865c57d000000000000000000000000000000000000000000000000000000008152905173ffffffffffffffffffffffffffffffffffffffff909216918291631865c57d9160048083019260209291908290030181600087803b1580156113b157600080fd5b505af11580156113c5573d6000803e3d6000fd5b505050506040513d601f19601f820116820180604052506113e9919081019061367c565b6001146113f557600080fd5b8151611408906004906020850190613114565b505050565b600061141833612e6b565b90505b90565b60015473ffffffffffffffffffffffffffffffffffffffff16331461144257600080fd5b60145461145690600163ffffffff612f8716565b601455565b6016602052600090815260409020546fffffffffffffffffffffffffffffffff1681565b60005473ffffffffffffffffffffffffffffffffffffffff1633146114a357600080fd5b610a828282612f9e565b601c54610100900473ffffffffffffffffffffffffffffffffffffffff1681565b60005473ffffffffffffffffffffffffffffffffffffffff1633146114f257600080fd5b60005473ffffffffffffffffffffffffffffffffffffffff16331461151657600080fd5b6016600060158381548110151561152957fe5b600091825260208083209091015473ffffffffffffffffffffffffffffffffffffffff168352820192909252604001812054601780546fffffffffffffffffffffffffffffffff928316818416039092166fffffffffffffffffffffffffffffffff19909216919091179055601580546016918391859081106115a857fe5b60009182526020808320919091015473ffffffffffffffffffffffffffffffffffffffff168352820192909252604001902080546fffffffffffffffffffffffffffffffff19166fffffffffffffffffffffffffffffffff92909216919091179055601580548290811061161857fe5b600091825260209091200180547fffffffffffffffffffffffff000000000000000000000000000000000000000016905550565b606033611658816119ff565b151561166357600080fd5b6008805480602002602001604051908101604052809291908181526020018280548015610fa557602002820191906000526020600020905b815473ffffffffffffffffffffffffffffffffffffffff16815260019091019060200180831161169b57505050505091505090565b600c546fffffffffffffffffffffffffffffffff1681565b6060336116f4816119ff565b15156116ff57600080fd5b6007805460408051602060026001851615610100026000190190941693909304601f81018490048402820184019092528181529291830182828015610fa55780601f10610f7a57610100808354040283529160200191610fa5565b600e80548290811061176857fe5b60009182526020909120015473ffffffffffffffffffffffffffffffffffffffff16905081565b60005473ffffffffffffffffffffffffffffffffffffffff1690565b60005473ffffffffffffffffffffffffffffffffffffffff1633146117cf57600080fd5b600354604080517f1865c57d000000000000000000000000000000000000000000000000000000008152905173ffffffffffffffffffffffffffffffffffffffff909216918291631865c57d9160048083019260209291908290030181600087803b15801561183d57600080fd5b505af1158015611851573d6000803e3d6000fd5b505050506040513d601f19601f82011682018060405250611875919081019061367c565b60011461188157600080fd5b8151610e2b906006906020850190613114565b60005473ffffffffffffffffffffffffffffffffffffffff1681565b601b5490565b60095490565b601080548290811061176857fe5b60035473ffffffffffffffffffffffffffffffffffffffff1690565b600954600d546000919082901515611914576010546000101561190c5760009250610bfa565b819250610bfa565b600160009054906101000a900473ffffffffffffffffffffffffffffffffffffffff1673ffffffffffffffffffffffffffffffffffffffff1663b20a2dce6040518163ffffffff167c0100000000000000000000000000000000000000000000000000000000028152600401602060405180830381600087803b15801561199a57600080fd5b505af11580156119ae573d6000803e3d6000fd5b505050506040513d601f19601f820116820180604052506119d2919081019061367c565b600a540390506119e8818363ffffffff6130b516565b9050610bf4600a54826130d990919063ffffffff16565b600354600254604080517f2fc1f190000000000000000000000000000000000000000000000000000000008152905160009373ffffffffffffffffffffffffffffffffffffffff90811693169184918291829182918291829182918291829182918c91632fc1f1909160048082019260209290919082900301818787803b158015611a8957600080fd5b505af1158015611a9d573d6000803e3d6000fd5b505050506040513d601f19601f82011682018060405250611ac19190810190613441565b73ffffffffffffffffffffffffffffffffffffffff168e73ffffffffffffffffffffffffffffffffffffffff16149950600360009054906101000a900473ffffffffffffffffffffffffffffffffffffffff1673ffffffffffffffffffffffffffffffffffffffff168e73ffffffffffffffffffffffffffffffffffffffff161498506000809054906101000a900473ffffffffffffffffffffffffffffffffffffffff1673ffffffffffffffffffffffffffffffffffffffff168e73ffffffffffffffffffffffffffffffffffffffff16149750601c60009054906101000a900460ff1696506002600360009054906101000a900473ffffffffffffffffffffffffffffffffffffffff1673ffffffffffffffffffffffffffffffffffffffff16631865c57d6040518163ffffffff167c0100000000000000000000000000000000000000000000000000000000028152600401602060405180830381600087803b158015611c3057600080fd5b505af1158015611c44573d6000803e3d6000fd5b505050506040513d601f19601f82011682018060405250611c68919081019061367c565b10159550600260009054906101000a900473ffffffffffffffffffffffffffffffffffffffff1673ffffffffffffffffffffffffffffffffffffffff166352c01fab8f6040518263ffffffff167c0100000000000000000000000000000000000000000000000000000000028152600401611ce39190613762565b602060405180830381600087803b158015611cfd57600080fd5b505af1158015611d11573d6000803e3d6000fd5b505050506040513d601f19601f82011682018060405250611d35919081019061360b565b94508d73ffffffffffffffffffffffffffffffffffffffff168b73ffffffffffffffffffffffffffffffffffffffff1663893d20e86040518163ffffffff167c0100000000000000000000000000000000000000000000000000000000028152600401602060405180830381600087803b158015611db257600080fd5b505af1158015611dc6573d6000803e3d6000fd5b505050506040513d601f19601f82011682018060405250611dea9190810190613441565b73ffffffffffffffffffffffffffffffffffffffff16149350600360009054906101000a900473ffffffffffffffffffffffffffffffffffffffff1673ffffffffffffffffffffffffffffffffffffffff16638499a1388f6040518263ffffffff167c0100000000000000000000000000000000000000000000000000000000028152600401611e7a9190613762565b602060405180830381600087803b158015611e9457600080fd5b505af1158015611ea8573d6000803e3d6000fd5b505050506040513d601f19601f82011682018060405250611ecc919081019061360b565b9250858015611ee757508380611edf5750845b80611ee75750825b91506005600360009054906101000a900473ffffffffffffffffffffffffffffffffffffffff1673ffffffffffffffffffffffffffffffffffffffff16631865c57d6040518163ffffffff167c0100000000000000000000000000000000000000000000000000000000028152600401602060405180830381600087803b158015611f7157600080fd5b505af1158015611f85573d6000803e3d6000fd5b505050506040513d601f19601f82011682018060405250611fa9919081019061367c565b101590508980611fb65750885b80611fbe5750875b80611fc65750865b80611fce5750815b8061209d5750600160009054906101000a900473ffffffffffffffffffffffffffffffffffffffff1673ffffffffffffffffffffffffffffffffffffffff16633e44cf788f6040518263ffffffff167c010000000000000000000000000000000000000000000000000000000002815260040161204b9190613762565b602060405180830381600087803b15801561206557600080fd5b505af1158015612079573d6000803e3d6000fd5b505050506040513d601f19601f8201168201806040525061209d919081019061360b565b8061216c5750600160009054906101000a900473ffffffffffffffffffffffffffffffffffffffff1673ffffffffffffffffffffffffffffffffffffffff1663818b5fa88f6040518263ffffffff167c010000000000000000000000000000000000000000000000000000000002815260040161211a9190613762565b602060405180830381600087803b15801561213457600080fd5b505af1158015612148573d6000803e3d6000fd5b505050506040513d601f19601f8201168201806040525061216c919081019061360b565b806121745750805b9e9d5050505050505050505050505050565b600033612192816119ff565b151561219d57600080fd5b505060055473ffffffffffffffffffffffffffffffffffffffff1690565b601a5490565b6060336121cd816119ff565b15156121d857600080fd5b6015805480602002602001604051908101604052809291908181526020018280548015610fa55760200282019190600052602060002090815473ffffffffffffffffffffffffffffffffffffffff16815260019091019060200180831161169b57505050505091505090565b60015473ffffffffffffffffffffffffffffffffffffffff16331461226857600080fd5b60145461145690600163ffffffff612e2a16565b60145481565b60008054819081908190819081908190819073ffffffffffffffffffffffffffffffffffffffff163314806122d75750336000908152601660205260409020546fffffffffffffffffffffffffffffffff1615155b806122f9575060035473ffffffffffffffffffffffffffffffffffffffff1633145b151561230457600080fd5b600160009054906101000a900473ffffffffffffffffffffffffffffffffffffffff1673ffffffffffffffffffffffffffffffffffffffff166310fe9ae86040518163ffffffff167c0100000000000000000000000000000000000000000000000000000000028152600401602060405180830381600087803b15801561238a57600080fd5b505af115801561239e573d6000803e3d6000fd5b505050506040513d601f19601f820116820180604052506123c29190810190613441565b975060095496506123d16118e6565b60005490965073ffffffffffffffffffffffffffffffffffffffff16331480156123fb5750601554155b15612428573360009081526018602052604090205461242190879063ffffffff612f8716565b9450612434565b61243133612e6b565b94505b6040517fa9059cbb00000000000000000000000000000000000000000000000000000000815273ffffffffffffffffffffffffffffffffffffffff89169063a9059cbb90612488903390899060040161378b565b602060405180830381600087803b1580156124a257600080fd5b505af11580156124b6573d6000803e3d6000fd5b505050506040513d601f19601f820116820180604052506124da919081019061360b565b50336000908152601860205260409020546124fb908663ffffffff612e2a16565b33600081815260186020526040812092909255905473ffffffffffffffffffffffffffffffffffffffff1614156127995760195461254f90612543898963ffffffff612f8716565b9063ffffffff612f8716565b935083151561255d57612799565b601354600a546125729163ffffffff6130d916565b600a549093506125989061258c858763ffffffff6130b516565b9063ffffffff6130d916565b9150600090505b60085481101561278257601160006008838154811015156125bc57fe5b600091825260208083209091015473ffffffffffffffffffffffffffffffffffffffff16835282019290925260400190205460ff65010000000000909104161561277a578773ffffffffffffffffffffffffffffffffffffffff1663a9059cbb60088381548110151561262b57fe5b6000918252602090912001546040517c010000000000000000000000000000000000000000000000000000000063ffffffff84160281526126879173ffffffffffffffffffffffffffffffffffffffff1690869060040161378b565b602060405180830381600087803b1580156126a157600080fd5b505af11580156126b5573d6000803e3d6000fd5b505050506040513d601f19601f820116820180604052506126d9919081019061360b565b5060088054829081106126e857fe5b6000918252602090912001546040517f09b542bb00000000000000000000000000000000000000000000000000000000815273ffffffffffffffffffffffffffffffffffffffff909116906309b542bb906127479085906004016137f2565b600060405180830381600087803b15801561276157600080fd5b505af1158015612775573d6000803e3d6000fd5b505050505b60010161259f565b601954612795908563ffffffff612e2a16565b6019555b5050505050505050565b60005473ffffffffffffffffffffffffffffffffffffffff1633146127c757600080fd5b601c80547fffffffffffffffffffffffffffffffffffffffffffffffffffffffffffffff0016911515919091179055565b601c5460ff1681565b6001546040517f3e44cf7800000000000000000000000000000000000000000000000000000000815273ffffffffffffffffffffffffffffffffffffffff909116908190633e44cf7890612859903390600401613762565b602060405180830381600087803b15801561287357600080fd5b505af1158015612887573d6000803e3d6000fd5b505050506040513d601f19601f820116820180604052506128ab919081019061360b565b15156128b657600080fd5b601c60019054906101000a900473ffffffffffffffffffffffffffffffffffffffff1673ffffffffffffffffffffffffffffffffffffffff16601d60049054906101000a90047c0100000000000000000000000000000000000000000000000000000000027c01000000000000000000000000000000000000000000000000000000009004836040518263ffffffff167c0100000000000000000000000000000000000000000000000000000000028152600401808273ffffffffffffffffffffffffffffffffffffffff1673ffffffffffffffffffffffffffffffffffffffff168152602001915050600060405180830381865af4925050501515610a8257600080fd5b6001546040517f3e44cf7800000000000000000000000000000000000000000000000000000000815273ffffffffffffffffffffffffffffffffffffffff909116908190633e44cf7890612a13903390600401613762565b602060405180830381600087803b158015612a2d57600080fd5b505af1158015612a41573d6000803e3d6000fd5b505050506040513d601f19601f82011682018060405250612a65919081019061360b565b1515612a7057600080fd5b601c54601d54604080517c010000000000000000000000000000000000000000000000000000000092830283900463ffffffff8116909302815273ffffffffffffffffffffffffffffffffffffffff868116600483015291516101009094049091169260248083019260009291908290030181865af4925050501515610a8257600080fd5b60025473ffffffffffffffffffffffffffffffffffffffff1690565b60015473ffffffffffffffffffffffffffffffffffffffff163314612b3557600080fd5b601c805473ffffffffffffffffffffffffffffffffffffffff909216610100027fffffffffffffffffffffff0000000000000000000000000000000000000000ff909216919091179055565b600d5481565b60005473ffffffffffffffffffffffffffffffffffffffff163314612bab57600080fd5b73ffffffffffffffffffffffffffffffffffffffff81161515612bcd57600080fd5b600080547fffffffffffffffffffffffff00000000000000000000000000000000000000001673ffffffffffffffffffffffffffffffffffffffff92909216919091179055565b6000805473ffffffffffffffffffffffffffffffffffffffff163314612c3957600080fd5b60158054600181019091557f55f448fdea98c4d29eb340757ef0a66cd03dbb9538908a6a81d96026b71ec4750180547fffffffffffffffffffffffff00000000000000000000000000000000000000001673ffffffffffffffffffffffffffffffffffffffff8516908117909155600090815260166020526040902080546fffffffffffffffffffffffffffffffff19166fffffffffffffffffffffffffffffffff84811691909117909155601754612cf39116836130f0565b601780546fffffffffffffffffffffffffffffffff19166fffffffffffffffffffffffffffffffff92909216919091179055506003546040517f1cdb7de500000000000000000000000000000000000000000000000000000000815273ffffffffffffffffffffffffffffffffffffffff909116908190631cdb7de590612d81908690600290600401613770565b600060405180830381600087803b158015612d9b57600080fd5b505af1158015612daf573d6000803e3d6000fd5b50505050505050565b606033612dc4816119ff565b1515612dcf57600080fd5b6004805460408051602060026001851615610100026000190190941693909304601f81018490048402820184019092528181529291830182828015610fa55780601f10610f7a57610100808354040283529160200191610fa5565b600082820183811015612e3957fe5b9392505050565b612e4861318e565b50604080518082019091528151815260209182019181019190915290565b511590565b6000806000612e7d600261258c6118e6565b60005490925073ffffffffffffffffffffffffffffffffffffffff85811691161415612ee15773ffffffffffffffffffffffffffffffffffffffff8416600090815260186020526040902054612eda90839063ffffffff612f8716565b9250612f80565b601754600a5473ffffffffffffffffffffffffffffffffffffffff8616600090815260166020526040902054612f39926fffffffffffffffffffffffffffffffff9081169261258c929091169063ffffffff6130b516565b73ffffffffffffffffffffffffffffffffffffffff8516600090815260186020526040902054600a54919250612f7d916125439061258c858763ffffffff6130b516565b92505b5050919050565b600082821115612f9357fe5b508082035b92915050565b8051825160009114612faf57600080fd5b5060005b82518163ffffffff16101561140857818163ffffffff16815181101515612fd657fe5b6020908102919091010151601780546fffffffffffffffffffffffffffffffff1981166fffffffffffffffffffffffffffffffff918216909301169190911790558151829063ffffffff831690811061302b57fe5b9060200190602002015160166000858463ffffffff1681518110151561304d57fe5b60209081029190910181015173ffffffffffffffffffffffffffffffffffffffff16825281019190915260400160002080546fffffffffffffffffffffffffffffffff19166fffffffffffffffffffffffffffffffff92909216919091179055600101612fb3565b60008282028315806130d157508284828115156130ce57fe5b04145b1515612e3957fe5b60008082848115156130e757fe5b04949350505050565b60008282016fffffffffffffffffffffffffffffffff8085169082161015612e3957fe5b828054600181600116156101000203166002900490600052602060002090601f016020900481019282601f1061315557805160ff1916838001178555613182565b82800160010185558215613182579182015b82811115613182578251825591602001919060010190613167565b50610fad9291506131a5565b604080518082019091526000808252602082015290565b61141b91905b80821115610fad57600081556001016131ab565b6000612e398235613898565b6000612e398251613898565b6000601f820183136131e857600080fd5b81356131fb6131f682613827565b613800565b9150818183526020840193506020810190508385602084028201111561322057600080fd5b60005b8381101561324c578161323688826131bf565b8452506020928301929190910190600101613223565b5050505092915050565b6000601f8201831361326757600080fd5b81356132756131f682613827565b9150818183526020840193506020810190508385602084028201111561329a57600080fd5b60005b8381101561324c57816132b088826133f7565b845250602092830192919091019060010161329d565b6000612e3982356138b1565b6000612e3982516138b1565b6000601f820183136132ef57600080fd5b81356132fd6131f682613848565b9150808252602083016020830185838301111561331957600080fd5b6133248382846138e1565b50505092915050565b600060a0828403121561333f57600080fd5b61334960a0613800565b9050813567ffffffffffffffff81111561336257600080fd5b61336e848285016132de565b825250602061337f848483016131bf565b602083015250604082013567ffffffffffffffff81111561339f57600080fd5b6133ab848285016132de565b604083015250606082013567ffffffffffffffff8111156133cb57600080fd5b6133d7848285016132de565b60608301525060806133eb848285016132c6565b60808301525092915050565b6000612e3982356138b6565b6000612e39823561141b565b6000612e39825161141b565b60006020828403121561342d57600080fd5b600061343984846131bf565b949350505050565b60006020828403121561345357600080fd5b600061343984846131cb565b6000806040838503121561347257600080fd5b600061347e85856131bf565b925050602061348f858286016133f7565b9150509250929050565b6000602082840312156134ab57600080fd5b813567ffffffffffffffff8111156134c257600080fd5b613439848285016131d7565b600080604083850312156134e157600080fd5b823567ffffffffffffffff8111156134f857600080fd5b613504858286016131d7565b925050602083013567ffffffffffffffff81111561352157600080fd5b61348f85828601613256565b6000806000806080858703121561354357600080fd5b843567ffffffffffffffff81111561355a57600080fd5b613566878288016131d7565b945050602085013567ffffffffffffffff81111561358357600080fd5b61358f87828801613256565b935050604085013567ffffffffffffffff8111156135ac57600080fd5b6135b8878288016131d7565b925050606085013567ffffffffffffffff8111156135d557600080fd5b6135e18782880161332d565b91505092959194509250565b6000602082840312156135ff57600080fd5b600061343984846132c6565b60006020828403121561361d57600080fd5b600061343984846132d2565b60006020828403121561363b57600080fd5b813567ffffffffffffffff81111561365257600080fd5b613439848285016132de565b60006020828403121561367057600080fd5b60006134398484613403565b60006020828403121561368e57600080fd5b6000613439848461340f565b6136a381613898565b82525050565b60006136b482613894565b8084526020840193506136c68361388e565b60005b828110156136f6576136dc86835161369a565b6136e58261388e565b6020969096019591506001016136c9565b5093949350505050565b6136a3816138b1565b600061371482613894565b8084526137288160208601602086016138ed565b61373181613919565b9093016020019392505050565b6136a3816138cb565b6136a3816138d6565b6136a3816138b6565b6136a38161141b565b60208101612f98828461369a565b6040810161377e828561369a565b612e396020830184613747565b60408101613799828561369a565b612e396020830184613759565b60208082528101612e3981846136a9565b60208101612f988284613700565b60208082528101612e398184613709565b60208101612f98828461373e565b60208101612f988284613750565b60208101612f988284613759565b60405181810167ffffffffffffffff8111828210171561381f57600080fd5b604052919050565b600067ffffffffffffffff82111561383e57600080fd5b5060209081020190565b600067ffffffffffffffff82111561385f57600080fd5b506020601f919091017fffffffffffffffffffffffffffffffffffffffffffffffffffffffffffffffe0160190565b60200190565b5190565b73ffffffffffffffffffffffffffffffffffffffff1690565b151590565b6fffffffffffffffffffffffffffffffff1690565b6000612f9882613898565b6000612f988261141b565b82818337506000910152565b60005b838110156139085781810151838201526020016138f0565b8381111561115f5750506000910152565b601f017fffffffffffffffffffffffffffffffffffffffffffffffffffffffffffffffe016905600a265627a7a72305820d04fc59fcadbdb711979083f744d6882396dfd5e7af781d12b01d643ceb271556c6578706572696d656e74616cf50037",
  "source": "pragma solidity ^0.4.18;\npragma experimental ABIEncoderV2;\n\n\nimport '../libraries/math/SafeMath.sol';\nimport '../libraries/math/SafeMath128.sol';\nimport '../libraries/strings/strings.sol';\nimport '../libraries/LibConstruction.sol';\nimport './reputation/SubmissionTrust.sol';\nimport '../interfaces/IMatryxToken.sol';\nimport '../interfaces/IMatryxPeer.sol';\nimport '../interfaces/IMatryxPlatform.sol';\nimport '../interfaces/IMatryxTournament.sol';\nimport '../interfaces/IMatryxRound.sol';\nimport '../interfaces/IMatryxSubmission.sol';\nimport './Ownable.sol';\n\ncontract MatryxSubmission is Ownable, IMatryxSubmission {\n    using SafeMath for uint256;\n    using SafeMath128 for uint128;\n    using SafeMath for uint32;\n    using strings for *;\n\n\n    /************** TODO ******************/\n    /* COPY ALL FIELDS TO SUBMISSIONTRUST */           // <------------------ DON'T FORGET.\n    /************** TODO ******************/\n\n\n    // Parent identification\n    address private platformAddress;\n    address private tournamentAddress;\n    address private roundAddress;\n\n    // Submission\n    string title;\n    address author;\n    bytes descriptionHash;\n    bytes fileHash;\n    address[] references;\n    uint256 winnings;\n\n    uint256 one = 10**18;\n\n    // Tracks the normalized trust gained through peers approving this submission\n    mapping(address=>uint128) authorToApprovalTrustGiven;\n    uint128 public approvalTrust;\n    uint256 public totalPossibleTrust;\n    address[] public approvingPeers;\n\n    // Tracks the proportion of references this submission has approved\n    mapping(address=>uint128_optional) missingReferenceToIndex;\n    address[] public missingReferences;\n    mapping(address=>ReferenceInfo) addressToReferenceInfo;\n    mapping(address=>ReferenceStats) referenceStatsByAuthor;\n    uint256 public approvedReferences;\n    uint256 public totalReferenceCount;\n\n    address[] contributors;\n    mapping(address=>uint128) public contributorToBountyDividend;\n    uint128 public contributorBountyDivisor;\n    mapping(address=>uint256) public addressToAmountWithdrawn;\n    uint256 amountTransferredToReferences;\n    uint256 timeSubmitted;\n    uint256 timeUpdated;\n    bool public isPublic;\n\n    address public trustDelegate;\n    bytes4 fnSelector_addReference = bytes4(keccak256(\"addReference(address)\"));\n    bytes4 fnSelector_removeReference = bytes4(keccak256(\"removeReference(address)\"));\n    bytes4 fnSelector_approveReference = bytes4(keccak256(\"approveReference(address)\"));\n    bytes4 fnSelector_removeReferenceApproval = bytes4(keccak256(\"removeReferenceApproval(address)\"));\n    bytes4 fnSelector_flagMissingReference = bytes4(keccak256(\"flagMissingReference(address)\"));\n    bytes4 fnSelector_removeMissingReferenceFlag = bytes4(keccak256(\"removeMissingReferenceFlag(address)\"));\n\n    bytes4 fnSelector_revertIfReferenceFlagged = bytes4(keccak256(\"revertIfReferenceFlagged(address)\"));\n\n    constructor(address[] _contributors, uint128[] _contributorRewardDistribution, address[] _references, LibConstruction.RequiredSubmissionAddresses requiredAddresses, LibConstruction.SubmissionData submissionData) public\n    {\n        platformAddress = requiredAddresses.platformAddress;\n        tournamentAddress = requiredAddresses.tournamentAddress;\n        roundAddress = requiredAddresses.roundAddress;\n\n        title = submissionData.title;\n        owner = submissionData.owner;\n        author = IMatryxPlatform(platformAddress).peerAddress(owner);\n        require(author != 0x0);\n        descriptionHash = submissionData.descriptionHash;\n        fileHash = submissionData.fileHash;\n        references = _references;\n        trustDelegate = IMatryxPlatform(requiredAddresses.platformAddress).getSubmissionTrustLibrary();\n        isPublic = submissionData.isPublic;\n\n        for(uint32 i = 0; i < references.length;i++)\n        {\n            addressToReferenceInfo[references[i]].exists = true;\n            addressToReferenceInfo[references[i]].index = i;\n        }\n\n        _addContributors(_contributors, _contributorRewardDistribution);\n        \n        contributors = _contributors;\n        timeSubmitted = now;\n    }\n\n    /*\n        * Structs\n        */\n\n    struct ReferenceInfo\n    {\n        uint32 index;\n        bool exists;\n        bool approved;\n        bool flagged;\n        uint128 negativeReputationAffect;\n        uint128 positiveReputationAffect;\n        uint128 authorReputation;\n    }\n\n    struct ReferenceStats\n    {\n        uint32 numberMissing;\n        uint32 numberApproved;\n    }\n\n    struct uint128_optional\n    {\n        bool exists;\n        uint128 value;\n    }\n\n    /*\n        * Modifiers \n        */\n\n    // modifier onlyAuthor() {\n    //    \trequire(msg.sender == author);\n    //    \t_;\n    //  \t}\n\n    modifier onlyPlatform() {\n        require(msg.sender == platformAddress);\n        _;\n    }\n\n    // modifier onlyRound()\n    // {\n    // \trequire(msg.sender == roundAddress);\n    // \t_;\n    // }\n\n    modifier ownerContributorOrRound()\n    {\n        require(msg.sender == owner || contributorToBountyDividend[msg.sender] != 0 || msg.sender == roundAddress);\n        _;\n    }\n\n    modifier onlyPeer()\n    {\n        IMatryxPlatform platform = IMatryxPlatform(platformAddress);\n        require(platform.isPeer(msg.sender));\n        _;\n    }\n\n    // A modifier to ensure that information can only obtained\n    // about this submission when it should be.\n    modifier whenAccessible(address _requester)\n    {\n        require(isAccessible(_requester));\n        _;\n    }\n\n    modifier onlySubmissionOrRound()\n    {\n        require(msg.sender == roundAddress || IMatryxRound(roundAddress).submissionExists(msg.sender));\n        _;\n    }\n\n    modifier duringOpenSubmission()\n    {\n        IMatryxRound round = IMatryxRound(roundAddress);\n        require(round.getState() == 1);\n        _;\n    }\n\n    /*\n        * Getter Methods\n        */\n\n    function getTournament() public view returns (address) {\n        return tournamentAddress;\n    }\n\n    function getRound() public view returns (address) {\n        return roundAddress;\n    }\n\n    function isAccessible(address _requester) public view returns (bool)\n    {\n        IMatryxRound round = IMatryxRound(roundAddress);\n        Ownable ownableTournament = Ownable(tournamentAddress);\n\n        bool isPlatform = _requester == IMatryxTournament(tournamentAddress).getPlatform();\n        bool isRound = _requester == roundAddress;\n        bool ownsThisSubmission = _requester == owner;\n        bool submissionExternallyAccessible = isPublic;\n        bool roundAtLeastInReview = IMatryxRound(roundAddress).getState() >= 2;\n        bool requesterIsEntrant = IMatryxTournament(tournamentAddress).isEntrant(_requester);\n        bool requesterOwnsTournament = ownableTournament.getOwner() == _requester;\n        bool requesterIsContributor = IMatryxRound(roundAddress).requesterIsContributor(_requester);\n        bool duringReviewAndRequesterInTournament = roundAtLeastInReview && (requesterOwnsTournament || requesterIsEntrant || requesterIsContributor);\n        // TODO: Have a discussion about what this means (also think about next steps (encryption))\n        bool roundIsClosed = IMatryxRound(roundAddress).getState() >= 5;\n\n        return isPlatform || isRound || ownsThisSubmission || submissionExternallyAccessible || duringReviewAndRequesterInTournament || IMatryxPlatform(platformAddress).isPeer(_requester) || IMatryxPlatform(platformAddress).isSubmission(_requester) || roundIsClosed;\n    }\n\n    function getTitle() public view whenAccessible(msg.sender) returns(string) {\n        return title;\n    }\n\n    function getAuthor() public view whenAccessible(msg.sender) returns(address) {\n        return author;\n    }\n\n    function getDescriptionHash() public view whenAccessible(msg.sender) returns (bytes)\n    {\n        return descriptionHash;\n    }\n\n    function getFileHash() public view whenAccessible(msg.sender) returns (bytes)\n    {\n        return fileHash;\n    }\n\n    function getReferences() public view whenAccessible(msg.sender) returns(address[]) {\n        return references;\n    }\n\n    function getContributors() public view whenAccessible(msg.sender) returns(address[]) {\n        return contributors;\n    }\n\n    function getTimeSubmitted() public view returns(uint256) {\n        return timeSubmitted;\n    }\n\n    function getTimeUpdated() public view returns(uint256) {\n        return timeUpdated;\n    }\n\n    function getTotalWinnings() public view returns(uint256) {\n        return winnings;\n    }\n\n    /*\n        * Setter Methods\n        */\n\n    function update(address[] _contributorsToAdd, uint128[] _contributorRewardDistribution, address[] _contributorsToRemove, LibConstruction.SubmissionModificationData _data)\n    {\n        if(!_data.title.toSlice().empty())\n        {\n            title = _data.title;\n            timeUpdated = now;\n        }\n        if(_data.owner != 0x0)\n        {\n            owner = _data.owner;\n            timeUpdated = now;\n        }\n        if(_data.descriptionHash.length != 0)\n        {\n            descriptionHash = _data.descriptionHash;\n            timeUpdated = now;\n        }\n        if(_data.descriptionHash.length != 0)\n        {\n            fileHash = _data.fileHash;\n            timeUpdated = now;\n        }\n        if(_data.isPublic)\n        {\n            isPublic = _data.isPublic;\n            timeUpdated = now;\n        }\n        if(_contributorsToAdd.length != 0)\n        {\n            require(_contributorsToAdd.length == _contributorRewardDistribution.length);\n            addContributors(_contributorsToAdd, _contributorRewardDistribution);\n            timeUpdated = now;\n        }\n        if(_contributorsToRemove.length != 0)\n        {\n            removeContributors(_contributorsToRemove);\n            timeUpdated = now;\n        }\n    }\n\n    /// @dev Sets whether or not this submission can be accessed by anyone\n    /// before the end of the tournament.\n    function updateIsPublic(bool _public) public onlyOwner \n    {\n        isPublic = _public;\n    }\n\n    /// @dev Edit the title of a submission (callable only by submission's owner).\n    /// @param _title New title for the submission.\n    function updateTitle(string _title) public onlyOwner duringOpenSubmission \n    {\n        title = _title;\n    }\n\n    /// @dev Update the description hash of the submission (callable only by submission's owner).\n    /// @param _descriptionHash New hash for the description of the submission.\n    function updateDescription(bytes _descriptionHash) public onlyOwner duringOpenSubmission \n    {\n        descriptionHash = _descriptionHash;\n        timeUpdated = now;\n    }\n\n    /// @dev Update the file hash of the submission (callable only by submission's owner).\n    /// @param _fileHash New hash for the body of the submission\n    function updateFile(bytes _fileHash) public onlyOwner duringOpenSubmission\n    {\n        fileHash = _fileHash;\n        timeUpdated = now;\n    }\n\n    function addToWinnings(uint256 _amount) public onlySubmissionOrRound\n    {\n        winnings = winnings.add(_amount);\n    }\n\n    function setTrustDelegate(address _newTrustDelegate) public onlyPlatform\n    {\n        trustDelegate = _newTrustDelegate;\n    }\n\n    /// @dev Add a missing reference to a submission (callable only by submission's owner).\n    /// @param _reference Address of additional reference to include.\n\n    function addReference(address _reference) onlyOwner public \n    {\n        require(trustDelegate.delegatecall(fnSelector_addReference, _reference));\n    }\n\n    // // Debug function. ?MAYBEDO:Delete\n    // function addressIsFlagged(address _reference) public view returns (bool, bool)\n    // {\n    // \treturn (addressToReferenceInfo[_reference].flagged, missingReferenceToIndex[_reference].exists);\n    // }\n\n    /// @dev Remove an erroneous reference to a submission (callable only by submission's owner).\n    /// @param _reference Address of reference to remove.\n\n    function removeReference(address _reference) onlyOwner public\n    {\n        require(trustDelegate.delegatecall(fnSelector_removeReference, _reference));\n    }\n\n    function receiveReferenceRequest() public onlyPlatform\n    {\n        totalReferenceCount = totalReferenceCount.add(1);\n    }\n\n    function cancelReferenceRequest() public onlyPlatform\n    {\n        totalReferenceCount = totalReferenceCount.sub(1);\n    }\n\n    /// @dev Called by the owner of _reference when this submission is approved to list _reference\n    /// as a reference.\n    /// _reference Reference being approved by msg.sender.\n    function approveReference(address _reference) public onlyPeer\n    {\n        require(trustDelegate.delegatecall(fnSelector_approveReference, _reference));\n    }\n\n    /// @dev \t\t\t  Called by the owner of the _reference to remove their approval of a reference\n    ///\t\t \t\t\t  within this submission.\n    /// @param _reference Reference that peer is revoking the approval of to be included\n    ///\t\t\t\t\t  in this submission.\n    function removeReferenceApproval(address _reference) public onlyPeer\n    {\n        require(trustDelegate.delegatecall(fnSelector_removeReferenceApproval, _reference));\n    }\n\n    /// @dev \tCalled by the owner of _reference when this submission does not list _reference\n    /// \t\tas a reference.\n    /// @param  _reference Missing reference in this submission.\n    function flagMissingReference(address _reference) public onlyPeer\n    {\n        require(trustDelegate.delegatecall(fnSelector_flagMissingReference, _reference));\n    }\n\n    /// @dev \t\t\t  Called by the owner of _reference to remove a missing reference flag placed on a reference\n    ///\t\t \t\t\t  as missing.\n    /// @param _reference Reference previously marked by peer as missing.\n    function removeMissingReferenceFlag(address _reference) public onlyPeer\n    {\n        require(trustDelegate.delegatecall(fnSelector_removeMissingReferenceFlag, _reference));\n    }\n\n    /// @dev Add a contributor to a submission (callable only by submission's owner).\n    /// @param _contributor Address of contributor to add to the submission.\n    function addContributor(address _contributor, uint128 _bountyAllocation) public onlyOwner\n    {\n        contributors.push(_contributor);\n\n        contributorToBountyDividend[_contributor] = _bountyAllocation;\n        contributorBountyDivisor = contributorBountyDivisor.add(_bountyAllocation);\n\n        IMatryxRound round = IMatryxRound(roundAddress);\n        round.setParticipantType(_contributor, 2);\n    }\n\n    function addContributors(address[] _contributorsToAdd, uint128[] _distribution) public onlyOwner\n    {\n        _addContributors(_contributorsToAdd, _distribution);\n    }\n\n    function _addContributors(address[] _contributorsToAdd, uint128[] _distribution) internal\n    {\n        require(_contributorsToAdd.length == _distribution.length);\n        for(uint32 j = 0; j < _contributorsToAdd.length; j++)\n        {\n            // if one of the contributors is already there, revert\n            // otherwise, add it to the list\n            contributorBountyDivisor = contributorBountyDivisor + _distribution[j];\n            contributorToBountyDividend[_contributorsToAdd[j]] = _distribution[j];\n        }\n    }\n\n    /// @dev Remove a contributor from a submission (callable only by submission's owner).\n    /// @param _contributorIndex Index of the contributor to remove from the submission.\n    function removeContributor(uint256 _contributorIndex) onlyOwner public onlyOwner\n    {\n        contributorBountyDivisor = contributorBountyDivisor - contributorToBountyDividend[contributors[_contributorIndex]];\n        contributorToBountyDividend[contributors[_contributorIndex]] = 0;\n\n        delete contributors[_contributorIndex];\n    }\n\n    function removeContributors(address[] _contributorsToRemove) public onlyOwner\n    {\n        for(uint32 j = 0; j < _contributorsToRemove.length; j++)\n        {\n            contributorBountyDivisor = contributorBountyDivisor - contributorToBountyDividend[_contributorsToRemove[j]];\n            contributorToBountyDividend[_contributorsToRemove[j]] = 0;\n        }\n    }\n\n    function getBalance() public returns (uint256)\n    {\n        IMatryxRound round = IMatryxRound(roundAddress);\n        uint256 _balance = round.getBalance(this);\n        return _balance;\n    }\n\n    function withdrawReward() public ownerContributorOrRound\n    {\n        IMatryxToken token = IMatryxToken(IMatryxPlatform(platformAddress).getTokenAddress());\n        uint256 submissionReward = winnings;\n\n        // Transfer reward to submission author and contributors\n        uint256 transferAmount = getTransferAmount();\n\n        uint256 transferAmountLeft;\n        if(msg.sender == owner && contributors.length == 0)\n        {\n            transferAmountLeft = transferAmount.sub(addressToAmountWithdrawn[msg.sender]);\n        }\n        else\n        {\n            transferAmountLeft = _myReward(msg.sender);\n        }\n\n        token.transfer(msg.sender, transferAmountLeft);\n        addressToAmountWithdrawn[msg.sender] = addressToAmountWithdrawn[msg.sender].add(transferAmountLeft);\n        \n        if (msg.sender == owner)\n        {\n            // Distribute remaining reward to references\n            uint256 remainingReward = submissionReward.sub(transferAmount).sub(amountTransferredToReferences);\n            if(remainingReward == 0) return;\n\n            uint256 weight = (one).div(approvedReferences);\n            uint256 weightedReward = weight.mul(remainingReward).div(one);\n            for(uint j = 0; j < references.length; j++)\n            {\n                if(addressToReferenceInfo[references[j]].approved)\n                {\n                    // TODO: Revisit with trust system\n                    // uint256 weight = (addressToReferenceInfo[references[j]].authorReputation).mul(10**18).div(totalPossibleTrust);\n                    // uint256 weightedReward = remainingReward.mul(weight).div(10**18);\n                    // token.transfer(references[j], weightedReward);\n                    // IMatryxSubmission(references[j]).addToWinnings(weightedReward);\n                    \n                    token.transfer(references[j], weightedReward);\n                    IMatryxSubmission(references[j]).addToWinnings(weightedReward);\n                }\n            }\n            amountTransferredToReferences = amountTransferredToReferences.add(remainingReward);\n        }\n    }\n\n    function getTransferAmount() public view returns (uint256)\n    {\n        uint256 submissionReward = winnings;\n        if(totalPossibleTrust == 0)\n        {\n            if(missingReferences.length > 0)\n            {\n                return 0;\n            }\n\n            return submissionReward;\n        }\n\n        // TODO: Revisit with trust system\n        // transfer amount calculated as:\n        // normalizedAndReferenceCountWeightedTrustInSubmission * \n        // (1 - submissionGratitude) * \n        // submissionReward\n\n        // uint256 transferAmount = uint256(approvalTrust).mul(one - IMatryxPlatform(platformAddress).getSubmissionGratitude());\n        uint256 transferAmount = one - IMatryxPlatform(platformAddress).getSubmissionGratitude();\n        // transferAmount = transferAmount.div(totalPossibleTrust);\n        transferAmount = transferAmount.mul(submissionReward);\n        transferAmount = transferAmount.div(one);\n\n        return transferAmount;\n    }\n\n    function myReward() public view returns (uint256)\n    {\n        return _myReward(msg.sender);\n    }\n\n    function _myReward(address _sender) internal view returns(uint256)\n    {\n        uint256 authorReward = getTransferAmount().div(2);\n        if(_sender == owner)\n        {\n            return authorReward.sub(addressToAmountWithdrawn[_sender]);\n        }\n\n        uint256 contributorRewardWeight = uint256(contributorToBountyDividend[_sender]).mul(one).div(uint256(contributorBountyDivisor));\n        return contributorRewardWeight.mul(authorReward).div(one).sub(addressToAmountWithdrawn[_sender]);\n    }\n\n    // function prepareToDelete() internal\n    // {\n    // \twithdrawReward(owner);\n    // \t// TODO: Remove references on other submissions so that MTX is not burned!\n    // }\n\n    // // @dev Removes a submission permanently.\n    // \t// @param _recipient Address to send the refunded ether to.\n    // function deleteSubmission() onlyRound public\n    // {\n    // \tprepareToDelete();\n    // \tselfdestruct(author);\n    // }\n}",
  "sourcePath": "/Users/maxhoward/Desktop/Ethereum/Development/Matryx/Projects/MatryxPlatform/contracts/MatryxSubmission.sol",
  "compiler": {
    "name": "solc",
    "version": "0.4.24+commit.e67f0147.Emscripten.clang"
  },
  "schemaVersion": "2.0.0",
  "updatedAt": "2018-07-12T19:03:55.799Z"
}