{
  "contractName": "MatryxPeer",
  "abi": [
    {
      "constant": true,
      "inputs": [
        {
          "name": "_sender",
          "type": "address"
        }
      ],
      "name": "isOwner",
      "outputs": [
        {
          "name": "_isOwner",
          "type": "bool"
        }
      ],
      "payable": false,
      "stateMutability": "view",
      "type": "function"
    },
    {
      "constant": true,
      "inputs": [],
      "name": "getOwner",
      "outputs": [
        {
          "name": "_owner",
          "type": "address"
        }
      ],
      "payable": false,
      "stateMutability": "view",
      "type": "function"
    },
    {
      "constant": true,
      "inputs": [],
      "name": "owner",
      "outputs": [
        {
          "name": "",
          "type": "address"
        }
      ],
      "payable": false,
      "stateMutability": "view",
      "type": "function"
    },
    {
      "constant": false,
      "inputs": [
        {
          "name": "newOwner",
          "type": "address"
        }
      ],
      "name": "transferOwnership",
      "outputs": [],
      "payable": false,
      "stateMutability": "nonpayable",
      "type": "function"
    },
    {
      "inputs": [
        {
          "name": "_platformAddress",
          "type": "address"
        },
        {
          "name": "_owner",
          "type": "address"
        },
        {
          "name": "_initialTrust",
          "type": "uint128"
        }
      ],
      "payable": false,
      "stateMutability": "nonpayable",
      "type": "constructor"
    },
    {
      "anonymous": false,
      "inputs": [
        {
          "indexed": false,
          "name": "_submissionAddress",
          "type": "address"
        },
        {
          "indexed": false,
          "name": "reference",
          "type": "address"
        }
      ],
      "name": "ReceivedReferenceRequest",
      "type": "event"
    },
    {
      "anonymous": false,
      "inputs": [
        {
          "indexed": false,
          "name": "_submissionAddress",
          "type": "address"
        },
        {
          "indexed": false,
          "name": "reference",
          "type": "address"
        }
      ],
      "name": "ReferenceRequestCancelled",
      "type": "event"
    },
    {
      "constant": true,
      "inputs": [],
      "name": "getReputation",
      "outputs": [
        {
          "name": "",
          "type": "uint128"
        }
      ],
      "payable": false,
      "stateMutability": "view",
      "type": "function"
    },
    {
      "constant": false,
      "inputs": [
        {
          "name": "_submissionAddress",
          "type": "address"
        },
        {
          "name": "_reference",
          "type": "address"
        }
      ],
      "name": "receiveReferenceRequest",
      "outputs": [],
      "payable": false,
      "stateMutability": "nonpayable",
      "type": "function"
    },
    {
      "constant": false,
      "inputs": [
        {
          "name": "_submissionAddress",
          "type": "address"
        },
        {
          "name": "_reference",
          "type": "address"
        }
      ],
      "name": "receiveCancelledReferenceRequest",
      "outputs": [],
      "payable": false,
      "stateMutability": "nonpayable",
      "type": "function"
    },
    {
      "constant": false,
      "inputs": [
        {
          "name": "_newTotalTrust",
          "type": "uint128"
        },
        {
          "name": "_senderReputation",
          "type": "uint128"
        }
      ],
      "name": "receiveTrust",
      "outputs": [],
      "payable": false,
      "stateMutability": "nonpayable",
      "type": "function"
    },
    {
      "constant": false,
      "inputs": [
        {
          "name": "_newTotalTrust",
          "type": "uint128"
        },
        {
          "name": "_senderReputation",
          "type": "uint128"
        }
      ],
      "name": "receiveDistrust",
      "outputs": [
        {
          "name": "",
          "type": "bool"
        }
      ],
      "payable": false,
      "stateMutability": "nonpayable",
      "type": "function"
    },
    {
      "constant": true,
      "inputs": [
        {
          "name": "_peerAddress",
          "type": "address"
        }
      ],
      "name": "getPeersInfluenceOnMyReputation",
      "outputs": [
        {
          "name": "",
          "type": "uint256"
        }
      ],
      "payable": false,
      "stateMutability": "view",
      "type": "function"
    },
    {
      "constant": false,
      "inputs": [
        {
          "name": "_submissionAddress",
          "type": "address"
        },
        {
          "name": "_missingReference",
          "type": "address"
        }
      ],
      "name": "flagMissingReference",
      "outputs": [
        {
          "name": "",
          "type": "bool"
        }
      ],
      "payable": false,
      "stateMutability": "nonpayable",
      "type": "function"
    },
    {
      "constant": true,
      "inputs": [
        {
          "name": "_submissionAddress",
          "type": "address"
        }
      ],
      "name": "getMissingReferenceCount",
      "outputs": [
        {
          "name": "",
          "type": "uint128"
        },
        {
          "name": "",
          "type": "uint128"
        }
      ],
      "payable": false,
      "stateMutability": "view",
      "type": "function"
    },
    {
      "constant": false,
      "inputs": [
        {
          "name": "_submissionAddress",
          "type": "address"
        },
        {
          "name": "_missingReference",
          "type": "address"
        }
      ],
      "name": "removeMissingReferenceFlag",
      "outputs": [],
      "payable": false,
      "stateMutability": "nonpayable",
      "type": "function"
    },
    {
      "constant": false,
      "inputs": [
        {
          "name": "_submissionAddress",
          "type": "address"
        },
        {
          "name": "_reference",
          "type": "address"
        }
      ],
      "name": "approveReference",
      "outputs": [],
      "payable": false,
      "stateMutability": "nonpayable",
      "type": "function"
    },
    {
      "constant": false,
      "inputs": [
        {
          "name": "_submissionAddress",
          "type": "address"
        },
        {
          "name": "_reference",
          "type": "address"
        }
      ],
      "name": "removeReferenceApproval",
      "outputs": [],
      "payable": false,
      "stateMutability": "nonpayable",
      "type": "function"
    },
    {
      "constant": true,
      "inputs": [
        {
          "name": "_submissionAddress",
          "type": "address"
        }
      ],
      "name": "getApprovedAndTotalReferenceCounts",
      "outputs": [
        {
          "name": "",
          "type": "uint128"
        },
        {
          "name": "",
          "type": "uint128"
        }
      ],
      "payable": false,
      "stateMutability": "view",
      "type": "function"
    },
    {
      "constant": true,
      "inputs": [
        {
          "name": "_submissionAddress",
          "type": "address"
        }
      ],
      "name": "getApprovedReferenceProportion",
      "outputs": [
        {
          "name": "",
          "type": "uint128"
        }
      ],
      "payable": false,
      "stateMutability": "view",
      "type": "function"
    },
    {
      "constant": true,
      "inputs": [],
      "name": "peersJudged",
      "outputs": [
        {
          "name": "",
          "type": "uint256"
        }
      ],
      "payable": false,
      "stateMutability": "view",
      "type": "function"
    }
  ],
  "bytecode": "0x6080604052600180546001608060020a031916670de0b6b3a764000017905534801561002a57600080fd5b506040516060806124598339810160409081528151602083015191909201516000805460028054600160a060020a03968716600160a060020a03199182161790915594909316928416331790931691909117909155600380546001608060020a039092166001608060020a03199092169190911790556123aa806100af6000396000f3006080604052600436106100fb5763ffffffff7c0100000000000000000000000000000000000000000000000000000000600035041663268c7dcb81146101005780632f54bf6e146101365780634073996a1461017857806341a83f95146101b85780636a7940c9146101ec578063889b268714610249578063893d20e81461025e5780638da5cb5b1461029c57806397c22c24146102b1578063a1cc4ac1146102e5578063b6c3d15b14610319578063bc46576514610349578063c464e29414610379578063d1bbd312146103ad578063d528ff4e146103e1578063f2fde38b1461040f578063fa6daea71461043d578063ffe6a18e14610490575b600080fd5b34801561010c57600080fd5b5061013473ffffffffffffffffffffffffffffffffffffffff600435811690602435166104a5565b005b34801561014257600080fd5b5061016473ffffffffffffffffffffffffffffffffffffffff60043516610814565b604080519115158252519081900360200190f35b34801561018457600080fd5b506101a673ffffffffffffffffffffffffffffffffffffffff60043516610835565b60408051918252519081900360200190f35b3480156101c457600080fd5b5061016473ffffffffffffffffffffffffffffffffffffffff60043581169060243516610873565b3480156101f857600080fd5b5061021a73ffffffffffffffffffffffffffffffffffffffff60043516610c80565b604080516fffffffffffffffffffffffffffffffff938416815291909216602082015281519081900390910190f35b34801561025557600080fd5b506101a6610cda565b34801561026a57600080fd5b50610273610ce0565b6040805173ffffffffffffffffffffffffffffffffffffffff9092168252519081900360200190f35b3480156102a857600080fd5b50610273610cfc565b3480156102bd57600080fd5b5061013473ffffffffffffffffffffffffffffffffffffffff60043581169060243516610d18565b3480156102f157600080fd5b5061013473ffffffffffffffffffffffffffffffffffffffff60043581169060243516611033565b34801561032557600080fd5b506101346fffffffffffffffffffffffffffffffff60043581169060243516611155565b34801561035557600080fd5b506101646fffffffffffffffffffffffffffffffff600435811690602435166114bf565b34801561038557600080fd5b5061013473ffffffffffffffffffffffffffffffffffffffff60043581169060243516611884565b3480156103b957600080fd5b5061013473ffffffffffffffffffffffffffffffffffffffff60043581169060243516611b95565b3480156103ed57600080fd5b5061021a73ffffffffffffffffffffffffffffffffffffffff60043516611c5a565b34801561041b57600080fd5b5061013473ffffffffffffffffffffffffffffffffffffffff60043516611ca0565b34801561044957600080fd5b5061046b73ffffffffffffffffffffffffffffffffffffffff60043516611d2d565b604080516fffffffffffffffffffffffffffffffff9092168252519081900360200190f35b34801561049c57600080fd5b5061046b611e4c565b600080548190849073ffffffffffffffffffffffffffffffffffffffff163314806104e557503373ffffffffffffffffffffffffffffffffffffffff8216145b15156104f057600080fd5b600254604080517f818b5fa800000000000000000000000000000000000000000000000000000000815273ffffffffffffffffffffffffffffffffffffffff8089166004830152915188939290921691829163818b5fa89160248083019260209291908290030181600087803b15801561056957600080fd5b505af115801561057d573d6000803e3d6000fd5b505050506040513d602081101561059357600080fd5b505115156105a057600080fd5b600254604080517f818b5fa800000000000000000000000000000000000000000000000000000000815273ffffffffffffffffffffffffffffffffffffffff808a166004830152915189939290921691829163818b5fa89160248083019260209291908290030181600087803b15801561061957600080fd5b505af115801561062d573d6000803e3d6000fd5b505050506040513d602081101561064357600080fd5b5051151561065057600080fd5b73ffffffffffffffffffffffffffffffffffffffff89166000908152600e60205260409020546106a79070010000000000000000000000000000000090046fffffffffffffffffffffffffffffffff166001611e64565b73ffffffffffffffffffffffffffffffffffffffff808b166000818152600e602052604080822080546fffffffffffffffffffffffffffffffff9687167001000000000000000000000000000000000296169590951790945583517f0cbfdb2d000000000000000000000000000000000000000000000000000000008152928c16600484015292518c9a509092630cbfdb2d926024808201939182900301818387803b15801561075657600080fd5b505af115801561076a573d6000803e3d6000fd5b505050508673ffffffffffffffffffffffffffffffffffffffff1663a5faa1256040518163ffffffff167c0100000000000000000000000000000000000000000000000000000000028152600401602060405180830381600087803b1580156107d257600080fd5b505af11580156107e6573d6000803e3d6000fd5b505050506040513d60208110156107fc57600080fd5b5051955061080986611e8b565b505050505050505050565b60005473ffffffffffffffffffffffffffffffffffffffff91821691161490565b73ffffffffffffffffffffffffffffffffffffffff81166000908152600960205260409020546fffffffffffffffffffffffffffffffff165b919050565b600080548190819073ffffffffffffffffffffffffffffffffffffffff16331461089c57600080fd5b836000808291508173ffffffffffffffffffffffffffffffffffffffff1663893d20e86040518163ffffffff167c0100000000000000000000000000000000000000000000000000000000028152600401602060405180830381600087803b15801561090757600080fd5b505af115801561091b573d6000803e3d6000fd5b505050506040513d602081101561093157600080fd5b5051905073ffffffffffffffffffffffffffffffffffffffff8116331461095757600080fd5b600254604080517f818b5fa800000000000000000000000000000000000000000000000000000000815273ffffffffffffffffffffffffffffffffffffffff808c16600483015291518b939290921691829163818b5fa89160248083019260209291908290030181600087803b1580156109d057600080fd5b505af11580156109e4573d6000803e3d6000fd5b505050506040513d60208110156109fa57600080fd5b50511515610a0757600080fd5b600254604080517f818b5fa800000000000000000000000000000000000000000000000000000000815273ffffffffffffffffffffffffffffffffffffffff808d16600483015291518c939290921691829163818b5fa89160248083019260209291908290030181600087803b158015610a8057600080fd5b505af1158015610a94573d6000803e3d6000fd5b505050506040513d6020811015610aaa57600080fd5b50511515610ab757600080fd5b73ffffffffffffffffffffffffffffffffffffffff8c166000908152600e6020526040902054610b0e9070010000000000000000000000000000000090046fffffffffffffffffffffffffffffffff166001612055565b73ffffffffffffffffffffffffffffffffffffffff808e166000818152600e602052604080822080546fffffffffffffffffffffffffffffffff9687167001000000000000000000000000000000000296169590951790945583517f32c9c9d3000000000000000000000000000000000000000000000000000000008152928f16600484015292518f9c5090926332c9c9d3926024808201939182900301818387803b158015610bbd57600080fd5b505af1158015610bd1573d6000803e3d6000fd5b505050508873ffffffffffffffffffffffffffffffffffffffff1663a5faa1256040518163ffffffff167c0100000000000000000000000000000000000000000000000000000000028152600401602060405180830381600087803b158015610c3957600080fd5b505af1158015610c4d573d6000803e3d6000fd5b505050506040513d6020811015610c6357600080fd5b50519750610c7088612080565b9c9b505050505050505050505050565b73ffffffffffffffffffffffffffffffffffffffff166000908152600e6020526040902080546001909101546fffffffffffffffffffffffffffffffff700100000000000000000000000000000000909204821692911690565b60055490565b60005473ffffffffffffffffffffffffffffffffffffffff1690565b60005473ffffffffffffffffffffffffffffffffffffffff1681565b600254604080517f818b5fa800000000000000000000000000000000000000000000000000000000815273ffffffffffffffffffffffffffffffffffffffff8086166004830152915160009384938793911691829163818b5fa891602480830192602092919082900301818987803b158015610d9357600080fd5b505af1158015610da7573d6000803e3d6000fd5b505050506040513d6020811015610dbd57600080fd5b50511515610dca57600080fd5b600254604080517f818b5fa800000000000000000000000000000000000000000000000000000000815273ffffffffffffffffffffffffffffffffffffffff8089166004830152915188939290921691829163818b5fa89160248083019260209291908290030181600087803b158015610e4357600080fd5b505af1158015610e57573d6000803e3d6000fd5b505050506040513d6020811015610e6d57600080fd5b50511515610e7a57600080fd5b60015473ffffffffffffffffffffffffffffffffffffffff89166000908152600e6020526040902054610ec8916fffffffffffffffffffffffffffffffff918216911663ffffffff61205516565b73ffffffffffffffffffffffffffffffffffffffff8981166000818152600e602052604080822080546fffffffffffffffffffffffffffffffff19166fffffffffffffffffffffffffffffffff969096169590951790945583517fe7139ec0000000000000000000000000000000000000000000000000000000008152928b16600484015292518b9950909263e7139ec0926024808201939182900301818387803b158015610f7657600080fd5b505af1158015610f8a573d6000803e3d6000fd5b505050508573ffffffffffffffffffffffffffffffffffffffff1663a5faa1256040518163ffffffff167c0100000000000000000000000000000000000000000000000000000000028152600401602060405180830381600087803b158015610ff257600080fd5b505af1158015611006573d6000803e3d6000fd5b505050506040513d602081101561101c57600080fd5b5051945061102985611e8b565b5050505050505050565b60025473ffffffffffffffffffffffffffffffffffffffff16331461105757600080fd5b6040805173ffffffffffffffffffffffffffffffffffffffff80851682528316602082015281517f46f6444d987f5ebdf7eae0dc34572eb3119b434c84f3292d85b161737c4ec22f929181900390910190a173ffffffffffffffffffffffffffffffffffffffff82166000908152600e602052604090206001908101546110f8916fffffffffffffffffffffffffffffffff9091169063ffffffff611e6416565b73ffffffffffffffffffffffffffffffffffffffff929092166000908152600e6020526040902060010180546fffffffffffffffffffffffffffffffff19166fffffffffffffffffffffffffffffffff9093169290921790915550565b6000803330141561116557600080fd5b60005473ffffffffffffffffffffffffffffffffffffffff1633141561118a57600080fd5b600254604080517f3e44cf78000000000000000000000000000000000000000000000000000000008152336004820152905173ffffffffffffffffffffffffffffffffffffffff909216918291633e44cf789160248083019260209291908290030181600087803b1580156111fe57600080fd5b505af1158015611212573d6000803e3d6000fd5b505050506040513d602081101561122857600080fd5b5051151561123557600080fd5b336000908152600a602052604090205460ff16156112bc5733600090815260096020526040902054600354611285916fffffffffffffffffffffffffffffffff918216911663ffffffff611e6416565b600380546fffffffffffffffffffffffffffffffff19166fffffffffffffffffffffffffffffffff9290921691909117905561134f565b336000818152600a6020526040812080547fffffffffffffffffffffffffffffffffffffffffffffffffffffffffffffff00166001908117909155600b805491820181559091527f0175b7a638427703f0dbe7bb9bbf987a2551717b34e79f33b5b1008d1fa01db90180547fffffffffffffffffffffffff00000000000000000000000000000000000000001690911790555b60015433600090815260076020526040902054611387916fffffffffffffffffffffffffffffffff918216911663ffffffff61205516565b33600090815260076020818152604080842080546fffffffffffffffffffffffffffffffff199081166fffffffffffffffffffffffffffffffff978816178255600884529190942080549091168a861617905552546113e79116866122c5565b925061140b6fffffffffffffffffffffffffffffffff84168563ffffffff61230016565b600154909250611436906fffffffffffffffffffffffffffffffff808516911663ffffffff6122c516565b33600090815260096020526040902080546fffffffffffffffffffffffffffffffff19166fffffffffffffffffffffffffffffffff83811691909117909155600354919350611486911683612055565b600380546fffffffffffffffffffffffffffffffff19166fffffffffffffffffffffffffffffffff929092169190911790555050505050565b60008080333014156114d057600080fd5b60005473ffffffffffffffffffffffffffffffffffffffff163314156114f557600080fd5b600254604080517f3e44cf78000000000000000000000000000000000000000000000000000000008152336004820152905173ffffffffffffffffffffffffffffffffffffffff909216918291633e44cf789160248083019260209291908290030181600087803b15801561156957600080fd5b505af115801561157d573d6000803e3d6000fd5b505050506040513d602081101561159357600080fd5b505115156115a057600080fd5b336000908152600a602052604090205460ff161561162757336000908152600960205260409020546003546115f0916fffffffffffffffffffffffffffffffff918216911663ffffffff611e6416565b600380546fffffffffffffffffffffffffffffffff19166fffffffffffffffffffffffffffffffff929092169190911790556116ba565b336000818152600a6020526040812080547fffffffffffffffffffffffffffffffffffffffffffffffffffffffffffffff00166001908117909155600b805491820181559091527f0175b7a638427703f0dbe7bb9bbf987a2551717b34e79f33b5b1008d1fa01db90180547fffffffffffffffffffffffff00000000000000000000000000000000000000001690911790555b600154336000908152600760205260409020546fffffffffffffffffffffffffffffffff918216911610806116ff57506fffffffffffffffffffffffffffffffff8616155b1561170d576000935061187b565b60015433600090815260076020526040902054611745916fffffffffffffffffffffffffffffffff918216911663ffffffff611e6416565b33600090815260076020818152604080842080546fffffffffffffffffffffffffffffffff199081166fffffffffffffffffffffffffffffffff978816178255600884529190942080549091168b861617905552546117a59116876122c5565b92506117c96fffffffffffffffffffffffffffffffff84168663ffffffff61230016565b6001549092506117f4906fffffffffffffffffffffffffffffffff808516911663ffffffff6122c516565b33600090815260096020526040902080546fffffffffffffffffffffffffffffffff19166fffffffffffffffffffffffffffffffff83811691909117909155600354919350611844911683612055565b600380546fffffffffffffffffffffffffffffffff19166fffffffffffffffffffffffffffffffff92909216919091179055600193505b50505092915050565b600254604080517f818b5fa800000000000000000000000000000000000000000000000000000000815273ffffffffffffffffffffffffffffffffffffffff8086166004830152915160009384938793911691829163818b5fa891602480830192602092919082900301818987803b1580156118ff57600080fd5b505af1158015611913573d6000803e3d6000fd5b505050506040513d602081101561192957600080fd5b5051151561193657600080fd5b600254604080517f818b5fa800000000000000000000000000000000000000000000000000000000815273ffffffffffffffffffffffffffffffffffffffff8089166004830152915188939290921691829163818b5fa89160248083019260209291908290030181600087803b1580156119af57600080fd5b505af11580156119c3573d6000803e3d6000fd5b505050506040513d60208110156119d957600080fd5b505115156119e657600080fd5b60015473ffffffffffffffffffffffffffffffffffffffff89166000908152600e6020526040902054611a34916fffffffffffffffffffffffffffffffff918216911663ffffffff611e6416565b73ffffffffffffffffffffffffffffffffffffffff8981166000818152600e602052604080822080546fffffffffffffffffffffffffffffffff19166fffffffffffffffffffffffffffffffff969096169590951790945583517fe4e3e83a000000000000000000000000000000000000000000000000000000008152928b16600484015292518b9950909263e4e3e83a926024808201939182900301818387803b158015611ae257600080fd5b505af1158015611af6573d6000803e3d6000fd5b505050508573ffffffffffffffffffffffffffffffffffffffff1663a5faa1256040518163ffffffff167c0100000000000000000000000000000000000000000000000000000000028152600401602060405180830381600087803b158015611b5e57600080fd5b505af1158015611b72573d6000803e3d6000fd5b505050506040513d6020811015611b8857600080fd5b5051945061080985612080565b60025473ffffffffffffffffffffffffffffffffffffffff163314611bb957600080fd5b6040805173ffffffffffffffffffffffffffffffffffffffff80851682528316602082015281517f033c34e967f60202eea9737daab3184556afeb5429022244146f7927782f4298929181900390910190a173ffffffffffffffffffffffffffffffffffffffff82166000908152600e602052604090206001908101546110f8916fffffffffffffffffffffffffffffffff9091169063ffffffff61205516565b73ffffffffffffffffffffffffffffffffffffffff166000908152600e6020526040902080546001909101546fffffffffffffffffffffffffffffffff91821692911690565b60005473ffffffffffffffffffffffffffffffffffffffff163314611cc457600080fd5b73ffffffffffffffffffffffffffffffffffffffff81161515611ce657600080fd5b600080547fffffffffffffffffffffffff00000000000000000000000000000000000000001673ffffffffffffffffffffffffffffffffffffffff92909216919091179055565b73ffffffffffffffffffffffffffffffffffffffff81166000908152600e6020526040812080546001909101546fffffffffffffffffffffffffffffffff908116700100000000000000000000000000000000909204811691909101161515611d985750600061086e565b73ffffffffffffffffffffffffffffffffffffffff82166000908152600e602052604090208054600190910154611e4691611e02916fffffffffffffffffffffffffffffffff9081169170010000000000000000000000000000000090041663ffffffff61205516565b73ffffffffffffffffffffffffffffffffffffffff84166000908152600e60205260409020546fffffffffffffffffffffffffffffffff169063ffffffff6122c516565b92915050565b6003546fffffffffffffffffffffffffffffffff1690565b60006fffffffffffffffffffffffffffffffff8084169083161115611e8557fe5b50900390565b60015473ffffffffffffffffffffffffffffffffffffffff8216600090815260046020526040902054611ed9916fffffffffffffffffffffffffffffffff918216911663ffffffff61205516565b73ffffffffffffffffffffffffffffffffffffffff8216600090815260046020526040902080546fffffffffffffffffffffffffffffffff19166fffffffffffffffffffffffffffffffff928316179055600654611f3991166001612055565b600680546fffffffffffffffffffffffffffffffff19166fffffffffffffffffffffffffffffffff9283161781556005805460018101825560009182527f036b6384b5eca791c62761152d0c79bb0604c104a5fb6f4eb0703f3154bb3db00180547fffffffffffffffffffffffff00000000000000000000000000000000000000001673ffffffffffffffffffffffffffffffffffffffff86169081179091559154600354604080517fb6c3d15b0000000000000000000000000000000000000000000000000000000081529286166004840152941660248201529251919263b6c3d15b926044808301939282900301818387803b15801561203a57600080fd5b505af115801561204e573d6000803e3d6000fd5b5050505050565b60008282016fffffffffffffffffffffffffffffffff808516908216101561207957fe5b9392505050565b60015473ffffffffffffffffffffffffffffffffffffffff821660009081526004602052604081205490916fffffffffffffffffffffffffffffffff9081169116106121a75760015473ffffffffffffffffffffffffffffffffffffffff8316600090815260046020526040902054612114916fffffffffffffffffffffffffffffffff918216911663ffffffff611e6416565b73ffffffffffffffffffffffffffffffffffffffff8316600090815260046020526040902080546fffffffffffffffffffffffffffffffff19166fffffffffffffffffffffffffffffffff92831617905560065461217491166001611e64565b600680546fffffffffffffffffffffffffffffffff19166fffffffffffffffffffffffffffffffff929092169190911790555b6005805460018101825560009182527f036b6384b5eca791c62761152d0c79bb0604c104a5fb6f4eb0703f3154bb3db00180547fffffffffffffffffffffffff00000000000000000000000000000000000000001673ffffffffffffffffffffffffffffffffffffffff8516908117909155600654600354604080517fbc4657650000000000000000000000000000000000000000000000000000000081526fffffffffffffffffffffffffffffffff938416600482015292909116602483015251919263bc465765926044808401936020939083900390910190829087803b15801561229357600080fd5b505af11580156122a7573d6000803e3d6000fd5b505050506040513d60208110156122bd57600080fd5b505192915050565b600080826fffffffffffffffffffffffffffffffff16846fffffffffffffffffffffffffffffffff168115156122f757fe5b04949350505050565b60008282026fffffffffffffffffffffffffffffffff841615806123765750826fffffffffffffffffffffffffffffffff16846fffffffffffffffffffffffffffffffff16826fffffffffffffffffffffffffffffffff1681151561236157fe5b046fffffffffffffffffffffffffffffffff16145b151561207957fe00a165627a7a7230582078a71beb4f0a291e9cfc8dfe0e73699e0b1b24b968153ceecc497a4d2cd3b0930029",
  "source": "pragma solidity ^0.4.18;\n\nimport '../libraries/math/SafeMath.sol';\nimport '../libraries/math/SafeMath128.sol';\nimport '../interfaces/IMatryxPlatform.sol';\nimport '../interfaces/IMatryxTournament.sol';\nimport '../interfaces/IMatryxRound.sol';\nimport '../interfaces/IMatryxSubmission.sol';\nimport './Ownable.sol';\n\n/// @title MatryxPeer - A peer within the MatryxPlatform.\n/// @author Max Howard - <max@nanome.ai>\ncontract MatryxPeer is Ownable {\n\tusing SafeMath for uint256;\n\tusing SafeMath128 for uint128;\n\n\tuint128 one_eighteenDecimal = 1*10**18;\n\n\t// TODO: condense and put in structs\n\taddress platformAddress;\n\n\tuint128 globalTrust;\n\tmapping(address=>uint128) judgedPeerToUnnormalizedTrust;\n\taddress[] judgedPeers;\n\tuint128 totalTrustGiven;\n\tmapping(address=>uint128) judgingPeerToUnnormalizedTrust;\n\tmapping(address=>uint128) judgingPeerToTotalTrustGiven;\n\n\tmapping(address=>uint128) judgingPeerToInfluenceOnMyReputation;\n\tmapping(address=>bool) peerHasJudgedMe;\n\taddress[] judgingPeers;\n\n\t// Tracks the proportion of references this peer has approved on a given submission\n\tmapping(address=>uint256) submissionToApprovedReferences;\n\tmapping(address=>uint256) submissionToReferenceCount;\n\tmapping(address=>ReferencesMetadata) submissionToReferencesMetadata;\n\n\tevent ReceivedReferenceRequest(address _submissionAddress, address reference);\n\tevent ReferenceRequestCancelled(address _submissionAddress, address reference);\n\n\t/*\n\t * Structs\n\t */\n\n\tstruct ReferencesMetadata\n\t{\n\t\tuint128 approvedReferenceCount;\n\t\tuint128 missingReferenceCount;\n\t\tuint128 totalReferenceCount;\n\t}\n\n\t/*\n\t * Modifiers\n\t */\n\n\tmodifier onlyPlatform()\n\t{\n\t\trequire(msg.sender == platformAddress);\n\t\t_;\n\t}\n\n\tmodifier onlyPeer()\n\t{\n\t\tIMatryxPlatform platform = IMatryxPlatform(platformAddress);\n\t\trequire(platform.isPeer(msg.sender));\n\t\t_;\n\t}\n\n\tmodifier notMe()\n\t{\n\t\trequire(msg.sender != address(this));\n\t\t_;\n\t}\n\n\tmodifier notOwner()\n\t{\n\t\trequire(msg.sender != owner);\n\t\t_;\n\t}\n\n\tmodifier ownerOrSubmission(address _submission)\n\t{\n\t\trequire((msg.sender == owner) || (msg.sender == _submission));\n\t\t_;\n\t}\n\n\tmodifier forExistingSubmission(address _submission)\n\t{\n\t\tIMatryxPlatform platform = IMatryxPlatform(platformAddress);\n\t\trequire(platform.isSubmission(_submission));\n\t\t_;\n\t}\n\n\tmodifier senderOwnsReference(address _reference)\n\t{\n\t\tOwnable referencedSubmission = Ownable(_reference);\n\t\taddress referenceOwner = referencedSubmission.getOwner();\n\t\trequire(referenceOwner == msg.sender);\n\t\t_;\n\t}\n\n\tconstructor(address _platformAddress, address _owner, uint128 _initialTrust) public\n\t{\n\t\tplatformAddress = _platformAddress;\n\t\towner = _owner;\n\t\tglobalTrust = _initialTrust;\n\t}\n\n\tfunction getReputation() public constant returns (uint128)\n\t{\n\t\treturn globalTrust;\n\t}\n\n\tfunction receiveReferenceRequest(address _submissionAddress, address _reference) public onlyPlatform\n\t{\n\t\tReceivedReferenceRequest(_submissionAddress, _reference);\n\t\tsubmissionToReferencesMetadata[_submissionAddress].totalReferenceCount = submissionToReferencesMetadata[_submissionAddress].totalReferenceCount.add(1);\n\t}\n\n\tfunction receiveCancelledReferenceRequest(address _submissionAddress, address _reference) public onlyPlatform\n\t{\n\t\tReferenceRequestCancelled(_submissionAddress, _reference);\n\t\tsubmissionToReferencesMetadata[_submissionAddress].totalReferenceCount = submissionToReferencesMetadata[_submissionAddress].totalReferenceCount.sub(1);\n\t}\n\n\tfunction giveTrust(address _peer) internal\n\t{\n\t\tjudgedPeerToUnnormalizedTrust[_peer] = judgedPeerToUnnormalizedTrust[_peer].add(one_eighteenDecimal);\n\t\ttotalTrustGiven = totalTrustGiven.add(1);\n\t\tjudgedPeers.push(_peer);\n\n\t\tMatryxPeer(_peer).receiveTrust(totalTrustGiven, globalTrust);\n\t}\n\n\tfunction giveDistrust(address _peer) internal returns (bool)\n\t{\n\t\tif(judgedPeerToUnnormalizedTrust[_peer] >= one_eighteenDecimal)\n\t\t{\n\t\t\tjudgedPeerToUnnormalizedTrust[_peer] = judgedPeerToUnnormalizedTrust[_peer].sub(one_eighteenDecimal);\n\t\t\ttotalTrustGiven = totalTrustGiven.sub(1);\n\t\t}\n\n\t\tjudgedPeers.push(_peer);\n\t\treturn MatryxPeer(_peer).receiveDistrust(totalTrustGiven, globalTrust);\n\t}\n\n\tfunction receiveTrust(uint128 _newTotalTrust, uint128 _senderReputation) public notMe notOwner onlyPeer\n\t{\t\n\t\t// remove peer's influence on my reputation before adding their new influence\n\t\tif(peerHasJudgedMe[msg.sender])\n\t\t{\n\t\t\tglobalTrust = globalTrust.sub(judgingPeerToInfluenceOnMyReputation[msg.sender]);\n\t\t}\n\t\t// if we've never been judged by this peer before,\n\t\t// update state to reflect that we have now.\n\t\telse \n\t\t{\n\t\t\tpeerHasJudgedMe[msg.sender] = true;\n\t\t\tjudgingPeers.push(msg.sender);\n\t\t}\n\n\t\t// update state variables so we can look at them later\n\t\tjudgingPeerToUnnormalizedTrust[msg.sender] = judgingPeerToUnnormalizedTrust[msg.sender].add(one_eighteenDecimal);\n\t\tjudgingPeerToTotalTrustGiven[msg.sender] = _newTotalTrust;\n\t\t// calculate peer's new influence on my reputation\n\t\tuint128 peersNewNormalizedOpinionOfMe = judgingPeerToUnnormalizedTrust[msg.sender].div(_newTotalTrust);\n\t\tuint128 peersNewInfluenceOnMyReputation = peersNewNormalizedOpinionOfMe.mul(_senderReputation);\n\t\t// _senderReputation and peersNewNormalizedOpinionOfMe are both 18 decimal numbers;\n\t\t// we must divide by 1*10**18 in order to retain the correct number of decimals.\n\t\tpeersNewInfluenceOnMyReputation = peersNewInfluenceOnMyReputation.div(one_eighteenDecimal);\n\t\tjudgingPeerToInfluenceOnMyReputation[msg.sender] = peersNewInfluenceOnMyReputation;\n\t\t// add this influence to my reputation\n\t\tglobalTrust = globalTrust.add(peersNewInfluenceOnMyReputation);\n\t}\n\n\tfunction receiveDistrust(uint128 _newTotalTrust, uint128 _senderReputation) public notMe notOwner onlyPeer returns (bool)\n\t{\n\t\t// remove peer's influence on my reputation before adding their new influence\n\t\tif(peerHasJudgedMe[msg.sender])\n\t\t{\n\t\t\tglobalTrust = globalTrust.sub(judgingPeerToInfluenceOnMyReputation[msg.sender]);\n\t\t}\n\t\t// if we've never been judged by this peer before,\n\t\t// update state to reflect that we have now.\n\t\telse\n\t\t{\n\t\t\tpeerHasJudgedMe[msg.sender] = true;\n\t\t\tjudgingPeers.push(msg.sender);\n\t\t}\n\n\t\tif((judgingPeerToUnnormalizedTrust[msg.sender] < one_eighteenDecimal) || (_newTotalTrust == 0))\n\t\t{\n\t\t\treturn false;\n\t\t}\n\n\t\tjudgingPeerToUnnormalizedTrust[msg.sender] = judgingPeerToUnnormalizedTrust[msg.sender].sub(one_eighteenDecimal);\n\t\tjudgingPeerToTotalTrustGiven[msg.sender] = _newTotalTrust;\n\t\t// calculate peer's new influence on my reputation\n\t\tuint128 peersNewNormalizedOpinionOfMe = judgingPeerToUnnormalizedTrust[msg.sender].div(_newTotalTrust);\n\t\tuint128 peersNewInfluenceOnMyReputation = peersNewNormalizedOpinionOfMe.mul(_senderReputation);\n\t\t// _senderReputation and peersNewNormalizedOpinionOfMe are both 18 decimal numbers;\n\t\t// we must divide by 1*10**18 in order to retain the correct number of decimals.\n\t\tpeersNewInfluenceOnMyReputation = peersNewInfluenceOnMyReputation.div(one_eighteenDecimal);\n\t\tjudgingPeerToInfluenceOnMyReputation[msg.sender] = peersNewInfluenceOnMyReputation;\n\t\t// add this influence to my reputation\n\t\tglobalTrust = globalTrust.add(peersNewInfluenceOnMyReputation);\n\t\treturn true;\n\t}\n\n\tfunction getPeersInfluenceOnMyReputation(address _peerAddress) public constant returns (uint256)\n\t{\n\t\treturn judgingPeerToInfluenceOnMyReputation[_peerAddress];\n\t}\n\n\t/// @dev \t\t\t\t\t  Flags a missing reference to a submission within another\n\t///\t\t\t\t\t\t\t  submission. This method should be called by the owner of\n\t/// \t\t\t\t\t\t  this peer in order to approve a reference to one of\n\t/// \t \t\t\t\t\t  their works within someone else's submission.\n\t/// @param _submissionAddress Address of the submission missing a reference.\n\t/// @param _missingReference  Reference that is missing.\n\tfunction flagMissingReference(address _submissionAddress, address _missingReference) public onlyOwner senderOwnsReference(_missingReference) forExistingSubmission(_submissionAddress) forExistingSubmission(_missingReference) returns (bool)\n\t{\n\t\t// Require that we're the author of the reference we're claiming is missing.\n\t\t// Require that the platform knows the submission.\n\t\t// Require that the platform knows the reference we're attempting to flag.\n\t\t\n\t\t// Add 1 to the state vars keeping track of the number of\n\t\t// this peer's submissions that _submission fails to reference\n\t\t// as well as the submission's total number of references to submissions by this peer\n\t\tsubmissionToReferencesMetadata[_submissionAddress].missingReferenceCount = submissionToReferencesMetadata[_submissionAddress].missingReferenceCount.add(1);\n\n\t\tIMatryxSubmission submission = IMatryxSubmission(_submissionAddress);\n\t\tsubmission.flagMissingReference(_missingReference);\n\n\t\taddress submissionAuthor = submission.getAuthor();\n\t\treturn giveDistrust(submissionAuthor);\n\t}\n\n\tfunction getMissingReferenceCount(address _submissionAddress) public constant returns (uint128, uint128)\n\t{\n\t\treturn (submissionToReferencesMetadata[_submissionAddress].missingReferenceCount, submissionToReferencesMetadata[_submissionAddress].totalReferenceCount);\n\t}\n\n\t/// @dev\t\t\t\t\t  Removes a flag on a missing reference from a submission.\n\t/// @param _submissionAddress Address of the submission which was previously flagged as missing a reference\n\t///\t\t\t\t\t\t\t  to this peer's work.\n\t/// @param _missingReference  Address of the reference to vindicate.\n\tfunction removeMissingReferenceFlag(address _submissionAddress, address _missingReference) public ownerOrSubmission(_submissionAddress) forExistingSubmission(_submissionAddress) forExistingSubmission(_missingReference)\n\t{\n\t\t// Require that the platform knows the submission.\n\t\t// Require that the platform knows the reference we'd like to vindicate.\n\t\t// Require that we're the author of the reference we're attempting to vindicate\n\n\t\tsubmissionToReferencesMetadata[_submissionAddress].missingReferenceCount = submissionToReferencesMetadata[_submissionAddress].missingReferenceCount.sub(1);\n\n\t\tIMatryxSubmission submission = IMatryxSubmission(_submissionAddress);\n\t\tsubmission.removeMissingReferenceFlag(_missingReference);\n\n\t\taddress submissionAuthor = submission.getAuthor();\n\t\tgiveTrust(submissionAuthor);\n\t}\n\n\t/// @dev \t\t\t\t\t  Approve of a reference to a submission written by this peer\n\t/// \t\t\t\t\t\t  on another submission. This method should be called by the \n\t/// \t \t\t\t\t\t  owner of this peer in order to approve a reference to one  \n\t/// \t \t\t\t\t\t  of their works within someone else's submission.\n\t/// @param _submissionAddress Address of the submission on which to approve the reference.\n\t/// @param _reference \t\t  Reference to approve.\n\tfunction approveReference(address _submissionAddress, address _reference) public /*onlyOwner senderOwnsReference(_reference)*/ forExistingSubmission(_submissionAddress) forExistingSubmission(_reference)\n\t{\n\t\t// Require that we're the author of the reference we're attempting to approve\n\t\t// Require that the platform knows the submission.\n\t\t// Require that the platform knows the reference we'd like to approve.\n\t\t\n\t\t// Add 1 to the state var keeping track of the number of approved references on this submission\n\t\tsubmissionToReferencesMetadata[_submissionAddress].approvedReferenceCount = submissionToReferencesMetadata[_submissionAddress].approvedReferenceCount.add(one_eighteenDecimal);\n\t\t\n\t\tIMatryxSubmission submission = IMatryxSubmission(_submissionAddress);\n\t\tsubmission.approveReference(_reference);\n\n\t\taddress submissionAuthor = submission.getAuthor();\n\t\tgiveTrust(submissionAuthor);\n\t}\n\n\t/// @dev \t\t\t\t\t  Remove approval of a reference from a submission.\n\t/// @param _submissionAddress Address of the submission which was previously given an approval\n\t/// \t\t\t\t\t\t  for one of its references.\n\t/// @param _reference \t\t  Address of the reference to decry.\n\tfunction removeReferenceApproval(address _submissionAddress, address _reference) public /*ownerOrSubmission(_submissionAddress)*/ forExistingSubmission(_submissionAddress) forExistingSubmission(_reference)\n\t{\n\t\t// Require that the platform knows the submission.\n\t\t// Require that the platform knows the reference we'd like to decry.\n\t\t// Require that we're the author of the reference we're attempting to decry.\n\n\t\t// Remove 1 from the state var keeping track of the number of approved references on this submission\n\t\tsubmissionToReferencesMetadata[_submissionAddress].approvedReferenceCount = submissionToReferencesMetadata[_submissionAddress].approvedReferenceCount.sub(one_eighteenDecimal);\n\n\t\tIMatryxSubmission submission = IMatryxSubmission(_submissionAddress);\n\t\tsubmission.removeReferenceApproval(_reference);\n\n\t\taddress submissionAuthor = submission.getAuthor();\n\t\tgiveDistrust(submissionAuthor);\n\t}\n\n\tfunction getApprovedAndTotalReferenceCounts(address _submissionAddress) public constant returns (uint128, uint128)\n\t{\n\t\treturn (submissionToReferencesMetadata[_submissionAddress].approvedReferenceCount, submissionToReferencesMetadata[_submissionAddress].totalReferenceCount);\n\t}\n\n\tfunction getApprovedReferenceProportion(address _submissionAddress) public constant returns (uint128)\n\t{\n\t\tif(submissionToReferencesMetadata[_submissionAddress].totalReferenceCount + submissionToReferencesMetadata[_submissionAddress].missingReferenceCount == 0)\n\t\t{\n\t\t\treturn 0;\n\t\t}\n\n\t\treturn submissionToReferencesMetadata[_submissionAddress].approvedReferenceCount.div(submissionToReferencesMetadata[_submissionAddress].totalReferenceCount.add(submissionToReferencesMetadata[_submissionAddress].missingReferenceCount));\n\t}\n\n\tfunction peersJudged() public constant returns (uint256)\n\t{\n\t\treturn judgedPeers.length;\n\t}\n\n\t// function normalizedTrustInPeer(address _peer) public /*onlyOwner*/ constant returns (uint128)\n\t// {\n\t// \tuint128 normalizedTrust = judgedPeerToUnnormalizedTrust[_peer].div(totalTrustGiven);\n\t// \tif(normalizedTrust > 0)\n\t// \t{\n\t// \t\treturn normalizedTrust;\n\t// \t}\n\n\t// \treturn 0;\n\t// }\n}",
  "sourcePath": "/Users/maxhoward/Desktop/Ethereum/Development/Matryx/Projects/MatryxPlatform/contracts/MatryxPeer.sol",
  "compiler": {
    "name": "solc",
    "version": "0.4.24+commit.e67f0147.Emscripten.clang"
  },
  "schemaVersion": "2.0.0",
  "updatedAt": "2018-06-20T21:32:35.766Z"
}