{
  "contractName": "MatryxRound",
  "abi": [
    {
      "constant": true,
      "inputs": [],
      "name": "tournamentAddress",
      "outputs": [
        {
          "name": "",
          "type": "address"
        }
      ],
      "payable": false,
      "stateMutability": "view",
      "type": "function"
    },
    {
      "constant": true,
      "inputs": [],
      "name": "matryxSubmissionFactoryAddress",
      "outputs": [
        {
          "name": "",
          "type": "address"
        }
      ],
      "payable": false,
      "stateMutability": "view",
      "type": "function"
    },
    {
      "constant": true,
      "inputs": [],
      "name": "platformAddress",
      "outputs": [
        {
          "name": "",
          "type": "address"
        }
      ],
      "payable": false,
      "stateMutability": "view",
      "type": "function"
    },
    {
      "inputs": [
        {
          "name": "_platformAddress",
          "type": "address"
        },
        {
          "name": "_tournamentAddress",
          "type": "address"
        },
        {
          "name": "_submissionFactoryAddress",
          "type": "address"
        },
        {
          "components": [
            {
              "name": "start",
              "type": "uint256"
            },
            {
              "name": "end",
              "type": "uint256"
            },
            {
              "name": "reviewPeriodDuration",
              "type": "uint256"
            },
            {
              "name": "bounty",
              "type": "uint256"
            },
            {
              "name": "closed",
              "type": "bool"
            }
          ],
          "name": "_roundData",
          "type": "tuple"
        }
      ],
      "payable": false,
      "stateMutability": "nonpayable",
      "type": "constructor"
    },
    {
      "constant": true,
      "inputs": [
        {
          "name": "_submissionAddress",
          "type": "address"
        }
      ],
      "name": "submissionExists",
      "outputs": [
        {
          "name": "",
          "type": "bool"
        }
      ],
      "payable": false,
      "stateMutability": "view",
      "type": "function"
    },
    {
      "constant": false,
      "inputs": [
        {
          "name": "_mtxAllocation",
          "type": "uint256"
        }
      ],
      "name": "addBounty",
      "outputs": [],
      "payable": false,
      "stateMutability": "nonpayable",
      "type": "function"
    },
    {
      "constant": true,
      "inputs": [],
      "name": "getState",
      "outputs": [
        {
          "name": "",
          "type": "uint256"
        }
      ],
      "payable": false,
      "stateMutability": "view",
      "type": "function"
    },
    {
      "constant": true,
      "inputs": [],
      "name": "getPlatform",
      "outputs": [
        {
          "name": "",
          "type": "address"
        }
      ],
      "payable": false,
      "stateMutability": "view",
      "type": "function"
    },
    {
      "constant": true,
      "inputs": [],
      "name": "getTournament",
      "outputs": [
        {
          "name": "",
          "type": "address"
        }
      ],
      "payable": false,
      "stateMutability": "view",
      "type": "function"
    },
    {
      "constant": true,
      "inputs": [],
      "name": "getData",
      "outputs": [
        {
          "components": [
            {
              "name": "start",
              "type": "uint256"
            },
            {
              "name": "end",
              "type": "uint256"
            },
            {
              "name": "reviewPeriodDuration",
              "type": "uint256"
            },
            {
              "name": "bounty",
              "type": "uint256"
            },
            {
              "name": "closed",
              "type": "bool"
            }
          ],
          "name": "_roundData",
          "type": "tuple"
        }
      ],
      "payable": false,
      "stateMutability": "view",
      "type": "function"
    },
    {
      "constant": true,
      "inputs": [],
      "name": "getStartTime",
      "outputs": [
        {
          "name": "",
          "type": "uint256"
        }
      ],
      "payable": false,
      "stateMutability": "view",
      "type": "function"
    },
    {
      "constant": true,
      "inputs": [],
      "name": "getEndTime",
      "outputs": [
        {
          "name": "",
          "type": "uint256"
        }
      ],
      "payable": false,
      "stateMutability": "view",
      "type": "function"
    },
    {
      "constant": true,
      "inputs": [],
      "name": "getReviewPeriodDuration",
      "outputs": [
        {
          "name": "",
          "type": "uint256"
        }
      ],
      "payable": false,
      "stateMutability": "view",
      "type": "function"
    },
    {
      "constant": true,
      "inputs": [],
      "name": "getBounty",
      "outputs": [
        {
          "name": "",
          "type": "uint256"
        }
      ],
      "payable": false,
      "stateMutability": "view",
      "type": "function"
    },
    {
      "constant": true,
      "inputs": [],
      "name": "getRemainingBounty",
      "outputs": [
        {
          "name": "",
          "type": "uint256"
        }
      ],
      "payable": false,
      "stateMutability": "view",
      "type": "function"
    },
    {
      "constant": true,
      "inputs": [],
      "name": "getTokenAddress",
      "outputs": [
        {
          "name": "",
          "type": "address"
        }
      ],
      "payable": false,
      "stateMutability": "view",
      "type": "function"
    },
    {
      "constant": true,
      "inputs": [],
      "name": "getSubmissions",
      "outputs": [
        {
          "name": "_submissions",
          "type": "address[]"
        }
      ],
      "payable": false,
      "stateMutability": "view",
      "type": "function"
    },
    {
      "constant": true,
      "inputs": [
        {
          "name": "_submissionAddress",
          "type": "address"
        }
      ],
      "name": "getBalance",
      "outputs": [
        {
          "name": "",
          "type": "uint256"
        }
      ],
      "payable": false,
      "stateMutability": "view",
      "type": "function"
    },
    {
      "constant": true,
      "inputs": [],
      "name": "getRoundBalance",
      "outputs": [
        {
          "name": "",
          "type": "uint256"
        }
      ],
      "payable": false,
      "stateMutability": "view",
      "type": "function"
    },
    {
      "constant": true,
      "inputs": [],
      "name": "submissionsChosen",
      "outputs": [
        {
          "name": "",
          "type": "bool"
        }
      ],
      "payable": false,
      "stateMutability": "view",
      "type": "function"
    },
    {
      "constant": true,
      "inputs": [],
      "name": "getWinningSubmissionAddresses",
      "outputs": [
        {
          "name": "",
          "type": "address[]"
        }
      ],
      "payable": false,
      "stateMutability": "view",
      "type": "function"
    },
    {
      "constant": true,
      "inputs": [],
      "name": "numberOfSubmissions",
      "outputs": [
        {
          "name": "",
          "type": "uint256"
        }
      ],
      "payable": false,
      "stateMutability": "view",
      "type": "function"
    },
    {
      "constant": false,
      "inputs": [
        {
          "name": "_currentRoundEndTime",
          "type": "uint256"
        },
        {
          "components": [
            {
              "name": "start",
              "type": "uint256"
            },
            {
              "name": "end",
              "type": "uint256"
            },
            {
              "name": "reviewPeriodDuration",
              "type": "uint256"
            },
            {
              "name": "bounty",
              "type": "uint256"
            },
            {
              "name": "closed",
              "type": "bool"
            }
          ],
          "name": "_roundData",
          "type": "tuple"
        }
      ],
      "name": "editRound",
      "outputs": [],
      "payable": false,
      "stateMutability": "nonpayable",
      "type": "function"
    },
    {
      "constant": false,
      "inputs": [
        {
          "name": "_amount",
          "type": "uint256"
        }
      ],
      "name": "transferToTournament",
      "outputs": [],
      "payable": false,
      "stateMutability": "nonpayable",
      "type": "function"
    },
    {
      "constant": false,
      "inputs": [
        {
          "components": [
            {
              "name": "winningSubmissions",
              "type": "address[]"
            },
            {
              "name": "rewardDistribution",
              "type": "uint256[]"
            },
            {
              "name": "selectWinnerAction",
              "type": "uint256"
            },
            {
              "name": "rewardDistributionTotal",
              "type": "uint256"
            }
          ],
          "name": "_selectWinnersData",
          "type": "tuple"
        },
        {
          "components": [
            {
              "name": "start",
              "type": "uint256"
            },
            {
              "name": "end",
              "type": "uint256"
            },
            {
              "name": "reviewPeriodDuration",
              "type": "uint256"
            },
            {
              "name": "bounty",
              "type": "uint256"
            },
            {
              "name": "closed",
              "type": "bool"
            }
          ],
          "name": "_roundData",
          "type": "tuple"
        }
      ],
      "name": "selectWinningSubmissions",
      "outputs": [],
      "payable": false,
      "stateMutability": "nonpayable",
      "type": "function"
    },
    {
      "constant": false,
      "inputs": [],
      "name": "transferBountyToTournament",
      "outputs": [
        {
          "name": "",
          "type": "uint256"
        }
      ],
      "payable": false,
      "stateMutability": "nonpayable",
      "type": "function"
    },
    {
      "constant": false,
      "inputs": [
        {
          "name": "_tournamentBalance",
          "type": "uint256"
        }
      ],
      "name": "transferAllToWinners",
      "outputs": [],
      "payable": false,
      "stateMutability": "nonpayable",
      "type": "function"
    },
    {
      "constant": false,
      "inputs": [],
      "name": "startNow",
      "outputs": [],
      "payable": false,
      "stateMutability": "nonpayable",
      "type": "function"
    },
    {
      "constant": false,
      "inputs": [],
      "name": "closeRound",
      "outputs": [],
      "payable": false,
      "stateMutability": "nonpayable",
      "type": "function"
    },
    {
      "constant": false,
      "inputs": [
        {
          "name": "_owner",
          "type": "address"
        },
        {
          "name": "platformAddress",
          "type": "address"
        },
        {
          "components": [
            {
              "name": "title",
              "type": "bytes32[3]"
            },
            {
              "name": "descriptionHash",
              "type": "bytes32[2]"
            },
            {
              "name": "fileHash",
              "type": "bytes32[2]"
            },
            {
              "name": "timeSubmitted",
              "type": "uint256"
            },
            {
              "name": "timeUpdated",
              "type": "uint256"
            }
          ],
          "name": "submissionData",
          "type": "tuple"
        }
      ],
      "name": "createSubmission",
      "outputs": [
        {
          "name": "_submissionAddress",
          "type": "address"
        }
      ],
      "payable": false,
      "stateMutability": "nonpayable",
      "type": "function"
    }
  ],
  "bytecode": "0x60806040523480156200001157600080fd5b5060405161010080620023b0833981018060405262000034919081019062000154565b60008054600160a060020a0319908116600160a060020a039687161790915560018054821694861694909417909355600280549093169190931617905580516003556020810151600455604081015160055560600151600655620001fb565b6000620000a18251620001e7565b9392505050565b6000620000a18251620001f3565b600060a08284031215620000c957600080fd5b620000d560a0620001bf565b90506000620000e5848462000146565b8252506020620000f88484830162000146565b60208301525060406200010e8482850162000146565b6040830152506060620001248482850162000146565b60608301525060806200013a84828501620000a8565b60808301525092915050565b6000620000a18251620001f8565b60008060008061010085870312156200016c57600080fd5b60006200017a878762000093565b94505060206200018d8782880162000093565b9350506040620001a08782880162000093565b9250506060620001b387828801620000b6565b91505092959194509250565b60405181810167ffffffffffffffff81118282101715620001df57600080fd5b604052919050565b600160a060020a031690565b151590565b90565b6121a5806200020b6000396000f3006080604052600436106101745763ffffffff7c010000000000000000000000000000000000000000000000000000000060003504166303d66a97811461017957806307417cf1146101a45780630e3db9f2146101c657806310fe9ae8146101dd5780631865c57d146101f2578063241b15ad146102075780632f0713bb1461021c5780632fc1f1901461023c578063389994f91461025157806338e43895146102735780633bc5de3014610293578063439f5ac2146102b55780635325cdba146102ca57806354f6aa20146102ea57806357c60fb01461030c5780637bc935be1461032c578063856646fd146103415780638fa4e7b914610361578063b0ff549214610381578063b6a3497514610396578063c828371e146103b6578063dbe55e56146103cb578063e278fe6f146103e0578063e45ceed2146103f5578063e76c293e1461040a578063e9e8b446146103f5578063ed0984601461041f578063f49bff7b14610434578063f8b2cb4f14610449575b600080fd5b34801561018557600080fd5b5061018e610469565b60405161019b9190611f61565b60405180910390f35b3480156101b057600080fd5b506101b9610485565b60405161019b91906120b5565b3480156101d257600080fd5b506101db610626565b005b3480156101e957600080fd5b5061018e610681565b3480156101fe57600080fd5b506101b9610745565b34801561021357600080fd5b506101b9610807565b34801561022857600080fd5b506101db610237366004611c3f565b61080d565b34801561024857600080fd5b5061018e6109b8565b34801561025d57600080fd5b506102666109d4565b60405161019b9190612026565b34801561027f57600080fd5b506101db61028e366004611c3f565b6109dc565b34801561029f57600080fd5b506102a8610a19565b60405161019b9190612042565b3480156102c157600080fd5b506101b9610a5b565b3480156102d657600080fd5b506101db6102e5366004611c3f565b610a61565b3480156102f657600080fd5b506102ff610d76565b60405161019b9190612015565b34801561031857600080fd5b5061018e610327366004611b82565b610de8565b34801561033857600080fd5b506101b96111b9565b34801561034d57600080fd5b506101db61035c366004611bee565b6111bf565b34801561036d57600080fd5b506101db61037c366004611c7b565b611291565b34801561038d57600080fd5b5061018e61130a565b3480156103a257600080fd5b506102666103b1366004611b3e565b611326565b3480156103c257600080fd5b506101b9611351565b3480156103d757600080fd5b5061018e611357565b3480156103ec57600080fd5b506101db611373565b34801561040157600080fd5b506101b96113d8565b34801561041657600080fd5b5061018e611519565b34801561042b57600080fd5b506102ff611535565b34801561044057600080fd5b506101b96115a5565b34801561045557600080fd5b506101b9610464366004611b3e565b6115ab565b60015473ffffffffffffffffffffffffffffffffffffffff1681565b600154600090819073ffffffffffffffffffffffffffffffffffffffff1633146104ae57600080fd5b6104b66113d8565b90506000809054906101000a900473ffffffffffffffffffffffffffffffffffffffff1673ffffffffffffffffffffffffffffffffffffffff166310fe9ae86040518163ffffffff167c0100000000000000000000000000000000000000000000000000000000028152600401602060405180830381600087803b15801561053d57600080fd5b505af1158015610551573d6000803e3d6000fd5b505050506040513d601f19601f820116820180604052506105759190810190611b64565b6001546040517fa9059cbb00000000000000000000000000000000000000000000000000000000815273ffffffffffffffffffffffffffffffffffffffff9283169263a9059cbb926105ce929116908590600401611ffa565b602060405180830381600087803b1580156105e857600080fd5b505af11580156105fc573d6000803e3d6000fd5b505050506040513d601f19601f820116820180604052506106209190810190611bd0565b50919050565b60015460009073ffffffffffffffffffffffffffffffffffffffff16331461064d57600080fd5b6003546004546106629163ffffffff61171616565b42600381905590915061067b908263ffffffff61172816565b60045550565b60008060009054906101000a900473ffffffffffffffffffffffffffffffffffffffff1673ffffffffffffffffffffffffffffffffffffffff166310fe9ae86040518163ffffffff167c0100000000000000000000000000000000000000000000000000000000028152600401602060405180830381600087803b15801561070857600080fd5b505af115801561071c573d6000803e3d6000fd5b505050506040513d601f19601f820116820180604052506107409190810190611b64565b905090565b600080546040517f05b00ec100000000000000000000000000000000000000000000000000000000815273__LibRound______________________________916305b00ec1916107b79173ffffffffffffffffffffffffffffffffffffffff1690600390600890600c90600401611fbc565b60206040518083038186803b1580156107cf57600080fd5b505af41580156107e3573d6000803e3d6000fd5b505050506040513d601f19601f820116820180604052506107409190810190611c5d565b600c5490565b60015473ffffffffffffffffffffffffffffffffffffffff16331461083157600080fd5b600061083b610745565b1461084557600080fd5b6000809054906101000a900473ffffffffffffffffffffffffffffffffffffffff1673ffffffffffffffffffffffffffffffffffffffff166310fe9ae86040518163ffffffff167c0100000000000000000000000000000000000000000000000000000000028152600401602060405180830381600087803b1580156108ca57600080fd5b505af11580156108de573d6000803e3d6000fd5b505050506040513d601f19601f820116820180604052506109029190810190611b64565b73ffffffffffffffffffffffffffffffffffffffff1663a9059cbb33836040518363ffffffff167c0100000000000000000000000000000000000000000000000000000000028152600401610958929190611ffa565b602060405180830381600087803b15801561097257600080fd5b505af1158015610986573d6000803e3d6000fd5b505050506040513d601f19601f820116820180604052506109aa9190810190611bd0565b15156109b557600080fd5b50565b60005473ffffffffffffffffffffffffffffffffffffffff1690565b600854151590565b60015473ffffffffffffffffffffffffffffffffffffffff163314610a0057600080fd5b600654610a13908263ffffffff61172816565b60065550565b610a21611779565b506040805160a0810182526003548152600454602082015260055491810191909152600654606082015260075460ff161515608082015290565b60045490565b60015460009081908190819073ffffffffffffffffffffffffffffffffffffffff163314610a8e57600080fd5b600654610abb90670de0b6b3a764000090610aaf908863ffffffff61172816565b9063ffffffff61173e16565b600b54909450610ad990670de0b6b3a764000063ffffffff61173e16565b9250600091505b600854821015610d6f57610b2983610b1d86600860010186815481101515610b0457fe5b906000526020600020015461173e90919063ffffffff16565b9063ffffffff61176216565b90506000809054906101000a900473ffffffffffffffffffffffffffffffffffffffff1673ffffffffffffffffffffffffffffffffffffffff166310fe9ae86040518163ffffffff167c0100000000000000000000000000000000000000000000000000000000028152600401602060405180830381600087803b158015610bb057600080fd5b505af1158015610bc4573d6000803e3d6000fd5b505050506040513d601f19601f82011682018060405250610be89190810190611b64565b73ffffffffffffffffffffffffffffffffffffffff1663a9059cbb600860000184815481101515610c1557fe5b6000918252602090912001546040517c010000000000000000000000000000000000000000000000000000000063ffffffff8416028152610c719173ffffffffffffffffffffffffffffffffffffffff16908590600401611ffa565b602060405180830381600087803b158015610c8b57600080fd5b505af1158015610c9f573d6000803e3d6000fd5b505050506040513d601f19601f82011682018060405250610cc39190810190611bd0565b506008805483908110610cd257fe5b6000918252602090912001546040517f09b542bb00000000000000000000000000000000000000000000000000000000815273ffffffffffffffffffffffffffffffffffffffff909116906309b542bb90610d319084906004016120b5565b600060405180830381600087803b158015610d4b57600080fd5b505af1158015610d5f573d6000803e3d6000fd5b505060019093019250610ae09050565b5050505050565b6060600c600001805480602002602001604051908101604052809291908181526020018280548015610dde57602002820191906000526020600020905b815473ffffffffffffffffffffffffffffffffffffffff168152600190910190602001808311610db3575b5050505050905090565b6001546000908190819073ffffffffffffffffffffffffffffffffffffffff163314610e1357600080fd5b6002610e1d610745565b14610e2757600080fd5b73ffffffffffffffffffffffffffffffffffffffff86161515610e4957600080fd5b6002546001546040517f6c4074f700000000000000000000000000000000000000000000000000000000815273ffffffffffffffffffffffffffffffffffffffff92831692636c4074f792610eaa928b928b92169030908b90600401611f6f565b602060405180830381600087803b158015610ec457600080fd5b505af1158015610ed8573d6000803e3d6000fd5b505050506040513d601f19601f82011682018060405250610efc9190810190611b64565b73ffffffffffffffffffffffffffffffffffffffff8082166000818152600f602052604080822080547fffffffffffffffffffffffffffffffffffffffffffffffffffffffffffffff00166001908117909155600c805491820181559092527fdf6966c971051c3d54ec59162606531493a51404a002842f56009d7e5cf4a8c790910180547fffffffffffffffffffffffff000000000000000000000000000000000000000016909217909155517f6a44e43d000000000000000000000000000000000000000000000000000000008152919350861690636a44e43d90610fe7908990600401611f61565b602060405180830381600087803b15801561100157600080fd5b505af1158015611015573d6000803e3d6000fd5b505050506040513d601f19601f820116820180604052506110399190810190611b64565b73ffffffffffffffffffffffffffffffffffffffff81166000908152600e602052604090205490915015156110d957600d80546001810182556000919091527fd7b6990105719101dabeb77144f2a3385c8033acd3af97e9423a695e81ad1eb50180547fffffffffffffffffffffffff00000000000000000000000000000000000000001673ffffffffffffffffffffffffffffffffffffffff88161790555b73ffffffffffffffffffffffffffffffffffffffff8181166000908152600e602090815260408083208054600180820183559185529290932090910180547fffffffffffffffffffffffff000000000000000000000000000000000000000016868516179055905490517f4644c51b000000000000000000000000000000000000000000000000000000008152911690634644c51b9061117d908590600401611f61565b600060405180830381600087803b15801561119757600080fd5b505af11580156111ab573d6000803e3d6000fd5b509398975050505050505050565b60055490565b60015473ffffffffffffffffffffffffffffffffffffffff1633146111e357600080fd5b60045415156111f157600080fd5b60036111fb610745565b1461120557600080fd5b6040517f6e86d66200000000000000000000000000000000000000000000000000000000815273__LibRound______________________________90636e86d6629061125d9060039060089087908790600401612050565b60006040518083038186803b15801561127557600080fd5b505af4158015611289573d6000803e3d6000fd5b505050505050565b60015473ffffffffffffffffffffffffffffffffffffffff1633146112b557600080fd5b6040517fb666875000000000000000000000000000000000000000000000000000000000815273__LibRound______________________________9063b66687509061125d906003908690869060040161208d565b60025473ffffffffffffffffffffffffffffffffffffffff1681565b73ffffffffffffffffffffffffffffffffffffffff166000908152600f602052604090205460ff1690565b60035490565b60005473ffffffffffffffffffffffffffffffffffffffff1681565b60015473ffffffffffffffffffffffffffffffffffffffff16331461139757600080fd5b60046113a1610745565b146113ab57600080fd5b600780547fffffffffffffffffffffffffffffffffffffffffffffffffffffffffffffff00166001179055565b60008060009054906101000a900473ffffffffffffffffffffffffffffffffffffffff1673ffffffffffffffffffffffffffffffffffffffff166310fe9ae86040518163ffffffff167c0100000000000000000000000000000000000000000000000000000000028152600401602060405180830381600087803b15801561145f57600080fd5b505af1158015611473573d6000803e3d6000fd5b505050506040513d601f19601f820116820180604052506114979190810190611b64565b73ffffffffffffffffffffffffffffffffffffffff166370a08231306040518263ffffffff167c01000000000000000000000000000000000000000000000000000000000281526004016114eb9190612034565b602060405180830381600087803b15801561150557600080fd5b505af11580156107e3573d6000803e3d6000fd5b60015473ffffffffffffffffffffffffffffffffffffffff1690565b60606008600001805480602002602001604051908101604052809291908181526020018280548015610dde5760200282019190600052602060002090815473ffffffffffffffffffffffffffffffffffffffff168152600190910190602001808311610db3575050505050905090565b60065490565b60008060009054906101000a900473ffffffffffffffffffffffffffffffffffffffff1673ffffffffffffffffffffffffffffffffffffffff166310fe9ae86040518163ffffffff167c0100000000000000000000000000000000000000000000000000000000028152600401602060405180830381600087803b15801561163257600080fd5b505af1158015611646573d6000803e3d6000fd5b505050506040513d601f19601f8201168201806040525061166a9190810190611b64565b73ffffffffffffffffffffffffffffffffffffffff166370a08231836040518263ffffffff167c01000000000000000000000000000000000000000000000000000000000281526004016116be9190611f61565b602060405180830381600087803b1580156116d857600080fd5b505af11580156116ec573d6000803e3d6000fd5b505050506040513d601f19601f820116820180604052506117109190810190611c5d565b92915050565b60008282111561172257fe5b50900390565b60008282018381101561173757fe5b9392505050565b600082820283158061175a575082848281151561175757fe5b04145b151561173757fe5b600080828481151561177057fe5b04949350505050565b60a060405190810160405280600081526020016000815260200160008152602001600081526020016000151581525090565b60006117378235612142565b60006117378251612142565b6000601f820183136117d457600080fd5b81356117e76117e2826120ea565b6120c3565b9150818183526020840193506020810190508385602084028201111561180c57600080fd5b60005b83811015611838578161182288826117ab565b845250602092830192919091019060010161180f565b5050505092915050565b6000601f8201831361185357600080fd5b60026118616117e28261210b565b9150818385602084028201111561187757600080fd5b60005b83811015611838578161188d888261198c565b845250602092830192919091019060010161187a565b6000601f820183136118b457600080fd5b60036118c26117e28261210b565b915081838560208402820111156118d857600080fd5b60005b8381101561183857816118ee888261198c565b84525060209283019291909101906001016118db565b6000601f8201831361191557600080fd5b81356119236117e2826120ea565b9150818183526020840193506020810190508385602084028201111561194857600080fd5b60005b83811015611838578161195e888261198c565b845250602092830192919091019060010161194b565b6000611737823561215b565b6000611737825161215b565b6000611737823561212f565b600060a082840312156119aa57600080fd5b6119b460a06120c3565b905060006119c2848461198c565b82525060206119d38484830161198c565b60208301525060406119e78482850161198c565b60408301525060606119fb8482850161198c565b6060830152506080611a0f84828501611974565b60808301525092915050565b600060808284031215611a2d57600080fd5b611a3760806120c3565b9050813567ffffffffffffffff811115611a5057600080fd5b611a5c848285016117c3565b825250602082013567ffffffffffffffff811115611a7957600080fd5b611a8584828501611904565b6020830152506040611a998482850161198c565b6040830152506060611aad8482850161198c565b60608301525092915050565b60006101208284031215611acc57600080fd5b611ad660a06120c3565b90506000611ae484846118a3565b8252506060611af584848301611842565b60208301525060a0611b0984828501611842565b60408301525060e0611b1d8482850161198c565b606083015250610100611a0f8482850161198c565b6000611737825161212f565b600060208284031215611b5057600080fd5b6000611b5c84846117ab565b949350505050565b600060208284031215611b7657600080fd5b6000611b5c84846117b7565b60008060006101608486031215611b9857600080fd5b6000611ba486866117ab565b9350506020611bb5868287016117ab565b9250506040611bc686828701611ab9565b9150509250925092565b600060208284031215611be257600080fd5b6000611b5c8484611980565b60008060c08385031215611c0157600080fd5b823567ffffffffffffffff811115611c1857600080fd5b611c2485828601611a1b565b9250506020611c3585828601611998565b9150509250929050565b600060208284031215611c5157600080fd5b6000611b5c848461198c565b600060208284031215611c6f57600080fd5b6000611b5c8484611b32565b60008060c08385031215611c8e57600080fd5b6000611c24858561198c565b611ca381612142565b82525050565b6000611cb482612132565b808452602084019350611cc683612129565b60005b82811015611cf657611cdc868351611c9a565b611ce582612129565b602096909601959150600101611cc9565b5093949350505050565b6000611d0b82612132565b808452602084019350611d1d83612129565b60005b82811015611cf657611d33868351611c9a565b611d3c82612129565b602096909601959150600101611d20565b611d5681612136565b611d5f8261212f565b60005b82811015610d6f57611d75858351611e27565b611d7e82612129565b602095909501949150600101611d62565b611d988161213c565b611da18261212f565b60005b82811015610d6f57611db7858351611e27565b611dc082612129565b602095909501949150600101611da4565b6000611ddc82612132565b808452602084019350611dee83612129565b60005b82811015611cf657611e04868351611e27565b611e0d82612129565b602096909601959150600101611df1565b611ca38161215b565b611ca38161212f565b611ca381612160565b805160a0830190611e4a8482611e27565b506020820151611e5d6020850182611e27565b506040820151611e706040850182611e27565b506060820151611e836060850182611e27565b506080820151611e966080850182611e1e565b50505050565b9052565b8051608080845260009190840190611eb88282611d00565b91505060208301518482036020860152611ed28282611dd1565b9150506040830151611ee76040860182611e27565b506060830151611efa6060860182611e27565b509392505050565b8051610120830190611f148482611d8f565b506020820151611f276060850182611d4d565b506040820151611f3a60a0850182611d4d565b506060820151611f4d60e0850182611e27565b506080820151611e96610100850182611e27565b602081016117108284611c9a565b6101a08101611f7e8288611c9a565b611f8b6020830187611c9a565b611f986040830186611c9a565b611fa56060830185611e30565b611fb26080830184611f02565b9695505050505050565b60808101611fca8287611c9a565b611fd76020830186611e9c565b611fe46040830185611e9c565b611ff16060830184611e9c565b95945050505050565b604081016120088285611c9a565b6117376020830184611e27565b602080825281016117378184611ca9565b602081016117108284611e1e565b602081016117108284611e30565b60a081016117108284611e39565b610100810161205f8287611e9c565b61206c6020830186611e9c565b818103604083015261207e8185611ea0565b9050611ff16060830184611e39565b60e0810161209b8286611e9c565b6120a86020830185611e27565b611b5c6040830184611e39565b602081016117108284611e27565b60405181810167ffffffffffffffff811182821017156120e257600080fd5b604052919050565b600067ffffffffffffffff82111561210157600080fd5b5060209081020190565b600067ffffffffffffffff82111561212257600080fd5b5060200290565b60200190565b90565b5190565b50600290565b50600390565b73ffffffffffffffffffffffffffffffffffffffff1690565b151590565b6000611710826121425600a265627a7a72305820f693a64e07cf1aa9d75b65d5cf51ed826edf8584f8036cdec916c1cdf26cfd446c6578706572696d656e74616cf50037",
  "source": "pragma solidity ^0.4.18;\npragma experimental ABIEncoderV2;\n\nimport \"../libraries/math/SafeMath.sol\";\nimport \"../libraries/LibConstruction.sol\";\nimport \"../libraries/round/LibRound.sol\";\nimport \"../libraries/LibIterable.sol\";\nimport \"../libraries/LibEnums.sol\";\nimport \"../interfaces/IMatryxToken.sol\";\nimport \"../interfaces/IMatryxPlatform.sol\";\nimport \"../interfaces/IMatryxTournament.sol\";\nimport \"../interfaces/IMatryxRound.sol\";\nimport \"../interfaces/factories/IMatryxRoundFactory.sol\";\nimport \"../interfaces/factories/IMatryxSubmissionFactory.sol\";\nimport \"../interfaces/IMatryxSubmission.sol\";\nimport \"./Ownable.sol\";\n\n/// @title MatryxRound - A round within a Matryx tournament.\n/// @author Max Howard - <max@nanome.ai>, Sam Hessenauer - <sam@nanome.ai>\ncontract MatryxRound is IMatryxRound {\n    using SafeMath for uint256;\n\n    // TODO: allow for refunds\n    // TODO: condense and put in structs\n\n    address public platformAddress;\n    address public tournamentAddress;\n    address public matryxSubmissionFactoryAddress;\n\n    LibConstruction.RoundData data;\n    LibRound.SelectWinnersData winningSubmissionsData;\n    LibRound.SubmissionsData submissionsData;\n    LibRound.SubmissionAndEntrantTracking submissionEntrantTrackingData;\n\n    constructor(address _platformAddress, address _tournamentAddress, address _submissionFactoryAddress, LibConstruction.RoundData _roundData) public\n    {\n        platformAddress = _platformAddress;\n        tournamentAddress = _tournamentAddress;\n        matryxSubmissionFactoryAddress = _submissionFactoryAddress;\n\n        data.start = _roundData.start;\n        data.end = _roundData.end;\n        data.reviewPeriodDuration = _roundData.reviewPeriodDuration;\n        data.bounty = _roundData.bounty;\n    }\n\n    /*\n     * Modifiers\n     */\n\n    /// @dev Requires that this round is in the open submission state.\n    modifier duringOpenRound()\n    {\n        require(getState() == uint256(LibEnums.RoundState.Open));\n        _;\n    }\n\n    /// @dev Requires that this round is in the winner selection state.\n    modifier duringReviewPeriod()\n    {\n        require(data.end != 0);\n        require(getState() == uint256(LibEnums.RoundState.InReview));\n        _;\n    }\n\n    /// @dev Requires that this round already has chosen winners\n    modifier hasWinners()\n    {\n        require(getState() == uint256(LibEnums.RoundState.HasWinners));\n        _;\n    }\n\n    // @dev Requires that a winner has been selected for this round.\n    // modifier afterWinnerSelected()\n    // {\n    // \trequire(winningSubmissions[0] != 0x0);\n    // \t_;\n    // }\n\n    // Unused\n    // modifier onlySubmission()\n    // {\n    //     require(submissionEntrantTrackingData.submissionExists[msg.sender]);\n    //     _;\n    // }\n\n    modifier onlyTournament()\n    {\n        require(msg.sender == tournamentAddress);\n        _;\n    }\n\n    // Unused\n    /// @dev Requires that the desired submission is accessible to the requester.\n    // modifier whenAccessible(address _requester, uint256 _index)\n    // {\n    //     require(IMatryxSubmission(submissionsData.submissions[_index]).isAccessible(_requester));\n    //     _;\n    // }\n\n    function submissionExists(address _submissionAddress) public view returns (bool)\n    {\n        return submissionEntrantTrackingData.submissionExists[_submissionAddress];\n    }\n\n    /// @dev Requires the function caller to be the platform or the owner of this tournament\n    // modifier tournamentOrOwner()\n    // {\n    //     require((msg.sender == tournamentAddress)||(msg.sender == owner));\n    //     _;\n    // }\n\n    // Unused\n    // @dev Requires that the sender be the submission's author.\n    // modifier onlySubmissionAuthor()\n    // {\n    //     require(submissionEntrantTrackingData.authorToSubmissionAddress[msg.sender].length != 0);\n    //     _;\n    // }\n\n    /*\n     * State Maintenance Methods\n     */\n\n    // function removeSubmission(address _submissionAddress) public onlyTournament returns (bool)\n    // {\n            // TODO: Implement with LLLLL (optimized linked list)\n    // \t}\n    // }\n\n    function addBounty(uint256 _mtxAllocation) public onlyTournament\n    {\n        data.bounty = data.bounty.add(_mtxAllocation);\n    }\n\n    /*\n     * Access Control Methods\n     */\n\n    //TODO - LLL THIS Function\n    // @dev Returns the state of the round.\n    // The round can be in one of 6 states:\n    // NotYetOpen, Open, InReview, HasWinners, Closed, Abandoned\n    function getState() public view returns (uint256)\n    {\n        return LibRound.getState(platformAddress, data, winningSubmissionsData, submissionsData);\n    }\n\n    /*\n     * Getter Methods\n     */\n\n    function getPlatform() public view returns (address)\n    {\n        return platformAddress;\n    }\n\n    function getTournament() public view returns (address)\n    {\n        return tournamentAddress;\n    }\n\n    function getData() public view returns (LibConstruction.RoundData _roundData) {\n        return data;\n    }\n\n    function getStartTime() public view returns (uint256)\n    {\n        return data.start;\n    }\n\n    function getEndTime() public view returns (uint256)\n    {\n        return data.end;\n    }\n\n    function getReviewPeriodDuration() public view returns (uint256)\n    {\n        return data.reviewPeriodDuration;\n    }\n\n    function getBounty() public view returns (uint256)\n    {\n        return data.bounty;\n    }\n\n    function getRemainingBounty() public view returns (uint256)\n    {\n        return IMatryxToken(IMatryxPlatform(platformAddress).getTokenAddress()).balanceOf(this);\n    }\n\n    function getTokenAddress() public view returns (address)\n    {\n        return IMatryxPlatform(platformAddress).getTokenAddress();\n    }\n\n    /// @dev Returns all submissions made to this round.\n    /// @return _submissions All submissions made to this round.\n    function getSubmissions() public view returns (address[] _submissions)\n    {\n        return submissionsData.submissions;\n    }\n\n    /// @dev Returns the balance of a particular submission\n    /// @param _submissionAddress Address of the submission\n    /// @return Balance of the bounty\n    function getBalance(address _submissionAddress) public view returns (uint256)\n    {\n        return IMatryxToken(IMatryxPlatform(platformAddress).getTokenAddress()).balanceOf(_submissionAddress);\n    }\n\n    function getRoundBalance() public view returns (uint256)\n    {\n        return IMatryxToken(IMatryxPlatform(platformAddress).getTokenAddress()).balanceOf(this);\n    }\n\n    /// @dev Returns whether or not a winning submission has been chosen.\n    /// @return Whether or not a submission has been chosen.\n    function submissionsChosen() public view returns (bool)\n    {\n        return winningSubmissionsData.winningSubmissions.length != 0;\n    }\n\n    /// @dev Returns the index of this round's winning submission.\n    /// @return Index of the winning submission.\n    function getWinningSubmissionAddresses() public view returns (address[])\n    {\n        return winningSubmissionsData.winningSubmissions;\n    }\n\n    /// @dev Returns the number of submissions made to this round.\n    /// @return Number of submissions made to this round.\n    function numberOfSubmissions() public view returns (uint256)\n    {\n        return submissionsData.submissions.length;\n    }\n\n    /*\n     * Round Admin Methods\n     */\n\n    /// @dev Allows the tournament to edit the\n    function editRound(uint256 _currentRoundEndTime, LibConstruction.RoundData _roundData) public onlyTournament\n    {\n        LibRound.editRound(data, _currentRoundEndTime, _roundData);\n    }\n\n    function transferToTournament(uint256 _amount) public onlyTournament\n    {\n        require(getState() == uint256(LibEnums.RoundState.NotYetOpen));\n        require(IMatryxToken(IMatryxPlatform(platformAddress).getTokenAddress()).transfer(msg.sender, _amount));\n    }\n\n    /// @dev Choose a winning submission for the round (callable only by the owner of the round).\n    /// @param _selectWinnersData Data containing:\n    ///   winningSubmissions: Addresses of the winning submissions\n    ///   rewardDistribution: Distribution indicating how to split the MTX reward among the submissions\n    ///   rewardDistributionTotal: (Unused)\n    /// @param _roundData Data containing:\n    ///   start: Start time (seconds since unix-epoch) for next round\n    ///   end: End time (seconds since unix-epoch) for next round\n    ///   reviewPeriodDuration: Number of seconds to allow for winning submissions to be selected in next round\n    ///   bounty: Bounty in MTX for next round\n    ///   closed: (Unused)\n    function selectWinningSubmissions(LibRound.SelectWinnersData _selectWinnersData, LibConstruction.RoundData _roundData) public onlyTournament duringReviewPeriod\n    {\n        LibRound.selectWinningSubmissions(data, winningSubmissionsData, _selectWinnersData, _roundData);\n    }\n\n    /// @dev Allows contributors to withdraw a portion of the round bounty if the round has been abandoned.\n    function transferBountyToTournament() public onlyTournament returns (uint256)\n    {\n        uint256 remaining = getRemainingBounty();\n        IMatryxToken(IMatryxPlatform(platformAddress).getTokenAddress()).transfer(tournamentAddress, remaining);\n        return remaining;\n    }\n\n    function transferAllToWinners(uint256 _tournamentBalance) public onlyTournament\n    {\n        // Calculate total reward denominator\n        uint256 totalBalance = data.bounty.add(_tournamentBalance).mul(10**18);\n        uint256 totalDist = winningSubmissionsData.rewardDistributionTotal.mul(10**18);\n\n        for(uint256 i = 0; i < winningSubmissionsData.winningSubmissions.length; i++)\n        {\n            // Calculate reward numerator based on distribution for this specific submission\n            // uint256 reward = winningSubmissionsData.rewardDistribution[i].mul(1*10**18).div(winningSubmissionsData.rewardDistributionTotal).mul(totalBalance).div(1*10**18);\n            uint256 reward = winningSubmissionsData.rewardDistribution[i].mul(totalBalance).div(totalDist);\n            // Transfer the reward to the submission\n            IMatryxToken(IMatryxPlatform(platformAddress).getTokenAddress()).transfer(winningSubmissionsData.winningSubmissions[i], reward);\n            IMatryxSubmission(winningSubmissionsData.winningSubmissions[i]).addToWinnings(reward);\n        }\n    }\n\n    function startNow() public onlyTournament\n    {\n        uint256 duration = data.end.sub(data.start);\n        data.start = now;\n        data.end = data.start.add(duration);\n    }\n\n    function closeRound() public onlyTournament hasWinners\n    {\n        data.closed = true;\n    }\n\n    /*\n     * Entrant Methods\n     */\n\n    /// @dev Create a new submission. Called by MatryxTournament\n    /// @param _owner Owner of this submission.\n    /// @param submissionData The data of the submission. Includes:\n    ///\t\ttitle: Title of the submission.\n    ///\t\towner: The owner of the submission.\n    ///\t\tcontentHash: Off-chain content hash of submission details (ipfs hash)\n    ///\t\tcontributors: Contributors to this submission.\n    ///\t\tcontributorRewardDistribution: Informs how the reward should be distributed among the contributors\n    /// \tshould this submission win.\n    ///\t\treferences: Addresses of submissions referenced in creating this submission.\n    /// @return _submissionAddress Location of this submission within this round.\n    function createSubmission(address _owner, address platformAddress, LibConstruction.SubmissionData submissionData) public onlyTournament duringOpenRound returns (address _submissionAddress)\n    {\n        require(_owner != 0x0);\n\n        address submissionAddress = IMatryxSubmissionFactory(matryxSubmissionFactoryAddress).createSubmission(_owner, platformAddress, tournamentAddress, this, submissionData);\n        // submission bookkeeping\n        submissionEntrantTrackingData.submissionExists[submissionAddress] = true;\n        submissionsData.submissions.push(submissionAddress);\n        // TODO: Change to 'authors.push' once MatryxPeer is part of MatryxPlatform\n        address submissionAuthor = IMatryxPlatform(platformAddress).peerAddress(_owner);\n        if(submissionEntrantTrackingData.authorToSubmissionAddress[submissionAuthor].length == 0)\n        {\n            submissionsData.submissionOwners.push(_owner);\n        }\n\n        submissionEntrantTrackingData.authorToSubmissionAddress[submissionAuthor].push(submissionAddress);\n\n        IMatryxTournament(tournamentAddress).invokeSubmissionCreatedEvent(submissionAddress);\n        return submissionAddress;\n    }\n\n    // function pullPayoutIntoSubmission() public onlySubmission returns (uint256)\n    // {\n    //     require(getState() == uint256(LibEnums.RoundState.Closed));\n    //     // If the submission's already been paid, revert\n    //     require(submissionToHasBeenPayed[msg.sender] == false);\n    //     // If the tournament closed, we need to pull the tournament funds into this round.\n    //     if(IMatryxTournament(tournamentAddress).getState() == uint256(LibEnums.TournamentState.Closed) && getRemainingBounty() > 0)\n    //     {\n    //         IMatryxTournament(tournamentAddress).pullRemainingBountyIntoRound();\n    //     }\n\n    //     // Transfer the reward to its recipient if it deserves a reward (and mark that its been given out)\n\n    //     for(uint256 i = 0; i < winningSubmissions.length; i++)\n    //     {\n    //         if(msg.sender == winningSubmissions[i])\n    //         {\n    //             submissionToHasBeenPayed[msg.sender] = true;\n    //             // Calculate total reward denominator and store it somewhere when\n    //             uint256 reward = (rewardDistribution[i].mul(1*10**18).div(rewardDistributionTotal)).mul(bounty);\n    //             // Transfer the reward to the submission\n    //             IMatryxToken(matryxTokenAddress).transfer(msg.sender, reward);\n    //             return reward;\n    //         }\n    //     }\n\n    //     // TODO:\n    //     // Or we could never transfer funds to the round in the first place.\n    //     // This would allow this function to exist on the tournament instead of the round.\n    //     // I'd need to reintroduce bountyLeft so that the tournament knew how much is left for the round.\n    //     // If I reintroduced it, it would be to the tournament, so that submission.withdrawReward wouldn't have to call round.bountyLeft to figure out how much to ask the tournament for.\n    //     // The tournament would just transfer as much as the submission deserved into it.\n    //     // bountyLeft would be stored as a value under a rounds structure.\n    //     // This would eventually involve writing a library to do round functions.\n    //     // For now, this can be a hardcoded library.\n    //     // Eventually, this library will be part of the upgrade system.\n    //     // Upgrade system will eventually allow for data, data migration and code contracts to exist and be swapped per contract\n    //     // All data and code contract addresses will be sourced from one contract, the MatryxVersionManager.\n    //     // This contract will also contain data migrators to migrate from one version to another (for when data structures change)\n    // }\n}\n",
  "sourcePath": "/Users/maxhoward/Desktop/Ethereum/MatryxPlatform/contracts/MatryxRound.sol",
  "compiler": {
    "name": "solc",
    "version": "0.4.24+commit.e67f0147.Emscripten.clang"
  },
  "schemaVersion": "2.0.1",
  "updatedAt": "2018-08-08T23:33:46.293Z"
}