{
  "contractName": "MatryxTournamentFactory",
  "abi": [
    {
      "constant": true,
      "inputs": [],
      "name": "matryxTokenAddress",
      "outputs": [
        {
          "name": "",
          "type": "address"
        }
      ],
      "payable": false,
      "stateMutability": "view",
      "type": "function"
    },
    {
      "constant": true,
      "inputs": [
        {
          "name": "_sender",
          "type": "address"
        }
      ],
      "name": "isOwner",
      "outputs": [
        {
          "name": "_isOwner",
          "type": "bool"
        }
      ],
      "payable": false,
      "stateMutability": "view",
      "type": "function"
    },
    {
      "constant": true,
      "inputs": [],
      "name": "matryxRoundFactoryAddress",
      "outputs": [
        {
          "name": "",
          "type": "address"
        }
      ],
      "payable": false,
      "stateMutability": "view",
      "type": "function"
    },
    {
      "constant": true,
      "inputs": [],
      "name": "getOwner",
      "outputs": [
        {
          "name": "_owner",
          "type": "address"
        }
      ],
      "payable": false,
      "stateMutability": "view",
      "type": "function"
    },
    {
      "constant": true,
      "inputs": [],
      "name": "owner",
      "outputs": [
        {
          "name": "",
          "type": "address"
        }
      ],
      "payable": false,
      "stateMutability": "view",
      "type": "function"
    },
    {
      "constant": true,
      "inputs": [],
      "name": "platformAddress",
      "outputs": [
        {
          "name": "",
          "type": "address"
        }
      ],
      "payable": false,
      "stateMutability": "view",
      "type": "function"
    },
    {
      "constant": false,
      "inputs": [
        {
          "name": "newOwner",
          "type": "address"
        }
      ],
      "name": "transferOwnership",
      "outputs": [],
      "payable": false,
      "stateMutability": "nonpayable",
      "type": "function"
    },
    {
      "inputs": [
        {
          "name": "_matryxTokenAddress",
          "type": "address"
        },
        {
          "name": "_matryxRoundFactoryAddress",
          "type": "address"
        }
      ],
      "payable": false,
      "stateMutability": "nonpayable",
      "type": "constructor"
    },
    {
      "constant": false,
      "inputs": [
        {
          "name": "_owner",
          "type": "address"
        },
        {
          "name": "_category",
          "type": "string"
        },
        {
          "name": "_tournamentTitle",
          "type": "string"
        },
        {
          "name": "_externalAddress",
          "type": "bytes"
        },
        {
          "name": "_BountyMTX",
          "type": "uint256"
        },
        {
          "name": "_entryFee",
          "type": "uint256"
        }
      ],
      "name": "createTournament",
      "outputs": [
        {
          "name": "_tournamentAddress",
          "type": "address"
        }
      ],
      "payable": false,
      "stateMutability": "nonpayable",
      "type": "function"
    },
    {
      "constant": false,
      "inputs": [
        {
          "name": "_platformAddress",
          "type": "address"
        }
      ],
      "name": "setPlatform",
      "outputs": [],
      "payable": false,
      "stateMutability": "nonpayable",
      "type": "function"
    }
  ],
  "bytecode": "0x6060604052341561000f57600080fd5b604051604080613170833981016040528080519190602001805160008054600160a060020a03338116600160a060020a0319928316179092556001805496831696821696909617909555600380549190921694169390931790925550506130f58061007b6000396000f3006060604052600436106100985763ffffffff7c01000000000000000000000000000000000000000000000000000000006000350416631021b496811461009d57806329cc545e146101bd5780632f54bf6e146101d05780636945c5ea146102105780636fe564201461023e578063893d20e8146102515780638da5cb5b14610264578063dbe55e5614610277578063f2fde38b1461028a575b600080fd5b34156100a857600080fd5b6101946004803573ffffffffffffffffffffffffffffffffffffffff169060446024803590810190830135806020601f8201819004810201604051908101604052818152929190602084018383808284378201915050505050509190803590602001908201803590602001908080601f01602080910402602001604051908101604052818152929190602084018383808284378201915050505050509190803590602001908201803590602001908080601f016020809104026020016040519081016040528181529291906020840183838082843750949650508435946020013593506102b692505050565b60405173ffffffffffffffffffffffffffffffffffffffff909116815260200160405180910390f35b34156101c857600080fd5b61019461049b565b34156101db57600080fd5b6101fc73ffffffffffffffffffffffffffffffffffffffff600435166104b7565b604051901515815260200160405180910390f35b341561021b57600080fd5b61023c73ffffffffffffffffffffffffffffffffffffffff600435166104d8565b005b341561024957600080fd5b610194610547565b341561025c57600080fd5b610194610563565b341561026f57600080fd5b61019461057f565b341561028257600080fd5b61019461059b565b341561029557600080fd5b61023c73ffffffffffffffffffffffffffffffffffffffff600435166105b7565b600254600154600354600092839273ffffffffffffffffffffffffffffffffffffffff9182169290821691168a8a8a8a8a8a6102f0610648565b73ffffffffffffffffffffffffffffffffffffffff808b168252898116602083015288811660408301528716606082015260e081018390526101008101829052610120608082018181529060a083019060c0840190840189818151815260200191508051906020019080838360005b8381101561037757808201518382015260200161035f565b50505050905090810190601f1680156103a45780820380516001836020036101000a031916815260200191505b50848103835288818151815260200191508051906020019080838360005b838110156103da5780820151838201526020016103c2565b50505050905090810190601f1680156104075780820380516001836020036101000a031916815260200191505b50848103825287818151815260200191508051906020019080838360005b8381101561043d578082015183820152602001610425565b50505050905090810190601f16801561046a5780820380516001836020036101000a031916815260200191505b509c50505050505050505050505050604051809103906000f080151561048f57600080fd5b98975050505050505050565b60015473ffffffffffffffffffffffffffffffffffffffff1681565b60005473ffffffffffffffffffffffffffffffffffffffff91821691161490565b6000543373ffffffffffffffffffffffffffffffffffffffff90811691161461050057600080fd5b600280547fffffffffffffffffffffffff00000000000000000000000000000000000000001673ffffffffffffffffffffffffffffffffffffffff92909216919091179055565b60035473ffffffffffffffffffffffffffffffffffffffff1681565b60005473ffffffffffffffffffffffffffffffffffffffff1690565b60005473ffffffffffffffffffffffffffffffffffffffff1681565b60025473ffffffffffffffffffffffffffffffffffffffff1681565b6000543373ffffffffffffffffffffffffffffffffffffffff9081169116146105df57600080fd5b73ffffffffffffffffffffffffffffffffffffffff8116151561060157600080fd5b600080547fffffffffffffffffffffffff00000000000000000000000000000000000000001673ffffffffffffffffffffffffffffffffffffffff92909216919091179055565b604051612a718061065983390190560060606040526003600d55600e805460ff19169055600060125534156200002457600080fd5b60405162002a7138038062002a7183398101604052808051919060200180519190602001805191906020018051919060200180518201919060200180518201919060200180518201919060200180519190602001805160008054600160a060020a03191633600160a060020a0390811691909117909155909250871615159050620000ae57600080fd5b60008211620000bc57600080fd5b600160a060020a0387161515620000d257600080fd5b60018054600160a060020a03808c16600160a060020a031992831617909255600280548b8416908316179055600380548a84169083161790554260075560008054928916929091169190911790556006858051620001359291602001906200017e565b5060048480516200014b9291602001906200017e565b506005838051620001619291602001906200017e565b50600f829055601091909155601155506200022395505050505050565b828054600181600116156101000203166002900490600052602060002090601f016020900481019282601f10620001c157805160ff1916838001178555620001f1565b82800160010185558215620001f1579182015b82811115620001f1578251825591602001919060010190620001d4565b50620001ff92915062000203565b5090565b6200022091905b80821115620001ff57600081556001016200020a565b90565b61283e80620002336000396000f3006060604052600436106102245763ffffffff7c0100000000000000000000000000000000000000000000000000000000600035041663072ea61c8114610229578063114765991461024e5780631faf969b1461027557806328d576d71461028857806329cc545e146102b45780632d830cd5146102f05780632f54bf6e146103085780632fc1f190146103345780633b249810146103475780633c7bb9131461035a5780633da1bba1146103865780633ea26fe01461039c578063447411f31461050e5780634644c51b1461052157806347535d7b1461054d57806348f73095146105605780634a79d50c1461057357806352c01fab146105fd5780635ace2914146106295780635c11a3e41461067a5780636ec02be91461068d5780636fe56420146106a057806372910be0146106b35780637af52ade14610704578063893d20e81461071757806389f3beb61461072a5780638a19c8bc1461073d5780638c1fc0bb1461077e5780638c65c81f146107aa5780638da5cb5b146107c0578063a68e8a86146107d3578063a968c4b9146107e6578063aa53d50414610818578063ab88ef681461082b578063c1a28b381461083e578063c39643721461088f578063c5561236146108a8578063dbe55e56146108bb578063e139a20c146108ce578063e586a4f014610934578063e70347bb14610947578063eb770d0c1461095a578063ef430aa614610970578063f1653f6e14610983578063f2fde38b14610996575b600080fd5b341561023457600080fd5b61023c6109c2565b60405190815260200160405180910390f35b341561025957600080fd5b6102616109c8565b604051901515815260200160405180910390f35b341561028057600080fd5b61023c6109d1565b341561029357600080fd5b61026173ffffffffffffffffffffffffffffffffffffffff600435166109d7565b34156102bf57600080fd5b6102c7610c7e565b60405173ffffffffffffffffffffffffffffffffffffffff909116815260200160405180910390f35b34156102fb57600080fd5b610306600435610c9a565b005b341561031357600080fd5b61026173ffffffffffffffffffffffffffffffffffffffff60043516610cfd565b341561033f57600080fd5b6102c7610d1e565b341561035257600080fd5b61023c610d3b565b341561036557600080fd5b61030673ffffffffffffffffffffffffffffffffffffffff60043516610d41565b341561039157600080fd5b6102c7600435610fbf565b34156103a757600080fd5b6102c760046024813581810190830135806020601f8201819004810201604051908101604052818152929190602084018383808284378201915050505050509190803573ffffffffffffffffffffffffffffffffffffffff1690602001909190803590602001908201803590602001908080601f0160208091040260200160405190810160405281815292919060208401838380828437820191505050505050919080359060200190820180359060200190808060200260200160405190810160405280939291908181526020018383602002808284378201915050505050509190803590602001908201803590602001908080602002602001604051908101604052809392919081815260200183836020028082843782019150505050505091908035906020019082018035906020019080806020026020016040519081016040528093929190818152602001838360200280828437509496506113a595505050505050565b341561051957600080fd5b61023c611aed565b341561052c57600080fd5b61030673ffffffffffffffffffffffffffffffffffffffff60043516611af3565b341561055857600080fd5b610261611b4d565b341561056b57600080fd5b61023c611b56565b341561057e57600080fd5b610586611b5c565b60405160208082528190810183818151815260200191508051906020019080838360005b838110156105c25780820151838201526020016105aa565b50505050905090810190601f1680156105ef5780820380516001836020036101000a031916815260200191505b509250505060405180910390f35b341561060857600080fd5b61026173ffffffffffffffffffffffffffffffffffffffff60043516611bfa565b341561063457600080fd5b61030660046024813581810190830135806020601f82018190048102016040519081016040528181529291906020840183838082843750949650611c2595505050505050565b341561068557600080fd5b610586611c64565b341561069857600080fd5b61023c611d0c565b34156106ab57600080fd5b6102c7611d12565b34156106be57600080fd5b61030660046024813581810190830135806020601f82018190048102016040519081016040528181529291906020840183838082843750949650611d2e95505050505050565b341561070f57600080fd5b610261611d69565b341561072257600080fd5b6102c7611e7a565b341561073557600080fd5b61023c611e96565b341561074857600080fd5b610750611e9c565b60405191825273ffffffffffffffffffffffffffffffffffffffff1660208201526040908101905180910390f35b341561078957600080fd5b61026173ffffffffffffffffffffffffffffffffffffffff60043516611edf565b34156107b557600080fd5b6102c7600435611ef4565b34156107cb57600080fd5b6102c7611f29565b34156107de57600080fd5b610261611f45565b34156107f157600080fd5b61026173ffffffffffffffffffffffffffffffffffffffff60043581169060243516611f72565b341561082357600080fd5b61023c6120b9565b341561083657600080fd5b61023c6120bf565b341561084957600080fd5b61030660046024813581810190830135806020601f820181900481020160405190810160405281815292919060208401838380828437509496506120c595505050505050565b341561089a57600080fd5b6103066004356024356120ed565b34156108b357600080fd5b61026161221a565b34156108c657600080fd5b6102c76122cb565b34156108d957600080fd5b6108e16122e7565b60405160208082528190810183818151815260200191508051906020019060200280838360005b83811015610920578082015183820152602001610908565b505050509050019250505060405180910390f35b341561093f57600080fd5b61023c6123a3565b341561095257600080fd5b6105866123a9565b341561096557600080fd5b610306600435612414565b341561097b57600080fd5b610586612441565b341561098e57600080fd5b61023c6124ac565b34156109a157600080fd5b61030673ffffffffffffffffffffffffffffffffffffffff600435166124b2565b60115481565b600e5460ff1681565b600d5481565b600154600090819081903373ffffffffffffffffffffffffffffffffffffffff908116911614610a0657600080fd5b610a0e611b4d565b1515610a1957600080fd5b73ffffffffffffffffffffffffffffffffffffffff841660009081526015602052604090205460ff16151560011415610a555760009250610c77565b60025460115473ffffffffffffffffffffffffffffffffffffffff90911692508263dd62ed3e86306000604051602001526040517c010000000000000000000000000000000000000000000000000000000063ffffffff851602815273ffffffffffffffffffffffffffffffffffffffff928316600482015291166024820152604401602060405180830381600087803b1515610af157600080fd5b6102c65a03f11515610b0257600080fd5b5050506040518051905010151515610b1957600080fd5b8173ffffffffffffffffffffffffffffffffffffffff166323b872dd85306011546000604051602001526040517c010000000000000000000000000000000000000000000000000000000063ffffffff861602815273ffffffffffffffffffffffffffffffffffffffff93841660048201529190921660248201526044810191909152606401602060405180830381600087803b1515610bb857600080fd5b6102c65a03f11515610bc957600080fd5b50505060405180519150508015610c735773ffffffffffffffffffffffffffffffffffffffff84166000908152601560205260409020805460ff191660019081178255601154918101919091556016805490918101610c288382612743565b50600091825260209091200180547fffffffffffffffffffffffff00000000000000000000000000000000000000001673ffffffffffffffffffffffffffffffffffffffff86161790555b8092505b5050919050565b60025473ffffffffffffffffffffffffffffffffffffffff1681565b6001543373ffffffffffffffffffffffffffffffffffffffff90811691161480610cdf57506000543373ffffffffffffffffffffffffffffffffffffffff9081169116145b1515610cea57600080fd5b6009548111610cf857600080fd5b600d55565b60005473ffffffffffffffffffffffffffffffffffffffff91821691161490565b60015473ffffffffffffffffffffffffffffffffffffffff165b90565b600b5481565b600980546000918291829182916000198101908110610d5c57fe5b60009182526020909120015473ffffffffffffffffffffffffffffffffffffffff16935083630b299208866040517c010000000000000000000000000000000000000000000000000000000063ffffffff841602815273ffffffffffffffffffffffffffffffffffffffff9091166004820152602401600060405180830381600087803b1515610deb57600080fd5b6102c65a03f11515610dfc57600080fd5b5050507f7a4f6edbca9ed97194ce723e574776da48cb8afcff0d96fb90a4ee76ffef4e5a8560405173ffffffffffffffffffffffffffffffffffffffff909116815260200160405180910390a1600d546009541415610fb857610e5d611f45565b1515610e6857600080fd5b600e805460ff1916905560015473ffffffffffffffffffffffffffffffffffffffff9081169350841663f49bff7b6000604051602001526040518163ffffffff167c0100000000000000000000000000000000000000000000000000000000028152600401602060405180830381600087803b1515610ee657600080fd5b6102c65a03f11515610ef757600080fd5b505050604051805160095490935091505073ffffffffffffffffffffffffffffffffffffffff83166350912da1308388866040517c010000000000000000000000000000000000000000000000000000000063ffffffff871602815273ffffffffffffffffffffffffffffffffffffffff94851660048201526024810193909352921660448201526064810191909152608401600060405180830381600087803b1515610fa357600080fd5b6102c65a03f11515610fb457600080fd5b5050505b5050505050565b600354600254600d5460095460009373ffffffffffffffffffffffffffffffffffffffff908116931691849182918291600101141561117e5760105460015490925073ffffffffffffffffffffffffffffffffffffffff80871691637f12d52a91163033866000604051602001526040517c010000000000000000000000000000000000000000000000000000000063ffffffff871602815273ffffffffffffffffffffffffffffffffffffffff94851660048201529284166024840152921660448201526064810191909152608401602060405180830381600087803b15156110a857600080fd5b6102c65a03f115156110b957600080fd5b50505060405180519050925060006010819055508373ffffffffffffffffffffffffffffffffffffffff1663a9059cbb84846000604051602001526040517c010000000000000000000000000000000000000000000000000000000063ffffffff851602815273ffffffffffffffffffffffffffffffffffffffff90921660048301526024820152604401602060405180830381600087803b151561115d57600080fd5b6102c65a03f1151561116e57600080fd5b505050604051805190505061130b565b601054611191908863ffffffff61254316565b60015490915073ffffffffffffffffffffffffffffffffffffffff80871691637f12d52a911630338b6000604051602001526040517c010000000000000000000000000000000000000000000000000000000063ffffffff871602815273ffffffffffffffffffffffffffffffffffffffff94851660048201529284166024840152921660448201526064810191909152608401602060405180830381600087803b151561123e57600080fd5b6102c65a03f1151561124f57600080fd5b5050506040518051601083905593505073ffffffffffffffffffffffffffffffffffffffff841663a9059cbb84896000604051602001526040517c010000000000000000000000000000000000000000000000000000000063ffffffff851602815273ffffffffffffffffffffffffffffffffffffffff90921660048301526024820152604401602060405180830381600087803b15156112ef57600080fd5b6102c65a03f1151561130057600080fd5b505050604051805150505b73ffffffffffffffffffffffffffffffffffffffff83166000908152600a60205260409020805460ff1916600190811790915560098054909181016113508382612743565b50600091825260209091200180547fffffffffffffffffffffffff00000000000000000000000000000000000000001673ffffffffffffffffffffffffffffffffffffffff8516179055509095945050505050565b73ffffffffffffffffffffffffffffffffffffffff33166000908152601560205260408120548190819060ff168015156113de57600080fd5b600154339073ffffffffffffffffffffffffffffffffffffffff168063532311c4836000604051602001526040517c010000000000000000000000000000000000000000000000000000000063ffffffff841602815273ffffffffffffffffffffffffffffffffffffffff9091166004820152602401602060405180830381600087803b151561146d57600080fd5b6102c65a03f1151561147e57600080fd5b50505060405180519050151561149357600080fd5b61149b611b4d565b15156114a657600080fd5b60015473ffffffffffffffffffffffffffffffffffffffff16636a44e43d8c6000604051602001526040517c010000000000000000000000000000000000000000000000000000000063ffffffff841602815273ffffffffffffffffffffffffffffffffffffffff9091166004820152602401602060405180830381600087803b151561153257600080fd5b6102c65a03f1151561154357600080fd5b505050604051805195505073ffffffffffffffffffffffffffffffffffffffff8516151561157057600080fd5b60098054600019810190811061158257fe5b906000526020600020900160009054906101000a900473ffffffffffffffffffffffffffffffffffffffff1673ffffffffffffffffffffffffffffffffffffffff16632d6991788d8d888e8c8f8f6000604051602001526040518863ffffffff167c010000000000000000000000000000000000000000000000000000000002815260040180806020018873ffffffffffffffffffffffffffffffffffffffff1673ffffffffffffffffffffffffffffffffffffffff1681526020018773ffffffffffffffffffffffffffffffffffffffff1673ffffffffffffffffffffffffffffffffffffffff1681526020018060200180602001806020018060200186810386528d818151815260200191508051906020019080838360005b838110156116b557808201518382015260200161169d565b50505050905090810190601f1680156116e25780820380516001836020036101000a031916815260200191505b5086810385528a818151815260200191508051906020019080838360005b83811015611718578082015183820152602001611700565b50505050905090810190601f1680156117455780820380516001836020036101000a031916815260200191505b50868103845289818151815260200191508051906020019060200280838360005b8381101561177e578082015183820152602001611766565b50505050905001868103835288818151815260200191508051906020019060200280838360005b838110156117bd5780820151838201526020016117a5565b50505050905001868103825287818151815260200191508051906020019060200280838360005b838110156117fc5780820151838201526020016117e4565b505050509050019c50505050505050505050505050602060405180830381600087803b151561182a57600080fd5b6102c65a03f1151561183b57600080fd5b505050604051805160015490955073ffffffffffffffffffffffffffffffffffffffff169050638c593a8c85896000604051602001526040518363ffffffff167c0100000000000000000000000000000000000000000000000000000000028152600401808373ffffffffffffffffffffffffffffffffffffffff1673ffffffffffffffffffffffffffffffffffffffff16815260200180602001828103825283818151815260200191508051906020019060200280838360005b8381101561190e5780820151838201526020016118f6565b505050509050019350505050602060405180830381600087803b151561193357600080fd5b6102c65a03f1151561194457600080fd5b5050506040518051505060125461196290600163ffffffff61255516565b6012556040805190810160409081526001825273ffffffffffffffffffffffffffffffffffffffff3381166000818152601360209081528482205481870152918152601482528381209289168152919052208151815460ff1916901515178155602082015160019182015573ffffffffffffffffffffffffffffffffffffffff331660009081526013602052604090208054909250908101611a048382612743565b50600091825260209091200180547fffffffffffffffffffffffff00000000000000000000000000000000000000001673ffffffffffffffffffffffffffffffffffffffff868116919091179091556001541663ab9583d933866040517c010000000000000000000000000000000000000000000000000000000063ffffffff851602815273ffffffffffffffffffffffffffffffffffffffff928316600482015291166024820152604401600060405180830381600087803b1515611ac957600080fd5b6102c65a03f11515611ada57600080fd5b50949d9c50505050505050505050505050565b60085481565b6009547f5fbb3d346317d5ecdb86412d4c69c7503ff4dbed1eccd4cb6290453ea0b1a32290600019018260405191825273ffffffffffffffffffffffffffffffffffffffff1660208201526040908101905180910390a150565b600e5460ff1690565b600c5481565b60048054600181600116156101000203166002900480601f016020809104026020016040519081016040528092919081815260200182805460018160011615610100020316600290048015611bf25780601f10611bc757610100808354040283529160200191611bf2565b820191906000526020600020905b815481529060010190602001808311611bd557829003601f168201915b505050505081565b73ffffffffffffffffffffffffffffffffffffffff1660009081526015602052604090205460ff1690565b6000543373ffffffffffffffffffffffffffffffffffffffff908116911614611c4d57600080fd5b6005818051611c6092916020019061276c565b5050565b611c6c6127e6565b60058054600181600116156101000203166002900480601f016020809104026020016040519081016040528092919081815260200182805460018160011615610100020316600290048015611d025780601f10611cd757610100808354040283529160200191611d02565b820191906000526020600020905b815481529060010190602001808311611ce557829003601f168201915b5050505050905090565b60125490565b60035473ffffffffffffffffffffffffffffffffffffffff1681565b6000543373ffffffffffffffffffffffffffffffffffffffff908116911614611d5657600080fd5b6004818051611c6092916020019061276c565b60025473ffffffffffffffffffffffffffffffffffffffff3381811660009081526015602052604080822060010154919493909316928492849263a9059cbb92859051602001526040517c010000000000000000000000000000000000000000000000000000000063ffffffff851602815273ffffffffffffffffffffffffffffffffffffffff90921660048301526024820152604401602060405180830381600087803b1515611e1957600080fd5b6102c65a03f11515611e2a57600080fd5b50505060405180519150508015611e705773ffffffffffffffffffffffffffffffffffffffff331660009081526015602052604081206001908101919091559250611e75565b600092505b505090565b60005473ffffffffffffffffffffffffffffffffffffffff1690565b60165490565b600980546000918291906000198201828110611eb457fe5b60009182526020909120015490925073ffffffffffffffffffffffffffffffffffffffff1690509091565b600a6020526000908152604090205460ff1681565b6009805482908110611f0257fe5b60009182526020909120015473ffffffffffffffffffffffffffffffffffffffff16905081565b60005473ffffffffffffffffffffffffffffffffffffffff1681565b6000600c544210158015611f5f5750600b54600c54014211155b8015611f6d5750600e5460ff165b905090565b6001546000903373ffffffffffffffffffffffffffffffffffffffff908116911614611f9d57600080fd5b73ffffffffffffffffffffffffffffffffffffffff80831660009081526014602090815260408083209387168352929052205460ff16156120af57601254611fec90600163ffffffff61254316565b60125573ffffffffffffffffffffffffffffffffffffffff8083166000908152601360209081526040808320601483528184209488168452939091529020600101548154811061203857fe5b6000918252602080832090910180547fffffffffffffffffffffffff000000000000000000000000000000000000000016905573ffffffffffffffffffffffffffffffffffffffff8481168352601482526040808420918716845291528120805460ff1916815560019081019190915590506120b3565b5060005b92915050565b600f5481565b60105481565b6000543373ffffffffffffffffffffffffffffffffffffffff90811691161461022457600080fd5b6009805460009190600019810190811061210357fe5b600091825260209091200154600e5473ffffffffffffffffffffffffffffffffffffffff909116915060ff16151561213d5761213d61256b565b600d54600954141561215557428301600c55600b8290555b8073ffffffffffffffffffffffffffffffffffffffff16635a7d5f5084846040517c010000000000000000000000000000000000000000000000000000000063ffffffff851602815260048101929092526024820152604401600060405180830381600087803b15156121c757600080fd5b6102c65a03f115156121d857600080fd5b50506009547f33a701182892fd888ed152ca2ac23771a32e814469b7cd255965471e1af3a65991506000190160405190815260200160405180910390a1505050565b600980546000918291600019810190811061223157fe5b600091825260208220015473ffffffffffffffffffffffffffffffffffffffff16915081906347535d7b90604051602001526040518163ffffffff167c0100000000000000000000000000000000000000000000000000000000028152600401602060405180830381600087803b15156122aa57600080fd5b6102c65a03f115156122bb57600080fd5b50505060405180519250505b5090565b60015473ffffffffffffffffffffffffffffffffffffffff1681565b6122ef6127e6565b6122f76127e6565b601360003373ffffffffffffffffffffffffffffffffffffffff1673ffffffffffffffffffffffffffffffffffffffff16815260200190815260200160002080548060200260200160405190810160405280929190818152602001828054801561239757602002820191906000526020600020905b815473ffffffffffffffffffffffffffffffffffffffff16815260019091019060200180831161236c575b50939695505050505050565b60115490565b60058054600181600116156101000203166002900480601f016020809104026020016040519081016040528092919081815260200182805460018160011615610100020316600290048015611bf25780601f10611bc757610100808354040283529160200191611bf2565b6000543373ffffffffffffffffffffffffffffffffffffffff90811691161461243c57600080fd5b601155565b60068054600181600116156101000203166002900480601f016020809104026020016040519081016040528092919081815260200182805460018160011615610100020316600290048015611bf25780601f10611bc757610100808354040283529160200191611bf2565b60075481565b6000543373ffffffffffffffffffffffffffffffffffffffff9081169116146124da57600080fd5b73ffffffffffffffffffffffffffffffffffffffff811615156124fc57600080fd5b600080547fffffffffffffffffffffffff00000000000000000000000000000000000000001673ffffffffffffffffffffffffffffffffffffffff92909216919091179055565b60008282111561254f57fe5b50900390565b60008282018381101561256457fe5b9392505050565b600e805460ff1916600190811790915554600054600f5460115473ffffffffffffffffffffffffffffffffffffffff938416938493635490904b939116913091600491600591906040517c010000000000000000000000000000000000000000000000000000000063ffffffff891602815273ffffffffffffffffffffffffffffffffffffffff8088166004830190815290871660248301526084820184905260a4820183905260c06044830190815286546002600019610100600184161502019091160460c4840181905291929091606482019160e40190889080156126935780601f1061266857610100808354040283529160200191612693565b820191906000526020600020905b81548152906001019060200180831161267657829003601f168201915b50508381038252865460026000196101006001841615020190911604808252602090910190879080156127075780601f106126dc57610100808354040283529160200191612707565b820191906000526020600020905b8154815290600101906020018083116126ea57829003601f168201915b505098505050505050505050600060405180830381600087803b151561272c57600080fd5b6102c65a03f1151561273d57600080fd5b50505050565b815481835581811511612767576000838152602090206127679181019083016127f8565b505050565b828054600181600116156101000203166002900490600052602060002090601f016020900481019282601f106127ad57805160ff19168380011785556127da565b828001600101855582156127da579182015b828111156127da5782518255916020019190600101906127bf565b506122c79291506127f8565b60206040519081016040526000815290565b610d3891905b808211156122c757600081556001016127fe5600a165627a7a72305820e86e7c2b8f98edcb34efe8f3c5600385999747a6d525c75376a736caa7ca3d0e0029a165627a7a723058204de11655c352d3ce58cc5ba9b4595bf89e81f8f2672cd5c71aa6c39c386097a20029",
  "source": "pragma solidity ^0.4.18;\n\nimport '../MatryxTournament.sol';\nimport '../Ownable.sol';\n\ncontract MatryxTournamentFactory is Ownable {\n\taddress public matryxTokenAddress;\n\taddress public platformAddress;\n\taddress public matryxRoundFactoryAddress;\n\n\tfunction MatryxTournamentFactory(address _matryxTokenAddress, address _matryxRoundFactoryAddress) public {\n\t\tmatryxTokenAddress = _matryxTokenAddress;\n\t\tmatryxRoundFactoryAddress = _matryxRoundFactoryAddress;\n\t}\n\n\tfunction createTournament(address _owner, string _category, string _tournamentTitle, bytes _externalAddress, uint256 _BountyMTX, uint256 _entryFee) public returns (address _tournamentAddress) {\n\t\tMatryxTournament newTournament = new MatryxTournament(platformAddress, matryxTokenAddress, matryxRoundFactoryAddress, _owner, _category, _tournamentTitle, _externalAddress, _BountyMTX, _entryFee);\n\t\treturn newTournament;\n\t}\n\n\tfunction setPlatform(address _platformAddress) public onlyOwner\n\t{\n\t\tplatformAddress = _platformAddress;\n\t}\n}",
  "sourcePath": "/Users/maxhoward/Desktop/Ethereum/Development/Matryx AWS/Projects/matryx-alpha-source/contracts/factories/MatryxTournamentFactory.sol",
  "compiler": {
    "name": "solc",
    "version": "0.4.19+commit.c4cbbb05.Emscripten.clang"
  },
  "schemaVersion": "2.0.0",
  "updatedAt": "2018-04-05T19:08:36.058Z"
}