{
  "contractName": "MatryxPlatform",
  "abi": [
    {
      "constant": true,
      "inputs": [],
      "name": "matryxTokenAddress",
      "outputs": [
        {
          "name": "",
          "type": "address"
        }
      ],
      "payable": false,
      "stateMutability": "view",
      "type": "function"
    },
    {
      "constant": true,
      "inputs": [
        {
          "name": "_sender",
          "type": "address"
        }
      ],
      "name": "isOwner",
      "outputs": [
        {
          "name": "_isOwner",
          "type": "bool"
        }
      ],
      "payable": false,
      "stateMutability": "view",
      "type": "function"
    },
    {
      "constant": true,
      "inputs": [
        {
          "name": "",
          "type": "bytes32"
        }
      ],
      "name": "categoryIterator",
      "outputs": [
        {
          "name": "name",
          "type": "string"
        },
        {
          "name": "count",
          "type": "uint128"
        },
        {
          "name": "prev",
          "type": "bytes32"
        },
        {
          "name": "next",
          "type": "bytes32"
        }
      ],
      "payable": false,
      "stateMutability": "view",
      "type": "function"
    },
    {
      "constant": true,
      "inputs": [],
      "name": "hashOfLastCategory",
      "outputs": [
        {
          "name": "",
          "type": "bytes32"
        }
      ],
      "payable": false,
      "stateMutability": "view",
      "type": "function"
    },
    {
      "constant": true,
      "inputs": [
        {
          "name": "",
          "type": "uint256"
        }
      ],
      "name": "topCategoryByCount",
      "outputs": [
        {
          "name": "",
          "type": "bytes32"
        }
      ],
      "payable": false,
      "stateMutability": "view",
      "type": "function"
    },
    {
      "constant": true,
      "inputs": [],
      "name": "getOwner",
      "outputs": [
        {
          "name": "_owner",
          "type": "address"
        }
      ],
      "payable": false,
      "stateMutability": "view",
      "type": "function"
    },
    {
      "constant": false,
      "inputs": [
        {
          "name": "_queryID",
          "type": "uint256"
        },
        {
          "name": "_response",
          "type": "uint256"
        }
      ],
      "name": "storeQueryResponse",
      "outputs": [
        {
          "name": "success",
          "type": "bool"
        }
      ],
      "payable": false,
      "stateMutability": "nonpayable",
      "type": "function"
    },
    {
      "constant": true,
      "inputs": [],
      "name": "owner",
      "outputs": [
        {
          "name": "",
          "type": "address"
        }
      ],
      "payable": false,
      "stateMutability": "view",
      "type": "function"
    },
    {
      "constant": true,
      "inputs": [],
      "name": "hashOfTopCategory",
      "outputs": [
        {
          "name": "",
          "type": "bytes32"
        }
      ],
      "payable": false,
      "stateMutability": "view",
      "type": "function"
    },
    {
      "constant": true,
      "inputs": [
        {
          "name": "",
          "type": "uint256"
        }
      ],
      "name": "categoryList",
      "outputs": [
        {
          "name": "",
          "type": "string"
        }
      ],
      "payable": false,
      "stateMutability": "view",
      "type": "function"
    },
    {
      "constant": true,
      "inputs": [
        {
          "name": "",
          "type": "uint256"
        }
      ],
      "name": "allTournaments",
      "outputs": [
        {
          "name": "",
          "type": "address"
        }
      ],
      "payable": false,
      "stateMutability": "view",
      "type": "function"
    },
    {
      "constant": false,
      "inputs": [
        {
          "name": "_query",
          "type": "bytes32"
        },
        {
          "name": "_sender",
          "type": "address"
        }
      ],
      "name": "Query",
      "outputs": [],
      "payable": false,
      "stateMutability": "nonpayable",
      "type": "function"
    },
    {
      "constant": false,
      "inputs": [
        {
          "name": "newOwner",
          "type": "address"
        }
      ],
      "name": "transferOwnership",
      "outputs": [],
      "payable": false,
      "stateMutability": "nonpayable",
      "type": "function"
    },
    {
      "inputs": [
        {
          "name": "_matryxTokenAddress",
          "type": "address"
        },
        {
          "name": "_matryxPeerFactoryAddress",
          "type": "address"
        },
        {
          "name": "_matryxTournamentFactoryAddress",
          "type": "address"
        },
        {
          "name": "_matryxSubmissionTrustLibAddress",
          "type": "address"
        }
      ],
      "payable": false,
      "stateMutability": "nonpayable",
      "type": "constructor"
    },
    {
      "anonymous": false,
      "inputs": [
        {
          "indexed": false,
          "name": "_discipline",
          "type": "string"
        },
        {
          "indexed": false,
          "name": "_owner",
          "type": "address"
        },
        {
          "indexed": false,
          "name": "_tournamentAddress",
          "type": "address"
        },
        {
          "indexed": false,
          "name": "_tournamentName",
          "type": "string"
        },
        {
          "indexed": false,
          "name": "_externalAddress",
          "type": "bytes"
        },
        {
          "indexed": false,
          "name": "_MTXReward",
          "type": "uint256"
        },
        {
          "indexed": false,
          "name": "_entryFee",
          "type": "uint256"
        }
      ],
      "name": "TournamentCreated",
      "type": "event"
    },
    {
      "anonymous": false,
      "inputs": [
        {
          "indexed": false,
          "name": "_owner",
          "type": "address"
        },
        {
          "indexed": false,
          "name": "_tournamentAddress",
          "type": "address"
        },
        {
          "indexed": false,
          "name": "_tournamentName",
          "type": "string"
        },
        {
          "indexed": false,
          "name": "_externalAddress",
          "type": "bytes"
        },
        {
          "indexed": false,
          "name": "_MTXReward",
          "type": "uint256"
        },
        {
          "indexed": false,
          "name": "_entryFee",
          "type": "uint256"
        }
      ],
      "name": "TournamentOpened",
      "type": "event"
    },
    {
      "anonymous": false,
      "inputs": [
        {
          "indexed": false,
          "name": "_tournamentAddress",
          "type": "address"
        },
        {
          "indexed": false,
          "name": "_finalRoundNumber",
          "type": "uint256"
        },
        {
          "indexed": false,
          "name": "_winningSubmissionAddress",
          "type": "address"
        },
        {
          "indexed": false,
          "name": "_MTXReward",
          "type": "uint256"
        }
      ],
      "name": "TournamentClosed",
      "type": "event"
    },
    {
      "anonymous": false,
      "inputs": [
        {
          "indexed": false,
          "name": "_entrant",
          "type": "address"
        },
        {
          "indexed": false,
          "name": "_tournamentAddress",
          "type": "address"
        }
      ],
      "name": "UserEnteredTournament",
      "type": "event"
    },
    {
      "anonymous": false,
      "inputs": [
        {
          "indexed": false,
          "name": "queryID",
          "type": "string"
        }
      ],
      "name": "QueryID",
      "type": "event"
    },
    {
      "anonymous": false,
      "inputs": [
        {
          "indexed": false,
          "name": "id",
          "type": "uint256"
        },
        {
          "indexed": false,
          "name": "sender",
          "type": "address"
        }
      ],
      "name": "QueryPerformed",
      "type": "event"
    },
    {
      "anonymous": false,
      "inputs": [
        {
          "indexed": false,
          "name": "storedResponse",
          "type": "uint256"
        }
      ],
      "name": "StoredResponse",
      "type": "event"
    },
    {
      "anonymous": false,
      "inputs": [
        {
          "indexed": false,
          "name": "response",
          "type": "uint256"
        }
      ],
      "name": "ObtainedResponse",
      "type": "event"
    },
    {
      "anonymous": false,
      "inputs": [
        {
          "indexed": false,
          "name": "newResponse",
          "type": "uint256"
        },
        {
          "indexed": false,
          "name": "oldResponse",
          "type": "uint256"
        }
      ],
      "name": "FailedToStore",
      "type": "event"
    },
    {
      "anonymous": false,
      "inputs": [
        {
          "indexed": false,
          "name": "id",
          "type": "uint256"
        }
      ],
      "name": "QueryID",
      "type": "event"
    },
    {
      "constant": false,
      "inputs": [
        {
          "name": "_owner",
          "type": "address"
        },
        {
          "name": "_tournamentAddress",
          "type": "address"
        },
        {
          "name": "_tournamentName",
          "type": "string"
        },
        {
          "name": "_externalAddress",
          "type": "bytes"
        },
        {
          "name": "_MTXReward",
          "type": "uint256"
        },
        {
          "name": "_entryFee",
          "type": "uint256"
        }
      ],
      "name": "invokeTournamentOpenedEvent",
      "outputs": [],
      "payable": false,
      "stateMutability": "nonpayable",
      "type": "function"
    },
    {
      "constant": false,
      "inputs": [
        {
          "name": "_tournamentAddress",
          "type": "address"
        },
        {
          "name": "_finalRoundNumber",
          "type": "uint256"
        },
        {
          "name": "_winningSubmissionAddress",
          "type": "address"
        },
        {
          "name": "_MTXReward",
          "type": "uint256"
        }
      ],
      "name": "invokeTournamentClosedEvent",
      "outputs": [],
      "payable": false,
      "stateMutability": "nonpayable",
      "type": "function"
    },
    {
      "constant": false,
      "inputs": [
        {
          "name": "_toIgnore",
          "type": "uint256"
        }
      ],
      "name": "prepareBalance",
      "outputs": [],
      "payable": false,
      "stateMutability": "nonpayable",
      "type": "function"
    },
    {
      "constant": true,
      "inputs": [],
      "name": "balanceIsNonZero",
      "outputs": [
        {
          "name": "",
          "type": "bool"
        }
      ],
      "payable": false,
      "stateMutability": "view",
      "type": "function"
    },
    {
      "constant": true,
      "inputs": [],
      "name": "getBalance",
      "outputs": [
        {
          "name": "",
          "type": "uint256"
        }
      ],
      "payable": false,
      "stateMutability": "view",
      "type": "function"
    },
    {
      "constant": false,
      "inputs": [
        {
          "name": "_submissionAddress",
          "type": "address"
        },
        {
          "name": "_references",
          "type": "address[]"
        }
      ],
      "name": "handleReferenceRequestsForSubmission",
      "outputs": [
        {
          "name": "",
          "type": "bool"
        }
      ],
      "payable": false,
      "stateMutability": "nonpayable",
      "type": "function"
    },
    {
      "constant": false,
      "inputs": [
        {
          "name": "_reference",
          "type": "address"
        }
      ],
      "name": "handleReferenceRequestForSubmission",
      "outputs": [
        {
          "name": "",
          "type": "bool"
        }
      ],
      "payable": false,
      "stateMutability": "nonpayable",
      "type": "function"
    },
    {
      "constant": false,
      "inputs": [
        {
          "name": "_reference",
          "type": "address"
        }
      ],
      "name": "handleCancelledReferenceRequestForSubmission",
      "outputs": [
        {
          "name": "",
          "type": "bool"
        }
      ],
      "payable": false,
      "stateMutability": "nonpayable",
      "type": "function"
    },
    {
      "constant": false,
      "inputs": [
        {
          "name": "_owner",
          "type": "address"
        },
        {
          "name": "_submission",
          "type": "address"
        }
      ],
      "name": "updateSubmissions",
      "outputs": [],
      "payable": false,
      "stateMutability": "nonpayable",
      "type": "function"
    },
    {
      "constant": false,
      "inputs": [
        {
          "name": "_submissionAddress",
          "type": "address"
        },
        {
          "name": "_tournamentAddress",
          "type": "address"
        }
      ],
      "name": "removeSubmission",
      "outputs": [
        {
          "name": "",
          "type": "bool"
        }
      ],
      "payable": false,
      "stateMutability": "nonpayable",
      "type": "function"
    },
    {
      "constant": true,
      "inputs": [
        {
          "name": "_category",
          "type": "string"
        }
      ],
      "name": "getTournamentsByCategory",
      "outputs": [
        {
          "name": "",
          "type": "address[]"
        }
      ],
      "payable": false,
      "stateMutability": "view",
      "type": "function"
    },
    {
      "constant": true,
      "inputs": [
        {
          "name": "_category",
          "type": "string"
        }
      ],
      "name": "getCategoryCount",
      "outputs": [
        {
          "name": "",
          "type": "uint256"
        }
      ],
      "payable": false,
      "stateMutability": "view",
      "type": "function"
    },
    {
      "constant": true,
      "inputs": [
        {
          "name": "_index",
          "type": "uint256"
        }
      ],
      "name": "getTopCategory",
      "outputs": [
        {
          "name": "",
          "type": "string"
        }
      ],
      "payable": false,
      "stateMutability": "view",
      "type": "function"
    },
    {
      "constant": false,
      "inputs": [
        {
          "name": "discipline",
          "type": "string"
        }
      ],
      "name": "switchTournamentCategory",
      "outputs": [],
      "payable": false,
      "stateMutability": "nonpayable",
      "type": "function"
    },
    {
      "constant": false,
      "inputs": [
        {
          "name": "_tournamentAddress",
          "type": "address"
        }
      ],
      "name": "enterTournament",
      "outputs": [
        {
          "name": "_success",
          "type": "bool"
        }
      ],
      "payable": false,
      "stateMutability": "nonpayable",
      "type": "function"
    },
    {
      "constant": false,
      "inputs": [
        {
          "name": "_category",
          "type": "string"
        },
        {
          "name": "_tournamentName",
          "type": "string"
        },
        {
          "name": "_externalAddress",
          "type": "bytes"
        },
        {
          "name": "_BountyMTX",
          "type": "uint256"
        },
        {
          "name": "_entryFee",
          "type": "uint256"
        },
        {
          "name": "_reviewPeriod",
          "type": "uint256"
        }
      ],
      "name": "createTournament",
      "outputs": [
        {
          "name": "_tournamentAddress",
          "type": "address"
        }
      ],
      "payable": false,
      "stateMutability": "nonpayable",
      "type": "function"
    },
    {
      "constant": false,
      "inputs": [],
      "name": "createPeer",
      "outputs": [
        {
          "name": "",
          "type": "address"
        }
      ],
      "payable": false,
      "stateMutability": "nonpayable",
      "type": "function"
    },
    {
      "constant": true,
      "inputs": [
        {
          "name": "_peerAddress",
          "type": "address"
        }
      ],
      "name": "isPeer",
      "outputs": [
        {
          "name": "",
          "type": "bool"
        }
      ],
      "payable": false,
      "stateMutability": "view",
      "type": "function"
    },
    {
      "constant": true,
      "inputs": [
        {
          "name": "_sender",
          "type": "address"
        }
      ],
      "name": "hasPeer",
      "outputs": [
        {
          "name": "",
          "type": "bool"
        }
      ],
      "payable": false,
      "stateMutability": "view",
      "type": "function"
    },
    {
      "constant": true,
      "inputs": [
        {
          "name": "_peer",
          "type": "address"
        },
        {
          "name": "_reference",
          "type": "address"
        }
      ],
      "name": "peerExistsAndOwnsSubmission",
      "outputs": [
        {
          "name": "",
          "type": "bool"
        }
      ],
      "payable": false,
      "stateMutability": "view",
      "type": "function"
    },
    {
      "constant": true,
      "inputs": [
        {
          "name": "_sender",
          "type": "address"
        }
      ],
      "name": "peerAddress",
      "outputs": [
        {
          "name": "",
          "type": "address"
        }
      ],
      "payable": false,
      "stateMutability": "view",
      "type": "function"
    },
    {
      "constant": true,
      "inputs": [
        {
          "name": "_submissionAddress",
          "type": "address"
        }
      ],
      "name": "isSubmission",
      "outputs": [
        {
          "name": "",
          "type": "bool"
        }
      ],
      "payable": false,
      "stateMutability": "view",
      "type": "function"
    },
    {
      "constant": true,
      "inputs": [
        {
          "name": "_tournamentAddress",
          "type": "address"
        }
      ],
      "name": "getTournament_IsMine",
      "outputs": [
        {
          "name": "_isMine",
          "type": "bool"
        }
      ],
      "payable": false,
      "stateMutability": "view",
      "type": "function"
    },
    {
      "constant": false,
      "inputs": [
        {
          "name": "_gratitude",
          "type": "uint256"
        }
      ],
      "name": "setSubmissionGratitude",
      "outputs": [],
      "payable": false,
      "stateMutability": "nonpayable",
      "type": "function"
    },
    {
      "constant": true,
      "inputs": [],
      "name": "getTokenAddress",
      "outputs": [
        {
          "name": "",
          "type": "address"
        }
      ],
      "payable": false,
      "stateMutability": "view",
      "type": "function"
    },
    {
      "constant": true,
      "inputs": [],
      "name": "getSubmissionTrustLibrary",
      "outputs": [
        {
          "name": "",
          "type": "address"
        }
      ],
      "payable": false,
      "stateMutability": "view",
      "type": "function"
    },
    {
      "constant": true,
      "inputs": [],
      "name": "getRoundLibAddress",
      "outputs": [
        {
          "name": "",
          "type": "address"
        }
      ],
      "payable": false,
      "stateMutability": "view",
      "type": "function"
    },
    {
      "constant": true,
      "inputs": [],
      "name": "getSubmissionGratitude",
      "outputs": [
        {
          "name": "",
          "type": "uint256"
        }
      ],
      "payable": false,
      "stateMutability": "view",
      "type": "function"
    },
    {
      "constant": true,
      "inputs": [],
      "name": "myTournaments",
      "outputs": [
        {
          "name": "",
          "type": "address[]"
        }
      ],
      "payable": false,
      "stateMutability": "view",
      "type": "function"
    },
    {
      "constant": true,
      "inputs": [],
      "name": "mySubmissions",
      "outputs": [
        {
          "name": "",
          "type": "address[]"
        }
      ],
      "payable": false,
      "stateMutability": "view",
      "type": "function"
    },
    {
      "constant": true,
      "inputs": [],
      "name": "tournamentCount",
      "outputs": [
        {
          "name": "_tournamentCount",
          "type": "uint256"
        }
      ],
      "payable": false,
      "stateMutability": "view",
      "type": "function"
    },
    {
      "constant": true,
      "inputs": [
        {
          "name": "_index",
          "type": "uint256"
        }
      ],
      "name": "getTournamentAtIndex",
      "outputs": [
        {
          "name": "_tournamentAddress",
          "type": "address"
        }
      ],
      "payable": false,
      "stateMutability": "view",
      "type": "function"
    }
  ],
  "bytecode": "0x606060405260408051908101604052600181526702c68af0bb140000602082015260178151815460ff1916901515178155602082015181600101555050341561004757600080fd5b6040516080806133c68339810160405280805191906020018051919060200180519190602001805160008054600160a060020a03338116600160a060020a03199283161790925560048054988316988216989098179097556005805496821696881696909617909555600680549486169487169490941790935550506007805492909116919092161790556132e5806100e16000396000f3006060604052600436106102245763ffffffff7c010000000000000000000000000000000000000000000000000000000060003504166310fe9ae8811461022957806312065fe0146102585780631d2245f51461027d57806322985f92146102e357806329cc545e1461030a5780632f54bf6e1461031d5780633e44cf781461033c578063493a7af31461035b5780634cbb12a91461044057806350912da11461045357806351488bce14610481578063532311c4146104a65780635490904b146104c55780636a44e43d146105775780636e2b2c7c1461059657806376652626146105a95780637cb997b7146105bc578063818b5fa8146106495780638423e63e14610668578063875153ff1461067e578063893d20e8146106cf5780638b72062a146106e25780638c593a8c146106fb5780638da5cb5b14610758578063984ed2061461076b578063a968c4b914610781578063ab9583d9146107a6578063ac17741b146107cb578063ae945a36146107e9578063b20a2dce146107fc578063b2fad5541461080f578063bfc9d77c1461082e578063c13ae92a14610910578063c21260a514610926578063c839984a1461093c578063d4a0182014610952578063d4f056d414610974578063e139a20c14610992578063e8a0ed0d146109a5578063edee41d9146109c4578063f2fde38b146109da578063f3dc0d25146109f9578063f7468a3c14610a0c578063f7c3609d14610a2b578063fb5032d614610a3e575b600080fd5b341561023457600080fd5b61023c610a5d565b604051600160a060020a03909116815260200160405180910390f35b341561026357600080fd5b61026b610a6d565b60405190815260200160405180910390f35b341561028857600080fd5b610290610a83565b60405160208082528190810183818151815260200191508051906020019060200280838360005b838110156102cf5780820151838201526020016102b7565b505050509050019250505060405180910390f35b34156102ee57600080fd5b6102f6610b0e565b604051901515815260200160405180910390f35b341561031557600080fd5b61023c610b22565b341561032857600080fd5b6102f6600160a060020a0360043516610b31565b341561034757600080fd5b6102f6600160a060020a0360043516610b45565b341561036657600080fd5b610371600435610b63565b6040516fffffffffffffffffffffffffffffffff8416602082015260408101839052606081018290526080808252855460026101006001831615027fffffffffffffffffffffffffffffffffffffffffffffffffffffffffffffffff0190911604908201819052819060a08201908790801561042e5780601f106104035761010080835404028352916020019161042e565b820191906000526020600020905b81548152906001019060200180831161041157829003601f168201915b50509550505050505060405180910390f35b341561044b57600080fd5b61026b610b98565b341561045e57600080fd5b61047f600160a060020a036004358116906024359060443516606435610b9e565b005b341561048c57600080fd5b6102f6600160a060020a0360043581169060243516610c25565b34156104b157600080fd5b6102f6600160a060020a0360043516610c9c565b34156104d057600080fd5b61047f600160a060020a036004803582169160248035909116919060649060443590810190830135806020601f8201819004810201604051908101604052818152929190602084018383808284378201915050505050509190803590602001908201803590602001908080601f01602080910402602001604051908101604052818152929190602084018383808284375094965050843594602001359350610cbc92505050565b341561058257600080fd5b61023c600160a060020a0360043516610e1b565b34156105a157600080fd5b61026b610e39565b34156105b457600080fd5b61023c610e3f565b34156105c757600080fd5b6105d2600435610e4e565b60405160208082528190810183818151815260200191508051906020019080838360005b8381101561060e5780820151838201526020016105f6565b50505050905090810190601f16801561063b5780820380516001836020036101000a031916815260200191505b509250505060405180910390f35b341561065457600080fd5b6102f6600160a060020a0360043516610f43565b341561067357600080fd5b61026b600435610f61565b341561068957600080fd5b61047f60046024813581810190830135806020601f82018190048102016040519081016040528181529291906020840183838082843750949650610f7395505050505050565b34156106da57600080fd5b61023c610f9a565b34156106ed57600080fd5b6102f6600435602435610fa9565b341561070657600080fd5b6102f660048035600160a060020a03169060446024803590810190830135806020808202016040519081016040528093929190818152602001838360200280828437509496506110c895505050505050565b341561076357600080fd5b61023c6112b2565b341561077657600080fd5b61023c6004356112c1565b341561078c57600080fd5b6102f6600160a060020a0360043581169060243516611307565b34156107b157600080fd5b61047f600160a060020a0360043581169060243516611557565b34156107d657600080fd5b6102906004803560248101910135611678565b34156107f457600080fd5b61026b61171b565b341561080757600080fd5b61026b611721565b341561081a57600080fd5b6102f6600160a060020a036004351661173c565b341561083957600080fd5b61023c60046024813581810190830135806020601f8201819004810201604051908101604052818152929190602084018383808284378201915050505050509190803590602001908201803590602001908080601f01602080910402602001604051908101604052818152929190602084018383808284378201915050505050509190803590602001908201803590602001908080601f01602080910402602001604051908101604052818152929190602084018383808284375094965050843594602081013594506040013592506118ed915050565b341561091b57600080fd5b61047f600435611df9565b341561093157600080fd5b6105d2600435611e69565b341561094757600080fd5b61023c600435611f24565b341561095d57600080fd5b61047f600435600160a060020a0360243516611f4c565b341561097f57600080fd5b61026b60048035602481019101356120ee565b341561099d57600080fd5b61029061213f565b34156109b057600080fd5b6102f6600160a060020a03600435166121c8565b34156109cf57600080fd5b61047f60043561228a565b34156109e557600080fd5b61047f600160a060020a0360043516612344565b3415610a0457600080fd5b61023c6123a3565b3415610a1757600080fd5b6102f6600160a060020a03600435166123b2565b3415610a3657600080fd5b61023c6124e1565b3415610a4957600080fd5b6102f6600160a060020a0360043516612608565b600454600160a060020a03165b90565b600080610a793361279e565b90508091505b5090565b610a8b612f31565b6014600033600160a060020a0316600160a060020a03168152602001908152602001600020805480602002602001604051908101604052809291908181526020018280548015610b0457602002820191906000526020600020905b8154600160a060020a03168152600190910190602001808311610ae6575b5050505050905090565b600080610b1a3361279e565b151592915050565b600454600160a060020a031681565b600054600160a060020a0391821691161490565b600160a060020a03166000908152600f602052604090205460ff1690565b600d6020526000908152604090206001810154600282015460038301546fffffffffffffffffffffffffffffffff9092169184565b600b5481565b600160a060020a03331660009081526012602052604090205460ff161515610bc557600080fd5b7f4b7129caf5b43afa8e5fa6636b13666891a1e62cfd286305ae6c96c9403cf5dd84848484604051600160a060020a039485168152602081019390935292166040808301919091526060820192909252608001905180910390a150505050565b600160a060020a038083166000818152600f60209081526040808320548686168085526013845282852054958552601084528285205490961684526011835281842095845294909152812054909260ff9081169281169116828015610c875750815b8015610c905750805b93505b50505092915050565b600160a060020a0390811660009081526010602052604090205416151590565b600160a060020a03331660009081526012602052604090205460ff161515610ce357600080fd5b7f2237d56eaac80eabccfac0e9fb7d5a6365d4849af29f803b530fabebdf7299d4868686868686604051600160a060020a038088168252861660208201526080810183905260a0810182905260c060408201818152906060830190830187818151815260200191508051906020019080838360005b83811015610d70578082015183820152602001610d58565b50505050905090810190601f168015610d9d5780820380516001836020036101000a031916815260200191505b50838103825286818151815260200191508051906020019080838360005b83811015610dd3578082015183820152602001610dbb565b50505050905090810190601f168015610e005780820380516001836020036101000a031916815260200191505b509850505050505050505060405180910390a1505050505050565b600160a060020a039081166000908152601060205260409020541690565b60095490565b600854600160a060020a031690565b610e56612f31565b600a546000818152600d6020526040902060015b848111610e9f576000928352600d60205260408084206003015480855293209150821515610e9757610e9f565b600101610e6a565b818054600181600116156101000203166002900480601f016020809104026020016040519081016040528092919081815260200182805460018160011615610100020316600290048015610f345780601f10610f0957610100808354040283529160200191610f34565b820191906000526020600020905b815481529060010190602001808311610f1757829003601f168201915b50505050509350505050919050565b600160a060020a031660009081526013602052604090205460ff1690565b600c6020526000908152604090205481565b600160a060020a03331660009081526012602052604090205460ff16151561022457600080fd5b600054600160a060020a031690565b600080548190819033600160a060020a03908116911614610fc957600080fd5b5050600160a060020a0333166000908152600260209081526040808320548084526003909252822054909184118015611000575080155b1561106e57600160a060020a03331660009081526002602090815260408083208890558783526003909152908190208590557fae8527266ba82a48a206c6cbaa4634e0d5e70b8c6017ac015e19fa75664d55789085905190815260200160405180910390a1600192506110c0565b7fe0ecffc2c891b346f2eeb89101dba4c5748fb0f27fd023b97cdcac60c0a1585c84600360008881526020019081526020016000205460405191825260208201526040908101905180910390a1600092505b505092915050565b600160a060020a033316600090815260126020526040812054819081908190819060ff1615156110f757600080fd5b600093505b85518410156112a85785848151811061111157fe5b90602001906020020151925061112683610f43565b15156111315761129d565b82915081600160a060020a031663a5faa1256000604051602001526040518163ffffffff167c0100000000000000000000000000000000000000000000000000000000028152600401602060405180830381600087803b151561119357600080fd5b6102c65a03f115156111a457600080fd5b5050506040518051915050600160a060020a03811663d1bbd31288856040517c010000000000000000000000000000000000000000000000000000000063ffffffff8516028152600160a060020a03928316600482015291166024820152604401600060405180830381600087803b151561121e57600080fd5b6102c65a03f1151561122f57600080fd5b50505081600160a060020a031663c7af35516040518163ffffffff167c0100000000000000000000000000000000000000000000000000000000028152600401600060405180830381600087803b151561128857600080fd5b6102c65a03f1151561129957600080fd5b5050505b6001909301926110fc565b5050505092915050565b600054600160a060020a031681565b6000808210156112d057600080fd5b60095482106112de57600080fd5b60098054839081106112ec57fe5b600091825260209091200154600160a060020a031692915050565b600160a060020a03338116600090815260116020908152604080832093861683529290529081205481908190819060ff16151561134357600080fd5b600160a060020a03851660009081526012602052604090205460ff16151561136a57600080fd5b600160a060020a03861660009081526013602052604090205460ff161561154b5785925085600160a060020a031663893d20e86000604051602001526040518163ffffffff167c0100000000000000000000000000000000000000000000000000000000028152600401602060405180830381600087803b15156113ed57600080fd5b6102c65a03f115156113fe57600080fd5b5050506040518051600160a060020a038082166000818152601660209081526040808320948d1683529381528382206001015460138252848320805460ff191690559282526015905291909120805492955090935091508290811061145f57fe5b60009182526020808320909101805473ffffffffffffffffffffffffffffffffffffffff19169055600160a060020a0384811683526016825260408084208a83168552909252818320805460ff1916815560010183905587169163a968c4b9918991869151602001526040517c010000000000000000000000000000000000000000000000000000000063ffffffff8516028152600160a060020a03928316600482015291166024820152604401602060405180830381600087803b151561152657600080fd5b6102c65a03f1151561153757600080fd5b505050604051805190505060019350610c93565b50600095945050505050565b600160a060020a03331660009081526012602052604090205460ff16151561157e57600080fd5b60408051908101604090815260018252600160a060020a038085166000818152601560209081528482205481870152918152601682528381209286168152919052208151815460ff19169015151781556020820151600191820155600160a060020a038416600090815260156020526040902080549092509081016116038382612f43565b506000918252602080832091909101805473ffffffffffffffffffffffffffffffffffffffff1916600160a060020a03948516908117909155939092168152601182526040808220938252928252828120805460ff199081166001908117909255601390935292902080549091169091179055565b611680612f31565b600d600084846040518083838082843782019150509250505060405180910390206000191660001916815260200190815260200160002060040180548060200260200160405190810160405280929190818152602001828054801561170e57602002820191906000526020600020905b8154600160a060020a031681526001909101906020018083116116f0575b5050505050905092915050565b600a5481565b60175460009060ff16151561173557600080fd5b5060185490565b600160a060020a0333166000908152601360205260408120548190819060ff16151561176757600080fd5b61177084610f43565b151561177b57600080fd5b83915081600160a060020a031663a5faa1256000604051602001526040518163ffffffff167c0100000000000000000000000000000000000000000000000000000000028152600401602060405180830381600087803b15156117dd57600080fd5b6102c65a03f115156117ee57600080fd5b5050506040518051915050600160a060020a03811663d1bbd31233866040517c010000000000000000000000000000000000000000000000000000000063ffffffff8516028152600160a060020a03928316600482015291166024820152604401600060405180830381600087803b151561186857600080fd5b6102c65a03f1151561187957600080fd5b50505081600160a060020a031663c7af35516040518163ffffffff167c0100000000000000000000000000000000000000000000000000000000028152600401600060405180830381600087803b15156118d257600080fd5b6102c65a03f115156118e357600080fd5b5050505050919050565b6000806000806000336118ff81610c9c565b151561190a57600080fd5b600454600160a060020a03169450888563dd62ed3e33306000604051602001526040517c010000000000000000000000000000000000000000000000000000000063ffffffff8516028152600160a060020a03928316600482015291166024820152604401602060405180830381600087803b151561198857600080fd5b6102c65a03f1151561199957600080fd5b50505060405180519050101515156119b057600080fd5b600654600160a060020a031693508363be9518b3338d8d8d8d8d6000604051602001526040518763ffffffff167c01000000000000000000000000000000000000000000000000000000000281526004018087600160a060020a0316600160a060020a031681526020018060200180602001868152602001858152602001848152602001838103835288818151815260200191508051906020019080838360005b83811015611a69578082015183820152602001611a51565b50505050905090810190601f168015611a965780820380516001836020036101000a031916815260200191505b50838103825287818151815260200191508051906020019080838360005b83811015611acc578082015183820152602001611ab4565b50505050905090810190601f168015611af95780820380516001836020036101000a031916815260200191505b5098505050505050505050602060405180830381600087803b1515611b1d57600080fd5b6102c65a03f11515611b2e57600080fd5b5050506040518051905092507f344013ba9391d2d4afe01b581cb35c66d83eac82c6b4bae7752c55d4cfef4c0b8c33858e8e8e8e604051600160a060020a0380881660208301528616604082015260a0810183905260c0810182905260e080825281906060820190608083019083018b818151815260200191508051906020019080838360005b83811015611bcd578082015183820152602001611bb5565b50505050905090810190601f168015611bfa5780820380516001836020036101000a031916815260200191505b50848103835288818151815260200191508051906020019080838360005b83811015611c30578082015183820152602001611c18565b50505050905090810190601f168015611c5d5780820380516001836020036101000a031916815260200191505b50848103825287818151815260200191508051906020019080838360005b83811015611c93578082015183820152602001611c7b565b50505050905090810190601f168015611cc05780820380516001836020036101000a031916815260200191505b509a505050505050505050505060405180910390a1611cdf838d6127c6565b84600160a060020a03166323b872dd33858c6000604051602001526040517c010000000000000000000000000000000000000000000000000000000063ffffffff8616028152600160a060020a0393841660048201529190921660248201526044810191909152606401602060405180830381600087803b1515611d6257600080fd5b6102c65a03f11515611d7357600080fd5b5050506040518051925050811515611d8a57600080fd5b6009805460018101611d9c8382612f43565b506000918252602080832091909101805473ffffffffffffffffffffffffffffffffffffffff1916600160a060020a03871690811790915582526012905260409020805460ff1916600117905550909a9950505050505050505050565b60005433600160a060020a03908116911614611e1457600080fd5b60008110158015611e2d5750670de0b6b3a76400008111155b1515611e3557fe5b60408051908101604052600181526020810182905260178151815460ff191690151517815560208201516001909101555050565b600e805482908110611e7757fe5b90600052602060002090016000915090508054600181600116156101000203166002900480601f016020809104026020016040519081016040528092919081815260200182805460018160011615610100020316600290048015611f1c5780601f10611ef157610100808354040283529160200191611f1c565b820191906000526020600020905b815481529060010190602001808311611eff57829003601f168201915b505050505081565b6009805482908110611f3257fe5b600091825260209091200154600160a060020a0316905081565b600160a060020a03808216600090815260016020526040812054909182911681901115611f9557600160a060020a03808416600090815260016020526040902054169150612002565b82611f9e612f6c565b600160a060020a039091168152602001604051809103906000f0801515611fc457600080fd5b600160a060020a038481166000908152600160205260409020805473ffffffffffffffffffffffffffffffffffffffff191691831691909117905591505b81600160a060020a03166372de26dd856000604051602001526040517c010000000000000000000000000000000000000000000000000000000063ffffffff84160281526004810191909152602401602060405180830381600087803b151561206a57600080fd5b6102c65a03f1151561207b57600080fd5b5050506040518051600160a060020a038516600090815260026020526040908190208290559092507f1c16af450a72e7153ed6faee28677e32f11936f8ab2e63322d032d1f753b5aea91508290859051918252600160a060020a031660208201526040908101905180910390a150505050565b6000600d600084846040518083838082843782019150509250505060405190819003902081526020810191909152604001600020600101546fffffffffffffffffffffffffffffffff169392505050565b612147612f31565b6015600033600160a060020a0316600160a060020a03168152602001908152602001600020805480602002602001604051908101604052809291908181526020018280548015610b0457602002820191906000526020600020908154600160a060020a03168152600190910190602001808311610ae6575050505050905090565b600160a060020a038116600090815260126020526040812054819060ff1615156121f157600080fd5b82905033600160a060020a031681600160a060020a031663893d20e86000604051602001526040518163ffffffff167c0100000000000000000000000000000000000000000000000000000000028152600401602060405180830381600087803b151561225d57600080fd5b6102c65a03f1151561226e57600080fd5b50505060405180519050600160a060020a031614915050919050565b600160a060020a03331660009081526002602090815260408083205480845260039092529091205480156122bd57600080fd5b600160a060020a03301663d4a0182084336040517c010000000000000000000000000000000000000000000000000000000063ffffffff85160281526004810192909252600160a060020a03166024820152604401600060405180830381600087803b151561232b57600080fd5b6102c65a03f1151561233c57600080fd5b505050505050565b60005433600160a060020a0390811691161461235f57600080fd5b600160a060020a038116151561237457600080fd5b6000805473ffffffffffffffffffffffffffffffffffffffff1916600160a060020a0392909216919091179055565b600754600160a060020a031690565b6000806000336123c181610c9c565b15156123cc57600080fd5b600160a060020a03851660009081526012602052604090205460ff1615156123f357600080fd5b84925082600160a060020a03166328d576d7336000604051602001526040517c010000000000000000000000000000000000000000000000000000000063ffffffff8416028152600160a060020a039091166004820152602401602060405180830381600087803b151561246657600080fd5b6102c65a03f1151561247757600080fd5b505050604051805192505081156124d9576124923386612ecf565b7f5891a745b8d042d48bd1e4aed889e63bdc3e44242bb75694ea97573460e03a8b3386604051600160a060020a039283168152911660208201526040908101905180910390a15b509392505050565b600160a060020a03338116600090815260106020526040812054909182918291161561250c57600080fd5b600554600160a060020a03169150816348bf9577336000604051602001526040517c010000000000000000000000000000000000000000000000000000000063ffffffff8416028152600160a060020a039091166004820152602401602060405180830381600087803b151561258157600080fd5b6102c65a03f1151561259257600080fd5b5050506040518051600160a060020a039081166000818152600f60209081526040808320805460ff19166001179055339094168083526010909152838220805473ffffffffffffffffffffffffffffffffffffffff19908116851790915592825292902080549091169091179055509192915050565b600160a060020a0333166000908152601360205260408120548190819060ff16151561263357600080fd5b61263c84610f43565b151561264757600080fd5b83915081600160a060020a031663a5faa1256000604051602001526040518163ffffffff167c0100000000000000000000000000000000000000000000000000000000028152600401602060405180830381600087803b15156126a957600080fd5b6102c65a03f115156126ba57600080fd5b5050506040518051915050600160a060020a03811663a1cc4ac133866040517c010000000000000000000000000000000000000000000000000000000063ffffffff8516028152600160a060020a03928316600482015291166024820152604401600060405180830381600087803b151561273457600080fd5b6102c65a03f1151561274557600080fd5b50505081600160a060020a031663444e31ca6040518163ffffffff167c0100000000000000000000000000000000000000000000000000000000028152600401600060405180830381600087803b15156118d257600080fd5b600160a060020a03166000908152600260209081526040808320548352600390915290205490565b6000806000806000806000806000896040518082805190602001908083835b6020831061282257805182527fffffffffffffffffffffffffffffffffffffffffffffffffffffffffffffffe090920191602091820191016127e5565b6001836020036101000a03801982511681845116179092525050509190910192506040915050519081900390206000818152600d60205260409020600101549099506fffffffffffffffffffffffffffffffff161515612b9357600e80546001810161288e8382612f7c565b60009283526020909220018b80516128aa929160200190612fa0565b5050600a5415156129d757600a899055600b89905560a060405190810160409081528b8252600160208301526000818301819052606083018190526080830191518059106128f55750595b9080825280602002602001820160405250905260008a8152600d6020526040902081518190805161292a929160200190612fa0565b5060208201516001820180547fffffffffffffffffffffffffffffffff00000000000000000000000000000000166fffffffffffffffffffffffffffffffff9290921691909117905560408201516002820155606082015160038201556080820151816004019080516129a192916020019061301a565b5050600160005250600c6020527fd421a5181c571bba3f01190c922c3b2a896fc1d84e86c9f17ac10e67ebef8b5c899055612b36565b60a060405190810160409081528b825260016020830152600b5481830152600060608301819052608083019151805910612a0e5750595b9080825280602002602001820160405250905260008a8152600d60205260409020815181908051612a43929160200190612fa0565b5060208201516001820180547fffffffffffffffffffffffffffffffff00000000000000000000000000000000166fffffffffffffffffffffffffffffffff929092169190911790556040820151600282015560608201516003820155608082015181600401908051612aba92916020019061301a565b5050600b546000908152600d6020908152604082206003018c90556001909152600c9052507fd421a5181c571bba3f01190c922c3b2a896fc1d84e86c9f17ac10e67ebef8b5c541515612b36576001600052600c6020527fd421a5181c571bba3f01190c922c3b2a896fc1d84e86c9f17ac10e67ebef8b5c8990555b6000898152600d60205260409020600401805460018101612b578382612f43565b506000918252602090912001805473ffffffffffffffffffffffffffffffffffffffff1916600160a060020a038d16179055600b899055612ec2565b6000898152600d60205260409020600401805460018101612bb48382612f43565b506000918252602080832091909101805473ffffffffffffffffffffffffffffffffffffffff1916600160a060020a038f161790558a8252600d81526040808320600101546fffffffffffffffffffffffffffffffff16808452600c90925290912054909850891415612c6e576000898152600d602052604090206003015415612c5e576000898152600d60209081526040808320600301548b8452600c90925290912055612c6e565b6000888152600c60205260408120555b6000898152600d60209081526040808320600190810180546fffffffffffffffffffffffffffffffff8082169093019283167fffffffffffffffffffffffffffffffff0000000000000000000000000000000090911681179091558452600c909252909120549097501515612d02576fffffffffffffffffffffffffffffffff87166000908152600c602052604090208990555b6000898152600d602052604090206002015415612ec2576000898152600d602052604080822060028101548352908220600190810154928c905201546fffffffffffffffffffffffffffffffff91821691161115612ec2576000898152600d60209081526040808320600101546fffffffffffffffffffffffffffffffff9081167fffffffffffffffffffffffffffffffffffffffffffffffffffffffffffffffff01168352600c909152902054600a54909650861415612dc357600a8990555b600b54891415612de3576000898152600d6020526040902060020154600b555b5050506000838152600d602052604080822088835291206003808301805460028085018054948601549093558501549182905593955091935082891492909115612e415760028501546000908152600d602052604090206003018990555b600384015415612e655760038401546000908152600d602052604090206002018690555b8215612e7e576002850189905560038401869055612ec2565b60028501829055600384018190558115612ea7576000828152600d602052604090206003018690555b8015612ec2576000818152600d602052604090206002018990555b5050505050505050505050565b600160a060020a0382166000908152601460205260409020805460018101612ef78382612f43565b506000918252602090912001805473ffffffffffffffffffffffffffffffffffffffff1916600160a060020a039290921691909117905550565b60206040519081016040526000815290565b815481835581811511612f6757600083815260209020612f6791810190830161308a565b505050565b60405161017a8061314083390190565b815481835581811511612f6757600083815260209020612f679181019083016130a4565b828054600181600116156101000203166002900490600052602060002090601f016020900481019282601f10612fe157805160ff191683800117855561300e565b8280016001018555821561300e579182015b8281111561300e578251825591602001919060010190612ff3565b50610a7f92915061308a565b82805482825590600052602060002090810192821561307e579160200282015b8281111561307e578251825473ffffffffffffffffffffffffffffffffffffffff1916600160a060020a03919091161782556020929092019160019091019061303a565b50610a7f9291506130c7565b610a6a91905b80821115610a7f5760008155600101613090565b610a6a91905b80821115610a7f5760006130be82826130f8565b506001016130aa565b610a6a91905b80821115610a7f57805473ffffffffffffffffffffffffffffffffffffffff191681556001016130cd565b50805460018160011615610100020316600290046000825580601f1061311e575061313c565b601f01602090049060005260206000209081019061313c919061308a565b5056006060604052341561000f57600080fd5b60405160208061017a8339810160405280805160008054600160a060020a03338116600160a060020a03199283161790925560018054929093169116179055505061011b8061005f6000396000f300606060405260043610603e5763ffffffff7c010000000000000000000000000000000000000000000000000000000060003504166372de26dd81146043575b600080fd5b3415604d57600080fd5b60566004356068565b60405190815260200160405180910390f35b600080543373ffffffffffffffffffffffffffffffffffffffff908116911614609057600080fd5b43428333604051938452602084019290925260408084019190915273ffffffffffffffffffffffffffffffffffffffff9091166c01000000000000000000000000026060830152607490910190519081900390206002819055929150505600a165627a7a723058201867499e199565489dab73469ee8ea7bece5f22d2afd6cd80d0812559bf3c53f0029a165627a7a723058202413b7d04e04c3bf4209a804e980c0e5ea28aa04b6a6e262c2d9ac4d3df973360029",
  "source": "pragma solidity ^0.4.18;\n\nimport '../libraries/math/SafeMath.sol';\nimport '../libraries/math/SafeMath128.sol';\nimport './MatryxOracleMessenger.sol';\nimport '../interfaces/IMatryxToken.sol';\nimport '../interfaces/IMatryxPeer.sol';\nimport '../interfaces/IMatryxPlatform.sol';\nimport '../interfaces/factories/IMatryxPeerFactory.sol';\nimport '../interfaces/factories/IMatryxTournamentFactory.sol';\nimport '../interfaces/IMatryxTournament.sol';\nimport '../interfaces/IMatryxRound.sol';\nimport '../interfaces/IMatryxSubmission.sol';\nimport './Ownable.sol';\n\n/// @title MatryxPlatform - The Matryx platform contract.\n/// @author Max Howard - <max@nanome.ai>, Sam Hessenauer - <sam@nanome.ai>\ncontract MatryxPlatform is MatryxOracleMessenger, IMatryxPlatform {\n  using SafeMath for uint256;\n  using SafeMath128 for uint128;\n\n  // TODO: condense and put in structs\n  address public matryxTokenAddress;\n  address matryxPeerFactoryAddress;\n  address matryxTournamentFactoryAddress;\n  address matryxSubmissionTrustLibAddress;\n  address matryxRoundLibAddress;\n\n  address[] public allTournaments;\n  bytes32 public hashOfTopCategory;\n  bytes32 public hashOfLastCategory;\n  mapping(uint256=>bytes32) public topCategoryByCount;\n  mapping(bytes32=>category) public categoryIterator;\n  string[] public categoryList;\n\n  mapping(address=>bool) peerExists;\n  mapping(address=>address) ownerToPeerAndPeerToOwner;\n  mapping(address=>mapping(address=>bool)) addressToOwnsSubmission;\n  mapping(address=>bool) tournamentExists;\n  mapping(address=>bool) submissionExists;\n\n  mapping(address=>address[]) entrantToTournamentArray;\n  mapping(address=>address[]) ownerToSubmissionArray;\n  mapping(address=>mapping(address=>uint256_optional))  ownerToSubmissionToSubmissionIndex;\n\n  uint256_optional submissionGratitude = uint256_optional({exists: true, value: 2*10**17});\n\n  function MatryxPlatform(address _matryxTokenAddress, address _matryxPeerFactoryAddress, address _matryxTournamentFactoryAddress, address _matryxSubmissionTrustLibAddress) public\n  {\n    matryxTokenAddress = _matryxTokenAddress;\n    matryxPeerFactoryAddress = _matryxPeerFactoryAddress;\n    matryxTournamentFactoryAddress = _matryxTournamentFactoryAddress;\n    matryxSubmissionTrustLibAddress = _matryxSubmissionTrustLibAddress;\n  }\n\n  /*\n   * Structs\n   */\n\n  struct uint256_optional\n  {\n    bool exists;\n    uint256 value;\n  }\n\n  struct category\n  {\n    string name;\n    uint128 count;\n    bytes32 prev;\n    bytes32 next;\n    address[] tournaments;\n  }\n\n  /*\n   * Events\n   */\n\n  event TournamentCreated(string _discipline, address _owner, address _tournamentAddress, string _tournamentName, bytes _externalAddress, uint256 _MTXReward, uint256 _entryFee);\n  event TournamentOpened(address _owner, address _tournamentAddress, string _tournamentName, bytes _externalAddress, uint256 _MTXReward, uint256 _entryFee);\n  event TournamentClosed(address _tournamentAddress, uint256 _finalRoundNumber, address _winningSubmissionAddress, uint256 _MTXReward);\n  event UserEnteredTournament(address _entrant, address _tournamentAddress);\n  event QueryID(string queryID);\n  /// @dev Allows tournaments to invoke tournamentOpened events on the platform.\n  /// @param _owner Owner of the tournament.\n  /// @param _tournamentAddress Address of the tournament.\n  /// @param _tournamentName Name of the tournament.\n  /// @param _externalAddress External address of the tournament.\n  /// @param _MTXReward Reward for winning the tournament.\n  /// @param _entryFee Fee for entering into the tournament.\n  function invokeTournamentOpenedEvent(address _owner, address _tournamentAddress, string _tournamentName, bytes _externalAddress, uint256 _MTXReward, uint256 _entryFee) public onlyTournament\n  {\n    TournamentOpened(_owner, _tournamentAddress, _tournamentName, _externalAddress, _MTXReward, _entryFee);\n  }\n\n  /// @dev Allows tournaments to invoke tournamentClosed events on the platform.\n  /// @param _tournamentAddress Address of the tournament.\n  /// @param _finalRoundNumber Index of the round containing the winning submission.\n  /// @param _winningSubmissionAddress Address of the winning submission.\n  function invokeTournamentClosedEvent(address _tournamentAddress, uint256 _finalRoundNumber, address _winningSubmissionAddress, uint256 _MTXReward) public onlyTournament\n  {\n    TournamentClosed(_tournamentAddress, _finalRoundNumber, _winningSubmissionAddress, _MTXReward);\n  }\n\n  /* \n   * Modifiers\n   */\n\n  modifier onlyTournament\n  {\n    require(tournamentExists[msg.sender]);\n    _;\n  }\n\n  modifier onlySubmission\n  {\n    require(submissionExists[msg.sender]);\n    _;\n  }\n\n  modifier onlyPeerLinked(address _sender)\n  {\n    require(hasPeer(_sender));\n    _;\n  }\n\n  /* \n   * MTX Balance Methods\n   */\n\n  /// @dev Prepares the user's MTX balance, allowing them to use the platform.\n  /// @param _toIgnore Request bytes (deprecated).\n  function prepareBalance(uint256 _toIgnore) public\n  {   \n      // Make sure that the user has not already attempted to prepare their balance\n      uint256 qID = fromQuerierToQueryID[msg.sender];\n      uint256 queryResponse = queryResponses[qID];\n      require(queryResponse == 0x0);\n\n      this.Query(bytes32(_toIgnore), msg.sender);\n  }\n\n  /// @dev Returns whether or not the user can use the platform.\n  /// @return Whether or not user has a positive balance.\n  function balanceIsNonZero() public view returns (bool)\n  {\n      uint balance = latestResponseFromOracle(msg.sender);\n      return balance != 0;\n  }\n\n  /// @dev Returns the user's balance\n  /// @return Sender's MTX balance.\n  function getBalance() public constant returns (uint256)\n  {\n      uint256 balance = latestResponseFromOracle(msg.sender);\n      return balance;\n  }\n\n  /*\n   * State Maintenance Methods\n   */\n\n  // @dev Sends out reference requests for a particular submission.\n  // @param _references Reference whose authors will be sent requests.\n  // @returns Whether or not all references were successfully sent a request.\n  function handleReferenceRequestsForSubmission(address _submissionAddress, address[] _references) public onlyTournament returns (bool) \n  {\n    for(uint256 i = 0; i < _references.length; i++)\n    {\n      address _referenceAddress = _references[i];\n\n      if(!isSubmission(_referenceAddress))\n      {\n        // TODO: Introduce uint error codes\n        // for returning things like \"Reference _ is not submission\"\n        continue;\n      }\n\n      IMatryxSubmission submission = IMatryxSubmission(_referenceAddress);\n      address author = submission.getAuthor();\n      IMatryxPeer(author).receiveReferenceRequest(_submissionAddress, _referenceAddress);\n      submission.receiveReferenceRequest();\n    }\n  }\n\n  // @dev Sends out a reference request for a submission (must be called by the submission).\n  // @param _reference Reference whose author will be sent a request.\n  // @returns Whether or not all references were successfully sent a request.\n  function handleReferenceRequestForSubmission(address _reference) public onlySubmission returns (bool)\n  {\n      require(isSubmission(_reference));\n      IMatryxSubmission submission = IMatryxSubmission(_reference);\n      address author = submission.getAuthor();\n      IMatryxPeer(author).receiveReferenceRequest(msg.sender, _reference);\n      submission.receiveReferenceRequest();\n  }\n\n  function handleCancelledReferenceRequestForSubmission(address _reference) public onlySubmission returns (bool)\n  {\n    require(isSubmission(_reference));\n    IMatryxSubmission submission = IMatryxSubmission(_reference);\n    address author = submission.getAuthor();\n    IMatryxPeer(author).receiveCancelledReferenceRequest(msg.sender, _reference);\n    submission.cancelReferenceRequest();\n  }\n\n  function updateUsersTournaments(address _owner, address _tournament) internal\n  {\n    entrantToTournamentArray[_owner].push(_tournament);\n  }\n\n  function updateSubmissions(address _owner, address _submission) public onlyTournament\n  {\n    ownerToSubmissionToSubmissionIndex[_owner][_submission] = uint256_optional({exists:true, value:ownerToSubmissionArray[_owner].length});\n    ownerToSubmissionArray[_owner].push(_submission);\n    addressToOwnsSubmission[_owner][_submission] = true;\n    submissionExists[_submission] = true;\n  }\n\n  function removeSubmission(address _submissionAddress, address _tournamentAddress) public returns (bool)\n  {\n    require(addressToOwnsSubmission[msg.sender][_submissionAddress]);\n    require(tournamentExists[_tournamentAddress]);\n    \n    if(submissionExists[_submissionAddress])\n    {\n      IMatryxSubmission submission = IMatryxSubmission(_submissionAddress);\n      address owner = Ownable(_submissionAddress).getOwner();\n      uint256 submissionIndex = ownerToSubmissionToSubmissionIndex[owner][_submissionAddress].value;\n\n      submissionExists[_submissionAddress] = false;\n      delete ownerToSubmissionArray[owner][submissionIndex];\n      delete ownerToSubmissionToSubmissionIndex[owner][_submissionAddress];\n\n      IMatryxTournament(_tournamentAddress).removeSubmission(_submissionAddress, owner);\n      return true;\n    }\n    \n    return false;\n  }\n\n  function addTournamentToCategory(address _tournamentAddress, string _category) internal\n  {\n    bytes32 hashOfCategory = keccak256(_category);\n    // If this is the first tournament in its category\n    if(categoryIterator[hashOfCategory].count == 0)\n    {\n      // Push the new category to a list of categories\n      categoryList.push(_category);\n\n      // If its the first category ever\n      if(hashOfTopCategory == 0x0)\n      {\n        // Update the top category pointer\n        hashOfTopCategory = hashOfCategory;\n        hashOfLastCategory = hashOfCategory;\n        // Create a new entry in the iterator for it and don't store previous or next pointers\n        categoryIterator[hashOfCategory] = category({name: _category, count: 1, prev: 0, next: 0, tournaments: new address[](0)});\n        // Store the mapping from count 1 to this category\n        topCategoryByCount[1] = hashOfCategory;\n      }\n      else\n      {\n        // If this is not the first category ever,\n        // Create a new iterator entry, complete with a prev pointer to the previous last category\n        categoryIterator[hashOfCategory] = category({name: _category, count: 1, prev: hashOfLastCategory, next: 0x0, tournaments: new address[](0)});\n        // Update that previous last category's next pointer (there's one more after it now)\n        categoryIterator[hashOfLastCategory].next = hashOfCategory;\n\n        if(topCategoryByCount[1] == 0x0)\n        {\n          topCategoryByCount[1] = hashOfCategory;\n        }\n      }\n\n      // Push to the tournaments list for this category\n      categoryIterator[hashOfCategory].tournaments.push(_tournamentAddress);\n      // Update the last category pointer\n      hashOfLastCategory = hashOfCategory;\n      return;\n    }\n\n    categoryIterator[hashOfCategory].tournaments.push(_tournamentAddress);\n\n    uint256 categoryCount = categoryIterator[hashOfCategory].count;\n    // If this category has the top relative count (category.prev.count > category.count):\n    //  If category.next exists, the top category for our previous count becomes category.next,\n    //  otherwise (category.next doesn't exist), the top category for our previous count\n    //  we set to 0x0.\n    if(topCategoryByCount[categoryIterator[hashOfCategory].count] == hashOfCategory)\n    {\n      if(categoryIterator[hashOfCategory].next != 0x0)\n      {\n        topCategoryByCount[categoryCount] = categoryIterator[hashOfCategory].next;\n      }\n      else\n      {\n        topCategoryByCount[categoryCount] = 0x0;\n      }\n    }\n\n    uint128 newCount = categoryIterator[hashOfCategory].count + 1;\n    categoryIterator[hashOfCategory].count = newCount;\n\n    // If the top category for our new count is not defined, \n    // define it as this category.\n    if(topCategoryByCount[newCount] == 0)\n    {\n      topCategoryByCount[newCount] = hashOfCategory;\n    }\n\n    // If the count of the category is now greater than the previous category\n    // swap it with the top category of its count.\n    if(categoryIterator[hashOfCategory].prev != 0x0)\n    {\n      if(categoryIterator[hashOfCategory].count > categoryIterator[categoryIterator[hashOfCategory].prev].count)\n      {\n        // define A as the top category of its count\n        bytes32 hashOfTopA = topCategoryByCount[categoryIterator[hashOfCategory].count-1];\n        if(hashOfTopA == hashOfTopCategory)\n        {\n          hashOfTopCategory = hashOfCategory;\n        }\n\n        if(hashOfCategory == hashOfLastCategory)\n        {\n          hashOfLastCategory = categoryIterator[hashOfCategory].prev;\n        }\n\n        category storage A = categoryIterator[hashOfTopA];\n        category storage B = categoryIterator[hashOfCategory];\n\n        bool adjacent = A.next == hashOfCategory;\n        bytes32 Bprev = B.prev;\n        bytes32 Anext = A.next;\n\n        A.next = B.next;\n        B.prev = A.prev;\n\n        if(A.prev != 0x0)\n        {\n          categoryIterator[A.prev].next = hashOfCategory;\n        }\n        if(B.next != 0x0)\n        {\n          categoryIterator[B.next].prev = hashOfTopA;\n        }\n        \n        if(adjacent)\n        {\n          A.prev = hashOfCategory;\n          B.next = hashOfTopA;\n        }\n        else\n        {\n          A.prev = Bprev;\n          B.next = Anext;\n          if(Bprev != 0x0)\n          {\n            categoryIterator[Bprev].next = hashOfTopA;\n          }\n          if(Anext != 0x0)\n          {\n            categoryIterator[Anext].prev = hashOfCategory;\n          }\n        }\n      }\n    }\n  }\n\n  function getTournamentsByCategory(string _category) external constant returns (address[])\n  {\n    return categoryIterator[keccak256(_category)].tournaments;\n  }\n\n  function getCategoryCount(string _category) external constant returns (uint256)\n  {\n    return categoryIterator[keccak256(_category)].count;\n  }\n\n  function getTopCategory(uint256 _index) external constant returns (string)\n  {\n    bytes32 categoryHash = hashOfTopCategory;\n    string categoryName  = categoryIterator[categoryHash].name;\n\n    for(uint256 i = 1; i <= _index; i++)\n    {\n      categoryHash = categoryIterator[categoryHash].next;\n      categoryName = categoryIterator[categoryHash].name;\n    \n      if(categoryHash == 0x0)\n      {\n        break;\n      }\n    }\n\n    return categoryName;\n  }\n\n  function switchTournamentCategory(string discipline) onlyTournament public\n  {\n    revert();\n  }\n\n  /* \n   * Tournament Entry Methods\n   */\n\n  /// @dev Enter the user into a tournament and charge the entry fee.\n  /// @param _tournamentAddress Address of the tournament to enter into.\n  /// @return _success Whether or not user was successfully entered into the tournament.\n  function enterTournament(address _tournamentAddress) public onlyPeerLinked(msg.sender) returns (bool _success)\n  {\n      // TODO: Consider scheme: \n      // submission owner: peer linked account\n      // submission author: peer\n      require(tournamentExists[_tournamentAddress]);\n      \n      IMatryxTournament tournament = IMatryxTournament(_tournamentAddress);\n\n      bool success = tournament.enterUserInTournament(msg.sender);\n      if(success)\n      {\n        updateUsersTournaments(msg.sender, _tournamentAddress);\n        UserEnteredTournament(msg.sender, _tournamentAddress);\n      }\n\n      return success;\n  }\n\n  /* \n   * Tournament Admin Methods\n   */\n\n  /// @dev Create a new tournament.\n  /// @param _tournamentName Name of the new tournament.\n  /// @param _externalAddress Off-chain content hash of tournament details (ipfs hash)\n  /// @param _BountyMTX Total tournament reward in MTX.\n  /// @param _entryFee Fee to charge participant upon entering into tournament.\n  /// @return _tournamentAddress Address of the newly created tournament\n  function createTournament(string _category, string _tournamentName, bytes _externalAddress, uint256 _BountyMTX, uint256 _entryFee, uint256 _reviewPeriod) public onlyPeerLinked(msg.sender) returns (address _tournamentAddress)\n  {\n    IMatryxToken matryxToken = IMatryxToken(matryxTokenAddress);\n    // Check that the platform has a sufficient allowance to\n    // transfer the reward from the tournament creator to itself\n    require(matryxToken.allowance(msg.sender, this) >= _BountyMTX);\n\n    IMatryxTournamentFactory tournamentFactory = IMatryxTournamentFactory(matryxTournamentFactoryAddress);\n    address newTournament = tournamentFactory.createTournament(msg.sender, _tournamentName, _externalAddress, _BountyMTX, _entryFee, _reviewPeriod);\n    TournamentCreated(_category, msg.sender, newTournament, _tournamentName, _externalAddress, _BountyMTX, _entryFee);\n    \n    addTournamentToCategory(newTournament, _category);\n\n    // Transfer the MTX reward to the tournament.\n    bool transferSuccess = matryxToken.transferFrom(msg.sender, newTournament, _BountyMTX);\n    require(transferSuccess);\n    \n    // update data structures\n    allTournaments.push(newTournament);\n    tournamentExists[newTournament] = true;\n\n    return newTournament;\n  }\n\n  /*\n   * Access Control Methods\n   */\n\n  function createPeer() public returns (address)\n  {\n    require(ownerToPeerAndPeerToOwner[msg.sender] == 0x0);\n    IMatryxPeerFactory peerFactory = IMatryxPeerFactory(matryxPeerFactoryAddress);\n    address peer = peerFactory.createPeer(msg.sender);\n    peerExists[peer] = true;\n    ownerToPeerAndPeerToOwner[msg.sender] = peer;\n    ownerToPeerAndPeerToOwner[peer] = msg.sender;\n  }\n\n  function isPeer(address _peerAddress) public constant returns (bool)\n  {\n    return peerExists[_peerAddress];\n  }\n\n  // TODO: add constant\n  function hasPeer(address _sender) public constant returns (bool)\n  {\n    return (ownerToPeerAndPeerToOwner[_sender] != 0x0);\n  }\n\n  // TODO: add constant\n  function peerExistsAndOwnsSubmission(address _peer, address _reference) public constant returns (bool)\n  {\n    bool isAPeer = peerExists[_peer];\n    bool referenceIsSubmission = submissionExists[_reference];\n    bool peerOwnsSubmission = addressToOwnsSubmission[ownerToPeerAndPeerToOwner[_peer]][_reference];\n\n    return isAPeer && referenceIsSubmission && peerOwnsSubmission;\n  }\n\n  function peerAddress(address _sender) public constant returns (address)\n  {\n    return ownerToPeerAndPeerToOwner[_sender];\n  }\n\n  function isSubmission(address _submissionAddress) public constant returns (bool)\n  {\n    return submissionExists[_submissionAddress];\n  }\n\n  /// @dev Returns whether or not the given tournament belongs to the sender.\n  /// @param _tournamentAddress Address of the tournament to check.\n  /// @return _isMine Whether or not the tournament belongs to the sender.\n  function getTournament_IsMine(address _tournamentAddress) public constant returns (bool _isMine)\n  {\n    require(tournamentExists[_tournamentAddress]);\n    Ownable tournament = Ownable(_tournamentAddress);\n    return (tournament.getOwner() == msg.sender);\n  }\n\n  /*\n   * Setter Methods\n   */ \n\n    /// @dev              Set the relative amount of MTX to be delivered to a submission's\n    ///                   references\n    /// @param _gratitude Weight from 0 to 1 (18 decimal uint) specifying enforced submission \n    ///                   gratitude\n    function setSubmissionGratitude(uint256 _gratitude) public onlyOwner\n    {\n        assert(_gratitude >= 0 && _gratitude <= (1*10**18));\n        submissionGratitude = uint256_optional({exists: true, value: _gratitude});\n    }\n\n  /*\n   * Getter Methods\n   */\n\n   function getTokenAddress() public constant returns (address)\n   {\n      return matryxTokenAddress;\n   }\n\n   function getSubmissionTrustLibrary() public constant returns (address)\n   {\n      return matryxSubmissionTrustLibAddress;\n   }\n\n   function getRoundLibAddress() public constant returns (address)\n   {\n      return matryxRoundLibAddress;\n   }\n\n   /// @dev    Returns a weight from 0 to 1 (18 decimal uint) indicating\n   ///         how much of a submission's reward goes to its references.\n   /// @return Relative amount of MTX going to references of submissions under this tournament.\n   function getSubmissionGratitude() public constant returns (uint256)\n   {\n      require(submissionGratitude.exists);\n      return submissionGratitude.value;\n   }\n\n   /// @dev Returns addresses for submissions the sender has created.\n   /// @return Address array representing submissions.\n   function myTournaments() public constant returns (address[])\n   {\n      return entrantToTournamentArray[msg.sender];\n   }\n\n   function mySubmissions() public constant returns (address[])\n   {\n    return ownerToSubmissionArray[msg.sender];\n   }\n\n   /// @dev Returns the total number of tournaments\n   /// @return _tournamentCount Total number of tournaments.\n   function tournamentCount() public constant returns (uint256 _tournamentCount)\n   {\n       return allTournaments.length;\n   }\n \n   function getTournamentAtIndex(uint256 _index) public constant returns (address _tournamentAddress)\n   {\n     require(_index >= 0);\n     require(_index < allTournaments.length);\n     return allTournaments[_index];\n   }\n}",
  "sourcePath": "/Users/maxhoward/Desktop/Ethereum/Development/Matryx AWS/Projects/matryx-alpha-source/contracts/MatryxPlatform.sol",
  "compiler": {
    "name": "solc",
    "version": "0.4.19+commit.c4cbbb05.Emscripten.clang"
  },
  "schemaVersion": "2.0.0",
  "updatedAt": "2018-03-29T18:43:54.391Z"
}