{
  "contractName": "MatryxTournament",
  "abi": [
    {
      "constant": true,
      "inputs": [],
      "name": "entryFee",
      "outputs": [
        {
          "name": "",
          "type": "uint256"
        }
      ],
      "payable": false,
      "stateMutability": "view",
      "type": "function"
    },
    {
      "constant": true,
      "inputs": [],
      "name": "matryxTokenAddress",
      "outputs": [
        {
          "name": "",
          "type": "address"
        }
      ],
      "payable": false,
      "stateMutability": "view",
      "type": "function"
    },
    {
      "constant": true,
      "inputs": [
        {
          "name": "_sender",
          "type": "address"
        }
      ],
      "name": "isOwner",
      "outputs": [
        {
          "name": "_isOwner",
          "type": "bool"
        }
      ],
      "payable": false,
      "stateMutability": "view",
      "type": "function"
    },
    {
      "constant": true,
      "inputs": [
        {
          "name": "",
          "type": "uint256"
        }
      ],
      "name": "title",
      "outputs": [
        {
          "name": "",
          "type": "bytes32"
        }
      ],
      "payable": false,
      "stateMutability": "view",
      "type": "function"
    },
    {
      "constant": true,
      "inputs": [],
      "name": "tournamentOpenedTime",
      "outputs": [
        {
          "name": "",
          "type": "uint256"
        }
      ],
      "payable": false,
      "stateMutability": "view",
      "type": "function"
    },
    {
      "constant": true,
      "inputs": [
        {
          "name": "",
          "type": "uint256"
        }
      ],
      "name": "descriptionHash",
      "outputs": [
        {
          "name": "",
          "type": "bytes32"
        }
      ],
      "payable": false,
      "stateMutability": "view",
      "type": "function"
    },
    {
      "constant": true,
      "inputs": [],
      "name": "matryxRoundFactoryAddress",
      "outputs": [
        {
          "name": "",
          "type": "address"
        }
      ],
      "payable": false,
      "stateMutability": "view",
      "type": "function"
    },
    {
      "constant": true,
      "inputs": [],
      "name": "getOwner",
      "outputs": [
        {
          "name": "_owner",
          "type": "address"
        }
      ],
      "payable": false,
      "stateMutability": "view",
      "type": "function"
    },
    {
      "constant": true,
      "inputs": [
        {
          "name": "",
          "type": "address"
        }
      ],
      "name": "isRound",
      "outputs": [
        {
          "name": "",
          "type": "bool"
        }
      ],
      "payable": false,
      "stateMutability": "view",
      "type": "function"
    },
    {
      "constant": true,
      "inputs": [
        {
          "name": "",
          "type": "uint256"
        }
      ],
      "name": "rounds",
      "outputs": [
        {
          "name": "",
          "type": "address"
        }
      ],
      "payable": false,
      "stateMutability": "view",
      "type": "function"
    },
    {
      "constant": true,
      "inputs": [],
      "name": "owner",
      "outputs": [
        {
          "name": "",
          "type": "address"
        }
      ],
      "payable": false,
      "stateMutability": "view",
      "type": "function"
    },
    {
      "constant": true,
      "inputs": [],
      "name": "Bounty",
      "outputs": [
        {
          "name": "",
          "type": "uint256"
        }
      ],
      "payable": false,
      "stateMutability": "view",
      "type": "function"
    },
    {
      "constant": true,
      "inputs": [],
      "name": "BountyLeft",
      "outputs": [
        {
          "name": "",
          "type": "uint256"
        }
      ],
      "payable": false,
      "stateMutability": "view",
      "type": "function"
    },
    {
      "constant": true,
      "inputs": [],
      "name": "categoryHash",
      "outputs": [
        {
          "name": "",
          "type": "bytes32"
        }
      ],
      "payable": false,
      "stateMutability": "view",
      "type": "function"
    },
    {
      "constant": true,
      "inputs": [],
      "name": "platformAddress",
      "outputs": [
        {
          "name": "",
          "type": "address"
        }
      ],
      "payable": false,
      "stateMutability": "view",
      "type": "function"
    },
    {
      "constant": true,
      "inputs": [],
      "name": "timeCreated",
      "outputs": [
        {
          "name": "",
          "type": "uint256"
        }
      ],
      "payable": false,
      "stateMutability": "view",
      "type": "function"
    },
    {
      "constant": false,
      "inputs": [
        {
          "name": "newOwner",
          "type": "address"
        }
      ],
      "name": "transferOwnership",
      "outputs": [],
      "payable": false,
      "stateMutability": "nonpayable",
      "type": "function"
    },
    {
      "inputs": [
        {
          "components": [
            {
              "name": "categoryHash",
              "type": "bytes32"
            },
            {
              "name": "title_1",
              "type": "bytes32"
            },
            {
              "name": "title_2",
              "type": "bytes32"
            },
            {
              "name": "title_3",
              "type": "bytes32"
            },
            {
              "name": "contentHash_1",
              "type": "bytes32"
            },
            {
              "name": "contentHash_2",
              "type": "bytes32"
            },
            {
              "name": "Bounty",
              "type": "uint256"
            },
            {
              "name": "entryFee",
              "type": "uint256"
            }
          ],
          "name": "tournamentData",
          "type": "tuple"
        },
        {
          "components": [
            {
              "name": "start",
              "type": "uint256"
            },
            {
              "name": "end",
              "type": "uint256"
            },
            {
              "name": "reviewDuration",
              "type": "uint256"
            },
            {
              "name": "bounty",
              "type": "uint256"
            }
          ],
          "name": "roundData",
          "type": "tuple"
        },
        {
          "name": "_platformAddress",
          "type": "address"
        },
        {
          "name": "_matryxTokenAddress",
          "type": "address"
        },
        {
          "name": "_matryxRoundFactoryAddress",
          "type": "address"
        },
        {
          "name": "_owner",
          "type": "address"
        }
      ],
      "payable": false,
      "stateMutability": "nonpayable",
      "type": "constructor"
    },
    {
      "anonymous": false,
      "inputs": [
        {
          "indexed": false,
          "name": "_startTime",
          "type": "uint256"
        },
        {
          "indexed": false,
          "name": "_endTime",
          "type": "uint256"
        },
        {
          "indexed": false,
          "name": "_reviewDuration",
          "type": "uint256"
        },
        {
          "indexed": false,
          "name": "_roundAddress",
          "type": "address"
        },
        {
          "indexed": false,
          "name": "_roundNumber",
          "type": "uint256"
        }
      ],
      "name": "NewRound",
      "type": "event"
    },
    {
      "anonymous": false,
      "inputs": [
        {
          "indexed": false,
          "name": "_roundIndex",
          "type": "uint256"
        },
        {
          "indexed": false,
          "name": "_submissionAddress",
          "type": "address"
        }
      ],
      "name": "SubmissionCreated",
      "type": "event"
    },
    {
      "anonymous": false,
      "inputs": [
        {
          "indexed": false,
          "name": "_submissionAddresses",
          "type": "address[]"
        }
      ],
      "name": "RoundWinnersChosen",
      "type": "event"
    },
    {
      "constant": false,
      "inputs": [
        {
          "name": "_submissionAddress",
          "type": "address"
        }
      ],
      "name": "invokeSubmissionCreatedEvent",
      "outputs": [],
      "payable": false,
      "stateMutability": "nonpayable",
      "type": "function"
    },
    {
      "constant": false,
      "inputs": [
        {
          "name": "_submissionAddress",
          "type": "address"
        },
        {
          "name": "_author",
          "type": "address"
        }
      ],
      "name": "removeSubmission",
      "outputs": [
        {
          "name": "",
          "type": "bool"
        }
      ],
      "payable": false,
      "stateMutability": "nonpayable",
      "type": "function"
    },
    {
      "constant": true,
      "inputs": [
        {
          "name": "_sender",
          "type": "address"
        }
      ],
      "name": "isEntrant",
      "outputs": [
        {
          "name": "",
          "type": "bool"
        }
      ],
      "payable": false,
      "stateMutability": "view",
      "type": "function"
    },
    {
      "constant": true,
      "inputs": [],
      "name": "getState",
      "outputs": [
        {
          "name": "",
          "type": "uint256"
        }
      ],
      "payable": false,
      "stateMutability": "view",
      "type": "function"
    },
    {
      "constant": true,
      "inputs": [],
      "name": "getPlatform",
      "outputs": [
        {
          "name": "_platformAddress",
          "type": "address"
        }
      ],
      "payable": false,
      "stateMutability": "view",
      "type": "function"
    },
    {
      "constant": true,
      "inputs": [],
      "name": "getTitle",
      "outputs": [
        {
          "name": "_title",
          "type": "bytes32[3]"
        }
      ],
      "payable": false,
      "stateMutability": "view",
      "type": "function"
    },
    {
      "constant": true,
      "inputs": [],
      "name": "getCategory",
      "outputs": [
        {
          "name": "_category",
          "type": "string"
        }
      ],
      "payable": false,
      "stateMutability": "view",
      "type": "function"
    },
    {
      "constant": true,
      "inputs": [],
      "name": "getDescriptionHash",
      "outputs": [
        {
          "name": "_descriptionHash",
          "type": "bytes32[2]"
        }
      ],
      "payable": false,
      "stateMutability": "view",
      "type": "function"
    },
    {
      "constant": true,
      "inputs": [],
      "name": "currentRound",
      "outputs": [
        {
          "name": "_currentRound",
          "type": "uint256"
        },
        {
          "name": "_currentRoundAddress",
          "type": "address"
        }
      ],
      "payable": false,
      "stateMutability": "view",
      "type": "function"
    },
    {
      "constant": true,
      "inputs": [],
      "name": "mySubmissions",
      "outputs": [
        {
          "name": "",
          "type": "address[]"
        }
      ],
      "payable": false,
      "stateMutability": "view",
      "type": "function"
    },
    {
      "constant": true,
      "inputs": [],
      "name": "submissionCount",
      "outputs": [
        {
          "name": "_submissionCount",
          "type": "uint256"
        }
      ],
      "payable": false,
      "stateMutability": "view",
      "type": "function"
    },
    {
      "constant": true,
      "inputs": [],
      "name": "entrantCount",
      "outputs": [
        {
          "name": "_entrantCount",
          "type": "uint256"
        }
      ],
      "payable": false,
      "stateMutability": "view",
      "type": "function"
    },
    {
      "constant": false,
      "inputs": [
        {
          "components": [
            {
              "name": "title_1",
              "type": "bytes32"
            },
            {
              "name": "title_2",
              "type": "bytes32"
            },
            {
              "name": "title_3",
              "type": "bytes32"
            },
            {
              "name": "contentHash_1",
              "type": "bytes32"
            },
            {
              "name": "contentHash_2",
              "type": "bytes32"
            },
            {
              "name": "entryFee",
              "type": "uint256"
            },
            {
              "name": "entryFeeChanged",
              "type": "bool"
            }
          ],
          "name": "tournamentData",
          "type": "tuple"
        }
      ],
      "name": "update",
      "outputs": [],
      "payable": false,
      "stateMutability": "nonpayable",
      "type": "function"
    },
    {
      "constant": false,
      "inputs": [
        {
          "name": "_title",
          "type": "bytes32[3]"
        }
      ],
      "name": "updateTitle",
      "outputs": [],
      "payable": false,
      "stateMutability": "nonpayable",
      "type": "function"
    },
    {
      "constant": false,
      "inputs": [
        {
          "name": "_descriptionHash",
          "type": "bytes32[2]"
        }
      ],
      "name": "updateDescriptionHash",
      "outputs": [],
      "payable": false,
      "stateMutability": "nonpayable",
      "type": "function"
    },
    {
      "constant": false,
      "inputs": [
        {
          "name": "_entryFee",
          "type": "uint256"
        }
      ],
      "name": "updateEntryFee",
      "outputs": [],
      "payable": false,
      "stateMutability": "nonpayable",
      "type": "function"
    },
    {
      "constant": false,
      "inputs": [
        {
          "name": "_category",
          "type": "string"
        }
      ],
      "name": "updateCategory",
      "outputs": [],
      "payable": false,
      "stateMutability": "nonpayable",
      "type": "function"
    },
    {
      "constant": false,
      "inputs": [
        {
          "name": "_submissionAddresses",
          "type": "address[]"
        },
        {
          "name": "_rewardDistribution",
          "type": "uint256[]"
        },
        {
          "components": [
            {
              "name": "start",
              "type": "uint256"
            },
            {
              "name": "end",
              "type": "uint256"
            },
            {
              "name": "reviewDuration",
              "type": "uint256"
            },
            {
              "name": "bounty",
              "type": "uint256"
            }
          ],
          "name": "roundData",
          "type": "tuple"
        }
      ],
      "name": "closeRound",
      "outputs": [],
      "payable": false,
      "stateMutability": "nonpayable",
      "type": "function"
    },
    {
      "constant": false,
      "inputs": [
        {
          "name": "_submissionAddresses",
          "type": "address[]"
        },
        {
          "name": "_rewardDistribution",
          "type": "uint256[]"
        }
      ],
      "name": "closeTournament",
      "outputs": [],
      "payable": false,
      "stateMutability": "nonpayable",
      "type": "function"
    },
    {
      "constant": false,
      "inputs": [
        {
          "name": "_roundIndex",
          "type": "uint256"
        },
        {
          "name": "_bountyMTX",
          "type": "uint256"
        }
      ],
      "name": "sendBountyToRound",
      "outputs": [],
      "payable": false,
      "stateMutability": "nonpayable",
      "type": "function"
    },
    {
      "constant": true,
      "inputs": [],
      "name": "remainingBounty",
      "outputs": [
        {
          "name": "",
          "type": "uint256"
        }
      ],
      "payable": false,
      "stateMutability": "view",
      "type": "function"
    },
    {
      "constant": false,
      "inputs": [
        {
          "name": "_entrantAddress",
          "type": "address"
        }
      ],
      "name": "enterUserInTournament",
      "outputs": [
        {
          "name": "_success",
          "type": "bool"
        }
      ],
      "payable": false,
      "stateMutability": "nonpayable",
      "type": "function"
    },
    {
      "constant": true,
      "inputs": [],
      "name": "getEntryFee",
      "outputs": [
        {
          "name": "",
          "type": "uint256"
        }
      ],
      "payable": false,
      "stateMutability": "view",
      "type": "function"
    },
    {
      "constant": false,
      "inputs": [
        {
          "name": "_contributors",
          "type": "address[]"
        },
        {
          "name": "_contributorRewardDistribution",
          "type": "uint128[]"
        },
        {
          "name": "_references",
          "type": "address[]"
        },
        {
          "components": [
            {
              "name": "title",
              "type": "string"
            },
            {
              "name": "owner",
              "type": "address"
            },
            {
              "name": "contentHash",
              "type": "bytes"
            },
            {
              "name": "isPublic",
              "type": "bool"
            }
          ],
          "name": "submissionData",
          "type": "tuple"
        }
      ],
      "name": "createSubmission",
      "outputs": [
        {
          "name": "_submissionAddress",
          "type": "address"
        }
      ],
      "payable": false,
      "stateMutability": "nonpayable",
      "type": "function"
    }
  ],
  "bytecode": "0x608060405260006011553480156200001657600080fd5b50604051610200806200383d833981018060405262000039919081019062000680565b6000805460018054600160a060020a03888116600160a060020a031992831617909255600280548884169083161790556003805487841690831617905542600a559084169181163317161790558551600955602086015160045560408601516005556060860151600655608086015160075560a086015160085560c0860151600e5560e0860151601055620000d785640100000000620000e4810204565b50505050505050620008d4565b600354600090600160a060020a031681806200010864010000000062000410810204565b9050846060015160001415620001e157600c805460001981019081106200012b57fe5b9060005260206000200160009054906101000a9004600160a060020a0316600160a060020a031663f49bff7b6040518163ffffffff167c0100000000000000000000000000000000000000000000000000000000028152600401602060405180830381600087803b158015620001a057600080fd5b505af1158015620001b5573d6000803e3d6000fd5b505050506040513d601f19601f82011682018060405250620001db91908101906200071a565b60608601525b8085606001511115620001f657606085018190525b6001546040517f6ecd3a9c000000000000000000000000000000000000000000000000000000008152600160a060020a0385811692636ecd3a9c92620002499290911690309033908b90600401620007ba565b602060405180830381600087803b1580156200026457600080fd5b505af115801562000279573d6000803e3d6000fd5b505050506040513d601f19601f820116820180604052506200029f919081019062000636565b600c5490925060011015620003575760025460608601516040517fa9059cbb000000000000000000000000000000000000000000000000000000008152600160a060020a039092169163a9059cbb91620002ff9186919060040162000800565b602060405180830381600087803b1580156200031a57600080fd5b505af11580156200032f573d6000803e3d6000fd5b505050506040513d601f19601f820116820180604052506200035591908101906200065f565b505b600160a060020a0382166000818152600d60209081526040808320805460ff19166001908117909155600c80549182018155938490527fdf6966c971051c3d54ec59162606531493a51404a002842f56009d7e5cf4a8c7018054600160a060020a03191690941790935587519088015188840151925493517f7d3cfca05a07773179cf217e8ffc51764c3dce48e826d85feb2b280f7674eeef9462000400949188919062000835565b60405180910390a1509392505050565b6002546040517f70a08231000000000000000000000000000000000000000000000000000000008152600091600160a060020a0316906370a08231906200045c9030906004016200081f565b602060405180830381600087803b1580156200047757600080fd5b505af11580156200048c573d6000803e3d6000fd5b505050506040513d601f19601f82011682018060405250620004b291908101906200071a565b905090565b6000620004c58251620008b3565b9392505050565b6000620004c58251620008c2565b6000620004c58251620008bf565b600060808284031215620004fb57600080fd5b6200050760806200088b565b90506000620005178484620004da565b82525060206200052a84848301620004da565b60208301525060406200054084828501620004da565b60408301525060606200055684828501620004da565b60608301525092915050565b600061010082840312156200057657600080fd5b620005836101006200088b565b90506000620005938484620004da565b8252506020620005a684848301620004da565b6020830152506040620005bc84828501620004da565b6040830152506060620005d284828501620004da565b6060830152506080620005e884828501620004da565b60808301525060a0620005fe84828501620004da565b60a08301525060c06200061484828501620004da565b60c08301525060e06200062a84828501620004da565b60e08301525092915050565b6000602082840312156200064957600080fd5b6000620006578484620004b7565b949350505050565b6000602082840312156200067257600080fd5b6000620006578484620004cc565b60008060008060008061020087890312156200069b57600080fd5b6000620006a9898962000562565b965050610100620006bd89828a01620004e8565b955050610180620006d189828a01620004b7565b9450506101a0620006e589828a01620004b7565b9350506101c0620006f989828a01620004b7565b9250506101e06200070d89828a01620004b7565b9150509295509295509295565b6000602082840312156200072d57600080fd5b6000620006578484620004da565b6200074681620008b3565b82525050565b6200074681620008c7565b805160808301906200076a8482620007af565b5060208201516200077f6020850182620007af565b506040820151620007946040850182620007af565b506060820151620007a96060850182620007af565b50505050565b6200074681620008bf565b60e08101620007ca82876200073b565b620007d960208301866200074c565b620007e860408301856200073b565b620007f7606083018462000757565b95945050505050565b604081016200081082856200073b565b620004c56020830184620007af565b602081016200082f82846200074c565b92915050565b60a08101620008458288620007af565b620008546020830187620007af565b620008636040830186620007af565b6200087260608301856200073b565b620008816080830184620007af565b9695505050505050565b60405181810167ffffffffffffffff81118282101715620008ab57600080fd5b604052919050565b600160a060020a031690565b90565b151590565b60006200082f82620008b3565b612f5980620008e46000396000f3006080604052600436106101f85763ffffffff7c0100000000000000000000000000000000000000000000000000000000600035041663072ea61c81146101fd5780630befb0a51461022857806315dc132e1461023d5780631865c57d1461026a578063215381aa1461027f57806323721e24146102a1578063245edf06146102c157806324d9a0d9146102e357806328d576d71461030357806329cc545e146103305780632f54bf6e146103455780632fc1f1901461036557806335a1223a1461037a578063447411f31461039a5780634644c51b146103af578063519b37a9146103cf57806352c01fab146103ef5780635ce7a46a1461040f5780636ec02be91461042f5780636fe564201461044457806380258e4714610459578063893d20e81461047b57806389f3beb6146104905780638a19c8bc146104a55780638c1fc0bb146104c85780638c65c81f146104e85780638da5cb5b14610508578063a968c4b91461051d578063aa1826261461053d578063aa53d5041461055d578063ab88ef6814610572578063aceed30314610587578063c0bb3b60146105a7578063d83717e1146105bc578063dbe55e56146105dc578063e139a20c146105f1578063e586a4f014610613578063f1653f6e14610628578063f2fde38b1461063d578063fc116acd1461065d578063ff3c1a8f1461067d575b600080fd5b34801561020957600080fd5b5061021261069f565b60405161021f9190612d21565b60405180910390f35b34801561023457600080fd5b506102126106a5565b34801561024957600080fd5b5061025d61025836600461259a565b610754565b60405161021f9190612b43565b34801561027657600080fd5b50610212610c52565b34801561028b57600080fd5b5061029f61029a3660046126b9565b610cf6565b005b3480156102ad57600080fd5b5061029f6102bc366004612853565b610fdc565b3480156102cd57600080fd5b506102d66110df565b60405161021f9190612cf7565b3480156102ef57600080fd5b5061029f6102fe366004612735565b61111a565b34801561030f57600080fd5b5061032361031e36600461251c565b61114f565b60405161021f9190612d13565b34801561033c57600080fd5b5061025d611261565b34801561035157600080fd5b5061032361036036600461251c565b61127d565b34801561037157600080fd5b5061025d61129e565b34801561038657600080fd5b50610212610395366004612817565b6112ba565b3480156103a657600080fd5b506102126112ce565b3480156103bb57600080fd5b5061029f6103ca36600461251c565b6112d4565b3480156103db57600080fd5b5061029f6103ea3660046127f9565b611336565b3480156103fb57600080fd5b5061032361040a36600461251c565b611384565b34801561041b57600080fd5b5061021261042a366004612817565b6113af565b34801561043b57600080fd5b506102126113bc565b34801561045057600080fd5b5061025d6113c2565b34801561046557600080fd5b5061046e6113de565b60405161021f9190612d3d565b34801561048757600080fd5b5061025d61148d565b34801561049c57600080fd5b506102126114a9565b3480156104b157600080fd5b506104ba6114af565b60405161021f929190612d5e565b3480156104d457600080fd5b506103236104e336600461251c565b6114f2565b3480156104f457600080fd5b5061025d610503366004612817565b611507565b34801561051457600080fd5b5061025d61153c565b34801561052957600080fd5b50610323610538366004612560565b611558565b34801561054957600080fd5b5061029f610558366004612817565b611699565b34801561056957600080fd5b506102126116c2565b34801561057e57600080fd5b506102126116c8565b34801561059357600080fd5b5061029f6105a236600461265a565b6116ce565b3480156105b357600080fd5b50610212611a46565b3480156105c857600080fd5b5061029f6105d7366004612753565b611a4c565b3480156105e857600080fd5b5061025d611a7d565b3480156105fd57600080fd5b50610606611a99565b60405161021f9190612c5c565b34801561061f57600080fd5b50610212611b1b565b34801561063457600080fd5b50610212611b21565b34801561064957600080fd5b5061029f61065836600461251c565b611b27565b34801561066957600080fd5b5061029f61067836600461278f565b611bb4565b34801561068957600080fd5b50610692611bd8565b60405161021f9190612d05565b60105481565b6002546040517f70a0823100000000000000000000000000000000000000000000000000000000815260009173ffffffffffffffffffffffffffffffffffffffff16906370a08231906106fc903090600401612d2f565b602060405180830381600087803b15801561071657600080fd5b505af115801561072a573d6000803e3d6000fd5b505050506040513d601f19601f8201168201806040525061074e9190810190612835565b90505b90565b336000908152601460205260408120548190819060ff1680151561077757600080fd5b6001546040517f532311c4000000000000000000000000000000000000000000000000000000008152339173ffffffffffffffffffffffffffffffffffffffff1690819063532311c4906107cf908590600401612b43565b602060405180830381600087803b1580156107e957600080fd5b505af11580156107fd573d6000803e3d6000fd5b505050506040513d601f19601f820116820180604052506108219190810190612771565b151561082c57600080fd5b6001610836610c52565b1461084057600080fd5b60015460208801516040517f6a44e43d00000000000000000000000000000000000000000000000000000000815273ffffffffffffffffffffffffffffffffffffffff90921691636a44e43d9161089991600401612b43565b602060405180830381600087803b1580156108b357600080fd5b505af11580156108c7573d6000803e3d6000fd5b505050506040513d601f19601f820116820180604052506108eb9190810190612542565b600c805491965090600019810190811061090157fe5b6000918252602090912001546040517f8734fe4c00000000000000000000000000000000000000000000000000000000815273ffffffffffffffffffffffffffffffffffffffff90911690638734fe4c90610968908d908d908d908b908e90600401612c6d565b602060405180830381600087803b15801561098257600080fd5b505af1158015610996573d6000803e3d6000fd5b505050506040513d601f19601f820116820180604052506109ba9190810190612542565b6001546040517f8c593a8c00000000000000000000000000000000000000000000000000000000815291955073ffffffffffffffffffffffffffffffffffffffff1690638c593a8c90610a139087908c90600401612b6c565b602060405180830381600087803b158015610a2d57600080fd5b505af1158015610a41573d6000803e3d6000fd5b505050506040513d601f19601f82011682018060405250610a659190810190612771565b506011541515610b175760015460005460048054600554600654600754600854600e546010546040517fa923251e00000000000000000000000000000000000000000000000000000000815273ffffffffffffffffffffffffffffffffffffffff9a8b169a63a923251e9a610ae49a9116989796959493929101612b8c565b600060405180830381600087803b158015610afe57600080fd5b505af1158015610b12573d6000803e3d6000fd5b505050505b601154610b2b90600163ffffffff611c0e16565b60115560408051808201825260018082523360008181526012602081815286832080548288019081528585526013835288852073ffffffffffffffffffffffffffffffffffffffff8e81168088529185528a872099518a5460ff1916901515178a5591519888019890985592825280548087018255908452922090910180547fffffffffffffffffffffffff000000000000000000000000000000000000000016909417909355905492517fab9583d9000000000000000000000000000000000000000000000000000000008152929091169163ab9583d991610c12918890600401612b51565b600060405180830381600087803b158015610c2c57600080fd5b505af1158015610c40573d6000803e3d6000fd5b50959c9b505050505050505050505050565b600c8054600091906000198101908110610c6857fe5b9060005260206000200160009054906101000a900473ffffffffffffffffffffffffffffffffffffffff1673ffffffffffffffffffffffffffffffffffffffff16631865c57d6040518163ffffffff167c0100000000000000000000000000000000000000000000000000000000028152600401602060405180830381600087803b15801561071657600080fd5b60005473ffffffffffffffffffffffffffffffffffffffff163314610d1a57600080fd5b6002610d24610c52565b14610d64576040517f08c379a0000000000000000000000000000000000000000000000000000000008152600401610d5b90612d4e565b60405180910390fd5b600c80546000198101908110610d7657fe5b6000918252602090912001546040517fc2d426cf00000000000000000000000000000000000000000000000000000000815273ffffffffffffffffffffffffffffffffffffffff9091169063c2d426cf90610dd79086908690600401612cd2565b600060405180830381600087803b158015610df157600080fd5b505af1158015610e05573d6000803e3d6000fd5b505050507f5ec9914f46ca24eeb7222e98b6f699b769ab33c1d88072c0651eb9bb19478ad583604051610e389190612c5c565b60405180910390a1610e486106a5565b1515610fc857610e5883836116ce565b600154600c805473ffffffffffffffffffffffffffffffffffffffff909216916331f4c5d391869086906000198401848110610e9057fe5b9060005260206000200160009054906101000a900473ffffffffffffffffffffffffffffffffffffffff1673ffffffffffffffffffffffffffffffffffffffff1663f49bff7b6040518163ffffffff167c0100000000000000000000000000000000000000000000000000000000028152600401602060405180830381600087803b158015610f1e57600080fd5b505af1158015610f32573d6000803e3d6000fd5b505050506040513d601f19601f82011682018060405250610f569190810190612835565b6040518563ffffffff167c0100000000000000000000000000000000000000000000000000000000028152600401610f919493929190612d6c565b600060405180830381600087803b158015610fab57600080fd5b505af1158015610fbf573d6000803e3d6000fd5b50505050610fd7565b60008152610fd581611c24565b505b505050565b60015473ffffffffffffffffffffffffffffffffffffffff16331461100057600080fd5b600254600c805473ffffffffffffffffffffffffffffffffffffffff9092169163a9059cbb91908590811061103157fe5b6000918252602090912001546040517c010000000000000000000000000000000000000000000000000000000063ffffffff841602815261108d9173ffffffffffffffffffffffffffffffffffffffff16908590600401612c41565b602060405180830381600087803b1580156110a757600080fd5b505af11580156110bb573d6000803e3d6000fd5b505050506040513d601f19601f82011682018060405250610fd79190810190612771565b6110e7611fa7565b60408051808201918290529060079060029082845b815481526001909101906020018083116110fc575050505050905090565b60005473ffffffffffffffffffffffffffffffffffffffff16331461113e57600080fd5b61114b6007826002611fc2565b5050565b60015460009073ffffffffffffffffffffffffffffffffffffffff16331461117657600080fd5b6001611180610c52565b1461118a57600080fd5b73ffffffffffffffffffffffffffffffffffffffff821660009081526014602052604090205460ff161515600114156111c55750600061125c565b5073ffffffffffffffffffffffffffffffffffffffff81166000818152601460205260408120805460ff1916600190811782556010549181019190915560158054808301825592527f55f448fdea98c4d29eb340757ef0a66cd03dbb9538908a6a81d96026b71ec47590910180547fffffffffffffffffffffffff0000000000000000000000000000000000000000169092179091555b919050565b60025473ffffffffffffffffffffffffffffffffffffffff1681565b60005473ffffffffffffffffffffffffffffffffffffffff91821691161490565b60015473ffffffffffffffffffffffffffffffffffffffff1690565b600481600381106112c757fe5b0154905081565b600b5481565b336000908152600d602052604090205460ff1615156112f257600080fd5b7f5fbb3d346317d5ecdb86412d4c69c7503ff4dbed1eccd4cb6290453ea0b1a3226001600c80549050038260405161132b929190612d5e565b60405180910390a150565b805115611353578051600455602081015160055560408101516006555b60608101511561136e57606081015160075560808101516008555b8060c00151156113815760a08101516010555b50565b73ffffffffffffffffffffffffffffffffffffffff1660009081526014602052604090205460ff1690565b600781600281106112c757fe5b60115490565b60035473ffffffffffffffffffffffffffffffffffffffff1681565b6001546009546040517f8d1d498c00000000000000000000000000000000000000000000000000000000815260609273ffffffffffffffffffffffffffffffffffffffff1691638d1d498c916114379190600401612d21565b600060405180830381600087803b15801561145157600080fd5b505af1158015611465573d6000803e3d6000fd5b505050506040513d6000823e601f3d908101601f1916820160405261074e91908101906127c4565b60005473ffffffffffffffffffffffffffffffffffffffff1690565b60155490565b600c805460009182919060001982018281106114c757fe5b60009182526020909120015490925073ffffffffffffffffffffffffffffffffffffffff1690509091565b600d6020526000908152604090205460ff1681565b600c80548290811061151557fe5b60009182526020909120015473ffffffffffffffffffffffffffffffffffffffff16905081565b60005473ffffffffffffffffffffffffffffffffffffffff1681565b60015460009073ffffffffffffffffffffffffffffffffffffffff16331461157f57600080fd5b73ffffffffffffffffffffffffffffffffffffffff80831660009081526013602090815260408083209387168352929052205460ff1615156115c057600080fd5b6011546115d490600163ffffffff611f9516565b60115573ffffffffffffffffffffffffffffffffffffffff8083166000908152601260209081526040808320601383528184209488168452939091529020600101548154811061162057fe5b6000918252602080832090910180547fffffffffffffffffffffffff000000000000000000000000000000000000000016905573ffffffffffffffffffffffffffffffffffffffff8481168352601382526040808420918716845291528120805460ff1916815560019081019190915590505b92915050565b60005473ffffffffffffffffffffffffffffffffffffffff1633146116bd57600080fd5b601055565b600e5481565b600f5481565b60005473ffffffffffffffffffffffffffffffffffffffff1633146116f257600080fd5b60026116fc610c52565b1461170657600080fd5b600254600c805473ffffffffffffffffffffffffffffffffffffffff9092169163a9059cbb9190600019810190811061173b57fe5b60009182526020909120015473ffffffffffffffffffffffffffffffffffffffff166117656106a5565b6040518363ffffffff167c010000000000000000000000000000000000000000000000000000000002815260040161179e929190612c41565b602060405180830381600087803b1580156117b857600080fd5b505af11580156117cc573d6000803e3d6000fd5b505050506040513d601f19601f820116820180604052506117f09190810190612771565b15156117fb57600080fd5b600c8054600019810190811061180d57fe5b6000918252602090912001546040517fc2d426cf00000000000000000000000000000000000000000000000000000000815273ffffffffffffffffffffffffffffffffffffffff9091169063c2d426cf9061186e9085908590600401612cd2565b600060405180830381600087803b15801561188857600080fd5b505af115801561189c573d6000803e3d6000fd5b505050507f5ec9914f46ca24eeb7222e98b6f699b769ab33c1d88072c0651eb9bb19478ad5826040516118cf9190612c5c565b60405180910390a1600154600c805473ffffffffffffffffffffffffffffffffffffffff909216916331f4c5d39185908590600019840184811061190f57fe5b9060005260206000200160009054906101000a900473ffffffffffffffffffffffffffffffffffffffff1673ffffffffffffffffffffffffffffffffffffffff1663f49bff7b6040518163ffffffff167c0100000000000000000000000000000000000000000000000000000000028152600401602060405180830381600087803b15801561199d57600080fd5b505af11580156119b1573d6000803e3d6000fd5b505050506040513d601f19601f820116820180604052506119d59190810190612835565b6040518563ffffffff167c0100000000000000000000000000000000000000000000000000000000028152600401611a109493929190612d6c565b600060405180830381600087803b158015611a2a57600080fd5b505af1158015611a3e573d6000803e3d6000fd5b505050505050565b60095481565b60005473ffffffffffffffffffffffffffffffffffffffff163314611a7057600080fd5b61114b6004826003611ffe565b60015473ffffffffffffffffffffffffffffffffffffffff1681565b336000908152601260209081526040918290208054835181840281018401909452808452606093849390929190830182828015611b0c57602002820191906000526020600020905b815473ffffffffffffffffffffffffffffffffffffffff168152600190910190602001808311611ae1575b505050505090508091505b5090565b60105490565b600a5481565b60005473ffffffffffffffffffffffffffffffffffffffff163314611b4b57600080fd5b73ffffffffffffffffffffffffffffffffffffffff81161515611b6d57600080fd5b600080547fffffffffffffffffffffffff00000000000000000000000000000000000000001673ffffffffffffffffffffffffffffffffffffffff92909216919091179055565b60005473ffffffffffffffffffffffffffffffffffffffff16331461138157600080fd5b611be061202d565b60408051606081019182905260048054825290916003906005602085018083116110fc575050505050905090565b600082820183811015611c1d57fe5b9392505050565b60035460009073ffffffffffffffffffffffffffffffffffffffff168180611c4a6106a5565b9050846060015160001415611d3757600c80546000198101908110611c6b57fe5b9060005260206000200160009054906101000a900473ffffffffffffffffffffffffffffffffffffffff1673ffffffffffffffffffffffffffffffffffffffff1663f49bff7b6040518163ffffffff167c0100000000000000000000000000000000000000000000000000000000028152600401602060405180830381600087803b158015611cf957600080fd5b505af1158015611d0d573d6000803e3d6000fd5b505050506040513d601f19601f82011682018060405250611d319190810190612835565b60608601525b8085606001511115611d4b57606085018190525b6001546040517f6ecd3a9c00000000000000000000000000000000000000000000000000000000815273ffffffffffffffffffffffffffffffffffffffff85811692636ecd3a9c92611da99290911690309033908b90600401612c03565b602060405180830381600087803b158015611dc357600080fd5b505af1158015611dd7573d6000803e3d6000fd5b505050506040513d601f19601f82011682018060405250611dfb9190810190612542565b600c5490925060011015611eb95760025460608601516040517fa9059cbb00000000000000000000000000000000000000000000000000000000815273ffffffffffffffffffffffffffffffffffffffff9092169163a9059cbb91611e6591869190600401612c41565b602060405180830381600087803b158015611e7f57600080fd5b505af1158015611e93573d6000803e3d6000fd5b505050506040513d601f19601f82011682018060405250611eb79190810190612771565b505b73ffffffffffffffffffffffffffffffffffffffff82166000818152600d60209081526040808320805460ff19166001908117909155600c80549182018155938490527fdf6966c971051c3d54ec59162606531493a51404a002842f56009d7e5cf4a8c70180547fffffffffffffffffffffffff00000000000000000000000000000000000000001690941790935587519088015188840151925493517f7d3cfca05a07773179cf217e8ffc51764c3dce48e826d85feb2b280f7674eeef94611f859491889190612daf565b60405180910390a1509392505050565b600082821115611fa157fe5b50900390565b60408051808201825290600290829080388339509192915050565b8260028101928215611ff2579160200282015b82811115611ff25782518255602090920191600190910190611fd5565b50611b1792915061204c565b8260038101928215611ff25791602002820182811115611ff25782518255602090920191600190910190611fd5565b6060604051908101604052806003906020820280388339509192915050565b61075191905b80821115611b175760008155600101612052565b6000611c1d8235612e9f565b6000611c1d8251612e9f565b6000601f8201831361208f57600080fd5b81356120a261209d82612e22565b612dfb565b915081818352602084019350602081019050838560208402820111156120c757600080fd5b60005b838110156120f357816120dd8882612066565b84525060209283019291909101906001016120ca565b5050505092915050565b6000601f8201831361210e57600080fd5b600261211c61209d82612e43565b9150818385602084028201111561213257600080fd5b60005b838110156120f3578161214888826122b7565b8452506020928301929190910190600101612135565b6000601f8201831361216f57600080fd5b600361217d61209d82612e43565b9150818385602084028201111561219357600080fd5b60005b838110156120f357816121a988826122b7565b8452506020928301929190910190600101612196565b6000601f820183136121d057600080fd5b81356121de61209d82612e22565b9150818183526020840193506020810190508385602084028201111561220357600080fd5b60005b838110156120f357816122198882612504565b8452506020928301929190910190600101612206565b6000601f8201831361224057600080fd5b813561224e61209d82612e22565b9150818183526020840193506020810190508385602084028201111561227357600080fd5b60005b838110156120f3578161228988826122b7565b8452506020928301929190910190600101612276565b6000611c1d8235612eb8565b6000611c1d8251612eb8565b6000611c1d8235610751565b6000601f820183136122d457600080fd5b81356122e261209d82612e61565b915080825260208301602083018583830111156122fe57600080fd5b612309838284612edd565b50505092915050565b6000601f8201831361232357600080fd5b815161233161209d82612e61565b9150808252602083016020830185838301111561234d57600080fd5b612309838284612ee9565b60006080828403121561236a57600080fd5b6123746080612dfb565b9050600061238284846122b7565b8252506020612393848483016122b7565b60208301525060406123a7848285016122b7565b60408301525060606123bb848285016122b7565b60608301525092915050565b6000608082840312156123d957600080fd5b6123e36080612dfb565b9050813567ffffffffffffffff8111156123fc57600080fd5b612408848285016122c3565b825250602061241984848301612066565b602083015250604082013567ffffffffffffffff81111561243957600080fd5b612445848285016122c3565b60408301525060606123bb8482850161229f565b600060e0828403121561246b57600080fd5b61247560e0612dfb565b9050600061248384846122b7565b8252506020612494848483016122b7565b60208301525060406124a8848285016122b7565b60408301525060606124bc848285016122b7565b60608301525060806124d0848285016122b7565b60808301525060a06124e4848285016122b7565b60a08301525060c06124f88482850161229f565b60c08301525092915050565b6000611c1d8235612ebd565b6000611c1d8251610751565b60006020828403121561252e57600080fd5b600061253a8484612066565b949350505050565b60006020828403121561255457600080fd5b600061253a8484612072565b6000806040838503121561257357600080fd5b600061257f8585612066565b925050602061259085828601612066565b9150509250929050565b600080600080608085870312156125b057600080fd5b843567ffffffffffffffff8111156125c757600080fd5b6125d38782880161207e565b945050602085013567ffffffffffffffff8111156125f057600080fd5b6125fc878288016121bf565b935050604085013567ffffffffffffffff81111561261957600080fd5b6126258782880161207e565b925050606085013567ffffffffffffffff81111561264257600080fd5b61264e878288016123c7565b91505092959194509250565b6000806040838503121561266d57600080fd5b823567ffffffffffffffff81111561268457600080fd5b6126908582860161207e565b925050602083013567ffffffffffffffff8111156126ad57600080fd5b6125908582860161222f565b600080600060c084860312156126ce57600080fd5b833567ffffffffffffffff8111156126e557600080fd5b6126f18682870161207e565b935050602084013567ffffffffffffffff81111561270e57600080fd5b61271a8682870161222f565b925050604061272b86828701612358565b9150509250925092565b60006040828403121561274757600080fd5b600061253a84846120fd565b60006060828403121561276557600080fd5b600061253a848461215e565b60006020828403121561278357600080fd5b600061253a84846122ab565b6000602082840312156127a157600080fd5b813567ffffffffffffffff8111156127b857600080fd5b61253a848285016122c3565b6000602082840312156127d657600080fd5b815167ffffffffffffffff8111156127ed57600080fd5b61253a84828501612312565b600060e0828403121561280b57600080fd5b600061253a8484612459565b60006020828403121561282957600080fd5b600061253a84846122b7565b60006020828403121561284757600080fd5b600061253a8484612510565b6000806040838503121561286657600080fd5b600061287285856122b7565b9250506020612590858286016122b7565b61288c81612e9f565b82525050565b600061289d82612e8f565b8084526020840193506128af83612e89565b60005b828110156128df576128c5868351612883565b6128ce82612e89565b6020969096019591506001016128b2565b5093949350505050565b6128f281612e93565b6128fb82610751565b60005b8281101561292b57612911858351612a17565b61291a82612e89565b6020959095019491506001016128fe565b5050505050565b61293b81612e99565b61294482610751565b60005b8281101561292b5761295a858351612a17565b61296382612e89565b602095909501949150600101612947565b600061297f82612e8f565b80845260208401935061299183612e89565b60005b828110156128df576129a7868351612b3a565b6129b082612e89565b602096909601959150600101612994565b60006129cc82612e8f565b8084526020840193506129de83612e89565b60005b828110156128df576129f4868351612a17565b6129fd82612e89565b6020969096019591506001016129e1565b61288c81612eb8565b61288c81610751565b6000612a2b82612e8f565b808452612a3f816020860160208601612ee9565b612a4881612f15565b9093016020019392505050565b61288c81612ed2565b601781527f526f756e64206973206e6f7420696e207265766965772e000000000000000000602082015260400190565b80516080830190612a9f8482612a17565b506020820151612ab26020850182612a17565b506040820151612ac56040850182612a17565b506060820151610fd56060850182612a17565b8051608080845260009190840190612af08282612a20565b9150506020830151612b056020860182612883565b5060408301518482036040860152612b1d8282612a20565b9150506060830151612b326060860182612a0e565b509392505050565b61288c81612ebd565b602081016116938284612883565b60408101612b5f8285612883565b611c1d6020830184612883565b60408101612b7a8285612883565b818103602083015261253a8184612892565b6101008101612b9b828b612883565b612ba8602083018a612a17565b612bb56040830189612a17565b612bc26060830188612a17565b612bcf6080830187612a17565b612bdc60a0830186612a17565b612be960c0830185612a17565b612bf660e0830184612a17565b9998505050505050505050565b60e08101612c118287612883565b612c1e6020830186612a55565b612c2b6040830185612883565b612c386060830184612a8e565b95945050505050565b60408101612c4f8285612883565b611c1d6020830184612a17565b60208082528101611c1d8184612892565b60a08082528101612c7e8188612892565b90508181036020830152612c928187612974565b90508181036040830152612ca68186612892565b9050612cb56060830185612883565b8181036080830152612cc78184612ad8565b979650505050505050565b60408082528101612ce38185612892565b9050818103602083015261253a81846129c1565b6040810161169382846128e9565b606081016116938284612932565b602081016116938284612a0e565b602081016116938284612a17565b602081016116938284612a55565b60208082528101611c1d8184612a20565b6020808252810161169381612a5e565b60408101612b5f8285612a17565b60808101612d7a8287612a17565b8181036020830152612d8c8186612892565b90508181036040830152612da081856129c1565b9050612c386060830184612a17565b60a08101612dbd8288612a17565b612dca6020830187612a17565b612dd76040830186612a17565b612de46060830185612883565b612df16080830184612a17565b9695505050505050565b60405181810167ffffffffffffffff81118282101715612e1a57600080fd5b604052919050565b600067ffffffffffffffff821115612e3957600080fd5b5060209081020190565b600067ffffffffffffffff821115612e5a57600080fd5b5060200290565b600067ffffffffffffffff821115612e7857600080fd5b506020601f91909101601f19160190565b60200190565b5190565b50600290565b50600390565b73ffffffffffffffffffffffffffffffffffffffff1690565b151590565b6fffffffffffffffffffffffffffffffff1690565b600061169382612e9f565b82818337506000910152565b60005b83811015612f04578181015183820152602001612eec565b83811115610fd55750506000910152565b601f01601f1916905600a265627a7a72305820d4e7ad87dd4e2fa97967ddf0f360222e84a626b74a900b2192c73b0a25fa57166c6578706572696d656e74616cf50037",
  "source": " pragma solidity ^0.4.18;\n pragma experimental ABIEncoderV2;\n\nimport \"../libraries/strings/strings.sol\";\nimport \"../libraries/math/SafeMath.sol\";\nimport \"../libraries/LibConstruction.sol\";\nimport \"../interfaces/IMatryxPlatform.sol\";\nimport \"../interfaces/IMatryxTournament.sol\";\nimport \"../interfaces/factories/IMatryxRoundFactory.sol\";\nimport \"../interfaces/IMatryxRound.sol\";\nimport \"../interfaces/IMatryxToken.sol\";\nimport \"./Ownable.sol\";\n\n/// @title Tournament - The Matryx tournament.\n/// @author Max Howard - <max@nanome.ai>, Sam Hessenauer - <sam@nanome.ai>\ncontract MatryxTournament is Ownable, IMatryxTournament {\n    using SafeMath for uint256;\n    using strings for *;\n    \n    // TODO: condense and put in structs\n    //Platform identification\n    address public platformAddress;\n    address public matryxTokenAddress;\n    address public matryxRoundFactoryAddress;\n\n    //Tournament identification\n    bytes32[3] public title;\n    bytes32[2] public descriptionHash;\n    bytes32 public categoryHash;\n\n    // Timing and State\n    uint256 public timeCreated;\n    uint256 public tournamentOpenedTime;\n    address[] public rounds;\n    mapping(address=>bool) public isRound;\n    // Reward and fee\n    uint256 public Bounty;\n    uint256 public BountyLeft;\n    uint256 public entryFee;\n\n    // address roundDelegate;\n    // bytes4 fnSelector_chooseWinner = bytes4(keccak256(\"chooseWinner(address)\"));\n    // bytes4 fnSelector_createRound = bytes4(keccak256(\"createRound(uint256)\"));\n    // bytes4 fnSelector_startRound = bytes4(keccak256(\"startRound(uint256)\"));\n\n    // TODO: Automatic round creation mechanism\n\n    // Submission tracking\n    uint256 numberOfSubmissions = 0;\n    mapping(address=>address[]) private entrantToSubmissions;\n    mapping(address=>mapping(address=>uint256_optional)) private entrantToSubmissionToSubmissionIndex;\n    mapping(address=>uint256_optional) private addressToIsEntrant;\n    address[] private allEntrants;\n\n    constructor(LibConstruction.TournamentData tournamentData, LibConstruction.RoundData roundData, address _platformAddress, address _matryxTokenAddress, address _matryxRoundFactoryAddress, address _owner) \n    {\n        //Clean inputs\n        //require(_owner != 0x0);\n        //require(tournamentData.title[0] != 0x0);\n        //require(tournamentData.Bounty > 0);\n        //require(_matryxRoundFactoryAddress != 0x0);\n        \n        platformAddress = _platformAddress;\n        matryxTokenAddress = _matryxTokenAddress;\n        matryxRoundFactoryAddress = _matryxRoundFactoryAddress;\n\n        timeCreated = now;\n        // Identification\n        owner = _owner;\n        categoryHash = tournamentData.categoryHash;\n        title[0] = tournamentData.title_1;\n        title[1] = tournamentData.title_2;\n        title[2] = tournamentData.title_3;\n        descriptionHash[0] = tournamentData.contentHash_1;\n        descriptionHash[1] = tournamentData.contentHash_2;\n        // Reward and fee\n        Bounty = tournamentData.Bounty;\n        //BountyLeft = Bounty;\n        entryFee = tournamentData.entryFee;\n\n        createRound(roundData);\n        // roundDelegate = IMatryxPlatform(platformAddress).getRoundLibAddress();\n    }\n\n    /*\n     * Structs\n     */\n\n    struct uint256_optional\n    {\n        bool exists;\n        uint256 value;\n    }\n\n    struct SubmissionLocation\n    {\n        uint256 roundIndex;\n        uint256 submissionIndex;\n    }\n\n    /*\n     * Events\n     */\n\n    event NewRound(uint256 _startTime, uint256 _endTime, uint256 _reviewDuration, address _roundAddress, uint256 _roundNumber);\n    //event RoundStarted(uint256 _roundIndex);\n    // Fired at the end of every round, one time per submission created in that round\n    event SubmissionCreated(uint256 _roundIndex, address _submissionAddress);\n    event RoundWinnersChosen(address[] _submissionAddresses);\n\n    /// @dev Allows rounds to invoke SubmissionCreated events on this tournament.\n    /// @param _submissionAddress Address of the submission.\n    function invokeSubmissionCreatedEvent(address _submissionAddress) public onlyRound\n    {\n        emit SubmissionCreated(rounds.length-1, _submissionAddress);\n    }\n\n    /*\n     * Modifiers\n     */\n\n    /// @dev Requires the function caller to be the platform.\n    modifier onlyPlatform()\n    {\n        require(msg.sender == platformAddress);\n        _;\n    }\n\n    modifier onlyRound()\n    {\n        require(isRound[msg.sender]);\n        _;\n    }\n\n    // modifier onlySubmission(address _submissionAddress, address _author)\n    // {\n    //     // If the submission does not exist,\n    //     // the address of the submission we return will not be msg.sender\n    //     // It will either be \n    //     // 1) The first submission, or\n    //     // 2) all 0s from having deleted it previously.\n    //     uint256 indexOfSubmission = entrantToSubmissionToSubmissionIndex[_author][_submissionAddress].value;\n    //     address submissionAddress = entrantToSubmissions[_author][indexOfSubmission];\n    //     require(_submissionAddress == msg.sender);\n    //     _;\n    // }\n\n    modifier onlyPeerLinked(address _sender)\n    {\n        IMatryxPlatform platform = IMatryxPlatform(platformAddress);\n        require(platform.hasPeer(_sender));\n        _;\n    }\n\n    /// @dev Requires the function caller to be an entrant.\n    modifier onlyEntrant()\n    {\n        bool senderIsEntrant = addressToIsEntrant[msg.sender].exists;\n        require(senderIsEntrant);\n        _;\n    }\n\n    /// @dev Requires the function caller to be the platform or the owner of this tournament\n    modifier platformOrOwner()\n    {\n        require((msg.sender == platformAddress)||(msg.sender == owner));\n        _;\n    }\n\n    modifier whileTournamentOpen()\n    {\n        require(getState() == uint256(TournamentState.RoundOpen));\n        _;\n    }\n\n    // /// @dev Requires the tournament to be open.\n    // modifier duringReviewPeriod()\n    // {\n    //     // TODO: Finish me!\n    //     require(isInReview());\n    //     _;\n    // }\n\n    // modifier whileBountyLeft(uint256 _nextRoundBounty)\n    // {\n    //     require(BountyLeft.sub(_nextRoundBounty) >= 0);\n    //     _;\n    // }\n\n    /*\n    * State Maintenance Methods\n    */\n\n    function removeSubmission(address _submissionAddress, address _author) public onlyPlatform returns (bool)\n    {\n        require(entrantToSubmissionToSubmissionIndex[_author][_submissionAddress].exists);\n        numberOfSubmissions = numberOfSubmissions.sub(1);\n        delete entrantToSubmissions[_author][entrantToSubmissionToSubmissionIndex[_author][_submissionAddress].value];\n        delete entrantToSubmissionToSubmissionIndex[_author][_submissionAddress];\n        return true;\n    }\n\n    /*\n     * Access Control Methods\n     */\n\n    /// @dev Returns whether or not the sender is an entrant in this tournament\n    /// @param _sender Explicit sender address.\n    /// @return Whether or not the sender is an entrant in this tournament.\n    function isEntrant(address _sender) public view returns (bool)\n    {\n        return addressToIsEntrant[_sender].exists;\n    }\n\n\n    //enum RoundState { NotYetOpen, Open, InReview, Closed, Abandoned }\n    enum TournamentState { RoundNotYetOpen, RoundOpen, RoundInReview, TournamentClosed, RoundAbandoned}\n    /// @dev Returns the state of the tournament. One of:\n    /// RoundNotYetOpen, RoundOpen, RoundInReview, TournamentClosed, RoundAbandoned\n    function getState() public view returns (uint256)\n    {\n        return IMatryxRound(rounds[rounds.length-1]).getState();\n    }\n\n    /*\n     * Getter Methods\n     */\n\n    function getPlatform() public view returns (address _platformAddress)\n    {\n        return platformAddress;\n    }\n\n    function getTitle() public view returns (bytes32[3] _title)\n    {\n        return title;\n    }\n\n    function getCategory() public view returns (string _category)\n    {\n        return IMatryxPlatform(platformAddress).hashForCategory(categoryHash);\n    }\n\n    /// @dev Returns the external address of the tournament.\n    /// @return _descriptionHash Off-chain content hash of tournament details (ipfs hash)\n    function getDescriptionHash() public view returns (bytes32[2] _descriptionHash)\n    {\n        return descriptionHash;\n    }\n\n    /// @dev Returns the current round number.\n    /// @return _currentRound Number of the current round.\n    function currentRound() public view returns (uint256 _currentRound, address _currentRoundAddress)\n    {\n        return (rounds.length, rounds[rounds.length-1]);\n    }\n\n    /// @dev Returns all of the sender's submissions to this tournament.\n    /// @return (_roundIndices[], _submissionIndices[]) Locations of the sender's submissions.\n    function mySubmissions() public view returns (address[])\n    {\n        address[] memory _mySubmissions = entrantToSubmissions[msg.sender];\n        return _mySubmissions;\n    }\n\n    /// @dev Returns the number of submissions made to this tournament.\n    /// @return _submissionCount Number of submissions made to this tournament.\n    function submissionCount() public view returns (uint256 _submissionCount)\n    {\n        return numberOfSubmissions;\n    }\n\n    function entrantCount() public view returns (uint256 _entrantCount)\n    {\n        return allEntrants.length;\n    }\n\n    /*\n     * Setter Methods\n     */\n\n    function update(LibConstruction.TournamentModificationData tournamentData)\n    {\n        if(tournamentData.title_1 != 0x0)\n        {\n            title[0] = tournamentData.title_1;\n            title[1] = tournamentData.title_2;\n            title[2] = tournamentData.title_3;\n        }\n        if(tournamentData.contentHash_1 != 0x0)\n        {\n            descriptionHash[0] = tournamentData.contentHash_1;\n            descriptionHash[1] = tournamentData.contentHash_2;\n        }\n        if(tournamentData.entryFeeChanged)\n        {\n            entryFee = tournamentData.entryFee;\n        }\n    }\n\n    function updateTitle(bytes32[3] _title) public onlyOwner\n    {\n        title = _title;\n    }\n\n    function updateDescriptionHash(bytes32[2] _descriptionHash) public onlyOwner\n    {\n        descriptionHash = _descriptionHash;\n    }\n\n    function updateEntryFee(uint256 _entryFee) public onlyOwner\n    {\n        entryFee = _entryFee;\n    }\n\n    function updateCategory(string _category) public onlyOwner\n    {\n        // if(!category.toSlice().empty())\n        // {\n        //     revert();\n        // }\n        // revert();\n        // category = _category;\n    }\n\n    /*\n     * Tournament Admin Methods\n     */\n\n    /// @dev Chooses the winner(s) of the current round. If this is the last round, \n    //       this method will also close the tournament.\n    /// @param _submissionAddresses The winning submission addresses\n    /// @param _rewardDistribution Distribution indicating how to split the reward among the submissions\n    /// @param roundData Information with which to create the next round. Includes:\n    ///   _start: (Ignored)\n    ///   _end:   The end time (seconds from unix epoch) of the next round\n    ///   _reviewDuration: The duration of time that will be allotted to review the next round\n    ///   _bountyMTX: The amount of MTX that can be won during the next round\n    function closeRound(address[] _submissionAddresses, uint256[] _rewardDistribution, LibConstruction.RoundData roundData) public onlyOwner\n    {\n        // Round must be in review to close\n        require(getState() == uint256(TournamentState.RoundInReview), \"Round is not in review.\");\n        // TODO: Create big red button (new method)\n\n        // Choose the winning submission(s) on the current round\n        IMatryxRound(rounds[rounds.length-1]).chooseWinningSubmissions(_submissionAddresses, _rewardDistribution);\n\n        // Event to notify web3 of the winning submission address\n        emit RoundWinnersChosen(_submissionAddresses);\n\n        // If there's no bounty left, end the tournament\n        if(remainingBounty() == 0)\n        {\n            closeTournament(_submissionAddresses, _rewardDistribution);\n            IMatryxPlatform(platformAddress).invokeTournamentClosedEvent(rounds.length, _submissionAddresses, _rewardDistribution, IMatryxRound(rounds[rounds.length-1]).getBounty());\n        }\n        else\n        {\n            roundData.start = 0;\n            createRound(roundData);\n        }\n    }\n\n    // @dev Chooses the winner of the tournament.\n    function closeTournament(address[] _submissionAddresses, uint256[] _rewardDistribution) public onlyOwner\n    {\n        // TODO: Validate that this is done.\n        require(getState() == uint256(TournamentState.RoundInReview));\n        //Transfer the remaining MTX in the tournament to the current round\n        require(IMatryxToken(matryxTokenAddress).transfer(rounds[rounds.length-1], remainingBounty()));\n        IMatryxRound(rounds[rounds.length-1]).chooseWinningSubmissions(_submissionAddresses, _rewardDistribution);\n        emit RoundWinnersChosen(_submissionAddresses);\n        IMatryxPlatform(platformAddress).invokeTournamentClosedEvent(rounds.length, _submissionAddresses, _rewardDistribution, IMatryxRound(rounds[rounds.length-1]).getBounty());\n    }\n\n    /// @dev Creates a new round.\n    /// @return The new round's address.\n    function createRound(LibConstruction.RoundData roundData) private returns (address _roundAddress)\n    {\n        //require((roundData.start >= now && roundData.start < roundData.end), \"Time parameters are invalid.\");\n\n        IMatryxRoundFactory roundFactory = IMatryxRoundFactory(matryxRoundFactoryAddress);\n        address newRoundAddress;\n\n        // If a bounty wasn't specified\n        uint256 remaining = remainingBounty();\n        if(roundData.bounty == 0x0)\n        {\n            // Use the last one\n            roundData.bounty = IMatryxRound(rounds[rounds.length-1]).getBounty();\n        }\n        // If its more than what's left, use what's left.\n        if(roundData.bounty > remaining)\n        {\n            roundData.bounty = remaining;\n        }\n\n        newRoundAddress = roundFactory.createRound(platformAddress, this, msg.sender, roundData);\n        // Transfer the round bounty to the round.\n\n        if(rounds.length > 1)\n        {\n            IMatryxToken(matryxTokenAddress).transfer(newRoundAddress, roundData.bounty);\n        }\n        isRound[newRoundAddress] = true;\n        rounds.push(newRoundAddress);\n\n        // Triggers Event displaying start time, end, address, and round number\n        emit NewRound(roundData.start, roundData.end, roundData.reviewDuration, newRoundAddress, rounds.length);\n\n        return newRoundAddress;\n    }\n    function sendBountyToRound(uint256 _roundIndex, uint256 _bountyMTX) public onlyPlatform\n    {\n        IMatryxToken(matryxTokenAddress).transfer(rounds[_roundIndex], _bountyMTX);\n    }\n\n    // @dev Returns the remaining bounty the tournament is able to award\n    function remainingBounty() public view returns (uint256)\n    {\n        return IMatryxToken(matryxTokenAddress).balanceOf(this);\n    }\n\n    /*\n     * Entrant Methods\n     */\n\n    /// @dev Enters the user into the tournament.\n    /// @param _entrantAddress Address of the user to enter.\n    /// @return success Whether or not the user was entered successfully.\n    function enterUserInTournament(address _entrantAddress) public onlyPlatform whileTournamentOpen returns (bool _success)\n    {\n        if(addressToIsEntrant[_entrantAddress].exists == true)\n        {\n            return false;\n        }\n\n        // Change the tournament's state to reflect the user entering.\n        addressToIsEntrant[_entrantAddress].exists = true;\n        addressToIsEntrant[_entrantAddress].value = entryFee;\n        allEntrants.push(_entrantAddress);\n\n        return true;\n    }\n\n    /// @dev Returns the fee in MTX to be payed by a prospective entrant.\n    /// @return Entry fee for this tournament.\n    function getEntryFee() public view returns (uint256)\n    {\n        return entryFee;\n    }\n\n    // function collectEntryFee() public returns (bool)\n    // {\n    //     IMatryxToken matryxToken = IMatryxToken(matryxTokenAddress);\n    //     bool success = matryxToken.transfer(msg.sender, addressToIsEntrant[msg.sender].value);\n    //     if(success)\n    //     {\n    //         addressToIsEntrant[msg.sender].value = 0;\n    //         return true;\n    //     }\n\n    //     return false;\n    // }\n\n    function createSubmission(address[] _contributors, uint128[] _contributorRewardDistribution, address[] _references, LibConstruction.SubmissionData submissionData) public onlyEntrant onlyPeerLinked(msg.sender) whileTournamentOpen returns (address _submissionAddress)\n    {\n        address peerAddress = IMatryxPlatform(platformAddress).peerAddress(submissionData.owner);\n\n        address submissionAddress = IMatryxRound(rounds[rounds.length-1]).createSubmission(_contributors, _contributorRewardDistribution, _references, peerAddress, submissionData);\n        // Send out reference requests to the authors of other submissions\n        IMatryxPlatform(platformAddress).handleReferenceRequestsForSubmission(submissionAddress, _references);\n\n        if(numberOfSubmissions == 0)\n        {\n            IMatryxPlatform(platformAddress).invokeTournamentOpenedEvent(owner, title[0], title[1], title[2], descriptionHash[0], descriptionHash[1], Bounty, entryFee);\n        }\n\n        numberOfSubmissions = numberOfSubmissions.add(1);\n        entrantToSubmissionToSubmissionIndex[msg.sender][submissionAddress] = uint256_optional({exists:true, value:entrantToSubmissions[msg.sender].length});\n        entrantToSubmissions[msg.sender].push(submissionAddress);\n        IMatryxPlatform(platformAddress).updateSubmissions(msg.sender, submissionAddress);\n        \n        return submissionAddress;\n    }\n}",
  "sourcePath": "/Users/maxhoward/Desktop/Ethereum/Development/Matryx/Projects/MatryxPlatform/contracts/MatryxTournament.sol",
  "compiler": {
    "name": "solc",
    "version": "0.4.24+commit.e67f0147.Emscripten.clang"
  },
  "schemaVersion": "2.0.0",
  "updatedAt": "2018-06-22T18:05:26.363Z"
}