{
  "contractName": "MatryxSubmissionFactory",
  "abi": [
    {
      "constant": false,
      "inputs": [
        {
          "name": "_platformAddress",
          "type": "address"
        },
        {
          "name": "_tournamentAddress",
          "type": "address"
        },
        {
          "name": "_roundAddress",
          "type": "address"
        },
        {
          "name": "_title",
          "type": "string"
        },
        {
          "name": "_submissionOwner",
          "type": "address"
        },
        {
          "name": "_submissionAuthor",
          "type": "address"
        },
        {
          "name": "_externalAddress",
          "type": "bytes"
        },
        {
          "name": "_references",
          "type": "address[]"
        },
        {
          "name": "_contributors",
          "type": "address[]"
        },
        {
          "name": "_contributorRewardDistribution",
          "type": "uint128[]"
        }
      ],
      "name": "createSubmission",
      "outputs": [
        {
          "name": "_submissionAddress",
          "type": "address"
        }
      ],
      "payable": false,
      "stateMutability": "nonpayable",
      "type": "function"
    }
  ],
  "bytecode": "0x6060604052341561000f57600080fd5b6133e38061001e6000396000f3006060604052600436106100405763ffffffff7c010000000000000000000000000000000000000000000000000000000060003504166382bcce6f8114610045575b600080fd5b341561005057600080fd5b6101e76004803573ffffffffffffffffffffffffffffffffffffffff908116916024803583169260443516919060849060643590810190830135806020601f82018190048102016040519081016040528181529291906020840183838082843750949673ffffffffffffffffffffffffffffffffffffffff87358116976020808201359092169750919550606082019450604091820135860180820194503592508291601f830182900482029091019051908101604052818152929190602084018383808284378201915050505050509190803590602001908201803590602001908080602002602001604051908101604052809392919081815260200183836020028082843782019150505050505091908035906020019082018035906020019080806020026020016040519081016040528093929190818152602001838360200280828437820191505050505050919080359060200190820180359060200190808060200260200160405190810160405280939291908181526020018383602002808284375094965061021095505050505050565b60405173ffffffffffffffffffffffffffffffffffffffff909116815260200160405180910390f35b60008a8a8a8a8a8a8a8a8a8a610224610434565b73ffffffffffffffffffffffffffffffffffffffff808c1682528a8116602083015289811660408301528781166080830152861660a0820152610140606082018181529060c083019060e084019061010085019061012086019086018d818151815260200191508051906020019080838360005b838110156102b0578082015183820152602001610298565b50505050905090810190601f1680156102dd5780820380516001836020036101000a031916815260200191505b5086810385528a818151815260200191508051906020019080838360005b838110156103135780820151838201526020016102fb565b50505050905090810190601f1680156103405780820380516001836020036101000a031916815260200191505b50868103845289818151815260200191508051906020019060200280838360005b83811015610379578082015183820152602001610361565b50505050905001868103835288818151815260200191508051906020019060200280838360005b838110156103b85780820151838201526020016103a0565b50505050905001868103825287818151815260200191508051906020019060200280838360005b838110156103f75780820151838201526020016103df565b505050509050019f50505050505050505050505050505050604051809103906000f080151561042557600080fd5b9b9a5050505050505050505050565b604051612f738061044583390190560060606040526040517f6164645265666572656e636528616464726573732900000000000000000000008152601501604051908190039020601780547c010000000000000000000000000000000000000000000000000000000090920475010000000000000000000000000000000000000000000260a860020a63ffffffff02199092169190911790556040517f72656d6f76655265666572656e636528616464726573732900000000000000008152601801604051908190039020601780547c01000000000000000000000000000000000000000000000000000000009092047901000000000000000000000000000000000000000000000000000260c860020a63ffffffff02199092169190911790556040517f617070726f76655265666572656e63652861646472657373290000000000000081526019016040519081900390206018805463ffffffff19167c01000000000000000000000000000000000000000000000000000000009092049190911790556040517f72656d6f76655265666572656e6365417070726f76616c2861646472657373298152602001604051908190039020601880547c01000000000000000000000000000000000000000000000000000000009092046401000000000267ffffffff00000000199092169190911790556040517f666c61674d697373696e675265666572656e63652861646472657373290000008152601d01604051908190039020601880547c01000000000000000000000000000000000000000000000000000000009092046801000000000000000002604060020a63ffffffff02199092169190911790556040517f72656d6f76654d697373696e675265666572656e6365466c616728616464726581527f73732900000000000000000000000000000000000000000000000000000000006020820152602301604051908190039020601880547c01000000000000000000000000000000000000000000000000000000009092046c0100000000000000000000000002606060020a63ffffffff02199092169190911790556040517f72657665727449665265666572656e6365466c6167676564286164647265737381527f29000000000000000000000000000000000000000000000000000000000000006020820152602101604051908190039020601880547c010000000000000000000000000000000000000000000000000000000090920470010000000000000000000000000000000002608060020a63ffffffff02199092169190911790553415620003ae57600080fd5b60405162002f7338038062002f7383398101604052808051919060200180519190602001805191906020018051820191906020018051919060200180519190602001805182019190602001805182019190602001805182019190602001805160008054600160a060020a03338116600160a060020a0319909216919091178255919093019291508190871615156200044557600080fd5b60018054600160a060020a03808f16600160a060020a031992831617909255600280548e841690831617905560038054928d16929091169190911790556004898051620004979291602001906200077e565b5060008054600160a060020a03808b16600160a060020a03199283161790925560058054928a16929091169190911790556006868051620004dd9291602001906200077e565b506007858051620004f392916020019062000803565b508b600160a060020a031663f3dc0d256000604051602001526040518163ffffffff167c0100000000000000000000000000000000000000000000000000000000028152600401602060405180830381600087803b15156200055457600080fd5b6102c65a03f115156200056657600080fd5b505050604051805160178054600160a060020a039092166101000261010060a860020a031990921691909117905550600091505b60075463ffffffff831610156200066e576001600e600060078563ffffffff16815481101515620005c757fe5b6000918252602080832090910154600160a060020a03168352820192909252604001812080549215156401000000000264ff000000001990931692909217909155600780548492600e92909163ffffffff85169081106200062457fe5b600091825260208083209190910154600160a060020a031683528201929092526040019020805463ffffffff191663ffffffff92909216919091179055600191909101906200059a565b82518451146200067d57600080fd5b5060005b83518163ffffffff1610156200075157828163ffffffff1681518110620006a457fe5b90602001906020020151601480546001608060020a031981166001608060020a0391821693909301169190911790558263ffffffff821681518110620006e657fe5b9060200190602002015160136000868463ffffffff16815181106200070757fe5b90602001906020020151600160a060020a03168152602081019190915260400160002080546001608060020a0319166001608060020a039290921691909117905560010162000681565b60128480516200076692916020019062000803565b50504260155550620008b29950505050505050505050565b828054600181600116156101000203166002900490600052602060002090601f016020900481019282601f10620007c157805160ff1916838001178555620007f1565b82800160010185558215620007f1579182015b82811115620007f1578251825591602001919060010190620007d4565b50620007ff9291506200086b565b5090565b8280548282559060005260206000209081019282156200085d579160200282015b828111156200085d5782518254600160a060020a031916600160a060020a03919091161782556020929092019160019091019062000824565b50620007ff9291506200088b565b6200088891905b80821115620007ff576000815560010162000872565b90565b6200088891905b80821115620007ff578054600160a060020a031916815560010162000892565b6126b180620008c26000396000f30060606040526004361061020e5763ffffffff7c01000000000000000000000000000000000000000000000000000000006000350416630cbfdb2d81146102135780630eff2507146102415780630fb3395c1461028957806310f83530146102b557806312065fe0146103065780631abaf3fc1461032b57806323bab50b1461033e57806329f9e6651461036a5780632f54bf6e146103a257806332c9c9d3146103e257806337fb13b01461040e578063444e31ca1461045f5780634586de5d146104725780635c11a3e41461049e5780636e27bcc61461052857806374756091146105645780637a6337fa1461057a57806382966f8b146105e057806389054583146105f3578063893d20e8146106095780638da5cb5b1461061c5780638efa54101461062f5780639c1b92a1146106425780639f8743f714610658578063a0bf8fe31461066b578063a33d95431461067e578063a52dd12f14610691578063a5faa125146106bd578063ac260ba0146106d0578063ae1ca692146106e3578063af157c19146106f6578063b86e321c14610709578063c7af355114610735578063c865697814610748578063e4e3e83a1461075b578063e7139ec014610787578063e76c293e146107b3578063e786bb98146107c6578063e9946c23146107f2578063f2fde38b14610805578063f5c758d614610831578063f889b6d414610844578063ff3c1a8f14610885575b600080fd5b341561021e57600080fd5b61023f73ffffffffffffffffffffffffffffffffffffffff60043516610898565b005b341561024c57600080fd5b61026d73ffffffffffffffffffffffffffffffffffffffff6004351661095b565b6040519115158252151560208201526040908101905180910390f35b341561029457600080fd5b61023f73ffffffffffffffffffffffffffffffffffffffff600435166109a1565b34156102c057600080fd5b61023f60046024813581810190830135806020601f82018190048102016040519081016040528181529291906020840183838082843750949650610a8e95505050505050565b341561031157600080fd5b610319610b67565b60405190815260200160405180910390f35b341561033657600080fd5b610319610c1c565b341561034957600080fd5b61023f73ffffffffffffffffffffffffffffffffffffffff60043516610c22565b341561037557600080fd5b61037d610d13565b6040516fffffffffffffffffffffffffffffffff909116815260200160405180910390f35b34156103ad57600080fd5b6103ce73ffffffffffffffffffffffffffffffffffffffff60043516610d2b565b604051901515815260200160405180910390f35b34156103ed57600080fd5b61023f73ffffffffffffffffffffffffffffffffffffffff60043516610d4c565b341561041957600080fd5b61023f60046024813581810190830135806020601f82018190048102016040519081016040528181529291906020840183838082843750949650610e0895505050505050565b341561046a57600080fd5b61023f610edd565b341561047d57600080fd5b61037d73ffffffffffffffffffffffffffffffffffffffff60043516610f1e565b34156104a957600080fd5b6104b1610f42565b60405160208082528190810183818151815260200191508051906020019080838360005b838110156104ed5780820151838201526020016104d5565b50505050905090810190601f16801561051a5780820380516001836020036101000a031916815260200191505b509250505060405180910390f35b341561053357600080fd5b61053b611001565b60405173ffffffffffffffffffffffffffffffffffffffff909116815260200160405180910390f35b341561056f57600080fd5b61023f600435611022565b341561058557600080fd5b61058d61119e565b60405160208082528190810183818151815260200191508051906020019060200280838360005b838110156105cc5780820151838201526020016105b4565b505050509050019250505060405180910390f35b34156105eb57600080fd5b61037d611228565b34156105fe57600080fd5b61053b600435611240565b341561061457600080fd5b61053b611275565b341561062757600080fd5b61053b611292565b341561063a57600080fd5b6103196112ae565b341561064d57600080fd5b61053b6004356112b4565b341561066357600080fd5b61053b6112c2565b341561067657600080fd5b61023f6112de565b341561068957600080fd5b610319611329565b341561069c57600080fd5b6103ce73ffffffffffffffffffffffffffffffffffffffff60043516611461565b34156106c857600080fd5b61053b611946565b34156106db57600080fd5b6103ce61197b565b34156106ee57600080fd5b610319611984565b341561070157600080fd5b61058d61198a565b341561071457600080fd5b61023f73ffffffffffffffffffffffffffffffffffffffff60043516611a13565b341561074057600080fd5b61023f612014565b341561075357600080fd5b610319612050565b341561076657600080fd5b61023f73ffffffffffffffffffffffffffffffffffffffff60043516612056565b341561079257600080fd5b61023f73ffffffffffffffffffffffffffffffffffffffff6004351661210e565b34156107be57600080fd5b61053b6121be565b34156107d157600080fd5b61023f73ffffffffffffffffffffffffffffffffffffffff600435166121da565b34156107fd57600080fd5b61031961224e565b341561081057600080fd5b61023f73ffffffffffffffffffffffffffffffffffffffff60043516612254565b341561083c57600080fd5b61023f6122e5565b341561084f57600080fd5b61023f73ffffffffffffffffffffffffffffffffffffffff600435166fffffffffffffffffffffffffffffffff6024351661233a565b341561089057600080fd5b6104b16124b7565b60175460185461010090910473ffffffffffffffffffffffffffffffffffffffff16907c01000000000000000000000000000000000000000000000000000000006c01000000000000000000000000909104810204826040517c010000000000000000000000000000000000000000000000000000000063ffffffff841602815273ffffffffffffffffffffffffffffffffffffffff90911660048201526024016000604051808303818661646e5a03f492505050151561095857600080fd5b50565b73ffffffffffffffffffffffffffffffffffffffff166000908152600e6020908152604080832054600c9092529091205460ff6601000000000000909204821692911690565b6000543373ffffffffffffffffffffffffffffffffffffffff9081169116146109c957600080fd5b60175473ffffffffffffffffffffffffffffffffffffffff610100820416907c01000000000000000000000000000000000000000000000000000000007501000000000000000000000000000000000000000000909104810204826040517c010000000000000000000000000000000000000000000000000000000063ffffffff841602815273ffffffffffffffffffffffffffffffffffffffff90911660048201526024016000604051808303818661646e5a03f492505050151561095857600080fd5b6000543373ffffffffffffffffffffffffffffffffffffffff908116911614610ab657600080fd5b60035473ffffffffffffffffffffffffffffffffffffffff16806347535d7b6000604051602001526040518163ffffffff167c0100000000000000000000000000000000000000000000000000000000028152600401602060405180830381600087803b1515610b2557600080fd5b6102c65a03f11515610b3657600080fd5b505050604051805190501515610b4b57600080fd5b6006828051610b5e9291602001906125bf565b50504260165550565b60035460009073ffffffffffffffffffffffffffffffffffffffff16818163f8b2cb4f3083604051602001526040517c010000000000000000000000000000000000000000000000000000000063ffffffff841602815273ffffffffffffffffffffffffffffffffffffffff9091166004820152602401602060405180830381600087803b1515610bf757600080fd5b6102c65a03f11515610c0857600080fd5b50505060405180519350839150505b505090565b60105481565b6000543373ffffffffffffffffffffffffffffffffffffffff908116911614610c4a57600080fd5b60175473ffffffffffffffffffffffffffffffffffffffff610100820416907c0100000000000000000000000000000000000000000000000000000000790100000000000000000000000000000000000000000000000000909104810204826040517c010000000000000000000000000000000000000000000000000000000063ffffffff841602815273ffffffffffffffffffffffffffffffffffffffff90911660048201526024016000604051808303818661646e5a03f492505050151561095857600080fd5b6014546fffffffffffffffffffffffffffffffff1681565b60005473ffffffffffffffffffffffffffffffffffffffff91821691161490565b60175460185461010090910473ffffffffffffffffffffffffffffffffffffffff16907c010000000000000000000000000000000000000000000000000000000068010000000000000000909104810204826040517c010000000000000000000000000000000000000000000000000000000063ffffffff841602815273ffffffffffffffffffffffffffffffffffffffff90911660048201526024016000604051808303818661646e5a03f492505050151561095857600080fd5b6000543373ffffffffffffffffffffffffffffffffffffffff908116911614610e3057600080fd5b60035473ffffffffffffffffffffffffffffffffffffffff16806347535d7b6000604051602001526040518163ffffffff167c0100000000000000000000000000000000000000000000000000000000028152600401602060405180830381600087803b1515610e9f57600080fd5b6102c65a03f11515610eb057600080fd5b505050604051805190501515610ec557600080fd5b6004828051610ed89291602001906125bf565b505050565b6001543373ffffffffffffffffffffffffffffffffffffffff908116911614610f0557600080fd5b601154610f1990600163ffffffff61253f16565b601155565b6013602052600090815260409020546fffffffffffffffffffffffffffffffff1681565b610f4a612639565b33610f5481611461565b1515610f5f57600080fd5b60068054600181600116156101000203166002900480601f016020809104026020016040519081016040528092919081815260200182805460018160011615610100020316600290048015610ff55780601f10610fca57610100808354040283529160200191610ff5565b820191906000526020600020905b815481529060010190602001808311610fd857829003601f168201915b505050505091505b5090565b601754610100900473ffffffffffffffffffffffffffffffffffffffff1681565b6000543373ffffffffffffffffffffffffffffffffffffffff90811691161461104a57600080fd5b6013600060128381548110151561105d57fe5b600091825260208083209091015473ffffffffffffffffffffffffffffffffffffffff168352820192909252604001812054601480546fffffffffffffffffffffffffffffffff928316818416039092167fffffffffffffffffffffffffffffffff00000000000000000000000000000000909216919091179055601280546013918391859081106110eb57fe5b60009182526020808320919091015473ffffffffffffffffffffffffffffffffffffffff168352820192909252604001902080547fffffffffffffffffffffffffffffffff00000000000000000000000000000000166fffffffffffffffffffffffffffffffff92909216919091179055601280548290811061116a57fe5b600091825260209091200180547fffffffffffffffffffffffff000000000000000000000000000000000000000016905550565b6111a6612639565b336111b081611461565b15156111bb57600080fd5b6007805480602002602001604051908101604052809291908181526020018280548015610ff557602002820191906000526020600020905b815473ffffffffffffffffffffffffffffffffffffffff1681526001909101906020018083116111f357505050505091505090565b6009546fffffffffffffffffffffffffffffffff1681565b600b80548290811061124e57fe5b60009182526020909120015473ffffffffffffffffffffffffffffffffffffffff16905081565b60005473ffffffffffffffffffffffffffffffffffffffff165b90565b60005473ffffffffffffffffffffffffffffffffffffffff1681565b60165490565b600d80548290811061124e57fe5b60035473ffffffffffffffffffffffffffffffffffffffff1690565b6003543373ffffffffffffffffffffffffffffffffffffffff90811691161461130657600080fd5b61130e612551565b60055473ffffffffffffffffffffffffffffffffffffffff16ff5b6000806000611336610b67565b9150600a546000141561136057600d5460009011156113585760009250610c17565b819250610c17565b6001546114179073ffffffffffffffffffffffffffffffffffffffff1663b20a2dce6000604051602001526040518163ffffffff167c0100000000000000000000000000000000000000000000000000000000028152600401602060405180830381600087803b15156113d257600080fd5b6102c65a03f115156113e357600080fd5b50505060405180516009546fffffffffffffffffffffffffffffffff169150670de0b6b3a76400000363ffffffff61257516565b905061142e600a548261259990919063ffffffff16565b9050611440818363ffffffff61257516565b905061145a81670de0b6b3a764000063ffffffff61259916565b9392505050565b60035460025460009173ffffffffffffffffffffffffffffffffffffffff908116911682808080808080808089632fc1f19082604051602001526040518163ffffffff167c0100000000000000000000000000000000000000000000000000000000028152600401602060405180830381600087803b15156114e257600080fd5b6102c65a03f115156114f357600080fd5b5050506040518051905073ffffffffffffffffffffffffffffffffffffffff168d73ffffffffffffffffffffffffffffffffffffffff16149850600360009054906101000a900473ffffffffffffffffffffffffffffffffffffffff1673ffffffffffffffffffffffffffffffffffffffff168d73ffffffffffffffffffffffffffffffffffffffff161497506000809054906101000a900473ffffffffffffffffffffffffffffffffffffffff1673ffffffffffffffffffffffffffffffffffffffff168d73ffffffffffffffffffffffffffffffffffffffff16149650601760009054906101000a900460ff169550600360009054906101000a900473ffffffffffffffffffffffffffffffffffffffff1673ffffffffffffffffffffffffffffffffffffffff1663a68e8a866000604051602001526040518163ffffffff167c0100000000000000000000000000000000000000000000000000000000028152600401602060405180830381600087803b151561167257600080fd5b6102c65a03f1151561168357600080fd5b505050604051805190508061171d575060025473ffffffffffffffffffffffffffffffffffffffff1663a68e8a866000604051602001526040518163ffffffff167c0100000000000000000000000000000000000000000000000000000000028152600401602060405180830381600087803b151561170157600080fd5b6102c65a03f1151561171257600080fd5b505050604051805190505b60025490955073ffffffffffffffffffffffffffffffffffffffff166352c01fab8e6000604051602001526040517c010000000000000000000000000000000000000000000000000000000063ffffffff841602815273ffffffffffffffffffffffffffffffffffffffff9091166004820152602401602060405180830381600087803b15156117ac57600080fd5b6102c65a03f115156117bd57600080fd5b505050604051805194505073ffffffffffffffffffffffffffffffffffffffff8a16632f54bf6e8e6000604051602001526040517c010000000000000000000000000000000000000000000000000000000063ffffffff841602815273ffffffffffffffffffffffffffffffffffffffff9091166004820152602401602060405180830381600087803b151561185257600080fd5b6102c65a03f1151561186357600080fd5b505050604051805190509250848015611880575082806118805750835b91508a73ffffffffffffffffffffffffffffffffffffffff166347535d7b6000604051602001526040518163ffffffff167c0100000000000000000000000000000000000000000000000000000000028152600401602060405180830381600087803b15156118ee57600080fd5b6102c65a03f115156118ff57600080fd5b5050506040518051905015905088806119155750875b8061191d5750865b806119255750855b8061192d5750815b806119355750805b9d9c50505050505050505050505050565b60003361195281611461565b151561195d57600080fd5b505060055473ffffffffffffffffffffffffffffffffffffffff1690565b60175460ff1681565b60155490565b611992612639565b3361199c81611461565b15156119a757600080fd5b6012805480602002602001604051908101604052809291908181526020018280548015610ff55760200282019190600052602060002090815473ffffffffffffffffffffffffffffffffffffffff1681526001909101906020018083116111f357505050505091505090565b6000806000806000806000806000806000806000809054906101000a900473ffffffffffffffffffffffffffffffffffffffff1673ffffffffffffffffffffffffffffffffffffffff163373ffffffffffffffffffffffffffffffffffffffff161480611a9b57506003543373ffffffffffffffffffffffffffffffffffffffff9081169116145b1515611aa657600080fd5b611aae610b67565b600154909c5073ffffffffffffffffffffffffffffffffffffffff166310fe9ae86000604051602001526040518163ffffffff167c0100000000000000000000000000000000000000000000000000000000028152600401602060405180830381600087803b1515611b1f57600080fd5b6102c65a03f11515611b3057600080fd5b505050604051805190509a50611b44611329565b9950611b578a600263ffffffff61259916565b98508a73ffffffffffffffffffffffffffffffffffffffff1663a9059cbb8e8b6000604051602001526040517c010000000000000000000000000000000000000000000000000000000063ffffffff851602815273ffffffffffffffffffffffffffffffffffffffff90921660048301526024820152604401602060405180830381600087803b1515611be957600080fd5b6102c65a03f11515611bfa57600080fd5b505050604051805150611c1590508a8a63ffffffff61253f16565b9750600096505b601254871015611dfa576012805488908110611c3457fe5b60009182526020909120015473ffffffffffffffffffffffffffffffffffffffff1615611def5760145460128054611cf4926fffffffffffffffffffffffffffffffff1691611ce891670de0b6b3a764000091601391600091908e908110611c9857fe5b600091825260208083209091015473ffffffffffffffffffffffffffffffffffffffff1683528201929092526040019020546fffffffffffffffffffffffffffffffff169063ffffffff61257516565b9063ffffffff61259916565b9550611d12670de0b6b3a7640000611ce88a8963ffffffff61257516565b94508a73ffffffffffffffffffffffffffffffffffffffff1663a9059cbb601289815481101515611d3f57fe5b600091825260208220015473ffffffffffffffffffffffffffffffffffffffff16908890604051602001526040517c010000000000000000000000000000000000000000000000000000000063ffffffff851602815273ffffffffffffffffffffffffffffffffffffffff90921660048301526024820152604401602060405180830381600087803b1515611dd357600080fd5b6102c65a03f11515611de457600080fd5b505050604051805150505b600190960195611c1c565b611e0a8c8b63ffffffff61253f16565b9350600092505b60075483101561200557600e6000600785815481101515611e2e57fe5b600091825260208083209091015473ffffffffffffffffffffffffffffffffffffffff16835282019290925260400190205460ff650100000000009091041615611ffa57611eff600a54611ce8670de0b6b3a7640000600e6000600789815481101515611e9757fe5b600091825260208083209091015473ffffffffffffffffffffffffffffffffffffffff1683528201929092526040019020600101546fffffffffffffffffffffffffffffffff700100000000000000000000000000000000909104169063ffffffff61257516565b9150611f1d670de0b6b3a7640000611ce8868563ffffffff61257516565b90508a73ffffffffffffffffffffffffffffffffffffffff1663a9059cbb600785815481101515611f4a57fe5b600091825260208220015473ffffffffffffffffffffffffffffffffffffffff16908490604051602001526040517c010000000000000000000000000000000000000000000000000000000063ffffffff851602815273ffffffffffffffffffffffffffffffffffffffff90921660048301526024820152604401602060405180830381600087803b1515611fde57600080fd5b6102c65a03f11515611fef57600080fd5b505050604051805150505b600190920191611e11565b50505050505050505050505050565b6001543373ffffffffffffffffffffffffffffffffffffffff90811691161461203c57600080fd5b601154610f1990600163ffffffff6125b016565b60115481565b60175460185461010090910473ffffffffffffffffffffffffffffffffffffffff16907c0100000000000000000000000000000000000000000000000000000000640100000000909104810204826040517c010000000000000000000000000000000000000000000000000000000063ffffffff841602815273ffffffffffffffffffffffffffffffffffffffff90911660048201526024016000604051808303818661646e5a03f492505050151561095857600080fd5b60175460185461010090910473ffffffffffffffffffffffffffffffffffffffff16907c010000000000000000000000000000000000000000000000000000000090810204826040517c010000000000000000000000000000000000000000000000000000000063ffffffff841602815273ffffffffffffffffffffffffffffffffffffffff90911660048201526024016000604051808303818661646e5a03f492505050151561095857600080fd5b60025473ffffffffffffffffffffffffffffffffffffffff1690565b6000543373ffffffffffffffffffffffffffffffffffffffff90811691161461220257600080fd5b6017805473ffffffffffffffffffffffffffffffffffffffff909216610100027fffffffffffffffffffffff0000000000000000000000000000000000000000ff909216919091179055565b600a5481565b6000543373ffffffffffffffffffffffffffffffffffffffff90811691161461227c57600080fd5b73ffffffffffffffffffffffffffffffffffffffff8116151561229e57600080fd5b600080547fffffffffffffffffffffffff00000000000000000000000000000000000000001673ffffffffffffffffffffffffffffffffffffffff92909216919091179055565b6000543373ffffffffffffffffffffffffffffffffffffffff90811691161461230d57600080fd5b601780547fffffffffffffffffffffffffffffffffffffffffffffffffffffffffffffff00166001179055565b600080543373ffffffffffffffffffffffffffffffffffffffff90811691161461236357600080fd5b6012805460018101612375838261264b565b50600091825260208083209190910180547fffffffffffffffffffffffff00000000000000000000000000000000000000001673ffffffffffffffffffffffffffffffffffffffff878116918217909255601480547fffffffffffffffffffffffffffffffff000000000000000000000000000000008082166fffffffffffffffffffffffffffffffff9283168a0183161790925591855260139093526040938490208054909316908616179091556003541691508190631cdb7de5908590600290517c010000000000000000000000000000000000000000000000000000000063ffffffff851602815273ffffffffffffffffffffffffffffffffffffffff90921660048301526024820152604401600060405180830381600087803b151561249e57600080fd5b6102c65a03f115156124af57600080fd5b505050505050565b6124bf612639565b336124c981611461565b15156124d457600080fd5b60048054600181600116156101000203166002900480601f016020809104026020016040519081016040528092919081815260200182805460018160011615610100020316600290048015610ff55780601f10610fca57610100808354040283529160200191610ff5565b60008282111561254b57fe5b50900390565b6000546125739073ffffffffffffffffffffffffffffffffffffffff16611a13565b565b6000828202831580612591575082848281151561258e57fe5b04145b151561145a57fe5b60008082848115156125a757fe5b04949350505050565b60008282018381101561145a57fe5b828054600181600116156101000203166002900490600052602060002090601f016020900481019282601f1061260057805160ff191683800117855561262d565b8280016001018555821561262d579182015b8281111561262d578251825591602001919060010190612612565b50610ffd92915061266b565b60206040519081016040526000815290565b815481835581811511610ed857600083815260209020610ed89181019083015b61128f91905b80821115610ffd57600081556001016126715600a165627a7a72305820bb2d97dbbd3d882052c5a981700d981d0129a4e8504b828f298340d1d9515b070029a165627a7a72305820130298d00a326b26d737606eb7d8a7288edadb6e3ceef7539523f389114bc1b10029",
  "source": "pragma solidity ^0.4.18;\n\nimport '../MatryxSubmission.sol';\n\ncontract MatryxSubmissionFactory {\n\n\tfunction createSubmission(address _platformAddress, address _tournamentAddress, address _roundAddress, string _title, address _submissionOwner, address _submissionAuthor, bytes _externalAddress, address[] _references, address[] _contributors, uint128[] _contributorRewardDistribution) public returns (address _submissionAddress) {\n\t\treturn new MatryxSubmission(_platformAddress, _tournamentAddress, _roundAddress, _title, _submissionOwner, _submissionAuthor, _externalAddress, _references, _contributors, _contributorRewardDistribution);\n\t}\n}",
  "sourcePath": "/Users/maxhoward/Desktop/Ethereum/Development/Matryx AWS/Projects/matryx-alpha-source/contracts/factories/MatryxSubmissionFactory.sol",
  "compiler": {
    "name": "solc",
    "version": "0.4.19+commit.c4cbbb05.Emscripten.clang"
  },
  "schemaVersion": "2.0.0",
  "updatedAt": "2018-04-05T19:07:59.631Z"
}