{
  "contractName": "MatryxPlatform",
  "abi": [
    {
      "constant": true,
      "inputs": [],
      "name": "matryxTokenAddress",
      "outputs": [
        {
          "name": "",
          "type": "address"
        }
      ],
      "payable": false,
      "stateMutability": "view",
      "type": "function"
    },
    {
      "constant": true,
      "inputs": [
        {
          "name": "_sender",
          "type": "address"
        }
      ],
      "name": "isOwner",
      "outputs": [
        {
          "name": "_isOwner",
          "type": "bool"
        }
      ],
      "payable": false,
      "stateMutability": "view",
      "type": "function"
    },
    {
      "constant": true,
      "inputs": [
        {
          "name": "",
          "type": "bytes32"
        }
      ],
      "name": "categoryIterator",
      "outputs": [
        {
          "name": "count",
          "type": "uint128"
        },
        {
          "name": "prev",
          "type": "bytes32"
        },
        {
          "name": "next",
          "type": "bytes32"
        }
      ],
      "payable": false,
      "stateMutability": "view",
      "type": "function"
    },
    {
      "constant": true,
      "inputs": [],
      "name": "hashOfLastCategory",
      "outputs": [
        {
          "name": "",
          "type": "bytes32"
        }
      ],
      "payable": false,
      "stateMutability": "view",
      "type": "function"
    },
    {
      "constant": true,
      "inputs": [
        {
          "name": "",
          "type": "uint256"
        }
      ],
      "name": "topCategoryByCount",
      "outputs": [
        {
          "name": "",
          "type": "bytes32"
        }
      ],
      "payable": false,
      "stateMutability": "view",
      "type": "function"
    },
    {
      "constant": true,
      "inputs": [],
      "name": "getOwner",
      "outputs": [
        {
          "name": "_owner",
          "type": "address"
        }
      ],
      "payable": false,
      "stateMutability": "view",
      "type": "function"
    },
    {
      "constant": false,
      "inputs": [
        {
          "name": "_queryID",
          "type": "uint256"
        },
        {
          "name": "_response",
          "type": "uint256"
        }
      ],
      "name": "storeQueryResponse",
      "outputs": [
        {
          "name": "success",
          "type": "bool"
        }
      ],
      "payable": false,
      "stateMutability": "nonpayable",
      "type": "function"
    },
    {
      "constant": true,
      "inputs": [],
      "name": "owner",
      "outputs": [
        {
          "name": "",
          "type": "address"
        }
      ],
      "payable": false,
      "stateMutability": "view",
      "type": "function"
    },
    {
      "constant": true,
      "inputs": [],
      "name": "hashOfTopCategory",
      "outputs": [
        {
          "name": "",
          "type": "bytes32"
        }
      ],
      "payable": false,
      "stateMutability": "view",
      "type": "function"
    },
    {
      "constant": true,
      "inputs": [
        {
          "name": "",
          "type": "uint256"
        }
      ],
      "name": "categoryList",
      "outputs": [
        {
          "name": "",
          "type": "string"
        }
      ],
      "payable": false,
      "stateMutability": "view",
      "type": "function"
    },
    {
      "constant": true,
      "inputs": [
        {
          "name": "",
          "type": "uint256"
        }
      ],
      "name": "allTournaments",
      "outputs": [
        {
          "name": "",
          "type": "address"
        }
      ],
      "payable": false,
      "stateMutability": "view",
      "type": "function"
    },
    {
      "constant": false,
      "inputs": [
        {
          "name": "_query",
          "type": "bytes32"
        },
        {
          "name": "_sender",
          "type": "address"
        }
      ],
      "name": "Query",
      "outputs": [],
      "payable": false,
      "stateMutability": "nonpayable",
      "type": "function"
    },
    {
      "constant": false,
      "inputs": [
        {
          "name": "newOwner",
          "type": "address"
        }
      ],
      "name": "transferOwnership",
      "outputs": [],
      "payable": false,
      "stateMutability": "nonpayable",
      "type": "function"
    },
    {
      "inputs": [
        {
          "name": "_matryxTokenAddress",
          "type": "address"
        },
        {
          "name": "_matryxPeerFactoryAddress",
          "type": "address"
        },
        {
          "name": "_matryxTournamentFactoryAddress",
          "type": "address"
        },
        {
          "name": "_matryxSubmissionTrustLibAddress",
          "type": "address"
        }
      ],
      "payable": false,
      "stateMutability": "nonpayable",
      "type": "constructor"
    },
    {
      "anonymous": false,
      "inputs": [
        {
          "indexed": false,
          "name": "_discipline",
          "type": "string"
        },
        {
          "indexed": false,
          "name": "_owner",
          "type": "address"
        },
        {
          "indexed": false,
          "name": "_tournamentAddress",
          "type": "address"
        },
        {
          "indexed": false,
          "name": "_tournamentName",
          "type": "string"
        },
        {
          "indexed": false,
          "name": "_externalAddress",
          "type": "bytes"
        },
        {
          "indexed": false,
          "name": "_MTXReward",
          "type": "uint256"
        },
        {
          "indexed": false,
          "name": "_entryFee",
          "type": "uint256"
        }
      ],
      "name": "TournamentCreated",
      "type": "event"
    },
    {
      "anonymous": false,
      "inputs": [
        {
          "indexed": false,
          "name": "_owner",
          "type": "address"
        },
        {
          "indexed": false,
          "name": "_tournamentAddress",
          "type": "address"
        },
        {
          "indexed": false,
          "name": "_tournamentName",
          "type": "string"
        },
        {
          "indexed": false,
          "name": "_externalAddress",
          "type": "bytes"
        },
        {
          "indexed": false,
          "name": "_MTXReward",
          "type": "uint256"
        },
        {
          "indexed": false,
          "name": "_entryFee",
          "type": "uint256"
        }
      ],
      "name": "TournamentOpened",
      "type": "event"
    },
    {
      "anonymous": false,
      "inputs": [
        {
          "indexed": false,
          "name": "_tournamentAddress",
          "type": "address"
        },
        {
          "indexed": false,
          "name": "_finalRoundNumber",
          "type": "uint256"
        },
        {
          "indexed": false,
          "name": "_winningSubmissionAddress",
          "type": "address"
        },
        {
          "indexed": false,
          "name": "_MTXReward",
          "type": "uint256"
        }
      ],
      "name": "TournamentClosed",
      "type": "event"
    },
    {
      "anonymous": false,
      "inputs": [
        {
          "indexed": false,
          "name": "_entrant",
          "type": "address"
        },
        {
          "indexed": false,
          "name": "_tournamentAddress",
          "type": "address"
        }
      ],
      "name": "UserEnteredTournament",
      "type": "event"
    },
    {
      "anonymous": false,
      "inputs": [
        {
          "indexed": false,
          "name": "queryID",
          "type": "string"
        }
      ],
      "name": "QueryID",
      "type": "event"
    },
    {
      "anonymous": false,
      "inputs": [
        {
          "indexed": false,
          "name": "_arg",
          "type": "string"
        }
      ],
      "name": "someEvent",
      "type": "event"
    },
    {
      "anonymous": false,
      "inputs": [
        {
          "indexed": false,
          "name": "id",
          "type": "uint256"
        },
        {
          "indexed": false,
          "name": "sender",
          "type": "address"
        }
      ],
      "name": "QueryPerformed",
      "type": "event"
    },
    {
      "anonymous": false,
      "inputs": [
        {
          "indexed": false,
          "name": "storedResponse",
          "type": "uint256"
        }
      ],
      "name": "StoredResponse",
      "type": "event"
    },
    {
      "anonymous": false,
      "inputs": [
        {
          "indexed": false,
          "name": "response",
          "type": "uint256"
        }
      ],
      "name": "ObtainedResponse",
      "type": "event"
    },
    {
      "anonymous": false,
      "inputs": [
        {
          "indexed": false,
          "name": "newResponse",
          "type": "uint256"
        },
        {
          "indexed": false,
          "name": "oldResponse",
          "type": "uint256"
        }
      ],
      "name": "FailedToStore",
      "type": "event"
    },
    {
      "anonymous": false,
      "inputs": [
        {
          "indexed": false,
          "name": "id",
          "type": "uint256"
        }
      ],
      "name": "QueryID",
      "type": "event"
    },
    {
      "constant": false,
      "inputs": [
        {
          "name": "_owner",
          "type": "address"
        },
        {
          "name": "_tournamentAddress",
          "type": "address"
        },
        {
          "name": "_tournamentName",
          "type": "string"
        },
        {
          "name": "_externalAddress",
          "type": "bytes"
        },
        {
          "name": "_MTXReward",
          "type": "uint256"
        },
        {
          "name": "_entryFee",
          "type": "uint256"
        }
      ],
      "name": "invokeTournamentOpenedEvent",
      "outputs": [],
      "payable": false,
      "stateMutability": "nonpayable",
      "type": "function"
    },
    {
      "constant": false,
      "inputs": [
        {
          "name": "_tournamentAddress",
          "type": "address"
        },
        {
          "name": "_finalRoundNumber",
          "type": "uint256"
        },
        {
          "name": "_winningSubmissionAddress",
          "type": "address"
        },
        {
          "name": "_MTXReward",
          "type": "uint256"
        }
      ],
      "name": "invokeTournamentClosedEvent",
      "outputs": [],
      "payable": false,
      "stateMutability": "nonpayable",
      "type": "function"
    },
    {
      "constant": false,
      "inputs": [
        {
          "name": "_toIgnore",
          "type": "uint256"
        }
      ],
      "name": "prepareBalance",
      "outputs": [],
      "payable": false,
      "stateMutability": "nonpayable",
      "type": "function"
    },
    {
      "constant": true,
      "inputs": [],
      "name": "balanceIsNonZero",
      "outputs": [
        {
          "name": "",
          "type": "bool"
        }
      ],
      "payable": false,
      "stateMutability": "view",
      "type": "function"
    },
    {
      "constant": true,
      "inputs": [],
      "name": "getBalance",
      "outputs": [
        {
          "name": "",
          "type": "uint256"
        }
      ],
      "payable": false,
      "stateMutability": "view",
      "type": "function"
    },
    {
      "constant": false,
      "inputs": [
        {
          "name": "_submissionAddress",
          "type": "address"
        },
        {
          "name": "_references",
          "type": "address[]"
        }
      ],
      "name": "handleReferenceRequestsForSubmission",
      "outputs": [
        {
          "name": "",
          "type": "bool"
        }
      ],
      "payable": false,
      "stateMutability": "nonpayable",
      "type": "function"
    },
    {
      "constant": false,
      "inputs": [
        {
          "name": "_reference",
          "type": "address"
        }
      ],
      "name": "handleReferenceRequestForSubmission",
      "outputs": [
        {
          "name": "",
          "type": "bool"
        }
      ],
      "payable": false,
      "stateMutability": "nonpayable",
      "type": "function"
    },
    {
      "constant": false,
      "inputs": [
        {
          "name": "_reference",
          "type": "address"
        }
      ],
      "name": "handleCancelledReferenceRequestForSubmission",
      "outputs": [
        {
          "name": "",
          "type": "bool"
        }
      ],
      "payable": false,
      "stateMutability": "nonpayable",
      "type": "function"
    },
    {
      "constant": false,
      "inputs": [
        {
          "name": "_owner",
          "type": "address"
        },
        {
          "name": "_submission",
          "type": "address"
        }
      ],
      "name": "updateSubmissions",
      "outputs": [],
      "payable": false,
      "stateMutability": "nonpayable",
      "type": "function"
    },
    {
      "constant": false,
      "inputs": [
        {
          "name": "_submissionAddress",
          "type": "address"
        },
        {
          "name": "_tournamentAddress",
          "type": "address"
        }
      ],
      "name": "removeSubmission",
      "outputs": [
        {
          "name": "",
          "type": "bool"
        }
      ],
      "payable": false,
      "stateMutability": "nonpayable",
      "type": "function"
    },
    {
      "constant": true,
      "inputs": [
        {
          "name": "_category",
          "type": "string"
        }
      ],
      "name": "getTournamentsByCategory",
      "outputs": [
        {
          "name": "",
          "type": "address[]"
        }
      ],
      "payable": false,
      "stateMutability": "view",
      "type": "function"
    },
    {
      "constant": true,
      "inputs": [
        {
          "name": "_category",
          "type": "string"
        }
      ],
      "name": "getCategoryCount",
      "outputs": [
        {
          "name": "",
          "type": "uint256"
        }
      ],
      "payable": false,
      "stateMutability": "view",
      "type": "function"
    },
    {
      "constant": false,
      "inputs": [
        {
          "name": "discipline",
          "type": "string"
        }
      ],
      "name": "switchTournamentCategory",
      "outputs": [],
      "payable": false,
      "stateMutability": "nonpayable",
      "type": "function"
    },
    {
      "constant": false,
      "inputs": [
        {
          "name": "_tournamentAddress",
          "type": "address"
        }
      ],
      "name": "enterTournament",
      "outputs": [
        {
          "name": "_success",
          "type": "bool"
        }
      ],
      "payable": false,
      "stateMutability": "nonpayable",
      "type": "function"
    },
    {
      "constant": false,
      "inputs": [
        {
          "name": "_category",
          "type": "string"
        },
        {
          "name": "_tournamentName",
          "type": "string"
        },
        {
          "name": "_externalAddress",
          "type": "bytes"
        },
        {
          "name": "_BountyMTX",
          "type": "uint256"
        },
        {
          "name": "_entryFee",
          "type": "uint256"
        },
        {
          "name": "_reviewPeriod",
          "type": "uint256"
        }
      ],
      "name": "createTournament",
      "outputs": [
        {
          "name": "_tournamentAddress",
          "type": "address"
        }
      ],
      "payable": false,
      "stateMutability": "nonpayable",
      "type": "function"
    },
    {
      "constant": false,
      "inputs": [],
      "name": "createPeer",
      "outputs": [
        {
          "name": "",
          "type": "address"
        }
      ],
      "payable": false,
      "stateMutability": "nonpayable",
      "type": "function"
    },
    {
      "constant": true,
      "inputs": [
        {
          "name": "_peerAddress",
          "type": "address"
        }
      ],
      "name": "isPeer",
      "outputs": [
        {
          "name": "",
          "type": "bool"
        }
      ],
      "payable": false,
      "stateMutability": "view",
      "type": "function"
    },
    {
      "constant": true,
      "inputs": [
        {
          "name": "_sender",
          "type": "address"
        }
      ],
      "name": "hasPeer",
      "outputs": [
        {
          "name": "",
          "type": "bool"
        }
      ],
      "payable": false,
      "stateMutability": "view",
      "type": "function"
    },
    {
      "constant": true,
      "inputs": [
        {
          "name": "_peer",
          "type": "address"
        },
        {
          "name": "_reference",
          "type": "address"
        }
      ],
      "name": "peerExistsAndOwnsSubmission",
      "outputs": [
        {
          "name": "",
          "type": "bool"
        }
      ],
      "payable": false,
      "stateMutability": "view",
      "type": "function"
    },
    {
      "constant": true,
      "inputs": [
        {
          "name": "_sender",
          "type": "address"
        }
      ],
      "name": "peerAddress",
      "outputs": [
        {
          "name": "",
          "type": "address"
        }
      ],
      "payable": false,
      "stateMutability": "view",
      "type": "function"
    },
    {
      "constant": true,
      "inputs": [
        {
          "name": "_submissionAddress",
          "type": "address"
        }
      ],
      "name": "isSubmission",
      "outputs": [
        {
          "name": "",
          "type": "bool"
        }
      ],
      "payable": false,
      "stateMutability": "view",
      "type": "function"
    },
    {
      "constant": true,
      "inputs": [
        {
          "name": "_tournamentAddress",
          "type": "address"
        }
      ],
      "name": "getTournament_IsMine",
      "outputs": [
        {
          "name": "_isMine",
          "type": "bool"
        }
      ],
      "payable": false,
      "stateMutability": "view",
      "type": "function"
    },
    {
      "constant": false,
      "inputs": [
        {
          "name": "_gratitude",
          "type": "uint256"
        }
      ],
      "name": "setSubmissionGratitude",
      "outputs": [],
      "payable": false,
      "stateMutability": "nonpayable",
      "type": "function"
    },
    {
      "constant": true,
      "inputs": [],
      "name": "getTokenAddress",
      "outputs": [
        {
          "name": "",
          "type": "address"
        }
      ],
      "payable": false,
      "stateMutability": "view",
      "type": "function"
    },
    {
      "constant": true,
      "inputs": [],
      "name": "getSubmissionTrustLibrary",
      "outputs": [
        {
          "name": "",
          "type": "address"
        }
      ],
      "payable": false,
      "stateMutability": "view",
      "type": "function"
    },
    {
      "constant": true,
      "inputs": [],
      "name": "getRoundLibAddress",
      "outputs": [
        {
          "name": "",
          "type": "address"
        }
      ],
      "payable": false,
      "stateMutability": "view",
      "type": "function"
    },
    {
      "constant": true,
      "inputs": [],
      "name": "getSubmissionGratitude",
      "outputs": [
        {
          "name": "",
          "type": "uint256"
        }
      ],
      "payable": false,
      "stateMutability": "view",
      "type": "function"
    },
    {
      "constant": true,
      "inputs": [],
      "name": "myTournaments",
      "outputs": [
        {
          "name": "",
          "type": "address[]"
        }
      ],
      "payable": false,
      "stateMutability": "view",
      "type": "function"
    },
    {
      "constant": true,
      "inputs": [],
      "name": "mySubmissions",
      "outputs": [
        {
          "name": "",
          "type": "address[]"
        }
      ],
      "payable": false,
      "stateMutability": "view",
      "type": "function"
    },
    {
      "constant": true,
      "inputs": [],
      "name": "tournamentCount",
      "outputs": [
        {
          "name": "_tournamentCount",
          "type": "uint256"
        }
      ],
      "payable": false,
      "stateMutability": "view",
      "type": "function"
    },
    {
      "constant": true,
      "inputs": [
        {
          "name": "_index",
          "type": "uint256"
        }
      ],
      "name": "getTournamentAtIndex",
      "outputs": [
        {
          "name": "_tournamentAddress",
          "type": "address"
        }
      ],
      "payable": false,
      "stateMutability": "view",
      "type": "function"
    }
  ],
  "bytecode": "0x606060405260408051908101604052600181526702c68af0bb140000602082015260178151815460ff1916901515178155602082015181600101555050341561004757600080fd5b60405160808061321b8339810160405280805191906020018051919060200180519190602001805160008054600160a060020a03338116600160a060020a031992831617909255600480549883169882169890981790975560058054968216968816969096179095556006805494861694871694909417909355505060078054929091169190921617905561313a806100e16000396000f3006060604052600436106102195763ffffffff7c010000000000000000000000000000000000000000000000000000000060003504166310fe9ae8811461021e57806312065fe01461024d5780631d2245f51461027257806322985f92146102d857806329cc545e146102ff5780632f54bf6e146103125780633e44cf7814610331578063493a7af3146103505780634cbb12a91461039d57806350912da1146103b057806351488bce146103de578063532311c4146104035780635490904b146104225780636a44e43d146104d45780636e2b2c7c146104f35780637665262614610506578063818b5fa8146105195780638423e63e14610538578063875153ff1461054e578063893d20e81461059f5780638b72062a146105b25780638c593a8c146105cb5780638da5cb5b14610628578063984ed2061461063b578063a968c4b914610651578063ab9583d914610676578063ac17741b1461069b578063ae945a36146106b9578063b20a2dce146106cc578063b2fad554146106df578063bfc9d77c146106fe578063c13ae92a146107e0578063c21260a5146107f6578063c839984a14610883578063d4a0182014610899578063d4f056d4146108bb578063e139a20c146108d9578063e8a0ed0d146108ec578063edee41d91461090b578063f2fde38b14610921578063f3dc0d2514610940578063f7468a3c14610953578063f7c3609d14610972578063fb5032d614610985575b600080fd5b341561022957600080fd5b6102316109a4565b604051600160a060020a03909116815260200160405180910390f35b341561025857600080fd5b6102606109b4565b60405190815260200160405180910390f35b341561027d57600080fd5b6102856109ca565b60405160208082528190810183818151815260200191508051906020019060200280838360005b838110156102c45780820151838201526020016102ac565b505050509050019250505060405180910390f35b34156102e357600080fd5b6102eb610a55565b604051901515815260200160405180910390f35b341561030a57600080fd5b610231610a69565b341561031d57600080fd5b6102eb600160a060020a0360043516610a78565b341561033c57600080fd5b6102eb600160a060020a0360043516610a8c565b341561035b57600080fd5b610366600435610aaa565b6040516fffffffffffffffffffffffffffffffff909316835260208301919091526040808301919091526060909101905180910390f35b34156103a857600080fd5b610260610ade565b34156103bb57600080fd5b6103dc600160a060020a036004358116906024359060443516606435610ae4565b005b34156103e957600080fd5b6102eb600160a060020a0360043581169060243516610b6b565b341561040e57600080fd5b6102eb600160a060020a0360043516610be2565b341561042d57600080fd5b6103dc600160a060020a036004803582169160248035909116919060649060443590810190830135806020601f8201819004810201604051908101604052818152929190602084018383808284378201915050505050509190803590602001908201803590602001908080601f01602080910402602001604051908101604052818152929190602084018383808284375094965050843594602001359350610c0292505050565b34156104df57600080fd5b610231600160a060020a0360043516610d61565b34156104fe57600080fd5b610260610d7f565b341561051157600080fd5b610231610d85565b341561052457600080fd5b6102eb600160a060020a0360043516610d94565b341561054357600080fd5b610260600435610db2565b341561055957600080fd5b6103dc60046024813581810190830135806020601f82018190048102016040519081016040528181529291906020840183838082843750949650610dc495505050505050565b34156105aa57600080fd5b610231610deb565b34156105bd57600080fd5b6102eb600435602435610dfa565b34156105d657600080fd5b6102eb60048035600160a060020a0316906044602480359081019083013580602080820201604051908101604052809392919081815260200183836020028082843750949650610f1995505050505050565b341561063357600080fd5b610231611103565b341561064657600080fd5b610231600435611112565b341561065c57600080fd5b6102eb600160a060020a0360043581169060243516611158565b341561068157600080fd5b6103dc600160a060020a03600435811690602435166113a8565b34156106a657600080fd5b61028560048035602481019101356114c9565b34156106c457600080fd5b61026061156c565b34156106d757600080fd5b610260611572565b34156106ea57600080fd5b6102eb600160a060020a036004351661158d565b341561070957600080fd5b61023160046024813581810190830135806020601f8201819004810201604051908101604052818152929190602084018383808284378201915050505050509190803590602001908201803590602001908080601f01602080910402602001604051908101604052818152929190602084018383808284378201915050505050509190803590602001908201803590602001908080601f016020809104026020016040519081016040528181529291906020840183838082843750949650508435946020810135945060400135925061173e915050565b34156107eb57600080fd5b6103dc600435611c4a565b341561080157600080fd5b61080c600435611cba565b60405160208082528190810183818151815260200191508051906020019080838360005b83811015610848578082015183820152602001610830565b50505050905090810190601f1680156108755780820380516001836020036101000a031916815260200191505b509250505060405180910390f35b341561088e57600080fd5b610231600435611d75565b34156108a457600080fd5b6103dc600435600160a060020a0360243516611d9d565b34156108c657600080fd5b6102606004803560248101910135611f3f565b34156108e457600080fd5b610285611f8d565b34156108f757600080fd5b6102eb600160a060020a0360043516612016565b341561091657600080fd5b6103dc6004356120d8565b341561092c57600080fd5b6103dc600160a060020a0360043516612192565b341561094b57600080fd5b6102316121f1565b341561095e57600080fd5b6102eb600160a060020a0360043516612200565b341561097d57600080fd5b61023161232f565b341561099057600080fd5b6102eb600160a060020a0360043516612456565b600454600160a060020a03165b90565b6000806109c0336125ec565b90508091505b5090565b6109d2612d86565b6014600033600160a060020a0316600160a060020a03168152602001908152602001600020805480602002602001604051908101604052809291908181526020018280548015610a4b57602002820191906000526020600020905b8154600160a060020a03168152600190910190602001808311610a2d575b5050505050905090565b600080610a61336125ec565b151592915050565b600454600160a060020a031681565b600054600160a060020a0391821691161490565b600160a060020a03166000908152600f602052604090205460ff1690565b600d602052600090815260409020805460018201546002909201546fffffffffffffffffffffffffffffffff909116919083565b600b5481565b600160a060020a03331660009081526012602052604090205460ff161515610b0b57600080fd5b7f4b7129caf5b43afa8e5fa6636b13666891a1e62cfd286305ae6c96c9403cf5dd84848484604051600160a060020a039485168152602081019390935292166040808301919091526060820192909252608001905180910390a150505050565b600160a060020a038083166000818152600f60209081526040808320548686168085526013845282852054958552601084528285205490961684526011835281842095845294909152812054909260ff9081169281169116828015610bcd5750815b8015610bd65750805b93505b50505092915050565b600160a060020a0390811660009081526010602052604090205416151590565b600160a060020a03331660009081526012602052604090205460ff161515610c2957600080fd5b7f2237d56eaac80eabccfac0e9fb7d5a6365d4849af29f803b530fabebdf7299d4868686868686604051600160a060020a038088168252861660208201526080810183905260a0810182905260c060408201818152906060830190830187818151815260200191508051906020019080838360005b83811015610cb6578082015183820152602001610c9e565b50505050905090810190601f168015610ce35780820380516001836020036101000a031916815260200191505b50838103825286818151815260200191508051906020019080838360005b83811015610d19578082015183820152602001610d01565b50505050905090810190601f168015610d465780820380516001836020036101000a031916815260200191505b509850505050505050505060405180910390a1505050505050565b600160a060020a039081166000908152601060205260409020541690565b60095490565b600854600160a060020a031690565b600160a060020a031660009081526013602052604090205460ff1690565b600c6020526000908152604090205481565b600160a060020a03331660009081526012602052604090205460ff16151561021957600080fd5b600054600160a060020a031690565b600080548190819033600160a060020a03908116911614610e1a57600080fd5b5050600160a060020a0333166000908152600260209081526040808320548084526003909252822054909184118015610e51575080155b15610ebf57600160a060020a03331660009081526002602090815260408083208890558783526003909152908190208590557fae8527266ba82a48a206c6cbaa4634e0d5e70b8c6017ac015e19fa75664d55789085905190815260200160405180910390a160019250610f11565b7fe0ecffc2c891b346f2eeb89101dba4c5748fb0f27fd023b97cdcac60c0a1585c84600360008881526020019081526020016000205460405191825260208201526040908101905180910390a1600092505b505092915050565b600160a060020a033316600090815260126020526040812054819081908190819060ff161515610f4857600080fd5b600093505b85518410156110f957858481518110610f6257fe5b906020019060200201519250610f7783610d94565b1515610f82576110ee565b82915081600160a060020a031663a5faa1256000604051602001526040518163ffffffff167c0100000000000000000000000000000000000000000000000000000000028152600401602060405180830381600087803b1515610fe457600080fd5b6102c65a03f11515610ff557600080fd5b5050506040518051915050600160a060020a03811663d1bbd31288856040517c010000000000000000000000000000000000000000000000000000000063ffffffff8516028152600160a060020a03928316600482015291166024820152604401600060405180830381600087803b151561106f57600080fd5b6102c65a03f1151561108057600080fd5b50505081600160a060020a031663c7af35516040518163ffffffff167c0100000000000000000000000000000000000000000000000000000000028152600401600060405180830381600087803b15156110d957600080fd5b6102c65a03f115156110ea57600080fd5b5050505b600190930192610f4d565b5050505092915050565b600054600160a060020a031681565b60008082101561112157600080fd5b600954821061112f57600080fd5b600980548390811061113d57fe5b600091825260209091200154600160a060020a031692915050565b600160a060020a03338116600090815260116020908152604080832093861683529290529081205481908190819060ff16151561119457600080fd5b600160a060020a03851660009081526012602052604090205460ff1615156111bb57600080fd5b600160a060020a03861660009081526013602052604090205460ff161561139c5785925085600160a060020a031663893d20e86000604051602001526040518163ffffffff167c0100000000000000000000000000000000000000000000000000000000028152600401602060405180830381600087803b151561123e57600080fd5b6102c65a03f1151561124f57600080fd5b5050506040518051600160a060020a038082166000818152601660209081526040808320948d1683529381528382206001015460138252848320805460ff19169055928252601590529190912080549295509093509150829081106112b057fe5b60009182526020808320909101805473ffffffffffffffffffffffffffffffffffffffff19169055600160a060020a0384811683526016825260408084208a83168552909252818320805460ff1916815560010183905587169163a968c4b9918991869151602001526040517c010000000000000000000000000000000000000000000000000000000063ffffffff8516028152600160a060020a03928316600482015291166024820152604401602060405180830381600087803b151561137757600080fd5b6102c65a03f1151561138857600080fd5b505050604051805190505060019350610bd9565b50600095945050505050565b600160a060020a03331660009081526012602052604090205460ff1615156113cf57600080fd5b60408051908101604090815260018252600160a060020a038085166000818152601560209081528482205481870152918152601682528381209286168152919052208151815460ff19169015151781556020820151600191820155600160a060020a038416600090815260156020526040902080549092509081016114548382612d98565b506000918252602080832091909101805473ffffffffffffffffffffffffffffffffffffffff1916600160a060020a03948516908117909155939092168152601182526040808220938252928252828120805460ff199081166001908117909255601390935292902080549091169091179055565b6114d1612d86565b600d600084846040518083838082843782019150509250505060405180910390206000191660001916815260200190815260200160002060030180548060200260200160405190810160405280929190818152602001828054801561155f57602002820191906000526020600020905b8154600160a060020a03168152600190910190602001808311611541575b5050505050905092915050565b600a5481565b60175460009060ff16151561158657600080fd5b5060185490565b600160a060020a0333166000908152601360205260408120548190819060ff1615156115b857600080fd5b6115c184610d94565b15156115cc57600080fd5b83915081600160a060020a031663a5faa1256000604051602001526040518163ffffffff167c0100000000000000000000000000000000000000000000000000000000028152600401602060405180830381600087803b151561162e57600080fd5b6102c65a03f1151561163f57600080fd5b5050506040518051915050600160a060020a03811663d1bbd31233866040517c010000000000000000000000000000000000000000000000000000000063ffffffff8516028152600160a060020a03928316600482015291166024820152604401600060405180830381600087803b15156116b957600080fd5b6102c65a03f115156116ca57600080fd5b50505081600160a060020a031663c7af35516040518163ffffffff167c0100000000000000000000000000000000000000000000000000000000028152600401600060405180830381600087803b151561172357600080fd5b6102c65a03f1151561173457600080fd5b5050505050919050565b60008060008060003361175081610be2565b151561175b57600080fd5b600454600160a060020a03169450888563dd62ed3e33306000604051602001526040517c010000000000000000000000000000000000000000000000000000000063ffffffff8516028152600160a060020a03928316600482015291166024820152604401602060405180830381600087803b15156117d957600080fd5b6102c65a03f115156117ea57600080fd5b505050604051805190501015151561180157600080fd5b600654600160a060020a031693508363be9518b3338d8d8d8d8d6000604051602001526040518763ffffffff167c01000000000000000000000000000000000000000000000000000000000281526004018087600160a060020a0316600160a060020a031681526020018060200180602001868152602001858152602001848152602001838103835288818151815260200191508051906020019080838360005b838110156118ba5780820151838201526020016118a2565b50505050905090810190601f1680156118e75780820380516001836020036101000a031916815260200191505b50838103825287818151815260200191508051906020019080838360005b8381101561191d578082015183820152602001611905565b50505050905090810190601f16801561194a5780820380516001836020036101000a031916815260200191505b5098505050505050505050602060405180830381600087803b151561196e57600080fd5b6102c65a03f1151561197f57600080fd5b5050506040518051905092507f344013ba9391d2d4afe01b581cb35c66d83eac82c6b4bae7752c55d4cfef4c0b8c33858e8e8e8e604051600160a060020a0380881660208301528616604082015260a0810183905260c0810182905260e080825281906060820190608083019083018b818151815260200191508051906020019080838360005b83811015611a1e578082015183820152602001611a06565b50505050905090810190601f168015611a4b5780820380516001836020036101000a031916815260200191505b50848103835288818151815260200191508051906020019080838360005b83811015611a81578082015183820152602001611a69565b50505050905090810190601f168015611aae5780820380516001836020036101000a031916815260200191505b50848103825287818151815260200191508051906020019080838360005b83811015611ae4578082015183820152602001611acc565b50505050905090810190601f168015611b115780820380516001836020036101000a031916815260200191505b509a505050505050505050505060405180910390a1611b30838d612614565b84600160a060020a03166323b872dd33858c6000604051602001526040517c010000000000000000000000000000000000000000000000000000000063ffffffff8616028152600160a060020a0393841660048201529190921660248201526044810191909152606401602060405180830381600087803b1515611bb357600080fd5b6102c65a03f11515611bc457600080fd5b5050506040518051925050811515611bdb57600080fd5b6009805460018101611bed8382612d98565b506000918252602080832091909101805473ffffffffffffffffffffffffffffffffffffffff1916600160a060020a03871690811790915582526012905260409020805460ff1916600117905550909a9950505050505050505050565b60005433600160a060020a03908116911614611c6557600080fd5b60008110158015611c7e5750670de0b6b3a76400008111155b1515611c8657fe5b60408051908101604052600181526020810182905260178151815460ff191690151517815560208201516001909101555050565b600e805482908110611cc857fe5b90600052602060002090016000915090508054600181600116156101000203166002900480601f016020809104026020016040519081016040528092919081815260200182805460018160011615610100020316600290048015611d6d5780601f10611d4257610100808354040283529160200191611d6d565b820191906000526020600020905b815481529060010190602001808311611d5057829003601f168201915b505050505081565b6009805482908110611d8357fe5b600091825260209091200154600160a060020a0316905081565b600160a060020a03808216600090815260016020526040812054909182911681901115611de657600160a060020a03808416600090815260016020526040902054169150611e53565b82611def612dc1565b600160a060020a039091168152602001604051809103906000f0801515611e1557600080fd5b600160a060020a038481166000908152600160205260409020805473ffffffffffffffffffffffffffffffffffffffff191691831691909117905591505b81600160a060020a03166372de26dd856000604051602001526040517c010000000000000000000000000000000000000000000000000000000063ffffffff84160281526004810191909152602401602060405180830381600087803b1515611ebb57600080fd5b6102c65a03f11515611ecc57600080fd5b5050506040518051600160a060020a038516600090815260026020526040908190208290559092507f1c16af450a72e7153ed6faee28677e32f11936f8ab2e63322d032d1f753b5aea91508290859051918252600160a060020a031660208201526040908101905180910390a150505050565b6000600d600084846040518083838082843782019150509250505060405190819003902081526020810191909152604001600020546fffffffffffffffffffffffffffffffff169392505050565b611f95612d86565b6015600033600160a060020a0316600160a060020a03168152602001908152602001600020805480602002602001604051908101604052809291908181526020018280548015610a4b57602002820191906000526020600020908154600160a060020a03168152600190910190602001808311610a2d575050505050905090565b600160a060020a038116600090815260126020526040812054819060ff16151561203f57600080fd5b82905033600160a060020a031681600160a060020a031663893d20e86000604051602001526040518163ffffffff167c0100000000000000000000000000000000000000000000000000000000028152600401602060405180830381600087803b15156120ab57600080fd5b6102c65a03f115156120bc57600080fd5b50505060405180519050600160a060020a031614915050919050565b600160a060020a033316600090815260026020908152604080832054808452600390925290912054801561210b57600080fd5b600160a060020a03301663d4a0182084336040517c010000000000000000000000000000000000000000000000000000000063ffffffff85160281526004810192909252600160a060020a03166024820152604401600060405180830381600087803b151561217957600080fd5b6102c65a03f1151561218a57600080fd5b505050505050565b60005433600160a060020a039081169116146121ad57600080fd5b600160a060020a03811615156121c257600080fd5b6000805473ffffffffffffffffffffffffffffffffffffffff1916600160a060020a0392909216919091179055565b600754600160a060020a031690565b60008060003361220f81610be2565b151561221a57600080fd5b600160a060020a03851660009081526012602052604090205460ff16151561224157600080fd5b84925082600160a060020a03166328d576d7336000604051602001526040517c010000000000000000000000000000000000000000000000000000000063ffffffff8416028152600160a060020a039091166004820152602401602060405180830381600087803b15156122b457600080fd5b6102c65a03f115156122c557600080fd5b50505060405180519250508115612327576122e03386612d24565b7f5891a745b8d042d48bd1e4aed889e63bdc3e44242bb75694ea97573460e03a8b3386604051600160a060020a039283168152911660208201526040908101905180910390a15b509392505050565b600160a060020a03338116600090815260106020526040812054909182918291161561235a57600080fd5b600554600160a060020a03169150816348bf9577336000604051602001526040517c010000000000000000000000000000000000000000000000000000000063ffffffff8416028152600160a060020a039091166004820152602401602060405180830381600087803b15156123cf57600080fd5b6102c65a03f115156123e057600080fd5b5050506040518051600160a060020a039081166000818152600f60209081526040808320805460ff19166001179055339094168083526010909152838220805473ffffffffffffffffffffffffffffffffffffffff19908116851790915592825292902080549091169091179055509192915050565b600160a060020a0333166000908152601360205260408120548190819060ff16151561248157600080fd5b61248a84610d94565b151561249557600080fd5b83915081600160a060020a031663a5faa1256000604051602001526040518163ffffffff167c0100000000000000000000000000000000000000000000000000000000028152600401602060405180830381600087803b15156124f757600080fd5b6102c65a03f1151561250857600080fd5b5050506040518051915050600160a060020a03811663a1cc4ac133866040517c010000000000000000000000000000000000000000000000000000000063ffffffff8516028152600160a060020a03928316600482015291166024820152604401600060405180830381600087803b151561258257600080fd5b6102c65a03f1151561259357600080fd5b50505081600160a060020a031663444e31ca6040518163ffffffff167c0100000000000000000000000000000000000000000000000000000000028152600401600060405180830381600087803b151561172357600080fd5b600160a060020a03166000908152600260209081526040808320548352600390915290205490565b6000806000806000806000806000896040518082805190602001908083835b6020831061267057805182527fffffffffffffffffffffffffffffffffffffffffffffffffffffffffffffffe09092019160209182019101612633565b6001836020036101000a03801982511681845116179092525050509190910192506040915050519081900390206000818152600d60205260409020549099506fffffffffffffffffffffffffffffffff16151561299457600e8054600181016126d98382612dd1565b60009283526020909220018b80516126f5929160200190612df5565b5050600a5415156127fd57600a899055600b899055608060405190810160409081526001825260006020830181905281830181905260608301915180591061273a5750595b9080825280602002602001820160405250905260008a8152600d60205260409020815181547fffffffffffffffffffffffffffffffff00000000000000000000000000000000166fffffffffffffffffffffffffffffffff9190911617815560208201516001820155604082015160028201556060820151816003019080516127c7929160200190612e6f565b5050600160005250600c6020527fd421a5181c571bba3f01190c922c3b2a896fc1d84e86c9f17ac10e67ebef8b5c899055612937565b6080604051908101604090815260018252600b546020830152600081830181905260608301915180591061282e5750595b9080825280602002602001820160405250905260008a8152600d60205260409020815181547fffffffffffffffffffffffffffffffff00000000000000000000000000000000166fffffffffffffffffffffffffffffffff9190911617815560208201516001820155604082015160028201556060820151816003019080516128bb929160200190612e6f565b5050600b546000908152600d6020908152604082206002018c90556001909152600c9052507fd421a5181c571bba3f01190c922c3b2a896fc1d84e86c9f17ac10e67ebef8b5c541515612937576001600052600c6020527fd421a5181c571bba3f01190c922c3b2a896fc1d84e86c9f17ac10e67ebef8b5c8990555b6000898152600d602052604090206003018054600181016129588382612d98565b506000918252602090912001805473ffffffffffffffffffffffffffffffffffffffff1916600160a060020a038d16179055600b899055612d17565b6000898152600d602052604090206003018054600181016129b58382612d98565b506000918252602080832091909101805473ffffffffffffffffffffffffffffffffffffffff1916600160a060020a038f161790558a8252600d81526040808320546fffffffffffffffffffffffffffffffff16808452600c90925290912054909850891415612a6c576000898152600d602052604090206002015415612a5c576000898152600d60209081526040808320600201548b8452600c90925290912055612a6c565b6000888152600c60205260408120555b6000898152600d6020908152604080832080546fffffffffffffffffffffffffffffffff8082166001019081167fffffffffffffffffffffffffffffffff0000000000000000000000000000000090921682179092558452600c909252909120549097501515612afb576fffffffffffffffffffffffffffffffff87166000908152600c602052604090208990555b6000898152600d602052604090206001015415612d17576000898152600d60205260408082206001810154835290822054918b9052546fffffffffffffffffffffffffffffffff91821691161115612d17577f1c1cd8630e31d3079805748bfc96c2eca1558a0a6894190bb47fef2ebf5424c360405160208082526011908201527f776861742069732068617070656e696e670000000000000000000000000000006040808301919091526060909101905180910390a16000898152600d60209081526040808320546fffffffffffffffffffffffffffffffff9081167fffffffffffffffffffffffffffffffffffffffffffffffffffffffffffffffff01168352600c909152902054600a54909650861415612c1857600a8990555b600b54891415612c38576000898152600d6020526040902060010154600b555b5050506000838152600d602052604080822088835291206002808301805460018085018054948601549093558501549182905593955091935082891492909115612c965760018501546000908152600d602052604090206002018990555b600284015415612cba5760028401546000908152600d602052604090206001018690555b8215612cd3576001850189905560028401869055612d17565b60018501829055600284018190558115612cfc576000828152600d602052604090206002018690555b8015612d17576000818152600d602052604090206001018990555b5050505050505050505050565b600160a060020a0382166000908152601460205260409020805460018101612d4c8382612d98565b506000918252602090912001805473ffffffffffffffffffffffffffffffffffffffff1916600160a060020a039290921691909117905550565b60206040519081016040526000815290565b815481835581811511612dbc57600083815260209020612dbc918101908301612edf565b505050565b60405161017a80612f9583390190565b815481835581811511612dbc57600083815260209020612dbc918101908301612ef9565b828054600181600116156101000203166002900490600052602060002090601f016020900481019282601f10612e3657805160ff1916838001178555612e63565b82800160010185558215612e63579182015b82811115612e63578251825591602001919060010190612e48565b506109c6929150612edf565b828054828255906000526020600020908101928215612ed3579160200282015b82811115612ed3578251825473ffffffffffffffffffffffffffffffffffffffff1916600160a060020a039190911617825560209290920191600190910190612e8f565b506109c6929150612f1c565b6109b191905b808211156109c65760008155600101612ee5565b6109b191905b808211156109c6576000612f138282612f4d565b50600101612eff565b6109b191905b808211156109c657805473ffffffffffffffffffffffffffffffffffffffff19168155600101612f22565b50805460018160011615610100020316600290046000825580601f10612f735750612f91565b601f016020900490600052602060002090810190612f919190612edf565b5056006060604052341561000f57600080fd5b60405160208061017a8339810160405280805160008054600160a060020a03338116600160a060020a03199283161790925560018054929093169116179055505061011b8061005f6000396000f300606060405260043610603e5763ffffffff7c010000000000000000000000000000000000000000000000000000000060003504166372de26dd81146043575b600080fd5b3415604d57600080fd5b60566004356068565b60405190815260200160405180910390f35b600080543373ffffffffffffffffffffffffffffffffffffffff908116911614609057600080fd5b43428333604051938452602084019290925260408084019190915273ffffffffffffffffffffffffffffffffffffffff9091166c01000000000000000000000000026060830152607490910190519081900390206002819055929150505600a165627a7a723058202a6a9473188a310f04e6ff29104d5c7ecfd069e0d25d076e2ee50e2d03fc91a40029a165627a7a72305820c68202b4ec30b9ec43804f9e3471958edd586a74757e2c245c41b0d0b7b8eacb0029",
  "source": "pragma solidity ^0.4.18;\n\nimport '../libraries/math/SafeMath.sol';\nimport '../libraries/math/SafeMath128.sol';\nimport './MatryxOracleMessenger.sol';\nimport '../interfaces/IMatryxToken.sol';\nimport '../interfaces/IMatryxPeer.sol';\nimport '../interfaces/IMatryxPlatform.sol';\nimport '../interfaces/factories/IMatryxPeerFactory.sol';\nimport '../interfaces/factories/IMatryxTournamentFactory.sol';\nimport '../interfaces/IMatryxTournament.sol';\nimport '../interfaces/IMatryxRound.sol';\nimport '../interfaces/IMatryxSubmission.sol';\nimport './Ownable.sol';\n\n/// @title MatryxPlatform - The Matryx platform contract.\n/// @author Max Howard - <max@nanome.ai>, Sam Hessenauer - <sam@nanome.ai>\ncontract MatryxPlatform is MatryxOracleMessenger, IMatryxPlatform {\n  using SafeMath for uint256;\n  using SafeMath128 for uint128;\n\n  // TODO: condense and put in structs\n  address public matryxTokenAddress;\n  address matryxPeerFactoryAddress;\n  address matryxTournamentFactoryAddress;\n  address matryxSubmissionTrustLibAddress;\n  address matryxRoundLibAddress;\n\n  address[] public allTournaments;\n  bytes32 public hashOfTopCategory;\n  bytes32 public hashOfLastCategory;\n  mapping(uint256=>bytes32) public topCategoryByCount;\n  mapping(bytes32=>category) public categoryIterator;\n  string[] public categoryList;\n\n  mapping(address=>bool) peerExists;\n  mapping(address=>address) ownerToPeerAndPeerToOwner;\n  mapping(address=>mapping(address=>bool)) addressToOwnsSubmission;\n  mapping(address=>bool) tournamentExists;\n  mapping(address=>bool) submissionExists;\n\n  mapping(address=>address[]) entrantToTournamentArray;\n  mapping(address=>address[]) ownerToSubmissionArray;\n  mapping(address=>mapping(address=>uint256_optional))  ownerToSubmissionToSubmissionIndex;\n\n  uint256_optional submissionGratitude = uint256_optional({exists: true, value: 2*10**17});\n\n  function MatryxPlatform(address _matryxTokenAddress, address _matryxPeerFactoryAddress, address _matryxTournamentFactoryAddress, address _matryxSubmissionTrustLibAddress) public\n  {\n    matryxTokenAddress = _matryxTokenAddress;\n    matryxPeerFactoryAddress = _matryxPeerFactoryAddress;\n    matryxTournamentFactoryAddress = _matryxTournamentFactoryAddress;\n    matryxSubmissionTrustLibAddress = _matryxSubmissionTrustLibAddress;\n  }\n\n  /*\n   * Structs\n   */\n\n  struct uint256_optional\n  {\n    bool exists;\n    uint256 value;\n  }\n\n  struct category\n  {\n    uint128 count;\n    bytes32 prev;\n    bytes32 next;\n    address[] tournaments;\n  }\n\n  /*\n   * Events\n   */\n\n  event TournamentCreated(string _discipline, address _owner, address _tournamentAddress, string _tournamentName, bytes _externalAddress, uint256 _MTXReward, uint256 _entryFee);\n  event TournamentOpened(address _owner, address _tournamentAddress, string _tournamentName, bytes _externalAddress, uint256 _MTXReward, uint256 _entryFee);\n  event TournamentClosed(address _tournamentAddress, uint256 _finalRoundNumber, address _winningSubmissionAddress, uint256 _MTXReward);\n  event UserEnteredTournament(address _entrant, address _tournamentAddress);\n  event QueryID(string queryID);\n  /// @dev Allows tournaments to invoke tournamentOpened events on the platform.\n  /// @param _owner Owner of the tournament.\n  /// @param _tournamentAddress Address of the tournament.\n  /// @param _tournamentName Name of the tournament.\n  /// @param _externalAddress External address of the tournament.\n  /// @param _MTXReward Reward for winning the tournament.\n  /// @param _entryFee Fee for entering into the tournament.\n  function invokeTournamentOpenedEvent(address _owner, address _tournamentAddress, string _tournamentName, bytes _externalAddress, uint256 _MTXReward, uint256 _entryFee) public onlyTournament\n  {\n    TournamentOpened(_owner, _tournamentAddress, _tournamentName, _externalAddress, _MTXReward, _entryFee);\n  }\n\n  /// @dev Allows tournaments to invoke tournamentClosed events on the platform.\n  /// @param _tournamentAddress Address of the tournament.\n  /// @param _finalRoundNumber Index of the round containing the winning submission.\n  /// @param _winningSubmissionAddress Address of the winning submission.\n  function invokeTournamentClosedEvent(address _tournamentAddress, uint256 _finalRoundNumber, address _winningSubmissionAddress, uint256 _MTXReward) public onlyTournament\n  {\n    TournamentClosed(_tournamentAddress, _finalRoundNumber, _winningSubmissionAddress, _MTXReward);\n  }\n\n  /* \n   * Modifiers\n   */\n\n  modifier onlyTournament\n  {\n    require(tournamentExists[msg.sender]);\n    _;\n  }\n\n  modifier onlySubmission\n  {\n    require(submissionExists[msg.sender]);\n    _;\n  }\n\n  modifier onlyPeerLinked(address _sender)\n  {\n    require(hasPeer(_sender));\n    _;\n  }\n\n  /* \n   * MTX Balance Methods\n   */\n\n  /// @dev Prepares the user's MTX balance, allowing them to use the platform.\n  /// @param _toIgnore Request bytes (deprecated).\n  function prepareBalance(uint256 _toIgnore) public\n  {   \n      // Make sure that the user has not already attempted to prepare their balance\n      uint256 qID = fromQuerierToQueryID[msg.sender];\n      uint256 queryResponse = queryResponses[qID];\n      require(queryResponse == 0x0);\n\n      this.Query(bytes32(_toIgnore), msg.sender);\n  }\n\n  /// @dev Returns whether or not the user can use the platform.\n  /// @return Whether or not user has a positive balance.\n  function balanceIsNonZero() public view returns (bool)\n  {\n      uint balance = latestResponseFromOracle(msg.sender);\n      return balance != 0;\n  }\n\n  /// @dev Returns the user's balance\n  /// @return Sender's MTX balance.\n  function getBalance() public constant returns (uint256)\n  {\n      uint256 balance = latestResponseFromOracle(msg.sender);\n      return balance;\n  }\n\n  /*\n   * State Maintenance Methods\n   */\n\n  // @dev Sends out reference requests for a particular submission.\n  // @param _references Reference whose authors will be sent requests.\n  // @returns Whether or not all references were successfully sent a request.\n  function handleReferenceRequestsForSubmission(address _submissionAddress, address[] _references) public onlyTournament returns (bool) \n  {\n    for(uint256 i = 0; i < _references.length; i++)\n    {\n      address _referenceAddress = _references[i];\n\n      if(!isSubmission(_referenceAddress))\n      {\n        // TODO: Introduce uint error codes\n        // for returning things like \"Reference _ is not submission\"\n        continue;\n      }\n\n      IMatryxSubmission submission = IMatryxSubmission(_referenceAddress);\n      address author = submission.getAuthor();\n      IMatryxPeer(author).receiveReferenceRequest(_submissionAddress, _referenceAddress);\n      submission.receiveReferenceRequest();\n    }\n  }\n\n  // @dev Sends out a reference request for a submission (must be called by the submission).\n  // @param _reference Reference whose author will be sent a request.\n  // @returns Whether or not all references were successfully sent a request.\n  function handleReferenceRequestForSubmission(address _reference) public onlySubmission returns (bool)\n  {\n      require(isSubmission(_reference));\n      IMatryxSubmission submission = IMatryxSubmission(_reference);\n      address author = submission.getAuthor();\n      IMatryxPeer(author).receiveReferenceRequest(msg.sender, _reference);\n      submission.receiveReferenceRequest();\n  }\n\n  function handleCancelledReferenceRequestForSubmission(address _reference) public onlySubmission returns (bool)\n  {\n    require(isSubmission(_reference));\n    IMatryxSubmission submission = IMatryxSubmission(_reference);\n    address author = submission.getAuthor();\n    IMatryxPeer(author).receiveCancelledReferenceRequest(msg.sender, _reference);\n    submission.cancelReferenceRequest();\n  }\n\n  function updateUsersTournaments(address _owner, address _tournament) internal\n  {\n    entrantToTournamentArray[_owner].push(_tournament);\n  }\n\n  function updateSubmissions(address _owner, address _submission) public onlyTournament\n  {\n    ownerToSubmissionToSubmissionIndex[_owner][_submission] = uint256_optional({exists:true, value:ownerToSubmissionArray[_owner].length});\n    ownerToSubmissionArray[_owner].push(_submission);\n    addressToOwnsSubmission[_owner][_submission] = true;\n    submissionExists[_submission] = true;\n  }\n\n  function removeSubmission(address _submissionAddress, address _tournamentAddress) public returns (bool)\n  {\n    require(addressToOwnsSubmission[msg.sender][_submissionAddress]);\n    require(tournamentExists[_tournamentAddress]);\n    \n    if(submissionExists[_submissionAddress])\n    {\n      IMatryxSubmission submission = IMatryxSubmission(_submissionAddress);\n      address owner = Ownable(_submissionAddress).getOwner();\n      uint256 submissionIndex = ownerToSubmissionToSubmissionIndex[owner][_submissionAddress].value;\n\n      submissionExists[_submissionAddress] = false;\n      delete ownerToSubmissionArray[owner][submissionIndex];\n      delete ownerToSubmissionToSubmissionIndex[owner][_submissionAddress];\n\n      IMatryxTournament(_tournamentAddress).removeSubmission(_submissionAddress, owner);\n      return true;\n    }\n    \n    return false;\n  }\n\n  event someEvent(string _arg);\n  function addTournamentToCategory(address _tournamentAddress, string _category) internal\n  {\n    bytes32 hashOfCategory = keccak256(_category);\n    // If this is the first tournament in its category\n    if(categoryIterator[hashOfCategory].count == 0)\n    {\n      // Push the new category to a list of categories\n      categoryList.push(_category);\n\n      // If its the first category ever\n      if(hashOfTopCategory == 0x0)\n      {\n        // Update the top category pointer\n        hashOfTopCategory = hashOfCategory;\n        hashOfLastCategory = hashOfCategory;\n        // Create a new entry in the iterator for it and don't store previous or next pointers\n        categoryIterator[hashOfCategory] = category({count: 1, prev: 0, next: 0, tournaments: new address[](0)});\n        // Store the mapping from count 1 to this category\n        topCategoryByCount[1] = hashOfCategory;\n      }\n      else\n      {\n        // If this is not the first category ever,\n        // Create a new iterator entry, complete with a prev pointer to the previous last category\n        categoryIterator[hashOfCategory] = category({count: 1, prev: hashOfLastCategory, next: 0x0, tournaments: new address[](0)});\n        // Update that previous last category's next pointer (there's one more after it now)\n        categoryIterator[hashOfLastCategory].next = hashOfCategory;\n\n        if(topCategoryByCount[1] == 0x0)\n        {\n          topCategoryByCount[1] = hashOfCategory;\n        }\n      }\n\n      // Push to the tournaments list for this category\n      categoryIterator[hashOfCategory].tournaments.push(_tournamentAddress);\n      // Update the last category pointer\n      hashOfLastCategory = hashOfCategory;\n      return;\n    }\n\n    categoryIterator[hashOfCategory].tournaments.push(_tournamentAddress);\n\n    uint256 categoryCount = categoryIterator[hashOfCategory].count;\n    // If this category has the top relative count (category.prev.count > category.count):\n    //  If category.next exists, the top category for our previous count becomes category.next,\n    //  otherwise (category.next doesn't exist), the top category for our previous count\n    //  we set to 0x0.\n    if(topCategoryByCount[categoryIterator[hashOfCategory].count] == hashOfCategory)\n    {\n      if(categoryIterator[hashOfCategory].next != 0x0)\n      {\n        topCategoryByCount[categoryCount] = categoryIterator[hashOfCategory].next;\n      }\n      else\n      {\n        topCategoryByCount[categoryCount] = 0x0;\n      }\n    }\n\n    uint128 newCount = categoryIterator[hashOfCategory].count + 1;\n    categoryIterator[hashOfCategory].count = newCount;\n\n    // If the top category for our new count is not defined, \n    // define it as this category.\n    if(topCategoryByCount[newCount] == 0)\n    {\n      topCategoryByCount[newCount] = hashOfCategory;\n    }\n\n    // If the count of the category is now greater than the previous category\n    // swap it with the top category of its count.\n    if(categoryIterator[hashOfCategory].prev != 0x0)\n    {\n      if(categoryIterator[hashOfCategory].count > categoryIterator[categoryIterator[hashOfCategory].prev].count)\n      {\n        someEvent(\"what is happening\");\n        // define A as the top category of its count\n        bytes32 hashOfTopA = topCategoryByCount[categoryIterator[hashOfCategory].count-1];\n        if(hashOfTopA == hashOfTopCategory)\n        {\n          hashOfTopCategory = hashOfCategory;\n        }\n\n        if(hashOfCategory == hashOfLastCategory)\n        {\n          hashOfLastCategory = categoryIterator[hashOfCategory].prev;\n        }\n\n        category storage A = categoryIterator[hashOfTopA];\n        category storage B = categoryIterator[hashOfCategory];\n\n        bool adjacent = A.next == hashOfCategory;\n        bytes32 Bprev = B.prev;\n        bytes32 Anext = A.next;\n\n        A.next = B.next;\n        B.prev = A.prev;\n\n        if(A.prev != 0x0)\n        {\n          categoryIterator[A.prev].next = hashOfCategory;\n        }\n        if(B.next != 0x0)\n        {\n          categoryIterator[B.next].prev = hashOfTopA;\n        }\n        \n        if(adjacent)\n        {\n          A.prev = hashOfCategory;\n          B.next = hashOfTopA;\n        }\n        else\n        {\n          A.prev = Bprev;\n          B.next = Anext;\n          if(Bprev != 0x0)\n          {\n            categoryIterator[Bprev].next = hashOfTopA;\n          }\n          if(Anext != 0x0)\n          {\n            categoryIterator[Anext].prev = hashOfCategory;\n          } \n        }\n      }\n    }\n  }\n\n  function getTournamentsByCategory(string _category) external constant returns (address[])\n  {\n    return categoryIterator[keccak256(_category)].tournaments;\n  }\n\n  function getCategoryCount(string _category) external constant returns (uint256)\n  {\n    return categoryIterator[keccak256(_category)].count;\n  }\n\n  function switchTournamentCategory(string discipline) onlyTournament public\n  {\n    revert();\n  }\n\n  /* \n   * Tournament Entry Methods\n   */\n\n  /// @dev Enter the user into a tournament and charge the entry fee.\n  /// @param _tournamentAddress Address of the tournament to enter into.\n  /// @return _success Whether or not user was successfully entered into the tournament.\n  function enterTournament(address _tournamentAddress) public onlyPeerLinked(msg.sender) returns (bool _success)\n  {\n      // TODO: Consider scheme: \n      // submission owner: peer linked account\n      // submission author: peer\n      require(tournamentExists[_tournamentAddress]);\n\n      IMatryxTournament tournament = IMatryxTournament(_tournamentAddress);\n\n      bool success = tournament.enterUserInTournament(msg.sender);\n      if(success)\n      {\n        updateUsersTournaments(msg.sender, _tournamentAddress);\n        UserEnteredTournament(msg.sender, _tournamentAddress);\n      }\n\n      return success;\n  }\n\n  /* \n   * Tournament Admin Methods\n   */\n\n  /// @dev Create a new tournament.\n  /// @param _tournamentName Name of the new tournament.\n  /// @param _externalAddress Off-chain content hash of tournament details (ipfs hash)\n  /// @param _BountyMTX Total tournament reward in MTX.\n  /// @param _entryFee Fee to charge participant upon entering into tournament.\n  /// @return _tournamentAddress Address of the newly created tournament\n  function createTournament(string _category, string _tournamentName, bytes _externalAddress, uint256 _BountyMTX, uint256 _entryFee, uint256 _reviewPeriod) public onlyPeerLinked(msg.sender) returns (address _tournamentAddress)\n  {\n    IMatryxToken matryxToken = IMatryxToken(matryxTokenAddress);\n    // Check that the platform has a sufficient allowance to\n    // transfer the reward from the tournament creator to itself\n    require(matryxToken.allowance(msg.sender, this) >= _BountyMTX);\n\n    IMatryxTournamentFactory tournamentFactory = IMatryxTournamentFactory(matryxTournamentFactoryAddress);\n    address newTournament = tournamentFactory.createTournament(msg.sender, _tournamentName, _externalAddress, _BountyMTX, _entryFee, _reviewPeriod);\n    TournamentCreated(_category, msg.sender, newTournament, _tournamentName, _externalAddress, _BountyMTX, _entryFee);\n    \n    addTournamentToCategory(newTournament, _category);\n\n    // Transfer the MTX reward to the tournament.\n    bool transferSuccess = matryxToken.transferFrom(msg.sender, newTournament, _BountyMTX);\n    require(transferSuccess);\n    \n    // update data structures\n    allTournaments.push(newTournament);\n    tournamentExists[newTournament] = true;\n\n    return newTournament;\n  }\n\n  /*\n   * Access Control Methods\n   */\n\n  function createPeer() public returns (address)\n  {\n    require(ownerToPeerAndPeerToOwner[msg.sender] == 0x0);\n    IMatryxPeerFactory peerFactory = IMatryxPeerFactory(matryxPeerFactoryAddress);\n    address peer = peerFactory.createPeer(msg.sender);\n    peerExists[peer] = true;\n    ownerToPeerAndPeerToOwner[msg.sender] = peer;\n    ownerToPeerAndPeerToOwner[peer] = msg.sender;\n  }\n\n  function isPeer(address _peerAddress) public constant returns (bool)\n  {\n    return peerExists[_peerAddress];\n  }\n\n  // TODO: add constant\n  function hasPeer(address _sender) public constant returns (bool)\n  {\n    return (ownerToPeerAndPeerToOwner[_sender] != 0x0);\n  }\n\n  // TODO: add constant\n  function peerExistsAndOwnsSubmission(address _peer, address _reference) public constant returns (bool)\n  {\n    bool isAPeer = peerExists[_peer];\n    bool referenceIsSubmission = submissionExists[_reference];\n    bool peerOwnsSubmission = addressToOwnsSubmission[ownerToPeerAndPeerToOwner[_peer]][_reference];\n\n    return isAPeer && referenceIsSubmission && peerOwnsSubmission;\n  }\n\n  function peerAddress(address _sender) public constant returns (address)\n  {\n    return ownerToPeerAndPeerToOwner[_sender];\n  }\n\n  function isSubmission(address _submissionAddress) public constant returns (bool)\n  {\n    return submissionExists[_submissionAddress];\n  }\n\n  /// @dev Returns whether or not the given tournament belongs to the sender.\n  /// @param _tournamentAddress Address of the tournament to check.\n  /// @return _isMine Whether or not the tournament belongs to the sender.\n  function getTournament_IsMine(address _tournamentAddress) public constant returns (bool _isMine)\n  {\n    require(tournamentExists[_tournamentAddress]);\n    Ownable tournament = Ownable(_tournamentAddress);\n    return (tournament.getOwner() == msg.sender);\n  }\n\n  /*\n   * Setter Methods\n   */ \n\n    /// @dev              Set the relative amount of MTX to be delivered to a submission's\n    ///                   references\n    /// @param _gratitude Weight from 0 to 1 (18 decimal uint) specifying enforced submission \n    ///                   gratitude\n    function setSubmissionGratitude(uint256 _gratitude) public onlyOwner\n    {\n        assert(_gratitude >= 0 && _gratitude <= (1*10**18));\n        submissionGratitude = uint256_optional({exists: true, value: _gratitude});\n    }\n\n  /*\n   * Getter Methods\n   */\n\n   function getTokenAddress() public constant returns (address)\n   {\n      return matryxTokenAddress;\n   }\n\n   function getSubmissionTrustLibrary() public constant returns (address)\n   {\n      return matryxSubmissionTrustLibAddress;\n   }\n\n   function getRoundLibAddress() public constant returns (address)\n   {\n      return matryxRoundLibAddress;\n   }\n\n   /// @dev    Returns a weight from 0 to 1 (18 decimal uint) indicating\n   ///         how much of a submission's reward goes to its references.\n   /// @return Relative amount of MTX going to references of submissions under this tournament.\n   function getSubmissionGratitude() public constant returns (uint256)\n   {\n      require(submissionGratitude.exists);\n      return submissionGratitude.value;\n   }\n\n   /// @dev Returns addresses for submissions the sender has created.\n   /// @return Address array representing submissions.\n   function myTournaments() public constant returns (address[])\n   {\n      return entrantToTournamentArray[msg.sender];\n   }\n\n   function mySubmissions() public constant returns (address[])\n   {\n    return ownerToSubmissionArray[msg.sender];\n   }\n\n   /// @dev Returns the total number of tournaments\n   /// @return _tournamentCount Total number of tournaments.\n   function tournamentCount() public constant returns (uint256 _tournamentCount)\n   {\n       return allTournaments.length;\n   }\n \n   function getTournamentAtIndex(uint256 _index) public constant returns (address _tournamentAddress)\n   {\n     require(_index >= 0);\n     require(_index < allTournaments.length);\n     return allTournaments[_index];\n   }\n}",
  "sourcePath": "/Users/maxhoward/Desktop/Ethereum/Development/Matryx AWS/Projects/matryx-alpha-source/contracts/MatryxPlatform.sol",
  "compiler": {
    "name": "solc",
    "version": "0.4.19+commit.c4cbbb05.Emscripten.clang"
  },
  "schemaVersion": "2.0.0",
  "updatedAt": "2018-03-29T04:20:51.227Z"
}