{
  "contractName": "MatryxSubmission",
  "abi": [
    {
      "constant": true,
      "inputs": [
        {
          "name": "_sender",
          "type": "address"
        }
      ],
      "name": "isOwner",
      "outputs": [
        {
          "name": "_isOwner",
          "type": "bool"
        }
      ],
      "payable": false,
      "stateMutability": "view",
      "type": "function"
    },
    {
      "constant": true,
      "inputs": [],
      "name": "getOwner",
      "outputs": [
        {
          "name": "_owner",
          "type": "address"
        }
      ],
      "payable": false,
      "stateMutability": "view",
      "type": "function"
    },
    {
      "constant": true,
      "inputs": [],
      "name": "owner",
      "outputs": [
        {
          "name": "",
          "type": "address"
        }
      ],
      "payable": false,
      "stateMutability": "view",
      "type": "function"
    },
    {
      "constant": false,
      "inputs": [
        {
          "name": "newOwner",
          "type": "address"
        }
      ],
      "name": "transferOwnership",
      "outputs": [],
      "payable": false,
      "stateMutability": "nonpayable",
      "type": "function"
    },
    {
      "inputs": [
        {
          "name": "_owner",
          "type": "address"
        },
        {
          "name": "_platformAddress",
          "type": "address"
        },
        {
          "name": "_tournamentAddress",
          "type": "address"
        },
        {
          "name": "_roundAddress",
          "type": "address"
        },
        {
          "components": [
            {
              "name": "title",
              "type": "bytes32[3]"
            },
            {
              "name": "descriptionHash",
              "type": "bytes32[2]"
            },
            {
              "name": "fileHash",
              "type": "bytes32[2]"
            },
            {
              "name": "timeSubmitted",
              "type": "uint256"
            },
            {
              "name": "timeUpdated",
              "type": "uint256"
            }
          ],
          "name": "_submissionData",
          "type": "tuple"
        }
      ],
      "payable": false,
      "stateMutability": "nonpayable",
      "type": "constructor"
    },
    {
      "constant": true,
      "inputs": [],
      "name": "getTournament",
      "outputs": [
        {
          "name": "",
          "type": "address"
        }
      ],
      "payable": false,
      "stateMutability": "view",
      "type": "function"
    },
    {
      "constant": true,
      "inputs": [],
      "name": "getRound",
      "outputs": [
        {
          "name": "",
          "type": "address"
        }
      ],
      "payable": false,
      "stateMutability": "view",
      "type": "function"
    },
    {
      "constant": true,
      "inputs": [
        {
          "name": "_requester",
          "type": "address"
        }
      ],
      "name": "isAccessible",
      "outputs": [
        {
          "name": "",
          "type": "bool"
        }
      ],
      "payable": false,
      "stateMutability": "view",
      "type": "function"
    },
    {
      "constant": true,
      "inputs": [],
      "name": "getData",
      "outputs": [
        {
          "components": [
            {
              "name": "title",
              "type": "bytes32[3]"
            },
            {
              "name": "descriptionHash",
              "type": "bytes32[2]"
            },
            {
              "name": "fileHash",
              "type": "bytes32[2]"
            },
            {
              "name": "timeSubmitted",
              "type": "uint256"
            },
            {
              "name": "timeUpdated",
              "type": "uint256"
            }
          ],
          "name": "_data",
          "type": "tuple"
        }
      ],
      "payable": false,
      "stateMutability": "view",
      "type": "function"
    },
    {
      "constant": true,
      "inputs": [],
      "name": "getTitle",
      "outputs": [
        {
          "name": "",
          "type": "bytes32[3]"
        }
      ],
      "payable": false,
      "stateMutability": "view",
      "type": "function"
    },
    {
      "constant": true,
      "inputs": [],
      "name": "getAuthor",
      "outputs": [
        {
          "name": "",
          "type": "address"
        }
      ],
      "payable": false,
      "stateMutability": "view",
      "type": "function"
    },
    {
      "constant": true,
      "inputs": [],
      "name": "getDescriptionHash",
      "outputs": [
        {
          "name": "",
          "type": "bytes32[2]"
        }
      ],
      "payable": false,
      "stateMutability": "view",
      "type": "function"
    },
    {
      "constant": true,
      "inputs": [],
      "name": "getFileHash",
      "outputs": [
        {
          "name": "",
          "type": "bytes32[2]"
        }
      ],
      "payable": false,
      "stateMutability": "view",
      "type": "function"
    },
    {
      "constant": true,
      "inputs": [],
      "name": "getPermittedDownloaders",
      "outputs": [
        {
          "name": "",
          "type": "address[]"
        }
      ],
      "payable": false,
      "stateMutability": "view",
      "type": "function"
    },
    {
      "constant": true,
      "inputs": [],
      "name": "getReferences",
      "outputs": [
        {
          "name": "",
          "type": "address[]"
        }
      ],
      "payable": false,
      "stateMutability": "view",
      "type": "function"
    },
    {
      "constant": true,
      "inputs": [],
      "name": "getContributors",
      "outputs": [
        {
          "name": "",
          "type": "address[]"
        }
      ],
      "payable": false,
      "stateMutability": "view",
      "type": "function"
    },
    {
      "constant": true,
      "inputs": [],
      "name": "getContributorRewardDistribution",
      "outputs": [
        {
          "name": "",
          "type": "uint256[]"
        }
      ],
      "payable": false,
      "stateMutability": "view",
      "type": "function"
    },
    {
      "constant": true,
      "inputs": [],
      "name": "getTimeSubmitted",
      "outputs": [
        {
          "name": "",
          "type": "uint256"
        }
      ],
      "payable": false,
      "stateMutability": "view",
      "type": "function"
    },
    {
      "constant": true,
      "inputs": [],
      "name": "getTimeUpdated",
      "outputs": [
        {
          "name": "",
          "type": "uint256"
        }
      ],
      "payable": false,
      "stateMutability": "view",
      "type": "function"
    },
    {
      "constant": true,
      "inputs": [],
      "name": "getTotalWinnings",
      "outputs": [
        {
          "name": "",
          "type": "uint256"
        }
      ],
      "payable": false,
      "stateMutability": "view",
      "type": "function"
    },
    {
      "constant": false,
      "inputs": [],
      "name": "unlockFile",
      "outputs": [],
      "payable": false,
      "stateMutability": "nonpayable",
      "type": "function"
    },
    {
      "constant": false,
      "inputs": [
        {
          "components": [
            {
              "name": "title",
              "type": "bytes32[3]"
            },
            {
              "name": "descriptionHash",
              "type": "bytes32[2]"
            },
            {
              "name": "fileHash",
              "type": "bytes32[2]"
            }
          ],
          "name": "_modificationData",
          "type": "tuple"
        }
      ],
      "name": "updateData",
      "outputs": [],
      "payable": false,
      "stateMutability": "nonpayable",
      "type": "function"
    },
    {
      "constant": false,
      "inputs": [
        {
          "components": [
            {
              "name": "contributorsToAdd",
              "type": "address[]"
            },
            {
              "name": "contributorRewardDistribution",
              "type": "uint256[]"
            },
            {
              "name": "contributorsToRemove",
              "type": "uint256[]"
            }
          ],
          "name": "_contributorsModificationData",
          "type": "tuple"
        }
      ],
      "name": "updateContributors",
      "outputs": [],
      "payable": false,
      "stateMutability": "nonpayable",
      "type": "function"
    },
    {
      "constant": false,
      "inputs": [
        {
          "components": [
            {
              "name": "referencesToAdd",
              "type": "address[]"
            },
            {
              "name": "referencesToRemove",
              "type": "uint256[]"
            }
          ],
          "name": "_referencesModificationData",
          "type": "tuple"
        }
      ],
      "name": "updateReferences",
      "outputs": [],
      "payable": false,
      "stateMutability": "nonpayable",
      "type": "function"
    },
    {
      "constant": false,
      "inputs": [
        {
          "name": "_amount",
          "type": "uint256"
        }
      ],
      "name": "addToWinnings",
      "outputs": [],
      "payable": false,
      "stateMutability": "nonpayable",
      "type": "function"
    },
    {
      "constant": false,
      "inputs": [
        {
          "name": "_reference",
          "type": "address"
        }
      ],
      "name": "flagMissingReference",
      "outputs": [],
      "payable": false,
      "stateMutability": "nonpayable",
      "type": "function"
    },
    {
      "constant": false,
      "inputs": [
        {
          "name": "_reference",
          "type": "address"
        }
      ],
      "name": "removeMissingReferenceFlag",
      "outputs": [],
      "payable": false,
      "stateMutability": "nonpayable",
      "type": "function"
    },
    {
      "constant": false,
      "inputs": [
        {
          "components": [
            {
              "name": "contributors",
              "type": "address[]"
            },
            {
              "name": "contributorRewardDistribution",
              "type": "uint256[]"
            },
            {
              "name": "references",
              "type": "address[]"
            }
          ],
          "name": "_contribsAndRefs",
          "type": "tuple"
        }
      ],
      "name": "setContributorsAndReferences",
      "outputs": [],
      "payable": false,
      "stateMutability": "nonpayable",
      "type": "function"
    },
    {
      "constant": true,
      "inputs": [],
      "name": "getBalance",
      "outputs": [
        {
          "name": "",
          "type": "uint256"
        }
      ],
      "payable": false,
      "stateMutability": "view",
      "type": "function"
    },
    {
      "constant": false,
      "inputs": [],
      "name": "withdrawReward",
      "outputs": [],
      "payable": false,
      "stateMutability": "nonpayable",
      "type": "function"
    },
    {
      "constant": true,
      "inputs": [],
      "name": "myReward",
      "outputs": [
        {
          "name": "",
          "type": "uint256"
        }
      ],
      "payable": false,
      "stateMutability": "view",
      "type": "function"
    }
  ],
  "bytecode": "0x6080604052670de0b6b3a76400006022553480156200001d57600080fd5b506040516101a08062002fbd833981018060405262000040919081019062000493565b6000805433600160a060020a0319918216178255600280548216600160a060020a03888116919091179091556003805483168783161781556004805490931691861691909117909155825183916005916200009e918391906200023a565b506020820151620000b690600383019060026200027f565b506040820151620000ce90600583019060026200027f565b506060820151600782015560809091015160089091015560018054600160a060020a03808916600160a060020a03199283168117845542600c819055600d55600081815260208080526040808320805460ff191688179055602180549788018155835260008051602062002f9d833981519152909601805490951690921790935560035484517f893d20e8000000000000000000000000000000000000000000000000000000008152945192169363893d20e893600480830194928390030190829087803b158015620001a057600080fd5b505af1158015620001b5573d6000803e3d6000fd5b505050506040513d601f19601f82011682018060405250620001db91908101906200046a565b600160a060020a031660008181526020805260408120805460ff1916600190811790915560218054918201815590915260008051602062002f9d833981519152018054600160a060020a03191690911790555062000565945050505050565b82600381019282156200026d579160200282015b828111156200026d57825182556020909201916001909101906200024e565b506200027b929150620002b1565b5090565b82600281019282156200026d57916020028201828111156200026d57825182556020909201916001909101906200024e565b620002ce91905b808211156200027b5760008155600101620002b8565b90565b6000620002df825162000559565b9392505050565b6000601f82018313620002f857600080fd5b60026200030f62000309826200053b565b62000514565b915081838560208402820111156200032657600080fd5b60005b838110156200035657816200033f8882620003ca565b845250602092830192919091019060010162000329565b5050505092915050565b6000601f820183136200037257600080fd5b60036200038362000309826200053b565b915081838560208402820111156200039a57600080fd5b60005b83811015620003565781620003b38882620003ca565b84525060209283019291909101906001016200039d565b6000620002df8251620002ce565b60006101208284031215620003ec57600080fd5b620003f860a062000514565b9050600062000408848462000360565b82525060606200041b84848301620002e6565b60208301525060a06200043184828501620002e6565b60408301525060e06200044784828501620003ca565b6060830152506101006200045e84828501620003ca565b60808301525092915050565b6000602082840312156200047d57600080fd5b60006200048b8484620002d1565b949350505050565b60008060008060006101a08688031215620004ad57600080fd5b6000620004bb8888620002d1565b9550506020620004ce88828901620002d1565b9450506040620004e188828901620002d1565b9350506060620004f488828901620002d1565b92505060806200050788828901620003d8565b9150509295509295909350565b6040518181016001604060020a03811182821017156200053357600080fd5b604052919050565b60006001604060020a038211156200055257600080fd5b5060200290565b600160a060020a031690565b612a2880620005756000396000f30060806040526004361061017f5763ffffffff7c010000000000000000000000000000000000000000000000000000000060003504166309b542bb81146101845780630a181f52146101a65780630cbfdb2d146101c657806312065fe0146101e657806314889e9914610211578063245edf06146102335780632f54bf6e1461025557806332c9c9d3146102825780633bc5de30146102a257806342849570146102c457806349ca4d7f146102d95780635de8439f146102f95780637a6337fa146103195780638493f71f1461032e578063893d20e8146103435780638da5cb5b146103655780638efa54101461037a57806393d1e7121461038f5780639b057610146103af5780639f8743f7146103c4578063a52dd12f146103d9578063a5faa125146103f9578063ae1ca6921461040e578063af157c1914610423578063b09103d814610438578063c885bc581461044d578063e76c293e14610462578063f23e1cb414610477578063f2fde38b14610499578063ff3c1a8f146104b9575b600080fd5b34801561019057600080fd5b506101a461019f366004612275565b6104db565b005b3480156101b257600080fd5b506101a46101c13660046121b8565b6105c7565b3480156101d257600080fd5b506101a46101e1366004612156565b61067a565b3480156101f257600080fd5b506101fb610780565b6040516102089190612938565b60405180910390f35b34801561021d57600080fd5b50610226610832565b60405161020891906127d5565b34801561023f57600080fd5b506102486108a4565b60405161020891906127e6565b34801561026157600080fd5b50610275610270366004612156565b6108f6565b6040516102089190612813565b34801561028e57600080fd5b506101a461029d366004612156565b610917565b3480156102ae57600080fd5b506102b7610a1d565b60405161020891906128ab565b3480156102d057600080fd5b506101fb610b3b565b3480156102e557600080fd5b506101a46102f43660046121ed565b610c85565b34801561030557600080fd5b506101a4610314366004612257565b610db3565b34801561032557600080fd5b50610226610ed8565b34801561033a57600080fd5b50610248610f59565b34801561034f57600080fd5b50610358610fc1565b6040516102089190612712565b34801561037157600080fd5b50610358610fdd565b34801561038657600080fd5b506101fb610ff9565b34801561039b57600080fd5b506101a46103aa366004612222565b610fff565b3480156103bb57600080fd5b506101fb611144565b3480156103d057600080fd5b5061035861114a565b3480156103e557600080fd5b506102756103f4366004612156565b611166565b34801561040557600080fd5b50610358611733565b34801561041a57600080fd5b506101fb6117f6565b34801561042f57600080fd5b506102266117fc565b34801561044457600080fd5b506101a461187c565b34801561045957600080fd5b506101a4611a71565b34801561046e57600080fd5b50610358611b75565b34801561048357600080fd5b5061048c611b91565b6040516102089190612802565b3480156104a557600080fd5b506101a46104b4366004612156565b611c00565b3480156104c557600080fd5b506104ce611c8d565b60405161020891906127f4565b60045473ffffffffffffffffffffffffffffffffffffffff163314806105a35750600480546040517fb6a3497500000000000000000000000000000000000000000000000000000000815273ffffffffffffffffffffffffffffffffffffffff9091169163b6a349759161055191339101612712565b602060405180830381600087803b15801561056b57600080fd5b505af115801561057f573d6000803e3d6000fd5b505050506040513d601f19601f820116820180604052506105a3919081019061219a565b15156105ae57600080fd5b6011546105c1908263ffffffff611cd916565b60115550565b60035473ffffffffffffffffffffffffffffffffffffffff1633146105eb57600080fd5b6040517f15392d2f00000000000000000000000000000000000000000000000000000000815273__LibSubmission_________________________906315392d2f9061064790600e906011906016906020908890600401612864565b60006040518083038186803b15801561065f57600080fd5b505af4158015610673573d6000803e3d6000fd5b5050505050565b6002546040517f3e44cf7800000000000000000000000000000000000000000000000000000000815273ffffffffffffffffffffffffffffffffffffffff90911690633e44cf78906106d0903390600401612712565b602060405180830381600087803b1580156106ea57600080fd5b505af11580156106fe573d6000803e3d6000fd5b505050506040513d601f19601f82011682018060405250610722919081019061219a565b151561072d57600080fd5b6040517fb0bba0ff00000000000000000000000000000000000000000000000000000000815273__LibSubmissionTrust____________________9063b0bba0ff9061064790601690859060040161291d565b600480546040517ff8b2cb4f00000000000000000000000000000000000000000000000000000000815260009273ffffffffffffffffffffffffffffffffffffffff90921691829163f8b2cb4f916107da91309101612821565b602060405180830381600087803b1580156107f457600080fd5b505af1158015610808573d6000803e3d6000fd5b505050506040513d601f19601f8201168201806040525061082c9190810190612293565b91505090565b6060602060010180548060200260200160405190810160405280929190818152602001828054801561089a57602002820191906000526020600020905b815473ffffffffffffffffffffffffffffffffffffffff16815260019091019060200180831161086f575b5050505050905090565b6108ac611cef565b336108b681611166565b15156108c157600080fd5b60408051808201918290529060089060029082845b815481526001909101906020018083116108d6575b505050505091505090565b60005473ffffffffffffffffffffffffffffffffffffffff91821691161490565b6002546040517f3e44cf7800000000000000000000000000000000000000000000000000000000815273ffffffffffffffffffffffffffffffffffffffff90911690633e44cf789061096d903390600401612712565b602060405180830381600087803b15801561098757600080fd5b505af115801561099b573d6000803e3d6000fd5b505050506040513d601f19601f820116820180604052506109bf919081019061219a565b15156109ca57600080fd5b6040517f35974e8f00000000000000000000000000000000000000000000000000000000815273__LibSubmissionTrust____________________906335974e8f9061064790601690859060040161291d565b610a25611d0a565b610a2d611d0a565b33610a3781611166565b1515610a4257600080fd5b60408051610100810190915260058160a081018260038282826020028201915b81548152600190910190602001808311610a62575050509183525050604080518082019182905260209092019190600384019060029082845b81548152600190910190602001808311610a9b575050509183525050604080518082019182905260209092019190600584019060029082845b81548152600190910190602001808311610ad4575050509183525050600782015460208083019190915260089092015460409182015233600090815291805290205490925060ff161515610b35576040820180516000908190529051602001525b50919050565b6002546040517f223c8136000000000000000000000000000000000000000000000000000000008152600091829173__LibSubmission_________________________9163223c813691610bae9173ffffffffffffffffffffffffffffffffffffffff169060119060169060040161275b565b60206040518083038186803b158015610bc657600080fd5b505af4158015610bda573d6000803e3d6000fd5b505050506040513d601f19601f82011682018060405250610bfe9190810190612293565b6040517fbf1053e200000000000000000000000000000000000000000000000000000000815290915073__LibSubmission_________________________9063bf1053e290610c5990600e906011903390879060040161282f565b60206040518083038186803b158015610c7157600080fd5b505af4158015610808573d6000803e3d6000fd5b60005473ffffffffffffffffffffffffffffffffffffffff163314610ca957600080fd5b600260048054604080517f1865c57d000000000000000000000000000000000000000000000000000000008152905173ffffffffffffffffffffffffffffffffffffffff90921692631865c57d9282820192602092908290030181600087803b158015610d1557600080fd5b505af1158015610d29573d6000803e3d6000fd5b505050506040513d601f19601f82011682018060405250610d4d9190810190612293565b14610d5757600080fd5b6040517f852972b200000000000000000000000000000000000000000000000000000000815273__LibSubmission_________________________9063852972b29061064790600590600e9060119060209088906004016128ba565b60005473ffffffffffffffffffffffffffffffffffffffff163314610dd757600080fd5b600260048054604080517f1865c57d000000000000000000000000000000000000000000000000000000008152905173ffffffffffffffffffffffffffffffffffffffff90921692631865c57d9282820192602092908290030181600087803b158015610e4357600080fd5b505af1158015610e57573d6000803e3d6000fd5b505050506040513d601f19601f82011682018060405250610e7b9190810190612293565b14610e8557600080fd5b6040517f92ee139000000000000000000000000000000000000000000000000000000000815273__LibSubmission_________________________906392ee139090610647906005908590600401612901565b606033610ee481611166565b1515610eef57600080fd5b60108054604080516020808402820181019092528281529291908301828280156108eb57602002820191906000526020600020905b815473ffffffffffffffffffffffffffffffffffffffff168152600190910190602001808311610f2457505050505091505090565b610f61611cef565b33610f6b81611166565b1515610f7657600080fd5b33600090815260208052604090205460ff161515610f9357600080fd5b6040805180820191829052600a805482529091600290600b602085018083116108d657505050505091505090565b60005473ffffffffffffffffffffffffffffffffffffffff1690565b60005473ffffffffffffffffffffffffffffffffffffffff1681565b600d5490565b60005473ffffffffffffffffffffffffffffffffffffffff16331461102357600080fd5b600260048054604080517f1865c57d000000000000000000000000000000000000000000000000000000008152905173ffffffffffffffffffffffffffffffffffffffff90921692631865c57d9282820192602092908290030181600087803b15801561108f57600080fd5b505af11580156110a3573d6000803e3d6000fd5b505050506040513d601f19601f820116820180604052506110c79190810190612293565b146110d157600080fd5b6002546040517f2612f55c00000000000000000000000000000000000000000000000000000000815273__LibSubmission_________________________91632612f55c916106479173ffffffffffffffffffffffffffffffffffffffff1690600590600e906016908890600401612783565b60115490565b60045473ffffffffffffffffffffffffffffffffffffffff1690565b60048054600354604080517f2fc1f190000000000000000000000000000000000000000000000000000000008152905160009473ffffffffffffffffffffffffffffffffffffffff94851694909316928592839283928392839283928392839283928c92632fc1f190928183019260209282900301818787803b1580156111ec57600080fd5b505af1158015611200573d6000803e3d6000fd5b505050506040513d601f19601f82011682018060405250611224919081019061217c565b73ffffffffffffffffffffffffffffffffffffffff168d73ffffffffffffffffffffffffffffffffffffffff16149850600460009054906101000a900473ffffffffffffffffffffffffffffffffffffffff1673ffffffffffffffffffffffffffffffffffffffff168d73ffffffffffffffffffffffffffffffffffffffff16149750600160009054906101000a900473ffffffffffffffffffffffffffffffffffffffff1673ffffffffffffffffffffffffffffffffffffffff168d73ffffffffffffffffffffffffffffffffffffffff161496506003600681111561130757fe5b60048054604080517f1865c57d000000000000000000000000000000000000000000000000000000008152905173ffffffffffffffffffffffffffffffffffffffff90921692631865c57d9282820192602092908290030181600087803b15801561137157600080fd5b505af1158015611385573d6000803e3d6000fd5b505050506040513d601f19601f820116820180604052506113a99190810190612293565b10159550600360009054906101000a900473ffffffffffffffffffffffffffffffffffffffff1673ffffffffffffffffffffffffffffffffffffffff166352c01fab8e6040518263ffffffff167c01000000000000000000000000000000000000000000000000000000000281526004016114249190612712565b602060405180830381600087803b15801561143e57600080fd5b505af1158015611452573d6000803e3d6000fd5b505050506040513d601f19601f82011682018060405250611476919081019061219a565b94508c73ffffffffffffffffffffffffffffffffffffffff168a73ffffffffffffffffffffffffffffffffffffffff1663893d20e86040518163ffffffff167c0100000000000000000000000000000000000000000000000000000000028152600401602060405180830381600087803b1580156114f357600080fd5b505af1158015611507573d6000803e3d6000fd5b505050506040513d601f19601f8201168201806040525061152b919081019061217c565b73ffffffffffffffffffffffffffffffffffffffff16149350858015611555575083806115555750845b9250600560048054604080517f1865c57d000000000000000000000000000000000000000000000000000000008152905173ffffffffffffffffffffffffffffffffffffffff90921692631865c57d9282820192602092908290030181600087803b1580156115c357600080fd5b505af11580156115d7573d6000803e3d6000fd5b505050506040513d601f19601f820116820180604052506115fb9190810190612293565b73ffffffffffffffffffffffffffffffffffffffff8f166000908152602080526040902054911115925060ff16905088806116335750875b8061163b5750865b806116435750825b806117125750600260009054906101000a900473ffffffffffffffffffffffffffffffffffffffff1673ffffffffffffffffffffffffffffffffffffffff1663818b5fa88e6040518263ffffffff167c01000000000000000000000000000000000000000000000000000000000281526004016116c09190612712565b602060405180830381600087803b1580156116da57600080fd5b505af11580156116ee573d6000803e3d6000fd5b505050506040513d601f19601f82011682018060405250611712919081019061219a565b8061171a5750815b806117225750805b9d9c50505050505050505050505050565b60003361173f81611166565b151561174a57600080fd5b6002546001546040517f6a44e43d00000000000000000000000000000000000000000000000000000000815273ffffffffffffffffffffffffffffffffffffffff92831692636a44e43d926117a492911690600401612712565b602060405180830381600087803b1580156117be57600080fd5b505af11580156117d2573d6000803e3d6000fd5b505050506040513d601f19601f8201168201806040525061082c919081019061217c565b600c5490565b60603361180881611166565b151561181357600080fd5b600e8054604080516020808402820181019092528281529291908301828280156108eb5760200282019190600052602060002090815473ffffffffffffffffffffffffffffffffffffffff168152600190910190602001808311610f2457505050505091505090565b6002546040517f532311c400000000000000000000000000000000000000000000000000000000815273ffffffffffffffffffffffffffffffffffffffff9091169063532311c4906118d2903390600401612712565b602060405180830381600087803b1580156118ec57600080fd5b505af1158015611900573d6000803e3d6000fd5b505050506040513d601f19601f82011682018060405250611924919081019061219a565b151561192f57600080fd5b600360048054604080517f1865c57d000000000000000000000000000000000000000000000000000000008152905173ffffffffffffffffffffffffffffffffffffffff90921692631865c57d9282820192602092908290030181600087803b15801561199b57600080fd5b505af11580156119af573d6000803e3d6000fd5b505050506040513d601f19601f820116820180604052506119d39190810190612293565b10156119de57600080fd5b336000818152602080526040812080547fffffffffffffffffffffffffffffffffffffffffffffffffffffffffffffff001660019081179091556021805491820181559091527f3a6357012c1a3ae0a17d304c9920310382d968ebcc4b1771f41c6b304205b5700180547fffffffffffffffffffffffff0000000000000000000000000000000000000000169091179055565b60015473ffffffffffffffffffffffffffffffffffffffff16331480611aa557503360009081526014602052604090205415155b80611ac7575060045473ffffffffffffffffffffffffffffffffffffffff1633145b1515611ad257600080fd5b6002546040517f36b39c0800000000000000000000000000000000000000000000000000000000815273__LibSubmission_________________________916336b39c0891611b439173ffffffffffffffffffffffffffffffffffffffff1690600e90601190601690600401612726565b60006040518083038186803b158015611b5b57600080fd5b505af4158015611b6f573d6000803e3d6000fd5b50505050565b60035473ffffffffffffffffffffffffffffffffffffffff1690565b606033611b9d81611166565b1515611ba857600080fd5b604051600e5460208252806020830152600e6000526020600020600360110160205260005b82811015611bf557818101546000908152604090205460028201602002850152600101611bcd565b506020600283010283f35b60005473ffffffffffffffffffffffffffffffffffffffff163314611c2457600080fd5b73ffffffffffffffffffffffffffffffffffffffff81161515611c4657600080fd5b600080547fffffffffffffffffffffffff00000000000000000000000000000000000000001673ffffffffffffffffffffffffffffffffffffffff92909216919091179055565b611c95611d4d565b33611c9f81611166565b1515611caa57600080fd5b60408051606081019182905260058054825290916003906006602085018083116108d657505050505091505090565b600082820183811015611ce857fe5b9392505050565b60408051808201825290600290829080388339509192915050565b61012060405190810160405280611d1f611d4d565b8152602001611d2c611cef565b8152602001611d39611cef565b815260200160008152602001600081525090565b6060604051908101604052806003906020820280388339509192915050565b6000611ce882356129c5565b6000611ce882516129c5565b6000601f82018313611d9557600080fd5b8135611da8611da38261296d565b612946565b91508181835260208401935060208101905083856020840282011115611dcd57600080fd5b60005b83811015611df95781611de38882611d6c565b8452506020928301929190910190600101611dd0565b5050505092915050565b6000601f82018313611e1457600080fd5b6002611e22611da38261298e565b91508183856020840282011115611e3857600080fd5b60005b83811015611df95781611e4e8882611f41565b8452506020928301929190910190600101611e3b565b6000601f82018313611e7557600080fd5b6003611e83611da38261298e565b91508183856020840282011115611e9957600080fd5b60005b83811015611df95781611eaf8882611f41565b8452506020928301929190910190600101611e9c565b6000601f82018313611ed657600080fd5b8135611ee4611da38261296d565b91508181835260208401935060208101905083856020840282011115611f0957600080fd5b60005b83811015611df95781611f1f8882611f41565b8452506020928301929190910190600101611f0c565b6000611ce882516129de565b6000611ce882356129b2565b600060608284031215611f5f57600080fd5b611f696060612946565b9050813567ffffffffffffffff811115611f8257600080fd5b611f8e84828501611d84565b825250602082013567ffffffffffffffff811115611fab57600080fd5b611fb784828501611ec5565b602083015250604082013567ffffffffffffffff811115611fd757600080fd5b611fe384828501611d84565b60408301525092915050565b60006060828403121561200157600080fd5b61200b6060612946565b9050813567ffffffffffffffff81111561202457600080fd5b61203084828501611d84565b825250602082013567ffffffffffffffff81111561204d57600080fd5b61205984828501611ec5565b602083015250604082013567ffffffffffffffff81111561207957600080fd5b611fe384828501611ec5565b60006040828403121561209757600080fd5b6120a16040612946565b9050813567ffffffffffffffff8111156120ba57600080fd5b6120c684828501611d84565b825250602082013567ffffffffffffffff8111156120e357600080fd5b6120ef84828501611ec5565b60208301525092915050565b600060e0828403121561210d57600080fd5b6121176060612946565b905060006121258484611e64565b825250606061213684848301611e03565b60208301525060a0611fe384828501611e03565b6000611ce882516129b2565b60006020828403121561216857600080fd5b60006121748484611d6c565b949350505050565b60006020828403121561218e57600080fd5b60006121748484611d78565b6000602082840312156121ac57600080fd5b60006121748484611f35565b6000602082840312156121ca57600080fd5b813567ffffffffffffffff8111156121e157600080fd5b61217484828501611f4d565b6000602082840312156121ff57600080fd5b813567ffffffffffffffff81111561221657600080fd5b61217484828501611fef565b60006020828403121561223457600080fd5b813567ffffffffffffffff81111561224b57600080fd5b61217484828501612085565b600060e0828403121561226957600080fd5b600061217484846120fb565b60006020828403121561228757600080fd5b60006121748484611f41565b6000602082840312156122a557600080fd5b6000612174848461214a565b6122ba816129c5565b82525050565b60006122cb826129b5565b8084526020840193506122dd836129ac565b60005b8281101561230d576122f38683516122b1565b6122fc826129ac565b6020969096019591506001016122e0565b5093949350505050565b6000612322826129b5565b808452602084019350612334836129ac565b60005b8281101561230d5761234a8683516122b1565b612353826129ac565b602096909601959150600101612337565b61236d816129b9565b612376826129b2565b60005b828110156106735761238c858351612593565b612395826129ac565b602095909501949150600101612379565b6123af816129b9565b6123b8826129b2565b60005b82811015610673576123ce858351612593565b6123d7826129ac565b6020959095019491506001016123bb565b6123f1816129b9565b6123fa826129b2565b60005b8281101561067357612410858351612593565b612419826129ac565b6020959095019491506001016123fd565b612433816129bf565b61243c826129b2565b60005b8281101561067357612452858351612593565b61245b826129ac565b60209590950194915060010161243f565b612475816129bf565b61247e826129b2565b60005b8281101561067357612494858351612593565b61249d826129ac565b602095909501949150600101612481565b6124b7816129bf565b6124c0826129b2565b60005b82811015610673576124d6858351612593565b6124df826129ac565b6020959095019491506001016124c3565b60006124fb826129b5565b80845260208401935061250d836129ac565b60005b8281101561230d57612523868351612593565b61252c826129ac565b602096909601959150600101612510565b6000612548826129b5565b80845260208401935061255a836129ac565b60005b8281101561230d57612570868351612593565b612579826129ac565b60209690960195915060010161255d565b6122ba816129de565b6122ba816129b2565b6122ba816129e3565b80516060808452600091908401906125bd8282612317565b915050602083015184820360208601526125d7828261253d565b915050604083015184820360408601526125f18282612317565b95945050505050565b9052565b80516060808452600091908401906126168282612317565b91505060208301518482036020860152612630828261253d565b915050604083015184820360408601526125f1828261253d565b80516040808452600091908401906126628282612317565b915050602083015184820360208601526125f1828261253d565b805161012083019061268e848261246c565b5060208201516126a160608501826123a6565b5060408201516126b460a08501826123a6565b5060608201516126c760e0850182612593565b506080820151611b6f610100850182612593565b805160e08301906126ec84826124ae565b5060208201516126ff60608501826123e8565b506040820151611b6f60a08501826123e8565b6020810161272082846122b1565b92915050565b6080810161273482876122b1565b61274160208301866125fa565b61274e60408301856125fa565b6125f160608301846125fa565b6060810161276982866122b1565b61277660208301856125fa565b61217460408301846125fa565b60a0810161279182886122b1565b61279e60208301876125fa565b6127ab60408301866125fa565b6127b860608301856125fa565b81810360808301526127ca818461264a565b979650505050505050565b60208082528101611ce881846122c0565b604081016127208284612364565b60608101612720828461242a565b60208082528101611ce881846124f0565b60208101612720828461258a565b60208101612720828461259c565b6080810161283d82876125fa565b61284a60208301866125fa565b61285760408301856122b1565b6125f16060830184612593565b60a0810161287282886125fa565b61287f60208301876125fa565b61288c60408301866125fa565b61289960608301856125fa565b81810360808301526127ca81846125a5565b6101208101612720828461267c565b60a081016128c882886125fa565b6128d560208301876125fa565b6128e260408301866125fa565b6128ef60608301856125fa565b81810360808301526127ca81846125fe565b610100810161291082856125fa565b611ce860208301846126db565b6040810161292b82856125fa565b611ce860208301846122b1565b602081016127208284612593565b60405181810167ffffffffffffffff8111828210171561296557600080fd5b604052919050565b600067ffffffffffffffff82111561298457600080fd5b5060209081020190565b600067ffffffffffffffff8211156129a557600080fd5b5060200290565b60200190565b90565b5190565b50600290565b50600390565b73ffffffffffffffffffffffffffffffffffffffff1690565b151590565b6000612720826129c55600a265627a7a72305820f31500fe30cbeaaa3f1efcd973776011eba31a63ebdeafe74a14c021747d2b596c6578706572696d656e74616cf500373a6357012c1a3ae0a17d304c9920310382d968ebcc4b1771f41c6b304205b570",
  "source": "pragma solidity ^0.4.18;\npragma experimental ABIEncoderV2;\n\nimport \"../libraries/math/SafeMath.sol\";\nimport \"../libraries/math/SafeMath128.sol\";\nimport \"../libraries/strings/strings.sol\";\nimport \"../libraries/LibConstruction.sol\";\nimport \"../libraries/LibEnums.sol\";\nimport \"../libraries/submission/LibSubmission.sol\";\nimport \"../libraries/submission/LibSubmissionTrust.sol\";\nimport \"../interfaces/IMatryxPlatform.sol\";\nimport \"../interfaces/IMatryxTournament.sol\";\nimport \"../interfaces/IMatryxRound.sol\";\nimport \"../interfaces/IMatryxSubmission.sol\";\nimport \"./Ownable.sol\";\n\ncontract MatryxSubmission is Ownable, IMatryxSubmission {\n    using SafeMath for uint256;\n    using SafeMath128 for uint128;\n    using SafeMath for uint32;\n    using strings for *;\n\n    // Parent identification\n    address private owner;\n    address private platformAddress;\n    address private tournamentAddress;\n    address private roundAddress;\n\n    // Submission\n    LibConstruction.SubmissionData data;\n    LibConstruction.ContributorsAndReferences contributorsAndReferences;\n    LibSubmission.RewardData rewardData;\n    LibSubmission.TrustData trustData;\n    LibSubmission.FileDownloadTracking downloadData;\n\n    uint256 one = 10**18;\n\n    constructor(address _owner, address _platformAddress, address _tournamentAddress, address _roundAddress, LibConstruction.SubmissionData _submissionData) public\n    {\n        platformAddress = _platformAddress;\n        tournamentAddress = _tournamentAddress;\n        roundAddress = _roundAddress;\n\n        data = _submissionData;\n        owner = _owner;\n\n        data.timeSubmitted = now;\n        data.timeUpdated = now;\n\n        downloadData.permittedToViewFile[_owner] = true;\n        downloadData.allPermittedToViewFile.push(_owner);\n        address tournamentOwner = Ownable(tournamentAddress).getOwner();\n        downloadData.permittedToViewFile[tournamentOwner] = true;\n        downloadData.allPermittedToViewFile.push(tournamentOwner);\n    }\n\n    /*\n    * Modifiers\n    */\n\n    modifier onlyPlatform() {\n        require(msg.sender == platformAddress);\n        _;\n    }\n\n    modifier onlyTournament() {\n        require(msg.sender == tournamentAddress);\n        _;\n    }\n\n    modifier ownerContributorOrRound()\n    {\n        require(msg.sender == owner || rewardData.contributorToBountyDividend[msg.sender] != 0 || msg.sender == roundAddress);\n        _;\n    }\n\n    modifier onlyPeer()\n    {\n        require(IMatryxPlatform(platformAddress).isPeer(msg.sender));\n        _;\n    }\n\n    modifier onlyHasPeer() {\n        require(IMatryxPlatform(platformAddress).hasPeer(msg.sender));\n        _;\n    }\n\n    modifier atLeastInReview() {\n        require(IMatryxRound(roundAddress).getState() >= uint256(LibEnums.RoundState.InReview));\n        _;\n    }\n\n    // A modifier to ensure that information can only obtained\n    // about this submission when it should be.\n    modifier whenAccessible(address _requester)\n    {\n        require(isAccessible(_requester));\n        _;\n    }\n\n    modifier onlySubmissionOrRound()\n    {\n        require(msg.sender == roundAddress || IMatryxRound(roundAddress).submissionExists(msg.sender));\n        _;\n    }\n\n    modifier onlyOwnerOrThis()\n    {\n        require(msg.sender == owner || msg.sender == address(this));\n        _;\n    }\n\n    modifier duringOpenSubmission()\n    {\n        require(IMatryxRound(roundAddress).getState() == uint256(LibEnums.RoundState.Open));\n        _;\n    }\n\n    /*\n    * Getter Methods\n    */\n\n    function getTournament() public view returns (address) {\n        return tournamentAddress;\n    }\n\n    function getRound() public view returns (address) {\n        return roundAddress;\n    }\n\n    function isAccessible(address _requester) public view returns (bool)\n    {\n        IMatryxRound round = IMatryxRound(roundAddress);\n        Ownable ownableTournament = Ownable(tournamentAddress);\n\n        bool isPlatform = _requester == IMatryxTournament(tournamentAddress).getPlatform();\n        bool isRound = _requester == roundAddress;\n        bool ownsThisSubmission = _requester == owner;\n        bool roundAtLeastInReview = IMatryxRound(roundAddress).getState() >= uint256(LibEnums.RoundState.InReview);\n        bool requesterIsEntrant = IMatryxTournament(tournamentAddress).isEntrant(_requester);\n        bool requesterOwnsTournament = ownableTournament.getOwner() == _requester;\n        bool duringReviewAndRequesterInTournament = roundAtLeastInReview && (requesterOwnsTournament || requesterIsEntrant);\n        // TODO: think about next steps (encryption)\n        bool roundIsClosed = IMatryxRound(roundAddress).getState() >= uint256(LibEnums.RoundState.Closed);\n        bool hasFileAccess = downloadData.permittedToViewFile[_requester];\n\n        return isPlatform || isRound || ownsThisSubmission || duringReviewAndRequesterInTournament || IMatryxPlatform(platformAddress).isSubmission(_requester) || roundIsClosed || hasFileAccess;\n    }\n\n    function getData() public view whenAccessible(msg.sender) returns(LibConstruction.SubmissionData _data) {\n        LibConstruction.SubmissionData memory returnData = data;\n\n        if(!downloadData.permittedToViewFile[msg.sender])\n        {\n            returnData.fileHash[0] = 0x0;\n            returnData.fileHash[1] = 0x0;\n        }\n\n        return returnData;\n    }\n\n    function getTitle() public view whenAccessible(msg.sender) returns(bytes32[3]) {\n        return data.title;\n    }\n\n    function getAuthor() public view whenAccessible(msg.sender) returns(address) {\n        return IMatryxPlatform(platformAddress).peerAddress(owner);\n    }\n\n    function getDescriptionHash() public view whenAccessible(msg.sender) returns (bytes32[2]) {\n        return data.descriptionHash;\n    }\n\n    function getFileHash() public view whenAccessible(msg.sender) returns (bytes32[2]) {\n        require(downloadData.permittedToViewFile[msg.sender]);\n        return data.fileHash;\n    }\n\n    function getPermittedDownloaders() public view returns (address[]) {\n        return downloadData.allPermittedToViewFile;\n    }\n\n    function getReferences() public view whenAccessible(msg.sender) returns(address[]) {\n        return contributorsAndReferences.references;\n    }\n\n    function getContributors() public view whenAccessible(msg.sender) returns(address[]) {\n        return contributorsAndReferences.contributors;\n    }\n\n    function getContributorRewardDistribution() public view whenAccessible(msg.sender) returns (uint256[]) {\n        assembly {\n            let ptr := mload(0x40)\n            let len := sload(contributorsAndReferences_slot)\n\n            mstore(ptr, 0x20)           // elem size\n            mstore(add(ptr, 0x20), len) // arr len\n\n            mstore(0, contributorsAndReferences_slot)\n            let s_car := keccak256(0, 0x20)\n\n            mstore(0x20, add(rewardData_slot, 3)) // rewardData.contributorToBountyDividend\n\n            for { let i := 0 } lt(i, len) { i := add(i, 1) } {\n                let con := sload(add(s_car, i))\n                mstore(0, con)\n                let dist := keccak256(0, 0x40)    // rewardData.contributorToBountyDividend[contributor]\n                mstore(add(ptr, mul(add(i, 2), 0x20)), sload(dist))\n            }\n\n            return(ptr, mul(add(len, 2), 0x20))\n        }\n    }\n\n    function getTimeSubmitted() public view returns(uint256) {\n        return data.timeSubmitted;\n    }\n\n    function getTimeUpdated() public view returns(uint256) {\n        return data.timeUpdated;\n    }\n\n    function getTotalWinnings() public view returns(uint256) {\n        return rewardData.winnings;\n    }\n\n    /*\n    * Setter Methods\n    */\n\n    function unlockFile() public onlyHasPeer atLeastInReview {\n        downloadData.permittedToViewFile[msg.sender] = true;\n        downloadData.allPermittedToViewFile.push(msg.sender);\n    }\n\n    function updateData(LibConstruction.SubmissionModificationData _modificationData) public onlyOwner duringOpenSubmission\n    {\n        LibSubmission.updateData(data, _modificationData);\n    }\n\n    function updateContributors(LibConstruction.ContributorsModificationData _contributorsModificationData) public onlyOwner duringOpenSubmission\n    {\n        LibSubmission.updateContributors(data, contributorsAndReferences, rewardData, downloadData, _contributorsModificationData);\n    }\n\n    function updateReferences(LibConstruction.ReferencesModificationData _referencesModificationData) public onlyOwner duringOpenSubmission\n    {\n        LibSubmission.updateReferences(platformAddress, data, contributorsAndReferences, trustData, _referencesModificationData);\n    }\n\n    function addToWinnings(uint256 _amount) public onlySubmissionOrRound\n    {\n        rewardData.winnings = rewardData.winnings.add(_amount);\n    }\n\n    /// @dev \tCalled by the owner of _reference when this submission does not list _reference\n    /// \t\tas a reference.\n    /// @param  _reference Missing reference in this submission.\n    function flagMissingReference(address _reference) public onlyPeer\n    {\n        LibSubmissionTrust.flagMissingReference(trustData, _reference);\n    }\n\n    /// @dev \t\t\t  Called by the owner of _reference to remove a missing reference flag placed on a reference\n    ///\t\t \t\t\t  as missing.\n    /// @param _reference Reference previously marked by peer as missing.\n    function removeMissingReferenceFlag(address _reference) public onlyPeer\n    {\n        LibSubmissionTrust.removeMissingReferenceFlag(trustData, _reference);\n    }\n\n    /// @dev Sets contributors and references at submission creation time\n    /// @param _contribsAndRefs Struct containing contributors, reward distribution, and references\n    function setContributorsAndReferences(LibConstruction.ContributorsAndReferences _contribsAndRefs) public onlyTournament\n    {\n        LibSubmission.setContributorsAndReferences(contributorsAndReferences, rewardData, trustData, downloadData, _contribsAndRefs);\n    }\n\n    function getBalance() public view returns (uint256)\n    {\n        IMatryxRound round = IMatryxRound(roundAddress);\n        return round.getBalance(this);\n    }\n\n    function withdrawReward() public ownerContributorOrRound\n    {\n        LibSubmission.withdrawReward(platformAddress, contributorsAndReferences, rewardData, trustData);\n    }\n\n    function myReward() public view returns (uint256)\n    {\n        uint256 transferAmount = LibSubmission.getTransferAmount(platformAddress, rewardData, trustData);\n        return LibSubmission._myReward(contributorsAndReferences, rewardData, msg.sender, transferAmount);\n    }\n\n}\n",
  "sourcePath": "/Users/maxhoward/Desktop/Ethereum/MatryxPlatform/contracts/MatryxSubmission.sol",
  "compiler": {
    "name": "solc",
    "version": "0.4.24+commit.e67f0147.Emscripten.clang"
  },
  "schemaVersion": "2.0.1",
  "updatedAt": "2018-08-20T16:57:24.263Z"
}