{
  "contractName": "MatryxPlatform",
  "abi": [
    {
      "constant": true,
      "inputs": [],
      "name": "matryxTokenAddress",
      "outputs": [
        {
          "name": "",
          "type": "address"
        }
      ],
      "payable": false,
      "stateMutability": "view",
      "type": "function"
    },
    {
      "constant": true,
      "inputs": [
        {
          "name": "_sender",
          "type": "address"
        }
      ],
      "name": "isOwner",
      "outputs": [
        {
          "name": "_isOwner",
          "type": "bool"
        }
      ],
      "payable": false,
      "stateMutability": "view",
      "type": "function"
    },
    {
      "constant": true,
      "inputs": [
        {
          "name": "",
          "type": "bytes32"
        }
      ],
      "name": "categoryIterator",
      "outputs": [
        {
          "name": "name",
          "type": "string"
        },
        {
          "name": "count",
          "type": "uint128"
        },
        {
          "name": "prev",
          "type": "bytes32"
        },
        {
          "name": "next",
          "type": "bytes32"
        }
      ],
      "payable": false,
      "stateMutability": "view",
      "type": "function"
    },
    {
      "constant": true,
      "inputs": [],
      "name": "hashOfLastCategory",
      "outputs": [
        {
          "name": "",
          "type": "bytes32"
        }
      ],
      "payable": false,
      "stateMutability": "view",
      "type": "function"
    },
    {
      "constant": true,
      "inputs": [
        {
          "name": "",
          "type": "uint256"
        }
      ],
      "name": "topCategoryByCount",
      "outputs": [
        {
          "name": "",
          "type": "bytes32"
        }
      ],
      "payable": false,
      "stateMutability": "view",
      "type": "function"
    },
    {
      "constant": true,
      "inputs": [],
      "name": "getOwner",
      "outputs": [
        {
          "name": "_owner",
          "type": "address"
        }
      ],
      "payable": false,
      "stateMutability": "view",
      "type": "function"
    },
    {
      "constant": true,
      "inputs": [],
      "name": "owner",
      "outputs": [
        {
          "name": "",
          "type": "address"
        }
      ],
      "payable": false,
      "stateMutability": "view",
      "type": "function"
    },
    {
      "constant": true,
      "inputs": [
        {
          "name": "",
          "type": "address"
        }
      ],
      "name": "ownerToPeerAndPeerToOwner",
      "outputs": [
        {
          "name": "",
          "type": "address"
        }
      ],
      "payable": false,
      "stateMutability": "view",
      "type": "function"
    },
    {
      "constant": true,
      "inputs": [],
      "name": "hashOfTopCategory",
      "outputs": [
        {
          "name": "",
          "type": "bytes32"
        }
      ],
      "payable": false,
      "stateMutability": "view",
      "type": "function"
    },
    {
      "constant": true,
      "inputs": [
        {
          "name": "",
          "type": "uint256"
        }
      ],
      "name": "categoryList",
      "outputs": [
        {
          "name": "",
          "type": "string"
        }
      ],
      "payable": false,
      "stateMutability": "view",
      "type": "function"
    },
    {
      "constant": true,
      "inputs": [
        {
          "name": "",
          "type": "uint256"
        }
      ],
      "name": "allTournaments",
      "outputs": [
        {
          "name": "",
          "type": "address"
        }
      ],
      "payable": false,
      "stateMutability": "view",
      "type": "function"
    },
    {
      "constant": false,
      "inputs": [
        {
          "name": "newOwner",
          "type": "address"
        }
      ],
      "name": "transferOwnership",
      "outputs": [],
      "payable": false,
      "stateMutability": "nonpayable",
      "type": "function"
    },
    {
      "inputs": [
        {
          "name": "_matryxTokenAddress",
          "type": "address"
        },
        {
          "name": "_matryxPeerFactoryAddress",
          "type": "address"
        },
        {
          "name": "_matryxTournamentFactoryAddress",
          "type": "address"
        },
        {
          "name": "_matryxSubmissionFactoryAddress",
          "type": "address"
        },
        {
          "name": "_matryxSubmissionTrustLibAddress",
          "type": "address"
        }
      ],
      "payable": false,
      "stateMutability": "nonpayable",
      "type": "constructor"
    },
    {
      "anonymous": false,
      "inputs": [
        {
          "indexed": false,
          "name": "_discipline",
          "type": "string"
        },
        {
          "indexed": false,
          "name": "_owner",
          "type": "address"
        },
        {
          "indexed": false,
          "name": "_tournamentAddress",
          "type": "address"
        },
        {
          "indexed": false,
          "name": "_tournamentName_1",
          "type": "bytes32"
        },
        {
          "indexed": false,
          "name": "_tournamentName_2",
          "type": "bytes32"
        },
        {
          "indexed": false,
          "name": "_tournamentName_3",
          "type": "bytes32"
        },
        {
          "indexed": false,
          "name": "_externalAddress_1",
          "type": "bytes32"
        },
        {
          "indexed": false,
          "name": "_externalAddress_2",
          "type": "bytes32"
        },
        {
          "indexed": false,
          "name": "_MTXReward",
          "type": "uint256"
        },
        {
          "indexed": false,
          "name": "_entryFee",
          "type": "uint256"
        }
      ],
      "name": "TournamentCreated",
      "type": "event"
    },
    {
      "anonymous": false,
      "inputs": [
        {
          "indexed": false,
          "name": "_owner",
          "type": "address"
        },
        {
          "indexed": false,
          "name": "_tournamentAddress",
          "type": "address"
        },
        {
          "indexed": false,
          "name": "_tournamentName_1",
          "type": "bytes32"
        },
        {
          "indexed": false,
          "name": "_tournamentName_2",
          "type": "bytes32"
        },
        {
          "indexed": false,
          "name": "_tournamentName_3",
          "type": "bytes32"
        },
        {
          "indexed": false,
          "name": "_externalAddress_1",
          "type": "bytes32"
        },
        {
          "indexed": false,
          "name": "_externalAddress_2",
          "type": "bytes32"
        },
        {
          "indexed": false,
          "name": "_MTXReward",
          "type": "uint256"
        },
        {
          "indexed": false,
          "name": "_entryFee",
          "type": "uint256"
        }
      ],
      "name": "TournamentOpened",
      "type": "event"
    },
    {
      "anonymous": false,
      "inputs": [
        {
          "indexed": false,
          "name": "_tournamentAddress",
          "type": "address"
        },
        {
          "indexed": false,
          "name": "_finalRoundNumber",
          "type": "uint256"
        },
        {
          "indexed": false,
          "name": "_winningSubmissionAddresses",
          "type": "address[]"
        },
        {
          "indexed": false,
          "name": "_MTXReward",
          "type": "uint256"
        }
      ],
      "name": "TournamentClosed",
      "type": "event"
    },
    {
      "anonymous": false,
      "inputs": [
        {
          "indexed": false,
          "name": "_entrant",
          "type": "address"
        },
        {
          "indexed": false,
          "name": "_tournamentAddress",
          "type": "address"
        }
      ],
      "name": "UserEnteredTournament",
      "type": "event"
    },
    {
      "anonymous": false,
      "inputs": [
        {
          "indexed": false,
          "name": "queryID",
          "type": "string"
        }
      ],
      "name": "QueryID",
      "type": "event"
    },
    {
      "constant": false,
      "inputs": [
        {
          "name": "_owner",
          "type": "address"
        },
        {
          "name": "_tournamentName_1",
          "type": "bytes32"
        },
        {
          "name": "_tournamentName_2",
          "type": "bytes32"
        },
        {
          "name": "_tournamentName_3",
          "type": "bytes32"
        },
        {
          "name": "_externalAddress_1",
          "type": "bytes32"
        },
        {
          "name": "_externalAddress_2",
          "type": "bytes32"
        },
        {
          "name": "_MTXReward",
          "type": "uint256"
        },
        {
          "name": "_entryFee",
          "type": "uint256"
        }
      ],
      "name": "invokeTournamentOpenedEvent",
      "outputs": [],
      "payable": false,
      "stateMutability": "nonpayable",
      "type": "function"
    },
    {
      "constant": false,
      "inputs": [
        {
          "name": "_finalRoundNumber",
          "type": "uint256"
        },
        {
          "name": "_winningSubmissionAddresses",
          "type": "address[]"
        },
        {
          "name": "_rewardDistribution",
          "type": "uint256[]"
        },
        {
          "name": "_MTXReward",
          "type": "uint256"
        }
      ],
      "name": "invokeTournamentClosedEvent",
      "outputs": [],
      "payable": false,
      "stateMutability": "nonpayable",
      "type": "function"
    },
    {
      "constant": false,
      "inputs": [
        {
          "name": "_submissionAddress",
          "type": "address"
        },
        {
          "name": "_references",
          "type": "address[]"
        }
      ],
      "name": "handleReferenceRequestsForSubmission",
      "outputs": [
        {
          "name": "",
          "type": "bool"
        }
      ],
      "payable": false,
      "stateMutability": "nonpayable",
      "type": "function"
    },
    {
      "constant": false,
      "inputs": [
        {
          "name": "_reference",
          "type": "address"
        }
      ],
      "name": "handleReferenceRequestForSubmission",
      "outputs": [
        {
          "name": "",
          "type": "bool"
        }
      ],
      "payable": false,
      "stateMutability": "nonpayable",
      "type": "function"
    },
    {
      "constant": false,
      "inputs": [
        {
          "name": "_reference",
          "type": "address"
        }
      ],
      "name": "handleCancelledReferenceRequestForSubmission",
      "outputs": [
        {
          "name": "",
          "type": "bool"
        }
      ],
      "payable": false,
      "stateMutability": "nonpayable",
      "type": "function"
    },
    {
      "constant": false,
      "inputs": [
        {
          "name": "_owner",
          "type": "address"
        },
        {
          "name": "_submission",
          "type": "address"
        }
      ],
      "name": "updateSubmissions",
      "outputs": [],
      "payable": false,
      "stateMutability": "nonpayable",
      "type": "function"
    },
    {
      "constant": false,
      "inputs": [
        {
          "name": "_submissionAddress",
          "type": "address"
        },
        {
          "name": "_tournamentAddress",
          "type": "address"
        }
      ],
      "name": "removeSubmission",
      "outputs": [
        {
          "name": "",
          "type": "bool"
        }
      ],
      "payable": false,
      "stateMutability": "nonpayable",
      "type": "function"
    },
    {
      "constant": true,
      "inputs": [
        {
          "name": "_category",
          "type": "string"
        }
      ],
      "name": "getTournamentsByCategory",
      "outputs": [
        {
          "name": "",
          "type": "address[]"
        }
      ],
      "payable": false,
      "stateMutability": "view",
      "type": "function"
    },
    {
      "constant": true,
      "inputs": [
        {
          "name": "_category",
          "type": "string"
        }
      ],
      "name": "getCategoryCount",
      "outputs": [
        {
          "name": "",
          "type": "uint256"
        }
      ],
      "payable": false,
      "stateMutability": "view",
      "type": "function"
    },
    {
      "constant": true,
      "inputs": [
        {
          "name": "_index",
          "type": "uint256"
        }
      ],
      "name": "getTopCategory",
      "outputs": [
        {
          "name": "",
          "type": "string"
        }
      ],
      "payable": false,
      "stateMutability": "view",
      "type": "function"
    },
    {
      "constant": true,
      "inputs": [
        {
          "name": "_index",
          "type": "uint256"
        }
      ],
      "name": "getCategoryByIndex",
      "outputs": [
        {
          "name": "",
          "type": "string"
        }
      ],
      "payable": false,
      "stateMutability": "view",
      "type": "function"
    },
    {
      "constant": false,
      "inputs": [
        {
          "name": "_tournamentAddress",
          "type": "address"
        }
      ],
      "name": "enterTournament",
      "outputs": [
        {
          "name": "_success",
          "type": "bool"
        }
      ],
      "payable": false,
      "stateMutability": "nonpayable",
      "type": "function"
    },
    {
      "constant": false,
      "inputs": [
        {
          "name": "_category",
          "type": "string"
        },
        {
          "components": [
            {
              "name": "categoryHash",
              "type": "bytes32"
            },
            {
              "name": "title_1",
              "type": "bytes32"
            },
            {
              "name": "title_2",
              "type": "bytes32"
            },
            {
              "name": "title_3",
              "type": "bytes32"
            },
            {
              "name": "contentHash_1",
              "type": "bytes32"
            },
            {
              "name": "contentHash_2",
              "type": "bytes32"
            },
            {
              "name": "Bounty",
              "type": "uint256"
            },
            {
              "name": "entryFee",
              "type": "uint256"
            }
          ],
          "name": "tournamentData",
          "type": "tuple"
        },
        {
          "components": [
            {
              "name": "start",
              "type": "uint256"
            },
            {
              "name": "end",
              "type": "uint256"
            },
            {
              "name": "reviewDuration",
              "type": "uint256"
            },
            {
              "name": "bounty",
              "type": "uint256"
            }
          ],
          "name": "roundData",
          "type": "tuple"
        }
      ],
      "name": "createTournament",
      "outputs": [
        {
          "name": "_tournamentAddress",
          "type": "address"
        }
      ],
      "payable": false,
      "stateMutability": "nonpayable",
      "type": "function"
    },
    {
      "constant": false,
      "inputs": [],
      "name": "createPeer",
      "outputs": [
        {
          "name": "",
          "type": "address"
        }
      ],
      "payable": false,
      "stateMutability": "nonpayable",
      "type": "function"
    },
    {
      "constant": true,
      "inputs": [
        {
          "name": "_peerAddress",
          "type": "address"
        }
      ],
      "name": "isPeer",
      "outputs": [
        {
          "name": "",
          "type": "bool"
        }
      ],
      "payable": false,
      "stateMutability": "view",
      "type": "function"
    },
    {
      "constant": true,
      "inputs": [
        {
          "name": "_sender",
          "type": "address"
        }
      ],
      "name": "hasPeer",
      "outputs": [
        {
          "name": "",
          "type": "bool"
        }
      ],
      "payable": false,
      "stateMutability": "view",
      "type": "function"
    },
    {
      "constant": true,
      "inputs": [
        {
          "name": "_peer",
          "type": "address"
        },
        {
          "name": "_reference",
          "type": "address"
        }
      ],
      "name": "peerExistsAndOwnsSubmission",
      "outputs": [
        {
          "name": "",
          "type": "bool"
        }
      ],
      "payable": false,
      "stateMutability": "view",
      "type": "function"
    },
    {
      "constant": true,
      "inputs": [
        {
          "name": "_sender",
          "type": "address"
        }
      ],
      "name": "peerAddress",
      "outputs": [
        {
          "name": "",
          "type": "address"
        }
      ],
      "payable": false,
      "stateMutability": "view",
      "type": "function"
    },
    {
      "constant": true,
      "inputs": [
        {
          "name": "_submissionAddress",
          "type": "address"
        }
      ],
      "name": "isSubmission",
      "outputs": [
        {
          "name": "",
          "type": "bool"
        }
      ],
      "payable": false,
      "stateMutability": "view",
      "type": "function"
    },
    {
      "constant": true,
      "inputs": [
        {
          "name": "_categoryHash",
          "type": "bytes32"
        }
      ],
      "name": "hashForCategory",
      "outputs": [
        {
          "name": "_category",
          "type": "string"
        }
      ],
      "payable": false,
      "stateMutability": "view",
      "type": "function"
    },
    {
      "constant": true,
      "inputs": [
        {
          "name": "_tournamentAddress",
          "type": "address"
        }
      ],
      "name": "getTournament_IsMine",
      "outputs": [
        {
          "name": "_isMine",
          "type": "bool"
        }
      ],
      "payable": false,
      "stateMutability": "view",
      "type": "function"
    },
    {
      "constant": false,
      "inputs": [
        {
          "name": "_gratitude",
          "type": "uint256"
        }
      ],
      "name": "setSubmissionGratitude",
      "outputs": [],
      "payable": false,
      "stateMutability": "nonpayable",
      "type": "function"
    },
    {
      "constant": true,
      "inputs": [],
      "name": "getTokenAddress",
      "outputs": [
        {
          "name": "",
          "type": "address"
        }
      ],
      "payable": false,
      "stateMutability": "view",
      "type": "function"
    },
    {
      "constant": true,
      "inputs": [],
      "name": "getSubmissionTrustLibrary",
      "outputs": [
        {
          "name": "",
          "type": "address"
        }
      ],
      "payable": false,
      "stateMutability": "view",
      "type": "function"
    },
    {
      "constant": true,
      "inputs": [],
      "name": "getSubmissionGratitude",
      "outputs": [
        {
          "name": "",
          "type": "uint256"
        }
      ],
      "payable": false,
      "stateMutability": "view",
      "type": "function"
    },
    {
      "constant": true,
      "inputs": [],
      "name": "myTournaments",
      "outputs": [
        {
          "name": "",
          "type": "address[]"
        }
      ],
      "payable": false,
      "stateMutability": "view",
      "type": "function"
    },
    {
      "constant": true,
      "inputs": [],
      "name": "mySubmissions",
      "outputs": [
        {
          "name": "",
          "type": "address[]"
        }
      ],
      "payable": false,
      "stateMutability": "view",
      "type": "function"
    },
    {
      "constant": true,
      "inputs": [],
      "name": "tournamentCount",
      "outputs": [
        {
          "name": "_tournamentCount",
          "type": "uint256"
        }
      ],
      "payable": false,
      "stateMutability": "view",
      "type": "function"
    },
    {
      "constant": true,
      "inputs": [
        {
          "name": "_index",
          "type": "uint256"
        }
      ],
      "name": "getTournamentAtIndex",
      "outputs": [
        {
          "name": "_tournamentAddress",
          "type": "address"
        }
      ],
      "payable": false,
      "stateMutability": "view",
      "type": "function"
    }
  ],
  "bytecode": "0x60c0604052600160808190526702c68af0bb14000060a08190526015805460ff19169092179091556016553480156200003757600080fd5b5060405160a080620037648339810180604052620000599190810190620000db565b6000805433600160a060020a031991821617909155600180548216600160a060020a03978816179055600280548216958716959095179094556003805485169386169390931790925560048054841691851691909117905560058054909216921691909117905562000167565b6000620000d482516200015b565b9392505050565b600080600080600060a08688031215620000f457600080fd5b6000620001028888620000c6565b95505060206200011588828901620000c6565b94505060406200012888828901620000c6565b93505060606200013b88828901620000c6565b92505060806200014e88828901620000c6565b9150509295509295909350565b600160a060020a031690565b6135ed80620001776000396000f3006080604052600436106101f85763ffffffff7c010000000000000000000000000000000000000000000000000000000060003504166310fe9ae881146101fd5780631411f0a8146102285780631d2245f51461025557806329cc545e146102775780632f54bf6e1461028c57806331f4c5d3146102b95780633e44cf78146102db578063493a7af3146102fb5780634cbb12a91461032b57806351488bce1461034d578063532311c41461036d5780636a44e43d1461038d5780636e2b2c7c146103ad5780637cb997b7146103c2578063818b5fa8146103e25780638423e63e14610402578063893d20e8146104225780638c593a8c146104375780638d1d498c146104575780638da5cb5b14610477578063984ed2061461048c57806399db60dd146104ac578063a923251e146104cc578063a968c4b9146104ec578063ab9583d91461050c578063ac17741b1461052c578063ae945a361461054c578063b20a2dce14610561578063b2fad55414610576578063c13ae92a14610596578063c21260a5146105b6578063c839984a146105d6578063d4f056d4146105f6578063e139a20c14610616578063e64935611461062b578063e8a0ed0d1461064b578063f2fde38b1461066b578063f3dc0d251461068b578063f7468a3c146106a0578063f7c3609d146106c0578063fb5032d6146106d5575b600080fd5b34801561020957600080fd5b506102126106f5565b60405161021f919061324e565b60405180910390f35b34801561023457600080fd5b50610248610243366004612f33565b610712565b60405161021f91906133a9565b34801561026157600080fd5b5061026a6107bd565b60405161021f9190613361565b34801561028357600080fd5b50610212610835565b34801561029857600080fd5b506102ac6102a7366004612d9f565b610851565b60405161021f9190613372565b3480156102c557600080fd5b506102d96102d4366004613017565b610872565b005b3480156102e757600080fd5b506102ac6102f6366004612d9f565b6108d3565b34801561030757600080fd5b5061031b610316366004612f33565b6108fe565b60405161021f9493929190613454565b34801561033757600080fd5b506103406109c6565b60405161021f9190613380565b34801561035957600080fd5b506102ac610368366004612de3565b6109cc565b34801561037957600080fd5b506102ac610388366004612d9f565b610a50565b34801561039957600080fd5b506102126103a8366004612d9f565b610a7d565b3480156103b957600080fd5b50610340610aa8565b3480156103ce57600080fd5b506102486103dd366004612f33565b610aae565b3480156103ee57600080fd5b506102ac6103fd366004612d9f565b610b90565b34801561040e57600080fd5b5061034061041d366004612f33565b610bbb565b34801561042e57600080fd5b50610212610bcd565b34801561044357600080fd5b506102ac610452366004612e1d565b610be9565b34801561046357600080fd5b50610248610472366004612f33565b610e05565b34801561048357600080fd5b50610212610e3d565b34801561049857600080fd5b506102126104a7366004612f33565b610e59565b3480156104b857600080fd5b506102126104c7366004612d9f565b610eac565b3480156104d857600080fd5b506102d96104e7366004612e65565b610ed4565b3480156104f857600080fd5b506102ac610507366004612de3565b610f43565b34801561051857600080fd5b506102d9610527366004612de3565b6111f6565b34801561053857600080fd5b5061026a610547366004612f51565b6112da565b34801561055857600080fd5b50610340611385565b34801561056d57600080fd5b5061034061138b565b34801561058257600080fd5b506102ac610591366004612d9f565b6113a6565b3480156105a257600080fd5b506102d96105b1366004612f33565b611587565b3480156105c257600080fd5b506102486105d1366004612f33565b6115f5565b3480156105e257600080fd5b506102126105f1366004612f33565b61169c565b34801561060257600080fd5b50610340610611366004612f51565b6116d1565b34801561062257600080fd5b5061026a611720565b34801561063757600080fd5b50610212610646366004612f93565b611796565b34801561065757600080fd5b506102ac610666366004612d9f565b611a8d565b34801561067757600080fd5b506102d9610686366004612d9f565b611b97565b34801561069757600080fd5b50610212611c19565b3480156106ac57600080fd5b506102ac6106bb366004612d9f565b611c35565b3480156106cc57600080fd5b50610212611ec7565b3480156106e157600080fd5b506102ac6106f0366004612d9f565b612019565b60015473ffffffffffffffffffffffffffffffffffffffff165b90565b6060600c8281548110151561072357fe5b600091825260209182902001805460408051601f60026000196101006001871615020190941693909304928301859004850281018501909152818152928301828280156107b15780601f10610786576101008083540402835291602001916107b1565b820191906000526020600020905b81548152906001019060200180831161079457829003601f168201915b50505050509050919050565b3360009081526012602090815260409182902080548351818402810184019094528084526060939283018282801561082b57602002820191906000526020600020905b815473ffffffffffffffffffffffffffffffffffffffff168152600190910190602001808311610800575b5050505050905090565b60015473ffffffffffffffffffffffffffffffffffffffff1681565b60005473ffffffffffffffffffffffffffffffffffffffff91821691161490565b3360009081526010602052604090205460ff16151561089057600080fd5b7f983fdae4f6f66b5b7f1305ad07fe9b9de2851309ae41a2fe8d9e3aec8ef3e186338585846040516108c59493929190613325565b60405180910390a150505050565b73ffffffffffffffffffffffffffffffffffffffff166000908152600d602052604090205460ff1690565b600b6020908152600091825260409182902080548351601f600260001961010060018616150201909316929092049182018490048402810184019094528084529092918391908301828280156109955780601f1061096a57610100808354040283529160200191610995565b820191906000526020600020905b81548152906001019060200180831161097857829003601f168201915b505050506001830154600284015460039094015492936fffffffffffffffffffffffffffffffff9091169290915084565b60095481565b73ffffffffffffffffffffffffffffffffffffffff8083166000818152600d60209081526040808320548686168085526011845282852054958552600e8452828520549096168452600f835281842095845294909152812054909260ff9081169281169116828015610a3b5750815b8015610a445750805b93505b50505092915050565b73ffffffffffffffffffffffffffffffffffffffff9081166000908152600e602052604090205416151590565b73ffffffffffffffffffffffffffffffffffffffff9081166000908152600e60205260409020541690565b60075490565b6008546000818152600b602052604090206060919060015b848111610afb576000928352600b60205260408084206003015480855293209150821515610af357610afb565b600101610ac6565b8154604080516020601f60026000196101006001881615020190951694909404938401819004810282018101909252828152918491830182828015610b815780601f10610b5657610100808354040283529160200191610b81565b820191906000526020600020905b815481529060010190602001808311610b6457829003601f168201915b50505050509350505050919050565b73ffffffffffffffffffffffffffffffffffffffff1660009081526011602052604090205460ff1690565b600a6020526000908152604090205481565b60005473ffffffffffffffffffffffffffffffffffffffff1690565b33600090815260106020526040812054819081908190819060ff161515610c0f57600080fd5b600093505b8551841015610dfb578584815181101515610c2b57fe5b906020019060200201519250610c4083610b90565b1515610c4b57610df0565b8291508173ffffffffffffffffffffffffffffffffffffffff1663a5faa1256040518163ffffffff167c0100000000000000000000000000000000000000000000000000000000028152600401602060405180830381600087803b158015610cb257600080fd5b505af1158015610cc6573d6000803e3d6000fd5b505050506040513d601f19601f82011682018060405250610cea9190810190612dc5565b6040517fd1bbd31200000000000000000000000000000000000000000000000000000000815290915073ffffffffffffffffffffffffffffffffffffffff82169063d1bbd31290610d41908a90879060040161325c565b600060405180830381600087803b158015610d5b57600080fd5b505af1158015610d6f573d6000803e3d6000fd5b505050508173ffffffffffffffffffffffffffffffffffffffff1663c7af35516040518163ffffffff167c0100000000000000000000000000000000000000000000000000000000028152600401600060405180830381600087803b158015610dd757600080fd5b505af1158015610deb573d6000803e3d6000fd5b505050505b600190930192610c14565b5050505092915050565b5060408051808201909152601281527f74656d706f726172792063617465676f72790000000000000000000000000000602082015290565b60005473ffffffffffffffffffffffffffffffffffffffff1681565b600080821015610e6857600080fd5b6007548210610e7657600080fd5b6007805483908110610e8457fe5b60009182526020909120015473ffffffffffffffffffffffffffffffffffffffff1692915050565b600e6020526000908152604090205473ffffffffffffffffffffffffffffffffffffffff1681565b3360009081526010602052604090205460ff161515610ef257600080fd5b7f67463a82a3de9d3302dd325602c0b0ac0ba5437fa8e04a6aeb8b218be7d7d54b883389898989898989604051610f3199989796959493929190613277565b60405180910390a15050505050505050565b336000908152600f6020908152604080832073ffffffffffffffffffffffffffffffffffffffff8616845290915281205481908190819060ff161515610f8857600080fd5b73ffffffffffffffffffffffffffffffffffffffff851660009081526010602052604090205460ff161515610fbc57600080fd5b73ffffffffffffffffffffffffffffffffffffffff861660009081526011602052604090205460ff161515610ff057600080fd5b8592508573ffffffffffffffffffffffffffffffffffffffff1663893d20e86040518163ffffffff167c0100000000000000000000000000000000000000000000000000000000028152600401602060405180830381600087803b15801561105757600080fd5b505af115801561106b573d6000803e3d6000fd5b505050506040513d601f19601f8201168201806040525061108f9190810190612dc5565b73ffffffffffffffffffffffffffffffffffffffff8082166000818152601460209081526040808320948c1683529381528382206001015460118252848320805460ff191690559282526013905291909120805492945090925090829081106110f457fe5b60009182526020808320909101805473ffffffffffffffffffffffffffffffffffffffff1916905573ffffffffffffffffffffffffffffffffffffffff84811683526014825260408084208a83168552909252818320805460ff1916815560010192909255517fa968c4b90000000000000000000000000000000000000000000000000000000081529086169063a968c4b990611197908990869060040161325c565b602060405180830381600087803b1580156111b157600080fd5b505af11580156111c5573d6000803e3d6000fd5b505050506040513d601f19601f820116820180604052506111e99190810190612f15565b5060019695505050505050565b3360009081526010602052604090205460ff16151561121457600080fd5b604080518082018252600180825273ffffffffffffffffffffffffffffffffffffffff948516600081815260136020908152858220805482870190815284845260148352878420989099168084529782528683209551865490151560ff1991821617875598519585019590955584548085018655948252808220909401805473ffffffffffffffffffffffffffffffffffffffff191687179055908152600f83528381209481529382528284208054861682179055601190915291208054909216179055565b6060600b600084846040518083838082843782019150509250505060405180910390206000191660001916815260200190815260200160002060040180548060200260200160405190810160405280929190818152602001828054801561137757602002820191906000526020600020905b815473ffffffffffffffffffffffffffffffffffffffff16815260019091019060200180831161134c575b505050505090505b92915050565b60085481565b60155460009060ff16151561139f57600080fd5b5060165490565b336000908152601160205260408120548190819060ff1615156113c857600080fd5b6113d184610b90565b15156113dc57600080fd5b8391508173ffffffffffffffffffffffffffffffffffffffff1663a5faa1256040518163ffffffff167c0100000000000000000000000000000000000000000000000000000000028152600401602060405180830381600087803b15801561144357600080fd5b505af1158015611457573d6000803e3d6000fd5b505050506040513d601f19601f8201168201806040525061147b9190810190612dc5565b6040517fd1bbd31200000000000000000000000000000000000000000000000000000000815290915073ffffffffffffffffffffffffffffffffffffffff82169063d1bbd312906114d2903390889060040161325c565b600060405180830381600087803b1580156114ec57600080fd5b505af1158015611500573d6000803e3d6000fd5b505050508173ffffffffffffffffffffffffffffffffffffffff1663c7af35516040518163ffffffff167c0100000000000000000000000000000000000000000000000000000000028152600401600060405180830381600087803b15801561156857600080fd5b505af115801561157c573d6000803e3d6000fd5b505050505050919050565b60005473ffffffffffffffffffffffffffffffffffffffff1633146115ab57600080fd5b600081101580156115c45750670de0b6b3a76400008111155b15156115cc57fe5b60408051808201909152600180825260209091018290526015805460ff19169091179055601655565b600c80548290811061160357fe5b600091825260209182902001805460408051601f60026000196101006001871615020190941693909304928301859004850281018501909152818152935090918301828280156116945780601f1061166957610100808354040283529160200191611694565b820191906000526020600020905b81548152906001019060200180831161167757829003601f168201915b505050505081565b60078054829081106116aa57fe5b60009182526020909120015473ffffffffffffffffffffffffffffffffffffffff16905081565b6000600b600084846040518083838082843760408051919093018190039020865250602085019590955250505001600020600101546fffffffffffffffffffffffffffffffff16905092915050565b3360009081526013602090815260409182902080548351818402810184019094528084526060939283018282801561082b5760200282019190600052602060002090815473ffffffffffffffffffffffffffffffffffffffff168152600190910190602001808311610800575050505050905090565b6003546040517fc56736b800000000000000000000000000000000000000000000000000000000815260009173ffffffffffffffffffffffffffffffffffffffff16908290829063c56736b8906117f59088908890339060040161348e565b602060405180830381600087803b15801561180f57600080fd5b505af1158015611823573d6000803e3d6000fd5b505050506040513d601f19601f820116820180604052506118479190810190612dc5565b90507f0a3eabe50f6fdb1131643d035f8bde7e91d600ba5d64c4a17de4d9c9fef3ec63863383886020015189604001518a606001518b608001518c60a001518d60c001518e60e001516040516118a69a999897969594939291906133ba565b60405180910390a16118b881876121db565b60015460c08601516040517f23b872dd00000000000000000000000000000000000000000000000000000000815273ffffffffffffffffffffffffffffffffffffffff909216916323b872dd9161191591339186916004016132fd565b602060405180830381600087803b15801561192f57600080fd5b505af1158015611943573d6000803e3d6000fd5b505050506040513d601f19601f820116820180604052506119679190810190612f15565b151561197257600080fd5b60608401516040517f23721e2400000000000000000000000000000000000000000000000000000000815273ffffffffffffffffffffffffffffffffffffffff8316916323721e24916119ca9160009160040161338e565b600060405180830381600087803b1580156119e457600080fd5b505af11580156119f8573d6000803e3d6000fd5b50506007805460018082019092557fa66cc928b5edb82af9bd49922954155ab7b0942694bea4ce44661d9a8736c68801805473ffffffffffffffffffffffffffffffffffffffff191673ffffffffffffffffffffffffffffffffffffffff86169081179091556000908152601060205260409020805460ff1916909117905550611a849050338261291c565b95945050505050565b73ffffffffffffffffffffffffffffffffffffffff8116600090815260106020526040812054819060ff161515611ac357600080fd5b8290503373ffffffffffffffffffffffffffffffffffffffff168173ffffffffffffffffffffffffffffffffffffffff1663893d20e86040518163ffffffff167c0100000000000000000000000000000000000000000000000000000000028152600401602060405180830381600087803b158015611b4157600080fd5b505af1158015611b55573d6000803e3d6000fd5b505050506040513d601f19601f82011682018060405250611b799190810190612dc5565b73ffffffffffffffffffffffffffffffffffffffff16149392505050565b60005473ffffffffffffffffffffffffffffffffffffffff163314611bbb57600080fd5b73ffffffffffffffffffffffffffffffffffffffff81161515611bdd57600080fd5b6000805473ffffffffffffffffffffffffffffffffffffffff191673ffffffffffffffffffffffffffffffffffffffff92909216919091179055565b60055473ffffffffffffffffffffffffffffffffffffffff1690565b60008060008033611c4581610a50565b1515611c5057600080fd5b73ffffffffffffffffffffffffffffffffffffffff861660009081526010602052604090205460ff161515611c8457600080fd5b8593508373ffffffffffffffffffffffffffffffffffffffff1663e586a4f06040518163ffffffff167c0100000000000000000000000000000000000000000000000000000000028152600401602060405180830381600087803b158015611ceb57600080fd5b505af1158015611cff573d6000803e3d6000fd5b505050506040513d601f19601f82011682018060405250611d239190810190612ff9565b6001546040517f23b872dd00000000000000000000000000000000000000000000000000000000815291945073ffffffffffffffffffffffffffffffffffffffff16906323b872dd90611d7e9033908a9088906004016132fd565b602060405180830381600087803b158015611d9857600080fd5b505af1158015611dac573d6000803e3d6000fd5b505050506040513d601f19601f82011682018060405250611dd09190810190612f15565b91508115611ebe576040517f28d576d700000000000000000000000000000000000000000000000000000000815273ffffffffffffffffffffffffffffffffffffffff8516906328d576d790611e2a90339060040161324e565b602060405180830381600087803b158015611e4457600080fd5b505af1158015611e58573d6000803e3d6000fd5b505050506040513d601f19601f82011682018060405250611e7c9190810190612f15565b91508115611ebe577f5891a745b8d042d48bd1e4aed889e63bdc3e44242bb75694ea97573460e03a8b3387604051611eb592919061325c565b60405180910390a15b50949350505050565b336000908152600e60205260408120548190819073ffffffffffffffffffffffffffffffffffffffff1615611efb57600080fd5b6002546040517f48bf957700000000000000000000000000000000000000000000000000000000815273ffffffffffffffffffffffffffffffffffffffff909116925082906348bf957790611f5490339060040161324e565b602060405180830381600087803b158015611f6e57600080fd5b505af1158015611f82573d6000803e3d6000fd5b505050506040513d601f19601f82011682018060405250611fa69190810190612dc5565b73ffffffffffffffffffffffffffffffffffffffff166000818152600d60209081526040808320805460ff1916600117905533808452600e909252808320805473ffffffffffffffffffffffffffffffffffffffff19908116861790915593835290912080549092161790555090919050565b336000908152601160205260408120548190819060ff16151561203b57600080fd5b61204484610b90565b151561204f57600080fd5b8391508173ffffffffffffffffffffffffffffffffffffffff1663a5faa1256040518163ffffffff167c0100000000000000000000000000000000000000000000000000000000028152600401602060405180830381600087803b1580156120b657600080fd5b505af11580156120ca573d6000803e3d6000fd5b505050506040513d601f19601f820116820180604052506120ee9190810190612dc5565b6040517fa1cc4ac100000000000000000000000000000000000000000000000000000000815290915073ffffffffffffffffffffffffffffffffffffffff82169063a1cc4ac190612145903390889060040161325c565b600060405180830381600087803b15801561215f57600080fd5b505af1158015612173573d6000803e3d6000fd5b505050508173ffffffffffffffffffffffffffffffffffffffff1663444e31ca6040518163ffffffff167c0100000000000000000000000000000000000000000000000000000000028152600401600060405180830381600087803b15801561156857600080fd5b6000806000806000806000806000896040518082805190602001908083835b602083106122195780518252601f1990920191602091820191016121fa565b51815160209384036101000a600019018019909216911617905260408051929094018290039091206000818152600b90925292902060010154919c50506fffffffffffffffffffffffffffffffff1615159150612570905057600c8054600181018083556000929092528b516122b6917fdf6966c971051c3d54ec59162606531493a51404a002842f56009d7e5cf4a8c7019060208e0190612974565b505060085415156123cb57600889905560098990556040805160a0810182528b815260016020808301919091526000828401819052606083018190528351818152808301855260808401528c8152600b82529290922081518051929391926123219284920190612974565b506020828101516001830180547fffffffffffffffffffffffffffffffff00000000000000000000000000000000166fffffffffffffffffffffffffffffffff90921691909117905560408301516002830155606083015160038301556080830151805161239592600485019201906129f2565b5050600160005250600a6020527fbbc70db1b6c7afd11e79c0fb0051300458f1a3acb8ee9789d9b6b26c61ad9bc7899055612512565b6040805160a0810182528b81526001602080830191909152600954828401526000606083018190528351818152808301855260808401528c8152600b82529290922081518051929391926124229284920190612974565b506020828101516001830180547fffffffffffffffffffffffffffffffff00000000000000000000000000000000166fffffffffffffffffffffffffffffffff90921691909117905560408301516002830155606083015160038301556080830151805161249692600485019201906129f2565b50506009546000908152600b6020908152604082206003018c90556001909152600a9052507fbbc70db1b6c7afd11e79c0fb0051300458f1a3acb8ee9789d9b6b26c61ad9bc7541515612512576001600052600a6020527fbbc70db1b6c7afd11e79c0fb0051300458f1a3acb8ee9789d9b6b26c61ad9bc78990555b6000898152600b6020908152604082206004018054600181018255908352912001805473ffffffffffffffffffffffffffffffffffffffff191673ffffffffffffffffffffffffffffffffffffffff8d16179055600989905561290f565b600b60008a600019166000191681526020019081526020016000206004018b90806001815401808255809150509060018203906000526020600020016000909192909190916101000a81548173ffffffffffffffffffffffffffffffffffffffff021916908373ffffffffffffffffffffffffffffffffffffffff16021790555050600b60008a6000191660001916815260200190815260200160002060010160009054906101000a90046fffffffffffffffffffffffffffffffff166fffffffffffffffffffffffffffffffff169750600b60008a6000191660001916815260200190815260200160002060010160009054906101000a90046fffffffffffffffffffffffffffffffff16600101965086600b60008b6000191660001916815260200190815260200160002060010160006101000a8154816fffffffffffffffffffffffffffffffff02191690836fffffffffffffffffffffffffffffffff160217905550600a6000886fffffffffffffffffffffffffffffffff168152602001908152602001600020546000191660006001021415612730576fffffffffffffffffffffffffffffffff87166000908152600a602052604090208990555b6000898152600b6020526040902060020154156128c2576000898152600b602052604080822060028101548352908220600190810154928c905201546fffffffffffffffffffffffffffffffff918216911611156128c2576000898152600b60209081526040808320600101546fffffffffffffffffffffffffffffffff90811660001901168352600a9091529020546008549096508614156127d35760088990555b6009548914156127e35760098690555b5050506000838152600b6020526040808220888352912060038083018054600280850180549486015490935585015491829055939550919350828914929091156128415760028501546000908152600b602052604090206003018990555b6003840154156128655760038401546000908152600b602052604090206002018690555b821561287e5760028501899055600384018690556128c2565b600285018290556003840181905581156128a7576000828152600b602052604090206003018690555b80156128c2576000818152600b602052604090206002018990555b6000898152600b6020526040902060030154156128ff576000898152600b60209081526040808320600301548b8452600a9092529091205561290f565b6000888152600a60205260408120555b5050505050505050505050565b73ffffffffffffffffffffffffffffffffffffffff918216600090815260126020908152604082208054600181018255908352912001805473ffffffffffffffffffffffffffffffffffffffff191691909216179055565b828054600181600116156101000203166002900490600052602060002090601f016020900481019282601f106129b557805160ff19168380011785556129e2565b828001600101855582156129e2579182015b828111156129e25782518255916020019190600101906129c7565b506129ee929150612a6d565b5090565b828054828255906000526020600020908101928215612a61579160200282015b82811115612a61578251825473ffffffffffffffffffffffffffffffffffffffff191673ffffffffffffffffffffffffffffffffffffffff909116178255602090920191600190910190612a12565b506129ee929150612a87565b61070f91905b808211156129ee5760008155600101612a73565b61070f91905b808211156129ee57805473ffffffffffffffffffffffffffffffffffffffff19168155600101612a8d565b6000612ac48235613533565b9392505050565b6000612ac48251613533565b6000601f82018313612ae857600080fd5b8135612afb612af6826134e0565b6134b9565b91508181835260208401935060208101905083856020840282011115612b2057600080fd5b60005b83811015610dfb5781612b368882612ab8565b8452506020928301929190910190600101612b23565b6000601f82018313612b5d57600080fd5b8135612b6b612af6826134e0565b91508181835260208401935060208101905083856020840282011115612b9057600080fd5b60005b83811015610dfb5781612ba68882612bc8565b8452506020928301929190910190600101612b93565b6000612ac4825161354c565b6000612ac4823561070f565b600080601f83018413612be657600080fd5b50813567ffffffffffffffff811115612bfe57600080fd5b602083019150836001820283011115612c1657600080fd5b9250929050565b6000601f82018313612c2e57600080fd5b8135612c3c612af682613501565b91508082526020830160208301858383011115612c5857600080fd5b610a47838284613571565b600060808284031215612c7557600080fd5b612c7f60806134b9565b90506000612c8d8484612bc8565b8252506020612c9e84848301612bc8565b6020830152506040612cb284828501612bc8565b6040830152506060612cc684828501612bc8565b60608301525092915050565b60006101008284031215612ce557600080fd5b612cf06101006134b9565b90506000612cfe8484612bc8565b8252506020612d0f84848301612bc8565b6020830152506040612d2384828501612bc8565b6040830152506060612d3784828501612bc8565b6060830152506080612d4b84828501612bc8565b60808301525060a0612d5f84828501612bc8565b60a08301525060c0612d7384828501612bc8565b60c08301525060e0612d8784828501612bc8565b60e08301525092915050565b6000612ac4825161070f565b600060208284031215612db157600080fd5b6000612dbd8484612ab8565b949350505050565b600060208284031215612dd757600080fd5b6000612dbd8484612acb565b60008060408385031215612df657600080fd5b6000612e028585612ab8565b9250506020612e1385828601612ab8565b9150509250929050565b60008060408385031215612e3057600080fd5b6000612e3c8585612ab8565b925050602083013567ffffffffffffffff811115612e5957600080fd5b612e1385828601612ad7565b600080600080600080600080610100898b031215612e8257600080fd5b6000612e8e8b8b612ab8565b9850506020612e9f8b828c01612bc8565b9750506040612eb08b828c01612bc8565b9650506060612ec18b828c01612bc8565b9550506080612ed28b828c01612bc8565b94505060a0612ee38b828c01612bc8565b93505060c0612ef48b828c01612bc8565b92505060e0612f058b828c01612bc8565b9150509295985092959890939650565b600060208284031215612f2757600080fd5b6000612dbd8484612bbc565b600060208284031215612f4557600080fd5b6000612dbd8484612bc8565b60008060208385031215612f6457600080fd5b823567ffffffffffffffff811115612f7b57600080fd5b612f8785828601612bd4565b92509250509250929050565b60008060006101a08486031215612fa957600080fd5b833567ffffffffffffffff811115612fc057600080fd5b612fcc86828701612c1d565b9350506020612fdd86828701612cd2565b925050610120612fef86828701612c63565b9150509250925092565b60006020828403121561300b57600080fd5b6000612dbd8484612d93565b6000806000806080858703121561302d57600080fd5b60006130398787612bc8565b945050602085013567ffffffffffffffff81111561305657600080fd5b61306287828801612ad7565b935050604085013567ffffffffffffffff81111561307f57600080fd5b61308b87828801612b4c565b925050606061309c87828801612bc8565b91505092959194509250565b6130b181613533565b82525050565b60006130c28261352f565b8084526020840193506130d483613529565b60005b82811015613104576130ea8683516130a8565b6130f382613529565b6020969096019591506001016130d7565b5093949350505050565b6130b18161354c565b6130b18161070f565b6130b181613566565b60006131348261352f565b80845261314881602086016020860161357d565b613151816135a9565b9093016020019392505050565b8051608083019061316f8482613117565b5060208201516131826020850182613117565b5060408201516131956040850182613117565b5060608201516131a86060850182613117565b50505050565b80516101008301906131c08482613117565b5060208201516131d36020850182613117565b5060408201516131e66040850182613117565b5060608201516131f96060850182613117565b50608082015161320c6080850182613117565b5060a082015161321f60a0850182613117565b5060c082015161323260c0850182613117565b5060e08201516131a860e0850182613117565b6130b181613551565b6020810161137f82846130a8565b6040810161326a82856130a8565b612ac460208301846130a8565b6101208101613286828c6130a8565b613293602083018b6130a8565b6132a0604083018a613117565b6132ad6060830189613117565b6132ba6080830188613117565b6132c760a0830187613117565b6132d460c0830186613117565b6132e160e0830185613117565b6132ef610100830184613117565b9a9950505050505050505050565b6060810161330b82866130a8565b61331860208301856130a8565b612dbd6040830184613117565b6080810161333382876130a8565b6133406020830186613117565b818103604083015261335281856130b7565b9050611a846060830184613117565b60208082528101612ac481846130b7565b6020810161137f828461310e565b6020810161137f8284613117565b6040810161339c8285613120565b612ac46020830184613117565b60208082528101612ac48184613129565b61014080825281016133cc818d613129565b90506133db602083018c6130a8565b6133e8604083018b6130a8565b6133f5606083018a613117565b6134026080830189613117565b61340f60a0830188613117565b61341c60c0830187613117565b61342960e0830186613117565b613437610100830185613117565b613445610120830184613117565b9b9a5050505050505050505050565b608080825281016134658187613129565b90506134746020830186613245565b6134816040830185613117565b611a846060830184613117565b6101a0810161349d82866131ae565b6134ab61010083018561315e565b612dbd6101808301846130a8565b60405181810167ffffffffffffffff811182821017156134d857600080fd5b604052919050565b600067ffffffffffffffff8211156134f757600080fd5b5060209081020190565b600067ffffffffffffffff82111561351857600080fd5b506020601f91909101601f19160190565b60200190565b5190565b73ffffffffffffffffffffffffffffffffffffffff1690565b151590565b6fffffffffffffffffffffffffffffffff1690565b600061137f8261070f565b82818337506000910152565b60005b83811015613598578181015183820152602001613580565b838111156131a85750506000910152565b601f01601f1916905600a265627a7a72305820e200f9dcdaed9d1a468f9eef775fa29b48c7e2c1f60d1fc1e6173f5299c4f8006c6578706572696d656e74616cf50037",
  "source": "pragma solidity ^0.4.18;\npragma experimental ABIEncoderV2;\n\nimport \"../libraries/math/SafeMath.sol\";\nimport \"../libraries/math/SafeMath128.sol\";\nimport \"../interfaces/IMatryxToken.sol\";\nimport \"../interfaces/IMatryxPeer.sol\";\nimport \"../interfaces/IMatryxPlatform.sol\";\nimport \"../interfaces/factories/IMatryxPeerFactory.sol\";\nimport \"../interfaces/factories/IMatryxTournamentFactory.sol\";\nimport \"../interfaces/IMatryxTournament.sol\";\nimport \"../interfaces/IMatryxRound.sol\";\nimport \"../interfaces/IMatryxSubmission.sol\";\nimport \"./Ownable.sol\";\n\n/// @title MatryxPlatform - The Matryx platform contract.\n/// @author Max Howard - <max@nanome.ai>, Sam Hessenauer - <sam@nanome.ai>\ncontract MatryxPlatform is Ownable {\n  using SafeMath for uint256;\n  using SafeMath128 for uint128;\n\n  // TODO: condense and put in structs\n  address public matryxTokenAddress;\n  address matryxPeerFactoryAddress;\n  address matryxTournamentFactoryAddress;\n  address matryxSubmissionFactoryAddress;\n  address matryxSubmissionTrustLibAddress;\n  address matryxRoundLibAddress;\n\n  address[] public allTournaments;\n  bytes32 public hashOfTopCategory;\n  bytes32 public hashOfLastCategory;\n  mapping(uint256=>bytes32) public  topCategoryByCount;\n  mapping(bytes32=>category) public categoryIterator;\n  string[] public categoryList;\n\n  mapping(address=>bool) peerExists;\n  mapping(address=>address) public ownerToPeerAndPeerToOwner;\n  mapping(address=>mapping(address=>bool)) addressToOwnsSubmission;\n  mapping(address=>bool) tournamentExists;\n  mapping(address=>bool) submissionExists;\n\n  mapping(address=>address[]) entrantToTournamentArray;\n  mapping(address=>address[]) ownerToSubmissionArray;\n  mapping(address=>mapping(address=>uint256_optional))  ownerToSubmissionToSubmissionIndex;\n\n  uint256_optional submissionGratitude = uint256_optional({exists: true, value: 2*10**17});\n\n  function MatryxPlatform(address _matryxTokenAddress, address _matryxPeerFactoryAddress, address _matryxTournamentFactoryAddress, address _matryxSubmissionFactoryAddress, address _matryxSubmissionTrustLibAddress) public\n  {\n    matryxTokenAddress = _matryxTokenAddress;\n    matryxPeerFactoryAddress = _matryxPeerFactoryAddress;\n    matryxTournamentFactoryAddress = _matryxTournamentFactoryAddress;\n    matryxSubmissionFactoryAddress = _matryxSubmissionFactoryAddress;\n    matryxSubmissionTrustLibAddress = _matryxSubmissionTrustLibAddress;\n  }\n\n  /*\n   * Structs\n   */\n\n  struct uint256_optional\n  {\n    bool exists;\n    uint256 value;\n  }\n\n  struct category\n  {\n    string name;\n    uint128 count;\n    bytes32 prev;\n    bytes32 next;\n    address[] tournaments;\n  }\n\n  /*\n   * Events\n   */\n\n  event TournamentCreated(string _discipline, address _owner, address _tournamentAddress, bytes32 _tournamentName_1, bytes32 _tournamentName_2, bytes32 _tournamentName_3, bytes32 _externalAddress_1, bytes32 _externalAddress_2, uint256 _MTXReward, uint256 _entryFee);\n  event TournamentOpened(address _owner, address _tournamentAddress, bytes32 _tournamentName_1, bytes32 _tournamentName_2, bytes32 _tournamentName_3, bytes32 _externalAddress_1, bytes32 _externalAddress_2, uint256 _MTXReward, uint256 _entryFee);\n  event TournamentClosed(address _tournamentAddress, uint256 _finalRoundNumber, address[] _winningSubmissionAddresses, uint256 _MTXReward);\n  event UserEnteredTournament(address _entrant, address _tournamentAddress);\n  event QueryID(string queryID);\n  /// @dev Allows tournaments to invoke tournamentOpened events on the platform.\n  /// @param _owner Owner of the tournament.\n  /// @param _tournamentName_1 First part of the tournament name.\n  /// @param _tournamentName_2 Second part of the tournament name.\n  /// @param _tournamentName_3 Third part of the tournament name.\n  /// @param _externalAddress_1 First part of the external address of the tournament.\n  /// @param _externalAddress_2 Second part of the external address of the tournament.\n  /// @param _MTXReward Reward for winning the tournament.\n  /// @param _entryFee Fee for entering into the tournament.\n  function invokeTournamentOpenedEvent(address _owner, bytes32 _tournamentName_1, bytes32 _tournamentName_2, bytes32 _tournamentName_3, bytes32 _externalAddress_1, bytes32 _externalAddress_2, uint256 _MTXReward, uint256 _entryFee) public onlyTournament\n  {\n    TournamentOpened(_owner, msg.sender, _tournamentName_1, _tournamentName_2, _tournamentName_3, _externalAddress_1, _externalAddress_2, _MTXReward, _entryFee);\n  }\n\n  /// @dev Allows tournaments to invoke tournamentClosed events on the platform.\n  /// @param _finalRoundNumber Index of the round containing the winning submission.\n  /// @param _winningSubmissionAddresses Address of the winning submission.\n  /// @param _rewardDistribution Distribution indicating how to split the reward among the submissions\n  function invokeTournamentClosedEvent(uint256 _finalRoundNumber, address[] _winningSubmissionAddresses, uint256[] _rewardDistribution, uint256 _MTXReward) public onlyTournament\n  {\n    TournamentClosed(msg.sender, _finalRoundNumber, _winningSubmissionAddresses, _MTXReward);\n  }\n\n  /* \n   * Modifiers\n   */\n\n  modifier onlyTournament\n  {\n    require(tournamentExists[msg.sender]);\n    _;\n  }\n\n  modifier onlySubmission\n  {\n    require(submissionExists[msg.sender]);\n    _;\n  }\n\n  modifier onlyPeerLinked(address _sender)\n  {\n    require(hasPeer(_sender));\n    _;\n  }\n\n  /*\n   * State Maintenance Methods\n   */\n\n  // @dev Sends out reference requests for a particular submission.\n  // @param _references Reference whose authors will be sent requests.\n  // @returns Whether or not all references were successfully sent a request.\n  function handleReferenceRequestsForSubmission(address _submissionAddress, address[] _references) public onlyTournament returns (bool) \n  {\n    for(uint256 i = 0; i < _references.length; i++)\n    {\n      address _referenceAddress = _references[i];\n\n      if(!isSubmission(_referenceAddress))\n      {\n        // TODO: Introduce uint error codes\n        // for returning things like \"Reference _ is not submission\"\n        continue;\n      }\n\n      IMatryxSubmission submission = IMatryxSubmission(_referenceAddress);\n      address author = submission.getAuthor();\n      IMatryxPeer(author).receiveReferenceRequest(_submissionAddress, _referenceAddress);\n      submission.receiveReferenceRequest();\n    }\n  }\n\n  // @dev Sends out a reference request for a submission (must be called by the submission).\n  // @param _reference Reference whose author will be sent a request.\n  // @returns Whether or not all references were successfully sent a request.\n  function handleReferenceRequestForSubmission(address _reference) public onlySubmission returns (bool)\n  {\n      require(isSubmission(_reference));\n      IMatryxSubmission submission = IMatryxSubmission(_reference);\n      address author = submission.getAuthor();\n      IMatryxPeer(author).receiveReferenceRequest(msg.sender, _reference);\n      submission.receiveReferenceRequest();\n  }\n\n  function handleCancelledReferenceRequestForSubmission(address _reference) public onlySubmission returns (bool)\n  {\n    require(isSubmission(_reference));\n    IMatryxSubmission submission = IMatryxSubmission(_reference);\n    address author = submission.getAuthor();\n    IMatryxPeer(author).receiveCancelledReferenceRequest(msg.sender, _reference);\n    submission.cancelReferenceRequest();\n  }\n\n  function updateUsersTournaments(address _owner, address _tournament) internal\n  {\n    entrantToTournamentArray[_owner].push(_tournament);\n  }\n\n  function updateSubmissions(address _owner, address _submission) public onlyTournament\n  {\n    ownerToSubmissionToSubmissionIndex[_owner][_submission] = uint256_optional({exists:true, value:ownerToSubmissionArray[_owner].length});\n    ownerToSubmissionArray[_owner].push(_submission);\n    addressToOwnsSubmission[_owner][_submission] = true;\n    submissionExists[_submission] = true;\n  }\n\n  function removeSubmission(address _submissionAddress, address _tournamentAddress) public returns (bool)\n  {\n    require(addressToOwnsSubmission[msg.sender][_submissionAddress]);\n    require(tournamentExists[_tournamentAddress]);\n    require(submissionExists[_submissionAddress]);\n\n      IMatryxSubmission submission = IMatryxSubmission(_submissionAddress);\n      address owner = Ownable(_submissionAddress).getOwner();\n      uint256 submissionIndex = ownerToSubmissionToSubmissionIndex[owner][_submissionAddress].value;\n\n      submissionExists[_submissionAddress] = false;\n      delete ownerToSubmissionArray[owner][submissionIndex];\n      delete ownerToSubmissionToSubmissionIndex[owner][_submissionAddress];\n\n      IMatryxTournament(_tournamentAddress).removeSubmission(_submissionAddress, owner);\n      return true;\n  }\n\n  function addTournamentToCategory(address _tournamentAddress, string _category) internal\n  {\n    bytes32 hashOfCategory = keccak256(_category);\n    // If this is the first tournament in its category\n    if(categoryIterator[hashOfCategory].count == 0)\n    {\n      // Push the new category to a list of categories\n      categoryList.push(_category);\n\n      // If its the first category ever\n      if(hashOfTopCategory == 0x0)\n      {\n        // Update the top category pointer\n        hashOfTopCategory = hashOfCategory;\n        hashOfLastCategory = hashOfCategory;\n        // Create a new entry in the iterator for it and don't store previous or next pointers\n        categoryIterator[hashOfCategory] = category({name: _category, count: 1, prev: 0x0, next: 0x0, tournaments: new address[](0)});\n        // Store the mapping from count 1 to this category\n         topCategoryByCount[1] = hashOfCategory;\n      }\n      else\n      {\n        // If this is not the first category ever,\n        // Create a new iterator entry, complete with a prev pointer to the previous last category\n        categoryIterator[hashOfCategory] = category({name: _category, count: 1, prev: hashOfLastCategory, next: 0x0, tournaments: new address[](0)});\n        // Update that previous last category's next pointer (there's one more after it now)\n        categoryIterator[hashOfLastCategory].next = hashOfCategory;\n\n        if( topCategoryByCount[1] == 0x0)\n        {\n           topCategoryByCount[1] = hashOfCategory;\n        }\n      }\n\n      // Push to the tournaments list for this category\n      categoryIterator[hashOfCategory].tournaments.push(_tournamentAddress);\n      // Update the last category pointer\n      hashOfLastCategory = hashOfCategory;\n      return;\n    }\n\n    categoryIterator[hashOfCategory].tournaments.push(_tournamentAddress);\n\n    uint256 categoryCount = categoryIterator[hashOfCategory].count;\n    // If this category has the top relative count (category.prev.count > category.count):\n    //  If category.next exists, the top category for our previous count becomes category.next,\n    //  otherwise (category.next doesn't exist), the top category for our previous count\n    //  we set to 0x0.\n    // if( topCategoryByCount[categoryCount] == hashOfCategory)\n    // {\n    //   if(categoryIterator[hashOfCategory].next != 0x0)\n    //   {\n    //      topCategoryByCount[categoryCount] = categoryIterator[hashOfCategory].next;\n    //   }\n    //   else\n    //   {\n    //      topCategoryByCount[categoryCount] = 0x0;\n    //   }\n    // }\n\n    uint128 newCount = categoryIterator[hashOfCategory].count + 1;\n    categoryIterator[hashOfCategory].count = newCount;\n\n    // If the top category for our new count is not defined, \n    // define it as this category.\n    if( topCategoryByCount[newCount] == 0)\n    {\n       topCategoryByCount[newCount] = hashOfCategory;\n    }\n\n    // If the count of the category is now greater than the previous category\n    // swap it with the top category of its count.\n    if(categoryIterator[hashOfCategory].prev != 0x0)\n    {\n      if(categoryIterator[hashOfCategory].count > categoryIterator[categoryIterator[hashOfCategory].prev].count)\n      {\n        // define A as the top category of its count\n        bytes32 hashOfTopA =  topCategoryByCount[categoryIterator[hashOfCategory].count-1];\n        if(hashOfTopA == hashOfTopCategory)\n        {\n          hashOfTopCategory = hashOfCategory;\n        }\n\n        if(hashOfCategory == hashOfLastCategory)\n        {\n          //update pointer to hash of last category\n          hashOfLastCategory = hashOfTopA;\n        }\n\n        //flip the two categories and rearrange the pointers\n        category storage A = categoryIterator[hashOfTopA];\n        category storage B = categoryIterator[hashOfCategory];\n\n        bool adjacent = A.next == hashOfCategory;\n        bytes32 Bprev = B.prev;\n        bytes32 Anext = A.next;\n\n        A.next = B.next;\n        B.prev = A.prev;\n\n        if(A.prev != 0x0)\n        {\n          categoryIterator[A.prev].next = hashOfCategory;\n        }\n        if(B.next != 0x0)\n        {\n          categoryIterator[B.next].prev = hashOfTopA;\n        }\n        \n        if(adjacent)\n        {\n          A.prev = hashOfCategory;\n          B.next = hashOfTopA;\n        }\n        else\n        {\n          A.prev = Bprev;\n          B.next = Anext;\n          if(Bprev != 0x0)\n          {\n            categoryIterator[Bprev].next = hashOfTopA;\n          }\n          if(Anext != 0x0)\n          {\n            categoryIterator[Anext].prev = hashOfCategory;\n          }\n        }\n      }\n    }\n\n    //update top category by count\n      if(categoryIterator[hashOfCategory].next != 0x0)\n      {\n         topCategoryByCount[categoryCount] = categoryIterator[hashOfCategory].next;\n      }\n      else\n      {\n         topCategoryByCount[categoryCount] = 0x0;\n      }\n  }\n\n  function getTournamentsByCategory(string _category) external constant returns (address[])\n  {\n    return categoryIterator[keccak256(_category)].tournaments;\n  }\n\n  function getCategoryCount(string _category) external constant returns (uint256)\n  {\n    return categoryIterator[keccak256(_category)].count;\n  }\n\n  //Get the index-th topmost category (index 0 returns the overall top category)\n  function getTopCategory(uint256 _index) external constant returns (string)\n  {\n    bytes32 categoryHash = hashOfTopCategory;\n    string storage categoryName  = categoryIterator[categoryHash].name;\n\n    for(uint256 i = 1; i <= _index; i++)\n    {\n      categoryHash = categoryIterator[categoryHash].next;\n      categoryName = categoryIterator[categoryHash].name;\n    \n      if(categoryHash == 0x0)\n      {\n        break;\n      }\n    }\n\n    return categoryName;\n  }\n\n  function getCategoryByIndex(uint256 _index) public constant returns (string)\n  {\n    return categoryList[_index];\n  }\n\n  // function switchTournamentCategory(string discipline) onlyTournament public\n  // {\n  //   revert();\n  // }\n\n  /* \n   * Tournament Entry Methods\n   */\n\n  /// @dev Enter the user into a tournament and charge the entry fee.\n  /// @param _tournamentAddress Address of the tournament to enter into.\n  /// @return _success Whether or not user was successfully entered into the tournament.\n  function enterTournament(address _tournamentAddress) public onlyPeerLinked(msg.sender) returns (bool _success)\n  {\n      require(tournamentExists[_tournamentAddress]);\n      \n      IMatryxTournament tournament = IMatryxTournament(_tournamentAddress);\n      uint256 entryFee = tournament.getEntryFee();\n\n      bool success = IMatryxToken(matryxTokenAddress).transferFrom(msg.sender, _tournamentAddress, entryFee);\n      if(success)\n      {\n        success = tournament.enterUserInTournament(msg.sender);\n        if(success)\n        {\n          UserEnteredTournament(msg.sender, _tournamentAddress);\n        }\n      }\n\n      return success;\n  }\n\n  /* \n   * Tournament Admin Methods\n   */\n\n  /// @dev Create a new tournament.\n  /// @param tournamentData Data to populate the new tournament with. Includes:\n  ///    category: Discipline the tournament falls under.\n  ///    title: Name of the new tournament.\n  ///    contentHash: Off-chain content hash of tournament details (ipfs hash)\n  ///    Bounty: Total tournament reward in MTX.\n  ///    entryFee: Fee to charge participant upon entering into the tournament.\n  /// @param roundData Data to populate the first round of the tournament with. Includes:\n  ///    startTime: The start time (unix-epoch-based) of the first round.\n  ///    endTime: The end time (unix-epoch-based) of the first round.\n  ///    reviewDuration: The amount of the tournament owner has to determine the winners of the round.\n  ///    bounty: The reward for the first round's winners.\n  /// @return _tournamentAddress Address of the newly created tournament.\n  function createTournament(string _category, LibConstruction.TournamentData tournamentData, LibConstruction.RoundData roundData) returns (address _tournamentAddress)\n  {\n    IMatryxTournamentFactory tournamentFactory = IMatryxTournamentFactory(matryxTournamentFactoryAddress);\n    address newTournament = tournamentFactory.createTournament(tournamentData, roundData, msg.sender);\n    //MatryxToken.transferFrom(newTournament, **round_address**, uint256 bounty);\n    TournamentCreated(_category, msg.sender, newTournament, tournamentData.title_1, tournamentData.title_2, tournamentData.title_3, tournamentData.contentHash_1, tournamentData.contentHash_2, tournamentData.Bounty, tournamentData.entryFee);\n    \n    addTournamentToCategory(newTournament, _category);\n\n    require(IMatryxToken(matryxTokenAddress).transferFrom(msg.sender, newTournament, tournamentData.Bounty));\n    IMatryxTournament(newTournament).sendBountyToRound(0, roundData.bounty);\n    //update data structures\n    allTournaments.push(newTournament);\n    tournamentExists[newTournament] = true;\n    updateUsersTournaments(msg.sender, newTournament);\n\n    return newTournament;\n  }\n\n  /*\n   * Access Control Methods\n   */\n\n  function createPeer() public returns (address)\n  {\n    require(ownerToPeerAndPeerToOwner[msg.sender] == 0x0);\n    IMatryxPeerFactory peerFactory = IMatryxPeerFactory(matryxPeerFactoryAddress);\n    address peer = peerFactory.createPeer(msg.sender);\n    peerExists[peer] = true;\n    ownerToPeerAndPeerToOwner[msg.sender] = peer;\n    ownerToPeerAndPeerToOwner[peer] = msg.sender;\n  }\n\n  function isPeer(address _peerAddress) public constant returns (bool)\n  {\n    return peerExists[_peerAddress];\n  }\n\n  function hasPeer(address _sender) public constant returns (bool)\n  {\n    return (ownerToPeerAndPeerToOwner[_sender] != 0x0);\n  }\n\n  function peerExistsAndOwnsSubmission(address _peer, address _reference) public constant returns (bool)\n  {\n    bool isAPeer = peerExists[_peer];\n    bool referenceIsSubmission = submissionExists[_reference];\n    bool peerOwnsSubmission = addressToOwnsSubmission[ownerToPeerAndPeerToOwner[_peer]][_reference];\n\n    return isAPeer && referenceIsSubmission && peerOwnsSubmission;\n  }\n\n  function peerAddress(address _sender) public constant returns (address)\n  {\n    return ownerToPeerAndPeerToOwner[_sender];\n  }\n\n  function isSubmission(address _submissionAddress) public constant returns (bool)\n  {\n    return submissionExists[_submissionAddress];\n  }\n\n  function hashForCategory(bytes32 _categoryHash) public constant returns (string _category)\n  {\n    return \"temporary category\";\n  }\n\n  /// @dev Returns whether or not the given tournament belongs to the sender.\n  /// @param _tournamentAddress Address of the tournament to check.\n  /// @return _isMine Whether or not the tournament belongs to the sender.\n  function getTournament_IsMine(address _tournamentAddress) public constant returns (bool _isMine)\n  {\n    require(tournamentExists[_tournamentAddress]);\n    Ownable tournament = Ownable(_tournamentAddress);\n    return (tournament.getOwner() == msg.sender);\n  }\n\n  /*\n   * Setter Methods\n   */ \n\n    /// @dev              Set the relative amount of MTX to be delivered to a submission's\n    ///                   references\n    /// @param _gratitude Weight from 0 to 1 (18 decimal uint) specifying enforced submission \n    ///                   gratitude\n    function setSubmissionGratitude(uint256 _gratitude) public onlyOwner\n    {\n        assert(_gratitude >= 0 && _gratitude <= (1*10**18));\n        submissionGratitude = uint256_optional({exists: true, value: _gratitude});\n    }\n\n  /*\n   * Getter Methods\n   */\n\n   function getTokenAddress() public constant returns (address)\n   {\n      return matryxTokenAddress;\n   }\n\n   function getSubmissionTrustLibrary() public constant returns (address)\n   {\n      return matryxSubmissionTrustLibAddress;\n   }\n\n   /// @dev    Returns a weight from 0 to 1 (18 decimal uint) indicating\n   ///         how much of a submission's reward goes to its references.\n   /// @return Relative amount of MTX going to references of submissions under this tournament.\n   function getSubmissionGratitude() public constant returns (uint256)\n   {\n      require(submissionGratitude.exists);\n      return submissionGratitude.value;\n   }\n\n   /// @dev Returns addresses for submissions the sender has created.\n   /// @return Address array representing submissions.\n   function myTournaments() public constant returns (address[])\n   {\n      return entrantToTournamentArray[msg.sender];\n   }\n\n   function mySubmissions() public constant returns (address[])\n   {\n    return ownerToSubmissionArray[msg.sender];\n   }\n\n   /// @dev Returns the total number of tournaments\n   /// @return _tournamentCount Total number of tournaments.\n   function tournamentCount() public constant returns (uint256 _tournamentCount)\n   {\n       return allTournaments.length;\n   }\n \n   function getTournamentAtIndex(uint256 _index) public constant returns (address _tournamentAddress)\n   {\n     require(_index >= 0);\n     require(_index < allTournaments.length);\n     return allTournaments[_index];\n   }\n}",
  "sourcePath": "/Users/maxhoward/Desktop/Ethereum/Development/Matryx/Projects/MatryxPlatform/contracts/MatryxPlatform.sol",
  "compiler": {
    "name": "solc",
    "version": "0.4.24+commit.e67f0147.Emscripten.clang"
  },
  "schemaVersion": "2.0.0",
  "updatedAt": "2018-06-20T21:38:30.416Z"
}