{
  "contractName": "MatryxRound",
  "abi": [
    {
      "constant": true,
      "inputs": [],
      "name": "tournamentAddress",
      "outputs": [
        {
          "name": "",
          "type": "address"
        }
      ],
      "payable": false,
      "stateMutability": "view",
      "type": "function"
    },
    {
      "constant": true,
      "inputs": [],
      "name": "matryxTokenAddress",
      "outputs": [
        {
          "name": "",
          "type": "address"
        }
      ],
      "payable": false,
      "stateMutability": "view",
      "type": "function"
    },
    {
      "constant": true,
      "inputs": [
        {
          "name": "_sender",
          "type": "address"
        }
      ],
      "name": "isOwner",
      "outputs": [
        {
          "name": "_isOwner",
          "type": "bool"
        }
      ],
      "payable": false,
      "stateMutability": "view",
      "type": "function"
    },
    {
      "constant": true,
      "inputs": [],
      "name": "reviewPeriod",
      "outputs": [
        {
          "name": "",
          "type": "uint256"
        }
      ],
      "payable": false,
      "stateMutability": "view",
      "type": "function"
    },
    {
      "constant": true,
      "inputs": [],
      "name": "nextRound",
      "outputs": [
        {
          "name": "",
          "type": "address"
        }
      ],
      "payable": false,
      "stateMutability": "view",
      "type": "function"
    },
    {
      "constant": true,
      "inputs": [],
      "name": "closed",
      "outputs": [
        {
          "name": "",
          "type": "bool"
        }
      ],
      "payable": false,
      "stateMutability": "view",
      "type": "function"
    },
    {
      "constant": true,
      "inputs": [],
      "name": "roundIndex",
      "outputs": [
        {
          "name": "",
          "type": "uint256"
        }
      ],
      "payable": false,
      "stateMutability": "view",
      "type": "function"
    },
    {
      "constant": true,
      "inputs": [
        {
          "name": "",
          "type": "uint256"
        }
      ],
      "name": "rewardDistribution",
      "outputs": [
        {
          "name": "",
          "type": "uint256"
        }
      ],
      "payable": false,
      "stateMutability": "view",
      "type": "function"
    },
    {
      "constant": true,
      "inputs": [],
      "name": "rewardDistributionTotal",
      "outputs": [
        {
          "name": "",
          "type": "uint256"
        }
      ],
      "payable": false,
      "stateMutability": "view",
      "type": "function"
    },
    {
      "constant": true,
      "inputs": [
        {
          "name": "",
          "type": "uint256"
        }
      ],
      "name": "winningSubmissions",
      "outputs": [
        {
          "name": "",
          "type": "address"
        }
      ],
      "payable": false,
      "stateMutability": "view",
      "type": "function"
    },
    {
      "constant": true,
      "inputs": [],
      "name": "getOwner",
      "outputs": [
        {
          "name": "_owner",
          "type": "address"
        }
      ],
      "payable": false,
      "stateMutability": "view",
      "type": "function"
    },
    {
      "constant": true,
      "inputs": [],
      "name": "owner",
      "outputs": [
        {
          "name": "",
          "type": "address"
        }
      ],
      "payable": false,
      "stateMutability": "view",
      "type": "function"
    },
    {
      "constant": true,
      "inputs": [],
      "name": "bounty",
      "outputs": [
        {
          "name": "",
          "type": "uint256"
        }
      ],
      "payable": false,
      "stateMutability": "view",
      "type": "function"
    },
    {
      "constant": true,
      "inputs": [],
      "name": "matryxSubmissionFactoryAddress",
      "outputs": [
        {
          "name": "",
          "type": "address"
        }
      ],
      "payable": false,
      "stateMutability": "view",
      "type": "function"
    },
    {
      "constant": true,
      "inputs": [],
      "name": "previousRound",
      "outputs": [
        {
          "name": "",
          "type": "address"
        }
      ],
      "payable": false,
      "stateMutability": "view",
      "type": "function"
    },
    {
      "constant": true,
      "inputs": [],
      "name": "platformAddress",
      "outputs": [
        {
          "name": "",
          "type": "address"
        }
      ],
      "payable": false,
      "stateMutability": "view",
      "type": "function"
    },
    {
      "constant": false,
      "inputs": [
        {
          "name": "newOwner",
          "type": "address"
        }
      ],
      "name": "transferOwnership",
      "outputs": [],
      "payable": false,
      "stateMutability": "nonpayable",
      "type": "function"
    },
    {
      "inputs": [
        {
          "name": "_platformAddress",
          "type": "address"
        },
        {
          "name": "_matryxTokenAddress",
          "type": "address"
        },
        {
          "name": "_tournamentAddress",
          "type": "address"
        },
        {
          "name": "_submissionFactoryAddress",
          "type": "address"
        },
        {
          "name": "_owner",
          "type": "address"
        },
        {
          "name": "_roundIndex",
          "type": "uint256"
        },
        {
          "components": [
            {
              "name": "start",
              "type": "uint256"
            },
            {
              "name": "end",
              "type": "uint256"
            },
            {
              "name": "reviewDuration",
              "type": "uint256"
            },
            {
              "name": "bounty",
              "type": "uint256"
            }
          ],
          "name": "roundData",
          "type": "tuple"
        }
      ],
      "payable": false,
      "stateMutability": "nonpayable",
      "type": "constructor"
    },
    {
      "constant": true,
      "inputs": [],
      "name": "getState",
      "outputs": [
        {
          "name": "",
          "type": "uint256"
        }
      ],
      "payable": false,
      "stateMutability": "view",
      "type": "function"
    },
    {
      "constant": true,
      "inputs": [
        {
          "name": "_submissionAddress",
          "type": "address"
        }
      ],
      "name": "submissionIsAccessible",
      "outputs": [
        {
          "name": "",
          "type": "bool"
        }
      ],
      "payable": false,
      "stateMutability": "view",
      "type": "function"
    },
    {
      "constant": true,
      "inputs": [
        {
          "name": "_index",
          "type": "uint256"
        }
      ],
      "name": "submissionIsAccessible",
      "outputs": [
        {
          "name": "",
          "type": "bool"
        }
      ],
      "payable": false,
      "stateMutability": "view",
      "type": "function"
    },
    {
      "constant": true,
      "inputs": [
        {
          "name": "_requester",
          "type": "address"
        }
      ],
      "name": "requesterIsContributor",
      "outputs": [
        {
          "name": "",
          "type": "bool"
        }
      ],
      "payable": false,
      "stateMutability": "view",
      "type": "function"
    },
    {
      "constant": false,
      "inputs": [
        {
          "name": "_participantAddress",
          "type": "address"
        },
        {
          "name": "_type",
          "type": "uint256"
        }
      ],
      "name": "setParticipantType",
      "outputs": [],
      "payable": false,
      "stateMutability": "nonpayable",
      "type": "function"
    },
    {
      "constant": true,
      "inputs": [],
      "name": "getPlatform",
      "outputs": [
        {
          "name": "",
          "type": "address"
        }
      ],
      "payable": false,
      "stateMutability": "view",
      "type": "function"
    },
    {
      "constant": true,
      "inputs": [],
      "name": "getTournament",
      "outputs": [
        {
          "name": "",
          "type": "address"
        }
      ],
      "payable": false,
      "stateMutability": "view",
      "type": "function"
    },
    {
      "constant": true,
      "inputs": [],
      "name": "getStartTime",
      "outputs": [
        {
          "name": "",
          "type": "uint256"
        }
      ],
      "payable": false,
      "stateMutability": "view",
      "type": "function"
    },
    {
      "constant": true,
      "inputs": [],
      "name": "getEndTime",
      "outputs": [
        {
          "name": "",
          "type": "uint256"
        }
      ],
      "payable": false,
      "stateMutability": "view",
      "type": "function"
    },
    {
      "constant": true,
      "inputs": [],
      "name": "getBounty",
      "outputs": [
        {
          "name": "",
          "type": "uint256"
        }
      ],
      "payable": false,
      "stateMutability": "view",
      "type": "function"
    },
    {
      "constant": true,
      "inputs": [],
      "name": "remainingBounty",
      "outputs": [
        {
          "name": "",
          "type": "uint256"
        }
      ],
      "payable": false,
      "stateMutability": "view",
      "type": "function"
    },
    {
      "constant": true,
      "inputs": [],
      "name": "getTokenAddress",
      "outputs": [
        {
          "name": "",
          "type": "address"
        }
      ],
      "payable": false,
      "stateMutability": "view",
      "type": "function"
    },
    {
      "constant": true,
      "inputs": [],
      "name": "getSubmissions",
      "outputs": [
        {
          "name": "_submissions",
          "type": "address[]"
        }
      ],
      "payable": false,
      "stateMutability": "view",
      "type": "function"
    },
    {
      "constant": true,
      "inputs": [
        {
          "name": "_index",
          "type": "uint256"
        }
      ],
      "name": "getSubmissionAddress",
      "outputs": [
        {
          "name": "_submissionAddress",
          "type": "address"
        }
      ],
      "payable": false,
      "stateMutability": "view",
      "type": "function"
    },
    {
      "constant": true,
      "inputs": [
        {
          "name": "_index",
          "type": "uint256"
        }
      ],
      "name": "getSubmissionAuthor",
      "outputs": [
        {
          "name": "",
          "type": "address"
        }
      ],
      "payable": false,
      "stateMutability": "view",
      "type": "function"
    },
    {
      "constant": true,
      "inputs": [
        {
          "name": "_submissionAddress",
          "type": "address"
        }
      ],
      "name": "getBalance",
      "outputs": [
        {
          "name": "",
          "type": "uint256"
        }
      ],
      "payable": false,
      "stateMutability": "view",
      "type": "function"
    },
    {
      "constant": true,
      "inputs": [],
      "name": "getRoundBalance",
      "outputs": [
        {
          "name": "",
          "type": "uint256"
        }
      ],
      "payable": false,
      "stateMutability": "view",
      "type": "function"
    },
    {
      "constant": true,
      "inputs": [],
      "name": "submissionsChosen",
      "outputs": [
        {
          "name": "",
          "type": "bool"
        }
      ],
      "payable": false,
      "stateMutability": "view",
      "type": "function"
    },
    {
      "constant": true,
      "inputs": [],
      "name": "getWinningSubmissionAddresses",
      "outputs": [
        {
          "name": "",
          "type": "address[]"
        }
      ],
      "payable": false,
      "stateMutability": "view",
      "type": "function"
    },
    {
      "constant": true,
      "inputs": [],
      "name": "numberOfSubmissions",
      "outputs": [
        {
          "name": "",
          "type": "uint256"
        }
      ],
      "payable": false,
      "stateMutability": "view",
      "type": "function"
    },
    {
      "constant": false,
      "inputs": [
        {
          "name": "_submissionAddresses",
          "type": "address[]"
        },
        {
          "name": "_rewardDistribution",
          "type": "uint256[]"
        }
      ],
      "name": "selectWinningSubmissions",
      "outputs": [],
      "payable": false,
      "stateMutability": "nonpayable",
      "type": "function"
    },
    {
      "constant": false,
      "inputs": [
        {
          "name": "_contributors",
          "type": "address[]"
        },
        {
          "name": "_contributorRewardDistribution",
          "type": "uint128[]"
        },
        {
          "name": "_references",
          "type": "address[]"
        },
        {
          "name": "_author",
          "type": "address"
        },
        {
          "components": [
            {
              "name": "title",
              "type": "string"
            },
            {
              "name": "owner",
              "type": "address"
            },
            {
              "name": "contentHash",
              "type": "bytes"
            },
            {
              "name": "isPublic",
              "type": "bool"
            }
          ],
          "name": "submissionData",
          "type": "tuple"
        }
      ],
      "name": "createSubmission",
      "outputs": [
        {
          "name": "_submissionAddress",
          "type": "address"
        }
      ],
      "payable": false,
      "stateMutability": "nonpayable",
      "type": "function"
    },
    {
      "constant": false,
      "inputs": [],
      "name": "transferBountyToTournament",
      "outputs": [],
      "payable": false,
      "stateMutability": "nonpayable",
      "type": "function"
    },
    {
      "constant": false,
      "inputs": [],
      "name": "pullPayoutIntoSubmission",
      "outputs": [
        {
          "name": "",
          "type": "uint256"
        }
      ],
      "payable": false,
      "stateMutability": "nonpayable",
      "type": "function"
    }
  ],
  "bytecode": "0x60806040523480156200001157600080fd5b5060405161014080620027c183398101806040526200003491908101906200017a565b6000805460048054600160a060020a038a8116600160a060020a031992831617909255600180548c8416908316179055600280548a84169083161790558682169281163317811692909217909255600584905560038054928716929091169190911790556060810151600b55805160208201516040830151620000c2929190640100000000620000cf810204565b505050505050506200025d565b600892909255600955600a55565b6000620000eb82516200024e565b9392505050565b6000608082840312156200010557600080fd5b62000111608062000226565b905060006200012184846200016c565b825250602062000134848483016200016c565b60208301525060406200014a848285016200016c565b604083015250606062000160848285016200016c565b60608301525092915050565b6000620000eb82516200025a565b6000806000806000806000610140888a0312156200019757600080fd5b6000620001a58a8a620000dd565b9750506020620001b88a828b01620000dd565b9650506040620001cb8a828b01620000dd565b9550506060620001de8a828b01620000dd565b9450506080620001f18a828b01620000dd565b93505060a0620002048a828b016200016c565b92505060c0620002178a828b01620000f2565b91505092959891949750929550565b60405181810167ffffffffffffffff811182821017156200024657600080fd5b604052919050565b600160a060020a031690565b90565b612554806200026d6000396000f3006080604052600436106101f85763ffffffff7c010000000000000000000000000000000000000000000000000000000060003504166303d66a9781146101fd57806307417cf1146102285780630befb0a51461023f57806310fe9ae81461026157806311fb48041461027657806314e62704146102a35780631865c57d146102c35780631cdb7de5146102d8578063241b15ad146102f857806329cc545e1461030d5780632f54bf6e146103225780632fc1f19014610342578063315ce95314610357578063389994f91461036c5780633b249810146103815780633d62278014610396578063439f5ac2146103b657806347e40553146103cb57806354f6aa20146103e057806356974da314610402578063597e1fb514610422578063648036ae146104375780637d36f7661461044c5780637d7580721461046c5780637df2d748146104815780638499a138146104a15780638734fe4c146104c1578063893d20e8146104e15780638da5cb5b146104f6578063943dfef11461050b578063b0ff549214610520578063b288e1a914610535578063c828371e1461054a578063dbe55e561461055f578063df4f9dba14610574578063e76c293e14610594578063e9e8b4461461023f578063ed098460146105a9578063f2fde38b146105be578063f49bff7b146105de578063f8b2cb4f146105f3575b600080fd5b34801561020957600080fd5b50610212610613565b60405161021f9190612300565b60405180910390f35b34801561023457600080fd5b5061023d61062f565b005b34801561024b57600080fd5b5061025461070f565b60405161021f91906123d6565b34801561026d57600080fd5b506102126107bf565b34801561028257600080fd5b50610296610291366004611f00565b6107db565b60405161021f919061239f565b3480156102af57600080fd5b5061023d6102be366004612052565b6108bf565b3480156102cf57600080fd5b50610254610bc3565b3480156102e457600080fd5b5061023d6102f3366004611f44565b610c8a565b34801561030457600080fd5b50610254610cd1565b34801561031957600080fd5b50610212610cdb565b34801561032e57600080fd5b5061029661033d366004611f00565b610cf7565b34801561034e57600080fd5b50610212610d18565b34801561036357600080fd5b50610254610d34565b34801561037857600080fd5b5061029661109e565b34801561038d57600080fd5b506102546110d9565b3480156103a257600080fd5b506102126103b13660046120cf565b6110df565b3480156103c257600080fd5b5061025461128f565b3480156103d757600080fd5b50610212611295565b3480156103ec57600080fd5b506103f56112b1565b60405161021f9190612329565b34801561040e57600080fd5b5061029661041d3660046120cf565b611320565b34801561042e57600080fd5b506102966113a3565b34801561044357600080fd5b506102546113ac565b34801561045857600080fd5b506102546104673660046120cf565b6113b2565b34801561047857600080fd5b506102546113d1565b34801561048d57600080fd5b5061021261049c3660046120cf565b6113d7565b3480156104ad57600080fd5b506102966104bc366004611f00565b61140c565b3480156104cd57600080fd5b506102126104dc366004611f7e565b611436565b3480156104ed57600080fd5b5061021261181c565b34801561050257600080fd5b50610212611838565b34801561051757600080fd5b50610254611854565b34801561052c57600080fd5b5061021261185a565b34801561054157600080fd5b50610212611876565b34801561055657600080fd5b50610254611892565b34801561056b57600080fd5b50610212611898565b34801561058057600080fd5b5061021261058f3660046120cf565b6118b4565b3480156105a057600080fd5b506102126118fb565b3480156105b557600080fd5b506103f5611917565b3480156105ca57600080fd5b5061023d6105d9366004611f00565b611984565b3480156105ea57600080fd5b50610254611a06565b3480156105ff57600080fd5b5061025461060e366004611f00565b611a0c565b60025473ffffffffffffffffffffffffffffffffffffffff1681565b60025473ffffffffffffffffffffffffffffffffffffffff16331461065357600080fd5b60045460025473ffffffffffffffffffffffffffffffffffffffff9182169163a9059cbb911661068161070f565b6040518363ffffffff167c01000000000000000000000000000000000000000000000000000000000281526004016106ba92919061230e565b602060405180830381600087803b1580156106d457600080fd5b505af11580156106e8573d6000803e3d6000fd5b505050506040513d601f19601f8201168201806040525061070c91908101906120b1565b50565b600480546040517f70a0823100000000000000000000000000000000000000000000000000000000815260009273ffffffffffffffffffffffffffffffffffffffff909216916370a0823191610767913091016123ad565b602060405180830381600087803b15801561078157600080fd5b505af1158015610795573d6000803e3d6000fd5b505050506040513d601f19601f820116820180604052506107b991908101906120ed565b90505b90565b60045473ffffffffffffffffffffffffffffffffffffffff1690565b73ffffffffffffffffffffffffffffffffffffffff8116600090815260136020526040812054819060ff16151561081157600080fd5b506040517fa52dd12f000000000000000000000000000000000000000000000000000000008152829073ffffffffffffffffffffffffffffffffffffffff82169063a52dd12f90610866903390600401612300565b602060405180830381600087803b15801561088057600080fd5b505af1158015610894573d6000803e3d6000fd5b505050506040513d601f19601f820116820180604052506108b891908101906120b1565b9392505050565b6000806000806108cd611b06565b60025473ffffffffffffffffffffffffffffffffffffffff1633146108f157600080fd5b60095415156108ff57600080fd5b6003610909610bc3565b1461091357600080fd5b855187511461092157600080fd5b86511515806109315750600c5415155b151561093c57600080fd5b8651156109b957865161095690600c9060208a0190611b2f565b50855161096a90600d906020890190611bae565b50600093505b600d548410156109b3576109a6600d8581548110151561098c57fe5b906000526020600020015486611abc90919063ffffffff16565b9450600190930192610970565b600e8590555b600480546002546040517f70a0823100000000000000000000000000000000000000000000000000000000815273ffffffffffffffffffffffffffffffffffffffff928316936370a0823193610a1193169101612300565b602060405180830381600087803b158015610a2b57600080fd5b505af1158015610a3f573d6000803e3d6000fd5b505050506040513d601f19601f82011682018060405250610a6391908101906120ed565b9150600b54821015610a7757819250610a7d565b600b5492505b601054610100900473ffffffffffffffffffffffffffffffffffffffff161515610bba575060408051608081018252600a54600954808201808452600854909103016020830152818301526060810184905260025491517f3809eba2000000000000000000000000000000000000000000000000000000008152909173ffffffffffffffffffffffffffffffffffffffff1690633809eba290610b279084906001906004016123bb565b602060405180830381600087803b158015610b4157600080fd5b505af1158015610b55573d6000803e3d6000fd5b505050506040513d601f19601f82011682018060405250610b799190810190611f26565b601060016101000a81548173ffffffffffffffffffffffffffffffffffffffff021916908373ffffffffffffffffffffffffffffffffffffffff1602179055505b50505050505050565b6000610bcd61070f565b1515610bed576009544210610be65760065b90506107bc565b6001610bdf565b600854421015610bfe576000610bdf565b60085442118015610c10575060095442105b15610c1c576002610bdf565b6009544210158015610c415750600a54600954610c3e9163ffffffff611abc16565b42105b15610c715760105460ff1615610c58576005610bdf565b600c5460001015610c6a576004610bdf565b6003610bdf565b600c5460001015610c83576005610bdf565b6006610bdf565b3360009081526013602052604090205460ff161515610ca857600080fd5b73ffffffffffffffffffffffffffffffffffffffff909116600090815260116020526040902055565b6016546014540390565b60045473ffffffffffffffffffffffffffffffffffffffff1681565b60005473ffffffffffffffffffffffffffffffffffffffff91821691161490565b60015473ffffffffffffffffffffffffffffffffffffffff1690565b336000908152601360205260408120548190819060ff161515610d5657600080fd5b6005610d60610bc3565b14610d6a57600080fd5b336000908152600f602052604090205460ff1615610d8757600080fd5b600260009054906101000a900473ffffffffffffffffffffffffffffffffffffffff1673ffffffffffffffffffffffffffffffffffffffff16631865c57d6040518163ffffffff167c0100000000000000000000000000000000000000000000000000000000028152600401602060405180830381600087803b158015610e0d57600080fd5b505af1158015610e21573d6000803e3d6000fd5b505050506040513d601f19601f82011682018060405250610e4591908101906120ed565b6005148015610e5b57506000610e5961070f565b115b15610eff57600260009054906101000a900473ffffffffffffffffffffffffffffffffffffffff1673ffffffffffffffffffffffffffffffffffffffff166326b3a1766040518163ffffffff167c0100000000000000000000000000000000000000000000000000000000028152600401600060405180830381600087803b158015610ee657600080fd5b505af1158015610efa573d6000803e3d6000fd5b505050505b600091505b600c5482101561109957600c805483908110610f1c57fe5b60009182526020909120015473ffffffffffffffffffffffffffffffffffffffff1633141561108e57336000908152600f6020526040902080547fffffffffffffffffffffffffffffffffffffffffffffffffffffffffffffff00166001179055600b54600e54600d8054610fdb9392610fcf929091610fc391670de0b6b3a76400009189908110610faa57fe5b9060005260206000200154611acb90919063ffffffff16565b9063ffffffff611aef16565b9063ffffffff611acb16565b600480546040517fa9059cbb00000000000000000000000000000000000000000000000000000000815292935073ffffffffffffffffffffffffffffffffffffffff169163a9059cbb9161103391339186910161230e565b602060405180830381600087803b15801561104d57600080fd5b505af1158015611061573d6000803e3d6000fd5b505050506040513d601f19601f8201168201806040525061108591908101906120b1565b50809250611099565b600190910190610f04565b505090565b6000600c60008154811015156110b057fe5b60009182526020909120015473ffffffffffffffffffffffffffffffffffffffff161515905090565b600a5481565b60008033836014818154811015156110f357fe5b6000918252602090912001546040517fa52dd12f00000000000000000000000000000000000000000000000000000000815273ffffffffffffffffffffffffffffffffffffffff9091169063a52dd12f90611152908590600401612300565b602060405180830381600087803b15801561116c57600080fd5b505af1158015611180573d6000803e3d6000fd5b505050506040513d601f19601f820116820180604052506111a491908101906120b1565b15156111af57600080fd5b60148054869081106111bd57fe5b9060005260206000200160009054906101000a900473ffffffffffffffffffffffffffffffffffffffff1692508273ffffffffffffffffffffffffffffffffffffffff1663a5faa1256040518163ffffffff167c0100000000000000000000000000000000000000000000000000000000028152600401602060405180830381600087803b15801561124e57600080fd5b505af1158015611262573d6000803e3d6000fd5b505050506040513d601f19601f820116820180604052506112869190810190611f26565b95945050505050565b60095490565b60075473ffffffffffffffffffffffffffffffffffffffff1681565b6060601480548060200260200160405190810160405280929190818152602001828054801561131657602002820191906000526020600020905b815473ffffffffffffffffffffffffffffffffffffffff1681526001909101906020018083116112eb575b5050505050905090565b6014546000908190831061133357600080fd5b601480548490811061134157fe5b6000918252602090912001546040517fa52dd12f00000000000000000000000000000000000000000000000000000000815273ffffffffffffffffffffffffffffffffffffffff9091169150819063a52dd12f90610866903390600401612300565b60105460ff1681565b60055481565b600d8054829081106113c057fe5b600091825260209091200154905081565b600e5481565b600c8054829081106113e557fe5b60009182526020909120015473ffffffffffffffffffffffffffffffffffffffff16905081565b73ffffffffffffffffffffffffffffffffffffffff16600090815260116020526040902054151590565b6000611440611bf5565b600254600090819073ffffffffffffffffffffffffffffffffffffffff16331461146957600080fd5b6002611473610bc3565b1461147d57600080fd5b73ffffffffffffffffffffffffffffffffffffffff8616151561149f57600080fd5b6040805160608101825260015473ffffffffffffffffffffffffffffffffffffffff908116825260025481166020830152308284015260035492517f867cda48000000000000000000000000000000000000000000000000000000008152919550919091169063867cda4890611521908c908c908c9089908c9060040161233a565b602060405180830381600087803b15801561153b57600080fd5b505af115801561154f573d6000803e3d6000fd5b505050506040513d601f19601f820116820180604052506115739190810190611f26565b604080518082018252600180825260148054602080850191825273ffffffffffffffffffffffffffffffffffffffff8716600081815260138352878120965187547fffffffffffffffffffffffffffffffffffffffffffffffffffffffffffffff001690151517875592519585019590955582549384019092557fce6d7b5282bd9a3661ae061feed1dbda4e52ab073b1f9285be6e155d9c38d4ec909201805473ffffffffffffffffffffffffffffffffffffffff19169093179092553381526012909152205490925015156116b2576020850151601580546001810182556000919091527f55f448fdea98c4d29eb340757ef0a66cd03dbb9538908a6a81d96026b71ec47501805473ffffffffffffffffffffffffffffffffffffffff191673ffffffffffffffffffffffffffffffffffffffff9092169190911790555b33600090815260126020908152604082208054600181018255908352912001805473ffffffffffffffffffffffffffffffffffffffff191673ffffffffffffffffffffffffffffffffffffffff8416179055600373ffffffffffffffffffffffffffffffffffffffff871660009081526011602052604081209190915590505b8851811015611787576002601160008b8481518110151561174f57fe5b602090810290910181015173ffffffffffffffffffffffffffffffffffffffff16825281019190915260400160002055600101611732565b6002546040517f4644c51b00000000000000000000000000000000000000000000000000000000815273ffffffffffffffffffffffffffffffffffffffff90911690634644c51b906117dd908590600401612300565b600060405180830381600087803b1580156117f757600080fd5b505af115801561180b573d6000803e3d6000fd5b50939b9a5050505050505050505050565b60005473ffffffffffffffffffffffffffffffffffffffff1690565b60005473ffffffffffffffffffffffffffffffffffffffff1681565b600b5481565b60035473ffffffffffffffffffffffffffffffffffffffff1681565b60065473ffffffffffffffffffffffffffffffffffffffff1681565b60085490565b60015473ffffffffffffffffffffffffffffffffffffffff1681565b60145460009082106118c557600080fd5b60148054839081106118d357fe5b60009182526020909120015473ffffffffffffffffffffffffffffffffffffffff1692915050565b60025473ffffffffffffffffffffffffffffffffffffffff1690565b6060600c8054806020026020016040519081016040528092919081815260200182805480156113165760200282019190600052602060002090815473ffffffffffffffffffffffffffffffffffffffff1681526001909101906020018083116112eb575050505050905090565b60005473ffffffffffffffffffffffffffffffffffffffff1633146119a857600080fd5b73ffffffffffffffffffffffffffffffffffffffff811615156119ca57600080fd5b6000805473ffffffffffffffffffffffffffffffffffffffff191673ffffffffffffffffffffffffffffffffffffffff92909216919091179055565b600b5490565b600480546040517f70a0823100000000000000000000000000000000000000000000000000000000815260009273ffffffffffffffffffffffffffffffffffffffff909216916370a0823191611a6491869101612300565b602060405180830381600087803b158015611a7e57600080fd5b505af1158015611a92573d6000803e3d6000fd5b505050506040513d601f19601f82011682018060405250611ab691908101906120ed565b92915050565b6000828201838110156108b857fe5b6000828202831580611ae75750828482811515611ae457fe5b04145b15156108b857fe5b6000808284811515611afd57fe5b04949350505050565b608060405190810160405280600081526020016000815260200160008152602001600081525090565b828054828255906000526020600020908101928215611b9e579160200282015b82811115611b9e578251825473ffffffffffffffffffffffffffffffffffffffff191673ffffffffffffffffffffffffffffffffffffffff909116178255602090920191600190910190611b4f565b50611baa929150611c15565b5090565b828054828255906000526020600020908101928215611be9579160200282015b82811115611be9578251825591602001919060010190611bce565b50611baa929150611c46565b604080516060810182526000808252602082018190529181019190915290565b6107bc91905b80821115611baa57805473ffffffffffffffffffffffffffffffffffffffff19168155600101611c1b565b6107bc91905b80821115611baa5760008155600101611c4c565b60006108b8823561247c565b60006108b8825161247c565b6000601f82018313611c8957600080fd5b8135611c9c611c978261240b565b6123e4565b91508181835260208401935060208101905083856020840282011115611cc157600080fd5b60005b83811015611ced5781611cd78882611c60565b8452506020928301929190910190600101611cc4565b5050505092915050565b6000601f82018313611d0857600080fd5b8135611d16611c978261240b565b91508181835260208401935060208101905083856020840282011115611d3b57600080fd5b60005b83811015611ced5781611d518882611edc565b8452506020928301929190910190600101611d3e565b6000601f82018313611d7857600080fd5b8135611d86611c978261240b565b91508181835260208401935060208101905083856020840282011115611dab57600080fd5b60005b83811015611ced5781611dc18882611ee8565b8452506020928301929190910190600101611dae565b60006108b88235612495565b60006108b88251612495565b6000601f82018313611e0057600080fd5b8135611e0e611c978261242c565b91508082526020830160208301858383011115611e2a57600080fd5b611e358382846124ba565b50505092915050565b600060808284031215611e5057600080fd5b611e5a60806123e4565b9050813567ffffffffffffffff811115611e7357600080fd5b611e7f84828501611def565b8252506020611e9084848301611c60565b602083015250604082013567ffffffffffffffff811115611eb057600080fd5b611ebc84828501611def565b6040830152506060611ed084828501611dd7565b60608301525092915050565b60006108b8823561249a565b60006108b882356107bc565b60006108b882516107bc565b600060208284031215611f1257600080fd5b6000611f1e8484611c60565b949350505050565b600060208284031215611f3857600080fd5b6000611f1e8484611c6c565b60008060408385031215611f5757600080fd5b6000611f638585611c60565b9250506020611f7485828601611ee8565b9150509250929050565b600080600080600060a08688031215611f9657600080fd5b853567ffffffffffffffff811115611fad57600080fd5b611fb988828901611c78565b955050602086013567ffffffffffffffff811115611fd657600080fd5b611fe288828901611cf7565b945050604086013567ffffffffffffffff811115611fff57600080fd5b61200b88828901611c78565b935050606061201c88828901611c60565b925050608086013567ffffffffffffffff81111561203957600080fd5b61204588828901611e3e565b9150509295509295909350565b6000806040838503121561206557600080fd5b823567ffffffffffffffff81111561207c57600080fd5b61208885828601611c78565b925050602083013567ffffffffffffffff8111156120a557600080fd5b611f7485828601611d67565b6000602082840312156120c357600080fd5b6000611f1e8484611de3565b6000602082840312156120e157600080fd5b6000611f1e8484611ee8565b6000602082840312156120ff57600080fd5b6000611f1e8484611ef4565b6121148161247c565b82525050565b600061212582612478565b80845260208401935061213783612472565b60005b828110156121675761214d86835161210b565b61215682612472565b60209690960195915060010161213a565b5093949350505050565b600061217c82612478565b80845260208401935061218e83612472565b60005b82811015612167576121a48683516122ee565b6121ad82612472565b602096909601959150600101612191565b61211481612495565b60006121d282612478565b8084526121e68160208601602086016124c6565b6121ef816124f2565b9093016020019392505050565b612114816124af565b80516060830190612216848261210b565b506020820151612229602085018261210b565b50604082015161223c604085018261210b565b50505050565b8051608083019061225384826122f7565b50602082015161226660208501826122f7565b50604082015161227960408501826122f7565b50606082015161223c60608501826122f7565b80516080808452600091908401906122a482826121c7565b91505060208301516122b9602086018261210b565b50604083015184820360408601526122d182826121c7565b91505060608301516122e660608601826121be565b509392505050565b6121148161249a565b612114816107bc565b60208101611ab6828461210b565b6040810161231c828561210b565b6108b860208301846122f7565b602080825281016108b8818461211a565b60e0808252810161234b818861211a565b9050818103602083015261235f8187612171565b90508181036040830152612373818661211a565b90506123826060830185612205565b81810360c0830152612394818461228c565b979650505050505050565b60208101611ab682846121be565b60208101611ab682846121fc565b60a081016123c98285612242565b6108b860808301846121be565b60208101611ab682846122f7565b60405181810167ffffffffffffffff8111828210171561240357600080fd5b604052919050565b600067ffffffffffffffff82111561242257600080fd5b5060209081020190565b600067ffffffffffffffff82111561244357600080fd5b506020601f919091017fffffffffffffffffffffffffffffffffffffffffffffffffffffffffffffffe0160190565b60200190565b5190565b73ffffffffffffffffffffffffffffffffffffffff1690565b151590565b6fffffffffffffffffffffffffffffffff1690565b6000611ab68261247c565b82818337506000910152565b60005b838110156124e15781810151838201526020016124c9565b8381111561223c5750506000910152565b601f017fffffffffffffffffffffffffffffffffffffffffffffffffffffffffffffffe016905600a265627a7a72305820dd76d5670fb074127fc7c3c10ed33235b3b4593fedbd97ccbc749511cb3236b46c6578706572696d656e74616cf50037",
  "source": "pragma solidity ^0.4.18;\npragma experimental ABIEncoderV2;\n\nimport \"../libraries/math/SafeMath.sol\";\nimport \"../libraries/LibConstruction.sol\";\nimport \"../interfaces/IMatryxToken.sol\";\nimport \"../interfaces/IMatryxTournament.sol\";\nimport \"../interfaces/IMatryxRound.sol\";\nimport \"../interfaces/factories/IMatryxSubmissionFactory.sol\";\nimport \"../interfaces/IMatryxSubmission.sol\";\nimport \"./Ownable.sol\";\n\n/// @title MatryxRound - A round within a Matryx tournament.\n/// @author Max Howard - <max@nanome.ai>, Sam Hessenauer - <sam@nanome.ai>\ncontract MatryxRound is Ownable, IMatryxRound {\n    using SafeMath for uint256;\n\n    //TODO: allow for refunds\n    // TODO: condense and put in structs\n    address public platformAddress;\n    address public tournamentAddress;\n    address public matryxSubmissionFactoryAddress;\n    address public matryxTokenAddress;\n\n    uint256 public roundIndex;\n    address public previousRound;\n    address public nextRound;\n    uint256 startTime;\n    uint256 endTime;\n    uint256 public reviewPeriod;\n    uint256 public bounty;\n    address[] public winningSubmissions;\n    uint256[] public rewardDistribution;\n    uint256 public rewardDistributionTotal;\n    mapping(address=>bool) submissionToHasBeenPayed;\n    bool public closed;\n    address newRound;\n\n    mapping(address=>uint) addressToParticipantType;\n    mapping(address=>address[]) authorToSubmissionAddress;\n    mapping(address=>uint256_optional) addressToSubmissionIndex;\n    address[] submissions;\n    address[] submissionOwners;\n    uint256 numberSubmissionsRemoved;\n\n\tconstructor(address _platformAddress, address _matryxTokenAddress, address _tournamentAddress, address _submissionFactoryAddress, address _owner, uint256 _roundIndex, LibConstruction.RoundData roundData) public\n\t{\n\t\tmatryxTokenAddress = _matryxTokenAddress;\n\t\tplatformAddress = _platformAddress;\n\t\ttournamentAddress = _tournamentAddress;\n\t\towner = _owner;\n        roundIndex = _roundIndex;\n\t\tmatryxSubmissionFactoryAddress = _submissionFactoryAddress;\n\t\tbounty = roundData.bounty;\n        \n\t\tscheduleStart(roundData.start, roundData.end, roundData.reviewDuration);\n\t}\n\n\t/*\n\t * Structs\n\t */\n\n\tstruct uint256_optional\n    {\n        bool exists;\n        uint256 value;\n    }\n\n    /*\n     * Enums\n     */\n    enum RoundState { NotYetOpen, Unfunded, Open, InReview, HasWinners, Closed, Abandoned }\n\tenum ParticipantType { nonentrant, entrant, contributor, author }\n\n\t/*\n     * Modifiers\n     */\n\n    /// @dev Requires that this round is in the open submission state.\n\tmodifier duringOpenSubmission()\n\t{\n\t\trequire(getState() == uint256(RoundState.Open));\n\t\t_;\n\t}\n\n\t/// @dev Requires that this round is in the winner selection state.\n\tmodifier duringReviewPeriod()\n\t{\n\t\trequire(endTime != 0);\n\t\trequire(getState() == uint256(RoundState.InReview));\n\t\t_;\n\t}\n\n\t// @dev Requires that a winner has been selected for this round.\n\t// modifier afterWinnerSelected()\n\t// {\n\t// \trequire(winningSubmissions[0] != 0x0);\n\t// \t_;\n\t// }\n\n    modifier onlySubmission()\n    {\n        require(addressToSubmissionIndex[msg.sender].exists);\n        _;\n    }\n\n    modifier onlyTournament()\n    {\n        require(msg.sender == tournamentAddress);\n        _;\n    }\n\n\t/// @dev Requires that the desired submission is accessible to the requester.\n    modifier whenAccessible(address _requester, uint256 _index)\n    {\n        require(IMatryxSubmission(submissions[_index]).isAccessible(_requester));\n        _;\n    }\n\n    function submissionExists(address _submissionAddress) internal returns (bool)\n    {\n        return addressToSubmissionIndex[_submissionAddress].exists;\n    }\n\n\t/// @dev Requires the function caller to be the platform or the owner of this tournament\n\t// modifier tournamentOrOwner()\n    // {\n    //     require((msg.sender == tournamentAddress)||(msg.sender == owner));\n    //     _;\n    // }\n\n\t// @dev Requires that the sender be the submission's author.\n\tmodifier onlySubmissionAuthor()\n\t{\n\t\trequire(authorToSubmissionAddress[msg.sender].length != 0);\n\t\t_;\n\t}\n\n\t/*\n\t * State Maintenance Methods\n\t */\n\n\t// function removeSubmission(address _submissionAddress) public onlyTournament returns (bool)\n\t// {\n\t// \tif(addressToSubmissionIndex[msg.sender].exists)\n\t// \t{\n\t// \t\tIMatryxSubmission submission = IMatryxSubmission(submissions[addressToSubmissionIndex[_submissionAddress].value]);\n\t// \t\taddress author = submission.getAuthor();\n\t// \t\tsubmission.deleteSubmission();\n\n\t// \t\tdelete authorToSubmissionAddress[author];\n\t// \t\tdelete submissions[addressToSubmissionIndex[_submissionAddress].value];\n\n\t// \t\tnumberSubmissionsRemoved = numberSubmissionsRemoved.add(1);\n\t// \t\treturn true;\n\t// \t}\n\n\t// \treturn false;\n\t// }\n\n\t/*\n     * Access Control Methods\n     */\n\n\t// @dev Returns the state of the round. \n\t// The round can be in one of 6 states:\n\t// NotYetOpen, Open, InReview, HasWinners, Closed, Abandoned\n    function getState() public view returns (uint256)\n    {\n        if(getRoundBalance() == 0)\n        {\n            if(now >= endTime)\n            {\n                return uint256(RoundState.Abandoned);\n            }\n\n            return uint256(RoundState.Unfunded);\n        }\n        else if(now < startTime)\n        {\n            return uint256(RoundState.NotYetOpen);\n        }\n        else if(now > startTime && now < endTime)\n        {\n            return uint256(RoundState.Open);\n        }\n        else if(now >= endTime && now < endTime.add(reviewPeriod))\n        {\n            if(closed)\n            {\n                return uint256(RoundState.Closed);\n            }\n            else if(winningSubmissions.length > 0)\n            {\n                return uint256(RoundState.HasWinners);\n            }\n\n            return uint256(RoundState.InReview);\n        }\n        else if(winningSubmissions.length > 0)\n        {\n            return uint256(RoundState.Closed);\n        }\n        else\n        {\n            return uint256(RoundState.Abandoned);\n        }\n    }\n\n\t/// @dev Returns whether or not the submission is accessible to the requester.\n\t/// @param _index Index of the submission being requested.\n    /// @return Whether or not the submission is accessible to the requester.\n\tfunction submissionIsAccessible(uint256 _index) public constant returns (bool)\n\t{\n\t\trequire(_index < submissions.length);\n\n\t\tIMatryxSubmission submission = IMatryxSubmission(submissions[_index]);\n\t\treturn submission.isAccessible(msg.sender);\n\t}\n\n\t/// @dev Returns whether or not the submission is accessible to the requester.\n\t/// @param _submissionAddress Address of the submission being requested.\n    /// @return Whether or not the submission is accessible to the requester.\n\tfunction submissionIsAccessible(address _submissionAddress) public view returns (bool)\n\t{\n\t\trequire(addressToSubmissionIndex[_submissionAddress].exists);\n\n\t\tIMatryxSubmission submission = IMatryxSubmission(_submissionAddress);\n\t\treturn submission.isAccessible(msg.sender);\n\t}\n\n\t/// @dev Returns true if the sender is an entrant in this round.\n\t/// @param _requester Address being tested.\n\t/// @return Whether or not the requester is a contributor in this round.\n\tfunction requesterIsContributor(address _requester) public constant returns (bool)\n\t{\n\t\treturn addressToParticipantType[_requester] != 0;\n\t}\n\n\tfunction setParticipantType(address _participantAddress, uint256 _type) public onlySubmission\n\t{\n\t\taddressToParticipantType[_participantAddress] = _type;\n\t}\n\n\t/*\n     * Getter Methods\n     */\n\n    function getPlatform() public constant returns (address) {\n\t\treturn platformAddress;\n\t}\n\n    function getTournament() public constant returns (address) {\n\t\treturn tournamentAddress;\n\t}\n\n    function getStartTime() public view returns (uint256)\n    {\n        return startTime;\n    }\n\n    function getEndTime() public view returns (uint256)\n    {\n        return endTime;\n    }\n\n    function getBounty() public constant returns (uint256) \n    { \n    \treturn bounty;\n    }\n\n    function remainingBounty() public constant returns (uint256)\n    {\n        return IMatryxToken(matryxTokenAddress).balanceOf(this);\n    }\n\n    function getTokenAddress() public constant returns (address)\n    {\n    \treturn matryxTokenAddress;\n    }\n\n\t/// @dev Returns all submissions made to this round.\n\t/// @return _submissions All submissions made to this round.\n\tfunction getSubmissions() public constant returns (address[] _submissions)\n\t{\n\t\treturn submissions;\n\t}\n\n\tfunction getSubmissionAddress(uint256 _index) public constant returns (address _submissionAddress)\n\t{\n\t\trequire(_index < submissions.length);\n\n\t\treturn submissions[_index];\n\t}\n\n\t/// @dev Returns the author of a submission.\n\t/// @param _index Index of the submission.\n\t/// @return Address of this submission's author.\n\tfunction getSubmissionAuthor(uint256 _index) public constant whenAccessible(msg.sender, _index) returns (address) \n\t{\n\t\tIMatryxSubmission submission = IMatryxSubmission(submissions[_index]);\n\t\treturn submission.getAuthor();\n\t}\n\n\t/// @dev Returns the balance of a particular submission\n\t/// @param _submissionAddress Address of the submission\n\t/// @return Balance of the bounty \n\tfunction getBalance(address _submissionAddress) public constant returns (uint256)\n\t{\n\t\treturn IMatryxToken(matryxTokenAddress).balanceOf(_submissionAddress);\n\t}\n\n    function getRoundBalance() public view returns (uint256)\n    {\n        return IMatryxToken(matryxTokenAddress).balanceOf(this);\n    }\n\n\t/// @dev Returns whether or not a winning submission has been chosen.\n\t/// @return Whether or not a submission has been chosen.\n\tfunction submissionsChosen() public constant returns (bool)\n\t{\n\t\treturn winningSubmissions[0] != 0x0;\n\t}\n\n\t/// @dev Returns the index of this round's winning submission.\n\t/// @return Index of the winning submission.\n\tfunction getWinningSubmissionAddresses() public constant returns (address[])\n\t{\n\t\treturn winningSubmissions;\n\t}\n\n\t/// @dev Returns the number of submissions made to this round.\n\t/// @return Number of submissions made to this round.\n\tfunction numberOfSubmissions() public constant returns (uint256)\n\t{\n\t\treturn submissions.length - numberSubmissionsRemoved;\n\t}\n\n\t/*\n     * Round Admin Methods\n     */\n\n\n\t/// @dev Starts the round (callable only by the owner of the round).\n\t/// @param _start Start time.\n\t/// @param _end End time.\n\t/// @param _reviewPeriod Time to review the round submissions\n\tfunction scheduleStart(uint256 _start, uint256 _end, uint256 _reviewPeriod) internal\n\t{\n\t\tstartTime = _start;\n\t\tendTime = _end;\n\t\treviewPeriod = _reviewPeriod;\n\t}\n\n\t/// @dev Choose a winning submission for the round (callable only by the owner of the round).\n    /// @param _submissionAddresses Index of the winning submission.\n    /// @param _rewardDistribution Distribution indicating how to split the reward among the submissions\n\tfunction selectWinningSubmissions(address[] _submissionAddresses, uint256[] _rewardDistribution) public onlyTournament duringReviewPeriod\n\t{\n\t\trequire(_submissionAddresses.length == _rewardDistribution.length);\n        require(_submissionAddresses.length != 0 || winningSubmissions.length != 0);\n\n        if(_submissionAddresses.length != 0)\n        {\n            winningSubmissions = _submissionAddresses;\n            rewardDistribution = _rewardDistribution;\n\n            uint256 _rewardDistributionTotal;\n            for(uint256 i = 0; i < rewardDistribution.length; i++)\n            {\n                _rewardDistributionTotal = _rewardDistributionTotal.add(rewardDistribution[i]);\n            }\n\n            rewardDistributionTotal = _rewardDistributionTotal;\n        }\n\n        uint256 newBounty;\n        uint256 tournamentBalance = IMatryxToken(matryxTokenAddress).balanceOf(tournamentAddress);\n\n        if(tournamentBalance < bounty)\n        {\n            newBounty = tournamentBalance;\n        }\n        else\n        {\n            newBounty = bounty;\n        }\n\n        if(newRound == 0x0)\n        {\n            LibConstruction.RoundData memory roundData = LibConstruction.RoundData({start: endTime+reviewPeriod, end: endTime+reviewPeriod+(endTime-startTime), reviewDuration: reviewPeriod, bounty: newBounty});\n            newRound = IMatryxTournament(tournamentAddress).createRound(roundData, true);\n        }\n\t}\n\n\t/*\n     * Entrant Methods\n     */\n\n    /// @dev Create a new submission.\n    /// @param _author of this submission.\n    /// @param submissionData The data of the submission. Includes:\n    ///\t\ttitle: Title of the submission.\n    ///\t\towner: The owner of the submission.\n    ///\t\tcontentHash: Off-chain content hash of submission details (ipfs hash)\n    ///\t\tcontributors: Contributors to this submission.\n    ///\t\tcontributorRewardDistribution: Informs how the reward should be distributed among the contributors\n    /// \tshould this submission win.\n    ///\t\treferences: Addresses of submissions referenced in creating this submission.\n    /// @return _submissionAddress Location of this submission within this round.\n\tfunction createSubmission(address[] _contributors, uint128[] _contributorRewardDistribution, address[] _references, address _author, LibConstruction.SubmissionData submissionData) public onlyTournament duringOpenSubmission returns (address _submissionAddress)\n\t{\n\t\trequire(_author != 0x0);\n\t\t\n\t\tLibConstruction.RequiredSubmissionAddresses memory requiredSubmissionAddresses = LibConstruction.RequiredSubmissionAddresses({platformAddress: platformAddress, tournamentAddress: tournamentAddress, roundAddress: this});\n        address submissionAddress = IMatryxSubmissionFactory(matryxSubmissionFactoryAddress).createSubmission(_contributors, _contributorRewardDistribution, _references, requiredSubmissionAddresses, submissionData);\n        // submission bookkeeping\n        addressToSubmissionIndex[submissionAddress] = uint256_optional({exists:true, value: submissions.length});\n        submissions.push(submissionAddress);\n\n        // TODO: Change to 'authors.push' once MatryxPeer is part of MatryxPlatform\n        if(authorToSubmissionAddress[msg.sender].length == 0)\n        {\n        \tsubmissionOwners.push(submissionData.owner);\n        }\n\n        authorToSubmissionAddress[msg.sender].push(submissionAddress);\n\n        // round participant bookkeeping\n        addressToParticipantType[_author] = uint(ParticipantType.author);\n        for(uint256 i = 0; i < _contributors.length; i++)\n        {\n        \taddressToParticipantType[_contributors[i]] = uint(ParticipantType.contributor);\n        }\n\n        IMatryxTournament(tournamentAddress).invokeSubmissionCreatedEvent(submissionAddress);\n        return submissionAddress;\n\t}\n\n\t/// @dev Allows contributors to withdraw a portion of the round bounty if the round has been abandoned.\n\tfunction transferBountyToTournament() public onlyTournament\n\t{\n        IMatryxToken(matryxTokenAddress).transfer(tournamentAddress, remainingBounty());\n\t}\n\n    function pullPayoutIntoSubmission() public onlySubmission returns (uint256)\n    {\n        require(getState() == uint256(RoundState.Closed));\n        // If the submission's already been paid, revert\n        require(submissionToHasBeenPayed[msg.sender] == false);\n        // If the tournament closed, we need to pull the tournament funds into this round.\n        if(IMatryxTournament(tournamentAddress).getState() == 5 && remainingBounty() > 0)\n        {\n            IMatryxTournament(tournamentAddress).pullRemainingBountyIntoRound();\n        }\n\n        // Transfer the reward to its recipient if it deserves a reward (and mark that its been given out)\n        \n        for(uint256 i = 0; i < winningSubmissions.length; i++)\n        {\n            if(msg.sender == winningSubmissions[i])\n            {\n                submissionToHasBeenPayed[msg.sender] = true;\n                // Calculate total reward denominator and store it somewhere when\n                uint256 reward = (rewardDistribution[i].mul(1*10**18).div(rewardDistributionTotal)).mul(bounty);\n                // Transfer the reward to the submission\n                IMatryxToken(matryxTokenAddress).transfer(msg.sender, reward);\n                return reward;\n            }\n        }\n\n        // TODO:\n        // Or we could never transfer funds to the round in the first place.\n        // This would allow this function to exist on the tournament instead of the round.\n        // I'd need to reintroduce bountyLeft so that the tournament knew how much is left for the round.\n        // If I reintroduced it, it would be to the tournament, so that submission.withdrawReward wouldn't have to call round.bountyLeft to figure out how much to ask the tournament for.\n        // The tournament would just transfer as much as the submission deserved into it.\n        // bountyLeft would be stored as a value under a rounds structure.\n        // This would eventually involve writing a library to do round functions.\n        // For now, this can be a hardcoded library.\n        // Eventually, this library will be part of the upgrade system.\n        // Upgrade system will eventually allow for data, data migration and code contracts to exist and be swapped per contract\n        // All data and code contract addresses will be sourced from one contract, the MatryxVersionManager.\n        // This contract will also contain data migrators to migrate from one version to another (for when data structures change)\n    }\n}",
  "sourcePath": "/Users/maxhoward/Desktop/Ethereum/Development/Matryx/Projects/MatryxPlatform/contracts/MatryxRound.sol",
  "compiler": {
    "name": "solc",
    "version": "0.4.24+commit.e67f0147.Emscripten.clang"
  },
  "schemaVersion": "2.0.0",
  "updatedAt": "2018-06-27T23:52:08.528Z"
}