{
  "contractName": "MatryxPlatform",
  "abi": [
    {
      "constant": true,
      "inputs": [],
      "name": "matryxTournamentFactoryAddress",
      "outputs": [
        {
          "name": "",
          "type": "address"
        }
      ],
      "payable": false,
      "stateMutability": "view",
      "type": "function"
    },
    {
      "constant": true,
      "inputs": [],
      "name": "matryxTokenAddress",
      "outputs": [
        {
          "name": "",
          "type": "address"
        }
      ],
      "payable": false,
      "stateMutability": "view",
      "type": "function"
    },
    {
      "constant": true,
      "inputs": [
        {
          "name": "_sender",
          "type": "address"
        }
      ],
      "name": "isOwner",
      "outputs": [
        {
          "name": "_isOwner",
          "type": "bool"
        }
      ],
      "payable": false,
      "stateMutability": "view",
      "type": "function"
    },
    {
      "constant": true,
      "inputs": [
        {
          "name": "",
          "type": "address"
        }
      ],
      "name": "peerExists",
      "outputs": [
        {
          "name": "",
          "type": "bool"
        }
      ],
      "payable": false,
      "stateMutability": "view",
      "type": "function"
    },
    {
      "constant": true,
      "inputs": [],
      "name": "getOwner",
      "outputs": [
        {
          "name": "_owner",
          "type": "address"
        }
      ],
      "payable": false,
      "stateMutability": "view",
      "type": "function"
    },
    {
      "constant": true,
      "inputs": [],
      "name": "matryxRoundLibAddress",
      "outputs": [
        {
          "name": "",
          "type": "address"
        }
      ],
      "payable": false,
      "stateMutability": "view",
      "type": "function"
    },
    {
      "constant": true,
      "inputs": [],
      "name": "owner",
      "outputs": [
        {
          "name": "",
          "type": "address"
        }
      ],
      "payable": false,
      "stateMutability": "view",
      "type": "function"
    },
    {
      "constant": true,
      "inputs": [
        {
          "name": "",
          "type": "address"
        }
      ],
      "name": "ownerToPeerAndPeerToOwner",
      "outputs": [
        {
          "name": "",
          "type": "address"
        }
      ],
      "payable": false,
      "stateMutability": "view",
      "type": "function"
    },
    {
      "constant": true,
      "inputs": [],
      "name": "matryxPeerFactoryAddress",
      "outputs": [
        {
          "name": "",
          "type": "address"
        }
      ],
      "payable": false,
      "stateMutability": "view",
      "type": "function"
    },
    {
      "constant": true,
      "inputs": [],
      "name": "matryxSubmissionFactoryAddress",
      "outputs": [
        {
          "name": "",
          "type": "address"
        }
      ],
      "payable": false,
      "stateMutability": "view",
      "type": "function"
    },
    {
      "constant": true,
      "inputs": [],
      "name": "matryxSubmissionTrustLibAddress",
      "outputs": [
        {
          "name": "",
          "type": "address"
        }
      ],
      "payable": false,
      "stateMutability": "view",
      "type": "function"
    },
    {
      "constant": true,
      "inputs": [
        {
          "name": "",
          "type": "uint256"
        }
      ],
      "name": "categoryList",
      "outputs": [
        {
          "name": "",
          "type": "string"
        }
      ],
      "payable": false,
      "stateMutability": "view",
      "type": "function"
    },
    {
      "constant": true,
      "inputs": [
        {
          "name": "",
          "type": "uint256"
        }
      ],
      "name": "allTournaments",
      "outputs": [
        {
          "name": "",
          "type": "address"
        }
      ],
      "payable": false,
      "stateMutability": "view",
      "type": "function"
    },
    {
      "constant": false,
      "inputs": [
        {
          "name": "newOwner",
          "type": "address"
        }
      ],
      "name": "transferOwnership",
      "outputs": [],
      "payable": false,
      "stateMutability": "nonpayable",
      "type": "function"
    },
    {
      "inputs": [
        {
          "name": "_matryxTokenAddress",
          "type": "address"
        },
        {
          "name": "_matryxPeerFactoryAddress",
          "type": "address"
        },
        {
          "name": "_matryxTournamentFactoryAddress",
          "type": "address"
        },
        {
          "name": "_matryxSubmissionFactoryAddress",
          "type": "address"
        },
        {
          "name": "_matryxSubmissionTrustLibAddress",
          "type": "address"
        }
      ],
      "payable": false,
      "stateMutability": "nonpayable",
      "type": "constructor"
    },
    {
      "anonymous": false,
      "inputs": [
        {
          "indexed": false,
          "name": "_discipline",
          "type": "string"
        },
        {
          "indexed": false,
          "name": "_owner",
          "type": "address"
        },
        {
          "indexed": false,
          "name": "_tournamentAddress",
          "type": "address"
        },
        {
          "indexed": false,
          "name": "_tournamentName_1",
          "type": "bytes32"
        },
        {
          "indexed": false,
          "name": "_tournamentName_2",
          "type": "bytes32"
        },
        {
          "indexed": false,
          "name": "_tournamentName_3",
          "type": "bytes32"
        },
        {
          "indexed": false,
          "name": "_externalAddress_1",
          "type": "bytes32"
        },
        {
          "indexed": false,
          "name": "_externalAddress_2",
          "type": "bytes32"
        },
        {
          "indexed": false,
          "name": "_MTXReward",
          "type": "uint256"
        },
        {
          "indexed": false,
          "name": "_entryFee",
          "type": "uint256"
        }
      ],
      "name": "TournamentCreated",
      "type": "event"
    },
    {
      "anonymous": false,
      "inputs": [
        {
          "indexed": false,
          "name": "_owner",
          "type": "address"
        },
        {
          "indexed": false,
          "name": "_tournamentAddress",
          "type": "address"
        },
        {
          "indexed": false,
          "name": "_tournamentName_1",
          "type": "bytes32"
        },
        {
          "indexed": false,
          "name": "_tournamentName_2",
          "type": "bytes32"
        },
        {
          "indexed": false,
          "name": "_tournamentName_3",
          "type": "bytes32"
        },
        {
          "indexed": false,
          "name": "_externalAddress_1",
          "type": "bytes32"
        },
        {
          "indexed": false,
          "name": "_externalAddress_2",
          "type": "bytes32"
        },
        {
          "indexed": false,
          "name": "_MTXReward",
          "type": "uint256"
        },
        {
          "indexed": false,
          "name": "_entryFee",
          "type": "uint256"
        }
      ],
      "name": "TournamentOpened",
      "type": "event"
    },
    {
      "anonymous": false,
      "inputs": [
        {
          "indexed": false,
          "name": "_tournamentAddress",
          "type": "address"
        },
        {
          "indexed": false,
          "name": "_finalRoundNumber",
          "type": "uint256"
        },
        {
          "indexed": false,
          "name": "_MTXReward",
          "type": "uint256"
        }
      ],
      "name": "TournamentClosed",
      "type": "event"
    },
    {
      "anonymous": false,
      "inputs": [
        {
          "indexed": false,
          "name": "_entrant",
          "type": "address"
        },
        {
          "indexed": false,
          "name": "_tournamentAddress",
          "type": "address"
        }
      ],
      "name": "UserEnteredTournament",
      "type": "event"
    },
    {
      "anonymous": false,
      "inputs": [
        {
          "indexed": false,
          "name": "queryID",
          "type": "string"
        }
      ],
      "name": "QueryID",
      "type": "event"
    },
    {
      "anonymous": false,
      "inputs": [
        {
          "indexed": false,
          "name": "time",
          "type": "uint256"
        }
      ],
      "name": "TimeStamp",
      "type": "event"
    },
    {
      "constant": false,
      "inputs": [
        {
          "name": "_owner",
          "type": "address"
        },
        {
          "name": "_tournamentName_1",
          "type": "bytes32"
        },
        {
          "name": "_tournamentName_2",
          "type": "bytes32"
        },
        {
          "name": "_tournamentName_3",
          "type": "bytes32"
        },
        {
          "name": "_externalAddress_1",
          "type": "bytes32"
        },
        {
          "name": "_externalAddress_2",
          "type": "bytes32"
        },
        {
          "name": "_MTXReward",
          "type": "uint256"
        },
        {
          "name": "_entryFee",
          "type": "uint256"
        }
      ],
      "name": "invokeTournamentOpenedEvent",
      "outputs": [],
      "payable": false,
      "stateMutability": "nonpayable",
      "type": "function"
    },
    {
      "constant": false,
      "inputs": [
        {
          "name": "_finalRoundNumber",
          "type": "uint256"
        },
        {
          "name": "_MTXReward",
          "type": "uint256"
        }
      ],
      "name": "invokeTournamentClosedEvent",
      "outputs": [],
      "payable": false,
      "stateMutability": "nonpayable",
      "type": "function"
    },
    {
      "constant": false,
      "inputs": [
        {
          "name": "_submissionAddress",
          "type": "address"
        },
        {
          "name": "_references",
          "type": "address[]"
        }
      ],
      "name": "handleReferenceRequestsForSubmission",
      "outputs": [
        {
          "name": "",
          "type": "bool"
        }
      ],
      "payable": false,
      "stateMutability": "nonpayable",
      "type": "function"
    },
    {
      "constant": false,
      "inputs": [
        {
          "name": "_reference",
          "type": "address"
        }
      ],
      "name": "handleReferenceRequestForSubmission",
      "outputs": [
        {
          "name": "",
          "type": "bool"
        }
      ],
      "payable": false,
      "stateMutability": "nonpayable",
      "type": "function"
    },
    {
      "constant": false,
      "inputs": [
        {
          "name": "_reference",
          "type": "address"
        }
      ],
      "name": "handleCancelledReferenceRequestForSubmission",
      "outputs": [
        {
          "name": "",
          "type": "bool"
        }
      ],
      "payable": false,
      "stateMutability": "nonpayable",
      "type": "function"
    },
    {
      "constant": false,
      "inputs": [
        {
          "name": "_owner",
          "type": "address"
        },
        {
          "name": "_submission",
          "type": "address"
        }
      ],
      "name": "updateSubmissions",
      "outputs": [],
      "payable": false,
      "stateMutability": "nonpayable",
      "type": "function"
    },
    {
      "constant": false,
      "inputs": [
        {
          "name": "_submissionAddress",
          "type": "address"
        },
        {
          "name": "_tournamentAddress",
          "type": "address"
        }
      ],
      "name": "removeSubmission",
      "outputs": [
        {
          "name": "",
          "type": "bool"
        }
      ],
      "payable": false,
      "stateMutability": "nonpayable",
      "type": "function"
    },
    {
      "constant": false,
      "inputs": [
        {
          "name": "_tournamentAddress",
          "type": "address"
        },
        {
          "name": "_category",
          "type": "string"
        }
      ],
      "name": "addTournamentToCategory",
      "outputs": [],
      "payable": false,
      "stateMutability": "nonpayable",
      "type": "function"
    },
    {
      "constant": false,
      "inputs": [
        {
          "name": "_tournamentAddress",
          "type": "address"
        },
        {
          "name": "_category",
          "type": "string"
        }
      ],
      "name": "removeTournamentFromCategory",
      "outputs": [],
      "payable": false,
      "stateMutability": "nonpayable",
      "type": "function"
    },
    {
      "constant": false,
      "inputs": [
        {
          "name": "_tournamentAddress",
          "type": "address"
        },
        {
          "name": "_oldCategory",
          "type": "string"
        },
        {
          "name": "_newCategory",
          "type": "string"
        }
      ],
      "name": "switchTournamentCategory",
      "outputs": [],
      "payable": false,
      "stateMutability": "nonpayable",
      "type": "function"
    },
    {
      "constant": true,
      "inputs": [
        {
          "name": "_category",
          "type": "string"
        }
      ],
      "name": "getTournamentsByCategory",
      "outputs": [
        {
          "name": "",
          "type": "address[]"
        }
      ],
      "payable": false,
      "stateMutability": "view",
      "type": "function"
    },
    {
      "constant": true,
      "inputs": [
        {
          "name": "_category",
          "type": "string"
        }
      ],
      "name": "getCategoryCount",
      "outputs": [
        {
          "name": "",
          "type": "uint256"
        }
      ],
      "payable": false,
      "stateMutability": "view",
      "type": "function"
    },
    {
      "constant": true,
      "inputs": [
        {
          "name": "_index",
          "type": "uint256"
        }
      ],
      "name": "getCategoryByIndex",
      "outputs": [
        {
          "name": "",
          "type": "string"
        }
      ],
      "payable": false,
      "stateMutability": "view",
      "type": "function"
    },
    {
      "constant": false,
      "inputs": [
        {
          "name": "_tournamentAddress",
          "type": "address"
        }
      ],
      "name": "enterTournament",
      "outputs": [
        {
          "name": "_success",
          "type": "bool"
        }
      ],
      "payable": false,
      "stateMutability": "nonpayable",
      "type": "function"
    },
    {
      "constant": false,
      "inputs": [
        {
          "name": "_category",
          "type": "string"
        },
        {
          "components": [
            {
              "name": "title_1",
              "type": "bytes32"
            },
            {
              "name": "title_2",
              "type": "bytes32"
            },
            {
              "name": "title_3",
              "type": "bytes32"
            },
            {
              "name": "descriptionHash_1",
              "type": "bytes32"
            },
            {
              "name": "descriptionHash_2",
              "type": "bytes32"
            },
            {
              "name": "fileHash_1",
              "type": "bytes32"
            },
            {
              "name": "fileHash_2",
              "type": "bytes32"
            },
            {
              "name": "bounty",
              "type": "uint256"
            },
            {
              "name": "entryFee",
              "type": "uint256"
            }
          ],
          "name": "tournamentData",
          "type": "tuple"
        },
        {
          "components": [
            {
              "name": "start",
              "type": "uint256"
            },
            {
              "name": "end",
              "type": "uint256"
            },
            {
              "name": "reviewPeriodDuration",
              "type": "uint256"
            },
            {
              "name": "bounty",
              "type": "uint256"
            }
          ],
          "name": "roundData",
          "type": "tuple"
        }
      ],
      "name": "createTournament",
      "outputs": [
        {
          "name": "_tournamentAddress",
          "type": "address"
        }
      ],
      "payable": false,
      "stateMutability": "nonpayable",
      "type": "function"
    },
    {
      "constant": false,
      "inputs": [],
      "name": "createPeer",
      "outputs": [
        {
          "name": "",
          "type": "address"
        }
      ],
      "payable": false,
      "stateMutability": "nonpayable",
      "type": "function"
    },
    {
      "constant": true,
      "inputs": [
        {
          "name": "_peerAddress",
          "type": "address"
        }
      ],
      "name": "isPeer",
      "outputs": [
        {
          "name": "",
          "type": "bool"
        }
      ],
      "payable": false,
      "stateMutability": "view",
      "type": "function"
    },
    {
      "constant": true,
      "inputs": [
        {
          "name": "_sender",
          "type": "address"
        }
      ],
      "name": "hasPeer",
      "outputs": [
        {
          "name": "",
          "type": "bool"
        }
      ],
      "payable": false,
      "stateMutability": "view",
      "type": "function"
    },
    {
      "constant": true,
      "inputs": [
        {
          "name": "_peer",
          "type": "address"
        },
        {
          "name": "_reference",
          "type": "address"
        }
      ],
      "name": "peerExistsAndOwnsSubmission",
      "outputs": [
        {
          "name": "",
          "type": "bool"
        }
      ],
      "payable": false,
      "stateMutability": "view",
      "type": "function"
    },
    {
      "constant": true,
      "inputs": [
        {
          "name": "_sender",
          "type": "address"
        }
      ],
      "name": "peerAddress",
      "outputs": [
        {
          "name": "",
          "type": "address"
        }
      ],
      "payable": false,
      "stateMutability": "view",
      "type": "function"
    },
    {
      "constant": true,
      "inputs": [
        {
          "name": "_submissionAddress",
          "type": "address"
        }
      ],
      "name": "isSubmission",
      "outputs": [
        {
          "name": "",
          "type": "bool"
        }
      ],
      "payable": false,
      "stateMutability": "view",
      "type": "function"
    },
    {
      "constant": true,
      "inputs": [
        {
          "name": "_categoryHash",
          "type": "bytes32"
        }
      ],
      "name": "hashForCategory",
      "outputs": [
        {
          "name": "_category",
          "type": "string"
        }
      ],
      "payable": false,
      "stateMutability": "view",
      "type": "function"
    },
    {
      "constant": true,
      "inputs": [
        {
          "name": "_tournamentAddress",
          "type": "address"
        }
      ],
      "name": "getTournament_IsMine",
      "outputs": [
        {
          "name": "_isMine",
          "type": "bool"
        }
      ],
      "payable": false,
      "stateMutability": "view",
      "type": "function"
    },
    {
      "constant": false,
      "inputs": [
        {
          "name": "_gratitude",
          "type": "uint256"
        }
      ],
      "name": "setSubmissionGratitude",
      "outputs": [],
      "payable": false,
      "stateMutability": "nonpayable",
      "type": "function"
    },
    {
      "constant": true,
      "inputs": [],
      "name": "getNow",
      "outputs": [
        {
          "name": "",
          "type": "uint256"
        }
      ],
      "payable": false,
      "stateMutability": "view",
      "type": "function"
    },
    {
      "constant": true,
      "inputs": [],
      "name": "getTokenAddress",
      "outputs": [
        {
          "name": "",
          "type": "address"
        }
      ],
      "payable": false,
      "stateMutability": "view",
      "type": "function"
    },
    {
      "constant": true,
      "inputs": [],
      "name": "getTournamentFactoryAddress",
      "outputs": [
        {
          "name": "",
          "type": "address"
        }
      ],
      "payable": false,
      "stateMutability": "view",
      "type": "function"
    },
    {
      "constant": true,
      "inputs": [],
      "name": "getSubmissionTrustLibrary",
      "outputs": [
        {
          "name": "",
          "type": "address"
        }
      ],
      "payable": false,
      "stateMutability": "view",
      "type": "function"
    },
    {
      "constant": true,
      "inputs": [],
      "name": "getSubmissionGratitude",
      "outputs": [
        {
          "name": "",
          "type": "uint256"
        }
      ],
      "payable": false,
      "stateMutability": "view",
      "type": "function"
    },
    {
      "constant": true,
      "inputs": [],
      "name": "myTournaments",
      "outputs": [
        {
          "name": "",
          "type": "address[]"
        }
      ],
      "payable": false,
      "stateMutability": "view",
      "type": "function"
    },
    {
      "constant": true,
      "inputs": [],
      "name": "mySubmissions",
      "outputs": [
        {
          "name": "",
          "type": "address[]"
        }
      ],
      "payable": false,
      "stateMutability": "view",
      "type": "function"
    },
    {
      "constant": true,
      "inputs": [],
      "name": "tournamentCount",
      "outputs": [
        {
          "name": "_tournamentCount",
          "type": "uint256"
        }
      ],
      "payable": false,
      "stateMutability": "view",
      "type": "function"
    },
    {
      "constant": true,
      "inputs": [
        {
          "name": "_index",
          "type": "uint256"
        }
      ],
      "name": "getTournamentAtIndex",
      "outputs": [
        {
          "name": "_tournamentAddress",
          "type": "address"
        }
      ],
      "payable": false,
      "stateMutability": "view",
      "type": "function"
    },
    {
      "constant": true,
      "inputs": [],
      "name": "getTournaments",
      "outputs": [
        {
          "name": "",
          "type": "address[]"
        }
      ],
      "payable": false,
      "stateMutability": "view",
      "type": "function"
    },
    {
      "constant": false,
      "inputs": [],
      "name": "forceRevert",
      "outputs": [],
      "payable": false,
      "stateMutability": "nonpayable",
      "type": "function"
    }
  ],
  "bytecode": "0x60c0604052600160808190526702c68af0bb14000060a08190526017805460ff19169092179091556018553480156200003757600080fd5b5060405160a080620034608339810180604052620000599190810190620000db565b6000805433600160a060020a031991821617909155600180548216600160a060020a03978816179055600280548216958716959095179094556003805485169386169390931790925560048054841691851691909117905560058054909216921691909117905562000167565b6000620000d482516200015b565b9392505050565b600080600080600060a08688031215620000f457600080fd5b6000620001028888620000c6565b95505060206200011588828901620000c6565b94505060406200012888828901620000c6565b93505060606200013b88828901620000c6565b92505060806200014e88828901620000c6565b9150509295509295909350565b600160a060020a031690565b6132e980620001776000396000f3006080604052600436106102505763ffffffff7c010000000000000000000000000000000000000000000000000000000060003504166310fe9ae8811461025557806311cf11ae146102805780631411f0a8146102975780631d2245f5146102c457806327252a0c146102e657806329cc545e146102fb5780632f54bf6e146103105780633e44cf781461033d5780633f1a4c111461035d57806351488bce1461037d578063532311c41461039d578063570f9cce146103bd5780636a44e43d146103dd5780636e2b2c7c146103fd57806370e592b81461041f578063818b5fa81461043f5780638764422f1461045f5780638785494e1461047f578063893d20e81461049f5780638ac70272146104b45780638c593a8c146104c95780638d1d498c146104e95780638da5cb5b14610509578063984ed2061461051e57806399db60dd1461053e578063a2d0ab471461055e578063a923251e14610573578063a968c4b914610593578063ab9583d9146105b3578063ac17741b146105d3578063b0ff5492146105f3578063b20a2dce14610608578063b2fad5541461061d578063b846e21c1461063d578063bbe4fd5014610652578063c13ae92a14610667578063c21260a514610687578063c839984a146106a7578063c8ab6c87146106c7578063d4f056d4146106dc578063e139a20c146106fc578063e14feaea14610711578063e8a0ed0d14610731578063f2fde38b14610751578063f3dc0d2514610771578063f7468a3c14610786578063f7c3609d146107a6578063f7f20cb3146107bb578063fb5032d6146107d0575b600080fd5b34801561026157600080fd5b5061026a6107f0565b6040516102779190612fa8565b60405180910390f35b34801561028c57600080fd5b50610295610250565b005b3480156102a357600080fd5b506102b76102b2366004612cf2565b61080d565b60405161027791906130d4565b3480156102d057600080fd5b506102d96108b8565b604051610277919061309a565b3480156102f257600080fd5b5061026a610930565b34801561030757600080fd5b5061026a61094c565b34801561031c57600080fd5b5061033061032b366004612a99565b610968565b60405161027791906130ab565b34801561034957600080fd5b50610330610358366004612a99565b610989565b34801561036957600080fd5b50610295610378366004612c0f565b6109b4565b34801561038957600080fd5b50610330610398366004612add565b610bd8565b3480156103a957600080fd5b506103306103b8366004612a99565b610c5c565b3480156103c957600080fd5b5061026a6103d8366004612d52565b610c89565b3480156103e957600080fd5b5061026a6103f8366004612a99565b610f83565b34801561040957600080fd5b50610412610fae565b60405161027791906131bc565b34801561042b57600080fd5b5061033061043a366004612a99565b610fb4565b34801561044b57600080fd5b5061033061045a366004612a99565b610fc9565b34801561046b57600080fd5b5061029561047a366004612c0f565b610ff4565b34801561048b57600080fd5b5061029561049a366004612c57565b6111d3565b3480156104ab57600080fd5b5061026a611251565b3480156104c057600080fd5b5061026a61126d565b3480156104d557600080fd5b506103306104e4366004612b17565b611289565b3480156104f557600080fd5b506102b7610504366004612cf2565b6114a5565b34801561051557600080fd5b5061026a6114dd565b34801561052a57600080fd5b5061026a610539366004612cf2565b6114f9565b34801561054a57600080fd5b5061026a610559366004612a99565b61154c565b34801561056a57600080fd5b5061026a611574565b34801561057f57600080fd5b5061029561058e366004612b5f565b611590565b34801561059f57600080fd5b506103306105ae366004612add565b6115ff565b3480156105bf57600080fd5b506102956105ce366004612add565b6118b2565b3480156105df57600080fd5b506102d96105ee366004612d10565b611996565b3480156105ff57600080fd5b5061026a611a3e565b34801561061457600080fd5b50610412611a5a565b34801561062957600080fd5b50610330610638366004612a99565b611a75565b34801561064957600080fd5b5061026a611c56565b34801561065e57600080fd5b50610412611c72565b34801561067357600080fd5b50610295610682366004612cf2565b611cb0565b34801561069357600080fd5b506102b76106a2366004612cf2565b611d1e565b3480156106b357600080fd5b5061026a6106c2366004612cf2565b611dc5565b3480156106d357600080fd5b5061026a611dfa565b3480156106e857600080fd5b506104126106f7366004612d10565b611e16565b34801561070857600080fd5b506102d9611e5b565b34801561071d57600080fd5b5061029561072c366004612dcc565b611ed1565b34801561073d57600080fd5b5061033061074c366004612a99565b611f2e565b34801561075d57600080fd5b5061029561076c366004612a99565b612038565b34801561077d57600080fd5b5061026a6120ba565b34801561079257600080fd5b506103306107a1366004612a99565b6120d6565b3480156107b257600080fd5b5061026a612368565b3480156107c757600080fd5b506102d96124ba565b3480156107dc57600080fd5b506103306107eb366004612a99565b612527565b60015473ffffffffffffffffffffffffffffffffffffffff165b90565b606060088281548110151561081e57fe5b600091825260209182902001805460408051601f60026000196101006001871615020190941693909304928301859004850281018501909152818152928301828280156108ac5780601f10610881576101008083540402835291602001916108ac565b820191906000526020600020905b81548152906001019060200180831161088f57829003601f168201915b50505050509050919050565b3360009081526013602090815260409182902080548351818402810184019094528084526060939283018282801561092657602002820191906000526020600020905b815473ffffffffffffffffffffffffffffffffffffffff1681526001909101906020018083116108fb575b5050505050905090565b60035473ffffffffffffffffffffffffffffffffffffffff1681565b60015473ffffffffffffffffffffffffffffffffffffffff1681565b60005473ffffffffffffffffffffffffffffffffffffffff91821691161490565b73ffffffffffffffffffffffffffffffffffffffff166000908152600e602052604090205460ff1690565b6000823373ffffffffffffffffffffffffffffffffffffffff82161480610a0b575033600090815260146020908152604080832073ffffffffffffffffffffffffffffffffffffffff8516845290915290205460ff165b80610a1557503330145b1515610a2057600080fd5b826040518082805190602001908083835b60208310610a505780518252601f199092019160209182019101610a31565b51815160209384036101000a6000190180199092169116179052604080519290940182900390912060008181526009909252929020549195505060ff1615159150610ade90505760088054600181018083556000929092528451610adb917ff3f7a9fe364faab93b216da50a3214154f22a0a2b415b23a84c8169e8b636ee30190602087019061277b565b50505b6000828152600b6020908152604080832073ffffffffffffffffffffffffffffffffffffffff8816845290915290205460ff161515610bd2576000828152600b6020908152604080832073ffffffffffffffffffffffffffffffffffffffff881684528252808320805460ff19166001908117909155600d835292208551610b6d93919091019186019061277b565b506000828152600a60208181526040808420805473ffffffffffffffffffffffffffffffffffffffff8a16808752600d85529286208190559383526001840181558452922001805473ffffffffffffffffffffffffffffffffffffffff191690911790555b50505050565b73ffffffffffffffffffffffffffffffffffffffff8083166000818152600e60209081526040808320548686168085526012845282852054958552600f84528285205490961684526010835281842095845294909152812054909260ff9081169281169116828015610c475750815b8015610c505750805b93505b50505092915050565b73ffffffffffffffffffffffffffffffffffffffff9081166000908152600f602052604090205416151590565b6003546040517f05470d5000000000000000000000000000000000000000000000000000000000815260009173ffffffffffffffffffffffffffffffffffffffff1690829082906305470d5090610cea90899089908990339060040161317f565b602060405180830381600087803b158015610d0457600080fd5b505af1158015610d18573d6000803e3d6000fd5b505050506040513d601f19601f82011682018060405250610d3c9190810190612abf565b90507f0a3eabe50f6fdb1131643d035f8bde7e91d600ba5d64c4a17de4d9c9fef3ec63863383886000015189602001518a604001518b606001518c608001518d60e001518e6101000151604051610d9c9a999897969594939291906130e5565b60405180910390a160015460e08601516040517f23b872dd00000000000000000000000000000000000000000000000000000000815273ffffffffffffffffffffffffffffffffffffffff909216916323b872dd91610e019133918691600401613057565b602060405180830381600087803b158015610e1b57600080fd5b505af1158015610e2f573d6000803e3d6000fd5b505050506040513d601f19601f82011682018060405250610e539190810190612cd4565b1515610e5e57600080fd5b60608401516040517f23721e2400000000000000000000000000000000000000000000000000000000815273ffffffffffffffffffffffffffffffffffffffff8316916323721e2491610eb6916000916004016130b9565b600060405180830381600087803b158015610ed057600080fd5b505af1158015610ee4573d6000803e3d6000fd5b50506007805460018082019092557fa66cc928b5edb82af9bd49922954155ab7b0942694bea4ce44661d9a8736c68801805473ffffffffffffffffffffffffffffffffffffffff191673ffffffffffffffffffffffffffffffffffffffff86169081179091556000908152601160205260409020805460ff1916909117905550610f70905033826126e9565b610f7a81876109b4565b95945050505050565b73ffffffffffffffffffffffffffffffffffffffff9081166000908152600f60205260409020541690565b60075490565b600e6020526000908152604090205460ff1681565b73ffffffffffffffffffffffffffffffffffffffff1660009081526012602052604090205460ff1690565b600080833373ffffffffffffffffffffffffffffffffffffffff8216148061104c575033600090815260146020908152604080832073ffffffffffffffffffffffffffffffffffffffff8516845290915290205460ff165b8061105657503330145b151561106157600080fd5b836040518082805190602001908083835b602083106110915780518252601f199092019160209182019101611072565b51815160209384036101000a600019018019909216911617905260408051929094018290039091206000818152600b835284812073ffffffffffffffffffffffffffffffffffffffff8d168252909252929020549196505060ff161591506111cc90505773ffffffffffffffffffffffffffffffffffffffff85166000818152600d6020908152604080832054878452600b8352818420948452938252808320805460ff19169055868352600a9091528120805492945090918490811061115457fe5b6000918252602080832091909101805473ffffffffffffffffffffffffffffffffffffffff191673ffffffffffffffffffffffffffffffffffffffff9485161790559187168152600d82526040808220829055858252600c90925220546111bc906001612765565b6000848152600c60205260409020555b5050505050565b823373ffffffffffffffffffffffffffffffffffffffff82161480611228575033600090815260146020908152604080832073ffffffffffffffffffffffffffffffffffffffff8516845290915290205460ff165b8061123257503330145b151561123d57600080fd5b6112478484610ff4565b610bd284836109b4565b60005473ffffffffffffffffffffffffffffffffffffffff1690565b60065473ffffffffffffffffffffffffffffffffffffffff1681565b33600090815260116020526040812054819081908190819060ff1615156112af57600080fd5b600093505b855184101561149b5785848151811015156112cb57fe5b9060200190602002015192506112e083610fc9565b15156112eb57611490565b8291508173ffffffffffffffffffffffffffffffffffffffff1663a5faa1256040518163ffffffff167c0100000000000000000000000000000000000000000000000000000000028152600401602060405180830381600087803b15801561135257600080fd5b505af1158015611366573d6000803e3d6000fd5b505050506040513d601f19601f8201168201806040525061138a9190810190612abf565b6040517fd1bbd31200000000000000000000000000000000000000000000000000000000815290915073ffffffffffffffffffffffffffffffffffffffff82169063d1bbd312906113e1908a908790600401612fb6565b600060405180830381600087803b1580156113fb57600080fd5b505af115801561140f573d6000803e3d6000fd5b505050508173ffffffffffffffffffffffffffffffffffffffff1663c7af35516040518163ffffffff167c0100000000000000000000000000000000000000000000000000000000028152600401600060405180830381600087803b15801561147757600080fd5b505af115801561148b573d6000803e3d6000fd5b505050505b6001909301926112b4565b5050505092915050565b5060408051808201909152601281527f74656d706f726172792063617465676f72790000000000000000000000000000602082015290565b60005473ffffffffffffffffffffffffffffffffffffffff1681565b60008082101561150857600080fd5b600754821061151657600080fd5b600780548390811061152457fe5b60009182526020909120015473ffffffffffffffffffffffffffffffffffffffff1692915050565b600f6020526000908152604090205473ffffffffffffffffffffffffffffffffffffffff1681565b60025473ffffffffffffffffffffffffffffffffffffffff1681565b3360009081526011602052604090205460ff1615156115ae57600080fd5b7f67463a82a3de9d3302dd325602c0b0ac0ba5437fa8e04a6aeb8b218be7d7d54b8833898989898989896040516115ed99989796959493929190612fd1565b60405180910390a15050505050505050565b73ffffffffffffffffffffffffffffffffffffffff811660009081526011602052604081205481908190819060ff16151561163957600080fd5b73ffffffffffffffffffffffffffffffffffffffff861660009081526012602052604090205460ff16151561166d57600080fd5b33600090815260106020908152604080832073ffffffffffffffffffffffffffffffffffffffff8a16845290915290205460ff1615156116ac57600080fd5b8592508573ffffffffffffffffffffffffffffffffffffffff1663893d20e86040518163ffffffff167c0100000000000000000000000000000000000000000000000000000000028152600401602060405180830381600087803b15801561171357600080fd5b505af1158015611727573d6000803e3d6000fd5b505050506040513d601f19601f8201168201806040525061174b9190810190612abf565b73ffffffffffffffffffffffffffffffffffffffff8082166000818152601660209081526040808320948c1683529381528382206001015460128252848320805460ff191690559282526015905291909120805492945090925090829081106117b057fe5b60009182526020808320909101805473ffffffffffffffffffffffffffffffffffffffff1916905573ffffffffffffffffffffffffffffffffffffffff84811683526016825260408084208a83168552909252818320805460ff1916815560010192909255517fa968c4b90000000000000000000000000000000000000000000000000000000081529086169063a968c4b9906118539089908690600401612fb6565b602060405180830381600087803b15801561186d57600080fd5b505af1158015611881573d6000803e3d6000fd5b505050506040513d601f19601f820116820180604052506118a59190810190612cd4565b5060019695505050505050565b3360009081526011602052604090205460ff1615156118d057600080fd5b604080518082018252600180825273ffffffffffffffffffffffffffffffffffffffff948516600081815260156020908152858220805482870190815284845260168352878420989099168084529782528683209551865490151560ff1991821617875598519585019590955584548085018655948252808220909401805473ffffffffffffffffffffffffffffffffffffffff191687179055908152601083528381209481529382528284208054861682179055601290915291208054909216179055565b6060600a6000848460405180838380828437820191505092505050604051809103902060001916600019168152602001908152602001600020805480602002602001604051908101604052809291908181526020018280548015611a3057602002820191906000526020600020905b815473ffffffffffffffffffffffffffffffffffffffff168152600190910190602001808311611a05575b505050505090505b92915050565b60045473ffffffffffffffffffffffffffffffffffffffff1681565b60175460009060ff161515611a6e57600080fd5b5060185490565b336000908152601260205260408120548190819060ff161515611a9757600080fd5b611aa084610fc9565b1515611aab57600080fd5b8391508173ffffffffffffffffffffffffffffffffffffffff1663a5faa1256040518163ffffffff167c0100000000000000000000000000000000000000000000000000000000028152600401602060405180830381600087803b158015611b1257600080fd5b505af1158015611b26573d6000803e3d6000fd5b505050506040513d601f19601f82011682018060405250611b4a9190810190612abf565b6040517fd1bbd31200000000000000000000000000000000000000000000000000000000815290915073ffffffffffffffffffffffffffffffffffffffff82169063d1bbd31290611ba19033908890600401612fb6565b600060405180830381600087803b158015611bbb57600080fd5b505af1158015611bcf573d6000803e3d6000fd5b505050508173ffffffffffffffffffffffffffffffffffffffff1663c7af35516040518163ffffffff167c0100000000000000000000000000000000000000000000000000000000028152600401600060405180830381600087803b158015611c3757600080fd5b505af1158015611c4b573d6000803e3d6000fd5b505050505050919050565b60055473ffffffffffffffffffffffffffffffffffffffff1681565b60007fdfbf6547deaf4fa5dd154ec1daf5350032f31d34e4c755104dfbf6049163c08742604051611ca391906131bc565b60405180910390a1504290565b60005473ffffffffffffffffffffffffffffffffffffffff163314611cd457600080fd5b60008110158015611ced5750670de0b6b3a76400008111155b1515611cf557fe5b60408051808201909152600180825260209091018290526017805460ff19169091179055601855565b6008805482908110611d2c57fe5b600091825260209182902001805460408051601f6002600019610100600187161502019094169390930492830185900485028101850190915281815293509091830182828015611dbd5780601f10611d9257610100808354040283529160200191611dbd565b820191906000526020600020905b815481529060010190602001808311611da057829003601f168201915b505050505081565b6007805482908110611dd357fe5b60009182526020909120015473ffffffffffffffffffffffffffffffffffffffff16905081565b60035473ffffffffffffffffffffffffffffffffffffffff1690565b600080838360405180838380828437604080519190930181900390206000908152600c602090815283822054600a909152929020549190910398975050505050505050565b336000908152601560209081526040918290208054835181840281018401909452808452606093928301828280156109265760200282019190600052602060002090815473ffffffffffffffffffffffffffffffffffffffff1681526001909101906020018083116108fb575050505050905090565b3360009081526011602052604090205460ff161515611eef57600080fd5b7f575670c81f31b6e19bd59bbbe1729f3f052ae8a508d3977e1e1b2b752a256edb338383604051611f229392919061307f565b60405180910390a15050565b73ffffffffffffffffffffffffffffffffffffffff8116600090815260116020526040812054819060ff161515611f6457600080fd5b8290503373ffffffffffffffffffffffffffffffffffffffff168173ffffffffffffffffffffffffffffffffffffffff1663893d20e86040518163ffffffff167c0100000000000000000000000000000000000000000000000000000000028152600401602060405180830381600087803b158015611fe257600080fd5b505af1158015611ff6573d6000803e3d6000fd5b505050506040513d601f19601f8201168201806040525061201a9190810190612abf565b73ffffffffffffffffffffffffffffffffffffffff16149392505050565b60005473ffffffffffffffffffffffffffffffffffffffff16331461205c57600080fd5b73ffffffffffffffffffffffffffffffffffffffff8116151561207e57600080fd5b6000805473ffffffffffffffffffffffffffffffffffffffff191673ffffffffffffffffffffffffffffffffffffffff92909216919091179055565b60055473ffffffffffffffffffffffffffffffffffffffff1690565b600080600080336120e681610c5c565b15156120f157600080fd5b73ffffffffffffffffffffffffffffffffffffffff861660009081526011602052604090205460ff16151561212557600080fd5b8593508373ffffffffffffffffffffffffffffffffffffffff1663e586a4f06040518163ffffffff167c0100000000000000000000000000000000000000000000000000000000028152600401602060405180830381600087803b15801561218c57600080fd5b505af11580156121a0573d6000803e3d6000fd5b505050506040513d601f19601f820116820180604052506121c49190810190612dae565b6001546040517f23b872dd00000000000000000000000000000000000000000000000000000000815291945073ffffffffffffffffffffffffffffffffffffffff16906323b872dd9061221f9033908a908890600401613057565b602060405180830381600087803b15801561223957600080fd5b505af115801561224d573d6000803e3d6000fd5b505050506040513d601f19601f820116820180604052506122719190810190612cd4565b9150811561235f576040517f28d576d700000000000000000000000000000000000000000000000000000000815273ffffffffffffffffffffffffffffffffffffffff8516906328d576d7906122cb903390600401612fa8565b602060405180830381600087803b1580156122e557600080fd5b505af11580156122f9573d6000803e3d6000fd5b505050506040513d601f19601f8201168201806040525061231d9190810190612cd4565b9150811561235f577f5891a745b8d042d48bd1e4aed889e63bdc3e44242bb75694ea97573460e03a8b3387604051612356929190612fb6565b60405180910390a15b50949350505050565b336000908152600f60205260408120548190819073ffffffffffffffffffffffffffffffffffffffff161561239c57600080fd5b6002546040517f48bf957700000000000000000000000000000000000000000000000000000000815273ffffffffffffffffffffffffffffffffffffffff909116925082906348bf9577906123f5903390600401612fa8565b602060405180830381600087803b15801561240f57600080fd5b505af1158015612423573d6000803e3d6000fd5b505050506040513d601f19601f820116820180604052506124479190810190612abf565b73ffffffffffffffffffffffffffffffffffffffff166000818152600e60209081526040808320805460ff1916600117905533808452600f909252808320805473ffffffffffffffffffffffffffffffffffffffff19908116861790915593835290912080549092161790555090919050565b606060078054806020026020016040519081016040528092919081815260200182805480156109265760200282019190600052602060002090815473ffffffffffffffffffffffffffffffffffffffff1681526001909101906020018083116108fb575050505050905090565b336000908152601260205260408120548190819060ff16151561254957600080fd5b61255284610fc9565b151561255d57600080fd5b8391508173ffffffffffffffffffffffffffffffffffffffff1663a5faa1256040518163ffffffff167c0100000000000000000000000000000000000000000000000000000000028152600401602060405180830381600087803b1580156125c457600080fd5b505af11580156125d8573d6000803e3d6000fd5b505050506040513d601f19601f820116820180604052506125fc9190810190612abf565b6040517fa1cc4ac100000000000000000000000000000000000000000000000000000000815290915073ffffffffffffffffffffffffffffffffffffffff82169063a1cc4ac1906126539033908890600401612fb6565b600060405180830381600087803b15801561266d57600080fd5b505af1158015612681573d6000803e3d6000fd5b505050508173ffffffffffffffffffffffffffffffffffffffff1663444e31ca6040518163ffffffff167c0100000000000000000000000000000000000000000000000000000000028152600401600060405180830381600087803b158015611c3757600080fd5b73ffffffffffffffffffffffffffffffffffffffff918216600081815260136020908152604080832080546001808201835591855283852001805473ffffffffffffffffffffffffffffffffffffffff19169690971695861790965592825260148152828220938252929092529020805460ff19169091179055565b60008282018381101561277457fe5b9392505050565b828054600181600116156101000203166002900490600052602060002090601f016020900481019282601f106127bc57805160ff19168380011785556127e9565b828001600101855582156127e9579182015b828111156127e95782518255916020019190600101906127ce565b506127f59291506127f9565b5090565b61080a91905b808211156127f557600081556001016127ff565b60006127748235613244565b60006127748251613244565b6000601f8201831361283c57600080fd5b813561284f61284a826131f1565b6131ca565b9150818183526020840193506020810190508385602084028201111561287457600080fd5b60005b8381101561149b578161288a8882612813565b8452506020928301929190910190600101612877565b6000612774825161325d565b6000612774823561080a565b600080601f830184136128ca57600080fd5b50813567ffffffffffffffff8111156128e257600080fd5b6020830191508360018202830111156128fa57600080fd5b9250929050565b6000601f8201831361291257600080fd5b813561292061284a82613212565b9150808252602083016020830185838301111561293c57600080fd5b610c5383828461326d565b60006080828403121561295957600080fd5b61296360806131ca565b9050600061297184846128ac565b8252506020612982848483016128ac565b6020830152506040612996848285016128ac565b60408301525060606129aa848285016128ac565b60608301525092915050565b600061012082840312156129c957600080fd5b6129d46101206131ca565b905060006129e284846128ac565b82525060206129f3848483016128ac565b6020830152506040612a07848285016128ac565b6040830152506060612a1b848285016128ac565b6060830152506080612a2f848285016128ac565b60808301525060a0612a43848285016128ac565b60a08301525060c0612a57848285016128ac565b60c08301525060e0612a6b848285016128ac565b60e083015250610100612a80848285016128ac565b6101008301525092915050565b6000612774825161080a565b600060208284031215612aab57600080fd5b6000612ab78484612813565b949350505050565b600060208284031215612ad157600080fd5b6000612ab7848461281f565b60008060408385031215612af057600080fd5b6000612afc8585612813565b9250506020612b0d85828601612813565b9150509250929050565b60008060408385031215612b2a57600080fd5b6000612b368585612813565b925050602083013567ffffffffffffffff811115612b5357600080fd5b612b0d8582860161282b565b600080600080600080600080610100898b031215612b7c57600080fd5b6000612b888b8b612813565b9850506020612b998b828c016128ac565b9750506040612baa8b828c016128ac565b9650506060612bbb8b828c016128ac565b9550506080612bcc8b828c016128ac565b94505060a0612bdd8b828c016128ac565b93505060c0612bee8b828c016128ac565b92505060e0612bff8b828c016128ac565b9150509295985092959890939650565b60008060408385031215612c2257600080fd5b6000612c2e8585612813565b925050602083013567ffffffffffffffff811115612c4b57600080fd5b612b0d85828601612901565b600080600060608486031215612c6c57600080fd5b6000612c788686612813565b935050602084013567ffffffffffffffff811115612c9557600080fd5b612ca186828701612901565b925050604084013567ffffffffffffffff811115612cbe57600080fd5b612cca86828701612901565b9150509250925092565b600060208284031215612ce657600080fd5b6000612ab784846128a0565b600060208284031215612d0457600080fd5b6000612ab784846128ac565b60008060208385031215612d2357600080fd5b823567ffffffffffffffff811115612d3a57600080fd5b612d46858286016128b8565b92509250509250929050565b60008060006101c08486031215612d6857600080fd5b833567ffffffffffffffff811115612d7f57600080fd5b612d8b86828701612901565b9350506020612d9c868287016129b6565b925050610140612cca86828701612947565b600060208284031215612dc057600080fd5b6000612ab78484612a8d565b60008060408385031215612ddf57600080fd5b6000612deb85856128ac565b9250506020612b0d858286016128ac565b612e0581613244565b82525050565b6000612e1682613240565b808452602084019350612e288361323a565b60005b82811015612e5857612e3e868351612dfc565b612e478261323a565b602096909601959150600101612e2b565b5093949350505050565b612e058161325d565b612e058161080a565b612e0581613262565b6000612e8882613240565b808452612e9c816020860160208601613279565b612ea5816132a5565b9093016020019392505050565b80516080830190612ec38482612e6b565b506020820151612ed66020850182612e6b565b506040820151612ee96040850182612e6b565b506060820151610bd26060850182612e6b565b8051610120830190612f0e8482612e6b565b506020820151612f216020850182612e6b565b506040820151612f346040850182612e6b565b506060820151612f476060850182612e6b565b506080820151612f5a6080850182612e6b565b5060a0820151612f6d60a0850182612e6b565b5060c0820151612f8060c0850182612e6b565b5060e0820151612f9360e0850182612e6b565b50610100820151610bd2610100850182612e6b565b60208101611a388284612dfc565b60408101612fc48285612dfc565b6127746020830184612dfc565b6101208101612fe0828c612dfc565b612fed602083018b612dfc565b612ffa604083018a612e6b565b6130076060830189612e6b565b6130146080830188612e6b565b61302160a0830187612e6b565b61302e60c0830186612e6b565b61303b60e0830185612e6b565b613049610100830184612e6b565b9a9950505050505050505050565b606081016130658286612dfc565b6130726020830185612dfc565b612ab76040830184612e6b565b6060810161308d8286612dfc565b6130726020830185612e6b565b602080825281016127748184612e0b565b60208101611a388284612e62565b604081016130c78285612e74565b6127746020830184612e6b565b602080825281016127748184612e7d565b61014080825281016130f7818d612e7d565b9050613106602083018c612dfc565b613113604083018b612dfc565b613120606083018a612e6b565b61312d6080830189612e6b565b61313a60a0830188612e6b565b61314760c0830187612e6b565b61315460e0830186612e6b565b613162610100830185612e6b565b613170610120830184612e6b565b9b9a5050505050505050505050565b6101e080825281016131918187612e7d565b90506131a06020830186612efc565b6131ae610140830185612eb2565b610f7a6101c0830184612dfc565b60208101611a388284612e6b565b60405181810167ffffffffffffffff811182821017156131e957600080fd5b604052919050565b600067ffffffffffffffff82111561320857600080fd5b5060209081020190565b600067ffffffffffffffff82111561322957600080fd5b506020601f91909101601f19160190565b60200190565b5190565b73ffffffffffffffffffffffffffffffffffffffff1690565b151590565b6000611a388261080a565b82818337506000910152565b60005b8381101561329457818101518382015260200161327c565b83811115610bd25750506000910152565b601f01601f1916905600a265627a7a7230582096f77c29561ca3c4cab96f999cd686b3ae239b43a7e1cb6c9c1130307f15710e6c6578706572696d656e74616cf50037",
  "source": "pragma solidity ^0.4.18;\npragma experimental ABIEncoderV2;\n\nimport \"../libraries/math/SafeMath.sol\";\nimport \"../libraries/math/SafeMath128.sol\";\nimport \"../interfaces/IMatryxToken.sol\";\nimport \"../interfaces/IMatryxPeer.sol\";\nimport \"../interfaces/IMatryxPlatform.sol\";\nimport \"../interfaces/factories/IMatryxPeerFactory.sol\";\nimport \"../interfaces/factories/IMatryxTournamentFactory.sol\";\nimport \"../interfaces/IMatryxTournament.sol\";\nimport \"../interfaces/IMatryxRound.sol\";\nimport \"../interfaces/IMatryxSubmission.sol\";\nimport \"./Ownable.sol\";\n\n/// @title MatryxPlatform - The Matryx platform contract.\n/// @author Max Howard - <max@nanome.ai>, Sam Hessenauer - <sam@nanome.ai>\ncontract MatryxPlatform is Ownable {\n  using SafeMath for uint256;\n  using SafeMath128 for uint128;\n\n  // TODO: condense and put in structs\n  address public matryxTokenAddress;\n  address public matryxPeerFactoryAddress;\n  address public matryxTournamentFactoryAddress;\n  address public matryxSubmissionFactoryAddress;\n  address public matryxSubmissionTrustLibAddress;\n  address public matryxRoundLibAddress;\n\n  address[] public allTournaments;\n  // bytes32 public hashOfTopCategory;\n  // bytes32 public hashOfLastCategory;\n  // mapping(uint256=>bytes32) public  topCategoryByCount;\n  // mapping(bytes32=>category) public categoryIterator;\n  string[] public categoryList;\n  mapping(bytes32=>bool) categoryExists;\n  mapping(bytes32=>address[]) categoryHashToTournamentList;\n  mapping(bytes32=>mapping(address=>bool)) tournamentExistsInCategory;\n  mapping(bytes32=>uint256) emptyCountByCategory;\n  mapping(address=>CategoryInfo) tournamentAddressToCategoryInfo;\n\n  mapping(address=>bool) public peerExists;\n  mapping(address=>address) public ownerToPeerAndPeerToOwner;\n  mapping(address=>mapping(address=>bool)) addressToOwnsSubmission;\n  mapping(address=>bool) tournamentExists;\n  mapping(address=>bool) submissionExists;\n\n  mapping(address=>address[]) ownerToTournamentArray;\n  mapping(address=>mapping(address=>bool)) entrantToOwnsTournament;\n  mapping(address=>address[]) ownerToSubmissionArray;\n  mapping(address=>mapping(address=>uint256_optional))  ownerToSubmissionToSubmissionIndex;\n\n  // Hyperparams\n  uint256_optional submissionGratitude = uint256_optional({exists: true, value: 2*10**17});\n\n  function MatryxPlatform(address _matryxTokenAddress, address _matryxPeerFactoryAddress, address _matryxTournamentFactoryAddress, address _matryxSubmissionFactoryAddress, address _matryxSubmissionTrustLibAddress) public\n  {\n    matryxTokenAddress = _matryxTokenAddress;\n    matryxPeerFactoryAddress = _matryxPeerFactoryAddress;\n    matryxTournamentFactoryAddress = _matryxTournamentFactoryAddress;\n    matryxSubmissionFactoryAddress = _matryxSubmissionFactoryAddress;\n    matryxSubmissionTrustLibAddress = _matryxSubmissionTrustLibAddress;\n  }\n\n  /*\n   * Structs\n   */\n\n  struct uint256_optional\n  {\n    bool exists;\n    uint256 value;\n  }\n\n  struct CategoryInfo \n  {\n    uint256 index;\n    string category;\n  }\n\n  /*\n   * Events\n   */\n\n  event TournamentCreated(string _discipline, address _owner, address _tournamentAddress, bytes32 _tournamentName_1, bytes32 _tournamentName_2, bytes32 _tournamentName_3, bytes32 _externalAddress_1, bytes32 _externalAddress_2, uint256 _MTXReward, uint256 _entryFee);\n  event TournamentOpened(address _owner, address _tournamentAddress, bytes32 _tournamentName_1, bytes32 _tournamentName_2, bytes32 _tournamentName_3, bytes32 _externalAddress_1, bytes32 _externalAddress_2, uint256 _MTXReward, uint256 _entryFee);\n  event TournamentClosed(address _tournamentAddress, uint256 _finalRoundNumber, uint256 _MTXReward);\n  event UserEnteredTournament(address _entrant, address _tournamentAddress);\n  event QueryID(string queryID);\n  /// @dev Allows tournaments to invoke tournamentOpened events on the platform.\n  /// @param _owner Owner of the tournament.\n  /// @param _tournamentName_1 First part of the tournament name.\n  /// @param _tournamentName_2 Second part of the tournament name.\n  /// @param _tournamentName_3 Third part of the tournament name.\n  /// @param _externalAddress_1 First part of the external address of the tournament.\n  /// @param _externalAddress_2 Second part of the external address of the tournament.\n  /// @param _MTXReward Reward for winning the tournament.\n  /// @param _entryFee Fee for entering into the tournament.\n  function invokeTournamentOpenedEvent(address _owner, bytes32 _tournamentName_1, bytes32 _tournamentName_2, bytes32 _tournamentName_3, bytes32 _externalAddress_1, bytes32 _externalAddress_2, uint256 _MTXReward, uint256 _entryFee) public onlyTournament\n  {\n    TournamentOpened(_owner, msg.sender, _tournamentName_1, _tournamentName_2, _tournamentName_3, _externalAddress_1, _externalAddress_2, _MTXReward, _entryFee);\n  }\n\n  /// @dev Allows tournaments to invoke tournamentClosed events on the platform.\n  /// @param _finalRoundNumber Index of the round containing the winning submission.\n  function invokeTournamentClosedEvent(uint256 _finalRoundNumber, uint256 _MTXReward) public onlyTournament\n  {\n    TournamentClosed(msg.sender, _finalRoundNumber, _MTXReward);\n  }\n\n  /* \n   * Modifiers\n   */\n\n  modifier onlyTournament\n  {\n    require(tournamentExists[msg.sender]);\n    _;\n  }\n\n  modifier onlySubmission\n  {\n    require(submissionExists[msg.sender]);\n    _;\n  }\n\n  modifier onlyPeerLinked(address _sender)\n  {\n    require(hasPeer(_sender));\n    _;\n  }\n\n  modifier onlyTournamentOwnerOrPlatform(address _tournamentAddress)\n  {\n    require(msg.sender == _tournamentAddress || entrantToOwnsTournament[msg.sender][_tournamentAddress] || msg.sender == address(this));\n    _;\n  }\n\n  /*\n   * State Maintenance Methods\n   */\n\n  // @dev Sends out reference requests for a particular submission.\n  // @param _references Reference whose authors will be sent requests.\n  // @returns Whether or not all references were successfully sent a request.\n  function handleReferenceRequestsForSubmission(address _submissionAddress, address[] _references) public onlyTournament returns (bool) \n  {\n    for(uint256 i = 0; i < _references.length; i++)\n    {\n      address _referenceAddress = _references[i];\n\n      if(!isSubmission(_referenceAddress))\n      {\n        // TODO: Introduce uint error codes\n        // for returning things like \"Reference _ is not submission\"\n        continue;\n      }\n\n      IMatryxSubmission submission = IMatryxSubmission(_referenceAddress);\n      address author = submission.getAuthor();\n      IMatryxPeer(author).receiveReferenceRequest(_submissionAddress, _referenceAddress);\n      submission.receiveReferenceRequest();\n    }\n  }\n\n  // @dev Sends out a reference request for a submission (must be called by the submission).\n  // @param _reference Reference whose author will be sent a request.\n  // @returns Whether or not all references were successfully sent a request.\n  function handleReferenceRequestForSubmission(address _reference) public onlySubmission returns (bool)\n  {\n      require(isSubmission(_reference));\n      IMatryxSubmission submission = IMatryxSubmission(_reference);\n      address author = submission.getAuthor();\n      IMatryxPeer(author).receiveReferenceRequest(msg.sender, _reference);\n      submission.receiveReferenceRequest();\n  }\n\n  function handleCancelledReferenceRequestForSubmission(address _reference) public onlySubmission returns (bool)\n  {\n    require(isSubmission(_reference));\n    IMatryxSubmission submission = IMatryxSubmission(_reference);\n    address author = submission.getAuthor();\n    IMatryxPeer(author).receiveCancelledReferenceRequest(msg.sender, _reference);\n    submission.cancelReferenceRequest();\n  }\n\n  function updateUsersTournaments(address _owner, address _tournament) internal\n  {\n    ownerToTournamentArray[_owner].push(_tournament);\n    entrantToOwnsTournament[_owner][_tournament] = true;\n  }\n\n  function updateSubmissions(address _owner, address _submission) public onlyTournament\n  {\n    ownerToSubmissionToSubmissionIndex[_owner][_submission] = uint256_optional({exists:true, value:ownerToSubmissionArray[_owner].length});\n    ownerToSubmissionArray[_owner].push(_submission);\n    addressToOwnsSubmission[_owner][_submission] = true;\n    submissionExists[_submission] = true;\n  }\n\n  function removeSubmission(address _submissionAddress, address _tournamentAddress) public returns (bool)\n  {\n    require(tournamentExists[_tournamentAddress]);\n    require(submissionExists[_submissionAddress]);\n    require(addressToOwnsSubmission[msg.sender][_submissionAddress]);\n\n      IMatryxSubmission submission = IMatryxSubmission(_submissionAddress);\n      address owner = Ownable(_submissionAddress).getOwner();\n      uint256 submissionIndex = ownerToSubmissionToSubmissionIndex[owner][_submissionAddress].value;\n\n      submissionExists[_submissionAddress] = false;\n      delete ownerToSubmissionArray[owner][submissionIndex];\n      delete ownerToSubmissionToSubmissionIndex[owner][_submissionAddress];\n\n      IMatryxTournament(_tournamentAddress).removeSubmission(_submissionAddress, owner);\n      return true;\n  }\n\n  function addTournamentToCategory(address _tournamentAddress, string _category) public onlyTournamentOwnerOrPlatform(_tournamentAddress)\n  {\n    bytes32 categoryHash = sha3(_category);\n    if(categoryExists[categoryHash] == false)\n    {\n      categoryList.push(_category);\n    }\n\n    if(tournamentExistsInCategory[categoryHash][_tournamentAddress] == false)\n    {\n      tournamentExistsInCategory[categoryHash][_tournamentAddress] = true;\n      tournamentAddressToCategoryInfo[_tournamentAddress].category = _category;\n      tournamentAddressToCategoryInfo[_tournamentAddress].index = (categoryHashToTournamentList[categoryHash]).length;\n      categoryHashToTournamentList[categoryHash].push(_tournamentAddress);\n    }\n  }\n\n  function removeTournamentFromCategory(address _tournamentAddress, string _category) public onlyTournamentOwnerOrPlatform(_tournamentAddress)\n  {\n    bytes32 categoryHash = sha3(_category);\n    if(tournamentExistsInCategory[categoryHash][_tournamentAddress])\n    {\n      // It's there! Let's remove it\n      uint256 indexInCategoryList = tournamentAddressToCategoryInfo[_tournamentAddress].index;\n      tournamentExistsInCategory[categoryHash][_tournamentAddress] = false;\n      categoryHashToTournamentList[categoryHash][indexInCategoryList] = 0x0;\n      tournamentAddressToCategoryInfo[_tournamentAddress].index = 0;\n      emptyCountByCategory[categoryHash] = emptyCountByCategory[categoryHash].add(1);\n    }\n  }\n\n  function switchTournamentCategory(address _tournamentAddress, string _oldCategory, string _newCategory) public onlyTournamentOwnerOrPlatform(_tournamentAddress)\n  {\n    removeTournamentFromCategory(_tournamentAddress, _oldCategory);\n    addTournamentToCategory(_tournamentAddress, _newCategory);\n  }\n\n  function getTournamentsByCategory(string _category) external view returns (address[])\n  {\n    return categoryHashToTournamentList[sha3(_category)];\n  }\n\n  function getCategoryCount(string _category) external view returns (uint256)\n  {\n    bytes32 categoryHash = sha3(_category);\n    return categoryHashToTournamentList[categoryHash].length - emptyCountByCategory[categoryHash];\n  }\n\n  function getCategoryByIndex(uint256 _index) public view returns (string)\n  {\n    return categoryList[_index];\n  }\n\n  // function switchTournamentCategory(string discipline) onlyTournament public\n  // {\n  //   revert();\n  // }\n\n  /* \n   * Tournament Entry Methods\n   */\n\n  /// @dev Enter the user into a tournament and charge the entry fee.\n  /// @param _tournamentAddress Address of the tournament to enter into.\n  /// @return _success Whether or not user was successfully entered into the tournament.\n  function enterTournament(address _tournamentAddress) public onlyPeerLinked(msg.sender) returns (bool _success)\n  {\n      require(tournamentExists[_tournamentAddress]);\n      \n      IMatryxTournament tournament = IMatryxTournament(_tournamentAddress);\n      uint256 entryFee = tournament.getEntryFee();\n\n      bool success = IMatryxToken(matryxTokenAddress).transferFrom(msg.sender, _tournamentAddress, entryFee);\n      if(success)\n      {\n        success = tournament.enterUserInTournament(msg.sender);\n        if(success)\n        {\n          UserEnteredTournament(msg.sender, _tournamentAddress);\n        }\n      }\n\n      return success;\n  }\n\n  /* \n   * Tournament Admin Methods\n   */\n\n  /// @dev Create a new tournament.\n  /// @param tournamentData Data to populate the new tournament with. Includes:\n  ///    category: Discipline the tournament falls under.\n  ///    title: Name of the new tournament.\n  ///    contentHash: Off-chain content hash of tournament details (ipfs hash)\n  ///    Bounty: Total tournament reward in MTX.\n  ///    entryFee: Fee to charge participant upon entering into the tournament.\n  /// @param roundData Data to populate the first round of the tournament with. Includes:\n  ///    startTime: The start time (unix-epoch-based) of the first round.\n  ///    endTime: The end time (unix-epoch-based) of the first round.\n  ///    reviewPeriodDuration: The amount of the tournament owner has to determine the winners of the round.\n  ///    bounty: The reward for the first round's winners.\n  /// @return _tournamentAddress Address of the newly created tournament.\n  function createTournament(string _category, LibConstruction.TournamentData tournamentData, LibConstruction.RoundData roundData) returns (address _tournamentAddress)\n  {\n    IMatryxTournamentFactory tournamentFactory = IMatryxTournamentFactory(matryxTournamentFactoryAddress);\n    address newTournament = tournamentFactory.createTournament(_category, tournamentData, roundData, msg.sender);\n    //MatryxToken.transferFrom(newTournament, **round_address**, uint256 bounty);\n    TournamentCreated(_category, msg.sender, newTournament, tournamentData.title_1, tournamentData.title_2, tournamentData.title_3, tournamentData.descriptionHash_1, tournamentData.descriptionHash_2, tournamentData.bounty, tournamentData.entryFee);\n    \n    require(IMatryxToken(matryxTokenAddress).transferFrom(msg.sender, newTournament, tournamentData.bounty));\n    IMatryxTournament(newTournament).sendBountyToRound(0, roundData.bounty);\n    //update data structures\n    allTournaments.push(newTournament);\n    tournamentExists[newTournament] = true;\n    updateUsersTournaments(msg.sender, newTournament);\n\n    addTournamentToCategory(newTournament, _category);\n\n    return newTournament;\n  }\n\n  /*\n   * Access Control Methods\n   */\n\n  function createPeer() public returns (address)\n  {\n    require(ownerToPeerAndPeerToOwner[msg.sender] == 0x0);\n    IMatryxPeerFactory peerFactory = IMatryxPeerFactory(matryxPeerFactoryAddress);\n    address peer = peerFactory.createPeer(msg.sender);\n    peerExists[peer] = true;\n    ownerToPeerAndPeerToOwner[msg.sender] = peer;\n    ownerToPeerAndPeerToOwner[peer] = msg.sender;\n  }\n\n  function isPeer(address _peerAddress) public constant returns (bool)\n  {\n    return peerExists[_peerAddress];\n  }\n\n  function hasPeer(address _sender) public constant returns (bool)\n  {\n    return (ownerToPeerAndPeerToOwner[_sender] != 0x0);\n  }\n\n  function peerExistsAndOwnsSubmission(address _peer, address _reference) public constant returns (bool)\n  {\n    bool isAPeer = peerExists[_peer];\n    bool referenceIsSubmission = submissionExists[_reference];\n    bool peerOwnsSubmission = addressToOwnsSubmission[ownerToPeerAndPeerToOwner[_peer]][_reference];\n\n    return isAPeer && referenceIsSubmission && peerOwnsSubmission;\n  }\n\n  function peerAddress(address _sender) public constant returns (address)\n  {\n    return ownerToPeerAndPeerToOwner[_sender];\n  }\n\n  function isSubmission(address _submissionAddress) public constant returns (bool)\n  {\n    return submissionExists[_submissionAddress];\n  }\n\n  function hashForCategory(bytes32 _categoryHash) public constant returns (string _category)\n  {\n    return \"temporary category\";\n  }\n\n  /// @dev Returns whether or not the given tournament belongs to the sender.\n  /// @param _tournamentAddress Address of the tournament to check.\n  /// @return _isMine Whether or not the tournament belongs to the sender.\n  function getTournament_IsMine(address _tournamentAddress) public constant returns (bool _isMine)\n  {\n    require(tournamentExists[_tournamentAddress]);\n    Ownable tournament = Ownable(_tournamentAddress);\n    return (tournament.getOwner() == msg.sender);\n  }\n\n  /*\n   * Setter Methods\n   */ \n\n  /// @dev              Set the relative amount of MTX to be delivered to a submission's\n  ///                   references\n  /// @param _gratitude Weight from 0 to 1 (18 decimal uint) specifying enforced submission\n  ///                   gratitude\n  function setSubmissionGratitude(uint256 _gratitude) public onlyOwner\n  {\n      assert(_gratitude >= 0 && _gratitude <= (1*10**18));\n      submissionGratitude = uint256_optional({exists: true, value: _gratitude});\n  }\n\n  event TimeStamp(uint256 time);\n\n  function getNow() public view returns (uint256)\n  {\n    emit TimeStamp(now);\n    return now;\n  }\n\n  /*\n   * Getter Methods\n   */\n\n   function getTokenAddress() public constant returns (address)\n   {\n      return matryxTokenAddress;\n   }\n\n   function getTournamentFactoryAddress() public view returns (address)\n   {\n      return matryxTournamentFactoryAddress;\n   }\n\n   function getSubmissionTrustLibrary() public constant returns (address)\n   {\n      return matryxSubmissionTrustLibAddress;\n   }\n\n   /// @dev    Returns a weight from 0 to 1 (18 decimal uint) indicating\n   ///         how much of a submission's reward goes to its references.\n   /// @return Relative amount of MTX going to references of submissions under this tournament.\n   function getSubmissionGratitude() public constant returns (uint256)\n   {\n    require(submissionGratitude.exists);\n    return submissionGratitude.value;\n   }\n\n   /// @dev Returns addresses for submissions the sender has created.\n   /// @return Address array representing submissions.\n   function myTournaments() public constant returns (address[])\n   {\n    return ownerToTournamentArray[msg.sender];\n   }\n\n   function mySubmissions() public constant returns (address[])\n   {\n    return ownerToSubmissionArray[msg.sender];\n   }\n\n   /// @dev Returns the total number of tournaments\n   /// @return _tournamentCount Total number of tournaments.\n   function tournamentCount() public constant returns (uint256 _tournamentCount)\n   {\n       return allTournaments.length;\n   }\n \n   function getTournamentAtIndex(uint256 _index) public constant returns (address _tournamentAddress)\n   {\n     require(_index >= 0);\n     require(_index < allTournaments.length);\n     return allTournaments[_index];\n   }\n\n   function getTournaments() public view returns (address[])\n   {\n    return allTournaments;\n   }\n\n   function forceRevert(){\n    revert();\n   }\n}",
  "sourcePath": "/Users/maxhoward/Desktop/Ethereum/Development/Matryx/Projects/MatryxPlatform/contracts/MatryxPlatform.sol",
  "compiler": {
    "name": "solc",
    "version": "0.4.24+commit.e67f0147.Emscripten.clang"
  },
  "schemaVersion": "2.0.0",
  "updatedAt": "2018-06-29T00:24:50.749Z"
}