{
  "contractName": "MatryxPlatform",
  "abi": [
    {
      "constant": true,
      "inputs": [
        {
          "name": "",
          "type": "uint256"
        }
      ],
      "name": "tournamentList",
      "outputs": [
        {
          "name": "",
          "type": "uint256"
        }
      ],
      "payable": false,
      "stateMutability": "view",
      "type": "function"
    },
    {
      "constant": true,
      "inputs": [],
      "name": "getBalance",
      "outputs": [
        {
          "name": "",
          "type": "uint256"
        }
      ],
      "payable": false,
      "stateMutability": "view",
      "type": "function"
    },
    {
      "constant": true,
      "inputs": [],
      "name": "balanceIsNonZero",
      "outputs": [
        {
          "name": "",
          "type": "bool"
        }
      ],
      "payable": false,
      "stateMutability": "view",
      "type": "function"
    },
    {
      "constant": true,
      "inputs": [
        {
          "name": "tournamentId",
          "type": "uint256"
        }
      ],
      "name": "submissionCount",
      "outputs": [
        {
          "name": "",
          "type": "uint256"
        }
      ],
      "payable": false,
      "stateMutability": "view",
      "type": "function"
    },
    {
      "constant": true,
      "inputs": [
        {
          "name": "idx",
          "type": "uint256"
        }
      ],
      "name": "tournamentByIndex",
      "outputs": [
        {
          "name": "",
          "type": "uint256"
        },
        {
          "name": "",
          "type": "string"
        },
        {
          "name": "",
          "type": "string"
        },
        {
          "name": "",
          "type": "uint256"
        }
      ],
      "payable": false,
      "stateMutability": "view",
      "type": "function"
    },
    {
      "constant": true,
      "inputs": [
        {
          "name": "tournamentId",
          "type": "uint256"
        }
      ],
      "name": "tournamentByAddress",
      "outputs": [
        {
          "name": "",
          "type": "uint256"
        },
        {
          "name": "",
          "type": "string"
        },
        {
          "name": "",
          "type": "string"
        },
        {
          "name": "",
          "type": "uint256"
        }
      ],
      "payable": false,
      "stateMutability": "view",
      "type": "function"
    },
    {
      "constant": true,
      "inputs": [],
      "name": "tournamentCount",
      "outputs": [
        {
          "name": "",
          "type": "uint256"
        }
      ],
      "payable": false,
      "stateMutability": "view",
      "type": "function"
    },
    {
      "constant": true,
      "inputs": [
        {
          "name": "",
          "type": "uint256"
        }
      ],
      "name": "tournaments",
      "outputs": [
        {
          "name": "id",
          "type": "uint256"
        },
        {
          "name": "title",
          "type": "string"
        },
        {
          "name": "description",
          "type": "string"
        },
        {
          "name": "bounty",
          "type": "uint256"
        },
        {
          "name": "exists",
          "type": "bool"
        }
      ],
      "payable": false,
      "stateMutability": "view",
      "type": "function"
    },
    {
      "constant": false,
      "inputs": [
        {
          "name": "tournamentId",
          "type": "uint256"
        },
        {
          "name": "title",
          "type": "string"
        },
        {
          "name": "body",
          "type": "string"
        },
        {
          "name": "references",
          "type": "string"
        },
        {
          "name": "contributors",
          "type": "string"
        }
      ],
      "name": "createSubmission",
      "outputs": [],
      "payable": false,
      "stateMutability": "nonpayable",
      "type": "function"
    },
    {
      "constant": true,
      "inputs": [],
      "name": "getOwner",
      "outputs": [
        {
          "name": "_deployer",
          "type": "address"
        }
      ],
      "payable": false,
      "stateMutability": "view",
      "type": "function"
    },
    {
      "constant": false,
      "inputs": [
        {
          "name": "_queryID",
          "type": "uint256"
        },
        {
          "name": "_response",
          "type": "uint256"
        }
      ],
      "name": "storeQueryResponse",
      "outputs": [
        {
          "name": "success",
          "type": "bool"
        }
      ],
      "payable": false,
      "stateMutability": "nonpayable",
      "type": "function"
    },
    {
      "constant": true,
      "inputs": [
        {
          "name": "tournamentId",
          "type": "uint256"
        },
        {
          "name": "idx",
          "type": "uint256"
        }
      ],
      "name": "submissionByIndex",
      "outputs": [
        {
          "name": "",
          "type": "uint256"
        },
        {
          "name": "",
          "type": "string"
        },
        {
          "name": "",
          "type": "string"
        },
        {
          "name": "",
          "type": "string"
        },
        {
          "name": "",
          "type": "string"
        },
        {
          "name": "",
          "type": "address"
        }
      ],
      "payable": false,
      "stateMutability": "view",
      "type": "function"
    },
    {
      "constant": true,
      "inputs": [
        {
          "name": "tournamentId",
          "type": "uint256"
        },
        {
          "name": "submissionId",
          "type": "uint256"
        }
      ],
      "name": "submissionByAddress",
      "outputs": [
        {
          "name": "",
          "type": "uint256"
        },
        {
          "name": "",
          "type": "string"
        },
        {
          "name": "",
          "type": "string"
        },
        {
          "name": "",
          "type": "string"
        },
        {
          "name": "",
          "type": "string"
        },
        {
          "name": "",
          "type": "address"
        }
      ],
      "payable": false,
      "stateMutability": "view",
      "type": "function"
    },
    {
      "constant": false,
      "inputs": [
        {
          "name": "_query",
          "type": "bytes32"
        },
        {
          "name": "_sender",
          "type": "address"
        }
      ],
      "name": "Query",
      "outputs": [],
      "payable": false,
      "stateMutability": "nonpayable",
      "type": "function"
    },
    {
      "constant": false,
      "inputs": [
        {
          "name": "toIgnore",
          "type": "uint256"
        }
      ],
      "name": "prepareBalance",
      "outputs": [],
      "payable": false,
      "stateMutability": "nonpayable",
      "type": "function"
    },
    {
      "constant": false,
      "inputs": [
        {
          "name": "title",
          "type": "string"
        },
        {
          "name": "description",
          "type": "string"
        },
        {
          "name": "bounty",
          "type": "uint256"
        }
      ],
      "name": "createTournament",
      "outputs": [],
      "payable": false,
      "stateMutability": "nonpayable",
      "type": "function"
    },
    {
      "inputs": [],
      "payable": false,
      "stateMutability": "nonpayable",
      "type": "constructor"
    },
    {
      "anonymous": false,
      "inputs": [
        {
          "indexed": false,
          "name": "id",
          "type": "uint256"
        },
        {
          "indexed": false,
          "name": "sender",
          "type": "address"
        }
      ],
      "name": "QueryPerformed",
      "type": "event"
    }
  ],
  "bytecode": "0x6060604052341561000f57600080fd5b336000806101000a81548173ffffffffffffffffffffffffffffffffffffffff021916908373ffffffffffffffffffffffffffffffffffffffff1602179055506129f78061005e6000396000f3006060604052600436106100e6576000357c0100000000000000000000000000000000000000000000000000000000900463ffffffff168063053730ea146100eb57806312065fe01461012257806322985f921461014b5780632312cbf6146101785780635b67b6ba146101af57806363f11a40146102c55780636e2b2c7c146103db5780637503e1b71461040457806382f40bbf1461055f578063893d20e81461068e5780638b72062a146106e35780638e72761114610727578063c3c3d9ac1461094a578063d4a0182014610b6d578063edee41d914610bb3578063f504cf0c14610bd6575b600080fd5b34156100f657600080fd5b61010c6004808035906020019091905050610c7f565b6040518082815260200191505060405180910390f35b341561012d57600080fd5b610135610ca3565b6040518082815260200191505060405180910390f35b341561015657600080fd5b61015e610cb8565b604051808215151515815260200191505060405180910390f35b341561018357600080fd5b6101996004808035906020019091905050610cd6565b6040518082815260200191505060405180910390f35b34156101ba57600080fd5b6101d06004808035906020019091905050610eea565b604051808581526020018060200180602001848152602001838103835286818151815260200191508051906020019080838360005b83811015610220578082015181840152602081019050610205565b50505050905090810190601f16801561024d5780820380516001836020036101000a031916815260200191505b50838103825285818151815260200191508051906020019080838360005b8381101561028657808201518184015260208101905061026b565b50505050905090810190601f1680156102b35780820380516001836020036101000a031916815260200191505b50965050505050505060405180910390f35b34156102d057600080fd5b6102e6600480803590602001909190505061115b565b604051808581526020018060200180602001848152602001838103835286818151815260200191508051906020019080838360005b8381101561033657808201518184015260208101905061031b565b50505050905090810190601f1680156103635780820380516001836020036101000a031916815260200191505b50838103825285818151815260200191508051906020019080838360005b8381101561039c578082015181840152602081019050610381565b50505050905090810190601f1680156103c95780820380516001836020036101000a031916815260200191505b50965050505050505060405180910390f35b34156103e657600080fd5b6103ee61139d565b6040518082815260200191505060405180910390f35b341561040f57600080fd5b61042560048080359060200190919050506113aa565b604051808681526020018060200180602001858152602001841515151581526020018381038352878181546001816001161561010002031660029004815260200191508054600181600116156101000203166002900480156104c85780601f1061049d576101008083540402835291602001916104c8565b820191906000526020600020905b8154815290600101906020018083116104ab57829003601f168201915b505083810382528681815460018160011615610100020316600290048152602001915080546001816001161561010002031660029004801561054b5780601f106105205761010080835404028352916020019161054b565b820191906000526020600020905b81548152906001019060200180831161052e57829003601f168201915b505097505050505050505060405180910390f35b341561056a57600080fd5b61068c600480803590602001909190803590602001908201803590602001908080601f0160208091040260200160405190810160405280939291908181526020018383808284378201915050505050509190803590602001908201803590602001908080601f0160208091040260200160405190810160405280939291908181526020018383808284378201915050505050509190803590602001908201803590602001908080601f0160208091040260200160405190810160405280939291908181526020018383808284378201915050505050509190803590602001908201803590602001908080601f016020809104026020016040519081016040528093929190818152602001838380828437820191505050505050919050506113eb565b005b341561069957600080fd5b6106a1611613565b604051808273ffffffffffffffffffffffffffffffffffffffff1673ffffffffffffffffffffffffffffffffffffffff16815260200191505060405180910390f35b34156106ee57600080fd5b61070d600480803590602001909190803590602001909190505061163c565b604051808215151515815260200191505060405180910390f35b341561073257600080fd5b61075160048080359060200190919080359060200190919050506116ed565b60405180878152602001806020018060200180602001806020018673ffffffffffffffffffffffffffffffffffffffff1673ffffffffffffffffffffffffffffffffffffffff16815260200185810385528a818151815260200191508051906020019080838360005b838110156107d55780820151818401526020810190506107ba565b50505050905090810190601f1680156108025780820380516001836020036101000a031916815260200191505b50858103845289818151815260200191508051906020019080838360005b8381101561083b578082015181840152602081019050610820565b50505050905090810190601f1680156108685780820380516001836020036101000a031916815260200191505b50858103835288818151815260200191508051906020019080838360005b838110156108a1578082015181840152602081019050610886565b50505050905090810190601f1680156108ce5780820380516001836020036101000a031916815260200191505b50858103825287818151815260200191508051906020019080838360005b838110156109075780820151818401526020810190506108ec565b50505050905090810190601f1680156109345780820380516001836020036101000a031916815260200191505b509a505050505050505050505060405180910390f35b341561095557600080fd5b6109746004808035906020019091908035906020019091905050611b01565b60405180878152602001806020018060200180602001806020018673ffffffffffffffffffffffffffffffffffffffff1673ffffffffffffffffffffffffffffffffffffffff16815260200185810385528a818151815260200191508051906020019080838360005b838110156109f85780820151818401526020810190506109dd565b50505050905090810190601f168015610a255780820380516001836020036101000a031916815260200191505b50858103845289818151815260200191508051906020019080838360005b83811015610a5e578082015181840152602081019050610a43565b50505050905090810190601f168015610a8b5780820380516001836020036101000a031916815260200191505b50858103835288818151815260200191508051906020019080838360005b83811015610ac4578082015181840152602081019050610aa9565b50505050905090810190601f168015610af15780820380516001836020036101000a031916815260200191505b50858103825287818151815260200191508051906020019080838360005b83811015610b2a578082015181840152602081019050610b0f565b50505050905090810190601f168015610b575780820380516001836020036101000a031916815260200191505b509a505050505050505050505060405180910390f35b3415610b7857600080fd5b610bb160048080356000191690602001909190803573ffffffffffffffffffffffffffffffffffffffff16906020019091905050611ee3565b005b3415610bbe57600080fd5b610bd460048080359060200190919050506121f2565b005b3415610be157600080fd5b610c7d600480803590602001908201803590602001908080601f0160208091040260200160405190810160405280939291908181526020018383808284378201915050505050509190803590602001908201803590602001908080601f016020809104026020016040519081016040528093929190818152602001838380828437820191505050505050919080359060200190919050506122b6565b005b600581815481101515610c8e57fe5b90600052602060002090016000915090505481565b600080610caf33612433565b90508091505090565b6000806000610cc633612433565b9150600082119050809250505090565b6000610ce06124c1565b6004600084815260200190815260200160002060c0604051908101604052908160008201548152602001600182018054600181600116156101000203166002900480601f016020809104026020016040519081016040528092919081815260200182805460018160011615610100020316600290048015610da25780601f10610d7757610100808354040283529160200191610da2565b820191906000526020600020905b815481529060010190602001808311610d8557829003601f168201915b50505050508152602001600282018054600181600116156101000203166002900480601f016020809104026020016040519081016040528092919081815260200182805460018160011615610100020316600290048015610e445780601f10610e1957610100808354040283529160200191610e44565b820191906000526020600020905b815481529060010190602001808311610e2757829003601f168201915b505050505081526020016003820154815260200160058201805480602002602001604051908101604052809291908181526020018280548015610ea657602002820191906000526020600020905b815481526020019060010190808311610e92575b505050505081526020016006820160009054906101000a900460ff16151515158152505090508060a001511515610edc57600080fd5b806080015151915050919050565b6000610ef461250c565b610efc61250c565b6000610f066124c1565b85610f0f61139d565b111515610f1b57600080fd5b60046000600588815481101515610f2e57fe5b906000526020600020900154815260200190815260200160002060c0604051908101604052908160008201548152602001600182018054600181600116156101000203166002900480601f016020809104026020016040519081016040528092919081815260200182805460018160011615610100020316600290048015610ff75780601f10610fcc57610100808354040283529160200191610ff7565b820191906000526020600020905b815481529060010190602001808311610fda57829003601f168201915b50505050508152602001600282018054600181600116156101000203166002900480601f0160208091040260200160405190810160405280929190818152602001828054600181600116156101000203166002900480156110995780601f1061106e57610100808354040283529160200191611099565b820191906000526020600020905b81548152906001019060200180831161107c57829003601f168201915b5050505050815260200160038201548152602001600582018054806020026020016040519081016040528092919081815260200182805480156110fb57602002820191906000526020600020905b8154815260200190600101908083116110e7575b505050505081526020016006820160009054906101000a900460ff16151515158152505090508060a00151151561113157600080fd5b80600001518160200151826040015183606001518292508191509450945094509450509193509193565b600061116561250c565b61116d61250c565b60006111776124c1565b6004600087815260200190815260200160002060c0604051908101604052908160008201548152602001600182018054600181600116156101000203166002900480601f0160208091040260200160405190810160405280929190818152602001828054600181600116156101000203166002900480156112395780601f1061120e57610100808354040283529160200191611239565b820191906000526020600020905b81548152906001019060200180831161121c57829003601f168201915b50505050508152602001600282018054600181600116156101000203166002900480601f0160208091040260200160405190810160405280929190818152602001828054600181600116156101000203166002900480156112db5780601f106112b0576101008083540402835291602001916112db565b820191906000526020600020905b8154815290600101906020018083116112be57829003601f168201915b50505050508152602001600382015481526020016005820180548060200260200160405190810160405280929190818152602001828054801561133d57602002820191906000526020600020905b815481526020019060010190808311611329575b505050505081526020016006820160009054906101000a900460ff16151515158152505090508060a00151151561137357600080fd5b80600001518160200151826040015183606001518292508191509450945094509450509193509193565b6000600580549050905090565b6004602052806000526040600020600091509050806000015490806001019080600201908060030154908060060160009054906101000a900460ff16905085565b6000806113f6612520565b6004600089815260200190815260200160002092508260060160009054906101000a900460ff16151561142857600080fd5b61143133612433565b915060008211151561144257600080fd5b87816000018181525050602a61145789610cd6565b01816020018181525050868160400181905250858160600181905250848160800181905250838160a00181905250338160c0019073ffffffffffffffffffffffffffffffffffffffff16908173ffffffffffffffffffffffffffffffffffffffff168152505060018160e0019015159081151581525050808360040160008360200151815260200190815260200160002060008201518160000155602082015181600101556040820151816002019080519060200190611518929190612596565b506060820151816003019080519060200190611535929190612596565b506080820151816004019080519060200190611552929190612596565b5060a082015181600501908051906020019061156f929190612596565b5060c08201518160060160006101000a81548173ffffffffffffffffffffffffffffffffffffffff021916908373ffffffffffffffffffffffffffffffffffffffff16021790555060e08201518160060160146101000a81548160ff0219169083151502179055509050508260050180548060010182816115f09190612616565b916000526020600020900160008360200151909190915055505050505050505050565b60008060009054906101000a900473ffffffffffffffffffffffffffffffffffffffff16905090565b60008060009054906101000a900473ffffffffffffffffffffffffffffffffffffffff1673ffffffffffffffffffffffffffffffffffffffff163373ffffffffffffffffffffffffffffffffffffffff1614151561169957600080fd5b6000821180156116bc575060006003600085815260200190815260200160002054145b156116e257816003600085815260200190815260200160002081905550600190506116e7565b600090505b92915050565b60006116f761250c565b6116ff61250c565b61170761250c565b61170f61250c565b60008061171a612520565b886117248b610cd6565b11151561173057600080fd5b600460008b815260200190815260200160002091508160060160009054906101000a900460ff16151561176257600080fd5b816004016000836005018b81548110151561177957fe5b906000526020600020900154815260200190815260200160002061010060405190810160405290816000820154815260200160018201548152602001600282018054600181600116156101000203166002900480601f01602080910402602001604051908101604052809291908181526020018280546001816001161561010002031660029004801561184d5780601f106118225761010080835404028352916020019161184d565b820191906000526020600020905b81548152906001019060200180831161183057829003601f168201915b50505050508152602001600382018054600181600116156101000203166002900480601f0160208091040260200160405190810160405280929190818152602001828054600181600116156101000203166002900480156118ef5780601f106118c4576101008083540402835291602001916118ef565b820191906000526020600020905b8154815290600101906020018083116118d257829003601f168201915b50505050508152602001600482018054600181600116156101000203166002900480601f0160208091040260200160405190810160405280929190818152602001828054600181600116156101000203166002900480156119915780601f1061196657610100808354040283529160200191611991565b820191906000526020600020905b81548152906001019060200180831161197457829003601f168201915b50505050508152602001600582018054600181600116156101000203166002900480601f016020809104026020016040519081016040528092919081815260200182805460018160011615610100020316600290048015611a335780601f10611a0857610100808354040283529160200191611a33565b820191906000526020600020905b815481529060010190602001808311611a1657829003601f168201915b505050505081526020016006820160009054906101000a900473ffffffffffffffffffffffffffffffffffffffff1673ffffffffffffffffffffffffffffffffffffffff1673ffffffffffffffffffffffffffffffffffffffff1681526020016006820160149054906101000a900460ff16151515158152505090508060e001511515611abf57600080fd5b80602001518160400151826060015183608001518460a001518560c0015184945083935082925081915097509750975097509750975050509295509295509295565b6000611b0b61250c565b611b1361250c565b611b1b61250c565b611b2361250c565b600080611b2e612520565b600460008b815260200190815260200160002091508160060160009054906101000a900460ff161515611b6057600080fd5b8160040160008a815260200190815260200160002061010060405190810160405290816000820154815260200160018201548152602001600282018054600181600116156101000203166002900480601f016020809104026020016040519081016040528092919081815260200182805460018160011615610100020316600290048015611c2f5780601f10611c0457610100808354040283529160200191611c2f565b820191906000526020600020905b815481529060010190602001808311611c1257829003601f168201915b50505050508152602001600382018054600181600116156101000203166002900480601f016020809104026020016040519081016040528092919081815260200182805460018160011615610100020316600290048015611cd15780601f10611ca657610100808354040283529160200191611cd1565b820191906000526020600020905b815481529060010190602001808311611cb457829003601f168201915b50505050508152602001600482018054600181600116156101000203166002900480601f016020809104026020016040519081016040528092919081815260200182805460018160011615610100020316600290048015611d735780601f10611d4857610100808354040283529160200191611d73565b820191906000526020600020905b815481529060010190602001808311611d5657829003601f168201915b50505050508152602001600582018054600181600116156101000203166002900480601f016020809104026020016040519081016040528092919081815260200182805460018160011615610100020316600290048015611e155780601f10611dea57610100808354040283529160200191611e15565b820191906000526020600020905b815481529060010190602001808311611df857829003601f168201915b505050505081526020016006820160009054906101000a900473ffffffffffffffffffffffffffffffffffffffff1673ffffffffffffffffffffffffffffffffffffffff1673ffffffffffffffffffffffffffffffffffffffff1681526020016006820160149054906101000a900460ff16151515158152505090508060e001511515611ea157600080fd5b80602001518160400151826060015183608001518460a001518560c0015184945083935082925081915097509750975097509750975050509295509295509295565b6000806000600160008573ffffffffffffffffffffffffffffffffffffffff1673ffffffffffffffffffffffffffffffffffffffff16815260200190815260200160002060009054906101000a900473ffffffffffffffffffffffffffffffffffffffff1673ffffffffffffffffffffffffffffffffffffffff161115611fcb57600160008473ffffffffffffffffffffffffffffffffffffffff1673ffffffffffffffffffffffffffffffffffffffff16815260200190815260200160002060009054906101000a900473ffffffffffffffffffffffffffffffffffffffff1691506120a1565b82611fd4612642565b808273ffffffffffffffffffffffffffffffffffffffff1673ffffffffffffffffffffffffffffffffffffffff168152602001915050604051809103906000f080151561202057600080fd5b915081600160008573ffffffffffffffffffffffffffffffffffffffff1673ffffffffffffffffffffffffffffffffffffffff16815260200190815260200160002060006101000a81548173ffffffffffffffffffffffffffffffffffffffff021916908373ffffffffffffffffffffffffffffffffffffffff1602179055505b8173ffffffffffffffffffffffffffffffffffffffff1663a3b61a9c856000604051602001526040518263ffffffff167c0100000000000000000000000000000000000000000000000000000000028152600401808260001916600019168152602001915050602060405180830381600087803b151561212057600080fd5b6102c65a03f1151561213157600080fd5b50505060405180519050905080600260008573ffffffffffffffffffffffffffffffffffffffff1673ffffffffffffffffffffffffffffffffffffffff168152602001908152602001600020819055507f1c16af450a72e7153ed6faee28677e32f11936f8ab2e63322d032d1f753b5aea8184604051808381526020018273ffffffffffffffffffffffffffffffffffffffff1673ffffffffffffffffffffffffffffffffffffffff1681526020019250505060405180910390a150505050565b3073ffffffffffffffffffffffffffffffffffffffff1663d4a0182082600102336040518363ffffffff167c01000000000000000000000000000000000000000000000000000000000281526004018083600019166000191681526020018273ffffffffffffffffffffffffffffffffffffffff1673ffffffffffffffffffffffffffffffffffffffff16815260200192505050600060405180830381600087803b151561229f57600080fd5b6102c65a03f115156122b057600080fd5b50505050565b6122be6124c1565b6000809054906101000a900473ffffffffffffffffffffffffffffffffffffffff1673ffffffffffffffffffffffffffffffffffffffff163373ffffffffffffffffffffffffffffffffffffffff1614151561231957600080fd5b602a61232361139d565b018160000181815250508381602001819052508281604001819052508181606001818152505060018160a0019015159081151581525050806004600083600001518152602001908152602001600020600082015181600001556020820151816001019080519060200190612398929190612596565b5060408201518160020190805190602001906123b5929190612596565b506060820151816003015560808201518160050190805190602001906123dc929190612652565b5060a08201518160060160006101000a81548160ff021916908315150217905550905050600580548060010182816124149190612616565b9160005260206000209001600083600001519091909150555050505050565b6000806000600260008573ffffffffffffffffffffffffffffffffffffffff1673ffffffffffffffffffffffffffffffffffffffff16815260200190815260200160002054915060008211151561248d57600092506124ba565b600360008381526020019081526020016000205490506000811115156124b657600092506124ba565b8092505b5050919050565b60c060405190810160405280600081526020016124dc61269f565b81526020016124e961269f565b8152602001600081526020016124fd6126b3565b81526020016000151581525090565b602060405190810160405280600081525090565b61010060405190810160405280600081526020016000815260200161254361269f565b815260200161255061269f565b815260200161255d61269f565b815260200161256a61269f565b8152602001600073ffffffffffffffffffffffffffffffffffffffff1681526020016000151581525090565b828054600181600116156101000203166002900490600052602060002090601f016020900481019282601f106125d757805160ff1916838001178555612605565b82800160010185558215612605579182015b828111156126045782518255916020019190600101906125e9565b5b50905061261291906126c7565b5090565b81548183558181151161263d5781836000526020600020918201910161263c91906126c7565b5b505050565b6040516102df806126ed83390190565b82805482825590600052602060002090810192821561268e579160200282015b8281111561268d578251825591602001919060010190612672565b5b50905061269b91906126c7565b5090565b602060405190810160405280600081525090565b602060405190810160405280600081525090565b6126e991905b808211156126e55760008160009055506001016126cd565b5090565b9056006060604052341561000f57600080fd5b6040516020806102df83398101604052808051906020019091905050336000806101000a81548173ffffffffffffffffffffffffffffffffffffffff021916908373ffffffffffffffffffffffffffffffffffffffff16021790555080600160006101000a81548173ffffffffffffffffffffffffffffffffffffffff021916908373ffffffffffffffffffffffffffffffffffffffff16021790555050610223806100bc6000396000f30060606040526004361061004c576000357c0100000000000000000000000000000000000000000000000000000000900463ffffffff16806341c0e1b514610051578063a3b61a9c14610066575b600080fd5b341561005c57600080fd5b6100646100a1565b005b341561007157600080fd5b61008b600480803560001916906020019091905050610115565b6040518082815260200191505060405180910390f35b6000809054906101000a900473ffffffffffffffffffffffffffffffffffffffff1673ffffffffffffffffffffffffffffffffffffffff163373ffffffffffffffffffffffffffffffffffffffff161415156100fc57600080fd5b3373ffffffffffffffffffffffffffffffffffffffff16ff5b60008060009054906101000a900473ffffffffffffffffffffffffffffffffffffffff1673ffffffffffffffffffffffffffffffffffffffff163373ffffffffffffffffffffffffffffffffffffffff1614151561017257600080fd5b434283336040518085815260200184815260200183600019166000191681526020018273ffffffffffffffffffffffffffffffffffffffff1673ffffffffffffffffffffffffffffffffffffffff166c0100000000000000000000000002815260140194505050505060405180910390206001900460028190555060025490509190505600a165627a7a723058202ae01b529d229daed2027f2a358ed04ebaba4fb7fbc81743703d419975e7af610029a165627a7a72305820e7649eb17f973b5adcc01e041f68896283033d4f6735b9583daddd6c931baa300029",
  "source": "pragma solidity ^0.4.18;\n\nimport \"./MatryxOracleMessenger.sol\";\n\ncontract MatryxPlatform is MatryxOracleMessenger\n{\n\n    struct Submission\n    {\n        uint256 tournamentId;\n        uint256 id;\n\n        string title;\n        string body;\n        string references;\n        string contributors;\n        address author;\n\n        bool exists;\n    }\n\n    struct Tournament\n    {\n        uint256 id;\n\n        string title;\n        string description;\n        uint256 bounty;\n\n        mapping (uint256 => Submission) submissions;\n        uint256[] submissionList;\n\n        bool exists;\n    }\n\n    mapping (uint256 => Tournament) public tournaments;\n    uint256[] public tournamentList;\n\n    modifier owneronly()\n    {\n        require(msg.sender == owner);\n        _;\n    }\n\n    function MatryxPlatform() public\n    {\n    }\n\n    function prepareBalance(uint256 toIgnore) public\n    {\n        this.Query(bytes32(toIgnore), msg.sender);\n    }\n\n    function balanceIsNonZero() public view returns (bool)\n    {\n        uint balance = latestResponseFromOracle(msg.sender);\n        bool nonZero = balance > 0x0;\n        return nonZero;\n    }\n\n    function getBalance() public constant returns (uint256)\n    {\n        uint256 balance = latestResponseFromOracle(msg.sender);\n        return balance;\n    }\n\n    function createTournament(string title, string description, uint256 bounty) owneronly public\n    {\n        Tournament memory newTournament;\n        newTournament.id = tournamentCount() + 42;\n        newTournament.title = title;\n        newTournament.description = description;\n        newTournament.bounty = bounty;\n        newTournament.exists = true;\n        tournaments[newTournament.id] = newTournament;\n        tournamentList.push(newTournament.id);\n    }\n\n    function createSubmission(uint256 tournamentId, string title, string body, string references, string contributors) public\n    {\n        // Require tournament exists\n        Tournament storage t = tournaments[tournamentId];\n        require(t.exists);\n\n        uint256 balanceMTX = latestResponseFromOracle(msg.sender);\n        require(balanceMTX > 0x0);\n\n        Submission memory newSubmission;\n        newSubmission.tournamentId = tournamentId;\n        newSubmission.id = submissionCount(tournamentId) + 42;\n        newSubmission.title = title;\n        newSubmission.body = body;\n        newSubmission.references = references;\n        newSubmission.contributors = contributors;\n        newSubmission.author = msg.sender;\n        newSubmission.exists = true;\n        t.submissions[newSubmission.id] = newSubmission;\n        t.submissionList.push(newSubmission.id);\n    }\n\n    function tournamentByIndex(uint256 idx) public constant returns (uint256, string, string, uint256)\n    {\n        require(tournamentCount() > idx);\n        Tournament memory t = tournaments[tournamentList[idx]];\n        require(t.exists);\n        return (t.id, t.title, t.description, t.bounty);\n    }\n\n    function tournamentByAddress(uint256 tournamentId) public constant returns (uint256, string, string, uint256)\n    {\n        Tournament memory t = tournaments[tournamentId];\n        require(t.exists);\n        return (t.id, t.title, t.description, t.bounty);\n    }\n\n    function tournamentCount() public constant returns (uint256)\n    {\n        return tournamentList.length;\n    }\n\n    function submissionByIndex(uint256 tournamentId, uint256 idx) public constant returns (uint256, string, string, string, string, address)\n    {\n        require(submissionCount(tournamentId) > idx);\n        Tournament storage t = tournaments[tournamentId];\n        require(t.exists);\n        Submission memory s = t.submissions[t.submissionList[idx]];\n        require(s.exists);\n        return (s.id, s.title, s.body, s.references, s.contributors, s.author);\n    }\n\n    function submissionByAddress(uint256 tournamentId, uint256 submissionId) public constant returns (uint256, string, string, string, string, address)\n    {\n        Tournament storage t = tournaments[tournamentId];\n        require(t.exists);\n        Submission memory s = t.submissions[submissionId];\n        require(s.exists);\n        return (s.id, s.title, s.body, s.references, s.contributors, s.author);\n    }\n\n    function submissionCount(uint256 tournamentId) public constant returns (uint256)\n    {\n        Tournament memory t = tournaments[tournamentId];\n        require(t.exists);\n        return t.submissionList.length;\n    }\n\n}\n",
  "sourcePath": "/Users/maxhoward/Desktop/Ethereum Development/Matryx AWS/Projects/matryx-alpha-source/contracts/MatryxPlatform.sol",
  "compiler": {
    "name": "solc",
    "version": "0.4.18+commit.9cf6e910.Emscripten.clang"
  },
  "schemaVersion": "1.0.1",
  "updatedAt": "2017-11-23T02:22:41.268Z"
}