{
  "contractName": "MatryxPlatform",
  "abi": [
    {
      "constant": true,
      "inputs": [],
      "name": "matryxTournamentFactoryAddress",
      "outputs": [
        {
          "name": "",
          "type": "address"
        }
      ],
      "payable": false,
      "stateMutability": "view",
      "type": "function"
    },
    {
      "constant": true,
      "inputs": [],
      "name": "matryxTokenAddress",
      "outputs": [
        {
          "name": "",
          "type": "address"
        }
      ],
      "payable": false,
      "stateMutability": "view",
      "type": "function"
    },
    {
      "constant": true,
      "inputs": [
        {
          "name": "_sender",
          "type": "address"
        }
      ],
      "name": "isOwner",
      "outputs": [
        {
          "name": "_isOwner",
          "type": "bool"
        }
      ],
      "payable": false,
      "stateMutability": "view",
      "type": "function"
    },
    {
      "constant": true,
      "inputs": [
        {
          "name": "",
          "type": "address"
        }
      ],
      "name": "peerExists",
      "outputs": [
        {
          "name": "",
          "type": "bool"
        }
      ],
      "payable": false,
      "stateMutability": "view",
      "type": "function"
    },
    {
      "constant": true,
      "inputs": [],
      "name": "getOwner",
      "outputs": [
        {
          "name": "_owner",
          "type": "address"
        }
      ],
      "payable": false,
      "stateMutability": "view",
      "type": "function"
    },
    {
      "constant": true,
      "inputs": [],
      "name": "matryxRoundLibAddress",
      "outputs": [
        {
          "name": "",
          "type": "address"
        }
      ],
      "payable": false,
      "stateMutability": "view",
      "type": "function"
    },
    {
      "constant": true,
      "inputs": [],
      "name": "owner",
      "outputs": [
        {
          "name": "",
          "type": "address"
        }
      ],
      "payable": false,
      "stateMutability": "view",
      "type": "function"
    },
    {
      "constant": true,
      "inputs": [
        {
          "name": "",
          "type": "address"
        }
      ],
      "name": "ownerToPeerAndPeerToOwner",
      "outputs": [
        {
          "name": "",
          "type": "address"
        }
      ],
      "payable": false,
      "stateMutability": "view",
      "type": "function"
    },
    {
      "constant": true,
      "inputs": [],
      "name": "matryxPeerFactoryAddress",
      "outputs": [
        {
          "name": "",
          "type": "address"
        }
      ],
      "payable": false,
      "stateMutability": "view",
      "type": "function"
    },
    {
      "constant": true,
      "inputs": [],
      "name": "matryxSubmissionFactoryAddress",
      "outputs": [
        {
          "name": "",
          "type": "address"
        }
      ],
      "payable": false,
      "stateMutability": "view",
      "type": "function"
    },
    {
      "constant": true,
      "inputs": [
        {
          "name": "",
          "type": "uint256"
        }
      ],
      "name": "categoryList",
      "outputs": [
        {
          "name": "",
          "type": "bytes32"
        }
      ],
      "payable": false,
      "stateMutability": "view",
      "type": "function"
    },
    {
      "constant": true,
      "inputs": [
        {
          "name": "",
          "type": "uint256"
        }
      ],
      "name": "allTournaments",
      "outputs": [
        {
          "name": "",
          "type": "address"
        }
      ],
      "payable": false,
      "stateMutability": "view",
      "type": "function"
    },
    {
      "constant": false,
      "inputs": [
        {
          "name": "newOwner",
          "type": "address"
        }
      ],
      "name": "transferOwnership",
      "outputs": [],
      "payable": false,
      "stateMutability": "nonpayable",
      "type": "function"
    },
    {
      "inputs": [
        {
          "name": "_matryxTokenAddress",
          "type": "address"
        },
        {
          "name": "_matryxPeerFactoryAddress",
          "type": "address"
        },
        {
          "name": "_matryxTournamentFactoryAddress",
          "type": "address"
        },
        {
          "name": "_matryxSubmissionFactoryAddress",
          "type": "address"
        }
      ],
      "payable": false,
      "stateMutability": "nonpayable",
      "type": "constructor"
    },
    {
      "anonymous": false,
      "inputs": [
        {
          "indexed": false,
          "name": "_discipline",
          "type": "bytes32"
        },
        {
          "indexed": false,
          "name": "_owner",
          "type": "address"
        },
        {
          "indexed": false,
          "name": "_tournamentAddress",
          "type": "address"
        },
        {
          "indexed": false,
          "name": "_tournamentName",
          "type": "bytes32[3]"
        },
        {
          "indexed": false,
          "name": "_descriptionHash",
          "type": "bytes32[2]"
        },
        {
          "indexed": false,
          "name": "_MTXReward",
          "type": "uint256"
        },
        {
          "indexed": false,
          "name": "_entryFee",
          "type": "uint256"
        }
      ],
      "name": "TournamentCreated",
      "type": "event"
    },
    {
      "anonymous": false,
      "inputs": [
        {
          "indexed": false,
          "name": "_tournamentAddress",
          "type": "address"
        },
        {
          "indexed": false,
          "name": "_tournamentName_1",
          "type": "bytes32"
        },
        {
          "indexed": false,
          "name": "_tournamentName_2",
          "type": "bytes32"
        },
        {
          "indexed": false,
          "name": "_tournamentName_3",
          "type": "bytes32"
        },
        {
          "indexed": false,
          "name": "_externalAddress_1",
          "type": "bytes32"
        },
        {
          "indexed": false,
          "name": "_externalAddress_2",
          "type": "bytes32"
        },
        {
          "indexed": false,
          "name": "_MTXReward",
          "type": "uint256"
        },
        {
          "indexed": false,
          "name": "_entryFee",
          "type": "uint256"
        }
      ],
      "name": "TournamentOpened",
      "type": "event"
    },
    {
      "anonymous": false,
      "inputs": [
        {
          "indexed": false,
          "name": "_tournamentAddress",
          "type": "address"
        },
        {
          "indexed": false,
          "name": "_finalRoundNumber",
          "type": "uint256"
        },
        {
          "indexed": false,
          "name": "_MTXReward",
          "type": "uint256"
        }
      ],
      "name": "TournamentClosed",
      "type": "event"
    },
    {
      "anonymous": false,
      "inputs": [
        {
          "indexed": false,
          "name": "_entrant",
          "type": "address"
        },
        {
          "indexed": false,
          "name": "_tournamentAddress",
          "type": "address"
        }
      ],
      "name": "UserEnteredTournament",
      "type": "event"
    },
    {
      "anonymous": false,
      "inputs": [
        {
          "indexed": false,
          "name": "queryID",
          "type": "string"
        }
      ],
      "name": "QueryID",
      "type": "event"
    },
    {
      "anonymous": false,
      "inputs": [
        {
          "indexed": false,
          "name": "time",
          "type": "uint256"
        }
      ],
      "name": "TimeStamp",
      "type": "event"
    },
    {
      "constant": false,
      "inputs": [
        {
          "name": "_finalRoundNumber",
          "type": "uint256"
        },
        {
          "name": "_MTXReward",
          "type": "uint256"
        }
      ],
      "name": "invokeTournamentClosedEvent",
      "outputs": [],
      "payable": false,
      "stateMutability": "nonpayable",
      "type": "function"
    },
    {
      "constant": false,
      "inputs": [
        {
          "name": "_nameHash",
          "type": "bytes32"
        },
        {
          "name": "_contractAddress",
          "type": "address"
        }
      ],
      "name": "setContractAddress",
      "outputs": [],
      "payable": false,
      "stateMutability": "nonpayable",
      "type": "function"
    },
    {
      "constant": false,
      "inputs": [
        {
          "name": "_matryxTokenAddress",
          "type": "address"
        }
      ],
      "name": "setTokenAddress",
      "outputs": [],
      "payable": false,
      "stateMutability": "nonpayable",
      "type": "function"
    },
    {
      "constant": false,
      "inputs": [
        {
          "name": "_nameHash",
          "type": "bytes32"
        }
      ],
      "name": "getContractAddress",
      "outputs": [
        {
          "name": "contractAddress",
          "type": "address"
        }
      ],
      "payable": false,
      "stateMutability": "nonpayable",
      "type": "function"
    },
    {
      "constant": false,
      "inputs": [
        {
          "name": "_owner",
          "type": "address"
        },
        {
          "name": "_submission",
          "type": "address"
        }
      ],
      "name": "updateSubmissions",
      "outputs": [],
      "payable": false,
      "stateMutability": "nonpayable",
      "type": "function"
    },
    {
      "constant": false,
      "inputs": [
        {
          "name": "_submissionAddress",
          "type": "address"
        },
        {
          "name": "_tournamentAddress",
          "type": "address"
        }
      ],
      "name": "removeSubmission",
      "outputs": [
        {
          "name": "",
          "type": "bool"
        }
      ],
      "payable": false,
      "stateMutability": "nonpayable",
      "type": "function"
    },
    {
      "constant": false,
      "inputs": [
        {
          "name": "_tournamentAddress",
          "type": "address"
        },
        {
          "name": "_category",
          "type": "bytes32"
        }
      ],
      "name": "addTournamentToCategory",
      "outputs": [],
      "payable": false,
      "stateMutability": "nonpayable",
      "type": "function"
    },
    {
      "constant": false,
      "inputs": [
        {
          "name": "_tournamentAddress",
          "type": "address"
        },
        {
          "name": "_category",
          "type": "bytes32"
        }
      ],
      "name": "removeTournamentFromCategory",
      "outputs": [],
      "payable": false,
      "stateMutability": "nonpayable",
      "type": "function"
    },
    {
      "constant": false,
      "inputs": [
        {
          "name": "_tournamentAddress",
          "type": "address"
        },
        {
          "name": "_oldCategory",
          "type": "bytes32"
        },
        {
          "name": "_newCategory",
          "type": "bytes32"
        }
      ],
      "name": "switchTournamentCategory",
      "outputs": [],
      "payable": false,
      "stateMutability": "nonpayable",
      "type": "function"
    },
    {
      "constant": true,
      "inputs": [
        {
          "name": "_category",
          "type": "bytes32"
        }
      ],
      "name": "getTournamentsByCategory",
      "outputs": [
        {
          "name": "",
          "type": "address[]"
        }
      ],
      "payable": false,
      "stateMutability": "view",
      "type": "function"
    },
    {
      "constant": true,
      "inputs": [
        {
          "name": "_category",
          "type": "bytes32"
        }
      ],
      "name": "getCategoryCount",
      "outputs": [
        {
          "name": "",
          "type": "uint256"
        }
      ],
      "payable": false,
      "stateMutability": "view",
      "type": "function"
    },
    {
      "constant": true,
      "inputs": [
        {
          "name": "_index",
          "type": "uint256"
        }
      ],
      "name": "getCategoryByIndex",
      "outputs": [
        {
          "name": "",
          "type": "bytes32"
        }
      ],
      "payable": false,
      "stateMutability": "view",
      "type": "function"
    },
    {
      "constant": true,
      "inputs": [],
      "name": "getAllCategories",
      "outputs": [
        {
          "name": "",
          "type": "uint256"
        },
        {
          "name": "",
          "type": "bytes32[]"
        }
      ],
      "payable": false,
      "stateMutability": "view",
      "type": "function"
    },
    {
      "constant": false,
      "inputs": [
        {
          "name": "_tournamentAddress",
          "type": "address"
        }
      ],
      "name": "enterTournament",
      "outputs": [
        {
          "name": "_success",
          "type": "bool"
        }
      ],
      "payable": false,
      "stateMutability": "nonpayable",
      "type": "function"
    },
    {
      "constant": false,
      "inputs": [
        {
          "components": [
            {
              "name": "category",
              "type": "bytes32"
            },
            {
              "name": "title",
              "type": "bytes32[3]"
            },
            {
              "name": "descriptionHash",
              "type": "bytes32[2]"
            },
            {
              "name": "fileHash",
              "type": "bytes32[2]"
            },
            {
              "name": "initialBounty",
              "type": "uint256"
            },
            {
              "name": "entryFee",
              "type": "uint256"
            }
          ],
          "name": "tournamentData",
          "type": "tuple"
        },
        {
          "components": [
            {
              "name": "start",
              "type": "uint256"
            },
            {
              "name": "end",
              "type": "uint256"
            },
            {
              "name": "reviewPeriodDuration",
              "type": "uint256"
            },
            {
              "name": "bounty",
              "type": "uint256"
            },
            {
              "name": "closed",
              "type": "bool"
            }
          ],
          "name": "roundData",
          "type": "tuple"
        }
      ],
      "name": "createTournament",
      "outputs": [
        {
          "name": "_tournamentAddress",
          "type": "address"
        }
      ],
      "payable": false,
      "stateMutability": "nonpayable",
      "type": "function"
    },
    {
      "constant": false,
      "inputs": [],
      "name": "createPeer",
      "outputs": [
        {
          "name": "",
          "type": "address"
        }
      ],
      "payable": false,
      "stateMutability": "nonpayable",
      "type": "function"
    },
    {
      "constant": true,
      "inputs": [
        {
          "name": "_peerAddress",
          "type": "address"
        }
      ],
      "name": "isPeer",
      "outputs": [
        {
          "name": "",
          "type": "bool"
        }
      ],
      "payable": false,
      "stateMutability": "view",
      "type": "function"
    },
    {
      "constant": true,
      "inputs": [
        {
          "name": "_sender",
          "type": "address"
        }
      ],
      "name": "hasPeer",
      "outputs": [
        {
          "name": "",
          "type": "bool"
        }
      ],
      "payable": false,
      "stateMutability": "view",
      "type": "function"
    },
    {
      "constant": true,
      "inputs": [
        {
          "name": "_peer",
          "type": "address"
        },
        {
          "name": "_reference",
          "type": "address"
        }
      ],
      "name": "peerExistsAndOwnsSubmission",
      "outputs": [
        {
          "name": "",
          "type": "bool"
        }
      ],
      "payable": false,
      "stateMutability": "view",
      "type": "function"
    },
    {
      "constant": true,
      "inputs": [
        {
          "name": "_sender",
          "type": "address"
        }
      ],
      "name": "peerAddress",
      "outputs": [
        {
          "name": "",
          "type": "address"
        }
      ],
      "payable": false,
      "stateMutability": "view",
      "type": "function"
    },
    {
      "constant": true,
      "inputs": [
        {
          "name": "_submissionAddress",
          "type": "address"
        }
      ],
      "name": "isSubmission",
      "outputs": [
        {
          "name": "",
          "type": "bool"
        }
      ],
      "payable": false,
      "stateMutability": "view",
      "type": "function"
    },
    {
      "constant": true,
      "inputs": [
        {
          "name": "_tournamentAddress",
          "type": "address"
        }
      ],
      "name": "getTournament_IsMine",
      "outputs": [
        {
          "name": "_isMine",
          "type": "bool"
        }
      ],
      "payable": false,
      "stateMutability": "view",
      "type": "function"
    },
    {
      "constant": false,
      "inputs": [
        {
          "name": "_gratitude",
          "type": "uint256"
        }
      ],
      "name": "setSubmissionGratitude",
      "outputs": [],
      "payable": false,
      "stateMutability": "nonpayable",
      "type": "function"
    },
    {
      "constant": true,
      "inputs": [],
      "name": "getNow",
      "outputs": [
        {
          "name": "",
          "type": "uint256"
        }
      ],
      "payable": false,
      "stateMutability": "view",
      "type": "function"
    },
    {
      "constant": true,
      "inputs": [],
      "name": "getTokenAddress",
      "outputs": [
        {
          "name": "",
          "type": "address"
        }
      ],
      "payable": false,
      "stateMutability": "view",
      "type": "function"
    },
    {
      "constant": true,
      "inputs": [],
      "name": "getTournamentFactoryAddress",
      "outputs": [
        {
          "name": "",
          "type": "address"
        }
      ],
      "payable": false,
      "stateMutability": "view",
      "type": "function"
    },
    {
      "constant": true,
      "inputs": [],
      "name": "getSubmissionGratitude",
      "outputs": [
        {
          "name": "",
          "type": "uint256"
        }
      ],
      "payable": false,
      "stateMutability": "view",
      "type": "function"
    },
    {
      "constant": true,
      "inputs": [],
      "name": "myTournaments",
      "outputs": [
        {
          "name": "",
          "type": "address[]"
        }
      ],
      "payable": false,
      "stateMutability": "view",
      "type": "function"
    },
    {
      "constant": true,
      "inputs": [],
      "name": "mySubmissions",
      "outputs": [
        {
          "name": "",
          "type": "address[]"
        }
      ],
      "payable": false,
      "stateMutability": "view",
      "type": "function"
    },
    {
      "constant": true,
      "inputs": [],
      "name": "tournamentCount",
      "outputs": [
        {
          "name": "_tournamentCount",
          "type": "uint256"
        }
      ],
      "payable": false,
      "stateMutability": "view",
      "type": "function"
    },
    {
      "constant": true,
      "inputs": [
        {
          "name": "_index",
          "type": "uint256"
        }
      ],
      "name": "getTournamentAtIndex",
      "outputs": [
        {
          "name": "_tournamentAddress",
          "type": "address"
        }
      ],
      "payable": false,
      "stateMutability": "view",
      "type": "function"
    },
    {
      "constant": true,
      "inputs": [],
      "name": "getTournaments",
      "outputs": [
        {
          "name": "",
          "type": "address[]"
        }
      ],
      "payable": false,
      "stateMutability": "view",
      "type": "function"
    },
    {
      "constant": false,
      "inputs": [],
      "name": "forceRevert",
      "outputs": [],
      "payable": false,
      "stateMutability": "nonpayable",
      "type": "function"
    }
  ],
  "bytecode": "0x60c0604052600160808190526702c68af0bb14000060a08190526017805460ff19169092179091556018553480156200003757600080fd5b50604051608080620028d48339810180604052620000599190810190620000cc565b6000805433600160a060020a031991821617909155600180548216600160a060020a03968716179055600280548216948616949094179093556003805484169285169290921790915560048054909216921691909117905562000142565b6000620000c5825162000136565b9392505050565b60008060008060808587031215620000e357600080fd5b6000620000f18787620000b7565b94505060206200010487828801620000b7565b93505060406200011787828801620000b7565b92505060606200012a87828801620000b7565b91505092959194509250565b600160a060020a031690565b61278280620001526000396000f30060806040526004361061022f5763ffffffff7c01000000000000000000000000000000000000000000000000000000006000350416630d2020dd811461023457806310fe9ae81461026a57806311cf11ae1461027f5780631411f0a8146102965780631d2245f5146102c357806326a4e8d2146102e557806327252a0c1461030557806329cc545e1461031a5780632f54bf6e1461032f5780633e44cf781461035c578063453dd3e71461037c57806351488bce1461039c578063523b6ba2146103bc578063532311c4146103dc5780636a44e43d146103fc5780636c81a1e11461041c5780636e2b2c7c1461043c57806370e592b8146104515780637e10faa814610471578063818b5fa814610491578063893d20e8146104b15780638ac70272146104c65780638da5cb5b146104db578063984ed206146104f057806399db60dd14610510578063a2d0ab4714610530578063a968c4b914610545578063ab9583d914610565578063b0ff549214610585578063b20a2dce1461059a578063b3abaaaa146105af578063bbe4fd50146105cf578063c13ae92a146105e4578063c21260a514610604578063c839984a14610624578063c8ab6c8714610644578063dadd0a5714610659578063e001f8411461067c578063e139a20c1461069c578063e14feaea146106b1578063e8a0ed0d146106d1578063eb19a6b6146106f1578063f2fde38b14610711578063f7468a3c14610731578063f7c3609d14610751578063f7f20cb314610766575b600080fd5b34801561024057600080fd5b5061025461024f36600461227c565b61077b565b6040516102619190612551565b60405180910390f35b34801561027657600080fd5b506102546107a3565b34801561028b57600080fd5b5061029461022f565b005b3480156102a257600080fd5b506102b66102b136600461227c565b6107bf565b60405161026191906125e2565b3480156102cf57600080fd5b506102d86107e2565b60405161026191906125c3565b3480156102f157600080fd5b5061029461030036600461216b565b61085a565b34801561031157600080fd5b506102546108ba565b34801561032657600080fd5b506102546108d6565b34801561033b57600080fd5b5061034f61034a36600461216b565b6108f2565b60405161026191906125d4565b34801561036857600080fd5b5061034f61037736600461216b565b610913565b34801561038857600080fd5b506102d861039736600461227c565b61093e565b3480156103a857600080fd5b5061034f6103b73660046121a7565b6109b7565b3480156103c857600080fd5b506102b66103d736600461227c565b610a39565b3480156103e857600080fd5b5061034f6103f736600461216b565b610a58565b34801561040857600080fd5b5061025461041736600461216b565b610a85565b34801561042857600080fd5b506102946104373660046121e1565b610ab0565b34801561044857600080fd5b506102b6610c31565b34801561045d57600080fd5b5061034f61046c36600461216b565b610c37565b34801561047d57600080fd5b5061025461048c3660046122b9565b610c4c565b34801561049d57600080fd5b5061034f6104ac36600461216b565b610f38565b3480156104bd57600080fd5b50610254610f63565b3480156104d257600080fd5b50610254610f7f565b3480156104e757600080fd5b50610254610f9b565b3480156104fc57600080fd5b5061025461050b36600461227c565b610fb7565b34801561051c57600080fd5b5061025461052b36600461216b565b61100a565b34801561053c57600080fd5b50610254611032565b34801561055157600080fd5b5061034f6105603660046121a7565b61104e565b34801561057157600080fd5b506102946105803660046121a7565b61126f565b34801561059157600080fd5b506102546113b6565b3480156105a657600080fd5b506102b66113d2565b3480156105bb57600080fd5b506102946105ca366004612211565b6113ed565b3480156105db57600080fd5b506102b661146b565b3480156105f057600080fd5b506102946105ff36600461227c565b6114a9565b34801561061057600080fd5b506102b661061f36600461227c565b611517565b34801561063057600080fd5b5061025461063f36600461227c565b611536565b34801561065057600080fd5b5061025461156b565b34801561066557600080fd5b5061066e611587565b6040516102619291906126a1565b34801561068857600080fd5b5061029461069736600461229a565b6115ee565b3480156106a857600080fd5b506102d861165a565b3480156106bd57600080fd5b506102946106cc366004612309565b6116d0565b3480156106dd57600080fd5b5061034f6106ec36600461216b565b61172d565b3480156106fd57600080fd5b5061029461070c3660046121e1565b611837565b34801561071d57600080fd5b5061029461072c36600461216b565b6119cb565b34801561073d57600080fd5b5061034f61074c36600461216b565b611a4d565b34801561075d57600080fd5b50610254611ce4565b34801561077257600080fd5b506102d8611e36565b60009081526006602052604090205473ffffffffffffffffffffffffffffffffffffffff1690565b60015473ffffffffffffffffffffffffffffffffffffffff1690565b60006008828154811015156107d057fe5b90600052602060002001549050919050565b3360009081526013602090815260409182902080548351818402810184019094528084526060939283018282801561085057602002820191906000526020600020905b815473ffffffffffffffffffffffffffffffffffffffff168152600190910190602001808311610825575b5050505050905090565b60005473ffffffffffffffffffffffffffffffffffffffff16331461087e57600080fd5b6001805473ffffffffffffffffffffffffffffffffffffffff191673ffffffffffffffffffffffffffffffffffffffff92909216919091179055565b60035473ffffffffffffffffffffffffffffffffffffffff1681565b60015473ffffffffffffffffffffffffffffffffffffffff1681565b60005473ffffffffffffffffffffffffffffffffffffffff91821691161490565b73ffffffffffffffffffffffffffffffffffffffff166000908152600e602052604090205460ff1690565b6000818152600a60209081526040918290208054835181840281018401909452808452606093928301828280156109ab57602002820191906000526020600020905b815473ffffffffffffffffffffffffffffffffffffffff168152600190910190602001808311610980575b50505050509050919050565b73ffffffffffffffffffffffffffffffffffffffff8083166000818152600e60209081526040808320548686168085526012845282852054958552600f84528285205490961684526010835281842095845294909152812054909260ff9081169281169116828015610a265750815b8015610a2f5750805b9695505050505050565b6000908152600c6020908152604080832054600a909252909120540390565b73ffffffffffffffffffffffffffffffffffffffff9081166000908152600f602052604090205416151590565b73ffffffffffffffffffffffffffffffffffffffff9081166000908152600f60205260409020541690565b6000823373ffffffffffffffffffffffffffffffffffffffff82161480610b07575033600090815260146020908152604080832073ffffffffffffffffffffffffffffffffffffffff8516845290915290205460ff165b80610b1157503330145b1515610b1c57600080fd5b6000838152600b6020908152604080832073ffffffffffffffffffffffffffffffffffffffff8816845290915290205460ff1615610c2b5773ffffffffffffffffffffffffffffffffffffffff84166000818152600d6020908152604080832054878452600b8352818420948452938252808320805460ff19169055868352600a90915281208054929450909184908110610bb357fe5b6000918252602080832091909101805473ffffffffffffffffffffffffffffffffffffffff191673ffffffffffffffffffffffffffffffffffffffff9485161790559186168152600d82526040808220829055858252600c9092522054610c1b906001611ea3565b6000848152600c60205260409020555b50505050565b60075490565b600e6020526000908152604090205460ff1681565b6003546040517f02f47d6700000000000000000000000000000000000000000000000000000000815260009173ffffffffffffffffffffffffffffffffffffffff1690829082906302f47d6790610cab90889088903390600401612676565b602060405180830381600087803b158015610cc557600080fd5b505af1158015610cd9573d6000803e3d6000fd5b505050506040513d601f19601f82011682018060405250610cfd9190810190612189565b90507f7f0842c9f62d65d689dd2d073fc3a8408ceeeb2cf7f0feb21bc6af149babbe1d85600001513383886020015189604001518a608001518b60a00151604051610d4e97969594939291906125f0565b60405180910390a160015460808601516040517f23b872dd00000000000000000000000000000000000000000000000000000000815273ffffffffffffffffffffffffffffffffffffffff909216916323b872dd91610db39133918691600401612580565b602060405180830381600087803b158015610dcd57600080fd5b505af1158015610de1573d6000803e3d6000fd5b505050506040513d601f19601f82011682018060405250610e05919081019061225e565b1515610e1057600080fd5b60608401516040517f23721e2400000000000000000000000000000000000000000000000000000000815273ffffffffffffffffffffffffffffffffffffffff8316916323721e2491610e689160009160040161265b565b600060405180830381600087803b158015610e8257600080fd5b505af1158015610e96573d6000803e3d6000fd5b50506007805460018082019092557fa66cc928b5edb82af9bd49922954155ab7b0942694bea4ce44661d9a8736c68801805473ffffffffffffffffffffffffffffffffffffffff191673ffffffffffffffffffffffffffffffffffffffff86169081179091556000908152601160205260409020805460ff1916909117905550610f2290503382611eb9565b610f30818660000151611837565b949350505050565b73ffffffffffffffffffffffffffffffffffffffff1660009081526012602052604090205460ff1690565b60005473ffffffffffffffffffffffffffffffffffffffff1690565b60055473ffffffffffffffffffffffffffffffffffffffff1681565b60005473ffffffffffffffffffffffffffffffffffffffff1681565b600080821015610fc657600080fd5b6007548210610fd457600080fd5b6007805483908110610fe257fe5b60009182526020909120015473ffffffffffffffffffffffffffffffffffffffff1692915050565b600f6020526000908152604090205473ffffffffffffffffffffffffffffffffffffffff1681565b60025473ffffffffffffffffffffffffffffffffffffffff1681565b73ffffffffffffffffffffffffffffffffffffffff811660009081526011602052604081205481908190819060ff16151561108857600080fd5b73ffffffffffffffffffffffffffffffffffffffff861660009081526012602052604090205460ff1615156110bc57600080fd5b33600090815260106020908152604080832073ffffffffffffffffffffffffffffffffffffffff8a16845290915290205460ff1615156110fb57600080fd5b8592508573ffffffffffffffffffffffffffffffffffffffff1663893d20e86040518163ffffffff167c0100000000000000000000000000000000000000000000000000000000028152600401602060405180830381600087803b15801561116257600080fd5b505af1158015611176573d6000803e3d6000fd5b505050506040513d601f19601f8201168201806040525061119a9190810190612189565b73ffffffffffffffffffffffffffffffffffffffff8082166000818152601660209081526040808320948c1683529381528382206001015460128252848320805460ff191690559282526015905291909120805492945090925090829081106111ff57fe5b60009182526020808320909101805473ffffffffffffffffffffffffffffffffffffffff1916905573ffffffffffffffffffffffffffffffffffffffff8481168352601682526040808420918a16845291528120805460ff19168155600190810191909155935050505092915050565b336000818152601160205260408082205481517f4c6962546f75726e616d656e74456e7472616e744d6574686f647300000000008152915191829003601b0190912060ff90911692906112c19061077b565b73ffffffffffffffffffffffffffffffffffffffff1614905081806112e35750805b15156112ee57600080fd5b5050604080518082018252600180825273ffffffffffffffffffffffffffffffffffffffff948516600081815260156020908152858220805482870190815284845260168352878420989099168084529782528683209551865490151560ff1991821617875598519585019590955584548085018655948252808220909401805473ffffffffffffffffffffffffffffffffffffffff191687179055908152601083528381209481529382528284208054861682179055601290915291208054909216179055565b60045473ffffffffffffffffffffffffffffffffffffffff1681565b60175460009060ff1615156113e657600080fd5b5060185490565b823373ffffffffffffffffffffffffffffffffffffffff82161480611442575033600090815260146020908152604080832073ffffffffffffffffffffffffffffffffffffffff8516845290915290205460ff165b8061144c57503330145b151561145757600080fd5b6114618484610ab0565b610c2b8483611837565b60007fdfbf6547deaf4fa5dd154ec1daf5350032f31d34e4c755104dfbf6049163c0874260405161149c91906125e2565b60405180910390a1504290565b60005473ffffffffffffffffffffffffffffffffffffffff1633146114cd57600080fd5b600081101580156114e65750670de0b6b3a76400008111155b15156114ee57fe5b60408051808201909152600180825260209091018290526017805460ff19169091179055601855565b600880548290811061152557fe5b600091825260209091200154905081565b600780548290811061154457fe5b60009182526020909120015473ffffffffffffffffffffffffffffffffffffffff16905081565b60035473ffffffffffffffffffffffffffffffffffffffff1690565b600060606008805490506008808054806020026020016040519081016040528092919081815260200182805480156115df57602002820191906000526020600020905b815481526001909101906020018083116115ca575b50505050509050915091509091565b60005473ffffffffffffffffffffffffffffffffffffffff16331461161257600080fd5b600091825260066020526040909120805473ffffffffffffffffffffffffffffffffffffffff191673ffffffffffffffffffffffffffffffffffffffff909216919091179055565b336000908152601560209081526040918290208054835181840281018401909452808452606093928301828280156108505760200282019190600052602060002090815473ffffffffffffffffffffffffffffffffffffffff168152600190910190602001808311610825575050505050905090565b3360009081526011602052604090205460ff1615156116ee57600080fd5b7f575670c81f31b6e19bd59bbbe1729f3f052ae8a508d3977e1e1b2b752a256edb338383604051611721939291906125a8565b60405180910390a15050565b73ffffffffffffffffffffffffffffffffffffffff8116600090815260116020526040812054819060ff16151561176357600080fd5b8290503373ffffffffffffffffffffffffffffffffffffffff168173ffffffffffffffffffffffffffffffffffffffff1663893d20e86040518163ffffffff167c0100000000000000000000000000000000000000000000000000000000028152600401602060405180830381600087803b1580156117e157600080fd5b505af11580156117f5573d6000803e3d6000fd5b505050506040513d601f19601f820116820180604052506118199190810190612189565b73ffffffffffffffffffffffffffffffffffffffff16149392505050565b813373ffffffffffffffffffffffffffffffffffffffff8216148061188c575033600090815260146020908152604080832073ffffffffffffffffffffffffffffffffffffffff8516845290915290205460ff165b8061189657503330145b15156118a157600080fd5b60008281526009602052604090205460ff161515611904576008805460018181019092557ff3f7a9fe364faab93b216da50a3214154f22a0a2b415b23a84c8169e8b636ee3018390556000838152600960205260409020805460ff191690911790555b6000828152600b6020908152604080832073ffffffffffffffffffffffffffffffffffffffff8716845290915290205460ff1615156119c6576000828152600b6020908152604080832073ffffffffffffffffffffffffffffffffffffffff8716808552908352818420805460ff19166001908117909155600d8452828520808201889055878652600a85529285208054938490559083018155845291909220909101805473ffffffffffffffffffffffffffffffffffffffff191690911790555b505050565b60005473ffffffffffffffffffffffffffffffffffffffff1633146119ef57600080fd5b73ffffffffffffffffffffffffffffffffffffffff81161515611a1157600080fd5b6000805473ffffffffffffffffffffffffffffffffffffffff191673ffffffffffffffffffffffffffffffffffffffff92909216919091179055565b60008060008033611a5d81610a58565b1515611a6857600080fd5b8573ffffffffffffffffffffffffffffffffffffffff871660009081526011602052604090205460ff161515611a9d57600080fd5b8694508473ffffffffffffffffffffffffffffffffffffffff1663e586a4f06040518163ffffffff167c0100000000000000000000000000000000000000000000000000000000028152600401602060405180830381600087803b158015611b0457600080fd5b505af1158015611b18573d6000803e3d6000fd5b505050506040513d601f19601f82011682018060405250611b3c91908101906122eb565b6001546040517f23b872dd00000000000000000000000000000000000000000000000000000000815291955073ffffffffffffffffffffffffffffffffffffffff16906323b872dd90611b979033908b908990600401612580565b602060405180830381600087803b158015611bb157600080fd5b505af1158015611bc5573d6000803e3d6000fd5b505050506040513d601f19601f82011682018060405250611be9919081019061225e565b92508215611cd7576040517f28d576d700000000000000000000000000000000000000000000000000000000815273ffffffffffffffffffffffffffffffffffffffff8616906328d576d790611c43903390600401612551565b602060405180830381600087803b158015611c5d57600080fd5b505af1158015611c71573d6000803e3d6000fd5b505050506040513d601f19601f82011682018060405250611c95919081019061225e565b92508215611cd7577f5891a745b8d042d48bd1e4aed889e63bdc3e44242bb75694ea97573460e03a8b3388604051611cce929190612565565b60405180910390a15b5060019695505050505050565b336000908152600f60205260408120548190819073ffffffffffffffffffffffffffffffffffffffff1615611d1857600080fd5b6002546040517f48bf957700000000000000000000000000000000000000000000000000000000815273ffffffffffffffffffffffffffffffffffffffff909116925082906348bf957790611d71903390600401612551565b602060405180830381600087803b158015611d8b57600080fd5b505af1158015611d9f573d6000803e3d6000fd5b505050506040513d601f19601f82011682018060405250611dc39190810190612189565b73ffffffffffffffffffffffffffffffffffffffff166000818152600e60209081526040808320805460ff1916600117905533808452600f909252808320805473ffffffffffffffffffffffffffffffffffffffff19908116861790915593835290912080549092161790555090919050565b606060078054806020026020016040519081016040528092919081815260200182805480156108505760200282019190600052602060002090815473ffffffffffffffffffffffffffffffffffffffff168152600190910190602001808311610825575050505050905090565b600082820183811015611eb257fe5b9392505050565b73ffffffffffffffffffffffffffffffffffffffff918216600081815260136020908152604080832080546001808201835591855283852001805473ffffffffffffffffffffffffffffffffffffffff19169690971695861790965592825260148152828220938252929092529020805460ff19169091179055565b6000611eb2823561271f565b6000611eb2825161271f565b6000601f82018313611f5e57600080fd5b6002611f71611f6c826126e8565b6126c1565b91508183856020840282011115611f8757600080fd5b60005b83811015611fb35781611f9d8882612036565b8452506020928301929190910190600101611f8a565b5050505092915050565b6000601f82018313611fce57600080fd5b6003611fdc611f6c826126e8565b91508183856020840282011115611ff257600080fd5b60005b83811015611fb357816120088882612036565b8452506020928301929190910190600101611ff5565b6000611eb28235612738565b6000611eb28251612738565b6000611eb2823561270c565b600060a0828403121561205457600080fd5b61205e60a06126c1565b9050600061206c8484612036565b825250602061207d84848301612036565b602083015250604061209184828501612036565b60408301525060606120a584828501612036565b60608301525060806120b98482850161201e565b60808301525092915050565b600061014082840312156120d857600080fd5b6120e260c06126c1565b905060006120f08484612036565b825250602061210184848301611fbd565b602083015250608061211584828501611f4d565b60408301525060c061212984828501611f4d565b60608301525061010061213e84828501612036565b60808301525061012061215384828501612036565b60a08301525092915050565b6000611eb2825161270c565b60006020828403121561217d57600080fd5b6000610f308484611f35565b60006020828403121561219b57600080fd5b6000610f308484611f41565b600080604083850312156121ba57600080fd5b60006121c68585611f35565b92505060206121d785828601611f35565b9150509250929050565b600080604083850312156121f457600080fd5b60006122008585611f35565b92505060206121d785828601612036565b60008060006060848603121561222657600080fd5b60006122328686611f35565b935050602061224386828701612036565b925050604061225486828701612036565b9150509250925092565b60006020828403121561227057600080fd5b6000610f30848461202a565b60006020828403121561228e57600080fd5b6000610f308484612036565b600080604083850312156122ad57600080fd5b60006121c68585612036565b6000806101e083850312156122cd57600080fd5b60006122d985856120c5565b9250506101406121d785828601612042565b6000602082840312156122fd57600080fd5b6000610f30848461215f565b6000806040838503121561231c57600080fd5b60006122008585612036565b6123318161271f565b82525050565b60006123428261270f565b80845260208401935061235483612706565b60005b828110156123845761236a868351612328565b61237382612706565b602096909601959150600101612357565b5093949350505050565b61239781612713565b6123a08261270c565b60005b828110156123d0576123b685835161246f565b6123bf82612706565b6020959095019491506001016123a3565b5050505050565b6123e081612719565b6123e98261270c565b60005b828110156123d0576123ff85835161246f565b61240882612706565b6020959095019491506001016123ec565b60006124248261270f565b80845260208401935061243683612706565b60005b828110156123845761244c86835161246f565b61245582612706565b602096909601959150600101612439565b61233181612738565b6123318161270c565b6123318161273d565b805160a0830190612492848261246f565b5060208201516124a5602085018261246f565b5060408201516124b8604085018261246f565b5060608201516124cb606085018261246f565b506080820151610c2b6080850182612466565b80516101408301906124f0848261246f565b50602082015161250360208501826123d7565b506040820151612516608085018261238e565b50606082015161252960c085018261238e565b50608082015161253d61010085018261246f565b5060a0820151610c2b61012085018261246f565b6020810161255f8284612328565b92915050565b604081016125738285612328565b611eb26020830184612328565b6060810161258e8286612328565b61259b6020830185612328565b610f30604083018461246f565b606081016125b68286612328565b61259b602083018561246f565b60208082528101611eb28184612337565b6020810161255f8284612466565b6020810161255f828461246f565b61014081016125ff828a61246f565b61260c6020830189612328565b6126196040830188612328565b61262660608301876123d7565b61263360c083018661238e565b61264161010083018561246f565b61264f61012083018461246f565b98975050505050505050565b604081016126698285612478565b611eb2602083018461246f565b610200810161268582866124de565b612693610140830185612481565b610f306101e0830184612328565b604081016126af828561246f565b8181036020830152610f308184612419565b60405181810167ffffffffffffffff811182821017156126e057600080fd5b604052919050565b600067ffffffffffffffff8211156126ff57600080fd5b5060200290565b60200190565b90565b5190565b50600290565b50600390565b73ffffffffffffffffffffffffffffffffffffffff1690565b151590565b600061255f8261270c5600a265627a7a723058208f48250de341d392478778a61e3f6d5ac61ed8942e8a7da74e26754ad20f166f6c6578706572696d656e74616cf50037",
  "source": "pragma solidity ^0.4.18;\npragma experimental ABIEncoderV2;\n\nimport \"../libraries/math/SafeMath.sol\";\nimport \"../libraries/math/SafeMath128.sol\";\nimport \"../interfaces/IMatryxToken.sol\";\nimport \"../interfaces/IMatryxPeer.sol\";\nimport \"../interfaces/IMatryxPlatform.sol\";\nimport \"../interfaces/factories/IMatryxPeerFactory.sol\";\nimport \"../interfaces/factories/IMatryxTournamentFactory.sol\";\nimport \"../interfaces/IMatryxTournament.sol\";\nimport \"../interfaces/IMatryxRound.sol\";\nimport \"../interfaces/IMatryxSubmission.sol\";\nimport \"./Ownable.sol\";\n\n/// @title MatryxPlatform - The Matryx platform contract.\n/// @author Max Howard - <max@nanome.ai>, Sam Hessenauer - <sam@nanome.ai>\ncontract MatryxPlatform is Ownable {\n    using SafeMath for uint256;\n    using SafeMath128 for uint128;\n\n    // TODO: condense and put in structs\n    address public matryxTokenAddress;\n    address public matryxPeerFactoryAddress;\n    address public matryxTournamentFactoryAddress;\n    address public matryxSubmissionFactoryAddress;\n    address public matryxRoundLibAddress;\n\n    mapping(bytes32=>address) private contracts;\n\n    address[] public allTournaments;\n    // bytes32 public hashOfTopCategory;\n    // bytes32 public hashOfLastCategory;\n    // mapping(uint256=>bytes32) public  topCategoryByCount;\n    // mapping(bytes32=>category) public categoryIterator;\n    bytes32[] public categoryList;\n    mapping(bytes32=>bool) categoryExists;\n    mapping(bytes32=>address[]) categoryToTournamentList;\n    mapping(bytes32=>mapping(address=>bool)) tournamentExistsInCategory;\n    mapping(bytes32=>uint256) emptyCountByCategory;\n    mapping(address=>CategoryInfo) tournamentAddressToCategoryInfo;\n\n    mapping(address=>bool) public peerExists;\n    mapping(address=>address) public ownerToPeerAndPeerToOwner;\n    mapping(address=>mapping(address=>bool)) addressToOwnsSubmission;\n    mapping(address=>bool) tournamentExists;\n    mapping(address=>bool) submissionExists;\n\n    mapping(address=>address[]) ownerToTournamentArray;\n    mapping(address=>mapping(address=>bool)) entrantToOwnsTournament;\n    mapping(address=>address[]) ownerToSubmissionArray;\n    mapping(address=>mapping(address=>uint256_optional))  ownerToSubmissionToSubmissionIndex;\n\n    // Hyperparams\n    uint256_optional submissionGratitude = uint256_optional({exists: true, value: 2*10**17});\n\n    constructor(address _matryxTokenAddress, address _matryxPeerFactoryAddress, address _matryxTournamentFactoryAddress, address _matryxSubmissionFactoryAddress) public\n    {\n        matryxTokenAddress = _matryxTokenAddress;\n        matryxPeerFactoryAddress = _matryxPeerFactoryAddress;\n        matryxTournamentFactoryAddress = _matryxTournamentFactoryAddress;\n        matryxSubmissionFactoryAddress = _matryxSubmissionFactoryAddress;\n    }\n\n    /*\n    * Structs\n    */\n\n    struct uint256_optional\n    {\n        bool exists;\n        uint256 value;\n    }\n\n    struct CategoryInfo\n    {\n        uint256 index;\n        bytes32 category;\n    }\n\n    /*\n    * Events\n    */\n    event TournamentCreated(bytes32 _discipline, address _owner, address _tournamentAddress, bytes32[3] _tournamentName, bytes32[2] _descriptionHash, uint256 _MTXReward, uint256 _entryFee);\n    event TournamentOpened(address _tournamentAddress, bytes32 _tournamentName_1, bytes32 _tournamentName_2, bytes32 _tournamentName_3, bytes32 _externalAddress_1, bytes32 _externalAddress_2, uint256 _MTXReward, uint256 _entryFee);\n    event TournamentClosed(address _tournamentAddress, uint256 _finalRoundNumber, uint256 _MTXReward);\n    event UserEnteredTournament(address _entrant, address _tournamentAddress);\n    event QueryID(string queryID);\n\n    /// @dev Allows tournaments to invoke tournamentClosed events on the platform.\n    /// @param _finalRoundNumber Index of the round containing the winning submission.\n    function invokeTournamentClosedEvent(uint256 _finalRoundNumber, uint256 _MTXReward) public onlyTournament\n    {\n        emit TournamentClosed(msg.sender, _finalRoundNumber, _MTXReward);\n    }\n\n    /*\n    * Modifiers\n    */\n\n    modifier onlyTournament\n    {\n        require(tournamentExists[msg.sender]);\n        _;\n    }\n\n    modifier onlyTournamentOrTournamentLib\n    {\n        bool isTournament = tournamentExists[msg.sender];\n        bool isTournamentLib = getContractAddress(keccak256(\"LibTournamentEntrantMethods\")) == msg.sender;\n\n        require(isTournament || isTournamentLib);\n        _;\n    }\n\n    modifier onlySubmission\n    {\n        require(submissionExists[msg.sender]);\n        _;\n    }\n\n    modifier onlyPeerLinked(address _sender)\n    {\n        require(hasPeer(_sender));\n        _;\n    }\n\n    modifier onlyTournamentOwnerOrPlatform(address _tournamentAddress)\n    {\n        require(msg.sender == _tournamentAddress || entrantToOwnsTournament[msg.sender][_tournamentAddress] || msg.sender == address(this));\n        _;\n    }\n\n    modifier notOwner(address _tournamentAddress)\n    {\n        require(true);\n        // require(entrantToOwnsTournament[msg.sender][_tournamentAddress] == false);\n        _;\n    }\n\n    /*\n    * State Maintenance Methods\n    */\n\n    /// @dev Sets an address for a contract the platform should know about.\n    /// @param _nameHash Keccak256 hash of the name of the contract to give an address to.\n    /// @param _contractAddress Address to be assigned for the given contract name.\n    function setContractAddress(bytes32 _nameHash, address _contractAddress) public onlyOwner\n    {\n        contracts[_nameHash] = _contractAddress;\n    }\n\n\n    function setTokenAddress(address _matryxTokenAddress) public onlyOwner\n    {\n        matryxTokenAddress = _matryxTokenAddress;\n    }\n\n    /// @dev Gets the address of a contract the platform knows about.\n    /// @param _nameHash Keccak256 hash of the name of the contract to look for.\n    /// @return Address of the contract with the designated name.\n    function getContractAddress(bytes32 _nameHash) public returns (address contractAddress)\n    {\n        return contracts[_nameHash];\n    }\n\n    function updateUsersTournaments(address _owner, address _tournament) internal\n    {\n        ownerToTournamentArray[_owner].push(_tournament);\n        entrantToOwnsTournament[_owner][_tournament] = true;\n    }\n\n    function updateSubmissions(address _owner, address _submission) public onlyTournamentOrTournamentLib\n    {\n        ownerToSubmissionToSubmissionIndex[_owner][_submission] = uint256_optional({exists:true, value:ownerToSubmissionArray[_owner].length});\n        ownerToSubmissionArray[_owner].push(_submission);\n        addressToOwnsSubmission[_owner][_submission] = true;\n        submissionExists[_submission] = true;\n    }\n\n    function removeSubmission(address _submissionAddress, address _tournamentAddress) public returns (bool)\n    {\n        require(tournamentExists[_tournamentAddress]);\n        require(submissionExists[_submissionAddress]);\n        require(addressToOwnsSubmission[msg.sender][_submissionAddress]);\n\n        IMatryxSubmission submission = IMatryxSubmission(_submissionAddress);\n        address owner = Ownable(_submissionAddress).getOwner();\n        uint256 submissionIndex = ownerToSubmissionToSubmissionIndex[owner][_submissionAddress].value;\n\n        submissionExists[_submissionAddress] = false;\n        delete ownerToSubmissionArray[owner][submissionIndex];\n        delete ownerToSubmissionToSubmissionIndex[owner][_submissionAddress];\n\n        //IMatryxTournament(_tournamentAddress).removeSubmission(_submissionAddress, owner);\n        return true;\n    }\n\n    function addTournamentToCategory(address _tournamentAddress, bytes32 _category) public onlyTournamentOwnerOrPlatform(_tournamentAddress)\n    {\n        if(categoryExists[_category] == false)\n        {\n            categoryList.push(_category);\n            categoryExists[_category] = true;\n        }\n\n        if(tournamentExistsInCategory[_category][_tournamentAddress] == false)\n        {\n            tournamentExistsInCategory[_category][_tournamentAddress] = true;\n            tournamentAddressToCategoryInfo[_tournamentAddress].category = _category;\n            tournamentAddressToCategoryInfo[_tournamentAddress].index = (categoryToTournamentList[_category]).length;\n            categoryToTournamentList[_category].push(_tournamentAddress);\n        }\n    }\n\n    function removeTournamentFromCategory(address _tournamentAddress, bytes32 _category) public onlyTournamentOwnerOrPlatform(_tournamentAddress)\n    {\n        if(tournamentExistsInCategory[_category][_tournamentAddress])\n        {\n            // It's there! Let's remove it\n            uint256 indexInCategoryList = tournamentAddressToCategoryInfo[_tournamentAddress].index;\n            tournamentExistsInCategory[_category][_tournamentAddress] = false;\n            categoryToTournamentList[_category][indexInCategoryList] = 0x0;\n            tournamentAddressToCategoryInfo[_tournamentAddress].index = 0;\n            emptyCountByCategory[_category] = emptyCountByCategory[_category].add(1);\n        }\n    }\n\n    function switchTournamentCategory(address _tournamentAddress, bytes32 _oldCategory, bytes32 _newCategory) public onlyTournamentOwnerOrPlatform(_tournamentAddress)\n    {\n        removeTournamentFromCategory(_tournamentAddress, _oldCategory);\n        addTournamentToCategory(_tournamentAddress, _newCategory);\n    }\n\n    function getTournamentsByCategory(bytes32 _category) external view returns (address[])\n    {\n        return categoryToTournamentList[_category];\n    }\n\n    function getCategoryCount(bytes32 _category) external view returns (uint256)\n    {\n        return categoryToTournamentList[_category].length - emptyCountByCategory[_category];\n    }\n\n    function getCategoryByIndex(uint256 _index) public view returns (bytes32)\n    {\n        return categoryList[_index];\n    }\n\n    function getAllCategories() public view returns (uint256, bytes32[])\n    {\n        return (categoryList.length, categoryList);\n    }\n\n    // function switchTournamentCategory(string discipline) onlyTournament public\n    // {\n    //   revert();\n    // }\n\n    /*\n    * Tournament Entry Methods\n    */\n\n    /// @dev Enter the user into a tournament and charge the entry fee.\n    /// @param _tournamentAddress Address of the tournament to enter into.\n    /// @return _success Whether or not user was successfully entered into the tournament.\n    function enterTournament(address _tournamentAddress) public onlyPeerLinked(msg.sender) notOwner(_tournamentAddress) returns (bool _success)\n    {\n        require(tournamentExists[_tournamentAddress]);\n\n        IMatryxTournament tournament = IMatryxTournament(_tournamentAddress);\n        uint256 entryFee = tournament.getEntryFee();\n\n        bool success = IMatryxToken(matryxTokenAddress).transferFrom(msg.sender, _tournamentAddress, entryFee);\n        if(success)\n        {\n            success = tournament.enterUserInTournament(msg.sender);\n            if(success)\n            {\n                emit UserEnteredTournament(msg.sender, _tournamentAddress);\n            }\n        }\n\n        return true;\n    }\n\n    /*\n    * Tournament Admin Methods\n    */\n\n    // function createTournament(LibConstruction.TournamentData tournamentData, LibConstruction.RoundData roundData) public returns (address _tournamentAddress)\n    // {\n    //     IMatryxTournamentFactory tournamentFactory = IMatryxTournamentFactory(matryxTournamentFactoryAddress);\n    //     address newTournament = tournamentFactory.createTournament(tournamentData, roundData, msg.sender);\n    //     emit TournamentCreated(tournamentData.category, msg.sender, newTournament, tournamentData.title, tournamentData.descriptionHash, tournamentData.initialBounty, tournamentData.entryFee);\n\n    //     require(IMatryxToken(matryxTokenAddress).transferFrom(msg.sender, newTournament, tournamentData.initialBounty));\n    //     IMatryxTournament(newTournament).sendBountyToRound(0, roundData.bounty);\n    //     // update data structures\n    //     allTournaments.push(newTournament);\n    //     tournamentExists[newTournament] = true;\n    //     updateUsersTournaments(msg.sender, newTournament);\n\n    //     addTournamentToCategory(newTournament, tournamentData.category);\n\n    //     return newTournament;\n    // }\n\n    /// @dev Create a new tournament.\n    /// @param tournamentData Data to populate the new tournament with. Includes:\n    ///    category: Discipline the tournament falls under.\n    ///    title: Name of the new tournament.\n    ///    contentHash: Off-chain content hash of tournament details (ipfs hash)\n    ///    initialBounty: Total tournament reward in MTX.\n    ///    entryFee: Fee to charge participant upon entering into the tournament.\n    /// @param roundData Data to populate the first round of the tournament with. Includes:\n    ///    startTime: The start time (unix-epoch-based) of the first round.\n    ///    endTime: The end time (unix-epoch-based) of the first round.\n    ///    reviewPeriodDuration: The amount of the tournament owner has to determine the winners of the round.\n    ///    bounty: The reward for the first round's winners.\n    /// @return _tournamentAddress Address of the newly created tournament.\n    function createTournament(LibConstruction.TournamentData tournamentData, LibConstruction.RoundData roundData) public returns (address _tournamentAddress)\n    {\n        IMatryxTournamentFactory tournamentFactory = IMatryxTournamentFactory(matryxTournamentFactoryAddress);\n        address newTournament = tournamentFactory.createTournament(tournamentData, roundData, msg.sender);\n\n        emit TournamentCreated(tournamentData.category, msg.sender, newTournament, tournamentData.title, tournamentData.descriptionHash, tournamentData.initialBounty, tournamentData.entryFee);\n\n        require(IMatryxToken(matryxTokenAddress).transferFrom(msg.sender, newTournament, tournamentData.initialBounty));\n        IMatryxTournament(newTournament).sendBountyToRound(0, roundData.bounty);\n        // update data structures\n        allTournaments.push(newTournament);\n        tournamentExists[newTournament] = true;\n        updateUsersTournaments(msg.sender, newTournament);\n\n        addTournamentToCategory(newTournament, tournamentData.category);\n\n        return newTournament;\n    }\n    /*\n    * Access Control Methods\n    */\n\n    function createPeer() public returns (address)\n    {\n        require(ownerToPeerAndPeerToOwner[msg.sender] == 0x0);\n        IMatryxPeerFactory peerFactory = IMatryxPeerFactory(matryxPeerFactoryAddress);\n        address peer = peerFactory.createPeer(msg.sender);\n        peerExists[peer] = true;\n        ownerToPeerAndPeerToOwner[msg.sender] = peer;\n        ownerToPeerAndPeerToOwner[peer] = msg.sender;\n    }\n\n    function isPeer(address _peerAddress) public view returns (bool)\n    {\n        return peerExists[_peerAddress];\n    }\n\n    function hasPeer(address _sender) public view returns (bool)\n    {\n        return (ownerToPeerAndPeerToOwner[_sender] != 0x0);\n    }\n\n    function peerExistsAndOwnsSubmission(address _peer, address _reference) public view returns (bool)\n    {\n        bool isAPeer = peerExists[_peer];\n        bool referenceIsSubmission = submissionExists[_reference];\n        bool peerOwnsSubmission = addressToOwnsSubmission[ownerToPeerAndPeerToOwner[_peer]][_reference];\n\n        return isAPeer && referenceIsSubmission && peerOwnsSubmission;\n    }\n\n    function peerAddress(address _sender) public view returns (address)\n    {\n        return ownerToPeerAndPeerToOwner[_sender];\n    }\n\n    function isSubmission(address _submissionAddress) public view returns (bool)\n    {\n        return submissionExists[_submissionAddress];\n    }\n\n    /// @dev Returns whether or not the given tournament belongs to the sender.\n    /// @param _tournamentAddress Address of the tournament to check.\n    /// @return _isMine Whether or not the tournament belongs to the sender.\n    function getTournament_IsMine(address _tournamentAddress) public view returns (bool _isMine)\n    {\n        require(tournamentExists[_tournamentAddress]);\n        Ownable tournament = Ownable(_tournamentAddress);\n        return (tournament.getOwner() == msg.sender);\n    }\n\n    /*\n    * Setter Methods\n    */\n\n    /// @dev              Set the relative amount of MTX to be delivered to a submission's\n    ///                   references\n    /// @param _gratitude Weight from 0 to 1 (18 decimal uint) specifying enforced submission\n    ///                   gratitude\n    function setSubmissionGratitude(uint256 _gratitude) public onlyOwner\n    {\n        assert(_gratitude >= 0 && _gratitude <= (1*10**18));\n        submissionGratitude = uint256_optional({exists: true, value: _gratitude});\n    }\n\n    event TimeStamp(uint256 time);\n\n    function getNow() public view returns (uint256)\n    {\n        emit TimeStamp(now);\n        return now;\n    }\n\n    /*\n    * Getter Methods\n    */\n\n    function getTokenAddress() public view returns (address)\n    {\n        return matryxTokenAddress;\n    }\n\n    function getTournamentFactoryAddress() public view returns (address)\n    {\n        return matryxTournamentFactoryAddress;\n    }\n\n    /// @dev    Returns a weight from 0 to 1 (18 decimal uint) indicating\n    ///         how much of a submission's reward goes to its references.\n    /// @return Relative amount of MTX going to references of submissions under this tournament.\n    function getSubmissionGratitude() public view returns (uint256)\n    {\n        require(submissionGratitude.exists);\n        return submissionGratitude.value;\n    }\n\n    /// @dev    Returns addresses for submissions the sender has created.\n    /// @return Address array representing submissions.\n    function myTournaments() public view returns (address[])\n    {\n        return ownerToTournamentArray[msg.sender];\n    }\n\n    function mySubmissions() public view returns (address[])\n    {\n        return ownerToSubmissionArray[msg.sender];\n    }\n\n    /// @dev    Returns the total number of tournaments\n    /// @return _tournamentCount Total number of tournaments.\n    function tournamentCount() public view returns (uint256 _tournamentCount)\n    {\n        return allTournaments.length;\n    }\n\n    function getTournamentAtIndex(uint256 _index) public view returns (address _tournamentAddress)\n    {\n        require(_index >= 0);\n        require(_index < allTournaments.length);\n        return allTournaments[_index];\n    }\n\n    function getTournaments() public view returns (address[])\n    {\n        return allTournaments;\n    }\n\n    function forceRevert() public {\n        revert();\n    }\n}\n",
  "sourcePath": "/Users/maxhoward/Desktop/Ethereum/MatryxPlatform/contracts/MatryxPlatform.sol",
  "compiler": {
    "name": "solc",
    "version": "0.4.24+commit.e67f0147.Emscripten.clang"
  },
  "schemaVersion": "2.0.1",
  "updatedAt": "2018-08-08T23:48:56.014Z"
}