{
  "contractName": "MatryxTournament",
  "abi": [
    {
      "constant": true,
      "inputs": [
        {
          "name": "_sender",
          "type": "address"
        }
      ],
      "name": "isOwner",
      "outputs": [
        {
          "name": "_isOwner",
          "type": "bool"
        }
      ],
      "payable": false,
      "stateMutability": "view",
      "type": "function"
    },
    {
      "constant": true,
      "inputs": [],
      "name": "matryxRoundFactoryAddress",
      "outputs": [
        {
          "name": "",
          "type": "address"
        }
      ],
      "payable": false,
      "stateMutability": "view",
      "type": "function"
    },
    {
      "constant": true,
      "inputs": [],
      "name": "getOwner",
      "outputs": [
        {
          "name": "_owner",
          "type": "address"
        }
      ],
      "payable": false,
      "stateMutability": "view",
      "type": "function"
    },
    {
      "constant": true,
      "inputs": [],
      "name": "owner",
      "outputs": [
        {
          "name": "",
          "type": "address"
        }
      ],
      "payable": false,
      "stateMutability": "view",
      "type": "function"
    },
    {
      "constant": true,
      "inputs": [],
      "name": "platformAddress",
      "outputs": [
        {
          "name": "",
          "type": "address"
        }
      ],
      "payable": false,
      "stateMutability": "view",
      "type": "function"
    },
    {
      "constant": false,
      "inputs": [
        {
          "name": "newOwner",
          "type": "address"
        }
      ],
      "name": "transferOwnership",
      "outputs": [],
      "payable": false,
      "stateMutability": "nonpayable",
      "type": "function"
    },
    {
      "inputs": [
        {
          "name": "_owner",
          "type": "address"
        },
        {
          "name": "_platformAddress",
          "type": "address"
        },
        {
          "name": "_matryxRoundFactoryAddress",
          "type": "address"
        },
        {
          "components": [
            {
              "name": "category",
              "type": "bytes32"
            },
            {
              "name": "title",
              "type": "bytes32[3]"
            },
            {
              "name": "descriptionHash",
              "type": "bytes32[2]"
            },
            {
              "name": "fileHash",
              "type": "bytes32[2]"
            },
            {
              "name": "initialBounty",
              "type": "uint256"
            },
            {
              "name": "entryFee",
              "type": "uint256"
            }
          ],
          "name": "tournamentData",
          "type": "tuple"
        },
        {
          "components": [
            {
              "name": "start",
              "type": "uint256"
            },
            {
              "name": "end",
              "type": "uint256"
            },
            {
              "name": "reviewPeriodDuration",
              "type": "uint256"
            },
            {
              "name": "bounty",
              "type": "uint256"
            },
            {
              "name": "closed",
              "type": "bool"
            }
          ],
          "name": "roundData",
          "type": "tuple"
        }
      ],
      "payable": false,
      "stateMutability": "nonpayable",
      "type": "constructor"
    },
    {
      "anonymous": false,
      "inputs": [
        {
          "indexed": false,
          "name": "_roundIndex",
          "type": "uint256"
        },
        {
          "indexed": false,
          "name": "_submissionAddress",
          "type": "address"
        }
      ],
      "name": "SubmissionCreated",
      "type": "event"
    },
    {
      "anonymous": false,
      "inputs": [
        {
          "indexed": false,
          "name": "_submissionAddresses",
          "type": "address[]"
        }
      ],
      "name": "RoundWinnersChosen",
      "type": "event"
    },
    {
      "constant": false,
      "inputs": [
        {
          "name": "_submissionAddress",
          "type": "address"
        }
      ],
      "name": "invokeSubmissionCreatedEvent",
      "outputs": [],
      "payable": false,
      "stateMutability": "nonpayable",
      "type": "function"
    },
    {
      "constant": false,
      "inputs": [
        {
          "name": "_winningAddresses",
          "type": "address[]"
        }
      ],
      "name": "invokeRoundWinnersChosenEvent",
      "outputs": [],
      "payable": false,
      "stateMutability": "nonpayable",
      "type": "function"
    },
    {
      "constant": false,
      "inputs": [
        {
          "name": "_submissionAddress",
          "type": "address"
        },
        {
          "name": "_author",
          "type": "address"
        }
      ],
      "name": "removeSubmission",
      "outputs": [],
      "payable": false,
      "stateMutability": "nonpayable",
      "type": "function"
    },
    {
      "constant": true,
      "inputs": [
        {
          "name": "_sender",
          "type": "address"
        }
      ],
      "name": "isEntrant",
      "outputs": [
        {
          "name": "",
          "type": "bool"
        }
      ],
      "payable": false,
      "stateMutability": "view",
      "type": "function"
    },
    {
      "constant": true,
      "inputs": [],
      "name": "getState",
      "outputs": [
        {
          "name": "",
          "type": "uint256"
        }
      ],
      "payable": false,
      "stateMutability": "view",
      "type": "function"
    },
    {
      "constant": true,
      "inputs": [],
      "name": "getPlatform",
      "outputs": [
        {
          "name": "_platformAddress",
          "type": "address"
        }
      ],
      "payable": false,
      "stateMutability": "view",
      "type": "function"
    },
    {
      "constant": true,
      "inputs": [],
      "name": "getTokenAddress",
      "outputs": [
        {
          "name": "_matryxTokenAddress",
          "type": "address"
        }
      ],
      "payable": false,
      "stateMutability": "view",
      "type": "function"
    },
    {
      "constant": true,
      "inputs": [],
      "name": "getData",
      "outputs": [
        {
          "components": [
            {
              "name": "category",
              "type": "bytes32"
            },
            {
              "name": "title",
              "type": "bytes32[3]"
            },
            {
              "name": "descriptionHash",
              "type": "bytes32[2]"
            },
            {
              "name": "fileHash",
              "type": "bytes32[2]"
            },
            {
              "name": "initialBounty",
              "type": "uint256"
            },
            {
              "name": "entryFee",
              "type": "uint256"
            }
          ],
          "name": "_data",
          "type": "tuple"
        }
      ],
      "payable": false,
      "stateMutability": "view",
      "type": "function"
    },
    {
      "constant": true,
      "inputs": [
        {
          "name": "_roundAddress",
          "type": "address"
        }
      ],
      "name": "isRound",
      "outputs": [
        {
          "name": "_isRound",
          "type": "bool"
        }
      ],
      "payable": false,
      "stateMutability": "view",
      "type": "function"
    },
    {
      "constant": true,
      "inputs": [],
      "name": "getRounds",
      "outputs": [
        {
          "name": "_rounds",
          "type": "address[]"
        }
      ],
      "payable": false,
      "stateMutability": "view",
      "type": "function"
    },
    {
      "constant": true,
      "inputs": [],
      "name": "getCategory",
      "outputs": [
        {
          "name": "_category",
          "type": "bytes32"
        }
      ],
      "payable": false,
      "stateMutability": "view",
      "type": "function"
    },
    {
      "constant": true,
      "inputs": [],
      "name": "getTitle",
      "outputs": [
        {
          "name": "_title",
          "type": "bytes32[3]"
        }
      ],
      "payable": false,
      "stateMutability": "view",
      "type": "function"
    },
    {
      "constant": true,
      "inputs": [],
      "name": "getDescriptionHash",
      "outputs": [
        {
          "name": "_descriptionHash",
          "type": "bytes32[2]"
        }
      ],
      "payable": false,
      "stateMutability": "view",
      "type": "function"
    },
    {
      "constant": true,
      "inputs": [],
      "name": "getFileHash",
      "outputs": [
        {
          "name": "_fileHash",
          "type": "bytes32[2]"
        }
      ],
      "payable": false,
      "stateMutability": "view",
      "type": "function"
    },
    {
      "constant": true,
      "inputs": [],
      "name": "currentRound",
      "outputs": [
        {
          "name": "_currentRound",
          "type": "uint256"
        },
        {
          "name": "_currentRoundAddress",
          "type": "address"
        }
      ],
      "payable": false,
      "stateMutability": "view",
      "type": "function"
    },
    {
      "constant": true,
      "inputs": [],
      "name": "getBounty",
      "outputs": [
        {
          "name": "_tournamentBounty",
          "type": "uint256"
        }
      ],
      "payable": false,
      "stateMutability": "view",
      "type": "function"
    },
    {
      "constant": true,
      "inputs": [],
      "name": "getBalance",
      "outputs": [
        {
          "name": "_tournamentBalance",
          "type": "uint256"
        }
      ],
      "payable": false,
      "stateMutability": "view",
      "type": "function"
    },
    {
      "constant": true,
      "inputs": [],
      "name": "getEntryFee",
      "outputs": [
        {
          "name": "",
          "type": "uint256"
        }
      ],
      "payable": false,
      "stateMutability": "view",
      "type": "function"
    },
    {
      "constant": true,
      "inputs": [],
      "name": "mySubmissions",
      "outputs": [
        {
          "name": "",
          "type": "address[]"
        }
      ],
      "payable": false,
      "stateMutability": "view",
      "type": "function"
    },
    {
      "constant": true,
      "inputs": [],
      "name": "submissionCount",
      "outputs": [
        {
          "name": "_submissionCount",
          "type": "uint256"
        }
      ],
      "payable": false,
      "stateMutability": "view",
      "type": "function"
    },
    {
      "constant": true,
      "inputs": [],
      "name": "entrantCount",
      "outputs": [
        {
          "name": "_entrantCount",
          "type": "uint256"
        }
      ],
      "payable": false,
      "stateMutability": "view",
      "type": "function"
    },
    {
      "constant": false,
      "inputs": [
        {
          "components": [
            {
              "name": "category",
              "type": "bytes32"
            },
            {
              "name": "title",
              "type": "bytes32[3]"
            },
            {
              "name": "descriptionHash",
              "type": "bytes32[2]"
            },
            {
              "name": "fileHash",
              "type": "bytes32[2]"
            },
            {
              "name": "entryFee",
              "type": "uint256"
            },
            {
              "name": "entryFeeChanged",
              "type": "bool"
            }
          ],
          "name": "tournamentData",
          "type": "tuple"
        }
      ],
      "name": "update",
      "outputs": [],
      "payable": false,
      "stateMutability": "nonpayable",
      "type": "function"
    },
    {
      "constant": false,
      "inputs": [
        {
          "components": [
            {
              "name": "winningSubmissions",
              "type": "address[]"
            },
            {
              "name": "rewardDistribution",
              "type": "uint256[]"
            },
            {
              "name": "selectWinnerAction",
              "type": "uint256"
            },
            {
              "name": "rewardDistributionTotal",
              "type": "uint256"
            }
          ],
          "name": "_selectWinnersData",
          "type": "tuple"
        },
        {
          "components": [
            {
              "name": "start",
              "type": "uint256"
            },
            {
              "name": "end",
              "type": "uint256"
            },
            {
              "name": "reviewPeriodDuration",
              "type": "uint256"
            },
            {
              "name": "bounty",
              "type": "uint256"
            },
            {
              "name": "closed",
              "type": "bool"
            }
          ],
          "name": "_roundData",
          "type": "tuple"
        }
      ],
      "name": "selectWinners",
      "outputs": [],
      "payable": false,
      "stateMutability": "nonpayable",
      "type": "function"
    },
    {
      "constant": false,
      "inputs": [
        {
          "components": [
            {
              "name": "start",
              "type": "uint256"
            },
            {
              "name": "end",
              "type": "uint256"
            },
            {
              "name": "reviewPeriodDuration",
              "type": "uint256"
            },
            {
              "name": "bounty",
              "type": "uint256"
            },
            {
              "name": "closed",
              "type": "bool"
            }
          ],
          "name": "_roundData",
          "type": "tuple"
        }
      ],
      "name": "editGhostRound",
      "outputs": [],
      "payable": false,
      "stateMutability": "nonpayable",
      "type": "function"
    },
    {
      "constant": false,
      "inputs": [
        {
          "name": "_mtxAllocation",
          "type": "uint256"
        }
      ],
      "name": "allocateMoreToRound",
      "outputs": [],
      "payable": false,
      "stateMutability": "nonpayable",
      "type": "function"
    },
    {
      "constant": false,
      "inputs": [],
      "name": "jumpToNextRound",
      "outputs": [],
      "payable": false,
      "stateMutability": "nonpayable",
      "type": "function"
    },
    {
      "constant": false,
      "inputs": [],
      "name": "stopTournament",
      "outputs": [],
      "payable": false,
      "stateMutability": "nonpayable",
      "type": "function"
    },
    {
      "constant": false,
      "inputs": [
        {
          "components": [
            {
              "name": "start",
              "type": "uint256"
            },
            {
              "name": "end",
              "type": "uint256"
            },
            {
              "name": "reviewPeriodDuration",
              "type": "uint256"
            },
            {
              "name": "bounty",
              "type": "uint256"
            },
            {
              "name": "closed",
              "type": "bool"
            }
          ],
          "name": "roundData",
          "type": "tuple"
        },
        {
          "name": "_automaticCreation",
          "type": "bool"
        }
      ],
      "name": "createRound",
      "outputs": [
        {
          "name": "_roundAddress",
          "type": "address"
        }
      ],
      "payable": false,
      "stateMutability": "nonpayable",
      "type": "function"
    },
    {
      "constant": false,
      "inputs": [
        {
          "name": "_roundIndex",
          "type": "uint256"
        },
        {
          "name": "_bountyMTX",
          "type": "uint256"
        }
      ],
      "name": "sendBountyToRound",
      "outputs": [],
      "payable": false,
      "stateMutability": "nonpayable",
      "type": "function"
    },
    {
      "constant": false,
      "inputs": [
        {
          "name": "_entrantAddress",
          "type": "address"
        }
      ],
      "name": "enterUserInTournament",
      "outputs": [
        {
          "name": "_success",
          "type": "bool"
        }
      ],
      "payable": false,
      "stateMutability": "nonpayable",
      "type": "function"
    },
    {
      "constant": false,
      "inputs": [],
      "name": "collectMyEntryFee",
      "outputs": [],
      "payable": false,
      "stateMutability": "nonpayable",
      "type": "function"
    },
    {
      "constant": false,
      "inputs": [
        {
          "components": [
            {
              "name": "title",
              "type": "bytes32[3]"
            },
            {
              "name": "descriptionHash",
              "type": "bytes32[2]"
            },
            {
              "name": "fileHash",
              "type": "bytes32[2]"
            },
            {
              "name": "timeSubmitted",
              "type": "uint256"
            },
            {
              "name": "timeUpdated",
              "type": "uint256"
            }
          ],
          "name": "submissionData",
          "type": "tuple"
        },
        {
          "components": [
            {
              "name": "contributors",
              "type": "address[]"
            },
            {
              "name": "contributorRewardDistribution",
              "type": "uint256[]"
            },
            {
              "name": "references",
              "type": "address[]"
            }
          ],
          "name": "contribsAndRefs",
          "type": "tuple"
        }
      ],
      "name": "createSubmission",
      "outputs": [
        {
          "name": "_submissionAddress",
          "type": "address"
        }
      ],
      "payable": false,
      "stateMutability": "nonpayable",
      "type": "function"
    },
    {
      "constant": false,
      "inputs": [],
      "name": "withdrawFromAbandoned",
      "outputs": [],
      "payable": false,
      "stateMutability": "nonpayable",
      "type": "function"
    }
  ],
  "bytecode": "0x60806040523480156200001157600080fd5b506040516102408062003b9b8339810180604052620000349190810190620005d7565b60008054600160a060020a03191633179055600160a060020a03851615156200005c57600080fd5b60208201515115156200006e57600080fd5b60808201516000106200008057600080fd5b600160a060020a03831615156200009657600080fd5b60008054600160a060020a03808816600160a060020a031992831617909255600180548784169083161790556002805492861692909116919091179055815160039081556020830151839190620000f19060049083620002d1565b50604082015162000109906004830190600262000316565b50606082015162000121906006830190600262000316565b506080820151600882015560a0909101516009909101556200014e8160016401000000006200015a810204565b505050505050620007af565b600080600160009054906101000a9004600160a060020a0316600160a060020a03166310fe9ae86040518163ffffffff167c0100000000000000000000000000000000000000000000000000000000028152600401602060405180830381600087803b158015620001ca57600080fd5b505af1158015620001df573d6000803e3d6000fd5b505050506040513d601f19601f82011682018060405250620002059190810190620005b6565b6001546002546040517fcfa037dc00000000000000000000000000000000000000000000000000000000815292935073__LibTournamentAdminMethods_____________9263cfa037dc926200027592600d92600160a060020a0392831692889216908b908b90600401620006f1565b60206040518083038186803b1580156200028e57600080fd5b505af4158015620002a3573d6000803e3d6000fd5b505050506040513d601f19601f82011682018060405250620002c99190810190620005b6565b949350505050565b826003810192821562000304579160200282015b82811115620003045782518255602090920191600190910190620002e5565b506200031292915062000348565b5090565b8260028101928215620003045791602002820182811115620003045782518255602090920191600190910190620002e5565b6200036591905b808211156200031257600081556001016200034f565b90565b60006200037682516200079e565b9392505050565b6000601f820183136200038f57600080fd5b6002620003a6620003a08262000780565b62000759565b91508183856020840282011115620003bd57600080fd5b60005b83811015620003ed5781620003d688826200046f565b8452506020928301929190910190600101620003c0565b5050505092915050565b6000601f820183136200040957600080fd5b60036200041a620003a08262000780565b915081838560208402820111156200043157600080fd5b60005b83811015620003ed57816200044a88826200046f565b845250602092830192919091019060010162000434565b6000620003768251620007aa565b600062000376825162000365565b600060a082840312156200049057600080fd5b6200049c60a062000759565b90506000620004ac84846200046f565b8252506020620004bf848483016200046f565b6020830152506040620004d5848285016200046f565b6040830152506060620004eb848285016200046f565b6060830152506080620005018482850162000461565b60808301525092915050565b600061014082840312156200052157600080fd5b6200052d60c062000759565b905060006200053d84846200046f565b82525060206200055084848301620003f7565b602083015250608062000566848285016200037d565b60408301525060c06200057c848285016200037d565b60608301525061010062000593848285016200046f565b608083015250610120620005aa848285016200046f565b60a08301525092915050565b600060208284031215620005c957600080fd5b6000620002c9848462000368565b60008060008060006102408688031215620005f157600080fd5b6000620005ff888862000368565b9550506020620006128882890162000368565b9450506040620006258882890162000368565b935050606062000638888289016200050d565b9250506101a06200064c888289016200047d565b9150509295509295909350565b62000664816200079e565b82525050565b6200066481620007aa565b805160a0830190620006888482620006e6565b5060208201516200069d6020850182620006e6565b506040820151620006b26040850182620006e6565b506060820151620006c76060850182620006e6565b506080820151620006dc60808501826200066a565b50505050565b9052565b620006648162000365565b6101408101620007028289620006e2565b62000711602083018862000659565b62000720604083018762000659565b6200072f606083018662000659565b6200073e608083018562000675565b6200074e6101208301846200066a565b979650505050505050565b6040518181016001604060020a03811182821017156200077857600080fd5b604052919050565b60006001604060020a038211156200079757600080fd5b5060200290565b600160a060020a031690565b151590565b6133dc80620007bf6000396000f3006080604052600436106101e25763ffffffff7c0100000000000000000000000000000000000000000000000000000000600035041663072a456081146101e757806310fe9ae81461020957806312065fe0146102345780631865c57d1461025657806323721e241461026b578063245edf061461028b57806328d576d7146102ad57806329db6063146102da5780632f54bf6e146102fa5780632fc1f1901461031a57806331691a7b1461032f5780633bc5de301461034f57806345df1945146103715780634644c51b1461038657806352c01fab146103a6578063542fe6c2146103c6578063583c3a92146103db57806367f69ab1146103fb5780636984d0701461041b5780636ec02be91461043d5780636fe564201461045257806380258e47146104675780638493f71f1461047c578063893d20e81461049157806389f3beb6146104a65780638a19c8bc146104bb5780638c1fc0bb146104de5780638da5cb5b146104fe5780639baec20714610513578063a968c4b914610528578063c2f897bf14610548578063d60561ce1461055d578063dbe55e561461057d578063e139a20c14610592578063e586a4f0146105a7578063f2fde38b146105bc578063f49bff7b146105dc578063fa8f3ac5146105f1578063ff3c1a8f14610611575b600080fd5b3480156101f357600080fd5b50610207610202366004612a4e565b610633565b005b34801561021557600080fd5b5061021e6107a2565b60405161022b919061307f565b60405180910390f35b34801561024057600080fd5b5061024961084b565b60405161022b9190613119565b34801561026257600080fd5b506102496109cc565b34801561027757600080fd5b50610207610286366004612aba565b610a70565b34801561029757600080fd5b506102a0610c40565b60405161022b91906130ef565b3480156102b957600080fd5b506102cd6102c8366004612887565b610c7c565b60405161022b919061310b565b3480156102e657600080fd5b506102076102f53660046128fd565b610d66565b34801561030657600080fd5b506102cd610315366004612887565b610dbe565b34801561032657600080fd5b5061021e610ddf565b34801561033b57600080fd5b5061020761034a366004612950565b610dfb565b34801561035b57600080fd5b50610364610f36565b60405161022b919061327c565b34801561037d57600080fd5b50610207611011565b34801561039257600080fd5b506102076103a1366004612887565b611147565b3480156103b257600080fd5b506102cd6103c1366004612887565b6111bd565b3480156103d257600080fd5b506102076111e8565b3480156103e757600080fd5b506102076103f636600461299e565b61131e565b34801561040757600080fd5b5061021e61041636600461296e565b6114aa565b34801561042757600080fd5b506104306114d9565b60405161022b91906130de565b34801561044957600080fd5b5061024961154a565b34801561045e57600080fd5b5061021e611550565b34801561047357600080fd5b5061024961156c565b34801561048857600080fd5b506102a0611572565b34801561049d57600080fd5b5061021e6115a7565b3480156104b257600080fd5b506102496115c3565b3480156104c757600080fd5b506104d06115c9565b60405161022b9291906132ea565b3480156104ea57600080fd5b506102cd6104f9366004612887565b611677565b34801561050a57600080fd5b5061021e6116a2565b34801561051f57600080fd5b506102076116be565b34801561053457600080fd5b506102076105433660046128c3565b611844565b34801561055457600080fd5b50610207611997565b34801561056957600080fd5b50610207610578366004612a2f565b611a3e565b34801561058957600080fd5b5061021e611acf565b34801561059e57600080fd5b50610430611aeb565b3480156105b357600080fd5b50610249611b61565b3480156105c857600080fd5b506102076105d7366004612887565b611b67565b3480156105e857600080fd5b50610249611bf4565b3480156105fd57600080fd5b5061021e61060c3660046129e5565b611d25565b34801561061d57600080fd5b506106266120d9565b60405161022b91906130fd565b6000805473ffffffffffffffffffffffffffffffffffffffff16331461065857600080fd5b600160009054906101000a900473ffffffffffffffffffffffffffffffffffffffff1673ffffffffffffffffffffffffffffffffffffffff166310fe9ae86040518163ffffffff167c0100000000000000000000000000000000000000000000000000000000028152600401602060405180830381600087803b1580156106de57600080fd5b505af11580156106f2573d6000803e3d6000fd5b505050506040513d601f19601f8201168201806040525061071691908101906128a5565b6040517f5fd45f0b00000000000000000000000000000000000000000000000000000000815290915073__LibTournamentAdminMethods_____________90635fd45f0b9061076e90600d9086908690600401613261565b60006040518083038186803b15801561078657600080fd5b505af415801561079a573d6000803e3d6000fd5b505050505050565b600154604080517f10fe9ae8000000000000000000000000000000000000000000000000000000008152905160009273ffffffffffffffffffffffffffffffffffffffff16916310fe9ae891600480830192602092919082900301818787803b15801561080e57600080fd5b505af1158015610822573d6000803e3d6000fd5b505050506040513d601f19601f8201168201806040525061084691908101906128a5565b905090565b600080600160009054906101000a900473ffffffffffffffffffffffffffffffffffffffff1673ffffffffffffffffffffffffffffffffffffffff166310fe9ae86040518163ffffffff167c0100000000000000000000000000000000000000000000000000000000028152600401602060405180830381600087803b1580156108d457600080fd5b505af11580156108e8573d6000803e3d6000fd5b505050506040513d601f19601f8201168201806040525061090c91908101906128a5565b600f546040517f70a082310000000000000000000000000000000000000000000000000000000081529192506109c69173ffffffffffffffffffffffffffffffffffffffff8416906370a082319061096890309060040161307f565b602060405180830381600087803b15801561098257600080fd5b505af1158015610996573d6000803e3d6000fd5b505050506040513d601f19601f820116820180604052506109ba9190810190612a6c565b9063ffffffff61210f16565b91505090565b6040517f5726b16f00000000000000000000000000000000000000000000000000000000815260009073__LibTournamentStateManagement__________90635726b16f90610a2090600d90600401613138565b60206040518083038186803b158015610a3857600080fd5b505af4158015610a4c573d6000803e3d6000fd5b505050506040513d601f19601f820116820180604052506108469190810190612a6c565b60015460009073ffffffffffffffffffffffffffffffffffffffff163314610a9757600080fd5b601054610aaa908363ffffffff61212116565b601055600154604080517f10fe9ae8000000000000000000000000000000000000000000000000000000008152905173ffffffffffffffffffffffffffffffffffffffff909216916310fe9ae8916004808201926020929091908290030181600087803b158015610b1a57600080fd5b505af1158015610b2e573d6000803e3d6000fd5b505050506040513d601f19601f82011682018060405250610b5291908101906128a5565b90508073ffffffffffffffffffffffffffffffffffffffff1663a9059cbb600d60000185815481101515610b8257fe5b6000918252602090912001546040517c010000000000000000000000000000000000000000000000000000000063ffffffff8416028152610bde9173ffffffffffffffffffffffffffffffffffffffff169086906004016130c3565b602060405180830381600087803b158015610bf857600080fd5b505af1158015610c0c573d6000803e3d6000fd5b505050506040513d601f19601f82011682018060405250610c309190810190612932565b1515610c3b57600080fd5b505050565b610c486122c4565b60408051808201918290529060079060029082845b81548152600190910190602001808311610c5d575b5050505050905090565b60015460009073ffffffffffffffffffffffffffffffffffffffff163314610ca357600080fd5b6002610cad6109cc565b14610cb757600080fd5b6040517fa09c5c9900000000000000000000000000000000000000000000000000000000815273__LibTournamentEntrantMethods___________9063a09c5c9990610d1090600390600d9060129088906004016132b5565b60206040518083038186803b158015610d2857600080fd5b505af4158015610d3c573d6000803e3d6000fd5b505050506040513d601f19601f82011682018060405250610d609190810190612932565b92915050565b336000908152600e602052604090205460ff161515610d8457600080fd5b7f5ec9914f46ca24eeb7222e98b6f699b769ab33c1d88072c0651eb9bb19478ad581604051610db391906130de565b60405180910390a150565b60005473ffffffffffffffffffffffffffffffffffffffff91821691161490565b60015473ffffffffffffffffffffffffffffffffffffffff1690565b6000805473ffffffffffffffffffffffffffffffffffffffff163314610e2057600080fd5b600160009054906101000a900473ffffffffffffffffffffffffffffffffffffffff1673ffffffffffffffffffffffffffffffffffffffff166310fe9ae86040518163ffffffff167c0100000000000000000000000000000000000000000000000000000000028152600401602060405180830381600087803b158015610ea657600080fd5b505af1158015610eba573d6000803e3d6000fd5b505050506040513d601f19601f82011682018060405250610ede91908101906128a5565b6040517f672ec62300000000000000000000000000000000000000000000000000000000815290915073__LibTournamentAdminMethods_____________9063672ec6239061076e90600d9086908690600401613239565b610f3e6122df565b6040805160c08101825260038054825282516060810193849052919290916020840191600490849082845b81548152600190910190602001808311610f69575050509183525050604080518082019182905260209092019190600484019060029082845b81548152600190910190602001808311610fa2575050509183525050604080518082019182905260209092019190600684019060029082845b81548152600190910190602001808311610fdb575050505050815260200160088201548152602001600982015481525050905090565b3360009081526016602052604081205460ff1680151561103057600080fd5b600160009054906101000a900473ffffffffffffffffffffffffffffffffffffffff1673ffffffffffffffffffffffffffffffffffffffff166310fe9ae86040518163ffffffff167c0100000000000000000000000000000000000000000000000000000000028152600401602060405180830381600087803b1580156110b657600080fd5b505af11580156110ca573d6000803e3d6000fd5b505050506040513d601f19601f820116820180604052506110ee91908101906128a5565b6040517f734e4a1600000000000000000000000000000000000000000000000000000000815290925073__LibTournamentEntrantMethods___________9063734e4a169061076e90600d90601290879060040161321e565b336000908152600e602052604090205460ff16151561116557600080fd5b600d546040517f5fbb3d346317d5ecdb86412d4c69c7503ff4dbed1eccd4cb6290453ea0b1a32291610db3917fffffffffffffffffffffffffffffffffffffffffffffffffffffffffffffffff9091019084906132ea565b73ffffffffffffffffffffffffffffffffffffffff1660009081526016602052604090205460ff1690565b3360009081526016602052604081205460ff1680151561120757600080fd5b600160009054906101000a900473ffffffffffffffffffffffffffffffffffffffff1673ffffffffffffffffffffffffffffffffffffffff166310fe9ae86040518163ffffffff167c0100000000000000000000000000000000000000000000000000000000028152600401602060405180830381600087803b15801561128d57600080fd5b505af11580156112a1573d6000803e3d6000fd5b505050506040513d601f19601f820116820180604052506112c591908101906128a5565b6040517fddc23bd000000000000000000000000000000000000000000000000000000000815290925073__LibTournamentEntrantMethods___________9063ddc23bd09061076e90600d90601290879060040161321e565b6000805473ffffffffffffffffffffffffffffffffffffffff16331461134357600080fd5b600160009054906101000a900473ffffffffffffffffffffffffffffffffffffffff1673ffffffffffffffffffffffffffffffffffffffff166310fe9ae86040518163ffffffff167c0100000000000000000000000000000000000000000000000000000000028152600401602060405180830381600087803b1580156113c957600080fd5b505af11580156113dd573d6000803e3d6000fd5b505050506040513d601f19601f8201168201806040525061140191908101906128a5565b6001546040517fd06b592400000000000000000000000000000000000000000000000000000000815291925073__LibTournamentAdminMethods_____________9163d06b59249161147591600d9173ffffffffffffffffffffffffffffffffffffffff16908690899089906004016131ca565b60006040518083038186803b15801561148d57600080fd5b505af41580156114a1573d6000803e3d6000fd5b50505050505050565b336000908152600e602052604081205460ff1615156114c857600080fd5b6114d28383612130565b9392505050565b6060600d600001805480602002602001604051908101604052809291908181526020018280548015610c7257602002820191906000526020600020905b815473ffffffffffffffffffffffffffffffffffffffff168152600190910190602001808311611516575050505050905090565b60135490565b60025473ffffffffffffffffffffffffffffffffffffffff1681565b60035490565b61157a6122c4565b60408051808201918290526009805482529091600290600a60208501808311610c5d575050505050905090565b60005473ffffffffffffffffffffffffffffffffffffffff1690565b60175490565b60008073__LibTournamentStateManagement__________630386922b600d6040518263ffffffff167c01000000000000000000000000000000000000000000000000000000000281526004016116209190613138565b604080518083038186803b15801561163757600080fd5b505af415801561164b573d6000803e3d6000fd5b505050506040513d601f19601f8201168201806040525061166f9190810190612a8a565b915091509091565b73ffffffffffffffffffffffffffffffffffffffff166000908152600e602052604090205460ff1690565b60005473ffffffffffffffffffffffffffffffffffffffff1681565b6000805473ffffffffffffffffffffffffffffffffffffffff1633146116e357600080fd5b600160009054906101000a900473ffffffffffffffffffffffffffffffffffffffff1673ffffffffffffffffffffffffffffffffffffffff166310fe9ae86040518163ffffffff167c0100000000000000000000000000000000000000000000000000000000028152600401602060405180830381600087803b15801561176957600080fd5b505af115801561177d573d6000803e3d6000fd5b505050506040513d601f19601f820116820180604052506117a191908101906128a5565b6001546040517fa91d59d600000000000000000000000000000000000000000000000000000000815291925073__LibTournamentAdminMethods_____________9163a91d59d69161181191600d9173ffffffffffffffffffffffffffffffffffffffff16908690600401613146565b60006040518083038186803b15801561182957600080fd5b505af415801561183d573d6000803e3d6000fd5b5050505050565b60015473ffffffffffffffffffffffffffffffffffffffff16331461186857600080fd5b73ffffffffffffffffffffffffffffffffffffffff80821660009081526015602090815260408083209386168352929052205460ff1615156118a957600080fd5b6013546118bd90600163ffffffff61210f16565b60135573ffffffffffffffffffffffffffffffffffffffff8082166000908152601460209081526040808320601583528184209487168452939091529020600101548154811061190957fe5b6000918252602080832090910180547fffffffffffffffffffffffff000000000000000000000000000000000000000016905573ffffffffffffffffffffffffffffffffffffffff928316825260158152604080832094909316825292909252812080547fffffffffffffffffffffffffffffffffffffffffffffffffffffffffffffff0016815560010155565b60005473ffffffffffffffffffffffffffffffffffffffff1633146119bb57600080fd5b6040517faf41094900000000000000000000000000000000000000000000000000000000815273__LibTournamentAdminMethods_____________9063af41094990611a0c90600d90600401613138565b60006040518083038186803b158015611a2457600080fd5b505af4158015611a38573d6000803e3d6000fd5b50505050565b60005473ffffffffffffffffffffffffffffffffffffffff163314611a6257600080fd5b6001546040517fb43475ff00000000000000000000000000000000000000000000000000000000815273__LibTournamentAdminMethods_____________9163b43475ff9161181191600391869173ffffffffffffffffffffffffffffffffffffffff169060040161328b565b60015473ffffffffffffffffffffffffffffffffffffffff1681565b33600090815260146020908152604091829020805483518184028101840190945280845260609392830182828015610c725760200282019190600052602060002090815473ffffffffffffffffffffffffffffffffffffffff168152600190910190602001808311611516575050505050905090565b600c5490565b60005473ffffffffffffffffffffffffffffffffffffffff163314611b8b57600080fd5b73ffffffffffffffffffffffffffffffffffffffff81161515611bad57600080fd5b600080547fffffffffffffffffffffffff00000000000000000000000000000000000000001673ffffffffffffffffffffffffffffffffffffffff92909216919091179055565b600080600160009054906101000a900473ffffffffffffffffffffffffffffffffffffffff1673ffffffffffffffffffffffffffffffffffffffff166310fe9ae86040518163ffffffff167c0100000000000000000000000000000000000000000000000000000000028152600401602060405180830381600087803b158015611c7d57600080fd5b505af1158015611c91573d6000803e3d6000fd5b505050506040513d601f19601f82011682018060405250611cb591908101906128a5565b601054600f546040517f70a082310000000000000000000000000000000000000000000000000000000081529293506109c692611d19919073ffffffffffffffffffffffffffffffffffffffff8616906370a082319061096890309060040161307f565b9063ffffffff61212116565b336000908152601660205260408120548190819060ff16801515611d4857600080fd5b6001546040517f532311c4000000000000000000000000000000000000000000000000000000008152339173ffffffffffffffffffffffffffffffffffffffff1690819063532311c490611da090859060040161307f565b602060405180830381600087803b158015611dba57600080fd5b505af1158015611dce573d6000803e3d6000fd5b505050506040513d601f19601f82011682018060405250611df29190810190612932565b1515611dfd57600080fd5b6000611e076115c9565b9150600190508173ffffffffffffffffffffffffffffffffffffffff16631865c57d6040518163ffffffff167c0100000000000000000000000000000000000000000000000000000000028152600401602060405180830381600087803b158015611e7157600080fd5b505af1158015611e85573d6000803e3d6000fd5b505050506040513d601f19601f82011682018060405250611ea99190810190612a6c565b1415611eb457600080fd5b6002611ebe6109cc565b14611ec857600080fd5b6040517f0386922b00000000000000000000000000000000000000000000000000000000815273__LibTournamentStateManagement__________90630386922b90611f1990600d90600401613138565b604080518083038186803b158015611f3057600080fd5b505af4158015611f44573d6000803e3d6000fd5b505050506040513d601f19601f82011682018060405250611f689190810190612a8a565b6001546040517f09d1ebd000000000000000000000000000000000000000000000000000000000815291985073__LibTournamentEntrantMethods___________92506309d1ebd091611fdb9173ffffffffffffffffffffffffffffffffffffffff16908a906012908f9060040161308d565b60206040518083038186803b158015611ff357600080fd5b505af4158015612007573d6000803e3d6000fd5b505050506040513d601f19601f8201168201806040525061202b91908101906128a5565b885151909550151580612042575060408801515115155b156120cc576040517f0a181f5200000000000000000000000000000000000000000000000000000000815273ffffffffffffffffffffffffffffffffffffffff861690630a181f5290612099908b90600401613127565b600060405180830381600087803b1580156120b357600080fd5b505af11580156120c7573d6000803e3d6000fd5b505050505b5092979650505050505050565b6120e1612329565b6040805160608101918290526004805482529091600390600560208501808311610c5d575050505050905090565b60008282111561211b57fe5b50900390565b6000828201838110156114d257fe5b600080600160009054906101000a900473ffffffffffffffffffffffffffffffffffffffff1673ffffffffffffffffffffffffffffffffffffffff166310fe9ae86040518163ffffffff167c0100000000000000000000000000000000000000000000000000000000028152600401602060405180830381600087803b1580156121b957600080fd5b505af11580156121cd573d6000803e3d6000fd5b505050506040513d601f19601f820116820180604052506121f191908101906128a5565b6001546002546040517fcfa037dc00000000000000000000000000000000000000000000000000000000815292935073__LibTournamentAdminMethods_____________9263cfa037dc9261226c92600d9273ffffffffffffffffffffffffffffffffffffffff92831692889216908b908b9060040161316e565b60206040518083038186803b15801561228457600080fd5b505af4158015612298573d6000803e3d6000fd5b505050506040513d601f19601f820116820180604052506122bc91908101906128a5565b949350505050565b60408051808201825290600290829080388339509192915050565b60408051610140810190915260008152602081016122fb612329565b81526020016123086122c4565b81526020016123156122c4565b815260200160008152602001600081525090565b6060604051908101604052806003906020820280388339509192915050565b60006114d28235613384565b60006114d28251613384565b6000601f8201831361237157600080fd5b813561238461237f8261332c565b613305565b915081818352602084019350602081019050838560208402820111156123a957600080fd5b60005b838110156123d557816123bf8882612348565b84525060209283019291909101906001016123ac565b5050505092915050565b6000601f820183136123f057600080fd5b81356123fe61237f8261332c565b9150818183526020840193506020810190508385602084028201111561242357600080fd5b60005b838110156123d557816124398882612348565b8452506020928301929190910190600101612426565b6000601f8201831361246057600080fd5b600261246e61237f8261334d565b9150818385602084028201111561248457600080fd5b60005b838110156123d5578161249a8882612599565b8452506020928301929190910190600101612487565b6000601f820183136124c157600080fd5b60036124cf61237f8261334d565b915081838560208402820111156124e557600080fd5b60005b838110156123d557816124fb8882612599565b84525060209283019291909101906001016124e8565b6000601f8201831361252257600080fd5b813561253061237f8261332c565b9150818183526020840193506020810190508385602084028201111561255557600080fd5b60005b838110156123d5578161256b8882612599565b8452506020928301929190910190600101612558565b60006114d2823561339d565b60006114d2825161339d565b60006114d28235613371565b6000606082840312156125b757600080fd5b6125c16060613305565b9050813567ffffffffffffffff8111156125da57600080fd5b6125e684828501612360565b825250602082013567ffffffffffffffff81111561260357600080fd5b61260f84828501612511565b602083015250604082013567ffffffffffffffff81111561262f57600080fd5b61263b84828501612360565b60408301525092915050565b600060a0828403121561265957600080fd5b61266360a0613305565b905060006126718484612599565b825250602061268284848301612599565b602083015250604061269684828501612599565b60408301525060606126aa84828501612599565b60608301525060806126be84828501612581565b60808301525092915050565b6000608082840312156126dc57600080fd5b6126e66080613305565b9050813567ffffffffffffffff8111156126ff57600080fd5b61270b84828501612360565b825250602082013567ffffffffffffffff81111561272857600080fd5b61273484828501612511565b602083015250604061274884828501612599565b604083015250606061275c84828501612599565b60608301525092915050565b6000610120828403121561277b57600080fd5b61278560a0613305565b9050600061279384846124b0565b82525060606127a48484830161244f565b60208301525060a06127b88482850161244f565b60408301525060e06127cc84828501612599565b6060830152506101006126be84828501612599565b600061014082840312156127f457600080fd5b6127fe60c0613305565b9050600061280c8484612599565b825250602061281d848483016124b0565b60208301525060806128318482850161244f565b60408301525060c06128458482850161244f565b60608301525061010061285a84828501612599565b60808301525061012061286f84828501612581565b60a08301525092915050565b60006114d28251613371565b60006020828403121561289957600080fd5b60006122bc8484612348565b6000602082840312156128b757600080fd5b60006122bc8484612354565b600080604083850312156128d657600080fd5b60006128e28585612348565b92505060206128f385828601612348565b9150509250929050565b60006020828403121561290f57600080fd5b813567ffffffffffffffff81111561292657600080fd5b6122bc848285016123df565b60006020828403121561294457600080fd5b60006122bc848461258d565b600060a0828403121561296257600080fd5b60006122bc8484612647565b60008060c0838503121561298157600080fd5b600061298d8585612647565b92505060a06128f385828601612581565b60008060c083850312156129b157600080fd5b823567ffffffffffffffff8111156129c857600080fd5b6129d4858286016126ca565b92505060206128f385828601612647565b60008061014083850312156129f957600080fd5b6000612a058585612768565b92505061012083013567ffffffffffffffff811115612a2357600080fd5b6128f3858286016125a5565b60006101408284031215612a4257600080fd5b60006122bc84846127e1565b600060208284031215612a6057600080fd5b60006122bc8484612599565b600060208284031215612a7e57600080fd5b60006122bc848461287b565b60008060408385031215612a9d57600080fd5b6000612aa9858561287b565b92505060206128f385828601612354565b60008060408385031215612acd57600080fd5b6000612ad98585612599565b92505060206128f385828601612599565b612af381613384565b82525050565b6000612b0482613374565b808452602084019350612b168361336b565b60005b82811015612b4657612b2c868351612aea565b612b358261336b565b602096909601959150600101612b19565b5093949350505050565b6000612b5b82613374565b808452602084019350612b6d8361336b565b60005b82811015612b4657612b83868351612aea565b612b8c8261336b565b602096909601959150600101612b70565b6000612ba882613374565b808452602084019350612bba8361336b565b60005b82811015612b4657612bd0868351612aea565b612bd98261336b565b602096909601959150600101612bbd565b612bf381613378565b612bfc82613371565b60005b8281101561183d57612c12858351612e19565b612c1b8261336b565b602095909501949150600101612bff565b612c3581613378565b612c3e82613371565b60005b8281101561183d57612c54858351612e19565b612c5d8261336b565b602095909501949150600101612c41565b612c7781613378565b612c8082613371565b60005b8281101561183d57612c96858351612e19565b612c9f8261336b565b602095909501949150600101612c83565b612cb98161337e565b612cc282613371565b60005b8281101561183d57612cd8858351612e19565b612ce18261336b565b602095909501949150600101612cc5565b612cfb8161337e565b612d0482613371565b60005b8281101561183d57612d1a858351612e19565b612d238261336b565b602095909501949150600101612d07565b612d3d8161337e565b612d4682613371565b60005b8281101561183d57612d5c858351612e19565b612d658261336b565b602095909501949150600101612d49565b6000612d8182613374565b808452602084019350612d938361336b565b60005b82811015612b4657612da9868351612e19565b612db28261336b565b602096909601959150600101612d96565b6000612dce82613374565b808452602084019350612de08361336b565b60005b82811015612b4657612df6868351612e19565b612dff8261336b565b602096909601959150600101612de3565b612af38161339d565b612af381613371565b8051606080845260009190840190612e3a8282612b50565b91505060208301518482036020860152612e548282612d76565b91505060408301518482036040860152612e6e8282612b50565b95945050505050565b9052565b805160a0830190612e8c8482612e19565b506020820151612e9f6020850182612e19565b506040820151612eb26040850182612e19565b506060820151612ec56060850182612e19565b506080820151611a386080850182612e10565b8051608080845260009190840190612ef08282612b9d565b91505060208301518482036020860152612f0a8282612dc3565b9150506040830151612f1f6040860182612e19565b506060830151612f326060860182612e19565b509392505050565b8051610120830190612f4c8482612d34565b506020820151612f5f6060850182612c6e565b506040820151612f7260a0850182612c6e565b506060820151612f8560e0850182612e19565b506080820151611a38610100850182612e19565b8051610140830190612fab8482612e19565b506020820151612fbe6020850182612cf2565b506040820151612fd16080850182612c2c565b506060820151612fe460c0850182612c2c565b506080820151612ff8610100850182612e19565b5060a0820151611a38610120850182612e19565b805161014083019061301e8482612e19565b5060208201516130316020850182612d34565b5060408201516130446080850182612c6e565b50606082015161305760c0850182612c6e565b50608082015161306b610100850182612e19565b5060a0820151611a38610120850182612e10565b60208101610d608284612aea565b610180810161309c8287612aea565b6130a96020830186612aea565b6130b66040830185612e77565b612e6e6060830184612f3a565b604081016130d18285612aea565b6114d26020830184612e19565b602080825281016114d28184612af9565b60408101610d608284612bea565b60608101610d608284612cb0565b60208101610d608284612e10565b60208101610d608284612e19565b602080825281016114d28184612e22565b60208101610d608284612e77565b606081016131548286612e77565b6131616020830185612aea565b6122bc6040830184612aea565b610140810161317d8289612e77565b61318a6020830188612aea565b6131976040830187612aea565b6131a46060830186612aea565b6131b16080830185612e7b565b6131bf610120830184612e10565b979650505050505050565b61012081016131d98288612e77565b6131e66020830187612aea565b6131f36040830186612aea565b81810360608301526132058185612ed8565b90506132146080830184612e7b565b9695505050505050565b6060810161322c8286612e77565b6131616020830185612e77565b60e081016132478286612e77565b6132546020830185612e7b565b6122bc60c0830184612aea565b6060810161326f8286612e77565b6131616020830185612e19565b6101408101610d608284612f99565b610180810161329a8286612e77565b6132a7602083018561300c565b6122bc610160830184612aea565b608081016132c38287612e77565b6132d06020830186612e77565b6132dd6040830185612e77565b612e6e6060830184612aea565b604081016132f88285612e19565b6114d26020830184612aea565b60405181810167ffffffffffffffff8111828210171561332457600080fd5b604052919050565b600067ffffffffffffffff82111561334357600080fd5b5060209081020190565b600067ffffffffffffffff82111561336457600080fd5b5060200290565b60200190565b90565b5190565b50600290565b50600390565b73ffffffffffffffffffffffffffffffffffffffff1690565b1515905600a265627a7a723058208511c10af8a6ca65ed64585d2b6fb12a1993a8d93663828c7e2ee9caba1987e26c6578706572696d656e74616cf50037",
  "source": "pragma solidity ^0.4.18;\npragma experimental ABIEncoderV2;\n\nimport \"../libraries/strings/strings.sol\";\nimport \"../libraries/math/SafeMath.sol\";\nimport \"../libraries/LibConstruction.sol\";\nimport \"../libraries/tournament/LibTournamentStateManagement.sol\";\nimport \"../libraries/tournament/LibTournamentAdminMethods.sol\";\nimport \"../libraries/tournament/LibTournamentEntrantMethods.sol\";\nimport \"../libraries/LibEnums.sol\";\nimport \"../interfaces/IMatryxPlatform.sol\";\nimport \"../interfaces/IMatryxTournament.sol\";\nimport \"../interfaces/IMatryxSubmission.sol\";\nimport \"../interfaces/IMatryxRound.sol\";\nimport \"../interfaces/IMatryxToken.sol\";\nimport \"./Ownable.sol\";\n\n/// @title Tournament - The Matryx tournament.\n/// @author Max Howard - <max@nanome.ai>, Sam Hessenauer - <sam@nanome.ai>\ncontract MatryxTournament is Ownable, IMatryxTournament {\n    using SafeMath for uint256;\n    using strings for *;\n    using LibTournamentAdminMethods for LibConstruction.TournamentData;\n\n    // TODO: condense and put in structs\n    // TODO: Create setter for this (resume here for upgrade system.)\n\n    address public platformAddress;\n    address public matryxRoundFactoryAddress;\n\n    LibConstruction.TournamentData data;\n    LibTournamentStateManagement.StateData stateData;\n    LibTournamentStateManagement.EntryData entryData;\n\n    constructor(address _owner, address _platformAddress, address _matryxRoundFactoryAddress, LibConstruction.TournamentData tournamentData, LibConstruction.RoundData roundData)\n    {\n        //Clean inputs\n        require(_owner != 0x0);\n        require(tournamentData.title[0] != 0);\n        require(tournamentData.initialBounty > 0);\n        require(_matryxRoundFactoryAddress != 0x0);\n\n        owner = _owner;\n        platformAddress = _platformAddress;\n        matryxRoundFactoryAddress = _matryxRoundFactoryAddress;\n        data = tournamentData;\n\n        _createRound(roundData, true); // _automaticCreation\n    }\n\n    /*\n     * Structs\n     */\n\n    struct uint256_optional\n    {\n        bool exists;\n        uint256 value;\n    }\n\n    struct SubmissionLocation\n    {\n        uint256 roundIndex;\n        uint256 submissionIndex;\n    }\n\n    /*\n     * Events\n     */\n\n    event SubmissionCreated(uint256 _roundIndex, address _submissionAddress);\n    event RoundWinnersChosen(address[] _submissionAddresses);\n\n    /// @dev Allows rounds to invoke SubmissionCreated events on this tournament.\n    /// @param _submissionAddress Address of the submission.\n    function invokeSubmissionCreatedEvent(address _submissionAddress) public onlyRound\n    {\n        emit SubmissionCreated(stateData.rounds.length-1, _submissionAddress);\n    }\n\n    /// @dev Allows rounds to invoke SubmissionCreated events on this tournament.\n    /// @param _winningAddresses Addresses of the winning submissions.\n    function invokeRoundWinnersChosenEvent(address[] _winningAddresses) public onlyRound\n    {\n        emit RoundWinnersChosen(_winningAddresses);\n    }\n\n    /*\n     * Modifiers\n     */\n    modifier onlyOwner()\n    {\n        require(msg.sender == owner);\n        _;\n    }\n\n    /// @dev Requires the function caller to be the platform.\n    modifier onlyPlatform() {\n        require(msg.sender == platformAddress);\n        _;\n    }\n\n    modifier onlyRound() {\n        require(stateData.isRound[msg.sender]);\n        _;\n    }\n\n    modifier onlyPeerLinked(address _sender) {\n        IMatryxPlatform platform = IMatryxPlatform(platformAddress);\n        require(platform.hasPeer(_sender));\n        _;\n    }\n\n    /// @dev Requires the function caller to be an entrant.\n    modifier onlyEntrant()\n    {\n        bool senderIsEntrant = entryData.addressToEntryFeePaid[msg.sender].exists;\n        require(senderIsEntrant);\n        _;\n    }\n\n    modifier whileTournamentOpen()\n    {\n        require(getState() == uint256(LibEnums.TournamentState.Open));\n        _;\n    }\n\n    modifier ifRoundHasFunds()\n    {\n        address currentRoundAddress;\n        (,currentRoundAddress) = currentRound();\n        require(IMatryxRound(currentRoundAddress).getState() != uint256(LibEnums.RoundState.Unfunded));\n        _;\n    }\n\n    /*\n    * State Maintenance Methods\n    */\n\n    function removeSubmission(address _submissionAddress, address _author) public onlyPlatform\n    {\n        require(entryData.entrantToSubmissionToSubmissionIndex[_author][_submissionAddress].exists);\n        entryData.numberOfSubmissions = entryData.numberOfSubmissions.sub(1);\n        delete entryData.entrantToSubmissions[_author][entryData.entrantToSubmissionToSubmissionIndex[_author][_submissionAddress].value];\n        delete entryData.entrantToSubmissionToSubmissionIndex[_author][_submissionAddress];\n    }\n\n    /*\n     * Access Control Methods\n     */\n\n    /// @dev Returns whether or not the sender is an entrant in this tournament\n    /// @param _sender Explicit sender address.\n    /// @return Whether or not the sender is an entrant in this tournament.\n    function isEntrant(address _sender) public view returns (bool)\n    {\n        return entryData.addressToEntryFeePaid[_sender].exists;\n    }\n\n    /// @dev Returns the state of the tournament. One of:\n    /// { NotYetOpen, OnHold, Open, Closed, Abandoned }\n    function getState() public view returns (uint256)\n    {\n        return LibTournamentStateManagement.getState(stateData);\n    }\n\n    /*\n     * Getter Methods\n     */\n\n    function getPlatform() public view returns (address _platformAddress)\n    {\n        return platformAddress;\n    }\n\n    function getTokenAddress() public view returns (address _matryxTokenAddress)\n    {\n        return IMatryxPlatform(platformAddress).getTokenAddress();\n    }\n\n    function getData() public view returns (LibConstruction.TournamentData _data)\n    {\n        return data;\n    }\n\n    /// @dev Returns bool indicating whether _address corresponds to an existing round or not\n    function isRound(address _roundAddress) public view returns (bool _isRound)\n    {\n        return stateData.isRound[_roundAddress];\n    }\n\n    /// @dev Returns list of round addresses in the tournament\n    function getRounds() public view returns (address[] _rounds)\n    {\n        return stateData.rounds;\n    }\n\n    function getCategory() public view returns (bytes32 _category)\n    {\n        return data.category;\n    }\n\n    function getTitle() public view returns (bytes32[3] _title)\n    {\n        return data.title;\n    }\n\n    // @dev Returns the external address of the tournament.\n    // @return _descriptionHash Off-chain content hash of tournament details (ipfs hash)\n    function getDescriptionHash() public view returns (bytes32[2] _descriptionHash)\n    {\n        return data.descriptionHash;\n    }\n\n    function getFileHash() public view returns (bytes32[2] _fileHash)\n    {\n        return data.fileHash;\n    }\n\n    /// @dev Returns the current round number and address.\n    /// @return (_currentRound, _currentRoundAddress) Number and address of the current round.\n    function currentRound() public view returns (uint256 _currentRound, address _currentRoundAddress)\n    {\n        return LibTournamentStateManagement.currentRound(stateData);\n    }\n\n    ///@dev Returns this tournament's bounty.\n    function getBounty() public view returns (uint256 _tournamentBounty)\n    {\n        IMatryxToken token = IMatryxToken(IMatryxPlatform(platformAddress).getTokenAddress());\n        return token.balanceOf(address(this)).sub(stateData.entryFeesTotal).add(stateData.roundBountyAllocation);\n    }\n\n    // @dev Returns the remaining bounty this tournament is able to award.\n    function getBalance() public view returns (uint256 _tournamentBalance)\n    {\n        IMatryxToken token = IMatryxToken(IMatryxPlatform(platformAddress).getTokenAddress());\n        return token.balanceOf(address(this)).sub(stateData.entryFeesTotal);\n    }\n\n    /// @dev Returns the fee in MTX to be payed by a prospective entrant.\n    /// @return Entry fee for this tournament.\n    function getEntryFee() public view returns (uint256)\n    {\n        return data.entryFee;\n    }\n\n    /// @dev Returns all of the sender's submissions to this tournament.\n    /// @return (_roundIndices[], _submissionIndices[]) Locations of the sender's submissions.\n    function mySubmissions() public view returns (address[])\n    {\n        return entryData.entrantToSubmissions[msg.sender];\n    }\n\n    /// @dev Returns the number of submissions made to this tournament.\n    /// @return _submissionCount Number of submissions made to this tournament.\n    function submissionCount() public view returns (uint256 _submissionCount)\n    {\n        return entryData.numberOfSubmissions;\n    }\n\n    function entrantCount() public view returns (uint256 _entrantCount)\n    {\n        return entryData.numberOfEntrants;\n    }\n\n    /*\n     * Setter Methods\n     */\n\n    function update(LibConstruction.TournamentModificationData tournamentData) public onlyOwner\n    {\n        data.update(tournamentData, platformAddress);\n    }\n\n    /*\n     * Tournament Admin Methods\n     */\n\n    /// @dev Chooses the winner(s) of the current round.\n    /// @param _selectWinnersData Struct containing winning submission information including:\n    ///        winningSubmissions: Winning submission addresses\n    ///        rewardDistribution: Distribution indicating how to split the reward among the submissions\n    ///        selectWinnerAction: SelectWinnerAction (DoNothing, StartNextRound, CloseTournament) indicating what to do after winner selection\n    ///        rewardDistributionTotal: (Unused)\n    /// @param _roundData Struct containing data for the next round including:\n    ///        start: Start time (seconds since unix-epoch) for next round\n    ///        end: End time (seconds since unix-epoch) for next round\n    ///        reviewPeriodDuration: Number of seconds to allow for winning submissions to be selected in next round\n    ///        bounty: Bounty in MTX for next round\n    ///        closed: (Unused)\n    function selectWinners(LibRound.SelectWinnersData _selectWinnersData, LibConstruction.RoundData _roundData) public onlyOwner\n    {\n        address matryxTokenAddress = IMatryxPlatform(platformAddress).getTokenAddress();\n        LibTournamentAdminMethods.selectWinners(stateData, platformAddress, matryxTokenAddress, _selectWinnersData, _roundData);\n    }\n\n    /// @dev modifies the future \"Ghost\" Round Information\n    function editGhostRound(LibConstruction.RoundData _roundData) public onlyOwner\n    {\n        address matryxTokenAddress = IMatryxPlatform(platformAddress).getTokenAddress();\n        LibTournamentAdminMethods.editGhostRound(stateData, _roundData, matryxTokenAddress);\n    }\n\n    ///@dev Allocates some of this tournament's balance to the current round\n    function allocateMoreToRound(uint256 _mtxAllocation) public onlyOwner\n    {\n        address matryxTokenAddress = IMatryxPlatform(platformAddress).getTokenAddress();\n        LibTournamentAdminMethods.allocateMoreToRound(stateData, _mtxAllocation, matryxTokenAddress);\n    }\n\n    /// @dev This function should be called after the user selects winners for their tournament and chooses the \"Start Next Round\" option\n    function jumpToNextRound() public onlyOwner\n    {\n        LibTournamentAdminMethods.jumpToNextRound(stateData);\n    }\n\n    /// @dev This function closes the tournament after the tournament owner selects winners with the \"Close Tournament\" option\n    function stopTournament() public onlyOwner\n    {\n        address matryxTokenAddress = IMatryxPlatform(platformAddress).getTokenAddress();\n        LibTournamentAdminMethods.stopTournament(stateData, platformAddress, matryxTokenAddress);\n    }\n\n    /// @dev Creates a new round.\n    /// @return The new round's address.\n    function createRound(LibConstruction.RoundData roundData, bool _automaticCreation) public onlyRound returns (address _roundAddress)\n    {\n        return _createRound(roundData, _automaticCreation);\n    }\n\n    function _createRound(LibConstruction.RoundData roundData, bool _automaticCreation) private returns (address _roundAddress)\n    {\n        address matryxTokenAddress = IMatryxPlatform(platformAddress).getTokenAddress();\n        return LibTournamentAdminMethods.createRound(stateData, platformAddress, matryxTokenAddress, matryxRoundFactoryAddress, roundData, _automaticCreation);\n    }\n\n    function sendBountyToRound(uint256 _roundIndex, uint256 _bountyMTX) public onlyPlatform\n    {\n        stateData.roundBountyAllocation = stateData.roundBountyAllocation.add(_bountyMTX);\n        IMatryxToken token = IMatryxToken(IMatryxPlatform(platformAddress).getTokenAddress());\n        require(token.transfer(stateData.rounds[_roundIndex], _bountyMTX));\n    }\n\n    /*\n     * Entrant Methods\n     */\n\n    /// @dev Enters the user into the tournament.\n    /// @param _entrantAddress Address of the user to enter.\n    /// @return success Whether or not the user was entered successfully.\n    function enterUserInTournament(address _entrantAddress) public onlyPlatform whileTournamentOpen returns (bool _success)\n    {\n        return LibTournamentEntrantMethods.enterUserInTournament(data, stateData, entryData, _entrantAddress);\n    }\n\n    function collectMyEntryFee() public onlyEntrant\n    {\n        address matryxTokenAddress = IMatryxPlatform(platformAddress).getTokenAddress();\n        LibTournamentEntrantMethods.collectMyEntryFee(stateData, entryData, matryxTokenAddress);\n    }\n\n    function createSubmission(LibConstruction.SubmissionData submissionData, LibConstruction.ContributorsAndReferences contribsAndRefs) public onlyEntrant onlyPeerLinked(msg.sender) ifRoundHasFunds whileTournamentOpen returns (address _submissionAddress)\n    {\n        address currentRoundAddress;\n        (, currentRoundAddress) = LibTournamentStateManagement.currentRound(stateData);\n        address newSubmission = LibTournamentEntrantMethods.createSubmission(platformAddress, currentRoundAddress, entryData, submissionData);\n\n        if (contribsAndRefs.contributors.length != 0 || contribsAndRefs.references.length != 0)\n        {\n            IMatryxSubmission(newSubmission).setContributorsAndReferences(contribsAndRefs);\n        }\n\n        return newSubmission;\n    }\n\n    function withdrawFromAbandoned() public onlyEntrant\n    {\n        address matryxTokenAddress = IMatryxPlatform(platformAddress).getTokenAddress();\n        LibTournamentEntrantMethods.withdrawFromAbandoned(stateData, entryData, matryxTokenAddress);\n    }\n}\n",
  "sourcePath": "/Users/maxhoward/Desktop/Ethereum/MatryxPlatform/contracts/MatryxTournament.sol",
  "compiler": {
    "name": "solc",
    "version": "0.4.24+commit.e67f0147.Emscripten.clang"
  },
  "schemaVersion": "2.0.1",
  "updatedAt": "2018-08-15T19:02:47.269Z"
}