{
  "contractName": "MatryxTournamentFactory",
  "abi": [
    {
      "constant": true,
      "inputs": [
        {
          "name": "_sender",
          "type": "address"
        }
      ],
      "name": "isOwner",
      "outputs": [
        {
          "name": "_isOwner",
          "type": "bool"
        }
      ],
      "payable": false,
      "stateMutability": "view",
      "type": "function"
    },
    {
      "constant": true,
      "inputs": [],
      "name": "matryxRoundFactoryAddress",
      "outputs": [
        {
          "name": "",
          "type": "address"
        }
      ],
      "payable": false,
      "stateMutability": "view",
      "type": "function"
    },
    {
      "constant": true,
      "inputs": [],
      "name": "getOwner",
      "outputs": [
        {
          "name": "_owner",
          "type": "address"
        }
      ],
      "payable": false,
      "stateMutability": "view",
      "type": "function"
    },
    {
      "constant": true,
      "inputs": [],
      "name": "owner",
      "outputs": [
        {
          "name": "",
          "type": "address"
        }
      ],
      "payable": false,
      "stateMutability": "view",
      "type": "function"
    },
    {
      "constant": true,
      "inputs": [],
      "name": "platformAddress",
      "outputs": [
        {
          "name": "",
          "type": "address"
        }
      ],
      "payable": false,
      "stateMutability": "view",
      "type": "function"
    },
    {
      "constant": false,
      "inputs": [
        {
          "name": "newOwner",
          "type": "address"
        }
      ],
      "name": "transferOwnership",
      "outputs": [],
      "payable": false,
      "stateMutability": "nonpayable",
      "type": "function"
    },
    {
      "inputs": [
        {
          "name": "_matryxRoundFactoryAddress",
          "type": "address"
        }
      ],
      "payable": false,
      "stateMutability": "nonpayable",
      "type": "constructor"
    },
    {
      "constant": false,
      "inputs": [
        {
          "components": [
            {
              "name": "category",
              "type": "bytes32"
            },
            {
              "name": "title",
              "type": "bytes32[3]"
            },
            {
              "name": "descriptionHash",
              "type": "bytes32[2]"
            },
            {
              "name": "fileHash",
              "type": "bytes32[2]"
            },
            {
              "name": "initialBounty",
              "type": "uint256"
            },
            {
              "name": "entryFee",
              "type": "uint256"
            }
          ],
          "name": "tournamentData",
          "type": "tuple"
        },
        {
          "components": [
            {
              "name": "start",
              "type": "uint256"
            },
            {
              "name": "end",
              "type": "uint256"
            },
            {
              "name": "reviewPeriodDuration",
              "type": "uint256"
            },
            {
              "name": "bounty",
              "type": "uint256"
            },
            {
              "name": "closed",
              "type": "bool"
            }
          ],
          "name": "roundData",
          "type": "tuple"
        },
        {
          "name": "_owner",
          "type": "address"
        }
      ],
      "name": "createTournament",
      "outputs": [
        {
          "name": "_tournamentAddress",
          "type": "address"
        }
      ],
      "payable": false,
      "stateMutability": "nonpayable",
      "type": "function"
    },
    {
      "constant": false,
      "inputs": [
        {
          "name": "_platformAddress",
          "type": "address"
        }
      ],
      "name": "setPlatform",
      "outputs": [],
      "payable": false,
      "stateMutability": "nonpayable",
      "type": "function"
    }
  ],
  "bytecode": "0x608060405234801561001057600080fd5b50604051602080611d1a833981018060405261002f9190810190610075565b6000805433600160a060020a03199182161790915560028054909116600160a060020a03929092169190911790556100a7565b600061006e825161009b565b9392505050565b60006020828403121561008757600080fd5b60006100938484610062565b949350505050565b600160a060020a031690565b611c64806100b66000396000f300608060405260043610620000965763ffffffff7c010000000000000000000000000000000000000000000000000000000060003504166302f47d6781146200009b5780632f54bf6e14620000d85780636945c5ea146200010c5780636fe564201462000133578063893d20e8146200014b5780638da5cb5b1462000163578063dbe55e56146200017b578063f2fde38b1462000193575b600080fd5b348015620000a857600080fd5b50620000c0620000ba36600462000636565b620001b8565b604051620000cf91906200083f565b60405180910390f35b348015620000e557600080fd5b50620000fd620000f73660046200060d565b62000222565b604051620000cf9190620008ad565b3480156200011957600080fd5b50620001316200012b3660046200060d565b62000243565b005b3480156200014057600080fd5b50620000c0620002af565b3480156200015857600080fd5b50620000c0620002cb565b3480156200017057600080fd5b50620000c0620002e7565b3480156200018857600080fd5b50620000c062000303565b348015620001a057600080fd5b5062000131620001b23660046200060d565b6200031f565b6001546002546000918291849173ffffffffffffffffffffffffffffffffffffffff90811691168787620001eb620003ae565b620001fb95949392919062000855565b604051809103906000f08015801562000218573d6000803e3d6000fd5b5095945050505050565b60005473ffffffffffffffffffffffffffffffffffffffff91821691161490565b60005473ffffffffffffffffffffffffffffffffffffffff1633146200026857600080fd5b600180547fffffffffffffffffffffffff00000000000000000000000000000000000000001673ffffffffffffffffffffffffffffffffffffffff92909216919091179055565b60025473ffffffffffffffffffffffffffffffffffffffff1681565b60005473ffffffffffffffffffffffffffffffffffffffff1690565b60005473ffffffffffffffffffffffffffffffffffffffff1681565b60015473ffffffffffffffffffffffffffffffffffffffff1681565b60005473ffffffffffffffffffffffffffffffffffffffff1633146200034457600080fd5b73ffffffffffffffffffffffffffffffffffffffff811615156200036757600080fd5b600080547fffffffffffffffffffffffff00000000000000000000000000000000000000001673ffffffffffffffffffffffffffffffffffffffff92909216919091179055565b6040516112f3806200093883390190565b6000620003cd823562000919565b9392505050565b6000601f82018313620003e657600080fd5b6002620003fd620003f782620008e5565b620008bd565b915081838560208402820111156200041457600080fd5b60005b838110156200044457816200042d8882620004c6565b845250602092830192919091019060010162000417565b5050505092915050565b6000601f820183136200046057600080fd5b600362000471620003f782620008e5565b915081838560208402820111156200048857600080fd5b60005b83811015620004445781620004a18882620004c6565b84525060209283019291909101906001016200048b565b6000620003cd823562000932565b6000620003cd823562000904565b600060a08284031215620004e757600080fd5b620004f360a0620008bd565b90506000620005038484620004c6565b82525060206200051684848301620004c6565b60208301525060406200052c84828501620004c6565b60408301525060606200054284828501620004c6565b60608301525060806200055884828501620004b8565b60808301525092915050565b600061014082840312156200057857600080fd5b6200058460c0620008bd565b90506000620005948484620004c6565b8252506020620005a7848483016200044e565b6020830152506080620005bd84828501620003d4565b60408301525060c0620005d384828501620003d4565b606083015250610100620005ea84828501620004c6565b6080830152506101206200060184828501620004c6565b60a08301525092915050565b6000602082840312156200062057600080fd5b60006200062e8484620003bf565b949350505050565b600080600061020084860312156200064d57600080fd5b60006200065b868662000564565b9350506101406200066f86828701620004d4565b9250506101e06200068386828701620003bf565b9150509250925092565b620006988162000919565b82525050565b620006a98162000907565b620006b48262000904565b60005b82811015620006ea57620006cd85835162000748565b620006d88262000913565b602095909501949150600101620006b7565b5050505050565b620006fc816200090d565b620007078262000904565b60005b82811015620006ea576200072085835162000748565b6200072b8262000913565b6020959095019491506001016200070a565b620006988162000932565b620006988162000904565b805160a083019062000766848262000748565b5060208201516200077b602085018262000748565b50604082015162000790604085018262000748565b506060820151620007a5606085018262000748565b506080820151620007ba60808501826200073d565b50505050565b8051610140830190620007d4848262000748565b506020820151620007e96020850182620006f1565b506040820151620007fe60808501826200069e565b5060608201516200081360c08501826200069e565b5060808201516200082961010085018262000748565b5060a0820151620007ba61012085018262000748565b602081016200084f82846200068d565b92915050565b61024081016200086682886200068d565b6200087560208301876200068d565b6200088460408301866200068d565b620008936060830185620007c0565b620008a36101a083018462000753565b9695505050505050565b602081016200084f82846200073d565b60405181810167ffffffffffffffff81118282101715620008dd57600080fd5b604052919050565b600067ffffffffffffffff821115620008fd57600080fd5b5060200290565b90565b50600290565b50600390565b60200190565b73ffffffffffffffffffffffffffffffffffffffff1690565b151590560060806040523480156200001157600080fd5b5060405161024080620012f383398101806040526200003491908101906200041c565b60c05115156200004357600080fd5b60805115156200005257600080fd5b6101005115156200006257600080fd5b6101e0516000106200007357600080fd5b608051600090815560a0805160015560c05160025560e051600355610100516004908155610120516005556101405160065561016051600755610180516008556101a0516009556101c051600a556101e051600b5561020051600c556040517f10fe9ae80000000000000000000000000000000000000000000000000000000080825292517c010000000000000000000000000000000000000000000000000000000094919260209284928391905af18015156200013057600080fd5b81518463cfa037dc029350838352600d600484015260a051602484015280604484015260c05160648401526102205160848401526102405160a48401526102605160c48401526102805160e48401526102a05161010484015260006101248401526020836101448573__LibTournamentAdminMethods_____________5af49150811515620001be57600080fd5b50505050505050505050620004f7565b6000620001dc8251620004e3565b9392505050565b6000601f82018313620001f557600080fd5b60026200020c6200020682620004c5565b6200049e565b915081838560208402820111156200022357600080fd5b60005b838110156200025357816200023c8882620002d5565b845250602092830192919091019060010162000226565b5050505092915050565b6000601f820183136200026f57600080fd5b6003620002806200020682620004c5565b915081838560208402820111156200029757600080fd5b60005b83811015620002535781620002b08882620002d5565b84525060209283019291909101906001016200029a565b6000620001dc8251620004ef565b6000620001dc8251620004f4565b600060a08284031215620002f657600080fd5b6200030260a06200049e565b90506000620003128484620002d5565b82525060206200032584848301620002d5565b60208301525060406200033b84828501620002d5565b60408301525060606200035184828501620002d5565b60608301525060806200036784828501620002c7565b60808301525092915050565b600061014082840312156200038757600080fd5b6200039360c06200049e565b90506000620003a38484620002d5565b8252506020620003b6848483016200025d565b6020830152506080620003cc84828501620001e3565b60408301525060c0620003e284828501620001e3565b606083015250610100620003f984828501620002d5565b6080830152506101206200041084828501620002d5565b60a08301525092915050565b600080600080600061024086880312156200043657600080fd5b6000620004448888620001ce565b95505060206200045788828901620001ce565b94505060406200046a88828901620001ce565b93505060606200047d8882890162000373565b9250506101a06200049188828901620002e3565b9150509295509295909350565b6040518181016001604060020a0381118282101715620004bd57600080fd5b604052919050565b60006001604060020a03821115620004dc57600080fd5b5060200290565b600160a060020a031690565b151590565b90565b610dec80620005076000396000f300608060405234801561001057600080fd5b507c01000000000000000000000000000000000000000000000000000000008060003504632fc1f19081146101d1576310fe9ae881146101de57634644c51b81146101d9576352c01fab81146101ef57638c1fc0bb811461020457638a19c8bc8114610219576380258e4781146102265763ff3c1a8f811461022e5763245edf06811461023657638493f71f811461023e5763f49bff7b8114610246576312065fe081146102525763e586a4f0811461025e576345df194581146102665763e139a20c811461026f57636ec02be98114610277576389f3beb6811461027f5763d60561ce811461028757636984d070811461029057631865c57d811461029857633bc5de3081146102a45763be99970581146102ac5763583c3a9281146102b55763d683084681146102be5763072a456081146102c75763c2f897bf81146102d057639baec20781146102d9576367f69ab181146102e2576323721e2481146102eb576328d576d781146102f45763e42b8c0a81146102fd5763542fe6c281146103065763893d20e8811461030f57632f54bf6e81146103175763f2fde38b811461031f5761dead6000526002601ea060003560005260046000a060206000f35b6101d961047b565b610327565b6101d96101ea8361048b565b61033c565b6101d96101ea6101ff600061032d565b6104b8565b6101d96101ea610214600061032d565b6104cf565b6040610224836106b1565bf35b6101d96105cf565b6101d96105df565b6101d9610604565b6101d961061e565b6101d96101ea83610638565b6101d96101ea83610656565b6101d96106a0565b6101d982610b9c565b6101d96106ed565b6101d961074b565b6101d961075c565b6101d98261076d565b6101d96104e6565b6101d96101ea83610534565b6101d9610570565b6101d9826107ce565b6101d98261083c565b6101d9826108b8565b6101d98261090d565b6101d982610970565b6101d9826109b6565b6101d982610a12565b6101d982610a87565b6101d982610b29565b6101d982610bef565b6101d982610d03565b6101d9610d5e565b6101d9610d6e565b610327610d8a565b50610337565b6020026004013590565b610346565b8060005260206000f35b61035a565b80151561035757600080fd5b50565b610375565b60006103708284148385101761034b565b500390565b610392565b80820161038c8183148284101761034b565b92915050565b6103a6565b6103a4336000541461034b565b565b6103b8565b6103a4336001541461034b565b6103ce565b6103a46103c9336104cf565b61034b565b610408565b6001548263532311c402600052336004526103f8602060006044600080865af161034b565b61040360005161034b565b505050565b610419565b6103a46103c9336104b8565b610437565b61042781610534565b6104336002821461034b565b5050565b610476565b6020610447826106b1565b015181631865c57d02600052610467602060006004600080865af161034b565b6104336001600051141561034b565b610486565b6103a460015461033c565b6104b3565b600080826310fe9ae80281526104ac60208260048460006001545af161034b565b5192915050565b6104ca565b60009081526016602052604090205490565b6104e1565b6000908152600e602052604090205490565b61052f565b600d6000526020600020600d54604051806020825260208201915082825260005b838110156105245784810154602093909301928352600101610507565b506020830260400181f35b61056b565b635726b16f81026000908152600d600452806104ac60208260248173__LibTournamentStateManagement__________5af461034b565b6105ca565b60408051600381526004546020820152600554918101919091526006546060820152600754608082015260085460a082015260095460c0820152600a5460e0820152600b54610100820152600c5461012082015261014081f35b6105da565b6103a460035461033c565b6105ff565b604080516004548152600554602082015260065491810191909152606081f35b610619565b60408051600754815260085460208201529081f35b610633565b604080516009548152600a5460208201529081f35b610651565b600061038c6003600d015461064c84610656565b61037a565b61069b565b60006106618261048b565b6370a08231830260009081523060045261068360208260248180875af161034b565b6106936002600d0154825161035f565b949350505050565b6106ac565b600c546103a49061033c565b6106e8565b630386922b81026000908152600d6004528061038c60408260248173__LibTournamentStateManagement__________5af461034b565b610746565b3360005260026012016020526040600020806000526020600020815460208160020102604051806020825260208201915083825260005b848110156107415785810154602093909301928352600101610724565b508281f35b610757565b6013546103a49061033c565b610768565b6017546103a49061033c565b6107c9565b610775610397565b604051808263b43475ff0282526003600483015260248201915061014060048337610140820191506001548252610403602060006101848473__LibTournamentAdminMethods_____________5af461034b565b610837565b6107d8600061032d565b6107e182610534565b6107f581156001831417600283141761034b565b604051836323b872dd02815232600482015230602482015282604482015261081c8461048b565b610830602060006064856000865af161034b565b5050505050565b6108b3565b610844610397565b6040518163d06b5924028152600d600482015260015460248201526108688261048b565b60448201526004360380600460648401376064828101805160600181529101906108ad60206000848673__LibTournamentAdminMethods_____________5af461034b565b50505050565b610908565b6108c0610397565b6108c98161048b565b6040518263672ec62302815236600060048301378160c482015261040360008060e48473__LibTournamentAdminMethods_____________5af461034b565b61096b565b610915610397565b61091e8161048b565b6040518263072a4560028152600d600482015261093b600061032d565b602482015281604482015261040360008060648473__LibTournamentAdminMethods_____________5af461034b565b6109b1565b610978610397565b6040518163af410949028152600d60048201526104336020600060248473__LibTournamentAdminMethods_____________5af461034b565b610a0d565b6109be610397565b6040516109ca8261048b565b8263a91d59d602825260036004830152600154602483015280604483015261040360008060648573__LibTournamentAdminMethods_____________5af461034b565b610a82565b610a1a6103bd565b604051610a268261048b565b8263cfa037dc028252600d6004830152600154602483015280604483015260025460648301526004360360046084840137610a7d6020836101448573__LibTournamentAdminMethods_____________5af461034b565b602082f35b610b24565b610a8f6103ab565b610a99600061032d565b610aa3600161032d565b6003600d01610ab382825461037a565b8155600d6000527fd7b6990105719101dabeb77144f2a3385c8033acd3af97e9423a695e81ad1eb5610ae5848261037a565b54610aef8661048b565b6040518763a9059cbb028152826004820152856024820152610b1a6000806044846000875af161034b565b5050505050505050565b610b97565b610b316103ab565b610b3a8161041e565b610b44600061032d565b6040518263a09c5c9902815260036004820152600d602482015260126044820152816064820152610b916020600060848473__LibTournamentEntrantMethods___________5af461034b565b60206000f35b610bea565b610ba58161048b565b6040518263ff4fef08028152600d60048201526012602482015281604482015261040360008060648473__LibTournamentEntrantMethods___________5af461034b565b610cfe565b610bf761040d565b610c0181336103d3565b610c0a8161043c565b610c138161041e565b6020610c1e826106b1565b015160405180836309d1ebd002825260015460048301528260248301526012604483015261012060046064840137610c726020826101848573__LibTournamentEntrantMethods___________5af461034b565b610c7c600961032d565b60040180356020820135604083013582840135828501358286013560008111600084111715610cf957610cb082841461034b565b6020890198508a63b288e0c1028952600489019850602089526020600682848601010102808860208c0137602481019050610cf76000808360048e0360008e515af161034b565b505b602088f35b610d59565b610d0b61040d565b610d148161048b565b6040518263ddc23bd0028152600d60048201526012602482015281604482015261040360008060648473__LibTournamentEntrantMethods___________5af461034b565b610d69565b6103a460005461033c565b610d85565b610d78600061032d565b610357816000541461033c565b610daf565b610d94600061032d565b610da1336000541461034b565b610daa8161034b565b600055565b500000a265627a7a72305820f176dd663ba6ecc7395ea220aaf641c3e11630f833ef2f50ade6c93f46d2db486c6578706572696d656e74616cf50037a265627a7a72305820ed6bf38184822025a8d5942fe63d21829744e6dd907f11ef4e317a31d2865b7d6c6578706572696d656e74616cf50037",
  "source": "pragma solidity ^0.4.18;\npragma experimental ABIEncoderV2;\n\nimport \"../../libraries/LibConstruction.sol\";\nimport \"../../interfaces/IMatryxPlatform.sol\";\nimport \"../JMatryxTournament.sol\";\nimport \"../Ownable.sol\";\n\ncontract MatryxTournamentFactory is Ownable {\n    address public platformAddress;\n    address public matryxRoundFactoryAddress;\n\n    constructor(address _matryxRoundFactoryAddress) public {\n        matryxRoundFactoryAddress = _matryxRoundFactoryAddress;\n    }\n\n    function createTournament(LibConstruction.TournamentData tournamentData, LibConstruction.RoundData roundData, address _owner) public returns (address _tournamentAddress) {\n        JMatryxTournament newTournament = new JMatryxTournament(_owner, platformAddress, matryxRoundFactoryAddress, tournamentData, roundData);\n        return newTournament;\n    }\n\n    function setPlatform(address _platformAddress) public onlyOwner\n    {\n        platformAddress = _platformAddress;\n    }\n}\n",
  "sourcePath": "/Users/maxhoward/Desktop/Ethereum/MatryxPlatform/contracts/factories/MatryxTournamentFactory.sol",
  "compiler": {
    "name": "solc",
    "version": "0.4.24+commit.e67f0147.Emscripten.clang"
  },
  "schemaVersion": "2.0.1",
  "updatedAt": "2018-08-01T22:15:02.552Z"
}