{
  "contractName": "MatryxTournament",
  "abi": [
    {
      "constant": true,
      "inputs": [],
      "name": "entryFee",
      "outputs": [
        {
          "name": "",
          "type": "uint256"
        }
      ],
      "payable": false,
      "stateMutability": "view",
      "type": "function"
    },
    {
      "constant": true,
      "inputs": [],
      "name": "tournamentOpen",
      "outputs": [
        {
          "name": "",
          "type": "bool"
        }
      ],
      "payable": false,
      "stateMutability": "view",
      "type": "function"
    },
    {
      "constant": true,
      "inputs": [],
      "name": "maxRounds",
      "outputs": [
        {
          "name": "",
          "type": "uint256"
        }
      ],
      "payable": false,
      "stateMutability": "view",
      "type": "function"
    },
    {
      "constant": true,
      "inputs": [],
      "name": "matryxTokenAddress",
      "outputs": [
        {
          "name": "",
          "type": "address"
        }
      ],
      "payable": false,
      "stateMutability": "view",
      "type": "function"
    },
    {
      "constant": true,
      "inputs": [
        {
          "name": "_sender",
          "type": "address"
        }
      ],
      "name": "isOwner",
      "outputs": [
        {
          "name": "_isOwner",
          "type": "bool"
        }
      ],
      "payable": false,
      "stateMutability": "view",
      "type": "function"
    },
    {
      "constant": true,
      "inputs": [],
      "name": "reviewPeriod",
      "outputs": [
        {
          "name": "",
          "type": "uint256"
        }
      ],
      "payable": false,
      "stateMutability": "view",
      "type": "function"
    },
    {
      "constant": true,
      "inputs": [],
      "name": "tournamentOpenedTime",
      "outputs": [
        {
          "name": "",
          "type": "uint256"
        }
      ],
      "payable": false,
      "stateMutability": "view",
      "type": "function"
    },
    {
      "constant": true,
      "inputs": [],
      "name": "tournamentClosedTime",
      "outputs": [
        {
          "name": "",
          "type": "uint256"
        }
      ],
      "payable": false,
      "stateMutability": "view",
      "type": "function"
    },
    {
      "constant": true,
      "inputs": [],
      "name": "title",
      "outputs": [
        {
          "name": "",
          "type": "string"
        }
      ],
      "payable": false,
      "stateMutability": "view",
      "type": "function"
    },
    {
      "constant": true,
      "inputs": [],
      "name": "matryxRoundFactoryAddress",
      "outputs": [
        {
          "name": "",
          "type": "address"
        }
      ],
      "payable": false,
      "stateMutability": "view",
      "type": "function"
    },
    {
      "constant": true,
      "inputs": [],
      "name": "getOwner",
      "outputs": [
        {
          "name": "_owner",
          "type": "address"
        }
      ],
      "payable": false,
      "stateMutability": "view",
      "type": "function"
    },
    {
      "constant": true,
      "inputs": [
        {
          "name": "",
          "type": "address"
        }
      ],
      "name": "isRound",
      "outputs": [
        {
          "name": "",
          "type": "bool"
        }
      ],
      "payable": false,
      "stateMutability": "view",
      "type": "function"
    },
    {
      "constant": true,
      "inputs": [
        {
          "name": "",
          "type": "uint256"
        }
      ],
      "name": "rounds",
      "outputs": [
        {
          "name": "",
          "type": "address"
        }
      ],
      "payable": false,
      "stateMutability": "view",
      "type": "function"
    },
    {
      "constant": true,
      "inputs": [],
      "name": "owner",
      "outputs": [
        {
          "name": "",
          "type": "address"
        }
      ],
      "payable": false,
      "stateMutability": "view",
      "type": "function"
    },
    {
      "constant": true,
      "inputs": [],
      "name": "Bounty",
      "outputs": [
        {
          "name": "",
          "type": "uint256"
        }
      ],
      "payable": false,
      "stateMutability": "view",
      "type": "function"
    },
    {
      "constant": true,
      "inputs": [],
      "name": "BountyLeft",
      "outputs": [
        {
          "name": "",
          "type": "uint256"
        }
      ],
      "payable": false,
      "stateMutability": "view",
      "type": "function"
    },
    {
      "constant": true,
      "inputs": [],
      "name": "discipline",
      "outputs": [
        {
          "name": "",
          "type": "string"
        }
      ],
      "payable": false,
      "stateMutability": "view",
      "type": "function"
    },
    {
      "constant": true,
      "inputs": [],
      "name": "platformAddress",
      "outputs": [
        {
          "name": "",
          "type": "address"
        }
      ],
      "payable": false,
      "stateMutability": "view",
      "type": "function"
    },
    {
      "constant": true,
      "inputs": [],
      "name": "externalAddress",
      "outputs": [
        {
          "name": "",
          "type": "bytes"
        }
      ],
      "payable": false,
      "stateMutability": "view",
      "type": "function"
    },
    {
      "constant": true,
      "inputs": [],
      "name": "timeCreated",
      "outputs": [
        {
          "name": "",
          "type": "uint256"
        }
      ],
      "payable": false,
      "stateMutability": "view",
      "type": "function"
    },
    {
      "constant": false,
      "inputs": [
        {
          "name": "newOwner",
          "type": "address"
        }
      ],
      "name": "transferOwnership",
      "outputs": [],
      "payable": false,
      "stateMutability": "nonpayable",
      "type": "function"
    },
    {
      "inputs": [
        {
          "name": "_platformAddress",
          "type": "address"
        },
        {
          "name": "_matryxTokenAddress",
          "type": "address"
        },
        {
          "name": "_matryxRoundFactoryAddress",
          "type": "address"
        },
        {
          "name": "_owner",
          "type": "address"
        },
        {
          "name": "_tournamentTitle",
          "type": "string"
        },
        {
          "name": "_externalAddress",
          "type": "bytes"
        },
        {
          "name": "_Bounty",
          "type": "uint256"
        },
        {
          "name": "_entryFee",
          "type": "uint256"
        },
        {
          "name": "_reviewPeriod",
          "type": "uint256"
        }
      ],
      "payable": false,
      "stateMutability": "nonpayable",
      "type": "constructor"
    },
    {
      "anonymous": false,
      "inputs": [
        {
          "indexed": false,
          "name": "_roundIndex",
          "type": "uint256"
        }
      ],
      "name": "RoundStarted",
      "type": "event"
    },
    {
      "anonymous": false,
      "inputs": [
        {
          "indexed": false,
          "name": "_roundIndex",
          "type": "uint256"
        },
        {
          "indexed": false,
          "name": "_submissionAddress",
          "type": "address"
        }
      ],
      "name": "SubmissionCreated",
      "type": "event"
    },
    {
      "anonymous": false,
      "inputs": [
        {
          "indexed": false,
          "name": "_submissionAddress",
          "type": "address"
        }
      ],
      "name": "RoundWinnerChosen",
      "type": "event"
    },
    {
      "constant": false,
      "inputs": [
        {
          "name": "_submissionAddress",
          "type": "address"
        }
      ],
      "name": "invokeSubmissionCreatedEvent",
      "outputs": [],
      "payable": false,
      "stateMutability": "nonpayable",
      "type": "function"
    },
    {
      "constant": false,
      "inputs": [
        {
          "name": "_submissionAddress",
          "type": "address"
        },
        {
          "name": "_author",
          "type": "address"
        }
      ],
      "name": "removeSubmission",
      "outputs": [
        {
          "name": "",
          "type": "bool"
        }
      ],
      "payable": false,
      "stateMutability": "nonpayable",
      "type": "function"
    },
    {
      "constant": true,
      "inputs": [
        {
          "name": "_sender",
          "type": "address"
        }
      ],
      "name": "isEntrant",
      "outputs": [
        {
          "name": "",
          "type": "bool"
        }
      ],
      "payable": false,
      "stateMutability": "view",
      "type": "function"
    },
    {
      "constant": true,
      "inputs": [],
      "name": "isOpen",
      "outputs": [
        {
          "name": "",
          "type": "bool"
        }
      ],
      "payable": false,
      "stateMutability": "view",
      "type": "function"
    },
    {
      "constant": true,
      "inputs": [],
      "name": "isInReview",
      "outputs": [
        {
          "name": "",
          "type": "bool"
        }
      ],
      "payable": false,
      "stateMutability": "view",
      "type": "function"
    },
    {
      "constant": true,
      "inputs": [],
      "name": "roundIsOpen",
      "outputs": [
        {
          "name": "",
          "type": "bool"
        }
      ],
      "payable": false,
      "stateMutability": "view",
      "type": "function"
    },
    {
      "constant": true,
      "inputs": [],
      "name": "getPlatform",
      "outputs": [
        {
          "name": "_platformAddress",
          "type": "address"
        }
      ],
      "payable": false,
      "stateMutability": "view",
      "type": "function"
    },
    {
      "constant": true,
      "inputs": [],
      "name": "getExternalAddress",
      "outputs": [
        {
          "name": "_externalAddress",
          "type": "bytes"
        }
      ],
      "payable": false,
      "stateMutability": "view",
      "type": "function"
    },
    {
      "constant": true,
      "inputs": [],
      "name": "currentRound",
      "outputs": [
        {
          "name": "_currentRound",
          "type": "uint256"
        },
        {
          "name": "_currentRoundAddress",
          "type": "address"
        }
      ],
      "payable": false,
      "stateMutability": "view",
      "type": "function"
    },
    {
      "constant": true,
      "inputs": [],
      "name": "mySubmissions",
      "outputs": [
        {
          "name": "",
          "type": "address[]"
        }
      ],
      "payable": false,
      "stateMutability": "view",
      "type": "function"
    },
    {
      "constant": true,
      "inputs": [],
      "name": "submissionCount",
      "outputs": [
        {
          "name": "_submissionCount",
          "type": "uint256"
        }
      ],
      "payable": false,
      "stateMutability": "view",
      "type": "function"
    },
    {
      "constant": true,
      "inputs": [],
      "name": "entrantCount",
      "outputs": [
        {
          "name": "_entrantCount",
          "type": "uint256"
        }
      ],
      "payable": false,
      "stateMutability": "view",
      "type": "function"
    },
    {
      "constant": false,
      "inputs": [
        {
          "name": "_title",
          "type": "string"
        }
      ],
      "name": "setTitle",
      "outputs": [],
      "payable": false,
      "stateMutability": "nonpayable",
      "type": "function"
    },
    {
      "constant": false,
      "inputs": [
        {
          "name": "_externalAddress",
          "type": "bytes"
        }
      ],
      "name": "setExternalAddress",
      "outputs": [],
      "payable": false,
      "stateMutability": "nonpayable",
      "type": "function"
    },
    {
      "constant": false,
      "inputs": [
        {
          "name": "_entryFee",
          "type": "uint256"
        }
      ],
      "name": "setEntryFee",
      "outputs": [],
      "payable": false,
      "stateMutability": "nonpayable",
      "type": "function"
    },
    {
      "constant": false,
      "inputs": [
        {
          "name": "_newMaxRounds",
          "type": "uint256"
        }
      ],
      "name": "setNumberOfRounds",
      "outputs": [],
      "payable": false,
      "stateMutability": "nonpayable",
      "type": "function"
    },
    {
      "constant": false,
      "inputs": [
        {
          "name": "_discipline",
          "type": "string"
        }
      ],
      "name": "setDiscipline",
      "outputs": [],
      "payable": false,
      "stateMutability": "nonpayable",
      "type": "function"
    },
    {
      "constant": false,
      "inputs": [
        {
          "name": "_submissionAddress",
          "type": "address"
        }
      ],
      "name": "chooseWinner",
      "outputs": [],
      "payable": false,
      "stateMutability": "nonpayable",
      "type": "function"
    },
    {
      "constant": false,
      "inputs": [
        {
          "name": "_bountyMTX",
          "type": "uint256"
        }
      ],
      "name": "createRound",
      "outputs": [
        {
          "name": "_roundAddress",
          "type": "address"
        }
      ],
      "payable": false,
      "stateMutability": "nonpayable",
      "type": "function"
    },
    {
      "constant": false,
      "inputs": [
        {
          "name": "_duration",
          "type": "uint256"
        },
        {
          "name": "_reviewPeriod",
          "type": "uint256"
        }
      ],
      "name": "startRound",
      "outputs": [],
      "payable": false,
      "stateMutability": "nonpayable",
      "type": "function"
    },
    {
      "constant": false,
      "inputs": [
        {
          "name": "_entrantAddress",
          "type": "address"
        }
      ],
      "name": "enterUserInTournament",
      "outputs": [
        {
          "name": "_success",
          "type": "bool"
        }
      ],
      "payable": false,
      "stateMutability": "nonpayable",
      "type": "function"
    },
    {
      "constant": true,
      "inputs": [],
      "name": "getEntryFee",
      "outputs": [
        {
          "name": "",
          "type": "uint256"
        }
      ],
      "payable": false,
      "stateMutability": "view",
      "type": "function"
    },
    {
      "constant": false,
      "inputs": [],
      "name": "collectEntryFee",
      "outputs": [
        {
          "name": "",
          "type": "bool"
        }
      ],
      "payable": false,
      "stateMutability": "nonpayable",
      "type": "function"
    },
    {
      "constant": false,
      "inputs": [
        {
          "name": "_title",
          "type": "string"
        },
        {
          "name": "_owner",
          "type": "address"
        },
        {
          "name": "_externalAddress",
          "type": "bytes"
        },
        {
          "name": "_contributors",
          "type": "address[]"
        },
        {
          "name": "_references",
          "type": "address[]"
        },
        {
          "name": "_publicallyAccessible",
          "type": "bool"
        }
      ],
      "name": "createSubmission",
      "outputs": [
        {
          "name": "_submissionAddress",
          "type": "address"
        }
      ],
      "payable": false,
      "stateMutability": "nonpayable",
      "type": "function"
    }
  ],
  "bytecode": "0x60606040526003600d55600e805460ff19169055600060125534156200002457600080fd5b604051620022fe380380620022fe8339810160405280805191906020018051919060200180519190602001805191906020018051820191906020018051820191906020018051919060200180519190602001805160008054600160a060020a03191633600160a060020a0390811691909117909155909250871615159050620000ac57600080fd5b60008311620000ba57600080fd5b600160a060020a0387161515620000d057600080fd5b60018054600160a060020a03808c16600160a060020a031992831617909255600280548b8416908316179055600380548a841690831617905542600755600080549289169290911691909117905560048580516200013392916020019062000168565b5060058480516200014992916020019062000168565b50600f839055601092909255601155600b55506200020d945050505050565b828054600181600116156101000203166002900490600052602060002090601f016020900481019282601f10620001ab57805160ff1916838001178555620001db565b82800160010185558215620001db579182015b82811115620001db578251825591602001919060010190620001be565b50620001e9929150620001ed565b5090565b6200020a91905b80821115620001e95760008155600101620001f4565b90565b6120e1806200021d6000396000f30060606040526004361061020b5763ffffffff60e060020a600035041663072ea61c811461021057806311476599146102355780631faf969b1461025c57806328d576d71461026f57806329cc545e1461028e5780632d830cd5146102bd5780632f54bf6e146102d55780632fc1f190146102f45780633b249810146103075780633c7bb9131461031a5780633da1bba114610339578063447411f31461034f5780634644c51b1461036257806347535d7b1461038157806348f73095146103945780634a79d50c146103a757806352c01fab146104315780635ace2914146104505780635c11a3e4146104a15780636ec02be9146104b45780636fe56420146104c757806372910be0146104da5780637af52ade1461052b578063814baebb1461053e578063893d20e81461058f57806389f3beb6146105a25780638a19c8bc146105b55780638c1fc0bb146105e95780638c65c81f146106085780638da5cb5b1461061e578063a68e8a8614610631578063a968c4b914610644578063aa53d50414610669578063ab88ef681461067c578063b1902e0f1461068f578063c3964372146106a2578063c5561236146106bb578063dbe55e56146106ce578063e139a20c146106e1578063e586a4f014610747578063e70347bb1461075a578063eb770d0c1461076d578063ee5ba56c14610783578063f1653f6e146108ac578063f2fde38b146108bf575b600080fd5b341561021b57600080fd5b6102236108de565b60405190815260200160405180910390f35b341561024057600080fd5b6102486108e4565b604051901515815260200160405180910390f35b341561026757600080fd5b6102236108ed565b341561027a57600080fd5b610248600160a060020a03600435166108f3565b341561029957600080fd5b6102a1610af5565b604051600160a060020a03909116815260200160405180910390f35b34156102c857600080fd5b6102d3600435610b04565b005b34156102e057600080fd5b610248600160a060020a0360043516610b3f565b34156102ff57600080fd5b6102a1610b53565b341561031257600080fd5b610223610b63565b341561032557600080fd5b6102d3600160a060020a0360043516610b69565b341561034457600080fd5b6102a1600435610d3e565b341561035a57600080fd5b610223611026565b341561036d57600080fd5b6102d3600160a060020a036004351661102c565b341561038c57600080fd5b610248611079565b341561039f57600080fd5b610223611082565b34156103b257600080fd5b6103ba611088565b60405160208082528190810183818151815260200191508051906020019080838360005b838110156103f65780820151838201526020016103de565b50505050905090810190601f1680156104235780820380516001836020036101000a031916815260200191505b509250505060405180910390f35b341561043c57600080fd5b610248600160a060020a0360043516611126565b341561045b57600080fd5b6102d360046024813581810190830135806020601f8201819004810201604051908101604052818152929190602084018383808284375094965061114495505050505050565b34156104ac57600080fd5b6103ba611176565b34156104bf57600080fd5b61022361121e565b34156104d257600080fd5b6102a1611224565b34156104e557600080fd5b6102d360046024813581810190830135806020601f8201819004810201604051908101604052818152929190602084018383808284375094965061123395505050505050565b341561053657600080fd5b610248611261565b341561054957600080fd5b6102d360046024813581810190830135806020601f8201819004810201604051908101604052818152929190602084018383808284375094965061133295505050505050565b341561059a57600080fd5b6102a1611360565b34156105ad57600080fd5b61022361136f565b34156105c057600080fd5b6105c8611375565b604051918252600160a060020a031660208201526040908101905180910390f35b34156105f457600080fd5b610248600160a060020a03600435166113ab565b341561061357600080fd5b6102a16004356113c0565b341561062957600080fd5b6102a16113e8565b341561063c57600080fd5b6102486113f7565b341561064f57600080fd5b610248600160a060020a0360043581169060243516611416565b341561067457600080fd5b61022361151e565b341561068757600080fd5b610223611524565b341561069a57600080fd5b6103ba61152a565b34156106ad57600080fd5b6102d3600435602435611595565b34156106c657600080fd5b610248611680565b34156106d957600080fd5b6102a161170b565b34156106ec57600080fd5b6106f461171a565b60405160208082528190810183818151815260200191508051906020019060200280838360005b8381101561073357808201518382015260200161071b565b505050509050019250505060405180910390f35b341561075257600080fd5b6102236117af565b341561076557600080fd5b6103ba6117b5565b341561077857600080fd5b6102d3600435611820565b341561078e57600080fd5b6102a160046024813581810190830135806020601f82018190048102016040519081016040528181529291906020840183838082843782019150505050505091908035600160a060020a031690602001909190803590602001908201803590602001908080601f01602080910402602001604051908101604052818152929190602084018383808284378201915050505050509190803590602001908201803590602001908080602002602001604051908101604052809392919081815260200183836020028082843782019150505050505091908035906020019082018035906020019080806020026020016040519081016040528093929190818152602001838360200280828437509496505050509135151591506118409050565b34156108b757600080fd5b610223611db9565b34156108ca57600080fd5b6102d3600160a060020a0360043516611dbf565b60115481565b600e5460ff1681565b600d5481565b6001546000908190819033600160a060020a0390811691161461091557600080fd5b61091d611079565b151561092857600080fd5b600160a060020a03841660009081526015602052604090205460ff161515600114156109575760009250610aee565b600254601154600160a060020a0390911692508263dd62ed3e863060006040516020015260405160e060020a63ffffffff8516028152600160a060020a03928316600482015291166024820152604401602060405180830381600087803b15156109c057600080fd5b6102c65a03f115156109d157600080fd5b50505060405180519050101515156109e857600080fd5b81600160a060020a03166323b872dd853060115460006040516020015260405160e060020a63ffffffff8616028152600160a060020a0393841660048201529190921660248201526044810191909152606401602060405180830381600087803b1515610a5457600080fd5b6102c65a03f11515610a6557600080fd5b50505060405180519150508015610aea57600160a060020a0384166000908152601560205260409020805460ff191660019081178255601154918101919091556016805490918101610ab78382611feb565b506000918252602090912001805473ffffffffffffffffffffffffffffffffffffffff1916600160a060020a0386161790555b8092505b5050919050565b600254600160a060020a031681565b60015433600160a060020a0390811691161480610b2f575060005433600160a060020a039081169116145b1515610b3a57600080fd5b600d55565b600054600160a060020a0391821691161490565b600154600160a060020a03165b90565b600b5481565b6009805460009182916000198101908110610b8057fe5b600091825260209091200154600160a060020a0316915081630b2992088460405160e060020a63ffffffff8416028152600160a060020a039091166004820152602401600060405180830381600087803b1515610bdc57600080fd5b6102c65a03f11515610bed57600080fd5b5050507f7a4f6edbca9ed97194ce723e574776da48cb8afcff0d96fb90a4ee76ffef4e5a83604051600160a060020a03909116815260200160405180910390a1600d546009541415610d3957610c416113f7565b1515610c4c57600080fd5b50600e805460ff19169055600154600954600160a060020a039182169182916350912da1913091908790871663f49bff7b6000604051602001526040518163ffffffff1660e060020a028152600401602060405180830381600087803b1515610cb457600080fd5b6102c65a03f11515610cc557600080fd5b5050506040518051905060405160e060020a63ffffffff8716028152600160a060020a0394851660048201526024810193909352921660448201526064810191909152608401600060405180830381600087803b1515610d2457600080fd5b6102c65a03f11515610d3557600080fd5b5050505b505050565b600354600254600d54600954600093600160a060020a039081169316918491829182916001011415610e8a57601054600154909250600160a060020a0380871691637f12d52a911630338660006040516020015260405160e060020a63ffffffff8716028152600160a060020a0394851660048201529284166024840152921660448201526064810191909152608401602060405180830381600087803b1515610de757600080fd5b6102c65a03f11515610df857600080fd5b505050604051805190509250600060108190555083600160a060020a031663a9059cbb848460006040516020015260405160e060020a63ffffffff8516028152600160a060020a0390921660048301526024820152604401602060405180830381600087803b1515610e6957600080fd5b6102c65a03f11515610e7a57600080fd5b5050506040518051905050610fb1565b601054610e9d908863ffffffff611e1e16565b600154909150600160a060020a0380871691637f12d52a911630338b60006040516020015260405160e060020a63ffffffff8716028152600160a060020a0394851660048201529284166024840152921660448201526064810191909152608401602060405180830381600087803b1515610f1757600080fd5b6102c65a03f11515610f2857600080fd5b50505060405180516010839055935050600160a060020a03841663a9059cbb848960006040516020015260405160e060020a63ffffffff8516028152600160a060020a0390921660048301526024820152604401602060405180830381600087803b1515610f9557600080fd5b6102c65a03f11515610fa657600080fd5b505050604051805150505b600160a060020a0383166000908152600a60205260409020805460ff191660019081179091556009805490918101610fe98382611feb565b506000918252602090912001805473ffffffffffffffffffffffffffffffffffffffff1916600160a060020a038516179055509095945050505050565b60085481565b6009547f5fbb3d346317d5ecdb86412d4c69c7503ff4dbed1eccd4cb6290453ea0b1a322906000190182604051918252600160a060020a031660208201526040908101905180910390a150565b600e5460ff1690565b600c5481565b60048054600181600116156101000203166002900480601f01602080910402602001604051908101604052809291908181526020018280546001816001161561010002031660029004801561111e5780601f106110f35761010080835404028352916020019161111e565b820191906000526020600020905b81548152906001019060200180831161110157829003601f168201915b505050505081565b600160a060020a031660009081526015602052604090205460ff1690565b60005433600160a060020a0390811691161461115f57600080fd5b600581805161117292916020019061200f565b5050565b61117e612089565b60058054600181600116156101000203166002900480601f0160208091040260200160405190810160405280929190818152602001828054600181600116156101000203166002900480156112145780601f106111e957610100808354040283529160200191611214565b820191906000526020600020905b8154815290600101906020018083116111f757829003601f168201915b5050505050905090565b60125490565b600354600160a060020a031681565b60005433600160a060020a0390811691161461124e57600080fd5b600481805161117292916020019061200f565b600254600160a060020a033381811660009081526015602052604080822060010154919493909316928492849263a9059cbb928590516020015260405160e060020a63ffffffff8516028152600160a060020a0390921660048301526024820152604401602060405180830381600087803b15156112de57600080fd5b6102c65a03f115156112ef57600080fd5b5050506040518051915050801561132857600160a060020a0333166000908152601560205260408120600190810191909155925061132d565b600092505b505090565b60005433600160a060020a0390811691161461134d57600080fd5b600681805161117292916020019061200f565b600054600160a060020a031690565b60165490565b60098054600091829190600019820182811061138d57fe5b600091825260209091200154909250600160a060020a031690509091565b600a6020526000908152604090205460ff1681565b60098054829081106113ce57fe5b600091825260209091200154600160a060020a0316905081565b600054600160a060020a031681565b6000600c5442101580156114115750600b54600c54014211155b905090565b60015460009033600160a060020a0390811691161461143457600080fd5b600160a060020a0380831660009081526014602090815260408083209387168352929052205460ff16156115145760125461147690600163ffffffff611e1e16565b601255600160a060020a03808316600090815260136020908152604080832060148352818420948816845293909152902060010154815481106114b557fe5b60009182526020808320909101805473ffffffffffffffffffffffffffffffffffffffff19169055600160a060020a038481168352601482526040808420918716845291528120805460ff191681556001908101919091559050611518565b5060005b92915050565b600f5481565b60105481565b60068054600181600116156101000203166002900480601f01602080910402602001604051908101604052809291908181526020018280546001816001161561010002031660029004801561111e5780601f106110f35761010080835404028352916020019161111e565b600980546000919060001981019081106115ab57fe5b600091825260209091200154600160a060020a0316905080635a7d5f50848460405160e060020a63ffffffff851602815260048101929092526024820152604401600060405180830381600087803b151561160557600080fd5b6102c65a03f1151561161657600080fd5b5050600e5460ff161515905061162e5761162e611e30565b600d54600954141561164157428301600c555b6009547f33a701182892fd888ed152ca2ac23771a32e814469b7cd255965471e1af3a659906000190160405190815260200160405180910390a1505050565b600980546000918291600019810190811061169757fe5b6000918252602082200154600160a060020a0316915081906347535d7b90604051602001526040518163ffffffff1660e060020a028152600401602060405180830381600087803b15156116ea57600080fd5b6102c65a03f115156116fb57600080fd5b50505060405180519250505b5090565b600154600160a060020a031681565b611722612089565b61172a612089565b6013600033600160a060020a0316600160a060020a031681526020019081526020016000208054806020026020016040519081016040528092919081815260200182805480156117a357602002820191906000526020600020905b8154600160a060020a03168152600190910190602001808311611785575b50939695505050505050565b60115490565b60058054600181600116156101000203166002900480601f01602080910402602001604051908101604052809291908181526020018280546001816001161561010002031660029004801561111e5780601f106110f35761010080835404028352916020019161111e565b60005433600160a060020a0390811691161461183b57600080fd5b601155565b600160a060020a0333166000908152601560205260408120548190819060ff1680151561186c57600080fd5b6001543390600160a060020a03168063532311c48360006040516020015260405160e060020a63ffffffff8416028152600160a060020a039091166004820152602401602060405180830381600087803b15156118c857600080fd5b6102c65a03f115156118d957600080fd5b5050506040518051905015156118ee57600080fd5b6118f6611079565b151561190157600080fd5b600154600160a060020a0316636a44e43d8c60006040516020015260405160e060020a63ffffffff8416028152600160a060020a039091166004820152602401602060405180830381600087803b151561195a57600080fd5b6102c65a03f1151561196b57600080fd5b5050506040518051955050600160a060020a038516151561198b57600080fd5b60098054600019810190811061199d57fe5b906000526020600020900160009054906101000a9004600160a060020a0316600160a060020a031663f3eda8e88d8d888e8d8f8e60006040516020015260405160e060020a63ffffffff8a16028152600160a060020a0380881660248301528616604482015281151560c482015260e0600482019081529081906064810190608481019060a481019060e4018c818151815260200191508051906020019080838360005b83811015611a59578082015183820152602001611a41565b50505050905090810190601f168015611a865780820380516001836020036101000a031916815260200191505b50858103845289818151815260200191508051906020019080838360005b83811015611abc578082015183820152602001611aa4565b50505050905090810190601f168015611ae95780820380516001836020036101000a031916815260200191505b50858103835288818151815260200191508051906020019060200280838360005b83811015611b22578082015183820152602001611b0a565b50505050905001858103825287818151815260200191508051906020019060200280838360005b83811015611b61578082015183820152602001611b49565b505050509050019b505050505050505050505050602060405180830381600087803b1515611b8e57600080fd5b6102c65a03f11515611b9f57600080fd5b5050506040518051600154909550600160a060020a03169050638c593a8c858a6000604051602001526040518363ffffffff1660e060020a0281526004018083600160a060020a0316600160a060020a0316815260200180602001828103825283818151815260200191508051906020019060200280838360005b83811015611c32578082015183820152602001611c1a565b505050509050019350505050602060405180830381600087803b1515611c5757600080fd5b6102c65a03f11515611c6857600080fd5b50505060405180515050601254611c8690600163ffffffff611fd516565b60125560408051908101604090815260018252600160a060020a033381166000818152601360209081528482205481870152918152601482528381209289168152919052208151815460ff19169015151781556020820151600191820155600160a060020a03331660009081526013602052604090208054909250908101611d0e8382611feb565b506000918252602090912001805473ffffffffffffffffffffffffffffffffffffffff1916600160a060020a03868116919091179091556001541663ab9583d9338660405160e060020a63ffffffff8516028152600160a060020a03928316600482015291166024820152604401600060405180830381600087803b1515611d9557600080fd5b6102c65a03f11515611da657600080fd5b50949d9c50505050505050505050505050565b60075481565b60005433600160a060020a03908116911614611dda57600080fd5b600160a060020a0381161515611def57600080fd5b6000805473ffffffffffffffffffffffffffffffffffffffff1916600160a060020a0392909216919091179055565b600082821115611e2a57fe5b50900390565b600e805460ff1916600190811790915554600054600f54601154600160a060020a03938416938493635490904b9391169130916004916005919060405160e060020a63ffffffff8916028152600160a060020a038088166004830190815290871660248301526084820184905260a4820183905260c06044830190815286546002600019610100600184161502019091160460c4840181905291929091606482019160e4019088908015611f255780601f10611efa57610100808354040283529160200191611f25565b820191906000526020600020905b815481529060010190602001808311611f0857829003601f168201915b5050838103825286546002600019610100600184161502019091160480825260209091019087908015611f995780601f10611f6e57610100808354040283529160200191611f99565b820191906000526020600020905b815481529060010190602001808311611f7c57829003601f168201915b505098505050505050505050600060405180830381600087803b1515611fbe57600080fd5b6102c65a03f11515611fcf57600080fd5b50505050565b600082820183811015611fe457fe5b9392505050565b815481835581811511610d3957600083815260209020610d3991810190830161209b565b828054600181600116156101000203166002900490600052602060002090601f016020900481019282601f1061205057805160ff191683800117855561207d565b8280016001018555821561207d579182015b8281111561207d578251825591602001919060010190612062565b5061170792915061209b565b60206040519081016040526000815290565b610b6091905b8082111561170757600081556001016120a15600a165627a7a72305820e2660d7d1a5079b8b86c52d3f640e0892ef2def251903bb84fd7c5af6473f7570029",
  "source": "pragma solidity ^0.4.18;\n\nimport '../libraries/strings/strings.sol';\nimport '../libraries/math/SafeMath.sol';\nimport '../interfaces/IMatryxPlatform.sol';\nimport '../interfaces/IMatryxTournament.sol';\nimport '../interfaces/factories/IMatryxRoundFactory.sol';\nimport '../interfaces/IMatryxRound.sol';\nimport '../interfaces/IMatryxToken.sol';\nimport './Ownable.sol';\n\n/// @title Tournament - The Matryx tournament.\n/// @author Max Howard - <max@nanome.ai>, Sam Hessenauer - <sam@nanome.ai>\ncontract MatryxTournament is Ownable, IMatryxTournament {\n    using SafeMath for uint256;\n    using strings for *;\n    \n    // TODO: condense and put in structs\n    //Platform identification\n    address public platformAddress;\n    address public matryxTokenAddress;\n    address public matryxRoundFactoryAddress;\n\n    //Tournament identification\n    string public title;\n    bytes public externalAddress;\n    string public discipline;\n\n    // Timing and State\n    uint256 public timeCreated;\n    uint256 public tournamentOpenedTime;\n    address[] public rounds;\n    mapping(address=>bool) public isRound;\n    uint256 public reviewPeriod;\n    uint256 public tournamentClosedTime;\n    uint public maxRounds = 3;\n    bool public tournamentOpen = false;\n\n    // Reward and fee\n    uint256 public Bounty;\n    uint256 public BountyLeft;\n    uint256 public entryFee;\n\n    // address roundDelegate;\n    // bytes4 fnSelector_chooseWinner = bytes4(keccak256(\"chooseWinner(address)\"));\n    // bytes4 fnSelector_createRound = bytes4(keccak256(\"createRound(uint256)\"));\n    // bytes4 fnSelector_startRound = bytes4(keccak256(\"startRound(uint256)\"));\n\n    // TODO: Automatic round creation mechanism\n\n    // Submission tracking\n    uint256 numberOfSubmissions = 0;\n    mapping(address=>address[]) private entrantToSubmissions;\n    mapping(address=>mapping(address=>uint256_optional)) private entrantToSubmissionToSubmissionIndex;\n    mapping(address=>uint256_optional) private addressToIsEntrant;\n    address[] private allEntrants;\n\n    function MatryxTournament(address _platformAddress, address _matryxTokenAddress, address _matryxRoundFactoryAddress, address _owner, string _tournamentTitle, bytes _externalAddress, uint256 _Bounty, uint256 _entryFee, uint256 _reviewPeriod) public {\n        //Clean inputs\n        require(_owner != 0x0);\n        //require(!_tournamentName.toSlice().empty());\n        require(_Bounty > 0);\n        require(_matryxRoundFactoryAddress != 0x0);\n        \n        platformAddress = _platformAddress;\n        matryxTokenAddress = _matryxTokenAddress;\n        matryxRoundFactoryAddress = _matryxRoundFactoryAddress;\n\n        timeCreated = now;\n        // Identification\n        owner = _owner;\n        title = _tournamentTitle;\n        externalAddress = _externalAddress;\n        // Reward and fee\n        Bounty = _Bounty;\n        BountyLeft = _Bounty;\n        entryFee = _entryFee;\n        reviewPeriod = _reviewPeriod;\n\n        // roundDelegate = IMatryxPlatform(platformAddress).getRoundLibAddress();\n    }\n\n    /*\n     * Structs\n     */\n\n    struct uint256_optional\n    {\n        bool exists;\n        uint256 value;\n    }\n\n    struct SubmissionLocation\n    {\n        uint256 roundIndex;\n        uint256 submissionIndex;\n    }\n\n    /*\n     * Events\n     */\n\n    event RoundStarted(uint256 _roundIndex);\n    // Fired at the end of every round, one time per submission created in that round\n    event SubmissionCreated(uint256 _roundIndex, address _submissionAddress);\n    event RoundWinnerChosen(address _submissionAddress);\n\n    /// @dev Allows rounds to invoke SubmissionCreated events on this tournament.\n    /// @param _submissionAddress Address of the submission.\n    function invokeSubmissionCreatedEvent(address _submissionAddress) public\n    {\n        SubmissionCreated(rounds.length-1, _submissionAddress);\n    }\n\n    /*\n     * Modifiers\n     */\n\n    /// @dev Requires the function caller to be the platform.\n    modifier onlyPlatform()\n    {\n        require(msg.sender == platformAddress);\n        _;\n    }\n\n    modifier onlyRound()\n    {\n        require(isRound[msg.sender]);\n        _;\n    }\n\n    modifier onlySubmission(address _submissionAddress, address _author)\n    {\n        // If the submission does not exist,\n        // the address of the submission we return will not be msg.sender\n        // It will either be \n        // 1) The first submission, or\n        // 2) all 0s from having deleted it previously.\n        uint256 indexOfSubmission = entrantToSubmissionToSubmissionIndex[_author][_submissionAddress].value;\n        address submissionAddress = entrantToSubmissions[_author][indexOfSubmission];\n        require(_submissionAddress == msg.sender);\n        _;\n    }\n\n    modifier onlyPeerLinked(address _sender)\n    {\n        IMatryxPlatform platform = IMatryxPlatform(platformAddress);\n        require(platform.hasPeer(_sender));\n        _;\n    }\n\n    /// @dev Requires the function caller to be an entrant.\n    modifier onlyEntrant()\n    {\n        bool senderIsEntrant = addressToIsEntrant[msg.sender].exists;\n        require(senderIsEntrant);\n        _;\n    }\n\n    /// @dev Requires the function caller to be the platform or the owner of this tournament\n    modifier platformOrOwner()\n    {\n        require((msg.sender == platformAddress)||(msg.sender == owner));\n        _;\n    }\n\n    modifier whileTournamentOpen()\n    {\n        require(isOpen());\n        _;\n    }\n\n    // /// @dev Requires the tournament to be open.\n    // modifier duringReviewPeriod()\n    // {\n    //     // TODO: Finish me!\n    //     require(isInReview());\n    //     _;\n    // }\n\n    modifier whileRoundsLeft()\n    {\n        require(rounds.length < maxRounds);\n        _;\n    }\n\n    modifier whileBountyLeft(uint256 _nextRoundBounty)\n    {\n        require(BountyLeft.sub(_nextRoundBounty) >= 0);\n        _;\n    }\n\n    /*\n    * State Maintenance Methods\n    */\n\n    function removeSubmission(address _submissionAddress, address _author) public onlyPlatform returns (bool)\n    {\n        if(entrantToSubmissionToSubmissionIndex[_author][_submissionAddress].exists)\n        {\n            numberOfSubmissions = numberOfSubmissions.sub(1);\n            delete entrantToSubmissions[_author][entrantToSubmissionToSubmissionIndex[_author][_submissionAddress].value];\n            delete entrantToSubmissionToSubmissionIndex[_author][_submissionAddress];\n            return true;\n        }\n\n        return false;\n    }\n\n    /*\n     * Access Control Methods\n     */\n\n    /// @dev Returns whether or not the sender is an entrant in this tournament\n    /// @param _sender Explicit sender address.\n    /// @return Whether or not the sender is an entrant in this tournament.\n    function isEntrant(address _sender) public view returns (bool)\n    {\n        return addressToIsEntrant[_sender].exists;\n    }\n\n    /// @dev Returns true if the tournament is open.\n    /// @return Whether or not the tournament is open.\n    function isOpen() public view returns (bool)\n    {\n        return tournamentOpen;\n    }\n\n    function isInReview() public view returns (bool)\n    {\n        return now >= tournamentClosedTime && now <= tournamentClosedTime + reviewPeriod;\n    }\n\n    /// @dev Returns whether or not a round of this tournament is open.\n    /// @return _roundOpen Whether or not a round is open on this tournament.\n    function roundIsOpen() public constant returns (bool)\n    {\n        IMatryxRound round = IMatryxRound(rounds[rounds.length-1]);\n        return round.isOpen();\n    }\n\n    /*\n     * Getter Methods\n     */\n\n     function getPlatform() public view returns (address _platformAddress)\n     {\n        return platformAddress;\n     }\n\n    /// @dev Returns the external address of the tournament.\n    /// @return _externalAddress Off-chain content hash of tournament details (ipfs hash)\n    function getExternalAddress() public view returns (bytes _externalAddress)\n    {\n        return externalAddress;\n    }\n\n    /// @dev Returns the current round number.\n    /// @return _currentRound Number of the current round.\n    function currentRound() public constant returns (uint256 _currentRound, address _currentRoundAddress)\n    {\n        return (rounds.length, rounds[rounds.length-1]);\n    }\n\n    /// @dev Returns all of the sender's submissions to this tournament.\n    /// @return (_roundIndices[], _submissionIndices[]) Locations of the sender's submissions.\n    function mySubmissions() public view returns (address[])\n    {\n        address[] memory _mySubmissions = entrantToSubmissions[msg.sender];\n        return _mySubmissions;\n    }\n\n    /// @dev Returns the number of submissions made to this tournament.\n    /// @return _submissionCount Number of submissions made to this tournament.\n    function submissionCount() public view returns (uint256 _submissionCount)\n    {\n        return numberOfSubmissions;\n    }\n\n    function entrantCount() public view returns (uint256 _entrantCount)\n    {\n        return allEntrants.length;\n    }\n\n    /*\n     * Setter Methods\n     */\n\n    function setTitle(string _title) public onlyOwner\n    {\n        title = _title;\n    }\n\n    function setExternalAddress(bytes _externalAddress) public onlyOwner\n    {\n        externalAddress = _externalAddress;\n    }\n\n    function setEntryFee(uint256 _entryFee) public onlyOwner\n    {\n        entryFee = _entryFee;\n    }\n\n    /// @dev Set the maximum number of rounds for the tournament.\n    /// @param _newMaxRounds New maximum number of rounds possible for this tournament.\n    function setNumberOfRounds(uint256 _newMaxRounds) public platformOrOwner\n    {\n        maxRounds = _newMaxRounds;\n    }\n\n    function setDiscipline(string _discipline) public onlyOwner\n    {\n        discipline = _discipline;\n    }\n\n    /*\n     * Tournament Admin Methods\n     */\n\n    /// @dev Chooses the winner for the round. If this is the last round, closes the tournament.\n    /// @param _submissionAddress Address of the winning submission\n    function chooseWinner(address _submissionAddress) public\n    {\n        // TODO: Implement popular vote default winner chosen to avoid\n        // locking up MTX in this tournament (would happen if the tournament\n        // poser tried to choose a winner after the review period ended).\n        IMatryxRound round = IMatryxRound(rounds[rounds.length-1]);\n        round.chooseWinningSubmission(_submissionAddress);\n        RoundWinnerChosen(_submissionAddress);\n\n        if(rounds.length == maxRounds)\n        {\n            require(isInReview());\n            tournamentOpen = false;\n\n            IMatryxPlatform platform = IMatryxPlatform(platformAddress);\n            platform.invokeTournamentClosedEvent(this, rounds.length, _submissionAddress, round.getBounty());\n        }\n    }\n\n    /// @dev Creates a new round.\n    /// @return The new round's address.\n    function createRound(uint256 _bountyMTX) public returns (address _roundAddress) \n    {\n        IMatryxRoundFactory roundFactory = IMatryxRoundFactory(matryxRoundFactoryAddress);\n        IMatryxToken matryxToken = IMatryxToken(matryxTokenAddress);\n        address newRoundAddress;\n\n        if(rounds.length+1 == maxRounds)\n        {\n            uint256 lastBounty = BountyLeft;\n            newRoundAddress = roundFactory.createRound(platformAddress, this, msg.sender, BountyLeft);\n            BountyLeft = 0;\n            // Transfer the round bounty to the round.\n            matryxToken.transfer(newRoundAddress, lastBounty);\n        }\n        else\n        {\n            uint256 remainingBountyAfterRoundCreated = BountyLeft.sub(_bountyMTX);\n            newRoundAddress = roundFactory.createRound(platformAddress, this, msg.sender, _bountyMTX);\n            BountyLeft = remainingBountyAfterRoundCreated;\n            // Transfer the round bounty to the round.\n            matryxToken.transfer(newRoundAddress, _bountyMTX);\n        }\n        \n        isRound[newRoundAddress] = true;\n        rounds.push(newRoundAddress);\n        return newRoundAddress;\n    }\n\n    /// @dev Opens this tournament up to submissions; called by startRound.\n    function openTournament() internal\n    {\n        tournamentOpen = true;\n        IMatryxPlatform platform = IMatryxPlatform(platformAddress);\n        platform.invokeTournamentOpenedEvent(owner, this, title, externalAddress, Bounty, entryFee);\n    }\n\n    /// @dev Starts the latest round.\n    /// @param _duration Duration of the round in seconds.\n    function startRound(uint256 _duration, uint256 _reviewPeriod) public\n    {\n        IMatryxRound round = IMatryxRound(rounds[rounds.length-1]);\n        round.Start(_duration, _reviewPeriod);\n        if(!tournamentOpen)\n        {\n            openTournament();\n        }\n\n        if(rounds.length == maxRounds)\n        {\n            tournamentClosedTime = now + _duration;\n        }\n\n        RoundStarted(rounds.length-1);\n    }\n\n    /*\n     * Entrant Methods\n     */\n\n    /// @dev Enters the user into the tournament.\n    /// @param _entrantAddress Address of the user to enter.\n    /// @return success Whether or not the user was entered successfully.\n    function enterUserInTournament(address _entrantAddress) public onlyPlatform whileTournamentOpen returns (bool _success)\n    {\n        if(addressToIsEntrant[_entrantAddress].exists == true)\n        {\n            return false;\n        }\n\n        IMatryxToken matryxToken = IMatryxToken(matryxTokenAddress);\n        require(matryxToken.allowance(_entrantAddress, this) >= entryFee);\n        bool transferSuccess = matryxToken.transferFrom(_entrantAddress, this, entryFee);\n\n        if(transferSuccess)\n        {\n            // Finally, change the tournament's state to reflect the user entering.\n            addressToIsEntrant[_entrantAddress].exists = true;\n            addressToIsEntrant[_entrantAddress].value = entryFee;\n            allEntrants.push(_entrantAddress);\n        }\n\n        return transferSuccess;\n    }\n\n    /// @dev Returns the fee in MTX to be payed by a prospective entrant.\n    /// @return Entry fee for this tournament.\n    function getEntryFee() public view returns (uint256)\n    {\n        return entryFee;\n    }\n\n    function collectEntryFee() public returns (bool)\n    {\n        IMatryxToken matryxToken = IMatryxToken(matryxTokenAddress);\n        bool success = matryxToken.transfer(msg.sender, addressToIsEntrant[msg.sender].value);\n        if(success)\n        {\n            addressToIsEntrant[msg.sender].value = 0;\n            return true;\n        }\n\n        return false;\n    }\n\n    function createSubmission(string _title, address _owner, bytes _externalAddress, address[] _contributors, address[] _references, bool _publicallyAccessible) public onlyEntrant onlyPeerLinked(msg.sender) whileTournamentOpen returns (address _submissionAddress)\n    {\n        // This check is critical for MatryxPeer.\n        address peerAddress = IMatryxPlatform(platformAddress).peerAddress(_owner);\n        require(peerAddress != 0x0);\n\n        address submissionAddress = IMatryxRound(rounds[rounds.length-1]).createSubmission(_title, _owner, peerAddress, _externalAddress, _references, _contributors, _publicallyAccessible);\n        // Send out reference requests to the authors of other submissions\n        IMatryxPlatform(platformAddress).handleReferenceRequestsForSubmission(submissionAddress, _references);\n\n        numberOfSubmissions = numberOfSubmissions.add(1);\n        entrantToSubmissionToSubmissionIndex[msg.sender][submissionAddress] = uint256_optional({exists:true, value:entrantToSubmissions[msg.sender].length});\n        entrantToSubmissions[msg.sender].push(submissionAddress);\n        IMatryxPlatform(platformAddress).updateSubmissions(msg.sender, submissionAddress);\n        \n        return submissionAddress;\n    }\n}",
  "sourcePath": "/Users/maxhoward/Desktop/Ethereum/Development/Matryx AWS/Projects/matryx-alpha-source/contracts/MatryxTournament.sol",
  "compiler": {
    "name": "solc",
    "version": "0.4.19+commit.c4cbbb05.Emscripten.clang"
  },
  "schemaVersion": "2.0.0",
  "updatedAt": "2018-03-27T17:38:32.623Z"
}