{
  "contractName": "MatryxPeerFactory",
  "abi": [
    {
      "constant": true,
      "inputs": [
        {
          "name": "_sender",
          "type": "address"
        }
      ],
      "name": "isOwner",
      "outputs": [
        {
          "name": "_isOwner",
          "type": "bool"
        }
      ],
      "payable": false,
      "stateMutability": "view",
      "type": "function"
    },
    {
      "constant": true,
      "inputs": [],
      "name": "getOwner",
      "outputs": [
        {
          "name": "_owner",
          "type": "address"
        }
      ],
      "payable": false,
      "stateMutability": "view",
      "type": "function"
    },
    {
      "constant": true,
      "inputs": [],
      "name": "owner",
      "outputs": [
        {
          "name": "",
          "type": "address"
        }
      ],
      "payable": false,
      "stateMutability": "view",
      "type": "function"
    },
    {
      "constant": true,
      "inputs": [],
      "name": "platformAddress",
      "outputs": [
        {
          "name": "",
          "type": "address"
        }
      ],
      "payable": false,
      "stateMutability": "view",
      "type": "function"
    },
    {
      "constant": true,
      "inputs": [],
      "name": "peerCount",
      "outputs": [
        {
          "name": "",
          "type": "uint64"
        }
      ],
      "payable": false,
      "stateMutability": "view",
      "type": "function"
    },
    {
      "constant": false,
      "inputs": [
        {
          "name": "newOwner",
          "type": "address"
        }
      ],
      "name": "transferOwnership",
      "outputs": [],
      "payable": false,
      "stateMutability": "nonpayable",
      "type": "function"
    },
    {
      "constant": false,
      "inputs": [
        {
          "name": "_platformAddress",
          "type": "address"
        }
      ],
      "name": "setPlatform",
      "outputs": [],
      "payable": false,
      "stateMutability": "nonpayable",
      "type": "function"
    },
    {
      "constant": false,
      "inputs": [
        {
          "name": "_owner",
          "type": "address"
        }
      ],
      "name": "createPeer",
      "outputs": [
        {
          "name": "_peerAddress",
          "type": "address"
        }
      ],
      "payable": false,
      "stateMutability": "nonpayable",
      "type": "function"
    },
    {
      "constant": true,
      "inputs": [],
      "name": "getTrustForNewPeer",
      "outputs": [
        {
          "name": "",
          "type": "uint128"
        }
      ],
      "payable": false,
      "stateMutability": "view",
      "type": "function"
    },
    {
      "constant": true,
      "inputs": [
        {
          "name": "_input",
          "type": "uint256"
        }
      ],
      "name": "fastSigmoid",
      "outputs": [
        {
          "name": "",
          "type": "uint128"
        }
      ],
      "payable": false,
      "stateMutability": "pure",
      "type": "function"
    }
  ],
  "bytecode": "0x608060405260008054600160a060020a03191633179055612bae806100256000396000f3006080604052600436106100a35763ffffffff7c01000000000000000000000000000000000000000000000000000000006000350416632f54bf6e81146100a857806348bf9577146100ea5780636945c5ea146101415780637fdf816c14610171578063893d20e8146101ab5780638da5cb5b146101c057806395cc1b10146101d5578063dbe55e56146101ed578063e81ea59514610202578063f2fde38b14610234575b600080fd5b3480156100b457600080fd5b506100d673ffffffffffffffffffffffffffffffffffffffff60043516610262565b604080519115158252519081900360200190f35b3480156100f657600080fd5b5061011873ffffffffffffffffffffffffffffffffffffffff60043516610283565b6040805173ffffffffffffffffffffffffffffffffffffffff9092168252519081900360200190f35b34801561014d57600080fd5b5061016f73ffffffffffffffffffffffffffffffffffffffff600435166103a1565b005b34801561017d57600080fd5b5061018661040c565b604080516fffffffffffffffffffffffffffffffff9092168252519081900360200190f35b3480156101b757600080fd5b506101186104c0565b3480156101cc57600080fd5b506101186104dc565b3480156101e157600080fd5b506101866004356104f8565b3480156101f957600080fd5b5061011861056b565b34801561020e57600080fd5b50610217610587565b6040805167ffffffffffffffff9092168252519081900360200190f35b34801561024057600080fd5b5061016f73ffffffffffffffffffffffffffffffffffffffff600435166105af565b60005473ffffffffffffffffffffffffffffffffffffffff91821691161490565b600080600061029061040c565b60015490925073ffffffffffffffffffffffffffffffffffffffff1684836102b6610719565b73ffffffffffffffffffffffffffffffffffffffff93841681529190921660208201526fffffffffffffffffffffffffffffffff9091166040808301919091525190819003606001906000f080158015610314573d6000803e3d6000fd5b50600180549192506103489174010000000000000000000000000000000000000000900467ffffffffffffffff169061063c565b6001805467ffffffffffffffff9290921674010000000000000000000000000000000000000000027fffffffff0000000000000000ffffffffffffffffffffffffffffffffffffffff9092169190911790559392505050565b60005473ffffffffffffffffffffffffffffffffffffffff1633146103c557600080fd5b600180547fffffffffffffffffffffffff00000000000000000000000000000000000000001673ffffffffffffffffffffffffffffffffffffffff92909216919091179055565b60008060008061043e600160149054906101000a900467ffffffffffffffff1660020167ffffffffffffffff166104f8565b925061046c600160149054906101000a900467ffffffffffffffff1660010167ffffffffffffffff166104f8565b91505080820360006fffffffffffffffffffffffffffffffff8216101561049257600080fd5b670de0b6b3a76400006fffffffffffffffffffffffffffffffff821611156104b957600080fd5b9392505050565b60005473ffffffffffffffffffffffffffffffffffffffff1690565b60005473ffffffffffffffffffffffffffffffffffffffff1681565b6000670de0b6b3a7640000671bc16d674ec80000838202610562610522848363ffffffff61063c16565b6105446fffffffffffffffffffffffffffffffff85168463ffffffff61066016565b6fffffffffffffffffffffffffffffffff169063ffffffff6106de16565b95945050505050565b60015473ffffffffffffffffffffffffffffffffffffffff1681565b60015474010000000000000000000000000000000000000000900467ffffffffffffffff1681565b60005473ffffffffffffffffffffffffffffffffffffffff1633146105d357600080fd5b73ffffffffffffffffffffffffffffffffffffffff811615156105f557600080fd5b600080547fffffffffffffffffffffffff00000000000000000000000000000000000000001673ffffffffffffffffffffffffffffffffffffffff92909216919091179055565b60008282016fffffffffffffffffffffffffffffffff80851690821610156104b957fe5b60008282026fffffffffffffffffffffffffffffffff841615806106d65750826fffffffffffffffffffffffffffffffff16846fffffffffffffffffffffffffffffffff16826fffffffffffffffffffffffffffffffff168115156106c157fe5b046fffffffffffffffffffffffffffffffff16145b15156104b957fe5b600080826fffffffffffffffffffffffffffffffff16846fffffffffffffffffffffffffffffffff1681151561071057fe5b04949350505050565b6040516124598061072a8339019056006080604052600180546001608060020a031916670de0b6b3a764000017905534801561002a57600080fd5b506040516060806124598339810160409081528151602083015191909201516000805460028054600160a060020a03968716600160a060020a03199182161790915594909316928416331790931691909117909155600380546001608060020a039092166001608060020a03199092169190911790556123aa806100af6000396000f3006080604052600436106100fb5763ffffffff7c0100000000000000000000000000000000000000000000000000000000600035041663268c7dcb81146101005780632f54bf6e146101365780634073996a1461017857806341a83f95146101b85780636a7940c9146101ec578063889b268714610249578063893d20e81461025e5780638da5cb5b1461029c57806397c22c24146102b1578063a1cc4ac1146102e5578063b6c3d15b14610319578063bc46576514610349578063c464e29414610379578063d1bbd312146103ad578063d528ff4e146103e1578063f2fde38b1461040f578063fa6daea71461043d578063ffe6a18e14610490575b600080fd5b34801561010c57600080fd5b5061013473ffffffffffffffffffffffffffffffffffffffff600435811690602435166104a5565b005b34801561014257600080fd5b5061016473ffffffffffffffffffffffffffffffffffffffff60043516610814565b604080519115158252519081900360200190f35b34801561018457600080fd5b506101a673ffffffffffffffffffffffffffffffffffffffff60043516610835565b60408051918252519081900360200190f35b3480156101c457600080fd5b5061016473ffffffffffffffffffffffffffffffffffffffff60043581169060243516610873565b3480156101f857600080fd5b5061021a73ffffffffffffffffffffffffffffffffffffffff60043516610c80565b604080516fffffffffffffffffffffffffffffffff938416815291909216602082015281519081900390910190f35b34801561025557600080fd5b506101a6610cda565b34801561026a57600080fd5b50610273610ce0565b6040805173ffffffffffffffffffffffffffffffffffffffff9092168252519081900360200190f35b3480156102a857600080fd5b50610273610cfc565b3480156102bd57600080fd5b5061013473ffffffffffffffffffffffffffffffffffffffff60043581169060243516610d18565b3480156102f157600080fd5b5061013473ffffffffffffffffffffffffffffffffffffffff60043581169060243516611033565b34801561032557600080fd5b506101346fffffffffffffffffffffffffffffffff60043581169060243516611155565b34801561035557600080fd5b506101646fffffffffffffffffffffffffffffffff600435811690602435166114bf565b34801561038557600080fd5b5061013473ffffffffffffffffffffffffffffffffffffffff60043581169060243516611884565b3480156103b957600080fd5b5061013473ffffffffffffffffffffffffffffffffffffffff60043581169060243516611b95565b3480156103ed57600080fd5b5061021a73ffffffffffffffffffffffffffffffffffffffff60043516611c5a565b34801561041b57600080fd5b5061013473ffffffffffffffffffffffffffffffffffffffff60043516611ca0565b34801561044957600080fd5b5061046b73ffffffffffffffffffffffffffffffffffffffff60043516611d2d565b604080516fffffffffffffffffffffffffffffffff9092168252519081900360200190f35b34801561049c57600080fd5b5061046b611e4c565b600080548190849073ffffffffffffffffffffffffffffffffffffffff163314806104e557503373ffffffffffffffffffffffffffffffffffffffff8216145b15156104f057600080fd5b600254604080517f818b5fa800000000000000000000000000000000000000000000000000000000815273ffffffffffffffffffffffffffffffffffffffff8089166004830152915188939290921691829163818b5fa89160248083019260209291908290030181600087803b15801561056957600080fd5b505af115801561057d573d6000803e3d6000fd5b505050506040513d602081101561059357600080fd5b505115156105a057600080fd5b600254604080517f818b5fa800000000000000000000000000000000000000000000000000000000815273ffffffffffffffffffffffffffffffffffffffff808a166004830152915189939290921691829163818b5fa89160248083019260209291908290030181600087803b15801561061957600080fd5b505af115801561062d573d6000803e3d6000fd5b505050506040513d602081101561064357600080fd5b5051151561065057600080fd5b73ffffffffffffffffffffffffffffffffffffffff89166000908152600e60205260409020546106a79070010000000000000000000000000000000090046fffffffffffffffffffffffffffffffff166001611e64565b73ffffffffffffffffffffffffffffffffffffffff808b166000818152600e602052604080822080546fffffffffffffffffffffffffffffffff9687167001000000000000000000000000000000000296169590951790945583517f0cbfdb2d000000000000000000000000000000000000000000000000000000008152928c16600484015292518c9a509092630cbfdb2d926024808201939182900301818387803b15801561075657600080fd5b505af115801561076a573d6000803e3d6000fd5b505050508673ffffffffffffffffffffffffffffffffffffffff1663a5faa1256040518163ffffffff167c0100000000000000000000000000000000000000000000000000000000028152600401602060405180830381600087803b1580156107d257600080fd5b505af11580156107e6573d6000803e3d6000fd5b505050506040513d60208110156107fc57600080fd5b5051955061080986611e8b565b505050505050505050565b60005473ffffffffffffffffffffffffffffffffffffffff91821691161490565b73ffffffffffffffffffffffffffffffffffffffff81166000908152600960205260409020546fffffffffffffffffffffffffffffffff165b919050565b600080548190819073ffffffffffffffffffffffffffffffffffffffff16331461089c57600080fd5b836000808291508173ffffffffffffffffffffffffffffffffffffffff1663893d20e86040518163ffffffff167c0100000000000000000000000000000000000000000000000000000000028152600401602060405180830381600087803b15801561090757600080fd5b505af115801561091b573d6000803e3d6000fd5b505050506040513d602081101561093157600080fd5b5051905073ffffffffffffffffffffffffffffffffffffffff8116331461095757600080fd5b600254604080517f818b5fa800000000000000000000000000000000000000000000000000000000815273ffffffffffffffffffffffffffffffffffffffff808c16600483015291518b939290921691829163818b5fa89160248083019260209291908290030181600087803b1580156109d057600080fd5b505af11580156109e4573d6000803e3d6000fd5b505050506040513d60208110156109fa57600080fd5b50511515610a0757600080fd5b600254604080517f818b5fa800000000000000000000000000000000000000000000000000000000815273ffffffffffffffffffffffffffffffffffffffff808d16600483015291518c939290921691829163818b5fa89160248083019260209291908290030181600087803b158015610a8057600080fd5b505af1158015610a94573d6000803e3d6000fd5b505050506040513d6020811015610aaa57600080fd5b50511515610ab757600080fd5b73ffffffffffffffffffffffffffffffffffffffff8c166000908152600e6020526040902054610b0e9070010000000000000000000000000000000090046fffffffffffffffffffffffffffffffff166001612055565b73ffffffffffffffffffffffffffffffffffffffff808e166000818152600e602052604080822080546fffffffffffffffffffffffffffffffff9687167001000000000000000000000000000000000296169590951790945583517f32c9c9d3000000000000000000000000000000000000000000000000000000008152928f16600484015292518f9c5090926332c9c9d3926024808201939182900301818387803b158015610bbd57600080fd5b505af1158015610bd1573d6000803e3d6000fd5b505050508873ffffffffffffffffffffffffffffffffffffffff1663a5faa1256040518163ffffffff167c0100000000000000000000000000000000000000000000000000000000028152600401602060405180830381600087803b158015610c3957600080fd5b505af1158015610c4d573d6000803e3d6000fd5b505050506040513d6020811015610c6357600080fd5b50519750610c7088612080565b9c9b505050505050505050505050565b73ffffffffffffffffffffffffffffffffffffffff166000908152600e6020526040902080546001909101546fffffffffffffffffffffffffffffffff700100000000000000000000000000000000909204821692911690565b60055490565b60005473ffffffffffffffffffffffffffffffffffffffff1690565b60005473ffffffffffffffffffffffffffffffffffffffff1681565b600254604080517f818b5fa800000000000000000000000000000000000000000000000000000000815273ffffffffffffffffffffffffffffffffffffffff8086166004830152915160009384938793911691829163818b5fa891602480830192602092919082900301818987803b158015610d9357600080fd5b505af1158015610da7573d6000803e3d6000fd5b505050506040513d6020811015610dbd57600080fd5b50511515610dca57600080fd5b600254604080517f818b5fa800000000000000000000000000000000000000000000000000000000815273ffffffffffffffffffffffffffffffffffffffff8089166004830152915188939290921691829163818b5fa89160248083019260209291908290030181600087803b158015610e4357600080fd5b505af1158015610e57573d6000803e3d6000fd5b505050506040513d6020811015610e6d57600080fd5b50511515610e7a57600080fd5b60015473ffffffffffffffffffffffffffffffffffffffff89166000908152600e6020526040902054610ec8916fffffffffffffffffffffffffffffffff918216911663ffffffff61205516565b73ffffffffffffffffffffffffffffffffffffffff8981166000818152600e602052604080822080546fffffffffffffffffffffffffffffffff19166fffffffffffffffffffffffffffffffff969096169590951790945583517fe7139ec0000000000000000000000000000000000000000000000000000000008152928b16600484015292518b9950909263e7139ec0926024808201939182900301818387803b158015610f7657600080fd5b505af1158015610f8a573d6000803e3d6000fd5b505050508573ffffffffffffffffffffffffffffffffffffffff1663a5faa1256040518163ffffffff167c0100000000000000000000000000000000000000000000000000000000028152600401602060405180830381600087803b158015610ff257600080fd5b505af1158015611006573d6000803e3d6000fd5b505050506040513d602081101561101c57600080fd5b5051945061102985611e8b565b5050505050505050565b60025473ffffffffffffffffffffffffffffffffffffffff16331461105757600080fd5b6040805173ffffffffffffffffffffffffffffffffffffffff80851682528316602082015281517f46f6444d987f5ebdf7eae0dc34572eb3119b434c84f3292d85b161737c4ec22f929181900390910190a173ffffffffffffffffffffffffffffffffffffffff82166000908152600e602052604090206001908101546110f8916fffffffffffffffffffffffffffffffff9091169063ffffffff611e6416565b73ffffffffffffffffffffffffffffffffffffffff929092166000908152600e6020526040902060010180546fffffffffffffffffffffffffffffffff19166fffffffffffffffffffffffffffffffff9093169290921790915550565b6000803330141561116557600080fd5b60005473ffffffffffffffffffffffffffffffffffffffff1633141561118a57600080fd5b600254604080517f3e44cf78000000000000000000000000000000000000000000000000000000008152336004820152905173ffffffffffffffffffffffffffffffffffffffff909216918291633e44cf789160248083019260209291908290030181600087803b1580156111fe57600080fd5b505af1158015611212573d6000803e3d6000fd5b505050506040513d602081101561122857600080fd5b5051151561123557600080fd5b336000908152600a602052604090205460ff16156112bc5733600090815260096020526040902054600354611285916fffffffffffffffffffffffffffffffff918216911663ffffffff611e6416565b600380546fffffffffffffffffffffffffffffffff19166fffffffffffffffffffffffffffffffff9290921691909117905561134f565b336000818152600a6020526040812080547fffffffffffffffffffffffffffffffffffffffffffffffffffffffffffffff00166001908117909155600b805491820181559091527f0175b7a638427703f0dbe7bb9bbf987a2551717b34e79f33b5b1008d1fa01db90180547fffffffffffffffffffffffff00000000000000000000000000000000000000001690911790555b60015433600090815260076020526040902054611387916fffffffffffffffffffffffffffffffff918216911663ffffffff61205516565b33600090815260076020818152604080842080546fffffffffffffffffffffffffffffffff199081166fffffffffffffffffffffffffffffffff978816178255600884529190942080549091168a861617905552546113e79116866122c5565b925061140b6fffffffffffffffffffffffffffffffff84168563ffffffff61230016565b600154909250611436906fffffffffffffffffffffffffffffffff808516911663ffffffff6122c516565b33600090815260096020526040902080546fffffffffffffffffffffffffffffffff19166fffffffffffffffffffffffffffffffff83811691909117909155600354919350611486911683612055565b600380546fffffffffffffffffffffffffffffffff19166fffffffffffffffffffffffffffffffff929092169190911790555050505050565b60008080333014156114d057600080fd5b60005473ffffffffffffffffffffffffffffffffffffffff163314156114f557600080fd5b600254604080517f3e44cf78000000000000000000000000000000000000000000000000000000008152336004820152905173ffffffffffffffffffffffffffffffffffffffff909216918291633e44cf789160248083019260209291908290030181600087803b15801561156957600080fd5b505af115801561157d573d6000803e3d6000fd5b505050506040513d602081101561159357600080fd5b505115156115a057600080fd5b336000908152600a602052604090205460ff161561162757336000908152600960205260409020546003546115f0916fffffffffffffffffffffffffffffffff918216911663ffffffff611e6416565b600380546fffffffffffffffffffffffffffffffff19166fffffffffffffffffffffffffffffffff929092169190911790556116ba565b336000818152600a6020526040812080547fffffffffffffffffffffffffffffffffffffffffffffffffffffffffffffff00166001908117909155600b805491820181559091527f0175b7a638427703f0dbe7bb9bbf987a2551717b34e79f33b5b1008d1fa01db90180547fffffffffffffffffffffffff00000000000000000000000000000000000000001690911790555b600154336000908152600760205260409020546fffffffffffffffffffffffffffffffff918216911610806116ff57506fffffffffffffffffffffffffffffffff8616155b1561170d576000935061187b565b60015433600090815260076020526040902054611745916fffffffffffffffffffffffffffffffff918216911663ffffffff611e6416565b33600090815260076020818152604080842080546fffffffffffffffffffffffffffffffff199081166fffffffffffffffffffffffffffffffff978816178255600884529190942080549091168b861617905552546117a59116876122c5565b92506117c96fffffffffffffffffffffffffffffffff84168663ffffffff61230016565b6001549092506117f4906fffffffffffffffffffffffffffffffff808516911663ffffffff6122c516565b33600090815260096020526040902080546fffffffffffffffffffffffffffffffff19166fffffffffffffffffffffffffffffffff83811691909117909155600354919350611844911683612055565b600380546fffffffffffffffffffffffffffffffff19166fffffffffffffffffffffffffffffffff92909216919091179055600193505b50505092915050565b600254604080517f818b5fa800000000000000000000000000000000000000000000000000000000815273ffffffffffffffffffffffffffffffffffffffff8086166004830152915160009384938793911691829163818b5fa891602480830192602092919082900301818987803b1580156118ff57600080fd5b505af1158015611913573d6000803e3d6000fd5b505050506040513d602081101561192957600080fd5b5051151561193657600080fd5b600254604080517f818b5fa800000000000000000000000000000000000000000000000000000000815273ffffffffffffffffffffffffffffffffffffffff8089166004830152915188939290921691829163818b5fa89160248083019260209291908290030181600087803b1580156119af57600080fd5b505af11580156119c3573d6000803e3d6000fd5b505050506040513d60208110156119d957600080fd5b505115156119e657600080fd5b60015473ffffffffffffffffffffffffffffffffffffffff89166000908152600e6020526040902054611a34916fffffffffffffffffffffffffffffffff918216911663ffffffff611e6416565b73ffffffffffffffffffffffffffffffffffffffff8981166000818152600e602052604080822080546fffffffffffffffffffffffffffffffff19166fffffffffffffffffffffffffffffffff969096169590951790945583517fe4e3e83a000000000000000000000000000000000000000000000000000000008152928b16600484015292518b9950909263e4e3e83a926024808201939182900301818387803b158015611ae257600080fd5b505af1158015611af6573d6000803e3d6000fd5b505050508573ffffffffffffffffffffffffffffffffffffffff1663a5faa1256040518163ffffffff167c0100000000000000000000000000000000000000000000000000000000028152600401602060405180830381600087803b158015611b5e57600080fd5b505af1158015611b72573d6000803e3d6000fd5b505050506040513d6020811015611b8857600080fd5b5051945061080985612080565b60025473ffffffffffffffffffffffffffffffffffffffff163314611bb957600080fd5b6040805173ffffffffffffffffffffffffffffffffffffffff80851682528316602082015281517f033c34e967f60202eea9737daab3184556afeb5429022244146f7927782f4298929181900390910190a173ffffffffffffffffffffffffffffffffffffffff82166000908152600e602052604090206001908101546110f8916fffffffffffffffffffffffffffffffff9091169063ffffffff61205516565b73ffffffffffffffffffffffffffffffffffffffff166000908152600e6020526040902080546001909101546fffffffffffffffffffffffffffffffff91821692911690565b60005473ffffffffffffffffffffffffffffffffffffffff163314611cc457600080fd5b73ffffffffffffffffffffffffffffffffffffffff81161515611ce657600080fd5b600080547fffffffffffffffffffffffff00000000000000000000000000000000000000001673ffffffffffffffffffffffffffffffffffffffff92909216919091179055565b73ffffffffffffffffffffffffffffffffffffffff81166000908152600e6020526040812080546001909101546fffffffffffffffffffffffffffffffff908116700100000000000000000000000000000000909204811691909101161515611d985750600061086e565b73ffffffffffffffffffffffffffffffffffffffff82166000908152600e602052604090208054600190910154611e4691611e02916fffffffffffffffffffffffffffffffff9081169170010000000000000000000000000000000090041663ffffffff61205516565b73ffffffffffffffffffffffffffffffffffffffff84166000908152600e60205260409020546fffffffffffffffffffffffffffffffff169063ffffffff6122c516565b92915050565b6003546fffffffffffffffffffffffffffffffff1690565b60006fffffffffffffffffffffffffffffffff8084169083161115611e8557fe5b50900390565b60015473ffffffffffffffffffffffffffffffffffffffff8216600090815260046020526040902054611ed9916fffffffffffffffffffffffffffffffff918216911663ffffffff61205516565b73ffffffffffffffffffffffffffffffffffffffff8216600090815260046020526040902080546fffffffffffffffffffffffffffffffff19166fffffffffffffffffffffffffffffffff928316179055600654611f3991166001612055565b600680546fffffffffffffffffffffffffffffffff19166fffffffffffffffffffffffffffffffff9283161781556005805460018101825560009182527f036b6384b5eca791c62761152d0c79bb0604c104a5fb6f4eb0703f3154bb3db00180547fffffffffffffffffffffffff00000000000000000000000000000000000000001673ffffffffffffffffffffffffffffffffffffffff86169081179091559154600354604080517fb6c3d15b0000000000000000000000000000000000000000000000000000000081529286166004840152941660248201529251919263b6c3d15b926044808301939282900301818387803b15801561203a57600080fd5b505af115801561204e573d6000803e3d6000fd5b5050505050565b60008282016fffffffffffffffffffffffffffffffff808516908216101561207957fe5b9392505050565b60015473ffffffffffffffffffffffffffffffffffffffff821660009081526004602052604081205490916fffffffffffffffffffffffffffffffff9081169116106121a75760015473ffffffffffffffffffffffffffffffffffffffff8316600090815260046020526040902054612114916fffffffffffffffffffffffffffffffff918216911663ffffffff611e6416565b73ffffffffffffffffffffffffffffffffffffffff8316600090815260046020526040902080546fffffffffffffffffffffffffffffffff19166fffffffffffffffffffffffffffffffff92831617905560065461217491166001611e64565b600680546fffffffffffffffffffffffffffffffff19166fffffffffffffffffffffffffffffffff929092169190911790555b6005805460018101825560009182527f036b6384b5eca791c62761152d0c79bb0604c104a5fb6f4eb0703f3154bb3db00180547fffffffffffffffffffffffff00000000000000000000000000000000000000001673ffffffffffffffffffffffffffffffffffffffff8516908117909155600654600354604080517fbc4657650000000000000000000000000000000000000000000000000000000081526fffffffffffffffffffffffffffffffff938416600482015292909116602483015251919263bc465765926044808401936020939083900390910190829087803b15801561229357600080fd5b505af11580156122a7573d6000803e3d6000fd5b505050506040513d60208110156122bd57600080fd5b505192915050565b600080826fffffffffffffffffffffffffffffffff16846fffffffffffffffffffffffffffffffff168115156122f757fe5b04949350505050565b60008282026fffffffffffffffffffffffffffffffff841615806123765750826fffffffffffffffffffffffffffffffff16846fffffffffffffffffffffffffffffffff16826fffffffffffffffffffffffffffffffff1681151561236157fe5b046fffffffffffffffffffffffffffffffff16145b151561207957fe00a165627a7a7230582078a71beb4f0a291e9cfc8dfe0e73699e0b1b24b968153ceecc497a4d2cd3b0930029a165627a7a72305820ab8768f041d9251470bc838ef6bac3c1e15bfe1b07a4f73dbfdff591e7a470460029",
  "source": "pragma solidity ^0.4.18;\n\nimport '../MatryxPeer.sol';\nimport '../../libraries/math/SafeMath128.sol';\n\ncontract MatryxPeerFactory is Ownable {\n\tusing SafeMath128 for uint128;\n\n\taddress public platformAddress;\n\tuint64 public peerCount;\n\n\tfunction setPlatform(address _platformAddress) public onlyOwner\n\t{\n\t\tplatformAddress = _platformAddress;\n\t}\n\n\tfunction createPeer(address _owner) public returns (address _peerAddress) {\n\t\tuint128 trust = getTrustForNewPeer();\n\t\tMatryxPeer peerAddress = new MatryxPeer(platformAddress, _owner, trust);\n\t\tpeerCount  = uint64(uint128(peerCount).add(1));\n\t\treturn peerAddress;\n\t}\n\n\tfunction getTrustForNewPeer() public constant returns (uint128)\n\t{\n\t\tuint128 integralTopValue = fastSigmoid(peerCount+2);\n\t\tuint128 integralBottomValue = fastSigmoid(peerCount+1);\n\t\tuint128 trustValue = integralTopValue - integralBottomValue;\n\t\trequire(trustValue >= 0);\n\t\trequire(trustValue <= 1*10**18);\n\n\t\treturn trustValue;\n\t}\n\n\tfunction fastSigmoid(uint256 _input) public pure returns (uint128)\n\t{\n\t\tuint128 one = 1 * 10**18;\n\t\tuint128 two = 2 * 10**18;\n\t\tuint128 inputWithDecimals = uint128(_input) * 10**18;\n\n\t\treturn (two.mul(inputWithDecimals)).div(one.add(inputWithDecimals));\n\t}\n}",
  "sourcePath": "/Users/maxhoward/Desktop/Ethereum/Development/Matryx/Projects/MatryxPlatform/contracts/factories/MatryxPeerFactory.sol",
  "compiler": {
    "name": "solc",
    "version": "0.4.24+commit.e67f0147.Emscripten.clang"
  },
  "schemaVersion": "2.0.0",
  "updatedAt": "2018-06-20T21:38:30.393Z"
}