{
  "contractName": "MatryxOracleMessenger",
  "abi": [
    {
      "constant": true,
      "inputs": [
        {
          "name": "_sender",
          "type": "address"
        }
      ],
      "name": "isOwner",
      "outputs": [
        {
          "name": "_isOwner",
          "type": "bool"
        }
      ],
      "payable": false,
      "stateMutability": "view",
      "type": "function"
    },
    {
      "constant": true,
      "inputs": [],
      "name": "getOwner",
      "outputs": [
        {
          "name": "_owner",
          "type": "address"
        }
      ],
      "payable": false,
      "stateMutability": "view",
      "type": "function"
    },
    {
      "constant": true,
      "inputs": [],
      "name": "owner",
      "outputs": [
        {
          "name": "",
          "type": "address"
        }
      ],
      "payable": false,
      "stateMutability": "view",
      "type": "function"
    },
    {
      "constant": false,
      "inputs": [
        {
          "name": "newOwner",
          "type": "address"
        }
      ],
      "name": "transferOwnership",
      "outputs": [],
      "payable": false,
      "stateMutability": "nonpayable",
      "type": "function"
    },
    {
      "anonymous": false,
      "inputs": [
        {
          "indexed": false,
          "name": "id",
          "type": "uint256"
        },
        {
          "indexed": false,
          "name": "sender",
          "type": "address"
        }
      ],
      "name": "QueryPerformed",
      "type": "event"
    },
    {
      "anonymous": false,
      "inputs": [
        {
          "indexed": false,
          "name": "storedResponse",
          "type": "uint256"
        }
      ],
      "name": "StoredResponse",
      "type": "event"
    },
    {
      "anonymous": false,
      "inputs": [
        {
          "indexed": false,
          "name": "response",
          "type": "uint256"
        }
      ],
      "name": "ObtainedResponse",
      "type": "event"
    },
    {
      "anonymous": false,
      "inputs": [
        {
          "indexed": false,
          "name": "newResponse",
          "type": "uint256"
        },
        {
          "indexed": false,
          "name": "oldResponse",
          "type": "uint256"
        }
      ],
      "name": "FailedToStore",
      "type": "event"
    },
    {
      "anonymous": false,
      "inputs": [
        {
          "indexed": false,
          "name": "id",
          "type": "uint256"
        }
      ],
      "name": "QueryID",
      "type": "event"
    },
    {
      "constant": false,
      "inputs": [
        {
          "name": "_query",
          "type": "bytes32"
        },
        {
          "name": "_sender",
          "type": "address"
        }
      ],
      "name": "Query",
      "outputs": [],
      "payable": false,
      "stateMutability": "nonpayable",
      "type": "function"
    },
    {
      "constant": false,
      "inputs": [
        {
          "name": "_queryID",
          "type": "uint256"
        },
        {
          "name": "_response",
          "type": "uint256"
        }
      ],
      "name": "storeQueryResponse",
      "outputs": [
        {
          "name": "success",
          "type": "bool"
        }
      ],
      "payable": false,
      "stateMutability": "nonpayable",
      "type": "function"
    }
  ],
  "bytecode": "0x606060405260008054600160a060020a033316600160a060020a031990911617905561076f806100306000396000f3006060604052600436106100775763ffffffff7c01000000000000000000000000000000000000000000000000000000006000350416632f54bf6e811461007c578063893d20e8146100bc5780638b72062a146100f85780638da5cb5b14610111578063d4a0182014610124578063f2fde38b14610155575b600080fd5b341561008757600080fd5b6100a873ffffffffffffffffffffffffffffffffffffffff60043516610181565b604051901515815260200160405180910390f35b34156100c757600080fd5b6100cf6101a2565b60405173ffffffffffffffffffffffffffffffffffffffff909116815260200160405180910390f35b341561010357600080fd5b6100a86004356024356101be565b341561011c57600080fd5b6100cf610304565b341561012f57600080fd5b61015360043573ffffffffffffffffffffffffffffffffffffffff60243516610320565b005b341561016057600080fd5b61015373ffffffffffffffffffffffffffffffffffffffff60043516610528565b60005473ffffffffffffffffffffffffffffffffffffffff91821691161490565b60005473ffffffffffffffffffffffffffffffffffffffff1690565b60008054819081903373ffffffffffffffffffffffffffffffffffffffff9081169116146101eb57600080fd5b505073ffffffffffffffffffffffffffffffffffffffff3316600090815260026020908152604080832054808452600390925282205490918411801561022f575080155b156102aa5773ffffffffffffffffffffffffffffffffffffffff331660009081526002602090815260408083208890558783526003909152908190208590557fae8527266ba82a48a206c6cbaa4634e0d5e70b8c6017ac015e19fa75664d55789085905190815260200160405180910390a1600192506102fc565b7fe0ecffc2c891b346f2eeb89101dba4c5748fb0f27fd023b97cdcac60c0a1585c84600360008881526020019081526020016000205460405191825260208201526040908101905180910390a1600092505b505092915050565b60005473ffffffffffffffffffffffffffffffffffffffff1681565b73ffffffffffffffffffffffffffffffffffffffff8082166000908152600160205260408120549091829116819011156103835773ffffffffffffffffffffffffffffffffffffffff808416600090815260016020526040902054169150610415565b8261038c6105b9565b73ffffffffffffffffffffffffffffffffffffffff9091168152602001604051809103906000f08015156103bf57600080fd5b73ffffffffffffffffffffffffffffffffffffffff848116600090815260016020526040902080547fffffffffffffffffffffffff00000000000000000000000000000000000000001691831691909117905591505b8173ffffffffffffffffffffffffffffffffffffffff166372de26dd856000604051602001526040517c010000000000000000000000000000000000000000000000000000000063ffffffff84160281526004810191909152602401602060405180830381600087803b151561048a57600080fd5b6102c65a03f1151561049b57600080fd5b505050604051805173ffffffffffffffffffffffffffffffffffffffff8516600090815260026020526040908190208290559092507f1c16af450a72e7153ed6faee28677e32f11936f8ab2e63322d032d1f753b5aea9150829085905191825273ffffffffffffffffffffffffffffffffffffffff1660208201526040908101905180910390a150505050565b6000543373ffffffffffffffffffffffffffffffffffffffff90811691161461055057600080fd5b73ffffffffffffffffffffffffffffffffffffffff8116151561057257600080fd5b600080547fffffffffffffffffffffffff00000000000000000000000000000000000000001673ffffffffffffffffffffffffffffffffffffffff92909216919091179055565b60405161017a806105ca8339019056006060604052341561000f57600080fd5b60405160208061017a8339810160405280805160008054600160a060020a03338116600160a060020a03199283161790925560018054929093169116179055505061011b8061005f6000396000f300606060405260043610603e5763ffffffff7c010000000000000000000000000000000000000000000000000000000060003504166372de26dd81146043575b600080fd5b3415604d57600080fd5b60566004356068565b60405190815260200160405180910390f35b600080543373ffffffffffffffffffffffffffffffffffffffff908116911614609057600080fd5b43428333604051938452602084019290925260408084019190915273ffffffffffffffffffffffffffffffffffffffff9091166c01000000000000000000000000026060830152607490910190519081900390206002819055929150505600a165627a7a723058201867499e199565489dab73469ee8ea7bece5f22d2afd6cd80d0812559bf3c53f0029a165627a7a72305820c8b4c68fded2e63893c6f85095f9ef106c1c19037d110d0007a88649eeb91ac00029",
  "source": "pragma solidity ^0.4.18;\n\nimport \"./Ownable.sol\";\nimport \"./MatryxQueryEncrypter.sol\";\n\n/// @title MatryxOracleMessenger - An oracle system for validating MTX balances on mainnet.\n/// @author Max Howard - <max@nanome.ai>\ncontract MatryxOracleMessenger is Ownable {\n\n  // An event to let our node know that a new query has been performed.\n  event QueryPerformed(uint256 id, address sender);\n\n  event StoredResponse(uint256 storedResponse);\n  event ObtainedResponse(uint256 response);\n  event FailedToStore(uint256 newResponse, uint256 oldResponse);\n  event QueryID(uint256 id);\n\n  // Map from user addresses to MatryxQueryEncrypters. We assume each user only\n  // sends one query at a time.\n  mapping(address => MatryxQueryEncrypter) internal queryEncrypters;\n  // Map from user addresses (queriers) to QueryIDs. We assume each user only\n  // makes one query at a time.\n  mapping(address => uint256) internal fromQuerierToQueryID;\n  // Map from QueryIDs to responses (bytes32)\n  mapping(uint256 => uint256) internal queryResponses;\n\n  /// @dev Gets the latest response from the oracle (internal).\n  /// @param _sender Address of sender who we wish to receive the oracle response for.\n  /// @return _response Response from the oracle (an MTX balance).\n  function latestResponseFromOracle(address _sender) internal view returns (uint256 _response)\n  {\n        uint256 queryID = fromQuerierToQueryID[_sender];\n        uint256 response = queryResponses[queryID];\n        return response;\n  }\n\n  /// @dev Uses [the user's existing]/[a new] QueryResolver,\n  //       depending on whether or not the user has submitted a query before.\n  // @param _query Bytes representing the query.\n  // @param _sender Sender of the query (ie user checking their balance).\n  // @return queryID for the Oracle to use in storing their response.\n  function Query(bytes32 _query, address _sender) external {\n    MatryxQueryEncrypter encrypter;\n    // If there's already a queryResolver for this user\n    if(address(queryEncrypters[_sender]) > 0x0)\n    {\n        // Use that one.\n        encrypter = queryEncrypters[_sender];\n    }\n    else\n    {\n        // Otherwise, create a new one and assign it.\n        encrypter = new MatryxQueryEncrypter(_sender);\n        queryEncrypters[_sender] = encrypter;\n    }\n\n    // Get the queryID from the MatryxQueryEncrypter.\n    uint256 queryID = encrypter.generateQueryID(_query);\n    // Store that id under the sender's (querier's) address.\n    fromQuerierToQueryID[_sender] = queryID;\n\n    // Let our Alpha Matryx server know that a query has been performed!\n    QueryPerformed(queryID, _sender);\n  }\n\n  /// @dev Stores a query response (Only to be used by MatryxPlatform, MatryxOracleMessenger and MatryxQueryEncrypter.)\n  /// @param _queryID Query ID given to the oracle by this messenger.\n  /// @param _response Response received from oracle.\n  /// @return success Whether or not the query response was stored successfully (didn't already exist).\n  function storeQueryResponse(uint256 _queryID,  uint256 _response) onlyOwner public returns (bool success)\n  {\n      // Make sure:\n      // 1) The response is not empty and\n      // 2) There has not yet been a response created for this query\n      uint256 oldQueryID = fromQuerierToQueryID[msg.sender];\n      uint256 existingResponse = queryResponses[oldQueryID];\n      if(_response > 0 && existingResponse == 0)\n      {\n          // If these conditions hold, we set the response here.\n          fromQuerierToQueryID[msg.sender] = _queryID;\n          queryResponses[_queryID] = _response;\n          StoredResponse(queryResponses[_queryID]);\n          return true;\n      }\n      else\n      {\n          // Otherwise, we do nothing with the response,\n          // and return false (unsuccessful storage of response).\n          FailedToStore(_response, queryResponses[_queryID]);\n          return false;\n      }\n  }\n}",
  "sourcePath": "/Users/maxhoward/Desktop/Ethereum/Development/Matryx AWS/Projects/matryx-alpha-source/contracts/MatryxOracleMessenger.sol",
  "compiler": {
    "name": "solc",
    "version": "0.4.19+commit.c4cbbb05.Emscripten.clang"
  },
  "schemaVersion": "2.0.0",
  "updatedAt": "2018-03-29T18:43:54.364Z"
}