{
  "contractName": "MatryxPlatform",
  "abi": [
    {
      "constant": true,
      "inputs": [],
      "name": "matryxTournamentFactoryAddress",
      "outputs": [
        {
          "name": "",
          "type": "address"
        }
      ],
      "payable": false,
      "stateMutability": "view",
      "type": "function"
    },
    {
      "constant": true,
      "inputs": [],
      "name": "matryxTokenAddress",
      "outputs": [
        {
          "name": "",
          "type": "address"
        }
      ],
      "payable": false,
      "stateMutability": "view",
      "type": "function"
    },
    {
      "constant": true,
      "inputs": [
        {
          "name": "_sender",
          "type": "address"
        }
      ],
      "name": "isOwner",
      "outputs": [
        {
          "name": "_isOwner",
          "type": "bool"
        }
      ],
      "payable": false,
      "stateMutability": "view",
      "type": "function"
    },
    {
      "constant": true,
      "inputs": [
        {
          "name": "",
          "type": "address"
        }
      ],
      "name": "peerExists",
      "outputs": [
        {
          "name": "",
          "type": "bool"
        }
      ],
      "payable": false,
      "stateMutability": "view",
      "type": "function"
    },
    {
      "constant": true,
      "inputs": [],
      "name": "getOwner",
      "outputs": [
        {
          "name": "_owner",
          "type": "address"
        }
      ],
      "payable": false,
      "stateMutability": "view",
      "type": "function"
    },
    {
      "constant": true,
      "inputs": [],
      "name": "matryxRoundLibAddress",
      "outputs": [
        {
          "name": "",
          "type": "address"
        }
      ],
      "payable": false,
      "stateMutability": "view",
      "type": "function"
    },
    {
      "constant": true,
      "inputs": [],
      "name": "owner",
      "outputs": [
        {
          "name": "",
          "type": "address"
        }
      ],
      "payable": false,
      "stateMutability": "view",
      "type": "function"
    },
    {
      "constant": true,
      "inputs": [
        {
          "name": "",
          "type": "address"
        }
      ],
      "name": "ownerToPeerAndPeerToOwner",
      "outputs": [
        {
          "name": "",
          "type": "address"
        }
      ],
      "payable": false,
      "stateMutability": "view",
      "type": "function"
    },
    {
      "constant": true,
      "inputs": [],
      "name": "matryxPeerFactoryAddress",
      "outputs": [
        {
          "name": "",
          "type": "address"
        }
      ],
      "payable": false,
      "stateMutability": "view",
      "type": "function"
    },
    {
      "constant": true,
      "inputs": [],
      "name": "matryxSubmissionFactoryAddress",
      "outputs": [
        {
          "name": "",
          "type": "address"
        }
      ],
      "payable": false,
      "stateMutability": "view",
      "type": "function"
    },
    {
      "constant": true,
      "inputs": [],
      "name": "matryxSubmissionTrustLibAddress",
      "outputs": [
        {
          "name": "",
          "type": "address"
        }
      ],
      "payable": false,
      "stateMutability": "view",
      "type": "function"
    },
    {
      "constant": true,
      "inputs": [
        {
          "name": "",
          "type": "uint256"
        }
      ],
      "name": "categoryList",
      "outputs": [
        {
          "name": "",
          "type": "string"
        }
      ],
      "payable": false,
      "stateMutability": "view",
      "type": "function"
    },
    {
      "constant": true,
      "inputs": [
        {
          "name": "",
          "type": "uint256"
        }
      ],
      "name": "allTournaments",
      "outputs": [
        {
          "name": "",
          "type": "address"
        }
      ],
      "payable": false,
      "stateMutability": "view",
      "type": "function"
    },
    {
      "constant": false,
      "inputs": [
        {
          "name": "newOwner",
          "type": "address"
        }
      ],
      "name": "transferOwnership",
      "outputs": [],
      "payable": false,
      "stateMutability": "nonpayable",
      "type": "function"
    },
    {
      "inputs": [
        {
          "name": "_matryxTokenAddress",
          "type": "address"
        },
        {
          "name": "_matryxPeerFactoryAddress",
          "type": "address"
        },
        {
          "name": "_matryxTournamentFactoryAddress",
          "type": "address"
        },
        {
          "name": "_matryxSubmissionFactoryAddress",
          "type": "address"
        },
        {
          "name": "_matryxSubmissionTrustLibAddress",
          "type": "address"
        }
      ],
      "payable": false,
      "stateMutability": "nonpayable",
      "type": "constructor"
    },
    {
      "anonymous": false,
      "inputs": [
        {
          "indexed": false,
          "name": "_discipline",
          "type": "string"
        },
        {
          "indexed": false,
          "name": "_owner",
          "type": "address"
        },
        {
          "indexed": false,
          "name": "_tournamentAddress",
          "type": "address"
        },
        {
          "indexed": false,
          "name": "_tournamentName_1",
          "type": "bytes32"
        },
        {
          "indexed": false,
          "name": "_tournamentName_2",
          "type": "bytes32"
        },
        {
          "indexed": false,
          "name": "_tournamentName_3",
          "type": "bytes32"
        },
        {
          "indexed": false,
          "name": "_externalAddress_1",
          "type": "bytes32"
        },
        {
          "indexed": false,
          "name": "_externalAddress_2",
          "type": "bytes32"
        },
        {
          "indexed": false,
          "name": "_MTXReward",
          "type": "uint256"
        },
        {
          "indexed": false,
          "name": "_entryFee",
          "type": "uint256"
        }
      ],
      "name": "TournamentCreated",
      "type": "event"
    },
    {
      "anonymous": false,
      "inputs": [
        {
          "indexed": false,
          "name": "_tournamentAddress",
          "type": "address"
        },
        {
          "indexed": false,
          "name": "_tournamentName_1",
          "type": "bytes32"
        },
        {
          "indexed": false,
          "name": "_tournamentName_2",
          "type": "bytes32"
        },
        {
          "indexed": false,
          "name": "_tournamentName_3",
          "type": "bytes32"
        },
        {
          "indexed": false,
          "name": "_externalAddress_1",
          "type": "bytes32"
        },
        {
          "indexed": false,
          "name": "_externalAddress_2",
          "type": "bytes32"
        },
        {
          "indexed": false,
          "name": "_MTXReward",
          "type": "uint256"
        },
        {
          "indexed": false,
          "name": "_entryFee",
          "type": "uint256"
        }
      ],
      "name": "TournamentOpened",
      "type": "event"
    },
    {
      "anonymous": false,
      "inputs": [
        {
          "indexed": false,
          "name": "_tournamentAddress",
          "type": "address"
        },
        {
          "indexed": false,
          "name": "_finalRoundNumber",
          "type": "uint256"
        },
        {
          "indexed": false,
          "name": "_MTXReward",
          "type": "uint256"
        }
      ],
      "name": "TournamentClosed",
      "type": "event"
    },
    {
      "anonymous": false,
      "inputs": [
        {
          "indexed": false,
          "name": "_entrant",
          "type": "address"
        },
        {
          "indexed": false,
          "name": "_tournamentAddress",
          "type": "address"
        }
      ],
      "name": "UserEnteredTournament",
      "type": "event"
    },
    {
      "anonymous": false,
      "inputs": [
        {
          "indexed": false,
          "name": "queryID",
          "type": "string"
        }
      ],
      "name": "QueryID",
      "type": "event"
    },
    {
      "anonymous": false,
      "inputs": [
        {
          "indexed": false,
          "name": "time",
          "type": "uint256"
        }
      ],
      "name": "TimeStamp",
      "type": "event"
    },
    {
      "constant": false,
      "inputs": [
        {
          "name": "_tournamentName_1",
          "type": "bytes32"
        },
        {
          "name": "_tournamentName_2",
          "type": "bytes32"
        },
        {
          "name": "_tournamentName_3",
          "type": "bytes32"
        },
        {
          "name": "_externalAddress_1",
          "type": "bytes32"
        },
        {
          "name": "_externalAddress_2",
          "type": "bytes32"
        },
        {
          "name": "_MTXReward",
          "type": "uint256"
        },
        {
          "name": "_entryFee",
          "type": "uint256"
        }
      ],
      "name": "invokeTournamentOpenedEvent",
      "outputs": [],
      "payable": false,
      "stateMutability": "nonpayable",
      "type": "function"
    },
    {
      "constant": false,
      "inputs": [
        {
          "name": "_finalRoundNumber",
          "type": "uint256"
        },
        {
          "name": "_MTXReward",
          "type": "uint256"
        }
      ],
      "name": "invokeTournamentClosedEvent",
      "outputs": [],
      "payable": false,
      "stateMutability": "nonpayable",
      "type": "function"
    },
    {
      "constant": false,
      "inputs": [
        {
          "name": "_submissionAddress",
          "type": "address"
        },
        {
          "name": "_references",
          "type": "address[]"
        }
      ],
      "name": "handleReferenceRequestsForSubmission",
      "outputs": [
        {
          "name": "",
          "type": "bool"
        }
      ],
      "payable": false,
      "stateMutability": "nonpayable",
      "type": "function"
    },
    {
      "constant": false,
      "inputs": [
        {
          "name": "_reference",
          "type": "address"
        }
      ],
      "name": "handleReferenceRequestForSubmission",
      "outputs": [
        {
          "name": "",
          "type": "bool"
        }
      ],
      "payable": false,
      "stateMutability": "nonpayable",
      "type": "function"
    },
    {
      "constant": false,
      "inputs": [
        {
          "name": "_reference",
          "type": "address"
        }
      ],
      "name": "handleCancelledReferenceRequestForSubmission",
      "outputs": [
        {
          "name": "",
          "type": "bool"
        }
      ],
      "payable": false,
      "stateMutability": "nonpayable",
      "type": "function"
    },
    {
      "constant": false,
      "inputs": [
        {
          "name": "_owner",
          "type": "address"
        },
        {
          "name": "_submission",
          "type": "address"
        }
      ],
      "name": "updateSubmissions",
      "outputs": [],
      "payable": false,
      "stateMutability": "nonpayable",
      "type": "function"
    },
    {
      "constant": false,
      "inputs": [
        {
          "name": "_submissionAddress",
          "type": "address"
        },
        {
          "name": "_tournamentAddress",
          "type": "address"
        }
      ],
      "name": "removeSubmission",
      "outputs": [
        {
          "name": "",
          "type": "bool"
        }
      ],
      "payable": false,
      "stateMutability": "nonpayable",
      "type": "function"
    },
    {
      "constant": false,
      "inputs": [
        {
          "name": "_tournamentAddress",
          "type": "address"
        },
        {
          "name": "_category",
          "type": "string"
        }
      ],
      "name": "addTournamentToCategory",
      "outputs": [],
      "payable": false,
      "stateMutability": "nonpayable",
      "type": "function"
    },
    {
      "constant": false,
      "inputs": [
        {
          "name": "_tournamentAddress",
          "type": "address"
        },
        {
          "name": "_category",
          "type": "string"
        }
      ],
      "name": "removeTournamentFromCategory",
      "outputs": [],
      "payable": false,
      "stateMutability": "nonpayable",
      "type": "function"
    },
    {
      "constant": false,
      "inputs": [
        {
          "name": "_tournamentAddress",
          "type": "address"
        },
        {
          "name": "_oldCategory",
          "type": "string"
        },
        {
          "name": "_newCategory",
          "type": "string"
        }
      ],
      "name": "switchTournamentCategory",
      "outputs": [],
      "payable": false,
      "stateMutability": "nonpayable",
      "type": "function"
    },
    {
      "constant": true,
      "inputs": [
        {
          "name": "_category",
          "type": "string"
        }
      ],
      "name": "getTournamentsByCategory",
      "outputs": [
        {
          "name": "",
          "type": "address[]"
        }
      ],
      "payable": false,
      "stateMutability": "view",
      "type": "function"
    },
    {
      "constant": true,
      "inputs": [
        {
          "name": "_category",
          "type": "string"
        }
      ],
      "name": "getCategoryCount",
      "outputs": [
        {
          "name": "",
          "type": "uint256"
        }
      ],
      "payable": false,
      "stateMutability": "view",
      "type": "function"
    },
    {
      "constant": true,
      "inputs": [
        {
          "name": "_index",
          "type": "uint256"
        }
      ],
      "name": "getCategoryByIndex",
      "outputs": [
        {
          "name": "",
          "type": "string"
        }
      ],
      "payable": false,
      "stateMutability": "view",
      "type": "function"
    },
    {
      "constant": false,
      "inputs": [
        {
          "name": "_tournamentAddress",
          "type": "address"
        }
      ],
      "name": "enterTournament",
      "outputs": [
        {
          "name": "_success",
          "type": "bool"
        }
      ],
      "payable": false,
      "stateMutability": "nonpayable",
      "type": "function"
    },
    {
      "constant": false,
      "inputs": [
        {
          "components": [
            {
              "name": "category",
              "type": "string"
            },
            {
              "name": "title_1",
              "type": "bytes32"
            },
            {
              "name": "title_2",
              "type": "bytes32"
            },
            {
              "name": "title_3",
              "type": "bytes32"
            },
            {
              "name": "descriptionHash_1",
              "type": "bytes32"
            },
            {
              "name": "descriptionHash_2",
              "type": "bytes32"
            },
            {
              "name": "fileHash_1",
              "type": "bytes32"
            },
            {
              "name": "fileHash_2",
              "type": "bytes32"
            },
            {
              "name": "bounty",
              "type": "uint256"
            },
            {
              "name": "entryFee",
              "type": "uint256"
            }
          ],
          "name": "tournamentData",
          "type": "tuple"
        },
        {
          "components": [
            {
              "name": "start",
              "type": "uint256"
            },
            {
              "name": "end",
              "type": "uint256"
            },
            {
              "name": "reviewPeriodDuration",
              "type": "uint256"
            },
            {
              "name": "bounty",
              "type": "uint256"
            }
          ],
          "name": "roundData",
          "type": "tuple"
        }
      ],
      "name": "createTournament",
      "outputs": [
        {
          "name": "_tournamentAddress",
          "type": "address"
        }
      ],
      "payable": false,
      "stateMutability": "nonpayable",
      "type": "function"
    },
    {
      "constant": false,
      "inputs": [],
      "name": "createPeer",
      "outputs": [
        {
          "name": "",
          "type": "address"
        }
      ],
      "payable": false,
      "stateMutability": "nonpayable",
      "type": "function"
    },
    {
      "constant": true,
      "inputs": [
        {
          "name": "_peerAddress",
          "type": "address"
        }
      ],
      "name": "isPeer",
      "outputs": [
        {
          "name": "",
          "type": "bool"
        }
      ],
      "payable": false,
      "stateMutability": "view",
      "type": "function"
    },
    {
      "constant": true,
      "inputs": [
        {
          "name": "_sender",
          "type": "address"
        }
      ],
      "name": "hasPeer",
      "outputs": [
        {
          "name": "",
          "type": "bool"
        }
      ],
      "payable": false,
      "stateMutability": "view",
      "type": "function"
    },
    {
      "constant": true,
      "inputs": [
        {
          "name": "_peer",
          "type": "address"
        },
        {
          "name": "_reference",
          "type": "address"
        }
      ],
      "name": "peerExistsAndOwnsSubmission",
      "outputs": [
        {
          "name": "",
          "type": "bool"
        }
      ],
      "payable": false,
      "stateMutability": "view",
      "type": "function"
    },
    {
      "constant": true,
      "inputs": [
        {
          "name": "_sender",
          "type": "address"
        }
      ],
      "name": "peerAddress",
      "outputs": [
        {
          "name": "",
          "type": "address"
        }
      ],
      "payable": false,
      "stateMutability": "view",
      "type": "function"
    },
    {
      "constant": true,
      "inputs": [
        {
          "name": "_submissionAddress",
          "type": "address"
        }
      ],
      "name": "isSubmission",
      "outputs": [
        {
          "name": "",
          "type": "bool"
        }
      ],
      "payable": false,
      "stateMutability": "view",
      "type": "function"
    },
    {
      "constant": true,
      "inputs": [
        {
          "name": "_categoryHash",
          "type": "bytes32"
        }
      ],
      "name": "hashForCategory",
      "outputs": [
        {
          "name": "_category",
          "type": "string"
        }
      ],
      "payable": false,
      "stateMutability": "view",
      "type": "function"
    },
    {
      "constant": true,
      "inputs": [
        {
          "name": "_tournamentAddress",
          "type": "address"
        }
      ],
      "name": "getTournament_IsMine",
      "outputs": [
        {
          "name": "_isMine",
          "type": "bool"
        }
      ],
      "payable": false,
      "stateMutability": "view",
      "type": "function"
    },
    {
      "constant": false,
      "inputs": [
        {
          "name": "_gratitude",
          "type": "uint256"
        }
      ],
      "name": "setSubmissionGratitude",
      "outputs": [],
      "payable": false,
      "stateMutability": "nonpayable",
      "type": "function"
    },
    {
      "constant": true,
      "inputs": [],
      "name": "getNow",
      "outputs": [
        {
          "name": "",
          "type": "uint256"
        }
      ],
      "payable": false,
      "stateMutability": "view",
      "type": "function"
    },
    {
      "constant": true,
      "inputs": [],
      "name": "getTokenAddress",
      "outputs": [
        {
          "name": "",
          "type": "address"
        }
      ],
      "payable": false,
      "stateMutability": "view",
      "type": "function"
    },
    {
      "constant": true,
      "inputs": [],
      "name": "getTournamentFactoryAddress",
      "outputs": [
        {
          "name": "",
          "type": "address"
        }
      ],
      "payable": false,
      "stateMutability": "view",
      "type": "function"
    },
    {
      "constant": true,
      "inputs": [],
      "name": "getSubmissionTrustLibrary",
      "outputs": [
        {
          "name": "",
          "type": "address"
        }
      ],
      "payable": false,
      "stateMutability": "view",
      "type": "function"
    },
    {
      "constant": true,
      "inputs": [],
      "name": "getSubmissionGratitude",
      "outputs": [
        {
          "name": "",
          "type": "uint256"
        }
      ],
      "payable": false,
      "stateMutability": "view",
      "type": "function"
    },
    {
      "constant": true,
      "inputs": [],
      "name": "myTournaments",
      "outputs": [
        {
          "name": "",
          "type": "address[]"
        }
      ],
      "payable": false,
      "stateMutability": "view",
      "type": "function"
    },
    {
      "constant": true,
      "inputs": [],
      "name": "mySubmissions",
      "outputs": [
        {
          "name": "",
          "type": "address[]"
        }
      ],
      "payable": false,
      "stateMutability": "view",
      "type": "function"
    },
    {
      "constant": true,
      "inputs": [],
      "name": "tournamentCount",
      "outputs": [
        {
          "name": "_tournamentCount",
          "type": "uint256"
        }
      ],
      "payable": false,
      "stateMutability": "view",
      "type": "function"
    },
    {
      "constant": true,
      "inputs": [
        {
          "name": "_index",
          "type": "uint256"
        }
      ],
      "name": "getTournamentAtIndex",
      "outputs": [
        {
          "name": "_tournamentAddress",
          "type": "address"
        }
      ],
      "payable": false,
      "stateMutability": "view",
      "type": "function"
    },
    {
      "constant": true,
      "inputs": [],
      "name": "getTournaments",
      "outputs": [
        {
          "name": "",
          "type": "address[]"
        }
      ],
      "payable": false,
      "stateMutability": "view",
      "type": "function"
    },
    {
      "constant": false,
      "inputs": [],
      "name": "forceRevert",
      "outputs": [],
      "payable": false,
      "stateMutability": "nonpayable",
      "type": "function"
    }
  ],
  "bytecode": "0x60c0604052600160808190526702c68af0bb14000060a08190526017805460ff19169092179091556018553480156200003757600080fd5b5060405160a080620033cd8339810180604052620000599190810190620000db565b6000805433600160a060020a031991821617909155600180548216600160a060020a03978816179055600280548216958716959095179094556003805485169386169390931790925560048054841691851691909117905560058054909216921691909117905562000167565b6000620000d482516200015b565b9392505050565b600080600080600060a08688031215620000f457600080fd5b6000620001028888620000c6565b95505060206200011588828901620000c6565b94505060406200012888828901620000c6565b93505060606200013b88828901620000c6565b92505060806200014e88828901620000c6565b9150509295509295909350565b600160a060020a031690565b61325680620001776000396000f3006080604052600436106102505763ffffffff7c010000000000000000000000000000000000000000000000000000000060003504166310fe9ae8811461025557806311cf11ae146102805780631411f0a8146102975780631d2245f5146102c4578063201afb76146102e657806327252a0c1461030657806329cc545e1461031b5780632f54bf6e146103305780633e44cf781461035d5780633f1a4c111461037d57806351488bce1461039d578063532311c4146103bd5780636a44e43d146103dd5780636e2b2c7c146103fd57806370e592b81461041f578063818b5fa81461043f5780638764422f1461045f5780638785494e1461047f578063893d20e81461049f5780638ac70272146104b45780638c593a8c146104c95780638d1d498c146104e95780638da5cb5b14610509578063984ed2061461051e57806399db60dd1461053e578063a2d0ab471461055e578063a3e02f9214610573578063a968c4b914610593578063ab9583d9146105b3578063ac17741b146105d3578063b0ff5492146105f3578063b20a2dce14610608578063b2fad5541461061d578063b846e21c1461063d578063bbe4fd5014610652578063c13ae92a14610667578063c21260a514610687578063c839984a146106a7578063c8ab6c87146106c7578063d4f056d4146106dc578063e139a20c146106fc578063e14feaea14610711578063e8a0ed0d14610731578063f2fde38b14610751578063f3dc0d2514610771578063f7468a3c14610786578063f7c3609d146107a6578063f7f20cb3146107bb578063fb5032d6146107d0575b600080fd5b34801561026157600080fd5b5061026a6107f0565b6040516102779190612f3d565b60405180910390f35b34801561028c57600080fd5b50610295610250565b005b3480156102a357600080fd5b506102b76102b2366004612be3565b61080d565b604051610277919061303f565b3480156102d057600080fd5b506102d96108b8565b6040516102779190613020565b3480156102f257600080fd5b50610295610301366004612c01565b610930565b34801561031257600080fd5b5061026a61099c565b34801561032757600080fd5b5061026a6109b8565b34801561033c57600080fd5b5061035061034b366004612a42565b6109d4565b6040516102779190613031565b34801561036957600080fd5b50610350610378366004612a42565b6109f5565b34801561038957600080fd5b50610295610398366004612b00565b610a20565b3480156103a957600080fd5b506103506103b8366004612a7e565b610c44565b3480156103c957600080fd5b506103506103d8366004612a42565b610cc8565b3480156103e957600080fd5b5061026a6103f8366004612a42565b610cf5565b34801561040957600080fd5b50610412610d20565b6040516102779190613134565b34801561042b57600080fd5b5061035061043a366004612a42565b610d26565b34801561044b57600080fd5b5061035061045a366004612a42565b610d3b565b34801561046b57600080fd5b5061029561047a366004612b00565b610d66565b34801561048b57600080fd5b5061029561049a366004612b48565b610f45565b3480156104ab57600080fd5b5061026a610fc3565b3480156104c057600080fd5b5061026a610fdf565b3480156104d557600080fd5b506103506104e4366004612ab8565b610ffb565b3480156104f557600080fd5b506102b7610504366004612be3565b611217565b34801561051557600080fd5b5061026a61124f565b34801561052a57600080fd5b5061026a610539366004612be3565b61126b565b34801561054a57600080fd5b5061026a610559366004612a42565b6112be565b34801561056a57600080fd5b5061026a6112e6565b34801561057f57600080fd5b5061026a61058e366004612cdf565b611302565b34801561059f57600080fd5b506103506105ae366004612a7e565b61157b565b3480156105bf57600080fd5b506102956105ce366004612a7e565b61182e565b3480156105df57600080fd5b506102d96105ee366004612c9d565b611912565b3480156105ff57600080fd5b5061026a6119ba565b34801561061457600080fd5b506104126119d6565b34801561062957600080fd5b50610350610638366004612a42565b6119f1565b34801561064957600080fd5b5061026a611bd2565b34801561065e57600080fd5b50610412611bee565b34801561067357600080fd5b50610295610682366004612be3565b611c2c565b34801561069357600080fd5b506102b76106a2366004612be3565b611c9a565b3480156106b357600080fd5b5061026a6106c2366004612be3565b611d41565b3480156106d357600080fd5b5061026a611d76565b3480156106e857600080fd5b506104126106f7366004612c9d565b611d92565b34801561070857600080fd5b506102d9611dd7565b34801561071d57600080fd5b5061029561072c366004612d44565b611e4d565b34801561073d57600080fd5b5061035061074c366004612a42565b611eaa565b34801561075d57600080fd5b5061029561076c366004612a42565b611fb4565b34801561077d57600080fd5b5061026a612036565b34801561079257600080fd5b506103506107a1366004612a42565b612052565b3480156107b257600080fd5b5061026a6122e4565b3480156107c757600080fd5b506102d9612436565b3480156107dc57600080fd5b506103506107eb366004612a42565b6124a3565b60015473ffffffffffffffffffffffffffffffffffffffff165b90565b606060088281548110151561081e57fe5b600091825260209182902001805460408051601f60026000196101006001871615020190941693909304928301859004850281018501909152818152928301828280156108ac5780601f10610881576101008083540402835291602001916108ac565b820191906000526020600020905b81548152906001019060200180831161088f57829003601f168201915b50505050509050919050565b3360009081526013602090815260409182902080548351818402810184019094528084526060939283018282801561092657602002820191906000526020600020905b815473ffffffffffffffffffffffffffffffffffffffff1681526001909101906020018083116108fb575b5050505050905090565b3360009081526011602052604090205460ff16151561094e57600080fd5b7f3e40349bce5ead99eef5033f3d2a1fee1e99eb24e24880b94f234971d85923e6338888888888888860405161098b989796959493929190612f8e565b60405180910390a150505050505050565b60035473ffffffffffffffffffffffffffffffffffffffff1681565b60015473ffffffffffffffffffffffffffffffffffffffff1681565b60005473ffffffffffffffffffffffffffffffffffffffff91821691161490565b73ffffffffffffffffffffffffffffffffffffffff166000908152600e602052604090205460ff1690565b6000823373ffffffffffffffffffffffffffffffffffffffff82161480610a77575033600090815260146020908152604080832073ffffffffffffffffffffffffffffffffffffffff8516845290915290205460ff165b80610a8157503330145b1515610a8c57600080fd5b826040518082805190602001908083835b60208310610abc5780518252601f199092019160209182019101610a9d565b51815160209384036101000a6000190180199092169116179052604080519290940182900390912060008181526009909252929020549195505060ff1615159150610b4a90505760088054600181018083556000929092528451610b47917ff3f7a9fe364faab93b216da50a3214154f22a0a2b415b23a84c8169e8b636ee3019060208701906126f7565b50505b6000828152600b6020908152604080832073ffffffffffffffffffffffffffffffffffffffff8816845290915290205460ff161515610c3e576000828152600b6020908152604080832073ffffffffffffffffffffffffffffffffffffffff881684528252808320805460ff19166001908117909155600d835292208551610bd99391909101918601906126f7565b506000828152600a60208181526040808420805473ffffffffffffffffffffffffffffffffffffffff8a16808752600d85529286208190559383526001840181558452922001805473ffffffffffffffffffffffffffffffffffffffff191690911790555b50505050565b73ffffffffffffffffffffffffffffffffffffffff8083166000818152600e60209081526040808320548686168085526012845282852054958552600f84528285205490961684526010835281842095845294909152812054909260ff9081169281169116828015610cb35750815b8015610cbc5750805b93505b50505092915050565b73ffffffffffffffffffffffffffffffffffffffff9081166000908152600f602052604090205416151590565b73ffffffffffffffffffffffffffffffffffffffff9081166000908152600f60205260409020541690565b60075490565b600e6020526000908152604090205460ff1681565b73ffffffffffffffffffffffffffffffffffffffff1660009081526012602052604090205460ff1690565b600080833373ffffffffffffffffffffffffffffffffffffffff82161480610dbe575033600090815260146020908152604080832073ffffffffffffffffffffffffffffffffffffffff8516845290915290205460ff165b80610dc857503330145b1515610dd357600080fd5b836040518082805190602001908083835b60208310610e035780518252601f199092019160209182019101610de4565b51815160209384036101000a600019018019909216911617905260408051929094018290039091206000818152600b835284812073ffffffffffffffffffffffffffffffffffffffff8d168252909252929020549196505060ff16159150610f3e90505773ffffffffffffffffffffffffffffffffffffffff85166000818152600d6020908152604080832054878452600b8352818420948452938252808320805460ff19169055868352600a90915281208054929450909184908110610ec657fe5b6000918252602080832091909101805473ffffffffffffffffffffffffffffffffffffffff191673ffffffffffffffffffffffffffffffffffffffff9485161790559187168152600d82526040808220829055858252600c9092522054610f2e906001612665565b6000848152600c60205260409020555b5050505050565b823373ffffffffffffffffffffffffffffffffffffffff82161480610f9a575033600090815260146020908152604080832073ffffffffffffffffffffffffffffffffffffffff8516845290915290205460ff165b80610fa457503330145b1515610faf57600080fd5b610fb98484610d66565b610c3e8483610a20565b60005473ffffffffffffffffffffffffffffffffffffffff1690565b60065473ffffffffffffffffffffffffffffffffffffffff1681565b33600090815260116020526040812054819081908190819060ff16151561102157600080fd5b600093505b855184101561120d57858481518110151561103d57fe5b90602001906020020151925061105283610d3b565b151561105d57611202565b8291508173ffffffffffffffffffffffffffffffffffffffff1663a5faa1256040518163ffffffff167c0100000000000000000000000000000000000000000000000000000000028152600401602060405180830381600087803b1580156110c457600080fd5b505af11580156110d8573d6000803e3d6000fd5b505050506040513d601f19601f820116820180604052506110fc9190810190612a60565b6040517fd1bbd31200000000000000000000000000000000000000000000000000000000815290915073ffffffffffffffffffffffffffffffffffffffff82169063d1bbd31290611153908a908790600401612f4b565b600060405180830381600087803b15801561116d57600080fd5b505af1158015611181573d6000803e3d6000fd5b505050508173ffffffffffffffffffffffffffffffffffffffff1663c7af35516040518163ffffffff167c0100000000000000000000000000000000000000000000000000000000028152600401600060405180830381600087803b1580156111e957600080fd5b505af11580156111fd573d6000803e3d6000fd5b505050505b600190930192611026565b5050505092915050565b5060408051808201909152601281527f74656d706f726172792063617465676f72790000000000000000000000000000602082015290565b60005473ffffffffffffffffffffffffffffffffffffffff1681565b60008082101561127a57600080fd5b600754821061128857600080fd5b600780548390811061129657fe5b60009182526020909120015473ffffffffffffffffffffffffffffffffffffffff1692915050565b600f6020526000908152604090205473ffffffffffffffffffffffffffffffffffffffff1681565b60025473ffffffffffffffffffffffffffffffffffffffff1681565b60035482516040517fa95abd8900000000000000000000000000000000000000000000000000000000815260009273ffffffffffffffffffffffffffffffffffffffff16918391839163a95abd899161136491908990899033906004016130ea565b602060405180830381600087803b15801561137e57600080fd5b505af1158015611392573d6000803e3d6000fd5b505050506040513d601f19601f820116820180604052506113b69190810190612a60565b90507f0a3eabe50f6fdb1131643d035f8bde7e91d600ba5d64c4a17de4d9c9fef3ec6385600001513383886020015189604001518a606001518b608001518c60a001518d61010001518e610120015160405161141b9a99989796959493929190613050565b60405180910390a16001546101008601516040517f23b872dd00000000000000000000000000000000000000000000000000000000815273ffffffffffffffffffffffffffffffffffffffff909216916323b872dd916114819133918691600401612f66565b602060405180830381600087803b15801561149b57600080fd5b505af11580156114af573d6000803e3d6000fd5b505050506040513d601f19601f820116820180604052506114d39190810190612bc5565b15156114de57600080fd5b6007805460018082019092557fa66cc928b5edb82af9bd49922954155ab7b0942694bea4ce44661d9a8736c68801805473ffffffffffffffffffffffffffffffffffffffff191673ffffffffffffffffffffffffffffffffffffffff84169081179091556000908152601160205260409020805460ff19169091179055611565338261267b565b611573818660000151610a20565b949350505050565b73ffffffffffffffffffffffffffffffffffffffff811660009081526011602052604081205481908190819060ff1615156115b557600080fd5b73ffffffffffffffffffffffffffffffffffffffff861660009081526012602052604090205460ff1615156115e957600080fd5b33600090815260106020908152604080832073ffffffffffffffffffffffffffffffffffffffff8a16845290915290205460ff16151561162857600080fd5b8592508573ffffffffffffffffffffffffffffffffffffffff1663893d20e86040518163ffffffff167c0100000000000000000000000000000000000000000000000000000000028152600401602060405180830381600087803b15801561168f57600080fd5b505af11580156116a3573d6000803e3d6000fd5b505050506040513d601f19601f820116820180604052506116c79190810190612a60565b73ffffffffffffffffffffffffffffffffffffffff8082166000818152601660209081526040808320948c1683529381528382206001015460128252848320805460ff1916905592825260159052919091208054929450909250908290811061172c57fe5b60009182526020808320909101805473ffffffffffffffffffffffffffffffffffffffff1916905573ffffffffffffffffffffffffffffffffffffffff84811683526016825260408084208a83168552909252818320805460ff1916815560010192909255517fa968c4b90000000000000000000000000000000000000000000000000000000081529086169063a968c4b9906117cf9089908690600401612f4b565b602060405180830381600087803b1580156117e957600080fd5b505af11580156117fd573d6000803e3d6000fd5b505050506040513d601f19601f820116820180604052506118219190810190612bc5565b5060019695505050505050565b3360009081526011602052604090205460ff16151561184c57600080fd5b604080518082018252600180825273ffffffffffffffffffffffffffffffffffffffff948516600081815260156020908152858220805482870190815284845260168352878420989099168084529782528683209551865490151560ff1991821617875598519585019590955584548085018655948252808220909401805473ffffffffffffffffffffffffffffffffffffffff191687179055908152601083528381209481529382528284208054861682179055601290915291208054909216179055565b6060600a60008484604051808383808284378201915050925050506040518091039020600019166000191681526020019081526020016000208054806020026020016040519081016040528092919081815260200182805480156119ac57602002820191906000526020600020905b815473ffffffffffffffffffffffffffffffffffffffff168152600190910190602001808311611981575b505050505090505b92915050565b60045473ffffffffffffffffffffffffffffffffffffffff1681565b60175460009060ff1615156119ea57600080fd5b5060185490565b336000908152601260205260408120548190819060ff161515611a1357600080fd5b611a1c84610d3b565b1515611a2757600080fd5b8391508173ffffffffffffffffffffffffffffffffffffffff1663a5faa1256040518163ffffffff167c0100000000000000000000000000000000000000000000000000000000028152600401602060405180830381600087803b158015611a8e57600080fd5b505af1158015611aa2573d6000803e3d6000fd5b505050506040513d601f19601f82011682018060405250611ac69190810190612a60565b6040517fd1bbd31200000000000000000000000000000000000000000000000000000000815290915073ffffffffffffffffffffffffffffffffffffffff82169063d1bbd31290611b1d9033908890600401612f4b565b600060405180830381600087803b158015611b3757600080fd5b505af1158015611b4b573d6000803e3d6000fd5b505050508173ffffffffffffffffffffffffffffffffffffffff1663c7af35516040518163ffffffff167c0100000000000000000000000000000000000000000000000000000000028152600401600060405180830381600087803b158015611bb357600080fd5b505af1158015611bc7573d6000803e3d6000fd5b505050505050919050565b60055473ffffffffffffffffffffffffffffffffffffffff1681565b60007fdfbf6547deaf4fa5dd154ec1daf5350032f31d34e4c755104dfbf6049163c08742604051611c1f9190613134565b60405180910390a1504290565b60005473ffffffffffffffffffffffffffffffffffffffff163314611c5057600080fd5b60008110158015611c695750670de0b6b3a76400008111155b1515611c7157fe5b60408051808201909152600180825260209091018290526017805460ff19169091179055601855565b6008805482908110611ca857fe5b600091825260209182902001805460408051601f6002600019610100600187161502019094169390930492830185900485028101850190915281815293509091830182828015611d395780601f10611d0e57610100808354040283529160200191611d39565b820191906000526020600020905b815481529060010190602001808311611d1c57829003601f168201915b505050505081565b6007805482908110611d4f57fe5b60009182526020909120015473ffffffffffffffffffffffffffffffffffffffff16905081565b60035473ffffffffffffffffffffffffffffffffffffffff1690565b600080838360405180838380828437604080519190930181900390206000908152600c602090815283822054600a909152929020549190910398975050505050505050565b336000908152601560209081526040918290208054835181840281018401909452808452606093928301828280156109265760200282019190600052602060002090815473ffffffffffffffffffffffffffffffffffffffff1681526001909101906020018083116108fb575050505050905090565b3360009081526011602052604090205460ff161515611e6b57600080fd5b7f575670c81f31b6e19bd59bbbe1729f3f052ae8a508d3977e1e1b2b752a256edb338383604051611e9e93929190613005565b60405180910390a15050565b73ffffffffffffffffffffffffffffffffffffffff8116600090815260116020526040812054819060ff161515611ee057600080fd5b8290503373ffffffffffffffffffffffffffffffffffffffff168173ffffffffffffffffffffffffffffffffffffffff1663893d20e86040518163ffffffff167c0100000000000000000000000000000000000000000000000000000000028152600401602060405180830381600087803b158015611f5e57600080fd5b505af1158015611f72573d6000803e3d6000fd5b505050506040513d601f19601f82011682018060405250611f969190810190612a60565b73ffffffffffffffffffffffffffffffffffffffff16149392505050565b60005473ffffffffffffffffffffffffffffffffffffffff163314611fd857600080fd5b73ffffffffffffffffffffffffffffffffffffffff81161515611ffa57600080fd5b6000805473ffffffffffffffffffffffffffffffffffffffff191673ffffffffffffffffffffffffffffffffffffffff92909216919091179055565b60055473ffffffffffffffffffffffffffffffffffffffff1690565b6000806000803361206281610cc8565b151561206d57600080fd5b73ffffffffffffffffffffffffffffffffffffffff861660009081526011602052604090205460ff1615156120a157600080fd5b8593508373ffffffffffffffffffffffffffffffffffffffff1663e586a4f06040518163ffffffff167c0100000000000000000000000000000000000000000000000000000000028152600401602060405180830381600087803b15801561210857600080fd5b505af115801561211c573d6000803e3d6000fd5b505050506040513d601f19601f820116820180604052506121409190810190612d26565b6001546040517f23b872dd00000000000000000000000000000000000000000000000000000000815291945073ffffffffffffffffffffffffffffffffffffffff16906323b872dd9061219b9033908a908890600401612f66565b602060405180830381600087803b1580156121b557600080fd5b505af11580156121c9573d6000803e3d6000fd5b505050506040513d601f19601f820116820180604052506121ed9190810190612bc5565b915081156122db576040517f28d576d700000000000000000000000000000000000000000000000000000000815273ffffffffffffffffffffffffffffffffffffffff8516906328d576d790612247903390600401612f3d565b602060405180830381600087803b15801561226157600080fd5b505af1158015612275573d6000803e3d6000fd5b505050506040513d601f19601f820116820180604052506122999190810190612bc5565b915081156122db577f5891a745b8d042d48bd1e4aed889e63bdc3e44242bb75694ea97573460e03a8b33876040516122d2929190612f4b565b60405180910390a15b50949350505050565b336000908152600f60205260408120548190819073ffffffffffffffffffffffffffffffffffffffff161561231857600080fd5b6002546040517f48bf957700000000000000000000000000000000000000000000000000000000815273ffffffffffffffffffffffffffffffffffffffff909116925082906348bf957790612371903390600401612f3d565b602060405180830381600087803b15801561238b57600080fd5b505af115801561239f573d6000803e3d6000fd5b505050506040513d601f19601f820116820180604052506123c39190810190612a60565b73ffffffffffffffffffffffffffffffffffffffff166000818152600e60209081526040808320805460ff1916600117905533808452600f909252808320805473ffffffffffffffffffffffffffffffffffffffff19908116861790915593835290912080549092161790555090919050565b606060078054806020026020016040519081016040528092919081815260200182805480156109265760200282019190600052602060002090815473ffffffffffffffffffffffffffffffffffffffff1681526001909101906020018083116108fb575050505050905090565b336000908152601260205260408120548190819060ff1615156124c557600080fd5b6124ce84610d3b565b15156124d957600080fd5b8391508173ffffffffffffffffffffffffffffffffffffffff1663a5faa1256040518163ffffffff167c0100000000000000000000000000000000000000000000000000000000028152600401602060405180830381600087803b15801561254057600080fd5b505af1158015612554573d6000803e3d6000fd5b505050506040513d601f19601f820116820180604052506125789190810190612a60565b6040517fa1cc4ac100000000000000000000000000000000000000000000000000000000815290915073ffffffffffffffffffffffffffffffffffffffff82169063a1cc4ac1906125cf9033908890600401612f4b565b600060405180830381600087803b1580156125e957600080fd5b505af11580156125fd573d6000803e3d6000fd5b505050508173ffffffffffffffffffffffffffffffffffffffff1663444e31ca6040518163ffffffff167c0100000000000000000000000000000000000000000000000000000000028152600401600060405180830381600087803b158015611bb357600080fd5b60008282018381101561267457fe5b9392505050565b73ffffffffffffffffffffffffffffffffffffffff918216600081815260136020908152604080832080546001808201835591855283852001805473ffffffffffffffffffffffffffffffffffffffff19169690971695861790965592825260148152828220938252929092529020805460ff19169091179055565b828054600181600116156101000203166002900490600052602060002090601f016020900481019282601f1061273857805160ff1916838001178555612765565b82800160010185558215612765579182015b8281111561276557825182559160200191906001019061274a565b50612771929150612775565b5090565b61080a91905b80821115612771576000815560010161277b565b600061267482356131bc565b600061267482516131bc565b6000601f820183136127b857600080fd5b81356127cb6127c682613169565b613142565b915081818352602084019350602081019050838560208402820111156127f057600080fd5b60005b8381101561120d5781612806888261278f565b84525060209283019291909101906001016127f3565b600061267482516131d5565b6000612674823561080a565b600080601f8301841361284657600080fd5b50813567ffffffffffffffff81111561285e57600080fd5b60208301915083600182028301111561287657600080fd5b9250929050565b6000601f8201831361288e57600080fd5b813561289c6127c68261318a565b915080825260208301602083018583830111156128b857600080fd5b610cbf8382846131da565b6000608082840312156128d557600080fd5b6128df6080613142565b905060006128ed8484612828565b82525060206128fe84848301612828565b602083015250604061291284828501612828565b604083015250606061292684828501612828565b60608301525092915050565b6000610140828403121561294557600080fd5b612950610140613142565b9050813567ffffffffffffffff81111561296957600080fd5b6129758482850161287d565b825250602061298684848301612828565b602083015250604061299a84828501612828565b60408301525060606129ae84828501612828565b60608301525060806129c284828501612828565b60808301525060a06129d684828501612828565b60a08301525060c06129ea84828501612828565b60c08301525060e06129fe84828501612828565b60e083015250610100612a1384828501612828565b61010083015250610120612a2984828501612828565b6101208301525092915050565b6000612674825161080a565b600060208284031215612a5457600080fd5b6000611573848461278f565b600060208284031215612a7257600080fd5b6000611573848461279b565b60008060408385031215612a9157600080fd5b6000612a9d858561278f565b9250506020612aae8582860161278f565b9150509250929050565b60008060408385031215612acb57600080fd5b6000612ad7858561278f565b925050602083013567ffffffffffffffff811115612af457600080fd5b612aae858286016127a7565b60008060408385031215612b1357600080fd5b6000612b1f858561278f565b925050602083013567ffffffffffffffff811115612b3c57600080fd5b612aae8582860161287d565b600080600060608486031215612b5d57600080fd5b6000612b69868661278f565b935050602084013567ffffffffffffffff811115612b8657600080fd5b612b928682870161287d565b925050604084013567ffffffffffffffff811115612baf57600080fd5b612bbb8682870161287d565b9150509250925092565b600060208284031215612bd757600080fd5b6000611573848461281c565b600060208284031215612bf557600080fd5b60006115738484612828565b600080600080600080600060e0888a031215612c1c57600080fd5b6000612c288a8a612828565b9750506020612c398a828b01612828565b9650506040612c4a8a828b01612828565b9550506060612c5b8a828b01612828565b9450506080612c6c8a828b01612828565b93505060a0612c7d8a828b01612828565b92505060c0612c8e8a828b01612828565b91505092959891949750929550565b60008060208385031215612cb057600080fd5b823567ffffffffffffffff811115612cc757600080fd5b612cd385828601612834565b92509250509250929050565b60008060a08385031215612cf257600080fd5b823567ffffffffffffffff811115612d0957600080fd5b612d1585828601612932565b9250506020612aae858286016128c3565b600060208284031215612d3857600080fd5b60006115738484612a36565b60008060408385031215612d5757600080fd5b6000612d638585612828565b9250506020612aae85828601612828565b612d7d816131bc565b82525050565b6000612d8e826131b8565b808452602084019350612da0836131b2565b60005b82811015612dd057612db6868351612d74565b612dbf826131b2565b602096909601959150600101612da3565b5093949350505050565b612d7d816131d5565b612d7d8161080a565b6000612df7826131b8565b808452612e0b8160208601602086016131e6565b612e1481613212565b9093016020019392505050565b80516080830190612e328482612de3565b506020820151612e456020850182612de3565b506040820151612e586040850182612de3565b506060820151610c3e6060850182612de3565b805161014080845260009190840190612e848282612dec565b9150506020830151612e996020860182612de3565b506040830151612eac6040860182612de3565b506060830151612ebf6060860182612de3565b506080830151612ed26080860182612de3565b5060a0830151612ee560a0860182612de3565b5060c0830151612ef860c0860182612de3565b5060e0830151612f0b60e0860182612de3565b50610100830151612f20610100860182612de3565b50610120830151612f35610120860182612de3565b509392505050565b602081016119b48284612d74565b60408101612f598285612d74565b6126746020830184612d74565b60608101612f748286612d74565b612f816020830185612d74565b6115736040830184612de3565b6101008101612f9d828b612d74565b612faa602083018a612de3565b612fb76040830189612de3565b612fc46060830188612de3565b612fd16080830187612de3565b612fde60a0830186612de3565b612feb60c0830185612de3565b612ff860e0830184612de3565b9998505050505050505050565b606081016130138286612d74565b612f816020830185612de3565b602080825281016126748184612d83565b602081016119b48284612dda565b602080825281016126748184612dec565b6101408082528101613062818d612dec565b9050613071602083018c612d74565b61307e604083018b612d74565b61308b606083018a612de3565b6130986080830189612de3565b6130a560a0830188612de3565b6130b260c0830187612de3565b6130bf60e0830186612de3565b6130cd610100830185612de3565b6130db610120830184612de3565b9b9a5050505050505050505050565b60e080825281016130fb8187612dec565b9050818103602083015261310f8186612e6b565b905061311e6040830185612e21565b61312b60c0830184612d74565b95945050505050565b602081016119b48284612de3565b60405181810167ffffffffffffffff8111828210171561316157600080fd5b604052919050565b600067ffffffffffffffff82111561318057600080fd5b5060209081020190565b600067ffffffffffffffff8211156131a157600080fd5b506020601f91909101601f19160190565b60200190565b5190565b73ffffffffffffffffffffffffffffffffffffffff1690565b151590565b82818337506000910152565b60005b838110156132015781810151838201526020016131e9565b83811115610c3e5750506000910152565b601f01601f1916905600a265627a7a7230582098bda4cf5f9ba73a8173924aabd3f88c76e151ffddb2d7460d305c8f353c710e6c6578706572696d656e74616cf50037",
  "source": "pragma solidity ^0.4.18;\npragma experimental ABIEncoderV2;\n\nimport \"../libraries/math/SafeMath.sol\";\nimport \"../libraries/math/SafeMath128.sol\";\nimport \"../interfaces/IMatryxToken.sol\";\nimport \"../interfaces/IMatryxPeer.sol\";\nimport \"../interfaces/IMatryxPlatform.sol\";\nimport \"../interfaces/factories/IMatryxPeerFactory.sol\";\nimport \"../interfaces/factories/IMatryxTournamentFactory.sol\";\nimport \"../interfaces/IMatryxTournament.sol\";\nimport \"../interfaces/IMatryxRound.sol\";\nimport \"../interfaces/IMatryxSubmission.sol\";\nimport \"./Ownable.sol\";\n\n/// @title MatryxPlatform - The Matryx platform contract.\n/// @author Max Howard - <max@nanome.ai>, Sam Hessenauer - <sam@nanome.ai>\ncontract MatryxPlatform is Ownable {\n  using SafeMath for uint256;\n  using SafeMath128 for uint128;\n\n  // TODO: condense and put in structs\n  address public matryxTokenAddress;\n  address public matryxPeerFactoryAddress;\n  address public matryxTournamentFactoryAddress;\n  address public matryxSubmissionFactoryAddress;\n  address public matryxSubmissionTrustLibAddress;\n  address public matryxRoundLibAddress;\n\n  address[] public allTournaments;\n  // bytes32 public hashOfTopCategory;\n  // bytes32 public hashOfLastCategory;\n  // mapping(uint256=>bytes32) public  topCategoryByCount;\n  // mapping(bytes32=>category) public categoryIterator;\n  string[] public categoryList;\n  mapping(bytes32=>bool) categoryExists;\n  mapping(bytes32=>address[]) categoryHashToTournamentList;\n  mapping(bytes32=>mapping(address=>bool)) tournamentExistsInCategory;\n  mapping(bytes32=>uint256) emptyCountByCategory;\n  mapping(address=>CategoryInfo) tournamentAddressToCategoryInfo;\n\n  mapping(address=>bool) public peerExists;\n  mapping(address=>address) public ownerToPeerAndPeerToOwner;\n  mapping(address=>mapping(address=>bool)) addressToOwnsSubmission;\n  mapping(address=>bool) tournamentExists;\n  mapping(address=>bool) submissionExists;\n\n  mapping(address=>address[]) ownerToTournamentArray;\n  mapping(address=>mapping(address=>bool)) entrantToOwnsTournament;\n  mapping(address=>address[]) ownerToSubmissionArray;\n  mapping(address=>mapping(address=>uint256_optional))  ownerToSubmissionToSubmissionIndex;\n\n  // Hyperparams\n  uint256_optional submissionGratitude = uint256_optional({exists: true, value: 2*10**17});\n\n  function MatryxPlatform(address _matryxTokenAddress, address _matryxPeerFactoryAddress, address _matryxTournamentFactoryAddress, address _matryxSubmissionFactoryAddress, address _matryxSubmissionTrustLibAddress) public\n  {\n    matryxTokenAddress = _matryxTokenAddress;\n    matryxPeerFactoryAddress = _matryxPeerFactoryAddress;\n    matryxTournamentFactoryAddress = _matryxTournamentFactoryAddress;\n    matryxSubmissionFactoryAddress = _matryxSubmissionFactoryAddress;\n    matryxSubmissionTrustLibAddress = _matryxSubmissionTrustLibAddress;\n  }\n\n  /*\n   * Structs\n   */\n\n  struct uint256_optional\n  {\n    bool exists;\n    uint256 value;\n  }\n\n  struct CategoryInfo \n  {\n    uint256 index;\n    string category;\n  }\n\n  /*\n   * Events\n   */\n\n  event TournamentCreated(string _discipline, address _owner, address _tournamentAddress, bytes32 _tournamentName_1, bytes32 _tournamentName_2, bytes32 _tournamentName_3, bytes32 _externalAddress_1, bytes32 _externalAddress_2, uint256 _MTXReward, uint256 _entryFee);\n  event TournamentOpened(address _tournamentAddress, bytes32 _tournamentName_1, bytes32 _tournamentName_2, bytes32 _tournamentName_3, bytes32 _externalAddress_1, bytes32 _externalAddress_2, uint256 _MTXReward, uint256 _entryFee);\n  event TournamentClosed(address _tournamentAddress, uint256 _finalRoundNumber, uint256 _MTXReward);\n  event UserEnteredTournament(address _entrant, address _tournamentAddress);\n  event QueryID(string queryID);\n  /// @dev Allows tournaments to invoke tournamentOpened events on the platform.\n  /// @param _tournamentName_1 First part of the tournament name.\n  /// @param _tournamentName_2 Second part of the tournament name.\n  /// @param _tournamentName_3 Third part of the tournament name.\n  /// @param _externalAddress_1 First part of the external address of the tournament.\n  /// @param _externalAddress_2 Second part of the external address of the tournament.\n  /// @param _MTXReward Reward for winning the tournament.\n  /// @param _entryFee Fee for entering into the tournament.\n  function invokeTournamentOpenedEvent(bytes32 _tournamentName_1, bytes32 _tournamentName_2, bytes32 _tournamentName_3, bytes32 _externalAddress_1, bytes32 _externalAddress_2, uint256 _MTXReward, uint256 _entryFee) public onlyTournament\n  {\n    TournamentOpened(msg.sender, _tournamentName_1, _tournamentName_2, _tournamentName_3, _externalAddress_1, _externalAddress_2, _MTXReward, _entryFee);\n  }\n\n  /// @dev Allows tournaments to invoke tournamentClosed events on the platform.\n  /// @param _finalRoundNumber Index of the round containing the winning submission.\n  function invokeTournamentClosedEvent(uint256 _finalRoundNumber, uint256 _MTXReward) public onlyTournament\n  {\n    TournamentClosed(msg.sender, _finalRoundNumber, _MTXReward);\n  }\n\n  /* \n   * Modifiers\n   */\n\n  modifier onlyTournament\n  {\n    require(tournamentExists[msg.sender]);\n    _;\n  }\n\n  modifier onlySubmission\n  {\n    require(submissionExists[msg.sender]);\n    _;\n  }\n\n  modifier onlyPeerLinked(address _sender)\n  {\n    require(hasPeer(_sender));\n    _;\n  }\n\n  modifier onlyTournamentOwnerOrPlatform(address _tournamentAddress)\n  {\n    require(msg.sender == _tournamentAddress || entrantToOwnsTournament[msg.sender][_tournamentAddress] || msg.sender == address(this));\n    _;\n  }\n\n  /*\n   * State Maintenance Methods\n   */\n\n  // @dev Sends out reference requests for a particular submission.\n  // @param _references Reference whose authors will be sent requests.\n  // @returns Whether or not all references were successfully sent a request.\n  function handleReferenceRequestsForSubmission(address _submissionAddress, address[] _references) public onlyTournament returns (bool) \n  {\n    for(uint256 i = 0; i < _references.length; i++)\n    {\n      address _referenceAddress = _references[i];\n\n      if(!isSubmission(_referenceAddress))\n      {\n        // TODO: Introduce uint error codes\n        // for returning things like \"Reference _ is not submission\"\n        continue;\n      }\n\n      IMatryxSubmission submission = IMatryxSubmission(_referenceAddress);\n      address author = submission.getAuthor();\n      IMatryxPeer(author).receiveReferenceRequest(_submissionAddress, _referenceAddress);\n      submission.receiveReferenceRequest();\n    }\n  }\n\n  // @dev Sends out a reference request for a submission (must be called by the submission).\n  // @param _reference Reference whose author will be sent a request.\n  // @returns Whether or not all references were successfully sent a request.\n  function handleReferenceRequestForSubmission(address _reference) public onlySubmission returns (bool)\n  {\n      require(isSubmission(_reference));\n      IMatryxSubmission submission = IMatryxSubmission(_reference);\n      address author = submission.getAuthor();\n      IMatryxPeer(author).receiveReferenceRequest(msg.sender, _reference);\n      submission.receiveReferenceRequest();\n  }\n\n  function handleCancelledReferenceRequestForSubmission(address _reference) public onlySubmission returns (bool)\n  {\n    require(isSubmission(_reference));\n    IMatryxSubmission submission = IMatryxSubmission(_reference);\n    address author = submission.getAuthor();\n    IMatryxPeer(author).receiveCancelledReferenceRequest(msg.sender, _reference);\n    submission.cancelReferenceRequest();\n  }\n\n  function updateUsersTournaments(address _owner, address _tournament) internal\n  {\n    ownerToTournamentArray[_owner].push(_tournament);\n    entrantToOwnsTournament[_owner][_tournament] = true;\n  }\n\n  function updateSubmissions(address _owner, address _submission) public onlyTournament\n  {\n    ownerToSubmissionToSubmissionIndex[_owner][_submission] = uint256_optional({exists:true, value:ownerToSubmissionArray[_owner].length});\n    ownerToSubmissionArray[_owner].push(_submission);\n    addressToOwnsSubmission[_owner][_submission] = true;\n    submissionExists[_submission] = true;\n  }\n\n  function removeSubmission(address _submissionAddress, address _tournamentAddress) public returns (bool)\n  {\n    require(tournamentExists[_tournamentAddress]);\n    require(submissionExists[_submissionAddress]);\n    require(addressToOwnsSubmission[msg.sender][_submissionAddress]);\n\n      IMatryxSubmission submission = IMatryxSubmission(_submissionAddress);\n      address owner = Ownable(_submissionAddress).getOwner();\n      uint256 submissionIndex = ownerToSubmissionToSubmissionIndex[owner][_submissionAddress].value;\n\n      submissionExists[_submissionAddress] = false;\n      delete ownerToSubmissionArray[owner][submissionIndex];\n      delete ownerToSubmissionToSubmissionIndex[owner][_submissionAddress];\n\n      IMatryxTournament(_tournamentAddress).removeSubmission(_submissionAddress, owner);\n      return true;\n  }\n\n  function addTournamentToCategory(address _tournamentAddress, string _category) public onlyTournamentOwnerOrPlatform(_tournamentAddress)\n  {\n    bytes32 categoryHash = sha3(_category);\n    if(categoryExists[categoryHash] == false)\n    {\n      categoryList.push(_category);\n    }\n\n    if(tournamentExistsInCategory[categoryHash][_tournamentAddress] == false)\n    {\n      tournamentExistsInCategory[categoryHash][_tournamentAddress] = true;\n      tournamentAddressToCategoryInfo[_tournamentAddress].category = _category;\n      tournamentAddressToCategoryInfo[_tournamentAddress].index = (categoryHashToTournamentList[categoryHash]).length;\n      categoryHashToTournamentList[categoryHash].push(_tournamentAddress);\n    }\n  }\n\n  function removeTournamentFromCategory(address _tournamentAddress, string _category) public onlyTournamentOwnerOrPlatform(_tournamentAddress)\n  {\n    bytes32 categoryHash = sha3(_category);\n    if(tournamentExistsInCategory[categoryHash][_tournamentAddress])\n    {\n      // It's there! Let's remove it\n      uint256 indexInCategoryList = tournamentAddressToCategoryInfo[_tournamentAddress].index;\n      tournamentExistsInCategory[categoryHash][_tournamentAddress] = false;\n      categoryHashToTournamentList[categoryHash][indexInCategoryList] = 0x0;\n      tournamentAddressToCategoryInfo[_tournamentAddress].index = 0;\n      emptyCountByCategory[categoryHash] = emptyCountByCategory[categoryHash].add(1);\n    }\n  }\n\n  function switchTournamentCategory(address _tournamentAddress, string _oldCategory, string _newCategory) public onlyTournamentOwnerOrPlatform(_tournamentAddress)\n  {\n    removeTournamentFromCategory(_tournamentAddress, _oldCategory);\n    addTournamentToCategory(_tournamentAddress, _newCategory);\n  }\n\n  function getTournamentsByCategory(string _category) external view returns (address[])\n  {\n    return categoryHashToTournamentList[sha3(_category)];\n  }\n\n  function getCategoryCount(string _category) external view returns (uint256)\n  {\n    bytes32 categoryHash = sha3(_category);\n    return categoryHashToTournamentList[categoryHash].length - emptyCountByCategory[categoryHash];\n  }\n\n  function getCategoryByIndex(uint256 _index) public view returns (string)\n  {\n    return categoryList[_index];\n  }\n\n  // function switchTournamentCategory(string discipline) onlyTournament public\n  // {\n  //   revert();\n  // }\n\n  /* \n   * Tournament Entry Methods\n   */\n\n  /// @dev Enter the user into a tournament and charge the entry fee.\n  /// @param _tournamentAddress Address of the tournament to enter into.\n  /// @return _success Whether or not user was successfully entered into the tournament.\n  function enterTournament(address _tournamentAddress) public onlyPeerLinked(msg.sender) returns (bool _success)\n  {\n      require(tournamentExists[_tournamentAddress]);\n      \n      IMatryxTournament tournament = IMatryxTournament(_tournamentAddress);\n      uint256 entryFee = tournament.getEntryFee();\n\n      bool success = IMatryxToken(matryxTokenAddress).transferFrom(msg.sender, _tournamentAddress, entryFee);\n      if(success)\n      {\n        success = tournament.enterUserInTournament(msg.sender);\n        if(success)\n        {\n          UserEnteredTournament(msg.sender, _tournamentAddress);\n        }\n      }\n\n      return success;\n  }\n\n  /* \n   * Tournament Admin Methods\n   */\n\n  /// @dev Create a new tournament.\n  /// @param tournamentData Data to populate the new tournament with. Includes:\n  ///    category: Discipline the tournament falls under.\n  ///    title: Name of the new tournament.\n  ///    contentHash: Off-chain content hash of tournament details (ipfs hash)\n  ///    Bounty: Total tournament reward in MTX.\n  ///    entryFee: Fee to charge participant upon entering into the tournament.\n  /// @param roundData Data to populate the first round of the tournament with. Includes:\n  ///    startTime: The start time (unix-epoch-based) of the first round.\n  ///    endTime: The end time (unix-epoch-based) of the first round.\n  ///    reviewPeriodDuration: The amount of the tournament owner has to determine the winners of the round.\n  ///    bounty: The reward for the first round's winners.\n  /// @return _tournamentAddress Address of the newly created tournament.\n  function createTournament(LibConstruction.TournamentData tournamentData, LibConstruction.RoundData roundData) returns (address _tournamentAddress)\n  {\n    IMatryxTournamentFactory tournamentFactory = IMatryxTournamentFactory(matryxTournamentFactoryAddress);\n    address newTournament = tournamentFactory.createTournament(tournamentData.category, tournamentData, roundData, msg.sender);\n    TournamentCreated(tournamentData.category, msg.sender, newTournament, tournamentData.title_1, tournamentData.title_2, tournamentData.title_3, tournamentData.descriptionHash_1, tournamentData.descriptionHash_2, tournamentData.bounty, tournamentData.entryFee);\n    \n    require(IMatryxToken(matryxTokenAddress).transferFrom(msg.sender, newTournament, tournamentData.bounty));\n    // IMatryxTournament(newTournament).sendBountyToRound(0, roundData.bounty);\n    // update data structures\n    allTournaments.push(newTournament);\n    tournamentExists[newTournament] = true;\n    updateUsersTournaments(msg.sender, newTournament);\n\n    addTournamentToCategory(newTournament, tournamentData.category);\n\n    return newTournament;\n  }\n\n  /*\n   * Access Control Methods\n   */\n\n  function createPeer() public returns (address)\n  {\n    require(ownerToPeerAndPeerToOwner[msg.sender] == 0x0);\n    IMatryxPeerFactory peerFactory = IMatryxPeerFactory(matryxPeerFactoryAddress);\n    address peer = peerFactory.createPeer(msg.sender);\n    peerExists[peer] = true;\n    ownerToPeerAndPeerToOwner[msg.sender] = peer;\n    ownerToPeerAndPeerToOwner[peer] = msg.sender;\n  }\n\n  function isPeer(address _peerAddress) public constant returns (bool)\n  {\n    return peerExists[_peerAddress];\n  }\n\n  function hasPeer(address _sender) public constant returns (bool)\n  {\n    return (ownerToPeerAndPeerToOwner[_sender] != 0x0);\n  }\n\n  function peerExistsAndOwnsSubmission(address _peer, address _reference) public constant returns (bool)\n  {\n    bool isAPeer = peerExists[_peer];\n    bool referenceIsSubmission = submissionExists[_reference];\n    bool peerOwnsSubmission = addressToOwnsSubmission[ownerToPeerAndPeerToOwner[_peer]][_reference];\n\n    return isAPeer && referenceIsSubmission && peerOwnsSubmission;\n  }\n\n  function peerAddress(address _sender) public constant returns (address)\n  {\n    return ownerToPeerAndPeerToOwner[_sender];\n  }\n\n  function isSubmission(address _submissionAddress) public constant returns (bool)\n  {\n    return submissionExists[_submissionAddress];\n  }\n\n  function hashForCategory(bytes32 _categoryHash) public constant returns (string _category)\n  {\n    return \"temporary category\";\n  }\n\n  /// @dev Returns whether or not the given tournament belongs to the sender.\n  /// @param _tournamentAddress Address of the tournament to check.\n  /// @return _isMine Whether or not the tournament belongs to the sender.\n  function getTournament_IsMine(address _tournamentAddress) public constant returns (bool _isMine)\n  {\n    require(tournamentExists[_tournamentAddress]);\n    Ownable tournament = Ownable(_tournamentAddress);\n    return (tournament.getOwner() == msg.sender);\n  }\n\n  /*\n   * Setter Methods\n   */ \n\n  /// @dev              Set the relative amount of MTX to be delivered to a submission's\n  ///                   references\n  /// @param _gratitude Weight from 0 to 1 (18 decimal uint) specifying enforced submission\n  ///                   gratitude\n  function setSubmissionGratitude(uint256 _gratitude) public onlyOwner\n  {\n      assert(_gratitude >= 0 && _gratitude <= (1*10**18));\n      submissionGratitude = uint256_optional({exists: true, value: _gratitude});\n  }\n\n  event TimeStamp(uint256 time);\n\n  function getNow() public view returns (uint256)\n  {\n    emit TimeStamp(now);\n    return now;\n  }\n\n  /*\n   * Getter Methods\n   */\n\n   function getTokenAddress() public constant returns (address)\n   {\n      return matryxTokenAddress;\n   }\n\n   function getTournamentFactoryAddress() public view returns (address)\n   {\n      return matryxTournamentFactoryAddress;\n   }\n\n   function getSubmissionTrustLibrary() public constant returns (address)\n   {\n      return matryxSubmissionTrustLibAddress;\n   }\n\n   /// @dev    Returns a weight from 0 to 1 (18 decimal uint) indicating\n   ///         how much of a submission's reward goes to its references.\n   /// @return Relative amount of MTX going to references of submissions under this tournament.\n   function getSubmissionGratitude() public constant returns (uint256)\n   {\n    require(submissionGratitude.exists);\n    return submissionGratitude.value;\n   }\n\n   /// @dev Returns addresses for submissions the sender has created.\n   /// @return Address array representing submissions.\n   function myTournaments() public constant returns (address[])\n   {\n    return ownerToTournamentArray[msg.sender];\n   }\n\n   function mySubmissions() public constant returns (address[])\n   {\n    return ownerToSubmissionArray[msg.sender];\n   }\n\n   /// @dev Returns the total number of tournaments\n   /// @return _tournamentCount Total number of tournaments.\n   function tournamentCount() public constant returns (uint256 _tournamentCount)\n   {\n       return allTournaments.length;\n   }\n \n   function getTournamentAtIndex(uint256 _index) public constant returns (address _tournamentAddress)\n   {\n     require(_index >= 0);\n     require(_index < allTournaments.length);\n     return allTournaments[_index];\n   }\n\n   function getTournaments() public view returns (address[])\n   {\n    return allTournaments;\n   }\n\n   function forceRevert(){\n    revert();\n   }\n}",
  "sourcePath": "/Users/maxhoward/Desktop/Ethereum/Development/Matryx/Projects/MatryxPlatform/contracts/MatryxPlatform.sol",
  "compiler": {
    "name": "solc",
    "version": "0.4.24+commit.e67f0147.Emscripten.clang"
  },
  "schemaVersion": "2.0.0",
  "updatedAt": "2018-07-03T00:20:24.215Z"
}