{
  "contractName": "MatryxTournament",
  "abi": [
    {
      "constant": true,
      "inputs": [],
      "name": "matryxTokenAddress",
      "outputs": [
        {
          "name": "",
          "type": "address"
        }
      ],
      "payable": false,
      "stateMutability": "view",
      "type": "function"
    },
    {
      "constant": true,
      "inputs": [
        {
          "name": "_sender",
          "type": "address"
        }
      ],
      "name": "isOwner",
      "outputs": [
        {
          "name": "_isOwner",
          "type": "bool"
        }
      ],
      "payable": false,
      "stateMutability": "view",
      "type": "function"
    },
    {
      "constant": true,
      "inputs": [],
      "name": "tournamentOpenedTime",
      "outputs": [
        {
          "name": "",
          "type": "uint256"
        }
      ],
      "payable": false,
      "stateMutability": "view",
      "type": "function"
    },
    {
      "constant": true,
      "inputs": [],
      "name": "matryxRoundFactoryAddress",
      "outputs": [
        {
          "name": "",
          "type": "address"
        }
      ],
      "payable": false,
      "stateMutability": "view",
      "type": "function"
    },
    {
      "constant": true,
      "inputs": [],
      "name": "owner",
      "outputs": [
        {
          "name": "",
          "type": "address"
        }
      ],
      "payable": false,
      "stateMutability": "view",
      "type": "function"
    },
    {
      "constant": true,
      "inputs": [],
      "name": "platformAddress",
      "outputs": [
        {
          "name": "",
          "type": "address"
        }
      ],
      "payable": false,
      "stateMutability": "view",
      "type": "function"
    },
    {
      "constant": true,
      "inputs": [],
      "name": "timeCreated",
      "outputs": [
        {
          "name": "",
          "type": "uint256"
        }
      ],
      "payable": false,
      "stateMutability": "view",
      "type": "function"
    },
    {
      "constant": false,
      "inputs": [
        {
          "name": "newOwner",
          "type": "address"
        }
      ],
      "name": "transferOwnership",
      "outputs": [],
      "payable": false,
      "stateMutability": "nonpayable",
      "type": "function"
    },
    {
      "inputs": [
        {
          "name": "_category",
          "type": "string"
        },
        {
          "components": [
            {
              "name": "category",
              "type": "string"
            },
            {
              "name": "title_1",
              "type": "bytes32"
            },
            {
              "name": "title_2",
              "type": "bytes32"
            },
            {
              "name": "title_3",
              "type": "bytes32"
            },
            {
              "name": "descriptionHash_1",
              "type": "bytes32"
            },
            {
              "name": "descriptionHash_2",
              "type": "bytes32"
            },
            {
              "name": "fileHash_1",
              "type": "bytes32"
            },
            {
              "name": "fileHash_2",
              "type": "bytes32"
            },
            {
              "name": "bounty",
              "type": "uint256"
            },
            {
              "name": "entryFee",
              "type": "uint256"
            }
          ],
          "name": "tournamentData",
          "type": "tuple"
        },
        {
          "components": [
            {
              "name": "start",
              "type": "uint256"
            },
            {
              "name": "end",
              "type": "uint256"
            },
            {
              "name": "reviewPeriodDuration",
              "type": "uint256"
            },
            {
              "name": "bounty",
              "type": "uint256"
            }
          ],
          "name": "roundData",
          "type": "tuple"
        },
        {
          "name": "_platformAddress",
          "type": "address"
        },
        {
          "name": "_matryxTokenAddress",
          "type": "address"
        },
        {
          "name": "_matryxRoundFactoryAddress",
          "type": "address"
        },
        {
          "name": "_owner",
          "type": "address"
        }
      ],
      "payable": false,
      "stateMutability": "nonpayable",
      "type": "constructor"
    },
    {
      "anonymous": false,
      "inputs": [
        {
          "indexed": false,
          "name": "_startTime",
          "type": "uint256"
        },
        {
          "indexed": false,
          "name": "_endTime",
          "type": "uint256"
        },
        {
          "indexed": false,
          "name": "_reviewPeriodDuration",
          "type": "uint256"
        },
        {
          "indexed": false,
          "name": "_roundAddress",
          "type": "address"
        },
        {
          "indexed": false,
          "name": "_roundNumber",
          "type": "uint256"
        }
      ],
      "name": "NewRound",
      "type": "event"
    },
    {
      "anonymous": false,
      "inputs": [
        {
          "indexed": false,
          "name": "_roundIndex",
          "type": "uint256"
        },
        {
          "indexed": false,
          "name": "_submissionAddress",
          "type": "address"
        }
      ],
      "name": "SubmissionCreated",
      "type": "event"
    },
    {
      "anonymous": false,
      "inputs": [
        {
          "indexed": false,
          "name": "_submissionAddresses",
          "type": "address[]"
        }
      ],
      "name": "RoundWinnersChosen",
      "type": "event"
    },
    {
      "constant": false,
      "inputs": [
        {
          "name": "_submissionAddress",
          "type": "address"
        }
      ],
      "name": "invokeSubmissionCreatedEvent",
      "outputs": [],
      "payable": false,
      "stateMutability": "nonpayable",
      "type": "function"
    },
    {
      "constant": false,
      "inputs": [
        {
          "name": "_submissionAddress",
          "type": "address"
        },
        {
          "name": "_author",
          "type": "address"
        }
      ],
      "name": "removeSubmission",
      "outputs": [
        {
          "name": "",
          "type": "bool"
        }
      ],
      "payable": false,
      "stateMutability": "nonpayable",
      "type": "function"
    },
    {
      "constant": true,
      "inputs": [
        {
          "name": "_sender",
          "type": "address"
        }
      ],
      "name": "isEntrant",
      "outputs": [
        {
          "name": "",
          "type": "bool"
        }
      ],
      "payable": false,
      "stateMutability": "view",
      "type": "function"
    },
    {
      "constant": true,
      "inputs": [],
      "name": "getState",
      "outputs": [
        {
          "name": "",
          "type": "uint256"
        }
      ],
      "payable": false,
      "stateMutability": "view",
      "type": "function"
    },
    {
      "constant": true,
      "inputs": [],
      "name": "getPlatform",
      "outputs": [
        {
          "name": "_platformAddress",
          "type": "address"
        }
      ],
      "payable": false,
      "stateMutability": "view",
      "type": "function"
    },
    {
      "constant": true,
      "inputs": [],
      "name": "getData",
      "outputs": [
        {
          "components": [
            {
              "name": "category",
              "type": "string"
            },
            {
              "name": "title_1",
              "type": "bytes32"
            },
            {
              "name": "title_2",
              "type": "bytes32"
            },
            {
              "name": "title_3",
              "type": "bytes32"
            },
            {
              "name": "descriptionHash_1",
              "type": "bytes32"
            },
            {
              "name": "descriptionHash_2",
              "type": "bytes32"
            },
            {
              "name": "fileHash_1",
              "type": "bytes32"
            },
            {
              "name": "fileHash_2",
              "type": "bytes32"
            },
            {
              "name": "bounty",
              "type": "uint256"
            },
            {
              "name": "entryFee",
              "type": "uint256"
            }
          ],
          "name": "_data",
          "type": "tuple"
        }
      ],
      "payable": false,
      "stateMutability": "view",
      "type": "function"
    },
    {
      "constant": true,
      "inputs": [
        {
          "name": "_roundAddress",
          "type": "address"
        }
      ],
      "name": "isRound",
      "outputs": [
        {
          "name": "_isRound",
          "type": "bool"
        }
      ],
      "payable": false,
      "stateMutability": "view",
      "type": "function"
    },
    {
      "constant": true,
      "inputs": [],
      "name": "getRounds",
      "outputs": [
        {
          "name": "_rounds",
          "type": "address[]"
        }
      ],
      "payable": false,
      "stateMutability": "view",
      "type": "function"
    },
    {
      "constant": true,
      "inputs": [],
      "name": "getTitle",
      "outputs": [
        {
          "name": "_title",
          "type": "bytes32[3]"
        }
      ],
      "payable": false,
      "stateMutability": "view",
      "type": "function"
    },
    {
      "constant": true,
      "inputs": [],
      "name": "getCategory",
      "outputs": [
        {
          "name": "_category",
          "type": "string"
        }
      ],
      "payable": false,
      "stateMutability": "view",
      "type": "function"
    },
    {
      "constant": true,
      "inputs": [],
      "name": "getOwner",
      "outputs": [
        {
          "name": "_owner",
          "type": "address"
        }
      ],
      "payable": false,
      "stateMutability": "view",
      "type": "function"
    },
    {
      "constant": true,
      "inputs": [],
      "name": "getDescriptionHash",
      "outputs": [
        {
          "name": "_descriptionHash",
          "type": "bytes32[2]"
        }
      ],
      "payable": false,
      "stateMutability": "view",
      "type": "function"
    },
    {
      "constant": true,
      "inputs": [],
      "name": "getFileHash",
      "outputs": [
        {
          "name": "_fileHash",
          "type": "bytes32[2]"
        }
      ],
      "payable": false,
      "stateMutability": "view",
      "type": "function"
    },
    {
      "constant": true,
      "inputs": [],
      "name": "currentRound",
      "outputs": [
        {
          "name": "_currentRound",
          "type": "uint256"
        },
        {
          "name": "_currentRoundAddress",
          "type": "address"
        }
      ],
      "payable": false,
      "stateMutability": "view",
      "type": "function"
    },
    {
      "constant": true,
      "inputs": [],
      "name": "getBounty",
      "outputs": [
        {
          "name": "_tournamentBounty",
          "type": "uint256"
        }
      ],
      "payable": false,
      "stateMutability": "view",
      "type": "function"
    },
    {
      "constant": true,
      "inputs": [],
      "name": "getBalance",
      "outputs": [
        {
          "name": "_tournamentBalance",
          "type": "uint256"
        }
      ],
      "payable": false,
      "stateMutability": "view",
      "type": "function"
    },
    {
      "constant": true,
      "inputs": [],
      "name": "mySubmissions",
      "outputs": [
        {
          "name": "",
          "type": "address[]"
        }
      ],
      "payable": false,
      "stateMutability": "view",
      "type": "function"
    },
    {
      "constant": true,
      "inputs": [],
      "name": "submissionCount",
      "outputs": [
        {
          "name": "_submissionCount",
          "type": "uint256"
        }
      ],
      "payable": false,
      "stateMutability": "view",
      "type": "function"
    },
    {
      "constant": true,
      "inputs": [],
      "name": "entrantCount",
      "outputs": [
        {
          "name": "_entrantCount",
          "type": "uint256"
        }
      ],
      "payable": false,
      "stateMutability": "view",
      "type": "function"
    },
    {
      "constant": false,
      "inputs": [
        {
          "components": [
            {
              "name": "title_1",
              "type": "bytes32"
            },
            {
              "name": "title_2",
              "type": "bytes32"
            },
            {
              "name": "title_3",
              "type": "bytes32"
            },
            {
              "name": "descriptionHash_1",
              "type": "bytes32"
            },
            {
              "name": "descriptionHash_2",
              "type": "bytes32"
            },
            {
              "name": "fileHash_1",
              "type": "bytes32"
            },
            {
              "name": "fileHash_2",
              "type": "bytes32"
            },
            {
              "name": "entryFee",
              "type": "uint256"
            },
            {
              "name": "entryFeeChanged",
              "type": "bool"
            }
          ],
          "name": "tournamentData",
          "type": "tuple"
        },
        {
          "name": "_category",
          "type": "string"
        }
      ],
      "name": "update",
      "outputs": [],
      "payable": false,
      "stateMutability": "nonpayable",
      "type": "function"
    },
    {
      "constant": false,
      "inputs": [
        {
          "name": "_submissionAddresses",
          "type": "address[]"
        },
        {
          "name": "_rewardDistribution",
          "type": "uint256[]"
        },
        {
          "components": [
            {
              "name": "start",
              "type": "uint256"
            },
            {
              "name": "end",
              "type": "uint256"
            },
            {
              "name": "reviewPeriodDuration",
              "type": "uint256"
            },
            {
              "name": "bounty",
              "type": "uint256"
            }
          ],
          "name": "_roundData",
          "type": "tuple"
        },
        {
          "name": "_selectWinnerAction",
          "type": "uint256"
        }
      ],
      "name": "selectWinners",
      "outputs": [],
      "payable": false,
      "stateMutability": "nonpayable",
      "type": "function"
    },
    {
      "constant": false,
      "inputs": [
        {
          "components": [
            {
              "name": "start",
              "type": "uint256"
            },
            {
              "name": "end",
              "type": "uint256"
            },
            {
              "name": "reviewPeriodDuration",
              "type": "uint256"
            },
            {
              "name": "bounty",
              "type": "uint256"
            }
          ],
          "name": "_roundData",
          "type": "tuple"
        }
      ],
      "name": "editGhostRound",
      "outputs": [],
      "payable": false,
      "stateMutability": "nonpayable",
      "type": "function"
    },
    {
      "constant": false,
      "inputs": [
        {
          "name": "_mtxAllocation",
          "type": "uint256"
        }
      ],
      "name": "allocateMoreToRound",
      "outputs": [],
      "payable": false,
      "stateMutability": "nonpayable",
      "type": "function"
    },
    {
      "constant": false,
      "inputs": [],
      "name": "jumpToNextRound",
      "outputs": [],
      "payable": false,
      "stateMutability": "nonpayable",
      "type": "function"
    },
    {
      "constant": false,
      "inputs": [],
      "name": "stopTournament",
      "outputs": [],
      "payable": false,
      "stateMutability": "nonpayable",
      "type": "function"
    },
    {
      "constant": false,
      "inputs": [
        {
          "components": [
            {
              "name": "start",
              "type": "uint256"
            },
            {
              "name": "end",
              "type": "uint256"
            },
            {
              "name": "reviewPeriodDuration",
              "type": "uint256"
            },
            {
              "name": "bounty",
              "type": "uint256"
            }
          ],
          "name": "roundData",
          "type": "tuple"
        },
        {
          "name": "_automaticCreation",
          "type": "bool"
        }
      ],
      "name": "createRound",
      "outputs": [
        {
          "name": "_roundAddress",
          "type": "address"
        }
      ],
      "payable": false,
      "stateMutability": "nonpayable",
      "type": "function"
    },
    {
      "constant": false,
      "inputs": [
        {
          "name": "_roundIndex",
          "type": "uint256"
        },
        {
          "name": "_bountyMTX",
          "type": "uint256"
        }
      ],
      "name": "sendBountyToRound",
      "outputs": [],
      "payable": false,
      "stateMutability": "nonpayable",
      "type": "function"
    },
    {
      "constant": false,
      "inputs": [
        {
          "name": "_entrantAddress",
          "type": "address"
        }
      ],
      "name": "enterUserInTournament",
      "outputs": [
        {
          "name": "_success",
          "type": "bool"
        }
      ],
      "payable": false,
      "stateMutability": "nonpayable",
      "type": "function"
    },
    {
      "constant": true,
      "inputs": [],
      "name": "getEntryFee",
      "outputs": [
        {
          "name": "",
          "type": "uint256"
        }
      ],
      "payable": false,
      "stateMutability": "view",
      "type": "function"
    },
    {
      "constant": false,
      "inputs": [],
      "name": "collectMyEntryFee",
      "outputs": [],
      "payable": false,
      "stateMutability": "nonpayable",
      "type": "function"
    },
    {
      "constant": false,
      "inputs": [
        {
          "name": "_contributors",
          "type": "address[]"
        },
        {
          "name": "_contributorRewardDistribution",
          "type": "uint128[]"
        },
        {
          "name": "_references",
          "type": "address[]"
        },
        {
          "components": [
            {
              "name": "title",
              "type": "string"
            },
            {
              "name": "owner",
              "type": "address"
            },
            {
              "name": "contentHash",
              "type": "bytes"
            },
            {
              "name": "isPublic",
              "type": "bool"
            }
          ],
          "name": "submissionData",
          "type": "tuple"
        }
      ],
      "name": "createSubmission",
      "outputs": [
        {
          "name": "_submissionAddress",
          "type": "address"
        }
      ],
      "payable": false,
      "stateMutability": "nonpayable",
      "type": "function"
    },
    {
      "constant": false,
      "inputs": [],
      "name": "withdrawFromAbandoned",
      "outputs": [],
      "payable": false,
      "stateMutability": "nonpayable",
      "type": "function"
    }
  ],
  "bytecode": "0x60806040523480156200001157600080fd5b50604051620032d4380380620032d48339810180604052620000379190810190620004f1565b6000805433600160a060020a031991821617909155600180548216600160a060020a038781169190911790915560028054831686831617905560038054831685831617905542600f5560048054909216908316179055855180518791600591620000a991839160209091019062000215565b50602082810151600183015560408301516002830155606083015160038301556080830151600483015560a083015160058084019190915560c0840151600684015560e0840151600784015561010084015160088401556101209093015160099092019190915588516200012192918a019062000215565b506200013885600064010000000062000146810204565b505050505050505062000748565b6001546002546003546040517fcfa037dc00000000000000000000000000000000000000000000000000000000815260009373__LibTournamentAdminMethods_____________9363cfa037dc93620001ba93601193600160a060020a039081169381169216908a908a9060040162000651565b60206040518083038186803b158015620001d357600080fd5b505af4158015620001e8573d6000803e3d6000fd5b505050506040513d601f19601f820116820180604052506200020e9190810190620004c8565b9392505050565b828054600181600116156101000203166002900490600052602060002090601f016020900481019282601f106200025857805160ff191683800117855562000288565b8280016001018555821562000288579182015b82811115620002885782518255916020019190600101906200026b565b50620002969291506200029a565b5090565b620002b791905b80821115620002965760008155600101620002a1565b90565b60006200020e825162000708565b60006200020e8251620002b7565b6000601f82018313620002e857600080fd5b8151620002ff620002f982620006e0565b620006b9565b915080825260208301602083018583830111156200031c57600080fd5b6200032983828462000719565b50505092915050565b6000608082840312156200034557600080fd5b620003516080620006b9565b90506000620003618484620002c8565b82525060206200037484848301620002c8565b60208301525060406200038a84828501620002c8565b6040830152506060620003a084828501620002c8565b60608301525092915050565b60006101408284031215620003c057600080fd5b620003cd610140620006b9565b82519091506001604060020a03811115620003e757600080fd5b620003f584828501620002d6565b82525060206200040884848301620002c8565b60208301525060406200041e84828501620002c8565b60408301525060606200043484828501620002c8565b60608301525060806200044a84828501620002c8565b60808301525060a06200046084828501620002c8565b60a08301525060c06200047684828501620002c8565b60c08301525060e06200048c84828501620002c8565b60e083015250610100620004a384828501620002c8565b61010083015250610120620004bb84828501620002c8565b6101208301525092915050565b600060208284031215620004db57600080fd5b6000620004e98484620002ba565b949350505050565b6000806000806000806000610140888a0312156200050e57600080fd5b87516001604060020a038111156200052557600080fd5b620005338a828b01620002d6565b97505060208801516001604060020a038111156200055057600080fd5b6200055e8a828b01620003ac565b9650506040620005718a828b0162000332565b95505060c0620005848a828b01620002ba565b94505060e0620005978a828b01620002ba565b935050610100620005ab8a828b01620002ba565b925050610120620005bf8a828b01620002ba565b91505092959891949750929550565b620005d98162000708565b82525050565b620005d98162000714565b80516080830190620005fd848262000646565b50602082015162000612602085018262000646565b50604082015162000627604085018262000646565b5060608201516200063c606085018262000646565b50505050565b9052565b620005d981620002b7565b610120810162000662828962000642565b620006716020830188620005ce565b620006806040830187620005ce565b6200068f6060830186620005ce565b6200069e6080830185620005ea565b620006ae610100830184620005df565b979650505050505050565b6040518181016001604060020a0381118282101715620006d857600080fd5b604052919050565b60006001604060020a03821115620006f757600080fd5b506020601f91909101601f19160190565b600160a060020a031690565b151590565b60005b83811015620007365781810151838201526020016200071c565b838111156200063c5750506000910152565b612b7c80620007586000396000f3006080604052600436106101ed5763ffffffff7c0100000000000000000000000000000000000000000000000000000000600035041663072a456081146101f257806312065fe01461021457806315dc132e1461023f5780631865c57d1461026c57806323721e2414610281578063245edf06146102a157806328d576d7146102c357806329cc545e146102f05780632f54bf6e146103055780632fc1f190146103255780633809eba21461033a5780633bc5de301461035a578063447411f31461037c57806345df1945146103915780634644c51b146103a657806352c01fab146103c6578063542fe6c2146103e65780636984d070146103fb5780636ec02be91461041d5780636fe564201461043257806380258e47146104475780638493f71f14610469578063893d20e81461047e57806389f3beb6146104935780638a19c8bc146104a85780638c1fc0bb146104cb5780638da5cb5b146104eb578063934b5fee146105005780639baec20714610520578063a968c4b914610535578063b6cd26db14610555578063c2f897bf14610575578063d3de0a6d1461058a578063dbe55e56146105aa578063e139a20c146105bf578063e586a4f0146105d4578063f1653f6e146105e9578063f2fde38b146105fe578063f49bff7b1461061e578063ff3c1a8f14610633575b600080fd5b3480156101fe57600080fd5b5061021261020d3660046121bf565b610655565b005b34801561022057600080fd5b50610229610719565b60405161023691906129df565b60405180910390f35b34801561024b57600080fd5b5061025f61025a366004611fc5565b6107de565b60405161023691906126a2565b34801561027857600080fd5b50610229610b01565b34801561028d57600080fd5b5061021261029c36600461222b565b610ba5565b3480156102ad57600080fd5b506102b6610ccd565b60405161023691906126dc565b3480156102cf57600080fd5b506102e36102de366004611f47565b610cf3565b60405161023691906126f8565b3480156102fc57600080fd5b5061025f610ddd565b34801561031157600080fd5b506102e3610320366004611f47565b610df9565b34801561033157600080fd5b5061025f610e1a565b34801561034657600080fd5b5061025f610355366004612145565b610e36565b34801561036657600080fd5b5061036f610e65565b6040516102369190612951565b34801561038857600080fd5b50610229610f6e565b34801561039d57600080fd5b50610212610f74565b3480156103b257600080fd5b506102126103c1366004611f47565b611014565b3480156103d257600080fd5b506102e36103e1366004611f47565b611077565b3480156103f257600080fd5b506102126110a2565b34801561040757600080fd5b5061041061112f565b60405161023691906126cb565b34801561042957600080fd5b506102296111a1565b34801561043e57600080fd5b5061025f6111a7565b34801561045357600080fd5b5061045c6111c3565b604051610236919061276e565b34801561047557600080fd5b506102b6611250565b34801561048a57600080fd5b5061025f611270565b34801561049f57600080fd5b5061022961128c565b3480156104b457600080fd5b506104bd611292565b6040516102369291906129ed565b3480156104d757600080fd5b506102e36104e6366004611f47565b611340565b3480156104f757600080fd5b5061025f61136b565b34801561050c57600080fd5b5061021261051b366004612085565b611387565b34801561052c57600080fd5b5061021261145b565b34801561054157600080fd5b506102e3610550366004611f8b565b6114f1565b34801561056157600080fd5b50610212610570366004612175565b61164f565b34801561058157600080fd5b50610212611718565b34801561059657600080fd5b506102126105a5366004612127565b61178d565b3480156105b657600080fd5b5061025f61181e565b3480156105cb57600080fd5b5061041061183a565b3480156105e057600080fd5b506102296118b9565b3480156105f557600080fd5b506102296118bf565b34801561060a57600080fd5b50610212610619366004611f47565b6118c5565b34801561062a57600080fd5b50610229611952565b34801561063f57600080fd5b506106486119c7565b60405161023691906126ea565b60045473ffffffffffffffffffffffffffffffffffffffff16331461067957600080fd5b6002546040517f5fd45f0b00000000000000000000000000000000000000000000000000000000815273__LibTournamentAdminMethods_____________91635fd45f0b916106e691601191869173ffffffffffffffffffffffffffffffffffffffff1690600401612936565b60006040518083038186803b1580156106fe57600080fd5b505af4158015610712573d6000803e3d6000fd5b5050505050565b6013546002546040517f70a082310000000000000000000000000000000000000000000000000000000081526000926107d992909173ffffffffffffffffffffffffffffffffffffffff909116906370a082319061077b9030906004016126a2565b602060405180830381600087803b15801561079557600080fd5b505af11580156107a9573d6000803e3d6000fd5b505050506040513d601f19601f820116820180604052506107cd91908101906121dd565b9063ffffffff6119ef16565b905090565b336000908152601a602052604081205460ff168015156107fd57600080fd5b6001546040517f532311c4000000000000000000000000000000000000000000000000000000008152339173ffffffffffffffffffffffffffffffffffffffff1690819063532311c4906108559085906004016126a2565b602060405180830381600087803b15801561086f57600080fd5b505af1158015610883573d6000803e3d6000fd5b505050506040513d601f19601f820116820180604052506108a79190810190612109565b15156108b257600080fd5b60006108bc611292565b9150600190508173ffffffffffffffffffffffffffffffffffffffff16631865c57d6040518163ffffffff167c0100000000000000000000000000000000000000000000000000000000028152600401602060405180830381600087803b15801561092657600080fd5b505af115801561093a573d6000803e3d6000fd5b505050506040513d601f19601f8201168201806040525061095e91908101906121dd565b141561096957600080fd5b6002610973610b01565b1461097d57600080fd5b6017541515610a2e57600154600654600754600854600954600a54600d54600e546040517f201afb7600000000000000000000000000000000000000000000000000000000815273ffffffffffffffffffffffffffffffffffffffff9098169763201afb76976109fb97909690959094909390929091600401612706565b600060405180830381600087803b158015610a1557600080fd5b505af1158015610a29573d6000803e3d6000fd5b505050505b6001546040517f3a9ed3e300000000000000000000000000000000000000000000000000000000815273__LibTournamentEntrantMethods___________91633a9ed3e391610aa49160119160169173ffffffffffffffffffffffffffffffffffffffff16908f908f908f908f90600401612898565b60206040518083038186803b158015610abc57600080fd5b505af4158015610ad0573d6000803e3d6000fd5b505050506040513d601f19601f82011682018060405250610af49190810190611f6d565b9998505050505050505050565b6040517f5726b16f00000000000000000000000000000000000000000000000000000000815260009073__LibTournamentStateManagement__________90635726b16f90610b559060119060040161277f565b60206040518083038186803b158015610b6d57600080fd5b505af4158015610b81573d6000803e3d6000fd5b505050506040513d601f19601f820116820180604052506107d991908101906121dd565b60015473ffffffffffffffffffffffffffffffffffffffff163314610bc957600080fd5b601454610bdc908263ffffffff611a0116565b6014556002546011805473ffffffffffffffffffffffffffffffffffffffff9092169163a9059cbb919085908110610c1057fe5b6000918252602090912001546040517c010000000000000000000000000000000000000000000000000000000063ffffffff8416028152610c6c9173ffffffffffffffffffffffffffffffffffffffff169085906004016126b0565b602060405180830381600087803b158015610c8657600080fd5b505af1158015610c9a573d6000803e3d6000fd5b505050506040513d601f19601f82011682018060405250610cbe9190810190612109565b1515610cc957600080fd5b5050565b610cd5611adf565b610cdd611adf565b6009548152600a548160015b6020020152905090565b60015460009073ffffffffffffffffffffffffffffffffffffffff163314610d1a57600080fd5b6002610d24610b01565b14610d2e57600080fd5b6040517fa09c5c9900000000000000000000000000000000000000000000000000000000815273__LibTournamentEntrantMethods___________9063a09c5c9990610d879060059060119060169088906004016129aa565b60206040518083038186803b158015610d9f57600080fd5b505af4158015610db3573d6000803e3d6000fd5b505050506040513d601f19601f82011682018060405250610dd79190810190612109565b92915050565b60025473ffffffffffffffffffffffffffffffffffffffff1681565b60005473ffffffffffffffffffffffffffffffffffffffff91821691161490565b60015473ffffffffffffffffffffffffffffffffffffffff1690565b3360009081526012602052604081205460ff161515610e5457600080fd5b610e5e8383611a10565b9392505050565b610e6d611afa565b60408051600580546101606020601f600260001961010060018716150201909416939093049283018190040284018101909452610140830181815292939192849290918491840182828015610f035780601f10610ed857610100808354040283529160200191610f03565b820191906000526020600020905b815481529060010190602001808311610ee657829003601f168201915b505050918352505060018201546020820152600282015460408201526003820154606082015260048201546080820152600582015460a0820152600682015460c0820152600782015460e0820152600882015461010082015260099091015461012090910152905090565b60105481565b6002546040517f734e4a1600000000000000000000000000000000000000000000000000000000815273__LibTournamentEntrantMethods___________9163734e4a1691610fe29160119160169173ffffffffffffffffffffffffffffffffffffffff169060040161287d565b60006040518083038186803b158015610ffa57600080fd5b505af415801561100e573d6000803e3d6000fd5b50505050565b3360009081526012602052604090205460ff16151561103257600080fd5b6011546040517f5fbb3d346317d5ecdb86412d4c69c7503ff4dbed1eccd4cb6290453ea0b1a3229161106c916000199091019084906129ed565b60405180910390a150565b73ffffffffffffffffffffffffffffffffffffffff166000908152601a602052604090205460ff1690565b336000908152601a602052604090205460ff168015156110c157600080fd5b6002546040517fddc23bd000000000000000000000000000000000000000000000000000000000815273__LibTournamentEntrantMethods___________9163ddc23bd0916106e69160119160169173ffffffffffffffffffffffffffffffffffffffff169060040161287d565b6060601160000180548060200260200160405190810160405280929190818152602001828054801561119757602002820191906000526020600020905b815473ffffffffffffffffffffffffffffffffffffffff16815260019091019060200180831161116c575b5050505050905090565b60175490565b60035473ffffffffffffffffffffffffffffffffffffffff1681565b60058054604080516020601f60026000196101006001881615020190951694909404938401819004810282018101909252828152606093909290918301828280156111975780601f1061122457610100808354040283529160200191611197565b820191906000526020600020905b81548152906001019060200180831161123257509395945050505050565b611258611adf565b611260611adf565b600b548152600c54816001610ce9565b60045473ffffffffffffffffffffffffffffffffffffffff1690565b601b5490565b60008073__LibTournamentStateManagement__________630386922b60116040518263ffffffff167c01000000000000000000000000000000000000000000000000000000000281526004016112e9919061277f565b604080518083038186803b15801561130057600080fd5b505af4158015611314573d6000803e3d6000fd5b505050506040513d601f19601f8201168201806040525061133891908101906121fb565b915091509091565b73ffffffffffffffffffffffffffffffffffffffff1660009081526012602052604090205460ff1690565b60045473ffffffffffffffffffffffffffffffffffffffff1681565b60045473ffffffffffffffffffffffffffffffffffffffff1633146113ab57600080fd5b6001546002546040517f5014b85100000000000000000000000000000000000000000000000000000000815273__LibTournamentAdminMethods_____________92635014b851926114259260119273ffffffffffffffffffffffffffffffffffffffff9081169216908a908a908a908a90600401612811565b60006040518083038186803b15801561143d57600080fd5b505af4158015611451573d6000803e3d6000fd5b5050505050505050565b60045473ffffffffffffffffffffffffffffffffffffffff16331461147f57600080fd5b6001546002546040517fa91d59d600000000000000000000000000000000000000000000000000000000815273__LibTournamentAdminMethods_____________9263a91d59d692610fe29260119273ffffffffffffffffffffffffffffffffffffffff90811692169060040161278d565b60015460009073ffffffffffffffffffffffffffffffffffffffff16331461151857600080fd5b73ffffffffffffffffffffffffffffffffffffffff80831660009081526019602090815260408083209387168352929052205460ff16151561155957600080fd5b60175461156d90600163ffffffff6119ef16565b60175573ffffffffffffffffffffffffffffffffffffffff808316600090815260186020908152604080832060198352818420948816845293909152902060010154815481106115b957fe5b6000918252602080832090910180547fffffffffffffffffffffffff000000000000000000000000000000000000000016905573ffffffffffffffffffffffffffffffffffffffff848116835260198252604080842091871684529152812080547fffffffffffffffffffffffffffffffffffffffffffffffffffffffffffffff00168155600190810191909155905092915050565b60045473ffffffffffffffffffffffffffffffffffffffff16331461167357600080fd5b6001546040517f45fbeca000000000000000000000000000000000000000000000000000000000815273__LibTournamentAdminMethods_____________916345fbeca0916116e4916005918791879173ffffffffffffffffffffffffffffffffffffffff90911690600401612962565b60006040518083038186803b1580156116fc57600080fd5b505af4158015611710573d6000803e3d6000fd5b505050505050565b60045473ffffffffffffffffffffffffffffffffffffffff16331461173c57600080fd5b6040517faf41094900000000000000000000000000000000000000000000000000000000815273__LibTournamentAdminMethods_____________9063af41094990610fe29060119060040161277f565b60045473ffffffffffffffffffffffffffffffffffffffff1633146117b157600080fd5b6002546040517f672ec62300000000000000000000000000000000000000000000000000000000815273__LibTournamentAdminMethods_____________9163672ec623916106e691601191869173ffffffffffffffffffffffffffffffffffffffff169060040161290e565b60015473ffffffffffffffffffffffffffffffffffffffff1681565b3360009081526018602090815260409182902080548351818402810184019094528084526060938493909291908301828280156118ad57602002820191906000526020600020905b815473ffffffffffffffffffffffffffffffffffffffff168152600190910190602001808311611882575b50939695505050505050565b600e5490565b600f5481565b60045473ffffffffffffffffffffffffffffffffffffffff1633146118e957600080fd5b73ffffffffffffffffffffffffffffffffffffffff8116151561190b57600080fd5b600080547fffffffffffffffffffffffff00000000000000000000000000000000000000001673ffffffffffffffffffffffffffffffffffffffff92909216919091179055565b6014546013546002546040517f70a082310000000000000000000000000000000000000000000000000000000081526000936107d99390926119bb9273ffffffffffffffffffffffffffffffffffffffff909116906370a082319061077b9030906004016126a2565b9063ffffffff611a0116565b6119cf611b4e565b6119d7611b4e565b60065481526007546020820152600854816002610ce9565b6000828211156119fb57fe5b50900390565b600082820183811015610e5e57fe5b6001546002546003546040517fcfa037dc00000000000000000000000000000000000000000000000000000000815260009373__LibTournamentAdminMethods_____________9363cfa037dc93611a8f9360119373ffffffffffffffffffffffffffffffffffffffff9081169381169216908a908a906004016127b5565b60206040518083038186803b158015611aa757600080fd5b505af4158015611abb573d6000803e3d6000fd5b505050506040513d601f19601f82011682018060405250610e5e9190810190611f6d565b60408051808201825290600290829080388339509192915050565b6040805161014081018252606080825260006020830181905292820183905281018290526080810182905260a0810182905260c0810182905260e08101829052610100810182905261012081019190915290565b6060604051908101604052806003906020820280388339509192915050565b6000610e5e8235612aaf565b6000610e5e8251612aaf565b6000601f82018313611b9657600080fd5b8135611ba9611ba482612a2f565b612a08565b91508181835260208401935060208101905083856020840282011115611bce57600080fd5b60005b83811015611bfa5781611be48882611b6d565b8452506020928301929190910190600101611bd1565b5050505092915050565b6000601f82018313611c1557600080fd5b8135611c23611ba482612a2f565b91508181835260208401935060208101905083856020840282011115611c4857600080fd5b60005b83811015611bfa5781611c5e8882611f2f565b8452506020928301929190910190600101611c4b565b6000601f82018313611c8557600080fd5b8135611c93611ba482612a2f565b91508181835260208401935060208101905083856020840282011115611cb857600080fd5b60005b83811015611bfa5781611cce8882611cfc565b8452506020928301929190910190600101611cbb565b6000610e5e8235612ac8565b6000610e5e8251612ac8565b6000610e5e8235612a9c565b6000601f82018313611d1957600080fd5b8135611d27611ba482612a50565b91508082526020830160208301858383011115611d4357600080fd5b611d4e838284612ae2565b50505092915050565b600060808284031215611d6957600080fd5b611d736080612a08565b90506000611d818484611cfc565b8252506020611d9284848301611cfc565b6020830152506040611da684828501611cfc565b6040830152506060611dba84828501611cfc565b60608301525092915050565b600060808284031215611dd857600080fd5b611de26080612a08565b9050813567ffffffffffffffff811115611dfb57600080fd5b611e0784828501611d08565b8252506020611e1884848301611b6d565b602083015250604082013567ffffffffffffffff811115611e3857600080fd5b611e4484828501611d08565b6040830152506060611dba84828501611ce4565b60006101208284031215611e6b57600080fd5b611e76610120612a08565b90506000611e848484611cfc565b8252506020611e9584848301611cfc565b6020830152506040611ea984828501611cfc565b6040830152506060611ebd84828501611cfc565b6060830152506080611ed184828501611cfc565b60808301525060a0611ee584828501611cfc565b60a08301525060c0611ef984828501611cfc565b60c08301525060e0611f0d84828501611cfc565b60e083015250610100611f2284828501611ce4565b6101008301525092915050565b6000610e5e8235612acd565b6000610e5e8251612a9c565b600060208284031215611f5957600080fd5b6000611f658484611b6d565b949350505050565b600060208284031215611f7f57600080fd5b6000611f658484611b79565b60008060408385031215611f9e57600080fd5b6000611faa8585611b6d565b9250506020611fbb85828601611b6d565b9150509250929050565b60008060008060808587031215611fdb57600080fd5b843567ffffffffffffffff811115611ff257600080fd5b611ffe87828801611b85565b945050602085013567ffffffffffffffff81111561201b57600080fd5b61202787828801611c04565b935050604085013567ffffffffffffffff81111561204457600080fd5b61205087828801611b85565b925050606085013567ffffffffffffffff81111561206d57600080fd5b61207987828801611dc6565b91505092959194509250565b60008060008060e0858703121561209b57600080fd5b843567ffffffffffffffff8111156120b257600080fd5b6120be87828801611b85565b945050602085013567ffffffffffffffff8111156120db57600080fd5b6120e787828801611c74565b93505060406120f887828801611d57565b92505060c061207987828801611cfc565b60006020828403121561211b57600080fd5b6000611f658484611cf0565b60006080828403121561213957600080fd5b6000611f658484611d57565b60008060a0838503121561215857600080fd5b60006121648585611d57565b9250506080611fbb85828601611ce4565b600080610140838503121561218957600080fd5b60006121958585611e58565b92505061012083013567ffffffffffffffff8111156121b357600080fd5b611fbb85828601611d08565b6000602082840312156121d157600080fd5b6000611f658484611cfc565b6000602082840312156121ef57600080fd5b6000611f658484611f3b565b6000806040838503121561220e57600080fd5b600061221a8585611f3b565b9250506020611fbb85828601611b79565b6000806040838503121561223e57600080fd5b600061224a8585611cfc565b9250506020611fbb85828601611cfc565b61226481612aaf565b82525050565b600061227582612a9f565b80845260208401935061228783612a96565b60005b828110156122b75761229d86835161225b565b6122a682612a96565b60209690960195915060010161228a565b5093949350505050565b60006122cc82612a9f565b8084526020840193506122de83612a96565b60005b828110156122b7576122f486835161225b565b6122fd82612a96565b6020969096019591506001016122e1565b61231781612aa3565b61232082612a9c565b60005b8281101561071257612336858351612435565b61233f82612a96565b602095909501949150600101612323565b61235981612aa9565b61236282612a9c565b60005b8281101561071257612378858351612435565b61238182612a96565b602095909501949150600101612365565b600061239d82612a9f565b8084526020840193506123af83612a96565b60005b828110156122b7576123c5868351612699565b6123ce82612a96565b6020969096019591506001016123b2565b60006123ea82612a9f565b8084526020840193506123fc83612a96565b60005b828110156122b757612412868351612435565b61241b82612a96565b6020969096019591506001016123ff565b61226481612ac8565b61226481612a9c565b600061244982612a9f565b80845261245d816020860160208601612aee565b61246681612b1a565b9093016020019392505050565b9052565b805160808301906124888482612435565b50602082015161249b6020850182612435565b5060408201516124ae6040850182612435565b50606082015161100e6060850182612435565b80516080808452600091908401906124d9828261243e565b91505060208301516124ee602086018261225b565b5060408301518482036040860152612506828261243e565b915050606083015161251b606086018261242c565b509392505050565b80516101408084526000919084019061253c828261243e565b91505060208301516125516020860182612435565b5060408301516125646040860182612435565b5060608301516125776060860182612435565b50608083015161258a6080860182612435565b5060a083015161259d60a0860182612435565b5060c08301516125b060c0860182612435565b5060e08301516125c360e0860182612435565b506101008301516125d8610100860182612435565b5061012083015161251b610120860182612435565b80516101208301906125ff8482612435565b5060208201516126126020850182612435565b5060408201516126256040850182612435565b5060608201516126386060850182612435565b50608082015161264b6080850182612435565b5060a082015161265e60a0850182612435565b5060c082015161267160c0850182612435565b5060e082015161268460e0850182612435565b5061010082015161100e61010085018261242c565b61226481612acd565b60208101610dd7828461225b565b604081016126be828561225b565b610e5e6020830184612435565b60208082528101610e5e818461226a565b60408101610dd7828461230e565b60608101610dd78284612350565b60208101610dd7828461242c565b60e08101612714828a612435565b6127216020830189612435565b61272e6040830188612435565b61273b6060830187612435565b6127486080830186612435565b61275560a0830185612435565b61276260c0830184612435565b98975050505050505050565b60208082528101610e5e818461243e565b60208101610dd78284612473565b6060810161279b8286612473565b6127a8602083018561225b565b611f65604083018461225b565b61012081016127c48289612473565b6127d1602083018861225b565b6127de604083018761225b565b6127eb606083018661225b565b6127f86080830185612477565b61280661010083018461242c565b979650505050505050565b6101408101612820828a612473565b61282d602083018961225b565b61283a604083018861225b565b818103606083015261284c81876122c1565b9050818103608083015261286081866123df565b905061286f60a0830185612477565b612762610120830184612435565b6060810161288b8286612473565b6127a86020830185612473565b60e081016128a6828a612473565b6128b36020830189612473565b6128c0604083018861225b565b81810360608301526128d281876122c1565b905081810360808301526128e68186612392565b905081810360a08301526128fa81856122c1565b905081810360c0830152610af481846124c1565b60c0810161291c8286612473565b6129296020830185612477565b611f6560a083018461225b565b606081016129448286612473565b6127a86020830185612435565b60208082528101610e5e8184612523565b61018081016129718287612473565b61297e60208301866125ed565b818103610140830152612991818561243e565b90506129a161016083018461225b565b95945050505050565b608081016129b88287612473565b6129c56020830186612473565b6129d26040830185612473565b6129a1606083018461225b565b60208101610dd78284612435565b604081016129fb8285612435565b610e5e602083018461225b565b60405181810167ffffffffffffffff81118282101715612a2757600080fd5b604052919050565b600067ffffffffffffffff821115612a4657600080fd5b5060209081020190565b600067ffffffffffffffff821115612a6757600080fd5b506020601f919091017fffffffffffffffffffffffffffffffffffffffffffffffffffffffffffffffe0160190565b60200190565b90565b5190565b50600290565b50600390565b73ffffffffffffffffffffffffffffffffffffffff1690565b151590565b6fffffffffffffffffffffffffffffffff1690565b82818337506000910152565b60005b83811015612b09578181015183820152602001612af1565b8381111561100e5750506000910152565b601f017fffffffffffffffffffffffffffffffffffffffffffffffffffffffffffffffe016905600a265627a7a723058207a712757f5b2d550c4daa96a71efdbe5f5eaff8ecd034fb6543006318cc10a8a6c6578706572696d656e74616cf50037",
  "source": " pragma solidity ^0.4.18;\n pragma experimental ABIEncoderV2;\n\nimport \"../libraries/strings/strings.sol\";\nimport \"../libraries/math/SafeMath.sol\";\nimport \"../libraries/LibConstruction.sol\";\n//import \"../libraries/interfaces/tournament/iLibTournamentStateManagement.sol\";\nimport \"../libraries/tournament/LibTournamentStateManagement.sol\";\nimport \"../libraries/tournament/LibTournamentAdminMethods.sol\";\nimport \"../libraries/tournament/LibTournamentEntrantMethods.sol\";\nimport \"../interfaces/IMatryxPlatform.sol\";\nimport \"../interfaces/IMatryxTournament.sol\";\nimport \"../interfaces/factories/IMatryxRoundFactory.sol\";\nimport \"../interfaces/IMatryxRound.sol\";\nimport \"../interfaces/IMatryxToken.sol\";\nimport \"./Ownable.sol\";\n\n/// @title Tournament - The Matryx tournament.\n/// @author Max Howard - <max@nanome.ai>, Sam Hessenauer - <sam@nanome.ai>\ncontract MatryxTournament is Ownable, IMatryxTournament {\n    using SafeMath for uint256;\n    using strings for *;\n    using LibTournamentAdminMethods for LibConstruction.TournamentData;\n\n    // TODO: condense and put in structs\n    // Platform identification\n    address public platformAddress;\n    address public matryxTokenAddress;\n    address public matryxRoundFactoryAddress;\n\n    // TODO: Create setter for this (resume here for upgrade system.)\n    // address public libTournamentStateManagement;\n\n    //Tournament identification\n    address public owner;\n    LibConstruction.TournamentData data;\n    // Timing and State\n    uint256 public timeCreated;\n    uint256 public tournamentOpenedTime;\n    LibTournamentStateManagement.StateData stateData;\n    // Submission tracking\n    LibTournamentStateManagement.EntryData entryData;\n\n    // address roundDelegate;\n    // bytes4 fnSelector_chooseWinner = bytes4(keccak256(\"chooseWinner(address)\"));\n    // bytes4 fnSelector_createRound = bytes4(keccak256(\"createRound(uint256)\"));\n    // bytes4 fnSelector_startRound = bytes4(keccak256(\"startRound(uint256)\"));\n\n    constructor(string _category, LibConstruction.TournamentData tournamentData, LibConstruction.RoundData roundData, address _platformAddress, address _matryxTokenAddress, address _matryxRoundFactoryAddress, address _owner) \n    {\n        //Clean inputs\n        //require(_owner != 0x0);\n        //require(tournamentData.title[0] != 0x0);\n        //require(tournamentData.Bounty > 0);\n        //require(_matryxRoundFactoryAddress != 0x0);\n        \n        platformAddress = _platformAddress;\n        matryxTokenAddress = _matryxTokenAddress;\n        matryxRoundFactoryAddress = _matryxRoundFactoryAddress;\n\n        timeCreated = now;\n        // Identification\n        owner = _owner;\n        data = tournamentData;\n        data.category = _category;\n\n        _createRound(roundData, false);\n        // roundDelegate = IMatryxPlatform(platformAddress).getRoundLibAddress();\n    }\n\n    /*\n     * Structs\n     */\n\n    struct uint256_optional\n    {\n        bool exists;\n        uint256 value;\n    }\n\n    struct SubmissionLocation\n    {\n        uint256 roundIndex;\n        uint256 submissionIndex;\n    }\n\n    /*\n     * Events\n     */\n\n    event NewRound(uint256 _startTime, uint256 _endTime, uint256 _reviewPeriodDuration, address _roundAddress, uint256 _roundNumber);\n    //event RoundStarted(uint256 _roundIndex);\n    // Fired at the end of every round, one time per submission created in that round\n    event SubmissionCreated(uint256 _roundIndex, address _submissionAddress);\n    event RoundWinnersChosen(address[] _submissionAddresses);\n\n    /// @dev Allows rounds to invoke SubmissionCreated events on this tournament.\n    /// @param _submissionAddress Address of the submission.\n    function invokeSubmissionCreatedEvent(address _submissionAddress) public onlyRound\n    {\n        emit SubmissionCreated(stateData.rounds.length-1, _submissionAddress);\n    }\n\n    /*\n     * Modifiers\n     */\n\n    /// @dev Requires the function caller to be the platform.\n    modifier onlyPlatform()\n    {\n        require(msg.sender == platformAddress);\n        _;\n    }\n\n    modifier onlyRound()\n    {\n        require(stateData.isRound[msg.sender]);\n        _;\n    }\n\n    // modifier onlySubmission(address _submissionAddress, address _author)\n    // {\n    //     // If the submission does not exist,\n    //     // the address of the submission we return will not be msg.sender\n    //     // It will either be \n    //     // 1) The first submission, or\n    //     // 2) all 0s from having deleted it previously.\n    //     uint256 indexOfSubmission = entrantToSubmissionToSubmissionIndex[_author][_submissionAddress].value;\n    //     address submissionAddress = entrantToSubmissions[_author][indexOfSubmission];\n    //     require(_submissionAddress == msg.sender);\n    //     _;\n    // }\n\n    modifier onlyPeerLinked(address _sender)\n    {\n        IMatryxPlatform platform = IMatryxPlatform(platformAddress);\n        require(platform.hasPeer(_sender));\n        _;\n    }\n\n    /// @dev Requires the function caller to be an entrant.\n    modifier onlyEntrant()\n    {\n        bool senderIsEntrant = entryData.addressToEntryFeePaid[msg.sender].exists;\n        require(senderIsEntrant);\n        _;\n    }\n\n    /// @dev Requires the function caller to be the platform or the owner of this tournament\n    modifier platformOrOwner()\n    {\n        require((msg.sender == platformAddress)||(msg.sender == owner));\n        _;\n    }\n\n    modifier whileTournamentOpen()\n    {\n        require(getState() == uint256(TournamentState.Open));\n        _;\n    }\n\n    modifier ifRoundHasFunds()\n    {\n        // require((IMatryxRound(currentRound()[1]).getState()) != uint256(RoundState.Unfunded));\n        address currentRoundAddress;\n\n        (,currentRoundAddress) = currentRound();\n        require(IMatryxRound(currentRoundAddress).getState() != uint256(RoundState.Unfunded));\n        _;\n    }\n\n    modifier onlyOwner()\n    {\n        require(msg.sender == owner);\n        _;\n    }\n\n    // /// @dev Requires the tournament to be open.\n    // modifier duringReviewPeriod()\n    // {\n    //     // TODO: Finish me!\n    //     require(isInReview());\n    //     _;\n    // }\n\n    // TODO: Use MatryxToken\n    // modifier whileBountyLeft(uint256 _nextRoundBounty)\n    // {\n    //     require(BountyLeft.sub(_nextRoundBounty) >= 0);\n    //     _;\n    // }\n\n    /*\n    * State Maintenance Methods\n    */\n\n    function removeSubmission(address _submissionAddress, address _author) public onlyPlatform returns (bool)\n    {\n        require(entryData.entrantToSubmissionToSubmissionIndex[_author][_submissionAddress].exists);\n        entryData.numberOfSubmissions = entryData.numberOfSubmissions.sub(1);\n        delete entryData.entrantToSubmissions[_author][entryData.entrantToSubmissionToSubmissionIndex[_author][_submissionAddress].value];\n        delete entryData.entrantToSubmissionToSubmissionIndex[_author][_submissionAddress];\n        return true;\n    }\n\n    /*\n     * Access Control Methods\n     */\n\n    /// @dev Returns whether or not the sender is an entrant in this tournament\n    /// @param _sender Explicit sender address.\n    /// @return Whether or not the sender is an entrant in this tournament.\n    function isEntrant(address _sender) public view returns (bool)\n    {\n        return entryData.addressToEntryFeePaid[_sender].exists;\n    }\n\n    enum TournamentState { NotYetOpen, OnHold, Open, Closed, Abandoned}\n    enum RoundState { NotYetOpen, Unfunded, Open, InReview, HasWinners, Closed, Abandoned }\n    enum ParticipantType { Nonentrant, Entrant, Contributor, Author }\n    enum SelectWinnerAction { DoNothing, StartNextRound, CloseTournament }\n    /// @dev Returns the state of the tournament. One of:\n    /// NotYetOpen, Open, Closed, Abandoned\n    function getState() public view returns (uint256)\n    {\n        return LibTournamentStateManagement.getState(stateData);\n    }\n\n    /*\n     * Getter Methods\n     */\n\n    function getPlatform() public view returns (address _platformAddress)\n    {\n        return platformAddress;\n    }\n\n    function getData() public view returns (LibConstruction.TournamentData _data)\n    {\n        return data;\n    }\n\n    function isRound(address _roundAddress) public view returns (bool _isRound)\n    {\n        return stateData.isRound[_roundAddress];\n    }\n\n    function getRounds() public view returns (address[] _rounds)\n    {\n        return stateData.rounds;\n    }\n\n    function getTitle() public view returns (bytes32[3] _title)\n    {\n        bytes32[3] memory title;\n        title[0] = data.title_1;\n        title[1] = data.title_2;\n        title[2] = data.title_3;\n        return title;\n    }\n\n    function getCategory() public view returns (string _category)\n    {\n        // return IMatryxPlatform(platformAddress).hashForCategory(categoryHash);\n        // TODO: Fix me\n        return data.category;\n    }\n\n    function getOwner() public view returns (address _owner)\n    {\n        return owner;\n    }\n\n    // @dev Returns the external address of the tournament.\n    // @return _descriptionHash Off-chain content hash of tournament details (ipfs hash)\n    function getDescriptionHash() public view returns (bytes32[2] _descriptionHash)\n    {\n        bytes32[2] memory descriptionHash;\n        descriptionHash[0] = data.descriptionHash_1;\n        descriptionHash[1] = data.descriptionHash_2;\n        return descriptionHash;\n    }\n\n    function getFileHash() public view returns (bytes32[2] _fileHash)\n    {\n        bytes32[2] memory fileHash;\n        fileHash[0] = data.fileHash_1;\n        fileHash[1] = data.fileHash_2;\n        return fileHash;\n    }\n\n    /// @dev Returns the current round number.\n    /// @return _currentRound Number of the current round.\n    function currentRound() public view returns (uint256 _currentRound, address _currentRoundAddress)\n    {\n        return LibTournamentStateManagement.currentRound(stateData);\n    }\n\n    ///@dev Returns this tournament's bounty.\n    function getBounty() public view returns (uint256 _tournamentBounty)\n    {  \n        return IMatryxToken(matryxTokenAddress).balanceOf(address(this)).sub(stateData.entryFeesTotal).add(stateData.roundBountyAllocation);\n    }\n\n    // @dev Returns the remaining bounty this tournament is able to award.\n    function getBalance() public view returns (uint256 _tournamentBalance)\n    {\n        return IMatryxToken(matryxTokenAddress).balanceOf(address(this)).sub(stateData.entryFeesTotal);\n    }\n\n    ///@dev Returns the round that was created implicitly for the user after they chose the \"DoNothing\" option\n    ///     when choosing their round winners.\n    ///@return _ghostAddress Address of the upcoming round created during winner selection\n    function getGhostRound() internal returns (uint256 _index, address _ghostAddress)\n    {\n        return LibTournamentStateManagement.getGhostRound(stateData);\n    }\n\n    /// @dev Returns all of the sender's submissions to this tournament.\n    /// @return (_roundIndices[], _submissionIndices[]) Locations of the sender's submissions.\n    function mySubmissions() public view returns (address[])\n    {\n        address[] memory _mySubmissions = entryData.entrantToSubmissions[msg.sender];\n        return _mySubmissions;\n    }\n\n    /// @dev Returns the number of submissions made to this tournament.\n    /// @return _submissionCount Number of submissions made to this tournament.\n    function submissionCount() public view returns (uint256 _submissionCount)\n    {\n        return entryData.numberOfSubmissions;\n    }\n\n    function entrantCount() public view returns (uint256 _entrantCount)\n    {\n        return entryData.numberOfEntrants;\n    }\n\n    /*\n     * Setter Methods\n     */\n\n    function update(LibConstruction.TournamentModificationData tournamentData, string _category) public onlyOwner\n    {\n        data.update(tournamentData, _category, platformAddress);\n    }\n\n    /*\n     * Tournament Admin Methods\n     */\n\n    /// @dev Chooses the winner(s) of the current round. If this is the last round, \n    //       this method will also close the tournament.\n    /// @param _submissionAddresses The winning submission addresses\n    /// @param _rewardDistribution Distribution indicating how to split the reward among the submissions\n    function selectWinners(address[] _submissionAddresses, uint256[] _rewardDistribution, LibConstruction.RoundData _roundData, uint256 _selectWinnerAction) public onlyOwner\n    {\n        LibTournamentAdminMethods.selectWinners(stateData, platformAddress, matryxTokenAddress, _submissionAddresses, _rewardDistribution, _roundData, _selectWinnerAction);\n    }\n\n    function editGhostRound(LibConstruction.RoundData _roundData) public onlyOwner\n    {\n\n        LibTournamentAdminMethods.editGhostRound(stateData, _roundData, matryxTokenAddress);\n    }\n\n    ///@dev Allocates some of this tournament's balance to the current round\n    function allocateMoreToRound(uint256 _mtxAllocation) public onlyOwner\n    {\n        LibTournamentAdminMethods.allocateMoreToRound(stateData, _mtxAllocation, matryxTokenAddress);\n    }\n\n    /// @dev This function should be called after the user selects winners for their tournament and chooses the \"DoNothing\" option\n    function jumpToNextRound() public onlyOwner\n    {\n        LibTournamentAdminMethods.jumpToNextRound(stateData);\n    }\n\n    /// @dev This function closes the tournament after the tournament owner selects their winners with the \"DoNothing\" option\n    function stopTournament() public onlyOwner\n    {\n        LibTournamentAdminMethods.stopTournament(stateData, platformAddress, matryxTokenAddress);\n    }\n\n    /// @dev Creates a new round.\n    /// @return The new round's address.\n    function createRound(LibConstruction.RoundData roundData, bool _automaticCreation) public onlyRound returns (address _roundAddress)\n    {\n        return _createRound(roundData, _automaticCreation);\n    }\n\n    function _createRound(LibConstruction.RoundData roundData, bool _automaticCreation) private returns (address _roundAddress)\n    {\n        return LibTournamentAdminMethods.createRound(stateData, platformAddress, matryxTokenAddress, matryxRoundFactoryAddress, roundData, _automaticCreation);\n    }\n\n    function sendBountyToRound(uint256 _roundIndex, uint256 _bountyMTX) public onlyPlatform\n    {\n        stateData.roundBountyAllocation = stateData.roundBountyAllocation.add(_bountyMTX);\n        require(IMatryxToken(matryxTokenAddress).transfer(stateData.rounds[_roundIndex], _bountyMTX));\n    }\n\n    /*\n     * Entrant Methods\n     */\n\n    // LibTournamentEntrantMethods\n    /// @dev Enters the user into the tournament.\n    /// @param _entrantAddress Address of the user to enter.\n    /// @return success Whether or not the user was entered successfully.\n    function enterUserInTournament(address _entrantAddress) public onlyPlatform whileTournamentOpen returns (bool _success)\n    {\n        return LibTournamentEntrantMethods.enterUserInTournament(data, stateData, entryData, _entrantAddress);\n    }\n\n    /// @dev Returns the fee in MTX to be payed by a prospective entrant.\n    /// @return Entry fee for this tournament.\n    function getEntryFee() public view returns (uint256)\n    {\n        return data.entryFee;\n    }\n\n    function collectMyEntryFee() public\n    {\n        LibTournamentEntrantMethods.collectMyEntryFee(stateData, entryData, matryxTokenAddress);\n    }\n\n    function createSubmission(address[] _contributors, uint128[] _contributorRewardDistribution, address[] _references, LibConstruction.SubmissionData submissionData) public onlyEntrant onlyPeerLinked(msg.sender) ifRoundHasFunds whileTournamentOpen returns (address _submissionAddress)\n    {\n        if(entryData.numberOfSubmissions == 0)\n        {\n            IMatryxPlatform(platformAddress).invokeTournamentOpenedEvent(data.title_1, data.title_2, data.title_3, data.descriptionHash_1, data.descriptionHash_2, data.bounty, data.entryFee);\n        }\n\n        return LibTournamentEntrantMethods.createSubmission(stateData, entryData, platformAddress, _contributors, _contributorRewardDistribution, _references, submissionData);\n    }\n\n    function withdrawFromAbandoned() public onlyEntrant\n    {\n        LibTournamentEntrantMethods.withdrawFromAbandoned(stateData, entryData, matryxTokenAddress);\n    }\n}",
  "sourcePath": "/Users/maxhoward/Desktop/Ethereum/Development/Matryx/Projects/MatryxPlatform/contracts/MatryxTournament.sol",
  "compiler": {
    "name": "solc",
    "version": "0.4.24+commit.e67f0147.Emscripten.clang"
  },
  "schemaVersion": "2.0.0",
  "updatedAt": "2018-07-03T23:43:25.633Z"
}