{
  "contractName": "MatryxSubmissionFactory",
  "abi": [
    {
      "constant": false,
      "inputs": [
        {
          "name": "_platformAddress",
          "type": "address"
        },
        {
          "name": "_tournamentAddress",
          "type": "address"
        },
        {
          "name": "_roundAddress",
          "type": "address"
        },
        {
          "name": "_title",
          "type": "string"
        },
        {
          "name": "_submissionOwner",
          "type": "address"
        },
        {
          "name": "_submissionAuthor",
          "type": "address"
        },
        {
          "name": "_externalAddress",
          "type": "bytes"
        },
        {
          "name": "_references",
          "type": "address[]"
        },
        {
          "name": "_contributors",
          "type": "address[]"
        },
        {
          "name": "_publicallyAccessibleDuringTournament",
          "type": "bool"
        }
      ],
      "name": "createSubmission",
      "outputs": [
        {
          "name": "_submissionAddress",
          "type": "address"
        }
      ],
      "payable": false,
      "stateMutability": "nonpayable",
      "type": "function"
    }
  ],
  "bytecode": "0x6060604052341561000f57600080fd5b6127238061001e6000396000f3006060604052600436106100405763ffffffff7c0100000000000000000000000000000000000000000000000000000000600035041663288d58bd8114610045575b600080fd5b341561005057600080fd5b6101ab6004803573ffffffffffffffffffffffffffffffffffffffff908116916024803583169260443516919060849060643590810190830135806020601f82018190048102016040519081016040528181529291906020840183838082843750949673ffffffffffffffffffffffffffffffffffffffff87358116976020808201359092169750919550606082019450604091820135860180820194503592508291601f830182900482029091019051908101604052818152929190602084018383808284378201915050505050509190803590602001908201803590602001908080602002602001604051908101604052809392919081815260200183836020028082843782019150505050505091908035906020019082018035906020019080806020026020016040519081016040528093929190818152602001838360200280828437509496505050509135151591506101d49050565b60405173ffffffffffffffffffffffffffffffffffffffff909116815260200160405180910390f35b6000808b8b8b8b8b8b8b8b8b8b6101e96103bd565b73ffffffffffffffffffffffffffffffffffffffff808c1682528a8116602083015289811660408301528781166080830152861660a0820152811515610120820152610140606082018181529060c083019060e084019061010085019085018c818151815260200191508051906020019080838360005b83811015610278578082015183820152602001610260565b50505050905090810190601f1680156102a55780820380516001836020036101000a031916815260200191505b50858103845289818151815260200191508051906020019080838360005b838110156102db5780820151838201526020016102c3565b50505050905090810190601f1680156103085780820380516001836020036101000a031916815260200191505b50858103835288818151815260200191508051906020019060200280838360005b83811015610341578082015183820152602001610329565b50505050905001858103825287818151815260200191508051906020019060200280838360005b83811015610380578082015183820152602001610368565b505050509050019e505050505050505050505050505050604051809103906000f08015156103ad57600080fd5b9c9b505050505050505050505050565b60405161232a806103ce83390190560060606040526040517f6164645265666572656e636528616464726573732900000000000000000000008152601501604051908190039020601580547c010000000000000000000000000000000000000000000000000000000090920475010000000000000000000000000000000000000000000260a860020a63ffffffff02199092169190911790556040517f72656d6f76655265666572656e636528616464726573732900000000000000008152601801604051908190039020601580547c01000000000000000000000000000000000000000000000000000000009092047901000000000000000000000000000000000000000000000000000260c860020a63ffffffff02199092169190911790556040517f617070726f76655265666572656e63652861646472657373290000000000000081526019016040519081900390206016805463ffffffff19167c01000000000000000000000000000000000000000000000000000000009092049190911790556040517f72656d6f76655265666572656e6365417070726f76616c2861646472657373298152602001604051908190039020601680547c01000000000000000000000000000000000000000000000000000000009092046401000000000267ffffffff00000000199092169190911790556040517f666c61674d697373696e675265666572656e63652861646472657373290000008152601d01604051908190039020601680547c01000000000000000000000000000000000000000000000000000000009092046801000000000000000002604060020a63ffffffff02199092169190911790556040517f72656d6f76654d697373696e675265666572656e6365466c616728616464726581527f73732900000000000000000000000000000000000000000000000000000000006020820152602301604051908190039020601680547c01000000000000000000000000000000000000000000000000000000009092046c0100000000000000000000000002606060020a63ffffffff02199092169190911790556040517f72657665727449665265666572656e6365466c6167676564286164647265737381527f29000000000000000000000000000000000000000000000000000000000000006020820152602101604051908190039020601680547c010000000000000000000000000000000000000000000000000000000090920470010000000000000000000000000000000002608060020a63ffffffff02199092169190911790553415620003ae57600080fd5b6040516200232a3803806200232a83398101604052808051919060200180519190602001805191906020018051820191906020018051919060200180519190602001805182019190602001805182019190602001805182019190602001805160008054600160a060020a03191633600160a060020a039081169190911782559193509150861615156200044057600080fd5b60018054600160a060020a03808e16600160a060020a031992831617909255600280548d841690831617905560038054928c1692909116919091179055600488805162000492929160200190620006a1565b5060008054600160a060020a03808a16600160a060020a03199283161790925560058054928916929091169190911790556006858051620004d8929160200190620006a1565b506007848051620004ee92916020019062000726565b508a600160a060020a031663f3dc0d256000604051602001526040518163ffffffff167c0100000000000000000000000000000000000000000000000000000000028152600401602060405180830381600087803b15156200054f57600080fd5b6102c65a03f115156200056157600080fd5b505050604051805160158054600160a060020a039092166101000261010060a860020a031990921691909117905550600090505b60075463ffffffff8216101562000665576001600e600060078463ffffffff16815481101515620005c257fe5b6000918252602080832090910154600160a060020a03168352820192909252604001812080549215156401000000000264ff000000001990931692909217909155600780548392600e92909163ffffffff85169081106200061f57fe5b600091825260208083209190910154600160a060020a031683528201929092526040019020805463ffffffff191663ffffffff9290921691909117905560010162000595565b60128380516200067a92916020019062000726565b5050426013556015805460ff191691151591909117905550620007d5975050505050505050565b828054600181600116156101000203166002900490600052602060002090601f016020900481019282601f10620006e457805160ff191683800117855562000714565b8280016001018555821562000714579182015b8281111562000714578251825591602001919060010190620006f7565b50620007229291506200078e565b5090565b82805482825590600052602060002090810192821562000780579160200282015b82811115620007805782518254600160a060020a031916600160a060020a03919091161782556020929092019160019091019062000747565b5062000722929150620007ae565b620007ab91905b8082111562000722576000815560010162000795565b90565b620007ab91905b8082111562000722578054600160a060020a0319168155600101620007b5565b611b4580620007e56000396000f3006060604052600436106101ea5763ffffffff60e060020a6000350416630cbfdb2d81146101ef5780630eff2507146102105780630fb3395c1461024b57806310f835301461026a57806312065fe0146102bb5780631abaf3fc146102e057806323bab50b146102f35780632f54bf6e1461031257806332c9c9d31461034557806337fb13b014610364578063444e31ca146103b55780635c11a3e4146103c85780636e27bcc61461045257806374756091146104815780637a6337fa1461049757806382966f8b146104fd5780638905458314610535578063893d20e81461054b5780638da5cb5b1461055e5780638efa5410146105715780639c1b92a1146105845780639f8743f71461059a578063a0bf8fe3146105ad578063a33d9543146105c0578063a52dd12f146105d3578063a5faa125146105f2578063ac260ba014610605578063ae1ca69214610618578063af157c191461062b578063b579184f1461063e578063b86e321c1461065d578063c7af35511461067c578063c86569781461068f578063c885bc58146106a2578063e4e3e83a146106b5578063e7139ec0146106d4578063e76c293e146106f3578063e786bb9814610706578063e9946c2314610725578063f2fde38b14610738578063f5c758d614610757578063ff3c1a8f1461076a575b600080fd5b34156101fa57600080fd5b61020e600160a060020a036004351661077d565b005b341561021b57600080fd5b61022f600160a060020a03600435166107f4565b6040519115158252151560208201526040908101905180910390f35b341561025657600080fd5b61020e600160a060020a036004351661082d565b341561027557600080fd5b61020e60046024813581810190830135806020601f820181900481020160405190810160405281815292919060208401838380828437509496506108c195505050505050565b34156102c657600080fd5b6102ce610967565b60405190815260200160405180910390f35b34156102eb57600080fd5b6102ce6109e9565b34156102fe57600080fd5b61020e600160a060020a03600435166109ef565b341561031d57600080fd5b610331600160a060020a0360043516610a87565b604051901515815260200160405180910390f35b341561035057600080fd5b61020e600160a060020a0360043516610a9b565b341561036f57600080fd5b61020e60046024813581810190830135806020601f82018190048102016040519081016040528181529291906020840183838082843750949650610b0b95505050505050565b34156103c057600080fd5b61020e610bad565b34156103d357600080fd5b6103db610be1565b60405160208082528190810183818151815260200191508051906020019080838360005b838110156104175780820151838201526020016103ff565b50505050905090810190601f1680156104445780820380516001836020036101000a031916815260200191505b509250505060405180910390f35b341561045d57600080fd5b610465610ca0565b604051600160a060020a03909116815260200160405180910390f35b341561048c57600080fd5b61020e600435610cb4565b34156104a257600080fd5b6104aa610d06565b60405160208082528190810183818151815260200191508051906020019060200280838360005b838110156104e95780820151838201526020016104d1565b505050509050019250505060405180910390f35b341561050857600080fd5b610510610d83565b6040516fffffffffffffffffffffffffffffffff909116815260200160405180910390f35b341561054057600080fd5b610465600435610d9b565b341561055657600080fd5b610465610dc3565b341561056957600080fd5b610465610dd3565b341561057c57600080fd5b6102ce610de2565b341561058f57600080fd5b610465600435610de8565b34156105a557600080fd5b610465610df6565b34156105b857600080fd5b61020e610e05565b34156105cb57600080fd5b6102ce610e36565b34156105de57600080fd5b610331600160a060020a0360043516610f48565b34156105fd57600080fd5b6104656112bb565b341561061057600080fd5b6103316112e3565b341561062357600080fd5b6102ce6112ec565b341561063657600080fd5b6104aa6112f2565b341561064957600080fd5b61020e600160a060020a036004351661136e565b341561066857600080fd5b61020e600160a060020a036004351661143d565b341561068757600080fd5b61020e611735565b341561069a57600080fd5b6102ce611764565b34156106ad57600080fd5b61020e61176a565b34156106c057600080fd5b61020e600160a060020a036004351661179d565b34156106df57600080fd5b61020e600160a060020a0360043516611809565b34156106fe57600080fd5b61046561186d565b341561071157600080fd5b61020e600160a060020a036004351661187c565b341561073057600080fd5b6102ce6118d6565b341561074357600080fd5b61020e600160a060020a03600435166118dc565b341561076257600080fd5b61020e61193b565b341561077557600080fd5b6103db611965565b601554601654610100909104600160a060020a03169060e060020a6c010000000000000000000000009091048102048260405160e060020a63ffffffff8416028152600160a060020a0390911660048201526024016000604051808303818661646e5a03f49250505015156107f157600080fd5b50565b600160a060020a03166000908152600e6020908152604080832054600c9092529091205460ff6601000000000000909204821692911690565b60005433600160a060020a0390811691161461084857600080fd5b601554600160a060020a036101008204169060e060020a75010000000000000000000000000000000000000000009091048102048260405160e060020a63ffffffff8416028152600160a060020a0390911660048201526024016000604051808303818661646e5a03f49250505015156107f157600080fd5b60005433600160a060020a039081169116146108dc57600080fd5b600354600160a060020a0316806347535d7b6000604051602001526040518163ffffffff1660e060020a028152600401602060405180830381600087803b151561092557600080fd5b6102c65a03f1151561093657600080fd5b50505060405180519050151561094b57600080fd5b600682805161095e929160200190611a53565b50504260145550565b600354600090600160a060020a0316818163f8b2cb4f30836040516020015260405160e060020a63ffffffff8416028152600160a060020a039091166004820152602401602060405180830381600087803b15156109c457600080fd5b6102c65a03f115156109d557600080fd5b50505060405180519350839150505b505090565b60105481565b60005433600160a060020a03908116911614610a0a57600080fd5b601554600160a060020a036101008204169060e060020a7901000000000000000000000000000000000000000000000000009091048102048260405160e060020a63ffffffff8416028152600160a060020a0390911660048201526024016000604051808303818661646e5a03f49250505015156107f157600080fd5b600054600160a060020a0391821691161490565b601554601654610100909104600160a060020a03169060e060020a680100000000000000009091048102048260405160e060020a63ffffffff8416028152600160a060020a0390911660048201526024016000604051808303818661646e5a03f49250505015156107f157600080fd5b60005433600160a060020a03908116911614610b2657600080fd5b600354600160a060020a0316806347535d7b6000604051602001526040518163ffffffff1660e060020a028152600401602060405180830381600087803b1515610b6f57600080fd5b6102c65a03f11515610b8057600080fd5b505050604051805190501515610b9557600080fd5b6004828051610ba8929160200190611a53565b505050565b60015433600160a060020a03908116911614610bc857600080fd5b601154610bdc90600163ffffffff6119ed16565b601155565b610be9611acd565b33610bf381610f48565b1515610bfe57600080fd5b60068054600181600116156101000203166002900480601f016020809104026020016040519081016040528092919081815260200182805460018160011615610100020316600290048015610c945780601f10610c6957610100808354040283529160200191610c94565b820191906000526020600020905b815481529060010190602001808311610c7757829003601f168201915b505050505091505b5090565b6015546101009004600160a060020a031681565b60005433600160a060020a03908116911614610ccf57600080fd5b6012805482908110610cdd57fe5b6000918252602090912001805473ffffffffffffffffffffffffffffffffffffffff1916905550565b610d0e611acd565b33610d1881610f48565b1515610d2357600080fd5b6007805480602002602001604051908101604052809291908181526020018280548015610c9457602002820191906000526020600020905b8154600160a060020a03168152600190910190602001808311610d5b57505050505091505090565b6009546fffffffffffffffffffffffffffffffff1681565b600b805482908110610da957fe5b600091825260209091200154600160a060020a0316905081565b600054600160a060020a03165b90565b600054600160a060020a031681565b60145490565b600d805482908110610da957fe5b600354600160a060020a031690565b60035433600160a060020a03908116911614610e2057600080fd5b610e286119ff565b600554600160a060020a0316ff5b6000806000610e43610967565b9150600a5460001415610e6d57600d546000901115610e6557600092506109e4565b8192506109e4565b600154610efe90600160a060020a031663b20a2dce6000604051602001526040518163ffffffff1660e060020a028152600401602060405180830381600087803b1515610eb957600080fd5b6102c65a03f11515610eca57600080fd5b50505060405180516009546fffffffffffffffffffffffffffffffff169150670de0b6b3a76400000363ffffffff611a0916565b9050610f15600a5482611a2d90919063ffffffff16565b9050610f27818363ffffffff611a0916565b9050610f4181670de0b6b3a764000063ffffffff611a2d16565b9392505050565b600354600254600091600160a060020a03908116911682808080808080808089632fc1f19082604051602001526040518163ffffffff1660e060020a028152600401602060405180830381600087803b1515610fa357600080fd5b6102c65a03f11515610fb457600080fd5b50505060405180519050600160a060020a03168d600160a060020a0316149850600360009054906101000a9004600160a060020a0316600160a060020a03168d600160a060020a0316149750600560009054906101000a9004600160a060020a0316600160a060020a03168d600160a060020a0316149650601560009054906101000a900460ff169550600360009054906101000a9004600160a060020a0316600160a060020a031663a68e8a866000604051602001526040518163ffffffff1660e060020a028152600401602060405180830381600087803b151561109957600080fd5b6102c65a03f115156110aa57600080fd5b505050604051805190508061111e5750600254600160a060020a031663a68e8a866000604051602001526040518163ffffffff1660e060020a028152600401602060405180830381600087803b151561110257600080fd5b6102c65a03f1151561111357600080fd5b505050604051805190505b600254909550600160a060020a03166352c01fab8e60006040516020015260405160e060020a63ffffffff8416028152600160a060020a039091166004820152602401602060405180830381600087803b151561117a57600080fd5b6102c65a03f1151561118b57600080fd5b5050506040518051945050600160a060020a038a16632f54bf6e8e60006040516020015260405160e060020a63ffffffff8416028152600160a060020a039091166004820152602401602060405180830381600087803b15156111ed57600080fd5b6102c65a03f115156111fe57600080fd5b50505060405180519050925084801561121b5750828061121b5750835b91508a600160a060020a03166347535d7b6000604051602001526040518163ffffffff1660e060020a028152600401602060405180830381600087803b151561126357600080fd5b6102c65a03f1151561127457600080fd5b50505060405180519050159050888061128a5750875b806112925750865b8061129a5750855b806112a25750815b806112aa5750805b9d9c50505050505050505050505050565b6000336112c781610f48565b15156112d257600080fd5b5050600554600160a060020a031690565b60155460ff1681565b60135490565b6112fa611acd565b3361130481610f48565b151561130f57600080fd5b6012805480602002602001604051908101604052809291908181526020018280548015610c9457602002820191906000526020600020908154600160a060020a03168152600190910190602001808311610d5b57505050505091505090565b6000805433600160a060020a0390811691161461138a57600080fd5b601280546001810161139c8382611adf565b506000918252602090912001805473ffffffffffffffffffffffffffffffffffffffff1916600160a060020a038481169190911790915560035416905080631cdb7de583600260405160e060020a63ffffffff8516028152600160a060020a0390921660048301526024820152604401600060405180830381600087803b151561142557600080fd5b6102c65a03f1151561143657600080fd5b5050505050565b6000805460035482918291829182918291829133600160a060020a03908116928116831492911614818061146e5750805b151561147957600080fd5b611481610967565b600154909950600160a060020a03166310fe9ae86000604051602001526040518163ffffffff1660e060020a028152600401602060405180830381600087803b15156114cc57600080fd5b6102c65a03f115156114dd57600080fd5b5050506040518051905097506114f1610e36565b965087600160a060020a031663a9059cbb8b8960006040516020015260405160e060020a63ffffffff8516028152600160a060020a0390921660048301526024820152604401602060405180830381600087803b151561155057600080fd5b6102c65a03f1151561156157600080fd5b50505060405180515061157c9050898863ffffffff6119ed16565b9550600094505b60075485101561172957600e60006007878154811015156115a057fe5b6000918252602080832090910154600160a060020a0316835282019290925260400190205460ff65010000000000909104161561171e57611663600a54611657670de0b6b3a7640000600e600060078b8154811015156115fc57fe5b6000918252602080832090910154600160a060020a031683528201929092526040019020600101546fffffffffffffffffffffffffffffffff700100000000000000000000000000000000909104169063ffffffff611a0916565b9063ffffffff611a2d16565b9350611681670de0b6b3a7640000611657888763ffffffff611a0916565b925087600160a060020a031663a9059cbb6007878154811015156116a157fe5b6000918252602082200154600160a060020a03169086906040516020015260405160e060020a63ffffffff8516028152600160a060020a0390921660048301526024820152604401602060405180830381600087803b151561170257600080fd5b6102c65a03f1151561171357600080fd5b505050604051805150505b600190940193611583565b50505050505050505050565b60015433600160a060020a0390811691161461175057600080fd5b601154610bdc90600163ffffffff611a4416565b60115481565b60005460035433600160a060020a03908116928116831492911614818061178e5750805b151561179957600080fd5b5050565b601554601654610100909104600160a060020a03169060e060020a6401000000009091048102048260405160e060020a63ffffffff8416028152600160a060020a0390911660048201526024016000604051808303818661646e5a03f49250505015156107f157600080fd5b601554601654610100909104600160a060020a03169060e060020a908102048260405160e060020a63ffffffff8416028152600160a060020a0390911660048201526024016000604051808303818661646e5a03f49250505015156107f157600080fd5b600254600160a060020a031690565b60005433600160a060020a0390811691161461189757600080fd5b60158054600160a060020a03909216610100027fffffffffffffffffffffff0000000000000000000000000000000000000000ff909216919091179055565b600a5481565b60005433600160a060020a039081169116146118f757600080fd5b600160a060020a038116151561190c57600080fd5b6000805473ffffffffffffffffffffffffffffffffffffffff1916600160a060020a0392909216919091179055565b60005433600160a060020a0390811691161461195657600080fd5b6015805460ff19166001179055565b61196d611acd565b3361197781610f48565b151561198257600080fd5b60048054600181600116156101000203166002900480601f016020809104026020016040519081016040528092919081815260200182805460018160011615610100020316600290048015610c945780601f10610c6957610100808354040283529160200191610c94565b6000828211156119f957fe5b50900390565b611a0761176a565b565b6000828202831580611a255750828482811515611a2257fe5b04145b1515610f4157fe5b6000808284811515611a3b57fe5b04949350505050565b600082820183811015610f4157fe5b828054600181600116156101000203166002900490600052602060002090601f016020900481019282601f10611a9457805160ff1916838001178555611ac1565b82800160010185558215611ac1579182015b82811115611ac1578251825591602001919060010190611aa6565b50610c9c929150611aff565b60206040519081016040526000815290565b815481835581811511610ba857600083815260209020610ba89181019083015b610dd091905b80821115610c9c5760008155600101611b055600a165627a7a723058203c5a8a1ff2ae150657ae1068cc23ff1b6d632be9434baef8304bba11e0cea4610029a165627a7a723058204bf77e8e6a1d0aa6305ff0048e26fc78f9eb5b8681ba07990e5dcad8f07f39430029",
  "source": "pragma solidity ^0.4.18;\n\nimport '../MatryxSubmission.sol';\n\ncontract MatryxSubmissionFactory {\n\n\tfunction createSubmission(address _platformAddress, address _tournamentAddress, address _roundAddress, string _title, address _submissionOwner, address _submissionAuthor, bytes _externalAddress, address[] _references, address[] _contributors, bool _publicallyAccessibleDuringTournament) public returns (address _submissionAddress) {\n\t\tMatryxSubmission submission = new MatryxSubmission(_platformAddress, _tournamentAddress, _roundAddress, _title, _submissionOwner, _submissionAuthor, _externalAddress, _references, _contributors, _publicallyAccessibleDuringTournament);\n\t\treturn submission;\n\t}\n}",
  "sourcePath": "/Users/maxhoward/Desktop/Ethereum/Development/Matryx AWS/Projects/matryx-alpha-source/contracts/factories/MatryxSubmissionFactory.sol",
  "compiler": {
    "name": "solc",
    "version": "0.4.19+commit.c4cbbb05.Emscripten.clang"
  },
  "schemaVersion": "2.0.0",
  "updatedAt": "2018-03-27T17:39:36.752Z"
}