{
  "contractName": "MatryxTournament",
  "abi": [
    {
      "constant": true,
      "inputs": [],
      "name": "matryxTokenAddress",
      "outputs": [
        {
          "name": "",
          "type": "address"
        }
      ],
      "payable": false,
      "stateMutability": "view",
      "type": "function"
    },
    {
      "constant": true,
      "inputs": [
        {
          "name": "_sender",
          "type": "address"
        }
      ],
      "name": "isOwner",
      "outputs": [
        {
          "name": "_isOwner",
          "type": "bool"
        }
      ],
      "payable": false,
      "stateMutability": "view",
      "type": "function"
    },
    {
      "constant": true,
      "inputs": [],
      "name": "tournamentOpenedTime",
      "outputs": [
        {
          "name": "",
          "type": "uint256"
        }
      ],
      "payable": false,
      "stateMutability": "view",
      "type": "function"
    },
    {
      "constant": true,
      "inputs": [],
      "name": "matryxRoundFactoryAddress",
      "outputs": [
        {
          "name": "",
          "type": "address"
        }
      ],
      "payable": false,
      "stateMutability": "view",
      "type": "function"
    },
    {
      "constant": true,
      "inputs": [],
      "name": "owner",
      "outputs": [
        {
          "name": "",
          "type": "address"
        }
      ],
      "payable": false,
      "stateMutability": "view",
      "type": "function"
    },
    {
      "constant": true,
      "inputs": [],
      "name": "platformAddress",
      "outputs": [
        {
          "name": "",
          "type": "address"
        }
      ],
      "payable": false,
      "stateMutability": "view",
      "type": "function"
    },
    {
      "constant": true,
      "inputs": [],
      "name": "timeCreated",
      "outputs": [
        {
          "name": "",
          "type": "uint256"
        }
      ],
      "payable": false,
      "stateMutability": "view",
      "type": "function"
    },
    {
      "constant": false,
      "inputs": [
        {
          "name": "newOwner",
          "type": "address"
        }
      ],
      "name": "transferOwnership",
      "outputs": [],
      "payable": false,
      "stateMutability": "nonpayable",
      "type": "function"
    },
    {
      "inputs": [
        {
          "name": "_category",
          "type": "string"
        },
        {
          "components": [
            {
              "name": "category",
              "type": "string"
            },
            {
              "name": "title_1",
              "type": "bytes32"
            },
            {
              "name": "title_2",
              "type": "bytes32"
            },
            {
              "name": "title_3",
              "type": "bytes32"
            },
            {
              "name": "descriptionHash_1",
              "type": "bytes32"
            },
            {
              "name": "descriptionHash_2",
              "type": "bytes32"
            },
            {
              "name": "fileHash_1",
              "type": "bytes32"
            },
            {
              "name": "fileHash_2",
              "type": "bytes32"
            },
            {
              "name": "bounty",
              "type": "uint256"
            },
            {
              "name": "entryFee",
              "type": "uint256"
            }
          ],
          "name": "tournamentData",
          "type": "tuple"
        },
        {
          "components": [
            {
              "name": "start",
              "type": "uint256"
            },
            {
              "name": "end",
              "type": "uint256"
            },
            {
              "name": "reviewPeriodDuration",
              "type": "uint256"
            },
            {
              "name": "bounty",
              "type": "uint256"
            }
          ],
          "name": "roundData",
          "type": "tuple"
        },
        {
          "name": "_platformAddress",
          "type": "address"
        },
        {
          "name": "_matryxTokenAddress",
          "type": "address"
        },
        {
          "name": "_matryxRoundFactoryAddress",
          "type": "address"
        },
        {
          "name": "_owner",
          "type": "address"
        }
      ],
      "payable": false,
      "stateMutability": "nonpayable",
      "type": "constructor"
    },
    {
      "anonymous": false,
      "inputs": [
        {
          "indexed": false,
          "name": "_startTime",
          "type": "uint256"
        },
        {
          "indexed": false,
          "name": "_endTime",
          "type": "uint256"
        },
        {
          "indexed": false,
          "name": "_reviewPeriodDuration",
          "type": "uint256"
        },
        {
          "indexed": false,
          "name": "_roundAddress",
          "type": "address"
        },
        {
          "indexed": false,
          "name": "_roundNumber",
          "type": "uint256"
        }
      ],
      "name": "NewRound",
      "type": "event"
    },
    {
      "anonymous": false,
      "inputs": [
        {
          "indexed": false,
          "name": "_roundIndex",
          "type": "uint256"
        },
        {
          "indexed": false,
          "name": "_submissionAddress",
          "type": "address"
        }
      ],
      "name": "SubmissionCreated",
      "type": "event"
    },
    {
      "anonymous": false,
      "inputs": [
        {
          "indexed": false,
          "name": "_submissionAddresses",
          "type": "address[]"
        }
      ],
      "name": "RoundWinnersChosen",
      "type": "event"
    },
    {
      "constant": false,
      "inputs": [
        {
          "name": "_submissionAddress",
          "type": "address"
        }
      ],
      "name": "invokeSubmissionCreatedEvent",
      "outputs": [],
      "payable": false,
      "stateMutability": "nonpayable",
      "type": "function"
    },
    {
      "constant": false,
      "inputs": [
        {
          "name": "_submissionAddress",
          "type": "address"
        },
        {
          "name": "_author",
          "type": "address"
        }
      ],
      "name": "removeSubmission",
      "outputs": [
        {
          "name": "",
          "type": "bool"
        }
      ],
      "payable": false,
      "stateMutability": "nonpayable",
      "type": "function"
    },
    {
      "constant": true,
      "inputs": [
        {
          "name": "_sender",
          "type": "address"
        }
      ],
      "name": "isEntrant",
      "outputs": [
        {
          "name": "",
          "type": "bool"
        }
      ],
      "payable": false,
      "stateMutability": "view",
      "type": "function"
    },
    {
      "constant": true,
      "inputs": [],
      "name": "getState",
      "outputs": [
        {
          "name": "",
          "type": "uint256"
        }
      ],
      "payable": false,
      "stateMutability": "view",
      "type": "function"
    },
    {
      "constant": true,
      "inputs": [],
      "name": "getPlatform",
      "outputs": [
        {
          "name": "_platformAddress",
          "type": "address"
        }
      ],
      "payable": false,
      "stateMutability": "view",
      "type": "function"
    },
    {
      "constant": true,
      "inputs": [],
      "name": "getData",
      "outputs": [
        {
          "components": [
            {
              "name": "category",
              "type": "string"
            },
            {
              "name": "title_1",
              "type": "bytes32"
            },
            {
              "name": "title_2",
              "type": "bytes32"
            },
            {
              "name": "title_3",
              "type": "bytes32"
            },
            {
              "name": "descriptionHash_1",
              "type": "bytes32"
            },
            {
              "name": "descriptionHash_2",
              "type": "bytes32"
            },
            {
              "name": "fileHash_1",
              "type": "bytes32"
            },
            {
              "name": "fileHash_2",
              "type": "bytes32"
            },
            {
              "name": "bounty",
              "type": "uint256"
            },
            {
              "name": "entryFee",
              "type": "uint256"
            }
          ],
          "name": "_data",
          "type": "tuple"
        }
      ],
      "payable": false,
      "stateMutability": "view",
      "type": "function"
    },
    {
      "constant": true,
      "inputs": [],
      "name": "getTitle",
      "outputs": [
        {
          "name": "_title",
          "type": "bytes32[3]"
        }
      ],
      "payable": false,
      "stateMutability": "view",
      "type": "function"
    },
    {
      "constant": true,
      "inputs": [],
      "name": "getCategory",
      "outputs": [
        {
          "name": "_category",
          "type": "string"
        }
      ],
      "payable": false,
      "stateMutability": "view",
      "type": "function"
    },
    {
      "constant": true,
      "inputs": [],
      "name": "getOwner",
      "outputs": [
        {
          "name": "_owner",
          "type": "address"
        }
      ],
      "payable": false,
      "stateMutability": "view",
      "type": "function"
    },
    {
      "constant": true,
      "inputs": [],
      "name": "getDescriptionHash",
      "outputs": [
        {
          "name": "_descriptionHash",
          "type": "bytes32[2]"
        }
      ],
      "payable": false,
      "stateMutability": "view",
      "type": "function"
    },
    {
      "constant": true,
      "inputs": [],
      "name": "getFileHash",
      "outputs": [
        {
          "name": "_fileHash",
          "type": "bytes32[2]"
        }
      ],
      "payable": false,
      "stateMutability": "view",
      "type": "function"
    },
    {
      "constant": true,
      "inputs": [],
      "name": "currentRound",
      "outputs": [
        {
          "name": "_currentRound",
          "type": "uint256"
        },
        {
          "name": "_currentRoundAddress",
          "type": "address"
        }
      ],
      "payable": false,
      "stateMutability": "view",
      "type": "function"
    },
    {
      "constant": true,
      "inputs": [],
      "name": "getBounty",
      "outputs": [
        {
          "name": "_tournamentBounty",
          "type": "uint256"
        }
      ],
      "payable": false,
      "stateMutability": "view",
      "type": "function"
    },
    {
      "constant": true,
      "inputs": [],
      "name": "getBalance",
      "outputs": [
        {
          "name": "_tournamentBalance",
          "type": "uint256"
        }
      ],
      "payable": false,
      "stateMutability": "view",
      "type": "function"
    },
    {
      "constant": true,
      "inputs": [],
      "name": "mySubmissions",
      "outputs": [
        {
          "name": "",
          "type": "address[]"
        }
      ],
      "payable": false,
      "stateMutability": "view",
      "type": "function"
    },
    {
      "constant": true,
      "inputs": [],
      "name": "submissionCount",
      "outputs": [
        {
          "name": "_submissionCount",
          "type": "uint256"
        }
      ],
      "payable": false,
      "stateMutability": "view",
      "type": "function"
    },
    {
      "constant": true,
      "inputs": [],
      "name": "entrantCount",
      "outputs": [
        {
          "name": "_entrantCount",
          "type": "uint256"
        }
      ],
      "payable": false,
      "stateMutability": "view",
      "type": "function"
    },
    {
      "constant": false,
      "inputs": [
        {
          "components": [
            {
              "name": "title_1",
              "type": "bytes32"
            },
            {
              "name": "title_2",
              "type": "bytes32"
            },
            {
              "name": "title_3",
              "type": "bytes32"
            },
            {
              "name": "descriptionHash_1",
              "type": "bytes32"
            },
            {
              "name": "descriptionHash_2",
              "type": "bytes32"
            },
            {
              "name": "fileHash_1",
              "type": "bytes32"
            },
            {
              "name": "fileHash_2",
              "type": "bytes32"
            },
            {
              "name": "entryFee",
              "type": "uint256"
            },
            {
              "name": "entryFeeChanged",
              "type": "bool"
            }
          ],
          "name": "tournamentData",
          "type": "tuple"
        },
        {
          "name": "_category",
          "type": "string"
        }
      ],
      "name": "update",
      "outputs": [],
      "payable": false,
      "stateMutability": "nonpayable",
      "type": "function"
    },
    {
      "constant": false,
      "inputs": [
        {
          "name": "_submissionAddresses",
          "type": "address[]"
        },
        {
          "name": "_rewardDistribution",
          "type": "uint256[]"
        },
        {
          "components": [
            {
              "name": "start",
              "type": "uint256"
            },
            {
              "name": "end",
              "type": "uint256"
            },
            {
              "name": "reviewPeriodDuration",
              "type": "uint256"
            },
            {
              "name": "bounty",
              "type": "uint256"
            }
          ],
          "name": "_roundData",
          "type": "tuple"
        },
        {
          "name": "_selectWinnerAction",
          "type": "uint256"
        }
      ],
      "name": "selectWinners",
      "outputs": [],
      "payable": false,
      "stateMutability": "nonpayable",
      "type": "function"
    },
    {
      "constant": false,
      "inputs": [
        {
          "components": [
            {
              "name": "start",
              "type": "uint256"
            },
            {
              "name": "end",
              "type": "uint256"
            },
            {
              "name": "reviewPeriodDuration",
              "type": "uint256"
            },
            {
              "name": "bounty",
              "type": "uint256"
            }
          ],
          "name": "_roundData",
          "type": "tuple"
        }
      ],
      "name": "editGhostRound",
      "outputs": [],
      "payable": false,
      "stateMutability": "nonpayable",
      "type": "function"
    },
    {
      "constant": false,
      "inputs": [
        {
          "name": "_mtxAllocation",
          "type": "uint256"
        }
      ],
      "name": "allocateMoreToRound",
      "outputs": [],
      "payable": false,
      "stateMutability": "nonpayable",
      "type": "function"
    },
    {
      "constant": false,
      "inputs": [],
      "name": "jumpToNextRound",
      "outputs": [],
      "payable": false,
      "stateMutability": "nonpayable",
      "type": "function"
    },
    {
      "constant": false,
      "inputs": [],
      "name": "stopTournament",
      "outputs": [],
      "payable": false,
      "stateMutability": "nonpayable",
      "type": "function"
    },
    {
      "constant": false,
      "inputs": [
        {
          "components": [
            {
              "name": "start",
              "type": "uint256"
            },
            {
              "name": "end",
              "type": "uint256"
            },
            {
              "name": "reviewPeriodDuration",
              "type": "uint256"
            },
            {
              "name": "bounty",
              "type": "uint256"
            }
          ],
          "name": "roundData",
          "type": "tuple"
        },
        {
          "name": "_automaticCreation",
          "type": "bool"
        }
      ],
      "name": "createRound",
      "outputs": [
        {
          "name": "_roundAddress",
          "type": "address"
        }
      ],
      "payable": false,
      "stateMutability": "nonpayable",
      "type": "function"
    },
    {
      "constant": false,
      "inputs": [
        {
          "name": "_roundIndex",
          "type": "uint256"
        },
        {
          "name": "_bountyMTX",
          "type": "uint256"
        }
      ],
      "name": "sendBountyToRound",
      "outputs": [],
      "payable": false,
      "stateMutability": "nonpayable",
      "type": "function"
    },
    {
      "constant": false,
      "inputs": [
        {
          "name": "_entrantAddress",
          "type": "address"
        }
      ],
      "name": "enterUserInTournament",
      "outputs": [
        {
          "name": "_success",
          "type": "bool"
        }
      ],
      "payable": false,
      "stateMutability": "nonpayable",
      "type": "function"
    },
    {
      "constant": true,
      "inputs": [],
      "name": "getEntryFee",
      "outputs": [
        {
          "name": "",
          "type": "uint256"
        }
      ],
      "payable": false,
      "stateMutability": "view",
      "type": "function"
    },
    {
      "constant": false,
      "inputs": [],
      "name": "collectMyEntryFee",
      "outputs": [],
      "payable": false,
      "stateMutability": "nonpayable",
      "type": "function"
    },
    {
      "constant": false,
      "inputs": [
        {
          "name": "_contributors",
          "type": "address[]"
        },
        {
          "name": "_contributorRewardDistribution",
          "type": "uint128[]"
        },
        {
          "name": "_references",
          "type": "address[]"
        },
        {
          "components": [
            {
              "name": "title",
              "type": "string"
            },
            {
              "name": "owner",
              "type": "address"
            },
            {
              "name": "contentHash",
              "type": "bytes"
            },
            {
              "name": "isPublic",
              "type": "bool"
            }
          ],
          "name": "submissionData",
          "type": "tuple"
        }
      ],
      "name": "createSubmission",
      "outputs": [
        {
          "name": "_submissionAddress",
          "type": "address"
        }
      ],
      "payable": false,
      "stateMutability": "nonpayable",
      "type": "function"
    },
    {
      "constant": false,
      "inputs": [],
      "name": "withdrawFromAbandoned",
      "outputs": [],
      "payable": false,
      "stateMutability": "nonpayable",
      "type": "function"
    }
  ],
  "bytecode": "0x60806040523480156200001157600080fd5b50604051620031cd380380620031cd8339810180604052620000379190810190620004f1565b6000805433600160a060020a031991821617909155600180548216600160a060020a038781169190911790915560028054831686831617905560038054831685831617905542600f5560048054909216908316179055855180518791600591620000a991839160209091019062000215565b50602082810151600183015560408301516002830155606083015160038301556080830151600483015560a083015160058084019190915560c0840151600684015560e0840151600784015561010084015160088401556101209093015160099092019190915588516200012192918a019062000215565b506200013885600064010000000062000146810204565b505050505050505062000748565b6001546002546003546040517fcfa037dc00000000000000000000000000000000000000000000000000000000815260009373__LibTournamentAdminMethods_____________9363cfa037dc93620001ba93601193600160a060020a039081169381169216908a908a9060040162000651565b60206040518083038186803b158015620001d357600080fd5b505af4158015620001e8573d6000803e3d6000fd5b505050506040513d601f19601f820116820180604052506200020e9190810190620004c8565b9392505050565b828054600181600116156101000203166002900490600052602060002090601f016020900481019282601f106200025857805160ff191683800117855562000288565b8280016001018555821562000288579182015b82811115620002885782518255916020019190600101906200026b565b50620002969291506200029a565b5090565b620002b791905b80821115620002965760008155600101620002a1565b90565b60006200020e825162000708565b60006200020e8251620002b7565b6000601f82018313620002e857600080fd5b8151620002ff620002f982620006e0565b620006b9565b915080825260208301602083018583830111156200031c57600080fd5b6200032983828462000719565b50505092915050565b6000608082840312156200034557600080fd5b620003516080620006b9565b90506000620003618484620002c8565b82525060206200037484848301620002c8565b60208301525060406200038a84828501620002c8565b6040830152506060620003a084828501620002c8565b60608301525092915050565b60006101408284031215620003c057600080fd5b620003cd610140620006b9565b82519091506001604060020a03811115620003e757600080fd5b620003f584828501620002d6565b82525060206200040884848301620002c8565b60208301525060406200041e84828501620002c8565b60408301525060606200043484828501620002c8565b60608301525060806200044a84828501620002c8565b60808301525060a06200046084828501620002c8565b60a08301525060c06200047684828501620002c8565b60c08301525060e06200048c84828501620002c8565b60e083015250610100620004a384828501620002c8565b61010083015250610120620004bb84828501620002c8565b6101208301525092915050565b600060208284031215620004db57600080fd5b6000620004e98484620002ba565b949350505050565b6000806000806000806000610140888a0312156200050e57600080fd5b87516001604060020a038111156200052557600080fd5b620005338a828b01620002d6565b97505060208801516001604060020a038111156200055057600080fd5b6200055e8a828b01620003ac565b9650506040620005718a828b0162000332565b95505060c0620005848a828b01620002ba565b94505060e0620005978a828b01620002ba565b935050610100620005ab8a828b01620002ba565b925050610120620005bf8a828b01620002ba565b91505092959891949750929550565b620005d98162000708565b82525050565b620005d98162000714565b80516080830190620005fd848262000646565b50602082015162000612602085018262000646565b50604082015162000627604085018262000646565b5060608201516200063c606085018262000646565b50505050565b9052565b620005d981620002b7565b610120810162000662828962000642565b620006716020830188620005ce565b620006806040830187620005ce565b6200068f6060830186620005ce565b6200069e6080830185620005ea565b620006ae610100830184620005df565b979650505050505050565b6040518181016001604060020a0381118282101715620006d857600080fd5b604052919050565b60006001604060020a03821115620006f757600080fd5b506020601f91909101601f19160190565b600160a060020a031690565b151590565b60005b83811015620007365781810151838201526020016200071c565b838111156200063c5750506000910152565b612a7580620007586000396000f3006080604052600436106101d75763ffffffff7c0100000000000000000000000000000000000000000000000000000000600035041663072a456081146101dc57806312065fe0146101fe57806315dc132e146102295780631865c57d1461025657806323721e241461026b578063245edf061461028b57806328d576d7146102ad57806329cc545e146102da5780632f54bf6e146102ef5780632fc1f1901461030f5780633809eba2146103245780633bc5de3014610344578063447411f31461036657806345df19451461037b5780634644c51b1461039057806352c01fab146103b0578063542fe6c2146103d05780636ec02be9146103e55780636fe56420146103fa57806380258e471461040f5780638493f71f14610431578063893d20e81461044657806389f3beb61461045b5780638a19c8bc146104705780638da5cb5b14610493578063934b5fee146104a85780639baec207146104c8578063a968c4b9146104dd578063b6cd26db146104fd578063c2f897bf1461051d578063d3de0a6d14610532578063dbe55e5614610552578063e139a20c14610567578063e586a4f014610589578063f1653f6e1461059e578063f2fde38b146105b3578063f49bff7b146105d3578063ff3c1a8f146105e8575b600080fd5b3480156101e857600080fd5b506101fc6101f73660046120b8565b61060a565b005b34801561020a57600080fd5b506102136106ce565b60405161022091906128d8565b60405180910390f35b34801561023557600080fd5b50610249610244366004611ebe565b610793565b604051610220919061259b565b34801561026257600080fd5b50610213610ab6565b34801561027757600080fd5b506101fc610286366004612124565b610b5a565b34801561029757600080fd5b506102a0610c82565b60405161022091906125d5565b3480156102b957600080fd5b506102cd6102c8366004611e40565b610ca8565b60405161022091906125f1565b3480156102e657600080fd5b50610249610d92565b3480156102fb57600080fd5b506102cd61030a366004611e40565b610dae565b34801561031b57600080fd5b50610249610dcf565b34801561033057600080fd5b5061024961033f36600461203e565b610deb565b34801561035057600080fd5b50610359610ec1565b604051610220919061284a565b34801561037257600080fd5b50610213610fca565b34801561038757600080fd5b506101fc610fd0565b34801561039c57600080fd5b506101fc6103ab366004611e40565b611070565b3480156103bc57600080fd5b506102cd6103cb366004611e40565b6110d3565b3480156103dc57600080fd5b506101fc6110fe565b3480156103f157600080fd5b5061021361118b565b34801561040657600080fd5b50610249611191565b34801561041b57600080fd5b506104246111ad565b6040516102209190612667565b34801561043d57600080fd5b506102a0611243565b34801561045257600080fd5b50610249611263565b34801561046757600080fd5b5061021361127f565b34801561047c57600080fd5b50610485611285565b6040516102209291906128e6565b34801561049f57600080fd5b50610249611333565b3480156104b457600080fd5b506101fc6104c3366004611f7e565b61134f565b3480156104d457600080fd5b506101fc611423565b3480156104e957600080fd5b506102cd6104f8366004611e84565b6114b9565b34801561050957600080fd5b506101fc61051836600461206e565b611617565b34801561052957600080fd5b506101fc6116e0565b34801561053e57600080fd5b506101fc61054d366004612020565b611755565b34801561055e57600080fd5b506102496117e6565b34801561057357600080fd5b5061057c611802565b60405161022091906125c4565b34801561059557600080fd5b50610213611881565b3480156105aa57600080fd5b50610213611887565b3480156105bf57600080fd5b506101fc6105ce366004611e40565b61188d565b3480156105df57600080fd5b5061021361191a565b3480156105f457600080fd5b506105fd61198f565b60405161022091906125e3565b60045473ffffffffffffffffffffffffffffffffffffffff16331461062e57600080fd5b6002546040517f5fd45f0b00000000000000000000000000000000000000000000000000000000815273__LibTournamentAdminMethods_____________91635fd45f0b9161069b91601191869173ffffffffffffffffffffffffffffffffffffffff169060040161282f565b60006040518083038186803b1580156106b357600080fd5b505af41580156106c7573d6000803e3d6000fd5b5050505050565b6013546002546040517f70a0823100000000000000000000000000000000000000000000000000000000815260009261078e92909173ffffffffffffffffffffffffffffffffffffffff909116906370a082319061073090309060040161259b565b602060405180830381600087803b15801561074a57600080fd5b505af115801561075e573d6000803e3d6000fd5b505050506040513d601f19601f8201168201806040525061078291908101906120d6565b9063ffffffff6119b716565b905090565b336000908152601a602052604081205460ff168015156107b257600080fd5b6001546040517f532311c4000000000000000000000000000000000000000000000000000000008152339173ffffffffffffffffffffffffffffffffffffffff1690819063532311c49061080a90859060040161259b565b602060405180830381600087803b15801561082457600080fd5b505af1158015610838573d6000803e3d6000fd5b505050506040513d601f19601f8201168201806040525061085c9190810190612002565b151561086757600080fd5b6000610871611285565b9150600190508173ffffffffffffffffffffffffffffffffffffffff16631865c57d6040518163ffffffff167c0100000000000000000000000000000000000000000000000000000000028152600401602060405180830381600087803b1580156108db57600080fd5b505af11580156108ef573d6000803e3d6000fd5b505050506040513d601f19601f8201168201806040525061091391908101906120d6565b141561091e57600080fd5b6002610928610ab6565b1461093257600080fd5b60175415156109e357600154600654600754600854600954600a54600d54600e546040517f201afb7600000000000000000000000000000000000000000000000000000000815273ffffffffffffffffffffffffffffffffffffffff9098169763201afb76976109b0979096909590949093909290916004016125ff565b600060405180830381600087803b1580156109ca57600080fd5b505af11580156109de573d6000803e3d6000fd5b505050505b6001546040517f3a9ed3e300000000000000000000000000000000000000000000000000000000815273__LibTournamentEntrantMethods___________91633a9ed3e391610a599160119160169173ffffffffffffffffffffffffffffffffffffffff16908f908f908f908f90600401612791565b60206040518083038186803b158015610a7157600080fd5b505af4158015610a85573d6000803e3d6000fd5b505050506040513d601f19601f82011682018060405250610aa99190810190611e66565b9998505050505050505050565b6040517f5726b16f00000000000000000000000000000000000000000000000000000000815260009073__LibTournamentStateManagement__________90635726b16f90610b0a90601190600401612678565b60206040518083038186803b158015610b2257600080fd5b505af4158015610b36573d6000803e3d6000fd5b505050506040513d601f19601f8201168201806040525061078e91908101906120d6565b60015473ffffffffffffffffffffffffffffffffffffffff163314610b7e57600080fd5b601454610b91908263ffffffff6119c916565b6014556002546011805473ffffffffffffffffffffffffffffffffffffffff9092169163a9059cbb919085908110610bc557fe5b6000918252602090912001546040517c010000000000000000000000000000000000000000000000000000000063ffffffff8416028152610c219173ffffffffffffffffffffffffffffffffffffffff169085906004016125a9565b602060405180830381600087803b158015610c3b57600080fd5b505af1158015610c4f573d6000803e3d6000fd5b505050506040513d601f19601f82011682018060405250610c739190810190612002565b1515610c7e57600080fd5b5050565b610c8a6119d8565b610c926119d8565b6009548152600a548160015b6020020152905090565b60015460009073ffffffffffffffffffffffffffffffffffffffff163314610ccf57600080fd5b6002610cd9610ab6565b14610ce357600080fd5b6040517fa09c5c9900000000000000000000000000000000000000000000000000000000815273__LibTournamentEntrantMethods___________9063a09c5c9990610d3c9060059060119060169088906004016128a3565b60206040518083038186803b158015610d5457600080fd5b505af4158015610d68573d6000803e3d6000fd5b505050506040513d601f19601f82011682018060405250610d8c9190810190612002565b92915050565b60025473ffffffffffffffffffffffffffffffffffffffff1681565b60005473ffffffffffffffffffffffffffffffffffffffff91821691161490565b60015473ffffffffffffffffffffffffffffffffffffffff1690565b6001546002546003546040517fcfa037dc00000000000000000000000000000000000000000000000000000000815260009373__LibTournamentAdminMethods_____________9363cfa037dc93610e6a9360119373ffffffffffffffffffffffffffffffffffffffff9081169381169216908a908a906004016126ae565b60206040518083038186803b158015610e8257600080fd5b505af4158015610e96573d6000803e3d6000fd5b505050506040513d601f19601f82011682018060405250610eba9190810190611e66565b9392505050565b610ec96119f3565b60408051600580546101606020601f600260001961010060018716150201909416939093049283018190040284018101909452610140830181815292939192849290918491840182828015610f5f5780601f10610f3457610100808354040283529160200191610f5f565b820191906000526020600020905b815481529060010190602001808311610f4257829003601f168201915b505050918352505060018201546020820152600282015460408201526003820154606082015260048201546080820152600582015460a0820152600682015460c0820152600782015460e0820152600882015461010082015260099091015461012090910152905090565b60105481565b6002546040517f734e4a1600000000000000000000000000000000000000000000000000000000815273__LibTournamentEntrantMethods___________9163734e4a169161103e9160119160169173ffffffffffffffffffffffffffffffffffffffff1690600401612776565b60006040518083038186803b15801561105657600080fd5b505af415801561106a573d6000803e3d6000fd5b50505050565b3360009081526012602052604090205460ff16151561108e57600080fd5b6011546040517f5fbb3d346317d5ecdb86412d4c69c7503ff4dbed1eccd4cb6290453ea0b1a322916110c8916000199091019084906128e6565b60405180910390a150565b73ffffffffffffffffffffffffffffffffffffffff166000908152601a602052604090205460ff1690565b336000908152601a602052604090205460ff1680151561111d57600080fd5b6002546040517fddc23bd000000000000000000000000000000000000000000000000000000000815273__LibTournamentEntrantMethods___________9163ddc23bd09161069b9160119160169173ffffffffffffffffffffffffffffffffffffffff1690600401612776565b60175490565b60035473ffffffffffffffffffffffffffffffffffffffff1681565b60058054604080516020601f60026000196101006001881615020190951694909404938401819004810282018101909252828152606093909290918301828280156112395780601f1061120e57610100808354040283529160200191611239565b820191906000526020600020905b81548152906001019060200180831161121c57829003601f168201915b5050505050905090565b61124b6119d8565b6112536119d8565b600b548152600c54816001610c9e565b60045473ffffffffffffffffffffffffffffffffffffffff1690565b601b5490565b60008073__LibTournamentStateManagement__________630386922b60116040518263ffffffff167c01000000000000000000000000000000000000000000000000000000000281526004016112dc9190612678565b604080518083038186803b1580156112f357600080fd5b505af4158015611307573d6000803e3d6000fd5b505050506040513d601f19601f8201168201806040525061132b91908101906120f4565b915091509091565b60045473ffffffffffffffffffffffffffffffffffffffff1681565b60045473ffffffffffffffffffffffffffffffffffffffff16331461137357600080fd5b6001546002546040517f5014b85100000000000000000000000000000000000000000000000000000000815273__LibTournamentAdminMethods_____________92635014b851926113ed9260119273ffffffffffffffffffffffffffffffffffffffff9081169216908a908a908a908a9060040161270a565b60006040518083038186803b15801561140557600080fd5b505af4158015611419573d6000803e3d6000fd5b5050505050505050565b60045473ffffffffffffffffffffffffffffffffffffffff16331461144757600080fd5b6001546002546040517fa91d59d600000000000000000000000000000000000000000000000000000000815273__LibTournamentAdminMethods_____________9263a91d59d69261103e9260119273ffffffffffffffffffffffffffffffffffffffff908116921690600401612686565b60015460009073ffffffffffffffffffffffffffffffffffffffff1633146114e057600080fd5b73ffffffffffffffffffffffffffffffffffffffff80831660009081526019602090815260408083209387168352929052205460ff16151561152157600080fd5b60175461153590600163ffffffff6119b716565b60175573ffffffffffffffffffffffffffffffffffffffff8083166000908152601860209081526040808320601983528184209488168452939091529020600101548154811061158157fe5b6000918252602080832090910180547fffffffffffffffffffffffff000000000000000000000000000000000000000016905573ffffffffffffffffffffffffffffffffffffffff848116835260198252604080842091871684529152812080547fffffffffffffffffffffffffffffffffffffffffffffffffffffffffffffff00168155600190810191909155905092915050565b60045473ffffffffffffffffffffffffffffffffffffffff16331461163b57600080fd5b6001546040517f45fbeca000000000000000000000000000000000000000000000000000000000815273__LibTournamentAdminMethods_____________916345fbeca0916116ac916005918791879173ffffffffffffffffffffffffffffffffffffffff9091169060040161285b565b60006040518083038186803b1580156116c457600080fd5b505af41580156116d8573d6000803e3d6000fd5b505050505050565b60045473ffffffffffffffffffffffffffffffffffffffff16331461170457600080fd5b6040517faf41094900000000000000000000000000000000000000000000000000000000815273__LibTournamentAdminMethods_____________9063af4109499061103e90601190600401612678565b60045473ffffffffffffffffffffffffffffffffffffffff16331461177957600080fd5b6002546040517f672ec62300000000000000000000000000000000000000000000000000000000815273__LibTournamentAdminMethods_____________9163672ec6239161069b91601191869173ffffffffffffffffffffffffffffffffffffffff1690600401612807565b60015473ffffffffffffffffffffffffffffffffffffffff1681565b33600090815260186020908152604091829020805483518184028101840190945280845260609384939092919083018282801561187557602002820191906000526020600020905b815473ffffffffffffffffffffffffffffffffffffffff16815260019091019060200180831161184a575b50939695505050505050565b600e5490565b600f5481565b60045473ffffffffffffffffffffffffffffffffffffffff1633146118b157600080fd5b73ffffffffffffffffffffffffffffffffffffffff811615156118d357600080fd5b600080547fffffffffffffffffffffffff00000000000000000000000000000000000000001673ffffffffffffffffffffffffffffffffffffffff92909216919091179055565b6014546013546002546040517f70a0823100000000000000000000000000000000000000000000000000000000815260009361078e9390926119839273ffffffffffffffffffffffffffffffffffffffff909116906370a082319061073090309060040161259b565b9063ffffffff6119c916565b611997611a47565b61199f611a47565b60065481526007546020820152600854816002610c9e565b6000828211156119c357fe5b50900390565b600082820183811015610eba57fe5b60408051808201825290600290829080388339509192915050565b6040805161014081018252606080825260006020830181905292820183905281018290526080810182905260a0810182905260c0810182905260e08101829052610100810182905261012081019190915290565b6060604051908101604052806003906020820280388339509192915050565b6000610eba82356129a8565b6000610eba82516129a8565b6000601f82018313611a8f57600080fd5b8135611aa2611a9d82612928565b612901565b91508181835260208401935060208101905083856020840282011115611ac757600080fd5b60005b83811015611af35781611add8882611a66565b8452506020928301929190910190600101611aca565b5050505092915050565b6000601f82018313611b0e57600080fd5b8135611b1c611a9d82612928565b91508181835260208401935060208101905083856020840282011115611b4157600080fd5b60005b83811015611af35781611b578882611e28565b8452506020928301929190910190600101611b44565b6000601f82018313611b7e57600080fd5b8135611b8c611a9d82612928565b91508181835260208401935060208101905083856020840282011115611bb157600080fd5b60005b83811015611af35781611bc78882611bf5565b8452506020928301929190910190600101611bb4565b6000610eba82356129c1565b6000610eba82516129c1565b6000610eba8235612995565b6000601f82018313611c1257600080fd5b8135611c20611a9d82612949565b91508082526020830160208301858383011115611c3c57600080fd5b611c478382846129db565b50505092915050565b600060808284031215611c6257600080fd5b611c6c6080612901565b90506000611c7a8484611bf5565b8252506020611c8b84848301611bf5565b6020830152506040611c9f84828501611bf5565b6040830152506060611cb384828501611bf5565b60608301525092915050565b600060808284031215611cd157600080fd5b611cdb6080612901565b9050813567ffffffffffffffff811115611cf457600080fd5b611d0084828501611c01565b8252506020611d1184848301611a66565b602083015250604082013567ffffffffffffffff811115611d3157600080fd5b611d3d84828501611c01565b6040830152506060611cb384828501611bdd565b60006101208284031215611d6457600080fd5b611d6f610120612901565b90506000611d7d8484611bf5565b8252506020611d8e84848301611bf5565b6020830152506040611da284828501611bf5565b6040830152506060611db684828501611bf5565b6060830152506080611dca84828501611bf5565b60808301525060a0611dde84828501611bf5565b60a08301525060c0611df284828501611bf5565b60c08301525060e0611e0684828501611bf5565b60e083015250610100611e1b84828501611bdd565b6101008301525092915050565b6000610eba82356129c6565b6000610eba8251612995565b600060208284031215611e5257600080fd5b6000611e5e8484611a66565b949350505050565b600060208284031215611e7857600080fd5b6000611e5e8484611a72565b60008060408385031215611e9757600080fd5b6000611ea38585611a66565b9250506020611eb485828601611a66565b9150509250929050565b60008060008060808587031215611ed457600080fd5b843567ffffffffffffffff811115611eeb57600080fd5b611ef787828801611a7e565b945050602085013567ffffffffffffffff811115611f1457600080fd5b611f2087828801611afd565b935050604085013567ffffffffffffffff811115611f3d57600080fd5b611f4987828801611a7e565b925050606085013567ffffffffffffffff811115611f6657600080fd5b611f7287828801611cbf565b91505092959194509250565b60008060008060e08587031215611f9457600080fd5b843567ffffffffffffffff811115611fab57600080fd5b611fb787828801611a7e565b945050602085013567ffffffffffffffff811115611fd457600080fd5b611fe087828801611b6d565b9350506040611ff187828801611c50565b92505060c0611f7287828801611bf5565b60006020828403121561201457600080fd5b6000611e5e8484611be9565b60006080828403121561203257600080fd5b6000611e5e8484611c50565b60008060a0838503121561205157600080fd5b600061205d8585611c50565b9250506080611eb485828601611bdd565b600080610140838503121561208257600080fd5b600061208e8585611d51565b92505061012083013567ffffffffffffffff8111156120ac57600080fd5b611eb485828601611c01565b6000602082840312156120ca57600080fd5b6000611e5e8484611bf5565b6000602082840312156120e857600080fd5b6000611e5e8484611e34565b6000806040838503121561210757600080fd5b60006121138585611e34565b9250506020611eb485828601611a72565b6000806040838503121561213757600080fd5b60006121438585611bf5565b9250506020611eb485828601611bf5565b61215d816129a8565b82525050565b600061216e82612998565b8084526020840193506121808361298f565b60005b828110156121b057612196868351612154565b61219f8261298f565b602096909601959150600101612183565b5093949350505050565b60006121c582612998565b8084526020840193506121d78361298f565b60005b828110156121b0576121ed868351612154565b6121f68261298f565b6020969096019591506001016121da565b6122108161299c565b61221982612995565b60005b828110156106c75761222f85835161232e565b6122388261298f565b60209590950194915060010161221c565b612252816129a2565b61225b82612995565b60005b828110156106c75761227185835161232e565b61227a8261298f565b60209590950194915060010161225e565b600061229682612998565b8084526020840193506122a88361298f565b60005b828110156121b0576122be868351612592565b6122c78261298f565b6020969096019591506001016122ab565b60006122e382612998565b8084526020840193506122f58361298f565b60005b828110156121b05761230b86835161232e565b6123148261298f565b6020969096019591506001016122f8565b61215d816129c1565b61215d81612995565b600061234282612998565b8084526123568160208601602086016129e7565b61235f81612a13565b9093016020019392505050565b9052565b80516080830190612381848261232e565b506020820151612394602085018261232e565b5060408201516123a7604085018261232e565b50606082015161106a606085018261232e565b80516080808452600091908401906123d28282612337565b91505060208301516123e76020860182612154565b50604083015184820360408601526123ff8282612337565b91505060608301516124146060860182612325565b509392505050565b8051610140808452600091908401906124358282612337565b915050602083015161244a602086018261232e565b50604083015161245d604086018261232e565b506060830151612470606086018261232e565b506080830151612483608086018261232e565b5060a083015161249660a086018261232e565b5060c08301516124a960c086018261232e565b5060e08301516124bc60e086018261232e565b506101008301516124d161010086018261232e565b5061012083015161241461012086018261232e565b80516101208301906124f8848261232e565b50602082015161250b602085018261232e565b50604082015161251e604085018261232e565b506060820151612531606085018261232e565b506080820151612544608085018261232e565b5060a082015161255760a085018261232e565b5060c082015161256a60c085018261232e565b5060e082015161257d60e085018261232e565b5061010082015161106a610100850182612325565b61215d816129c6565b60208101610d8c8284612154565b604081016125b78285612154565b610eba602083018461232e565b60208082528101610eba8184612163565b60408101610d8c8284612207565b60608101610d8c8284612249565b60208101610d8c8284612325565b60e0810161260d828a61232e565b61261a602083018961232e565b612627604083018861232e565b612634606083018761232e565b612641608083018661232e565b61264e60a083018561232e565b61265b60c083018461232e565b98975050505050505050565b60208082528101610eba8184612337565b60208101610d8c828461236c565b60608101612694828661236c565b6126a16020830185612154565b611e5e6040830184612154565b61012081016126bd828961236c565b6126ca6020830188612154565b6126d76040830187612154565b6126e46060830186612154565b6126f16080830185612370565b6126ff610100830184612325565b979650505050505050565b6101408101612719828a61236c565b6127266020830189612154565b6127336040830188612154565b818103606083015261274581876121ba565b9050818103608083015261275981866122d8565b905061276860a0830185612370565b61265b61012083018461232e565b60608101612784828661236c565b6126a1602083018561236c565b60e0810161279f828a61236c565b6127ac602083018961236c565b6127b96040830188612154565b81810360608301526127cb81876121ba565b905081810360808301526127df818661228b565b905081810360a08301526127f381856121ba565b905081810360c0830152610aa981846123ba565b60c08101612815828661236c565b6128226020830185612370565b611e5e60a0830184612154565b6060810161283d828661236c565b6126a1602083018561232e565b60208082528101610eba818461241c565b610180810161286a828761236c565b61287760208301866124e6565b81810361014083015261288a8185612337565b905061289a610160830184612154565b95945050505050565b608081016128b1828761236c565b6128be602083018661236c565b6128cb604083018561236c565b61289a6060830184612154565b60208101610d8c828461232e565b604081016128f4828561232e565b610eba6020830184612154565b60405181810167ffffffffffffffff8111828210171561292057600080fd5b604052919050565b600067ffffffffffffffff82111561293f57600080fd5b5060209081020190565b600067ffffffffffffffff82111561296057600080fd5b506020601f919091017fffffffffffffffffffffffffffffffffffffffffffffffffffffffffffffffe0160190565b60200190565b90565b5190565b50600290565b50600390565b73ffffffffffffffffffffffffffffffffffffffff1690565b151590565b6fffffffffffffffffffffffffffffffff1690565b82818337506000910152565b60005b83811015612a025781810151838201526020016129ea565b8381111561106a5750506000910152565b601f017fffffffffffffffffffffffffffffffffffffffffffffffffffffffffffffffe016905600a265627a7a72305820edc9a88fd5389b552e3580df77671242cb222bf2f3efce7caaac4e4d002b89ed6c6578706572696d656e74616cf50037",
  "source": " pragma solidity ^0.4.18;\n pragma experimental ABIEncoderV2;\n\nimport \"../libraries/strings/strings.sol\";\nimport \"../libraries/math/SafeMath.sol\";\nimport \"../libraries/LibConstruction.sol\";\n//import \"../libraries/interfaces/tournament/iLibTournamentStateManagement.sol\";\nimport \"../libraries/tournament/LibTournamentStateManagement.sol\";\nimport \"../libraries/tournament/LibTournamentAdminMethods.sol\";\nimport \"../libraries/tournament/LibTournamentEntrantMethods.sol\";\nimport \"../interfaces/IMatryxPlatform.sol\";\nimport \"../interfaces/IMatryxTournament.sol\";\nimport \"../interfaces/factories/IMatryxRoundFactory.sol\";\nimport \"../interfaces/IMatryxRound.sol\";\nimport \"../interfaces/IMatryxToken.sol\";\nimport \"./Ownable.sol\";\n\n/// @title Tournament - The Matryx tournament.\n/// @author Max Howard - <max@nanome.ai>, Sam Hessenauer - <sam@nanome.ai>\ncontract MatryxTournament is Ownable, IMatryxTournament {\n    using SafeMath for uint256;\n    using strings for *;\n    using LibTournamentAdminMethods for LibConstruction.TournamentData;\n    \n    // TODO: condense and put in structs\n    // Platform identification\n    address public platformAddress;\n    address public matryxTokenAddress;\n    address public matryxRoundFactoryAddress;\n\n    // TODO: Create setter for this (resume here for upgrade system.)\n    // address public libTournamentStateManagement;\n\n    //Tournament identification\n    address public owner;\n    LibConstruction.TournamentData data;\n    // Timing and State\n    uint256 public timeCreated;\n    uint256 public tournamentOpenedTime;\n    LibTournamentStateManagement.StateData stateData;\n    // Submission tracking\n    LibTournamentStateManagement.EntryData entryData;\n\n    // address roundDelegate;\n    // bytes4 fnSelector_chooseWinner = bytes4(keccak256(\"chooseWinner(address)\"));\n    // bytes4 fnSelector_createRound = bytes4(keccak256(\"createRound(uint256)\"));\n    // bytes4 fnSelector_startRound = bytes4(keccak256(\"startRound(uint256)\"));\n\n    constructor(string _category, LibConstruction.TournamentData tournamentData, LibConstruction.RoundData roundData, address _platformAddress, address _matryxTokenAddress, address _matryxRoundFactoryAddress, address _owner) \n    {\n        //Clean inputs\n        //require(_owner != 0x0);\n        //require(tournamentData.title[0] != 0x0);\n        //require(tournamentData.Bounty > 0);\n        //require(_matryxRoundFactoryAddress != 0x0);\n        \n        platformAddress = _platformAddress;\n        matryxTokenAddress = _matryxTokenAddress;\n        matryxRoundFactoryAddress = _matryxRoundFactoryAddress;\n\n        timeCreated = now;\n        // Identification\n        owner = _owner;\n        data = tournamentData;\n        data.category = _category;\n\n        createRound(roundData, false);\n        // roundDelegate = IMatryxPlatform(platformAddress).getRoundLibAddress();\n    }\n\n    /*\n     * Structs\n     */\n\n    struct uint256_optional\n    {\n        bool exists;\n        uint256 value;\n    }\n\n    struct SubmissionLocation\n    {\n        uint256 roundIndex;\n        uint256 submissionIndex;\n    }\n\n    /*\n     * Events\n     */\n\n    event NewRound(uint256 _startTime, uint256 _endTime, uint256 _reviewPeriodDuration, address _roundAddress, uint256 _roundNumber);\n    //event RoundStarted(uint256 _roundIndex);\n    // Fired at the end of every round, one time per submission created in that round\n    event SubmissionCreated(uint256 _roundIndex, address _submissionAddress);\n    event RoundWinnersChosen(address[] _submissionAddresses);\n\n    /// @dev Allows rounds to invoke SubmissionCreated events on this tournament.\n    /// @param _submissionAddress Address of the submission.\n    function invokeSubmissionCreatedEvent(address _submissionAddress) public onlyRound\n    {\n        emit SubmissionCreated(stateData.rounds.length-1, _submissionAddress);\n    }\n\n    /*\n     * Modifiers\n     */\n\n    /// @dev Requires the function caller to be the platform.\n    modifier onlyPlatform()\n    {\n        require(msg.sender == platformAddress);\n        _;\n    }\n\n    modifier onlyRound()\n    {\n        require(stateData.isRound[msg.sender]);\n        _;\n    }\n\n    // modifier onlySubmission(address _submissionAddress, address _author)\n    // {\n    //     // If the submission does not exist,\n    //     // the address of the submission we return will not be msg.sender\n    //     // It will either be \n    //     // 1) The first submission, or\n    //     // 2) all 0s from having deleted it previously.\n    //     uint256 indexOfSubmission = entrantToSubmissionToSubmissionIndex[_author][_submissionAddress].value;\n    //     address submissionAddress = entrantToSubmissions[_author][indexOfSubmission];\n    //     require(_submissionAddress == msg.sender);\n    //     _;\n    // }\n\n    modifier onlyPeerLinked(address _sender)\n    {\n        IMatryxPlatform platform = IMatryxPlatform(platformAddress);\n        require(platform.hasPeer(_sender));\n        _;\n    }\n\n    /// @dev Requires the function caller to be an entrant.\n    modifier onlyEntrant()\n    {\n        bool senderIsEntrant = entryData.addressToEntryFeePaid[msg.sender].exists;\n        require(senderIsEntrant);\n        _;\n    }\n\n    /// @dev Requires the function caller to be the platform or the owner of this tournament\n    modifier platformOrOwner()\n    {\n        require((msg.sender == platformAddress)||(msg.sender == owner));\n        _;\n    }\n\n    modifier whileTournamentOpen()\n    {\n        require(getState() == uint256(TournamentState.Open));\n        _;\n    }\n\n    modifier ifRoundHasFunds()\n    {\n        // require((IMatryxRound(currentRound()[1]).getState()) != uint256(RoundState.Unfunded));\n        address currentRoundAddress;\n\n        (,currentRoundAddress) = currentRound();\n        require(IMatryxRound(currentRoundAddress).getState() != uint256(RoundState.Unfunded));\n        _;\n    }\n\n    modifier onlyOwner()\n    {\n        require(msg.sender == owner);\n        _;\n    }\n\n    // /// @dev Requires the tournament to be open.\n    // modifier duringReviewPeriod()\n    // {\n    //     // TODO: Finish me!\n    //     require(isInReview());\n    //     _;\n    // }\n\n    // TODO: Use MatryxToken\n    // modifier whileBountyLeft(uint256 _nextRoundBounty)\n    // {\n    //     require(BountyLeft.sub(_nextRoundBounty) >= 0);\n    //     _;\n    // }\n\n    /*\n    * State Maintenance Methods\n    */\n\n    function removeSubmission(address _submissionAddress, address _author) public onlyPlatform returns (bool)\n    {\n        require(entryData.entrantToSubmissionToSubmissionIndex[_author][_submissionAddress].exists);\n        entryData.numberOfSubmissions = entryData.numberOfSubmissions.sub(1);\n        delete entryData.entrantToSubmissions[_author][entryData.entrantToSubmissionToSubmissionIndex[_author][_submissionAddress].value];\n        delete entryData.entrantToSubmissionToSubmissionIndex[_author][_submissionAddress];\n        return true;\n    }\n\n    /*\n     * Access Control Methods\n     */\n\n    /// @dev Returns whether or not the sender is an entrant in this tournament\n    /// @param _sender Explicit sender address.\n    /// @return Whether or not the sender is an entrant in this tournament.\n    function isEntrant(address _sender) public view returns (bool)\n    {\n        return entryData.addressToEntryFeePaid[_sender].exists;\n    }\n\n    enum TournamentState { NotYetOpen, OnHold, Open, Closed, Abandoned}\n    enum RoundState { NotYetOpen, Unfunded, Open, InReview, HasWinners, Closed, Abandoned }\n    enum ParticipantType { Nonentrant, Entrant, Contributor, Author }\n    enum SelectWinnerAction { DoNothing, StartNextRound, CloseTournament }\n    /// @dev Returns the state of the tournament. One of:\n    /// NotYetOpen, Open, Closed, Abandoned\n    function getState() public view returns (uint256)\n    {\n        return LibTournamentStateManagement.getState(stateData);\n    }\n\n    /*\n     * Getter Methods\n     */\n\n    function getPlatform() public view returns (address _platformAddress)\n    {\n        return platformAddress;\n    }\n\n    function getData() public view returns (LibConstruction.TournamentData _data)\n    {\n        return data;\n    }\n\n    function getTitle() public view returns (bytes32[3] _title)\n    {\n        bytes32[3] memory title;\n        title[0] = data.title_1;\n        title[1] = data.title_2;\n        title[2] = data.title_3;\n        return title;\n    }\n\n    function getCategory() public view returns (string _category)\n    {\n        // return IMatryxPlatform(platformAddress).hashForCategory(categoryHash);\n        // TODO: Fix me\n        return data.category;\n    }\n\n    function getOwner() public view returns (address _owner)\n    {\n        return owner;\n    }\n\n    // @dev Returns the external address of the tournament.\n    // @return _descriptionHash Off-chain content hash of tournament details (ipfs hash)\n    function getDescriptionHash() public view returns (bytes32[2] _descriptionHash)\n    {\n        bytes32[2] memory descriptionHash;\n        descriptionHash[0] = data.descriptionHash_1;\n        descriptionHash[1] = data.descriptionHash_2;\n        return descriptionHash;\n    }\n\n    function getFileHash() public view returns (bytes32[2] _fileHash)\n    {\n        bytes32[2] memory fileHash;\n        fileHash[0] = data.fileHash_1;\n        fileHash[1] = data.fileHash_2;\n        return fileHash;\n    }\n\n    /// @dev Returns the current round number.\n    /// @return _currentRound Number of the current round.\n    function currentRound() public view returns (uint256 _currentRound, address _currentRoundAddress)\n    {\n        return LibTournamentStateManagement.currentRound(stateData);\n    }\n\n    ///@dev Returns this tournament's bounty.\n    function getBounty() public view returns (uint256 _tournamentBounty)\n    {  \n        return IMatryxToken(matryxTokenAddress).balanceOf(address(this)).sub(stateData.entryFeesTotal).add(stateData.roundBountyAllocation);\n    }\n\n    // @dev Returns the remaining bounty this tournament is able to award.\n    function getBalance() public view returns (uint256 _tournamentBalance)\n    {\n        return IMatryxToken(matryxTokenAddress).balanceOf(address(this)).sub(stateData.entryFeesTotal);\n    }\n\n    ///@dev Returns the round that was created implicitly for the user after they chose the \"DoNothing\" option\n    ///     when choosing their round winners.\n    ///@return _ghostAddress Address of the upcoming round created during winner selection\n    function getGhostRound() internal returns (uint256 _index, address _ghostAddress)\n    {\n        return LibTournamentStateManagement.getGhostRound(stateData);\n    }\n\n    /// @dev Returns all of the sender's submissions to this tournament.\n    /// @return (_roundIndices[], _submissionIndices[]) Locations of the sender's submissions.\n    function mySubmissions() public view returns (address[])\n    {\n        address[] memory _mySubmissions = entryData.entrantToSubmissions[msg.sender];\n        return _mySubmissions;\n    }\n\n    /// @dev Returns the number of submissions made to this tournament.\n    /// @return _submissionCount Number of submissions made to this tournament.\n    function submissionCount() public view returns (uint256 _submissionCount)\n    {\n        return entryData.numberOfSubmissions;\n    }\n\n    function entrantCount() public view returns (uint256 _entrantCount)\n    {\n        return entryData.numberOfEntrants;\n    }\n\n    /*\n     * Setter Methods\n     */\n\n    function update(LibConstruction.TournamentModificationData tournamentData, string _category) public onlyOwner\n    {\n        data.update(tournamentData, _category, platformAddress);\n    }\n\n    /*\n     * Tournament Admin Methods\n     */\n\n    /// @dev Chooses the winner(s) of the current round. If this is the last round, \n    //       this method will also close the tournament.\n    /// @param _submissionAddresses The winning submission addresses\n    /// @param _rewardDistribution Distribution indicating how to split the reward among the submissions\n    function selectWinners(address[] _submissionAddresses, uint256[] _rewardDistribution, LibConstruction.RoundData _roundData, uint256 _selectWinnerAction) public onlyOwner\n    {\n        LibTournamentAdminMethods.selectWinners(stateData, platformAddress, matryxTokenAddress, _submissionAddresses, _rewardDistribution, _roundData, _selectWinnerAction);\n    }\n\n    function editGhostRound(LibConstruction.RoundData _roundData) public onlyOwner\n    {\n\n        LibTournamentAdminMethods.editGhostRound(stateData, _roundData, matryxTokenAddress);\n    }\n\n    ///@dev Allocates some of this tournament's balance to the current round\n    function allocateMoreToRound(uint256 _mtxAllocation) public onlyOwner\n    {\n        LibTournamentAdminMethods.allocateMoreToRound(stateData, _mtxAllocation, matryxTokenAddress);\n    }\n\n    /// @dev This function should be called after the user selects winners for their tournament and chooses the \"DoNothing\" option\n    function jumpToNextRound() public onlyOwner\n    {\n        LibTournamentAdminMethods.jumpToNextRound(stateData);\n    }\n\n    /// @dev This function closes the tournament after the tournament owner selects their winners with the \"DoNothing\" option\n    function stopTournament() public onlyOwner\n    {\n        LibTournamentAdminMethods.stopTournament(stateData, platformAddress, matryxTokenAddress);\n    }\n\n    /// @dev Creates a new round.\n    /// @return The new round's address.\n    function createRound(LibConstruction.RoundData roundData, bool _automaticCreation) public returns (address _roundAddress)\n    {\n        return LibTournamentAdminMethods.createRound(stateData, platformAddress, matryxTokenAddress, matryxRoundFactoryAddress, roundData, _automaticCreation);\n    }\n\n    function sendBountyToRound(uint256 _roundIndex, uint256 _bountyMTX) public onlyPlatform\n    {\n        stateData.roundBountyAllocation = stateData.roundBountyAllocation.add(_bountyMTX);\n        require(IMatryxToken(matryxTokenAddress).transfer(stateData.rounds[_roundIndex], _bountyMTX));\n    }\n\n    /*\n     * Entrant Methods\n     */\n\n    // LibTournamentEntrantMethods\n    /// @dev Enters the user into the tournament.\n    /// @param _entrantAddress Address of the user to enter.\n    /// @return success Whether or not the user was entered successfully.\n    function enterUserInTournament(address _entrantAddress) public onlyPlatform whileTournamentOpen returns (bool _success)\n    {\n        return LibTournamentEntrantMethods.enterUserInTournament(data, stateData, entryData, _entrantAddress);\n    }\n\n    /// @dev Returns the fee in MTX to be payed by a prospective entrant.\n    /// @return Entry fee for this tournament.\n    function getEntryFee() public view returns (uint256)\n    {\n        return data.entryFee;\n    }\n\n    function collectMyEntryFee() public\n    {\n        LibTournamentEntrantMethods.collectMyEntryFee(stateData, entryData, matryxTokenAddress);\n    }\n\n    function createSubmission(address[] _contributors, uint128[] _contributorRewardDistribution, address[] _references, LibConstruction.SubmissionData submissionData) public onlyEntrant onlyPeerLinked(msg.sender) ifRoundHasFunds whileTournamentOpen returns (address _submissionAddress)\n    {\n        if(entryData.numberOfSubmissions == 0)\n        {\n            IMatryxPlatform(platformAddress).invokeTournamentOpenedEvent(data.title_1, data.title_2, data.title_3, data.descriptionHash_1, data.descriptionHash_2, data.bounty, data.entryFee);\n        }\n\n        return LibTournamentEntrantMethods.createSubmission(stateData, entryData, platformAddress, _contributors, _contributorRewardDistribution, _references, submissionData);\n    }\n\n    function withdrawFromAbandoned() public onlyEntrant\n    {\n        LibTournamentEntrantMethods.withdrawFromAbandoned(stateData, entryData, matryxTokenAddress);\n    }\n}",
  "sourcePath": "/Users/maxhoward/Desktop/Ethereum/Development/Matryx/Projects/MatryxPlatform/contracts/MatryxTournament.sol",
  "compiler": {
    "name": "solc",
    "version": "0.4.24+commit.e67f0147.Emscripten.clang"
  },
  "schemaVersion": "2.0.0",
  "updatedAt": "2018-07-03T18:28:30.979Z"
}