{
  "contractName": "MatryxRound",
  "abi": [
    {
      "constant": true,
      "inputs": [],
      "name": "tournamentAddress",
      "outputs": [
        {
          "name": "",
          "type": "address"
        }
      ],
      "payable": false,
      "stateMutability": "view",
      "type": "function"
    },
    {
      "constant": true,
      "inputs": [],
      "name": "reviewPeriodDuration",
      "outputs": [
        {
          "name": "",
          "type": "uint256"
        }
      ],
      "payable": false,
      "stateMutability": "view",
      "type": "function"
    },
    {
      "constant": true,
      "inputs": [],
      "name": "matryxTokenAddress",
      "outputs": [
        {
          "name": "",
          "type": "address"
        }
      ],
      "payable": false,
      "stateMutability": "view",
      "type": "function"
    },
    {
      "constant": true,
      "inputs": [
        {
          "name": "_sender",
          "type": "address"
        }
      ],
      "name": "isOwner",
      "outputs": [
        {
          "name": "_isOwner",
          "type": "bool"
        }
      ],
      "payable": false,
      "stateMutability": "view",
      "type": "function"
    },
    {
      "constant": true,
      "inputs": [],
      "name": "nextRound",
      "outputs": [
        {
          "name": "",
          "type": "address"
        }
      ],
      "payable": false,
      "stateMutability": "view",
      "type": "function"
    },
    {
      "constant": true,
      "inputs": [],
      "name": "closed",
      "outputs": [
        {
          "name": "",
          "type": "bool"
        }
      ],
      "payable": false,
      "stateMutability": "view",
      "type": "function"
    },
    {
      "constant": true,
      "inputs": [],
      "name": "roundIndex",
      "outputs": [
        {
          "name": "",
          "type": "uint256"
        }
      ],
      "payable": false,
      "stateMutability": "view",
      "type": "function"
    },
    {
      "constant": true,
      "inputs": [
        {
          "name": "",
          "type": "uint256"
        }
      ],
      "name": "rewardDistribution",
      "outputs": [
        {
          "name": "",
          "type": "uint256"
        }
      ],
      "payable": false,
      "stateMutability": "view",
      "type": "function"
    },
    {
      "constant": true,
      "inputs": [],
      "name": "rewardDistributionTotal",
      "outputs": [
        {
          "name": "",
          "type": "uint256"
        }
      ],
      "payable": false,
      "stateMutability": "view",
      "type": "function"
    },
    {
      "constant": true,
      "inputs": [
        {
          "name": "",
          "type": "uint256"
        }
      ],
      "name": "winningSubmissions",
      "outputs": [
        {
          "name": "",
          "type": "address"
        }
      ],
      "payable": false,
      "stateMutability": "view",
      "type": "function"
    },
    {
      "constant": true,
      "inputs": [],
      "name": "getOwner",
      "outputs": [
        {
          "name": "_owner",
          "type": "address"
        }
      ],
      "payable": false,
      "stateMutability": "view",
      "type": "function"
    },
    {
      "constant": true,
      "inputs": [],
      "name": "owner",
      "outputs": [
        {
          "name": "",
          "type": "address"
        }
      ],
      "payable": false,
      "stateMutability": "view",
      "type": "function"
    },
    {
      "constant": true,
      "inputs": [],
      "name": "bounty",
      "outputs": [
        {
          "name": "",
          "type": "uint256"
        }
      ],
      "payable": false,
      "stateMutability": "view",
      "type": "function"
    },
    {
      "constant": true,
      "inputs": [],
      "name": "matryxSubmissionFactoryAddress",
      "outputs": [
        {
          "name": "",
          "type": "address"
        }
      ],
      "payable": false,
      "stateMutability": "view",
      "type": "function"
    },
    {
      "constant": true,
      "inputs": [],
      "name": "previousRound",
      "outputs": [
        {
          "name": "",
          "type": "address"
        }
      ],
      "payable": false,
      "stateMutability": "view",
      "type": "function"
    },
    {
      "constant": true,
      "inputs": [],
      "name": "platformAddress",
      "outputs": [
        {
          "name": "",
          "type": "address"
        }
      ],
      "payable": false,
      "stateMutability": "view",
      "type": "function"
    },
    {
      "constant": false,
      "inputs": [
        {
          "name": "newOwner",
          "type": "address"
        }
      ],
      "name": "transferOwnership",
      "outputs": [],
      "payable": false,
      "stateMutability": "nonpayable",
      "type": "function"
    },
    {
      "inputs": [
        {
          "name": "_platformAddress",
          "type": "address"
        },
        {
          "name": "_matryxTokenAddress",
          "type": "address"
        },
        {
          "name": "_tournamentAddress",
          "type": "address"
        },
        {
          "name": "_submissionFactoryAddress",
          "type": "address"
        },
        {
          "name": "_owner",
          "type": "address"
        },
        {
          "name": "_roundIndex",
          "type": "uint256"
        },
        {
          "components": [
            {
              "name": "start",
              "type": "uint256"
            },
            {
              "name": "end",
              "type": "uint256"
            },
            {
              "name": "reviewPeriodDuration",
              "type": "uint256"
            },
            {
              "name": "bounty",
              "type": "uint256"
            }
          ],
          "name": "roundData",
          "type": "tuple"
        }
      ],
      "payable": false,
      "stateMutability": "nonpayable",
      "type": "constructor"
    },
    {
      "anonymous": false,
      "inputs": [
        {
          "indexed": false,
          "name": "_address",
          "type": "address"
        },
        {
          "indexed": false,
          "name": "_identifier",
          "type": "string"
        }
      ],
      "name": "GiveAddress",
      "type": "event"
    },
    {
      "constant": false,
      "inputs": [
        {
          "name": "_nameHash",
          "type": "bytes32"
        },
        {
          "name": "_contractAddress",
          "type": "address"
        }
      ],
      "name": "setContractAddress",
      "outputs": [],
      "payable": false,
      "stateMutability": "nonpayable",
      "type": "function"
    },
    {
      "constant": false,
      "inputs": [
        {
          "name": "_nameHash",
          "type": "bytes32"
        }
      ],
      "name": "getContractAddress",
      "outputs": [
        {
          "name": "contractAddress",
          "type": "address"
        }
      ],
      "payable": false,
      "stateMutability": "nonpayable",
      "type": "function"
    },
    {
      "constant": true,
      "inputs": [],
      "name": "getState",
      "outputs": [
        {
          "name": "",
          "type": "uint256"
        }
      ],
      "payable": false,
      "stateMutability": "view",
      "type": "function"
    },
    {
      "constant": true,
      "inputs": [
        {
          "name": "_index",
          "type": "uint256"
        }
      ],
      "name": "submissionIsAccessible",
      "outputs": [
        {
          "name": "",
          "type": "bool"
        }
      ],
      "payable": false,
      "stateMutability": "view",
      "type": "function"
    },
    {
      "constant": true,
      "inputs": [
        {
          "name": "_submissionAddress",
          "type": "address"
        }
      ],
      "name": "submissionIsAccessible",
      "outputs": [
        {
          "name": "",
          "type": "bool"
        }
      ],
      "payable": false,
      "stateMutability": "view",
      "type": "function"
    },
    {
      "constant": true,
      "inputs": [
        {
          "name": "_requester",
          "type": "address"
        }
      ],
      "name": "requesterIsContributor",
      "outputs": [
        {
          "name": "",
          "type": "bool"
        }
      ],
      "payable": false,
      "stateMutability": "view",
      "type": "function"
    },
    {
      "constant": false,
      "inputs": [
        {
          "name": "_participantAddress",
          "type": "address"
        },
        {
          "name": "_type",
          "type": "uint256"
        }
      ],
      "name": "setParticipantType",
      "outputs": [],
      "payable": false,
      "stateMutability": "nonpayable",
      "type": "function"
    },
    {
      "constant": true,
      "inputs": [],
      "name": "getPlatform",
      "outputs": [
        {
          "name": "",
          "type": "address"
        }
      ],
      "payable": false,
      "stateMutability": "view",
      "type": "function"
    },
    {
      "constant": true,
      "inputs": [],
      "name": "getTournament",
      "outputs": [
        {
          "name": "",
          "type": "address"
        }
      ],
      "payable": false,
      "stateMutability": "view",
      "type": "function"
    },
    {
      "constant": true,
      "inputs": [],
      "name": "getStartTime",
      "outputs": [
        {
          "name": "",
          "type": "uint256"
        }
      ],
      "payable": false,
      "stateMutability": "view",
      "type": "function"
    },
    {
      "constant": true,
      "inputs": [],
      "name": "getEndTime",
      "outputs": [
        {
          "name": "",
          "type": "uint256"
        }
      ],
      "payable": false,
      "stateMutability": "view",
      "type": "function"
    },
    {
      "constant": true,
      "inputs": [],
      "name": "getBounty",
      "outputs": [
        {
          "name": "",
          "type": "uint256"
        }
      ],
      "payable": false,
      "stateMutability": "view",
      "type": "function"
    },
    {
      "constant": true,
      "inputs": [],
      "name": "remainingBounty",
      "outputs": [
        {
          "name": "",
          "type": "uint256"
        }
      ],
      "payable": false,
      "stateMutability": "view",
      "type": "function"
    },
    {
      "constant": true,
      "inputs": [],
      "name": "getTokenAddress",
      "outputs": [
        {
          "name": "",
          "type": "address"
        }
      ],
      "payable": false,
      "stateMutability": "view",
      "type": "function"
    },
    {
      "constant": true,
      "inputs": [],
      "name": "getSubmissions",
      "outputs": [
        {
          "name": "_submissions",
          "type": "address[]"
        }
      ],
      "payable": false,
      "stateMutability": "view",
      "type": "function"
    },
    {
      "constant": true,
      "inputs": [
        {
          "name": "_index",
          "type": "uint256"
        }
      ],
      "name": "getSubmissionAddress",
      "outputs": [
        {
          "name": "_submissionAddress",
          "type": "address"
        }
      ],
      "payable": false,
      "stateMutability": "view",
      "type": "function"
    },
    {
      "constant": true,
      "inputs": [
        {
          "name": "_index",
          "type": "uint256"
        }
      ],
      "name": "getSubmissionAuthor",
      "outputs": [
        {
          "name": "",
          "type": "address"
        }
      ],
      "payable": false,
      "stateMutability": "view",
      "type": "function"
    },
    {
      "constant": true,
      "inputs": [
        {
          "name": "_submissionAddress",
          "type": "address"
        }
      ],
      "name": "getBalance",
      "outputs": [
        {
          "name": "",
          "type": "uint256"
        }
      ],
      "payable": false,
      "stateMutability": "view",
      "type": "function"
    },
    {
      "constant": true,
      "inputs": [],
      "name": "getRoundBalance",
      "outputs": [
        {
          "name": "",
          "type": "uint256"
        }
      ],
      "payable": false,
      "stateMutability": "view",
      "type": "function"
    },
    {
      "constant": true,
      "inputs": [],
      "name": "submissionsChosen",
      "outputs": [
        {
          "name": "",
          "type": "bool"
        }
      ],
      "payable": false,
      "stateMutability": "view",
      "type": "function"
    },
    {
      "constant": true,
      "inputs": [],
      "name": "getWinningSubmissionAddresses",
      "outputs": [
        {
          "name": "",
          "type": "address[]"
        }
      ],
      "payable": false,
      "stateMutability": "view",
      "type": "function"
    },
    {
      "constant": true,
      "inputs": [],
      "name": "numberOfSubmissions",
      "outputs": [
        {
          "name": "",
          "type": "uint256"
        }
      ],
      "payable": false,
      "stateMutability": "view",
      "type": "function"
    },
    {
      "constant": true,
      "inputs": [
        {
          "name": "_participant",
          "type": "address"
        }
      ],
      "name": "getParticipantType",
      "outputs": [
        {
          "name": "",
          "type": "uint256"
        }
      ],
      "payable": false,
      "stateMutability": "view",
      "type": "function"
    },
    {
      "constant": false,
      "inputs": [
        {
          "name": "_currentRoundEndTime",
          "type": "uint256"
        },
        {
          "components": [
            {
              "name": "start",
              "type": "uint256"
            },
            {
              "name": "end",
              "type": "uint256"
            },
            {
              "name": "reviewPeriodDuration",
              "type": "uint256"
            },
            {
              "name": "bounty",
              "type": "uint256"
            }
          ],
          "name": "_roundData",
          "type": "tuple"
        }
      ],
      "name": "editRound",
      "outputs": [],
      "payable": false,
      "stateMutability": "nonpayable",
      "type": "function"
    },
    {
      "constant": false,
      "inputs": [
        {
          "name": "_amount",
          "type": "uint256"
        }
      ],
      "name": "transferToTournament",
      "outputs": [],
      "payable": false,
      "stateMutability": "nonpayable",
      "type": "function"
    },
    {
      "constant": false,
      "inputs": [
        {
          "name": "_submissionAddresses",
          "type": "address[]"
        },
        {
          "name": "_rewardDistribution",
          "type": "uint256[]"
        },
        {
          "components": [
            {
              "name": "start",
              "type": "uint256"
            },
            {
              "name": "end",
              "type": "uint256"
            },
            {
              "name": "reviewPeriodDuration",
              "type": "uint256"
            },
            {
              "name": "bounty",
              "type": "uint256"
            }
          ],
          "name": "_roundData",
          "type": "tuple"
        },
        {
          "name": "_selectWinnerAction",
          "type": "uint256"
        }
      ],
      "name": "selectWinningSubmissions",
      "outputs": [],
      "payable": false,
      "stateMutability": "nonpayable",
      "type": "function"
    },
    {
      "constant": false,
      "inputs": [
        {
          "name": "_tournamentBalance",
          "type": "uint256"
        }
      ],
      "name": "transferAllToWinners",
      "outputs": [],
      "payable": false,
      "stateMutability": "nonpayable",
      "type": "function"
    },
    {
      "constant": false,
      "inputs": [],
      "name": "startNow",
      "outputs": [],
      "payable": false,
      "stateMutability": "nonpayable",
      "type": "function"
    },
    {
      "constant": false,
      "inputs": [],
      "name": "closeRound",
      "outputs": [],
      "payable": false,
      "stateMutability": "nonpayable",
      "type": "function"
    },
    {
      "constant": false,
      "inputs": [
        {
          "name": "_entrant",
          "type": "address"
        }
      ],
      "name": "becomeEntrant",
      "outputs": [],
      "payable": false,
      "stateMutability": "nonpayable",
      "type": "function"
    },
    {
      "constant": false,
      "inputs": [
        {
          "name": "_entrant",
          "type": "address"
        }
      ],
      "name": "becomeNonentrant",
      "outputs": [],
      "payable": false,
      "stateMutability": "nonpayable",
      "type": "function"
    },
    {
      "constant": false,
      "inputs": [
        {
          "name": "_contributors",
          "type": "address[]"
        },
        {
          "name": "_contributorRewardDistribution",
          "type": "uint128[]"
        },
        {
          "name": "_references",
          "type": "address[]"
        },
        {
          "name": "_author",
          "type": "address"
        },
        {
          "components": [
            {
              "name": "title",
              "type": "string"
            },
            {
              "name": "owner",
              "type": "address"
            },
            {
              "name": "contentHash",
              "type": "bytes"
            },
            {
              "name": "isPublic",
              "type": "bool"
            }
          ],
          "name": "submissionData",
          "type": "tuple"
        }
      ],
      "name": "createSubmission",
      "outputs": [
        {
          "name": "_submissionAddress",
          "type": "address"
        }
      ],
      "payable": false,
      "stateMutability": "nonpayable",
      "type": "function"
    },
    {
      "constant": false,
      "inputs": [],
      "name": "transferBountyToTournament",
      "outputs": [
        {
          "name": "",
          "type": "uint256"
        }
      ],
      "payable": false,
      "stateMutability": "nonpayable",
      "type": "function"
    }
  ],
  "bytecode": "0x60806040523480156200001157600080fd5b506040516101408062002f9c833981018060405262000034919081019062000294565b6000805460048054600160a060020a0319908116600160a060020a038b81169190911783556001805483168d83161790556002805483168b8316179055339382168417821688821617909455600686905560038054909116938816939093179092556060830151600c55604080517f4c6962546f75726e616d656e7441646d696e4d6574686f647300000000000000815290516019918190039190910181207f0d2020dd00000000000000000000000000000000000000000000000000000000825292630d2020dd916200010b9185910162000351565b602060405180830381600087803b1580156200012657600080fd5b505af11580156200013b573d6000803e3d6000fd5b505050506040513d601f19601f820116820180604052506200016191908101906200026b565b6000828152600560209081526040918290208054600160a060020a031916600160a060020a03949094169390931790925583519184015190840151620001b2929190640100000000620001c0810204565b50505050505050506200039e565b600992909255600a55600b55565b6000620001dc825162000392565b9392505050565b600060808284031215620001f657600080fd5b62000202608062000367565b905060006200021284846200025d565b825250602062000225848483016200025d565b60208301525060406200023b848285016200025d565b604083015250606062000251848285016200025d565b60608301525092915050565b6000620001dc82516200038f565b6000602082840312156200027e57600080fd5b60006200028c8484620001ce565b949350505050565b6000806000806000806000610140888a031215620002b157600080fd5b6000620002bf8a8a620001ce565b9750506020620002d28a828b01620001ce565b9650506040620002e58a828b01620001ce565b9550506060620002f88a828b01620001ce565b94505060806200030b8a828b01620001ce565b93505060a06200031e8a828b016200025d565b92505060c0620003318a828b01620001e3565b91505092959891949750929550565b6200034b816200038f565b82525050565b6020810162000361828462000340565b92915050565b60405181810167ffffffffffffffff811182821017156200038757600080fd5b604052919050565b90565b600160a060020a031690565b612bee80620003ae6000396000f30060806040526004361061025b5763ffffffff7c010000000000000000000000000000000000000000000000000000000060003504166303d66a97811461026057806307417cf11461028b5780630befb0a5146102ad5780630d2020dd146102c25780630e3db9f2146102e25780630e4142a1146102f957806310fe9ae81461031957806311fb48041461032e5780631865c57d1461035b5780631cdb7de514610370578063241b15ad1461039057806328dd8489146103a557806329cc545e146103ba5780632f0713bb146103cf5780632f54bf6e146103ef5780632fc1f1901461040f578063389994f9146104245780633d62278014610439578063439f5ac21461045957806347e405531461046e5780635325cdba1461048357806354f6aa20146104a357806356974da3146104c5578063597e1fb5146104e5578063648036ae146104fa5780636a3c19531461050f5780637d36f7661461052f5780637d7580721461054f5780637df2d748146105645780638499a138146105845780638734fe4c146105a4578063893d20e8146105c45780638da5cb5b146105d9578063943dfef1146105ee578063b0ff549214610603578063b288e1a914610618578063c828371e1461062d578063daff8cd414610642578063dbe55e5614610662578063df4f9dba14610677578063e001f84114610697578063e278fe6f146106b7578063e76c293e146106cc578063e9e8b446146102ad578063ed098460146106e1578063f2fde38b146106f6578063f49bff7b14610716578063f89474be1461072b578063f8b2cb4f1461074b578063fe71f3e41461076b575b600080fd5b34801561026c57600080fd5b5061027561078b565b604051610282919061299a565b60405180910390f35b34801561029757600080fd5b506102a06107a7565b6040516102829190612a70565b3480156102b957600080fd5b506102a0610892565b3480156102ce57600080fd5b506102756102dd36600461270f565b610942565b3480156102ee57600080fd5b506102f761096a565b005b34801561030557600080fd5b506102f761031436600461250f565b6109c5565b34801561032557600080fd5b50610275610a15565b34801561033a57600080fd5b5061034e61034936600461250f565b610a31565b6040516102829190612a39565b34801561036757600080fd5b506102a0610b15565b34801561037c57600080fd5b506102f761038b366004612553565b610bcd565b34801561039c57600080fd5b506102a0610beb565b3480156103b157600080fd5b506102a0610bf5565b3480156103c657600080fd5b50610275610bfb565b3480156103db57600080fd5b506102f76103ea36600461270f565b610c17565b3480156103fb57600080fd5b5061034e61040a36600461250f565b610d06565b34801561041b57600080fd5b50610275610d27565b34801561043057600080fd5b5061034e610d43565b34801561044557600080fd5b5061027561045436600461270f565b610d7e565b34801561046557600080fd5b506102a0610f2e565b34801561047a57600080fd5b50610275610f34565b34801561048f57600080fd5b506102f761049e36600461270f565b610f50565b3480156104af57600080fd5b506104b86110e9565b60405161028291906129c3565b3480156104d157600080fd5b5061034e6104e036600461270f565b611158565b3480156104f157600080fd5b5061034e6111db565b34801561050657600080fd5b506102a06111e4565b34801561051b57600080fd5b506102f761052a366004612661565b6111ea565b34801561053b57600080fd5b506102a061054a36600461270f565b6117da565b34801561055b57600080fd5b506102a06117f9565b34801561057057600080fd5b5061027561057f36600461270f565b6117ff565b34801561059057600080fd5b5061034e61059f36600461250f565b611834565b3480156105b057600080fd5b506102756105bf36600461258d565b61185e565b3480156105d057600080fd5b50610275611c26565b3480156105e557600080fd5b50610275611c42565b3480156105fa57600080fd5b506102a0611c5e565b34801561060f57600080fd5b50610275611c64565b34801561062457600080fd5b50610275611c80565b34801561063957600080fd5b506102a0611c9c565b34801561064e57600080fd5b506102f761065d36600461250f565b611ca2565b34801561066e57600080fd5b50610275611ccd565b34801561068357600080fd5b5061027561069236600461270f565b611ce9565b3480156106a357600080fd5b506102f76106b236600461272d565b611d30565b3480156106c357600080fd5b506102f7611d9c565b3480156106d857600080fd5b50610275611de3565b3480156106ed57600080fd5b506104b8611dff565b34801561070257600080fd5b506102f761071136600461250f565b611e6c565b34801561072257600080fd5b506102a0611eee565b34801561073757600080fd5b506102f761074636600461277b565b611ef4565b34801561075757600080fd5b506102a061076636600461250f565b611f82565b34801561077757600080fd5b506102a061078636600461250f565b612032565b60025473ffffffffffffffffffffffffffffffffffffffff1681565b600254600090819073ffffffffffffffffffffffffffffffffffffffff1633146107d057600080fd5b6107d8610892565b600480546002546040517fa9059cbb00000000000000000000000000000000000000000000000000000000815293945073ffffffffffffffffffffffffffffffffffffffff9182169363a9059cbb9361083793909216918691016129a8565b602060405180830381600087803b15801561085157600080fd5b505af1158015610865573d6000803e3d6000fd5b505050506040513d601f19601f8201168201806040525061088991908101906126f1565b508091505b5090565b600480546040517f70a0823100000000000000000000000000000000000000000000000000000000815260009273ffffffffffffffffffffffffffffffffffffffff909216916370a08231916108ea91309101612a47565b602060405180830381600087803b15801561090457600080fd5b505af1158015610918573d6000803e3d6000fd5b505050506040513d601f19601f8201168201806040525061093c919081019061275d565b90505b90565b60009081526005602052604090205473ffffffffffffffffffffffffffffffffffffffff1690565b60025460009073ffffffffffffffffffffffffffffffffffffffff16331461099157600080fd5b600954600a546109a69163ffffffff61205a16565b4260098190559091506109bf908263ffffffff61206c16565b600a5550565b60025473ffffffffffffffffffffffffffffffffffffffff1633146109e957600080fd5b60005b73ffffffffffffffffffffffffffffffffffffffff909116600090815260126020526040902055565b60045473ffffffffffffffffffffffffffffffffffffffff1690565b73ffffffffffffffffffffffffffffffffffffffff8116600090815260146020526040812054819060ff161515610a6757600080fd5b506040517fa52dd12f000000000000000000000000000000000000000000000000000000008152829073ffffffffffffffffffffffffffffffffffffffff82169063a52dd12f90610abc90339060040161299a565b602060405180830381600087803b158015610ad657600080fd5b505af1158015610aea573d6000803e3d6000fd5b505050506040513d601f19601f82011682018060405250610b0e91908101906126f1565b9392505050565b6000600954421015610b2b5760005b905061093f565b6009544210158015610b3e5750600a5442105b15610b5f57610b4b610892565b1515610b58576001610b24565b6002610b24565b600a544210158015610b845750600b54600a54610b819163ffffffff61206c16565b42105b15610bb45760115460ff1615610b9b576005610b24565b600d5460001015610bad576004610b24565b6003610b24565b600d5460001015610bc6576005610b24565b6006610b24565b3360009081526014602052604090205460ff1615156109ec57600080fd5b6017546015540390565b600b5481565b60045473ffffffffffffffffffffffffffffffffffffffff1681565b60025473ffffffffffffffffffffffffffffffffffffffff163314610c3b57600080fd5b6000610c45610b15565b14610c4f57600080fd5b600480546040517fa9059cbb00000000000000000000000000000000000000000000000000000000815273ffffffffffffffffffffffffffffffffffffffff9091169163a9059cbb91610ca69133918691016129a8565b602060405180830381600087803b158015610cc057600080fd5b505af1158015610cd4573d6000803e3d6000fd5b505050506040513d601f19601f82011682018060405250610cf891908101906126f1565b1515610d0357600080fd5b50565b60005473ffffffffffffffffffffffffffffffffffffffff91821691161490565b60015473ffffffffffffffffffffffffffffffffffffffff1690565b6000600d6000815481101515610d5557fe5b60009182526020909120015473ffffffffffffffffffffffffffffffffffffffff161515905090565b6000803383601581815481101515610d9257fe5b6000918252602090912001546040517fa52dd12f00000000000000000000000000000000000000000000000000000000815273ffffffffffffffffffffffffffffffffffffffff9091169063a52dd12f90610df190859060040161299a565b602060405180830381600087803b158015610e0b57600080fd5b505af1158015610e1f573d6000803e3d6000fd5b505050506040513d601f19601f82011682018060405250610e4391908101906126f1565b1515610e4e57600080fd5b6015805486908110610e5c57fe5b9060005260206000200160009054906101000a900473ffffffffffffffffffffffffffffffffffffffff1692508273ffffffffffffffffffffffffffffffffffffffff1663a5faa1256040518163ffffffff167c0100000000000000000000000000000000000000000000000000000000028152600401602060405180830381600087803b158015610eed57600080fd5b505af1158015610f01573d6000803e3d6000fd5b505050506040513d601f19601f82011682018060405250610f259190810190612535565b95945050505050565b600a5490565b60085473ffffffffffffffffffffffffffffffffffffffff1681565b6002546000908190819073ffffffffffffffffffffffffffffffffffffffff163314610f7b57600080fd5b600092505b600d548310156110e357600c54610f9d908563ffffffff61206c16565b9150610ff582610fe9600f54610fdd670de0b6b3a7640000600e89815481101515610fc457fe5b906000526020600020015461207b90919063ffffffff16565b9063ffffffff61209f16565b9063ffffffff61207b16565b600454600d805492935073ffffffffffffffffffffffffffffffffffffffff9091169163a9059cbb91908690811061102957fe5b6000918252602090912001546040517c010000000000000000000000000000000000000000000000000000000063ffffffff84160281526110859173ffffffffffffffffffffffffffffffffffffffff169085906004016129a8565b602060405180830381600087803b15801561109f57600080fd5b505af11580156110b3573d6000803e3d6000fd5b505050506040513d601f19601f820116820180604052506110d791908101906126f1565b50600190920191610f80565b50505050565b6060601580548060200260200160405190810160405280929190818152602001828054801561114e57602002820191906000526020600020905b815473ffffffffffffffffffffffffffffffffffffffff168152600190910190602001808311611123575b5050505050905090565b6015546000908190831061116b57600080fd5b601580548490811061117957fe5b6000918252602090912001546040517fa52dd12f00000000000000000000000000000000000000000000000000000000815273ffffffffffffffffffffffffffffffffffffffff9091169150819063a52dd12f90610abc90339060040161299a565b60115460ff1681565b60065481565b6000806000806000806111fb6120b6565b600254604080517f4c6962546f75726e616d656e7441646d696e4d6574686f647300000000000000815290519081900360190190203373ffffffffffffffffffffffffffffffffffffffff90921682149160009161125890610942565b73ffffffffffffffffffffffffffffffffffffffff16149050600a5460001415151561128357600080fd5b600361128d610b15565b1461129757600080fd5b8c600d90805190602001906112ad9291906120df565b508b516112c190600e9060208f019061215a565b50600097505b600e5488101561130a576112fd600e898154811015156112e357fe5b90600052602060002001548a61206c90919063ffffffff16565b98506001909701966112c7565b600f89905589158061131c575060018a145b156117bd57600096505b600d5487101561145b57611363670de0b6b3a7640000610fdd600c54610fe9600f54610fdd670de0b6b3a7640000600e8f815481101515610fc457fe5b600454600d805492985073ffffffffffffffffffffffffffffffffffffffff9091169163a9059cbb91908a90811061139757fe5b6000918252602090912001546040517c010000000000000000000000000000000000000000000000000000000063ffffffff84160281526113f39173ffffffffffffffffffffffffffffffffffffffff16908a906004016129a8565b602060405180830381600087803b15801561140d57600080fd5b505af1158015611421573d6000803e3d6000fd5b505050506040513d601f19601f8201168201806040525061144591908101906126f1565b151561145057600080fd5b600190960195611326565b600480546002546040517f70a0823100000000000000000000000000000000000000000000000000000000815273ffffffffffffffffffffffffffffffffffffffff928316936370a08231936114b39316910161299a565b602060405180830381600087803b1580156114cd57600080fd5b505af11580156114e1573d6000803e3d6000fd5b505050506040513d601f19601f82011682018060405250611505919081019061275d565b9350600c548410156115195783945061151f565b600c5494505b89151561168b57608060405190810160405280611549600b54600a5461206c90919063ffffffff16565b8152602001611589611568600954600a5461205a90919063ffffffff16565b600b54600a5461157d9163ffffffff61206c16565b9063ffffffff61206c16565b8152600b546020820152604090810187905260025490517f3809eba200000000000000000000000000000000000000000000000000000000815291945073ffffffffffffffffffffffffffffffffffffffff1690633809eba2906115f4908690600190600401612a55565b602060405180830381600087803b15801561160e57600080fd5b505af1158015611622573d6000803e3d6000fd5b505050506040513d601f19601f820116820180604052506116469190810190612535565b601160016101000a81548173ffffffffffffffffffffffffffffffffffffffff021916908373ffffffffffffffffffffffffffffffffffffffff1602179055506117b8565b60018a14156117b8576011805460ff191660011790556040805160808101825242815260208d810151908201528c820151818301526060808e01519082015260025491517f3809eba200000000000000000000000000000000000000000000000000000000815290945073ffffffffffffffffffffffffffffffffffffffff90911690633809eba290611725908690600090600401612a55565b602060405180830381600087803b15801561173f57600080fd5b505af1158015611753573d6000803e3d6000fd5b505050506040513d601f19601f820116820180604052506117779190810190612535565b601160016101000a81548173ffffffffffffffffffffffffffffffffffffffff021916908373ffffffffffffffffffffffffffffffffffffffff1602179055505b6117cb565b6011805460ff191660011790555b50505050505050505050505050565b600e8054829081106117e857fe5b600091825260209091200154905081565b600f5481565b600d80548290811061180d57fe5b60009182526020909120015473ffffffffffffffffffffffffffffffffffffffff16905081565b73ffffffffffffffffffffffffffffffffffffffff16600090815260126020526040902054151590565b60006118686121a1565b600254600090819073ffffffffffffffffffffffffffffffffffffffff16331461189157600080fd5b600261189b610b15565b146118a557600080fd5b73ffffffffffffffffffffffffffffffffffffffff861615156118c757600080fd5b6040805160608101825260015473ffffffffffffffffffffffffffffffffffffffff908116825260025481166020830152308284015260035492517f867cda48000000000000000000000000000000000000000000000000000000008152919550919091169063867cda4890611949908c908c908c9089908c906004016129d4565b602060405180830381600087803b15801561196357600080fd5b505af1158015611977573d6000803e3d6000fd5b505050506040513d601f19601f8201168201806040525061199b9190810190612535565b604080518082018252600180825260158054602080850191825273ffffffffffffffffffffffffffffffffffffffff87166000818152601483528781209651875460ff191690151517875592519585019590955582549384019092557f55f448fdea98c4d29eb340757ef0a66cd03dbb9538908a6a81d96026b71ec475909201805473ffffffffffffffffffffffffffffffffffffffff1916909317909255338152601390915220549092501515611abc576020850151601680546001810182556000919091527fd833147d7dc355ba459fc788f669e58cfaf9dc25ddcd0702e87d69c7b512428901805473ffffffffffffffffffffffffffffffffffffffff191673ffffffffffffffffffffffffffffffffffffffff9092169190911790555b33600090815260136020908152604082208054600181018255908352912001805473ffffffffffffffffffffffffffffffffffffffff191673ffffffffffffffffffffffffffffffffffffffff8416179055600373ffffffffffffffffffffffffffffffffffffffff871660009081526012602052604081209190915590505b8851811015611b91576002601260008b84815181101515611b5957fe5b602090810290910181015173ffffffffffffffffffffffffffffffffffffffff16825281019190915260400160002055600101611b3c565b6002546040517f4644c51b00000000000000000000000000000000000000000000000000000000815273ffffffffffffffffffffffffffffffffffffffff90911690634644c51b90611be790859060040161299a565b600060405180830381600087803b158015611c0157600080fd5b505af1158015611c15573d6000803e3d6000fd5b50939b9a5050505050505050505050565b60005473ffffffffffffffffffffffffffffffffffffffff1690565b60005473ffffffffffffffffffffffffffffffffffffffff1681565b600c5481565b60035473ffffffffffffffffffffffffffffffffffffffff1681565b60075473ffffffffffffffffffffffffffffffffffffffff1681565b60095490565b60025473ffffffffffffffffffffffffffffffffffffffff163314611cc657600080fd5b60016109ec565b60015473ffffffffffffffffffffffffffffffffffffffff1681565b6015546000908210611cfa57600080fd5b6015805483908110611d0857fe5b60009182526020909120015473ffffffffffffffffffffffffffffffffffffffff1692915050565b60005473ffffffffffffffffffffffffffffffffffffffff163314611d5457600080fd5b600091825260056020526040909120805473ffffffffffffffffffffffffffffffffffffffff191673ffffffffffffffffffffffffffffffffffffffff909216919091179055565b60025473ffffffffffffffffffffffffffffffffffffffff163314611dc057600080fd5b6004611dca610b15565b14611dd457600080fd5b6011805460ff19166001179055565b60025473ffffffffffffffffffffffffffffffffffffffff1690565b6060600d80548060200260200160405190810160405280929190818152602001828054801561114e5760200282019190600052602060002090815473ffffffffffffffffffffffffffffffffffffffff168152600190910190602001808311611123575050505050905090565b60005473ffffffffffffffffffffffffffffffffffffffff163314611e9057600080fd5b73ffffffffffffffffffffffffffffffffffffffff81161515611eb257600080fd5b6000805473ffffffffffffffffffffffffffffffffffffffff191673ffffffffffffffffffffffffffffffffffffffff92909216919091179055565b600c5490565b60025473ffffffffffffffffffffffffffffffffffffffff163314611f1857600080fd5b80518210611f2557600080fd5b8051602082015111611f3657600080fd5b6040810151600010611f4757600080fd5b80516020820151600091611f61919063ffffffff61205a16565b11611f6b57600080fd5b80516009556020810151600a5560400151600b5550565b600480546040517f70a0823100000000000000000000000000000000000000000000000000000000815260009273ffffffffffffffffffffffffffffffffffffffff909216916370a0823191611fda9186910161299a565b602060405180830381600087803b158015611ff457600080fd5b505af1158015612008573d6000803e3d6000fd5b505050506040513d601f19601f8201168201806040525061202c919081019061275d565b92915050565b73ffffffffffffffffffffffffffffffffffffffff1660009081526012602052604090205490565b60008282111561206657fe5b50900390565b600082820183811015610b0e57fe5b6000828202831580612097575082848281151561209457fe5b04145b1515610b0e57fe5b60008082848115156120ad57fe5b04949350505050565b608060405190810160405280600081526020016000815260200160008152602001600081525090565b82805482825590600052602060002090810192821561214e579160200282015b8281111561214e578251825473ffffffffffffffffffffffffffffffffffffffff191673ffffffffffffffffffffffffffffffffffffffff9091161782556020909201916001909101906120ff565b5061088e9291506121c1565b828054828255906000526020600020908101928215612195579160200282015b8281111561219557825182559160200191906001019061217a565b5061088e9291506121f2565b604080516060810182526000808252602082018190529181019190915290565b61093f91905b8082111561088e57805473ffffffffffffffffffffffffffffffffffffffff191681556001016121c7565b61093f91905b8082111561088e57600081556001016121f8565b6000610b0e8235612b16565b6000610b0e8251612b16565b6000601f8201831361223557600080fd5b813561224861224382612aa5565b612a7e565b9150818183526020840193506020810190508385602084028201111561226d57600080fd5b60005b838110156122995781612283888261220c565b8452506020928301929190910190600101612270565b5050505092915050565b6000601f820183136122b457600080fd5b81356122c261224382612aa5565b915081818352602084019350602081019050838560208402820111156122e757600080fd5b60005b8381101561229957816122fd88826124f7565b84525060209283019291909101906001016122ea565b6000601f8201831361232457600080fd5b813561233261224382612aa5565b9150818183526020840193506020810190508385602084028201111561235757600080fd5b60005b83811015612299578161236d888261239b565b845250602092830192919091019060010161235a565b6000610b0e8235612b2f565b6000610b0e8251612b2f565b6000610b0e823561093f565b6000601f820183136123b857600080fd5b81356123c661224382612ac6565b915080825260208301602083018583830111156123e257600080fd5b6123ed838284612b54565b50505092915050565b60006080828403121561240857600080fd5b6124126080612a7e565b90506000612420848461239b565b82525060206124318484830161239b565b60208301525060406124458482850161239b565b60408301525060606124598482850161239b565b60608301525092915050565b60006080828403121561247757600080fd5b6124816080612a7e565b9050813567ffffffffffffffff81111561249a57600080fd5b6124a6848285016123a7565b82525060206124b78484830161220c565b602083015250604082013567ffffffffffffffff8111156124d757600080fd5b6124e3848285016123a7565b604083015250606061245984828501612383565b6000610b0e8235612b34565b6000610b0e825161093f565b60006020828403121561252157600080fd5b600061252d848461220c565b949350505050565b60006020828403121561254757600080fd5b600061252d8484612218565b6000806040838503121561256657600080fd5b6000612572858561220c565b92505060206125838582860161239b565b9150509250929050565b600080600080600060a086880312156125a557600080fd5b853567ffffffffffffffff8111156125bc57600080fd5b6125c888828901612224565b955050602086013567ffffffffffffffff8111156125e557600080fd5b6125f1888289016122a3565b945050604086013567ffffffffffffffff81111561260e57600080fd5b61261a88828901612224565b935050606061262b8882890161220c565b925050608086013567ffffffffffffffff81111561264857600080fd5b61265488828901612465565b9150509295509295909350565b60008060008060e0858703121561267757600080fd5b843567ffffffffffffffff81111561268e57600080fd5b61269a87828801612224565b945050602085013567ffffffffffffffff8111156126b757600080fd5b6126c387828801612313565b93505060406126d4878288016123f6565b92505060c06126e58782880161239b565b91505092959194509250565b60006020828403121561270357600080fd5b600061252d848461238f565b60006020828403121561272157600080fd5b600061252d848461239b565b6000806040838503121561274057600080fd5b600061274c858561239b565b92505060206125838582860161220c565b60006020828403121561276f57600080fd5b600061252d8484612503565b60008060a0838503121561278e57600080fd5b600061279a858561239b565b9250506020612583858286016123f6565b6127b481612b16565b82525050565b60006127c582612b12565b8084526020840193506127d783612b0c565b60005b82811015612807576127ed8683516127ab565b6127f682612b0c565b6020969096019591506001016127da565b5093949350505050565b600061281c82612b12565b80845260208401935061282e83612b0c565b60005b8281101561280757612844868351612988565b61284d82612b0c565b602096909601959150600101612831565b6127b481612b2f565b600061287282612b12565b808452612886816020860160208601612b60565b61288f81612b8c565b9093016020019392505050565b6127b481612b49565b805160608301906128b684826127ab565b5060208201516128c960208501826127ab565b5060408201516110e360408501826127ab565b805160808301906128ed8482612991565b5060208201516129006020850182612991565b5060408201516129136040850182612991565b5060608201516110e36060850182612991565b805160808084526000919084019061293e8282612867565b915050602083015161295360208601826127ab565b506040830151848203604086015261296b8282612867565b9150506060830151612980606086018261285e565b509392505050565b6127b481612b34565b6127b48161093f565b6020810161202c82846127ab565b604081016129b682856127ab565b610b0e6020830184612991565b60208082528101610b0e81846127ba565b60e080825281016129e581886127ba565b905081810360208301526129f98187612811565b90508181036040830152612a0d81866127ba565b9050612a1c60608301856128a5565b81810360c0830152612a2e8184612926565b979650505050505050565b6020810161202c828461285e565b6020810161202c828461289c565b60a08101612a6382856128dc565b610b0e608083018461285e565b6020810161202c8284612991565b60405181810167ffffffffffffffff81118282101715612a9d57600080fd5b604052919050565b600067ffffffffffffffff821115612abc57600080fd5b5060209081020190565b600067ffffffffffffffff821115612add57600080fd5b506020601f919091017fffffffffffffffffffffffffffffffffffffffffffffffffffffffffffffffe0160190565b60200190565b5190565b73ffffffffffffffffffffffffffffffffffffffff1690565b151590565b6fffffffffffffffffffffffffffffffff1690565b600061202c82612b16565b82818337506000910152565b60005b83811015612b7b578181015183820152602001612b63565b838111156110e35750506000910152565b601f017fffffffffffffffffffffffffffffffffffffffffffffffffffffffffffffffe016905600a265627a7a723058203a94c2c1304a3a9c275c058060828d6bef0c8b39493b971462816b667208fcf76c6578706572696d656e74616cf50037",
  "source": "pragma solidity ^0.4.18;\npragma experimental ABIEncoderV2;\n\nimport \"../libraries/math/SafeMath.sol\";\nimport \"../libraries/LibConstruction.sol\";\nimport \"../interfaces/IMatryxToken.sol\";\nimport \"../interfaces/IMatryxTournament.sol\";\nimport \"../interfaces/IMatryxRound.sol\";\nimport \"../interfaces/factories/IMatryxRoundFactory.sol\";\nimport \"../interfaces/factories/IMatryxSubmissionFactory.sol\";\nimport \"../interfaces/IMatryxSubmission.sol\";\nimport \"./Ownable.sol\";\n\n/// @title MatryxRound - A round within a Matryx tournament.\n/// @author Max Howard - <max@nanome.ai>, Sam Hessenauer - <sam@nanome.ai>\ncontract MatryxRound is Ownable, IMatryxRound {\n    using SafeMath for uint256;\n\n    //TODO: allow for refunds\n    // TODO: condense and put in structs\n    address public platformAddress;\n    address public tournamentAddress;\n    address public matryxSubmissionFactoryAddress;\n    address public matryxTokenAddress;\n\n    mapping(bytes32=>address) private contracts;\n\n    uint256 public roundIndex;\n    address public previousRound;\n    address public nextRound;\n    uint256 startTime;\n    uint256 endTime;\n    uint256 public reviewPeriodDuration;\n    uint256 public bounty;\n    address[] public winningSubmissions;\n    uint256[] public rewardDistribution;\n    uint256 public rewardDistributionTotal;\n    mapping(address=>bool) submissionToHasBeenPayed;\n    bool public closed;\n    address newRound;\n\n    mapping(address=>uint) addressToParticipantType;\n    mapping(address=>address[]) authorToSubmissionAddress;\n    mapping(address=>uint256_optional) addressToSubmissionIndex;\n    address[] submissions;\n    address[] submissionOwners;\n    uint256 numberSubmissionsRemoved;\n\n    event GiveAddress(address _address, string _identifier);\n\tconstructor(address _platformAddress, address _matryxTokenAddress, address _tournamentAddress, address _submissionFactoryAddress, address _owner, uint256 _roundIndex, LibConstruction.RoundData roundData) public\n\t{\n\t\tmatryxTokenAddress = _matryxTokenAddress;\n\t\tplatformAddress = _platformAddress;\n\t\ttournamentAddress = _tournamentAddress;\n\t\towner = _owner;\n        roundIndex = _roundIndex;\n\t\tmatryxSubmissionFactoryAddress = _submissionFactoryAddress;\n\t\tbounty = roundData.bounty;\n\n        bytes32 tournamentAdminLibHash = sha3(\"LibTournamentAdminMethods\");\n        contracts[tournamentAdminLibHash] = IMatryxRoundFactory(msg.sender).getContractAddress(tournamentAdminLibHash);\n        \n\t\tscheduleStart(roundData.start, roundData.end, roundData.reviewPeriodDuration);\n\t}\n\n\t/*\n\t * Structs\n\t */\n\n\tstruct uint256_optional\n    {\n        bool exists;\n        uint256 value;\n    }\n\n    /*\n     * Enums\n     */\n    enum RoundState { NotYetOpen, Unfunded, Open, InReview, HasWinners, Closed, Abandoned }\n    enum TournamentState { NotYetOpen, OnHold, Open, Closed, Abandoned}\n\tenum ParticipantType { Nonentrant, Entrant, Contributor, Author }\n\n\t/*\n     * Modifiers\n     */\n\n    /// @dev Requires that this round is in the open submission state.\n\tmodifier duringOpenSubmission()\n\t{\n\t\trequire(getState() == uint256(RoundState.Open));\n\t\t_;\n\t}\n\n\t/// @dev Requires that this round is in the winner selection state.\n\tmodifier duringReviewPeriod()\n\t{\n\t\trequire(endTime != 0);\n\t\trequire(getState() == uint256(RoundState.InReview));\n\t\t_;\n\t}\n\n\t// @dev Requires that a winner has been selected for this round.\n\t// modifier afterWinnerSelected()\n\t// {\n\t// \trequire(winningSubmissions[0] != 0x0);\n\t// \t_;\n\t// }\n\n    modifier onlySubmission()\n    {\n        require(addressToSubmissionIndex[msg.sender].exists);\n        _;\n    }\n\n    modifier onlyTournament()\n    {\n        require(msg.sender == tournamentAddress);\n        _;\n    }\n\n    modifier onlyTournamentOrLib()\n    {\n        bool isTournament = msg.sender == tournamentAddress;\n        bool isLib = getContractAddress(sha3(\"LibTournamentAdminMethods\")) == msg.sender;\n        _;\n    }\n\n\t/// @dev Requires that the desired submission is accessible to the requester.\n    modifier whenAccessible(address _requester, uint256 _index)\n    {\n        require(IMatryxSubmission(submissions[_index]).isAccessible(_requester));\n        _;\n    }\n\n    function submissionExists(address _submissionAddress) internal returns (bool)\n    {\n        return addressToSubmissionIndex[_submissionAddress].exists;\n    }\n\n\t/// @dev Requires the function caller to be the platform or the owner of this tournament\n\t// modifier tournamentOrOwner()\n    // {\n    //     require((msg.sender == tournamentAddress)||(msg.sender == owner));\n    //     _;\n    // }\n\n\t// @dev Requires that the sender be the submission's author.\n\tmodifier onlySubmissionAuthor()\n\t{\n\t\trequire(authorToSubmissionAddress[msg.sender].length != 0);\n\t\t_;\n\t}\n\n\t/*\n\t * State Maintenance Methods\n\t */\n\n\t// function removeSubmission(address _submissionAddress) public onlyTournament returns (bool)\n\t// {\n\t// \tif(addressToSubmissionIndex[msg.sender].exists)\n\t// \t{\n\t// \t\tIMatryxSubmission submission = IMatryxSubmission(submissions[addressToSubmissionIndex[_submissionAddress].value]);\n\t// \t\taddress author = submission.getAuthor();\n\t// \t\tsubmission.deleteSubmission();\n\n\t// \t\tdelete authorToSubmissionAddress[author];\n\t// \t\tdelete submissions[addressToSubmissionIndex[_submissionAddress].value];\n\n\t// \t\tnumberSubmissionsRemoved = numberSubmissionsRemoved.add(1);\n\t// \t\treturn true;\n\t// \t}\n\n\t// \treturn false;\n\t// }\n\n\t/*\n     * Access Control Methods\n     */\n\n    /// @dev Sets an address for a contract the platform should know about.\n    /// @param _nameHash Keccak256 hash of the name of the contract to give an address to.\n    /// @param _contractAddress Address to be assigned for the given contract name.\n    function setContractAddress(bytes32 _nameHash, address _contractAddress) public onlyOwner\n    {\n        contracts[_nameHash] = _contractAddress;\n    }\n\n    /// @dev Gets the address of a contract the platform knows about.\n    /// @param _nameHash Keccak256 hash of the name of the contract to look for.\n    /// @return Address of the contract with the designated name.\n    function getContractAddress(bytes32 _nameHash) public returns (address contractAddress)\n    {\n        return contracts[_nameHash];\n    }\n\n\t// @dev Returns the state of the round. \n\t// The round can be in one of 6 states:\n\t// NotYetOpen, Open, InReview, HasWinners, Closed, Abandoned\n    function getState() public view returns (uint256)\n    {\n        if(now < startTime)\n        {\n            return uint256(RoundState.NotYetOpen);\n        }\n        else if(now >= startTime && now < endTime)\n        {\n            if (getRoundBalance() == 0)\n            {\n                return uint256(RoundState.Unfunded);\n            }\n\n            return uint256(RoundState.Open);\n        }\n        else if(now >= endTime && now < endTime.add(reviewPeriodDuration))\n        {\n            if(closed)\n            {\n                return uint256(RoundState.Closed);\n            }\n            else if(winningSubmissions.length > 0)\n            {\n                return uint256(RoundState.HasWinners);\n            }\n\n            return uint256(RoundState.InReview);\n        }\n        else if(winningSubmissions.length > 0)\n        {\n            return uint256(RoundState.Closed);\n        }\n        else\n        {\n            return uint256(RoundState.Abandoned);\n        }\n    }\n\n    /// @dev Returns whether or not the submission is accessible to the requester.\n\t/// @param _index Index of the submission being requested.\n    /// @return Whether or not the submission is accessible to the requester.\n\tfunction submissionIsAccessible(uint256 _index) public constant returns (bool)\n\t{\n\t\trequire(_index < submissions.length);\n\n\t\tIMatryxSubmission submission = IMatryxSubmission(submissions[_index]);\n\t\treturn submission.isAccessible(msg.sender);\n\t}\n\n\t/// @dev Returns whether or not the submission is accessible to the requester.\n\t/// @param _submissionAddress Address of the submission being requested.\n    /// @return Whether or not the submission is accessible to the requester.\n\tfunction submissionIsAccessible(address _submissionAddress) public view returns (bool)\n\t{\n\t\trequire(addressToSubmissionIndex[_submissionAddress].exists);\n\n\t\tIMatryxSubmission submission = IMatryxSubmission(_submissionAddress);\n\t\treturn submission.isAccessible(msg.sender);\n\t}\n\n\t/// @dev Returns true if the sender is an entrant in this round.\n\t/// @param _requester Address being tested.\n\t/// @return Whether or not the requester is a contributor in this round.\n\tfunction requesterIsContributor(address _requester) public constant returns (bool)\n\t{\n\t\treturn addressToParticipantType[_requester] != 0;\n\t}\n\n\tfunction setParticipantType(address _participantAddress, uint256 _type) public onlySubmission\n\t{\n\t\taddressToParticipantType[_participantAddress] = _type;\n\t}\n\n\t/*\n     * Getter Methods\n     */\n\n    function getPlatform() public constant returns (address) {\n\t\treturn platformAddress;\n\t}\n\n    function getTournament() public constant returns (address) {\n\t\treturn tournamentAddress;\n\t}\n\n    function getStartTime() public view returns (uint256)\n    {\n        return startTime;\n    }\n\n    function getEndTime() public view returns (uint256)\n    {\n        return endTime;\n    }\n\n    function getBounty() public constant returns (uint256) \n    { \n    \treturn bounty;\n    }\n\n    function remainingBounty() public constant returns (uint256)\n    {\n        return IMatryxToken(matryxTokenAddress).balanceOf(this);\n    }\n\n    function getTokenAddress() public constant returns (address)\n    {\n    \treturn matryxTokenAddress;\n    }\n\n\t/// @dev Returns all submissions made to this round.\n\t/// @return _submissions All submissions made to this round.\n\tfunction getSubmissions() public constant returns (address[] _submissions)\n\t{\n\t\treturn submissions;\n\t}\n\n\tfunction getSubmissionAddress(uint256 _index) public constant returns (address _submissionAddress)\n\t{\n\t\trequire(_index < submissions.length);\n\n\t\treturn submissions[_index];\n\t}\n\n\t/// @dev Returns the author of a submission.\n\t/// @param _index Index of the submission.\n\t/// @return Address of this submission's author.\n\tfunction getSubmissionAuthor(uint256 _index) public constant whenAccessible(msg.sender, _index) returns (address) \n\t{\n\t\tIMatryxSubmission submission = IMatryxSubmission(submissions[_index]);\n\t\treturn submission.getAuthor();\n\t}\n\n\t/// @dev Returns the balance of a particular submission\n\t/// @param _submissionAddress Address of the submission\n\t/// @return Balance of the bounty \n\tfunction getBalance(address _submissionAddress) public constant returns (uint256)\n\t{\n\t\treturn IMatryxToken(matryxTokenAddress).balanceOf(_submissionAddress);\n\t}\n\n    function getRoundBalance() public view returns (uint256)\n    {\n        return IMatryxToken(matryxTokenAddress).balanceOf(this);\n    }\n\n\t/// @dev Returns whether or not a winning submission has been chosen.\n\t/// @return Whether or not a submission has been chosen.\n\tfunction submissionsChosen() public constant returns (bool)\n\t{\n\t\treturn winningSubmissions[0] != 0x0;\n\t}\n\n\t/// @dev Returns the index of this round's winning submission.\n\t/// @return Index of the winning submission.\n\tfunction getWinningSubmissionAddresses() public constant returns (address[])\n\t{\n\t\treturn winningSubmissions;\n\t}\n\n\t/// @dev Returns the number of submissions made to this round.\n\t/// @return Number of submissions made to this round.\n\tfunction numberOfSubmissions() public constant returns (uint256)\n\t{\n\t\treturn submissions.length - numberSubmissionsRemoved;\n\t}\n\n    function getParticipantType(address _participant) public view returns (uint256)\n    {\n        return addressToParticipantType[_participant];\n    }\n\n\t/*\n     * Round Admin Methods\n     */\n\n\n\t/// @dev Starts the round (callable only by the owner of the round).\n\t/// @param _start Start time.\n\t/// @param _end End time.\n\t/// @param _reviewPeriodDuration Time to review the round submissions\n\tfunction scheduleStart(uint256 _start, uint256 _end, uint256 _reviewPeriodDuration) internal\n\t{\n\t\tstartTime = _start;\n\t\tendTime = _end;\n\t\treviewPeriodDuration = _reviewPeriodDuration;\n\t}\n\n    /// @dev Allows the tournament to edit the \n    function editRound(uint256 _currentRoundEndTime, LibConstruction.RoundData _roundData) public onlyTournament\n    {\n        require(_roundData.start > _currentRoundEndTime);\n        require(_roundData.end > _roundData.start);\n        require(_roundData.reviewPeriodDuration > 0);\n        require(_roundData.end.sub(_roundData.start) > 0);\n\n        startTime = _roundData.start;\n        endTime = _roundData.end;\n        reviewPeriodDuration = _roundData.reviewPeriodDuration;\n    }\n\n    function transferToTournament(uint256 _amount) public onlyTournament \n    {\n        require(getState() == uint256(RoundState.NotYetOpen));\n        require(IMatryxToken(matryxTokenAddress).transfer(msg.sender, _amount));\n    }\n\n    enum SelectWinnerAction { DoNothing, StartNextRound, CloseTournament }\n\t/// @dev Choose a winning submission for the round (callable only by the owner of the round).\n    /// @param _submissionAddresses Index of the winning submission.\n    /// @param _rewardDistribution Distribution indicating how to split the reward among the submissions\n\tfunction selectWinningSubmissions(address[] _submissionAddresses, uint256[] _rewardDistribution, LibConstruction.RoundData _roundData, uint256 _selectWinnerAction) public onlyTournamentOrLib duringReviewPeriod\n\t{\n\t\t// require(_submissionAddresses.length == _rewardDistribution.length);\n        // require(_submissionAddresses.length != 0 && winningSubmissions.length == 0);\n\n        winningSubmissions = _submissionAddresses;\n        rewardDistribution = _rewardDistribution;\n\n        uint256 _rewardDistributionTotal;\n        for(uint256 i = 0; i < rewardDistribution.length; i++)\n        {\n            _rewardDistributionTotal = _rewardDistributionTotal.add(rewardDistribution[i]);\n        }\n\n        rewardDistributionTotal = _rewardDistributionTotal;\n\n        // DoNothing and StartNextRound cases\n        if(_selectWinnerAction == uint256(SelectWinnerAction.DoNothing) || _selectWinnerAction == uint256(SelectWinnerAction.StartNextRound))\n        {\n            for(uint256 j = 0; j < winningSubmissions.length; j++)\n            {\n                // Calculate total reward denominator and store it somewhere when\n                uint256 reward = rewardDistribution[j].mul(1*10**18).div(rewardDistributionTotal).mul(bounty).div(1*10**18);\n                // Transfer the reward to the submission\n                require(IMatryxToken(matryxTokenAddress).transfer(winningSubmissions[j], reward));\n            }\n\n            uint256 newBounty;\n            uint256 tournamentBalance = IMatryxToken(matryxTokenAddress).balanceOf(tournamentAddress);\n\n            if(tournamentBalance < bounty)\n            {\n                newBounty = tournamentBalance;\n            }\n            else\n            {\n                newBounty = bounty;\n            }\n\n            LibConstruction.RoundData memory roundData;\n            if(_selectWinnerAction == uint256(SelectWinnerAction.DoNothing))\n            {\n                roundData = LibConstruction.RoundData({start: endTime.add(reviewPeriodDuration), end: endTime.add(reviewPeriodDuration).add(endTime.sub(startTime)), reviewPeriodDuration: reviewPeriodDuration, bounty: newBounty});\n                newRound = IMatryxTournament(tournamentAddress).createRound(roundData, true);\n            }\n            else if(_selectWinnerAction == uint256(SelectWinnerAction.StartNextRound))\n            {\n                closed = true;\n                roundData = LibConstruction.RoundData({start: now, end: _roundData.end, reviewPeriodDuration: _roundData.reviewPeriodDuration, bounty: _roundData.bounty});\n                newRound = IMatryxTournament(tournamentAddress).createRound(roundData, false);\n            }\n        }\n        else\n        {\n            // CloseTournament case\n            closed = true;\n        }\n\t}\n\n    function transferAllToWinners(uint256 _tournamentBalance) public onlyTournament\n    {\n        for(uint256 i = 0; i < winningSubmissions.length; i++)\n        {\n            // Calculate total reward denominator and store it somewhere when\n            uint totalBalance = bounty.add(_tournamentBalance);\n            uint256 reward = (rewardDistribution[i].mul(1*10**18).div(rewardDistributionTotal)).mul(totalBalance);\n            // Transfer the reward to the submission\n            IMatryxToken(matryxTokenAddress).transfer(winningSubmissions[i], reward);\n        }\n    }\n\n    function startNow() public onlyTournament\n    {\n        uint256 duration = endTime.sub(startTime);\n        startTime = now;\n        endTime = startTime.add(duration);\n    }\n\n    function closeRound() public onlyTournament\n    {\n        require(getState() == uint256(RoundState.HasWinners));\n        closed = true;\n    }\n\n\t/*\n     * Entrant Methods\n     */\n\n    function becomeEntrant(address _entrant) public onlyTournament\n    {\n        addressToParticipantType[_entrant] = uint256(ParticipantType.Entrant);\n    }\n\n    function becomeNonentrant(address _entrant) public onlyTournament\n    {\n        addressToParticipantType[_entrant] = uint256(ParticipantType.Nonentrant);\n    }\n\n    /// @dev Create a new submission.\n    /// @param _author of this submission.\n    /// @param submissionData The data of the submission. Includes:\n    ///\t\ttitle: Title of the submission.\n    ///\t\towner: The owner of the submission.\n    ///\t\tcontentHash: Off-chain content hash of submission details (ipfs hash)\n    ///\t\tcontributors: Contributors to this submission.\n    ///\t\tcontributorRewardDistribution: Informs how the reward should be distributed among the contributors\n    /// \tshould this submission win.\n    ///\t\treferences: Addresses of submissions referenced in creating this submission.\n    /// @return _submissionAddress Location of this submission within this round.\n\tfunction createSubmission(address[] _contributors, uint128[] _contributorRewardDistribution, address[] _references, address _author, LibConstruction.SubmissionData submissionData) public onlyTournament duringOpenSubmission returns (address _submissionAddress)\n\t{\n\t\trequire(_author != 0x0);\n\t\t\n\t\tLibConstruction.RequiredSubmissionAddresses memory requiredSubmissionAddresses = LibConstruction.RequiredSubmissionAddresses({platformAddress: platformAddress, tournamentAddress: tournamentAddress, roundAddress: this});\n        address submissionAddress = IMatryxSubmissionFactory(matryxSubmissionFactoryAddress).createSubmission(_contributors, _contributorRewardDistribution, _references, requiredSubmissionAddresses, submissionData);\n        // submission bookkeeping\n        addressToSubmissionIndex[submissionAddress] = uint256_optional({exists:true, value: submissions.length});\n        submissions.push(submissionAddress);\n\n        // TODO: Change to 'authors.push' once MatryxPeer is part of MatryxPlatform\n        if(authorToSubmissionAddress[msg.sender].length == 0)\n        {\n        \tsubmissionOwners.push(submissionData.owner);\n        }\n\n        authorToSubmissionAddress[msg.sender].push(submissionAddress);\n\n        // round participant bookkeeping\n        addressToParticipantType[_author] = uint(ParticipantType.Author);\n        for(uint256 i = 0; i < _contributors.length; i++)\n        {\n        \taddressToParticipantType[_contributors[i]] = uint(ParticipantType.Contributor);\n        }\n\n        IMatryxTournament(tournamentAddress).invokeSubmissionCreatedEvent(submissionAddress);\n\t\t//emit TimeStamp(now);\n        return submissionAddress;\n\t}\n\n\t/// @dev Allows contributors to withdraw a portion of the round bounty if the round has been abandoned.\n\tfunction transferBountyToTournament() public onlyTournament returns (uint256)\n\t{  \n        uint256 remaining = remainingBounty();\n        IMatryxToken(matryxTokenAddress).transfer(tournamentAddress, remaining);\n        return remaining;\n\t}\n\n    // function pullPayoutIntoSubmission() public onlySubmission returns (uint256)\n    // {\n    //     require(getState() == uint256(RoundState.Closed));\n    //     // If the submission's already been paid, revert\n    //     require(submissionToHasBeenPayed[msg.sender] == false);\n    //     // If the tournament closed, we need to pull the tournament funds into this round.\n    //     if(IMatryxTournament(tournamentAddress).getState() == uint256(TournamentState.Closed) && remainingBounty() > 0)\n    //     {\n    //         IMatryxTournament(tournamentAddress).pullRemainingBountyIntoRound();\n    //     }\n\n    //     // Transfer the reward to its recipient if it deserves a reward (and mark that its been given out)\n        \n    //     for(uint256 i = 0; i < winningSubmissions.length; i++)\n    //     {\n    //         if(msg.sender == winningSubmissions[i])\n    //         {\n    //             submissionToHasBeenPayed[msg.sender] = true;\n    //             // Calculate total reward denominator and store it somewhere when\n    //             uint256 reward = (rewardDistribution[i].mul(1*10**18).div(rewardDistributionTotal)).mul(bounty);\n    //             // Transfer the reward to the submission\n    //             IMatryxToken(matryxTokenAddress).transfer(msg.sender, reward);\n    //             return reward;\n    //         }\n    //     }\n\n    //     // TODO:\n    //     // Or we could never transfer funds to the round in the first place.\n    //     // This would allow this function to exist on the tournament instead of the round.\n    //     // I'd need to reintroduce bountyLeft so that the tournament knew how much is left for the round.\n    //     // If I reintroduced it, it would be to the tournament, so that submission.withdrawReward wouldn't have to call round.bountyLeft to figure out how much to ask the tournament for.\n    //     // The tournament would just transfer as much as the submission deserved into it.\n    //     // bountyLeft would be stored as a value under a rounds structure.\n    //     // This would eventually involve writing a library to do round functions.\n    //     // For now, this can be a hardcoded library.\n    //     // Eventually, this library will be part of the upgrade system.\n    //     // Upgrade system will eventually allow for data, data migration and code contracts to exist and be swapped per contract\n    //     // All data and code contract addresses will be sourced from one contract, the MatryxVersionManager.\n    //     // This contract will also contain data migrators to migrate from one version to another (for when data structures change)\n    // }\n}",
  "sourcePath": "/Users/maxhoward/Desktop/Ethereum/Development/Matryx/Projects/MatryxPlatform/contracts/MatryxRound.sol",
  "compiler": {
    "name": "solc",
    "version": "0.4.24+commit.e67f0147.Emscripten.clang"
  },
  "schemaVersion": "2.0.0",
  "updatedAt": "2018-07-03T23:37:09.718Z"
}