{
  "contractName": "MatryxTournamentFactory",
  "abi": [
    {
      "constant": true,
      "inputs": [],
      "name": "matryxTokenAddress",
      "outputs": [
        {
          "name": "",
          "type": "address"
        }
      ],
      "payable": false,
      "stateMutability": "view",
      "type": "function"
    },
    {
      "constant": true,
      "inputs": [
        {
          "name": "_sender",
          "type": "address"
        }
      ],
      "name": "isOwner",
      "outputs": [
        {
          "name": "_isOwner",
          "type": "bool"
        }
      ],
      "payable": false,
      "stateMutability": "view",
      "type": "function"
    },
    {
      "constant": true,
      "inputs": [],
      "name": "matryxRoundFactoryAddress",
      "outputs": [
        {
          "name": "",
          "type": "address"
        }
      ],
      "payable": false,
      "stateMutability": "view",
      "type": "function"
    },
    {
      "constant": true,
      "inputs": [],
      "name": "getOwner",
      "outputs": [
        {
          "name": "_owner",
          "type": "address"
        }
      ],
      "payable": false,
      "stateMutability": "view",
      "type": "function"
    },
    {
      "constant": true,
      "inputs": [],
      "name": "owner",
      "outputs": [
        {
          "name": "",
          "type": "address"
        }
      ],
      "payable": false,
      "stateMutability": "view",
      "type": "function"
    },
    {
      "constant": true,
      "inputs": [],
      "name": "platformAddress",
      "outputs": [
        {
          "name": "",
          "type": "address"
        }
      ],
      "payable": false,
      "stateMutability": "view",
      "type": "function"
    },
    {
      "constant": false,
      "inputs": [
        {
          "name": "newOwner",
          "type": "address"
        }
      ],
      "name": "transferOwnership",
      "outputs": [],
      "payable": false,
      "stateMutability": "nonpayable",
      "type": "function"
    },
    {
      "inputs": [
        {
          "name": "_matryxTokenAddress",
          "type": "address"
        },
        {
          "name": "_matryxRoundFactoryAddress",
          "type": "address"
        }
      ],
      "payable": false,
      "stateMutability": "nonpayable",
      "type": "constructor"
    },
    {
      "constant": false,
      "inputs": [
        {
          "name": "_category",
          "type": "string"
        },
        {
          "components": [
            {
              "name": "category",
              "type": "string"
            },
            {
              "name": "title_1",
              "type": "bytes32"
            },
            {
              "name": "title_2",
              "type": "bytes32"
            },
            {
              "name": "title_3",
              "type": "bytes32"
            },
            {
              "name": "descriptionHash_1",
              "type": "bytes32"
            },
            {
              "name": "descriptionHash_2",
              "type": "bytes32"
            },
            {
              "name": "fileHash_1",
              "type": "bytes32"
            },
            {
              "name": "fileHash_2",
              "type": "bytes32"
            },
            {
              "name": "bounty",
              "type": "uint256"
            },
            {
              "name": "entryFee",
              "type": "uint256"
            }
          ],
          "name": "tournamentData",
          "type": "tuple"
        },
        {
          "components": [
            {
              "name": "start",
              "type": "uint256"
            },
            {
              "name": "end",
              "type": "uint256"
            },
            {
              "name": "reviewPeriodDuration",
              "type": "uint256"
            },
            {
              "name": "bounty",
              "type": "uint256"
            }
          ],
          "name": "roundData",
          "type": "tuple"
        },
        {
          "name": "_owner",
          "type": "address"
        }
      ],
      "name": "createTournament",
      "outputs": [
        {
          "name": "_tournamentAddress",
          "type": "address"
        }
      ],
      "payable": false,
      "stateMutability": "nonpayable",
      "type": "function"
    },
    {
      "constant": false,
      "inputs": [
        {
          "name": "_platformAddress",
          "type": "address"
        }
      ],
      "name": "setPlatform",
      "outputs": [],
      "payable": false,
      "stateMutability": "nonpayable",
      "type": "function"
    }
  ],
  "bytecode": "0x608060405234801561001057600080fd5b50604051604080613aa9833981018060405261002f919081019061007e565b60008054600160a060020a0319908116331790915560018054600160a060020a03948516908316179055600380549290931691161790556100c4565b600061007782516100b8565b9392505050565b6000806040838503121561009157600080fd5b600061009d858561006b565b92505060206100ae8582860161006b565b9150509250929050565b600160a060020a031690565b6139d6806100d36000396000f300608060405260043610620000a25763ffffffff7c010000000000000000000000000000000000000000000000000000000060003504166329cc545e8114620000a75780632f54bf6e14620000d75780636945c5ea146200010b5780636fe564201462000132578063893d20e8146200014a5780638da5cb5b1462000162578063a95abd89146200017a578063dbe55e56146200019f578063f2fde38b14620001b7575b600080fd5b348015620000b457600080fd5b50620000bf620001dc565b604051620000ce919062000885565b60405180910390f35b348015620000e457600080fd5b50620000fc620000f636600462000621565b620001f8565b604051620000ce91906200089b565b3480156200011857600080fd5b50620001306200012a36600462000621565b62000219565b005b3480156200013f57600080fd5b50620000bf62000285565b3480156200015757600080fd5b50620000bf620002a1565b3480156200016f57600080fd5b50620000bf620002bd565b3480156200018757600080fd5b50620000bf620001993660046200064a565b620002d9565b348015620001ac57600080fd5b50620000bf62000350565b348015620001c457600080fd5b5062000130620001d636600462000621565b6200036c565b60015473ffffffffffffffffffffffffffffffffffffffff1681565b60005473ffffffffffffffffffffffffffffffffffffffff91821691161490565b60005473ffffffffffffffffffffffffffffffffffffffff1633146200023e57600080fd5b600280547fffffffffffffffffffffffff00000000000000000000000000000000000000001673ffffffffffffffffffffffffffffffffffffffff92909216919091179055565b60035473ffffffffffffffffffffffffffffffffffffffff1681565b60005473ffffffffffffffffffffffffffffffffffffffff1690565b60005473ffffffffffffffffffffffffffffffffffffffff1681565b600254600154600354600092839288928892889273ffffffffffffffffffffffffffffffffffffffff9182169290821691168862000316620003fb565b620003289796959493929190620008ab565b604051809103906000f08015801562000345573d6000803e3d6000fd5b509695505050505050565b60025473ffffffffffffffffffffffffffffffffffffffff1681565b60005473ffffffffffffffffffffffffffffffffffffffff1633146200039157600080fd5b73ffffffffffffffffffffffffffffffffffffffff81161515620003b457600080fd5b600080547fffffffffffffffffffffffff00000000000000000000000000000000000000001673ffffffffffffffffffffffffffffffffffffffff92909216919091179055565b604051612f758062000a2883390190565b60006200041a8235620009a3565b9392505050565b60006200041a8235620009c1565b6000601f820183136200044157600080fd5b813562000458620004528262000958565b62000930565b915080825260208301602083018583830111156200047557600080fd5b62000482838284620009c4565b50505092915050565b6000608082840312156200049e57600080fd5b620004aa608062000930565b90506000620004ba848462000421565b8252506020620004cd8484830162000421565b6020830152506040620004e38482850162000421565b6040830152506060620004f98482850162000421565b60608301525092915050565b600061014082840312156200051957600080fd5b6200052661014062000930565b9050813567ffffffffffffffff8111156200054057600080fd5b6200054e848285016200042f565b8252506020620005618484830162000421565b6020830152506040620005778482850162000421565b60408301525060606200058d8482850162000421565b6060830152506080620005a38482850162000421565b60808301525060a0620005b98482850162000421565b60a08301525060c0620005cf8482850162000421565b60c08301525060e0620005e58482850162000421565b60e083015250610100620005fc8482850162000421565b61010083015250610120620006148482850162000421565b6101208301525092915050565b6000602082840312156200063457600080fd5b60006200064284846200040c565b949350505050565b60008060008060e085870312156200066157600080fd5b843567ffffffffffffffff8111156200067957600080fd5b62000687878288016200042f565b945050602085013567ffffffffffffffff811115620006a557600080fd5b620006b38782880162000505565b9350506040620006c6878288016200048b565b92505060c0620006d9878288016200040c565b91505092959194509250565b620006f081620009a3565b82525050565b620006f081620009bc565b620006f081620009c1565b600062000719826200099f565b8084526200072f816020860160208601620009d0565b6200073a81620009ff565b9093016020019392505050565b805160808301906200075a848262000701565b5060208201516200076f602085018262000701565b50604082015162000784604085018262000701565b50606082015162000799606085018262000701565b50505050565b805161014080845260009190840190620007ba82826200070c565b9150506020830151620007d1602086018262000701565b506040830151620007e6604086018262000701565b506060830151620007fb606086018262000701565b50608083015162000810608086018262000701565b5060a08301516200082560a086018262000701565b5060c08301516200083a60c086018262000701565b5060e08301516200084f60e086018262000701565b506101008301516200086661010086018262000701565b506101208301516200087d61012086018262000701565b509392505050565b60208101620008958284620006e5565b92915050565b60208101620008958284620006f6565b6101408082528101620008bf818a6200070c565b90508181036020830152620008d581896200079f565b9050620008e6604083018862000747565b620008f560c0830187620006e5565b6200090460e0830186620006e5565b62000914610100830185620006e5565b62000924610120830184620006e5565b98975050505050505050565b60405181810167ffffffffffffffff811182821017156200095057600080fd5b604052919050565b600067ffffffffffffffff8211156200097057600080fd5b506020601f919091017fffffffffffffffffffffffffffffffffffffffffffffffffffffffffffffffe0160190565b5190565b73ffffffffffffffffffffffffffffffffffffffff1690565b151590565b90565b82818337506000910152565b60005b83811015620009ed578181015183820152602001620009d3565b83811115620007995750506000910152565b601f017fffffffffffffffffffffffffffffffffffffffffffffffffffffffffffffffe01690560060806040523480156200001157600080fd5b5060405162002f7538038062002f758339810180604052620000379190810190620004f8565b6000805433600160a060020a031991821617909155600180548216600160a060020a038781169190911790915560028054831686831617905560038054831685831617905542600f5560048054909216908316179055855180518791600591620000a991839160209091019062000215565b50602082810151600183015560408301516002830155606083015160038301556080830151600483015560a083015160058084019190915560c0840151600684015560e0840151600784015561010084015160088401556101209093015160099092019190915588516200012192918a019062000215565b506200013885600064010000000062000146810204565b50505050505050506200074f565b6001546002546003546040517fcfa037dc00000000000000000000000000000000000000000000000000000000815260009373__LibTournamentAdminMethods_____________9363cfa037dc93620001ba93601193600160a060020a039081169381169216908a908a9060040162000658565b60206040518083038186803b158015620001d357600080fd5b505af4158015620001e8573d6000803e3d6000fd5b505050506040513d601f19601f820116820180604052506200020e9190810190620004cf565b5092915050565b828054600181600116156101000203166002900490600052602060002090601f016020900481019282601f106200025857805160ff191683800117855562000288565b8280016001018555821562000288579182015b82811115620002885782518255916020019190600101906200026b565b50620002969291506200029a565b5090565b620002b791905b80821115620002965760008155600101620002a1565b90565b6000620002c882516200070f565b9392505050565b6000620002c88251620002b7565b6000601f82018313620002ef57600080fd5b8151620003066200030082620006e7565b620006c0565b915080825260208301602083018583830111156200032357600080fd5b6200033083828462000720565b50505092915050565b6000608082840312156200034c57600080fd5b620003586080620006c0565b90506000620003688484620002cf565b82525060206200037b84848301620002cf565b60208301525060406200039184828501620002cf565b6040830152506060620003a784828501620002cf565b60608301525092915050565b60006101408284031215620003c757600080fd5b620003d4610140620006c0565b82519091506001604060020a03811115620003ee57600080fd5b620003fc84828501620002dd565b82525060206200040f84848301620002cf565b60208301525060406200042584828501620002cf565b60408301525060606200043b84828501620002cf565b60608301525060806200045184828501620002cf565b60808301525060a06200046784828501620002cf565b60a08301525060c06200047d84828501620002cf565b60c08301525060e06200049384828501620002cf565b60e083015250610100620004aa84828501620002cf565b61010083015250610120620004c284828501620002cf565b6101208301525092915050565b600060208284031215620004e257600080fd5b6000620004f08484620002ba565b949350505050565b6000806000806000806000610140888a0312156200051557600080fd5b87516001604060020a038111156200052c57600080fd5b6200053a8a828b01620002dd565b97505060208801516001604060020a038111156200055757600080fd5b620005658a828b01620003b3565b9650506040620005788a828b0162000339565b95505060c06200058b8a828b01620002ba565b94505060e06200059e8a828b01620002ba565b935050610100620005b28a828b01620002ba565b925050610120620005c68a828b01620002ba565b91505092959891949750929550565b620005e0816200070f565b82525050565b620005e0816200071b565b805160808301906200060484826200064d565b5060208201516200061960208501826200064d565b5060408201516200062e60408501826200064d565b5060608201516200064360608501826200064d565b50505050565b9052565b620005e081620002b7565b610120810162000669828962000649565b620006786020830188620005d5565b620006876040830187620005d5565b620006966060830186620005d5565b620006a56080830185620005f1565b620006b5610100830184620005e6565b979650505050505050565b6040518181016001604060020a0381118282101715620006df57600080fd5b604052919050565b60006001604060020a03821115620006fe57600080fd5b506020601f91909101601f19160190565b600160a060020a031690565b151590565b60005b838110156200073d57818101518382015260200162000723565b83811115620006435750506000910152565b612816806200075f6000396000f3006080604052600436106101ab5763ffffffff7c0100000000000000000000000000000000000000000000000000000000600035041663072a456081146101b057806312065fe0146101d257806315dc132e146101fd5780631865c57d1461022a57806323721e241461023f57806328d576d71461025f57806329cc545e1461028c5780632f54bf6e146102a15780632fc1f190146102c15780633809eba2146102d65780633bc5de30146102f6578063447411f31461031857806345df19451461032d5780634644c51b1461034257806352c01fab14610362578063542fe6c2146103825780636ec02be9146103975780636fe56420146103ac578063893d20e8146103c157806389f3beb6146103d65780638a19c8bc146103eb5780638da5cb5b1461040e578063934b5fee146104235780639baec20714610443578063a968c4b914610458578063b6cd26db14610478578063c2f897bf14610498578063d3de0a6d146104ad578063dbe55e56146104cd578063e139a20c146104e2578063e586a4f014610504578063f1653f6e14610519578063f2fde38b1461052e578063f49bff7b1461054e575b600080fd5b3480156101bc57600080fd5b506101d06101cb366004611f16565b610563565b005b3480156101de57600080fd5b506101e7610627565b6040516101f49190612685565b60405180910390f35b34801561020957600080fd5b5061021d610218366004611d1c565b6106ec565b6040516101f49190612375565b34801561023657600080fd5b506101e7610a0f565b34801561024b57600080fd5b506101d061025a366004611f82565b610ab3565b34801561026b57600080fd5b5061027f61027a366004611c9e565b610bdb565b6040516101f491906123af565b34801561029857600080fd5b5061021d610cc5565b3480156102ad57600080fd5b5061027f6102bc366004611c9e565b610ce1565b3480156102cd57600080fd5b5061021d610d02565b3480156102e257600080fd5b5061021d6102f1366004611e9c565b610d1e565b34801561030257600080fd5b5061030b610df4565b6040516101f491906125f7565b34801561032457600080fd5b506101e7610f1b565b34801561033957600080fd5b506101d0610f21565b34801561034e57600080fd5b506101d061035d366004611c9e565b610fc1565b34801561036e57600080fd5b5061027f61037d366004611c9e565b611042565b34801561038e57600080fd5b506101d061106d565b3480156103a357600080fd5b506101e76110fa565b3480156103b857600080fd5b5061021d611100565b3480156103cd57600080fd5b5061021d61111c565b3480156103e257600080fd5b506101e7611138565b3480156103f757600080fd5b5061040061113e565b6040516101f4929190612693565b34801561041a57600080fd5b5061021d6111ec565b34801561042f57600080fd5b506101d061043e366004611ddc565b611208565b34801561044f57600080fd5b506101d06112dc565b34801561046457600080fd5b5061027f610473366004611ce2565b611372565b34801561048457600080fd5b506101d0610493366004611ecc565b6114d0565b3480156104a457600080fd5b506101d0611599565b3480156104b957600080fd5b506101d06104c8366004611e7e565b61160e565b3480156104d957600080fd5b5061021d61169f565b3480156104ee57600080fd5b506104f76116bb565b6040516101f4919061239e565b34801561051057600080fd5b506101e761173a565b34801561052557600080fd5b506101e7611740565b34801561053a57600080fd5b506101d0610549366004611c9e565b611746565b34801561055a57600080fd5b506101e76117d3565b60045473ffffffffffffffffffffffffffffffffffffffff16331461058757600080fd5b6002546040517f5fd45f0b00000000000000000000000000000000000000000000000000000000815273__LibTournamentAdminMethods_____________91635fd45f0b916105f491601191869173ffffffffffffffffffffffffffffffffffffffff16906004016125dc565b60006040518083038186803b15801561060c57600080fd5b505af4158015610620573d6000803e3d6000fd5b5050505050565b6013546002546040517f70a082310000000000000000000000000000000000000000000000000000000081526000926106e792909173ffffffffffffffffffffffffffffffffffffffff909116906370a0823190610689903090600401612375565b602060405180830381600087803b1580156106a357600080fd5b505af11580156106b7573d6000803e3d6000fd5b505050506040513d601f19601f820116820180604052506106db9190810190611f34565b9063ffffffff61184816565b905090565b336000908152601a602052604081205460ff1680151561070b57600080fd5b6001546040517f532311c4000000000000000000000000000000000000000000000000000000008152339173ffffffffffffffffffffffffffffffffffffffff1690819063532311c490610763908590600401612375565b602060405180830381600087803b15801561077d57600080fd5b505af1158015610791573d6000803e3d6000fd5b505050506040513d601f19601f820116820180604052506107b59190810190611e60565b15156107c057600080fd5b60006107ca61113e565b9150600190508173ffffffffffffffffffffffffffffffffffffffff16631865c57d6040518163ffffffff167c0100000000000000000000000000000000000000000000000000000000028152600401602060405180830381600087803b15801561083457600080fd5b505af1158015610848573d6000803e3d6000fd5b505050506040513d601f19601f8201168201806040525061086c9190810190611f34565b141561087757600080fd5b6002610881610a0f565b1461088b57600080fd5b601754151561093c57600154600654600754600854600954600a54600d54600e546040517f201afb7600000000000000000000000000000000000000000000000000000000815273ffffffffffffffffffffffffffffffffffffffff9098169763201afb7697610909979096909590949093909290916004016123bd565b600060405180830381600087803b15801561092357600080fd5b505af1158015610937573d6000803e3d6000fd5b505050505b6001546040517f3a9ed3e300000000000000000000000000000000000000000000000000000000815273__LibTournamentEntrantMethods___________91633a9ed3e3916109b29160119160169173ffffffffffffffffffffffffffffffffffffffff16908f908f908f908f9060040161253e565b60206040518083038186803b1580156109ca57600080fd5b505af41580156109de573d6000803e3d6000fd5b505050506040513d601f19601f82011682018060405250610a029190810190611cc4565b9998505050505050505050565b6040517f5726b16f00000000000000000000000000000000000000000000000000000000815260009073__LibTournamentStateManagement__________90635726b16f90610a6390601190600401612425565b60206040518083038186803b158015610a7b57600080fd5b505af4158015610a8f573d6000803e3d6000fd5b505050506040513d601f19601f820116820180604052506106e79190810190611f34565b60015473ffffffffffffffffffffffffffffffffffffffff163314610ad757600080fd5b601454610aea908263ffffffff61185a16565b6014556002546011805473ffffffffffffffffffffffffffffffffffffffff9092169163a9059cbb919085908110610b1e57fe5b6000918252602090912001546040517c010000000000000000000000000000000000000000000000000000000063ffffffff8416028152610b7a9173ffffffffffffffffffffffffffffffffffffffff16908590600401612383565b602060405180830381600087803b158015610b9457600080fd5b505af1158015610ba8573d6000803e3d6000fd5b505050506040513d601f19601f82011682018060405250610bcc9190810190611e60565b1515610bd757600080fd5b5050565b60015460009073ffffffffffffffffffffffffffffffffffffffff163314610c0257600080fd5b6002610c0c610a0f565b14610c1657600080fd5b6040517fa09c5c9900000000000000000000000000000000000000000000000000000000815273__LibTournamentEntrantMethods___________9063a09c5c9990610c6f906005906011906016908890600401612650565b60206040518083038186803b158015610c8757600080fd5b505af4158015610c9b573d6000803e3d6000fd5b505050506040513d601f19601f82011682018060405250610cbf9190810190611e60565b92915050565b60025473ffffffffffffffffffffffffffffffffffffffff1681565b60005473ffffffffffffffffffffffffffffffffffffffff91821691161490565b60015473ffffffffffffffffffffffffffffffffffffffff1690565b6001546002546003546040517fcfa037dc00000000000000000000000000000000000000000000000000000000815260009373__LibTournamentAdminMethods_____________9363cfa037dc93610d9d9360119373ffffffffffffffffffffffffffffffffffffffff9081169381169216908a908a9060040161245b565b60206040518083038186803b158015610db557600080fd5b505af4158015610dc9573d6000803e3d6000fd5b505050506040513d601f19601f82011682018060405250610ded9190810190611cc4565b5092915050565b610dfc611870565b60408051600580546101606020601f60027fffffffffffffffffffffffffffffffffffffffffffffffffffffffffffffffff61010060018716150201909416939093049283018190040284018101909452610140830181815292939192849290918491840182828015610eb05780601f10610e8557610100808354040283529160200191610eb0565b820191906000526020600020905b815481529060010190602001808311610e9357829003601f168201915b505050918352505060018201546020820152600282015460408201526003820154606082015260048201546080820152600582015460a0820152600682015460c0820152600782015460e0820152600882015461010082015260099091015461012090910152905090565b60105481565b6002546040517f734e4a1600000000000000000000000000000000000000000000000000000000815273__LibTournamentEntrantMethods___________9163734e4a1691610f8f9160119160169173ffffffffffffffffffffffffffffffffffffffff1690600401612523565b60006040518083038186803b158015610fa757600080fd5b505af4158015610fbb573d6000803e3d6000fd5b50505050565b3360009081526012602052604090205460ff161515610fdf57600080fd5b6011546040517f5fbb3d346317d5ecdb86412d4c69c7503ff4dbed1eccd4cb6290453ea0b1a32291611037917fffffffffffffffffffffffffffffffffffffffffffffffffffffffffffffffff909101908490612693565b60405180910390a150565b73ffffffffffffffffffffffffffffffffffffffff166000908152601a602052604090205460ff1690565b336000908152601a602052604090205460ff1680151561108c57600080fd5b6002546040517fddc23bd000000000000000000000000000000000000000000000000000000000815273__LibTournamentEntrantMethods___________9163ddc23bd0916105f49160119160169173ffffffffffffffffffffffffffffffffffffffff1690600401612523565b60175490565b60035473ffffffffffffffffffffffffffffffffffffffff1681565b60045473ffffffffffffffffffffffffffffffffffffffff1690565b601b5490565b60008073__LibTournamentStateManagement__________630386922b60116040518263ffffffff167c01000000000000000000000000000000000000000000000000000000000281526004016111959190612425565b604080518083038186803b1580156111ac57600080fd5b505af41580156111c0573d6000803e3d6000fd5b505050506040513d601f19601f820116820180604052506111e49190810190611f52565b915091509091565b60045473ffffffffffffffffffffffffffffffffffffffff1681565b60045473ffffffffffffffffffffffffffffffffffffffff16331461122c57600080fd5b6001546002546040517f5014b85100000000000000000000000000000000000000000000000000000000815273__LibTournamentAdminMethods_____________92635014b851926112a69260119273ffffffffffffffffffffffffffffffffffffffff9081169216908a908a908a908a906004016124b7565b60006040518083038186803b1580156112be57600080fd5b505af41580156112d2573d6000803e3d6000fd5b5050505050505050565b60045473ffffffffffffffffffffffffffffffffffffffff16331461130057600080fd5b6001546002546040517fa91d59d600000000000000000000000000000000000000000000000000000000815273__LibTournamentAdminMethods_____________9263a91d59d692610f8f9260119273ffffffffffffffffffffffffffffffffffffffff908116921690600401612433565b60015460009073ffffffffffffffffffffffffffffffffffffffff16331461139957600080fd5b73ffffffffffffffffffffffffffffffffffffffff80831660009081526019602090815260408083209387168352929052205460ff1615156113da57600080fd5b6017546113ee90600163ffffffff61184816565b60175573ffffffffffffffffffffffffffffffffffffffff8083166000908152601860209081526040808320601983528184209488168452939091529020600101548154811061143a57fe5b6000918252602080832090910180547fffffffffffffffffffffffff000000000000000000000000000000000000000016905573ffffffffffffffffffffffffffffffffffffffff848116835260198252604080842091871684529152812080547fffffffffffffffffffffffffffffffffffffffffffffffffffffffffffffff00168155600190810191909155905092915050565b60045473ffffffffffffffffffffffffffffffffffffffff1633146114f457600080fd5b6001546040517f45fbeca000000000000000000000000000000000000000000000000000000000815273__LibTournamentAdminMethods_____________916345fbeca091611565916005918791879173ffffffffffffffffffffffffffffffffffffffff90911690600401612608565b60006040518083038186803b15801561157d57600080fd5b505af4158015611591573d6000803e3d6000fd5b505050505050565b60045473ffffffffffffffffffffffffffffffffffffffff1633146115bd57600080fd5b6040517faf41094900000000000000000000000000000000000000000000000000000000815273__LibTournamentAdminMethods_____________9063af41094990610f8f90601190600401612425565b60045473ffffffffffffffffffffffffffffffffffffffff16331461163257600080fd5b6002546040517f672ec62300000000000000000000000000000000000000000000000000000000815273__LibTournamentAdminMethods_____________9163672ec623916105f491601191869173ffffffffffffffffffffffffffffffffffffffff16906004016125b4565b60015473ffffffffffffffffffffffffffffffffffffffff1681565b33600090815260186020908152604091829020805483518184028101840190945280845260609384939092919083018282801561172e57602002820191906000526020600020905b815473ffffffffffffffffffffffffffffffffffffffff168152600190910190602001808311611703575b50939695505050505050565b600e5490565b600f5481565b60045473ffffffffffffffffffffffffffffffffffffffff16331461176a57600080fd5b73ffffffffffffffffffffffffffffffffffffffff8116151561178c57600080fd5b600080547fffffffffffffffffffffffff00000000000000000000000000000000000000001673ffffffffffffffffffffffffffffffffffffffff92909216919091179055565b6014546013546002546040517f70a082310000000000000000000000000000000000000000000000000000000081526000936106e793909261183c9273ffffffffffffffffffffffffffffffffffffffff909116906370a0823190610689903090600401612375565b9063ffffffff61185a16565b60008282111561185457fe5b50900390565b60008282018381101561186957fe5b9392505050565b6040805161014081018252606080825260006020830181905292820183905281018290526080810182905260a0810182905260c0810182905260e08101829052610100810182905261012081019190915290565b60006118698235612746565b60006118698251612746565b6000601f820183136118ed57600080fd5b81356119006118fb826126d5565b6126ae565b9150818183526020840193506020810190508385602084028201111561192557600080fd5b60005b83811015611951578161193b88826118c4565b8452506020928301929190910190600101611928565b5050505092915050565b6000601f8201831361196c57600080fd5b813561197a6118fb826126d5565b9150818183526020840193506020810190508385602084028201111561199f57600080fd5b60005b8381101561195157816119b58882611c86565b84525060209283019291909101906001016119a2565b6000601f820183136119dc57600080fd5b81356119ea6118fb826126d5565b91508181835260208401935060208101905083856020840282011115611a0f57600080fd5b60005b838110156119515781611a258882611a53565b8452506020928301929190910190600101611a12565b6000611869823561275f565b6000611869825161275f565b60006118698235612764565b6000601f82018313611a7057600080fd5b8135611a7e6118fb826126f6565b91508082526020830160208301858383011115611a9a57600080fd5b611aa583828461277c565b50505092915050565b600060808284031215611ac057600080fd5b611aca60806126ae565b90506000611ad88484611a53565b8252506020611ae984848301611a53565b6020830152506040611afd84828501611a53565b6040830152506060611b1184828501611a53565b60608301525092915050565b600060808284031215611b2f57600080fd5b611b3960806126ae565b9050813567ffffffffffffffff811115611b5257600080fd5b611b5e84828501611a5f565b8252506020611b6f848483016118c4565b602083015250604082013567ffffffffffffffff811115611b8f57600080fd5b611b9b84828501611a5f565b6040830152506060611b1184828501611a3b565b60006101208284031215611bc257600080fd5b611bcd6101206126ae565b90506000611bdb8484611a53565b8252506020611bec84848301611a53565b6020830152506040611c0084828501611a53565b6040830152506060611c1484828501611a53565b6060830152506080611c2884828501611a53565b60808301525060a0611c3c84828501611a53565b60a08301525060c0611c5084828501611a53565b60c08301525060e0611c6484828501611a53565b60e083015250610100611c7984828501611a3b565b6101008301525092915050565b60006118698235612767565b60006118698251612764565b600060208284031215611cb057600080fd5b6000611cbc84846118c4565b949350505050565b600060208284031215611cd657600080fd5b6000611cbc84846118d0565b60008060408385031215611cf557600080fd5b6000611d0185856118c4565b9250506020611d12858286016118c4565b9150509250929050565b60008060008060808587031215611d3257600080fd5b843567ffffffffffffffff811115611d4957600080fd5b611d55878288016118dc565b945050602085013567ffffffffffffffff811115611d7257600080fd5b611d7e8782880161195b565b935050604085013567ffffffffffffffff811115611d9b57600080fd5b611da7878288016118dc565b925050606085013567ffffffffffffffff811115611dc457600080fd5b611dd087828801611b1d565b91505092959194509250565b60008060008060e08587031215611df257600080fd5b843567ffffffffffffffff811115611e0957600080fd5b611e15878288016118dc565b945050602085013567ffffffffffffffff811115611e3257600080fd5b611e3e878288016119cb565b9350506040611e4f87828801611aae565b92505060c0611dd087828801611a53565b600060208284031215611e7257600080fd5b6000611cbc8484611a47565b600060808284031215611e9057600080fd5b6000611cbc8484611aae565b60008060a08385031215611eaf57600080fd5b6000611ebb8585611aae565b9250506080611d1285828601611a3b565b6000806101408385031215611ee057600080fd5b6000611eec8585611baf565b92505061012083013567ffffffffffffffff811115611f0a57600080fd5b611d1285828601611a5f565b600060208284031215611f2857600080fd5b6000611cbc8484611a53565b600060208284031215611f4657600080fd5b6000611cbc8484611c92565b60008060408385031215611f6557600080fd5b6000611f718585611c92565b9250506020611d12858286016118d0565b60008060408385031215611f9557600080fd5b6000611fa18585611a53565b9250506020611d1285828601611a53565b611fbb81612746565b82525050565b6000611fcc82612742565b808452602084019350611fde8361273c565b60005b8281101561200e57611ff4868351611fb2565b611ffd8261273c565b602096909601959150600101611fe1565b5093949350505050565b600061202382612742565b8084526020840193506120358361273c565b60005b8281101561200e5761204b868351611fb2565b6120548261273c565b602096909601959150600101612038565b600061207082612742565b8084526020840193506120828361273c565b60005b8281101561200e5761209886835161236c565b6120a18261273c565b602096909601959150600101612085565b60006120bd82612742565b8084526020840193506120cf8361273c565b60005b8281101561200e576120e5868351612108565b6120ee8261273c565b6020969096019591506001016120d2565b611fbb8161275f565b611fbb81612764565b600061211c82612742565b808452612130816020860160208601612788565b612139816127b4565b9093016020019392505050565b9052565b8051608083019061215b8482612108565b50602082015161216e6020850182612108565b5060408201516121816040850182612108565b506060820151610fbb6060850182612108565b80516080808452600091908401906121ac8282612111565b91505060208301516121c16020860182611fb2565b50604083015184820360408601526121d98282612111565b91505060608301516121ee60608601826120ff565b509392505050565b80516101408084526000919084019061220f8282612111565b91505060208301516122246020860182612108565b5060408301516122376040860182612108565b50606083015161224a6060860182612108565b50608083015161225d6080860182612108565b5060a083015161227060a0860182612108565b5060c083015161228360c0860182612108565b5060e083015161229660e0860182612108565b506101008301516122ab610100860182612108565b506101208301516121ee610120860182612108565b80516101208301906122d28482612108565b5060208201516122e56020850182612108565b5060408201516122f86040850182612108565b50606082015161230b6060850182612108565b50608082015161231e6080850182612108565b5060a082015161233160a0850182612108565b5060c082015161234460c0850182612108565b5060e082015161235760e0850182612108565b50610100820151610fbb6101008501826120ff565b611fbb81612767565b60208101610cbf8284611fb2565b604081016123918285611fb2565b6118696020830184612108565b602080825281016118698184611fc1565b60208101610cbf82846120ff565b60e081016123cb828a612108565b6123d86020830189612108565b6123e56040830188612108565b6123f26060830187612108565b6123ff6080830186612108565b61240c60a0830185612108565b61241960c0830184612108565b98975050505050505050565b60208101610cbf8284612146565b606081016124418286612146565b61244e6020830185611fb2565b611cbc6040830184611fb2565b610120810161246a8289612146565b6124776020830188611fb2565b6124846040830187611fb2565b6124916060830186611fb2565b61249e608083018561214a565b6124ac6101008301846120ff565b979650505050505050565b61014081016124c6828a612146565b6124d36020830189611fb2565b6124e06040830188611fb2565b81810360608301526124f28187612018565b9050818103608083015261250681866120b2565b905061251560a083018561214a565b612419610120830184612108565b606081016125318286612146565b61244e6020830185612146565b60e0810161254c828a612146565b6125596020830189612146565b6125666040830188611fb2565b81810360608301526125788187612018565b9050818103608083015261258c8186612065565b905081810360a08301526125a08185612018565b905081810360c0830152610a028184612194565b60c081016125c28286612146565b6125cf602083018561214a565b611cbc60a0830184611fb2565b606081016125ea8286612146565b61244e6020830185612108565b6020808252810161186981846121f6565b61018081016126178287612146565b61262460208301866122c0565b8181036101408301526126378185612111565b9050612647610160830184611fb2565b95945050505050565b6080810161265e8287612146565b61266b6020830186612146565b6126786040830185612146565b6126476060830184611fb2565b60208101610cbf8284612108565b604081016126a18285612108565b6118696020830184611fb2565b60405181810167ffffffffffffffff811182821017156126cd57600080fd5b604052919050565b600067ffffffffffffffff8211156126ec57600080fd5b5060209081020190565b600067ffffffffffffffff82111561270d57600080fd5b506020601f919091017fffffffffffffffffffffffffffffffffffffffffffffffffffffffffffffffe0160190565b60200190565b5190565b73ffffffffffffffffffffffffffffffffffffffff1690565b151590565b90565b6fffffffffffffffffffffffffffffffff1690565b82818337506000910152565b60005b838110156127a357818101518382015260200161278b565b83811115610fbb5750506000910152565b601f017fffffffffffffffffffffffffffffffffffffffffffffffffffffffffffffffe016905600a265627a7a72305820a1b28311184242b3c781d160e256178b4b1b5cfb0ffff88ccca06723c51615456c6578706572696d656e74616cf50037a265627a7a723058202c74b7bb056aea1bf91fe594a7239948409d53436e15313aa54c7ab73d61455e6c6578706572696d656e74616cf50037",
  "source": "pragma solidity ^0.4.18;\npragma experimental ABIEncoderV2;\n\nimport \"../../libraries/LibConstruction.sol\";\nimport '../MatryxTournament.sol';\nimport '../Ownable.sol';\n\ncontract MatryxTournamentFactory is Ownable {\n\taddress public matryxTokenAddress;\n\taddress public platformAddress;\n\taddress public matryxRoundFactoryAddress;\n\n\tfunction MatryxTournamentFactory(address _matryxTokenAddress, address _matryxRoundFactoryAddress) public {\n\t\tmatryxTokenAddress = _matryxTokenAddress;\n\t\tmatryxRoundFactoryAddress = _matryxRoundFactoryAddress;\n\t}\n\n\tfunction createTournament(string _category, LibConstruction.TournamentData tournamentData, LibConstruction.RoundData roundData, address _owner) returns (address _tournamentAddress) {\n\t\tMatryxTournament newTournament = new MatryxTournament(_category, tournamentData, roundData, platformAddress, matryxTokenAddress, matryxRoundFactoryAddress, _owner);\n\t\treturn newTournament;\n\t}\n\n\tfunction setPlatform(address _platformAddress) public onlyOwner\n\t{\n\t\tplatformAddress = _platformAddress;\n\t}\n}",
  "sourcePath": "/Users/maxhoward/Desktop/Ethereum/Development/Matryx/Projects/MatryxPlatform/contracts/factories/MatryxTournamentFactory.sol",
  "compiler": {
    "name": "solc",
    "version": "0.4.24+commit.e67f0147.Emscripten.clang"
  },
  "schemaVersion": "2.0.0",
  "updatedAt": "2018-07-02T23:30:58.361Z"
}