{
  "contractName": "MatryxRound",
  "abi": [
    {
      "constant": true,
      "inputs": [],
      "name": "tournamentAddress",
      "outputs": [
        {
          "name": "",
          "type": "address"
        }
      ],
      "payable": false,
      "stateMutability": "view",
      "type": "function"
    },
    {
      "constant": true,
      "inputs": [],
      "name": "matryxSubmissionFactoryAddress",
      "outputs": [
        {
          "name": "",
          "type": "address"
        }
      ],
      "payable": false,
      "stateMutability": "view",
      "type": "function"
    },
    {
      "constant": true,
      "inputs": [],
      "name": "platformAddress",
      "outputs": [
        {
          "name": "",
          "type": "address"
        }
      ],
      "payable": false,
      "stateMutability": "view",
      "type": "function"
    },
    {
      "inputs": [
        {
          "name": "_platformAddress",
          "type": "address"
        },
        {
          "name": "_tournamentAddress",
          "type": "address"
        },
        {
          "name": "_submissionFactoryAddress",
          "type": "address"
        },
        {
          "components": [
            {
              "name": "start",
              "type": "uint256"
            },
            {
              "name": "end",
              "type": "uint256"
            },
            {
              "name": "reviewPeriodDuration",
              "type": "uint256"
            },
            {
              "name": "bounty",
              "type": "uint256"
            },
            {
              "name": "closed",
              "type": "bool"
            }
          ],
          "name": "_roundData",
          "type": "tuple"
        }
      ],
      "payable": false,
      "stateMutability": "nonpayable",
      "type": "constructor"
    },
    {
      "constant": true,
      "inputs": [
        {
          "name": "_submissionAddress",
          "type": "address"
        }
      ],
      "name": "submissionExists",
      "outputs": [
        {
          "name": "",
          "type": "bool"
        }
      ],
      "payable": false,
      "stateMutability": "view",
      "type": "function"
    },
    {
      "constant": false,
      "inputs": [
        {
          "name": "_mtxAllocation",
          "type": "uint256"
        }
      ],
      "name": "addBounty",
      "outputs": [],
      "payable": false,
      "stateMutability": "nonpayable",
      "type": "function"
    },
    {
      "constant": true,
      "inputs": [],
      "name": "getState",
      "outputs": [
        {
          "name": "",
          "type": "uint256"
        }
      ],
      "payable": false,
      "stateMutability": "view",
      "type": "function"
    },
    {
      "constant": true,
      "inputs": [],
      "name": "getPlatform",
      "outputs": [
        {
          "name": "",
          "type": "address"
        }
      ],
      "payable": false,
      "stateMutability": "view",
      "type": "function"
    },
    {
      "constant": true,
      "inputs": [],
      "name": "getTournament",
      "outputs": [
        {
          "name": "",
          "type": "address"
        }
      ],
      "payable": false,
      "stateMutability": "view",
      "type": "function"
    },
    {
      "constant": true,
      "inputs": [],
      "name": "getStartTime",
      "outputs": [
        {
          "name": "",
          "type": "uint256"
        }
      ],
      "payable": false,
      "stateMutability": "view",
      "type": "function"
    },
    {
      "constant": true,
      "inputs": [],
      "name": "getEndTime",
      "outputs": [
        {
          "name": "",
          "type": "uint256"
        }
      ],
      "payable": false,
      "stateMutability": "view",
      "type": "function"
    },
    {
      "constant": true,
      "inputs": [],
      "name": "getReviewPeriodDuration",
      "outputs": [
        {
          "name": "",
          "type": "uint256"
        }
      ],
      "payable": false,
      "stateMutability": "view",
      "type": "function"
    },
    {
      "constant": true,
      "inputs": [],
      "name": "getBounty",
      "outputs": [
        {
          "name": "",
          "type": "uint256"
        }
      ],
      "payable": false,
      "stateMutability": "view",
      "type": "function"
    },
    {
      "constant": true,
      "inputs": [],
      "name": "getRemainingBounty",
      "outputs": [
        {
          "name": "",
          "type": "uint256"
        }
      ],
      "payable": false,
      "stateMutability": "view",
      "type": "function"
    },
    {
      "constant": true,
      "inputs": [],
      "name": "getTokenAddress",
      "outputs": [
        {
          "name": "",
          "type": "address"
        }
      ],
      "payable": false,
      "stateMutability": "view",
      "type": "function"
    },
    {
      "constant": true,
      "inputs": [],
      "name": "getSubmissions",
      "outputs": [
        {
          "name": "_submissions",
          "type": "address[]"
        }
      ],
      "payable": false,
      "stateMutability": "view",
      "type": "function"
    },
    {
      "constant": true,
      "inputs": [
        {
          "name": "_submissionAddress",
          "type": "address"
        }
      ],
      "name": "getBalance",
      "outputs": [
        {
          "name": "",
          "type": "uint256"
        }
      ],
      "payable": false,
      "stateMutability": "view",
      "type": "function"
    },
    {
      "constant": true,
      "inputs": [],
      "name": "getRoundBalance",
      "outputs": [
        {
          "name": "",
          "type": "uint256"
        }
      ],
      "payable": false,
      "stateMutability": "view",
      "type": "function"
    },
    {
      "constant": true,
      "inputs": [],
      "name": "submissionsChosen",
      "outputs": [
        {
          "name": "",
          "type": "bool"
        }
      ],
      "payable": false,
      "stateMutability": "view",
      "type": "function"
    },
    {
      "constant": true,
      "inputs": [],
      "name": "getWinningSubmissionAddresses",
      "outputs": [
        {
          "name": "",
          "type": "address[]"
        }
      ],
      "payable": false,
      "stateMutability": "view",
      "type": "function"
    },
    {
      "constant": true,
      "inputs": [],
      "name": "numberOfSubmissions",
      "outputs": [
        {
          "name": "",
          "type": "uint256"
        }
      ],
      "payable": false,
      "stateMutability": "view",
      "type": "function"
    },
    {
      "constant": false,
      "inputs": [
        {
          "name": "_currentRoundEndTime",
          "type": "uint256"
        },
        {
          "components": [
            {
              "name": "start",
              "type": "uint256"
            },
            {
              "name": "end",
              "type": "uint256"
            },
            {
              "name": "reviewPeriodDuration",
              "type": "uint256"
            },
            {
              "name": "bounty",
              "type": "uint256"
            },
            {
              "name": "closed",
              "type": "bool"
            }
          ],
          "name": "_roundData",
          "type": "tuple"
        }
      ],
      "name": "editRound",
      "outputs": [],
      "payable": false,
      "stateMutability": "nonpayable",
      "type": "function"
    },
    {
      "constant": false,
      "inputs": [
        {
          "name": "_amount",
          "type": "uint256"
        }
      ],
      "name": "transferToTournament",
      "outputs": [],
      "payable": false,
      "stateMutability": "nonpayable",
      "type": "function"
    },
    {
      "constant": false,
      "inputs": [
        {
          "components": [
            {
              "name": "winningSubmissions",
              "type": "address[]"
            },
            {
              "name": "rewardDistribution",
              "type": "uint256[]"
            },
            {
              "name": "selectWinnerAction",
              "type": "uint256"
            },
            {
              "name": "rewardDistributionTotal",
              "type": "uint256"
            }
          ],
          "name": "_selectWinnersData",
          "type": "tuple"
        },
        {
          "components": [
            {
              "name": "start",
              "type": "uint256"
            },
            {
              "name": "end",
              "type": "uint256"
            },
            {
              "name": "reviewPeriodDuration",
              "type": "uint256"
            },
            {
              "name": "bounty",
              "type": "uint256"
            },
            {
              "name": "closed",
              "type": "bool"
            }
          ],
          "name": "_roundData",
          "type": "tuple"
        }
      ],
      "name": "selectWinningSubmissions",
      "outputs": [],
      "payable": false,
      "stateMutability": "nonpayable",
      "type": "function"
    },
    {
      "constant": false,
      "inputs": [],
      "name": "transferBountyToTournament",
      "outputs": [
        {
          "name": "",
          "type": "uint256"
        }
      ],
      "payable": false,
      "stateMutability": "nonpayable",
      "type": "function"
    },
    {
      "constant": false,
      "inputs": [
        {
          "name": "_tournamentBalance",
          "type": "uint256"
        }
      ],
      "name": "transferAllToWinners",
      "outputs": [],
      "payable": false,
      "stateMutability": "nonpayable",
      "type": "function"
    },
    {
      "constant": false,
      "inputs": [],
      "name": "startNow",
      "outputs": [],
      "payable": false,
      "stateMutability": "nonpayable",
      "type": "function"
    },
    {
      "constant": false,
      "inputs": [],
      "name": "closeRound",
      "outputs": [],
      "payable": false,
      "stateMutability": "nonpayable",
      "type": "function"
    },
    {
      "constant": false,
      "inputs": [
        {
          "name": "_owner",
          "type": "address"
        },
        {
          "name": "platformAddress",
          "type": "address"
        },
        {
          "components": [
            {
              "name": "title",
              "type": "bytes32[3]"
            },
            {
              "name": "descriptionHash",
              "type": "bytes32[2]"
            },
            {
              "name": "fileHash",
              "type": "bytes32[2]"
            },
            {
              "name": "timeSubmitted",
              "type": "uint256"
            },
            {
              "name": "timeUpdated",
              "type": "uint256"
            }
          ],
          "name": "submissionData",
          "type": "tuple"
        }
      ],
      "name": "createSubmission",
      "outputs": [
        {
          "name": "_submissionAddress",
          "type": "address"
        }
      ],
      "payable": false,
      "stateMutability": "nonpayable",
      "type": "function"
    }
  ],
  "bytecode": "0x60806040523480156200001157600080fd5b506040516101008062002301833981018060405262000034919081019062000154565b60008054600160a060020a0319908116600160a060020a039687161790915560018054821694861694909417909355600280549093169190931617905580516003556020810151600455604081015160055560600151600655620001fb565b6000620000a18251620001e7565b9392505050565b6000620000a18251620001f3565b600060a08284031215620000c957600080fd5b620000d560a0620001bf565b90506000620000e5848462000146565b8252506020620000f88484830162000146565b60208301525060406200010e8482850162000146565b6040830152506060620001248482850162000146565b60608301525060806200013a84828501620000a8565b60808301525092915050565b6000620000a18251620001f8565b60008060008061010085870312156200016c57600080fd5b60006200017a878762000093565b94505060206200018d8782880162000093565b9350506040620001a08782880162000093565b9250506060620001b387828801620000b6565b91505092959194509250565b60405181810167ffffffffffffffff81118282101715620001df57600080fd5b604052919050565b600160a060020a031690565b151590565b90565b6120f6806200020b6000396000f3006080604052600436106101695763ffffffff7c010000000000000000000000000000000000000000000000000000000060003504166303d66a97811461016e57806307417cf1146101995780630e3db9f2146101bb57806310fe9ae8146101d25780631865c57d146101e7578063241b15ad146101fc5780632f0713bb146102115780632fc1f19014610231578063389994f91461024657806338e4389514610268578063439f5ac2146102885780635325cdba1461029d57806354f6aa20146102bd57806357c60fb0146102df5780637bc935be146102ff578063856646fd146103145780638fa4e7b914610334578063b0ff549214610354578063b6a3497514610369578063c828371e14610389578063dbe55e561461039e578063e278fe6f146103b3578063e45ceed2146103c8578063e76c293e146103dd578063e9e8b446146103c8578063ed098460146103f2578063f49bff7b14610407578063f8b2cb4f1461041c575b600080fd5b34801561017a57600080fd5b5061018361043c565b6040516101909190611ec0565b60405180910390f35b3480156101a557600080fd5b506101ae610458565b6040516101909190612006565b3480156101c757600080fd5b506101d06105f9565b005b3480156101de57600080fd5b50610183610654565b3480156101f357600080fd5b506101ae610718565b34801561020857600080fd5b506101ae6107da565b34801561021d57600080fd5b506101d061022c366004611b9e565b6107e0565b34801561023d57600080fd5b5061018361098b565b34801561025257600080fd5b5061025b6109a7565b6040516101909190611f85565b34801561027457600080fd5b506101d0610283366004611b9e565b6109af565b34801561029457600080fd5b506101ae6109ec565b3480156102a957600080fd5b506101d06102b8366004611b9e565b6109f2565b3480156102c957600080fd5b506102d2610d07565b6040516101909190611f74565b3480156102eb57600080fd5b506101836102fa366004611ae1565b610d79565b34801561030b57600080fd5b506101ae61114a565b34801561032057600080fd5b506101d061032f366004611b4d565b611150565b34801561034057600080fd5b506101d061034f366004611bda565b611222565b34801561036057600080fd5b5061018361129b565b34801561037557600080fd5b5061025b610384366004611a9d565b6112b7565b34801561039557600080fd5b506101ae6112e2565b3480156103aa57600080fd5b506101836112e8565b3480156103bf57600080fd5b506101d0611304565b3480156103d457600080fd5b506101ae611369565b3480156103e957600080fd5b506101836114aa565b3480156103fe57600080fd5b506102d26114c6565b34801561041357600080fd5b506101ae611536565b34801561042857600080fd5b506101ae610437366004611a9d565b61153c565b60015473ffffffffffffffffffffffffffffffffffffffff1681565b600154600090819073ffffffffffffffffffffffffffffffffffffffff16331461048157600080fd5b610489611369565b90506000809054906101000a900473ffffffffffffffffffffffffffffffffffffffff1673ffffffffffffffffffffffffffffffffffffffff166310fe9ae86040518163ffffffff167c0100000000000000000000000000000000000000000000000000000000028152600401602060405180830381600087803b15801561051057600080fd5b505af1158015610524573d6000803e3d6000fd5b505050506040513d601f19601f820116820180604052506105489190810190611ac3565b6001546040517fa9059cbb00000000000000000000000000000000000000000000000000000000815273ffffffffffffffffffffffffffffffffffffffff9283169263a9059cbb926105a1929116908590600401611f59565b602060405180830381600087803b1580156105bb57600080fd5b505af11580156105cf573d6000803e3d6000fd5b505050506040513d601f19601f820116820180604052506105f39190810190611b2f565b50919050565b60015460009073ffffffffffffffffffffffffffffffffffffffff16331461062057600080fd5b6003546004546106359163ffffffff6116a716565b42600381905590915061064e908263ffffffff6116b916565b60045550565b60008060009054906101000a900473ffffffffffffffffffffffffffffffffffffffff1673ffffffffffffffffffffffffffffffffffffffff166310fe9ae86040518163ffffffff167c0100000000000000000000000000000000000000000000000000000000028152600401602060405180830381600087803b1580156106db57600080fd5b505af11580156106ef573d6000803e3d6000fd5b505050506040513d601f19601f820116820180604052506107139190810190611ac3565b905090565b600080546040517f05b00ec100000000000000000000000000000000000000000000000000000000815273__LibRound______________________________916305b00ec19161078a9173ffffffffffffffffffffffffffffffffffffffff1690600390600890600c90600401611f1b565b60206040518083038186803b1580156107a257600080fd5b505af41580156107b6573d6000803e3d6000fd5b505050506040513d601f19601f820116820180604052506107139190810190611bbc565b600c5490565b60015473ffffffffffffffffffffffffffffffffffffffff16331461080457600080fd5b600061080e610718565b1461081857600080fd5b6000809054906101000a900473ffffffffffffffffffffffffffffffffffffffff1673ffffffffffffffffffffffffffffffffffffffff166310fe9ae86040518163ffffffff167c0100000000000000000000000000000000000000000000000000000000028152600401602060405180830381600087803b15801561089d57600080fd5b505af11580156108b1573d6000803e3d6000fd5b505050506040513d601f19601f820116820180604052506108d59190810190611ac3565b73ffffffffffffffffffffffffffffffffffffffff1663a9059cbb33836040518363ffffffff167c010000000000000000000000000000000000000000000000000000000002815260040161092b929190611f59565b602060405180830381600087803b15801561094557600080fd5b505af1158015610959573d6000803e3d6000fd5b505050506040513d601f19601f8201168201806040525061097d9190810190611b2f565b151561098857600080fd5b50565b60005473ffffffffffffffffffffffffffffffffffffffff1690565b600854151590565b60015473ffffffffffffffffffffffffffffffffffffffff1633146109d357600080fd5b6006546109e6908263ffffffff6116b916565b60065550565b60045490565b60015460009081908190819073ffffffffffffffffffffffffffffffffffffffff163314610a1f57600080fd5b600654610a4c90670de0b6b3a764000090610a40908863ffffffff6116b916565b9063ffffffff6116cf16565b600b54909450610a6a90670de0b6b3a764000063ffffffff6116cf16565b9250600091505b600854821015610d0057610aba83610aae86600860010186815481101515610a9557fe5b90600052602060002001546116cf90919063ffffffff16565b9063ffffffff6116f316565b90506000809054906101000a900473ffffffffffffffffffffffffffffffffffffffff1673ffffffffffffffffffffffffffffffffffffffff166310fe9ae86040518163ffffffff167c0100000000000000000000000000000000000000000000000000000000028152600401602060405180830381600087803b158015610b4157600080fd5b505af1158015610b55573d6000803e3d6000fd5b505050506040513d601f19601f82011682018060405250610b799190810190611ac3565b73ffffffffffffffffffffffffffffffffffffffff1663a9059cbb600860000184815481101515610ba657fe5b6000918252602090912001546040517c010000000000000000000000000000000000000000000000000000000063ffffffff8416028152610c029173ffffffffffffffffffffffffffffffffffffffff16908590600401611f59565b602060405180830381600087803b158015610c1c57600080fd5b505af1158015610c30573d6000803e3d6000fd5b505050506040513d601f19601f82011682018060405250610c549190810190611b2f565b506008805483908110610c6357fe5b6000918252602090912001546040517f09b542bb00000000000000000000000000000000000000000000000000000000815273ffffffffffffffffffffffffffffffffffffffff909116906309b542bb90610cc2908490600401612006565b600060405180830381600087803b158015610cdc57600080fd5b505af1158015610cf0573d6000803e3d6000fd5b505060019093019250610a719050565b5050505050565b6060600c600001805480602002602001604051908101604052809291908181526020018280548015610d6f57602002820191906000526020600020905b815473ffffffffffffffffffffffffffffffffffffffff168152600190910190602001808311610d44575b5050505050905090565b6001546000908190819073ffffffffffffffffffffffffffffffffffffffff163314610da457600080fd5b6002610dae610718565b14610db857600080fd5b73ffffffffffffffffffffffffffffffffffffffff86161515610dda57600080fd5b6002546001546040517f6c4074f700000000000000000000000000000000000000000000000000000000815273ffffffffffffffffffffffffffffffffffffffff92831692636c4074f792610e3b928b928b92169030908b90600401611ece565b602060405180830381600087803b158015610e5557600080fd5b505af1158015610e69573d6000803e3d6000fd5b505050506040513d601f19601f82011682018060405250610e8d9190810190611ac3565b73ffffffffffffffffffffffffffffffffffffffff8082166000818152600f602052604080822080547fffffffffffffffffffffffffffffffffffffffffffffffffffffffffffffff00166001908117909155600c805491820181559092527fdf6966c971051c3d54ec59162606531493a51404a002842f56009d7e5cf4a8c790910180547fffffffffffffffffffffffff000000000000000000000000000000000000000016909217909155517f6a44e43d000000000000000000000000000000000000000000000000000000008152919350861690636a44e43d90610f78908990600401611ec0565b602060405180830381600087803b158015610f9257600080fd5b505af1158015610fa6573d6000803e3d6000fd5b505050506040513d601f19601f82011682018060405250610fca9190810190611ac3565b73ffffffffffffffffffffffffffffffffffffffff81166000908152600e6020526040902054909150151561106a57600d80546001810182556000919091527fd7b6990105719101dabeb77144f2a3385c8033acd3af97e9423a695e81ad1eb50180547fffffffffffffffffffffffff00000000000000000000000000000000000000001673ffffffffffffffffffffffffffffffffffffffff88161790555b73ffffffffffffffffffffffffffffffffffffffff8181166000908152600e602090815260408083208054600180820183559185529290932090910180547fffffffffffffffffffffffff000000000000000000000000000000000000000016868516179055905490517f4644c51b000000000000000000000000000000000000000000000000000000008152911690634644c51b9061110e908590600401611ec0565b600060405180830381600087803b15801561112857600080fd5b505af115801561113c573d6000803e3d6000fd5b509398975050505050505050565b60055490565b60015473ffffffffffffffffffffffffffffffffffffffff16331461117457600080fd5b600454151561118257600080fd5b600361118c610718565b1461119657600080fd5b6040517f6e86d66200000000000000000000000000000000000000000000000000000000815273__LibRound______________________________90636e86d662906111ee9060039060089087908790600401611fa1565b60006040518083038186803b15801561120657600080fd5b505af415801561121a573d6000803e3d6000fd5b505050505050565b60015473ffffffffffffffffffffffffffffffffffffffff16331461124657600080fd5b6040517fb666875000000000000000000000000000000000000000000000000000000000815273__LibRound______________________________9063b6668750906111ee9060039086908690600401611fde565b60025473ffffffffffffffffffffffffffffffffffffffff1681565b73ffffffffffffffffffffffffffffffffffffffff166000908152600f602052604090205460ff1690565b60035490565b60005473ffffffffffffffffffffffffffffffffffffffff1681565b60015473ffffffffffffffffffffffffffffffffffffffff16331461132857600080fd5b6004611332610718565b1461133c57600080fd5b600780547fffffffffffffffffffffffffffffffffffffffffffffffffffffffffffffff00166001179055565b60008060009054906101000a900473ffffffffffffffffffffffffffffffffffffffff1673ffffffffffffffffffffffffffffffffffffffff166310fe9ae86040518163ffffffff167c0100000000000000000000000000000000000000000000000000000000028152600401602060405180830381600087803b1580156113f057600080fd5b505af1158015611404573d6000803e3d6000fd5b505050506040513d601f19601f820116820180604052506114289190810190611ac3565b73ffffffffffffffffffffffffffffffffffffffff166370a08231306040518263ffffffff167c010000000000000000000000000000000000000000000000000000000002815260040161147c9190611f93565b602060405180830381600087803b15801561149657600080fd5b505af11580156107b6573d6000803e3d6000fd5b60015473ffffffffffffffffffffffffffffffffffffffff1690565b60606008600001805480602002602001604051908101604052809291908181526020018280548015610d6f5760200282019190600052602060002090815473ffffffffffffffffffffffffffffffffffffffff168152600190910190602001808311610d44575050505050905090565b60065490565b60008060009054906101000a900473ffffffffffffffffffffffffffffffffffffffff1673ffffffffffffffffffffffffffffffffffffffff166310fe9ae86040518163ffffffff167c0100000000000000000000000000000000000000000000000000000000028152600401602060405180830381600087803b1580156115c357600080fd5b505af11580156115d7573d6000803e3d6000fd5b505050506040513d601f19601f820116820180604052506115fb9190810190611ac3565b73ffffffffffffffffffffffffffffffffffffffff166370a08231836040518263ffffffff167c010000000000000000000000000000000000000000000000000000000002815260040161164f9190611ec0565b602060405180830381600087803b15801561166957600080fd5b505af115801561167d573d6000803e3d6000fd5b505050506040513d601f19601f820116820180604052506116a19190810190611bbc565b92915050565b6000828211156116b357fe5b50900390565b6000828201838110156116c857fe5b9392505050565b60008282028315806116eb57508284828115156116e857fe5b04145b15156116c857fe5b600080828481151561170157fe5b04949350505050565b60006116c88235612093565b60006116c88251612093565b6000601f8201831361173357600080fd5b81356117466117418261203b565b612014565b9150818183526020840193506020810190508385602084028201111561176b57600080fd5b60005b838110156117975781611781888261170a565b845250602092830192919091019060010161176e565b5050505092915050565b6000601f820183136117b257600080fd5b60026117c06117418261205c565b915081838560208402820111156117d657600080fd5b60005b8381101561179757816117ec88826118eb565b84525060209283019291909101906001016117d9565b6000601f8201831361181357600080fd5b60036118216117418261205c565b9150818385602084028201111561183757600080fd5b60005b83811015611797578161184d88826118eb565b845250602092830192919091019060010161183a565b6000601f8201831361187457600080fd5b81356118826117418261203b565b915081818352602084019350602081019050838560208402820111156118a757600080fd5b60005b8381101561179757816118bd88826118eb565b84525060209283019291909101906001016118aa565b60006116c882356120ac565b60006116c882516120ac565b60006116c88235612080565b600060a0828403121561190957600080fd5b61191360a0612014565b9050600061192184846118eb565b8252506020611932848483016118eb565b6020830152506040611946848285016118eb565b604083015250606061195a848285016118eb565b606083015250608061196e848285016118d3565b60808301525092915050565b60006080828403121561198c57600080fd5b6119966080612014565b9050813567ffffffffffffffff8111156119af57600080fd5b6119bb84828501611722565b825250602082013567ffffffffffffffff8111156119d857600080fd5b6119e484828501611863565b60208301525060406119f8848285016118eb565b6040830152506060611a0c848285016118eb565b60608301525092915050565b60006101208284031215611a2b57600080fd5b611a3560a0612014565b90506000611a438484611802565b8252506060611a54848483016117a1565b60208301525060a0611a68848285016117a1565b60408301525060e0611a7c848285016118eb565b60608301525061010061196e848285016118eb565b60006116c88251612080565b600060208284031215611aaf57600080fd5b6000611abb848461170a565b949350505050565b600060208284031215611ad557600080fd5b6000611abb8484611716565b60008060006101608486031215611af757600080fd5b6000611b03868661170a565b9350506020611b148682870161170a565b9250506040611b2586828701611a18565b9150509250925092565b600060208284031215611b4157600080fd5b6000611abb84846118df565b60008060c08385031215611b6057600080fd5b823567ffffffffffffffff811115611b7757600080fd5b611b838582860161197a565b9250506020611b94858286016118f7565b9150509250929050565b600060208284031215611bb057600080fd5b6000611abb84846118eb565b600060208284031215611bce57600080fd5b6000611abb8484611a91565b60008060c08385031215611bed57600080fd5b6000611b8385856118eb565b611c0281612093565b82525050565b6000611c1382612083565b808452602084019350611c258361207a565b60005b82811015611c5557611c3b868351611bf9565b611c448261207a565b602096909601959150600101611c28565b5093949350505050565b6000611c6a82612083565b808452602084019350611c7c8361207a565b60005b82811015611c5557611c92868351611bf9565b611c9b8261207a565b602096909601959150600101611c7f565b611cb581612087565b611cbe82612080565b60005b82811015610d0057611cd4858351611d86565b611cdd8261207a565b602095909501949150600101611cc1565b611cf78161208d565b611d0082612080565b60005b82811015610d0057611d16858351611d86565b611d1f8261207a565b602095909501949150600101611d03565b6000611d3b82612083565b808452602084019350611d4d8361207a565b60005b82811015611c5557611d63868351611d86565b611d6c8261207a565b602096909601959150600101611d50565b611c02816120ac565b611c0281612080565b611c02816120b1565b805160a0830190611da98482611d86565b506020820151611dbc6020850182611d86565b506040820151611dcf6040850182611d86565b506060820151611de26060850182611d86565b506080820151611df56080850182611d7d565b50505050565b9052565b8051608080845260009190840190611e178282611c5f565b91505060208301518482036020860152611e318282611d30565b9150506040830151611e466040860182611d86565b506060830151611e596060860182611d86565b509392505050565b8051610120830190611e738482611cee565b506020820151611e866060850182611cac565b506040820151611e9960a0850182611cac565b506060820151611eac60e0850182611d86565b506080820151611df5610100850182611d86565b602081016116a18284611bf9565b6101a08101611edd8288611bf9565b611eea6020830187611bf9565b611ef76040830186611bf9565b611f046060830185611d8f565b611f116080830184611e61565b9695505050505050565b60808101611f298287611bf9565b611f366020830186611dfb565b611f436040830185611dfb565b611f506060830184611dfb565b95945050505050565b60408101611f678285611bf9565b6116c86020830184611d86565b602080825281016116c88184611c08565b602081016116a18284611d7d565b602081016116a18284611d8f565b6101008101611fb08287611dfb565b611fbd6020830186611dfb565b8181036040830152611fcf8185611dff565b9050611f506060830184611d98565b60e08101611fec8286611dfb565b611ff96020830185611d86565b611abb6040830184611d98565b602081016116a18284611d86565b60405181810167ffffffffffffffff8111828210171561203357600080fd5b604052919050565b600067ffffffffffffffff82111561205257600080fd5b5060209081020190565b600067ffffffffffffffff82111561207357600080fd5b5060200290565b60200190565b90565b5190565b50600290565b50600390565b73ffffffffffffffffffffffffffffffffffffffff1690565b151590565b60006116a1826120935600a265627a7a723058206fc2386dcff4d4bc6b2e96434b776d090b858abd91f09cbb0f46946fd48b6f2b6c6578706572696d656e74616cf50037",
  "source": "pragma solidity ^0.4.18;\npragma experimental ABIEncoderV2;\n\nimport \"../libraries/math/SafeMath.sol\";\nimport \"../libraries/LibConstruction.sol\";\nimport \"../libraries/round/LibRound.sol\";\nimport \"../libraries/LibIterable.sol\";\nimport \"../libraries/LibEnums.sol\";\nimport \"../interfaces/IMatryxToken.sol\";\nimport \"../interfaces/IMatryxPlatform.sol\";\nimport \"../interfaces/IMatryxTournament.sol\";\nimport \"../interfaces/IMatryxRound.sol\";\nimport \"../interfaces/factories/IMatryxRoundFactory.sol\";\nimport \"../interfaces/factories/IMatryxSubmissionFactory.sol\";\nimport \"../interfaces/IMatryxSubmission.sol\";\nimport \"./Ownable.sol\";\n\n/// @title MatryxRound - A round within a Matryx tournament.\n/// @author Max Howard - <max@nanome.ai>, Sam Hessenauer - <sam@nanome.ai>\ncontract MatryxRound is IMatryxRound {\n    using SafeMath for uint256;\n\n    // TODO: allow for refunds\n    // TODO: condense and put in structs\n\n    address public platformAddress;\n    address public tournamentAddress;\n    address public matryxSubmissionFactoryAddress;\n\n    LibConstruction.RoundData data;\n    LibRound.SelectWinnersData winningSubmissionsData;\n    LibRound.SubmissionsData submissionsData;\n    LibRound.SubmissionAndEntrantTracking submissionEntrantTrackingData;\n\n    constructor(address _platformAddress, address _tournamentAddress, address _submissionFactoryAddress, LibConstruction.RoundData _roundData) public\n    {\n        platformAddress = _platformAddress;\n        tournamentAddress = _tournamentAddress;\n        matryxSubmissionFactoryAddress = _submissionFactoryAddress;\n\n        data.start = _roundData.start;\n        data.end = _roundData.end;\n        data.reviewPeriodDuration = _roundData.reviewPeriodDuration;\n        data.bounty = _roundData.bounty;\n    }\n\n    /*\n     * Modifiers\n     */\n\n    /// @dev Requires that this round is in the open submission state.\n    modifier duringOpenRound()\n    {\n        require(getState() == uint256(LibEnums.RoundState.Open));\n        _;\n    }\n\n    /// @dev Requires that this round is in the winner selection state.\n    modifier duringReviewPeriod()\n    {\n        require(data.end != 0);\n        require(getState() == uint256(LibEnums.RoundState.InReview));\n        _;\n    }\n\n    /// @dev Requires that this round already has chosen winners\n    modifier hasWinners()\n    {\n        require(getState() == uint256(LibEnums.RoundState.HasWinners));\n        _;\n    }\n\n    // @dev Requires that a winner has been selected for this round.\n    // modifier afterWinnerSelected()\n    // {\n    // \trequire(winningSubmissions[0] != 0x0);\n    // \t_;\n    // }\n\n    // Unused\n    // modifier onlySubmission()\n    // {\n    //     require(submissionEntrantTrackingData.submissionExists[msg.sender]);\n    //     _;\n    // }\n\n    modifier onlyTournament()\n    {\n        require(msg.sender == tournamentAddress);\n        _;\n    }\n\n    // Unused\n    /// @dev Requires that the desired submission is accessible to the requester.\n    // modifier whenAccessible(address _requester, uint256 _index)\n    // {\n    //     require(IMatryxSubmission(submissionsData.submissions[_index]).isAccessible(_requester));\n    //     _;\n    // }\n\n    function submissionExists(address _submissionAddress) public view returns (bool)\n    {\n        return submissionEntrantTrackingData.submissionExists[_submissionAddress];\n    }\n\n    /// @dev Requires the function caller to be the platform or the owner of this tournament\n    // modifier tournamentOrOwner()\n    // {\n    //     require((msg.sender == tournamentAddress)||(msg.sender == owner));\n    //     _;\n    // }\n\n    // Unused\n    // @dev Requires that the sender be the submission's author.\n    // modifier onlySubmissionAuthor()\n    // {\n    //     require(submissionEntrantTrackingData.authorToSubmissionAddress[msg.sender].length != 0);\n    //     _;\n    // }\n\n    /*\n     * State Maintenance Methods\n     */\n\n    // function removeSubmission(address _submissionAddress) public onlyTournament returns (bool)\n    // {\n            // TODO: Implement with LLLLL (optimized linked list)\n    // \t}\n    // }\n\n    function addBounty(uint256 _mtxAllocation) public onlyTournament\n    {\n        data.bounty = data.bounty.add(_mtxAllocation);\n    }\n\n    /*\n     * Access Control Methods\n     */\n\n    //TODO - LLL THIS Function\n    // @dev Returns the state of the round.\n    // The round can be in one of 6 states:\n    // NotYetOpen, Open, InReview, HasWinners, Closed, Abandoned\n    function getState() public view returns (uint256)\n    {\n        return LibRound.getState(platformAddress, data, winningSubmissionsData, submissionsData);\n    }\n\n    /*\n     * Getter Methods\n     */\n\n    function getPlatform() public view returns (address)\n    {\n        return platformAddress;\n    }\n\n    function getTournament() public view returns (address)\n    {\n        return tournamentAddress;\n    }\n\n    function getStartTime() public view returns (uint256)\n    {\n        return data.start;\n    }\n\n    function getEndTime() public view returns (uint256)\n    {\n        return data.end;\n    }\n\n    function getReviewPeriodDuration() public view returns (uint256)\n    {\n        return data.reviewPeriodDuration;\n    }\n\n    function getBounty() public view returns (uint256)\n    {\n        return data.bounty;\n    }\n\n    function getRemainingBounty() public view returns (uint256)\n    {\n        return IMatryxToken(IMatryxPlatform(platformAddress).getTokenAddress()).balanceOf(this);\n    }\n\n    function getTokenAddress() public view returns (address)\n    {\n        return IMatryxPlatform(platformAddress).getTokenAddress();\n    }\n\n    /// @dev Returns all submissions made to this round.\n    /// @return _submissions All submissions made to this round.\n    function getSubmissions() public view returns (address[] _submissions)\n    {\n        return submissionsData.submissions;\n    }\n\n    /// @dev Returns the balance of a particular submission\n    /// @param _submissionAddress Address of the submission\n    /// @return Balance of the bounty\n    function getBalance(address _submissionAddress) public view returns (uint256)\n    {\n        return IMatryxToken(IMatryxPlatform(platformAddress).getTokenAddress()).balanceOf(_submissionAddress);\n    }\n\n    function getRoundBalance() public view returns (uint256)\n    {\n        return IMatryxToken(IMatryxPlatform(platformAddress).getTokenAddress()).balanceOf(this);\n    }\n\n    /// @dev Returns whether or not a winning submission has been chosen.\n    /// @return Whether or not a submission has been chosen.\n    function submissionsChosen() public view returns (bool)\n    {\n        return winningSubmissionsData.winningSubmissions.length != 0;\n    }\n\n    /// @dev Returns the index of this round's winning submission.\n    /// @return Index of the winning submission.\n    function getWinningSubmissionAddresses() public view returns (address[])\n    {\n        return winningSubmissionsData.winningSubmissions;\n    }\n\n    /// @dev Returns the number of submissions made to this round.\n    /// @return Number of submissions made to this round.\n    function numberOfSubmissions() public view returns (uint256)\n    {\n        return submissionsData.submissions.length;\n    }\n\n    /*\n     * Round Admin Methods\n     */\n\n    /// @dev Allows the tournament to edit the\n    function editRound(uint256 _currentRoundEndTime, LibConstruction.RoundData _roundData) public onlyTournament\n    {\n        LibRound.editRound(data, _currentRoundEndTime, _roundData);\n    }\n\n    function transferToTournament(uint256 _amount) public onlyTournament\n    {\n        require(getState() == uint256(LibEnums.RoundState.NotYetOpen));\n        require(IMatryxToken(IMatryxPlatform(platformAddress).getTokenAddress()).transfer(msg.sender, _amount));\n    }\n\n    /// @dev Choose a winning submission for the round (callable only by the owner of the round).\n    /// @param _selectWinnersData Data containing:\n    ///   winningSubmissions: Addresses of the winning submissions\n    ///   rewardDistribution: Distribution indicating how to split the MTX reward among the submissions\n    ///   rewardDistributionTotal: (Unused)\n    /// @param _roundData Data containing:\n    ///   start: Start time (seconds since unix-epoch) for next round\n    ///   end: End time (seconds since unix-epoch) for next round\n    ///   reviewPeriodDuration: Number of seconds to allow for winning submissions to be selected in next round\n    ///   bounty: Bounty in MTX for next round\n    ///   closed: (Unused)\n    function selectWinningSubmissions(LibRound.SelectWinnersData _selectWinnersData, LibConstruction.RoundData _roundData) public onlyTournament duringReviewPeriod\n    {\n        LibRound.selectWinningSubmissions(data, winningSubmissionsData, _selectWinnersData, _roundData);\n    }\n\n    /// @dev Allows contributors to withdraw a portion of the round bounty if the round has been abandoned.\n    function transferBountyToTournament() public onlyTournament returns (uint256)\n    {\n        uint256 remaining = getRemainingBounty();\n        IMatryxToken(IMatryxPlatform(platformAddress).getTokenAddress()).transfer(tournamentAddress, remaining);\n        return remaining;\n    }\n\n    function transferAllToWinners(uint256 _tournamentBalance) public onlyTournament\n    {\n        // Calculate total reward denominator\n        uint256 totalBalance = data.bounty.add(_tournamentBalance).mul(10**18);\n        uint256 totalDist = winningSubmissionsData.rewardDistributionTotal.mul(10**18);\n\n        for(uint256 i = 0; i < winningSubmissionsData.winningSubmissions.length; i++)\n        {\n            // Calculate reward numerator based on distribution for this specific submission\n            // uint256 reward = winningSubmissionsData.rewardDistribution[i].mul(1*10**18).div(winningSubmissionsData.rewardDistributionTotal).mul(totalBalance).div(1*10**18);\n            uint256 reward = winningSubmissionsData.rewardDistribution[i].mul(totalBalance).div(totalDist);\n            // Transfer the reward to the submission\n            IMatryxToken(IMatryxPlatform(platformAddress).getTokenAddress()).transfer(winningSubmissionsData.winningSubmissions[i], reward);\n            IMatryxSubmission(winningSubmissionsData.winningSubmissions[i]).addToWinnings(reward);\n        }\n    }\n\n    function startNow() public onlyTournament\n    {\n        uint256 duration = data.end.sub(data.start);\n        data.start = now;\n        data.end = data.start.add(duration);\n    }\n\n    function closeRound() public onlyTournament hasWinners\n    {\n        data.closed = true;\n    }\n\n    /*\n     * Entrant Methods\n     */\n\n    /// @dev Create a new submission. Called by MatryxTournament\n    /// @param _owner Owner of this submission.\n    /// @param submissionData The data of the submission. Includes:\n    ///\t\ttitle: Title of the submission.\n    ///\t\towner: The owner of the submission.\n    ///\t\tcontentHash: Off-chain content hash of submission details (ipfs hash)\n    ///\t\tcontributors: Contributors to this submission.\n    ///\t\tcontributorRewardDistribution: Informs how the reward should be distributed among the contributors\n    /// \tshould this submission win.\n    ///\t\treferences: Addresses of submissions referenced in creating this submission.\n    /// @return _submissionAddress Location of this submission within this round.\n    function createSubmission(address _owner, address platformAddress, LibConstruction.SubmissionData submissionData) public onlyTournament duringOpenRound returns (address _submissionAddress)\n    {\n        require(_owner != 0x0);\n\n        address submissionAddress = IMatryxSubmissionFactory(matryxSubmissionFactoryAddress).createSubmission(_owner, platformAddress, tournamentAddress, this, submissionData);\n        // submission bookkeeping\n        submissionEntrantTrackingData.submissionExists[submissionAddress] = true;\n        submissionsData.submissions.push(submissionAddress);\n        // TODO: Change to 'authors.push' once MatryxPeer is part of MatryxPlatform\n        address submissionAuthor = IMatryxPlatform(platformAddress).peerAddress(_owner);\n        if(submissionEntrantTrackingData.authorToSubmissionAddress[submissionAuthor].length == 0)\n        {\n            submissionsData.submissionOwners.push(_owner);\n        }\n\n        submissionEntrantTrackingData.authorToSubmissionAddress[submissionAuthor].push(submissionAddress);\n\n        IMatryxTournament(tournamentAddress).invokeSubmissionCreatedEvent(submissionAddress);\n        return submissionAddress;\n    }\n\n    // function pullPayoutIntoSubmission() public onlySubmission returns (uint256)\n    // {\n    //     require(getState() == uint256(LibEnums.RoundState.Closed));\n    //     // If the submission's already been paid, revert\n    //     require(submissionToHasBeenPayed[msg.sender] == false);\n    //     // If the tournament closed, we need to pull the tournament funds into this round.\n    //     if(IMatryxTournament(tournamentAddress).getState() == uint256(LibEnums.TournamentState.Closed) && getRemainingBounty() > 0)\n    //     {\n    //         IMatryxTournament(tournamentAddress).pullRemainingBountyIntoRound();\n    //     }\n\n    //     // Transfer the reward to its recipient if it deserves a reward (and mark that its been given out)\n\n    //     for(uint256 i = 0; i < winningSubmissions.length; i++)\n    //     {\n    //         if(msg.sender == winningSubmissions[i])\n    //         {\n    //             submissionToHasBeenPayed[msg.sender] = true;\n    //             // Calculate total reward denominator and store it somewhere when\n    //             uint256 reward = (rewardDistribution[i].mul(1*10**18).div(rewardDistributionTotal)).mul(bounty);\n    //             // Transfer the reward to the submission\n    //             IMatryxToken(matryxTokenAddress).transfer(msg.sender, reward);\n    //             return reward;\n    //         }\n    //     }\n\n    //     // TODO:\n    //     // Or we could never transfer funds to the round in the first place.\n    //     // This would allow this function to exist on the tournament instead of the round.\n    //     // I'd need to reintroduce bountyLeft so that the tournament knew how much is left for the round.\n    //     // If I reintroduced it, it would be to the tournament, so that submission.withdrawReward wouldn't have to call round.bountyLeft to figure out how much to ask the tournament for.\n    //     // The tournament would just transfer as much as the submission deserved into it.\n    //     // bountyLeft would be stored as a value under a rounds structure.\n    //     // This would eventually involve writing a library to do round functions.\n    //     // For now, this can be a hardcoded library.\n    //     // Eventually, this library will be part of the upgrade system.\n    //     // Upgrade system will eventually allow for data, data migration and code contracts to exist and be swapped per contract\n    //     // All data and code contract addresses will be sourced from one contract, the MatryxVersionManager.\n    //     // This contract will also contain data migrators to migrate from one version to another (for when data structures change)\n    // }\n}\n",
  "sourcePath": "/Users/maxhoward/Desktop/Ethereum/MatryxPlatform/contracts/MatryxRound.sol",
  "compiler": {
    "name": "solc",
    "version": "0.4.24+commit.e67f0147.Emscripten.clang"
  },
  "schemaVersion": "2.0.1",
  "updatedAt": "2018-08-03T23:22:31.765Z"
}