{
  "contractName": "MatryxTournament",
  "abi": [
    {
      "constant": true,
      "inputs": [],
      "name": "entryFee",
      "outputs": [
        {
          "name": "",
          "type": "uint256"
        }
      ],
      "payable": false,
      "stateMutability": "view",
      "type": "function"
    },
    {
      "constant": true,
      "inputs": [],
      "name": "tournamentOpen",
      "outputs": [
        {
          "name": "",
          "type": "bool"
        }
      ],
      "payable": false,
      "stateMutability": "view",
      "type": "function"
    },
    {
      "constant": true,
      "inputs": [],
      "name": "maxRounds",
      "outputs": [
        {
          "name": "",
          "type": "uint256"
        }
      ],
      "payable": false,
      "stateMutability": "view",
      "type": "function"
    },
    {
      "constant": true,
      "inputs": [],
      "name": "matryxTokenAddress",
      "outputs": [
        {
          "name": "",
          "type": "address"
        }
      ],
      "payable": false,
      "stateMutability": "view",
      "type": "function"
    },
    {
      "constant": true,
      "inputs": [
        {
          "name": "_sender",
          "type": "address"
        }
      ],
      "name": "isOwner",
      "outputs": [
        {
          "name": "_isOwner",
          "type": "bool"
        }
      ],
      "payable": false,
      "stateMutability": "view",
      "type": "function"
    },
    {
      "constant": true,
      "inputs": [],
      "name": "reviewPeriod",
      "outputs": [
        {
          "name": "",
          "type": "uint256"
        }
      ],
      "payable": false,
      "stateMutability": "view",
      "type": "function"
    },
    {
      "constant": true,
      "inputs": [],
      "name": "tournamentOpenedTime",
      "outputs": [
        {
          "name": "",
          "type": "uint256"
        }
      ],
      "payable": false,
      "stateMutability": "view",
      "type": "function"
    },
    {
      "constant": true,
      "inputs": [],
      "name": "tournamentClosedTime",
      "outputs": [
        {
          "name": "",
          "type": "uint256"
        }
      ],
      "payable": false,
      "stateMutability": "view",
      "type": "function"
    },
    {
      "constant": true,
      "inputs": [],
      "name": "title",
      "outputs": [
        {
          "name": "",
          "type": "string"
        }
      ],
      "payable": false,
      "stateMutability": "view",
      "type": "function"
    },
    {
      "constant": true,
      "inputs": [],
      "name": "matryxRoundFactoryAddress",
      "outputs": [
        {
          "name": "",
          "type": "address"
        }
      ],
      "payable": false,
      "stateMutability": "view",
      "type": "function"
    },
    {
      "constant": true,
      "inputs": [],
      "name": "getOwner",
      "outputs": [
        {
          "name": "_owner",
          "type": "address"
        }
      ],
      "payable": false,
      "stateMutability": "view",
      "type": "function"
    },
    {
      "constant": true,
      "inputs": [
        {
          "name": "",
          "type": "address"
        }
      ],
      "name": "isRound",
      "outputs": [
        {
          "name": "",
          "type": "bool"
        }
      ],
      "payable": false,
      "stateMutability": "view",
      "type": "function"
    },
    {
      "constant": true,
      "inputs": [
        {
          "name": "",
          "type": "uint256"
        }
      ],
      "name": "rounds",
      "outputs": [
        {
          "name": "",
          "type": "address"
        }
      ],
      "payable": false,
      "stateMutability": "view",
      "type": "function"
    },
    {
      "constant": true,
      "inputs": [],
      "name": "owner",
      "outputs": [
        {
          "name": "",
          "type": "address"
        }
      ],
      "payable": false,
      "stateMutability": "view",
      "type": "function"
    },
    {
      "constant": true,
      "inputs": [],
      "name": "Bounty",
      "outputs": [
        {
          "name": "",
          "type": "uint256"
        }
      ],
      "payable": false,
      "stateMutability": "view",
      "type": "function"
    },
    {
      "constant": true,
      "inputs": [],
      "name": "BountyLeft",
      "outputs": [
        {
          "name": "",
          "type": "uint256"
        }
      ],
      "payable": false,
      "stateMutability": "view",
      "type": "function"
    },
    {
      "constant": true,
      "inputs": [],
      "name": "platformAddress",
      "outputs": [
        {
          "name": "",
          "type": "address"
        }
      ],
      "payable": false,
      "stateMutability": "view",
      "type": "function"
    },
    {
      "constant": true,
      "inputs": [],
      "name": "externalAddress",
      "outputs": [
        {
          "name": "",
          "type": "bytes"
        }
      ],
      "payable": false,
      "stateMutability": "view",
      "type": "function"
    },
    {
      "constant": true,
      "inputs": [],
      "name": "category",
      "outputs": [
        {
          "name": "",
          "type": "string"
        }
      ],
      "payable": false,
      "stateMutability": "view",
      "type": "function"
    },
    {
      "constant": true,
      "inputs": [],
      "name": "timeCreated",
      "outputs": [
        {
          "name": "",
          "type": "uint256"
        }
      ],
      "payable": false,
      "stateMutability": "view",
      "type": "function"
    },
    {
      "constant": false,
      "inputs": [
        {
          "name": "newOwner",
          "type": "address"
        }
      ],
      "name": "transferOwnership",
      "outputs": [],
      "payable": false,
      "stateMutability": "nonpayable",
      "type": "function"
    },
    {
      "inputs": [
        {
          "name": "_platformAddress",
          "type": "address"
        },
        {
          "name": "_matryxTokenAddress",
          "type": "address"
        },
        {
          "name": "_matryxRoundFactoryAddress",
          "type": "address"
        },
        {
          "name": "_owner",
          "type": "address"
        },
        {
          "name": "_category",
          "type": "string"
        },
        {
          "name": "_tournamentTitle",
          "type": "string"
        },
        {
          "name": "_externalAddress",
          "type": "bytes"
        },
        {
          "name": "_Bounty",
          "type": "uint256"
        },
        {
          "name": "_entryFee",
          "type": "uint256"
        }
      ],
      "payable": false,
      "stateMutability": "nonpayable",
      "type": "constructor"
    },
    {
      "anonymous": false,
      "inputs": [
        {
          "indexed": false,
          "name": "_roundIndex",
          "type": "uint256"
        }
      ],
      "name": "RoundStarted",
      "type": "event"
    },
    {
      "anonymous": false,
      "inputs": [
        {
          "indexed": false,
          "name": "_roundIndex",
          "type": "uint256"
        },
        {
          "indexed": false,
          "name": "_submissionAddress",
          "type": "address"
        }
      ],
      "name": "SubmissionCreated",
      "type": "event"
    },
    {
      "anonymous": false,
      "inputs": [
        {
          "indexed": false,
          "name": "_submissionAddress",
          "type": "address"
        }
      ],
      "name": "RoundWinnerChosen",
      "type": "event"
    },
    {
      "constant": false,
      "inputs": [
        {
          "name": "_submissionAddress",
          "type": "address"
        }
      ],
      "name": "invokeSubmissionCreatedEvent",
      "outputs": [],
      "payable": false,
      "stateMutability": "nonpayable",
      "type": "function"
    },
    {
      "constant": false,
      "inputs": [
        {
          "name": "_submissionAddress",
          "type": "address"
        },
        {
          "name": "_author",
          "type": "address"
        }
      ],
      "name": "removeSubmission",
      "outputs": [
        {
          "name": "",
          "type": "bool"
        }
      ],
      "payable": false,
      "stateMutability": "nonpayable",
      "type": "function"
    },
    {
      "constant": true,
      "inputs": [
        {
          "name": "_sender",
          "type": "address"
        }
      ],
      "name": "isEntrant",
      "outputs": [
        {
          "name": "",
          "type": "bool"
        }
      ],
      "payable": false,
      "stateMutability": "view",
      "type": "function"
    },
    {
      "constant": true,
      "inputs": [],
      "name": "isOpen",
      "outputs": [
        {
          "name": "",
          "type": "bool"
        }
      ],
      "payable": false,
      "stateMutability": "view",
      "type": "function"
    },
    {
      "constant": true,
      "inputs": [],
      "name": "isInReview",
      "outputs": [
        {
          "name": "",
          "type": "bool"
        }
      ],
      "payable": false,
      "stateMutability": "view",
      "type": "function"
    },
    {
      "constant": true,
      "inputs": [],
      "name": "roundIsOpen",
      "outputs": [
        {
          "name": "",
          "type": "bool"
        }
      ],
      "payable": false,
      "stateMutability": "view",
      "type": "function"
    },
    {
      "constant": true,
      "inputs": [],
      "name": "getPlatform",
      "outputs": [
        {
          "name": "_platformAddress",
          "type": "address"
        }
      ],
      "payable": false,
      "stateMutability": "view",
      "type": "function"
    },
    {
      "constant": true,
      "inputs": [],
      "name": "getExternalAddress",
      "outputs": [
        {
          "name": "_externalAddress",
          "type": "bytes"
        }
      ],
      "payable": false,
      "stateMutability": "view",
      "type": "function"
    },
    {
      "constant": true,
      "inputs": [],
      "name": "currentRound",
      "outputs": [
        {
          "name": "_currentRound",
          "type": "uint256"
        },
        {
          "name": "_currentRoundAddress",
          "type": "address"
        }
      ],
      "payable": false,
      "stateMutability": "view",
      "type": "function"
    },
    {
      "constant": true,
      "inputs": [],
      "name": "mySubmissions",
      "outputs": [
        {
          "name": "",
          "type": "address[]"
        }
      ],
      "payable": false,
      "stateMutability": "view",
      "type": "function"
    },
    {
      "constant": true,
      "inputs": [],
      "name": "submissionCount",
      "outputs": [
        {
          "name": "_submissionCount",
          "type": "uint256"
        }
      ],
      "payable": false,
      "stateMutability": "view",
      "type": "function"
    },
    {
      "constant": true,
      "inputs": [],
      "name": "entrantCount",
      "outputs": [
        {
          "name": "_entrantCount",
          "type": "uint256"
        }
      ],
      "payable": false,
      "stateMutability": "view",
      "type": "function"
    },
    {
      "constant": false,
      "inputs": [
        {
          "name": "_title",
          "type": "string"
        }
      ],
      "name": "setTitle",
      "outputs": [],
      "payable": false,
      "stateMutability": "nonpayable",
      "type": "function"
    },
    {
      "constant": false,
      "inputs": [
        {
          "name": "_externalAddress",
          "type": "bytes"
        }
      ],
      "name": "setExternalAddress",
      "outputs": [],
      "payable": false,
      "stateMutability": "nonpayable",
      "type": "function"
    },
    {
      "constant": false,
      "inputs": [
        {
          "name": "_entryFee",
          "type": "uint256"
        }
      ],
      "name": "setEntryFee",
      "outputs": [],
      "payable": false,
      "stateMutability": "nonpayable",
      "type": "function"
    },
    {
      "constant": false,
      "inputs": [
        {
          "name": "_newMaxRounds",
          "type": "uint256"
        }
      ],
      "name": "setNumberOfRounds",
      "outputs": [],
      "payable": false,
      "stateMutability": "nonpayable",
      "type": "function"
    },
    {
      "constant": false,
      "inputs": [
        {
          "name": "_category",
          "type": "string"
        }
      ],
      "name": "setCategory",
      "outputs": [],
      "payable": false,
      "stateMutability": "nonpayable",
      "type": "function"
    },
    {
      "constant": false,
      "inputs": [
        {
          "name": "_submissionAddress",
          "type": "address"
        }
      ],
      "name": "chooseWinner",
      "outputs": [],
      "payable": false,
      "stateMutability": "nonpayable",
      "type": "function"
    },
    {
      "constant": false,
      "inputs": [
        {
          "name": "_bountyMTX",
          "type": "uint256"
        }
      ],
      "name": "createRound",
      "outputs": [
        {
          "name": "_roundAddress",
          "type": "address"
        }
      ],
      "payable": false,
      "stateMutability": "nonpayable",
      "type": "function"
    },
    {
      "constant": false,
      "inputs": [
        {
          "name": "_duration",
          "type": "uint256"
        },
        {
          "name": "_reviewPeriod",
          "type": "uint256"
        }
      ],
      "name": "startRound",
      "outputs": [],
      "payable": false,
      "stateMutability": "nonpayable",
      "type": "function"
    },
    {
      "constant": false,
      "inputs": [
        {
          "name": "_entrantAddress",
          "type": "address"
        }
      ],
      "name": "enterUserInTournament",
      "outputs": [
        {
          "name": "_success",
          "type": "bool"
        }
      ],
      "payable": false,
      "stateMutability": "nonpayable",
      "type": "function"
    },
    {
      "constant": true,
      "inputs": [],
      "name": "getEntryFee",
      "outputs": [
        {
          "name": "",
          "type": "uint256"
        }
      ],
      "payable": false,
      "stateMutability": "view",
      "type": "function"
    },
    {
      "constant": false,
      "inputs": [],
      "name": "collectEntryFee",
      "outputs": [
        {
          "name": "",
          "type": "bool"
        }
      ],
      "payable": false,
      "stateMutability": "nonpayable",
      "type": "function"
    },
    {
      "constant": false,
      "inputs": [
        {
          "name": "_title",
          "type": "string"
        },
        {
          "name": "_owner",
          "type": "address"
        },
        {
          "name": "_externalAddress",
          "type": "bytes"
        },
        {
          "name": "_contributors",
          "type": "address[]"
        },
        {
          "name": "_references",
          "type": "address[]"
        },
        {
          "name": "_publicallyAccessible",
          "type": "bool"
        }
      ],
      "name": "createSubmission",
      "outputs": [
        {
          "name": "_submissionAddress",
          "type": "address"
        }
      ],
      "payable": false,
      "stateMutability": "nonpayable",
      "type": "function"
    }
  ],
  "bytecode": "0x60606040526003600d55600e805460ff19169055600060125534156200002457600080fd5b604051620029be380380620029be83398101604052808051919060200180519190602001805191906020018051919060200180518201919060200180518201919060200180518201919060200180519190602001805160008054600160a060020a03191633600160a060020a0390811691909117909155909250871615159050620000ae57600080fd5b60008211620000bc57600080fd5b600160a060020a0387161515620000d257600080fd5b60018054600160a060020a03808c16600160a060020a031992831617909255600280548b8416908316179055600380548a84169083161790554260075560008054928916929091169190911790556006858051620001359291602001906200017e565b5060048480516200014b9291602001906200017e565b506005838051620001619291602001906200017e565b50600f829055601091909155601155506200022395505050505050565b828054600181600116156101000203166002900490600052602060002090601f016020900481019282601f10620001c157805160ff1916838001178555620001f1565b82800160010185558215620001f1579182015b82811115620001f1578251825591602001919060010190620001d4565b50620001ff92915062000203565b5090565b6200022091905b80821115620001ff57600081556001016200020a565b90565b61278b80620002336000396000f3006060604052600436106102245763ffffffff7c0100000000000000000000000000000000000000000000000000000000600035041663072ea61c8114610229578063114765991461024e5780631faf969b1461027557806328d576d71461028857806329cc545e146102b45780632d830cd5146102f05780632f54bf6e146103085780632fc1f190146103345780633b249810146103475780633c7bb9131461035a5780633da1bba114610386578063447411f31461039c5780634644c51b146103af57806347535d7b146103db57806348f73095146103ee5780634a79d50c1461040157806352c01fab1461048b5780635ace2914146104b75780635c11a3e4146105085780636ec02be91461051b5780636fe564201461052e57806372910be0146105415780637af52ade14610592578063893d20e8146105a557806389f3beb6146105b85780638a19c8bc146105cb5780638c1fc0bb1461060c5780638c65c81f146106385780638da5cb5b1461064e578063a68e8a8614610661578063a968c4b914610674578063aa53d504146106a6578063ab88ef68146106b9578063c1a28b38146106cc578063c39643721461071d578063c556123614610736578063dbe55e5614610749578063e139a20c1461075c578063e586a4f0146107c2578063e70347bb146107d5578063eb770d0c146107e8578063ee5ba56c146107fe578063ef430aa614610934578063f1653f6e14610947578063f2fde38b1461095a575b600080fd5b341561023457600080fd5b61023c610986565b60405190815260200160405180910390f35b341561025957600080fd5b61026161098c565b604051901515815260200160405180910390f35b341561028057600080fd5b61023c610995565b341561029357600080fd5b61026173ffffffffffffffffffffffffffffffffffffffff6004351661099b565b34156102bf57600080fd5b6102c7610c42565b60405173ffffffffffffffffffffffffffffffffffffffff909116815260200160405180910390f35b34156102fb57600080fd5b610306600435610c5e565b005b341561031357600080fd5b61026173ffffffffffffffffffffffffffffffffffffffff60043516610cc1565b341561033f57600080fd5b6102c7610ce2565b341561035257600080fd5b61023c610cff565b341561036557600080fd5b61030673ffffffffffffffffffffffffffffffffffffffff60043516610d05565b341561039157600080fd5b6102c7600435610f83565b34156103a757600080fd5b61023c611369565b34156103ba57600080fd5b61030673ffffffffffffffffffffffffffffffffffffffff6004351661136f565b34156103e657600080fd5b6102616113c9565b34156103f957600080fd5b61023c6113d2565b341561040c57600080fd5b6104146113d8565b60405160208082528190810183818151815260200191508051906020019080838360005b83811015610450578082015183820152602001610438565b50505050905090810190601f16801561047d5780820380516001836020036101000a031916815260200191505b509250505060405180910390f35b341561049657600080fd5b61026173ffffffffffffffffffffffffffffffffffffffff60043516611476565b34156104c257600080fd5b61030660046024813581810190830135806020601f820181900481020160405190810160405281815292919060208401838380828437509496506114a195505050505050565b341561051357600080fd5b6104146114e0565b341561052657600080fd5b61023c611588565b341561053957600080fd5b6102c761158e565b341561054c57600080fd5b61030660046024813581810190830135806020601f820181900481020160405190810160405281815292919060208401838380828437509496506115aa95505050505050565b341561059d57600080fd5b6102616115e5565b34156105b057600080fd5b6102c76116f6565b34156105c357600080fd5b61023c611712565b34156105d657600080fd5b6105de611718565b60405191825273ffffffffffffffffffffffffffffffffffffffff1660208201526040908101905180910390f35b341561061757600080fd5b61026173ffffffffffffffffffffffffffffffffffffffff6004351661175b565b341561064357600080fd5b6102c7600435611770565b341561065957600080fd5b6102c76117a5565b341561066c57600080fd5b6102616117c1565b341561067f57600080fd5b61026173ffffffffffffffffffffffffffffffffffffffff600435811690602435166117ee565b34156106b157600080fd5b61023c611935565b34156106c457600080fd5b61023c61193b565b34156106d757600080fd5b61030660046024813581810190830135806020601f8201819004810201604051908101604052818152929190602084018383808284375094965061194195505050505050565b341561072857600080fd5b610306600435602435611969565b341561074157600080fd5b610261611a96565b341561075457600080fd5b6102c7611b47565b341561076757600080fd5b61076f611b63565b60405160208082528190810183818151815260200191508051906020019060200280838360005b838110156107ae578082015183820152602001610796565b505050509050019250505060405180910390f35b34156107cd57600080fd5b61023c611c1f565b34156107e057600080fd5b610414611c25565b34156107f357600080fd5b610306600435611c90565b341561080957600080fd5b6102c760046024813581810190830135806020601f8201819004810201604051908101604052818152929190602084018383808284378201915050505050509190803573ffffffffffffffffffffffffffffffffffffffff1690602001909190803590602001908201803590602001908080601f0160208091040260200160405190810160405281815292919060208401838380828437820191505050505050919080359060200190820180359060200190808060200260200160405190810160405280939291908181526020018383602002808284378201915050505050509190803590602001908201803590602001908080602002602001604051908101604052809392919081815260200183836020028082843750949650505050913515159150611cbd9050565b341561093f57600080fd5b61041461238e565b341561095257600080fd5b61023c6123f9565b341561096557600080fd5b61030673ffffffffffffffffffffffffffffffffffffffff600435166123ff565b60115481565b600e5460ff1681565b600d5481565b600154600090819081903373ffffffffffffffffffffffffffffffffffffffff9081169116146109ca57600080fd5b6109d26113c9565b15156109dd57600080fd5b73ffffffffffffffffffffffffffffffffffffffff841660009081526015602052604090205460ff16151560011415610a195760009250610c3b565b60025460115473ffffffffffffffffffffffffffffffffffffffff90911692508263dd62ed3e86306000604051602001526040517c010000000000000000000000000000000000000000000000000000000063ffffffff851602815273ffffffffffffffffffffffffffffffffffffffff928316600482015291166024820152604401602060405180830381600087803b1515610ab557600080fd5b6102c65a03f11515610ac657600080fd5b5050506040518051905010151515610add57600080fd5b8173ffffffffffffffffffffffffffffffffffffffff166323b872dd85306011546000604051602001526040517c010000000000000000000000000000000000000000000000000000000063ffffffff861602815273ffffffffffffffffffffffffffffffffffffffff93841660048201529190921660248201526044810191909152606401602060405180830381600087803b1515610b7c57600080fd5b6102c65a03f11515610b8d57600080fd5b50505060405180519150508015610c375773ffffffffffffffffffffffffffffffffffffffff84166000908152601560205260409020805460ff191660019081178255601154918101919091556016805490918101610bec8382612690565b50600091825260209091200180547fffffffffffffffffffffffff00000000000000000000000000000000000000001673ffffffffffffffffffffffffffffffffffffffff86161790555b8092505b5050919050565b60025473ffffffffffffffffffffffffffffffffffffffff1681565b6001543373ffffffffffffffffffffffffffffffffffffffff90811691161480610ca357506000543373ffffffffffffffffffffffffffffffffffffffff9081169116145b1515610cae57600080fd5b6009548111610cbc57600080fd5b600d55565b60005473ffffffffffffffffffffffffffffffffffffffff91821691161490565b60015473ffffffffffffffffffffffffffffffffffffffff165b90565b600b5481565b600980546000918291829182916000198101908110610d2057fe5b60009182526020909120015473ffffffffffffffffffffffffffffffffffffffff16935083630b299208866040517c010000000000000000000000000000000000000000000000000000000063ffffffff841602815273ffffffffffffffffffffffffffffffffffffffff9091166004820152602401600060405180830381600087803b1515610daf57600080fd5b6102c65a03f11515610dc057600080fd5b5050507f7a4f6edbca9ed97194ce723e574776da48cb8afcff0d96fb90a4ee76ffef4e5a8560405173ffffffffffffffffffffffffffffffffffffffff909116815260200160405180910390a1600d546009541415610f7c57610e216117c1565b1515610e2c57600080fd5b600e805460ff1916905560015473ffffffffffffffffffffffffffffffffffffffff9081169350841663f49bff7b6000604051602001526040518163ffffffff167c0100000000000000000000000000000000000000000000000000000000028152600401602060405180830381600087803b1515610eaa57600080fd5b6102c65a03f11515610ebb57600080fd5b505050604051805160095490935091505073ffffffffffffffffffffffffffffffffffffffff83166350912da1308388866040517c010000000000000000000000000000000000000000000000000000000063ffffffff871602815273ffffffffffffffffffffffffffffffffffffffff94851660048201526024810193909352921660448201526064810191909152608401600060405180830381600087803b1515610f6757600080fd5b6102c65a03f11515610f7857600080fd5b5050505b5050505050565b600354600254600d5460095460009373ffffffffffffffffffffffffffffffffffffffff90811693169184918291829160010114156111425760105460015490925073ffffffffffffffffffffffffffffffffffffffff80871691637f12d52a91163033866000604051602001526040517c010000000000000000000000000000000000000000000000000000000063ffffffff871602815273ffffffffffffffffffffffffffffffffffffffff94851660048201529284166024840152921660448201526064810191909152608401602060405180830381600087803b151561106c57600080fd5b6102c65a03f1151561107d57600080fd5b50505060405180519050925060006010819055508373ffffffffffffffffffffffffffffffffffffffff1663a9059cbb84846000604051602001526040517c010000000000000000000000000000000000000000000000000000000063ffffffff851602815273ffffffffffffffffffffffffffffffffffffffff90921660048301526024820152604401602060405180830381600087803b151561112157600080fd5b6102c65a03f1151561113257600080fd5b50505060405180519050506112cf565b601054611155908863ffffffff61249016565b60015490915073ffffffffffffffffffffffffffffffffffffffff80871691637f12d52a911630338b6000604051602001526040517c010000000000000000000000000000000000000000000000000000000063ffffffff871602815273ffffffffffffffffffffffffffffffffffffffff94851660048201529284166024840152921660448201526064810191909152608401602060405180830381600087803b151561120257600080fd5b6102c65a03f1151561121357600080fd5b5050506040518051601083905593505073ffffffffffffffffffffffffffffffffffffffff841663a9059cbb84896000604051602001526040517c010000000000000000000000000000000000000000000000000000000063ffffffff851602815273ffffffffffffffffffffffffffffffffffffffff90921660048301526024820152604401602060405180830381600087803b15156112b357600080fd5b6102c65a03f115156112c457600080fd5b505050604051805150505b73ffffffffffffffffffffffffffffffffffffffff83166000908152600a60205260409020805460ff1916600190811790915560098054909181016113148382612690565b50600091825260209091200180547fffffffffffffffffffffffff00000000000000000000000000000000000000001673ffffffffffffffffffffffffffffffffffffffff8516179055509095945050505050565b60085481565b6009547f5fbb3d346317d5ecdb86412d4c69c7503ff4dbed1eccd4cb6290453ea0b1a32290600019018260405191825273ffffffffffffffffffffffffffffffffffffffff1660208201526040908101905180910390a150565b600e5460ff1690565b600c5481565b60048054600181600116156101000203166002900480601f01602080910402602001604051908101604052809291908181526020018280546001816001161561010002031660029004801561146e5780601f106114435761010080835404028352916020019161146e565b820191906000526020600020905b81548152906001019060200180831161145157829003601f168201915b505050505081565b73ffffffffffffffffffffffffffffffffffffffff1660009081526015602052604090205460ff1690565b6000543373ffffffffffffffffffffffffffffffffffffffff9081169116146114c957600080fd5b60058180516114dc9291602001906126b9565b5050565b6114e8612733565b60058054600181600116156101000203166002900480601f01602080910402602001604051908101604052809291908181526020018280546001816001161561010002031660029004801561157e5780601f106115535761010080835404028352916020019161157e565b820191906000526020600020905b81548152906001019060200180831161156157829003601f168201915b5050505050905090565b60125490565b60035473ffffffffffffffffffffffffffffffffffffffff1681565b6000543373ffffffffffffffffffffffffffffffffffffffff9081169116146115d257600080fd5b60048180516114dc9291602001906126b9565b60025473ffffffffffffffffffffffffffffffffffffffff3381811660009081526015602052604080822060010154919493909316928492849263a9059cbb92859051602001526040517c010000000000000000000000000000000000000000000000000000000063ffffffff851602815273ffffffffffffffffffffffffffffffffffffffff90921660048301526024820152604401602060405180830381600087803b151561169557600080fd5b6102c65a03f115156116a657600080fd5b505050604051805191505080156116ec5773ffffffffffffffffffffffffffffffffffffffff3316600090815260156020526040812060019081019190915592506116f1565b600092505b505090565b60005473ffffffffffffffffffffffffffffffffffffffff1690565b60165490565b60098054600091829190600019820182811061173057fe5b60009182526020909120015490925073ffffffffffffffffffffffffffffffffffffffff1690509091565b600a6020526000908152604090205460ff1681565b600980548290811061177e57fe5b60009182526020909120015473ffffffffffffffffffffffffffffffffffffffff16905081565b60005473ffffffffffffffffffffffffffffffffffffffff1681565b6000600c5442101580156117db5750600b54600c54014211155b80156117e95750600e5460ff165b905090565b6001546000903373ffffffffffffffffffffffffffffffffffffffff90811691161461181957600080fd5b73ffffffffffffffffffffffffffffffffffffffff80831660009081526014602090815260408083209387168352929052205460ff161561192b5760125461186890600163ffffffff61249016565b60125573ffffffffffffffffffffffffffffffffffffffff808316600090815260136020908152604080832060148352818420948816845293909152902060010154815481106118b457fe5b6000918252602080832090910180547fffffffffffffffffffffffff000000000000000000000000000000000000000016905573ffffffffffffffffffffffffffffffffffffffff8481168352601482526040808420918716845291528120805460ff19168155600190810191909155905061192f565b5060005b92915050565b600f5481565b60105481565b6000543373ffffffffffffffffffffffffffffffffffffffff90811691161461022457600080fd5b6009805460009190600019810190811061197f57fe5b600091825260209091200154600e5473ffffffffffffffffffffffffffffffffffffffff909116915060ff1615156119b9576119b96124a2565b600d5460095414156119d157428301600c55600b8290555b8073ffffffffffffffffffffffffffffffffffffffff16635a7d5f5084846040517c010000000000000000000000000000000000000000000000000000000063ffffffff851602815260048101929092526024820152604401600060405180830381600087803b1515611a4357600080fd5b6102c65a03f11515611a5457600080fd5b50506009547f33a701182892fd888ed152ca2ac23771a32e814469b7cd255965471e1af3a65991506000190160405190815260200160405180910390a1505050565b6009805460009182916000198101908110611aad57fe5b600091825260208220015473ffffffffffffffffffffffffffffffffffffffff16915081906347535d7b90604051602001526040518163ffffffff167c0100000000000000000000000000000000000000000000000000000000028152600401602060405180830381600087803b1515611b2657600080fd5b6102c65a03f11515611b3757600080fd5b50505060405180519250505b5090565b60015473ffffffffffffffffffffffffffffffffffffffff1681565b611b6b612733565b611b73612733565b601360003373ffffffffffffffffffffffffffffffffffffffff1673ffffffffffffffffffffffffffffffffffffffff168152602001908152602001600020805480602002602001604051908101604052809291908181526020018280548015611c1357602002820191906000526020600020905b815473ffffffffffffffffffffffffffffffffffffffff168152600190910190602001808311611be8575b50939695505050505050565b60115490565b60058054600181600116156101000203166002900480601f01602080910402602001604051908101604052809291908181526020018280546001816001161561010002031660029004801561146e5780601f106114435761010080835404028352916020019161146e565b6000543373ffffffffffffffffffffffffffffffffffffffff908116911614611cb857600080fd5b601155565b73ffffffffffffffffffffffffffffffffffffffff33166000908152601560205260408120548190819060ff16801515611cf657600080fd5b600154339073ffffffffffffffffffffffffffffffffffffffff168063532311c4836000604051602001526040517c010000000000000000000000000000000000000000000000000000000063ffffffff841602815273ffffffffffffffffffffffffffffffffffffffff9091166004820152602401602060405180830381600087803b1515611d8557600080fd5b6102c65a03f11515611d9657600080fd5b505050604051805190501515611dab57600080fd5b611db36113c9565b1515611dbe57600080fd5b60015473ffffffffffffffffffffffffffffffffffffffff16636a44e43d8c6000604051602001526040517c010000000000000000000000000000000000000000000000000000000063ffffffff841602815273ffffffffffffffffffffffffffffffffffffffff9091166004820152602401602060405180830381600087803b1515611e4a57600080fd5b6102c65a03f11515611e5b57600080fd5b505050604051805195505073ffffffffffffffffffffffffffffffffffffffff85161515611e8857600080fd5b600980546000198101908110611e9a57fe5b906000526020600020900160009054906101000a900473ffffffffffffffffffffffffffffffffffffffff1673ffffffffffffffffffffffffffffffffffffffff1663f3eda8e88d8d888e8d8f8e6000604051602001526040517c010000000000000000000000000000000000000000000000000000000063ffffffff8a1602815273ffffffffffffffffffffffffffffffffffffffff80881660248301528616604482015281151560c482015260e0600482019081529081906064810190608481019060a481019060e4018c818151815260200191508051906020019080838360005b83811015611f96578082015183820152602001611f7e565b50505050905090810190601f168015611fc35780820380516001836020036101000a031916815260200191505b50858103845289818151815260200191508051906020019080838360005b83811015611ff9578082015183820152602001611fe1565b50505050905090810190601f1680156120265780820380516001836020036101000a031916815260200191505b50858103835288818151815260200191508051906020019060200280838360005b8381101561205f578082015183820152602001612047565b50505050905001858103825287818151815260200191508051906020019060200280838360005b8381101561209e578082015183820152602001612086565b505050509050019b505050505050505050505050602060405180830381600087803b15156120cb57600080fd5b6102c65a03f115156120dc57600080fd5b505050604051805160015490955073ffffffffffffffffffffffffffffffffffffffff169050638c593a8c858a6000604051602001526040518363ffffffff167c0100000000000000000000000000000000000000000000000000000000028152600401808373ffffffffffffffffffffffffffffffffffffffff1673ffffffffffffffffffffffffffffffffffffffff16815260200180602001828103825283818151815260200191508051906020019060200280838360005b838110156121af578082015183820152602001612197565b505050509050019350505050602060405180830381600087803b15156121d457600080fd5b6102c65a03f115156121e557600080fd5b5050506040518051505060125461220390600163ffffffff61267a16565b6012556040805190810160409081526001825273ffffffffffffffffffffffffffffffffffffffff3381166000818152601360209081528482205481870152918152601482528381209289168152919052208151815460ff1916901515178155602082015160019182015573ffffffffffffffffffffffffffffffffffffffff3316600090815260136020526040902080549092509081016122a58382612690565b50600091825260209091200180547fffffffffffffffffffffffff00000000000000000000000000000000000000001673ffffffffffffffffffffffffffffffffffffffff868116919091179091556001541663ab9583d933866040517c010000000000000000000000000000000000000000000000000000000063ffffffff851602815273ffffffffffffffffffffffffffffffffffffffff928316600482015291166024820152604401600060405180830381600087803b151561236a57600080fd5b6102c65a03f1151561237b57600080fd5b50949d9c50505050505050505050505050565b60068054600181600116156101000203166002900480601f01602080910402602001604051908101604052809291908181526020018280546001816001161561010002031660029004801561146e5780601f106114435761010080835404028352916020019161146e565b60075481565b6000543373ffffffffffffffffffffffffffffffffffffffff90811691161461242757600080fd5b73ffffffffffffffffffffffffffffffffffffffff8116151561244957600080fd5b600080547fffffffffffffffffffffffff00000000000000000000000000000000000000001673ffffffffffffffffffffffffffffffffffffffff92909216919091179055565b60008282111561249c57fe5b50900390565b600e805460ff1916600190811790915554600054600f5460115473ffffffffffffffffffffffffffffffffffffffff938416938493635490904b939116913091600491600591906040517c010000000000000000000000000000000000000000000000000000000063ffffffff891602815273ffffffffffffffffffffffffffffffffffffffff8088166004830190815290871660248301526084820184905260a4820183905260c06044830190815286546002600019610100600184161502019091160460c4840181905291929091606482019160e40190889080156125ca5780601f1061259f576101008083540402835291602001916125ca565b820191906000526020600020905b8154815290600101906020018083116125ad57829003601f168201915b505083810382528654600260001961010060018416150201909116048082526020909101908790801561263e5780601f106126135761010080835404028352916020019161263e565b820191906000526020600020905b81548152906001019060200180831161262157829003601f168201915b505098505050505050505050600060405180830381600087803b151561266357600080fd5b6102c65a03f1151561267457600080fd5b50505050565b60008282018381101561268957fe5b9392505050565b8154818355818115116126b4576000838152602090206126b4918101908301612745565b505050565b828054600181600116156101000203166002900490600052602060002090601f016020900481019282601f106126fa57805160ff1916838001178555612727565b82800160010185558215612727579182015b8281111561272757825182559160200191906001019061270c565b50611b43929150612745565b60206040519081016040526000815290565b610cfc91905b80821115611b43576000815560010161274b5600a165627a7a723058201a913addeccbf56f0af42628ad1bccd71bd0a3fc5a59deb5dd16eeed6803eb2b0029",
  "source": "pragma solidity ^0.4.18;\n\nimport '../libraries/strings/strings.sol';\nimport '../libraries/math/SafeMath.sol';\nimport '../interfaces/IMatryxPlatform.sol';\nimport '../interfaces/IMatryxTournament.sol';\nimport '../interfaces/factories/IMatryxRoundFactory.sol';\nimport '../interfaces/IMatryxRound.sol';\nimport '../interfaces/IMatryxToken.sol';\nimport './Ownable.sol';\n\n/// @title Tournament - The Matryx tournament.\n/// @author Max Howard - <max@nanome.ai>, Sam Hessenauer - <sam@nanome.ai>\ncontract MatryxTournament is Ownable, IMatryxTournament {\n    using SafeMath for uint256;\n    using strings for *;\n    \n    // TODO: condense and put in structs\n    //Platform identification\n    address public platformAddress;\n    address public matryxTokenAddress;\n    address public matryxRoundFactoryAddress;\n\n    //Tournament identification\n    string public title;\n    bytes public externalAddress;\n    string public category;\n\n    // Timing and State\n    uint256 public timeCreated;\n    uint256 public tournamentOpenedTime;\n    address[] public rounds;\n    mapping(address=>bool) public isRound;\n    uint256 public reviewPeriod;\n    uint256 public tournamentClosedTime;\n    uint public maxRounds = 3;\n    bool public tournamentOpen = false;\n\n    // Reward and fee\n    uint256 public Bounty;\n    uint256 public BountyLeft;\n    uint256 public entryFee;\n\n    // address roundDelegate;\n    // bytes4 fnSelector_chooseWinner = bytes4(keccak256(\"chooseWinner(address)\"));\n    // bytes4 fnSelector_createRound = bytes4(keccak256(\"createRound(uint256)\"));\n    // bytes4 fnSelector_startRound = bytes4(keccak256(\"startRound(uint256)\"));\n\n    // TODO: Automatic round creation mechanism\n\n    // Submission tracking\n    uint256 numberOfSubmissions = 0;\n    mapping(address=>address[]) private entrantToSubmissions;\n    mapping(address=>mapping(address=>uint256_optional)) private entrantToSubmissionToSubmissionIndex;\n    mapping(address=>uint256_optional) private addressToIsEntrant;\n    address[] private allEntrants;\n\n    function MatryxTournament(address _platformAddress, address _matryxTokenAddress, address _matryxRoundFactoryAddress, address _owner, string _category, string _tournamentTitle, bytes _externalAddress, uint256 _Bounty, uint256 _entryFee) public {\n        //Clean inputs\n        require(_owner != 0x0);\n        //require(!_tournamentName.toSlice().empty());\n        require(_Bounty > 0);\n        require(_matryxRoundFactoryAddress != 0x0);\n        \n        platformAddress = _platformAddress;\n        matryxTokenAddress = _matryxTokenAddress;\n        matryxRoundFactoryAddress = _matryxRoundFactoryAddress;\n\n        timeCreated = now;\n        // Identification\n        owner = _owner;\n        category = _category;\n        title = _tournamentTitle;\n        externalAddress = _externalAddress;\n        // Reward and fee\n        Bounty = _Bounty;\n        BountyLeft = _Bounty;\n        entryFee = _entryFee;\n\n        // roundDelegate = IMatryxPlatform(platformAddress).getRoundLibAddress();\n    }\n\n    /*\n     * Structs\n     */\n\n    struct uint256_optional\n    {\n        bool exists;\n        uint256 value;\n    }\n\n    struct SubmissionLocation\n    {\n        uint256 roundIndex;\n        uint256 submissionIndex;\n    }\n\n    /*\n     * Events\n     */\n\n    event RoundStarted(uint256 _roundIndex);\n    // Fired at the end of every round, one time per submission created in that round\n    event SubmissionCreated(uint256 _roundIndex, address _submissionAddress);\n    event RoundWinnerChosen(address _submissionAddress);\n\n    /// @dev Allows rounds to invoke SubmissionCreated events on this tournament.\n    /// @param _submissionAddress Address of the submission.\n    function invokeSubmissionCreatedEvent(address _submissionAddress) public\n    {\n        SubmissionCreated(rounds.length-1, _submissionAddress);\n    }\n\n    /*\n     * Modifiers\n     */\n\n    /// @dev Requires the function caller to be the platform.\n    modifier onlyPlatform()\n    {\n        require(msg.sender == platformAddress);\n        _;\n    }\n\n    modifier onlyRound()\n    {\n        require(isRound[msg.sender]);\n        _;\n    }\n\n    modifier onlySubmission(address _submissionAddress, address _author)\n    {\n        // If the submission does not exist,\n        // the address of the submission we return will not be msg.sender\n        // It will either be \n        // 1) The first submission, or\n        // 2) all 0s from having deleted it previously.\n        uint256 indexOfSubmission = entrantToSubmissionToSubmissionIndex[_author][_submissionAddress].value;\n        address submissionAddress = entrantToSubmissions[_author][indexOfSubmission];\n        require(_submissionAddress == msg.sender);\n        _;\n    }\n\n    modifier onlyPeerLinked(address _sender)\n    {\n        IMatryxPlatform platform = IMatryxPlatform(platformAddress);\n        require(platform.hasPeer(_sender));\n        _;\n    }\n\n    /// @dev Requires the function caller to be an entrant.\n    modifier onlyEntrant()\n    {\n        bool senderIsEntrant = addressToIsEntrant[msg.sender].exists;\n        require(senderIsEntrant);\n        _;\n    }\n\n    /// @dev Requires the function caller to be the platform or the owner of this tournament\n    modifier platformOrOwner()\n    {\n        require((msg.sender == platformAddress)||(msg.sender == owner));\n        _;\n    }\n\n    modifier whileTournamentOpen()\n    {\n        require(isOpen());\n        _;\n    }\n\n    // /// @dev Requires the tournament to be open.\n    // modifier duringReviewPeriod()\n    // {\n    //     // TODO: Finish me!\n    //     require(isInReview());\n    //     _;\n    // }\n\n    modifier whileRoundsLeft()\n    {\n        require(rounds.length < maxRounds);\n        _;\n    }\n\n    modifier whileBountyLeft(uint256 _nextRoundBounty)\n    {\n        require(BountyLeft.sub(_nextRoundBounty) >= 0);\n        _;\n    }\n\n    /*\n    * State Maintenance Methods\n    */\n\n    function removeSubmission(address _submissionAddress, address _author) public onlyPlatform returns (bool)\n    {\n        if(entrantToSubmissionToSubmissionIndex[_author][_submissionAddress].exists)\n        {\n            numberOfSubmissions = numberOfSubmissions.sub(1);\n            delete entrantToSubmissions[_author][entrantToSubmissionToSubmissionIndex[_author][_submissionAddress].value];\n            delete entrantToSubmissionToSubmissionIndex[_author][_submissionAddress];\n            return true;\n        }\n\n        return false;\n    }\n\n    /*\n     * Access Control Methods\n     */\n\n    /// @dev Returns whether or not the sender is an entrant in this tournament\n    /// @param _sender Explicit sender address.\n    /// @return Whether or not the sender is an entrant in this tournament.\n    function isEntrant(address _sender) public view returns (bool)\n    {\n        return addressToIsEntrant[_sender].exists;\n    }\n\n    /// @dev Returns true if the tournament is open.\n    /// @return Whether or not the tournament is open.\n    function isOpen() public view returns (bool)\n    {\n        return tournamentOpen;\n    }\n\n    function isInReview() public view returns (bool)\n    {\n        return (now >= tournamentClosedTime) && (now <= tournamentClosedTime + reviewPeriod) && tournamentOpen;\n    }\n\n    /// @dev Returns whether or not a round of this tournament is open.\n    /// @return _roundOpen Whether or not a round is open on this tournament.\n    function roundIsOpen() public constant returns (bool)\n    {\n        IMatryxRound round = IMatryxRound(rounds[rounds.length-1]);\n        return round.isOpen();\n    }\n\n    /*\n     * Getter Methods\n     */\n\n     function getPlatform() public view returns (address _platformAddress)\n     {\n        return platformAddress;\n     }\n\n    /// @dev Returns the external address of the tournament.\n    /// @return _externalAddress Off-chain content hash of tournament details (ipfs hash)\n    function getExternalAddress() public view returns (bytes _externalAddress)\n    {\n        return externalAddress;\n    }\n\n    /// @dev Returns the current round number.\n    /// @return _currentRound Number of the current round.\n    function currentRound() public constant returns (uint256 _currentRound, address _currentRoundAddress)\n    {\n        return (rounds.length, rounds[rounds.length-1]);\n    }\n\n    /// @dev Returns all of the sender's submissions to this tournament.\n    /// @return (_roundIndices[], _submissionIndices[]) Locations of the sender's submissions.\n    function mySubmissions() public view returns (address[])\n    {\n        address[] memory _mySubmissions = entrantToSubmissions[msg.sender];\n        return _mySubmissions;\n    }\n\n    /// @dev Returns the number of submissions made to this tournament.\n    /// @return _submissionCount Number of submissions made to this tournament.\n    function submissionCount() public view returns (uint256 _submissionCount)\n    {\n        return numberOfSubmissions;\n    }\n\n    function entrantCount() public view returns (uint256 _entrantCount)\n    {\n        return allEntrants.length;\n    }\n\n    /*\n     * Setter Methods\n     */\n\n    function setTitle(string _title) public onlyOwner\n    {\n        title = _title;\n    }\n\n    function setExternalAddress(bytes _externalAddress) public onlyOwner\n    {\n        externalAddress = _externalAddress;\n    }\n\n    function setEntryFee(uint256 _entryFee) public onlyOwner\n    {\n        entryFee = _entryFee;\n    }\n\n    /// @dev Set the maximum number of rounds for the tournament.\n    /// @param _newMaxRounds New maximum number of rounds possible for this tournament.\n    function setNumberOfRounds(uint256 _newMaxRounds) public platformOrOwner\n    {\n        require(_newMaxRounds > rounds.length);\n        maxRounds = _newMaxRounds;\n    }\n\n    function setCategory(string _category) public onlyOwner\n    {\n        // if(!category.toSlice().empty())\n        // {\n        //     revert();\n        // }\n        revert();\n    }\n\n    /*\n     * Tournament Admin Methods\n     */\n\n    /// @dev Chooses the winner for the round. If this is the last round, closes the tournament.\n    /// @param _submissionAddress Address of the winning submission\n    function chooseWinner(address _submissionAddress) public\n    {\n        // TODO: Implement popular vote default winner chosen to avoid\n        // locking up MTX in this tournament (would happen if the tournament\n        // poser tried to choose a winner after the review period ended).\n        IMatryxRound round = IMatryxRound(rounds[rounds.length-1]);\n\n        // End the round.\n        round.chooseWinningSubmission(_submissionAddress);\n        RoundWinnerChosen(_submissionAddress);\n\n        // Conditionally end the tournament\n        if(rounds.length == maxRounds)\n        {\n            require(isInReview());\n            tournamentOpen = false;\n\n            IMatryxPlatform platform = IMatryxPlatform(platformAddress);\n            uint256 bounty = round.getBounty();\n            uint256 roundNumber = rounds.length;\n            platform.invokeTournamentClosedEvent(address(this), roundNumber, _submissionAddress, bounty);\n        }\n    }\n\n    /// @dev Creates a new round.\n    /// @return The new round's address.\n    function createRound(uint256 _bountyMTX) public returns (address _roundAddress) \n    {\n        IMatryxRoundFactory roundFactory = IMatryxRoundFactory(matryxRoundFactoryAddress);\n        IMatryxToken matryxToken = IMatryxToken(matryxTokenAddress);\n        address newRoundAddress;\n\n        if(rounds.length+1 == maxRounds)\n        {\n            uint256 lastBounty = BountyLeft;\n            newRoundAddress = roundFactory.createRound(platformAddress, this, msg.sender, BountyLeft);\n            BountyLeft = 0;\n            // Transfer the round bounty to the round.\n            matryxToken.transfer(newRoundAddress, lastBounty);\n        }\n        else\n        {\n            uint256 remainingBountyAfterRoundCreated = BountyLeft.sub(_bountyMTX);\n            newRoundAddress = roundFactory.createRound(platformAddress, this, msg.sender, _bountyMTX);\n            BountyLeft = remainingBountyAfterRoundCreated;\n            // Transfer the round bounty to the round.\n            matryxToken.transfer(newRoundAddress, _bountyMTX);\n        }\n        \n        isRound[newRoundAddress] = true;\n        rounds.push(newRoundAddress);\n        return newRoundAddress;\n    }\n\n    /// @dev Opens this tournament up to submissions; called by startRound.\n    function openTournament() internal\n    {\n        tournamentOpen = true;\n        IMatryxPlatform platform = IMatryxPlatform(platformAddress);\n        platform.invokeTournamentOpenedEvent(owner, this, title, externalAddress, Bounty, entryFee);\n    }\n\n    /// @dev Starts the latest round.\n    /// @param _duration Duration of the round in seconds.\n    function startRound(uint256 _duration, uint256 _reviewPeriod) public\n    {\n        IMatryxRound round = IMatryxRound(rounds[rounds.length-1]);\n        \n        if(!tournamentOpen)\n        {\n            openTournament();\n        }\n\n        if(rounds.length == maxRounds)\n        {\n            tournamentClosedTime = now + _duration;\n            reviewPeriod = _reviewPeriod;\n        }\n        \n        round.Start(_duration, _reviewPeriod);\n        RoundStarted(rounds.length-1);\n    }\n\n    /*\n     * Entrant Methods\n     */\n\n    /// @dev Enters the user into the tournament.\n    /// @param _entrantAddress Address of the user to enter.\n    /// @return success Whether or not the user was entered successfully.\n    function enterUserInTournament(address _entrantAddress) public onlyPlatform whileTournamentOpen returns (bool _success)\n    {\n        if(addressToIsEntrant[_entrantAddress].exists == true)\n        {\n            return false;\n        }\n\n        IMatryxToken matryxToken = IMatryxToken(matryxTokenAddress);\n        require(matryxToken.allowance(_entrantAddress, this) >= entryFee);\n        bool transferSuccess = matryxToken.transferFrom(_entrantAddress, this, entryFee);\n\n        if(transferSuccess)\n        {\n            // Finally, change the tournament's state to reflect the user entering.\n            addressToIsEntrant[_entrantAddress].exists = true;\n            addressToIsEntrant[_entrantAddress].value = entryFee;\n            allEntrants.push(_entrantAddress);\n        }\n\n        return transferSuccess;\n    }\n\n    /// @dev Returns the fee in MTX to be payed by a prospective entrant.\n    /// @return Entry fee for this tournament.\n    function getEntryFee() public view returns (uint256)\n    {\n        return entryFee;\n    }\n\n    function collectEntryFee() public returns (bool)\n    {\n        IMatryxToken matryxToken = IMatryxToken(matryxTokenAddress);\n        bool success = matryxToken.transfer(msg.sender, addressToIsEntrant[msg.sender].value);\n        if(success)\n        {\n            addressToIsEntrant[msg.sender].value = 0;\n            return true;\n        }\n\n        return false;\n    }\n\n    function createSubmission(string _title, address _owner, bytes _externalAddress, address[] _contributors, address[] _references, bool _publicallyAccessible) public onlyEntrant onlyPeerLinked(msg.sender) whileTournamentOpen returns (address _submissionAddress)\n    {\n        // This check is critical for MatryxPeer.\n        address peerAddress = IMatryxPlatform(platformAddress).peerAddress(_owner);\n        require(peerAddress != 0x0);\n\n        address submissionAddress = IMatryxRound(rounds[rounds.length-1]).createSubmission(_title, _owner, peerAddress, _externalAddress, _references, _contributors, _publicallyAccessible);\n        // Send out reference requests to the authors of other submissions\n        IMatryxPlatform(platformAddress).handleReferenceRequestsForSubmission(submissionAddress, _references);\n\n        numberOfSubmissions = numberOfSubmissions.add(1);\n        entrantToSubmissionToSubmissionIndex[msg.sender][submissionAddress] = uint256_optional({exists:true, value:entrantToSubmissions[msg.sender].length});\n        entrantToSubmissions[msg.sender].push(submissionAddress);\n        IMatryxPlatform(platformAddress).updateSubmissions(msg.sender, submissionAddress);\n        \n        return submissionAddress;\n    }\n}",
  "sourcePath": "/Users/maxhoward/Desktop/Ethereum/Development/Matryx AWS/Projects/matryx-alpha-source/contracts/MatryxTournament.sol",
  "compiler": {
    "name": "solc",
    "version": "0.4.19+commit.c4cbbb05.Emscripten.clang"
  },
  "schemaVersion": "2.0.0",
  "updatedAt": "2018-03-30T22:31:23.247Z"
}