{
  "contractName": "MatryxTournament",
  "abi": [
    {
      "constant": true,
      "inputs": [],
      "name": "matryxTokenAddress",
      "outputs": [
        {
          "name": "",
          "type": "address"
        }
      ],
      "payable": false,
      "stateMutability": "view",
      "type": "function"
    },
    {
      "constant": true,
      "inputs": [
        {
          "name": "_sender",
          "type": "address"
        }
      ],
      "name": "isOwner",
      "outputs": [
        {
          "name": "_isOwner",
          "type": "bool"
        }
      ],
      "payable": false,
      "stateMutability": "view",
      "type": "function"
    },
    {
      "constant": true,
      "inputs": [],
      "name": "tournamentOpenedTime",
      "outputs": [
        {
          "name": "",
          "type": "uint256"
        }
      ],
      "payable": false,
      "stateMutability": "view",
      "type": "function"
    },
    {
      "constant": true,
      "inputs": [],
      "name": "matryxRoundFactoryAddress",
      "outputs": [
        {
          "name": "",
          "type": "address"
        }
      ],
      "payable": false,
      "stateMutability": "view",
      "type": "function"
    },
    {
      "constant": true,
      "inputs": [],
      "name": "owner",
      "outputs": [
        {
          "name": "",
          "type": "address"
        }
      ],
      "payable": false,
      "stateMutability": "view",
      "type": "function"
    },
    {
      "constant": true,
      "inputs": [],
      "name": "platformAddress",
      "outputs": [
        {
          "name": "",
          "type": "address"
        }
      ],
      "payable": false,
      "stateMutability": "view",
      "type": "function"
    },
    {
      "constant": true,
      "inputs": [],
      "name": "timeCreated",
      "outputs": [
        {
          "name": "",
          "type": "uint256"
        }
      ],
      "payable": false,
      "stateMutability": "view",
      "type": "function"
    },
    {
      "constant": false,
      "inputs": [
        {
          "name": "newOwner",
          "type": "address"
        }
      ],
      "name": "transferOwnership",
      "outputs": [],
      "payable": false,
      "stateMutability": "nonpayable",
      "type": "function"
    },
    {
      "inputs": [
        {
          "name": "_category",
          "type": "string"
        },
        {
          "components": [
            {
              "name": "category",
              "type": "string"
            },
            {
              "name": "title_1",
              "type": "bytes32"
            },
            {
              "name": "title_2",
              "type": "bytes32"
            },
            {
              "name": "title_3",
              "type": "bytes32"
            },
            {
              "name": "descriptionHash_1",
              "type": "bytes32"
            },
            {
              "name": "descriptionHash_2",
              "type": "bytes32"
            },
            {
              "name": "fileHash_1",
              "type": "bytes32"
            },
            {
              "name": "fileHash_2",
              "type": "bytes32"
            },
            {
              "name": "bounty",
              "type": "uint256"
            },
            {
              "name": "entryFee",
              "type": "uint256"
            }
          ],
          "name": "tournamentData",
          "type": "tuple"
        },
        {
          "components": [
            {
              "name": "start",
              "type": "uint256"
            },
            {
              "name": "end",
              "type": "uint256"
            },
            {
              "name": "reviewPeriodDuration",
              "type": "uint256"
            },
            {
              "name": "bounty",
              "type": "uint256"
            }
          ],
          "name": "roundData",
          "type": "tuple"
        },
        {
          "name": "_platformAddress",
          "type": "address"
        },
        {
          "name": "_matryxTokenAddress",
          "type": "address"
        },
        {
          "name": "_matryxRoundFactoryAddress",
          "type": "address"
        },
        {
          "name": "_owner",
          "type": "address"
        }
      ],
      "payable": false,
      "stateMutability": "nonpayable",
      "type": "constructor"
    },
    {
      "anonymous": false,
      "inputs": [
        {
          "indexed": false,
          "name": "_startTime",
          "type": "uint256"
        },
        {
          "indexed": false,
          "name": "_endTime",
          "type": "uint256"
        },
        {
          "indexed": false,
          "name": "_reviewPeriodDuration",
          "type": "uint256"
        },
        {
          "indexed": false,
          "name": "_roundAddress",
          "type": "address"
        },
        {
          "indexed": false,
          "name": "_roundNumber",
          "type": "uint256"
        }
      ],
      "name": "NewRound",
      "type": "event"
    },
    {
      "anonymous": false,
      "inputs": [
        {
          "indexed": false,
          "name": "_roundIndex",
          "type": "uint256"
        },
        {
          "indexed": false,
          "name": "_submissionAddress",
          "type": "address"
        }
      ],
      "name": "SubmissionCreated",
      "type": "event"
    },
    {
      "anonymous": false,
      "inputs": [
        {
          "indexed": false,
          "name": "_submissionAddresses",
          "type": "address[]"
        }
      ],
      "name": "RoundWinnersChosen",
      "type": "event"
    },
    {
      "constant": false,
      "inputs": [
        {
          "name": "_submissionAddress",
          "type": "address"
        }
      ],
      "name": "invokeSubmissionCreatedEvent",
      "outputs": [],
      "payable": false,
      "stateMutability": "nonpayable",
      "type": "function"
    },
    {
      "constant": false,
      "inputs": [
        {
          "name": "_submissionAddress",
          "type": "address"
        },
        {
          "name": "_author",
          "type": "address"
        }
      ],
      "name": "removeSubmission",
      "outputs": [
        {
          "name": "",
          "type": "bool"
        }
      ],
      "payable": false,
      "stateMutability": "nonpayable",
      "type": "function"
    },
    {
      "constant": true,
      "inputs": [
        {
          "name": "_sender",
          "type": "address"
        }
      ],
      "name": "isEntrant",
      "outputs": [
        {
          "name": "",
          "type": "bool"
        }
      ],
      "payable": false,
      "stateMutability": "view",
      "type": "function"
    },
    {
      "constant": true,
      "inputs": [],
      "name": "getState",
      "outputs": [
        {
          "name": "",
          "type": "uint256"
        }
      ],
      "payable": false,
      "stateMutability": "view",
      "type": "function"
    },
    {
      "constant": true,
      "inputs": [],
      "name": "getPlatform",
      "outputs": [
        {
          "name": "_platformAddress",
          "type": "address"
        }
      ],
      "payable": false,
      "stateMutability": "view",
      "type": "function"
    },
    {
      "constant": true,
      "inputs": [],
      "name": "getData",
      "outputs": [
        {
          "components": [
            {
              "name": "category",
              "type": "string"
            },
            {
              "name": "title_1",
              "type": "bytes32"
            },
            {
              "name": "title_2",
              "type": "bytes32"
            },
            {
              "name": "title_3",
              "type": "bytes32"
            },
            {
              "name": "descriptionHash_1",
              "type": "bytes32"
            },
            {
              "name": "descriptionHash_2",
              "type": "bytes32"
            },
            {
              "name": "fileHash_1",
              "type": "bytes32"
            },
            {
              "name": "fileHash_2",
              "type": "bytes32"
            },
            {
              "name": "bounty",
              "type": "uint256"
            },
            {
              "name": "entryFee",
              "type": "uint256"
            }
          ],
          "name": "_data",
          "type": "tuple"
        }
      ],
      "payable": false,
      "stateMutability": "view",
      "type": "function"
    },
    {
      "constant": true,
      "inputs": [
        {
          "name": "_roundAddress",
          "type": "address"
        }
      ],
      "name": "isRound",
      "outputs": [
        {
          "name": "_isRound",
          "type": "bool"
        }
      ],
      "payable": false,
      "stateMutability": "view",
      "type": "function"
    },
    {
      "constant": true,
      "inputs": [],
      "name": "getRounds",
      "outputs": [
        {
          "name": "_rounds",
          "type": "address[]"
        }
      ],
      "payable": false,
      "stateMutability": "view",
      "type": "function"
    },
    {
      "constant": true,
      "inputs": [],
      "name": "getTitle",
      "outputs": [
        {
          "name": "_title",
          "type": "bytes32[3]"
        }
      ],
      "payable": false,
      "stateMutability": "view",
      "type": "function"
    },
    {
      "constant": true,
      "inputs": [],
      "name": "getCategory",
      "outputs": [
        {
          "name": "_category",
          "type": "string"
        }
      ],
      "payable": false,
      "stateMutability": "view",
      "type": "function"
    },
    {
      "constant": true,
      "inputs": [],
      "name": "getOwner",
      "outputs": [
        {
          "name": "_owner",
          "type": "address"
        }
      ],
      "payable": false,
      "stateMutability": "view",
      "type": "function"
    },
    {
      "constant": true,
      "inputs": [],
      "name": "getDescriptionHash",
      "outputs": [
        {
          "name": "_descriptionHash",
          "type": "bytes32[2]"
        }
      ],
      "payable": false,
      "stateMutability": "view",
      "type": "function"
    },
    {
      "constant": true,
      "inputs": [],
      "name": "getFileHash",
      "outputs": [
        {
          "name": "_fileHash",
          "type": "bytes32[2]"
        }
      ],
      "payable": false,
      "stateMutability": "view",
      "type": "function"
    },
    {
      "constant": true,
      "inputs": [],
      "name": "currentRound",
      "outputs": [
        {
          "name": "_currentRound",
          "type": "uint256"
        },
        {
          "name": "_currentRoundAddress",
          "type": "address"
        }
      ],
      "payable": false,
      "stateMutability": "view",
      "type": "function"
    },
    {
      "constant": true,
      "inputs": [],
      "name": "getBounty",
      "outputs": [
        {
          "name": "_tournamentBounty",
          "type": "uint256"
        }
      ],
      "payable": false,
      "stateMutability": "view",
      "type": "function"
    },
    {
      "constant": true,
      "inputs": [],
      "name": "getBalance",
      "outputs": [
        {
          "name": "_tournamentBalance",
          "type": "uint256"
        }
      ],
      "payable": false,
      "stateMutability": "view",
      "type": "function"
    },
    {
      "constant": true,
      "inputs": [],
      "name": "mySubmissions",
      "outputs": [
        {
          "name": "",
          "type": "address[]"
        }
      ],
      "payable": false,
      "stateMutability": "view",
      "type": "function"
    },
    {
      "constant": true,
      "inputs": [],
      "name": "submissionCount",
      "outputs": [
        {
          "name": "_submissionCount",
          "type": "uint256"
        }
      ],
      "payable": false,
      "stateMutability": "view",
      "type": "function"
    },
    {
      "constant": true,
      "inputs": [],
      "name": "entrantCount",
      "outputs": [
        {
          "name": "_entrantCount",
          "type": "uint256"
        }
      ],
      "payable": false,
      "stateMutability": "view",
      "type": "function"
    },
    {
      "constant": false,
      "inputs": [
        {
          "components": [
            {
              "name": "title_1",
              "type": "bytes32"
            },
            {
              "name": "title_2",
              "type": "bytes32"
            },
            {
              "name": "title_3",
              "type": "bytes32"
            },
            {
              "name": "descriptionHash_1",
              "type": "bytes32"
            },
            {
              "name": "descriptionHash_2",
              "type": "bytes32"
            },
            {
              "name": "fileHash_1",
              "type": "bytes32"
            },
            {
              "name": "fileHash_2",
              "type": "bytes32"
            },
            {
              "name": "entryFee",
              "type": "uint256"
            },
            {
              "name": "entryFeeChanged",
              "type": "bool"
            }
          ],
          "name": "tournamentData",
          "type": "tuple"
        },
        {
          "name": "_category",
          "type": "string"
        }
      ],
      "name": "update",
      "outputs": [],
      "payable": false,
      "stateMutability": "nonpayable",
      "type": "function"
    },
    {
      "constant": false,
      "inputs": [
        {
          "name": "_submissionAddresses",
          "type": "address[]"
        },
        {
          "name": "_rewardDistribution",
          "type": "uint256[]"
        },
        {
          "components": [
            {
              "name": "start",
              "type": "uint256"
            },
            {
              "name": "end",
              "type": "uint256"
            },
            {
              "name": "reviewPeriodDuration",
              "type": "uint256"
            },
            {
              "name": "bounty",
              "type": "uint256"
            }
          ],
          "name": "_roundData",
          "type": "tuple"
        },
        {
          "name": "_selectWinnerAction",
          "type": "uint256"
        }
      ],
      "name": "selectWinners",
      "outputs": [],
      "payable": false,
      "stateMutability": "nonpayable",
      "type": "function"
    },
    {
      "constant": false,
      "inputs": [
        {
          "components": [
            {
              "name": "start",
              "type": "uint256"
            },
            {
              "name": "end",
              "type": "uint256"
            },
            {
              "name": "reviewPeriodDuration",
              "type": "uint256"
            },
            {
              "name": "bounty",
              "type": "uint256"
            }
          ],
          "name": "_roundData",
          "type": "tuple"
        }
      ],
      "name": "editGhostRound",
      "outputs": [],
      "payable": false,
      "stateMutability": "nonpayable",
      "type": "function"
    },
    {
      "constant": false,
      "inputs": [
        {
          "name": "_mtxAllocation",
          "type": "uint256"
        }
      ],
      "name": "allocateMoreToRound",
      "outputs": [],
      "payable": false,
      "stateMutability": "nonpayable",
      "type": "function"
    },
    {
      "constant": false,
      "inputs": [],
      "name": "jumpToNextRound",
      "outputs": [],
      "payable": false,
      "stateMutability": "nonpayable",
      "type": "function"
    },
    {
      "constant": false,
      "inputs": [],
      "name": "stopTournament",
      "outputs": [],
      "payable": false,
      "stateMutability": "nonpayable",
      "type": "function"
    },
    {
      "constant": false,
      "inputs": [
        {
          "components": [
            {
              "name": "start",
              "type": "uint256"
            },
            {
              "name": "end",
              "type": "uint256"
            },
            {
              "name": "reviewPeriodDuration",
              "type": "uint256"
            },
            {
              "name": "bounty",
              "type": "uint256"
            }
          ],
          "name": "roundData",
          "type": "tuple"
        },
        {
          "name": "_automaticCreation",
          "type": "bool"
        }
      ],
      "name": "createRound",
      "outputs": [
        {
          "name": "_roundAddress",
          "type": "address"
        }
      ],
      "payable": false,
      "stateMutability": "nonpayable",
      "type": "function"
    },
    {
      "constant": false,
      "inputs": [
        {
          "name": "_roundIndex",
          "type": "uint256"
        },
        {
          "name": "_bountyMTX",
          "type": "uint256"
        }
      ],
      "name": "sendBountyToRound",
      "outputs": [],
      "payable": false,
      "stateMutability": "nonpayable",
      "type": "function"
    },
    {
      "constant": false,
      "inputs": [
        {
          "name": "_entrantAddress",
          "type": "address"
        }
      ],
      "name": "enterUserInTournament",
      "outputs": [
        {
          "name": "_success",
          "type": "bool"
        }
      ],
      "payable": false,
      "stateMutability": "nonpayable",
      "type": "function"
    },
    {
      "constant": true,
      "inputs": [],
      "name": "getEntryFee",
      "outputs": [
        {
          "name": "",
          "type": "uint256"
        }
      ],
      "payable": false,
      "stateMutability": "view",
      "type": "function"
    },
    {
      "constant": false,
      "inputs": [],
      "name": "collectMyEntryFee",
      "outputs": [],
      "payable": false,
      "stateMutability": "nonpayable",
      "type": "function"
    },
    {
      "constant": false,
      "inputs": [
        {
          "name": "_contributors",
          "type": "address[]"
        },
        {
          "name": "_contributorRewardDistribution",
          "type": "uint128[]"
        },
        {
          "name": "_references",
          "type": "address[]"
        },
        {
          "components": [
            {
              "name": "title",
              "type": "string"
            },
            {
              "name": "owner",
              "type": "address"
            },
            {
              "name": "contentHash",
              "type": "bytes"
            },
            {
              "name": "isPublic",
              "type": "bool"
            }
          ],
          "name": "submissionData",
          "type": "tuple"
        }
      ],
      "name": "createSubmission",
      "outputs": [
        {
          "name": "_submissionAddress",
          "type": "address"
        }
      ],
      "payable": false,
      "stateMutability": "nonpayable",
      "type": "function"
    },
    {
      "constant": false,
      "inputs": [],
      "name": "withdrawFromAbandoned",
      "outputs": [],
      "payable": false,
      "stateMutability": "nonpayable",
      "type": "function"
    }
  ],
  "bytecode": "0x60806040523480156200001157600080fd5b50604051620032ac380380620032ac8339810180604052620000379190810190620004f1565b6000805433600160a060020a031991821617909155600180548216600160a060020a038781169190911790915560028054831686831617905560038054831685831617905542600f5560048054909216908316179055855180518791600591620000a991839160209091019062000215565b50602082810151600183015560408301516002830155606083015160038301556080830151600483015560a083015160058084019190915560c0840151600684015560e0840151600784015561010084015160088401556101209093015160099092019190915588516200012192918a019062000215565b506200013885600064010000000062000146810204565b505050505050505062000748565b6001546002546003546040517fcfa037dc00000000000000000000000000000000000000000000000000000000815260009373__LibTournamentAdminMethods_____________9363cfa037dc93620001ba93601193600160a060020a039081169381169216908a908a9060040162000651565b60206040518083038186803b158015620001d357600080fd5b505af4158015620001e8573d6000803e3d6000fd5b505050506040513d601f19601f820116820180604052506200020e9190810190620004c8565b9392505050565b828054600181600116156101000203166002900490600052602060002090601f016020900481019282601f106200025857805160ff191683800117855562000288565b8280016001018555821562000288579182015b82811115620002885782518255916020019190600101906200026b565b50620002969291506200029a565b5090565b620002b791905b80821115620002965760008155600101620002a1565b90565b60006200020e825162000708565b60006200020e8251620002b7565b6000601f82018313620002e857600080fd5b8151620002ff620002f982620006e0565b620006b9565b915080825260208301602083018583830111156200031c57600080fd5b6200032983828462000719565b50505092915050565b6000608082840312156200034557600080fd5b620003516080620006b9565b90506000620003618484620002c8565b82525060206200037484848301620002c8565b60208301525060406200038a84828501620002c8565b6040830152506060620003a084828501620002c8565b60608301525092915050565b60006101408284031215620003c057600080fd5b620003cd610140620006b9565b82519091506001604060020a03811115620003e757600080fd5b620003f584828501620002d6565b82525060206200040884848301620002c8565b60208301525060406200041e84828501620002c8565b60408301525060606200043484828501620002c8565b60608301525060806200044a84828501620002c8565b60808301525060a06200046084828501620002c8565b60a08301525060c06200047684828501620002c8565b60c08301525060e06200048c84828501620002c8565b60e083015250610100620004a384828501620002c8565b61010083015250610120620004bb84828501620002c8565b6101208301525092915050565b600060208284031215620004db57600080fd5b6000620004e98484620002ba565b949350505050565b6000806000806000806000610140888a0312156200050e57600080fd5b87516001604060020a038111156200052557600080fd5b620005338a828b01620002d6565b97505060208801516001604060020a038111156200055057600080fd5b6200055e8a828b01620003ac565b9650506040620005718a828b0162000332565b95505060c0620005848a828b01620002ba565b94505060e0620005978a828b01620002ba565b935050610100620005ab8a828b01620002ba565b925050610120620005bf8a828b01620002ba565b91505092959891949750929550565b620005d98162000708565b82525050565b620005d98162000714565b80516080830190620005fd848262000646565b50602082015162000612602085018262000646565b50604082015162000627604085018262000646565b5060608201516200063c606085018262000646565b50505050565b9052565b620005d981620002b7565b610120810162000662828962000642565b620006716020830188620005ce565b620006806040830187620005ce565b6200068f6060830186620005ce565b6200069e6080830185620005ea565b620006ae610100830184620005df565b979650505050505050565b6040518181016001604060020a0381118282101715620006d857600080fd5b604052919050565b60006001604060020a03821115620006f757600080fd5b506020601f91909101601f19160190565b600160a060020a031690565b151590565b60005b83811015620007365781810151838201526020016200071c565b838111156200063c5750506000910152565b612b5480620007586000396000f3006080604052600436106101ed5763ffffffff7c0100000000000000000000000000000000000000000000000000000000600035041663072a456081146101f257806312065fe01461021457806315dc132e1461023f5780631865c57d1461026c57806323721e2414610281578063245edf06146102a157806328d576d7146102c357806329cc545e146102f05780632f54bf6e146103055780632fc1f190146103255780633809eba21461033a5780633bc5de301461035a578063447411f31461037c57806345df1945146103915780634644c51b146103a657806352c01fab146103c6578063542fe6c2146103e65780636984d070146103fb5780636ec02be91461041d5780636fe564201461043257806380258e47146104475780638493f71f14610469578063893d20e81461047e57806389f3beb6146104935780638a19c8bc146104a85780638c1fc0bb146104cb5780638da5cb5b146104eb578063934b5fee146105005780639baec20714610520578063a968c4b914610535578063b6cd26db14610555578063c2f897bf14610575578063d3de0a6d1461058a578063dbe55e56146105aa578063e139a20c146105bf578063e586a4f0146105d4578063f1653f6e146105e9578063f2fde38b146105fe578063f49bff7b1461061e578063ff3c1a8f14610633575b600080fd5b3480156101fe57600080fd5b5061021261020d366004612197565b610655565b005b34801561022057600080fd5b50610229610719565b60405161023691906129b7565b60405180910390f35b34801561024b57600080fd5b5061025f61025a366004611f9d565b6107de565b604051610236919061267a565b34801561027857600080fd5b50610229610b01565b34801561028d57600080fd5b5061021261029c366004612203565b610ba5565b3480156102ad57600080fd5b506102b6610ccd565b60405161023691906126b4565b3480156102cf57600080fd5b506102e36102de366004611f1f565b610cf3565b60405161023691906126d0565b3480156102fc57600080fd5b5061025f610ddd565b34801561031157600080fd5b506102e3610320366004611f1f565b610df9565b34801561033157600080fd5b5061025f610e1a565b34801561034657600080fd5b5061025f61035536600461211d565b610e36565b34801561036657600080fd5b5061036f610f0c565b6040516102369190612929565b34801561038857600080fd5b50610229611015565b34801561039d57600080fd5b5061021261101b565b3480156103b257600080fd5b506102126103c1366004611f1f565b6110bb565b3480156103d257600080fd5b506102e36103e1366004611f1f565b61111e565b3480156103f257600080fd5b50610212611149565b34801561040757600080fd5b506104106111d6565b60405161023691906126a3565b34801561042957600080fd5b50610229611248565b34801561043e57600080fd5b5061025f61124e565b34801561045357600080fd5b5061045c61126a565b6040516102369190612746565b34801561047557600080fd5b506102b66112f7565b34801561048a57600080fd5b5061025f611317565b34801561049f57600080fd5b50610229611333565b3480156104b457600080fd5b506104bd611339565b6040516102369291906129c5565b3480156104d757600080fd5b506102e36104e6366004611f1f565b6113e7565b3480156104f757600080fd5b5061025f611412565b34801561050c57600080fd5b5061021261051b36600461205d565b61142e565b34801561052c57600080fd5b50610212611502565b34801561054157600080fd5b506102e3610550366004611f63565b611598565b34801561056157600080fd5b5061021261057036600461214d565b6116f6565b34801561058157600080fd5b506102126117bf565b34801561059657600080fd5b506102126105a53660046120ff565b611834565b3480156105b657600080fd5b5061025f6118c5565b3480156105cb57600080fd5b506104106118e1565b3480156105e057600080fd5b50610229611960565b3480156105f557600080fd5b50610229611966565b34801561060a57600080fd5b50610212610619366004611f1f565b61196c565b34801561062a57600080fd5b506102296119f9565b34801561063f57600080fd5b50610648611a6e565b60405161023691906126c2565b60045473ffffffffffffffffffffffffffffffffffffffff16331461067957600080fd5b6002546040517f5fd45f0b00000000000000000000000000000000000000000000000000000000815273__LibTournamentAdminMethods_____________91635fd45f0b916106e691601191869173ffffffffffffffffffffffffffffffffffffffff169060040161290e565b60006040518083038186803b1580156106fe57600080fd5b505af4158015610712573d6000803e3d6000fd5b5050505050565b6013546002546040517f70a082310000000000000000000000000000000000000000000000000000000081526000926107d992909173ffffffffffffffffffffffffffffffffffffffff909116906370a082319061077b90309060040161267a565b602060405180830381600087803b15801561079557600080fd5b505af11580156107a9573d6000803e3d6000fd5b505050506040513d601f19601f820116820180604052506107cd91908101906121b5565b9063ffffffff611a9616565b905090565b336000908152601a602052604081205460ff168015156107fd57600080fd5b6001546040517f532311c4000000000000000000000000000000000000000000000000000000008152339173ffffffffffffffffffffffffffffffffffffffff1690819063532311c49061085590859060040161267a565b602060405180830381600087803b15801561086f57600080fd5b505af1158015610883573d6000803e3d6000fd5b505050506040513d601f19601f820116820180604052506108a791908101906120e1565b15156108b257600080fd5b60006108bc611339565b9150600190508173ffffffffffffffffffffffffffffffffffffffff16631865c57d6040518163ffffffff167c0100000000000000000000000000000000000000000000000000000000028152600401602060405180830381600087803b15801561092657600080fd5b505af115801561093a573d6000803e3d6000fd5b505050506040513d601f19601f8201168201806040525061095e91908101906121b5565b141561096957600080fd5b6002610973610b01565b1461097d57600080fd5b6017541515610a2e57600154600654600754600854600954600a54600d54600e546040517f201afb7600000000000000000000000000000000000000000000000000000000815273ffffffffffffffffffffffffffffffffffffffff9098169763201afb76976109fb979096909590949093909290916004016126de565b600060405180830381600087803b158015610a1557600080fd5b505af1158015610a29573d6000803e3d6000fd5b505050505b6001546040517f3a9ed3e300000000000000000000000000000000000000000000000000000000815273__LibTournamentEntrantMethods___________91633a9ed3e391610aa49160119160169173ffffffffffffffffffffffffffffffffffffffff16908f908f908f908f90600401612870565b60206040518083038186803b158015610abc57600080fd5b505af4158015610ad0573d6000803e3d6000fd5b505050506040513d601f19601f82011682018060405250610af49190810190611f45565b9998505050505050505050565b6040517f5726b16f00000000000000000000000000000000000000000000000000000000815260009073__LibTournamentStateManagement__________90635726b16f90610b5590601190600401612757565b60206040518083038186803b158015610b6d57600080fd5b505af4158015610b81573d6000803e3d6000fd5b505050506040513d601f19601f820116820180604052506107d991908101906121b5565b60015473ffffffffffffffffffffffffffffffffffffffff163314610bc957600080fd5b601454610bdc908263ffffffff611aa816565b6014556002546011805473ffffffffffffffffffffffffffffffffffffffff9092169163a9059cbb919085908110610c1057fe5b6000918252602090912001546040517c010000000000000000000000000000000000000000000000000000000063ffffffff8416028152610c6c9173ffffffffffffffffffffffffffffffffffffffff16908590600401612688565b602060405180830381600087803b158015610c8657600080fd5b505af1158015610c9a573d6000803e3d6000fd5b505050506040513d601f19601f82011682018060405250610cbe91908101906120e1565b1515610cc957600080fd5b5050565b610cd5611ab7565b610cdd611ab7565b6009548152600a548160015b6020020152905090565b60015460009073ffffffffffffffffffffffffffffffffffffffff163314610d1a57600080fd5b6002610d24610b01565b14610d2e57600080fd5b6040517fa09c5c9900000000000000000000000000000000000000000000000000000000815273__LibTournamentEntrantMethods___________9063a09c5c9990610d87906005906011906016908890600401612982565b60206040518083038186803b158015610d9f57600080fd5b505af4158015610db3573d6000803e3d6000fd5b505050506040513d601f19601f82011682018060405250610dd791908101906120e1565b92915050565b60025473ffffffffffffffffffffffffffffffffffffffff1681565b60005473ffffffffffffffffffffffffffffffffffffffff91821691161490565b60015473ffffffffffffffffffffffffffffffffffffffff1690565b6001546002546003546040517fcfa037dc00000000000000000000000000000000000000000000000000000000815260009373__LibTournamentAdminMethods_____________9363cfa037dc93610eb59360119373ffffffffffffffffffffffffffffffffffffffff9081169381169216908a908a9060040161278d565b60206040518083038186803b158015610ecd57600080fd5b505af4158015610ee1573d6000803e3d6000fd5b505050506040513d601f19601f82011682018060405250610f059190810190611f45565b9392505050565b610f14611ad2565b60408051600580546101606020601f600260001961010060018716150201909416939093049283018190040284018101909452610140830181815292939192849290918491840182828015610faa5780601f10610f7f57610100808354040283529160200191610faa565b820191906000526020600020905b815481529060010190602001808311610f8d57829003601f168201915b505050918352505060018201546020820152600282015460408201526003820154606082015260048201546080820152600582015460a0820152600682015460c0820152600782015460e0820152600882015461010082015260099091015461012090910152905090565b60105481565b6002546040517f734e4a1600000000000000000000000000000000000000000000000000000000815273__LibTournamentEntrantMethods___________9163734e4a16916110899160119160169173ffffffffffffffffffffffffffffffffffffffff1690600401612855565b60006040518083038186803b1580156110a157600080fd5b505af41580156110b5573d6000803e3d6000fd5b50505050565b3360009081526012602052604090205460ff1615156110d957600080fd5b6011546040517f5fbb3d346317d5ecdb86412d4c69c7503ff4dbed1eccd4cb6290453ea0b1a32291611113916000199091019084906129c5565b60405180910390a150565b73ffffffffffffffffffffffffffffffffffffffff166000908152601a602052604090205460ff1690565b336000908152601a602052604090205460ff1680151561116857600080fd5b6002546040517fddc23bd000000000000000000000000000000000000000000000000000000000815273__LibTournamentEntrantMethods___________9163ddc23bd0916106e69160119160169173ffffffffffffffffffffffffffffffffffffffff1690600401612855565b6060601160000180548060200260200160405190810160405280929190818152602001828054801561123e57602002820191906000526020600020905b815473ffffffffffffffffffffffffffffffffffffffff168152600190910190602001808311611213575b5050505050905090565b60175490565b60035473ffffffffffffffffffffffffffffffffffffffff1681565b60058054604080516020601f600260001961010060018816150201909516949094049384018190048102820181019092528281526060939092909183018282801561123e5780601f106112cb5761010080835404028352916020019161123e565b820191906000526020600020905b8154815290600101906020018083116112d957509395945050505050565b6112ff611ab7565b611307611ab7565b600b548152600c54816001610ce9565b60045473ffffffffffffffffffffffffffffffffffffffff1690565b601b5490565b60008073__LibTournamentStateManagement__________630386922b60116040518263ffffffff167c01000000000000000000000000000000000000000000000000000000000281526004016113909190612757565b604080518083038186803b1580156113a757600080fd5b505af41580156113bb573d6000803e3d6000fd5b505050506040513d601f19601f820116820180604052506113df91908101906121d3565b915091509091565b73ffffffffffffffffffffffffffffffffffffffff1660009081526012602052604090205460ff1690565b60045473ffffffffffffffffffffffffffffffffffffffff1681565b60045473ffffffffffffffffffffffffffffffffffffffff16331461145257600080fd5b6001546002546040517f5014b85100000000000000000000000000000000000000000000000000000000815273__LibTournamentAdminMethods_____________92635014b851926114cc9260119273ffffffffffffffffffffffffffffffffffffffff9081169216908a908a908a908a906004016127e9565b60006040518083038186803b1580156114e457600080fd5b505af41580156114f8573d6000803e3d6000fd5b5050505050505050565b60045473ffffffffffffffffffffffffffffffffffffffff16331461152657600080fd5b6001546002546040517fa91d59d600000000000000000000000000000000000000000000000000000000815273__LibTournamentAdminMethods_____________9263a91d59d6926110899260119273ffffffffffffffffffffffffffffffffffffffff908116921690600401612765565b60015460009073ffffffffffffffffffffffffffffffffffffffff1633146115bf57600080fd5b73ffffffffffffffffffffffffffffffffffffffff80831660009081526019602090815260408083209387168352929052205460ff16151561160057600080fd5b60175461161490600163ffffffff611a9616565b60175573ffffffffffffffffffffffffffffffffffffffff8083166000908152601860209081526040808320601983528184209488168452939091529020600101548154811061166057fe5b6000918252602080832090910180547fffffffffffffffffffffffff000000000000000000000000000000000000000016905573ffffffffffffffffffffffffffffffffffffffff848116835260198252604080842091871684529152812080547fffffffffffffffffffffffffffffffffffffffffffffffffffffffffffffff00168155600190810191909155905092915050565b60045473ffffffffffffffffffffffffffffffffffffffff16331461171a57600080fd5b6001546040517f45fbeca000000000000000000000000000000000000000000000000000000000815273__LibTournamentAdminMethods_____________916345fbeca09161178b916005918791879173ffffffffffffffffffffffffffffffffffffffff9091169060040161293a565b60006040518083038186803b1580156117a357600080fd5b505af41580156117b7573d6000803e3d6000fd5b505050505050565b60045473ffffffffffffffffffffffffffffffffffffffff1633146117e357600080fd5b6040517faf41094900000000000000000000000000000000000000000000000000000000815273__LibTournamentAdminMethods_____________9063af4109499061108990601190600401612757565b60045473ffffffffffffffffffffffffffffffffffffffff16331461185857600080fd5b6002546040517f672ec62300000000000000000000000000000000000000000000000000000000815273__LibTournamentAdminMethods_____________9163672ec623916106e691601191869173ffffffffffffffffffffffffffffffffffffffff16906004016128e6565b60015473ffffffffffffffffffffffffffffffffffffffff1681565b33600090815260186020908152604091829020805483518184028101840190945280845260609384939092919083018282801561195457602002820191906000526020600020905b815473ffffffffffffffffffffffffffffffffffffffff168152600190910190602001808311611929575b50939695505050505050565b600e5490565b600f5481565b60045473ffffffffffffffffffffffffffffffffffffffff16331461199057600080fd5b73ffffffffffffffffffffffffffffffffffffffff811615156119b257600080fd5b600080547fffffffffffffffffffffffff00000000000000000000000000000000000000001673ffffffffffffffffffffffffffffffffffffffff92909216919091179055565b6014546013546002546040517f70a082310000000000000000000000000000000000000000000000000000000081526000936107d9939092611a629273ffffffffffffffffffffffffffffffffffffffff909116906370a082319061077b90309060040161267a565b9063ffffffff611aa816565b611a76611b26565b611a7e611b26565b60065481526007546020820152600854816002610ce9565b600082821115611aa257fe5b50900390565b600082820183811015610f0557fe5b60408051808201825290600290829080388339509192915050565b6040805161014081018252606080825260006020830181905292820183905281018290526080810182905260a0810182905260c0810182905260e08101829052610100810182905261012081019190915290565b6060604051908101604052806003906020820280388339509192915050565b6000610f058235612a87565b6000610f058251612a87565b6000601f82018313611b6e57600080fd5b8135611b81611b7c82612a07565b6129e0565b91508181835260208401935060208101905083856020840282011115611ba657600080fd5b60005b83811015611bd25781611bbc8882611b45565b8452506020928301929190910190600101611ba9565b5050505092915050565b6000601f82018313611bed57600080fd5b8135611bfb611b7c82612a07565b91508181835260208401935060208101905083856020840282011115611c2057600080fd5b60005b83811015611bd25781611c368882611f07565b8452506020928301929190910190600101611c23565b6000601f82018313611c5d57600080fd5b8135611c6b611b7c82612a07565b91508181835260208401935060208101905083856020840282011115611c9057600080fd5b60005b83811015611bd25781611ca68882611cd4565b8452506020928301929190910190600101611c93565b6000610f058235612aa0565b6000610f058251612aa0565b6000610f058235612a74565b6000601f82018313611cf157600080fd5b8135611cff611b7c82612a28565b91508082526020830160208301858383011115611d1b57600080fd5b611d26838284612aba565b50505092915050565b600060808284031215611d4157600080fd5b611d4b60806129e0565b90506000611d598484611cd4565b8252506020611d6a84848301611cd4565b6020830152506040611d7e84828501611cd4565b6040830152506060611d9284828501611cd4565b60608301525092915050565b600060808284031215611db057600080fd5b611dba60806129e0565b9050813567ffffffffffffffff811115611dd357600080fd5b611ddf84828501611ce0565b8252506020611df084848301611b45565b602083015250604082013567ffffffffffffffff811115611e1057600080fd5b611e1c84828501611ce0565b6040830152506060611d9284828501611cbc565b60006101208284031215611e4357600080fd5b611e4e6101206129e0565b90506000611e5c8484611cd4565b8252506020611e6d84848301611cd4565b6020830152506040611e8184828501611cd4565b6040830152506060611e9584828501611cd4565b6060830152506080611ea984828501611cd4565b60808301525060a0611ebd84828501611cd4565b60a08301525060c0611ed184828501611cd4565b60c08301525060e0611ee584828501611cd4565b60e083015250610100611efa84828501611cbc565b6101008301525092915050565b6000610f058235612aa5565b6000610f058251612a74565b600060208284031215611f3157600080fd5b6000611f3d8484611b45565b949350505050565b600060208284031215611f5757600080fd5b6000611f3d8484611b51565b60008060408385031215611f7657600080fd5b6000611f828585611b45565b9250506020611f9385828601611b45565b9150509250929050565b60008060008060808587031215611fb357600080fd5b843567ffffffffffffffff811115611fca57600080fd5b611fd687828801611b5d565b945050602085013567ffffffffffffffff811115611ff357600080fd5b611fff87828801611bdc565b935050604085013567ffffffffffffffff81111561201c57600080fd5b61202887828801611b5d565b925050606085013567ffffffffffffffff81111561204557600080fd5b61205187828801611d9e565b91505092959194509250565b60008060008060e0858703121561207357600080fd5b843567ffffffffffffffff81111561208a57600080fd5b61209687828801611b5d565b945050602085013567ffffffffffffffff8111156120b357600080fd5b6120bf87828801611c4c565b93505060406120d087828801611d2f565b92505060c061205187828801611cd4565b6000602082840312156120f357600080fd5b6000611f3d8484611cc8565b60006080828403121561211157600080fd5b6000611f3d8484611d2f565b60008060a0838503121561213057600080fd5b600061213c8585611d2f565b9250506080611f9385828601611cbc565b600080610140838503121561216157600080fd5b600061216d8585611e30565b92505061012083013567ffffffffffffffff81111561218b57600080fd5b611f9385828601611ce0565b6000602082840312156121a957600080fd5b6000611f3d8484611cd4565b6000602082840312156121c757600080fd5b6000611f3d8484611f13565b600080604083850312156121e657600080fd5b60006121f28585611f13565b9250506020611f9385828601611b51565b6000806040838503121561221657600080fd5b60006122228585611cd4565b9250506020611f9385828601611cd4565b61223c81612a87565b82525050565b600061224d82612a77565b80845260208401935061225f83612a6e565b60005b8281101561228f57612275868351612233565b61227e82612a6e565b602096909601959150600101612262565b5093949350505050565b60006122a482612a77565b8084526020840193506122b683612a6e565b60005b8281101561228f576122cc868351612233565b6122d582612a6e565b6020969096019591506001016122b9565b6122ef81612a7b565b6122f882612a74565b60005b828110156107125761230e85835161240d565b61231782612a6e565b6020959095019491506001016122fb565b61233181612a81565b61233a82612a74565b60005b828110156107125761235085835161240d565b61235982612a6e565b60209590950194915060010161233d565b600061237582612a77565b80845260208401935061238783612a6e565b60005b8281101561228f5761239d868351612671565b6123a682612a6e565b60209690960195915060010161238a565b60006123c282612a77565b8084526020840193506123d483612a6e565b60005b8281101561228f576123ea86835161240d565b6123f382612a6e565b6020969096019591506001016123d7565b61223c81612aa0565b61223c81612a74565b600061242182612a77565b808452612435816020860160208601612ac6565b61243e81612af2565b9093016020019392505050565b9052565b80516080830190612460848261240d565b506020820151612473602085018261240d565b506040820151612486604085018261240d565b5060608201516110b5606085018261240d565b80516080808452600091908401906124b18282612416565b91505060208301516124c66020860182612233565b50604083015184820360408601526124de8282612416565b91505060608301516124f36060860182612404565b509392505050565b8051610140808452600091908401906125148282612416565b9150506020830151612529602086018261240d565b50604083015161253c604086018261240d565b50606083015161254f606086018261240d565b506080830151612562608086018261240d565b5060a083015161257560a086018261240d565b5060c083015161258860c086018261240d565b5060e083015161259b60e086018261240d565b506101008301516125b061010086018261240d565b506101208301516124f361012086018261240d565b80516101208301906125d7848261240d565b5060208201516125ea602085018261240d565b5060408201516125fd604085018261240d565b506060820151612610606085018261240d565b506080820151612623608085018261240d565b5060a082015161263660a085018261240d565b5060c082015161264960c085018261240d565b5060e082015161265c60e085018261240d565b506101008201516110b5610100850182612404565b61223c81612aa5565b60208101610dd78284612233565b604081016126968285612233565b610f05602083018461240d565b60208082528101610f058184612242565b60408101610dd782846122e6565b60608101610dd78284612328565b60208101610dd78284612404565b60e081016126ec828a61240d565b6126f9602083018961240d565b612706604083018861240d565b612713606083018761240d565b612720608083018661240d565b61272d60a083018561240d565b61273a60c083018461240d565b98975050505050505050565b60208082528101610f058184612416565b60208101610dd7828461244b565b60608101612773828661244b565b6127806020830185612233565b611f3d6040830184612233565b610120810161279c828961244b565b6127a96020830188612233565b6127b66040830187612233565b6127c36060830186612233565b6127d0608083018561244f565b6127de610100830184612404565b979650505050505050565b61014081016127f8828a61244b565b6128056020830189612233565b6128126040830188612233565b81810360608301526128248187612299565b9050818103608083015261283881866123b7565b905061284760a083018561244f565b61273a61012083018461240d565b60608101612863828661244b565b612780602083018561244b565b60e0810161287e828a61244b565b61288b602083018961244b565b6128986040830188612233565b81810360608301526128aa8187612299565b905081810360808301526128be818661236a565b905081810360a08301526128d28185612299565b905081810360c0830152610af48184612499565b60c081016128f4828661244b565b612901602083018561244f565b611f3d60a0830184612233565b6060810161291c828661244b565b612780602083018561240d565b60208082528101610f0581846124fb565b6101808101612949828761244b565b61295660208301866125c5565b8181036101408301526129698185612416565b9050612979610160830184612233565b95945050505050565b60808101612990828761244b565b61299d602083018661244b565b6129aa604083018561244b565b6129796060830184612233565b60208101610dd7828461240d565b604081016129d3828561240d565b610f056020830184612233565b60405181810167ffffffffffffffff811182821017156129ff57600080fd5b604052919050565b600067ffffffffffffffff821115612a1e57600080fd5b5060209081020190565b600067ffffffffffffffff821115612a3f57600080fd5b506020601f919091017fffffffffffffffffffffffffffffffffffffffffffffffffffffffffffffffe0160190565b60200190565b90565b5190565b50600290565b50600390565b73ffffffffffffffffffffffffffffffffffffffff1690565b151590565b6fffffffffffffffffffffffffffffffff1690565b82818337506000910152565b60005b83811015612ae1578181015183820152602001612ac9565b838111156110b55750506000910152565b601f017fffffffffffffffffffffffffffffffffffffffffffffffffffffffffffffffe016905600a265627a7a72305820a7a0c031cddf6639d56f2fdc59a4c42e8929b26809b65770c6f01fd0dc186c2e6c6578706572696d656e74616cf50037",
  "source": " pragma solidity ^0.4.18;\n pragma experimental ABIEncoderV2;\n\nimport \"../libraries/strings/strings.sol\";\nimport \"../libraries/math/SafeMath.sol\";\nimport \"../libraries/LibConstruction.sol\";\n//import \"../libraries/interfaces/tournament/iLibTournamentStateManagement.sol\";\nimport \"../libraries/tournament/LibTournamentStateManagement.sol\";\nimport \"../libraries/tournament/LibTournamentAdminMethods.sol\";\nimport \"../libraries/tournament/LibTournamentEntrantMethods.sol\";\nimport \"../interfaces/IMatryxPlatform.sol\";\nimport \"../interfaces/IMatryxTournament.sol\";\nimport \"../interfaces/factories/IMatryxRoundFactory.sol\";\nimport \"../interfaces/IMatryxRound.sol\";\nimport \"../interfaces/IMatryxToken.sol\";\nimport \"./Ownable.sol\";\n\n/// @title Tournament - The Matryx tournament.\n/// @author Max Howard - <max@nanome.ai>, Sam Hessenauer - <sam@nanome.ai>\ncontract MatryxTournament is Ownable, IMatryxTournament {\n    using SafeMath for uint256;\n    using strings for *;\n    using LibTournamentAdminMethods for LibConstruction.TournamentData;\n\n    // TODO: condense and put in structs\n    // Platform identification\n    address public platformAddress;\n    address public matryxTokenAddress;\n    address public matryxRoundFactoryAddress;\n\n    // TODO: Create setter for this (resume here for upgrade system.)\n    // address public libTournamentStateManagement;\n\n    //Tournament identification\n    address public owner;\n    LibConstruction.TournamentData data;\n    // Timing and State\n    uint256 public timeCreated;\n    uint256 public tournamentOpenedTime;\n    LibTournamentStateManagement.StateData stateData;\n    // Submission tracking\n    LibTournamentStateManagement.EntryData entryData;\n\n    // address roundDelegate;\n    // bytes4 fnSelector_chooseWinner = bytes4(keccak256(\"chooseWinner(address)\"));\n    // bytes4 fnSelector_createRound = bytes4(keccak256(\"createRound(uint256)\"));\n    // bytes4 fnSelector_startRound = bytes4(keccak256(\"startRound(uint256)\"));\n\n    constructor(string _category, LibConstruction.TournamentData tournamentData, LibConstruction.RoundData roundData, address _platformAddress, address _matryxTokenAddress, address _matryxRoundFactoryAddress, address _owner) \n    {\n        //Clean inputs\n        //require(_owner != 0x0);\n        //require(tournamentData.title[0] != 0x0);\n        //require(tournamentData.Bounty > 0);\n        //require(_matryxRoundFactoryAddress != 0x0);\n        \n        platformAddress = _platformAddress;\n        matryxTokenAddress = _matryxTokenAddress;\n        matryxRoundFactoryAddress = _matryxRoundFactoryAddress;\n\n        timeCreated = now;\n        // Identification\n        owner = _owner;\n        data = tournamentData;\n        data.category = _category;\n\n        createRound(roundData, false);\n        // roundDelegate = IMatryxPlatform(platformAddress).getRoundLibAddress();\n    }\n\n    /*\n     * Structs\n     */\n\n    struct uint256_optional\n    {\n        bool exists;\n        uint256 value;\n    }\n\n    struct SubmissionLocation\n    {\n        uint256 roundIndex;\n        uint256 submissionIndex;\n    }\n\n    /*\n     * Events\n     */\n\n    event NewRound(uint256 _startTime, uint256 _endTime, uint256 _reviewPeriodDuration, address _roundAddress, uint256 _roundNumber);\n    //event RoundStarted(uint256 _roundIndex);\n    // Fired at the end of every round, one time per submission created in that round\n    event SubmissionCreated(uint256 _roundIndex, address _submissionAddress);\n    event RoundWinnersChosen(address[] _submissionAddresses);\n\n    /// @dev Allows rounds to invoke SubmissionCreated events on this tournament.\n    /// @param _submissionAddress Address of the submission.\n    function invokeSubmissionCreatedEvent(address _submissionAddress) public onlyRound\n    {\n        emit SubmissionCreated(stateData.rounds.length-1, _submissionAddress);\n    }\n\n    /*\n     * Modifiers\n     */\n\n    /// @dev Requires the function caller to be the platform.\n    modifier onlyPlatform()\n    {\n        require(msg.sender == platformAddress);\n        _;\n    }\n\n    modifier onlyRound()\n    {\n        require(stateData.isRound[msg.sender]);\n        _;\n    }\n\n    // modifier onlySubmission(address _submissionAddress, address _author)\n    // {\n    //     // If the submission does not exist,\n    //     // the address of the submission we return will not be msg.sender\n    //     // It will either be \n    //     // 1) The first submission, or\n    //     // 2) all 0s from having deleted it previously.\n    //     uint256 indexOfSubmission = entrantToSubmissionToSubmissionIndex[_author][_submissionAddress].value;\n    //     address submissionAddress = entrantToSubmissions[_author][indexOfSubmission];\n    //     require(_submissionAddress == msg.sender);\n    //     _;\n    // }\n\n    modifier onlyPeerLinked(address _sender)\n    {\n        IMatryxPlatform platform = IMatryxPlatform(platformAddress);\n        require(platform.hasPeer(_sender));\n        _;\n    }\n\n    /// @dev Requires the function caller to be an entrant.\n    modifier onlyEntrant()\n    {\n        bool senderIsEntrant = entryData.addressToEntryFeePaid[msg.sender].exists;\n        require(senderIsEntrant);\n        _;\n    }\n\n    /// @dev Requires the function caller to be the platform or the owner of this tournament\n    modifier platformOrOwner()\n    {\n        require((msg.sender == platformAddress)||(msg.sender == owner));\n        _;\n    }\n\n    modifier whileTournamentOpen()\n    {\n        require(getState() == uint256(TournamentState.Open));\n        _;\n    }\n\n    modifier ifRoundHasFunds()\n    {\n        // require((IMatryxRound(currentRound()[1]).getState()) != uint256(RoundState.Unfunded));\n        address currentRoundAddress;\n\n        (,currentRoundAddress) = currentRound();\n        require(IMatryxRound(currentRoundAddress).getState() != uint256(RoundState.Unfunded));\n        _;\n    }\n\n    modifier onlyOwner()\n    {\n        require(msg.sender == owner);\n        _;\n    }\n\n    // /// @dev Requires the tournament to be open.\n    // modifier duringReviewPeriod()\n    // {\n    //     // TODO: Finish me!\n    //     require(isInReview());\n    //     _;\n    // }\n\n    // TODO: Use MatryxToken\n    // modifier whileBountyLeft(uint256 _nextRoundBounty)\n    // {\n    //     require(BountyLeft.sub(_nextRoundBounty) >= 0);\n    //     _;\n    // }\n\n    /*\n    * State Maintenance Methods\n    */\n\n    function removeSubmission(address _submissionAddress, address _author) public onlyPlatform returns (bool)\n    {\n        require(entryData.entrantToSubmissionToSubmissionIndex[_author][_submissionAddress].exists);\n        entryData.numberOfSubmissions = entryData.numberOfSubmissions.sub(1);\n        delete entryData.entrantToSubmissions[_author][entryData.entrantToSubmissionToSubmissionIndex[_author][_submissionAddress].value];\n        delete entryData.entrantToSubmissionToSubmissionIndex[_author][_submissionAddress];\n        return true;\n    }\n\n    /*\n     * Access Control Methods\n     */\n\n    /// @dev Returns whether or not the sender is an entrant in this tournament\n    /// @param _sender Explicit sender address.\n    /// @return Whether or not the sender is an entrant in this tournament.\n    function isEntrant(address _sender) public view returns (bool)\n    {\n        return entryData.addressToEntryFeePaid[_sender].exists;\n    }\n\n    enum TournamentState { NotYetOpen, OnHold, Open, Closed, Abandoned}\n    enum RoundState { NotYetOpen, Unfunded, Open, InReview, HasWinners, Closed, Abandoned }\n    enum ParticipantType { Nonentrant, Entrant, Contributor, Author }\n    enum SelectWinnerAction { DoNothing, StartNextRound, CloseTournament }\n    /// @dev Returns the state of the tournament. One of:\n    /// NotYetOpen, Open, Closed, Abandoned\n    function getState() public view returns (uint256)\n    {\n        return LibTournamentStateManagement.getState(stateData);\n    }\n\n    /*\n     * Getter Methods\n     */\n\n    function getPlatform() public view returns (address _platformAddress)\n    {\n        return platformAddress;\n    }\n\n    function getData() public view returns (LibConstruction.TournamentData _data)\n    {\n        return data;\n    }\n\n    function isRound(address _roundAddress) public view returns (bool _isRound)\n    {\n        return stateData.isRound[_roundAddress];\n    }\n\n    function getRounds() public view returns (address[] _rounds)\n    {\n        return stateData.rounds;\n    }\n\n    function getTitle() public view returns (bytes32[3] _title)\n    {\n        bytes32[3] memory title;\n        title[0] = data.title_1;\n        title[1] = data.title_2;\n        title[2] = data.title_3;\n        return title;\n    }\n\n    function getCategory() public view returns (string _category)\n    {\n        // return IMatryxPlatform(platformAddress).hashForCategory(categoryHash);\n        // TODO: Fix me\n        return data.category;\n    }\n\n    function getOwner() public view returns (address _owner)\n    {\n        return owner;\n    }\n\n    // @dev Returns the external address of the tournament.\n    // @return _descriptionHash Off-chain content hash of tournament details (ipfs hash)\n    function getDescriptionHash() public view returns (bytes32[2] _descriptionHash)\n    {\n        bytes32[2] memory descriptionHash;\n        descriptionHash[0] = data.descriptionHash_1;\n        descriptionHash[1] = data.descriptionHash_2;\n        return descriptionHash;\n    }\n\n    function getFileHash() public view returns (bytes32[2] _fileHash)\n    {\n        bytes32[2] memory fileHash;\n        fileHash[0] = data.fileHash_1;\n        fileHash[1] = data.fileHash_2;\n        return fileHash;\n    }\n\n    /// @dev Returns the current round number.\n    /// @return _currentRound Number of the current round.\n    function currentRound() public view returns (uint256 _currentRound, address _currentRoundAddress)\n    {\n        return LibTournamentStateManagement.currentRound(stateData);\n    }\n\n    ///@dev Returns this tournament's bounty.\n    function getBounty() public view returns (uint256 _tournamentBounty)\n    {  \n        return IMatryxToken(matryxTokenAddress).balanceOf(address(this)).sub(stateData.entryFeesTotal).add(stateData.roundBountyAllocation);\n    }\n\n    // @dev Returns the remaining bounty this tournament is able to award.\n    function getBalance() public view returns (uint256 _tournamentBalance)\n    {\n        return IMatryxToken(matryxTokenAddress).balanceOf(address(this)).sub(stateData.entryFeesTotal);\n    }\n\n    ///@dev Returns the round that was created implicitly for the user after they chose the \"DoNothing\" option\n    ///     when choosing their round winners.\n    ///@return _ghostAddress Address of the upcoming round created during winner selection\n    function getGhostRound() internal returns (uint256 _index, address _ghostAddress)\n    {\n        return LibTournamentStateManagement.getGhostRound(stateData);\n    }\n\n    /// @dev Returns all of the sender's submissions to this tournament.\n    /// @return (_roundIndices[], _submissionIndices[]) Locations of the sender's submissions.\n    function mySubmissions() public view returns (address[])\n    {\n        address[] memory _mySubmissions = entryData.entrantToSubmissions[msg.sender];\n        return _mySubmissions;\n    }\n\n    /// @dev Returns the number of submissions made to this tournament.\n    /// @return _submissionCount Number of submissions made to this tournament.\n    function submissionCount() public view returns (uint256 _submissionCount)\n    {\n        return entryData.numberOfSubmissions;\n    }\n\n    function entrantCount() public view returns (uint256 _entrantCount)\n    {\n        return entryData.numberOfEntrants;\n    }\n\n    /*\n     * Setter Methods\n     */\n\n    function update(LibConstruction.TournamentModificationData tournamentData, string _category) public onlyOwner\n    {\n        data.update(tournamentData, _category, platformAddress);\n    }\n\n    /*\n     * Tournament Admin Methods\n     */\n\n    /// @dev Chooses the winner(s) of the current round. If this is the last round, \n    //       this method will also close the tournament.\n    /// @param _submissionAddresses The winning submission addresses\n    /// @param _rewardDistribution Distribution indicating how to split the reward among the submissions\n    function selectWinners(address[] _submissionAddresses, uint256[] _rewardDistribution, LibConstruction.RoundData _roundData, uint256 _selectWinnerAction) public onlyOwner\n    {\n        LibTournamentAdminMethods.selectWinners(stateData, platformAddress, matryxTokenAddress, _submissionAddresses, _rewardDistribution, _roundData, _selectWinnerAction);\n    }\n\n    function editGhostRound(LibConstruction.RoundData _roundData) public onlyOwner\n    {\n\n        LibTournamentAdminMethods.editGhostRound(stateData, _roundData, matryxTokenAddress);\n    }\n\n    ///@dev Allocates some of this tournament's balance to the current round\n    function allocateMoreToRound(uint256 _mtxAllocation) public onlyOwner\n    {\n        LibTournamentAdminMethods.allocateMoreToRound(stateData, _mtxAllocation, matryxTokenAddress);\n    }\n\n    /// @dev This function should be called after the user selects winners for their tournament and chooses the \"DoNothing\" option\n    function jumpToNextRound() public onlyOwner\n    {\n        LibTournamentAdminMethods.jumpToNextRound(stateData);\n    }\n\n    /// @dev This function closes the tournament after the tournament owner selects their winners with the \"DoNothing\" option\n    function stopTournament() public onlyOwner\n    {\n        LibTournamentAdminMethods.stopTournament(stateData, platformAddress, matryxTokenAddress);\n    }\n\n    /// @dev Creates a new round.\n    /// @return The new round's address.\n    function createRound(LibConstruction.RoundData roundData, bool _automaticCreation) public returns (address _roundAddress)\n    {\n        return LibTournamentAdminMethods.createRound(stateData, platformAddress, matryxTokenAddress, matryxRoundFactoryAddress, roundData, _automaticCreation);\n    }\n\n    function sendBountyToRound(uint256 _roundIndex, uint256 _bountyMTX) public onlyPlatform\n    {\n        stateData.roundBountyAllocation = stateData.roundBountyAllocation.add(_bountyMTX);\n        require(IMatryxToken(matryxTokenAddress).transfer(stateData.rounds[_roundIndex], _bountyMTX));\n    }\n\n    /*\n     * Entrant Methods\n     */\n\n    // LibTournamentEntrantMethods\n    /// @dev Enters the user into the tournament.\n    /// @param _entrantAddress Address of the user to enter.\n    /// @return success Whether or not the user was entered successfully.\n    function enterUserInTournament(address _entrantAddress) public onlyPlatform whileTournamentOpen returns (bool _success)\n    {\n        return LibTournamentEntrantMethods.enterUserInTournament(data, stateData, entryData, _entrantAddress);\n    }\n\n    /// @dev Returns the fee in MTX to be payed by a prospective entrant.\n    /// @return Entry fee for this tournament.\n    function getEntryFee() public view returns (uint256)\n    {\n        return data.entryFee;\n    }\n\n    function collectMyEntryFee() public\n    {\n        LibTournamentEntrantMethods.collectMyEntryFee(stateData, entryData, matryxTokenAddress);\n    }\n\n    function createSubmission(address[] _contributors, uint128[] _contributorRewardDistribution, address[] _references, LibConstruction.SubmissionData submissionData) public onlyEntrant onlyPeerLinked(msg.sender) ifRoundHasFunds whileTournamentOpen returns (address _submissionAddress)\n    {\n        if(entryData.numberOfSubmissions == 0)\n        {\n            IMatryxPlatform(platformAddress).invokeTournamentOpenedEvent(data.title_1, data.title_2, data.title_3, data.descriptionHash_1, data.descriptionHash_2, data.bounty, data.entryFee);\n        }\n\n        return LibTournamentEntrantMethods.createSubmission(stateData, entryData, platformAddress, _contributors, _contributorRewardDistribution, _references, submissionData);\n    }\n\n    function withdrawFromAbandoned() public onlyEntrant\n    {\n        LibTournamentEntrantMethods.withdrawFromAbandoned(stateData, entryData, matryxTokenAddress);\n    }\n}",
  "sourcePath": "/Users/maxhoward/Desktop/Ethereum/Development/Matryx/Projects/MatryxPlatform/contracts/MatryxTournament.sol",
  "compiler": {
    "name": "solc",
    "version": "0.4.24+commit.e67f0147.Emscripten.clang"
  },
  "schemaVersion": "2.0.0",
  "updatedAt": "2018-07-03T18:42:52.477Z"
}