{
  "contractName": "MatryxTournamentFactory",
  "abi": [
    {
      "constant": true,
      "inputs": [],
      "name": "matryxTokenAddress",
      "outputs": [
        {
          "name": "",
          "type": "address"
        }
      ],
      "payable": false,
      "stateMutability": "view",
      "type": "function"
    },
    {
      "constant": true,
      "inputs": [
        {
          "name": "_sender",
          "type": "address"
        }
      ],
      "name": "isOwner",
      "outputs": [
        {
          "name": "_isOwner",
          "type": "bool"
        }
      ],
      "payable": false,
      "stateMutability": "view",
      "type": "function"
    },
    {
      "constant": true,
      "inputs": [],
      "name": "matryxRoundFactoryAddress",
      "outputs": [
        {
          "name": "",
          "type": "address"
        }
      ],
      "payable": false,
      "stateMutability": "view",
      "type": "function"
    },
    {
      "constant": true,
      "inputs": [],
      "name": "getOwner",
      "outputs": [
        {
          "name": "_owner",
          "type": "address"
        }
      ],
      "payable": false,
      "stateMutability": "view",
      "type": "function"
    },
    {
      "constant": true,
      "inputs": [],
      "name": "owner",
      "outputs": [
        {
          "name": "",
          "type": "address"
        }
      ],
      "payable": false,
      "stateMutability": "view",
      "type": "function"
    },
    {
      "constant": true,
      "inputs": [],
      "name": "platformAddress",
      "outputs": [
        {
          "name": "",
          "type": "address"
        }
      ],
      "payable": false,
      "stateMutability": "view",
      "type": "function"
    },
    {
      "constant": false,
      "inputs": [
        {
          "name": "newOwner",
          "type": "address"
        }
      ],
      "name": "transferOwnership",
      "outputs": [],
      "payable": false,
      "stateMutability": "nonpayable",
      "type": "function"
    },
    {
      "inputs": [
        {
          "name": "_matryxTokenAddress",
          "type": "address"
        },
        {
          "name": "_matryxRoundFactoryAddress",
          "type": "address"
        }
      ],
      "payable": false,
      "stateMutability": "nonpayable",
      "type": "constructor"
    },
    {
      "constant": false,
      "inputs": [
        {
          "name": "_category",
          "type": "string"
        },
        {
          "components": [
            {
              "name": "category",
              "type": "string"
            },
            {
              "name": "title_1",
              "type": "bytes32"
            },
            {
              "name": "title_2",
              "type": "bytes32"
            },
            {
              "name": "title_3",
              "type": "bytes32"
            },
            {
              "name": "descriptionHash_1",
              "type": "bytes32"
            },
            {
              "name": "descriptionHash_2",
              "type": "bytes32"
            },
            {
              "name": "fileHash_1",
              "type": "bytes32"
            },
            {
              "name": "fileHash_2",
              "type": "bytes32"
            },
            {
              "name": "bounty",
              "type": "uint256"
            },
            {
              "name": "entryFee",
              "type": "uint256"
            }
          ],
          "name": "tournamentData",
          "type": "tuple"
        },
        {
          "components": [
            {
              "name": "start",
              "type": "uint256"
            },
            {
              "name": "end",
              "type": "uint256"
            },
            {
              "name": "reviewPeriodDuration",
              "type": "uint256"
            },
            {
              "name": "bounty",
              "type": "uint256"
            }
          ],
          "name": "roundData",
          "type": "tuple"
        },
        {
          "name": "_owner",
          "type": "address"
        }
      ],
      "name": "createTournament",
      "outputs": [
        {
          "name": "_tournamentAddress",
          "type": "address"
        }
      ],
      "payable": false,
      "stateMutability": "nonpayable",
      "type": "function"
    },
    {
      "constant": false,
      "inputs": [
        {
          "name": "_platformAddress",
          "type": "address"
        }
      ],
      "name": "setPlatform",
      "outputs": [],
      "payable": false,
      "stateMutability": "nonpayable",
      "type": "function"
    }
  ],
  "bytecode": "0x608060405234801561001057600080fd5b50604051604080613d01833981018060405261002f919081019061007e565b60008054600160a060020a0319908116331790915560018054600160a060020a03948516908316179055600380549290931691161790556100c4565b600061007782516100b8565b9392505050565b6000806040838503121561009157600080fd5b600061009d858561006b565b92505060206100ae8582860161006b565b9150509250929050565b600160a060020a031690565b613c2e806100d36000396000f300608060405260043610620000a25763ffffffff7c010000000000000000000000000000000000000000000000000000000060003504166329cc545e8114620000a75780632f54bf6e14620000d75780636945c5ea146200010b5780636fe564201462000132578063893d20e8146200014a5780638da5cb5b1462000162578063a95abd89146200017a578063dbe55e56146200019f578063f2fde38b14620001b7575b600080fd5b348015620000b457600080fd5b50620000bf620001dc565b604051620000ce919062000885565b60405180910390f35b348015620000e457600080fd5b50620000fc620000f636600462000621565b620001f8565b604051620000ce91906200089b565b3480156200011857600080fd5b50620001306200012a36600462000621565b62000219565b005b3480156200013f57600080fd5b50620000bf62000285565b3480156200015757600080fd5b50620000bf620002a1565b3480156200016f57600080fd5b50620000bf620002bd565b3480156200018757600080fd5b50620000bf620001993660046200064a565b620002d9565b348015620001ac57600080fd5b50620000bf62000350565b348015620001c457600080fd5b5062000130620001d636600462000621565b6200036c565b60015473ffffffffffffffffffffffffffffffffffffffff1681565b60005473ffffffffffffffffffffffffffffffffffffffff91821691161490565b60005473ffffffffffffffffffffffffffffffffffffffff1633146200023e57600080fd5b600280547fffffffffffffffffffffffff00000000000000000000000000000000000000001673ffffffffffffffffffffffffffffffffffffffff92909216919091179055565b60035473ffffffffffffffffffffffffffffffffffffffff1681565b60005473ffffffffffffffffffffffffffffffffffffffff1690565b60005473ffffffffffffffffffffffffffffffffffffffff1681565b600254600154600354600092839288928892889273ffffffffffffffffffffffffffffffffffffffff9182169290821691168862000316620003fb565b620003289796959493929190620008ab565b604051809103906000f08015801562000345573d6000803e3d6000fd5b509695505050505050565b60025473ffffffffffffffffffffffffffffffffffffffff1681565b60005473ffffffffffffffffffffffffffffffffffffffff1633146200039157600080fd5b73ffffffffffffffffffffffffffffffffffffffff81161515620003b457600080fd5b600080547fffffffffffffffffffffffff00000000000000000000000000000000000000001673ffffffffffffffffffffffffffffffffffffffff92909216919091179055565b6040516131cd8062000a2883390190565b60006200041a8235620009a3565b9392505050565b60006200041a8235620009c1565b6000601f820183136200044157600080fd5b813562000458620004528262000958565b62000930565b915080825260208301602083018583830111156200047557600080fd5b62000482838284620009c4565b50505092915050565b6000608082840312156200049e57600080fd5b620004aa608062000930565b90506000620004ba848462000421565b8252506020620004cd8484830162000421565b6020830152506040620004e38482850162000421565b6040830152506060620004f98482850162000421565b60608301525092915050565b600061014082840312156200051957600080fd5b6200052661014062000930565b9050813567ffffffffffffffff8111156200054057600080fd5b6200054e848285016200042f565b8252506020620005618484830162000421565b6020830152506040620005778482850162000421565b60408301525060606200058d8482850162000421565b6060830152506080620005a38482850162000421565b60808301525060a0620005b98482850162000421565b60a08301525060c0620005cf8482850162000421565b60c08301525060e0620005e58482850162000421565b60e083015250610100620005fc8482850162000421565b61010083015250610120620006148482850162000421565b6101208301525092915050565b6000602082840312156200063457600080fd5b60006200064284846200040c565b949350505050565b60008060008060e085870312156200066157600080fd5b843567ffffffffffffffff8111156200067957600080fd5b62000687878288016200042f565b945050602085013567ffffffffffffffff811115620006a557600080fd5b620006b38782880162000505565b9350506040620006c6878288016200048b565b92505060c0620006d9878288016200040c565b91505092959194509250565b620006f081620009a3565b82525050565b620006f081620009bc565b620006f081620009c1565b600062000719826200099f565b8084526200072f816020860160208601620009d0565b6200073a81620009ff565b9093016020019392505050565b805160808301906200075a848262000701565b5060208201516200076f602085018262000701565b50604082015162000784604085018262000701565b50606082015162000799606085018262000701565b50505050565b805161014080845260009190840190620007ba82826200070c565b9150506020830151620007d1602086018262000701565b506040830151620007e6604086018262000701565b506060830151620007fb606086018262000701565b50608083015162000810608086018262000701565b5060a08301516200082560a086018262000701565b5060c08301516200083a60c086018262000701565b5060e08301516200084f60e086018262000701565b506101008301516200086661010086018262000701565b506101208301516200087d61012086018262000701565b509392505050565b60208101620008958284620006e5565b92915050565b60208101620008958284620006f6565b6101408082528101620008bf818a6200070c565b90508181036020830152620008d581896200079f565b9050620008e6604083018862000747565b620008f560c0830187620006e5565b6200090460e0830186620006e5565b62000914610100830185620006e5565b62000924610120830184620006e5565b98975050505050505050565b60405181810167ffffffffffffffff811182821017156200095057600080fd5b604052919050565b600067ffffffffffffffff8211156200097057600080fd5b506020601f919091017fffffffffffffffffffffffffffffffffffffffffffffffffffffffffffffffe0160190565b5190565b73ffffffffffffffffffffffffffffffffffffffff1690565b151590565b90565b82818337506000910152565b60005b83811015620009ed578181015183820152602001620009d3565b83811115620007995750506000910152565b601f017fffffffffffffffffffffffffffffffffffffffffffffffffffffffffffffffe01690560060806040523480156200001157600080fd5b50604051620031cd380380620031cd8339810180604052620000379190810190620004f1565b6000805433600160a060020a031991821617909155600180548216600160a060020a038781169190911790915560028054831686831617905560038054831685831617905542600f5560048054909216908316179055855180518791600591620000a991839160209091019062000215565b50602082810151600183015560408301516002830155606083015160038301556080830151600483015560a083015160058084019190915560c0840151600684015560e0840151600784015561010084015160088401556101209093015160099092019190915588516200012192918a019062000215565b506200013885600064010000000062000146810204565b505050505050505062000748565b6001546002546003546040517fcfa037dc00000000000000000000000000000000000000000000000000000000815260009373__LibTournamentAdminMethods_____________9363cfa037dc93620001ba93601193600160a060020a039081169381169216908a908a9060040162000651565b60206040518083038186803b158015620001d357600080fd5b505af4158015620001e8573d6000803e3d6000fd5b505050506040513d601f19601f820116820180604052506200020e9190810190620004c8565b9392505050565b828054600181600116156101000203166002900490600052602060002090601f016020900481019282601f106200025857805160ff191683800117855562000288565b8280016001018555821562000288579182015b82811115620002885782518255916020019190600101906200026b565b50620002969291506200029a565b5090565b620002b791905b80821115620002965760008155600101620002a1565b90565b60006200020e825162000708565b60006200020e8251620002b7565b6000601f82018313620002e857600080fd5b8151620002ff620002f982620006e0565b620006b9565b915080825260208301602083018583830111156200031c57600080fd5b6200032983828462000719565b50505092915050565b6000608082840312156200034557600080fd5b620003516080620006b9565b90506000620003618484620002c8565b82525060206200037484848301620002c8565b60208301525060406200038a84828501620002c8565b6040830152506060620003a084828501620002c8565b60608301525092915050565b60006101408284031215620003c057600080fd5b620003cd610140620006b9565b82519091506001604060020a03811115620003e757600080fd5b620003f584828501620002d6565b82525060206200040884848301620002c8565b60208301525060406200041e84828501620002c8565b60408301525060606200043484828501620002c8565b60608301525060806200044a84828501620002c8565b60808301525060a06200046084828501620002c8565b60a08301525060c06200047684828501620002c8565b60c08301525060e06200048c84828501620002c8565b60e083015250610100620004a384828501620002c8565b61010083015250610120620004bb84828501620002c8565b6101208301525092915050565b600060208284031215620004db57600080fd5b6000620004e98484620002ba565b949350505050565b6000806000806000806000610140888a0312156200050e57600080fd5b87516001604060020a038111156200052557600080fd5b620005338a828b01620002d6565b97505060208801516001604060020a038111156200055057600080fd5b6200055e8a828b01620003ac565b9650506040620005718a828b0162000332565b95505060c0620005848a828b01620002ba565b94505060e0620005978a828b01620002ba565b935050610100620005ab8a828b01620002ba565b925050610120620005bf8a828b01620002ba565b91505092959891949750929550565b620005d98162000708565b82525050565b620005d98162000714565b80516080830190620005fd848262000646565b50602082015162000612602085018262000646565b50604082015162000627604085018262000646565b5060608201516200063c606085018262000646565b50505050565b9052565b620005d981620002b7565b610120810162000662828962000642565b620006716020830188620005ce565b620006806040830187620005ce565b6200068f6060830186620005ce565b6200069e6080830185620005ea565b620006ae610100830184620005df565b979650505050505050565b6040518181016001604060020a0381118282101715620006d857600080fd5b604052919050565b60006001604060020a03821115620006f757600080fd5b506020601f91909101601f19160190565b600160a060020a031690565b151590565b60005b83811015620007365781810151838201526020016200071c565b838111156200063c5750506000910152565b612a7580620007586000396000f3006080604052600436106101d75763ffffffff7c0100000000000000000000000000000000000000000000000000000000600035041663072a456081146101dc57806312065fe0146101fe57806315dc132e146102295780631865c57d1461025657806323721e241461026b578063245edf061461028b57806328d576d7146102ad57806329cc545e146102da5780632f54bf6e146102ef5780632fc1f1901461030f5780633809eba2146103245780633bc5de3014610344578063447411f31461036657806345df19451461037b5780634644c51b1461039057806352c01fab146103b0578063542fe6c2146103d05780636ec02be9146103e55780636fe56420146103fa57806380258e471461040f5780638493f71f14610431578063893d20e81461044657806389f3beb61461045b5780638a19c8bc146104705780638da5cb5b14610493578063934b5fee146104a85780639baec207146104c8578063a968c4b9146104dd578063b6cd26db146104fd578063c2f897bf1461051d578063d3de0a6d14610532578063dbe55e5614610552578063e139a20c14610567578063e586a4f014610589578063f1653f6e1461059e578063f2fde38b146105b3578063f49bff7b146105d3578063ff3c1a8f146105e8575b600080fd5b3480156101e857600080fd5b506101fc6101f73660046120b8565b61060a565b005b34801561020a57600080fd5b506102136106ce565b60405161022091906128d8565b60405180910390f35b34801561023557600080fd5b50610249610244366004611ebe565b610793565b604051610220919061259b565b34801561026257600080fd5b50610213610ab6565b34801561027757600080fd5b506101fc610286366004612124565b610b5a565b34801561029757600080fd5b506102a0610c82565b60405161022091906125d5565b3480156102b957600080fd5b506102cd6102c8366004611e40565b610ca8565b60405161022091906125f1565b3480156102e657600080fd5b50610249610d92565b3480156102fb57600080fd5b506102cd61030a366004611e40565b610dae565b34801561031b57600080fd5b50610249610dcf565b34801561033057600080fd5b5061024961033f36600461203e565b610deb565b34801561035057600080fd5b50610359610ec1565b604051610220919061284a565b34801561037257600080fd5b50610213610fca565b34801561038757600080fd5b506101fc610fd0565b34801561039c57600080fd5b506101fc6103ab366004611e40565b611070565b3480156103bc57600080fd5b506102cd6103cb366004611e40565b6110d3565b3480156103dc57600080fd5b506101fc6110fe565b3480156103f157600080fd5b5061021361118b565b34801561040657600080fd5b50610249611191565b34801561041b57600080fd5b506104246111ad565b6040516102209190612667565b34801561043d57600080fd5b506102a0611243565b34801561045257600080fd5b50610249611263565b34801561046757600080fd5b5061021361127f565b34801561047c57600080fd5b50610485611285565b6040516102209291906128e6565b34801561049f57600080fd5b50610249611333565b3480156104b457600080fd5b506101fc6104c3366004611f7e565b61134f565b3480156104d457600080fd5b506101fc611423565b3480156104e957600080fd5b506102cd6104f8366004611e84565b6114b9565b34801561050957600080fd5b506101fc61051836600461206e565b611617565b34801561052957600080fd5b506101fc6116e0565b34801561053e57600080fd5b506101fc61054d366004612020565b611755565b34801561055e57600080fd5b506102496117e6565b34801561057357600080fd5b5061057c611802565b60405161022091906125c4565b34801561059557600080fd5b50610213611881565b3480156105aa57600080fd5b50610213611887565b3480156105bf57600080fd5b506101fc6105ce366004611e40565b61188d565b3480156105df57600080fd5b5061021361191a565b3480156105f457600080fd5b506105fd61198f565b60405161022091906125e3565b60045473ffffffffffffffffffffffffffffffffffffffff16331461062e57600080fd5b6002546040517f5fd45f0b00000000000000000000000000000000000000000000000000000000815273__LibTournamentAdminMethods_____________91635fd45f0b9161069b91601191869173ffffffffffffffffffffffffffffffffffffffff169060040161282f565b60006040518083038186803b1580156106b357600080fd5b505af41580156106c7573d6000803e3d6000fd5b5050505050565b6013546002546040517f70a0823100000000000000000000000000000000000000000000000000000000815260009261078e92909173ffffffffffffffffffffffffffffffffffffffff909116906370a082319061073090309060040161259b565b602060405180830381600087803b15801561074a57600080fd5b505af115801561075e573d6000803e3d6000fd5b505050506040513d601f19601f8201168201806040525061078291908101906120d6565b9063ffffffff6119b716565b905090565b336000908152601a602052604081205460ff168015156107b257600080fd5b6001546040517f532311c4000000000000000000000000000000000000000000000000000000008152339173ffffffffffffffffffffffffffffffffffffffff1690819063532311c49061080a90859060040161259b565b602060405180830381600087803b15801561082457600080fd5b505af1158015610838573d6000803e3d6000fd5b505050506040513d601f19601f8201168201806040525061085c9190810190612002565b151561086757600080fd5b6000610871611285565b9150600190508173ffffffffffffffffffffffffffffffffffffffff16631865c57d6040518163ffffffff167c0100000000000000000000000000000000000000000000000000000000028152600401602060405180830381600087803b1580156108db57600080fd5b505af11580156108ef573d6000803e3d6000fd5b505050506040513d601f19601f8201168201806040525061091391908101906120d6565b141561091e57600080fd5b6002610928610ab6565b1461093257600080fd5b60175415156109e357600154600654600754600854600954600a54600d54600e546040517f201afb7600000000000000000000000000000000000000000000000000000000815273ffffffffffffffffffffffffffffffffffffffff9098169763201afb76976109b0979096909590949093909290916004016125ff565b600060405180830381600087803b1580156109ca57600080fd5b505af11580156109de573d6000803e3d6000fd5b505050505b6001546040517f3a9ed3e300000000000000000000000000000000000000000000000000000000815273__LibTournamentEntrantMethods___________91633a9ed3e391610a599160119160169173ffffffffffffffffffffffffffffffffffffffff16908f908f908f908f90600401612791565b60206040518083038186803b158015610a7157600080fd5b505af4158015610a85573d6000803e3d6000fd5b505050506040513d601f19601f82011682018060405250610aa99190810190611e66565b9998505050505050505050565b6040517f5726b16f00000000000000000000000000000000000000000000000000000000815260009073__LibTournamentStateManagement__________90635726b16f90610b0a90601190600401612678565b60206040518083038186803b158015610b2257600080fd5b505af4158015610b36573d6000803e3d6000fd5b505050506040513d601f19601f8201168201806040525061078e91908101906120d6565b60015473ffffffffffffffffffffffffffffffffffffffff163314610b7e57600080fd5b601454610b91908263ffffffff6119c916565b6014556002546011805473ffffffffffffffffffffffffffffffffffffffff9092169163a9059cbb919085908110610bc557fe5b6000918252602090912001546040517c010000000000000000000000000000000000000000000000000000000063ffffffff8416028152610c219173ffffffffffffffffffffffffffffffffffffffff169085906004016125a9565b602060405180830381600087803b158015610c3b57600080fd5b505af1158015610c4f573d6000803e3d6000fd5b505050506040513d601f19601f82011682018060405250610c739190810190612002565b1515610c7e57600080fd5b5050565b610c8a6119d8565b610c926119d8565b6009548152600a548160015b6020020152905090565b60015460009073ffffffffffffffffffffffffffffffffffffffff163314610ccf57600080fd5b6002610cd9610ab6565b14610ce357600080fd5b6040517fa09c5c9900000000000000000000000000000000000000000000000000000000815273__LibTournamentEntrantMethods___________9063a09c5c9990610d3c9060059060119060169088906004016128a3565b60206040518083038186803b158015610d5457600080fd5b505af4158015610d68573d6000803e3d6000fd5b505050506040513d601f19601f82011682018060405250610d8c9190810190612002565b92915050565b60025473ffffffffffffffffffffffffffffffffffffffff1681565b60005473ffffffffffffffffffffffffffffffffffffffff91821691161490565b60015473ffffffffffffffffffffffffffffffffffffffff1690565b6001546002546003546040517fcfa037dc00000000000000000000000000000000000000000000000000000000815260009373__LibTournamentAdminMethods_____________9363cfa037dc93610e6a9360119373ffffffffffffffffffffffffffffffffffffffff9081169381169216908a908a906004016126ae565b60206040518083038186803b158015610e8257600080fd5b505af4158015610e96573d6000803e3d6000fd5b505050506040513d601f19601f82011682018060405250610eba9190810190611e66565b9392505050565b610ec96119f3565b60408051600580546101606020601f600260001961010060018716150201909416939093049283018190040284018101909452610140830181815292939192849290918491840182828015610f5f5780601f10610f3457610100808354040283529160200191610f5f565b820191906000526020600020905b815481529060010190602001808311610f4257829003601f168201915b505050918352505060018201546020820152600282015460408201526003820154606082015260048201546080820152600582015460a0820152600682015460c0820152600782015460e0820152600882015461010082015260099091015461012090910152905090565b60105481565b6002546040517f734e4a1600000000000000000000000000000000000000000000000000000000815273__LibTournamentEntrantMethods___________9163734e4a169161103e9160119160169173ffffffffffffffffffffffffffffffffffffffff1690600401612776565b60006040518083038186803b15801561105657600080fd5b505af415801561106a573d6000803e3d6000fd5b50505050565b3360009081526012602052604090205460ff16151561108e57600080fd5b6011546040517f5fbb3d346317d5ecdb86412d4c69c7503ff4dbed1eccd4cb6290453ea0b1a322916110c8916000199091019084906128e6565b60405180910390a150565b73ffffffffffffffffffffffffffffffffffffffff166000908152601a602052604090205460ff1690565b336000908152601a602052604090205460ff1680151561111d57600080fd5b6002546040517fddc23bd000000000000000000000000000000000000000000000000000000000815273__LibTournamentEntrantMethods___________9163ddc23bd09161069b9160119160169173ffffffffffffffffffffffffffffffffffffffff1690600401612776565b60175490565b60035473ffffffffffffffffffffffffffffffffffffffff1681565b60058054604080516020601f60026000196101006001881615020190951694909404938401819004810282018101909252828152606093909290918301828280156112395780601f1061120e57610100808354040283529160200191611239565b820191906000526020600020905b81548152906001019060200180831161121c57829003601f168201915b5050505050905090565b61124b6119d8565b6112536119d8565b600b548152600c54816001610c9e565b60045473ffffffffffffffffffffffffffffffffffffffff1690565b601b5490565b60008073__LibTournamentStateManagement__________630386922b60116040518263ffffffff167c01000000000000000000000000000000000000000000000000000000000281526004016112dc9190612678565b604080518083038186803b1580156112f357600080fd5b505af4158015611307573d6000803e3d6000fd5b505050506040513d601f19601f8201168201806040525061132b91908101906120f4565b915091509091565b60045473ffffffffffffffffffffffffffffffffffffffff1681565b60045473ffffffffffffffffffffffffffffffffffffffff16331461137357600080fd5b6001546002546040517f5014b85100000000000000000000000000000000000000000000000000000000815273__LibTournamentAdminMethods_____________92635014b851926113ed9260119273ffffffffffffffffffffffffffffffffffffffff9081169216908a908a908a908a9060040161270a565b60006040518083038186803b15801561140557600080fd5b505af4158015611419573d6000803e3d6000fd5b5050505050505050565b60045473ffffffffffffffffffffffffffffffffffffffff16331461144757600080fd5b6001546002546040517fa91d59d600000000000000000000000000000000000000000000000000000000815273__LibTournamentAdminMethods_____________9263a91d59d69261103e9260119273ffffffffffffffffffffffffffffffffffffffff908116921690600401612686565b60015460009073ffffffffffffffffffffffffffffffffffffffff1633146114e057600080fd5b73ffffffffffffffffffffffffffffffffffffffff80831660009081526019602090815260408083209387168352929052205460ff16151561152157600080fd5b60175461153590600163ffffffff6119b716565b60175573ffffffffffffffffffffffffffffffffffffffff8083166000908152601860209081526040808320601983528184209488168452939091529020600101548154811061158157fe5b6000918252602080832090910180547fffffffffffffffffffffffff000000000000000000000000000000000000000016905573ffffffffffffffffffffffffffffffffffffffff848116835260198252604080842091871684529152812080547fffffffffffffffffffffffffffffffffffffffffffffffffffffffffffffff00168155600190810191909155905092915050565b60045473ffffffffffffffffffffffffffffffffffffffff16331461163b57600080fd5b6001546040517f45fbeca000000000000000000000000000000000000000000000000000000000815273__LibTournamentAdminMethods_____________916345fbeca0916116ac916005918791879173ffffffffffffffffffffffffffffffffffffffff9091169060040161285b565b60006040518083038186803b1580156116c457600080fd5b505af41580156116d8573d6000803e3d6000fd5b505050505050565b60045473ffffffffffffffffffffffffffffffffffffffff16331461170457600080fd5b6040517faf41094900000000000000000000000000000000000000000000000000000000815273__LibTournamentAdminMethods_____________9063af4109499061103e90601190600401612678565b60045473ffffffffffffffffffffffffffffffffffffffff16331461177957600080fd5b6002546040517f672ec62300000000000000000000000000000000000000000000000000000000815273__LibTournamentAdminMethods_____________9163672ec6239161069b91601191869173ffffffffffffffffffffffffffffffffffffffff1690600401612807565b60015473ffffffffffffffffffffffffffffffffffffffff1681565b33600090815260186020908152604091829020805483518184028101840190945280845260609384939092919083018282801561187557602002820191906000526020600020905b815473ffffffffffffffffffffffffffffffffffffffff16815260019091019060200180831161184a575b50939695505050505050565b600e5490565b600f5481565b60045473ffffffffffffffffffffffffffffffffffffffff1633146118b157600080fd5b73ffffffffffffffffffffffffffffffffffffffff811615156118d357600080fd5b600080547fffffffffffffffffffffffff00000000000000000000000000000000000000001673ffffffffffffffffffffffffffffffffffffffff92909216919091179055565b6014546013546002546040517f70a0823100000000000000000000000000000000000000000000000000000000815260009361078e9390926119839273ffffffffffffffffffffffffffffffffffffffff909116906370a082319061073090309060040161259b565b9063ffffffff6119c916565b611997611a47565b61199f611a47565b60065481526007546020820152600854816002610c9e565b6000828211156119c357fe5b50900390565b600082820183811015610eba57fe5b60408051808201825290600290829080388339509192915050565b6040805161014081018252606080825260006020830181905292820183905281018290526080810182905260a0810182905260c0810182905260e08101829052610100810182905261012081019190915290565b6060604051908101604052806003906020820280388339509192915050565b6000610eba82356129a8565b6000610eba82516129a8565b6000601f82018313611a8f57600080fd5b8135611aa2611a9d82612928565b612901565b91508181835260208401935060208101905083856020840282011115611ac757600080fd5b60005b83811015611af35781611add8882611a66565b8452506020928301929190910190600101611aca565b5050505092915050565b6000601f82018313611b0e57600080fd5b8135611b1c611a9d82612928565b91508181835260208401935060208101905083856020840282011115611b4157600080fd5b60005b83811015611af35781611b578882611e28565b8452506020928301929190910190600101611b44565b6000601f82018313611b7e57600080fd5b8135611b8c611a9d82612928565b91508181835260208401935060208101905083856020840282011115611bb157600080fd5b60005b83811015611af35781611bc78882611bf5565b8452506020928301929190910190600101611bb4565b6000610eba82356129c1565b6000610eba82516129c1565b6000610eba8235612995565b6000601f82018313611c1257600080fd5b8135611c20611a9d82612949565b91508082526020830160208301858383011115611c3c57600080fd5b611c478382846129db565b50505092915050565b600060808284031215611c6257600080fd5b611c6c6080612901565b90506000611c7a8484611bf5565b8252506020611c8b84848301611bf5565b6020830152506040611c9f84828501611bf5565b6040830152506060611cb384828501611bf5565b60608301525092915050565b600060808284031215611cd157600080fd5b611cdb6080612901565b9050813567ffffffffffffffff811115611cf457600080fd5b611d0084828501611c01565b8252506020611d1184848301611a66565b602083015250604082013567ffffffffffffffff811115611d3157600080fd5b611d3d84828501611c01565b6040830152506060611cb384828501611bdd565b60006101208284031215611d6457600080fd5b611d6f610120612901565b90506000611d7d8484611bf5565b8252506020611d8e84848301611bf5565b6020830152506040611da284828501611bf5565b6040830152506060611db684828501611bf5565b6060830152506080611dca84828501611bf5565b60808301525060a0611dde84828501611bf5565b60a08301525060c0611df284828501611bf5565b60c08301525060e0611e0684828501611bf5565b60e083015250610100611e1b84828501611bdd565b6101008301525092915050565b6000610eba82356129c6565b6000610eba8251612995565b600060208284031215611e5257600080fd5b6000611e5e8484611a66565b949350505050565b600060208284031215611e7857600080fd5b6000611e5e8484611a72565b60008060408385031215611e9757600080fd5b6000611ea38585611a66565b9250506020611eb485828601611a66565b9150509250929050565b60008060008060808587031215611ed457600080fd5b843567ffffffffffffffff811115611eeb57600080fd5b611ef787828801611a7e565b945050602085013567ffffffffffffffff811115611f1457600080fd5b611f2087828801611afd565b935050604085013567ffffffffffffffff811115611f3d57600080fd5b611f4987828801611a7e565b925050606085013567ffffffffffffffff811115611f6657600080fd5b611f7287828801611cbf565b91505092959194509250565b60008060008060e08587031215611f9457600080fd5b843567ffffffffffffffff811115611fab57600080fd5b611fb787828801611a7e565b945050602085013567ffffffffffffffff811115611fd457600080fd5b611fe087828801611b6d565b9350506040611ff187828801611c50565b92505060c0611f7287828801611bf5565b60006020828403121561201457600080fd5b6000611e5e8484611be9565b60006080828403121561203257600080fd5b6000611e5e8484611c50565b60008060a0838503121561205157600080fd5b600061205d8585611c50565b9250506080611eb485828601611bdd565b600080610140838503121561208257600080fd5b600061208e8585611d51565b92505061012083013567ffffffffffffffff8111156120ac57600080fd5b611eb485828601611c01565b6000602082840312156120ca57600080fd5b6000611e5e8484611bf5565b6000602082840312156120e857600080fd5b6000611e5e8484611e34565b6000806040838503121561210757600080fd5b60006121138585611e34565b9250506020611eb485828601611a72565b6000806040838503121561213757600080fd5b60006121438585611bf5565b9250506020611eb485828601611bf5565b61215d816129a8565b82525050565b600061216e82612998565b8084526020840193506121808361298f565b60005b828110156121b057612196868351612154565b61219f8261298f565b602096909601959150600101612183565b5093949350505050565b60006121c582612998565b8084526020840193506121d78361298f565b60005b828110156121b0576121ed868351612154565b6121f68261298f565b6020969096019591506001016121da565b6122108161299c565b61221982612995565b60005b828110156106c75761222f85835161232e565b6122388261298f565b60209590950194915060010161221c565b612252816129a2565b61225b82612995565b60005b828110156106c75761227185835161232e565b61227a8261298f565b60209590950194915060010161225e565b600061229682612998565b8084526020840193506122a88361298f565b60005b828110156121b0576122be868351612592565b6122c78261298f565b6020969096019591506001016122ab565b60006122e382612998565b8084526020840193506122f58361298f565b60005b828110156121b05761230b86835161232e565b6123148261298f565b6020969096019591506001016122f8565b61215d816129c1565b61215d81612995565b600061234282612998565b8084526123568160208601602086016129e7565b61235f81612a13565b9093016020019392505050565b9052565b80516080830190612381848261232e565b506020820151612394602085018261232e565b5060408201516123a7604085018261232e565b50606082015161106a606085018261232e565b80516080808452600091908401906123d28282612337565b91505060208301516123e76020860182612154565b50604083015184820360408601526123ff8282612337565b91505060608301516124146060860182612325565b509392505050565b8051610140808452600091908401906124358282612337565b915050602083015161244a602086018261232e565b50604083015161245d604086018261232e565b506060830151612470606086018261232e565b506080830151612483608086018261232e565b5060a083015161249660a086018261232e565b5060c08301516124a960c086018261232e565b5060e08301516124bc60e086018261232e565b506101008301516124d161010086018261232e565b5061012083015161241461012086018261232e565b80516101208301906124f8848261232e565b50602082015161250b602085018261232e565b50604082015161251e604085018261232e565b506060820151612531606085018261232e565b506080820151612544608085018261232e565b5060a082015161255760a085018261232e565b5060c082015161256a60c085018261232e565b5060e082015161257d60e085018261232e565b5061010082015161106a610100850182612325565b61215d816129c6565b60208101610d8c8284612154565b604081016125b78285612154565b610eba602083018461232e565b60208082528101610eba8184612163565b60408101610d8c8284612207565b60608101610d8c8284612249565b60208101610d8c8284612325565b60e0810161260d828a61232e565b61261a602083018961232e565b612627604083018861232e565b612634606083018761232e565b612641608083018661232e565b61264e60a083018561232e565b61265b60c083018461232e565b98975050505050505050565b60208082528101610eba8184612337565b60208101610d8c828461236c565b60608101612694828661236c565b6126a16020830185612154565b611e5e6040830184612154565b61012081016126bd828961236c565b6126ca6020830188612154565b6126d76040830187612154565b6126e46060830186612154565b6126f16080830185612370565b6126ff610100830184612325565b979650505050505050565b6101408101612719828a61236c565b6127266020830189612154565b6127336040830188612154565b818103606083015261274581876121ba565b9050818103608083015261275981866122d8565b905061276860a0830185612370565b61265b61012083018461232e565b60608101612784828661236c565b6126a1602083018561236c565b60e0810161279f828a61236c565b6127ac602083018961236c565b6127b96040830188612154565b81810360608301526127cb81876121ba565b905081810360808301526127df818661228b565b905081810360a08301526127f381856121ba565b905081810360c0830152610aa981846123ba565b60c08101612815828661236c565b6128226020830185612370565b611e5e60a0830184612154565b6060810161283d828661236c565b6126a1602083018561232e565b60208082528101610eba818461241c565b610180810161286a828761236c565b61287760208301866124e6565b81810361014083015261288a8185612337565b905061289a610160830184612154565b95945050505050565b608081016128b1828761236c565b6128be602083018661236c565b6128cb604083018561236c565b61289a6060830184612154565b60208101610d8c828461232e565b604081016128f4828561232e565b610eba6020830184612154565b60405181810167ffffffffffffffff8111828210171561292057600080fd5b604052919050565b600067ffffffffffffffff82111561293f57600080fd5b5060209081020190565b600067ffffffffffffffff82111561296057600080fd5b506020601f919091017fffffffffffffffffffffffffffffffffffffffffffffffffffffffffffffffe0160190565b60200190565b90565b5190565b50600290565b50600390565b73ffffffffffffffffffffffffffffffffffffffff1690565b151590565b6fffffffffffffffffffffffffffffffff1690565b82818337506000910152565b60005b83811015612a025781810151838201526020016129ea565b8381111561106a5750506000910152565b601f017fffffffffffffffffffffffffffffffffffffffffffffffffffffffffffffffe016905600a265627a7a72305820edc9a88fd5389b552e3580df77671242cb222bf2f3efce7caaac4e4d002b89ed6c6578706572696d656e74616cf50037a265627a7a723058201a85ec8f853d89185d52119f6b86a673e33be3217888487578d7eae824c282706c6578706572696d656e74616cf50037",
  "source": "pragma solidity ^0.4.18;\npragma experimental ABIEncoderV2;\n\nimport \"../../libraries/LibConstruction.sol\";\nimport '../MatryxTournament.sol';\nimport '../Ownable.sol';\n\ncontract MatryxTournamentFactory is Ownable {\n\taddress public matryxTokenAddress;\n\taddress public platformAddress;\n\taddress public matryxRoundFactoryAddress;\n\n\tfunction MatryxTournamentFactory(address _matryxTokenAddress, address _matryxRoundFactoryAddress) public {\n\t\tmatryxTokenAddress = _matryxTokenAddress;\n\t\tmatryxRoundFactoryAddress = _matryxRoundFactoryAddress;\n\t}\n\n\tfunction createTournament(string _category, LibConstruction.TournamentData tournamentData, LibConstruction.RoundData roundData, address _owner) returns (address _tournamentAddress) {\n\t\tMatryxTournament newTournament = new MatryxTournament(_category, tournamentData, roundData, platformAddress, matryxTokenAddress, matryxRoundFactoryAddress, _owner);\n\t\treturn newTournament;\n\t}\n\n\tfunction setPlatform(address _platformAddress) public onlyOwner\n\t{\n\t\tplatformAddress = _platformAddress;\n\t}\n}",
  "sourcePath": "/Users/maxhoward/Desktop/Ethereum/Development/Matryx/Projects/MatryxPlatform/contracts/factories/MatryxTournamentFactory.sol",
  "compiler": {
    "name": "solc",
    "version": "0.4.24+commit.e67f0147.Emscripten.clang"
  },
  "schemaVersion": "2.0.0",
  "updatedAt": "2018-07-03T18:30:56.941Z"
}