{
  "contractName": "MatryxSubmission",
  "abi": [
    {
      "constant": true,
      "inputs": [],
      "name": "approvedReferences",
      "outputs": [
        {
          "name": "",
          "type": "uint256"
        }
      ],
      "payable": false,
      "stateMutability": "view",
      "type": "function"
    },
    {
      "constant": true,
      "inputs": [],
      "name": "contributorBountyDivisor",
      "outputs": [
        {
          "name": "",
          "type": "uint128"
        }
      ],
      "payable": false,
      "stateMutability": "view",
      "type": "function"
    },
    {
      "constant": true,
      "inputs": [
        {
          "name": "_sender",
          "type": "address"
        }
      ],
      "name": "isOwner",
      "outputs": [
        {
          "name": "_isOwner",
          "type": "bool"
        }
      ],
      "payable": false,
      "stateMutability": "view",
      "type": "function"
    },
    {
      "constant": true,
      "inputs": [
        {
          "name": "",
          "type": "address"
        }
      ],
      "name": "contributorToBountyDividend",
      "outputs": [
        {
          "name": "",
          "type": "uint128"
        }
      ],
      "payable": false,
      "stateMutability": "view",
      "type": "function"
    },
    {
      "constant": true,
      "inputs": [],
      "name": "trustDelegate",
      "outputs": [
        {
          "name": "",
          "type": "address"
        }
      ],
      "payable": false,
      "stateMutability": "view",
      "type": "function"
    },
    {
      "constant": true,
      "inputs": [],
      "name": "approvalTrust",
      "outputs": [
        {
          "name": "",
          "type": "uint128"
        }
      ],
      "payable": false,
      "stateMutability": "view",
      "type": "function"
    },
    {
      "constant": true,
      "inputs": [
        {
          "name": "",
          "type": "uint256"
        }
      ],
      "name": "approvingPeers",
      "outputs": [
        {
          "name": "",
          "type": "address"
        }
      ],
      "payable": false,
      "stateMutability": "view",
      "type": "function"
    },
    {
      "constant": true,
      "inputs": [],
      "name": "getOwner",
      "outputs": [
        {
          "name": "_owner",
          "type": "address"
        }
      ],
      "payable": false,
      "stateMutability": "view",
      "type": "function"
    },
    {
      "constant": true,
      "inputs": [],
      "name": "owner",
      "outputs": [
        {
          "name": "",
          "type": "address"
        }
      ],
      "payable": false,
      "stateMutability": "view",
      "type": "function"
    },
    {
      "constant": true,
      "inputs": [
        {
          "name": "",
          "type": "uint256"
        }
      ],
      "name": "missingReferences",
      "outputs": [
        {
          "name": "",
          "type": "address"
        }
      ],
      "payable": false,
      "stateMutability": "view",
      "type": "function"
    },
    {
      "constant": true,
      "inputs": [],
      "name": "totalReferenceCount",
      "outputs": [
        {
          "name": "",
          "type": "uint256"
        }
      ],
      "payable": false,
      "stateMutability": "view",
      "type": "function"
    },
    {
      "constant": true,
      "inputs": [],
      "name": "isPublic",
      "outputs": [
        {
          "name": "",
          "type": "bool"
        }
      ],
      "payable": false,
      "stateMutability": "view",
      "type": "function"
    },
    {
      "constant": true,
      "inputs": [],
      "name": "totalPossibleTrust",
      "outputs": [
        {
          "name": "",
          "type": "uint256"
        }
      ],
      "payable": false,
      "stateMutability": "view",
      "type": "function"
    },
    {
      "constant": false,
      "inputs": [
        {
          "name": "newOwner",
          "type": "address"
        }
      ],
      "name": "transferOwnership",
      "outputs": [],
      "payable": false,
      "stateMutability": "nonpayable",
      "type": "function"
    },
    {
      "inputs": [
        {
          "name": "_contributors",
          "type": "address[]"
        },
        {
          "name": "_contributorRewardDistribution",
          "type": "uint128[]"
        },
        {
          "name": "_references",
          "type": "address[]"
        },
        {
          "components": [
            {
              "name": "platformAddress",
              "type": "address"
            },
            {
              "name": "tournamentAddress",
              "type": "address"
            },
            {
              "name": "roundAddress",
              "type": "address"
            }
          ],
          "name": "requiredAddresses",
          "type": "tuple"
        },
        {
          "components": [
            {
              "name": "title",
              "type": "string"
            },
            {
              "name": "owner",
              "type": "address"
            },
            {
              "name": "contentHash",
              "type": "bytes"
            },
            {
              "name": "isPublic",
              "type": "bool"
            }
          ],
          "name": "submissionData",
          "type": "tuple"
        }
      ],
      "payable": false,
      "stateMutability": "nonpayable",
      "type": "constructor"
    },
    {
      "constant": true,
      "inputs": [],
      "name": "getTournament",
      "outputs": [
        {
          "name": "",
          "type": "address"
        }
      ],
      "payable": false,
      "stateMutability": "view",
      "type": "function"
    },
    {
      "constant": true,
      "inputs": [],
      "name": "getRound",
      "outputs": [
        {
          "name": "",
          "type": "address"
        }
      ],
      "payable": false,
      "stateMutability": "view",
      "type": "function"
    },
    {
      "constant": true,
      "inputs": [
        {
          "name": "_requester",
          "type": "address"
        }
      ],
      "name": "isAccessible",
      "outputs": [
        {
          "name": "",
          "type": "bool"
        }
      ],
      "payable": false,
      "stateMutability": "view",
      "type": "function"
    },
    {
      "constant": true,
      "inputs": [],
      "name": "getTitle",
      "outputs": [
        {
          "name": "",
          "type": "string"
        }
      ],
      "payable": false,
      "stateMutability": "view",
      "type": "function"
    },
    {
      "constant": true,
      "inputs": [],
      "name": "getAuthor",
      "outputs": [
        {
          "name": "",
          "type": "address"
        }
      ],
      "payable": false,
      "stateMutability": "view",
      "type": "function"
    },
    {
      "constant": true,
      "inputs": [],
      "name": "getExternalAddress",
      "outputs": [
        {
          "name": "",
          "type": "bytes"
        }
      ],
      "payable": false,
      "stateMutability": "view",
      "type": "function"
    },
    {
      "constant": true,
      "inputs": [],
      "name": "getReferences",
      "outputs": [
        {
          "name": "",
          "type": "address[]"
        }
      ],
      "payable": false,
      "stateMutability": "view",
      "type": "function"
    },
    {
      "constant": true,
      "inputs": [],
      "name": "getContributors",
      "outputs": [
        {
          "name": "",
          "type": "address[]"
        }
      ],
      "payable": false,
      "stateMutability": "view",
      "type": "function"
    },
    {
      "constant": true,
      "inputs": [],
      "name": "getTimeSubmitted",
      "outputs": [
        {
          "name": "",
          "type": "uint256"
        }
      ],
      "payable": false,
      "stateMutability": "view",
      "type": "function"
    },
    {
      "constant": true,
      "inputs": [],
      "name": "getTimeUpdated",
      "outputs": [
        {
          "name": "",
          "type": "uint256"
        }
      ],
      "payable": false,
      "stateMutability": "view",
      "type": "function"
    },
    {
      "constant": false,
      "inputs": [
        {
          "name": "_contributorsToAdd",
          "type": "address[]"
        },
        {
          "name": "_contributorRewardDistribution",
          "type": "uint128[]"
        },
        {
          "name": "_contributorsToRemove",
          "type": "address[]"
        },
        {
          "components": [
            {
              "name": "title",
              "type": "string"
            },
            {
              "name": "owner",
              "type": "address"
            },
            {
              "name": "contentHash",
              "type": "bytes"
            },
            {
              "name": "isPublic",
              "type": "bool"
            }
          ],
          "name": "_data",
          "type": "tuple"
        }
      ],
      "name": "update",
      "outputs": [],
      "payable": false,
      "stateMutability": "nonpayable",
      "type": "function"
    },
    {
      "constant": false,
      "inputs": [
        {
          "name": "_public",
          "type": "bool"
        }
      ],
      "name": "updateIsPublic",
      "outputs": [],
      "payable": false,
      "stateMutability": "nonpayable",
      "type": "function"
    },
    {
      "constant": false,
      "inputs": [
        {
          "name": "_title",
          "type": "string"
        }
      ],
      "name": "updateTitle",
      "outputs": [],
      "payable": false,
      "stateMutability": "nonpayable",
      "type": "function"
    },
    {
      "constant": false,
      "inputs": [
        {
          "name": "_externalAddress",
          "type": "bytes"
        }
      ],
      "name": "updateExternalAddress",
      "outputs": [],
      "payable": false,
      "stateMutability": "nonpayable",
      "type": "function"
    },
    {
      "constant": false,
      "inputs": [
        {
          "name": "_newTrustDelegate",
          "type": "address"
        }
      ],
      "name": "setTrustDelegate",
      "outputs": [],
      "payable": false,
      "stateMutability": "nonpayable",
      "type": "function"
    },
    {
      "constant": false,
      "inputs": [
        {
          "name": "_reference",
          "type": "address"
        }
      ],
      "name": "addReference",
      "outputs": [],
      "payable": false,
      "stateMutability": "nonpayable",
      "type": "function"
    },
    {
      "constant": false,
      "inputs": [
        {
          "name": "_reference",
          "type": "address"
        }
      ],
      "name": "removeReference",
      "outputs": [],
      "payable": false,
      "stateMutability": "nonpayable",
      "type": "function"
    },
    {
      "constant": false,
      "inputs": [],
      "name": "receiveReferenceRequest",
      "outputs": [],
      "payable": false,
      "stateMutability": "nonpayable",
      "type": "function"
    },
    {
      "constant": false,
      "inputs": [],
      "name": "cancelReferenceRequest",
      "outputs": [],
      "payable": false,
      "stateMutability": "nonpayable",
      "type": "function"
    },
    {
      "constant": false,
      "inputs": [
        {
          "name": "_reference",
          "type": "address"
        }
      ],
      "name": "approveReference",
      "outputs": [],
      "payable": false,
      "stateMutability": "nonpayable",
      "type": "function"
    },
    {
      "constant": false,
      "inputs": [
        {
          "name": "_reference",
          "type": "address"
        }
      ],
      "name": "removeReferenceApproval",
      "outputs": [],
      "payable": false,
      "stateMutability": "nonpayable",
      "type": "function"
    },
    {
      "constant": false,
      "inputs": [
        {
          "name": "_reference",
          "type": "address"
        }
      ],
      "name": "flagMissingReference",
      "outputs": [],
      "payable": false,
      "stateMutability": "nonpayable",
      "type": "function"
    },
    {
      "constant": false,
      "inputs": [
        {
          "name": "_reference",
          "type": "address"
        }
      ],
      "name": "removeMissingReferenceFlag",
      "outputs": [],
      "payable": false,
      "stateMutability": "nonpayable",
      "type": "function"
    },
    {
      "constant": false,
      "inputs": [
        {
          "name": "_contributor",
          "type": "address"
        },
        {
          "name": "_bountyAllocation",
          "type": "uint128"
        }
      ],
      "name": "addContributor",
      "outputs": [],
      "payable": false,
      "stateMutability": "nonpayable",
      "type": "function"
    },
    {
      "constant": false,
      "inputs": [
        {
          "name": "_contributorsToAdd",
          "type": "address[]"
        },
        {
          "name": "_distribution",
          "type": "uint128[]"
        }
      ],
      "name": "addContributors",
      "outputs": [],
      "payable": false,
      "stateMutability": "nonpayable",
      "type": "function"
    },
    {
      "constant": false,
      "inputs": [
        {
          "name": "_contributorIndex",
          "type": "uint256"
        }
      ],
      "name": "removeContributor",
      "outputs": [],
      "payable": false,
      "stateMutability": "nonpayable",
      "type": "function"
    },
    {
      "constant": false,
      "inputs": [
        {
          "name": "_contributorsToRemove",
          "type": "address[]"
        }
      ],
      "name": "removeContributors",
      "outputs": [],
      "payable": false,
      "stateMutability": "nonpayable",
      "type": "function"
    },
    {
      "constant": false,
      "inputs": [],
      "name": "getBalance",
      "outputs": [
        {
          "name": "",
          "type": "uint256"
        }
      ],
      "payable": false,
      "stateMutability": "nonpayable",
      "type": "function"
    },
    {
      "constant": false,
      "inputs": [
        {
          "name": "_recipient",
          "type": "address"
        }
      ],
      "name": "withdrawReward",
      "outputs": [],
      "payable": false,
      "stateMutability": "nonpayable",
      "type": "function"
    },
    {
      "constant": true,
      "inputs": [],
      "name": "getTransferAmount",
      "outputs": [
        {
          "name": "",
          "type": "uint256"
        }
      ],
      "payable": false,
      "stateMutability": "view",
      "type": "function"
    }
  ],
  "bytecode": "0x608060408190526017805460a860020a63ffffffff021916780fb3395c0000000000000000000000000000000000000000001760c860020a63ffffffff0219167c23bab50b00000000000000000000000000000000000000000000000000179055601880547f72657665727449665265666572656e6365466c616767656428616464726573739092527f290000000000000000000000000000000000000000000000000000000000000060a05263ffffffff1990911663e7139ec01767ffffffff00000000191667e4e3e83a0000000017604060020a63ffffffff0219166b32c9c9d3000000000000000017606060020a63ffffffff0219166f0cbfdb2d00000000000000000000000017608060020a63ffffffff02191673b57e2855000000000000000000000000000000001790553480156200013c57600080fd5b50604051620041c8380380620041c88339810180604052620001629190810190620009a8565b6000805433600160a060020a03199182161782558351600180548316600160a060020a0392831617905560208086015160028054851691841691909117905560408601516003805490941692169190911790915582518051620001ca926004920190620005b6565b50602082015160008054600160a060020a031916600160a060020a0392831617908190556001546040517f6a44e43d00000000000000000000000000000000000000000000000000000000815290831692636a44e43d92620002329291169060040162000a98565b602060405180830381600087803b1580156200024d57600080fd5b505af115801562000262573d6000803e3d6000fd5b505050506040513d601f19601f820116820180604052506200028891908101906200097f565b60058054600160a060020a031916600160a060020a039283161790819055161515620002b357600080fd5b60408201518051620002ce91600691602090910190620005b6565b508351620002e49060079060208701906200063b565b508260000151600160a060020a031663f3dc0d256040518163ffffffff167c0100000000000000000000000000000000000000000000000000000000028152600401602060405180830381600087803b1580156200034157600080fd5b505af115801562000356573d6000803e3d6000fd5b505050506040513d601f19601f820116820180604052506200037c91908101906200097f565b601780546060850151151560ff19600160a060020a03949094166101000261010060a860020a031990921691909117929092169190911790555060005b60075463ffffffff8216101562000489576001600e600060078463ffffffff16815481101515620003e657fe5b6000918252602080832090910154600160a060020a03168352820192909252604001812080549215156401000000000264ff000000001990931692909217909155600780548392600e92909163ffffffff85169081106200044357fe5b600091825260208083209190910154600160a060020a031683528201929092526040019020805463ffffffff191663ffffffff92909216919091179055600101620003b9565b6200049e8686640100000000620004c5810204565b8551620004b39060129060208901906200063b565b5050426015555062000b6e9350505050565b8051825160009114620004d757600080fd5b5060005b82518163ffffffff161015620005b157818163ffffffff168151811015156200050057fe5b6020908102919091010151601480546001608060020a031981166001608060020a03918216909301169190911790558151829063ffffffff83169081106200054457fe5b9060200190602002015160136000858463ffffffff168151811015156200056757fe5b602090810291909101810151600160a060020a0316825281019190915260400160002080546001608060020a0319166001608060020a0392909216919091179055600101620004db565b505050565b828054600181600116156101000203166002900490600052602060002090601f016020900481019282601f10620005f957805160ff191683800117855562000629565b8280016001018555821562000629579182015b82811115620006295782518255916020019190600101906200060c565b5062000637929150620006a1565b5090565b82805482825590600052602060002090810192821562000693579160200282015b82811115620006935782518254600160a060020a031916600160a060020a039091161782556020909201916001909101906200065c565b5062000637929150620006c1565b620006be91905b80821115620006375760008155600101620006a8565b90565b620006be91905b8082111562000637578054600160a060020a0319168155600101620006c8565b6000620006f6825162000b1e565b9392505050565b6000601f820183136200070f57600080fd5b815162000726620007208262000ad5565b62000aae565b915081818352602084019350602081019050838560208402820111156200074c57600080fd5b60005b838110156200077c5781620007658882620006e8565b84525060209283019291909101906001016200074f565b5050505092915050565b6000601f820183136200079857600080fd5b8151620007a9620007208262000ad5565b91508181835260208401935060208101905083856020840282011115620007cf57600080fd5b60005b838110156200077c5781620007e8888262000971565b8452506020928301929190910190600101620007d2565b6000620006f6825162000b2a565b6000601f820183136200081f57600080fd5b815162000830620007208262000af6565b915080825260208301602083018583830111156200084d57600080fd5b6200085a83828462000b3b565b50505092915050565b6000606082840312156200087657600080fd5b62000882606062000aae565b90506000620008928484620006e8565b8252506020620008a584848301620006e8565b6020830152506040620008bb84828501620006e8565b60408301525092915050565b600060808284031215620008da57600080fd5b620008e6608062000aae565b82519091506001604060020a038111156200090057600080fd5b6200090e848285016200080d565b82525060206200092184848301620006e8565b60208301525060408201516001604060020a038111156200094157600080fd5b6200094f848285016200080d565b60408301525060606200096584828501620007ff565b60608301525092915050565b6000620006f6825162000b2f565b6000602082840312156200099257600080fd5b6000620009a08484620006e8565b949350505050565b600080600080600060e08688031215620009c157600080fd5b85516001604060020a03811115620009d857600080fd5b620009e688828901620006fd565b95505060208601516001604060020a0381111562000a0357600080fd5b62000a118882890162000786565b94505060408601516001604060020a0381111562000a2e57600080fd5b62000a3c88828901620006fd565b935050606062000a4f8882890162000863565b92505060c08601516001604060020a0381111562000a6c57600080fd5b62000a7a88828901620008c7565b9150509295509295909350565b62000a928162000b1e565b82525050565b6020810162000aa8828462000a87565b92915050565b6040518181016001604060020a038111828210171562000acd57600080fd5b604052919050565b60006001604060020a0382111562000aec57600080fd5b5060209081020190565b60006001604060020a0382111562000b0d57600080fd5b506020601f91909101601f19160190565b600160a060020a031690565b151590565b6001608060020a031690565b60005b8381101562000b5857818101518382015260200162000b3e565b8381111562000b68576000848401525b50505050565b61364a8062000b7e6000396000f3006080604052600436106102195763ffffffff7c01000000000000000000000000000000000000000000000000000000006000350416630cbfdb2d811461021e5780630fb3395c1461024057806310f835301461026057806312065fe0146102805780631abaf3fc146102ab5780631af73c32146102c057806323bab50b146102e057806329f9e665146103005780632f54bf6e1461032257806332c9c9d31461034f57806337fb13b01461036f57806339408c271461038f578063444e31ca146103af5780634586de5d146103c45780635c11a3e4146103e45780636948f406146104065780636e27bcc61461042657806374756091146104485780637a6337fa1461046857806382966f8b1461048a578063890545831461049f578063893d20e8146104bf5780638da5cb5b146104d45780638efa5410146104e95780639c1b92a1146104fe5780639f8743f71461051e578063a33d954314610533578063a52dd12f14610548578063a5faa12514610568578063ae1ca6921461057d578063af157c1914610592578063b86e321c146105a7578063c7af3551146105c7578063c8656978146105dc578063d3dc4c37146105f1578063dc9a153514610611578063e4e3e83a14610626578063e7139ec014610646578063e76c293e14610666578063e786bb981461067b578063e9946c231461069b578063f2fde38b146106b0578063f889b6d4146106d0578063ff3c1a8f146106f0575b600080fd5b34801561022a57600080fd5b5061023e6102393660046130ea565b610705565b005b34801561024c57600080fd5b5061023e61025b3660046130ea565b6108c3565b34801561026c57600080fd5b5061023e61027b3660046132f8565b610984565b34801561028c57600080fd5b50610295610a76565b6040516102a291906134c1565b60405180910390f35b3480156102b757600080fd5b50610295610b2e565b3480156102cc57600080fd5b5061023e6102db366004613168565b610b34565b3480156102ec57600080fd5b5061023e6102fb3660046130ea565b610c71565b34801561030c57600080fd5b50610315610d33565b6040516102a291906134b3565b34801561032e57600080fd5b5061034261033d3660046130ea565b610d4b565b6040516102a29190613486565b34801561035b57600080fd5b5061023e61036a3660046130ea565b610d6c565b34801561037b57600080fd5b5061023e61038a3660046132f8565b610f26565b34801561039b57600080fd5b5061023e6103aa3660046131fc565b611014565b3480156103bb57600080fd5b5061023e61114b565b3480156103d057600080fd5b506103156103df3660046130ea565b611188565b3480156103f057600080fd5b506103f96111ac565b6040516102a29190613494565b34801561041257600080fd5b5061023e61042136600461319d565b611273565b34801561043257600080fd5b5061043b6112a1565b6040516102a29190613431565b34801561045457600080fd5b5061023e61046336600461332d565b6112c2565b34801561047457600080fd5b5061047d611440565b6040516102a29190613475565b34801561049657600080fd5b506103156114c4565b3480156104ab57600080fd5b5061043b6104ba36600461332d565b6114dc565b3480156104cb57600080fd5b5061043b611511565b3480156104e057600080fd5b5061043b61152e565b3480156104f557600080fd5b5061029561154a565b34801561050a57600080fd5b5061043b61051936600461332d565b611550565b34801561052a57600080fd5b5061043b61155e565b34801561053f57600080fd5b5061029561157a565b34801561055457600080fd5b506103426105633660046130ea565b6116c4565b34801561057457600080fd5b5061043b611e0d565b34801561058957600080fd5b50610295611e42565b34801561059e57600080fd5b5061047d611e48565b3480156105b357600080fd5b5061023e6105c23660046130ea565b611ecb565b3480156105d357600080fd5b5061023e6125c2565b3480156105e857600080fd5b506102956125fa565b3480156105fd57600080fd5b5061023e61060c3660046132bc565b612600565b34801561061d57600080fd5b50610342612655565b34801561063257600080fd5b5061023e6106413660046130ea565b61265e565b34801561065257600080fd5b5061023e6106613660046130ea565b612818565b34801561067257600080fd5b5061043b612952565b34801561068757600080fd5b5061023e6106963660046130ea565b61296e565b3480156106a757600080fd5b506102956129de565b3480156106bc57600080fd5b5061023e6106cb3660046130ea565b6129e4565b3480156106dc57600080fd5b5061023e6106eb36600461312e565b612a71565b3480156106fc57600080fd5b506103f9612bd5565b6001546040517f3e44cf7800000000000000000000000000000000000000000000000000000000815273ffffffffffffffffffffffffffffffffffffffff909116908190633e44cf789061075d903390600401613431565b602060405180830381600087803b15801561077757600080fd5b505af115801561078b573d6000803e3d6000fd5b505050506040513d601f19601f820116820180604052506107af91908101906132da565b15156107ba57600080fd5b601760019054906101000a900473ffffffffffffffffffffffffffffffffffffffff1673ffffffffffffffffffffffffffffffffffffffff166018600c9054906101000a90047c0100000000000000000000000000000000000000000000000000000000027c01000000000000000000000000000000000000000000000000000000009004836040518263ffffffff167c0100000000000000000000000000000000000000000000000000000000028152600401808273ffffffffffffffffffffffffffffffffffffffff1673ffffffffffffffffffffffffffffffffffffffff168152602001915050600060405180830381865af49250505015156108bf57600080fd5b5050565b60005473ffffffffffffffffffffffffffffffffffffffff1633146108e757600080fd5b6017546040805163ffffffff7c010000000000000000000000000000000000000000000000000000000075010000000000000000000000000000000000000000008504810281900491821602825273ffffffffffffffffffffffffffffffffffffffff85811660048401529251610100909404929092169260248083019260009291908290030181865af492505050151561098157600080fd5b50565b60005473ffffffffffffffffffffffffffffffffffffffff1633146109a857600080fd5b600354604080517f1865c57d000000000000000000000000000000000000000000000000000000008152905173ffffffffffffffffffffffffffffffffffffffff909216918291631865c57d9160048083019260209291908290030181600087803b158015610a1657600080fd5b505af1158015610a2a573d6000803e3d6000fd5b505050506040513d601f19601f82011682018060405250610a4e919081019061334b565b600114610a5a57600080fd5b8151610a6d906006906020850190612e0f565b50504260165550565b6003546040517ff8b2cb4f00000000000000000000000000000000000000000000000000000000815260009173ffffffffffffffffffffffffffffffffffffffff16908290829063f8b2cb4f90610ad19030906004016134a5565b602060405180830381600087803b158015610aeb57600080fd5b505af1158015610aff573d6000803e3d6000fd5b505050506040513d601f19601f82011682018060405250610b23919081019061334b565b90508092505b505090565b60105481565b6000805473ffffffffffffffffffffffffffffffffffffffff163314610b5957600080fd5b5060005b81518163ffffffff1610156108bf5760136000838363ffffffff16815181101515610b8457fe5b602090810290910181015173ffffffffffffffffffffffffffffffffffffffff168252810191909152604001600090812054601480546fffffffffffffffffffffffffffffffff928316818416039092166fffffffffffffffffffffffffffffffff1990921691909117905582516013908290859063ffffffff8616908110610c0957fe5b60209081029190910181015173ffffffffffffffffffffffffffffffffffffffff16825281019190915260400160002080546fffffffffffffffffffffffffffffffff19166fffffffffffffffffffffffffffffffff92909216919091179055600101610b5d565b60005473ffffffffffffffffffffffffffffffffffffffff163314610c9557600080fd5b6017546040805163ffffffff7c01000000000000000000000000000000000000000000000000000000007901000000000000000000000000000000000000000000000000008504810281900491821602825273ffffffffffffffffffffffffffffffffffffffff85811660048401529251610100909404929092169260248083019260009291908290030181865af492505050151561098157600080fd5b6014546fffffffffffffffffffffffffffffffff1681565b60005473ffffffffffffffffffffffffffffffffffffffff91821691161490565b6001546040517f3e44cf7800000000000000000000000000000000000000000000000000000000815273ffffffffffffffffffffffffffffffffffffffff909116908190633e44cf7890610dc4903390600401613431565b602060405180830381600087803b158015610dde57600080fd5b505af1158015610df2573d6000803e3d6000fd5b505050506040513d601f19601f82011682018060405250610e1691908101906132da565b1515610e2157600080fd5b601760019054906101000a900473ffffffffffffffffffffffffffffffffffffffff1673ffffffffffffffffffffffffffffffffffffffff16601860089054906101000a90047c0100000000000000000000000000000000000000000000000000000000027c01000000000000000000000000000000000000000000000000000000009004836040518263ffffffff167c0100000000000000000000000000000000000000000000000000000000028152600401808273ffffffffffffffffffffffffffffffffffffffff1673ffffffffffffffffffffffffffffffffffffffff168152602001915050600060405180830381865af49250505015156108bf57600080fd5b60005473ffffffffffffffffffffffffffffffffffffffff163314610f4a57600080fd5b600354604080517f1865c57d000000000000000000000000000000000000000000000000000000008152905173ffffffffffffffffffffffffffffffffffffffff909216918291631865c57d9160048083019260209291908290030181600087803b158015610fb857600080fd5b505af1158015610fcc573d6000803e3d6000fd5b505050506040513d601f19601f82011682018060405250610ff0919081019061334b565b600114610ffc57600080fd5b815161100f906004906020850190612e0f565b505050565b6110296110248260000151612c65565b612c8b565b1515611047578051805161104591600491602090910190612e0f565b505b602081015173ffffffffffffffffffffffffffffffffffffffff16156110b1576020810151600080547fffffffffffffffffffffffff00000000000000000000000000000000000000001673ffffffffffffffffffffffffffffffffffffffff9092169190911790555b604081015151156110d757604081015180516110d591600691602090910190612e0f565b505b806060015115611116576060810151601780547fffffffffffffffffffffffffffffffffffffffffffffffffffffffffffffff00169115159190911790555b83511561113557825184511461112b57600080fd5b6111358484611273565b8151156111455761114582610b34565b50505050565b60015473ffffffffffffffffffffffffffffffffffffffff16331461116f57600080fd5b60115461118390600163ffffffff612c9016565b601155565b6013602052600090815260409020546fffffffffffffffffffffffffffffffff1681565b6060336111b8816116c4565b15156111c357600080fd5b6006805460408051602060026001851615610100027fffffffffffffffffffffffffffffffffffffffffffffffffffffffffffffffff0190941693909304601f810184900484028201840190925281815292918301828280156112675780601f1061123c57610100808354040283529160200191611267565b820191906000526020600020905b81548152906001019060200180831161124a57829003601f168201915b505050505091505b5090565b60005473ffffffffffffffffffffffffffffffffffffffff16331461129757600080fd5b6108bf8282612ca7565b601754610100900473ffffffffffffffffffffffffffffffffffffffff1681565b60005473ffffffffffffffffffffffffffffffffffffffff1633146112e657600080fd5b60005473ffffffffffffffffffffffffffffffffffffffff16331461130a57600080fd5b6013600060128381548110151561131d57fe5b600091825260208083209091015473ffffffffffffffffffffffffffffffffffffffff168352820192909252604001812054601480546fffffffffffffffffffffffffffffffff928316818416039092166fffffffffffffffffffffffffffffffff199092169190911790556012805460139183918590811061139c57fe5b60009182526020808320919091015473ffffffffffffffffffffffffffffffffffffffff168352820192909252604001902080546fffffffffffffffffffffffffffffffff19166fffffffffffffffffffffffffffffffff92909216919091179055601280548290811061140c57fe5b600091825260209091200180547fffffffffffffffffffffffff000000000000000000000000000000000000000016905550565b60603361144c816116c4565b151561145757600080fd5b600780548060200260200160405190810160405280929190818152602001828054801561126757602002820191906000526020600020905b815473ffffffffffffffffffffffffffffffffffffffff16815260019091019060200180831161148f57505050505091505090565b6009546fffffffffffffffffffffffffffffffff1681565b600b8054829081106114ea57fe5b60009182526020909120015473ffffffffffffffffffffffffffffffffffffffff16905081565b60005473ffffffffffffffffffffffffffffffffffffffff165b90565b60005473ffffffffffffffffffffffffffffffffffffffff1681565b60165490565b600d8054829081106114ea57fe5b60035473ffffffffffffffffffffffffffffffffffffffff1690565b6000806000611587610a76565b9150600a54600014156115b057600d54600010156115a85760009250610b29565b819250610b29565b600154604080517fb20a2dce00000000000000000000000000000000000000000000000000000000815290516116819273ffffffffffffffffffffffffffffffffffffffff169163b20a2dce9160048083019260209291908290030181600087803b15801561161e57600080fd5b505af1158015611632573d6000803e3d6000fd5b505050506040513d601f19601f82011682018060405250611656919081019061334b565b6009546fffffffffffffffffffffffffffffffff1690670de0b6b3a76400000363ffffffff612dbe16565b9050611698600a5482612de990919063ffffffff16565b90506116aa818363ffffffff612dbe16565b9050610b2381670de0b6b3a764000063ffffffff612de916565b600354600254604080517f2fc1f190000000000000000000000000000000000000000000000000000000008152905160009373ffffffffffffffffffffffffffffffffffffffff90811693169184918291829182918291829182918291829182918c91632fc1f1909160048082019260209290919082900301818787803b15801561174e57600080fd5b505af1158015611762573d6000803e3d6000fd5b505050506040513d601f19601f820116820180604052506117869190810190613110565b73ffffffffffffffffffffffffffffffffffffffff168e73ffffffffffffffffffffffffffffffffffffffff16149950600360009054906101000a900473ffffffffffffffffffffffffffffffffffffffff1673ffffffffffffffffffffffffffffffffffffffff168e73ffffffffffffffffffffffffffffffffffffffff161498506000809054906101000a900473ffffffffffffffffffffffffffffffffffffffff1673ffffffffffffffffffffffffffffffffffffffff168e73ffffffffffffffffffffffffffffffffffffffff16149750601760009054906101000a900460ff1696506002600360009054906101000a900473ffffffffffffffffffffffffffffffffffffffff1673ffffffffffffffffffffffffffffffffffffffff16631865c57d6040518163ffffffff167c0100000000000000000000000000000000000000000000000000000000028152600401602060405180830381600087803b1580156118f557600080fd5b505af1158015611909573d6000803e3d6000fd5b505050506040513d601f19601f8201168201806040525061192d919081019061334b565b10159550600260009054906101000a900473ffffffffffffffffffffffffffffffffffffffff1673ffffffffffffffffffffffffffffffffffffffff166352c01fab8f6040518263ffffffff167c01000000000000000000000000000000000000000000000000000000000281526004016119a89190613431565b602060405180830381600087803b1580156119c257600080fd5b505af11580156119d6573d6000803e3d6000fd5b505050506040513d601f19601f820116820180604052506119fa91908101906132da565b94508a73ffffffffffffffffffffffffffffffffffffffff16632f54bf6e8f6040518263ffffffff167c0100000000000000000000000000000000000000000000000000000000028152600401611a519190613431565b602060405180830381600087803b158015611a6b57600080fd5b505af1158015611a7f573d6000803e3d6000fd5b505050506040513d601f19601f82011682018060405250611aa391908101906132da565b9350600360009054906101000a900473ffffffffffffffffffffffffffffffffffffffff1673ffffffffffffffffffffffffffffffffffffffff16638499a1388f6040518263ffffffff167c0100000000000000000000000000000000000000000000000000000000028152600401611b1c9190613431565b602060405180830381600087803b158015611b3657600080fd5b505af1158015611b4a573d6000803e3d6000fd5b505050506040513d601f19601f82011682018060405250611b6e91908101906132da565b9250858015611b8957508380611b815750845b80611b895750825b600254604080517f1865c57d000000000000000000000000000000000000000000000000000000008152905192945060049273ffffffffffffffffffffffffffffffffffffffff90921691631865c57d9180850191602091819003860181600087803b158015611bf857600080fd5b505af1158015611c0c573d6000803e3d6000fd5b505050506040513d601f19601f82011682018060405250611c30919081019061334b565b101590508980611c3d5750885b80611c455750875b80611c4d5750865b80611c555750815b80611d245750600160009054906101000a900473ffffffffffffffffffffffffffffffffffffffff1673ffffffffffffffffffffffffffffffffffffffff16633e44cf788f6040518263ffffffff167c0100000000000000000000000000000000000000000000000000000000028152600401611cd29190613431565b602060405180830381600087803b158015611cec57600080fd5b505af1158015611d00573d6000803e3d6000fd5b505050506040513d601f19601f82011682018060405250611d2491908101906132da565b80611df35750600160009054906101000a900473ffffffffffffffffffffffffffffffffffffffff1673ffffffffffffffffffffffffffffffffffffffff1663818b5fa88f6040518263ffffffff167c0100000000000000000000000000000000000000000000000000000000028152600401611da19190613431565b602060405180830381600087803b158015611dbb57600080fd5b505af1158015611dcf573d6000803e3d6000fd5b505050506040513d601f19601f82011682018060405250611df391908101906132da565b80611dfb5750805b9e9d5050505050505050505050505050565b600033611e19816116c4565b1515611e2457600080fd5b505060055473ffffffffffffffffffffffffffffffffffffffff1690565b60155490565b606033611e54816116c4565b1515611e5f57600080fd5b60128054806020026020016040519081016040528092919081815260200182805480156112675760200282019190600052602060002090815473ffffffffffffffffffffffffffffffffffffffff16815260019091019060200180831161148f57505050505091505090565b6000806000806000806000806000806000806000809054906101000a900473ffffffffffffffffffffffffffffffffffffffff1673ffffffffffffffffffffffffffffffffffffffff163373ffffffffffffffffffffffffffffffffffffffff161480611f585750336000908152601360205260409020546fffffffffffffffffffffffffffffffff1615155b80611f7a575060035473ffffffffffffffffffffffffffffffffffffffff1633145b1515611f8557600080fd5b600160009054906101000a900473ffffffffffffffffffffffffffffffffffffffff1673ffffffffffffffffffffffffffffffffffffffff166310fe9ae86040518163ffffffff167c0100000000000000000000000000000000000000000000000000000000028152600401602060405180830381600087803b15801561200b57600080fd5b505af115801561201f573d6000803e3d6000fd5b505050506040513d601f19601f820116820180604052506120439190810190613110565b6040517f70a08231000000000000000000000000000000000000000000000000000000008152909c5073ffffffffffffffffffffffffffffffffffffffff8d16906370a0823190612098903090600401613431565b602060405180830381600087803b1580156120b257600080fd5b505af11580156120c6573d6000803e3d6000fd5b505050506040513d601f19601f820116820180604052506120ea919081019061334b565b9a506120f461157a565b99506121078a600263ffffffff612de916565b98508b73ffffffffffffffffffffffffffffffffffffffff1663a9059cbb8e8b6040518363ffffffff167c010000000000000000000000000000000000000000000000000000000002815260040161216092919061345a565b602060405180830381600087803b15801561217a57600080fd5b505af115801561218e573d6000803e3d6000fd5b505050506040513d601f19601f820116820180604052506121b291908101906132da565b506121c38a8a63ffffffff612c9016565b9750600096505b6012548710156123a85760128054889081106121e257fe5b60009182526020909120015473ffffffffffffffffffffffffffffffffffffffff161561239d57601454601280546122a2926fffffffffffffffffffffffffffffffff169161229691670de0b6b3a764000091601391600091908e90811061224657fe5b600091825260208083209091015473ffffffffffffffffffffffffffffffffffffffff1683528201929092526040019020546fffffffffffffffffffffffffffffffff169063ffffffff612dbe16565b9063ffffffff612de916565b95506122c0670de0b6b3a76400006122968a8963ffffffff612dbe16565b94508b73ffffffffffffffffffffffffffffffffffffffff1663a9059cbb6012898154811015156122ed57fe5b6000918252602090912001546040517c010000000000000000000000000000000000000000000000000000000063ffffffff84160281526123499173ffffffffffffffffffffffffffffffffffffffff1690899060040161345a565b602060405180830381600087803b15801561236357600080fd5b505af1158015612377573d6000803e3d6000fd5b505050506040513d601f19601f8201168201806040525061239b91908101906132da565b505b6001909601956121ca565b6123b88b8b63ffffffff612c9016565b9350600092505b6007548310156125b357600e60006007858154811015156123dc57fe5b600091825260208083209091015473ffffffffffffffffffffffffffffffffffffffff16835282019290925260400190205460ff6501000000000090910416156125a8576124ad600a54612296670de0b6b3a7640000600e600060078981548110151561244557fe5b600091825260208083209091015473ffffffffffffffffffffffffffffffffffffffff1683528201929092526040019020600101546fffffffffffffffffffffffffffffffff700100000000000000000000000000000000909104169063ffffffff612dbe16565b91506124cb670de0b6b3a7640000612296868563ffffffff612dbe16565b90508b73ffffffffffffffffffffffffffffffffffffffff1663a9059cbb6007858154811015156124f857fe5b6000918252602090912001546040517c010000000000000000000000000000000000000000000000000000000063ffffffff84160281526125549173ffffffffffffffffffffffffffffffffffffffff1690859060040161345a565b602060405180830381600087803b15801561256e57600080fd5b505af1158015612582573d6000803e3d6000fd5b505050506040513d601f19601f820116820180604052506125a691908101906132da565b505b6001909201916123bf565b50505050505050505050505050565b60015473ffffffffffffffffffffffffffffffffffffffff1633146125e657600080fd5b60115461118390600163ffffffff612e0016565b60115481565b60005473ffffffffffffffffffffffffffffffffffffffff16331461262457600080fd5b601780547fffffffffffffffffffffffffffffffffffffffffffffffffffffffffffffff0016911515919091179055565b60175460ff1681565b6001546040517f3e44cf7800000000000000000000000000000000000000000000000000000000815273ffffffffffffffffffffffffffffffffffffffff909116908190633e44cf78906126b6903390600401613431565b602060405180830381600087803b1580156126d057600080fd5b505af11580156126e4573d6000803e3d6000fd5b505050506040513d601f19601f8201168201806040525061270891908101906132da565b151561271357600080fd5b601760019054906101000a900473ffffffffffffffffffffffffffffffffffffffff1673ffffffffffffffffffffffffffffffffffffffff16601860049054906101000a90047c0100000000000000000000000000000000000000000000000000000000027c01000000000000000000000000000000000000000000000000000000009004836040518263ffffffff167c0100000000000000000000000000000000000000000000000000000000028152600401808273ffffffffffffffffffffffffffffffffffffffff1673ffffffffffffffffffffffffffffffffffffffff168152602001915050600060405180830381865af49250505015156108bf57600080fd5b6001546040517f3e44cf7800000000000000000000000000000000000000000000000000000000815273ffffffffffffffffffffffffffffffffffffffff909116908190633e44cf7890612870903390600401613431565b602060405180830381600087803b15801561288a57600080fd5b505af115801561289e573d6000803e3d6000fd5b505050506040513d601f19601f820116820180604052506128c291908101906132da565b15156128cd57600080fd5b601754601854604080517c010000000000000000000000000000000000000000000000000000000092830283900463ffffffff8116909302815273ffffffffffffffffffffffffffffffffffffffff868116600483015291516101009094049091169260248083019260009291908290030181865af49250505015156108bf57600080fd5b60025473ffffffffffffffffffffffffffffffffffffffff1690565b60015473ffffffffffffffffffffffffffffffffffffffff16331461299257600080fd5b6017805473ffffffffffffffffffffffffffffffffffffffff909216610100027fffffffffffffffffffffff0000000000000000000000000000000000000000ff909216919091179055565b600a5481565b60005473ffffffffffffffffffffffffffffffffffffffff163314612a0857600080fd5b73ffffffffffffffffffffffffffffffffffffffff81161515612a2a57600080fd5b600080547fffffffffffffffffffffffff00000000000000000000000000000000000000001673ffffffffffffffffffffffffffffffffffffffff92909216919091179055565b6000805473ffffffffffffffffffffffffffffffffffffffff163314612a9657600080fd5b5060128054600181019091557fbb8a6a4669ba250d26cd7a459eca9d215f8307e33aebe50379bc5a3617ec34440180547fffffffffffffffffffffffff00000000000000000000000000000000000000001673ffffffffffffffffffffffffffffffffffffffff8481169182179092556000908152601360205260409081902080546fffffffffffffffffffffffffffffffff199081166fffffffffffffffffffffffffffffffff8681169190911790925560148054918216918316860190921617905560035490517f1cdb7de50000000000000000000000000000000000000000000000000000000081529116908190631cdb7de590612b9e90869060029060040161343f565b600060405180830381600087803b158015612bb857600080fd5b505af1158015612bcc573d6000803e3d6000fd5b50505050505050565b606033612be1816116c4565b1515612bec57600080fd5b6004805460408051602060026001851615610100027fffffffffffffffffffffffffffffffffffffffffffffffffffffffffffffffff0190941693909304601f810184900484028201840190925281815292918301828280156112675780601f1061123c57610100808354040283529160200191611267565b612c6d612e89565b50604080518082019091528151815260209182019181019190915290565b511590565b600082821115612c9c57fe5b508082035b92915050565b8051825160009114612cb857600080fd5b5060005b82518163ffffffff16101561100f57818163ffffffff16815181101515612cdf57fe5b6020908102919091010151601480546fffffffffffffffffffffffffffffffff1981166fffffffffffffffffffffffffffffffff918216909301169190911790558151829063ffffffff8316908110612d3457fe5b9060200190602002015160136000858463ffffffff16815181101515612d5657fe5b60209081029190910181015173ffffffffffffffffffffffffffffffffffffffff16825281019190915260400160002080546fffffffffffffffffffffffffffffffff19166fffffffffffffffffffffffffffffffff92909216919091179055600101612cbc565b6000828202831580612dda5750828482811515612dd757fe5b04145b1515612de257fe5b9392505050565b6000808284811515612df757fe5b04949350505050565b600082820183811015612de257fe5b828054600181600116156101000203166002900490600052602060002090601f016020900481019282601f10612e5057805160ff1916838001178555612e7d565b82800160010185558215612e7d579182015b82811115612e7d578251825591602001919060010190612e62565b5061126f929150612ea0565b604080518082019091526000808252602082015290565b61152b91905b8082111561126f5760008155600101612ea6565b6000612de28235613567565b6000612de28251613567565b6000601f82018313612ee357600080fd5b8135612ef6612ef1826134f6565b6134cf565b91508181835260208401935060208101905083856020840282011115612f1b57600080fd5b60005b83811015612f475781612f318882612eba565b8452506020928301929190910190600101612f1e565b5050505092915050565b6000601f82018313612f6257600080fd5b8135612f70612ef1826134f6565b91508181835260208401935060208101905083856020840282011115612f9557600080fd5b60005b83811015612f475781612fab88826130c6565b8452506020928301929190910190600101612f98565b6000612de28235613580565b6000612de28251613580565b6000601f82018313612fea57600080fd5b8135612ff8612ef182613517565b9150808252602083016020830185838301111561301457600080fd5b61301f8382846135b0565b50505092915050565b60006080828403121561303a57600080fd5b61304460806134cf565b9050813567ffffffffffffffff81111561305d57600080fd5b61306984828501612fd9565b825250602061307a84848301612eba565b602083015250604082013567ffffffffffffffff81111561309a57600080fd5b6130a684828501612fd9565b60408301525060606130ba84828501612fc1565b60608301525092915050565b6000612de28235613585565b6000612de2823561152b565b6000612de2825161152b565b6000602082840312156130fc57600080fd5b60006131088484612eba565b949350505050565b60006020828403121561312257600080fd5b60006131088484612ec6565b6000806040838503121561314157600080fd5b600061314d8585612eba565b925050602061315e858286016130c6565b9150509250929050565b60006020828403121561317a57600080fd5b813567ffffffffffffffff81111561319157600080fd5b61310884828501612ed2565b600080604083850312156131b057600080fd5b823567ffffffffffffffff8111156131c757600080fd5b6131d385828601612ed2565b925050602083013567ffffffffffffffff8111156131f057600080fd5b61315e85828601612f51565b6000806000806080858703121561321257600080fd5b843567ffffffffffffffff81111561322957600080fd5b61323587828801612ed2565b945050602085013567ffffffffffffffff81111561325257600080fd5b61325e87828801612f51565b935050604085013567ffffffffffffffff81111561327b57600080fd5b61328787828801612ed2565b925050606085013567ffffffffffffffff8111156132a457600080fd5b6132b087828801613028565b91505092959194509250565b6000602082840312156132ce57600080fd5b60006131088484612fc1565b6000602082840312156132ec57600080fd5b60006131088484612fcd565b60006020828403121561330a57600080fd5b813567ffffffffffffffff81111561332157600080fd5b61310884828501612fd9565b60006020828403121561333f57600080fd5b600061310884846130d2565b60006020828403121561335d57600080fd5b600061310884846130de565b61337281613567565b82525050565b600061338382613563565b8084526020840193506133958361355d565b60005b828110156133c5576133ab868351613369565b6133b48261355d565b602096909601959150600101613398565b5093949350505050565b61337281613580565b60006133e382613563565b8084526133f78160208601602086016135bc565b613400816135e8565b9093016020019392505050565b6133728161359a565b613372816135a5565b61337281613585565b6133728161152b565b60208101612ca18284613369565b6040810161344d8285613369565b612de26020830184613416565b604081016134688285613369565b612de26020830184613428565b60208082528101612de28184613378565b60208101612ca182846133cf565b60208082528101612de281846133d8565b60208101612ca1828461340d565b60208101612ca1828461341f565b60208101612ca18284613428565b60405181810167ffffffffffffffff811182821017156134ee57600080fd5b604052919050565b600067ffffffffffffffff82111561350d57600080fd5b5060209081020190565b600067ffffffffffffffff82111561352e57600080fd5b506020601f919091017fffffffffffffffffffffffffffffffffffffffffffffffffffffffffffffffe0160190565b60200190565b5190565b73ffffffffffffffffffffffffffffffffffffffff1690565b151590565b6fffffffffffffffffffffffffffffffff1690565b6000612ca182613567565b6000612ca18261152b565b82818337506000910152565b60005b838110156135d75781810151838201526020016135bf565b838111156111455750506000910152565b601f017fffffffffffffffffffffffffffffffffffffffffffffffffffffffffffffffe016905600a265627a7a723058200031087382ba079662217c5bc81ca8e640f13ab5f6416c25e2fc60078d2743756c6578706572696d656e74616cf50037",
  "source": "pragma solidity ^0.4.18;\npragma experimental ABIEncoderV2;\n\n\nimport '../libraries/math/SafeMath.sol';\nimport '../libraries/strings/strings.sol';\nimport '../libraries/LibConstruction.sol';\nimport './reputation/SubmissionTrust.sol';\nimport '../interfaces/IMatryxToken.sol';\nimport '../interfaces/IMatryxPeer.sol';\nimport '../interfaces/IMatryxPlatform.sol';\nimport '../interfaces/IMatryxTournament.sol';\nimport '../interfaces/IMatryxRound.sol';\nimport '../interfaces/IMatryxSubmission.sol';\nimport './Ownable.sol';\n\ncontract MatryxSubmission is Ownable, IMatryxSubmission {\n\tusing SafeMath for uint256;\n\tusing SafeMath for uint128;\n\tusing SafeMath for uint32;\n\tusing strings for *;\n\n\n\t/************** TODO ******************/\n\t/* COPY ALL FIELDS TO SUBMISSIONTRUST */           // <------------------ DON'T FORGET.\n\t/************** TODO ******************/\n\n\n\t// Parent identification\n\taddress private platformAddress;\n\taddress private tournamentAddress;\n\taddress private roundAddress;\n\t\n\t// Submission\n\tstring title;\n\taddress author;\n\tbytes externalAddress;\n\taddress[] references;\n\n\t// Tracks the normalized trust gained through peers approving this submission\n\tmapping(address=>uint128) authorToApprovalTrustGiven;\n\tuint128 public approvalTrust;\n\tuint256 public totalPossibleTrust;\n\taddress[] public approvingPeers;\n\n\t// Tracks the proportion of references this submission has approved\n\tmapping(address=>uint128_optional) missingReferenceToIndex;\n\taddress[] public missingReferences;\n\tmapping(address=>ReferenceInfo) addressToReferenceInfo;\n\tmapping(address=>ReferenceStats) referenceStatsByAuthor;\n\tuint256 public approvedReferences;\n\tuint256 public totalReferenceCount;\n\n\taddress[] contributors;\n\tmapping(address=>uint128) public contributorToBountyDividend;\n\tuint128 public contributorBountyDivisor;\n\tuint256 timeSubmitted;\n\tuint256 timeUpdated;\n\tbool public isPublic;\n\n\taddress public trustDelegate;\n\tbytes4 fnSelector_addReference = bytes4(keccak256(\"addReference(address)\"));\n\tbytes4 fnSelector_removeReference = bytes4(keccak256(\"removeReference(address)\"));\n\tbytes4 fnSelector_approveReference = bytes4(keccak256(\"approveReference(address)\"));\n\tbytes4 fnSelector_removeReferenceApproval = bytes4(keccak256(\"removeReferenceApproval(address)\"));\n\tbytes4 fnSelector_flagMissingReference = bytes4(keccak256(\"flagMissingReference(address)\"));\n\tbytes4 fnSelector_removeMissingReferenceFlag = bytes4(keccak256(\"removeMissingReferenceFlag(address)\"));\n\n\tbytes4 fnSelector_revertIfReferenceFlagged = bytes4(keccak256(\"revertIfReferenceFlagged(address)\"));\n\n\tconstructor(address[] _contributors, uint128[] _contributorRewardDistribution, address[] _references, LibConstruction.RequiredSubmissionAddresses requiredAddresses, LibConstruction.SubmissionData submissionData) public\n\t{\n\t\tplatformAddress = requiredAddresses.platformAddress;\n\t\ttournamentAddress = requiredAddresses.tournamentAddress;\n\t\troundAddress = requiredAddresses.roundAddress;\n\n\t\ttitle = submissionData.title;\n\t\towner = submissionData.owner;\n\t\tauthor = IMatryxPlatform(platformAddress).peerAddress(owner);\n\t\trequire(author != 0x0);\n\t\texternalAddress = submissionData.contentHash;\n\t\treferences = _references;\n\t\ttrustDelegate = IMatryxPlatform(requiredAddresses.platformAddress).getSubmissionTrustLibrary();\n\t\tisPublic = submissionData.isPublic;\n\n\t\tfor(uint32 i = 0; i < references.length;i++)\n\t\t{\n\t\t\taddressToReferenceInfo[references[i]].exists = true;\n\t\t\taddressToReferenceInfo[references[i]].index = i;\n\t\t}\n\n\t\t_addContributors(_contributors, _contributorRewardDistribution);\n\t\t\n\t\tcontributors = _contributors;\n\t\ttimeSubmitted = now;\n\t}\n\n\t/*\n\t * Structs\n\t */\n\n\tstruct ReferenceInfo\n\t{\n\t\tuint32 index;\n\t\tbool exists;\n\t\tbool approved;\n\t\tbool flagged;\n\t\tuint128 negativeReputationAffect;\n\t\tuint128 positiveReputationAffect;\n\t\tuint128 authorReputation;\n\t}\n\n\tstruct ReferenceStats\n\t{\n\t\tuint32 numberMissing;\n\t\tuint32 numberApproved;\n\t}\n\n\tstruct uint128_optional\n\t{\n\t\tbool exists;\n\t\tuint128 value;\n\t}\n\n\t/*\n\t * Modifiers \n\t */\n\n\t// modifier onlyAuthor() {\n //    \trequire(msg.sender == author);\n //    \t_;\n //  \t}\n\n  \tmodifier onlyPlatform() {\n  \t\trequire(msg.sender == platformAddress);\n  \t\t_;\n  \t}\n\n  \t// modifier onlyRound()\n  \t// {\n  \t// \trequire(msg.sender == roundAddress);\n  \t// \t_;\n  \t// }\n\n  \tmodifier ownerContributorOrRound()\n  \t{\n  \t\trequire(msg.sender == owner || contributorToBountyDividend[msg.sender] != 0 || msg.sender == roundAddress);\n  \t\t_;\n  \t}\n\n  \tmodifier onlyPeer()\n\t{\n\t\tIMatryxPlatform platform = IMatryxPlatform(platformAddress);\n\t\trequire(platform.isPeer(msg.sender));\n\t\t_;\n\t}\n\n\t// A modifier to ensure that information can only obtained\n\t// about this submission when it should be.\n\tmodifier whenAccessible(address _requester)\n\t{\n\t\trequire(isAccessible(_requester));\n\t\t_;\n\t}\n\n\tmodifier duringOpenSubmission()\n\t{\n\t\tIMatryxRound round = IMatryxRound(roundAddress);\n\t\trequire(round.getState() == 1);\n\t\t_;\n\t}\n\n\t/*\n\t * Getter Methods\n\t */\n\n\tfunction getTournament() public constant returns (address) {\n\t\treturn tournamentAddress;\n\t}\n\n\tfunction getRound() public constant returns (address) {\n\t\treturn roundAddress;\n\t}\n\n\tfunction isAccessible(address _requester) public constant returns (bool)\n\t{\n\t\tIMatryxRound round = IMatryxRound(roundAddress);\n\t\tOwnable ownableTournament = Ownable(tournamentAddress);\n\n\t\tbool isPlatform = _requester == IMatryxTournament(tournamentAddress).getPlatform();\n\t\tbool isRound = _requester == roundAddress;\n\t\tbool ownsThisSubmission = _requester == owner;\n\t\tbool submissionExternallyAccessible = isPublic;\n\t\tbool roundAtLeastInReview = IMatryxRound(roundAddress).getState() >= 2;\n\t\tbool requesterIsEntrant = IMatryxTournament(tournamentAddress).isEntrant(_requester);\n\t\tbool requesterOwnsTournament = ownableTournament.isOwner(_requester);\n\t\tbool requesterIsContributor = IMatryxRound(roundAddress).requesterIsContributor(_requester);\n\t\tbool duringReviewAndRequesterInTournament = roundAtLeastInReview && (requesterOwnsTournament || requesterIsEntrant || requesterIsContributor);\n  \t\tbool tournamentIsClosed = IMatryxTournament(tournamentAddress).getState() >= 4;\n\n\t\treturn isPlatform || isRound || ownsThisSubmission || submissionExternallyAccessible || duringReviewAndRequesterInTournament || IMatryxPlatform(platformAddress).isPeer(_requester) || IMatryxPlatform(platformAddress).isSubmission(_requester) || tournamentIsClosed;\n\t}\n\n\tfunction getTitle() public constant whenAccessible(msg.sender) returns(string) {\n\t\treturn title;\n\t}\n\n\tfunction getAuthor() public constant whenAccessible(msg.sender) returns(address) {\n\t\treturn author;\n\t}\n\n\tfunction getExternalAddress() public constant whenAccessible(msg.sender) returns (bytes)\n\t{\n\t\treturn externalAddress;\n\t}\n\n\tfunction getReferences() public constant whenAccessible(msg.sender) returns(address[]) {\n\t\treturn references;\n\t}\n\n\tfunction getContributors() public constant whenAccessible(msg.sender) returns(address[]) {\n\t\treturn contributors;\n\t}\n\n\tfunction getTimeSubmitted() public constant returns(uint256) {\n\t\treturn timeSubmitted;\n\t}\n\n\tfunction getTimeUpdated() public constant returns(uint256) {\n\t\treturn timeUpdated;\n\t}\n\n\t/*\n\t * Setter Methods\n\t */\n\n\tfunction update(address[] _contributorsToAdd, uint128[] _contributorRewardDistribution, address[] _contributorsToRemove, LibConstruction.SubmissionModificationData _data)\n\t{\n\t\tif(!_data.title.toSlice().empty())\n\t\t{\n\t\t\ttitle = _data.title;\n\t\t}\n\t\tif(_data.owner != 0x0)\n\t\t{\n\t\t\towner = _data.owner;\n\t\t}\n\t\tif(_data.contentHash.length != 0)\n\t\t{\n\t\t\texternalAddress = _data.contentHash;\n\t\t}\n\t\tif(_data.isPublic)\n\t\t{\n\t\t\tisPublic = _data.isPublic;\n\t\t}\n\t\tif(_contributorsToAdd.length != 0)\n\t\t{\n\t\t\trequire(_contributorsToAdd.length == _contributorRewardDistribution.length);\n\t\t\taddContributors(_contributorsToAdd, _contributorRewardDistribution);\n\t\t}\n\t\tif(_contributorsToRemove.length != 0)\n\t\t{\n\t\t\tremoveContributors(_contributorsToRemove);\n\t\t}\n\t}\n\n\t/// @dev Sets whether or not this submission can be accessed by anyone\n\t/// before the end of the tournament.\n\tfunction updateIsPublic(bool _public) public onlyOwner \n\t{\n\t\tisPublic = _public;\n\t}\n\n    /// @dev Edit the title of a submission (callable only by submission's owner).\n    /// @param _title New title for the submission.\n\tfunction updateTitle(string _title) public onlyOwner duringOpenSubmission \n\t{\n\t\ttitle = _title;\n\t}\n\n\t/// @dev Update the external address of a submission (callable only by submission's owner).\n    /// @param _externalAddress New content hash for the body of the submission.\n\tfunction updateExternalAddress(bytes _externalAddress) public onlyOwner duringOpenSubmission \n\t{\n\t\texternalAddress = _externalAddress;\n\t\ttimeUpdated = now;\n\t}\n\n\n\tfunction setTrustDelegate(address _newTrustDelegate) public onlyPlatform\n\t{\n\t\ttrustDelegate = _newTrustDelegate;\n\t}\n\n\t/// @dev Add a missing reference to a submission (callable only by submission's owner).\n    /// @param _reference Address of additional reference to include.\n\n\tfunction addReference(address _reference) onlyOwner public \n\t{\n\t\trequire(trustDelegate.delegatecall(fnSelector_addReference, _reference));\n\t}\n\n\t// // Debug function. ?MAYBEDO:Delete\n\t// function addressIsFlagged(address _reference) public constant returns (bool, bool)\n\t// {\n\t// \treturn (addressToReferenceInfo[_reference].flagged, missingReferenceToIndex[_reference].exists);\n\t// }\n\n\t/// @dev Remove an erroneous reference to a submission (callable only by submission's owner).\n    /// @param _reference Address of reference to remove.\n\n\tfunction removeReference(address _reference) onlyOwner public\n\t{\n\t\trequire(trustDelegate.delegatecall(fnSelector_removeReference, _reference));\n\t}\n\n\tfunction receiveReferenceRequest() public onlyPlatform\n\t{\n\t\ttotalReferenceCount = totalReferenceCount.add(1);\n\t}\n\n\tfunction cancelReferenceRequest() public onlyPlatform\n\t{\n\t\ttotalReferenceCount = totalReferenceCount.sub(1);\n\t}\n\n\t/// @dev Called by the owner of _reference when this submission is approved to list _reference\n\t/// as a reference.\n\t/// _reference Reference being approved by msg.sender.\n\tfunction approveReference(address _reference) public onlyPeer\n\t{\n\t\trequire(trustDelegate.delegatecall(fnSelector_approveReference, _reference));\n\t}\n\n\t/// @dev \t\t\t  Called by the owner of the _reference to remove their approval of a reference\n\t///\t\t \t\t\t  within this submission.\n\t/// @param _reference Reference that peer is revoking the approval of to be included\n\t///\t\t\t\t\t  in this submission.\n\tfunction removeReferenceApproval(address _reference) public onlyPeer\n\t{\n\t\trequire(trustDelegate.delegatecall(fnSelector_removeReferenceApproval, _reference));\n\t}\n\n\t/// @dev \tCalled by the owner of _reference when this submission does not list _reference\n\t/// \t\tas a reference.\n\t/// @param  _reference Missing reference in this submission.\n\tfunction flagMissingReference(address _reference) public onlyPeer\n\t{\n\t\trequire(trustDelegate.delegatecall(fnSelector_flagMissingReference, _reference));\n\t}\n\n\t/// @dev \t\t\t  Called by the owner of _reference to remove a missing reference flag placed on a reference\n\t///\t\t \t\t\t  as missing.\n\t/// @param _reference Reference previously marked by peer as missing.\n\tfunction removeMissingReferenceFlag(address _reference) public onlyPeer\n\t{\n\t\trequire(trustDelegate.delegatecall(fnSelector_removeMissingReferenceFlag, _reference));\n\t}\n\n\t/// @dev Add a contributor to a submission (callable only by submission's owner).\n    /// @param _contributor Address of contributor to add to the submission.\n\tfunction addContributor(address _contributor, uint128 _bountyAllocation) public onlyOwner\n\t{\n\t\tcontributors.push(_contributor);\n\n\t\tcontributorToBountyDividend[_contributor] = _bountyAllocation;\n\t\tcontributorBountyDivisor = contributorBountyDivisor + _bountyAllocation;\n\n\t\tIMatryxRound round = IMatryxRound(roundAddress);\n\t\tround.setParticipantType(_contributor, 2);\n\t}\n\n\tfunction addContributors(address[] _contributorsToAdd, uint128[] _distribution) public onlyOwner\n\t{\n\t\t_addContributors(_contributorsToAdd, _distribution);\n\t}\n\n\tfunction _addContributors(address[] _contributorsToAdd, uint128[] _distribution) internal\n\t{\n\t\trequire(_contributorsToAdd.length == _distribution.length);\n\t\tfor(uint32 j = 0; j < _contributorsToAdd.length; j++)\n\t\t{\n\t\t\t// if one of the contributors is already there, revert\n\t\t\t// otherwise, add it to the list\n\t\t\tcontributorBountyDivisor = contributorBountyDivisor + _distribution[j];\n\t\t\tcontributorToBountyDividend[_contributorsToAdd[j]] = _distribution[j];\n\t\t}\n\t}\n\n\t/// @dev Remove a contributor from a submission (callable only by submission's owner).\n    /// @param _contributorIndex Index of the contributor to remove from the submission.\n\tfunction removeContributor(uint256 _contributorIndex) onlyOwner public onlyOwner\n\t{\n\t\tcontributorBountyDivisor = contributorBountyDivisor - contributorToBountyDividend[contributors[_contributorIndex]];\n\t\tcontributorToBountyDividend[contributors[_contributorIndex]] = 0;\n\n\t\tdelete contributors[_contributorIndex];\n\t}\n\n\tfunction removeContributors(address[] _contributorsToRemove) public onlyOwner\n\t{\n\t\tfor(uint32 j = 0; j < _contributorsToRemove.length; j++)\n\t\t{\n\t\t\tcontributorBountyDivisor = contributorBountyDivisor - contributorToBountyDividend[_contributorsToRemove[j]];\n\t\t\tcontributorToBountyDividend[_contributorsToRemove[j]] = 0;\n\t\t}\n\t}\n\n\tfunction getBalance() public returns (uint256)\n\t{\n\t\tIMatryxRound round = IMatryxRound(roundAddress);\n\t\tuint256 _balance = round.getBalance(this);\n\t\treturn _balance;\n\t}\n\t\n\tfunction withdrawReward(address _recipient) public ownerContributorOrRound\n\t{\n\t\tIMatryxToken token = IMatryxToken(IMatryxPlatform(platformAddress).getTokenAddress());\n\t\tuint256 submissionReward = IMatryxToken(token).balanceOf(address(this));\n\n\t\t// Transfer reward to submission author and contributors\n\t\tuint256 transferAmount = getTransferAmount();\n\t\tuint256 authorAmount = transferAmount.div(2);\n\t\ttoken.transfer(_recipient, authorAmount);\n\t\t// Distribute transfer amounts to contributors\n\t\tuint256 contributorsAmount = transferAmount.sub(authorAmount);\n\t\tfor(uint i = 0; i < contributors.length; i++)\n\t\t{\n\t\t\tif(contributors[i] != 0x0)\n\t\t\t{\n\t\t\t\tuint256 contributionWeight = (contributorToBountyDividend[contributors[i]]).mul(1*10**18).div(contributorBountyDivisor);\n\t\t\t\tuint256 contributorReward = contributorsAmount.mul(contributionWeight).div(1*10**18);\n\t\t\t\ttoken.transfer(contributors[i], contributorReward);\n\t\t\t}\n\t\t}\n\n\t\t// Distribute remaining reward to references\n\t\tuint256 remainingReward = submissionReward.sub(transferAmount);\n\t\tfor(uint j = 0; j < references.length; j++)\n\t\t{\n\t\t\tif(addressToReferenceInfo[references[j]].approved)\n\t\t\t{\n\t\t\t\tuint256 weight = (addressToReferenceInfo[references[j]].authorReputation).mul(1*10**18).div(totalPossibleTrust);\n\t\t\t\tuint256 weightedReward = remainingReward.mul(weight).div(1*10**18);\n\t\t\t\ttoken.transfer(references[j], weightedReward);\n\t\t\t}\n\t\t}\n\t}\n\n\tfunction getTransferAmount() public constant returns (uint256)\n\t{\n\t\tuint submissionReward = getBalance();\n\t\tif(totalPossibleTrust == 0)\n\t\t{\n\t\t\tif(missingReferences.length > 0)\n\t\t\t{\n\t\t\t\treturn 0;\n\t\t\t}\n\n\t\t\treturn submissionReward;\n\t\t}\n\n\t\t// transfer amount calculated as:\n\t\t// normalizedAndReferenceCountWeightedTrustInSubmission * \n\t\t// (1 - submissionGratitude) * \n\t\t// submissionReward\n\n\t\tuint256 transferAmount = approvalTrust.mul(1*10**18 - IMatryxPlatform(platformAddress).getSubmissionGratitude());\n\t\ttransferAmount = transferAmount.div(totalPossibleTrust);\n\t\ttransferAmount = transferAmount.mul(submissionReward);\n\t\ttransferAmount = transferAmount.div(1*10**18);\n\n\t\treturn transferAmount;\n\t}\n\n\t// function prepareToDelete() internal\n\t// {\n\t// \twithdrawReward(owner);\n\t// \t// TODO: Remove references on other submissions so that MTX is not burned!\n\t// }\n\n\t// // @dev Removes a submission permanently.\n // \t// @param _recipient Address to send the refunded ether to.\n\t// function deleteSubmission() onlyRound public\n\t// {\n\t// \tprepareToDelete();\n\t// \tselfdestruct(author);\n\t// }\n}",
  "sourcePath": "/Users/samhessenauer/Documents/Software/git.nosync/MatryxPlatform/contracts/MatryxSubmission.sol",
  "compiler": {
    "name": "solc",
    "version": "0.4.24+commit.e67f0147.Emscripten.clang"
  },
  "schemaVersion": "2.0.0",
  "updatedAt": "2018-07-06T17:39:12.744Z"
}