{
  "contractName": "MatryxSubmission",
  "abi": [
    {
      "constant": true,
      "inputs": [
        {
          "name": "_sender",
          "type": "address"
        }
      ],
      "name": "isOwner",
      "outputs": [
        {
          "name": "_isOwner",
          "type": "bool"
        }
      ],
      "payable": false,
      "stateMutability": "view",
      "type": "function"
    },
    {
      "constant": true,
      "inputs": [],
      "name": "getOwner",
      "outputs": [
        {
          "name": "_owner",
          "type": "address"
        }
      ],
      "payable": false,
      "stateMutability": "view",
      "type": "function"
    },
    {
      "constant": true,
      "inputs": [],
      "name": "owner",
      "outputs": [
        {
          "name": "",
          "type": "address"
        }
      ],
      "payable": false,
      "stateMutability": "view",
      "type": "function"
    },
    {
      "constant": false,
      "inputs": [
        {
          "name": "newOwner",
          "type": "address"
        }
      ],
      "name": "transferOwnership",
      "outputs": [],
      "payable": false,
      "stateMutability": "nonpayable",
      "type": "function"
    },
    {
      "inputs": [
        {
          "name": "_owner",
          "type": "address"
        },
        {
          "name": "_platformAddress",
          "type": "address"
        },
        {
          "name": "_tournamentAddress",
          "type": "address"
        },
        {
          "name": "_roundAddress",
          "type": "address"
        },
        {
          "components": [
            {
              "name": "title",
              "type": "bytes32[3]"
            },
            {
              "name": "descriptionHash",
              "type": "bytes32[2]"
            },
            {
              "name": "fileHash",
              "type": "bytes32[2]"
            },
            {
              "name": "timeSubmitted",
              "type": "uint256"
            },
            {
              "name": "timeUpdated",
              "type": "uint256"
            }
          ],
          "name": "_submissionData",
          "type": "tuple"
        }
      ],
      "payable": false,
      "stateMutability": "nonpayable",
      "type": "constructor"
    },
    {
      "payable": false,
      "stateMutability": "nonpayable",
      "type": "fallback"
    },
    {
      "constant": true,
      "inputs": [],
      "name": "getTournament",
      "outputs": [
        {
          "name": "",
          "type": "address"
        }
      ],
      "payable": false,
      "stateMutability": "view",
      "type": "function"
    },
    {
      "constant": true,
      "inputs": [],
      "name": "getRound",
      "outputs": [
        {
          "name": "",
          "type": "address"
        }
      ],
      "payable": false,
      "stateMutability": "view",
      "type": "function"
    },
    {
      "constant": true,
      "inputs": [
        {
          "name": "_requester",
          "type": "address"
        }
      ],
      "name": "isAccessible",
      "outputs": [
        {
          "name": "",
          "type": "bool"
        }
      ],
      "payable": false,
      "stateMutability": "view",
      "type": "function"
    },
    {
      "constant": true,
      "inputs": [],
      "name": "getData",
      "outputs": [
        {
          "components": [
            {
              "name": "title",
              "type": "bytes32[3]"
            },
            {
              "name": "descriptionHash",
              "type": "bytes32[2]"
            },
            {
              "name": "fileHash",
              "type": "bytes32[2]"
            },
            {
              "name": "timeSubmitted",
              "type": "uint256"
            },
            {
              "name": "timeUpdated",
              "type": "uint256"
            }
          ],
          "name": "_data",
          "type": "tuple"
        }
      ],
      "payable": false,
      "stateMutability": "view",
      "type": "function"
    },
    {
      "constant": true,
      "inputs": [],
      "name": "getTitle",
      "outputs": [
        {
          "name": "",
          "type": "bytes32[3]"
        }
      ],
      "payable": false,
      "stateMutability": "view",
      "type": "function"
    },
    {
      "constant": true,
      "inputs": [],
      "name": "getAuthor",
      "outputs": [
        {
          "name": "",
          "type": "address"
        }
      ],
      "payable": false,
      "stateMutability": "view",
      "type": "function"
    },
    {
      "constant": true,
      "inputs": [],
      "name": "getDescriptionHash",
      "outputs": [
        {
          "name": "",
          "type": "bytes32[2]"
        }
      ],
      "payable": false,
      "stateMutability": "view",
      "type": "function"
    },
    {
      "constant": true,
      "inputs": [],
      "name": "getFileHash",
      "outputs": [
        {
          "name": "",
          "type": "bytes32[2]"
        }
      ],
      "payable": false,
      "stateMutability": "view",
      "type": "function"
    },
    {
      "constant": true,
      "inputs": [],
      "name": "getReferences",
      "outputs": [
        {
          "name": "",
          "type": "address[]"
        }
      ],
      "payable": false,
      "stateMutability": "view",
      "type": "function"
    },
    {
      "constant": true,
      "inputs": [],
      "name": "getContributors",
      "outputs": [
        {
          "name": "",
          "type": "address[]"
        }
      ],
      "payable": false,
      "stateMutability": "view",
      "type": "function"
    },
    {
      "constant": true,
      "inputs": [],
      "name": "getContributorRewardDistribution",
      "outputs": [
        {
          "name": "",
          "type": "uint256[]"
        }
      ],
      "payable": false,
      "stateMutability": "view",
      "type": "function"
    },
    {
      "constant": true,
      "inputs": [],
      "name": "getTimeSubmitted",
      "outputs": [
        {
          "name": "",
          "type": "uint256"
        }
      ],
      "payable": false,
      "stateMutability": "view",
      "type": "function"
    },
    {
      "constant": true,
      "inputs": [],
      "name": "getTimeUpdated",
      "outputs": [
        {
          "name": "",
          "type": "uint256"
        }
      ],
      "payable": false,
      "stateMutability": "view",
      "type": "function"
    },
    {
      "constant": true,
      "inputs": [],
      "name": "getTotalWinnings",
      "outputs": [
        {
          "name": "",
          "type": "uint256"
        }
      ],
      "payable": false,
      "stateMutability": "view",
      "type": "function"
    },
    {
      "constant": false,
      "inputs": [
        {
          "components": [
            {
              "name": "title",
              "type": "bytes32[3]"
            },
            {
              "name": "descriptionHash",
              "type": "bytes32[2]"
            },
            {
              "name": "fileHash",
              "type": "bytes32[2]"
            }
          ],
          "name": "_modificationData",
          "type": "tuple"
        }
      ],
      "name": "updateData",
      "outputs": [],
      "payable": false,
      "stateMutability": "nonpayable",
      "type": "function"
    },
    {
      "constant": false,
      "inputs": [
        {
          "components": [
            {
              "name": "contributorsToAdd",
              "type": "address[]"
            },
            {
              "name": "contributorRewardDistribution",
              "type": "uint256[]"
            },
            {
              "name": "contributorsToRemove",
              "type": "uint256[]"
            }
          ],
          "name": "_contributorsModificationData",
          "type": "tuple"
        }
      ],
      "name": "updateContributors",
      "outputs": [],
      "payable": false,
      "stateMutability": "nonpayable",
      "type": "function"
    },
    {
      "constant": false,
      "inputs": [
        {
          "components": [
            {
              "name": "referencesToAdd",
              "type": "address[]"
            },
            {
              "name": "referencesToRemove",
              "type": "uint256[]"
            }
          ],
          "name": "_referencesModificationData",
          "type": "tuple"
        }
      ],
      "name": "updateReferences",
      "outputs": [],
      "payable": false,
      "stateMutability": "nonpayable",
      "type": "function"
    },
    {
      "constant": false,
      "inputs": [
        {
          "name": "_amount",
          "type": "uint256"
        }
      ],
      "name": "addToWinnings",
      "outputs": [],
      "payable": false,
      "stateMutability": "nonpayable",
      "type": "function"
    },
    {
      "constant": false,
      "inputs": [
        {
          "name": "_reference",
          "type": "address"
        }
      ],
      "name": "flagMissingReference",
      "outputs": [],
      "payable": false,
      "stateMutability": "nonpayable",
      "type": "function"
    },
    {
      "constant": false,
      "inputs": [
        {
          "name": "_reference",
          "type": "address"
        }
      ],
      "name": "removeMissingReferenceFlag",
      "outputs": [],
      "payable": false,
      "stateMutability": "nonpayable",
      "type": "function"
    },
    {
      "constant": false,
      "inputs": [
        {
          "components": [
            {
              "name": "contributors",
              "type": "address[]"
            },
            {
              "name": "contributorRewardDistribution",
              "type": "uint256[]"
            },
            {
              "name": "references",
              "type": "address[]"
            }
          ],
          "name": "_contribsAndRefs",
          "type": "tuple"
        }
      ],
      "name": "setContributorsAndReferences",
      "outputs": [],
      "payable": false,
      "stateMutability": "nonpayable",
      "type": "function"
    },
    {
      "constant": true,
      "inputs": [],
      "name": "getBalance",
      "outputs": [
        {
          "name": "",
          "type": "uint256"
        }
      ],
      "payable": false,
      "stateMutability": "view",
      "type": "function"
    },
    {
      "constant": false,
      "inputs": [],
      "name": "withdrawReward",
      "outputs": [],
      "payable": false,
      "stateMutability": "nonpayable",
      "type": "function"
    },
    {
      "constant": true,
      "inputs": [],
      "name": "myReward",
      "outputs": [
        {
          "name": "",
          "type": "uint256"
        }
      ],
      "payable": false,
      "stateMutability": "view",
      "type": "function"
    }
  ],
  "bytecode": "0x6080604052670de0b6b3a76400006020553480156200001d57600080fd5b506040516101a08062002c54833981018060405262000040919081019062000433565b6000805433600160a060020a031991821617909155600180548216600160a060020a038781169190911790915560028054831686831617905560038054909216908416178155815182916004916200009b91839190620001da565b506020820151620000b390600383019060026200021f565b506040820151620000cb90600583019060026200021f565b506060820151600782015560809091015160089091015560008054600160a060020a031916600160a060020a03878116919091179091556001546040517f6a44e43d000000000000000000000000000000000000000000000000000000008152911690636a44e43d9062000144908890600401620004c5565b602060405180830381600087803b1580156200015f57600080fd5b505af115801562000174573d6000803e3d6000fd5b505050506040513d601f19601f820116820180604052506200019a91908101906200040a565b601f8054600160a060020a031916600160a060020a039283161790819055161515620001c557600080fd5b505042600b819055600c55506200052c915050565b82600381019282156200020d579160200282015b828111156200020d5782518255602090920191600190910190620001ee565b506200021b92915062000251565b5090565b82600281019282156200020d57916020028201828111156200020d5782518255602090920191600190910190620001ee565b6200026e91905b808211156200021b576000815560010162000258565b90565b60006200027f825162000520565b9392505050565b6000601f820183136200029857600080fd5b6002620002af620002a98262000502565b620004db565b91508183856020840282011115620002c657600080fd5b60005b83811015620002f65781620002df88826200036a565b8452506020928301929190910190600101620002c9565b5050505092915050565b6000601f820183136200031257600080fd5b600362000323620002a98262000502565b915081838560208402820111156200033a57600080fd5b60005b83811015620002f657816200035388826200036a565b84525060209283019291909101906001016200033d565b60006200027f82516200026e565b600061012082840312156200038c57600080fd5b6200039860a0620004db565b90506000620003a8848462000300565b8252506060620003bb8484830162000286565b60208301525060a0620003d18482850162000286565b60408301525060e0620003e7848285016200036a565b606083015250610100620003fe848285016200036a565b60808301525092915050565b6000602082840312156200041d57600080fd5b60006200042b848462000271565b949350505050565b60008060008060006101a086880312156200044d57600080fd5b60006200045b888862000271565b95505060206200046e8882890162000271565b9450506040620004818882890162000271565b9350506060620004948882890162000271565b9250506080620004a78882890162000378565b9150509295509295909350565b620004bf8162000520565b82525050565b60208101620004d58284620004b4565b92915050565b6040518181016001604060020a0381118282101715620004fa57600080fd5b604052919050565b60006001604060020a038211156200051957600080fd5b5060200290565b600160a060020a031690565b612718806200053c6000396000f3006080604052600436106101695763ffffffff7c010000000000000000000000000000000000000000000000000000000060003504166309b542bb811461018e5780630a181f52146101b05780630cbfdb2d146101d057806312065fe0146101f0578063245edf061461021b5780632f54bf6e1461023d57806332c9c9d31461026a5780633bc5de301461028a57806342849570146102ac57806349ca4d7f146102c15780635de8439f146102e15780637a6337fa146103015780638493f71f14610323578063893d20e8146103385780638da5cb5b1461035a5780638efa54101461036f57806393d1e712146103845780639b057610146103a45780639f8743f7146103b9578063a52dd12f146103ce578063a5faa125146103ee578063ae1ca69214610403578063af157c1914610418578063c885bc581461042d578063e76c293e14610442578063f23e1cb414610457578063f2fde38b14610479578063ff3c1a8f14610499575b34801561017557600080fd5b5061dead6000526002601ea060003560005260046000a0005b34801561019a57600080fd5b506101ae6101a9366004611f75565b6104bb565b005b3480156101bc57600080fd5b506101ae6101cb366004611eb8565b6105a8565b3480156101dc57600080fd5b506101ae6101eb366004611e56565b610658565b3480156101fc57600080fd5b5061020561075e565b6040516102129190612628565b60405180910390f35b34801561022757600080fd5b5061023061080f565b60405161021291906124e6565b34801561024957600080fd5b5061025d610258366004611e56565b610861565b6040516102129190612513565b34801561027657600080fd5b506101ae610285366004611e56565b610882565b34801561029657600080fd5b5061029f610988565b60405161021291906125a8565b3480156102b857600080fd5b50610205610a6e565b3480156102cd57600080fd5b506101ae6102dc366004611eed565b610bb8565b3480156102ed57600080fd5b506101ae6102fc366004611f57565b610ce3565b34801561030d57600080fd5b50610316610e08565b60405161021291906124d5565b34801561032f57600080fd5b50610230610e89565b34801561034457600080fd5b5061034d610ed4565b6040516102129190612412565b34801561036657600080fd5b5061034d610ef0565b34801561037b57600080fd5b50610205610f0c565b34801561039057600080fd5b506101ae61039f366004611f22565b610f12565b3480156103b057600080fd5b50610205611057565b3480156103c557600080fd5b5061034d61105d565b3480156103da57600080fd5b5061025d6103e9366004611e56565b611079565b3480156103fa57600080fd5b5061034d6116b6565b34801561040f57600080fd5b506102056116eb565b34801561042457600080fd5b506103166116f1565b34801561043957600080fd5b506101ae611771565b34801561044e57600080fd5b5061034d611875565b34801561046357600080fd5b5061046c611891565b6040516102129190612502565b34801561048557600080fd5b506101ae610494366004611e56565b611900565b3480156104a557600080fd5b506104ae61198d565b60405161021291906124f4565b60035473ffffffffffffffffffffffffffffffffffffffff1633148061058457506003546040517fb6a3497500000000000000000000000000000000000000000000000000000000815273ffffffffffffffffffffffffffffffffffffffff9091169063b6a3497590610532903390600401612412565b602060405180830381600087803b15801561054c57600080fd5b505af1158015610560573d6000803e3d6000fd5b505050506040513d601f19601f820116820180604052506105849190810190611e9a565b151561058f57600080fd5b600d546105a2908263ffffffff6119d916565b600d5550565b60025473ffffffffffffffffffffffffffffffffffffffff1633146105cc57600080fd5b6040517fb376fecb00000000000000000000000000000000000000000000000000000000815273__LibSubmission_________________________9063b376fecb9061062590601c90600d906012908790600401612564565b60006040518083038186803b15801561063d57600080fd5b505af4158015610651573d6000803e3d6000fd5b5050505050565b6001546040517f3e44cf7800000000000000000000000000000000000000000000000000000000815273ffffffffffffffffffffffffffffffffffffffff90911690633e44cf78906106ae903390600401612412565b602060405180830381600087803b1580156106c857600080fd5b505af11580156106dc573d6000803e3d6000fd5b505050506040513d601f19601f820116820180604052506107009190810190611e9a565b151561070b57600080fd5b6040517fb0bba0ff00000000000000000000000000000000000000000000000000000000815273__LibSubmissionTrust____________________9063b0bba0ff9061062590601290859060040161260d565b6003546040517ff8b2cb4f00000000000000000000000000000000000000000000000000000000815260009173ffffffffffffffffffffffffffffffffffffffff1690819063f8b2cb4f906107b7903090600401612521565b602060405180830381600087803b1580156107d157600080fd5b505af11580156107e5573d6000803e3d6000fd5b505050506040513d601f19601f820116820180604052506108099190810190611f93565b91505090565b6108176119ef565b3361082181611079565b151561082c57600080fd5b60408051808201918290529060079060029082845b81548152600190910190602001808311610841575b505050505091505090565b60005473ffffffffffffffffffffffffffffffffffffffff91821691161490565b6001546040517f3e44cf7800000000000000000000000000000000000000000000000000000000815273ffffffffffffffffffffffffffffffffffffffff90911690633e44cf78906108d8903390600401612412565b602060405180830381600087803b1580156108f257600080fd5b505af1158015610906573d6000803e3d6000fd5b505050506040513d601f19601f8201168201806040525061092a9190810190611e9a565b151561093557600080fd5b6040517f35974e8f00000000000000000000000000000000000000000000000000000000815273__LibSubmissionTrust____________________906335974e8f9061062590601290859060040161260d565b610990611a0a565b3361099a81611079565b15156109a557600080fd5b60408051610100810190915260048160a081018260038282826020028201915b815481526001909101906020018083116109c5575050509183525050604080518082019182905260209092019190600384019060029082845b815481526001909101906020018083116109fe575050509183525050604080518082019182905260209092019190600584019060029082845b81548152600190910190602001808311610a3757505050505081526020016007820154815260200160088201548152505091505090565b6001546040517f223c8136000000000000000000000000000000000000000000000000000000008152600091829173__LibSubmission_________________________9163223c813691610ae19173ffffffffffffffffffffffffffffffffffffffff1690600d9060129060040161245b565b60206040518083038186803b158015610af957600080fd5b505af4158015610b0d573d6000803e3d6000fd5b505050506040513d601f19601f82011682018060405250610b319190810190611f93565b6040517fbf1053e200000000000000000000000000000000000000000000000000000000815290915073__LibSubmission_________________________9063bf1053e290610b8c90601c90600d903390879060040161252f565b60206040518083038186803b158015610ba457600080fd5b505af41580156107e5573d6000803e3d6000fd5b60005473ffffffffffffffffffffffffffffffffffffffff163314610bdc57600080fd5b600354604080517f1865c57d000000000000000000000000000000000000000000000000000000008152905160029273ffffffffffffffffffffffffffffffffffffffff1691631865c57d9160048083019260209291908290030181600087803b158015610c4957600080fd5b505af1158015610c5d573d6000803e3d6000fd5b505050506040513d601f19601f82011682018060405250610c819190810190611f93565b14610c8b57600080fd5b6040517fca3e2b7400000000000000000000000000000000000000000000000000000000815273__LibSubmission_________________________9063ca3e2b749061062590600490601c90600d90879084016125b7565b60005473ffffffffffffffffffffffffffffffffffffffff163314610d0757600080fd5b600354604080517f1865c57d000000000000000000000000000000000000000000000000000000008152905160029273ffffffffffffffffffffffffffffffffffffffff1691631865c57d9160048083019260209291908290030181600087803b158015610d7457600080fd5b505af1158015610d88573d6000803e3d6000fd5b505050506040513d601f19601f82011682018060405250610dac9190810190611f93565b14610db657600080fd5b6040517f92ee139000000000000000000000000000000000000000000000000000000000815273__LibSubmission_________________________906392ee13909061062590600490859082016125f1565b606033610e1481611079565b1515610e1f57600080fd5b601e80546040805160208084028201810190925282815292919083018282801561085657602002820191906000526020600020905b815473ffffffffffffffffffffffffffffffffffffffff168152600190910190602001808311610e5457505050505091505090565b610e916119ef565b33610e9b81611079565b1515610ea657600080fd5b60408051808201918290526009805482529091600290600a6020850180831161084157505050505091505090565b60005473ffffffffffffffffffffffffffffffffffffffff1690565b60005473ffffffffffffffffffffffffffffffffffffffff1681565b600c5490565b60005473ffffffffffffffffffffffffffffffffffffffff163314610f3657600080fd5b600354604080517f1865c57d000000000000000000000000000000000000000000000000000000008152905160029273ffffffffffffffffffffffffffffffffffffffff1691631865c57d9160048083019260209291908290030181600087803b158015610fa357600080fd5b505af1158015610fb7573d6000803e3d6000fd5b505050506040513d601f19601f82011682018060405250610fdb9190810190611f93565b14610fe557600080fd5b6001546040517f2612f55c00000000000000000000000000000000000000000000000000000000815273__LibSubmission_________________________91632612f55c916106259173ffffffffffffffffffffffffffffffffffffffff1690600490601c9060129088908401612483565b600d5490565b60035473ffffffffffffffffffffffffffffffffffffffff1690565b600354600254604080517f2fc1f190000000000000000000000000000000000000000000000000000000008152905160009373ffffffffffffffffffffffffffffffffffffffff908116931691849182918291829182918291829182918a91632fc1f1909160048082019260209290919082900301818787803b1580156110ff57600080fd5b505af1158015611113573d6000803e3d6000fd5b505050506040513d601f19601f820116820180604052506111379190810190611e7c565b73ffffffffffffffffffffffffffffffffffffffff168c73ffffffffffffffffffffffffffffffffffffffff16149750600360009054906101000a900473ffffffffffffffffffffffffffffffffffffffff1673ffffffffffffffffffffffffffffffffffffffff168c73ffffffffffffffffffffffffffffffffffffffff161496506000809054906101000a900473ffffffffffffffffffffffffffffffffffffffff1673ffffffffffffffffffffffffffffffffffffffff168c73ffffffffffffffffffffffffffffffffffffffff161495506003600681111561121957fe5b600360009054906101000a900473ffffffffffffffffffffffffffffffffffffffff1673ffffffffffffffffffffffffffffffffffffffff16631865c57d6040518163ffffffff167c0100000000000000000000000000000000000000000000000000000000028152600401602060405180830381600087803b15801561129f57600080fd5b505af11580156112b3573d6000803e3d6000fd5b505050506040513d601f19601f820116820180604052506112d79190810190611f93565b6002546040517f52c01fab0000000000000000000000000000000000000000000000000000000081529290911015965073ffffffffffffffffffffffffffffffffffffffff16906352c01fab90611332908f90600401612412565b602060405180830381600087803b15801561134c57600080fd5b505af1158015611360573d6000803e3d6000fd5b505050506040513d601f19601f820116820180604052506113849190810190611e9a565b93508b73ffffffffffffffffffffffffffffffffffffffff168973ffffffffffffffffffffffffffffffffffffffff1663893d20e86040518163ffffffff167c0100000000000000000000000000000000000000000000000000000000028152600401602060405180830381600087803b15801561140157600080fd5b505af1158015611415573d6000803e3d6000fd5b505050506040513d601f19601f820116820180604052506114399190810190611e7c565b73ffffffffffffffffffffffffffffffffffffffff16149250848015611463575082806114635750835b91506005600360009054906101000a900473ffffffffffffffffffffffffffffffffffffffff1673ffffffffffffffffffffffffffffffffffffffff16631865c57d6040518163ffffffff167c0100000000000000000000000000000000000000000000000000000000028152600401602060405180830381600087803b1580156114ed57600080fd5b505af1158015611501573d6000803e3d6000fd5b505050506040513d601f19601f820116820180604052506115259190810190611f93565b1015905087806115325750865b8061153a5750855b806115425750815b806115f057506001546040517f3e44cf7800000000000000000000000000000000000000000000000000000000815273ffffffffffffffffffffffffffffffffffffffff90911690633e44cf789061159e908f90600401612412565b602060405180830381600087803b1580156115b857600080fd5b505af11580156115cc573d6000803e3d6000fd5b505050506040513d601f19601f820116820180604052506115f09190810190611e9a565b8061169e57506001546040517f818b5fa800000000000000000000000000000000000000000000000000000000815273ffffffffffffffffffffffffffffffffffffffff9091169063818b5fa89061164c908f90600401612412565b602060405180830381600087803b15801561166657600080fd5b505af115801561167a573d6000803e3d6000fd5b505050506040513d601f19601f8201168201806040525061169e9190810190611e9a565b806116a65750805b9c9b505050505050505050505050565b6000336116c281611079565b15156116cd57600080fd5b5050601f5473ffffffffffffffffffffffffffffffffffffffff1690565b600b5490565b6060336116fd81611079565b151561170857600080fd5b601c8054604080516020808402820181019092528281529291908301828280156108565760200282019190600052602060002090815473ffffffffffffffffffffffffffffffffffffffff168152600190910190602001808311610e5457505050505091505090565b60005473ffffffffffffffffffffffffffffffffffffffff163314806117a557503360009081526010602052604090205415155b806117c7575060035473ffffffffffffffffffffffffffffffffffffffff1633145b15156117d257600080fd5b6001546040517f36b39c0800000000000000000000000000000000000000000000000000000000815273__LibSubmission_________________________916336b39c08916118439173ffffffffffffffffffffffffffffffffffffffff1690601c90600d90601290600401612426565b60006040518083038186803b15801561185b57600080fd5b505af415801561186f573d6000803e3d6000fd5b50505050565b60025473ffffffffffffffffffffffffffffffffffffffff1690565b60603361189d81611079565b15156118a857600080fd5b604051601c5460208252806020830152601c60005260206000206003600d0160205260005b828110156118f5578181015460009081526040902054600282016020028501526001016118cd565b506020600283010283f35b60005473ffffffffffffffffffffffffffffffffffffffff16331461192457600080fd5b73ffffffffffffffffffffffffffffffffffffffff8116151561194657600080fd5b600080547fffffffffffffffffffffffff00000000000000000000000000000000000000001673ffffffffffffffffffffffffffffffffffffffff92909216919091179055565b611995611a4d565b3361199f81611079565b15156119aa57600080fd5b604080516060810191829052600480548252909160039060056020850180831161084157505050505091505090565b6000828201838110156119e857fe5b9392505050565b60408051808201825290600290829080388339509192915050565b61012060405190810160405280611a1f611a4d565b8152602001611a2c6119ef565b8152602001611a396119ef565b815260200160008152602001600081525090565b6060604051908101604052806003906020820280388339509192915050565b60006119e882356126b5565b60006119e882516126b5565b6000601f82018313611a9557600080fd5b8135611aa8611aa38261265d565b612636565b91508181835260208401935060208101905083856020840282011115611acd57600080fd5b60005b83811015611af95781611ae38882611a6c565b8452506020928301929190910190600101611ad0565b5050505092915050565b6000601f82018313611b1457600080fd5b6002611b22611aa38261267e565b91508183856020840282011115611b3857600080fd5b60005b83811015611af95781611b4e8882611c41565b8452506020928301929190910190600101611b3b565b6000601f82018313611b7557600080fd5b6003611b83611aa38261267e565b91508183856020840282011115611b9957600080fd5b60005b83811015611af95781611baf8882611c41565b8452506020928301929190910190600101611b9c565b6000601f82018313611bd657600080fd5b8135611be4611aa38261265d565b91508181835260208401935060208101905083856020840282011115611c0957600080fd5b60005b83811015611af95781611c1f8882611c41565b8452506020928301929190910190600101611c0c565b60006119e882516126ce565b60006119e882356126a2565b600060608284031215611c5f57600080fd5b611c696060612636565b9050813567ffffffffffffffff811115611c8257600080fd5b611c8e84828501611a84565b825250602082013567ffffffffffffffff811115611cab57600080fd5b611cb784828501611bc5565b602083015250604082013567ffffffffffffffff811115611cd757600080fd5b611ce384828501611a84565b60408301525092915050565b600060608284031215611d0157600080fd5b611d0b6060612636565b9050813567ffffffffffffffff811115611d2457600080fd5b611d3084828501611a84565b825250602082013567ffffffffffffffff811115611d4d57600080fd5b611d5984828501611bc5565b602083015250604082013567ffffffffffffffff811115611d7957600080fd5b611ce384828501611bc5565b600060408284031215611d9757600080fd5b611da16040612636565b9050813567ffffffffffffffff811115611dba57600080fd5b611dc684828501611a84565b825250602082013567ffffffffffffffff811115611de357600080fd5b611def84828501611bc5565b60208301525092915050565b600060e08284031215611e0d57600080fd5b611e176060612636565b90506000611e258484611b64565b8252506060611e3684848301611b03565b60208301525060a0611ce384828501611b03565b60006119e882516126a2565b600060208284031215611e6857600080fd5b6000611e748484611a6c565b949350505050565b600060208284031215611e8e57600080fd5b6000611e748484611a78565b600060208284031215611eac57600080fd5b6000611e748484611c35565b600060208284031215611eca57600080fd5b813567ffffffffffffffff811115611ee157600080fd5b611e7484828501611c4d565b600060208284031215611eff57600080fd5b813567ffffffffffffffff811115611f1657600080fd5b611e7484828501611cef565b600060208284031215611f3457600080fd5b813567ffffffffffffffff811115611f4b57600080fd5b611e7484828501611d85565b600060e08284031215611f6957600080fd5b6000611e748484611dfb565b600060208284031215611f8757600080fd5b6000611e748484611c41565b600060208284031215611fa557600080fd5b6000611e748484611e4a565b611fba816126b5565b82525050565b6000611fcb826126a5565b808452602084019350611fdd8361269c565b60005b8281101561200d57611ff3868351611fb1565b611ffc8261269c565b602096909601959150600101611fe0565b5093949350505050565b6000612022826126a5565b8084526020840193506120348361269c565b60005b8281101561200d5761204a868351611fb1565b6120538261269c565b602096909601959150600101612037565b61206d816126a9565b612076826126a2565b60005b828110156106515761208c858351612293565b6120958261269c565b602095909501949150600101612079565b6120af816126a9565b6120b8826126a2565b60005b82811015610651576120ce858351612293565b6120d78261269c565b6020959095019491506001016120bb565b6120f1816126a9565b6120fa826126a2565b60005b8281101561065157612110858351612293565b6121198261269c565b6020959095019491506001016120fd565b612133816126af565b61213c826126a2565b60005b8281101561065157612152858351612293565b61215b8261269c565b60209590950194915060010161213f565b612175816126af565b61217e826126a2565b60005b8281101561065157612194858351612293565b61219d8261269c565b602095909501949150600101612181565b6121b7816126af565b6121c0826126a2565b60005b82811015610651576121d6858351612293565b6121df8261269c565b6020959095019491506001016121c3565b60006121fb826126a5565b80845260208401935061220d8361269c565b60005b8281101561200d57612223868351612293565b61222c8261269c565b602096909601959150600101612210565b6000612248826126a5565b80845260208401935061225a8361269c565b60005b8281101561200d57612270868351612293565b6122798261269c565b60209690960195915060010161225d565b611fba816126ce565b611fba816126a2565b611fba816126d3565b80516060808452600091908401906122bd8282612017565b915050602083015184820360208601526122d7828261223d565b915050604083015184820360408601526122f18282612017565b95945050505050565b9052565b80516060808452600091908401906123168282612017565b91505060208301518482036020860152612330828261223d565b915050604083015184820360408601526122f1828261223d565b80516040808452600091908401906123628282612017565b915050602083015184820360208601526122f1828261223d565b805161012083019061238e848261216c565b5060208201516123a160608501826120a6565b5060408201516123b460a08501826120a6565b5060608201516123c760e0850182612293565b50608082015161186f610100850182612293565b805160e08301906123ec84826121ae565b5060208201516123ff60608501826120e8565b50604082015161186f60a08501826120e8565b602081016124208284611fb1565b92915050565b608081016124348287611fb1565b61244160208301866122fa565b61244e60408301856122fa565b6122f160608301846122fa565b606081016124698286611fb1565b61247660208301856122fa565b611e7460408301846122fa565b60a081016124918288611fb1565b61249e60208301876122fa565b6124ab60408301866122fa565b6124b860608301856122fa565b81810360808301526124ca818461234a565b979650505050505050565b602080825281016119e88184611fc0565b604081016124208284612064565b60608101612420828461212a565b602080825281016119e881846121f0565b60208101612420828461228a565b60208101612420828461229c565b6080810161253d82876122fa565b61254a60208301866122fa565b6125576040830185611fb1565b6122f16060830184612293565b6080810161257282876122fa565b61257f60208301866122fa565b61258c60408301856122fa565b818103606083015261259e81846122a5565b9695505050505050565b6101208101612420828461237c565b608081016125c582876122fa565b6125d260208301866122fa565b6125df60408301856122fa565b818103606083015261259e81846122fe565b610100810161260082856122fa565b6119e860208301846123db565b6040810161261b82856122fa565b6119e86020830184611fb1565b602081016124208284612293565b60405181810167ffffffffffffffff8111828210171561265557600080fd5b604052919050565b600067ffffffffffffffff82111561267457600080fd5b5060209081020190565b600067ffffffffffffffff82111561269557600080fd5b5060200290565b60200190565b90565b5190565b50600290565b50600390565b73ffffffffffffffffffffffffffffffffffffffff1690565b151590565b6000612420826126b55600a265627a7a7230582098fca86d015f6feb62ee708ef5bf812251feff81ccabcfeb3cfc21c9cdf376936c6578706572696d656e74616cf50037",
  "source": "pragma solidity ^0.4.18;\npragma experimental ABIEncoderV2;\n\n\nimport \"../libraries/math/SafeMath.sol\";\nimport \"../libraries/math/SafeMath128.sol\";\nimport \"../libraries/strings/strings.sol\";\nimport \"../libraries/LibConstruction.sol\";\nimport \"../libraries/LibEnums.sol\";\nimport \"../libraries/submission/LibSubmission.sol\";\nimport \"../libraries/submission/LibSubmissionTrust.sol\";\nimport \"../interfaces/IMatryxToken.sol\";\nimport \"../interfaces/IMatryxPeer.sol\";\nimport \"../interfaces/IMatryxPlatform.sol\";\nimport \"../interfaces/IMatryxTournament.sol\";\nimport \"../interfaces/IMatryxRound.sol\";\nimport \"../interfaces/IMatryxSubmission.sol\";\nimport \"./Ownable.sol\";\n\ncontract MatryxSubmission is Ownable, IMatryxSubmission {\n    using SafeMath for uint256;\n    using SafeMath128 for uint128;\n    using SafeMath for uint32;\n    using strings for *;\n\n    // Parent identification\n    address private platformAddress;\n    address private tournamentAddress;\n    address private roundAddress;\n\n    // Submission\n    LibConstruction.SubmissionData data;\n    LibSubmission.RewardData rewardData;\n    LibSubmission.TrustData trustData;\n    LibConstruction.ContributorsAndReferences contributorsAndReferences;\n\n    address author;\n\n    uint256 one = 10**18;\n\n    constructor(address _owner, address _platformAddress, address _tournamentAddress, address _roundAddress, LibConstruction.SubmissionData _submissionData) public\n    {\n        platformAddress = _platformAddress;\n        tournamentAddress = _tournamentAddress;\n        roundAddress = _roundAddress;\n\n        data = _submissionData;\n        owner = _owner;\n        author = IMatryxPlatform(platformAddress).peerAddress(_owner);\n        require(author != 0x0);\n\n        data.timeSubmitted = now;\n        data.timeUpdated = now;\n    }\n\n    /*\n    * Modifiers\n    */\n\n    // modifier onlyAuthor() {\n    //    \trequire(msg.sender == author);\n    //    \t_;\n    //  \t}\n\n    modifier onlyPlatform() {\n        require(msg.sender == platformAddress);\n        _;\n    }\n\n    modifier onlyTournament() {\n        require(msg.sender == tournamentAddress);\n        _;\n    }\n\n    // modifier onlyRound()\n    // {\n    // \trequire(msg.sender == roundAddress);\n    // \t_;\n    // }\n\n    modifier ownerContributorOrRound()\n    {\n        require(msg.sender == owner || rewardData.contributorToBountyDividend[msg.sender] != 0 || msg.sender == roundAddress);\n        _;\n    }\n\n    modifier onlyPeer()\n    {\n        require(IMatryxPlatform(platformAddress).isPeer(msg.sender));\n        _;\n    }\n\n    // A modifier to ensure that information can only obtained\n    // about this submission when it should be.\n    modifier whenAccessible(address _requester)\n    {\n        require(isAccessible(_requester));\n        _;\n    }\n\n    modifier onlySubmissionOrRound()\n    {\n        require(msg.sender == roundAddress || IMatryxRound(roundAddress).submissionExists(msg.sender));\n        _;\n    }\n\n    modifier onlyOwnerOrThis()\n    {\n        require(msg.sender == owner || msg.sender == address(this));\n        _;\n    }\n\n    modifier duringOpenSubmission()\n    {\n        require(IMatryxRound(roundAddress).getState() == uint256(LibEnums.RoundState.Open));\n        _;\n    }\n\n    /*\n    * Getter Methods\n    */\n\n    function() public {\n        assembly {\n            mstore(0, 0xdead)\n            log0(0x1e, 0x02)\n            mstore(0, calldataload(0x0))\n            log0(0, 0x04)\n        }\n    }\n\n    function getTournament() public view returns (address) {\n        return tournamentAddress;\n    }\n\n    function getRound() public view returns (address) {\n        return roundAddress;\n    }\n\n    function isAccessible(address _requester) public view returns (bool)\n    {\n        IMatryxRound round = IMatryxRound(roundAddress);\n        Ownable ownableTournament = Ownable(tournamentAddress);\n\n        bool isPlatform = _requester == IMatryxTournament(tournamentAddress).getPlatform();\n        bool isRound = _requester == roundAddress;\n        bool ownsThisSubmission = _requester == owner;\n        bool roundAtLeastInReview = IMatryxRound(roundAddress).getState() >= uint256(LibEnums.RoundState.InReview);\n        bool requesterIsEntrant = IMatryxTournament(tournamentAddress).isEntrant(_requester);\n        bool requesterOwnsTournament = ownableTournament.getOwner() == _requester;\n        bool duringReviewAndRequesterInTournament = roundAtLeastInReview && (requesterOwnsTournament || requesterIsEntrant);\n        // TODO: think about next steps (encryption)\n        bool roundIsClosed = IMatryxRound(roundAddress).getState() >= uint256(LibEnums.RoundState.Closed);\n\n        return isPlatform || isRound || ownsThisSubmission || duringReviewAndRequesterInTournament || IMatryxPlatform(platformAddress).isPeer(_requester) || IMatryxPlatform(platformAddress).isSubmission(_requester) || roundIsClosed;\n    }\n\n    function getData() public view whenAccessible(msg.sender) returns(LibConstruction.SubmissionData _data) {\n        return data;\n    }\n\n    function getTitle() public view whenAccessible(msg.sender) returns(bytes32[3]) {\n        return data.title;\n    }\n\n    function getAuthor() public view whenAccessible(msg.sender) returns(address) {\n        return author;\n    }\n\n    function getDescriptionHash() public view whenAccessible(msg.sender) returns (bytes32[2]) {\n        return data.descriptionHash;\n    }\n\n    function getFileHash() public view whenAccessible(msg.sender) returns (bytes32[2]) {\n        return data.fileHash;\n    }\n\n    function getReferences() public view whenAccessible(msg.sender) returns(address[]) {\n        return contributorsAndReferences.references;\n    }\n\n    function getContributors() public view whenAccessible(msg.sender) returns(address[]) {\n        return contributorsAndReferences.contributors;\n    }\n\n    function getContributorRewardDistribution() public view whenAccessible(msg.sender) returns (uint256[]) {\n        assembly {\n            let ptr := mload(0x40)\n            let len := sload(contributorsAndReferences_slot)\n\n            mstore(ptr, 0x20)           // elem size\n            mstore(add(ptr, 0x20), len) // arr len\n\n            mstore(0, contributorsAndReferences_slot)\n            let s_car := keccak256(0, 0x20)\n\n            mstore(0x20, add(rewardData_slot, 3)) // rewardData.contributorToBountyDividend\n\n            for { let i := 0 } lt(i, len) { i := add(i, 1) } {\n                let con := sload(add(s_car, i))\n                mstore(0, con)\n                let dist := keccak256(0, 0x40)    // rewardData.contributorToBountyDividend[contributor]\n                mstore(add(ptr, mul(add(i, 2), 0x20)), sload(dist))\n            }\n\n            return(ptr, mul(add(len, 2), 0x20))\n        }\n    }\n\n    function getTimeSubmitted() public view returns(uint256) {\n        return data.timeSubmitted;\n    }\n\n    function getTimeUpdated() public view returns(uint256) {\n        return data.timeUpdated;\n    }\n\n    function getTotalWinnings() public view returns(uint256) {\n        return rewardData.winnings;\n    }\n\n    /*\n    * Setter Methods\n    */\n\n    function updateData(LibConstruction.SubmissionModificationData _modificationData) public onlyOwner duringOpenSubmission\n    {\n        LibSubmission.updateData(data, _modificationData);\n    }\n\n    function updateContributors(LibConstruction.ContributorsModificationData _contributorsModificationData) public onlyOwner duringOpenSubmission\n    {\n        LibSubmission.updateContributors(data, contributorsAndReferences, rewardData, _contributorsModificationData);\n    }\n\n    function updateReferences(LibConstruction.ReferencesModificationData _referencesModificationData) public onlyOwner duringOpenSubmission\n    {\n        LibSubmission.updateReferences(platformAddress, data, contributorsAndReferences, trustData, _referencesModificationData);\n    }\n\n    function addToWinnings(uint256 _amount) public onlySubmissionOrRound\n    {\n        rewardData.winnings = rewardData.winnings.add(_amount);\n    }\n\n    // // Debug function. ?MAYBEDO:Delete\n    // function addressIsFlagged(address _reference) public view returns (bool, bool)\n    // {\n    // \treturn (addressToReferenceInfo[_reference].flagged, missingReferenceToIndex[_reference].exists);\n    // }\n\n    /// @dev \tCalled by the owner of _reference when this submission does not list _reference\n    /// \t\tas a reference.\n    /// @param  _reference Missing reference in this submission.\n    function flagMissingReference(address _reference) public onlyPeer\n    {\n        LibSubmissionTrust.flagMissingReference(trustData, _reference);\n    }\n\n    /// @dev \t\t\t  Called by the owner of _reference to remove a missing reference flag placed on a reference\n    ///\t\t \t\t\t  as missing.\n    /// @param _reference Reference previously marked by peer as missing.\n    function removeMissingReferenceFlag(address _reference) public onlyPeer\n    {\n        LibSubmissionTrust.removeMissingReferenceFlag(trustData, _reference);\n    }\n\n    /// @dev Sets contributors and references at submission creation time\n    /// @param _contribsAndRefs Struct containing contributors, reward distribution, and references\n    function setContributorsAndReferences(LibConstruction.ContributorsAndReferences _contribsAndRefs) public onlyTournament\n    {\n        LibSubmission.setContributorsAndReferences(contributorsAndReferences, rewardData, trustData, _contribsAndRefs);\n    }\n\n    function getBalance() public view returns (uint256)\n    {\n        IMatryxRound round = IMatryxRound(roundAddress);\n        return round.getBalance(this);\n    }\n\n    function withdrawReward() public ownerContributorOrRound\n    {\n        LibSubmission.withdrawReward(platformAddress, contributorsAndReferences, rewardData, trustData);\n    }\n\n    function myReward() public view returns (uint256)\n    {\n        uint256 transferAmount = LibSubmission.getTransferAmount(platformAddress, rewardData, trustData);\n        return LibSubmission._myReward(contributorsAndReferences, rewardData, msg.sender, transferAmount);\n    }\n\n}\n",
  "sourcePath": "/Users/maxhoward/Desktop/Ethereum/MatryxPlatform/contracts/MatryxSubmission.sol",
  "compiler": {
    "name": "solc",
    "version": "0.4.24+commit.e67f0147.Emscripten.clang"
  },
  "schemaVersion": "2.0.1",
  "updatedAt": "2018-08-08T23:33:46.297Z"
}