{
  "contractName": "MatryxQueryEncrypter",
  "abi": [
    {
      "constant": false,
      "inputs": [],
      "name": "kill",
      "outputs": [],
      "payable": false,
      "stateMutability": "nonpayable",
      "type": "function"
    },
    {
      "constant": false,
      "inputs": [
        {
          "name": "_query",
          "type": "bytes32"
        }
      ],
      "name": "query",
      "outputs": [
        {
          "name": "_id",
          "type": "uint256"
        }
      ],
      "payable": false,
      "stateMutability": "nonpayable",
      "type": "function"
    },
    {
      "inputs": [
        {
          "name": "_querier",
          "type": "address"
        }
      ],
      "payable": false,
      "stateMutability": "nonpayable",
      "type": "constructor"
    }
  ],
  "bytecode": "0x6060604052341561000f57600080fd5b6040516020806102df83398101604052808051906020019091905050336000806101000a81548173ffffffffffffffffffffffffffffffffffffffff021916908373ffffffffffffffffffffffffffffffffffffffff16021790555080600160006101000a81548173ffffffffffffffffffffffffffffffffffffffff021916908373ffffffffffffffffffffffffffffffffffffffff16021790555050610223806100bc6000396000f30060606040526004361061004c576000357c0100000000000000000000000000000000000000000000000000000000900463ffffffff16806341c0e1b514610051578063a3b61a9c14610066575b600080fd5b341561005c57600080fd5b6100646100a1565b005b341561007157600080fd5b61008b600480803560001916906020019091905050610115565b6040518082815260200191505060405180910390f35b6000809054906101000a900473ffffffffffffffffffffffffffffffffffffffff1673ffffffffffffffffffffffffffffffffffffffff163373ffffffffffffffffffffffffffffffffffffffff161415156100fc57600080fd5b3373ffffffffffffffffffffffffffffffffffffffff16ff5b60008060009054906101000a900473ffffffffffffffffffffffffffffffffffffffff1673ffffffffffffffffffffffffffffffffffffffff163373ffffffffffffffffffffffffffffffffffffffff1614151561017257600080fd5b434283336040518085815260200184815260200183600019166000191681526020018273ffffffffffffffffffffffffffffffffffffffff1673ffffffffffffffffffffffffffffffffffffffff166c0100000000000000000000000002815260140194505050505060405180910390206001900460028190555060025490509190505600a165627a7a7230582066e181ebe2a9f8b2f3f51c3694f8274a3b561e571e3ef7373aa19a9a3a46714a0029",
  "source": "pragma solidity ^0.4.18;\r\n\r\n//\r\n// The lookup contract for storing both the query and responder addresses\r\n//\r\nimport \"./MatryxOracleMessenger.sol\";\r\n\r\n// Readies and takes query results from the web client.\r\ncontract MatryxQueryEncrypter {\r\n\r\n  // The owner of this contract. i.e. The single TinyOracle contract.\r\n  MatryxOracleMessenger owner;\r\n  // The address of the querier (user) for the query this resolver has been given.\r\n  address querier;\r\n  // The id of the query (this contract generates this value).\r\n  uint256 queryID;\r\n  // The response. The server \r\n  bytes32 response;\r\n\r\n  function MatryxQueryEncrypter(address _querier) public {\r\n    owner = MatryxOracleMessenger(msg.sender);\r\n    querier = _querier;\r\n  }\r\n\r\n  modifier owneronly { \r\n    require(msg.sender == address(owner));\r\n    _;\r\n  }\r\n\r\n  modifier querierOnly {\r\n    require(msg.sender == querier);\r\n    _;\r\n  }\r\n\r\n  function query(bytes32 _query) owneronly public returns (uint256 _id) {\r\n    // Set the queryID for this QueryResolver by hashing:\r\n    // 1) The current blocknumber\r\n    // 2) The time\r\n    // 3) The query itself\r\n    // 4) The sender of the query.\r\n    queryID = uint256(keccak256(block.number, now, _query, msg.sender));\r\n\r\n    // Return to the MatryxOracle the queryID we just created.\r\n    return (queryID);\r\n  }\r\n\r\n  function kill() owneronly public {\r\n    selfdestruct(msg.sender);\r\n  }\r\n}\r\n",
  "sourcePath": "C:\\Users\\Pointcare\\Workspace\\matryx-alpha-source\\contracts\\MatryxQueryEncrypter.sol",
  "compiler": {
    "name": "solc",
    "version": "0.4.18+commit.9cf6e910.Emscripten.clang"
  },
  "schemaVersion": "1.0.1",
  "updatedAt": "2017-11-21T00:39:43.671Z"
}