{
  "contractName": "MatryxRoundFactory",
  "abi": [
    {
      "constant": true,
      "inputs": [],
      "name": "matryxTokenAddress",
      "outputs": [
        {
          "name": "",
          "type": "address"
        }
      ],
      "payable": false,
      "stateMutability": "view",
      "type": "function"
    },
    {
      "constant": true,
      "inputs": [
        {
          "name": "_sender",
          "type": "address"
        }
      ],
      "name": "isOwner",
      "outputs": [
        {
          "name": "_isOwner",
          "type": "bool"
        }
      ],
      "payable": false,
      "stateMutability": "view",
      "type": "function"
    },
    {
      "constant": true,
      "inputs": [],
      "name": "getOwner",
      "outputs": [
        {
          "name": "_owner",
          "type": "address"
        }
      ],
      "payable": false,
      "stateMutability": "view",
      "type": "function"
    },
    {
      "constant": true,
      "inputs": [],
      "name": "owner",
      "outputs": [
        {
          "name": "",
          "type": "address"
        }
      ],
      "payable": false,
      "stateMutability": "view",
      "type": "function"
    },
    {
      "constant": true,
      "inputs": [],
      "name": "matryxSubmissionFactoryAddress",
      "outputs": [
        {
          "name": "",
          "type": "address"
        }
      ],
      "payable": false,
      "stateMutability": "view",
      "type": "function"
    },
    {
      "constant": false,
      "inputs": [
        {
          "name": "newOwner",
          "type": "address"
        }
      ],
      "name": "transferOwnership",
      "outputs": [],
      "payable": false,
      "stateMutability": "nonpayable",
      "type": "function"
    },
    {
      "inputs": [
        {
          "name": "_matryxTokenAddress",
          "type": "address"
        },
        {
          "name": "_matryxSubmissionFactoryAddress",
          "type": "address"
        }
      ],
      "payable": false,
      "stateMutability": "nonpayable",
      "type": "constructor"
    },
    {
      "constant": false,
      "inputs": [
        {
          "name": "_platformAddress",
          "type": "address"
        },
        {
          "name": "_tournamentAddress",
          "type": "address"
        },
        {
          "name": "_owner",
          "type": "address"
        },
        {
          "name": "_roundIndex",
          "type": "uint256"
        },
        {
          "components": [
            {
              "name": "start",
              "type": "uint256"
            },
            {
              "name": "end",
              "type": "uint256"
            },
            {
              "name": "reviewPeriodDuration",
              "type": "uint256"
            },
            {
              "name": "bounty",
              "type": "uint256"
            }
          ],
          "name": "roundData",
          "type": "tuple"
        }
      ],
      "name": "createRound",
      "outputs": [
        {
          "name": "_roundAddress",
          "type": "address"
        }
      ],
      "payable": false,
      "stateMutability": "nonpayable",
      "type": "function"
    },
    {
      "constant": false,
      "inputs": [
        {
          "name": "_nameHash",
          "type": "bytes32"
        },
        {
          "name": "_contractAddress",
          "type": "address"
        }
      ],
      "name": "setContractAddress",
      "outputs": [],
      "payable": false,
      "stateMutability": "nonpayable",
      "type": "function"
    },
    {
      "constant": true,
      "inputs": [
        {
          "name": "_nameHash",
          "type": "bytes32"
        }
      ],
      "name": "getContractAddress",
      "outputs": [
        {
          "name": "contractAddress",
          "type": "address"
        }
      ],
      "payable": false,
      "stateMutability": "view",
      "type": "function"
    }
  ],
  "bytecode": "0x608060405234801561001057600080fd5b506040516040806137ec833981018060405261002f919081019061007e565b60008054600160a060020a0319908116331790915560028054600160a060020a03948516908316179055600180549290931691161790556100c4565b600061007782516100b8565b9392505050565b6000806040838503121561009157600080fd5b600061009d858561006b565b92505060206100ae8582860161006b565b9150509250929050565b600160a060020a031690565b613719806100d36000396000f300608060405260043610620000a25763ffffffff7c01000000000000000000000000000000000000000000000000000000006000350416630d2020dd8114620000a757806329cc545e14620000e45780632f54bf6e14620000fc578063893d20e814620001305780638da5cb5b1462000148578063af1237af1462000160578063b0ff54921462000185578063e001f841146200019d578063f2fde38b14620001c4575b600080fd5b348015620000b457600080fd5b50620000cc620000c636600462000572565b620001e9565b604051620000db919062000651565b60405180910390f35b348015620000f157600080fd5b50620000cc62000211565b3480156200010957600080fd5b50620001216200011b366004620004c8565b6200022d565b604051620000db9190620006de565b3480156200013d57600080fd5b50620000cc6200024e565b3480156200015557600080fd5b50620000cc6200026a565b3480156200016d57600080fd5b50620000cc6200017f366004620004f1565b62000286565b3480156200019257600080fd5b50620000cc620002f7565b348015620001aa57600080fd5b50620001c2620001bc36600462000593565b62000313565b005b348015620001d157600080fd5b50620001c2620001e3366004620004c8565b6200038b565b60009081526003602052604090205473ffffffffffffffffffffffffffffffffffffffff1690565b60025473ffffffffffffffffffffffffffffffffffffffff1681565b60005473ffffffffffffffffffffffffffffffffffffffff91821691161490565b60005473ffffffffffffffffffffffffffffffffffffffff1690565b60005473ffffffffffffffffffffffffffffffffffffffff1681565b6002546001546000918291889173ffffffffffffffffffffffffffffffffffffffff90811691899116888888620002bc6200041a565b620002ce979695949392919062000667565b604051809103906000f080158015620002eb573d6000803e3d6000fd5b50979650505050505050565b60015473ffffffffffffffffffffffffffffffffffffffff1681565b60005473ffffffffffffffffffffffffffffffffffffffff1633146200033857600080fd5b60009182526003602052604090912080547fffffffffffffffffffffffff00000000000000000000000000000000000000001673ffffffffffffffffffffffffffffffffffffffff909216919091179055565b60005473ffffffffffffffffffffffffffffffffffffffff163314620003b057600080fd5b73ffffffffffffffffffffffffffffffffffffffff81161515620003d357600080fd5b600080547fffffffffffffffffffffffff00000000000000000000000000000000000000001673ffffffffffffffffffffffffffffffffffffffff92909216919091179055565b604051612fa8806200073883390190565b600062000439823562000716565b9392505050565b600062000439823562000734565b6000608082840312156200046157600080fd5b6200046d6080620006ee565b905060006200047d848462000440565b8252506020620004908484830162000440565b6020830152506040620004a68482850162000440565b6040830152506060620004bc8482850162000440565b60608301525092915050565b600060208284031215620004db57600080fd5b6000620004e984846200042b565b949350505050565b600080600080600061010086880312156200050b57600080fd5b60006200051988886200042b565b95505060206200052c888289016200042b565b94505060406200053f888289016200042b565b9350506060620005528882890162000440565b925050608062000565888289016200044e565b9150509295509295909350565b6000602082840312156200058557600080fd5b6000620004e9848462000440565b60008060408385031215620005a757600080fd5b6000620005b5858562000440565b9250506020620005c8858286016200042b565b9150509250929050565b620005dd8162000716565b82525050565b620005dd816200072f565b8051608083019062000601848262000646565b50602082015162000616602085018262000646565b5060408201516200062b604085018262000646565b50606082015162000640606085018262000646565b50505050565b620005dd8162000734565b60208101620006618284620005d2565b92915050565b610140810162000678828a620005d2565b620006876020830189620005d2565b620006966040830188620005d2565b620006a56060830187620005d2565b620006b46080830186620005d2565b620006c360a083018562000646565b620006d260c0830184620005ee565b98975050505050505050565b60208101620006618284620005e3565b60405181810167ffffffffffffffff811182821017156200070e57600080fd5b604052919050565b73ffffffffffffffffffffffffffffffffffffffff1690565b151590565b90560060806040523480156200001157600080fd5b506040516101408062002fa8833981018060405262000034919081019062000294565b6000805460048054600160a060020a0319908116600160a060020a038b81169190911783556001805483168d83161790556002805483168b8316179055339382168417821688821617909455600686905560038054909116938816939093179092556060830151600c55604080517f4c6962546f75726e616d656e7441646d696e4d6574686f647300000000000000815290516019918190039190910181207f0d2020dd00000000000000000000000000000000000000000000000000000000825292630d2020dd916200010b9185910162000351565b602060405180830381600087803b1580156200012657600080fd5b505af11580156200013b573d6000803e3d6000fd5b505050506040513d601f19601f820116820180604052506200016191908101906200026b565b6000828152600560209081526040918290208054600160a060020a031916600160a060020a03949094169390931790925583519184015190840151620001b2929190640100000000620001c0810204565b50505050505050506200039e565b600992909255600a55600b55565b6000620001dc825162000392565b9392505050565b600060808284031215620001f657600080fd5b62000202608062000367565b905060006200021284846200025d565b825250602062000225848483016200025d565b60208301525060406200023b848285016200025d565b604083015250606062000251848285016200025d565b60608301525092915050565b6000620001dc82516200038f565b6000602082840312156200027e57600080fd5b60006200028c8484620001ce565b949350505050565b6000806000806000806000610140888a031215620002b157600080fd5b6000620002bf8a8a620001ce565b9750506020620002d28a828b01620001ce565b9650506040620002e58a828b01620001ce565b9550506060620002f88a828b01620001ce565b94505060806200030b8a828b01620001ce565b93505060a06200031e8a828b016200025d565b92505060c0620003318a828b01620001e3565b91505092959891949750929550565b6200034b816200038f565b82525050565b6020810162000361828462000340565b92915050565b60405181810167ffffffffffffffff811182821017156200038757600080fd5b604052919050565b90565b600160a060020a031690565b612bfa80620003ae6000396000f30060806040526004361061025b5763ffffffff7c010000000000000000000000000000000000000000000000000000000060003504166303d66a97811461026057806307417cf11461028b5780630befb0a5146102ad5780630d2020dd146102c25780630e3db9f2146102e25780630e4142a1146102f957806310fe9ae81461031957806311fb48041461032e5780631865c57d1461035b5780631cdb7de514610370578063241b15ad1461039057806328dd8489146103a557806329cc545e146103ba5780632f0713bb146103cf5780632f54bf6e146103ef5780632fc1f1901461040f578063389994f9146104245780633d62278014610439578063439f5ac21461045957806347e405531461046e5780635325cdba1461048357806354f6aa20146104a357806356974da3146104c5578063597e1fb5146104e5578063648036ae146104fa5780636a3c19531461050f5780637d36f7661461052f5780637d7580721461054f5780637df2d748146105645780638499a138146105845780638734fe4c146105a4578063893d20e8146105c45780638da5cb5b146105d9578063943dfef1146105ee578063b0ff549214610603578063b288e1a914610618578063c828371e1461062d578063daff8cd414610642578063dbe55e5614610662578063df4f9dba14610677578063e001f84114610697578063e278fe6f146106b7578063e76c293e146106cc578063e9e8b446146102ad578063ed098460146106e1578063f2fde38b146106f6578063f49bff7b14610716578063f89474be1461072b578063f8b2cb4f1461074b578063fe71f3e41461076b575b600080fd5b34801561026c57600080fd5b5061027561078b565b60405161028291906129a6565b60405180910390f35b34801561029757600080fd5b506102a06107a7565b6040516102829190612a7c565b3480156102b957600080fd5b506102a0610892565b3480156102ce57600080fd5b506102756102dd36600461271b565b610942565b3480156102ee57600080fd5b506102f761096a565b005b34801561030557600080fd5b506102f761031436600461251b565b6109c5565b34801561032557600080fd5b50610275610a15565b34801561033a57600080fd5b5061034e61034936600461251b565b610a31565b6040516102829190612a45565b34801561036757600080fd5b506102a0610b15565b34801561037c57600080fd5b506102f761038b36600461255f565b610bcd565b34801561039c57600080fd5b506102a0610beb565b3480156103b157600080fd5b506102a0610bf5565b3480156103c657600080fd5b50610275610bfb565b3480156103db57600080fd5b506102f76103ea36600461271b565b610c17565b3480156103fb57600080fd5b5061034e61040a36600461251b565b610d06565b34801561041b57600080fd5b50610275610d27565b34801561043057600080fd5b5061034e610d43565b34801561044557600080fd5b5061027561045436600461271b565b610d7e565b34801561046557600080fd5b506102a0610f2e565b34801561047a57600080fd5b50610275610f34565b34801561048f57600080fd5b506102f761049e36600461271b565b610f50565b3480156104af57600080fd5b506104b86110f5565b60405161028291906129cf565b3480156104d157600080fd5b5061034e6104e036600461271b565b611164565b3480156104f157600080fd5b5061034e6111e7565b34801561050657600080fd5b506102a06111f0565b34801561051b57600080fd5b506102f761052a36600461266d565b6111f6565b34801561053b57600080fd5b506102a061054a36600461271b565b6117e6565b34801561055b57600080fd5b506102a0611805565b34801561057057600080fd5b5061027561057f36600461271b565b61180b565b34801561059057600080fd5b5061034e61059f36600461251b565b611840565b3480156105b057600080fd5b506102756105bf366004612599565b61186a565b3480156105d057600080fd5b50610275611c32565b3480156105e557600080fd5b50610275611c4e565b3480156105fa57600080fd5b506102a0611c6a565b34801561060f57600080fd5b50610275611c70565b34801561062457600080fd5b50610275611c8c565b34801561063957600080fd5b506102a0611ca8565b34801561064e57600080fd5b506102f761065d36600461251b565b611cae565b34801561066e57600080fd5b50610275611cd9565b34801561068357600080fd5b5061027561069236600461271b565b611cf5565b3480156106a357600080fd5b506102f76106b2366004612739565b611d3c565b3480156106c357600080fd5b506102f7611da8565b3480156106d857600080fd5b50610275611def565b3480156106ed57600080fd5b506104b8611e0b565b34801561070257600080fd5b506102f761071136600461251b565b611e78565b34801561072257600080fd5b506102a0611efa565b34801561073757600080fd5b506102f7610746366004612787565b611f00565b34801561075757600080fd5b506102a061076636600461251b565b611f8e565b34801561077757600080fd5b506102a061078636600461251b565b61203e565b60025473ffffffffffffffffffffffffffffffffffffffff1681565b600254600090819073ffffffffffffffffffffffffffffffffffffffff1633146107d057600080fd5b6107d8610892565b600480546002546040517fa9059cbb00000000000000000000000000000000000000000000000000000000815293945073ffffffffffffffffffffffffffffffffffffffff9182169363a9059cbb9361083793909216918691016129b4565b602060405180830381600087803b15801561085157600080fd5b505af1158015610865573d6000803e3d6000fd5b505050506040513d601f19601f8201168201806040525061088991908101906126fd565b508091505b5090565b600480546040517f70a0823100000000000000000000000000000000000000000000000000000000815260009273ffffffffffffffffffffffffffffffffffffffff909216916370a08231916108ea91309101612a53565b602060405180830381600087803b15801561090457600080fd5b505af1158015610918573d6000803e3d6000fd5b505050506040513d601f19601f8201168201806040525061093c9190810190612769565b90505b90565b60009081526005602052604090205473ffffffffffffffffffffffffffffffffffffffff1690565b60025460009073ffffffffffffffffffffffffffffffffffffffff16331461099157600080fd5b600954600a546109a69163ffffffff61206616565b4260098190559091506109bf908263ffffffff61207816565b600a5550565b60025473ffffffffffffffffffffffffffffffffffffffff1633146109e957600080fd5b60005b73ffffffffffffffffffffffffffffffffffffffff909116600090815260126020526040902055565b60045473ffffffffffffffffffffffffffffffffffffffff1690565b73ffffffffffffffffffffffffffffffffffffffff8116600090815260146020526040812054819060ff161515610a6757600080fd5b506040517fa52dd12f000000000000000000000000000000000000000000000000000000008152829073ffffffffffffffffffffffffffffffffffffffff82169063a52dd12f90610abc9033906004016129a6565b602060405180830381600087803b158015610ad657600080fd5b505af1158015610aea573d6000803e3d6000fd5b505050506040513d601f19601f82011682018060405250610b0e91908101906126fd565b9392505050565b6000600954421015610b2b5760005b905061093f565b6009544210158015610b3e5750600a5442105b15610b5f57610b4b610892565b1515610b58576001610b24565b6002610b24565b600a544210158015610b845750600b54600a54610b819163ffffffff61207816565b42105b15610bb45760115460ff1615610b9b576005610b24565b600d5460001015610bad576004610b24565b6003610b24565b600d5460001015610bc6576005610b24565b6006610b24565b3360009081526014602052604090205460ff1615156109ec57600080fd5b6017546015540390565b600b5481565b60045473ffffffffffffffffffffffffffffffffffffffff1681565b60025473ffffffffffffffffffffffffffffffffffffffff163314610c3b57600080fd5b6000610c45610b15565b14610c4f57600080fd5b600480546040517fa9059cbb00000000000000000000000000000000000000000000000000000000815273ffffffffffffffffffffffffffffffffffffffff9091169163a9059cbb91610ca69133918691016129b4565b602060405180830381600087803b158015610cc057600080fd5b505af1158015610cd4573d6000803e3d6000fd5b505050506040513d601f19601f82011682018060405250610cf891908101906126fd565b1515610d0357600080fd5b50565b60005473ffffffffffffffffffffffffffffffffffffffff91821691161490565b60015473ffffffffffffffffffffffffffffffffffffffff1690565b6000600d6000815481101515610d5557fe5b60009182526020909120015473ffffffffffffffffffffffffffffffffffffffff161515905090565b6000803383601581815481101515610d9257fe5b6000918252602090912001546040517fa52dd12f00000000000000000000000000000000000000000000000000000000815273ffffffffffffffffffffffffffffffffffffffff9091169063a52dd12f90610df19085906004016129a6565b602060405180830381600087803b158015610e0b57600080fd5b505af1158015610e1f573d6000803e3d6000fd5b505050506040513d601f19601f82011682018060405250610e4391908101906126fd565b1515610e4e57600080fd5b6015805486908110610e5c57fe5b9060005260206000200160009054906101000a900473ffffffffffffffffffffffffffffffffffffffff1692508273ffffffffffffffffffffffffffffffffffffffff1663a5faa1256040518163ffffffff167c0100000000000000000000000000000000000000000000000000000000028152600401602060405180830381600087803b158015610eed57600080fd5b505af1158015610f01573d6000803e3d6000fd5b505050506040513d601f19601f82011682018060405250610f259190810190612541565b95945050505050565b600a5490565b60085473ffffffffffffffffffffffffffffffffffffffff1681565b6002546000908190819073ffffffffffffffffffffffffffffffffffffffff163314610f7b57600080fd5b600092505b600d548310156110ef57600c54610f9d908563ffffffff61207816565b9150611001670de0b6b3a7640000610fe984610ff5600f54610fe9670de0b6b3a7640000600e8b815481101515610fd057fe5b906000526020600020015461208790919063ffffffff16565b9063ffffffff6120ab16565b9063ffffffff61208716565b600454600d805492935073ffffffffffffffffffffffffffffffffffffffff9091169163a9059cbb91908690811061103557fe5b6000918252602090912001546040517c010000000000000000000000000000000000000000000000000000000063ffffffff84160281526110919173ffffffffffffffffffffffffffffffffffffffff169085906004016129b4565b602060405180830381600087803b1580156110ab57600080fd5b505af11580156110bf573d6000803e3d6000fd5b505050506040513d601f19601f820116820180604052506110e391908101906126fd565b50600190920191610f80565b50505050565b6060601580548060200260200160405190810160405280929190818152602001828054801561115a57602002820191906000526020600020905b815473ffffffffffffffffffffffffffffffffffffffff16815260019091019060200180831161112f575b5050505050905090565b6015546000908190831061117757600080fd5b601580548490811061118557fe5b6000918252602090912001546040517fa52dd12f00000000000000000000000000000000000000000000000000000000815273ffffffffffffffffffffffffffffffffffffffff9091169150819063a52dd12f90610abc9033906004016129a6565b60115460ff1681565b60065481565b6000806000806000806112076120c2565b600254604080517f4c6962546f75726e616d656e7441646d696e4d6574686f647300000000000000815290519081900360190190203373ffffffffffffffffffffffffffffffffffffffff90921682149160009161126490610942565b73ffffffffffffffffffffffffffffffffffffffff16149050600a5460001415151561128f57600080fd5b6003611299610b15565b146112a357600080fd5b8c600d90805190602001906112b99291906120eb565b508b516112cd90600e9060208f0190612166565b50600097505b600e5488101561131657611309600e898154811015156112ef57fe5b90600052602060002001548a61207890919063ffffffff16565b98506001909701966112d3565b600f899055891580611328575060018a145b156117c957600096505b600d548710156114675761136f670de0b6b3a7640000610fe9600c54610ff5600f54610fe9670de0b6b3a7640000600e8f815481101515610fd057fe5b600454600d805492985073ffffffffffffffffffffffffffffffffffffffff9091169163a9059cbb91908a9081106113a357fe5b6000918252602090912001546040517c010000000000000000000000000000000000000000000000000000000063ffffffff84160281526113ff9173ffffffffffffffffffffffffffffffffffffffff16908a906004016129b4565b602060405180830381600087803b15801561141957600080fd5b505af115801561142d573d6000803e3d6000fd5b505050506040513d601f19601f8201168201806040525061145191908101906126fd565b151561145c57600080fd5b600190960195611332565b600480546002546040517f70a0823100000000000000000000000000000000000000000000000000000000815273ffffffffffffffffffffffffffffffffffffffff928316936370a08231936114bf931691016129a6565b602060405180830381600087803b1580156114d957600080fd5b505af11580156114ed573d6000803e3d6000fd5b505050506040513d601f19601f820116820180604052506115119190810190612769565b9350600c548410156115255783945061152b565b600c5494505b89151561169757608060405190810160405280611555600b54600a5461207890919063ffffffff16565b8152602001611595611574600954600a5461206690919063ffffffff16565b600b54600a546115899163ffffffff61207816565b9063ffffffff61207816565b8152600b546020820152604090810187905260025490517f3809eba200000000000000000000000000000000000000000000000000000000815291945073ffffffffffffffffffffffffffffffffffffffff1690633809eba290611600908690600190600401612a61565b602060405180830381600087803b15801561161a57600080fd5b505af115801561162e573d6000803e3d6000fd5b505050506040513d601f19601f820116820180604052506116529190810190612541565b601160016101000a81548173ffffffffffffffffffffffffffffffffffffffff021916908373ffffffffffffffffffffffffffffffffffffffff1602179055506117c4565b60018a14156117c4576011805460ff191660011790556040805160808101825242815260208d810151908201528c820151818301526060808e01519082015260025491517fee1729c400000000000000000000000000000000000000000000000000000000815290945073ffffffffffffffffffffffffffffffffffffffff9091169063ee1729c490611731908690600090600401612a61565b602060405180830381600087803b15801561174b57600080fd5b505af115801561175f573d6000803e3d6000fd5b505050506040513d601f19601f820116820180604052506117839190810190612541565b601160016101000a81548173ffffffffffffffffffffffffffffffffffffffff021916908373ffffffffffffffffffffffffffffffffffffffff1602179055505b6117d7565b6011805460ff191660011790555b50505050505050505050505050565b600e8054829081106117f457fe5b600091825260209091200154905081565b600f5481565b600d80548290811061181957fe5b60009182526020909120015473ffffffffffffffffffffffffffffffffffffffff16905081565b73ffffffffffffffffffffffffffffffffffffffff16600090815260126020526040902054151590565b60006118746121ad565b600254600090819073ffffffffffffffffffffffffffffffffffffffff16331461189d57600080fd5b60026118a7610b15565b146118b157600080fd5b73ffffffffffffffffffffffffffffffffffffffff861615156118d357600080fd5b6040805160608101825260015473ffffffffffffffffffffffffffffffffffffffff908116825260025481166020830152308284015260035492517f867cda48000000000000000000000000000000000000000000000000000000008152919550919091169063867cda4890611955908c908c908c9089908c906004016129e0565b602060405180830381600087803b15801561196f57600080fd5b505af1158015611983573d6000803e3d6000fd5b505050506040513d601f19601f820116820180604052506119a79190810190612541565b604080518082018252600180825260158054602080850191825273ffffffffffffffffffffffffffffffffffffffff87166000818152601483528781209651875460ff191690151517875592519585019590955582549384019092557f55f448fdea98c4d29eb340757ef0a66cd03dbb9538908a6a81d96026b71ec475909201805473ffffffffffffffffffffffffffffffffffffffff1916909317909255338152601390915220549092501515611ac8576020850151601680546001810182556000919091527fd833147d7dc355ba459fc788f669e58cfaf9dc25ddcd0702e87d69c7b512428901805473ffffffffffffffffffffffffffffffffffffffff191673ffffffffffffffffffffffffffffffffffffffff9092169190911790555b33600090815260136020908152604082208054600181018255908352912001805473ffffffffffffffffffffffffffffffffffffffff191673ffffffffffffffffffffffffffffffffffffffff8416179055600373ffffffffffffffffffffffffffffffffffffffff871660009081526012602052604081209190915590505b8851811015611b9d576002601260008b84815181101515611b6557fe5b602090810290910181015173ffffffffffffffffffffffffffffffffffffffff16825281019190915260400160002055600101611b48565b6002546040517f4644c51b00000000000000000000000000000000000000000000000000000000815273ffffffffffffffffffffffffffffffffffffffff90911690634644c51b90611bf39085906004016129a6565b600060405180830381600087803b158015611c0d57600080fd5b505af1158015611c21573d6000803e3d6000fd5b50939b9a5050505050505050505050565b60005473ffffffffffffffffffffffffffffffffffffffff1690565b60005473ffffffffffffffffffffffffffffffffffffffff1681565b600c5481565b60035473ffffffffffffffffffffffffffffffffffffffff1681565b60075473ffffffffffffffffffffffffffffffffffffffff1681565b60095490565b60025473ffffffffffffffffffffffffffffffffffffffff163314611cd257600080fd5b60016109ec565b60015473ffffffffffffffffffffffffffffffffffffffff1681565b6015546000908210611d0657600080fd5b6015805483908110611d1457fe5b60009182526020909120015473ffffffffffffffffffffffffffffffffffffffff1692915050565b60005473ffffffffffffffffffffffffffffffffffffffff163314611d6057600080fd5b600091825260056020526040909120805473ffffffffffffffffffffffffffffffffffffffff191673ffffffffffffffffffffffffffffffffffffffff909216919091179055565b60025473ffffffffffffffffffffffffffffffffffffffff163314611dcc57600080fd5b6004611dd6610b15565b14611de057600080fd5b6011805460ff19166001179055565b60025473ffffffffffffffffffffffffffffffffffffffff1690565b6060600d80548060200260200160405190810160405280929190818152602001828054801561115a5760200282019190600052602060002090815473ffffffffffffffffffffffffffffffffffffffff16815260019091019060200180831161112f575050505050905090565b60005473ffffffffffffffffffffffffffffffffffffffff163314611e9c57600080fd5b73ffffffffffffffffffffffffffffffffffffffff81161515611ebe57600080fd5b6000805473ffffffffffffffffffffffffffffffffffffffff191673ffffffffffffffffffffffffffffffffffffffff92909216919091179055565b600c5490565b60025473ffffffffffffffffffffffffffffffffffffffff163314611f2457600080fd5b80518210611f3157600080fd5b8051602082015111611f4257600080fd5b6040810151600010611f5357600080fd5b80516020820151600091611f6d919063ffffffff61206616565b11611f7757600080fd5b80516009556020810151600a5560400151600b5550565b600480546040517f70a0823100000000000000000000000000000000000000000000000000000000815260009273ffffffffffffffffffffffffffffffffffffffff909216916370a0823191611fe6918691016129a6565b602060405180830381600087803b15801561200057600080fd5b505af1158015612014573d6000803e3d6000fd5b505050506040513d601f19601f820116820180604052506120389190810190612769565b92915050565b73ffffffffffffffffffffffffffffffffffffffff1660009081526012602052604090205490565b60008282111561207257fe5b50900390565b600082820183811015610b0e57fe5b60008282028315806120a357508284828115156120a057fe5b04145b1515610b0e57fe5b60008082848115156120b957fe5b04949350505050565b608060405190810160405280600081526020016000815260200160008152602001600081525090565b82805482825590600052602060002090810192821561215a579160200282015b8281111561215a578251825473ffffffffffffffffffffffffffffffffffffffff191673ffffffffffffffffffffffffffffffffffffffff90911617825560209092019160019091019061210b565b5061088e9291506121cd565b8280548282559060005260206000209081019282156121a1579160200282015b828111156121a1578251825591602001919060010190612186565b5061088e9291506121fe565b604080516060810182526000808252602082018190529181019190915290565b61093f91905b8082111561088e57805473ffffffffffffffffffffffffffffffffffffffff191681556001016121d3565b61093f91905b8082111561088e5760008155600101612204565b6000610b0e8235612b22565b6000610b0e8251612b22565b6000601f8201831361224157600080fd5b813561225461224f82612ab1565b612a8a565b9150818183526020840193506020810190508385602084028201111561227957600080fd5b60005b838110156122a5578161228f8882612218565b845250602092830192919091019060010161227c565b5050505092915050565b6000601f820183136122c057600080fd5b81356122ce61224f82612ab1565b915081818352602084019350602081019050838560208402820111156122f357600080fd5b60005b838110156122a557816123098882612503565b84525060209283019291909101906001016122f6565b6000601f8201831361233057600080fd5b813561233e61224f82612ab1565b9150818183526020840193506020810190508385602084028201111561236357600080fd5b60005b838110156122a5578161237988826123a7565b8452506020928301929190910190600101612366565b6000610b0e8235612b3b565b6000610b0e8251612b3b565b6000610b0e823561093f565b6000601f820183136123c457600080fd5b81356123d261224f82612ad2565b915080825260208301602083018583830111156123ee57600080fd5b6123f9838284612b60565b50505092915050565b60006080828403121561241457600080fd5b61241e6080612a8a565b9050600061242c84846123a7565b825250602061243d848483016123a7565b6020830152506040612451848285016123a7565b6040830152506060612465848285016123a7565b60608301525092915050565b60006080828403121561248357600080fd5b61248d6080612a8a565b9050813567ffffffffffffffff8111156124a657600080fd5b6124b2848285016123b3565b82525060206124c384848301612218565b602083015250604082013567ffffffffffffffff8111156124e357600080fd5b6124ef848285016123b3565b60408301525060606124658482850161238f565b6000610b0e8235612b40565b6000610b0e825161093f565b60006020828403121561252d57600080fd5b60006125398484612218565b949350505050565b60006020828403121561255357600080fd5b60006125398484612224565b6000806040838503121561257257600080fd5b600061257e8585612218565b925050602061258f858286016123a7565b9150509250929050565b600080600080600060a086880312156125b157600080fd5b853567ffffffffffffffff8111156125c857600080fd5b6125d488828901612230565b955050602086013567ffffffffffffffff8111156125f157600080fd5b6125fd888289016122af565b945050604086013567ffffffffffffffff81111561261a57600080fd5b61262688828901612230565b935050606061263788828901612218565b925050608086013567ffffffffffffffff81111561265457600080fd5b61266088828901612471565b9150509295509295909350565b60008060008060e0858703121561268357600080fd5b843567ffffffffffffffff81111561269a57600080fd5b6126a687828801612230565b945050602085013567ffffffffffffffff8111156126c357600080fd5b6126cf8782880161231f565b93505060406126e087828801612402565b92505060c06126f1878288016123a7565b91505092959194509250565b60006020828403121561270f57600080fd5b6000612539848461239b565b60006020828403121561272d57600080fd5b600061253984846123a7565b6000806040838503121561274c57600080fd5b600061275885856123a7565b925050602061258f85828601612218565b60006020828403121561277b57600080fd5b6000612539848461250f565b60008060a0838503121561279a57600080fd5b60006127a685856123a7565b925050602061258f85828601612402565b6127c081612b22565b82525050565b60006127d182612b1e565b8084526020840193506127e383612b18565b60005b82811015612813576127f98683516127b7565b61280282612b18565b6020969096019591506001016127e6565b5093949350505050565b600061282882612b1e565b80845260208401935061283a83612b18565b60005b8281101561281357612850868351612994565b61285982612b18565b60209690960195915060010161283d565b6127c081612b3b565b600061287e82612b1e565b808452612892816020860160208601612b6c565b61289b81612b98565b9093016020019392505050565b6127c081612b55565b805160608301906128c284826127b7565b5060208201516128d560208501826127b7565b5060408201516110ef60408501826127b7565b805160808301906128f9848261299d565b50602082015161290c602085018261299d565b50604082015161291f604085018261299d565b5060608201516110ef606085018261299d565b805160808084526000919084019061294a8282612873565b915050602083015161295f60208601826127b7565b50604083015184820360408601526129778282612873565b915050606083015161298c606086018261286a565b509392505050565b6127c081612b40565b6127c08161093f565b6020810161203882846127b7565b604081016129c282856127b7565b610b0e602083018461299d565b60208082528101610b0e81846127c6565b60e080825281016129f181886127c6565b90508181036020830152612a05818761281d565b90508181036040830152612a1981866127c6565b9050612a2860608301856128b1565b81810360c0830152612a3a8184612932565b979650505050505050565b60208101612038828461286a565b6020810161203882846128a8565b60a08101612a6f82856128e8565b610b0e608083018461286a565b60208101612038828461299d565b60405181810167ffffffffffffffff81118282101715612aa957600080fd5b604052919050565b600067ffffffffffffffff821115612ac857600080fd5b5060209081020190565b600067ffffffffffffffff821115612ae957600080fd5b506020601f919091017fffffffffffffffffffffffffffffffffffffffffffffffffffffffffffffffe0160190565b60200190565b5190565b73ffffffffffffffffffffffffffffffffffffffff1690565b151590565b6fffffffffffffffffffffffffffffffff1690565b600061203882612b22565b82818337506000910152565b60005b83811015612b87578181015183820152602001612b6f565b838111156110ef5750506000910152565b601f017fffffffffffffffffffffffffffffffffffffffffffffffffffffffffffffffe016905600a265627a7a72305820b23e6aacf4474b9b8510feb56375cde65f846fa268f56673f2fe706c3aeccc976c6578706572696d656e74616cf50037a265627a7a72305820b9ff86b70e784dd97b3d9ac50230320c0b70325ea07d9f75fe3433aa75adce1a6c6578706572696d656e74616cf50037",
  "source": "pragma solidity ^0.4.18;\npragma experimental ABIEncoderV2;\n\nimport \"../Ownable.sol\";\nimport '../MatryxRound.sol';\nimport \"../../libraries/LibConstruction.sol\";\n\ncontract MatryxRoundFactory is Ownable {\n\taddress public matryxSubmissionFactoryAddress;\n\taddress public matryxTokenAddress;\n\n\tmapping(bytes32=>address) contracts;\n\n\tfunction MatryxRoundFactory(address _matryxTokenAddress, address _matryxSubmissionFactoryAddress) public {\n\t\tmatryxTokenAddress = _matryxTokenAddress;\n\t\tmatryxSubmissionFactoryAddress = _matryxSubmissionFactoryAddress;\n\t}\n\n\tfunction createRound(address _platformAddress, address _tournamentAddress, address _owner, uint256 _roundIndex, LibConstruction.RoundData roundData) public returns (address _roundAddress) {\n\t\tMatryxRound newRound = new MatryxRound(_platformAddress, matryxTokenAddress, _tournamentAddress, matryxSubmissionFactoryAddress, _owner, _roundIndex, roundData);\n\t\treturn newRound;\n\t}\n\t\n\t/// @dev Sets an address for a contract the platform should know about.\n\t/// @param _nameHash Keccak256 hash of the name of the contract to give an address to.\n\t/// @param _contractAddress Address to be assigned for the given contract name.\n\tfunction setContractAddress(bytes32 _nameHash, address _contractAddress) public onlyOwner\n\t{\n\t\tcontracts[_nameHash] = _contractAddress;\n\t}\n\n\t/// @dev Gets the address of a contract the platform knows about.\n\t/// @param _nameHash Keccak256 hash of the name of the contract to look for.\n\t/// @return Address of the contract with the designated name.\n\tfunction getContractAddress(bytes32 _nameHash) public view returns (address contractAddress)\n\t{\n\t\treturn contracts[_nameHash];\n\t}\n}",
  "sourcePath": "/Users/samhessenauer/Documents/Software/git.nosync/MatryxPlatform/contracts/factories/MatryxRoundFactory.sol",
  "compiler": {
    "name": "solc",
    "version": "0.4.24+commit.e67f0147.Emscripten.clang"
  },
  "schemaVersion": "2.0.0",
  "updatedAt": "2018-07-06T01:59:51.542Z"
}