{
  "contractName": "MatryxTournament",
  "abi": [
    {
      "constant": true,
      "inputs": [],
      "name": "entryFee",
      "outputs": [
        {
          "name": "",
          "type": "uint256"
        }
      ],
      "payable": false,
      "stateMutability": "view",
      "type": "function"
    },
    {
      "constant": true,
      "inputs": [],
      "name": "matryxTokenAddress",
      "outputs": [
        {
          "name": "",
          "type": "address"
        }
      ],
      "payable": false,
      "stateMutability": "view",
      "type": "function"
    },
    {
      "constant": true,
      "inputs": [
        {
          "name": "_sender",
          "type": "address"
        }
      ],
      "name": "isOwner",
      "outputs": [
        {
          "name": "_isOwner",
          "type": "bool"
        }
      ],
      "payable": false,
      "stateMutability": "view",
      "type": "function"
    },
    {
      "constant": true,
      "inputs": [
        {
          "name": "",
          "type": "uint256"
        }
      ],
      "name": "title",
      "outputs": [
        {
          "name": "",
          "type": "bytes32"
        }
      ],
      "payable": false,
      "stateMutability": "view",
      "type": "function"
    },
    {
      "constant": true,
      "inputs": [],
      "name": "tournamentOpenedTime",
      "outputs": [
        {
          "name": "",
          "type": "uint256"
        }
      ],
      "payable": false,
      "stateMutability": "view",
      "type": "function"
    },
    {
      "constant": true,
      "inputs": [
        {
          "name": "",
          "type": "uint256"
        }
      ],
      "name": "descriptionHash",
      "outputs": [
        {
          "name": "",
          "type": "bytes32"
        }
      ],
      "payable": false,
      "stateMutability": "view",
      "type": "function"
    },
    {
      "constant": true,
      "inputs": [],
      "name": "titleTwo",
      "outputs": [
        {
          "name": "",
          "type": "string"
        }
      ],
      "payable": false,
      "stateMutability": "view",
      "type": "function"
    },
    {
      "constant": true,
      "inputs": [],
      "name": "matryxRoundFactoryAddress",
      "outputs": [
        {
          "name": "",
          "type": "address"
        }
      ],
      "payable": false,
      "stateMutability": "view",
      "type": "function"
    },
    {
      "constant": true,
      "inputs": [],
      "name": "getOwner",
      "outputs": [
        {
          "name": "_owner",
          "type": "address"
        }
      ],
      "payable": false,
      "stateMutability": "view",
      "type": "function"
    },
    {
      "constant": true,
      "inputs": [
        {
          "name": "",
          "type": "address"
        }
      ],
      "name": "isRound",
      "outputs": [
        {
          "name": "",
          "type": "bool"
        }
      ],
      "payable": false,
      "stateMutability": "view",
      "type": "function"
    },
    {
      "constant": true,
      "inputs": [
        {
          "name": "",
          "type": "uint256"
        }
      ],
      "name": "rounds",
      "outputs": [
        {
          "name": "",
          "type": "address"
        }
      ],
      "payable": false,
      "stateMutability": "view",
      "type": "function"
    },
    {
      "constant": true,
      "inputs": [],
      "name": "owner",
      "outputs": [
        {
          "name": "",
          "type": "address"
        }
      ],
      "payable": false,
      "stateMutability": "view",
      "type": "function"
    },
    {
      "constant": true,
      "inputs": [],
      "name": "Bounty",
      "outputs": [
        {
          "name": "",
          "type": "uint256"
        }
      ],
      "payable": false,
      "stateMutability": "view",
      "type": "function"
    },
    {
      "constant": true,
      "inputs": [],
      "name": "BountyLeft",
      "outputs": [
        {
          "name": "",
          "type": "uint256"
        }
      ],
      "payable": false,
      "stateMutability": "view",
      "type": "function"
    },
    {
      "constant": true,
      "inputs": [],
      "name": "categoryHash",
      "outputs": [
        {
          "name": "",
          "type": "bytes32"
        }
      ],
      "payable": false,
      "stateMutability": "view",
      "type": "function"
    },
    {
      "constant": true,
      "inputs": [],
      "name": "platformAddress",
      "outputs": [
        {
          "name": "",
          "type": "address"
        }
      ],
      "payable": false,
      "stateMutability": "view",
      "type": "function"
    },
    {
      "constant": true,
      "inputs": [],
      "name": "timeCreated",
      "outputs": [
        {
          "name": "",
          "type": "uint256"
        }
      ],
      "payable": false,
      "stateMutability": "view",
      "type": "function"
    },
    {
      "constant": false,
      "inputs": [
        {
          "name": "newOwner",
          "type": "address"
        }
      ],
      "name": "transferOwnership",
      "outputs": [],
      "payable": false,
      "stateMutability": "nonpayable",
      "type": "function"
    },
    {
      "inputs": [
        {
          "components": [
            {
              "name": "categoryHash",
              "type": "bytes32"
            },
            {
              "name": "title_1",
              "type": "bytes32"
            },
            {
              "name": "title_2",
              "type": "bytes32"
            },
            {
              "name": "title_3",
              "type": "bytes32"
            },
            {
              "name": "contentHash_1",
              "type": "bytes32"
            },
            {
              "name": "contentHash_2",
              "type": "bytes32"
            },
            {
              "name": "Bounty",
              "type": "uint256"
            },
            {
              "name": "entryFee",
              "type": "uint256"
            }
          ],
          "name": "tournamentData",
          "type": "tuple"
        },
        {
          "components": [
            {
              "name": "start",
              "type": "uint256"
            },
            {
              "name": "end",
              "type": "uint256"
            },
            {
              "name": "reviewDuration",
              "type": "uint256"
            },
            {
              "name": "bounty",
              "type": "uint256"
            }
          ],
          "name": "roundData",
          "type": "tuple"
        },
        {
          "name": "_platformAddress",
          "type": "address"
        },
        {
          "name": "_matryxTokenAddress",
          "type": "address"
        },
        {
          "name": "_matryxRoundFactoryAddress",
          "type": "address"
        },
        {
          "name": "_owner",
          "type": "address"
        }
      ],
      "payable": false,
      "stateMutability": "nonpayable",
      "type": "constructor"
    },
    {
      "anonymous": false,
      "inputs": [
        {
          "indexed": false,
          "name": "_startTime",
          "type": "uint256"
        },
        {
          "indexed": false,
          "name": "_endTime",
          "type": "uint256"
        },
        {
          "indexed": false,
          "name": "_reviewDuration",
          "type": "uint256"
        },
        {
          "indexed": false,
          "name": "_roundAddress",
          "type": "address"
        },
        {
          "indexed": false,
          "name": "_roundNumber",
          "type": "uint256"
        }
      ],
      "name": "NewRound",
      "type": "event"
    },
    {
      "anonymous": false,
      "inputs": [
        {
          "indexed": false,
          "name": "_roundIndex",
          "type": "uint256"
        },
        {
          "indexed": false,
          "name": "_submissionAddress",
          "type": "address"
        }
      ],
      "name": "SubmissionCreated",
      "type": "event"
    },
    {
      "anonymous": false,
      "inputs": [
        {
          "indexed": false,
          "name": "_submissionAddresses",
          "type": "address[]"
        }
      ],
      "name": "RoundWinnersChosen",
      "type": "event"
    },
    {
      "constant": false,
      "inputs": [
        {
          "name": "_submissionAddress",
          "type": "address"
        }
      ],
      "name": "invokeSubmissionCreatedEvent",
      "outputs": [],
      "payable": false,
      "stateMutability": "nonpayable",
      "type": "function"
    },
    {
      "constant": false,
      "inputs": [
        {
          "name": "_submissionAddress",
          "type": "address"
        },
        {
          "name": "_author",
          "type": "address"
        }
      ],
      "name": "removeSubmission",
      "outputs": [
        {
          "name": "",
          "type": "bool"
        }
      ],
      "payable": false,
      "stateMutability": "nonpayable",
      "type": "function"
    },
    {
      "constant": true,
      "inputs": [
        {
          "name": "_sender",
          "type": "address"
        }
      ],
      "name": "isEntrant",
      "outputs": [
        {
          "name": "",
          "type": "bool"
        }
      ],
      "payable": false,
      "stateMutability": "view",
      "type": "function"
    },
    {
      "constant": true,
      "inputs": [],
      "name": "getState",
      "outputs": [
        {
          "name": "",
          "type": "uint256"
        }
      ],
      "payable": false,
      "stateMutability": "view",
      "type": "function"
    },
    {
      "constant": true,
      "inputs": [],
      "name": "getPlatform",
      "outputs": [
        {
          "name": "_platformAddress",
          "type": "address"
        }
      ],
      "payable": false,
      "stateMutability": "view",
      "type": "function"
    },
    {
      "constant": true,
      "inputs": [],
      "name": "getTitle",
      "outputs": [
        {
          "name": "_title",
          "type": "bytes32[3]"
        }
      ],
      "payable": false,
      "stateMutability": "view",
      "type": "function"
    },
    {
      "constant": true,
      "inputs": [],
      "name": "getCategory",
      "outputs": [
        {
          "name": "_category",
          "type": "string"
        }
      ],
      "payable": false,
      "stateMutability": "view",
      "type": "function"
    },
    {
      "constant": true,
      "inputs": [],
      "name": "getDescriptionHash",
      "outputs": [
        {
          "name": "_descriptionHash",
          "type": "bytes32[2]"
        }
      ],
      "payable": false,
      "stateMutability": "view",
      "type": "function"
    },
    {
      "constant": true,
      "inputs": [],
      "name": "currentRound",
      "outputs": [
        {
          "name": "_currentRound",
          "type": "uint256"
        },
        {
          "name": "_currentRoundAddress",
          "type": "address"
        }
      ],
      "payable": false,
      "stateMutability": "view",
      "type": "function"
    },
    {
      "constant": true,
      "inputs": [],
      "name": "mySubmissions",
      "outputs": [
        {
          "name": "",
          "type": "address[]"
        }
      ],
      "payable": false,
      "stateMutability": "view",
      "type": "function"
    },
    {
      "constant": true,
      "inputs": [],
      "name": "submissionCount",
      "outputs": [
        {
          "name": "_submissionCount",
          "type": "uint256"
        }
      ],
      "payable": false,
      "stateMutability": "view",
      "type": "function"
    },
    {
      "constant": true,
      "inputs": [],
      "name": "entrantCount",
      "outputs": [
        {
          "name": "_entrantCount",
          "type": "uint256"
        }
      ],
      "payable": false,
      "stateMutability": "view",
      "type": "function"
    },
    {
      "constant": false,
      "inputs": [
        {
          "components": [
            {
              "name": "title_1",
              "type": "bytes32"
            },
            {
              "name": "title_2",
              "type": "bytes32"
            },
            {
              "name": "title_3",
              "type": "bytes32"
            },
            {
              "name": "contentHash_1",
              "type": "bytes32"
            },
            {
              "name": "contentHash_2",
              "type": "bytes32"
            },
            {
              "name": "entryFee",
              "type": "uint256"
            },
            {
              "name": "entryFeeChanged",
              "type": "bool"
            }
          ],
          "name": "tournamentData",
          "type": "tuple"
        }
      ],
      "name": "update",
      "outputs": [],
      "payable": false,
      "stateMutability": "nonpayable",
      "type": "function"
    },
    {
      "constant": false,
      "inputs": [
        {
          "name": "_title",
          "type": "bytes32[3]"
        }
      ],
      "name": "updateTitle",
      "outputs": [],
      "payable": false,
      "stateMutability": "nonpayable",
      "type": "function"
    },
    {
      "constant": false,
      "inputs": [
        {
          "name": "_descriptionHash",
          "type": "bytes32[2]"
        }
      ],
      "name": "updateDescriptionHash",
      "outputs": [],
      "payable": false,
      "stateMutability": "nonpayable",
      "type": "function"
    },
    {
      "constant": false,
      "inputs": [
        {
          "name": "_entryFee",
          "type": "uint256"
        }
      ],
      "name": "updateEntryFee",
      "outputs": [],
      "payable": false,
      "stateMutability": "nonpayable",
      "type": "function"
    },
    {
      "constant": false,
      "inputs": [
        {
          "name": "_category",
          "type": "string"
        }
      ],
      "name": "updateCategory",
      "outputs": [],
      "payable": false,
      "stateMutability": "nonpayable",
      "type": "function"
    },
    {
      "constant": false,
      "inputs": [
        {
          "name": "_submissionAddresses",
          "type": "address[]"
        },
        {
          "name": "_rewardDistribution",
          "type": "uint256[]"
        },
        {
          "components": [
            {
              "name": "start",
              "type": "uint256"
            },
            {
              "name": "end",
              "type": "uint256"
            },
            {
              "name": "reviewDuration",
              "type": "uint256"
            },
            {
              "name": "bounty",
              "type": "uint256"
            }
          ],
          "name": "roundData",
          "type": "tuple"
        }
      ],
      "name": "closeRound",
      "outputs": [],
      "payable": false,
      "stateMutability": "nonpayable",
      "type": "function"
    },
    {
      "constant": false,
      "inputs": [
        {
          "name": "_submissionAddresses",
          "type": "address[]"
        },
        {
          "name": "_rewardDistribution",
          "type": "uint256[]"
        }
      ],
      "name": "closeTournament",
      "outputs": [],
      "payable": false,
      "stateMutability": "nonpayable",
      "type": "function"
    },
    {
      "constant": false,
      "inputs": [
        {
          "name": "_roundIndex",
          "type": "uint256"
        },
        {
          "name": "_bountyMTX",
          "type": "uint256"
        }
      ],
      "name": "sendBountyToRound",
      "outputs": [],
      "payable": false,
      "stateMutability": "nonpayable",
      "type": "function"
    },
    {
      "constant": true,
      "inputs": [],
      "name": "remainingBounty",
      "outputs": [
        {
          "name": "",
          "type": "uint256"
        }
      ],
      "payable": false,
      "stateMutability": "view",
      "type": "function"
    },
    {
      "constant": false,
      "inputs": [
        {
          "name": "_entrantAddress",
          "type": "address"
        }
      ],
      "name": "enterUserInTournament",
      "outputs": [
        {
          "name": "_success",
          "type": "bool"
        }
      ],
      "payable": false,
      "stateMutability": "nonpayable",
      "type": "function"
    },
    {
      "constant": true,
      "inputs": [],
      "name": "getEntryFee",
      "outputs": [
        {
          "name": "",
          "type": "uint256"
        }
      ],
      "payable": false,
      "stateMutability": "view",
      "type": "function"
    },
    {
      "constant": false,
      "inputs": [
        {
          "name": "_contributors",
          "type": "address[]"
        },
        {
          "name": "_contributorRewardDistribution",
          "type": "uint128[]"
        },
        {
          "name": "_references",
          "type": "address[]"
        },
        {
          "components": [
            {
              "name": "title",
              "type": "string"
            },
            {
              "name": "owner",
              "type": "address"
            },
            {
              "name": "contentHash",
              "type": "bytes"
            },
            {
              "name": "isPublic",
              "type": "bool"
            }
          ],
          "name": "submissionData",
          "type": "tuple"
        }
      ],
      "name": "createSubmission",
      "outputs": [
        {
          "name": "_submissionAddress",
          "type": "address"
        }
      ],
      "payable": false,
      "stateMutability": "nonpayable",
      "type": "function"
    }
  ],
  "bytecode": "0x608060405260006012553480156200001657600080fd5b5060405161020080620038eb833981018060405262000039919081019062000680565b6000805460018054600160a060020a03888116600160a060020a031992831617909255600280548884169083161790556003805487841690831617905542600b559084169181163317161790558551600a55602086015160045560408601516005556060860151600655608086015160085560a086015160095560c0860151600f5560e0860151601155620000d785640100000000620000e4810204565b50505050505050620008d4565b600354600090600160a060020a031681806200010864010000000062000410810204565b9050846060015160001415620001e157600d805460001981019081106200012b57fe5b9060005260206000200160009054906101000a9004600160a060020a0316600160a060020a031663f49bff7b6040518163ffffffff167c0100000000000000000000000000000000000000000000000000000000028152600401602060405180830381600087803b158015620001a057600080fd5b505af1158015620001b5573d6000803e3d6000fd5b505050506040513d601f19601f82011682018060405250620001db91908101906200071a565b60608601525b8085606001511115620001f657606085018190525b6001546040517f6ecd3a9c000000000000000000000000000000000000000000000000000000008152600160a060020a0385811692636ecd3a9c92620002499290911690309033908b90600401620007ba565b602060405180830381600087803b1580156200026457600080fd5b505af115801562000279573d6000803e3d6000fd5b505050506040513d601f19601f820116820180604052506200029f919081019062000636565b600d5490925060011015620003575760025460608601516040517fa9059cbb000000000000000000000000000000000000000000000000000000008152600160a060020a039092169163a9059cbb91620002ff9186919060040162000800565b602060405180830381600087803b1580156200031a57600080fd5b505af11580156200032f573d6000803e3d6000fd5b505050506040513d601f19601f820116820180604052506200035591908101906200065f565b505b600160a060020a0382166000818152600e60209081526040808320805460ff19166001908117909155600d80549182018155938490527fd7b6990105719101dabeb77144f2a3385c8033acd3af97e9423a695e81ad1eb5018054600160a060020a03191690941790935587519088015188840151925493517f7d3cfca05a07773179cf217e8ffc51764c3dce48e826d85feb2b280f7674eeef9462000400949188919062000835565b60405180910390a1509392505050565b6002546040517f70a08231000000000000000000000000000000000000000000000000000000008152600091600160a060020a0316906370a08231906200045c9030906004016200081f565b602060405180830381600087803b1580156200047757600080fd5b505af11580156200048c573d6000803e3d6000fd5b505050506040513d601f19601f82011682018060405250620004b291908101906200071a565b905090565b6000620004c58251620008b3565b9392505050565b6000620004c58251620008c2565b6000620004c58251620008bf565b600060808284031215620004fb57600080fd5b6200050760806200088b565b90506000620005178484620004da565b82525060206200052a84848301620004da565b60208301525060406200054084828501620004da565b60408301525060606200055684828501620004da565b60608301525092915050565b600061010082840312156200057657600080fd5b620005836101006200088b565b90506000620005938484620004da565b8252506020620005a684848301620004da565b6020830152506040620005bc84828501620004da565b6040830152506060620005d284828501620004da565b6060830152506080620005e884828501620004da565b60808301525060a0620005fe84828501620004da565b60a08301525060c06200061484828501620004da565b60c08301525060e06200062a84828501620004da565b60e08301525092915050565b6000602082840312156200064957600080fd5b6000620006578484620004b7565b949350505050565b6000602082840312156200067257600080fd5b6000620006578484620004cc565b60008060008060008061020087890312156200069b57600080fd5b6000620006a9898962000562565b965050610100620006bd89828a01620004e8565b955050610180620006d189828a01620004b7565b9450506101a0620006e589828a01620004b7565b9350506101c0620006f989828a01620004b7565b9250506101e06200070d89828a01620004b7565b9150509295509295509295565b6000602082840312156200072d57600080fd5b6000620006578484620004da565b6200074681620008b3565b82525050565b6200074681620008c7565b805160808301906200076a8482620007af565b5060208201516200077f6020850182620007af565b506040820151620007946040850182620007af565b506060820151620007a96060850182620007af565b50505050565b6200074681620008bf565b60e08101620007ca82876200073b565b620007d960208301866200074c565b620007e860408301856200073b565b620007f7606083018462000757565b95945050505050565b604081016200081082856200073b565b620004c56020830184620007af565b602081016200082f82846200074c565b92915050565b60a08101620008458288620007af565b620008546020830187620007af565b620008636040830186620007af565b6200087260608301856200073b565b620008816080830184620007af565b9695505050505050565b60405181810167ffffffffffffffff81118282101715620008ab57600080fd5b604052919050565b600160a060020a031690565b90565b151590565b60006200082f82620008b3565b61300780620008e46000396000f3006080604052600436106102035763ffffffff7c0100000000000000000000000000000000000000000000000000000000600035041663072ea61c81146102085780630befb0a51461023357806315dc132e146102485780631865c57d14610275578063215381aa1461028a57806323721e24146102ac578063245edf06146102cc57806324d9a0d9146102ee57806328d576d71461030e57806329cc545e1461033b5780632f54bf6e146103505780632fc1f1901461037057806335a1223a14610385578063447411f3146103a55780634644c51b146103ba578063519b37a9146103da57806352c01fab146103fa5780635ce7a46a1461041a5780636ec02be91461043a5780636f3b93bb1461044f5780636fe564201461047157806380258e4714610486578063893d20e81461049b57806389f3beb6146104b05780638a19c8bc146104c55780638c1fc0bb146104e85780638c65c81f146105085780638da5cb5b14610528578063a968c4b91461053d578063aa1826261461055d578063aa53d5041461057d578063ab88ef6814610592578063aceed303146105a7578063c0bb3b60146105c7578063d83717e1146105dc578063dbe55e56146105fc578063e139a20c14610611578063e586a4f014610633578063f1653f6e14610648578063f2fde38b1461065d578063fc116acd1461067d578063ff3c1a8f1461069d575b600080fd5b34801561021457600080fd5b5061021d6106bf565b60405161022a9190612dcf565b60405180910390f35b34801561023f57600080fd5b5061021d6106c5565b34801561025457600080fd5b50610268610263366004612648565b610774565b60405161022a9190612bf1565b34801561028157600080fd5b5061021d610c72565b34801561029657600080fd5b506102aa6102a5366004612767565b610d16565b005b3480156102b857600080fd5b506102aa6102c7366004612901565b610ffc565b3480156102d857600080fd5b506102e16110ff565b60405161022a9190612da5565b3480156102fa57600080fd5b506102aa6103093660046127e3565b61113a565b34801561031a57600080fd5b5061032e6103293660046125ca565b61116f565b60405161022a9190612dc1565b34801561034757600080fd5b50610268611281565b34801561035c57600080fd5b5061032e61036b3660046125ca565b61129d565b34801561037c57600080fd5b506102686112be565b34801561039157600080fd5b5061021d6103a03660046128c5565b6112da565b3480156103b157600080fd5b5061021d6112ee565b3480156103c657600080fd5b506102aa6103d53660046125ca565b6112f4565b3480156103e657600080fd5b506102aa6103f53660046128a7565b611356565b34801561040657600080fd5b5061032e6104153660046125ca565b6113a4565b34801561042657600080fd5b5061021d6104353660046128c5565b6113cf565b34801561044657600080fd5b5061021d6113dc565b34801561045b57600080fd5b506104646113e2565b60405161022a9190612deb565b34801561047d57600080fd5b50610268611470565b34801561049257600080fd5b5061046461148c565b3480156104a757600080fd5b5061026861153b565b3480156104bc57600080fd5b5061021d611557565b3480156104d157600080fd5b506104da61155d565b60405161022a929190612e0c565b3480156104f457600080fd5b5061032e6105033660046125ca565b6115a0565b34801561051457600080fd5b506102686105233660046128c5565b6115b5565b34801561053457600080fd5b506102686115ea565b34801561054957600080fd5b5061032e61055836600461260e565b611606565b34801561056957600080fd5b506102aa6105783660046128c5565b611747565b34801561058957600080fd5b5061021d611770565b34801561059e57600080fd5b5061021d611776565b3480156105b357600080fd5b506102aa6105c2366004612708565b61177c565b3480156105d357600080fd5b5061021d611af4565b3480156105e857600080fd5b506102aa6105f7366004612801565b611afa565b34801561060857600080fd5b50610268611b2b565b34801561061d57600080fd5b50610626611b47565b60405161022a9190612d0a565b34801561063f57600080fd5b5061021d611bc9565b34801561065457600080fd5b5061021d611bcf565b34801561066957600080fd5b506102aa6106783660046125ca565b611bd5565b34801561068957600080fd5b506102aa61069836600461283d565b611c62565b3480156106a957600080fd5b506106b2611c86565b60405161022a9190612db3565b60115481565b6002546040517f70a0823100000000000000000000000000000000000000000000000000000000815260009173ffffffffffffffffffffffffffffffffffffffff16906370a082319061071c903090600401612ddd565b602060405180830381600087803b15801561073657600080fd5b505af115801561074a573d6000803e3d6000fd5b505050506040513d601f19601f8201168201806040525061076e91908101906128e3565b90505b90565b336000908152601560205260408120548190819060ff1680151561079757600080fd5b6001546040517f532311c4000000000000000000000000000000000000000000000000000000008152339173ffffffffffffffffffffffffffffffffffffffff1690819063532311c4906107ef908590600401612bf1565b602060405180830381600087803b15801561080957600080fd5b505af115801561081d573d6000803e3d6000fd5b505050506040513d601f19601f82011682018060405250610841919081019061281f565b151561084c57600080fd5b6001610856610c72565b1461086057600080fd5b60015460208801516040517f6a44e43d00000000000000000000000000000000000000000000000000000000815273ffffffffffffffffffffffffffffffffffffffff90921691636a44e43d916108b991600401612bf1565b602060405180830381600087803b1580156108d357600080fd5b505af11580156108e7573d6000803e3d6000fd5b505050506040513d601f19601f8201168201806040525061090b91908101906125f0565b600d805491965090600019810190811061092157fe5b6000918252602090912001546040517f8734fe4c00000000000000000000000000000000000000000000000000000000815273ffffffffffffffffffffffffffffffffffffffff90911690638734fe4c90610988908d908d908d908b908e90600401612d1b565b602060405180830381600087803b1580156109a257600080fd5b505af11580156109b6573d6000803e3d6000fd5b505050506040513d601f19601f820116820180604052506109da91908101906125f0565b6001546040517f8c593a8c00000000000000000000000000000000000000000000000000000000815291955073ffffffffffffffffffffffffffffffffffffffff1690638c593a8c90610a339087908c90600401612c1a565b602060405180830381600087803b158015610a4d57600080fd5b505af1158015610a61573d6000803e3d6000fd5b505050506040513d601f19601f82011682018060405250610a85919081019061281f565b506012541515610b375760015460005460048054600554600654600854600954600f546011546040517fa923251e00000000000000000000000000000000000000000000000000000000815273ffffffffffffffffffffffffffffffffffffffff9a8b169a63a923251e9a610b049a9116989796959493929101612c3a565b600060405180830381600087803b158015610b1e57600080fd5b505af1158015610b32573d6000803e3d6000fd5b505050505b601254610b4b90600163ffffffff611cbc16565b60125560408051808201825260018082523360008181526013602081815286832080548288019081528585526014835288852073ffffffffffffffffffffffffffffffffffffffff8e81168088529185528a872099518a5460ff1916901515178a5591519888019890985592825280548087018255908452922090910180547fffffffffffffffffffffffff000000000000000000000000000000000000000016909417909355905492517fab9583d9000000000000000000000000000000000000000000000000000000008152929091169163ab9583d991610c32918890600401612bff565b600060405180830381600087803b158015610c4c57600080fd5b505af1158015610c60573d6000803e3d6000fd5b50959c9b505050505050505050505050565b600d8054600091906000198101908110610c8857fe5b9060005260206000200160009054906101000a900473ffffffffffffffffffffffffffffffffffffffff1673ffffffffffffffffffffffffffffffffffffffff16631865c57d6040518163ffffffff167c0100000000000000000000000000000000000000000000000000000000028152600401602060405180830381600087803b15801561073657600080fd5b60005473ffffffffffffffffffffffffffffffffffffffff163314610d3a57600080fd5b6002610d44610c72565b14610d84576040517f08c379a0000000000000000000000000000000000000000000000000000000008152600401610d7b90612dfc565b60405180910390fd5b600d80546000198101908110610d9657fe5b6000918252602090912001546040517fc2d426cf00000000000000000000000000000000000000000000000000000000815273ffffffffffffffffffffffffffffffffffffffff9091169063c2d426cf90610df79086908690600401612d80565b600060405180830381600087803b158015610e1157600080fd5b505af1158015610e25573d6000803e3d6000fd5b505050507f5ec9914f46ca24eeb7222e98b6f699b769ab33c1d88072c0651eb9bb19478ad583604051610e589190612d0a565b60405180910390a1610e686106c5565b1515610fe857610e78838361177c565b600154600d805473ffffffffffffffffffffffffffffffffffffffff909216916331f4c5d391869086906000198401848110610eb057fe5b9060005260206000200160009054906101000a900473ffffffffffffffffffffffffffffffffffffffff1673ffffffffffffffffffffffffffffffffffffffff1663f49bff7b6040518163ffffffff167c0100000000000000000000000000000000000000000000000000000000028152600401602060405180830381600087803b158015610f3e57600080fd5b505af1158015610f52573d6000803e3d6000fd5b505050506040513d601f19601f82011682018060405250610f7691908101906128e3565b6040518563ffffffff167c0100000000000000000000000000000000000000000000000000000000028152600401610fb19493929190612e1a565b600060405180830381600087803b158015610fcb57600080fd5b505af1158015610fdf573d6000803e3d6000fd5b50505050610ff7565b60008152610ff581611cd2565b505b505050565b60015473ffffffffffffffffffffffffffffffffffffffff16331461102057600080fd5b600254600d805473ffffffffffffffffffffffffffffffffffffffff9092169163a9059cbb91908590811061105157fe5b6000918252602090912001546040517c010000000000000000000000000000000000000000000000000000000063ffffffff84160281526110ad9173ffffffffffffffffffffffffffffffffffffffff16908590600401612cef565b602060405180830381600087803b1580156110c757600080fd5b505af11580156110db573d6000803e3d6000fd5b505050506040513d601f19601f82011682018060405250610ff7919081019061281f565b611107612055565b60408051808201918290529060089060029082845b8154815260019091019060200180831161111c575050505050905090565b60005473ffffffffffffffffffffffffffffffffffffffff16331461115e57600080fd5b61116b6008826002612070565b5050565b60015460009073ffffffffffffffffffffffffffffffffffffffff16331461119657600080fd5b60016111a0610c72565b146111aa57600080fd5b73ffffffffffffffffffffffffffffffffffffffff821660009081526015602052604090205460ff161515600114156111e55750600061127c565b5073ffffffffffffffffffffffffffffffffffffffff81166000818152601560205260408120805460ff1916600190811782556011549181019190915560168054808301825592527fd833147d7dc355ba459fc788f669e58cfaf9dc25ddcd0702e87d69c7b512428990910180547fffffffffffffffffffffffff0000000000000000000000000000000000000000169092179091555b919050565b60025473ffffffffffffffffffffffffffffffffffffffff1681565b60005473ffffffffffffffffffffffffffffffffffffffff91821691161490565b60015473ffffffffffffffffffffffffffffffffffffffff1690565b600481600381106112e757fe5b0154905081565b600c5481565b336000908152600e602052604090205460ff16151561131257600080fd5b7f5fbb3d346317d5ecdb86412d4c69c7503ff4dbed1eccd4cb6290453ea0b1a3226001600d80549050038260405161134b929190612e0c565b60405180910390a150565b805115611373578051600455602081015160055560408101516006555b60608101511561138e57606081015160085560808101516009555b8060c00151156113a15760a08101516011555b50565b73ffffffffffffffffffffffffffffffffffffffff1660009081526015602052604090205460ff1690565b600881600281106112e757fe5b60125490565b6007805460408051602060026001851615610100026000190190941693909304601f810184900484028201840190925281815292918301828280156114685780601f1061143d57610100808354040283529160200191611468565b820191906000526020600020905b81548152906001019060200180831161144b57829003601f168201915b505050505081565b60035473ffffffffffffffffffffffffffffffffffffffff1681565b600154600a546040517f8d1d498c00000000000000000000000000000000000000000000000000000000815260609273ffffffffffffffffffffffffffffffffffffffff1691638d1d498c916114e59190600401612dcf565b600060405180830381600087803b1580156114ff57600080fd5b505af1158015611513573d6000803e3d6000fd5b505050506040513d6000823e601f3d908101601f1916820160405261076e9190810190612872565b60005473ffffffffffffffffffffffffffffffffffffffff1690565b60165490565b600d8054600091829190600019820182811061157557fe5b60009182526020909120015490925073ffffffffffffffffffffffffffffffffffffffff1690509091565b600e6020526000908152604090205460ff1681565b600d8054829081106115c357fe5b60009182526020909120015473ffffffffffffffffffffffffffffffffffffffff16905081565b60005473ffffffffffffffffffffffffffffffffffffffff1681565b60015460009073ffffffffffffffffffffffffffffffffffffffff16331461162d57600080fd5b73ffffffffffffffffffffffffffffffffffffffff80831660009081526014602090815260408083209387168352929052205460ff16151561166e57600080fd5b60125461168290600163ffffffff61204316565b60125573ffffffffffffffffffffffffffffffffffffffff808316600090815260136020908152604080832060148352818420948816845293909152902060010154815481106116ce57fe5b6000918252602080832090910180547fffffffffffffffffffffffff000000000000000000000000000000000000000016905573ffffffffffffffffffffffffffffffffffffffff8481168352601482526040808420918716845291528120805460ff1916815560019081019190915590505b92915050565b60005473ffffffffffffffffffffffffffffffffffffffff16331461176b57600080fd5b601155565b600f5481565b60105481565b60005473ffffffffffffffffffffffffffffffffffffffff1633146117a057600080fd5b60026117aa610c72565b146117b457600080fd5b600254600d805473ffffffffffffffffffffffffffffffffffffffff9092169163a9059cbb919060001981019081106117e957fe5b60009182526020909120015473ffffffffffffffffffffffffffffffffffffffff166118136106c5565b6040518363ffffffff167c010000000000000000000000000000000000000000000000000000000002815260040161184c929190612cef565b602060405180830381600087803b15801561186657600080fd5b505af115801561187a573d6000803e3d6000fd5b505050506040513d601f19601f8201168201806040525061189e919081019061281f565b15156118a957600080fd5b600d805460001981019081106118bb57fe5b6000918252602090912001546040517fc2d426cf00000000000000000000000000000000000000000000000000000000815273ffffffffffffffffffffffffffffffffffffffff9091169063c2d426cf9061191c9085908590600401612d80565b600060405180830381600087803b15801561193657600080fd5b505af115801561194a573d6000803e3d6000fd5b505050507f5ec9914f46ca24eeb7222e98b6f699b769ab33c1d88072c0651eb9bb19478ad58260405161197d9190612d0a565b60405180910390a1600154600d805473ffffffffffffffffffffffffffffffffffffffff909216916331f4c5d3918590859060001984018481106119bd57fe5b9060005260206000200160009054906101000a900473ffffffffffffffffffffffffffffffffffffffff1673ffffffffffffffffffffffffffffffffffffffff1663f49bff7b6040518163ffffffff167c0100000000000000000000000000000000000000000000000000000000028152600401602060405180830381600087803b158015611a4b57600080fd5b505af1158015611a5f573d6000803e3d6000fd5b505050506040513d601f19601f82011682018060405250611a8391908101906128e3565b6040518563ffffffff167c0100000000000000000000000000000000000000000000000000000000028152600401611abe9493929190612e1a565b600060405180830381600087803b158015611ad857600080fd5b505af1158015611aec573d6000803e3d6000fd5b505050505050565b600a5481565b60005473ffffffffffffffffffffffffffffffffffffffff163314611b1e57600080fd5b61116b60048260036120ac565b60015473ffffffffffffffffffffffffffffffffffffffff1681565b336000908152601360209081526040918290208054835181840281018401909452808452606093849390929190830182828015611bba57602002820191906000526020600020905b815473ffffffffffffffffffffffffffffffffffffffff168152600190910190602001808311611b8f575b505050505090508091505b5090565b60115490565b600b5481565b60005473ffffffffffffffffffffffffffffffffffffffff163314611bf957600080fd5b73ffffffffffffffffffffffffffffffffffffffff81161515611c1b57600080fd5b600080547fffffffffffffffffffffffff00000000000000000000000000000000000000001673ffffffffffffffffffffffffffffffffffffffff92909216919091179055565b60005473ffffffffffffffffffffffffffffffffffffffff1633146113a157600080fd5b611c8e6120db565b604080516060810191829052600480548252909160039060056020850180831161111c575050505050905090565b600082820183811015611ccb57fe5b9392505050565b60035460009073ffffffffffffffffffffffffffffffffffffffff168180611cf86106c5565b9050846060015160001415611de557600d80546000198101908110611d1957fe5b9060005260206000200160009054906101000a900473ffffffffffffffffffffffffffffffffffffffff1673ffffffffffffffffffffffffffffffffffffffff1663f49bff7b6040518163ffffffff167c0100000000000000000000000000000000000000000000000000000000028152600401602060405180830381600087803b158015611da757600080fd5b505af1158015611dbb573d6000803e3d6000fd5b505050506040513d601f19601f82011682018060405250611ddf91908101906128e3565b60608601525b8085606001511115611df957606085018190525b6001546040517f6ecd3a9c00000000000000000000000000000000000000000000000000000000815273ffffffffffffffffffffffffffffffffffffffff85811692636ecd3a9c92611e579290911690309033908b90600401612cb1565b602060405180830381600087803b158015611e7157600080fd5b505af1158015611e85573d6000803e3d6000fd5b505050506040513d601f19601f82011682018060405250611ea991908101906125f0565b600d5490925060011015611f675760025460608601516040517fa9059cbb00000000000000000000000000000000000000000000000000000000815273ffffffffffffffffffffffffffffffffffffffff9092169163a9059cbb91611f1391869190600401612cef565b602060405180830381600087803b158015611f2d57600080fd5b505af1158015611f41573d6000803e3d6000fd5b505050506040513d601f19601f82011682018060405250611f65919081019061281f565b505b73ffffffffffffffffffffffffffffffffffffffff82166000818152600e60209081526040808320805460ff19166001908117909155600d80549182018155938490527fd7b6990105719101dabeb77144f2a3385c8033acd3af97e9423a695e81ad1eb50180547fffffffffffffffffffffffff00000000000000000000000000000000000000001690941790935587519088015188840151925493517f7d3cfca05a07773179cf217e8ffc51764c3dce48e826d85feb2b280f7674eeef946120339491889190612e5d565b60405180910390a1509392505050565b60008282111561204f57fe5b50900390565b60408051808201825290600290829080388339509192915050565b82600281019282156120a0579160200282015b828111156120a05782518255602090920191600190910190612083565b50611bc59291506120fa565b82600381019282156120a057916020028201828111156120a05782518255602090920191600190910190612083565b6060604051908101604052806003906020820280388339509192915050565b61077191905b80821115611bc55760008155600101612100565b6000611ccb8235612f4d565b6000611ccb8251612f4d565b6000601f8201831361213d57600080fd5b813561215061214b82612ed0565b612ea9565b9150818183526020840193506020810190508385602084028201111561217557600080fd5b60005b838110156121a1578161218b8882612114565b8452506020928301929190910190600101612178565b5050505092915050565b6000601f820183136121bc57600080fd5b60026121ca61214b82612ef1565b915081838560208402820111156121e057600080fd5b60005b838110156121a157816121f68882612365565b84525060209283019291909101906001016121e3565b6000601f8201831361221d57600080fd5b600361222b61214b82612ef1565b9150818385602084028201111561224157600080fd5b60005b838110156121a157816122578882612365565b8452506020928301929190910190600101612244565b6000601f8201831361227e57600080fd5b813561228c61214b82612ed0565b915081818352602084019350602081019050838560208402820111156122b157600080fd5b60005b838110156121a157816122c788826125b2565b84525060209283019291909101906001016122b4565b6000601f820183136122ee57600080fd5b81356122fc61214b82612ed0565b9150818183526020840193506020810190508385602084028201111561232157600080fd5b60005b838110156121a157816123378882612365565b8452506020928301929190910190600101612324565b6000611ccb8235612f66565b6000611ccb8251612f66565b6000611ccb8235610771565b6000601f8201831361238257600080fd5b813561239061214b82612f0f565b915080825260208301602083018583830111156123ac57600080fd5b6123b7838284612f8b565b50505092915050565b6000601f820183136123d157600080fd5b81516123df61214b82612f0f565b915080825260208301602083018583830111156123fb57600080fd5b6123b7838284612f97565b60006080828403121561241857600080fd5b6124226080612ea9565b905060006124308484612365565b825250602061244184848301612365565b602083015250604061245584828501612365565b604083015250606061246984828501612365565b60608301525092915050565b60006080828403121561248757600080fd5b6124916080612ea9565b9050813567ffffffffffffffff8111156124aa57600080fd5b6124b684828501612371565b82525060206124c784848301612114565b602083015250604082013567ffffffffffffffff8111156124e757600080fd5b6124f384828501612371565b60408301525060606124698482850161234d565b600060e0828403121561251957600080fd5b61252360e0612ea9565b905060006125318484612365565b825250602061254284848301612365565b602083015250604061255684828501612365565b604083015250606061256a84828501612365565b606083015250608061257e84828501612365565b60808301525060a061259284828501612365565b60a08301525060c06125a68482850161234d565b60c08301525092915050565b6000611ccb8235612f6b565b6000611ccb8251610771565b6000602082840312156125dc57600080fd5b60006125e88484612114565b949350505050565b60006020828403121561260257600080fd5b60006125e88484612120565b6000806040838503121561262157600080fd5b600061262d8585612114565b925050602061263e85828601612114565b9150509250929050565b6000806000806080858703121561265e57600080fd5b843567ffffffffffffffff81111561267557600080fd5b6126818782880161212c565b945050602085013567ffffffffffffffff81111561269e57600080fd5b6126aa8782880161226d565b935050604085013567ffffffffffffffff8111156126c757600080fd5b6126d38782880161212c565b925050606085013567ffffffffffffffff8111156126f057600080fd5b6126fc87828801612475565b91505092959194509250565b6000806040838503121561271b57600080fd5b823567ffffffffffffffff81111561273257600080fd5b61273e8582860161212c565b925050602083013567ffffffffffffffff81111561275b57600080fd5b61263e858286016122dd565b600080600060c0848603121561277c57600080fd5b833567ffffffffffffffff81111561279357600080fd5b61279f8682870161212c565b935050602084013567ffffffffffffffff8111156127bc57600080fd5b6127c8868287016122dd565b92505060406127d986828701612406565b9150509250925092565b6000604082840312156127f557600080fd5b60006125e884846121ab565b60006060828403121561281357600080fd5b60006125e8848461220c565b60006020828403121561283157600080fd5b60006125e88484612359565b60006020828403121561284f57600080fd5b813567ffffffffffffffff81111561286657600080fd5b6125e884828501612371565b60006020828403121561288457600080fd5b815167ffffffffffffffff81111561289b57600080fd5b6125e8848285016123c0565b600060e082840312156128b957600080fd5b60006125e88484612507565b6000602082840312156128d757600080fd5b60006125e88484612365565b6000602082840312156128f557600080fd5b60006125e884846125be565b6000806040838503121561291457600080fd5b60006129208585612365565b925050602061263e85828601612365565b61293a81612f4d565b82525050565b600061294b82612f3d565b80845260208401935061295d83612f37565b60005b8281101561298d57612973868351612931565b61297c82612f37565b602096909601959150600101612960565b5093949350505050565b6129a081612f41565b6129a982610771565b60005b828110156129d9576129bf858351612ac5565b6129c882612f37565b6020959095019491506001016129ac565b5050505050565b6129e981612f47565b6129f282610771565b60005b828110156129d957612a08858351612ac5565b612a1182612f37565b6020959095019491506001016129f5565b6000612a2d82612f3d565b808452602084019350612a3f83612f37565b60005b8281101561298d57612a55868351612be8565b612a5e82612f37565b602096909601959150600101612a42565b6000612a7a82612f3d565b808452602084019350612a8c83612f37565b60005b8281101561298d57612aa2868351612ac5565b612aab82612f37565b602096909601959150600101612a8f565b61293a81612f66565b61293a81610771565b6000612ad982612f3d565b808452612aed816020860160208601612f97565b612af681612fc3565b9093016020019392505050565b61293a81612f80565b601781527f526f756e64206973206e6f7420696e207265766965772e000000000000000000602082015260400190565b80516080830190612b4d8482612ac5565b506020820151612b606020850182612ac5565b506040820151612b736040850182612ac5565b506060820151610ff56060850182612ac5565b8051608080845260009190840190612b9e8282612ace565b9150506020830151612bb36020860182612931565b5060408301518482036040860152612bcb8282612ace565b9150506060830151612be06060860182612abc565b509392505050565b61293a81612f6b565b602081016117418284612931565b60408101612c0d8285612931565b611ccb6020830184612931565b60408101612c288285612931565b81810360208301526125e88184612940565b6101008101612c49828b612931565b612c56602083018a612ac5565b612c636040830189612ac5565b612c706060830188612ac5565b612c7d6080830187612ac5565b612c8a60a0830186612ac5565b612c9760c0830185612ac5565b612ca460e0830184612ac5565b9998505050505050505050565b60e08101612cbf8287612931565b612ccc6020830186612b03565b612cd96040830185612931565b612ce66060830184612b3c565b95945050505050565b60408101612cfd8285612931565b611ccb6020830184612ac5565b60208082528101611ccb8184612940565b60a08082528101612d2c8188612940565b90508181036020830152612d408187612a22565b90508181036040830152612d548186612940565b9050612d636060830185612931565b8181036080830152612d758184612b86565b979650505050505050565b60408082528101612d918185612940565b905081810360208301526125e88184612a6f565b604081016117418284612997565b6060810161174182846129e0565b602081016117418284612abc565b602081016117418284612ac5565b602081016117418284612b03565b60208082528101611ccb8184612ace565b6020808252810161174181612b0c565b60408101612c0d8285612ac5565b60808101612e288287612ac5565b8181036020830152612e3a8186612940565b90508181036040830152612e4e8185612a6f565b9050612ce66060830184612ac5565b60a08101612e6b8288612ac5565b612e786020830187612ac5565b612e856040830186612ac5565b612e926060830185612931565b612e9f6080830184612ac5565b9695505050505050565b60405181810167ffffffffffffffff81118282101715612ec857600080fd5b604052919050565b600067ffffffffffffffff821115612ee757600080fd5b5060209081020190565b600067ffffffffffffffff821115612f0857600080fd5b5060200290565b600067ffffffffffffffff821115612f2657600080fd5b506020601f91909101601f19160190565b60200190565b5190565b50600290565b50600390565b73ffffffffffffffffffffffffffffffffffffffff1690565b151590565b6fffffffffffffffffffffffffffffffff1690565b600061174182612f4d565b82818337506000910152565b60005b83811015612fb2578181015183820152602001612f9a565b83811115610ff55750506000910152565b601f01601f1916905600a265627a7a723058205fd27a127d56adc5063076c60e8cbc79c8cf1a29232720d2245838fbcb06f5666c6578706572696d656e74616cf50037",
  "source": " pragma solidity ^0.4.18;\n pragma experimental ABIEncoderV2;\n\nimport \"../libraries/strings/strings.sol\";\nimport \"../libraries/math/SafeMath.sol\";\nimport \"../libraries/LibConstruction.sol\";\nimport \"../interfaces/IMatryxPlatform.sol\";\nimport \"../interfaces/IMatryxTournament.sol\";\nimport \"../interfaces/factories/IMatryxRoundFactory.sol\";\nimport \"../interfaces/IMatryxRound.sol\";\nimport \"../interfaces/IMatryxToken.sol\";\nimport \"./Ownable.sol\";\n\n/// @title Tournament - The Matryx tournament.\n/// @author Max Howard - <max@nanome.ai>, Sam Hessenauer - <sam@nanome.ai>\ncontract MatryxTournament is Ownable, IMatryxTournament {\n    using SafeMath for uint256;\n    using strings for *;\n    \n    // TODO: condense and put in structs\n    //Platform identification\n    address public platformAddress;\n    address public matryxTokenAddress;\n    address public matryxRoundFactoryAddress;\n\n    //Tournament identification\n    bytes32[3] public title;\n    string public titleTwo;\n    bytes32[2] public descriptionHash;\n    bytes32 public categoryHash;\n\n    // Timing and State\n    uint256 public timeCreated;\n    uint256 public tournamentOpenedTime;\n    address[] public rounds;\n    mapping(address=>bool) public isRound;\n    // Reward and fee\n    uint256 public Bounty;\n    uint256 public BountyLeft;\n    uint256 public entryFee;\n\n    // address roundDelegate;\n    // bytes4 fnSelector_chooseWinner = bytes4(keccak256(\"chooseWinner(address)\"));\n    // bytes4 fnSelector_createRound = bytes4(keccak256(\"createRound(uint256)\"));\n    // bytes4 fnSelector_startRound = bytes4(keccak256(\"startRound(uint256)\"));\n\n    // TODO: Automatic round creation mechanism\n\n    // Submission tracking\n    uint256 numberOfSubmissions = 0;\n    mapping(address=>address[]) private entrantToSubmissions;\n    mapping(address=>mapping(address=>uint256_optional)) private entrantToSubmissionToSubmissionIndex;\n    mapping(address=>uint256_optional) private addressToIsEntrant;\n    address[] private allEntrants;\n\n    constructor(LibConstruction.TournamentData tournamentData, LibConstruction.RoundData roundData, address _platformAddress, address _matryxTokenAddress, address _matryxRoundFactoryAddress, address _owner) \n    {\n        //Clean inputs\n        //require(_owner != 0x0);\n        //require(tournamentData.title[0] != 0x0);\n        //require(tournamentData.Bounty > 0);\n        //require(_matryxRoundFactoryAddress != 0x0);\n        \n        platformAddress = _platformAddress;\n        matryxTokenAddress = _matryxTokenAddress;\n        matryxRoundFactoryAddress = _matryxRoundFactoryAddress;\n\n        timeCreated = now;\n        // Identification\n        owner = _owner;\n        categoryHash = tournamentData.categoryHash;\n        title[0] = tournamentData.title_1;\n        title[1] = tournamentData.title_2;\n        title[2] = tournamentData.title_3;\n        descriptionHash[0] = tournamentData.contentHash_1;\n        descriptionHash[1] = tournamentData.contentHash_2;\n        // Reward and fee\n        Bounty = tournamentData.Bounty;\n        //BountyLeft = Bounty;\n        entryFee = tournamentData.entryFee;\n\n        createRound(roundData);\n        // roundDelegate = IMatryxPlatform(platformAddress).getRoundLibAddress();\n    }\n\n    /*\n     * Structs\n     */\n\n    struct uint256_optional\n    {\n        bool exists;\n        uint256 value;\n    }\n\n    struct SubmissionLocation\n    {\n        uint256 roundIndex;\n        uint256 submissionIndex;\n    }\n\n    /*\n     * Events\n     */\n\n    event NewRound(uint256 _startTime, uint256 _endTime, uint256 _reviewDuration, address _roundAddress, uint256 _roundNumber);\n    //event RoundStarted(uint256 _roundIndex);\n    // Fired at the end of every round, one time per submission created in that round\n    event SubmissionCreated(uint256 _roundIndex, address _submissionAddress);\n    event RoundWinnersChosen(address[] _submissionAddresses);\n\n    /// @dev Allows rounds to invoke SubmissionCreated events on this tournament.\n    /// @param _submissionAddress Address of the submission.\n    function invokeSubmissionCreatedEvent(address _submissionAddress) public onlyRound\n    {\n        emit SubmissionCreated(rounds.length-1, _submissionAddress);\n    }\n\n    /*\n     * Modifiers\n     */\n\n    /// @dev Requires the function caller to be the platform.\n    modifier onlyPlatform()\n    {\n        require(msg.sender == platformAddress);\n        _;\n    }\n\n    modifier onlyRound()\n    {\n        require(isRound[msg.sender]);\n        _;\n    }\n\n    // modifier onlySubmission(address _submissionAddress, address _author)\n    // {\n    //     // If the submission does not exist,\n    //     // the address of the submission we return will not be msg.sender\n    //     // It will either be \n    //     // 1) The first submission, or\n    //     // 2) all 0s from having deleted it previously.\n    //     uint256 indexOfSubmission = entrantToSubmissionToSubmissionIndex[_author][_submissionAddress].value;\n    //     address submissionAddress = entrantToSubmissions[_author][indexOfSubmission];\n    //     require(_submissionAddress == msg.sender);\n    //     _;\n    // }\n\n    modifier onlyPeerLinked(address _sender)\n    {\n        IMatryxPlatform platform = IMatryxPlatform(platformAddress);\n        require(platform.hasPeer(_sender));\n        _;\n    }\n\n    /// @dev Requires the function caller to be an entrant.\n    modifier onlyEntrant()\n    {\n        bool senderIsEntrant = addressToIsEntrant[msg.sender].exists;\n        require(senderIsEntrant);\n        _;\n    }\n\n    /// @dev Requires the function caller to be the platform or the owner of this tournament\n    modifier platformOrOwner()\n    {\n        require((msg.sender == platformAddress)||(msg.sender == owner));\n        _;\n    }\n\n    modifier whileTournamentOpen()\n    {\n        require(getState() == uint256(TournamentState.RoundOpen));\n        _;\n    }\n\n    // /// @dev Requires the tournament to be open.\n    // modifier duringReviewPeriod()\n    // {\n    //     // TODO: Finish me!\n    //     require(isInReview());\n    //     _;\n    // }\n\n    // modifier whileBountyLeft(uint256 _nextRoundBounty)\n    // {\n    //     require(BountyLeft.sub(_nextRoundBounty) >= 0);\n    //     _;\n    // }\n\n    /*\n    * State Maintenance Methods\n    */\n\n    function removeSubmission(address _submissionAddress, address _author) public onlyPlatform returns (bool)\n    {\n        require(entrantToSubmissionToSubmissionIndex[_author][_submissionAddress].exists);\n        numberOfSubmissions = numberOfSubmissions.sub(1);\n        delete entrantToSubmissions[_author][entrantToSubmissionToSubmissionIndex[_author][_submissionAddress].value];\n        delete entrantToSubmissionToSubmissionIndex[_author][_submissionAddress];\n        return true;\n    }\n\n    /*\n     * Access Control Methods\n     */\n\n    /// @dev Returns whether or not the sender is an entrant in this tournament\n    /// @param _sender Explicit sender address.\n    /// @return Whether or not the sender is an entrant in this tournament.\n    function isEntrant(address _sender) public view returns (bool)\n    {\n        return addressToIsEntrant[_sender].exists;\n    }\n\n\n    //enum RoundState { NotYetOpen, Open, InReview, Closed, Abandoned }\n    enum TournamentState { RoundNotYetOpen, RoundOpen, RoundInReview, TournamentClosed, RoundAbandoned}\n    /// @dev Returns the state of the tournament. One of:\n    /// RoundNotYetOpen, RoundOpen, RoundInReview, TournamentClosed, RoundAbandoned\n    function getState() public view returns (uint256)\n    {\n        return IMatryxRound(rounds[rounds.length-1]).getState();\n    }\n\n    /*\n     * Getter Methods\n     */\n\n    function getPlatform() public view returns (address _platformAddress)\n    {\n        return platformAddress;\n    }\n\n    function getTitle() public view returns (bytes32[3] _title)\n    {\n        return title;\n    }\n\n    function getCategory() public view returns (string _category)\n    {\n        return IMatryxPlatform(platformAddress).hashForCategory(categoryHash);\n    }\n\n    /// @dev Returns the external address of the tournament.\n    /// @return _descriptionHash Off-chain content hash of tournament details (ipfs hash)\n    function getDescriptionHash() public view returns (bytes32[2] _descriptionHash)\n    {\n        return descriptionHash;\n    }\n\n    /// @dev Returns the current round number.\n    /// @return _currentRound Number of the current round.\n    function currentRound() public view returns (uint256 _currentRound, address _currentRoundAddress)\n    {\n        return (rounds.length, rounds[rounds.length-1]);\n    }\n\n    /// @dev Returns all of the sender's submissions to this tournament.\n    /// @return (_roundIndices[], _submissionIndices[]) Locations of the sender's submissions.\n    function mySubmissions() public view returns (address[])\n    {\n        address[] memory _mySubmissions = entrantToSubmissions[msg.sender];\n        return _mySubmissions;\n    }\n\n    /// @dev Returns the number of submissions made to this tournament.\n    /// @return _submissionCount Number of submissions made to this tournament.\n    function submissionCount() public view returns (uint256 _submissionCount)\n    {\n        return numberOfSubmissions;\n    }\n\n    function entrantCount() public view returns (uint256 _entrantCount)\n    {\n        return allEntrants.length;\n    }\n\n    /*\n     * Setter Methods\n     */\n\n    function update(LibConstruction.TournamentModificationData tournamentData)\n    {\n        if(tournamentData.title_1 != 0x0)\n        {\n            title[0] = tournamentData.title_1;\n            title[1] = tournamentData.title_2;\n            title[2] = tournamentData.title_3;\n        }\n        if(tournamentData.contentHash_1 != 0x0)\n        {\n            descriptionHash[0] = tournamentData.contentHash_1;\n            descriptionHash[1] = tournamentData.contentHash_2;\n        }\n        if(tournamentData.entryFeeChanged)\n        {\n            entryFee = tournamentData.entryFee;\n        }\n    }\n\n    function updateTitle(bytes32[3] _title) public onlyOwner\n    {\n        title = _title;\n    }\n\n    function updateDescriptionHash(bytes32[2] _descriptionHash) public onlyOwner\n    {\n        descriptionHash = _descriptionHash;\n    }\n\n    function updateEntryFee(uint256 _entryFee) public onlyOwner\n    {\n        entryFee = _entryFee;\n    }\n\n    function updateCategory(string _category) public onlyOwner\n    {\n        // if(!category.toSlice().empty())\n        // {\n        //     revert();\n        // }\n        // revert();\n        // category = _category;\n    }\n\n    /*\n     * Tournament Admin Methods\n     */\n\n    /// @dev Chooses the winner(s) of the current round. If this is the last round, \n    //       this method will also close the tournament.\n    /// @param _submissionAddresses The winning submission addresses\n    /// @param _rewardDistribution Distribution indicating how to split the reward among the submissions\n    /// @param roundData Information with which to create the next round. Includes:\n    ///   _start: (Ignored)\n    ///   _end:   The end time (seconds from unix epoch) of the next round\n    ///   _reviewDuration: The duration of time that will be allotted to review the next round\n    ///   _bountyMTX: The amount of MTX that can be won during the next round\n    function closeRound(address[] _submissionAddresses, uint256[] _rewardDistribution, LibConstruction.RoundData roundData) public onlyOwner\n    {\n        // Round must be in review to close\n        require(getState() == uint256(TournamentState.RoundInReview), \"Round is not in review.\");\n        // TODO: Create big red button (new method)\n\n        // Choose the winning submission(s) on the current round\n        IMatryxRound(rounds[rounds.length-1]).chooseWinningSubmissions(_submissionAddresses, _rewardDistribution);\n\n        // Event to notify web3 of the winning submission address\n        emit RoundWinnersChosen(_submissionAddresses);\n\n        // If there's no bounty left, end the tournament\n        if(remainingBounty() == 0)\n        {\n            closeTournament(_submissionAddresses, _rewardDistribution);\n            IMatryxPlatform(platformAddress).invokeTournamentClosedEvent(rounds.length, _submissionAddresses, _rewardDistribution, IMatryxRound(rounds[rounds.length-1]).getBounty());\n        }\n        else\n        {\n            roundData.start = 0;\n            createRound(roundData);\n        }\n    }\n\n    // @dev Chooses the winner of the tournament.\n    function closeTournament(address[] _submissionAddresses, uint256[] _rewardDistribution) public onlyOwner\n    {\n        // TODO: Validate that this is done.\n        require(getState() == uint256(TournamentState.RoundInReview));\n        //Transfer the remaining MTX in the tournament to the current round\n        require(IMatryxToken(matryxTokenAddress).transfer(rounds[rounds.length-1], remainingBounty()));\n        IMatryxRound(rounds[rounds.length-1]).chooseWinningSubmissions(_submissionAddresses, _rewardDistribution);\n        emit RoundWinnersChosen(_submissionAddresses);\n        IMatryxPlatform(platformAddress).invokeTournamentClosedEvent(rounds.length, _submissionAddresses, _rewardDistribution, IMatryxRound(rounds[rounds.length-1]).getBounty());\n    }\n\n    /// @dev Creates a new round.\n    /// @return The new round's address.\n    function createRound(LibConstruction.RoundData roundData) private returns (address _roundAddress)\n    {\n        //require((roundData.start >= now && roundData.start < roundData.end), \"Time parameters are invalid.\");\n\n        IMatryxRoundFactory roundFactory = IMatryxRoundFactory(matryxRoundFactoryAddress);\n        address newRoundAddress;\n\n        // If a bounty wasn't specified\n        uint256 remaining = remainingBounty();\n        if(roundData.bounty == 0x0)\n        {\n            // Use the last one\n            roundData.bounty = IMatryxRound(rounds[rounds.length-1]).getBounty();\n        }\n        // If its more than what's left, use what's left.\n        if(roundData.bounty > remaining)\n        {\n            roundData.bounty = remaining;\n        }\n\n        newRoundAddress = roundFactory.createRound(platformAddress, this, msg.sender, roundData);\n        // Transfer the round bounty to the round.\n\n        if(rounds.length > 1)\n        {\n            IMatryxToken(matryxTokenAddress).transfer(newRoundAddress, roundData.bounty);\n        }\n        isRound[newRoundAddress] = true;\n        rounds.push(newRoundAddress);\n\n        // Triggers Event displaying start time, end, address, and round number\n        emit NewRound(roundData.start, roundData.end, roundData.reviewDuration, newRoundAddress, rounds.length);\n\n        return newRoundAddress;\n    }\n    function sendBountyToRound(uint256 _roundIndex, uint256 _bountyMTX) public onlyPlatform\n    {\n        IMatryxToken(matryxTokenAddress).transfer(rounds[_roundIndex], _bountyMTX);\n    }\n\n    // @dev Returns the remaining bounty the tournament is able to award\n    function remainingBounty() public view returns (uint256)\n    {\n        return IMatryxToken(matryxTokenAddress).balanceOf(this);\n    }\n\n    /*\n     * Entrant Methods\n     */\n\n    /// @dev Enters the user into the tournament.\n    /// @param _entrantAddress Address of the user to enter.\n    /// @return success Whether or not the user was entered successfully.\n    function enterUserInTournament(address _entrantAddress) public onlyPlatform whileTournamentOpen returns (bool _success)\n    {\n        if(addressToIsEntrant[_entrantAddress].exists == true)\n        {\n            return false;\n        }\n\n        // Change the tournament's state to reflect the user entering.\n        addressToIsEntrant[_entrantAddress].exists = true;\n        addressToIsEntrant[_entrantAddress].value = entryFee;\n        allEntrants.push(_entrantAddress);\n\n        return true;\n    }\n\n    /// @dev Returns the fee in MTX to be payed by a prospective entrant.\n    /// @return Entry fee for this tournament.\n    function getEntryFee() public view returns (uint256)\n    {\n        return entryFee;\n    }\n\n    // function collectEntryFee() public returns (bool)\n    // {\n    //     IMatryxToken matryxToken = IMatryxToken(matryxTokenAddress);\n    //     bool success = matryxToken.transfer(msg.sender, addressToIsEntrant[msg.sender].value);\n    //     if(success)\n    //     {\n    //         addressToIsEntrant[msg.sender].value = 0;\n    //         return true;\n    //     }\n\n    //     return false;\n    // }\n\n    function createSubmission(address[] _contributors, uint128[] _contributorRewardDistribution, address[] _references, LibConstruction.SubmissionData submissionData) public onlyEntrant onlyPeerLinked(msg.sender) whileTournamentOpen returns (address _submissionAddress)\n    {\n        address peerAddress = IMatryxPlatform(platformAddress).peerAddress(submissionData.owner);\n\n        address submissionAddress = IMatryxRound(rounds[rounds.length-1]).createSubmission(_contributors, _contributorRewardDistribution, _references, peerAddress, submissionData);\n        // Send out reference requests to the authors of other submissions\n        IMatryxPlatform(platformAddress).handleReferenceRequestsForSubmission(submissionAddress, _references);\n\n        if(numberOfSubmissions == 0)\n        {\n            IMatryxPlatform(platformAddress).invokeTournamentOpenedEvent(owner, title[0], title[1], title[2], descriptionHash[0], descriptionHash[1], Bounty, entryFee);\n        }\n\n        numberOfSubmissions = numberOfSubmissions.add(1);\n        entrantToSubmissionToSubmissionIndex[msg.sender][submissionAddress] = uint256_optional({exists:true, value:entrantToSubmissions[msg.sender].length});\n        entrantToSubmissions[msg.sender].push(submissionAddress);\n        IMatryxPlatform(platformAddress).updateSubmissions(msg.sender, submissionAddress);\n        \n        return submissionAddress;\n    }\n}",
  "sourcePath": "/Users/maxhoward/Desktop/Ethereum/Development/Matryx/Projects/MatryxPlatform/contracts/MatryxTournament.sol",
  "compiler": {
    "name": "solc",
    "version": "0.4.24+commit.e67f0147.Emscripten.clang"
  },
  "schemaVersion": "2.0.0",
  "updatedAt": "2018-06-20T18:13:14.394Z"
}