{
  "contractName": "MatryxRoundFactory",
  "abi": [
    {
      "constant": true,
      "inputs": [
        {
          "name": "_sender",
          "type": "address"
        }
      ],
      "name": "isOwner",
      "outputs": [
        {
          "name": "_isOwner",
          "type": "bool"
        }
      ],
      "payable": false,
      "stateMutability": "view",
      "type": "function"
    },
    {
      "constant": true,
      "inputs": [],
      "name": "getOwner",
      "outputs": [
        {
          "name": "_owner",
          "type": "address"
        }
      ],
      "payable": false,
      "stateMutability": "view",
      "type": "function"
    },
    {
      "constant": true,
      "inputs": [],
      "name": "owner",
      "outputs": [
        {
          "name": "",
          "type": "address"
        }
      ],
      "payable": false,
      "stateMutability": "view",
      "type": "function"
    },
    {
      "constant": true,
      "inputs": [],
      "name": "matryxSubmissionFactoryAddress",
      "outputs": [
        {
          "name": "",
          "type": "address"
        }
      ],
      "payable": false,
      "stateMutability": "view",
      "type": "function"
    },
    {
      "constant": false,
      "inputs": [
        {
          "name": "newOwner",
          "type": "address"
        }
      ],
      "name": "transferOwnership",
      "outputs": [],
      "payable": false,
      "stateMutability": "nonpayable",
      "type": "function"
    },
    {
      "inputs": [
        {
          "name": "_matryxSubmissionFactoryAddress",
          "type": "address"
        }
      ],
      "payable": false,
      "stateMutability": "nonpayable",
      "type": "constructor"
    },
    {
      "constant": false,
      "inputs": [
        {
          "name": "_platformAddress",
          "type": "address"
        },
        {
          "name": "_tournamentAddress",
          "type": "address"
        },
        {
          "components": [
            {
              "name": "start",
              "type": "uint256"
            },
            {
              "name": "end",
              "type": "uint256"
            },
            {
              "name": "reviewPeriodDuration",
              "type": "uint256"
            },
            {
              "name": "bounty",
              "type": "uint256"
            },
            {
              "name": "closed",
              "type": "bool"
            }
          ],
          "name": "roundData",
          "type": "tuple"
        }
      ],
      "name": "createRound",
      "outputs": [
        {
          "name": "_roundAddress",
          "type": "address"
        }
      ],
      "payable": false,
      "stateMutability": "nonpayable",
      "type": "function"
    },
    {
      "constant": false,
      "inputs": [
        {
          "name": "_nameHash",
          "type": "bytes32"
        },
        {
          "name": "_contractAddress",
          "type": "address"
        }
      ],
      "name": "setContractAddress",
      "outputs": [],
      "payable": false,
      "stateMutability": "nonpayable",
      "type": "function"
    },
    {
      "constant": true,
      "inputs": [
        {
          "name": "_nameHash",
          "type": "bytes32"
        }
      ],
      "name": "getContractAddress",
      "outputs": [
        {
          "name": "contractAddress",
          "type": "address"
        }
      ],
      "payable": false,
      "stateMutability": "view",
      "type": "function"
    }
  ],
  "bytecode": "0x608060405234801561001057600080fd5b5060405160208061141f833981018060405261002f9190810190610075565b6000805433600160a060020a03199182161790915560018054909116600160a060020a03929092169190911790556100a7565b600061006e825161009b565b9392505050565b60006020828403121561008757600080fd5b60006100938484610062565b949350505050565b600160a060020a031690565b611369806100b66000396000f30060806040526004361061008d5763ffffffff7c01000000000000000000000000000000000000000000000000000000006000350416630d2020dd81146100925780632f54bf6e146100c85780634f07a646146100f5578063893d20e8146101155780638da5cb5b1461012a578063b0ff54921461013f578063e001f84114610154578063f2fde38b14610176575b600080fd5b34801561009e57600080fd5b506100b26100ad3660046104c6565b610196565b6040516100bf91906105a2565b60405180910390f35b3480156100d457600080fd5b506100e86100e3366004610453565b6101be565b6040516100bf91906105f5565b34801561010157600080fd5b506100b2610110366004610479565b6101df565b34801561012157600080fd5b506100b261023d565b34801561013657600080fd5b506100b2610259565b34801561014b57600080fd5b506100b2610275565b34801561016057600080fd5b5061017461016f3660046104e4565b610291565b005b34801561018257600080fd5b50610174610191366004610453565b610308565b60009081526002602052604090205473ffffffffffffffffffffffffffffffffffffffff1690565b60005473ffffffffffffffffffffffffffffffffffffffff91821691161490565b60015460009081908590859073ffffffffffffffffffffffffffffffffffffffff168561020a610395565b61021794939291906105b6565b604051809103906000f080158015610233573d6000803e3d6000fd5b5095945050505050565b60005473ffffffffffffffffffffffffffffffffffffffff1690565b60005473ffffffffffffffffffffffffffffffffffffffff1681565b60015473ffffffffffffffffffffffffffffffffffffffff1681565b60005473ffffffffffffffffffffffffffffffffffffffff1633146102b557600080fd5b60009182526002602052604090912080547fffffffffffffffffffffffff00000000000000000000000000000000000000001673ffffffffffffffffffffffffffffffffffffffff909216919091179055565b60005473ffffffffffffffffffffffffffffffffffffffff16331461032c57600080fd5b73ffffffffffffffffffffffffffffffffffffffff8116151561034e57600080fd5b600080547fffffffffffffffffffffffff00000000000000000000000000000000000000001673ffffffffffffffffffffffffffffffffffffffff92909216919091179055565b604051610ce48061064c83390190565b60006103b1823561062a565b9392505050565b60006103b18235610643565b60006103b18235610648565b600060a082840312156103e257600080fd5b6103ec60a0610603565b905060006103fa84846103c4565b825250602061040b848483016103c4565b602083015250604061041f848285016103c4565b6040830152506060610433848285016103c4565b6060830152506080610447848285016103b8565b60808301525092915050565b60006020828403121561046557600080fd5b600061047184846103a5565b949350505050565b600080600060e0848603121561048e57600080fd5b600061049a86866103a5565b93505060206104ab868287016103a5565b92505060406104bc868287016103d0565b9150509250925092565b6000602082840312156104d857600080fd5b600061047184846103c4565b600080604083850312156104f757600080fd5b600061050385856103c4565b9250506020610514858286016103a5565b9150509250929050565b6105278161062a565b82525050565b61052781610643565b805160a08301906105478482610599565b50602082015161055a6020850182610599565b50604082015161056d6040850182610599565b5060608201516105806060850182610599565b506080820151610593608085018261052d565b50505050565b61052781610648565b602081016105b0828461051e565b92915050565b61010081016105c5828761051e565b6105d2602083018661051e565b6105df604083018561051e565b6105ec6060830184610536565b95945050505050565b602081016105b0828461052d565b60405181810167ffffffffffffffff8111828210171561062257600080fd5b604052919050565b73ffffffffffffffffffffffffffffffffffffffff1690565b151590565b90560060806040523480156200001157600080fd5b506040516101008062000ce483398101806040526200003491908101906200012e565b83600055826001558160025560005b6004811015620000625760208102820151600382015560010162000043565b5050505050620001d5565b60006200007b8251620001c1565b9392505050565b60006200007b8251620001cd565b600060a08284031215620000a357600080fd5b620000af60a062000199565b90506000620000bf848462000120565b8252506020620000d28484830162000120565b6020830152506040620000e88482850162000120565b6040830152506060620000fe8482850162000120565b6060830152506080620001148482850162000082565b60808301525092915050565b60006200007b8251620001d2565b60008060008061010085870312156200014657600080fd5b60006200015487876200006d565b945050602062000167878288016200006d565b93505060406200017a878288016200006d565b92505060606200018d8782880162000090565b91505092959194509250565b60405181810167ffffffffffffffff81118282101715620001b957600080fd5b604052919050565b600160a060020a031690565b151590565b90565b610aff80620001e56000396000f3006080604052600436106100565763ffffffff7c01000000000000000000000000000000000000000000000000000000006000350416631e0197e281146109e65780634bde38c814610a11578063d34a478c14610a26575b34801561006257600080fd5b507c0100000000000000000000000000000000000000000000000000000000806000350463b6a3497581146101b5576338e4389581146101c357631865c57d81146101cb57632fc1f19081146101dc5763e76c293e81146101e45763c828371e81146101ec5763439f5ac281146101f457637bc935be81146101fc5763f49bff7b81146102045763e45ceed2811461020c576310fe9ae88114610218576354f6aa2081146102245763f8b2cb4f811461022c5763e9e8b44681146102425763389994f9811461024b5763ed09846081146102535763241b15ad811461025b57638fa4e7b9811461026657632f0713bb811461026f5763856646fd8114610278576307417cf1811461028157635325cdba811461028a57630e3db9f281146102935763e278fe6f811461029b576357c60fb081146102a45761dead6000526002601ea060003560005260046000a060206000f35b6101be82610383565b6102ad565b6101be6103ac565b6101be6101d7836103d7565b6102c2565b6101be610437565b6101be610447565b6101be610457565b6101be610467565b6101be610478565b6101be610489565b6101be6101d78361049a565b6101be6101d7836104ab565b6101be6104da565b6101be6101d761023c60006102b3565b84610528565b6101be82610565565b6101be610577565b6101be61058a565b6101be6101d76105cc565b6101be826105d7565b6101be82610635565b6101be82610692565b6101be82610706565b6101be82610758565b6101be61085a565b6101be82610884565b6102ad826108a2565b506102bd565b6020026004013590565b6102cc565b8060005260206000f35b6102e0565b8015156102dd57600080fd5b50565b6102fb565b60006102f6828414838510176102d1565b500390565b610318565b808201610312818314828410176102d1565b92915050565b610336565b610326816103d7565b610332600282146102d1565b5050565b610350565b610344816103d7565b610332600382146102d1565b61036a565b61035e816103d7565b610332600482146102d1565b61037e565b61037c33600154146102d1565b565b6103a7565b61038d60006102b3565b6000526001600e0160205260406000205460005260206000f35b6103d2565b6103b461036f565b6103be60006102b3565b6006546103cb8282610300565b6006555050565b610432565b6000604051826305b00ec102815260005460048201526003602482015260086044820152600c60648201526104286020600060848473__LibRound______________________________5af46102d1565b5050600051919050565b610442565b61037c6000546102c2565b610452565b61037c6001546102c2565b610462565b61037c6003546102c2565b610473565b60045461037c906102c2565b610484565b60055461037c906102c2565b610495565b60065461037c906102c2565b6104a6565b60006103123083610528565b6104d5565b6000816310fe9ae8026000526104cd6020600060046000806000545af16102d1565b505060005190565b610523565b600c6000526020600020600c54604051806020825260208201915082825260005b8381101561051857848101546020939093019283526001016104fb565b506020830260400181f35b610560565b6000610533826104ab565b826370a082310260005283600452610555602060006024600080865af16102d1565b505060005192915050565b610572565b6102dd6101d73083610528565b610585565b61037c6000600854116102c2565b6105c7565b60086000526020600020600854604051806020825260208201915082825260008381101561051857848101546020939093019283526001016104fb565b6105d2565b600c5490565b610630565b6105df61036f565b6040518163b666875002815260035460048201526105fd60006102b3565b602482015260a06024604483013761033260008060e48473__LibRound______________________________5af46102d1565b61068d565b61063d61036f565b610651600061064b836103d7565b146102d1565b6040518163a9059cbb02815233600482015261066d60006102b3565b60248201526103326000806044600085610686886104ab565b5af16102d1565b610701565b61069a61036f565b6106a38161033b565b60405181636e86d662028152600360048201526008602482015260043603806004604484013760448201604081510181526106fb600080846044018673__LibRound______________________________5af46102d1565b50505050565b610753565b61070e61036f565b6107178161049a565b6040518263a9059cbb02815260015460048201528160248201526107456000806044846000610686896104ab565b61074e826102c2565b505050565b610855565b61076061036f565b60405161076c826104ab565b60085460096000908152600b547ff3f7a9fe364faab93b216da50a3214154f22a0a2b415b23a84c8169e8b636ee3917f6e1540171b6c0c960b71a7020d9f60077f6af931a8bbf590da0223dacf75c7af91670de0b6b3a764000002906107d1906102b3565b60065401670de0b6b3a76400000260005b8581101561084a578085015483838387015402048a63a9059cbb028a528160048b01528060248b015261081e60008060448d60008e5af16102d1565b8a6309b542bb028a528060048b015261084060008060248d6000875af16102d1565b50506001016107e2565b505050505050505050565b61087f565b61086261036f565b6108736001600301546003546102e5565b42600381905501600455565b61089d565b61088c61036f565b61089581610355565b506001600755565b6109e3565b6108aa61036f565b6108b38161031d565b6108bd60006102b3565b6108c6816102d1565b60405182636c4074f70281528160048201526108e260016102b3565b6024820152600154604482015230606482015261012060446084830137610916602060006101a48460006002545af16102d1565b600051806000526001600e016020526001604060002055600c6000526020600020600c5460018101600c55828183015585636a44e43d026000528460045261096a6020600060246000806000545af16102d1565b60005180600052600e602052604060002080548160005260206000208115156109c357600d80546000829052600181019091557fd7b6990105719101dabeb77144f2a3385c8033acd3af97e9423a695e81ad1eb5018490555b60018201835586828201556109d7876102c2565b50505050505050505050565b50005b3480156109f257600080fd5b506109fb610a3b565b604051610a089190610a9e565b60405180910390f35b348015610a1d57600080fd5b506109fb610a57565b348015610a3257600080fd5b506109fb610a73565b60015473ffffffffffffffffffffffffffffffffffffffff1681565b60005473ffffffffffffffffffffffffffffffffffffffff1681565b60025473ffffffffffffffffffffffffffffffffffffffff1681565b610a9881610aac565b82525050565b602081016103128284610a8f565b73ffffffffffffffffffffffffffffffffffffffff16905600a265627a7a72305820fdb6ca2e7b53ef2982a6a1488ea993532aebbc595b60a1da50e2cdc87c3b2a116c6578706572696d656e74616cf50037a265627a7a72305820c8e2c07cababd9c0696895d43da15267ef0182068f7edef526383d755ddeffa86c6578706572696d656e74616cf50037",
  "source": "pragma solidity ^0.4.24;\npragma experimental ABIEncoderV2;\n\nimport \"../Ownable.sol\";\nimport \"../JMatryxRound.sol\";\nimport \"../../interfaces/IMatryxPlatform.sol\";\nimport \"../../libraries/LibConstruction.sol\";\n\ncontract MatryxRoundFactory is Ownable {\n    address public matryxSubmissionFactoryAddress;\n\n    mapping(bytes32=>address) contracts;\n\n    constructor(address _matryxSubmissionFactoryAddress) public {\n        matryxSubmissionFactoryAddress = _matryxSubmissionFactoryAddress;\n    }\n\n    function createRound(address _platformAddress, address _tournamentAddress, LibConstruction.RoundData roundData) public returns (address _roundAddress) {\n        JMatryxRound newRound = new JMatryxRound(_platformAddress, _tournamentAddress, matryxSubmissionFactoryAddress, roundData);\n        return newRound;\n    }\n\n    /// @dev Sets an address for a contract the platform should know about.\n    /// @param _nameHash Keccak256 hash of the name of the contract to give an address to.\n    /// @param _contractAddress Address to be assigned for the given contract name.\n    function setContractAddress(bytes32 _nameHash, address _contractAddress) public onlyOwner\n    {\n        contracts[_nameHash] = _contractAddress;\n    }\n\n    /// @dev Gets the address of a contract the platform knows about.\n    /// @param _nameHash Keccak256 hash of the name of the contract to look for.\n    /// @return Address of the contract with the designated name.\n    function getContractAddress(bytes32 _nameHash) public view returns (address contractAddress)\n    {\n        return contracts[_nameHash];\n    }\n}\n",
  "sourcePath": "/Users/maxhoward/Desktop/Ethereum/MatryxPlatform/contracts/factories/MatryxRoundFactory.sol",
  "compiler": {
    "name": "solc",
    "version": "0.4.24+commit.e67f0147.Emscripten.clang"
  },
  "schemaVersion": "2.0.1",
  "updatedAt": "2018-08-03T23:40:33.682Z"
}