{
  "contractName": "MatryxToken",
  "abi": [
    {
      "constant": false,
      "inputs": [
        {
          "name": "addr",
          "type": "address"
        },
        {
          "name": "state",
          "type": "bool"
        }
      ],
      "name": "setTransferAgent",
      "outputs": [],
      "payable": false,
      "stateMutability": "nonpayable",
      "type": "function"
    },
    {
      "constant": true,
      "inputs": [],
      "name": "mintingFinished",
      "outputs": [
        {
          "name": "",
          "type": "bool"
        }
      ],
      "payable": false,
      "stateMutability": "view",
      "type": "function"
    },
    {
      "constant": true,
      "inputs": [],
      "name": "name",
      "outputs": [
        {
          "name": "",
          "type": "string"
        }
      ],
      "payable": false,
      "stateMutability": "view",
      "type": "function"
    },
    {
      "constant": false,
      "inputs": [
        {
          "name": "_spender",
          "type": "address"
        },
        {
          "name": "_value",
          "type": "uint256"
        }
      ],
      "name": "approve",
      "outputs": [
        {
          "name": "",
          "type": "bool"
        }
      ],
      "payable": false,
      "stateMutability": "nonpayable",
      "type": "function"
    },
    {
      "constant": true,
      "inputs": [],
      "name": "totalSupply",
      "outputs": [
        {
          "name": "",
          "type": "uint256"
        }
      ],
      "payable": false,
      "stateMutability": "view",
      "type": "function"
    },
    {
      "constant": false,
      "inputs": [
        {
          "name": "_from",
          "type": "address"
        },
        {
          "name": "_to",
          "type": "address"
        },
        {
          "name": "_value",
          "type": "uint256"
        }
      ],
      "name": "transferFrom",
      "outputs": [
        {
          "name": "success",
          "type": "bool"
        }
      ],
      "payable": false,
      "stateMutability": "nonpayable",
      "type": "function"
    },
    {
      "constant": false,
      "inputs": [
        {
          "name": "addr",
          "type": "address"
        }
      ],
      "name": "setReleaseAgent",
      "outputs": [],
      "payable": false,
      "stateMutability": "nonpayable",
      "type": "function"
    },
    {
      "constant": true,
      "inputs": [],
      "name": "decimals",
      "outputs": [
        {
          "name": "",
          "type": "uint256"
        }
      ],
      "payable": false,
      "stateMutability": "view",
      "type": "function"
    },
    {
      "constant": false,
      "inputs": [
        {
          "name": "_to",
          "type": "address"
        },
        {
          "name": "_amount",
          "type": "uint256"
        }
      ],
      "name": "mint",
      "outputs": [
        {
          "name": "",
          "type": "bool"
        }
      ],
      "payable": false,
      "stateMutability": "nonpayable",
      "type": "function"
    },
    {
      "constant": false,
      "inputs": [
        {
          "name": "value",
          "type": "uint256"
        }
      ],
      "name": "upgrade",
      "outputs": [],
      "payable": false,
      "stateMutability": "nonpayable",
      "type": "function"
    },
    {
      "constant": true,
      "inputs": [],
      "name": "upgradeAgent",
      "outputs": [
        {
          "name": "",
          "type": "address"
        }
      ],
      "payable": false,
      "stateMutability": "view",
      "type": "function"
    },
    {
      "constant": false,
      "inputs": [],
      "name": "releaseTokenTransfer",
      "outputs": [],
      "payable": false,
      "stateMutability": "nonpayable",
      "type": "function"
    },
    {
      "constant": true,
      "inputs": [],
      "name": "upgradeMaster",
      "outputs": [
        {
          "name": "",
          "type": "address"
        }
      ],
      "payable": false,
      "stateMutability": "view",
      "type": "function"
    },
    {
      "constant": true,
      "inputs": [
        {
          "name": "_owner",
          "type": "address"
        }
      ],
      "name": "balanceOf",
      "outputs": [
        {
          "name": "balance",
          "type": "uint256"
        }
      ],
      "payable": false,
      "stateMutability": "view",
      "type": "function"
    },
    {
      "constant": false,
      "inputs": [],
      "name": "finishMinting",
      "outputs": [
        {
          "name": "",
          "type": "bool"
        }
      ],
      "payable": false,
      "stateMutability": "nonpayable",
      "type": "function"
    },
    {
      "constant": true,
      "inputs": [],
      "name": "getUpgradeState",
      "outputs": [
        {
          "name": "",
          "type": "uint8"
        }
      ],
      "payable": false,
      "stateMutability": "view",
      "type": "function"
    },
    {
      "constant": true,
      "inputs": [
        {
          "name": "",
          "type": "address"
        }
      ],
      "name": "transferAgents",
      "outputs": [
        {
          "name": "",
          "type": "bool"
        }
      ],
      "payable": false,
      "stateMutability": "view",
      "type": "function"
    },
    {
      "constant": true,
      "inputs": [],
      "name": "owner",
      "outputs": [
        {
          "name": "",
          "type": "address"
        }
      ],
      "payable": false,
      "stateMutability": "view",
      "type": "function"
    },
    {
      "constant": true,
      "inputs": [],
      "name": "symbol",
      "outputs": [
        {
          "name": "",
          "type": "string"
        }
      ],
      "payable": false,
      "stateMutability": "view",
      "type": "function"
    },
    {
      "constant": true,
      "inputs": [],
      "name": "released",
      "outputs": [
        {
          "name": "",
          "type": "bool"
        }
      ],
      "payable": false,
      "stateMutability": "view",
      "type": "function"
    },
    {
      "constant": false,
      "inputs": [
        {
          "name": "_to",
          "type": "address"
        },
        {
          "name": "_value",
          "type": "uint256"
        }
      ],
      "name": "transfer",
      "outputs": [
        {
          "name": "success",
          "type": "bool"
        }
      ],
      "payable": false,
      "stateMutability": "nonpayable",
      "type": "function"
    },
    {
      "constant": true,
      "inputs": [],
      "name": "totalUpgraded",
      "outputs": [
        {
          "name": "",
          "type": "uint256"
        }
      ],
      "payable": false,
      "stateMutability": "view",
      "type": "function"
    },
    {
      "constant": true,
      "inputs": [],
      "name": "releaseAgent",
      "outputs": [
        {
          "name": "",
          "type": "address"
        }
      ],
      "payable": false,
      "stateMutability": "view",
      "type": "function"
    },
    {
      "constant": false,
      "inputs": [
        {
          "name": "agent",
          "type": "address"
        }
      ],
      "name": "setUpgradeAgent",
      "outputs": [],
      "payable": false,
      "stateMutability": "nonpayable",
      "type": "function"
    },
    {
      "constant": true,
      "inputs": [
        {
          "name": "_owner",
          "type": "address"
        },
        {
          "name": "_spender",
          "type": "address"
        }
      ],
      "name": "allowance",
      "outputs": [
        {
          "name": "remaining",
          "type": "uint256"
        }
      ],
      "payable": false,
      "stateMutability": "view",
      "type": "function"
    },
    {
      "constant": false,
      "inputs": [
        {
          "name": "newOwner",
          "type": "address"
        }
      ],
      "name": "transferOwnership",
      "outputs": [],
      "payable": false,
      "stateMutability": "nonpayable",
      "type": "function"
    },
    {
      "constant": false,
      "inputs": [
        {
          "name": "master",
          "type": "address"
        }
      ],
      "name": "setUpgradeMaster",
      "outputs": [],
      "payable": false,
      "stateMutability": "nonpayable",
      "type": "function"
    },
    {
      "inputs": [],
      "payable": false,
      "stateMutability": "nonpayable",
      "type": "constructor"
    },
    {
      "anonymous": false,
      "inputs": [
        {
          "indexed": true,
          "name": "_from",
          "type": "address"
        },
        {
          "indexed": true,
          "name": "_to",
          "type": "address"
        },
        {
          "indexed": false,
          "name": "_value",
          "type": "uint256"
        }
      ],
      "name": "Upgrade",
      "type": "event"
    },
    {
      "anonymous": false,
      "inputs": [
        {
          "indexed": false,
          "name": "agent",
          "type": "address"
        }
      ],
      "name": "UpgradeAgentSet",
      "type": "event"
    },
    {
      "anonymous": false,
      "inputs": [
        {
          "indexed": true,
          "name": "to",
          "type": "address"
        },
        {
          "indexed": false,
          "name": "amount",
          "type": "uint256"
        }
      ],
      "name": "Mint",
      "type": "event"
    },
    {
      "anonymous": false,
      "inputs": [],
      "name": "MintFinished",
      "type": "event"
    },
    {
      "anonymous": false,
      "inputs": [
        {
          "indexed": true,
          "name": "from",
          "type": "address"
        },
        {
          "indexed": true,
          "name": "to",
          "type": "address"
        },
        {
          "indexed": false,
          "name": "value",
          "type": "uint256"
        }
      ],
      "name": "Transfer",
      "type": "event"
    },
    {
      "anonymous": false,
      "inputs": [
        {
          "indexed": true,
          "name": "owner",
          "type": "address"
        },
        {
          "indexed": true,
          "name": "spender",
          "type": "address"
        },
        {
          "indexed": false,
          "name": "value",
          "type": "uint256"
        }
      ],
      "name": "Approval",
      "type": "event"
    }
  ],
  "bytecode": "0x606060409081526004805460a060020a60ff02191690556006805460ff191690558051908101604052600b81527f4d6174727978546f6b656e000000000000000000000000000000000000000000602082015260099080516200006792916020019062000102565b5060408051908101604052600381527f4d545800000000000000000000000000000000000000000000000000000000006020820152600a908051620000b192916020019062000102565b506012600b553415620000c357600080fd5b60008054600160a060020a03191633600160a060020a03169081179091556006805461010060a860020a031916610100909202919091179055620001a7565b828054600181600116156101000203166002900490600052602060002090601f016020900481019282601f106200014557805160ff191683800117855562000175565b8280016001018555821562000175579182015b828111156200017557825182559160200191906001019062000158565b506200018392915062000187565b5090565b620001a491905b808211156200018357600081556001016200018e565b90565b6114bd80620001b76000396000f30060606040526004361061015e5763ffffffff7c010000000000000000000000000000000000000000000000000000000060003504166302f652a3811461016357806305d2035b1461019657806306fdde03146101bd578063095ea7b31461024757806318160ddd1461027657806323b872dd1461029b57806329ff4f53146102d0578063313ce567146102fc57806340c10f191461030f57806345977d031461033e5780635de4ccb0146103545780635f412d4f14610390578063600440cb146103a357806370a08231146103b65780637d64bcb4146103e25780638444b391146103f5578063867c28571461042c5780638da5cb5b1461045857806395d89b411461046b578063961325211461047e578063a9059cbb14610491578063c752ff62146104c0578063d1f276d3146104d3578063d7e7088a146104e6578063dd62ed3e14610512578063f2fde38b14610544578063ffeb7d7514610570575b600080fd5b341561016e57600080fd5b61019473ffffffffffffffffffffffffffffffffffffffff60043516602435151561059c565b005b34156101a157600080fd5b6101a9610646565b604051901515815260200160405180910390f35b34156101c857600080fd5b6101d061064f565b60405160208082528190810183818151815260200191508051906020019080838360005b8381101561020c5780820151838201526020016101f4565b50505050905090810190601f1680156102395780820380516001836020036101000a031916815260200191505b509250505060405180910390f35b341561025257600080fd5b6101a973ffffffffffffffffffffffffffffffffffffffff600435166024356106ed565b341561028157600080fd5b6102896107ad565b60405190815260200160405180910390f35b34156102a657600080fd5b6101a973ffffffffffffffffffffffffffffffffffffffff600435811690602435166044356107b3565b34156102db57600080fd5b61019473ffffffffffffffffffffffffffffffffffffffff60043516610825565b341561030757600080fd5b6102896108c0565b341561031a57600080fd5b6101a973ffffffffffffffffffffffffffffffffffffffff600435166024356108c6565b341561034957600080fd5b6101946004356109ff565b341561035f57600080fd5b610367610bc1565b60405173ffffffffffffffffffffffffffffffffffffffff909116815260200160405180910390f35b341561039b57600080fd5b610194610bdd565b34156103ae57600080fd5b610367610c46565b34156103c157600080fd5b61028973ffffffffffffffffffffffffffffffffffffffff60043516610c67565b34156103ed57600080fd5b6101a9610c8f565b341561040057600080fd5b610408610d16565b6040518082600481111561041857fe5b60ff16815260200191505060405180910390f35b341561043757600080fd5b6101a973ffffffffffffffffffffffffffffffffffffffff60043516610d59565b341561046357600080fd5b610367610d6e565b341561047657600080fd5b6101d0610d8a565b341561048957600080fd5b6101a9610df5565b341561049c57600080fd5b6101a973ffffffffffffffffffffffffffffffffffffffff60043516602435610e16565b34156104cb57600080fd5b610289610e86565b34156104de57600080fd5b610367610e8c565b34156104f157600080fd5b61019473ffffffffffffffffffffffffffffffffffffffff60043516610ea8565b341561051d57600080fd5b61028973ffffffffffffffffffffffffffffffffffffffff600435811690602435166110d8565b341561054f57600080fd5b61019473ffffffffffffffffffffffffffffffffffffffff60043516611110565b341561057b57600080fd5b61019473ffffffffffffffffffffffffffffffffffffffff600435166111a1565b6000543373ffffffffffffffffffffffffffffffffffffffff9081169116146105c457600080fd5b60045460009074010000000000000000000000000000000000000000900460ff16156105ef57600080fd5b5073ffffffffffffffffffffffffffffffffffffffff91909116600090815260056020526040902080547fffffffffffffffffffffffffffffffffffffffffffffffffffffffffffffff0016911515919091179055565b60065460ff1681565b60098054600181600116156101000203166002900480601f0160208091040260200160405190810160405280929190818152602001828054600181600116156101000203166002900480156106e55780601f106106ba576101008083540402835291602001916106e5565b820191906000526020600020905b8154815290600101906020018083116106c857829003601f168201915b505050505081565b600081158061072c575073ffffffffffffffffffffffffffffffffffffffff338116600090815260036020908152604080832093871683529290522054155b151561073757600080fd5b73ffffffffffffffffffffffffffffffffffffffff338116600081815260036020908152604080832094881680845294909152908190208590557f8c5be1e5ebec7d5bd14f71427d1e84f3dd0314c0f7b2291e5b200ac8c7c3b9259085905190815260200160405180910390a350600192915050565b60015481565b600454600090849074010000000000000000000000000000000000000000900460ff1680610806575073ffffffffffffffffffffffffffffffffffffffff811660009081526005602052604090205460ff165b151561081157600080fd5b61081c85858561123c565b95945050505050565b6000543373ffffffffffffffffffffffffffffffffffffffff90811691161461084d57600080fd5b60045460009074010000000000000000000000000000000000000000900460ff161561087857600080fd5b50600480547fffffffffffffffffffffffff00000000000000000000000000000000000000001673ffffffffffffffffffffffffffffffffffffffff92909216919091179055565b600b5481565b600080543373ffffffffffffffffffffffffffffffffffffffff9081169116146108ef57600080fd5b60065460ff16156108ff57600080fd5b600154610912908363ffffffff61138316565b60015573ffffffffffffffffffffffffffffffffffffffff831660009081526002602052604090205461094b908363ffffffff61138316565b73ffffffffffffffffffffffffffffffffffffffff84166000818152600260205260409081902092909255907f0f6798a560793a54c3bcfe86a93cde1e73087d944c0ea20544137d41213968859084905190815260200160405180910390a28273ffffffffffffffffffffffffffffffffffffffff1660007fddf252ad1be2c89b69c2b068fc378daa952ba7f163c4a11628f55a4df523b3ef8460405190815260200160405180910390a350600192915050565b6000610a09610d16565b90506003816004811115610a1957fe5b1480610a3057506004816004811115610a2e57fe5b145b1515610a3b57600080fd5b811515610a4757600080fd5b73ffffffffffffffffffffffffffffffffffffffff3316600090815260026020526040902054610a7d908363ffffffff61139916565b73ffffffffffffffffffffffffffffffffffffffff3316600090815260026020526040902055600154610ab6908363ffffffff61139916565b600155600854610acc908363ffffffff61138316565b60085560075473ffffffffffffffffffffffffffffffffffffffff1663753e88e533846040517c010000000000000000000000000000000000000000000000000000000063ffffffff851602815273ffffffffffffffffffffffffffffffffffffffff90921660048301526024820152604401600060405180830381600087803b1515610b5857600080fd5b6102c65a03f11515610b6957600080fd5b505060075473ffffffffffffffffffffffffffffffffffffffff908116915033167f7e5c344a8141a805725cb476f76c6953b842222b967edd1f78ddb6e8b3f397ac8460405190815260200160405180910390a35050565b60075473ffffffffffffffffffffffffffffffffffffffff1681565b6004543373ffffffffffffffffffffffffffffffffffffffff908116911614610c0557600080fd5b600480547fffffffffffffffffffffff00ffffffffffffffffffffffffffffffffffffffff1674010000000000000000000000000000000000000000179055565b600654610100900473ffffffffffffffffffffffffffffffffffffffff1681565b73ffffffffffffffffffffffffffffffffffffffff1660009081526002602052604090205490565b600080543373ffffffffffffffffffffffffffffffffffffffff908116911614610cb857600080fd5b600680547fffffffffffffffffffffffffffffffffffffffffffffffffffffffffffffff001660011790557fae5184fba832cb2b1f702aca6117b8d265eaf03ad33eb133f19dde0f5920fa0860405160405180910390a15060015b90565b60075460009073ffffffffffffffffffffffffffffffffffffffff161515610d4057506002610d13565b6008541515610d5157506003610d13565b506004610d13565b60056020526000908152604090205460ff1681565b60005473ffffffffffffffffffffffffffffffffffffffff1681565b600a8054600181600116156101000203166002900480601f0160208091040260200160405190810160405280929190818152602001828054600181600116156101000203166002900480156106e55780601f106106ba576101008083540402835291602001916106e5565b60045474010000000000000000000000000000000000000000900460ff1681565b600454600090339074010000000000000000000000000000000000000000900460ff1680610e69575073ffffffffffffffffffffffffffffffffffffffff811660009081526005602052604090205460ff165b1515610e7457600080fd5b610e7e84846113ab565b949350505050565b60085481565b60045473ffffffffffffffffffffffffffffffffffffffff1681565b73ffffffffffffffffffffffffffffffffffffffff81161515610eca57600080fd5b6006543373ffffffffffffffffffffffffffffffffffffffff9081166101009092041614610ef757600080fd5b6004610f01610d16565b6004811115610f0c57fe5b1415610f1757600080fd5b600780547fffffffffffffffffffffffff00000000000000000000000000000000000000001673ffffffffffffffffffffffffffffffffffffffff8381169190911791829055166361d3d7a66000604051602001526040518163ffffffff167c0100000000000000000000000000000000000000000000000000000000028152600401602060405180830381600087803b1515610fb357600080fd5b6102c65a03f11515610fc457600080fd5b505050604051805190501515610fd957600080fd5b60015460075473ffffffffffffffffffffffffffffffffffffffff16634b2ba0dd6000604051602001526040518163ffffffff167c0100000000000000000000000000000000000000000000000000000000028152600401602060405180830381600087803b151561104a57600080fd5b6102c65a03f1151561105b57600080fd5b505050604051805190501415151561107257600080fd5b6007547f7845d5aa74cc410e35571258d954f23b82276e160fe8c188fa80566580f279cc9073ffffffffffffffffffffffffffffffffffffffff1660405173ffffffffffffffffffffffffffffffffffffffff909116815260200160405180910390a150565b73ffffffffffffffffffffffffffffffffffffffff918216600090815260036020908152604080832093909416825291909152205490565b6000543373ffffffffffffffffffffffffffffffffffffffff90811691161461113857600080fd5b73ffffffffffffffffffffffffffffffffffffffff8116151561115a57600080fd5b600080547fffffffffffffffffffffffff00000000000000000000000000000000000000001673ffffffffffffffffffffffffffffffffffffffff92909216919091179055565b73ffffffffffffffffffffffffffffffffffffffff811615156111c357600080fd5b6006543373ffffffffffffffffffffffffffffffffffffffff90811661010090920416146111f057600080fd5b6006805473ffffffffffffffffffffffffffffffffffffffff909216610100027fffffffffffffffffffffff0000000000000000000000000000000000000000ff909216919091179055565b73ffffffffffffffffffffffffffffffffffffffff8084166000908152600360209081526040808320338516845282528083205493861683526002909152812054909190611290908463ffffffff61138316565b73ffffffffffffffffffffffffffffffffffffffff80861660009081526002602052604080822093909355908716815220546112d2908463ffffffff61139916565b73ffffffffffffffffffffffffffffffffffffffff8616600090815260026020526040902055611308818463ffffffff61139916565b73ffffffffffffffffffffffffffffffffffffffff808716600081815260036020908152604080832033861684529091529081902093909355908616917fddf252ad1be2c89b69c2b068fc378daa952ba7f163c4a11628f55a4df523b3ef9086905190815260200160405180910390a3506001949350505050565b60008282018381101561139257fe5b9392505050565b6000828211156113a557fe5b50900390565b73ffffffffffffffffffffffffffffffffffffffff33166000908152600260205260408120546113e1908363ffffffff61139916565b73ffffffffffffffffffffffffffffffffffffffff3381166000908152600260205260408082209390935590851681522054611423908363ffffffff61138316565b73ffffffffffffffffffffffffffffffffffffffff80851660008181526002602052604090819020939093559133909116907fddf252ad1be2c89b69c2b068fc378daa952ba7f163c4a11628f55a4df523b3ef9085905190815260200160405180910390a3506001929150505600a165627a7a723058207f43f62b013943999f203a67739bf9b5516c908a1234fe18fac10439f7f7953e0029",
  "source": "pragma solidity ^0.4.13;\n\nimport \"./MintableToken.sol\";\nimport \"./UpgradeableToken.sol\";\n\n/**\n * Matryx Ethereum token.\n */\ncontract MatryxToken is MintableToken, UpgradeableToken{\n\n  string public name = \"MatryxToken\";\n  string public symbol = \"MTX\";\n  uint public decimals = 18;\n\n  // supply upgrade owner as the contract creation account\n  function MatryxToken() public UpgradeableToken(msg.sender) {\n\n  }\n}",
  "sourcePath": "/Users/maxhoward/Desktop/Ethereum/Development/Matryx AWS/Projects/matryx-alpha-source/contracts/MatryxToken/MatryxToken.sol",
  "compiler": {
    "name": "solc",
    "version": "0.4.19+commit.c4cbbb05.Emscripten.clang"
  },
  "schemaVersion": "2.0.0",
  "updatedAt": "2018-03-29T18:43:54.473Z"
}