{
  "contractName": "MatryxPlatform",
  "abi": [
    {
      "constant": true,
      "inputs": [
        {
          "name": "",
          "type": "uint256"
        }
      ],
      "name": "tournamentList",
      "outputs": [
        {
          "name": "",
          "type": "uint256"
        }
      ],
      "payable": false,
      "stateMutability": "view",
      "type": "function"
    },
    {
      "constant": true,
      "inputs": [],
      "name": "getBalance",
      "outputs": [
        {
          "name": "",
          "type": "uint256"
        }
      ],
      "payable": false,
      "stateMutability": "view",
      "type": "function"
    },
    {
      "constant": true,
      "inputs": [],
      "name": "balanceIsNonZero",
      "outputs": [
        {
          "name": "",
          "type": "bool"
        }
      ],
      "payable": false,
      "stateMutability": "view",
      "type": "function"
    },
    {
      "constant": true,
      "inputs": [
        {
          "name": "tournamentId",
          "type": "uint256"
        }
      ],
      "name": "submissionCount",
      "outputs": [
        {
          "name": "",
          "type": "uint256"
        }
      ],
      "payable": false,
      "stateMutability": "view",
      "type": "function"
    },
    {
      "constant": true,
      "inputs": [
        {
          "name": "idx",
          "type": "uint256"
        }
      ],
      "name": "tournamentByIndex",
      "outputs": [
        {
          "name": "",
          "type": "uint256"
        },
        {
          "name": "",
          "type": "string"
        },
        {
          "name": "",
          "type": "string"
        },
        {
          "name": "",
          "type": "uint256"
        }
      ],
      "payable": false,
      "stateMutability": "view",
      "type": "function"
    },
    {
      "constant": true,
      "inputs": [
        {
          "name": "tournamentId",
          "type": "uint256"
        }
      ],
      "name": "tournamentByAddress",
      "outputs": [
        {
          "name": "",
          "type": "uint256"
        },
        {
          "name": "",
          "type": "string"
        },
        {
          "name": "",
          "type": "string"
        },
        {
          "name": "",
          "type": "uint256"
        }
      ],
      "payable": false,
      "stateMutability": "view",
      "type": "function"
    },
    {
      "constant": true,
      "inputs": [],
      "name": "tournamentCount",
      "outputs": [
        {
          "name": "",
          "type": "uint256"
        }
      ],
      "payable": false,
      "stateMutability": "view",
      "type": "function"
    },
    {
      "constant": true,
      "inputs": [
        {
          "name": "",
          "type": "uint256"
        }
      ],
      "name": "tournaments",
      "outputs": [
        {
          "name": "id",
          "type": "uint256"
        },
        {
          "name": "title",
          "type": "string"
        },
        {
          "name": "description",
          "type": "string"
        },
        {
          "name": "bounty",
          "type": "uint256"
        },
        {
          "name": "exists",
          "type": "bool"
        }
      ],
      "payable": false,
      "stateMutability": "view",
      "type": "function"
    },
    {
      "constant": false,
      "inputs": [
        {
          "name": "tournamentId",
          "type": "uint256"
        },
        {
          "name": "title",
          "type": "string"
        },
        {
          "name": "body",
          "type": "string"
        },
        {
          "name": "references",
          "type": "string"
        },
        {
          "name": "contributors",
          "type": "string"
        }
      ],
      "name": "createSubmission",
      "outputs": [],
      "payable": false,
      "stateMutability": "nonpayable",
      "type": "function"
    },
    {
      "constant": true,
      "inputs": [],
      "name": "getOwner",
      "outputs": [
        {
          "name": "_deployer",
          "type": "address"
        }
      ],
      "payable": false,
      "stateMutability": "view",
      "type": "function"
    },
    {
      "constant": false,
      "inputs": [
        {
          "name": "_queryID",
          "type": "uint256"
        },
        {
          "name": "_response",
          "type": "uint256"
        }
      ],
      "name": "storeQueryResponse",
      "outputs": [
        {
          "name": "success",
          "type": "bool"
        }
      ],
      "payable": false,
      "stateMutability": "nonpayable",
      "type": "function"
    },
    {
      "constant": true,
      "inputs": [],
      "name": "owner",
      "outputs": [
        {
          "name": "_owner",
          "type": "address"
        }
      ],
      "payable": false,
      "stateMutability": "view",
      "type": "function"
    },
    {
      "constant": true,
      "inputs": [
        {
          "name": "tournamentId",
          "type": "uint256"
        },
        {
          "name": "idx",
          "type": "uint256"
        }
      ],
      "name": "submissionByIndex",
      "outputs": [
        {
          "name": "",
          "type": "uint256"
        },
        {
          "name": "",
          "type": "string"
        },
        {
          "name": "",
          "type": "string"
        },
        {
          "name": "",
          "type": "string"
        },
        {
          "name": "",
          "type": "string"
        },
        {
          "name": "",
          "type": "address"
        }
      ],
      "payable": false,
      "stateMutability": "view",
      "type": "function"
    },
    {
      "constant": true,
      "inputs": [
        {
          "name": "tournamentId",
          "type": "uint256"
        },
        {
          "name": "submissionId",
          "type": "uint256"
        }
      ],
      "name": "submissionByAddress",
      "outputs": [
        {
          "name": "",
          "type": "uint256"
        },
        {
          "name": "",
          "type": "string"
        },
        {
          "name": "",
          "type": "string"
        },
        {
          "name": "",
          "type": "string"
        },
        {
          "name": "",
          "type": "string"
        },
        {
          "name": "",
          "type": "address"
        }
      ],
      "payable": false,
      "stateMutability": "view",
      "type": "function"
    },
    {
      "constant": false,
      "inputs": [
        {
          "name": "_query",
          "type": "bytes32"
        },
        {
          "name": "_sender",
          "type": "address"
        }
      ],
      "name": "Query",
      "outputs": [],
      "payable": false,
      "stateMutability": "nonpayable",
      "type": "function"
    },
    {
      "constant": false,
      "inputs": [
        {
          "name": "toIgnore",
          "type": "uint256"
        }
      ],
      "name": "prepareBalance",
      "outputs": [],
      "payable": false,
      "stateMutability": "nonpayable",
      "type": "function"
    },
    {
      "constant": false,
      "inputs": [
        {
          "name": "newOwner",
          "type": "address"
        }
      ],
      "name": "transferOwnership",
      "outputs": [],
      "payable": false,
      "stateMutability": "nonpayable",
      "type": "function"
    },
    {
      "constant": false,
      "inputs": [
        {
          "name": "title",
          "type": "string"
        },
        {
          "name": "description",
          "type": "string"
        },
        {
          "name": "bounty",
          "type": "uint256"
        }
      ],
      "name": "createTournament",
      "outputs": [],
      "payable": false,
      "stateMutability": "nonpayable",
      "type": "function"
    },
    {
      "inputs": [],
      "payable": false,
      "stateMutability": "nonpayable",
      "type": "constructor"
    },
    {
      "anonymous": false,
      "inputs": [
        {
          "indexed": false,
          "name": "id",
          "type": "uint256"
        },
        {
          "indexed": false,
          "name": "sender",
          "type": "address"
        }
      ],
      "name": "QueryPerformed",
      "type": "event"
    },
    {
      "anonymous": false,
      "inputs": [
        {
          "indexed": false,
          "name": "storedResponse",
          "type": "uint256"
        }
      ],
      "name": "StoredResponse",
      "type": "event"
    },
    {
      "anonymous": false,
      "inputs": [
        {
          "indexed": false,
          "name": "newResponse",
          "type": "uint256"
        },
        {
          "indexed": false,
          "name": "oldResponse",
          "type": "uint256"
        }
      ],
      "name": "FailedToStore",
      "type": "event"
    }
  ],
  "bytecode": "0x6060604052341561000f57600080fd5b336000806101000a81548173ffffffffffffffffffffffffffffffffffffffff021916908373ffffffffffffffffffffffffffffffffffffffff160217905550612c188061005e6000396000f3006060604052600436106100fc576000357c0100000000000000000000000000000000000000000000000000000000900463ffffffff168063053730ea1461010157806312065fe01461013857806322985f92146101615780632312cbf61461018e5780635b67b6ba146101c557806363f11a40146102db5780636e2b2c7c146103f15780637503e1b71461041a57806382f40bbf14610575578063893d20e8146106a45780638b72062a146106f95780638da5cb5b1461073d5780638e72761114610792578063c3c3d9ac146109b5578063d4a0182014610bd8578063edee41d914610c1e578063f2fde38b14610c41578063f504cf0c14610c7a575b600080fd5b341561010c57600080fd5b6101226004808035906020019091905050610d23565b6040518082815260200191505060405180910390f35b341561014357600080fd5b61014b610d47565b6040518082815260200191505060405180910390f35b341561016c57600080fd5b610174610d5c565b604051808215151515815260200191505060405180910390f35b341561019957600080fd5b6101af6004808035906020019091905050610d7a565b6040518082815260200191505060405180910390f35b34156101d057600080fd5b6101e66004808035906020019091905050610f8e565b604051808581526020018060200180602001848152602001838103835286818151815260200191508051906020019080838360005b8381101561023657808201518184015260208101905061021b565b50505050905090810190601f1680156102635780820380516001836020036101000a031916815260200191505b50838103825285818151815260200191508051906020019080838360005b8381101561029c578082015181840152602081019050610281565b50505050905090810190601f1680156102c95780820380516001836020036101000a031916815260200191505b50965050505050505060405180910390f35b34156102e657600080fd5b6102fc60048080359060200190919050506111ff565b604051808581526020018060200180602001848152602001838103835286818151815260200191508051906020019080838360005b8381101561034c578082015181840152602081019050610331565b50505050905090810190601f1680156103795780820380516001836020036101000a031916815260200191505b50838103825285818151815260200191508051906020019080838360005b838110156103b2578082015181840152602081019050610397565b50505050905090810190601f1680156103df5780820380516001836020036101000a031916815260200191505b50965050505050505060405180910390f35b34156103fc57600080fd5b610404611441565b6040518082815260200191505060405180910390f35b341561042557600080fd5b61043b600480803590602001909190505061144e565b604051808681526020018060200180602001858152602001841515151581526020018381038352878181546001816001161561010002031660029004815260200191508054600181600116156101000203166002900480156104de5780601f106104b3576101008083540402835291602001916104de565b820191906000526020600020905b8154815290600101906020018083116104c157829003601f168201915b50508381038252868181546001816001161561010002031660029004815260200191508054600181600116156101000203166002900480156105615780601f1061053657610100808354040283529160200191610561565b820191906000526020600020905b81548152906001019060200180831161054457829003601f168201915b505097505050505050505060405180910390f35b341561058057600080fd5b6106a2600480803590602001909190803590602001908201803590602001908080601f0160208091040260200160405190810160405280939291908181526020018383808284378201915050505050509190803590602001908201803590602001908080601f0160208091040260200160405190810160405280939291908181526020018383808284378201915050505050509190803590602001908201803590602001908080601f0160208091040260200160405190810160405280939291908181526020018383808284378201915050505050509190803590602001908201803590602001908080601f0160208091040260200160405190810160405280939291908181526020018383808284378201915050505050509190505061148f565b005b34156106af57600080fd5b6106b76116b7565b604051808273ffffffffffffffffffffffffffffffffffffffff1673ffffffffffffffffffffffffffffffffffffffff16815260200191505060405180910390f35b341561070457600080fd5b61072360048080359060200190919080359060200190919050506116e0565b604051808215151515815260200191505060405180910390f35b341561074857600080fd5b610750611832565b604051808273ffffffffffffffffffffffffffffffffffffffff1673ffffffffffffffffffffffffffffffffffffffff16815260200191505060405180910390f35b341561079d57600080fd5b6107bc600480803590602001909190803590602001909190505061185b565b60405180878152602001806020018060200180602001806020018673ffffffffffffffffffffffffffffffffffffffff1673ffffffffffffffffffffffffffffffffffffffff16815260200185810385528a818151815260200191508051906020019080838360005b83811015610840578082015181840152602081019050610825565b50505050905090810190601f16801561086d5780820380516001836020036101000a031916815260200191505b50858103845289818151815260200191508051906020019080838360005b838110156108a657808201518184015260208101905061088b565b50505050905090810190601f1680156108d35780820380516001836020036101000a031916815260200191505b50858103835288818151815260200191508051906020019080838360005b8381101561090c5780820151818401526020810190506108f1565b50505050905090810190601f1680156109395780820380516001836020036101000a031916815260200191505b50858103825287818151815260200191508051906020019080838360005b83811015610972578082015181840152602081019050610957565b50505050905090810190601f16801561099f5780820380516001836020036101000a031916815260200191505b509a505050505050505050505060405180910390f35b34156109c057600080fd5b6109df6004808035906020019091908035906020019091905050611c6f565b60405180878152602001806020018060200180602001806020018673ffffffffffffffffffffffffffffffffffffffff1673ffffffffffffffffffffffffffffffffffffffff16815260200185810385528a818151815260200191508051906020019080838360005b83811015610a63578082015181840152602081019050610a48565b50505050905090810190601f168015610a905780820380516001836020036101000a031916815260200191505b50858103845289818151815260200191508051906020019080838360005b83811015610ac9578082015181840152602081019050610aae565b50505050905090810190601f168015610af65780820380516001836020036101000a031916815260200191505b50858103835288818151815260200191508051906020019080838360005b83811015610b2f578082015181840152602081019050610b14565b50505050905090810190601f168015610b5c5780820380516001836020036101000a031916815260200191505b50858103825287818151815260200191508051906020019080838360005b83811015610b95578082015181840152602081019050610b7a565b50505050905090810190601f168015610bc25780820380516001836020036101000a031916815260200191505b509a505050505050505050505060405180910390f35b3415610be357600080fd5b610c1c60048080356000191690602001909190803573ffffffffffffffffffffffffffffffffffffffff16906020019091905050612051565b005b3415610c2957600080fd5b610c3f6004808035906020019091905050612360565b005b3415610c4c57600080fd5b610c78600480803573ffffffffffffffffffffffffffffffffffffffff16906020019091905050612424565b005b3415610c8557600080fd5b610d21600480803590602001908201803590602001908080601f0160208091040260200160405190810160405280939291908181526020018383808284378201915050505050509190803590602001908201803590602001908080601f016020809104026020016040519081016040528093929190818152602001838380828437820191505050505050919080359060200190919050506124fe565b005b600581815481101515610d3257fe5b90600052602060002090016000915090505481565b600080610d533361267b565b90508091505090565b6000806000610d6a3361267b565b9150600082119050809250505090565b6000610d846126e2565b6004600084815260200190815260200160002060c0604051908101604052908160008201548152602001600182018054600181600116156101000203166002900480601f016020809104026020016040519081016040528092919081815260200182805460018160011615610100020316600290048015610e465780601f10610e1b57610100808354040283529160200191610e46565b820191906000526020600020905b815481529060010190602001808311610e2957829003601f168201915b50505050508152602001600282018054600181600116156101000203166002900480601f016020809104026020016040519081016040528092919081815260200182805460018160011615610100020316600290048015610ee85780601f10610ebd57610100808354040283529160200191610ee8565b820191906000526020600020905b815481529060010190602001808311610ecb57829003601f168201915b505050505081526020016003820154815260200160058201805480602002602001604051908101604052809291908181526020018280548015610f4a57602002820191906000526020600020905b815481526020019060010190808311610f36575b505050505081526020016006820160009054906101000a900460ff16151515158152505090508060a001511515610f8057600080fd5b806080015151915050919050565b6000610f9861272d565b610fa061272d565b6000610faa6126e2565b85610fb3611441565b111515610fbf57600080fd5b60046000600588815481101515610fd257fe5b906000526020600020900154815260200190815260200160002060c0604051908101604052908160008201548152602001600182018054600181600116156101000203166002900480601f01602080910402602001604051908101604052809291908181526020018280546001816001161561010002031660029004801561109b5780601f106110705761010080835404028352916020019161109b565b820191906000526020600020905b81548152906001019060200180831161107e57829003601f168201915b50505050508152602001600282018054600181600116156101000203166002900480601f01602080910402602001604051908101604052809291908181526020018280546001816001161561010002031660029004801561113d5780601f106111125761010080835404028352916020019161113d565b820191906000526020600020905b81548152906001019060200180831161112057829003601f168201915b50505050508152602001600382015481526020016005820180548060200260200160405190810160405280929190818152602001828054801561119f57602002820191906000526020600020905b81548152602001906001019080831161118b575b505050505081526020016006820160009054906101000a900460ff16151515158152505090508060a0015115156111d557600080fd5b80600001518160200151826040015183606001518292508191509450945094509450509193509193565b600061120961272d565b61121161272d565b600061121b6126e2565b6004600087815260200190815260200160002060c0604051908101604052908160008201548152602001600182018054600181600116156101000203166002900480601f0160208091040260200160405190810160405280929190818152602001828054600181600116156101000203166002900480156112dd5780601f106112b2576101008083540402835291602001916112dd565b820191906000526020600020905b8154815290600101906020018083116112c057829003601f168201915b50505050508152602001600282018054600181600116156101000203166002900480601f01602080910402602001604051908101604052809291908181526020018280546001816001161561010002031660029004801561137f5780601f106113545761010080835404028352916020019161137f565b820191906000526020600020905b81548152906001019060200180831161136257829003601f168201915b5050505050815260200160038201548152602001600582018054806020026020016040519081016040528092919081815260200182805480156113e157602002820191906000526020600020905b8154815260200190600101908083116113cd575b505050505081526020016006820160009054906101000a900460ff16151515158152505090508060a00151151561141757600080fd5b80600001518160200151826040015183606001518292508191509450945094509450509193509193565b6000600580549050905090565b6004602052806000526040600020600091509050806000015490806001019080600201908060030154908060060160009054906101000a900460ff16905085565b60008061149a612741565b6004600089815260200190815260200160002092508260060160009054906101000a900460ff1615156114cc57600080fd5b6114d53361267b565b91506000821115156114e657600080fd5b87816000018181525050602a6114fb89610d7a565b01816020018181525050868160400181905250858160600181905250848160800181905250838160a00181905250338160c0019073ffffffffffffffffffffffffffffffffffffffff16908173ffffffffffffffffffffffffffffffffffffffff168152505060018160e00190151590811515815250508083600401600083602001518152602001908152602001600020600082015181600001556020820151816001015560408201518160020190805190602001906115bc9291906127b7565b5060608201518160030190805190602001906115d99291906127b7565b5060808201518160040190805190602001906115f69291906127b7565b5060a08201518160050190805190602001906116139291906127b7565b5060c08201518160060160006101000a81548173ffffffffffffffffffffffffffffffffffffffff021916908373ffffffffffffffffffffffffffffffffffffffff16021790555060e08201518160060160146101000a81548160ff0219169083151502179055509050508260050180548060010182816116949190612837565b916000526020600020900160008360200151909190915055505050505050505050565b60008060009054906101000a900473ffffffffffffffffffffffffffffffffffffffff16905090565b6000806000809054906101000a900473ffffffffffffffffffffffffffffffffffffffff1673ffffffffffffffffffffffffffffffffffffffff163373ffffffffffffffffffffffffffffffffffffffff1614151561173e57600080fd5b600360008581526020019081526020016000205490506000831180156117645750600081145b156117d4578260036000868152602001908152602001600020819055507fae8527266ba82a48a206c6cbaa4634e0d5e70b8c6017ac015e19fa75664d557860036000868152602001908152602001600020546040518082815260200191505060405180910390a16001915061182b565b7fe0ecffc2c891b346f2eeb89101dba4c5748fb0f27fd023b97cdcac60c0a1585c836003600087815260200190815260200160002054604051808381526020018281526020019250505060405180910390a1600091505b5092915050565b60008060009054906101000a900473ffffffffffffffffffffffffffffffffffffffff16905090565b600061186561272d565b61186d61272d565b61187561272d565b61187d61272d565b600080611888612741565b886118928b610d7a565b11151561189e57600080fd5b600460008b815260200190815260200160002091508160060160009054906101000a900460ff1615156118d057600080fd5b816004016000836005018b8154811015156118e757fe5b906000526020600020900154815260200190815260200160002061010060405190810160405290816000820154815260200160018201548152602001600282018054600181600116156101000203166002900480601f0160208091040260200160405190810160405280929190818152602001828054600181600116156101000203166002900480156119bb5780601f10611990576101008083540402835291602001916119bb565b820191906000526020600020905b81548152906001019060200180831161199e57829003601f168201915b50505050508152602001600382018054600181600116156101000203166002900480601f016020809104026020016040519081016040528092919081815260200182805460018160011615610100020316600290048015611a5d5780601f10611a3257610100808354040283529160200191611a5d565b820191906000526020600020905b815481529060010190602001808311611a4057829003601f168201915b50505050508152602001600482018054600181600116156101000203166002900480601f016020809104026020016040519081016040528092919081815260200182805460018160011615610100020316600290048015611aff5780601f10611ad457610100808354040283529160200191611aff565b820191906000526020600020905b815481529060010190602001808311611ae257829003601f168201915b50505050508152602001600582018054600181600116156101000203166002900480601f016020809104026020016040519081016040528092919081815260200182805460018160011615610100020316600290048015611ba15780601f10611b7657610100808354040283529160200191611ba1565b820191906000526020600020905b815481529060010190602001808311611b8457829003601f168201915b505050505081526020016006820160009054906101000a900473ffffffffffffffffffffffffffffffffffffffff1673ffffffffffffffffffffffffffffffffffffffff1673ffffffffffffffffffffffffffffffffffffffff1681526020016006820160149054906101000a900460ff16151515158152505090508060e001511515611c2d57600080fd5b80602001518160400151826060015183608001518460a001518560c0015184945083935082925081915097509750975097509750975050509295509295509295565b6000611c7961272d565b611c8161272d565b611c8961272d565b611c9161272d565b600080611c9c612741565b600460008b815260200190815260200160002091508160060160009054906101000a900460ff161515611cce57600080fd5b8160040160008a815260200190815260200160002061010060405190810160405290816000820154815260200160018201548152602001600282018054600181600116156101000203166002900480601f016020809104026020016040519081016040528092919081815260200182805460018160011615610100020316600290048015611d9d5780601f10611d7257610100808354040283529160200191611d9d565b820191906000526020600020905b815481529060010190602001808311611d8057829003601f168201915b50505050508152602001600382018054600181600116156101000203166002900480601f016020809104026020016040519081016040528092919081815260200182805460018160011615610100020316600290048015611e3f5780601f10611e1457610100808354040283529160200191611e3f565b820191906000526020600020905b815481529060010190602001808311611e2257829003601f168201915b50505050508152602001600482018054600181600116156101000203166002900480601f016020809104026020016040519081016040528092919081815260200182805460018160011615610100020316600290048015611ee15780601f10611eb657610100808354040283529160200191611ee1565b820191906000526020600020905b815481529060010190602001808311611ec457829003601f168201915b50505050508152602001600582018054600181600116156101000203166002900480601f016020809104026020016040519081016040528092919081815260200182805460018160011615610100020316600290048015611f835780601f10611f5857610100808354040283529160200191611f83565b820191906000526020600020905b815481529060010190602001808311611f6657829003601f168201915b505050505081526020016006820160009054906101000a900473ffffffffffffffffffffffffffffffffffffffff1673ffffffffffffffffffffffffffffffffffffffff1673ffffffffffffffffffffffffffffffffffffffff1681526020016006820160149054906101000a900460ff16151515158152505090508060e00151151561200f57600080fd5b80602001518160400151826060015183608001518460a001518560c0015184945083935082925081915097509750975097509750975050509295509295509295565b6000806000600160008573ffffffffffffffffffffffffffffffffffffffff1673ffffffffffffffffffffffffffffffffffffffff16815260200190815260200160002060009054906101000a900473ffffffffffffffffffffffffffffffffffffffff1673ffffffffffffffffffffffffffffffffffffffff16111561213957600160008473ffffffffffffffffffffffffffffffffffffffff1673ffffffffffffffffffffffffffffffffffffffff16815260200190815260200160002060009054906101000a900473ffffffffffffffffffffffffffffffffffffffff16915061220f565b82612142612863565b808273ffffffffffffffffffffffffffffffffffffffff1673ffffffffffffffffffffffffffffffffffffffff168152602001915050604051809103906000f080151561218e57600080fd5b915081600160008573ffffffffffffffffffffffffffffffffffffffff1673ffffffffffffffffffffffffffffffffffffffff16815260200190815260200160002060006101000a81548173ffffffffffffffffffffffffffffffffffffffff021916908373ffffffffffffffffffffffffffffffffffffffff1602179055505b8173ffffffffffffffffffffffffffffffffffffffff1663a3b61a9c856000604051602001526040518263ffffffff167c0100000000000000000000000000000000000000000000000000000000028152600401808260001916600019168152602001915050602060405180830381600087803b151561228e57600080fd5b6102c65a03f1151561229f57600080fd5b50505060405180519050905080600260008573ffffffffffffffffffffffffffffffffffffffff1673ffffffffffffffffffffffffffffffffffffffff168152602001908152602001600020819055507f1c16af450a72e7153ed6faee28677e32f11936f8ab2e63322d032d1f753b5aea8184604051808381526020018273ffffffffffffffffffffffffffffffffffffffff1673ffffffffffffffffffffffffffffffffffffffff1681526020019250505060405180910390a150505050565b3073ffffffffffffffffffffffffffffffffffffffff1663d4a0182082600102336040518363ffffffff167c01000000000000000000000000000000000000000000000000000000000281526004018083600019166000191681526020018273ffffffffffffffffffffffffffffffffffffffff1673ffffffffffffffffffffffffffffffffffffffff16815260200192505050600060405180830381600087803b151561240d57600080fd5b6102c65a03f1151561241e57600080fd5b50505050565b6000809054906101000a900473ffffffffffffffffffffffffffffffffffffffff1673ffffffffffffffffffffffffffffffffffffffff163373ffffffffffffffffffffffffffffffffffffffff1614151561247f57600080fd5b600073ffffffffffffffffffffffffffffffffffffffff168173ffffffffffffffffffffffffffffffffffffffff16141515156124bb57600080fd5b806000806101000a81548173ffffffffffffffffffffffffffffffffffffffff021916908373ffffffffffffffffffffffffffffffffffffffff16021790555050565b6125066126e2565b6000809054906101000a900473ffffffffffffffffffffffffffffffffffffffff1673ffffffffffffffffffffffffffffffffffffffff163373ffffffffffffffffffffffffffffffffffffffff1614151561256157600080fd5b602a61256b611441565b018160000181815250508381602001819052508281604001819052508181606001818152505060018160a00190151590811515815250508060046000836000015181526020019081526020016000206000820151816000015560208201518160010190805190602001906125e09291906127b7565b5060408201518160020190805190602001906125fd9291906127b7565b50606082015181600301556080820151816005019080519060200190612624929190612873565b5060a08201518160060160006101000a81548160ff0219169083151502179055509050506005805480600101828161265c9190612837565b9160005260206000209001600083600001519091909150555050505050565b6000806000600260008573ffffffffffffffffffffffffffffffffffffffff1673ffffffffffffffffffffffffffffffffffffffff168152602001908152602001600020549150600360008381526020019081526020016000205490508092505050919050565b60c060405190810160405280600081526020016126fd6128c0565b815260200161270a6128c0565b81526020016000815260200161271e6128d4565b81526020016000151581525090565b602060405190810160405280600081525090565b6101006040519081016040528060008152602001600081526020016127646128c0565b81526020016127716128c0565b815260200161277e6128c0565b815260200161278b6128c0565b8152602001600073ffffffffffffffffffffffffffffffffffffffff1681526020016000151581525090565b828054600181600116156101000203166002900490600052602060002090601f016020900481019282601f106127f857805160ff1916838001178555612826565b82800160010185558215612826579182015b8281111561282557825182559160200191906001019061280a565b5b50905061283391906128e8565b5090565b81548183558181151161285e5781836000526020600020918201910161285d91906128e8565b5b505050565b6040516102df8061290e83390190565b8280548282559060005260206000209081019282156128af579160200282015b828111156128ae578251825591602001919060010190612893565b5b5090506128bc91906128e8565b5090565b602060405190810160405280600081525090565b602060405190810160405280600081525090565b61290a91905b808211156129065760008160009055506001016128ee565b5090565b9056006060604052341561000f57600080fd5b6040516020806102df83398101604052808051906020019091905050336000806101000a81548173ffffffffffffffffffffffffffffffffffffffff021916908373ffffffffffffffffffffffffffffffffffffffff16021790555080600160006101000a81548173ffffffffffffffffffffffffffffffffffffffff021916908373ffffffffffffffffffffffffffffffffffffffff16021790555050610223806100bc6000396000f30060606040526004361061004c576000357c0100000000000000000000000000000000000000000000000000000000900463ffffffff16806341c0e1b514610051578063a3b61a9c14610066575b600080fd5b341561005c57600080fd5b6100646100a1565b005b341561007157600080fd5b61008b600480803560001916906020019091905050610115565b6040518082815260200191505060405180910390f35b6000809054906101000a900473ffffffffffffffffffffffffffffffffffffffff1673ffffffffffffffffffffffffffffffffffffffff163373ffffffffffffffffffffffffffffffffffffffff161415156100fc57600080fd5b3373ffffffffffffffffffffffffffffffffffffffff16ff5b60008060009054906101000a900473ffffffffffffffffffffffffffffffffffffffff1673ffffffffffffffffffffffffffffffffffffffff163373ffffffffffffffffffffffffffffffffffffffff1614151561017257600080fd5b434283336040518085815260200184815260200183600019166000191681526020018273ffffffffffffffffffffffffffffffffffffffff1673ffffffffffffffffffffffffffffffffffffffff166c0100000000000000000000000002815260140194505050505060405180910390206001900460028190555060025490509190505600a165627a7a72305820fbfdcb4d24db9340a6fd7f364b82aabbd8452fa24a5d436f9298a490f32a55cb0029a165627a7a72305820c2b77f8cb0d148fab3b41bc168f69ea77eb125cf9a83ae60aa117badceb67d6d0029",
  "source": "pragma solidity ^0.4.18;\n\nimport \"./MatryxOracleMessenger.sol\";\n\ncontract MatryxPlatform is MatryxOracleMessenger\n{\n\n    struct Submission\n    {\n        uint256 tournamentId;\n        uint256 id;\n\n        string title;\n        string body;\n        string references;\n        string contributors;\n        address author;\n\n        bool exists;\n    }\n\n    struct Tournament\n    {\n        uint256 id;\n\n        string title;\n        string description;\n        uint256 bounty;\n\n        mapping (uint256 => Submission) submissions;\n        uint256[] submissionList;\n\n        bool exists;\n    }\n\n    mapping (uint256 => Tournament) public tournaments;\n    uint256[] public tournamentList;\n\n    modifier owneronly()\n    {\n        require(msg.sender == owner);\n        _;\n    }\n\n    function MatryxPlatform() public\n    {\n    }\n\n    function prepareBalance(uint256 toIgnore) public\n    {\n        this.Query(bytes32(toIgnore), msg.sender);\n    }\n\n    function balanceIsNonZero() public view returns (bool)\n    {\n        uint balance = latestResponseFromOracle(msg.sender);\n        bool nonZero = balance > 0;\n        return nonZero;\n    }\n\n    function getBalance() public constant returns (uint256)\n    {\n        uint256 balance = latestResponseFromOracle(msg.sender);\n        return balance;\n    }\n\n    function createTournament(string title, string description, uint256 bounty) owneronly public\n    {\n        Tournament memory newTournament;\n        newTournament.id = tournamentCount() + 42;\n        newTournament.title = title;\n        newTournament.description = description;\n        newTournament.bounty = bounty;\n        newTournament.exists = true;\n        tournaments[newTournament.id] = newTournament;\n        tournamentList.push(newTournament.id);\n    }\n\n    function createSubmission(uint256 tournamentId, string title, string body, string references, string contributors) public\n    {\n        // Require tournament exists\n        Tournament storage t = tournaments[tournamentId];\n        require(t.exists);\n\n        uint256 balanceMTX = latestResponseFromOracle(msg.sender);\n        require(balanceMTX > 0);\n\n        Submission memory newSubmission;\n        newSubmission.tournamentId = tournamentId;\n        newSubmission.id = submissionCount(tournamentId) + 42;\n        newSubmission.title = title;\n        newSubmission.body = body;\n        newSubmission.references = references;\n        newSubmission.contributors = contributors;\n        newSubmission.author = msg.sender;\n        newSubmission.exists = true;\n        t.submissions[newSubmission.id] = newSubmission;\n        t.submissionList.push(newSubmission.id);\n    }\n\n    function tournamentByIndex(uint256 idx) public constant returns (uint256, string, string, uint256)\n    {\n        require(tournamentCount() > idx);\n        Tournament memory t = tournaments[tournamentList[idx]];\n        require(t.exists);\n        return (t.id, t.title, t.description, t.bounty);\n    }\n\n    function tournamentByAddress(uint256 tournamentId) public constant returns (uint256, string, string, uint256)\n    {\n        Tournament memory t = tournaments[tournamentId];\n        require(t.exists);\n        return (t.id, t.title, t.description, t.bounty);\n    }\n\n    function tournamentCount() public constant returns (uint256)\n    {\n        return tournamentList.length;\n    }\n\n    function submissionByIndex(uint256 tournamentId, uint256 idx) public constant returns (uint256, string, string, string, string, address)\n    {\n        require(submissionCount(tournamentId) > idx);\n        Tournament storage t = tournaments[tournamentId];\n        require(t.exists);\n        Submission memory s = t.submissions[t.submissionList[idx]];\n        require(s.exists);\n        return (s.id, s.title, s.body, s.references, s.contributors, s.author);\n    }\n\n    function submissionByAddress(uint256 tournamentId, uint256 submissionId) public constant returns (uint256, string, string, string, string, address)\n    {\n        Tournament storage t = tournaments[tournamentId];\n        require(t.exists);\n        Submission memory s = t.submissions[submissionId];\n        require(s.exists);\n        return (s.id, s.title, s.body, s.references, s.contributors, s.author);\n    }\n\n    function submissionCount(uint256 tournamentId) public constant returns (uint256)\n    {\n        Tournament memory t = tournaments[tournamentId];\n        require(t.exists);\n        return t.submissionList.length;\n    }\n\n}\n",
  "sourcePath": "/Users/maxhoward/Desktop/Ethereum Development/Matryx AWS/Projects/matryx-alpha-source/contracts/MatryxPlatform.sol",
  "compiler": {
    "name": "solc",
    "version": "0.4.18+commit.9cf6e910.Emscripten.clang"
  },
  "schemaVersion": "1.0.1",
  "updatedAt": "2017-12-07T21:34:03.944Z"
}