{
  "contractName": "MatryxTournament",
  "abi": [
    {
      "constant": true,
      "inputs": [],
      "name": "entryFee",
      "outputs": [
        {
          "name": "",
          "type": "uint256"
        }
      ],
      "payable": false,
      "stateMutability": "view",
      "type": "function"
    },
    {
      "constant": true,
      "inputs": [],
      "name": "matryxTokenAddress",
      "outputs": [
        {
          "name": "",
          "type": "address"
        }
      ],
      "payable": false,
      "stateMutability": "view",
      "type": "function"
    },
    {
      "constant": true,
      "inputs": [
        {
          "name": "_sender",
          "type": "address"
        }
      ],
      "name": "isOwner",
      "outputs": [
        {
          "name": "_isOwner",
          "type": "bool"
        }
      ],
      "payable": false,
      "stateMutability": "view",
      "type": "function"
    },
    {
      "constant": true,
      "inputs": [
        {
          "name": "",
          "type": "uint256"
        }
      ],
      "name": "title",
      "outputs": [
        {
          "name": "",
          "type": "bytes32"
        }
      ],
      "payable": false,
      "stateMutability": "view",
      "type": "function"
    },
    {
      "constant": true,
      "inputs": [],
      "name": "tournamentOpenedTime",
      "outputs": [
        {
          "name": "",
          "type": "uint256"
        }
      ],
      "payable": false,
      "stateMutability": "view",
      "type": "function"
    },
    {
      "constant": true,
      "inputs": [],
      "name": "closed",
      "outputs": [
        {
          "name": "",
          "type": "bool"
        }
      ],
      "payable": false,
      "stateMutability": "view",
      "type": "function"
    },
    {
      "constant": true,
      "inputs": [
        {
          "name": "",
          "type": "uint256"
        }
      ],
      "name": "descriptionHash",
      "outputs": [
        {
          "name": "",
          "type": "bytes32"
        }
      ],
      "payable": false,
      "stateMutability": "view",
      "type": "function"
    },
    {
      "constant": true,
      "inputs": [],
      "name": "matryxRoundFactoryAddress",
      "outputs": [
        {
          "name": "",
          "type": "address"
        }
      ],
      "payable": false,
      "stateMutability": "view",
      "type": "function"
    },
    {
      "constant": true,
      "inputs": [
        {
          "name": "",
          "type": "address"
        }
      ],
      "name": "isRound",
      "outputs": [
        {
          "name": "",
          "type": "bool"
        }
      ],
      "payable": false,
      "stateMutability": "view",
      "type": "function"
    },
    {
      "constant": true,
      "inputs": [
        {
          "name": "",
          "type": "uint256"
        }
      ],
      "name": "rounds",
      "outputs": [
        {
          "name": "",
          "type": "address"
        }
      ],
      "payable": false,
      "stateMutability": "view",
      "type": "function"
    },
    {
      "constant": true,
      "inputs": [],
      "name": "owner",
      "outputs": [
        {
          "name": "",
          "type": "address"
        }
      ],
      "payable": false,
      "stateMutability": "view",
      "type": "function"
    },
    {
      "constant": true,
      "inputs": [],
      "name": "bounty",
      "outputs": [
        {
          "name": "",
          "type": "uint256"
        }
      ],
      "payable": false,
      "stateMutability": "view",
      "type": "function"
    },
    {
      "constant": true,
      "inputs": [],
      "name": "categoryHash",
      "outputs": [
        {
          "name": "",
          "type": "bytes32"
        }
      ],
      "payable": false,
      "stateMutability": "view",
      "type": "function"
    },
    {
      "constant": true,
      "inputs": [],
      "name": "platformAddress",
      "outputs": [
        {
          "name": "",
          "type": "address"
        }
      ],
      "payable": false,
      "stateMutability": "view",
      "type": "function"
    },
    {
      "constant": true,
      "inputs": [],
      "name": "category",
      "outputs": [
        {
          "name": "",
          "type": "string"
        }
      ],
      "payable": false,
      "stateMutability": "view",
      "type": "function"
    },
    {
      "constant": true,
      "inputs": [],
      "name": "timeCreated",
      "outputs": [
        {
          "name": "",
          "type": "uint256"
        }
      ],
      "payable": false,
      "stateMutability": "view",
      "type": "function"
    },
    {
      "constant": false,
      "inputs": [
        {
          "name": "newOwner",
          "type": "address"
        }
      ],
      "name": "transferOwnership",
      "outputs": [],
      "payable": false,
      "stateMutability": "nonpayable",
      "type": "function"
    },
    {
      "inputs": [
        {
          "name": "_category",
          "type": "string"
        },
        {
          "components": [
            {
              "name": "title_1",
              "type": "bytes32"
            },
            {
              "name": "title_2",
              "type": "bytes32"
            },
            {
              "name": "title_3",
              "type": "bytes32"
            },
            {
              "name": "descriptionHash_1",
              "type": "bytes32"
            },
            {
              "name": "descriptionHash_2",
              "type": "bytes32"
            },
            {
              "name": "bounty",
              "type": "uint256"
            },
            {
              "name": "entryFee",
              "type": "uint256"
            }
          ],
          "name": "tournamentData",
          "type": "tuple"
        },
        {
          "components": [
            {
              "name": "start",
              "type": "uint256"
            },
            {
              "name": "end",
              "type": "uint256"
            },
            {
              "name": "reviewDuration",
              "type": "uint256"
            },
            {
              "name": "bounty",
              "type": "uint256"
            }
          ],
          "name": "roundData",
          "type": "tuple"
        },
        {
          "name": "_platformAddress",
          "type": "address"
        },
        {
          "name": "_matryxTokenAddress",
          "type": "address"
        },
        {
          "name": "_matryxRoundFactoryAddress",
          "type": "address"
        },
        {
          "name": "_owner",
          "type": "address"
        }
      ],
      "payable": false,
      "stateMutability": "nonpayable",
      "type": "constructor"
    },
    {
      "anonymous": false,
      "inputs": [
        {
          "indexed": false,
          "name": "_startTime",
          "type": "uint256"
        },
        {
          "indexed": false,
          "name": "_endTime",
          "type": "uint256"
        },
        {
          "indexed": false,
          "name": "_reviewDuration",
          "type": "uint256"
        },
        {
          "indexed": false,
          "name": "_roundAddress",
          "type": "address"
        },
        {
          "indexed": false,
          "name": "_roundNumber",
          "type": "uint256"
        }
      ],
      "name": "NewRound",
      "type": "event"
    },
    {
      "anonymous": false,
      "inputs": [
        {
          "indexed": false,
          "name": "_roundIndex",
          "type": "uint256"
        },
        {
          "indexed": false,
          "name": "_submissionAddress",
          "type": "address"
        }
      ],
      "name": "SubmissionCreated",
      "type": "event"
    },
    {
      "anonymous": false,
      "inputs": [
        {
          "indexed": false,
          "name": "_submissionAddresses",
          "type": "address[]"
        }
      ],
      "name": "RoundWinnersChosen",
      "type": "event"
    },
    {
      "constant": false,
      "inputs": [
        {
          "name": "_submissionAddress",
          "type": "address"
        }
      ],
      "name": "invokeSubmissionCreatedEvent",
      "outputs": [],
      "payable": false,
      "stateMutability": "nonpayable",
      "type": "function"
    },
    {
      "constant": false,
      "inputs": [
        {
          "name": "_submissionAddress",
          "type": "address"
        },
        {
          "name": "_author",
          "type": "address"
        }
      ],
      "name": "removeSubmission",
      "outputs": [
        {
          "name": "",
          "type": "bool"
        }
      ],
      "payable": false,
      "stateMutability": "nonpayable",
      "type": "function"
    },
    {
      "constant": true,
      "inputs": [
        {
          "name": "_sender",
          "type": "address"
        }
      ],
      "name": "isEntrant",
      "outputs": [
        {
          "name": "",
          "type": "bool"
        }
      ],
      "payable": false,
      "stateMutability": "view",
      "type": "function"
    },
    {
      "constant": true,
      "inputs": [],
      "name": "getState",
      "outputs": [
        {
          "name": "",
          "type": "uint256"
        }
      ],
      "payable": false,
      "stateMutability": "view",
      "type": "function"
    },
    {
      "constant": true,
      "inputs": [],
      "name": "getPlatform",
      "outputs": [
        {
          "name": "_platformAddress",
          "type": "address"
        }
      ],
      "payable": false,
      "stateMutability": "view",
      "type": "function"
    },
    {
      "constant": true,
      "inputs": [],
      "name": "getTitle",
      "outputs": [
        {
          "name": "_title",
          "type": "bytes32[3]"
        }
      ],
      "payable": false,
      "stateMutability": "view",
      "type": "function"
    },
    {
      "constant": true,
      "inputs": [],
      "name": "getCategory",
      "outputs": [
        {
          "name": "_category",
          "type": "string"
        }
      ],
      "payable": false,
      "stateMutability": "view",
      "type": "function"
    },
    {
      "constant": true,
      "inputs": [],
      "name": "getOwner",
      "outputs": [
        {
          "name": "_owner",
          "type": "address"
        }
      ],
      "payable": false,
      "stateMutability": "view",
      "type": "function"
    },
    {
      "constant": true,
      "inputs": [],
      "name": "getDescriptionHash",
      "outputs": [
        {
          "name": "_descriptionHash",
          "type": "bytes32[2]"
        }
      ],
      "payable": false,
      "stateMutability": "view",
      "type": "function"
    },
    {
      "constant": true,
      "inputs": [],
      "name": "currentRound",
      "outputs": [
        {
          "name": "_currentRound",
          "type": "uint256"
        },
        {
          "name": "_currentRoundAddress",
          "type": "address"
        }
      ],
      "payable": false,
      "stateMutability": "view",
      "type": "function"
    },
    {
      "constant": true,
      "inputs": [],
      "name": "mySubmissions",
      "outputs": [
        {
          "name": "",
          "type": "address[]"
        }
      ],
      "payable": false,
      "stateMutability": "view",
      "type": "function"
    },
    {
      "constant": true,
      "inputs": [],
      "name": "submissionCount",
      "outputs": [
        {
          "name": "_submissionCount",
          "type": "uint256"
        }
      ],
      "payable": false,
      "stateMutability": "view",
      "type": "function"
    },
    {
      "constant": true,
      "inputs": [],
      "name": "entrantCount",
      "outputs": [
        {
          "name": "_entrantCount",
          "type": "uint256"
        }
      ],
      "payable": false,
      "stateMutability": "view",
      "type": "function"
    },
    {
      "constant": false,
      "inputs": [
        {
          "name": "_category",
          "type": "string"
        },
        {
          "components": [
            {
              "name": "title_1",
              "type": "bytes32"
            },
            {
              "name": "title_2",
              "type": "bytes32"
            },
            {
              "name": "title_3",
              "type": "bytes32"
            },
            {
              "name": "descriptionHash_1",
              "type": "bytes32"
            },
            {
              "name": "descriptionHash_2",
              "type": "bytes32"
            },
            {
              "name": "entryFee",
              "type": "uint256"
            },
            {
              "name": "entryFeeChanged",
              "type": "bool"
            }
          ],
          "name": "tournamentData",
          "type": "tuple"
        }
      ],
      "name": "update",
      "outputs": [],
      "payable": false,
      "stateMutability": "nonpayable",
      "type": "function"
    },
    {
      "constant": false,
      "inputs": [
        {
          "name": "_title",
          "type": "bytes32[3]"
        }
      ],
      "name": "updateTitle",
      "outputs": [],
      "payable": false,
      "stateMutability": "nonpayable",
      "type": "function"
    },
    {
      "constant": false,
      "inputs": [
        {
          "name": "_descriptionHash",
          "type": "bytes32[2]"
        }
      ],
      "name": "updateDescriptionHash",
      "outputs": [],
      "payable": false,
      "stateMutability": "nonpayable",
      "type": "function"
    },
    {
      "constant": false,
      "inputs": [
        {
          "name": "_entryFee",
          "type": "uint256"
        }
      ],
      "name": "updateEntryFee",
      "outputs": [],
      "payable": false,
      "stateMutability": "nonpayable",
      "type": "function"
    },
    {
      "constant": false,
      "inputs": [
        {
          "name": "_category",
          "type": "string"
        }
      ],
      "name": "updateCategory",
      "outputs": [],
      "payable": false,
      "stateMutability": "nonpayable",
      "type": "function"
    },
    {
      "constant": false,
      "inputs": [
        {
          "name": "_submissionAddresses",
          "type": "address[]"
        },
        {
          "name": "_rewardDistribution",
          "type": "uint256[]"
        }
      ],
      "name": "selectWinners",
      "outputs": [],
      "payable": false,
      "stateMutability": "nonpayable",
      "type": "function"
    },
    {
      "constant": false,
      "inputs": [
        {
          "components": [
            {
              "name": "start",
              "type": "uint256"
            },
            {
              "name": "end",
              "type": "uint256"
            },
            {
              "name": "reviewDuration",
              "type": "uint256"
            },
            {
              "name": "bounty",
              "type": "uint256"
            }
          ],
          "name": "roundData",
          "type": "tuple"
        },
        {
          "name": "_closeTournament",
          "type": "bool"
        },
        {
          "name": "_closeRound",
          "type": "bool"
        }
      ],
      "name": "endReviewPeriod",
      "outputs": [],
      "payable": false,
      "stateMutability": "nonpayable",
      "type": "function"
    },
    {
      "constant": false,
      "inputs": [
        {
          "components": [
            {
              "name": "start",
              "type": "uint256"
            },
            {
              "name": "end",
              "type": "uint256"
            },
            {
              "name": "reviewDuration",
              "type": "uint256"
            },
            {
              "name": "bounty",
              "type": "uint256"
            }
          ],
          "name": "roundData",
          "type": "tuple"
        }
      ],
      "name": "nextRound",
      "outputs": [],
      "payable": false,
      "stateMutability": "nonpayable",
      "type": "function"
    },
    {
      "constant": false,
      "inputs": [
        {
          "components": [
            {
              "name": "start",
              "type": "uint256"
            },
            {
              "name": "end",
              "type": "uint256"
            },
            {
              "name": "reviewDuration",
              "type": "uint256"
            },
            {
              "name": "bounty",
              "type": "uint256"
            }
          ],
          "name": "roundData",
          "type": "tuple"
        },
        {
          "name": "_automaticCreation",
          "type": "bool"
        }
      ],
      "name": "createRound",
      "outputs": [
        {
          "name": "_roundAddress",
          "type": "address"
        }
      ],
      "payable": false,
      "stateMutability": "nonpayable",
      "type": "function"
    },
    {
      "constant": false,
      "inputs": [
        {
          "name": "_roundIndex",
          "type": "uint256"
        },
        {
          "name": "_bountyMTX",
          "type": "uint256"
        }
      ],
      "name": "sendBountyToRound",
      "outputs": [],
      "payable": false,
      "stateMutability": "nonpayable",
      "type": "function"
    },
    {
      "constant": true,
      "inputs": [],
      "name": "remainingBounty",
      "outputs": [
        {
          "name": "",
          "type": "uint256"
        }
      ],
      "payable": false,
      "stateMutability": "view",
      "type": "function"
    },
    {
      "constant": false,
      "inputs": [
        {
          "name": "_entrantAddress",
          "type": "address"
        }
      ],
      "name": "enterUserInTournament",
      "outputs": [
        {
          "name": "_success",
          "type": "bool"
        }
      ],
      "payable": false,
      "stateMutability": "nonpayable",
      "type": "function"
    },
    {
      "constant": true,
      "inputs": [],
      "name": "getEntryFee",
      "outputs": [
        {
          "name": "",
          "type": "uint256"
        }
      ],
      "payable": false,
      "stateMutability": "view",
      "type": "function"
    },
    {
      "constant": false,
      "inputs": [
        {
          "name": "_contributors",
          "type": "address[]"
        },
        {
          "name": "_contributorRewardDistribution",
          "type": "uint128[]"
        },
        {
          "name": "_references",
          "type": "address[]"
        },
        {
          "components": [
            {
              "name": "title",
              "type": "string"
            },
            {
              "name": "owner",
              "type": "address"
            },
            {
              "name": "contentHash",
              "type": "bytes"
            },
            {
              "name": "isPublic",
              "type": "bool"
            }
          ],
          "name": "submissionData",
          "type": "tuple"
        }
      ],
      "name": "createSubmission",
      "outputs": [
        {
          "name": "_submissionAddress",
          "type": "address"
        }
      ],
      "payable": false,
      "stateMutability": "nonpayable",
      "type": "function"
    },
    {
      "constant": false,
      "inputs": [],
      "name": "withdraw",
      "outputs": [],
      "payable": false,
      "stateMutability": "nonpayable",
      "type": "function"
    },
    {
      "constant": false,
      "inputs": [],
      "name": "pullRemainingBountyIntoRound",
      "outputs": [],
      "payable": false,
      "stateMutability": "nonpayable",
      "type": "function"
    }
  ],
  "bytecode": "0x608060405260006015553480156200001657600080fd5b50604051620045523803806200455283398101806040526200003c919081019062000743565b6000805433600160a060020a031991821617909155600180548216600160a060020a038781169190911790915560028054831686831617905560038054831685831617905542600c55600a80549092169083161790558651620000a790600b9060208a019062000491565b508551600455602086015160055560408601516006556060860151600755608086015160085560a086015160115560c0860151601255620000f385600064010000000062000101810204565b505050505050505062000a30565b6000808033301480620001cc5750600160009054906101000a9004600160a060020a0316600160a060020a031663c8ab6c876040518163ffffffff167c0100000000000000000000000000000000000000000000000000000000028152600401602060405180830381600087803b1580156200017c57600080fd5b505af115801562000191573d6000803e3d6000fd5b505050506040513d601f19601f82011682018060405250620001b79190810190620006f9565b600160a060020a031633600160a060020a0316145b80620001e75750336000908152600f602052604090205460ff165b1515620001f357600080fd5b8451421180159062000209575060208501518551105b15156200024d576040517f08c379a0000000000000000000000000000000000000000000000000000000008152600401620002449062000930565b60405180910390fd5b600354600160a060020a03169150831515620002755760608501516000106200027557600080fd5b600154600e546040517faf1237af000000000000000000000000000000000000000000000000000000008152600160a060020a038581169363af1237af93620002cc939290911691309133918c90600401620008ba565b602060405180830381600087803b158015620002e757600080fd5b505af1158015620002fc573d6000803e3d6000fd5b505050506040513d601f19601f82011682018060405250620003229190810190620006f9565b600e5490915015620003d75760025460608601516040517fa9059cbb000000000000000000000000000000000000000000000000000000008152600160a060020a039092169163a9059cbb916200037f9185919060040162000911565b602060405180830381600087803b1580156200039a57600080fd5b505af1158015620003af573d6000803e3d6000fd5b505050506040513d601f19601f82011682018060405250620003d5919081019062000722565b505b600e8054600180820183557fbb7b4a454dc3493923482f07822329ed19e8244eff582cc204f8554c3620c3fd9091018054600160a060020a031916600160a060020a0385169081179091556000908152600f6020908152604091829020805460ff191690931790925587519188015188820151935491517f7d3cfca05a07773179cf217e8ffc51764c3dce48e826d85feb2b280f7674eeef94620004819493909187919062000948565b60405180910390a1949350505050565b828054600181600116156101000203166002900490600052602060002090601f016020900481019282601f10620004d457805160ff191683800117855562000504565b8280016001018555821562000504579182015b8281111562000504578251825591602001919060010190620004e7565b506200051292915062000516565b5090565b6200053391905b808211156200051257600081556001016200051d565b90565b6000620005448251620009e3565b9392505050565b6000620005448251620009ef565b600062000544825162000533565b6000601f820183136200057957600080fd5b8151620005906200058a82620009bb565b62000994565b91508082526020830160208301858383011115620005ad57600080fd5b620005ba83828462000a01565b50505092915050565b600060808284031215620005d657600080fd5b620005e2608062000994565b90506000620005f2848462000559565b8252506020620006058484830162000559565b60208301525060406200061b8482850162000559565b6040830152506060620006318482850162000559565b60608301525092915050565b600060e082840312156200065057600080fd5b6200065c60e062000994565b905060006200066c848462000559565b82525060206200067f8484830162000559565b6020830152506040620006958482850162000559565b6040830152506060620006ab8482850162000559565b6060830152506080620006c18482850162000559565b60808301525060a0620006d78482850162000559565b60a08301525060c0620006ed8482850162000559565b60c08301525092915050565b6000602082840312156200070c57600080fd5b60006200071a848462000536565b949350505050565b6000602082840312156200073557600080fd5b60006200071a84846200054b565b6000806000806000806000610200888a0312156200076057600080fd5b87516001604060020a038111156200077757600080fd5b620007858a828b0162000567565b9750506020620007988a828b016200063d565b965050610100620007ac8a828b01620005c3565b955050610180620007c08a828b0162000536565b9450506101a0620007d48a828b0162000536565b9350506101c0620007e88a828b0162000536565b9250506101e0620007fc8a828b0162000536565b91505092959891949750929550565b6200081681620009e3565b82525050565b6200081681620009f4565b601c81527f54696d6520706172616d65746572732061726520696e76616c69642e00000000602082015260400190565b805160808301906200086a8482620008af565b5060208201516200087f6020850182620008af565b506040820151620008946040850182620008af565b506060820151620008a96060850182620008af565b50505050565b620008168162000533565b6101008101620008cb82886200080b565b620008da60208301876200081c565b620008e960408301866200080b565b620008f86060830185620008af565b62000907608083018462000857565b9695505050505050565b604081016200092182856200080b565b620005446020830184620008af565b60208082528101620009428162000827565b92915050565b60a08101620009588288620008af565b620009676020830187620008af565b620009766040830186620008af565b6200098560608301856200080b565b620009076080830184620008af565b6040518181016001604060020a0381118282101715620009b357600080fd5b604052919050565b60006001604060020a03821115620009d257600080fd5b506020601f91909101601f19160190565b600160a060020a031690565b151590565b60006200094282620009e3565b60005b8381101562000a1e57818101518382015260200162000a04565b83811115620008a95750506000910152565b613b128062000a406000396000f30060806040526004361061022f5763ffffffff7c0100000000000000000000000000000000000000000000000000000000600035041663072ea61c81146102345780630befb0a51461025f57806315dc132e146102745780631865c57d146102a157806323721e24146102b6578063245edf06146102d857806324d9a0d9146102fa57806326b3a1761461031a57806328d576d71461032f57806329cc545e1461035c5780632f54bf6e146103715780632fc1f1901461039157806335a1223a146103a65780633809eba2146103c65780633ccfd60b146103e6578063447411f3146103fb5780634644c51b14610410578063509007171461043057806352c01fab14610450578063597e1fb5146104705780635ce7a46a146104855780636ec02be9146104a55780636fe56420146104ba578063785fcb09146104cf57806380258e47146104ef578063893d20e81461051157806389f3beb6146105265780638a19c8bc1461053b5780638c1fc0bb1461055e5780638c65c81f1461057e5780638da5cb5b1461059e578063943dfef1146105b3578063a968c4b9146105c8578063aa182626146105e8578063bbb16b7b14610608578063c0bb3b6014610628578063c964c0bb1461063d578063d83717e11461065d578063dbe55e561461067d578063e139a20c14610692578063e586a4f0146106b4578063ef430aa6146106c9578063f1653f6e146106de578063f2fde38b146106f3578063fc116acd14610713578063ff3c1a8f14610733575b600080fd5b34801561024057600080fd5b50610249610755565b60405161025691906138f9565b60405180910390f35b34801561026b57600080fd5b5061024961075b565b34801561028057600080fd5b5061029461028f36600461309b565b61080a565b604051610256919061370c565b3480156102ad57600080fd5b50610249610db3565b3480156102c257600080fd5b506102d66102d136600461339d565b610f2a565b005b3480156102e457600080fd5b506102ed611032565b60405161025691906138cf565b34801561030657600080fd5b506102d66103153660046131ba565b61106d565b34801561032657600080fd5b506102d66110a2565b34801561033b57600080fd5b5061034f61034a36600461301d565b611175565b60405161025691906138eb565b34801561036857600080fd5b50610294611287565b34801561037d57600080fd5b5061034f61038c36600461301d565b6112a3565b34801561039d57600080fd5b506102946112c4565b3480156103b257600080fd5b506102496103c1366004613361565b6112e0565b3480156103d257600080fd5b506102946103e13660046132e4565b6112f4565b3480156103f257600080fd5b506102d66116e8565b34801561040757600080fd5b50610249611aaf565b34801561041c57600080fd5b506102d661042b36600461301d565b611ab5565b34801561043c57600080fd5b506102d661044b366004613314565b611b17565b34801561045c57600080fd5b5061034f61046b36600461301d565b611c22565b34801561047c57600080fd5b5061034f611c4d565b34801561049157600080fd5b506102496104a0366004613361565b611c56565b3480156104b157600080fd5b50610249611c63565b3480156104c657600080fd5b50610294611c69565b3480156104db57600080fd5b506102d66104ea36600461315b565b611c85565b3480156104fb57600080fd5b50610504611e64565b6040516102569190613915565b34801561051d57600080fd5b50610294611f13565b34801561053257600080fd5b50610249611f2f565b34801561054757600080fd5b50610550611f35565b604051610256929190613956565b34801561056a57600080fd5b5061034f61057936600461301d565b612093565b34801561058a57600080fd5b50610294610599366004613361565b6120a8565b3480156105aa57600080fd5b506102946120dd565b3480156105bf57600080fd5b506102496120f9565b3480156105d457600080fd5b5061034f6105e3366004613061565b6120ff565b3480156105f457600080fd5b506102d6610603366004613361565b612240565b34801561061457600080fd5b506102d661062336600461327e565b612269565b34801561063457600080fd5b5061024961236f565b34801561064957600080fd5b506102d66106583660046132c6565b612375565b34801561066957600080fd5b506102d66106783660046131d8565b61247c565b34801561068957600080fd5b506102946124ad565b34801561069e57600080fd5b506106a76124c9565b6040516102569190613834565b3480156106c057600080fd5b5061024961254b565b3480156106d557600080fd5b50610504612551565b3480156106ea57600080fd5b506102496125df565b3480156106ff57600080fd5b506102d661070e36600461301d565b6125e5565b34801561071f57600080fd5b506102d661072e366004613214565b612672565b34801561073f57600080fd5b50610748612696565b60405161025691906138dd565b60125481565b6002546040517f70a0823100000000000000000000000000000000000000000000000000000000815260009173ffffffffffffffffffffffffffffffffffffffff16906370a08231906107b2903090600401613907565b602060405180830381600087803b1580156107cc57600080fd5b505af11580156107e0573d6000803e3d6000fd5b505050506040513d601f19601f82011682018060405250610804919081019061337f565b90505b90565b3360009081526018602052604081205481908190819060ff1680151561082f57600080fd5b6001546040517f532311c4000000000000000000000000000000000000000000000000000000008152339173ffffffffffffffffffffffffffffffffffffffff1690819063532311c49061088790859060040161370c565b602060405180830381600087803b1580156108a157600080fd5b505af11580156108b5573d6000803e3d6000fd5b505050506040513d601f19601f820116820180604052506108d991908101906131f6565b15156108e457600080fd5b60006108ee611f35565b9150600190508173ffffffffffffffffffffffffffffffffffffffff16631865c57d6040518163ffffffff167c0100000000000000000000000000000000000000000000000000000000028152600401602060405180830381600087803b15801561095857600080fd5b505af115801561096c573d6000803e3d6000fd5b505050506040513d601f19601f82011682018060405250610990919081019061337f565b141561099b57600080fd5b60026109a5610db3565b146109af57600080fd5b60015460208a01516040517f6a44e43d00000000000000000000000000000000000000000000000000000000815273ffffffffffffffffffffffffffffffffffffffff90921691636a44e43d91610a089160040161370c565b602060405180830381600087803b158015610a2257600080fd5b505af1158015610a36573d6000803e3d6000fd5b505050506040513d601f19601f82011682018060405250610a5a9190810190613043565b9650610a64611f35565b9050809650508573ffffffffffffffffffffffffffffffffffffffff16638734fe4c8d8d8d8b8e6040518663ffffffff167c0100000000000000000000000000000000000000000000000000000000028152600401610ac7959493929190613845565b602060405180830381600087803b158015610ae157600080fd5b505af1158015610af5573d6000803e3d6000fd5b505050506040513d601f19601f82011682018060405250610b199190810190613043565b6001546040517f8c593a8c00000000000000000000000000000000000000000000000000000000815291965073ffffffffffffffffffffffffffffffffffffffff1690638c593a8c90610b729088908e90600401613735565b602060405180830381600087803b158015610b8c57600080fd5b505af1158015610ba0573d6000803e3d6000fd5b505050506040513d601f19601f82011682018060405250610bc491908101906131f6565b506015541515610c7657600154600a54600480546005546006546007546008546011546012546040517fa923251e00000000000000000000000000000000000000000000000000000000815273ffffffffffffffffffffffffffffffffffffffff9a8b169a63a923251e9a610c439a9116989796959493929101613755565b600060405180830381600087803b158015610c5d57600080fd5b505af1158015610c71573d6000803e3d6000fd5b505050505b601554610c8a90600163ffffffff6126cc16565b60155560408051808201825260018082523360008181526016602081815286832080548288019081528585526017835288852073ffffffffffffffffffffffffffffffffffffffff8f81168088529185528a872099518a5460ff1916901515178a5591519888019890985592825280548087018255908452922090910180547fffffffffffffffffffffffff000000000000000000000000000000000000000016909417909355905492517fab9583d9000000000000000000000000000000000000000000000000000000008152929091169163ab9583d991610d7191899060040161371a565b600060405180830381600087803b158015610d8b57600080fd5b505af1158015610d9f573d6000803e3d6000fd5b50969e9d5050505050505050505050505050565b600080600080610dc1611f35565b601054919450925060ff1615610ddb5760035b9350610f24565b6000831115610f1f578173ffffffffffffffffffffffffffffffffffffffff16631865c57d6040518163ffffffff167c0100000000000000000000000000000000000000000000000000000000028152600401602060405180830381600087803b158015610e4857600080fd5b505af1158015610e5c573d6000803e3d6000fd5b505050506040513d601f19601f82011682018060405250610e80919081019061337f565b905060018314610ee0576001811480610e995750600281145b80610ea45750600381145b80610eaf5750600481145b15610ebb576002610dd4565b801515610ec9576001610dd4565b6005811415610ed9576003610dd4565b6004610dd4565b801515610eee576000610dd4565b6001811480610efd5750600281145b80610f085750600381145b80610f135750600481145b15610ec9576002610dd4565b600093505b50505090565b60015473ffffffffffffffffffffffffffffffffffffffff163314610f4e57600080fd5b600254600e805473ffffffffffffffffffffffffffffffffffffffff9092169163a9059cbb919085908110610f7f57fe5b6000918252602090912001546040517c010000000000000000000000000000000000000000000000000000000063ffffffff8416028152610fdb9173ffffffffffffffffffffffffffffffffffffffff16908590600401613819565b602060405180830381600087803b158015610ff557600080fd5b505af1158015611009573d6000803e3d6000fd5b505050506040513d601f19601f8201168201806040525061102d91908101906131f6565b505050565b61103a612a23565b60408051808201918290529060079060029082845b8154815260019091019060200180831161104f575050505050905090565b600a5473ffffffffffffffffffffffffffffffffffffffff16331461109157600080fd5b61109e6007826002612a3e565b5050565b336000908152600f602052604090205460ff1615156110c057600080fd5b60025473ffffffffffffffffffffffffffffffffffffffff1663a9059cbb336110e761075b565b6040518363ffffffff167c0100000000000000000000000000000000000000000000000000000000028152600401611120929190613819565b602060405180830381600087803b15801561113a57600080fd5b505af115801561114e573d6000803e3d6000fd5b505050506040513d601f19601f8201168201806040525061117291908101906131f6565b50565b60015460009073ffffffffffffffffffffffffffffffffffffffff16331461119c57600080fd5b60026111a6610db3565b146111b057600080fd5b73ffffffffffffffffffffffffffffffffffffffff821660009081526018602052604090205460ff161515600114156111eb57506000611282565b5073ffffffffffffffffffffffffffffffffffffffff81166000818152601860205260408120805460ff1916600190811782556012549181019190915560198054808301825592527f944998273e477b495144fb8794c914197f3ccb46be2900f4698fd0ef743c969590910180547fffffffffffffffffffffffff0000000000000000000000000000000000000000169092179091555b919050565b60025473ffffffffffffffffffffffffffffffffffffffff1681565b60005473ffffffffffffffffffffffffffffffffffffffff91821691161490565b60015473ffffffffffffffffffffffffffffffffffffffff1690565b600481600381106112ed57fe5b0154905081565b60008080333014806113ee5750600160009054906101000a900473ffffffffffffffffffffffffffffffffffffffff1673ffffffffffffffffffffffffffffffffffffffff1663c8ab6c876040518163ffffffff167c0100000000000000000000000000000000000000000000000000000000028152600401602060405180830381600087803b15801561138757600080fd5b505af115801561139b573d6000803e3d6000fd5b505050506040513d601f19601f820116820180604052506113bf9190810190613043565b73ffffffffffffffffffffffffffffffffffffffff163373ffffffffffffffffffffffffffffffffffffffff16145b806114085750336000908152600f602052604090205460ff165b151561141357600080fd5b84514211801590611428575060208501518551105b1515611469576040517f08c379a000000000000000000000000000000000000000000000000000000000815260040161146090613946565b60405180910390fd5b60035473ffffffffffffffffffffffffffffffffffffffff16915083151561149c57606085015160001061149c57600080fd5b600154600e546040517faf1237af00000000000000000000000000000000000000000000000000000000815273ffffffffffffffffffffffffffffffffffffffff8581169363af1237af936114fe939290911691309133918c906004016137cc565b602060405180830381600087803b15801561151857600080fd5b505af115801561152c573d6000803e3d6000fd5b505050506040513d601f19601f820116820180604052506115509190810190613043565b600e549091501561160b5760025460608601516040517fa9059cbb00000000000000000000000000000000000000000000000000000000815273ffffffffffffffffffffffffffffffffffffffff9092169163a9059cbb916115b791859190600401613819565b602060405180830381600087803b1580156115d157600080fd5b505af11580156115e5573d6000803e3d6000fd5b505050506040513d601f19601f8201168201806040525061160991908101906131f6565b505b600e8054600180820183557fbb7b4a454dc3493923482f07822329ed19e8244eff582cc204f8554c3620c3fd90910180547fffffffffffffffffffffffff00000000000000000000000000000000000000001673ffffffffffffffffffffffffffffffffffffffff85169081179091556000908152600f6020908152604091829020805460ff191690931790925587519188015188820151935491517f7d3cfca05a07773179cf217e8ffc51764c3dce48e826d85feb2b280f7674eeef946116d894939091879190613972565b60405180910390a1949350505050565b33600090815260186020526040812054819060ff1680151561170957600080fd5b6004611713610db3565b1461174a576040517f08c379a000000000000000000000000000000000000000000000000000000000815260040161146090613936565b3360009081526014602052604090205460ff161561176757600080fd5b61176f611f35565b6019546002546040517f70a082310000000000000000000000000000000000000000000000000000000081529296509094506000925073ffffffffffffffffffffffffffffffffffffffff16906370a08231906117d090879060040161370c565b602060405180830381600087803b1580156117ea57600080fd5b505af11580156117fe573d6000803e3d6000fd5b505050506040513d601f19601f82011682018060405250611822919081019061337f565b1115611987578273ffffffffffffffffffffffffffffffffffffffff166307417cf16040518163ffffffff167c0100000000000000000000000000000000000000000000000000000000028152600401600060405180830381600087803b15801561188c57600080fd5b505af11580156118a0573d6000803e3d6000fd5b50506002805460115473ffffffffffffffffffffffffffffffffffffffff909116935063a9059cbb925033916118ec916118e0908863ffffffff6126e216565b9063ffffffff6126f916565b6040518363ffffffff167c0100000000000000000000000000000000000000000000000000000000028152600401611925929190613819565b602060405180830381600087803b15801561193f57600080fd5b505af1158015611953573d6000803e3d6000fd5b505050506040513d601f19601f8201168201806040525061197791908101906131f6565b151561198257600080fd5b611a90565b60025460115473ffffffffffffffffffffffffffffffffffffffff9091169063a9059cbb9033906119fa906000198701906119ee90889082907ffffffffffffffffffffffffffffffffffffffffffffffffffffffffffffffffe830163ffffffff6126f916565b9063ffffffff6126e216565b6040518363ffffffff167c0100000000000000000000000000000000000000000000000000000000028152600401611a33929190613819565b602060405180830381600087803b158015611a4d57600080fd5b505af1158015611a61573d6000803e3d6000fd5b505050506040513d601f19601f82011682018060405250611a8591908101906131f6565b1515611a9057600080fd5b5050336000908152601460205260409020805460ff1916600117905550565b600d5481565b336000908152600f602052604090205460ff161515611ad357600080fd5b7f5fbb3d346317d5ecdb86412d4c69c7503ff4dbed1eccd4cb6290453ea0b1a3226001600e805490500382604051611b0c929190613956565b60405180910390a150565b600a54600090819073ffffffffffffffffffffffffffffffffffffffff163314611b4057600080fd5b611b48611f35565b9050809250508173ffffffffffffffffffffffffffffffffffffffff16631865c57d6040518163ffffffff167c0100000000000000000000000000000000000000000000000000000000028152600401602060405180830381600087803b158015611bb257600080fd5b505af1158015611bc6573d6000803e3d6000fd5b505050506040513d601f19601f82011682018060405250611bea919081019061337f565b905060048114611bf957600080fd5b8315611c0c57611c0761271d565b611c1b565b8215611c1b57611c1b85612375565b5050505050565b73ffffffffffffffffffffffffffffffffffffffff1660009081526018602052604090205460ff1690565b60105460ff1681565b600781600281106112ed57fe5b60155490565b60035473ffffffffffffffffffffffffffffffffffffffff1681565b600a54600090819073ffffffffffffffffffffffffffffffffffffffff163314611cae57600080fd5b611cb6611f35565b9050809250508173ffffffffffffffffffffffffffffffffffffffff16631865c57d6040518163ffffffff167c0100000000000000000000000000000000000000000000000000000000028152600401602060405180830381600087803b158015611d2057600080fd5b505af1158015611d34573d6000803e3d6000fd5b505050506040513d601f19601f82011682018060405250611d58919081019061337f565b90506003811480611d695750600481145b1515611da1576040517f08c379a000000000000000000000000000000000000000000000000000000000815260040161146090613926565b7f5ec9914f46ca24eeb7222e98b6f699b769ab33c1d88072c0651eb9bb19478ad584604051611dd09190613834565b60405180910390a16040517f14e6270400000000000000000000000000000000000000000000000000000000815273ffffffffffffffffffffffffffffffffffffffff8316906314e6270490611e2c90879087906004016138aa565b600060405180830381600087803b158015611e4657600080fd5b505af1158015611e5a573d6000803e3d6000fd5b5050505050505050565b6001546009546040517f8d1d498c00000000000000000000000000000000000000000000000000000000815260609273ffffffffffffffffffffffffffffffffffffffff1691638d1d498c91611ebd91906004016138f9565b600060405180830381600087803b158015611ed757600080fd5b505af1158015611eeb573d6000803e3d6000fd5b505050506040513d6000823e601f3d908101601f191682016040526108049190810190613249565b600a5473ffffffffffffffffffffffffffffffffffffffff1690565b60195490565b600e805460009182916000198101908110611f4c57fe5b9060005260206000200160009054906101000a900473ffffffffffffffffffffffffffffffffffffffff1673ffffffffffffffffffffffffffffffffffffffff1663c828371e6040518163ffffffff167c0100000000000000000000000000000000000000000000000000000000028152600401602060405180830381600087803b158015611fda57600080fd5b505af1158015611fee573d6000803e3d6000fd5b505050506040513d601f19601f82011682018060405250612012919081019061337f565b42101561207c57600e8054600019810191907ffffffffffffffffffffffffffffffffffffffffffffffffffffffffffffffffe810190811061205057fe5b60009182526020909120015490925073ffffffffffffffffffffffffffffffffffffffff16905061208f565b600e805490600019820182811061205057fe5b9091565b600f6020526000908152604090205460ff1681565b600e8054829081106120b657fe5b60009182526020909120015473ffffffffffffffffffffffffffffffffffffffff16905081565b600a5473ffffffffffffffffffffffffffffffffffffffff1681565b60115481565b60015460009073ffffffffffffffffffffffffffffffffffffffff16331461212657600080fd5b73ffffffffffffffffffffffffffffffffffffffff80831660009081526017602090815260408083209387168352929052205460ff16151561216757600080fd5b60155461217b90600163ffffffff6129e616565b60155573ffffffffffffffffffffffffffffffffffffffff808316600090815260166020908152604080832060178352818420948816845293909152902060010154815481106121c757fe5b6000918252602080832090910180547fffffffffffffffffffffffff000000000000000000000000000000000000000016905573ffffffffffffffffffffffffffffffffffffffff8481168352601782526040808420918716845291528120805460ff1916815560019081019190915590505b92915050565b600a5473ffffffffffffffffffffffffffffffffffffffff16331461226457600080fd5b601255565b600b805460408051602060026001851615610100026000190190941693909304601f81018490048402820184019092528181526123089361230393919290918301828280156122f95780601f106122ce576101008083540402835291602001916122f9565b820191906000526020600020905b8154815290600101906020018083116122dc57829003601f168201915b50505050506129f8565b612a1e565b151561232357815161232190600b906020850190612a7a565b505b805115612340578051600455602081015160055560408101516006555b60608101511561235b57606081015160075560808101516008555b8060c001511561109e5760a0015160125550565b60095481565b600080612380611f35565b9050809250508173ffffffffffffffffffffffffffffffffffffffff16631865c57d6040518163ffffffff167c0100000000000000000000000000000000000000000000000000000000028152600401602060405180830381600087803b1580156123ea57600080fd5b505af11580156123fe573d6000803e3d6000fd5b505050506040513d601f19601f82011682018060405250612422919081019061337f565b905060038114806124335750600481145b151561246b576040517f08c379a000000000000000000000000000000000000000000000000000000000815260040161146090613926565b6124768360006112f4565b50505050565b600a5473ffffffffffffffffffffffffffffffffffffffff1633146124a057600080fd5b61109e6004826003612ae8565b60015473ffffffffffffffffffffffffffffffffffffffff1681565b33600090815260166020908152604091829020805483518184028101840190945280845260609384939092919083018282801561253c57602002820191906000526020600020905b815473ffffffffffffffffffffffffffffffffffffffff168152600190910190602001808311612511575b505050505090508091505b5090565b60125490565b600b805460408051602060026001851615610100026000190190941693909304601f810184900484028201840190925281815292918301828280156125d75780601f106125ac576101008083540402835291602001916125d7565b820191906000526020600020905b8154815290600101906020018083116125ba57829003601f168201915b505050505081565b600c5481565b600a5473ffffffffffffffffffffffffffffffffffffffff16331461260957600080fd5b73ffffffffffffffffffffffffffffffffffffffff8116151561262b57600080fd5b600080547fffffffffffffffffffffffff00000000000000000000000000000000000000001673ffffffffffffffffffffffffffffffffffffffff92909216919091179055565b600a5473ffffffffffffffffffffffffffffffffffffffff16331461117257600080fd5b61269e612b17565b604080516060810191829052600480548252909160039060056020850180831161104f575050505050905090565b6000828201838110156126db57fe5b9392505050565b60008082848115156126f057fe5b04949350505050565b6000828202831580612715575082848281151561271257fe5b04145b15156126db57fe5b600080612728611f35565b9050809250508173ffffffffffffffffffffffffffffffffffffffff16631865c57d6040518163ffffffff167c0100000000000000000000000000000000000000000000000000000000028152600401602060405180830381600087803b15801561279257600080fd5b505af11580156127a6573d6000803e3d6000fd5b505050506040513d601f19601f820116820180604052506127ca919081019061337f565b60025490915073ffffffffffffffffffffffffffffffffffffffff1663a9059cbb836127f461075b565b6040518363ffffffff167c010000000000000000000000000000000000000000000000000000000002815260040161282d929190613819565b602060405180830381600087803b15801561284757600080fd5b505af115801561285b573d6000803e3d6000fd5b505050506040513d601f19601f8201168201806040525061287f91908101906131f6565b151561288a57600080fd5b600160009054906101000a900473ffffffffffffffffffffffffffffffffffffffff1673ffffffffffffffffffffffffffffffffffffffff1663e14feaea600e805490508473ffffffffffffffffffffffffffffffffffffffff1663f49bff7b6040518163ffffffff167c0100000000000000000000000000000000000000000000000000000000028152600401602060405180830381600087803b15801561293257600080fd5b505af1158015612946573d6000803e3d6000fd5b505050506040513d601f19601f8201168201806040525061296a919081019061337f565b6040518363ffffffff167c01000000000000000000000000000000000000000000000000000000000281526004016129a3929190613964565b600060405180830381600087803b1580156129bd57600080fd5b505af11580156129d1573d6000803e3d6000fd5b50506010805460ff1916600117905550505050565b6000828211156129f257fe5b50900390565b612a00612b36565b50604080518082019091528151815260209182019181019190915290565b511590565b60408051808201825290600290829080388339509192915050565b8260028101928215612a6e579160200282015b82811115612a6e5782518255602090920191600190910190612a51565b50612547929150612b4d565b828054600181600116156101000203166002900490600052602060002090601f016020900481019282601f10612abb57805160ff1916838001178555612a6e565b82800160010185558215612a6e579182015b82811115612a6e578251825591602001919060010190612acd565b8260038101928215612a6e5791602002820182811115612a6e5782518255602090920191600190910190612a51565b6060604051908101604052806003906020820280388339509192915050565b604080518082019091526000808252602082015290565b61080791905b808211156125475760008155600101612b53565b60006126db8235613a58565b60006126db8251613a58565b6000601f82018313612b9057600080fd5b8135612ba3612b9e826139db565b6139b4565b91508181835260208401935060208101905083856020840282011115612bc857600080fd5b60005b83811015612bf45781612bde8882612b67565b8452506020928301929190910190600101612bcb565b5050505092915050565b6000601f82018313612c0f57600080fd5b6002612c1d612b9e826139fc565b91508183856020840282011115612c3357600080fd5b60005b83811015612bf45781612c498882612db8565b8452506020928301929190910190600101612c36565b6000601f82018313612c7057600080fd5b6003612c7e612b9e826139fc565b91508183856020840282011115612c9457600080fd5b60005b83811015612bf45781612caa8882612db8565b8452506020928301929190910190600101612c97565b6000601f82018313612cd157600080fd5b8135612cdf612b9e826139db565b91508181835260208401935060208101905083856020840282011115612d0457600080fd5b60005b83811015612bf45781612d1a8882613005565b8452506020928301929190910190600101612d07565b6000601f82018313612d4157600080fd5b8135612d4f612b9e826139db565b91508181835260208401935060208101905083856020840282011115612d7457600080fd5b60005b83811015612bf45781612d8a8882612db8565b8452506020928301929190910190600101612d77565b60006126db8235613a71565b60006126db8251613a71565b60006126db8235610807565b6000601f82018313612dd557600080fd5b8135612de3612b9e82613a1a565b91508082526020830160208301858383011115612dff57600080fd5b612e0a838284613a96565b50505092915050565b6000601f82018313612e2457600080fd5b8151612e32612b9e82613a1a565b91508082526020830160208301858383011115612e4e57600080fd5b612e0a838284613aa2565b600060808284031215612e6b57600080fd5b612e7560806139b4565b90506000612e838484612db8565b8252506020612e9484848301612db8565b6020830152506040612ea884828501612db8565b6040830152506060612ebc84828501612db8565b60608301525092915050565b600060808284031215612eda57600080fd5b612ee460806139b4565b9050813567ffffffffffffffff811115612efd57600080fd5b612f0984828501612dc4565b8252506020612f1a84848301612b67565b602083015250604082013567ffffffffffffffff811115612f3a57600080fd5b612f4684828501612dc4565b6040830152506060612ebc84828501612da0565b600060e08284031215612f6c57600080fd5b612f7660e06139b4565b90506000612f848484612db8565b8252506020612f9584848301612db8565b6020830152506040612fa984828501612db8565b6040830152506060612fbd84828501612db8565b6060830152506080612fd184828501612db8565b60808301525060a0612fe584828501612db8565b60a08301525060c0612ff984828501612da0565b60c08301525092915050565b60006126db8235613a76565b60006126db8251610807565b60006020828403121561302f57600080fd5b600061303b8484612b67565b949350505050565b60006020828403121561305557600080fd5b600061303b8484612b73565b6000806040838503121561307457600080fd5b60006130808585612b67565b925050602061309185828601612b67565b9150509250929050565b600080600080608085870312156130b157600080fd5b843567ffffffffffffffff8111156130c857600080fd5b6130d487828801612b7f565b945050602085013567ffffffffffffffff8111156130f157600080fd5b6130fd87828801612cc0565b935050604085013567ffffffffffffffff81111561311a57600080fd5b61312687828801612b7f565b925050606085013567ffffffffffffffff81111561314357600080fd5b61314f87828801612ec8565b91505092959194509250565b6000806040838503121561316e57600080fd5b823567ffffffffffffffff81111561318557600080fd5b61319185828601612b7f565b925050602083013567ffffffffffffffff8111156131ae57600080fd5b61309185828601612d30565b6000604082840312156131cc57600080fd5b600061303b8484612bfe565b6000606082840312156131ea57600080fd5b600061303b8484612c5f565b60006020828403121561320857600080fd5b600061303b8484612dac565b60006020828403121561322657600080fd5b813567ffffffffffffffff81111561323d57600080fd5b61303b84828501612dc4565b60006020828403121561325b57600080fd5b815167ffffffffffffffff81111561327257600080fd5b61303b84828501612e13565b600080610100838503121561329257600080fd5b823567ffffffffffffffff8111156132a957600080fd5b6132b585828601612dc4565b925050602061309185828601612f5a565b6000608082840312156132d857600080fd5b600061303b8484612e59565b60008060a083850312156132f757600080fd5b60006133038585612e59565b925050608061309185828601612da0565b600080600060c0848603121561332957600080fd5b60006133358686612e59565b935050608061334686828701612da0565b92505060a061335786828701612da0565b9150509250925092565b60006020828403121561337357600080fd5b600061303b8484612db8565b60006020828403121561339157600080fd5b600061303b8484613011565b600080604083850312156133b057600080fd5b60006133bc8585612db8565b925050602061309185828601612db8565b6133d681613a58565b82525050565b60006133e782613a48565b8084526020840193506133f983613a42565b60005b828110156134295761340f8683516133cd565b61341882613a42565b6020969096019591506001016133fc565b5093949350505050565b61343c81613a4c565b61344582610807565b60005b82811015611c1b5761345b85835161355a565b61346482613a42565b602095909501949150600101613448565b61347e81613a52565b61348782610807565b60005b82811015611c1b5761349d85835161355a565b6134a682613a42565b60209590950194915060010161348a565b60006134c282613a48565b8084526020840193506134d483613a42565b60005b82811015613429576134ea868351613703565b6134f382613a42565b6020969096019591506001016134d7565b600061350f82613a48565b80845260208401935061352183613a42565b60005b828110156134295761353786835161355a565b61354082613a42565b602096909601959150600101613524565b6133d681613a71565b6133d681610807565b600061356e82613a48565b808452613582816020860160208601613aa2565b61358b81613ace565b9093016020019392505050565b6133d681613a8b565b603881527f526f756e64206973206e6f7420696e2072657669657720616e642077696e6e6560208201527f72732068617665206e6f74206265656e2063686f73656e2e0000000000000000604082015260600190565b601f81527f5468697320746f75726e616d656e74206973207374696c6c2076616c69642e00602082015260400190565b601c81527f54696d6520706172616d65746572732061726520696e76616c69642e00000000602082015260400190565b80516080830190613668848261355a565b50602082015161367b602085018261355a565b50604082015161368e604085018261355a565b506060820151612476606085018261355a565b80516080808452600091908401906136b98282613563565b91505060208301516136ce60208601826133cd565b50604083015184820360408601526136e68282613563565b91505060608301516136fb6060860182613551565b509392505050565b6133d681613a76565b6020810161223a82846133cd565b6040810161372882856133cd565b6126db60208301846133cd565b6040810161374382856133cd565b818103602083015261303b81846133dc565b6101008101613764828b6133cd565b613771602083018a61355a565b61377e604083018961355a565b61378b606083018861355a565b613798608083018761355a565b6137a560a083018661355a565b6137b260c083018561355a565b6137bf60e083018461355a565b9998505050505050505050565b61010081016137db82886133cd565b6137e86020830187613598565b6137f560408301866133cd565b613802606083018561355a565b61380f6080830184613657565b9695505050505050565b6040810161382782856133cd565b6126db602083018461355a565b602080825281016126db81846133dc565b60a0808252810161385681886133dc565b9050818103602083015261386a81876134b7565b9050818103604083015261387e81866133dc565b905061388d60608301856133cd565b818103608083015261389f81846136a1565b979650505050505050565b604080825281016138bb81856133dc565b9050818103602083015261303b8184613504565b6040810161223a8284613433565b6060810161223a8284613475565b6020810161223a8284613551565b6020810161223a828461355a565b6020810161223a8284613598565b602080825281016126db8184613563565b6020808252810161223a816135a1565b6020808252810161223a816135f7565b6020808252810161223a81613627565b60408101613728828561355a565b60408101613827828561355a565b60a08101613980828861355a565b61398d602083018761355a565b61399a604083018661355a565b6139a760608301856133cd565b61380f608083018461355a565b60405181810167ffffffffffffffff811182821017156139d357600080fd5b604052919050565b600067ffffffffffffffff8211156139f257600080fd5b5060209081020190565b600067ffffffffffffffff821115613a1357600080fd5b5060200290565b600067ffffffffffffffff821115613a3157600080fd5b506020601f91909101601f19160190565b60200190565b5190565b50600290565b50600390565b73ffffffffffffffffffffffffffffffffffffffff1690565b151590565b6fffffffffffffffffffffffffffffffff1690565b600061223a82613a58565b82818337506000910152565b60005b83811015613abd578181015183820152602001613aa5565b838111156124765750506000910152565b601f01601f1916905600a265627a7a7230582043e4faad45a370002d7e2bad8a96de2aba6270ef91728e5745e2b27bb6135de96c6578706572696d656e74616cf50037",
  "source": " pragma solidity ^0.4.18;\n pragma experimental ABIEncoderV2;\n\nimport \"../libraries/strings/strings.sol\";\nimport \"../libraries/math/SafeMath.sol\";\nimport \"../libraries/LibConstruction.sol\";\nimport \"../interfaces/IMatryxPlatform.sol\";\nimport \"../interfaces/IMatryxTournament.sol\";\nimport \"../interfaces/factories/IMatryxRoundFactory.sol\";\nimport \"../interfaces/IMatryxRound.sol\";\nimport \"../interfaces/IMatryxToken.sol\";\nimport \"./Ownable.sol\";\n\n/// @title Tournament - The Matryx tournament.\n/// @author Max Howard - <max@nanome.ai>, Sam Hessenauer - <sam@nanome.ai>\ncontract MatryxTournament is Ownable, IMatryxTournament {\n    using SafeMath for uint256;\n    using strings for *;\n    \n    // TODO: condense and put in structs\n    // Platform identification\n    address public platformAddress;\n    address public matryxTokenAddress;\n    address public matryxRoundFactoryAddress;\n\n    //Tournament identification\n    bytes32[3] public title;\n    bytes32[2] public descriptionHash;\n    bytes32 public categoryHash;\n    address public owner;\n    string public category;\n    // Timing and State\n    uint256 public timeCreated;\n    uint256 public tournamentOpenedTime;\n    address[] public rounds;\n    mapping(address=>bool) public isRound;\n    bool public closed;\n    // Reward and fee\n    uint256 public bounty;\n    uint256 public entryFee;\n    bool hasBeenWithdrawnFrom;\n    mapping(address=>bool) hasWithdrawn;\n\n    // address roundDelegate;\n    // bytes4 fnSelector_chooseWinner = bytes4(keccak256(\"chooseWinner(address)\"));\n    // bytes4 fnSelector_createRound = bytes4(keccak256(\"createRound(uint256)\"));\n    // bytes4 fnSelector_startRound = bytes4(keccak256(\"startRound(uint256)\"));\n\n    // Submission tracking\n    uint256 numberOfSubmissions = 0;\n    mapping(address=>address[]) private entrantToSubmissions;\n    mapping(address=>mapping(address=>uint256_optional)) private entrantToSubmissionToSubmissionIndex;\n    mapping(address=>uint256_optional) private addressToIsEntrant;\n    address[] private allEntrants;\n    bool winnersChosen;\n\n    constructor(string _category, LibConstruction.TournamentData tournamentData, LibConstruction.RoundData roundData, address _platformAddress, address _matryxTokenAddress, address _matryxRoundFactoryAddress, address _owner) \n    {\n        //Clean inputs\n        //require(_owner != 0x0);\n        //require(tournamentData.title[0] != 0x0);\n        //require(tournamentData.Bounty > 0);\n        //require(_matryxRoundFactoryAddress != 0x0);\n        \n        platformAddress = _platformAddress;\n        matryxTokenAddress = _matryxTokenAddress;\n        matryxRoundFactoryAddress = _matryxRoundFactoryAddress;\n\n        timeCreated = now;\n        // Identification\n        owner = _owner;\n        category = _category;\n        title[0] = tournamentData.title_1;\n        title[1] = tournamentData.title_2;\n        title[2] = tournamentData.title_3;\n        descriptionHash[0] = tournamentData.descriptionHash_1;\n        descriptionHash[1] = tournamentData.descriptionHash_2;\n        // Reward and fee\n        bounty = tournamentData.bounty;\n        entryFee = tournamentData.entryFee;\n\n        createRound(roundData, false);\n        // roundDelegate = IMatryxPlatform(platformAddress).getRoundLibAddress();\n    }\n\n    /*\n     * Structs\n     */\n\n    struct uint256_optional\n    {\n        bool exists;\n        uint256 value;\n    }\n\n    struct SubmissionLocation\n    {\n        uint256 roundIndex;\n        uint256 submissionIndex;\n    }\n\n    /*\n     * Events\n     */\n\n    event NewRound(uint256 _startTime, uint256 _endTime, uint256 _reviewDuration, address _roundAddress, uint256 _roundNumber);\n    //event RoundStarted(uint256 _roundIndex);\n    // Fired at the end of every round, one time per submission created in that round\n    event SubmissionCreated(uint256 _roundIndex, address _submissionAddress);\n    event RoundWinnersChosen(address[] _submissionAddresses);\n\n    /// @dev Allows rounds to invoke SubmissionCreated events on this tournament.\n    /// @param _submissionAddress Address of the submission.\n    function invokeSubmissionCreatedEvent(address _submissionAddress) public onlyRound\n    {\n        emit SubmissionCreated(rounds.length-1, _submissionAddress);\n    }\n\n    /*\n     * Modifiers\n     */\n\n    /// @dev Requires the function caller to be the platform.\n    modifier onlyPlatform()\n    {\n        require(msg.sender == platformAddress);\n        _;\n    }\n\n    modifier onlyRound()\n    {\n        require(isRound[msg.sender]);\n        _;\n    }\n\n    // modifier onlySubmission(address _submissionAddress, address _author)\n    // {\n    //     // If the submission does not exist,\n    //     // the address of the submission we return will not be msg.sender\n    //     // It will either be \n    //     // 1) The first submission, or\n    //     // 2) all 0s from having deleted it previously.\n    //     uint256 indexOfSubmission = entrantToSubmissionToSubmissionIndex[_author][_submissionAddress].value;\n    //     address submissionAddress = entrantToSubmissions[_author][indexOfSubmission];\n    //     require(_submissionAddress == msg.sender);\n    //     _;\n    // }\n\n    modifier onlyPeerLinked(address _sender)\n    {\n        IMatryxPlatform platform = IMatryxPlatform(platformAddress);\n        require(platform.hasPeer(_sender));\n        _;\n    }\n\n    /// @dev Requires the function caller to be an entrant.\n    modifier onlyEntrant()\n    {\n        bool senderIsEntrant = addressToIsEntrant[msg.sender].exists;\n        require(senderIsEntrant);\n        _;\n    }\n\n    /// @dev Requires the function caller to be the platform or the owner of this tournament\n    modifier platformOrOwner()\n    {\n        require((msg.sender == platformAddress)||(msg.sender == owner));\n        _;\n    }\n\n    modifier whileTournamentOpen()\n    {\n        require(getState() == uint256(TournamentState.Open));\n        _;\n    }\n\n    modifier ifRoundHasFunds()\n    {\n        // require((IMatryxRound(currentRound()[1]).getState()) != uint256(RoundState.Unfunded));\n        address currentRoundAddress;\n\n        (,currentRoundAddress) = currentRound();\n        require(IMatryxRound(currentRoundAddress).getState() != uint256(RoundState.Unfunded));\n        _;\n    }\n\n    modifier onlyOwner()\n    {\n        require(msg.sender == owner);\n        _;\n    }\n\n    // /// @dev Requires the tournament to be open.\n    // modifier duringReviewPeriod()\n    // {\n    //     // TODO: Finish me!\n    //     require(isInReview());\n    //     _;\n    // }\n\n    // TODO: Use MatryxToken\n    // modifier whileBountyLeft(uint256 _nextRoundBounty)\n    // {\n    //     require(BountyLeft.sub(_nextRoundBounty) >= 0);\n    //     _;\n    // }\n\n    /*\n    * State Maintenance Methods\n    */\n\n    function removeSubmission(address _submissionAddress, address _author) public onlyPlatform returns (bool)\n    {\n        require(entrantToSubmissionToSubmissionIndex[_author][_submissionAddress].exists);\n        numberOfSubmissions = numberOfSubmissions.sub(1);\n        delete entrantToSubmissions[_author][entrantToSubmissionToSubmissionIndex[_author][_submissionAddress].value];\n        delete entrantToSubmissionToSubmissionIndex[_author][_submissionAddress];\n        return true;\n    }\n\n    /*\n     * Access Control Methods\n     */\n\n    /// @dev Returns whether or not the sender is an entrant in this tournament\n    /// @param _sender Explicit sender address.\n    /// @return Whether or not the sender is an entrant in this tournament.\n    function isEntrant(address _sender) public view returns (bool)\n    {\n        return addressToIsEntrant[_sender].exists;\n    }\n\n    enum RoundState { NotYetOpen, Unfunded, Open, InReview, HasWinners, Closed, Abandoned }\n    enum TournamentState { NotYetOpen, OnHold, Open, Closed, Abandoned}\n    /// @dev Returns the state of the tournament. One of:\n    /// NotYetOpen, Open, Closed, Abandoned\n    function getState() public view returns (uint256)\n    {\n        uint256 numberOfRounds;\n        address roundAddress;\n        (numberOfRounds, roundAddress) = currentRound();\n\n        if(closed)\n        {\n            return uint256(TournamentState.Closed);\n        }\n        else if(numberOfRounds > 0)\n        {\n            uint256 roundState = IMatryxRound(roundAddress).getState();\n            if(numberOfRounds != 1)\n            {\n                if(roundState == uint256(RoundState.Unfunded) || roundState == uint256(RoundState.Open) || roundState == uint256(RoundState.InReview)\n                    || roundState == uint256(RoundState.HasWinners))\n                {\n                    return uint256(TournamentState.Open);\n                }\n                else if(roundState == uint256(RoundState.NotYetOpen))\n                {\n                    return uint256(TournamentState.OnHold);\n                }\n                else if(roundState == uint256(RoundState.Closed))\n                {\n                    return uint256(TournamentState.Closed);\n                }\n                else\n                {\n                    return uint256(TournamentState.Abandoned);\n                }\n            }\n            else if(roundState == uint256(RoundState.NotYetOpen))\n            {\n                return uint256(TournamentState.NotYetOpen);\n            }\n            else if(roundState == uint256(RoundState.Unfunded) || roundState == uint256(RoundState.Open) || roundState == uint256(RoundState.InReview)\n                    || roundState == uint256(RoundState.HasWinners))\n            {\n                return uint256(TournamentState.Open);\n            }\n            else if(roundState == uint256(RoundState.Closed))\n            {\n                return uint256(TournamentState.Closed);\n            }\n            else\n            {\n                return uint256(TournamentState.Abandoned);\n            }\n        }\n        \n        return 0;\n    }\n\n    /*\n     * Getter Methods\n     */\n\n    function getPlatform() public view returns (address _platformAddress)\n    {\n        return platformAddress;\n    }\n\n    function getTitle() public view returns (bytes32[3] _title)\n    {\n        return title;\n    }\n\n    function getCategory() public view returns (string _category)\n    {\n        return IMatryxPlatform(platformAddress).hashForCategory(categoryHash);\n    }\n\n    function getOwner() public view returns (address _owner)\n    {\n        return owner;\n    }\n\n    /// @dev Returns the external address of the tournament.\n    /// @return _descriptionHash Off-chain content hash of tournament details (ipfs hash)\n    function getDescriptionHash() public view returns (bytes32[2] _descriptionHash)\n    {\n        return descriptionHash;\n    }\n\n    /// @dev Returns the current round number.\n    /// @return _currentRound Number of the current round.\n    function currentRound() public view returns (uint256 _currentRound, address _currentRoundAddress)\n    {\n        if(now < IMatryxRound(rounds[rounds.length-1]).getStartTime())\n        {\n            return (rounds.length-1, rounds[rounds.length-2]);\n        }\n        else\n        {\n            return (rounds.length, rounds[rounds.length-1]);\n        }   \n    }\n\n    /// @dev Returns all of the sender's submissions to this tournament.\n    /// @return (_roundIndices[], _submissionIndices[]) Locations of the sender's submissions.\n    function mySubmissions() public view returns (address[])\n    {\n        address[] memory _mySubmissions = entrantToSubmissions[msg.sender];\n        return _mySubmissions;\n    }\n\n    /// @dev Returns the number of submissions made to this tournament.\n    /// @return _submissionCount Number of submissions made to this tournament.\n    function submissionCount() public view returns (uint256 _submissionCount)\n    {\n        return numberOfSubmissions;\n    }\n\n    function entrantCount() public view returns (uint256 _entrantCount)\n    {\n        return allEntrants.length;\n    }\n\n    /*\n     * Setter Methods\n     */\n\n    function update(string _category, LibConstruction.TournamentModificationData tournamentData)\n    {\n        // TODO: Update the category on the platform\n        if(category.toSlice().empty() == false)\n        {\n            category = _category;\n        }\n        if(tournamentData.title_1 != 0x0)\n        {\n            title[0] = tournamentData.title_1;\n            title[1] = tournamentData.title_2;\n            title[2] = tournamentData.title_3;\n        }\n        if(tournamentData.descriptionHash_1 != 0x0)\n        {\n            descriptionHash[0] = tournamentData.descriptionHash_1;\n            descriptionHash[1] = tournamentData.descriptionHash_2;\n        }\n        if(tournamentData.entryFeeChanged)\n        {\n            entryFee = tournamentData.entryFee;\n        }\n    }\n\n    function updateTitle(bytes32[3] _title) public onlyOwner\n    {\n        title = _title;\n    }\n\n    function updateDescriptionHash(bytes32[2] _descriptionHash) public onlyOwner\n    {\n        descriptionHash = _descriptionHash;\n    }\n\n    function updateEntryFee(uint256 _entryFee) public onlyOwner\n    {\n        entryFee = _entryFee;\n    }\n\n    function updateCategory(string _category) public onlyOwner\n    {\n        // if(!category.toSlice().empty())\n        // {\n        //     revert();\n        // }\n        // revert();\n        // category = _category;\n    }\n\n    /*\n     * Tournament Admin Methods\n     */\n\n    /// @dev Chooses the winner(s) of the current round. If this is the last round, \n    //       this method will also close the tournament.\n    /// @param _submissionAddresses The winning submission addresses\n    /// @param _rewardDistribution Distribution indicating how to split the reward among the submissions\n    function selectWinners(address[] _submissionAddresses, uint256[] _rewardDistribution) public onlyOwner\n    {\n        // TODO: \n        // If no round data provided:\n        //          If closeTournament is false:\n        //               Simply select the winners. If afterward the user calls nextRound, great, create a new round. ()\n        //               If the user doesn't, the tournament will close automatically at the end of the review period. (~)\n        //          If closeTournament is true:\n        //               Close the tournament with the given winners ()\n        // If round data is provided and the tournament has funds:\n        //     Make sure the tournament goes to next round immediately ()\n\n        // Round must be in review to close\n        address currentRoundAddress;\n        (, currentRoundAddress) = currentRound();\n        uint256 roundState = uint256(IMatryxRound(currentRoundAddress).getState());\n        require(roundState == uint256(RoundState.InReview) || roundState == uint256(RoundState.HasWinners), \"Round is not in review and winners have not been chosen.\");\n\n        // Event to notify web3 of the winning submission address\n        emit RoundWinnersChosen(_submissionAddresses);\n        IMatryxRound(currentRoundAddress).selectWinningSubmissions(_submissionAddresses, _rewardDistribution);\n    }\n\n    //Manually close round and start the next one, or close tournament and don't start a new round\n    function endReviewPeriod(LibConstruction.RoundData roundData, bool _closeTournament, bool _closeRound) public onlyOwner\n    {\n        address currentRoundAddress;\n        (, currentRoundAddress) = currentRound();\n        uint256 roundState = uint256(IMatryxRound(currentRoundAddress).getState());\n        require(roundState == uint256(RoundState.HasWinners));\n        if(_closeTournament)\n        {\n            closeTournament();\n        }\n        else if (_closeRound)\n        {\n            nextRound(roundData);\n        }\n    }\n\n    // @dev Chooses the winner of the tournament.\n    function closeTournament() private\n    {\n        address currentRoundAddress;\n        (, currentRoundAddress) = currentRound();\n        uint256 roundState = uint256(IMatryxRound(currentRoundAddress).getState());\n        //Transfer the remaining MTX in the tournament to the current round\n        require(IMatryxToken(matryxTokenAddress).transfer(currentRoundAddress, remainingBounty()));\n        IMatryxPlatform(platformAddress).invokeTournamentClosedEvent(rounds.length, IMatryxRound(currentRoundAddress).getBounty());\n        \n        closed = true;\n    }\n\n    function nextRound(LibConstruction.RoundData roundData) public\n    {\n        address currentRoundAddress;\n        (, currentRoundAddress) = currentRound();\n        uint256 roundState = uint256(IMatryxRound(currentRoundAddress).getState());\n        require(roundState == uint256(RoundState.InReview) || roundState == uint256(RoundState.HasWinners), \"Round is not in review and winners have not been chosen.\");\n\n        createRound(roundData, false);\n    }\n\n    /// @dev Creates a new round.\n    /// @return The new round's address.\n    function createRound(LibConstruction.RoundData roundData, bool _automaticCreation) public returns (address _roundAddress)\n    {\n        // only this, the tournamentFactory or rounds can call createRound\n        require(msg.sender == address(this) || msg.sender == IMatryxPlatform(platformAddress).getTournamentFactoryAddress() || isRound[msg.sender]);\n        require((roundData.start >= now && roundData.start < roundData.end), \"Time parameters are invalid.\");\n\n        IMatryxRoundFactory roundFactory = IMatryxRoundFactory(matryxRoundFactoryAddress);\n        address newRoundAddress;\n\n        if(_automaticCreation == false)\n        {\n            require(roundData.bounty > 0);\n        }\n\n        newRoundAddress = roundFactory.createRound(platformAddress, this, msg.sender, rounds.length, roundData);\n        \n        // Transfer the round bounty to the round.\n        if(rounds.length != 0)\n        {\n            IMatryxToken(matryxTokenAddress).transfer(newRoundAddress, roundData.bounty);\n        }\n \n        rounds.push(newRoundAddress);\n        isRound[newRoundAddress] = true;\n\n        // Triggers Event displaying start time, end, address, and round number\n        emit NewRound(roundData.start, roundData.end, roundData.reviewDuration, newRoundAddress, rounds.length);\n\n        return newRoundAddress;\n    }\n\n    function sendBountyToRound(uint256 _roundIndex, uint256 _bountyMTX) public onlyPlatform\n    {\n        IMatryxToken(matryxTokenAddress).transfer(rounds[_roundIndex], _bountyMTX);\n    }\n\n    // @dev Returns the remaining bounty the tournament is able to award\n    function remainingBounty() public view returns (uint256)\n    {\n        return IMatryxToken(matryxTokenAddress).balanceOf(this);\n    }\n\n    /*\n     * Entrant Methods\n     */\n\n    /// @dev Enters the user into the tournament.\n    /// @param _entrantAddress Address of the user to enter.\n    /// @return success Whether or not the user was entered successfully.\n    function enterUserInTournament(address _entrantAddress) public onlyPlatform whileTournamentOpen returns (bool _success)\n    {\n        if(addressToIsEntrant[_entrantAddress].exists == true)\n        {\n            return false;\n        }\n\n        // Change the tournament's state to reflect the user entering.\n        addressToIsEntrant[_entrantAddress].exists = true;\n        addressToIsEntrant[_entrantAddress].value = entryFee;\n        allEntrants.push(_entrantAddress);\n\n        return true;\n    }\n\n    /// @dev Returns the fee in MTX to be payed by a prospective entrant.\n    /// @return Entry fee for this tournament.\n    function getEntryFee() public view returns (uint256)\n    {\n        return entryFee;\n    }\n\n    // function collectEntryFee() public returns (bool)\n    // {\n    //     IMatryxToken matryxToken = IMatryxToken(matryxTokenAddress);\n    //     bool success = matryxToken.transfer(msg.sender, addressToIsEntrant[msg.sender].value);\n    //     if(success)\n    //     {\n    //         addressToIsEntrant[msg.sender].value = 0;\n    //         return true;\n    //     }\n\n    //     return false;\n    // }\n\n    function createSubmission(address[] _contributors, uint128[] _contributorRewardDistribution, address[] _references, LibConstruction.SubmissionData submissionData) public onlyEntrant onlyPeerLinked(msg.sender) ifRoundHasFunds whileTournamentOpen returns (address _submissionAddress)\n    {\n        address peerAddress = IMatryxPlatform(platformAddress).peerAddress(submissionData.owner);\n\n        address currentRoundAddress;\n        (, currentRoundAddress) = currentRound();\n        address submissionAddress = IMatryxRound(currentRoundAddress).createSubmission(_contributors, _contributorRewardDistribution, _references, peerAddress, submissionData);\n        // Send out reference requests to the authors of other submissions\n        IMatryxPlatform(platformAddress).handleReferenceRequestsForSubmission(submissionAddress, _references);\n\n        if(numberOfSubmissions == 0)\n        {\n            IMatryxPlatform(platformAddress).invokeTournamentOpenedEvent(owner, title[0], title[1], title[2], descriptionHash[0], descriptionHash[1], bounty, entryFee);\n        }\n\n        numberOfSubmissions = numberOfSubmissions.add(1);\n        entrantToSubmissionToSubmissionIndex[msg.sender][submissionAddress] = uint256_optional({exists:true, value:entrantToSubmissions[msg.sender].length});\n        entrantToSubmissions[msg.sender].push(submissionAddress);\n        IMatryxPlatform(platformAddress).updateSubmissions(msg.sender, submissionAddress);\n        \n        return submissionAddress;\n    }\n\n\n    function withdraw() public onlyEntrant\n    {\n        require(getState() == uint256(TournamentState.Abandoned), \"This tournament is still valid.\");\n        require(!hasWithdrawn[msg.sender]);\n        address currentRoundAddress;\n        (, currentRoundAddress) = currentRound();\n        uint256 entrantCount = allEntrants.length;\n        // If this is the first withdrawal being made...\n        if(IMatryxToken(matryxTokenAddress).balanceOf(currentRoundAddress) > 0)\n        {\n            IMatryxRound(currentRoundAddress).transferBountyToTournament();\n            require(IMatryxToken(matryxTokenAddress).transfer(msg.sender, bounty.div(entrantCount).mul(2)));\n        }\n        else\n        {\n            require(IMatryxToken(matryxTokenAddress).transfer(msg.sender, bounty.mul(entrantCount-2).div(entrantCount).div(entrantCount-1)));\n        }\n\n        hasWithdrawn[msg.sender] = true;\n    }\n\n    function pullRemainingBountyIntoRound() public onlyRound\n    {\n        IMatryxToken(matryxTokenAddress).transfer(msg.sender, remainingBounty());\n    }\n}",
  "sourcePath": "/Users/maxhoward/Desktop/Ethereum/Development/Matryx/Projects/MatryxPlatform/contracts/MatryxTournament.sol",
  "compiler": {
    "name": "solc",
    "version": "0.4.24+commit.e67f0147.Emscripten.clang"
  },
  "schemaVersion": "2.0.0",
  "updatedAt": "2018-06-28T19:36:40.981Z"
}