{
  "contractName": "MatryxPlatform",
  "abi": [
    {
      "constant": true,
      "inputs": [],
      "name": "matryxTournamentFactoryAddress",
      "outputs": [
        {
          "name": "",
          "type": "address"
        }
      ],
      "payable": false,
      "stateMutability": "view",
      "type": "function"
    },
    {
      "constant": true,
      "inputs": [],
      "name": "matryxTokenAddress",
      "outputs": [
        {
          "name": "",
          "type": "address"
        }
      ],
      "payable": false,
      "stateMutability": "view",
      "type": "function"
    },
    {
      "constant": true,
      "inputs": [
        {
          "name": "_sender",
          "type": "address"
        }
      ],
      "name": "isOwner",
      "outputs": [
        {
          "name": "_isOwner",
          "type": "bool"
        }
      ],
      "payable": false,
      "stateMutability": "view",
      "type": "function"
    },
    {
      "constant": true,
      "inputs": [
        {
          "name": "",
          "type": "address"
        }
      ],
      "name": "peerExists",
      "outputs": [
        {
          "name": "",
          "type": "bool"
        }
      ],
      "payable": false,
      "stateMutability": "view",
      "type": "function"
    },
    {
      "constant": true,
      "inputs": [],
      "name": "getOwner",
      "outputs": [
        {
          "name": "_owner",
          "type": "address"
        }
      ],
      "payable": false,
      "stateMutability": "view",
      "type": "function"
    },
    {
      "constant": true,
      "inputs": [],
      "name": "matryxRoundLibAddress",
      "outputs": [
        {
          "name": "",
          "type": "address"
        }
      ],
      "payable": false,
      "stateMutability": "view",
      "type": "function"
    },
    {
      "constant": true,
      "inputs": [],
      "name": "owner",
      "outputs": [
        {
          "name": "",
          "type": "address"
        }
      ],
      "payable": false,
      "stateMutability": "view",
      "type": "function"
    },
    {
      "constant": true,
      "inputs": [
        {
          "name": "",
          "type": "address"
        }
      ],
      "name": "ownerToPeerAndPeerToOwner",
      "outputs": [
        {
          "name": "",
          "type": "address"
        }
      ],
      "payable": false,
      "stateMutability": "view",
      "type": "function"
    },
    {
      "constant": true,
      "inputs": [],
      "name": "matryxPeerFactoryAddress",
      "outputs": [
        {
          "name": "",
          "type": "address"
        }
      ],
      "payable": false,
      "stateMutability": "view",
      "type": "function"
    },
    {
      "constant": true,
      "inputs": [],
      "name": "matryxSubmissionFactoryAddress",
      "outputs": [
        {
          "name": "",
          "type": "address"
        }
      ],
      "payable": false,
      "stateMutability": "view",
      "type": "function"
    },
    {
      "constant": true,
      "inputs": [],
      "name": "matryxSubmissionTrustLibAddress",
      "outputs": [
        {
          "name": "",
          "type": "address"
        }
      ],
      "payable": false,
      "stateMutability": "view",
      "type": "function"
    },
    {
      "constant": true,
      "inputs": [
        {
          "name": "",
          "type": "uint256"
        }
      ],
      "name": "categoryList",
      "outputs": [
        {
          "name": "",
          "type": "string"
        }
      ],
      "payable": false,
      "stateMutability": "view",
      "type": "function"
    },
    {
      "constant": true,
      "inputs": [
        {
          "name": "",
          "type": "uint256"
        }
      ],
      "name": "allTournaments",
      "outputs": [
        {
          "name": "",
          "type": "address"
        }
      ],
      "payable": false,
      "stateMutability": "view",
      "type": "function"
    },
    {
      "constant": false,
      "inputs": [
        {
          "name": "newOwner",
          "type": "address"
        }
      ],
      "name": "transferOwnership",
      "outputs": [],
      "payable": false,
      "stateMutability": "nonpayable",
      "type": "function"
    },
    {
      "inputs": [
        {
          "name": "_matryxTokenAddress",
          "type": "address"
        },
        {
          "name": "_matryxPeerFactoryAddress",
          "type": "address"
        },
        {
          "name": "_matryxTournamentFactoryAddress",
          "type": "address"
        },
        {
          "name": "_matryxSubmissionFactoryAddress",
          "type": "address"
        },
        {
          "name": "_matryxSubmissionTrustLibAddress",
          "type": "address"
        }
      ],
      "payable": false,
      "stateMutability": "nonpayable",
      "type": "constructor"
    },
    {
      "anonymous": false,
      "inputs": [
        {
          "indexed": false,
          "name": "_discipline",
          "type": "string"
        },
        {
          "indexed": false,
          "name": "_owner",
          "type": "address"
        },
        {
          "indexed": false,
          "name": "_tournamentAddress",
          "type": "address"
        },
        {
          "indexed": false,
          "name": "_tournamentName_1",
          "type": "bytes32"
        },
        {
          "indexed": false,
          "name": "_tournamentName_2",
          "type": "bytes32"
        },
        {
          "indexed": false,
          "name": "_tournamentName_3",
          "type": "bytes32"
        },
        {
          "indexed": false,
          "name": "_externalAddress_1",
          "type": "bytes32"
        },
        {
          "indexed": false,
          "name": "_externalAddress_2",
          "type": "bytes32"
        },
        {
          "indexed": false,
          "name": "_MTXReward",
          "type": "uint256"
        },
        {
          "indexed": false,
          "name": "_entryFee",
          "type": "uint256"
        }
      ],
      "name": "TournamentCreated",
      "type": "event"
    },
    {
      "anonymous": false,
      "inputs": [
        {
          "indexed": false,
          "name": "_owner",
          "type": "address"
        },
        {
          "indexed": false,
          "name": "_tournamentAddress",
          "type": "address"
        },
        {
          "indexed": false,
          "name": "_tournamentName_1",
          "type": "bytes32"
        },
        {
          "indexed": false,
          "name": "_tournamentName_2",
          "type": "bytes32"
        },
        {
          "indexed": false,
          "name": "_tournamentName_3",
          "type": "bytes32"
        },
        {
          "indexed": false,
          "name": "_externalAddress_1",
          "type": "bytes32"
        },
        {
          "indexed": false,
          "name": "_externalAddress_2",
          "type": "bytes32"
        },
        {
          "indexed": false,
          "name": "_MTXReward",
          "type": "uint256"
        },
        {
          "indexed": false,
          "name": "_entryFee",
          "type": "uint256"
        }
      ],
      "name": "TournamentOpened",
      "type": "event"
    },
    {
      "anonymous": false,
      "inputs": [
        {
          "indexed": false,
          "name": "_tournamentAddress",
          "type": "address"
        },
        {
          "indexed": false,
          "name": "_finalRoundNumber",
          "type": "uint256"
        },
        {
          "indexed": false,
          "name": "_MTXReward",
          "type": "uint256"
        }
      ],
      "name": "TournamentClosed",
      "type": "event"
    },
    {
      "anonymous": false,
      "inputs": [
        {
          "indexed": false,
          "name": "_entrant",
          "type": "address"
        },
        {
          "indexed": false,
          "name": "_tournamentAddress",
          "type": "address"
        }
      ],
      "name": "UserEnteredTournament",
      "type": "event"
    },
    {
      "anonymous": false,
      "inputs": [
        {
          "indexed": false,
          "name": "queryID",
          "type": "string"
        }
      ],
      "name": "QueryID",
      "type": "event"
    },
    {
      "anonymous": false,
      "inputs": [
        {
          "indexed": false,
          "name": "time",
          "type": "uint256"
        }
      ],
      "name": "TimeStamp",
      "type": "event"
    },
    {
      "constant": false,
      "inputs": [
        {
          "name": "_owner",
          "type": "address"
        },
        {
          "name": "_tournamentName_1",
          "type": "bytes32"
        },
        {
          "name": "_tournamentName_2",
          "type": "bytes32"
        },
        {
          "name": "_tournamentName_3",
          "type": "bytes32"
        },
        {
          "name": "_externalAddress_1",
          "type": "bytes32"
        },
        {
          "name": "_externalAddress_2",
          "type": "bytes32"
        },
        {
          "name": "_MTXReward",
          "type": "uint256"
        },
        {
          "name": "_entryFee",
          "type": "uint256"
        }
      ],
      "name": "invokeTournamentOpenedEvent",
      "outputs": [],
      "payable": false,
      "stateMutability": "nonpayable",
      "type": "function"
    },
    {
      "constant": false,
      "inputs": [
        {
          "name": "_finalRoundNumber",
          "type": "uint256"
        },
        {
          "name": "_MTXReward",
          "type": "uint256"
        }
      ],
      "name": "invokeTournamentClosedEvent",
      "outputs": [],
      "payable": false,
      "stateMutability": "nonpayable",
      "type": "function"
    },
    {
      "constant": false,
      "inputs": [
        {
          "name": "_submissionAddress",
          "type": "address"
        },
        {
          "name": "_references",
          "type": "address[]"
        }
      ],
      "name": "handleReferenceRequestsForSubmission",
      "outputs": [
        {
          "name": "",
          "type": "bool"
        }
      ],
      "payable": false,
      "stateMutability": "nonpayable",
      "type": "function"
    },
    {
      "constant": false,
      "inputs": [
        {
          "name": "_reference",
          "type": "address"
        }
      ],
      "name": "handleReferenceRequestForSubmission",
      "outputs": [
        {
          "name": "",
          "type": "bool"
        }
      ],
      "payable": false,
      "stateMutability": "nonpayable",
      "type": "function"
    },
    {
      "constant": false,
      "inputs": [
        {
          "name": "_reference",
          "type": "address"
        }
      ],
      "name": "handleCancelledReferenceRequestForSubmission",
      "outputs": [
        {
          "name": "",
          "type": "bool"
        }
      ],
      "payable": false,
      "stateMutability": "nonpayable",
      "type": "function"
    },
    {
      "constant": false,
      "inputs": [
        {
          "name": "_owner",
          "type": "address"
        },
        {
          "name": "_submission",
          "type": "address"
        }
      ],
      "name": "updateSubmissions",
      "outputs": [],
      "payable": false,
      "stateMutability": "nonpayable",
      "type": "function"
    },
    {
      "constant": false,
      "inputs": [
        {
          "name": "_submissionAddress",
          "type": "address"
        },
        {
          "name": "_tournamentAddress",
          "type": "address"
        }
      ],
      "name": "removeSubmission",
      "outputs": [
        {
          "name": "",
          "type": "bool"
        }
      ],
      "payable": false,
      "stateMutability": "nonpayable",
      "type": "function"
    },
    {
      "constant": false,
      "inputs": [
        {
          "name": "_tournamentAddress",
          "type": "address"
        },
        {
          "name": "_category",
          "type": "string"
        }
      ],
      "name": "addTournamentToCategory",
      "outputs": [],
      "payable": false,
      "stateMutability": "nonpayable",
      "type": "function"
    },
    {
      "constant": false,
      "inputs": [
        {
          "name": "_tournamentAddress",
          "type": "address"
        },
        {
          "name": "_category",
          "type": "string"
        }
      ],
      "name": "removeTournamentFromCategory",
      "outputs": [],
      "payable": false,
      "stateMutability": "nonpayable",
      "type": "function"
    },
    {
      "constant": false,
      "inputs": [
        {
          "name": "_tournamentAddress",
          "type": "address"
        },
        {
          "name": "_oldCategory",
          "type": "string"
        },
        {
          "name": "_newCategory",
          "type": "string"
        }
      ],
      "name": "switchTournamentCategory",
      "outputs": [],
      "payable": false,
      "stateMutability": "nonpayable",
      "type": "function"
    },
    {
      "constant": true,
      "inputs": [
        {
          "name": "_category",
          "type": "string"
        }
      ],
      "name": "getTournamentsByCategory",
      "outputs": [
        {
          "name": "",
          "type": "address[]"
        }
      ],
      "payable": false,
      "stateMutability": "view",
      "type": "function"
    },
    {
      "constant": true,
      "inputs": [
        {
          "name": "_category",
          "type": "string"
        }
      ],
      "name": "getCategoryCount",
      "outputs": [
        {
          "name": "",
          "type": "uint256"
        }
      ],
      "payable": false,
      "stateMutability": "view",
      "type": "function"
    },
    {
      "constant": true,
      "inputs": [
        {
          "name": "_index",
          "type": "uint256"
        }
      ],
      "name": "getCategoryByIndex",
      "outputs": [
        {
          "name": "",
          "type": "string"
        }
      ],
      "payable": false,
      "stateMutability": "view",
      "type": "function"
    },
    {
      "constant": false,
      "inputs": [
        {
          "name": "_tournamentAddress",
          "type": "address"
        }
      ],
      "name": "enterTournament",
      "outputs": [
        {
          "name": "_success",
          "type": "bool"
        }
      ],
      "payable": false,
      "stateMutability": "nonpayable",
      "type": "function"
    },
    {
      "constant": false,
      "inputs": [
        {
          "name": "_category",
          "type": "string"
        },
        {
          "components": [
            {
              "name": "title_1",
              "type": "bytes32"
            },
            {
              "name": "title_2",
              "type": "bytes32"
            },
            {
              "name": "title_3",
              "type": "bytes32"
            },
            {
              "name": "descriptionHash_1",
              "type": "bytes32"
            },
            {
              "name": "descriptionHash_2",
              "type": "bytes32"
            },
            {
              "name": "bounty",
              "type": "uint256"
            },
            {
              "name": "entryFee",
              "type": "uint256"
            }
          ],
          "name": "tournamentData",
          "type": "tuple"
        },
        {
          "components": [
            {
              "name": "start",
              "type": "uint256"
            },
            {
              "name": "end",
              "type": "uint256"
            },
            {
              "name": "reviewDuration",
              "type": "uint256"
            },
            {
              "name": "bounty",
              "type": "uint256"
            }
          ],
          "name": "roundData",
          "type": "tuple"
        }
      ],
      "name": "createTournament",
      "outputs": [
        {
          "name": "_tournamentAddress",
          "type": "address"
        }
      ],
      "payable": false,
      "stateMutability": "nonpayable",
      "type": "function"
    },
    {
      "constant": false,
      "inputs": [],
      "name": "createPeer",
      "outputs": [
        {
          "name": "",
          "type": "address"
        }
      ],
      "payable": false,
      "stateMutability": "nonpayable",
      "type": "function"
    },
    {
      "constant": true,
      "inputs": [
        {
          "name": "_peerAddress",
          "type": "address"
        }
      ],
      "name": "isPeer",
      "outputs": [
        {
          "name": "",
          "type": "bool"
        }
      ],
      "payable": false,
      "stateMutability": "view",
      "type": "function"
    },
    {
      "constant": true,
      "inputs": [
        {
          "name": "_sender",
          "type": "address"
        }
      ],
      "name": "hasPeer",
      "outputs": [
        {
          "name": "",
          "type": "bool"
        }
      ],
      "payable": false,
      "stateMutability": "view",
      "type": "function"
    },
    {
      "constant": true,
      "inputs": [
        {
          "name": "_peer",
          "type": "address"
        },
        {
          "name": "_reference",
          "type": "address"
        }
      ],
      "name": "peerExistsAndOwnsSubmission",
      "outputs": [
        {
          "name": "",
          "type": "bool"
        }
      ],
      "payable": false,
      "stateMutability": "view",
      "type": "function"
    },
    {
      "constant": true,
      "inputs": [
        {
          "name": "_sender",
          "type": "address"
        }
      ],
      "name": "peerAddress",
      "outputs": [
        {
          "name": "",
          "type": "address"
        }
      ],
      "payable": false,
      "stateMutability": "view",
      "type": "function"
    },
    {
      "constant": true,
      "inputs": [
        {
          "name": "_submissionAddress",
          "type": "address"
        }
      ],
      "name": "isSubmission",
      "outputs": [
        {
          "name": "",
          "type": "bool"
        }
      ],
      "payable": false,
      "stateMutability": "view",
      "type": "function"
    },
    {
      "constant": true,
      "inputs": [
        {
          "name": "_categoryHash",
          "type": "bytes32"
        }
      ],
      "name": "hashForCategory",
      "outputs": [
        {
          "name": "_category",
          "type": "string"
        }
      ],
      "payable": false,
      "stateMutability": "view",
      "type": "function"
    },
    {
      "constant": true,
      "inputs": [
        {
          "name": "_tournamentAddress",
          "type": "address"
        }
      ],
      "name": "getTournament_IsMine",
      "outputs": [
        {
          "name": "_isMine",
          "type": "bool"
        }
      ],
      "payable": false,
      "stateMutability": "view",
      "type": "function"
    },
    {
      "constant": false,
      "inputs": [
        {
          "name": "_gratitude",
          "type": "uint256"
        }
      ],
      "name": "setSubmissionGratitude",
      "outputs": [],
      "payable": false,
      "stateMutability": "nonpayable",
      "type": "function"
    },
    {
      "constant": true,
      "inputs": [],
      "name": "getNow",
      "outputs": [
        {
          "name": "",
          "type": "uint256"
        }
      ],
      "payable": false,
      "stateMutability": "view",
      "type": "function"
    },
    {
      "constant": true,
      "inputs": [],
      "name": "getTokenAddress",
      "outputs": [
        {
          "name": "",
          "type": "address"
        }
      ],
      "payable": false,
      "stateMutability": "view",
      "type": "function"
    },
    {
      "constant": true,
      "inputs": [],
      "name": "getTournamentFactoryAddress",
      "outputs": [
        {
          "name": "",
          "type": "address"
        }
      ],
      "payable": false,
      "stateMutability": "view",
      "type": "function"
    },
    {
      "constant": true,
      "inputs": [],
      "name": "getSubmissionTrustLibrary",
      "outputs": [
        {
          "name": "",
          "type": "address"
        }
      ],
      "payable": false,
      "stateMutability": "view",
      "type": "function"
    },
    {
      "constant": true,
      "inputs": [],
      "name": "getSubmissionGratitude",
      "outputs": [
        {
          "name": "",
          "type": "uint256"
        }
      ],
      "payable": false,
      "stateMutability": "view",
      "type": "function"
    },
    {
      "constant": true,
      "inputs": [],
      "name": "myTournaments",
      "outputs": [
        {
          "name": "",
          "type": "address[]"
        }
      ],
      "payable": false,
      "stateMutability": "view",
      "type": "function"
    },
    {
      "constant": true,
      "inputs": [],
      "name": "mySubmissions",
      "outputs": [
        {
          "name": "",
          "type": "address[]"
        }
      ],
      "payable": false,
      "stateMutability": "view",
      "type": "function"
    },
    {
      "constant": true,
      "inputs": [],
      "name": "tournamentCount",
      "outputs": [
        {
          "name": "_tournamentCount",
          "type": "uint256"
        }
      ],
      "payable": false,
      "stateMutability": "view",
      "type": "function"
    },
    {
      "constant": true,
      "inputs": [
        {
          "name": "_index",
          "type": "uint256"
        }
      ],
      "name": "getTournamentAtIndex",
      "outputs": [
        {
          "name": "_tournamentAddress",
          "type": "address"
        }
      ],
      "payable": false,
      "stateMutability": "view",
      "type": "function"
    },
    {
      "constant": true,
      "inputs": [],
      "name": "getTournaments",
      "outputs": [
        {
          "name": "",
          "type": "address[]"
        }
      ],
      "payable": false,
      "stateMutability": "view",
      "type": "function"
    },
    {
      "constant": false,
      "inputs": [],
      "name": "forceRevert",
      "outputs": [],
      "payable": false,
      "stateMutability": "nonpayable",
      "type": "function"
    }
  ],
  "bytecode": "0x60c0604052600160808190526702c68af0bb14000060a08190526017805460ff19169092179091556018553480156200003757600080fd5b5060405160a0806200340a8339810180604052620000599190810190620000db565b6000805433600160a060020a031991821617909155600180548216600160a060020a03978816179055600280548216958716959095179094556003805485169386169390931790925560048054841691851691909117905560058054909216921691909117905562000167565b6000620000d482516200015b565b9392505050565b600080600080600060a08688031215620000f457600080fd5b6000620001028888620000c6565b95505060206200011588828901620000c6565b94505060406200012888828901620000c6565b93505060606200013b88828901620000c6565b92505060806200014e88828901620000c6565b9150509295509295909350565b600160a060020a031690565b61329380620001776000396000f3006080604052600436106102505763ffffffff7c010000000000000000000000000000000000000000000000000000000060003504166310fe9ae8811461025557806311cf11ae146102805780631411f0a8146102975780631d2245f5146102c457806327252a0c146102e657806329cc545e146102fb5780632f54bf6e146103105780633e44cf781461033d5780633f1a4c111461035d57806351488bce1461037d578063532311c41461039d5780636a44e43d146103bd5780636e2b2c7c146103dd57806370e592b8146103ff578063818b5fa81461041f5780638764422f1461043f5780638785494e1461045f578063893d20e81461047f5780638ac70272146104945780638c593a8c146104a95780638d1d498c146104c95780638da5cb5b146104e9578063984ed206146104fe57806399db60dd1461051e5780639f640cc01461053e578063a2d0ab471461055e578063a923251e14610573578063a968c4b914610593578063ab9583d9146105b3578063ac17741b146105d3578063b0ff5492146105f3578063b20a2dce14610608578063b2fad5541461061d578063b846e21c1461063d578063bbe4fd5014610652578063c13ae92a14610667578063c21260a514610687578063c839984a146106a7578063c8ab6c87146106c7578063d4f056d4146106dc578063e139a20c146106fc578063e14feaea14610711578063e8a0ed0d14610731578063f2fde38b14610751578063f3dc0d2514610771578063f7468a3c14610786578063f7c3609d146107a6578063f7f20cb3146107bb578063fb5032d6146107d0575b600080fd5b34801561026157600080fd5b5061026a6107f0565b6040516102779190612f52565b60405180910390f35b34801561028c57600080fd5b50610295610250565b005b3480156102a357600080fd5b506102b76102b2366004612cc5565b61080d565b604051610277919061307e565b3480156102d057600080fd5b506102d96108b8565b6040516102779190613044565b3480156102f257600080fd5b5061026a610930565b34801561030757600080fd5b5061026a61094c565b34801561031c57600080fd5b5061033061032b366004612a6c565b610968565b6040516102779190613055565b34801561034957600080fd5b50610330610358366004612a6c565b610989565b34801561036957600080fd5b50610295610378366004612be2565b6109b4565b34801561038957600080fd5b50610330610398366004612ab0565b610bd8565b3480156103a957600080fd5b506103306103b8366004612a6c565b610c5c565b3480156103c957600080fd5b5061026a6103d8366004612a6c565b610c89565b3480156103e957600080fd5b506103f2610cb4565b6040516102779190613166565b34801561040b57600080fd5b5061033061041a366004612a6c565b610cba565b34801561042b57600080fd5b5061033061043a366004612a6c565b610ccf565b34801561044b57600080fd5b5061029561045a366004612be2565b610cfa565b34801561046b57600080fd5b5061029561047a366004612c2a565b610ed9565b34801561048b57600080fd5b5061026a610f57565b3480156104a057600080fd5b5061026a610f73565b3480156104b557600080fd5b506103306104c4366004612aea565b610f8f565b3480156104d557600080fd5b506102b76104e4366004612cc5565b6111ab565b3480156104f557600080fd5b5061026a6111e3565b34801561050a57600080fd5b5061026a610519366004612cc5565b6111ff565b34801561052a57600080fd5b5061026a610539366004612a6c565b611252565b34801561054a57600080fd5b5061026a610559366004612d25565b61127a565b34801561056a57600080fd5b5061026a611573565b34801561057f57600080fd5b5061029561058e366004612b32565b61158f565b34801561059f57600080fd5b506103306105ae366004612ab0565b6115fe565b3480156105bf57600080fd5b506102956105ce366004612ab0565b6118b1565b3480156105df57600080fd5b506102d96105ee366004612ce3565b611995565b3480156105ff57600080fd5b5061026a611a3d565b34801561061457600080fd5b506103f2611a59565b34801561062957600080fd5b50610330610638366004612a6c565b611a74565b34801561064957600080fd5b5061026a611c55565b34801561065e57600080fd5b506103f2611c71565b34801561067357600080fd5b50610295610682366004612cc5565b611caf565b34801561069357600080fd5b506102b76106a2366004612cc5565b611d1d565b3480156106b357600080fd5b5061026a6106c2366004612cc5565b611dc4565b3480156106d357600080fd5b5061026a611df9565b3480156106e857600080fd5b506103f26106f7366004612ce3565b611e15565b34801561070857600080fd5b506102d9611e5a565b34801561071d57600080fd5b5061029561072c366004612d9f565b611ed0565b34801561073d57600080fd5b5061033061074c366004612a6c565b611f2d565b34801561075d57600080fd5b5061029561076c366004612a6c565b612037565b34801561077d57600080fd5b5061026a6120b9565b34801561079257600080fd5b506103306107a1366004612a6c565b6120d5565b3480156107b257600080fd5b5061026a612367565b3480156107c757600080fd5b506102d96124b9565b3480156107dc57600080fd5b506103306107eb366004612a6c565b612526565b60015473ffffffffffffffffffffffffffffffffffffffff165b90565b606060088281548110151561081e57fe5b600091825260209182902001805460408051601f60026000196101006001871615020190941693909304928301859004850281018501909152818152928301828280156108ac5780601f10610881576101008083540402835291602001916108ac565b820191906000526020600020905b81548152906001019060200180831161088f57829003601f168201915b50505050509050919050565b3360009081526013602090815260409182902080548351818402810184019094528084526060939283018282801561092657602002820191906000526020600020905b815473ffffffffffffffffffffffffffffffffffffffff1681526001909101906020018083116108fb575b5050505050905090565b60035473ffffffffffffffffffffffffffffffffffffffff1681565b60015473ffffffffffffffffffffffffffffffffffffffff1681565b60005473ffffffffffffffffffffffffffffffffffffffff91821691161490565b73ffffffffffffffffffffffffffffffffffffffff166000908152600e602052604090205460ff1690565b6000823373ffffffffffffffffffffffffffffffffffffffff82161480610a0b575033600090815260146020908152604080832073ffffffffffffffffffffffffffffffffffffffff8516845290915290205460ff165b80610a1557503330145b1515610a2057600080fd5b826040518082805190602001908083835b60208310610a505780518252601f199092019160209182019101610a31565b51815160209384036101000a6000190180199092169116179052604080519290940182900390912060008181526009909252929020549195505060ff1615159150610ade90505760088054600181018083556000929092528451610adb917ff3f7a9fe364faab93b216da50a3214154f22a0a2b415b23a84c8169e8b636ee30190602087019061277a565b50505b6000828152600b6020908152604080832073ffffffffffffffffffffffffffffffffffffffff8816845290915290205460ff161515610bd2576000828152600b6020908152604080832073ffffffffffffffffffffffffffffffffffffffff881684528252808320805460ff19166001908117909155600d835292208551610b6d93919091019186019061277a565b506000828152600a60208181526040808420805473ffffffffffffffffffffffffffffffffffffffff8a16808752600d85529286208190559383526001840181558452922001805473ffffffffffffffffffffffffffffffffffffffff191690911790555b50505050565b73ffffffffffffffffffffffffffffffffffffffff8083166000818152600e60209081526040808320548686168085526012845282852054958552600f84528285205490961684526010835281842095845294909152812054909260ff9081169281169116828015610c475750815b8015610c505750805b93505b50505092915050565b73ffffffffffffffffffffffffffffffffffffffff9081166000908152600f602052604090205416151590565b73ffffffffffffffffffffffffffffffffffffffff9081166000908152600f60205260409020541690565b60075490565b600e6020526000908152604090205460ff1681565b73ffffffffffffffffffffffffffffffffffffffff1660009081526012602052604090205460ff1690565b600080833373ffffffffffffffffffffffffffffffffffffffff82161480610d52575033600090815260146020908152604080832073ffffffffffffffffffffffffffffffffffffffff8516845290915290205460ff165b80610d5c57503330145b1515610d6757600080fd5b836040518082805190602001908083835b60208310610d975780518252601f199092019160209182019101610d78565b51815160209384036101000a600019018019909216911617905260408051929094018290039091206000818152600b835284812073ffffffffffffffffffffffffffffffffffffffff8d168252909252929020549196505060ff16159150610ed290505773ffffffffffffffffffffffffffffffffffffffff85166000818152600d6020908152604080832054878452600b8352818420948452938252808320805460ff19169055868352600a90915281208054929450909184908110610e5a57fe5b6000918252602080832091909101805473ffffffffffffffffffffffffffffffffffffffff191673ffffffffffffffffffffffffffffffffffffffff9485161790559187168152600d82526040808220829055858252600c9092522054610ec29060016126e8565b6000848152600c60205260409020555b5050505050565b823373ffffffffffffffffffffffffffffffffffffffff82161480610f2e575033600090815260146020908152604080832073ffffffffffffffffffffffffffffffffffffffff8516845290915290205460ff165b80610f3857503330145b1515610f4357600080fd5b610f4d8484610cfa565b610bd284836109b4565b60005473ffffffffffffffffffffffffffffffffffffffff1690565b60065473ffffffffffffffffffffffffffffffffffffffff1681565b33600090815260116020526040812054819081908190819060ff161515610fb557600080fd5b600093505b85518410156111a1578584815181101515610fd157fe5b906020019060200201519250610fe683610ccf565b1515610ff157611196565b8291508173ffffffffffffffffffffffffffffffffffffffff1663a5faa1256040518163ffffffff167c0100000000000000000000000000000000000000000000000000000000028152600401602060405180830381600087803b15801561105857600080fd5b505af115801561106c573d6000803e3d6000fd5b505050506040513d601f19601f820116820180604052506110909190810190612a92565b6040517fd1bbd31200000000000000000000000000000000000000000000000000000000815290915073ffffffffffffffffffffffffffffffffffffffff82169063d1bbd312906110e7908a908790600401612f60565b600060405180830381600087803b15801561110157600080fd5b505af1158015611115573d6000803e3d6000fd5b505050508173ffffffffffffffffffffffffffffffffffffffff1663c7af35516040518163ffffffff167c0100000000000000000000000000000000000000000000000000000000028152600401600060405180830381600087803b15801561117d57600080fd5b505af1158015611191573d6000803e3d6000fd5b505050505b600190930192610fba565b5050505092915050565b5060408051808201909152601281527f74656d706f726172792063617465676f72790000000000000000000000000000602082015290565b60005473ffffffffffffffffffffffffffffffffffffffff1681565b60008082101561120e57600080fd5b600754821061121c57600080fd5b600780548390811061122a57fe5b60009182526020909120015473ffffffffffffffffffffffffffffffffffffffff1692915050565b600f6020526000908152604090205473ffffffffffffffffffffffffffffffffffffffff1681565b6003546040517f5eda296e00000000000000000000000000000000000000000000000000000000815260009173ffffffffffffffffffffffffffffffffffffffff169082908290635eda296e906112db908990899089903390600401613129565b602060405180830381600087803b1580156112f557600080fd5b505af1158015611309573d6000803e3d6000fd5b505050506040513d601f19601f8201168201806040525061132d9190810190612a92565b90507f0a3eabe50f6fdb1131643d035f8bde7e91d600ba5d64c4a17de4d9c9fef3ec63863383886000015189602001518a604001518b606001518c608001518d60a001518e60c0015160405161138c9a9998979695949392919061308f565b60405180910390a160015460a08601516040517f23b872dd00000000000000000000000000000000000000000000000000000000815273ffffffffffffffffffffffffffffffffffffffff909216916323b872dd916113f19133918691600401613001565b602060405180830381600087803b15801561140b57600080fd5b505af115801561141f573d6000803e3d6000fd5b505050506040513d601f19601f820116820180604052506114439190810190612ca7565b151561144e57600080fd5b60608401516040517f23721e2400000000000000000000000000000000000000000000000000000000815273ffffffffffffffffffffffffffffffffffffffff8316916323721e24916114a691600091600401613063565b600060405180830381600087803b1580156114c057600080fd5b505af11580156114d4573d6000803e3d6000fd5b50506007805460018082019092557fa66cc928b5edb82af9bd49922954155ab7b0942694bea4ce44661d9a8736c68801805473ffffffffffffffffffffffffffffffffffffffff191673ffffffffffffffffffffffffffffffffffffffff86169081179091556000908152601160205260409020805460ff1916909117905550611560905033826126fe565b61156a81876109b4565b95945050505050565b60025473ffffffffffffffffffffffffffffffffffffffff1681565b3360009081526011602052604090205460ff1615156115ad57600080fd5b7f67463a82a3de9d3302dd325602c0b0ac0ba5437fa8e04a6aeb8b218be7d7d54b8833898989898989896040516115ec99989796959493929190612f7b565b60405180910390a15050505050505050565b73ffffffffffffffffffffffffffffffffffffffff811660009081526011602052604081205481908190819060ff16151561163857600080fd5b73ffffffffffffffffffffffffffffffffffffffff861660009081526012602052604090205460ff16151561166c57600080fd5b33600090815260106020908152604080832073ffffffffffffffffffffffffffffffffffffffff8a16845290915290205460ff1615156116ab57600080fd5b8592508573ffffffffffffffffffffffffffffffffffffffff1663893d20e86040518163ffffffff167c0100000000000000000000000000000000000000000000000000000000028152600401602060405180830381600087803b15801561171257600080fd5b505af1158015611726573d6000803e3d6000fd5b505050506040513d601f19601f8201168201806040525061174a9190810190612a92565b73ffffffffffffffffffffffffffffffffffffffff8082166000818152601660209081526040808320948c1683529381528382206001015460128252848320805460ff191690559282526015905291909120805492945090925090829081106117af57fe5b60009182526020808320909101805473ffffffffffffffffffffffffffffffffffffffff1916905573ffffffffffffffffffffffffffffffffffffffff84811683526016825260408084208a83168552909252818320805460ff1916815560010192909255517fa968c4b90000000000000000000000000000000000000000000000000000000081529086169063a968c4b9906118529089908690600401612f60565b602060405180830381600087803b15801561186c57600080fd5b505af1158015611880573d6000803e3d6000fd5b505050506040513d601f19601f820116820180604052506118a49190810190612ca7565b5060019695505050505050565b3360009081526011602052604090205460ff1615156118cf57600080fd5b604080518082018252600180825273ffffffffffffffffffffffffffffffffffffffff948516600081815260156020908152858220805482870190815284845260168352878420989099168084529782528683209551865490151560ff1991821617875598519585019590955584548085018655948252808220909401805473ffffffffffffffffffffffffffffffffffffffff191687179055908152601083528381209481529382528284208054861682179055601290915291208054909216179055565b6060600a6000848460405180838380828437820191505092505050604051809103902060001916600019168152602001908152602001600020805480602002602001604051908101604052809291908181526020018280548015611a2f57602002820191906000526020600020905b815473ffffffffffffffffffffffffffffffffffffffff168152600190910190602001808311611a04575b505050505090505b92915050565b60045473ffffffffffffffffffffffffffffffffffffffff1681565b60175460009060ff161515611a6d57600080fd5b5060185490565b336000908152601260205260408120548190819060ff161515611a9657600080fd5b611a9f84610ccf565b1515611aaa57600080fd5b8391508173ffffffffffffffffffffffffffffffffffffffff1663a5faa1256040518163ffffffff167c0100000000000000000000000000000000000000000000000000000000028152600401602060405180830381600087803b158015611b1157600080fd5b505af1158015611b25573d6000803e3d6000fd5b505050506040513d601f19601f82011682018060405250611b499190810190612a92565b6040517fd1bbd31200000000000000000000000000000000000000000000000000000000815290915073ffffffffffffffffffffffffffffffffffffffff82169063d1bbd31290611ba09033908890600401612f60565b600060405180830381600087803b158015611bba57600080fd5b505af1158015611bce573d6000803e3d6000fd5b505050508173ffffffffffffffffffffffffffffffffffffffff1663c7af35516040518163ffffffff167c0100000000000000000000000000000000000000000000000000000000028152600401600060405180830381600087803b158015611c3657600080fd5b505af1158015611c4a573d6000803e3d6000fd5b505050505050919050565b60055473ffffffffffffffffffffffffffffffffffffffff1681565b60007fdfbf6547deaf4fa5dd154ec1daf5350032f31d34e4c755104dfbf6049163c08742604051611ca29190613166565b60405180910390a1504290565b60005473ffffffffffffffffffffffffffffffffffffffff163314611cd357600080fd5b60008110158015611cec5750670de0b6b3a76400008111155b1515611cf457fe5b60408051808201909152600180825260209091018290526017805460ff19169091179055601855565b6008805482908110611d2b57fe5b600091825260209182902001805460408051601f6002600019610100600187161502019094169390930492830185900485028101850190915281815293509091830182828015611dbc5780601f10611d9157610100808354040283529160200191611dbc565b820191906000526020600020905b815481529060010190602001808311611d9f57829003601f168201915b505050505081565b6007805482908110611dd257fe5b60009182526020909120015473ffffffffffffffffffffffffffffffffffffffff16905081565b60035473ffffffffffffffffffffffffffffffffffffffff1690565b600080838360405180838380828437604080519190930181900390206000908152600c602090815283822054600a909152929020549190910398975050505050505050565b336000908152601560209081526040918290208054835181840281018401909452808452606093928301828280156109265760200282019190600052602060002090815473ffffffffffffffffffffffffffffffffffffffff1681526001909101906020018083116108fb575050505050905090565b3360009081526011602052604090205460ff161515611eee57600080fd5b7f575670c81f31b6e19bd59bbbe1729f3f052ae8a508d3977e1e1b2b752a256edb338383604051611f2193929190613029565b60405180910390a15050565b73ffffffffffffffffffffffffffffffffffffffff8116600090815260116020526040812054819060ff161515611f6357600080fd5b8290503373ffffffffffffffffffffffffffffffffffffffff168173ffffffffffffffffffffffffffffffffffffffff1663893d20e86040518163ffffffff167c0100000000000000000000000000000000000000000000000000000000028152600401602060405180830381600087803b158015611fe157600080fd5b505af1158015611ff5573d6000803e3d6000fd5b505050506040513d601f19601f820116820180604052506120199190810190612a92565b73ffffffffffffffffffffffffffffffffffffffff16149392505050565b60005473ffffffffffffffffffffffffffffffffffffffff16331461205b57600080fd5b73ffffffffffffffffffffffffffffffffffffffff8116151561207d57600080fd5b6000805473ffffffffffffffffffffffffffffffffffffffff191673ffffffffffffffffffffffffffffffffffffffff92909216919091179055565b60055473ffffffffffffffffffffffffffffffffffffffff1690565b600080600080336120e581610c5c565b15156120f057600080fd5b73ffffffffffffffffffffffffffffffffffffffff861660009081526011602052604090205460ff16151561212457600080fd5b8593508373ffffffffffffffffffffffffffffffffffffffff1663e586a4f06040518163ffffffff167c0100000000000000000000000000000000000000000000000000000000028152600401602060405180830381600087803b15801561218b57600080fd5b505af115801561219f573d6000803e3d6000fd5b505050506040513d601f19601f820116820180604052506121c39190810190612d81565b6001546040517f23b872dd00000000000000000000000000000000000000000000000000000000815291945073ffffffffffffffffffffffffffffffffffffffff16906323b872dd9061221e9033908a908890600401613001565b602060405180830381600087803b15801561223857600080fd5b505af115801561224c573d6000803e3d6000fd5b505050506040513d601f19601f820116820180604052506122709190810190612ca7565b9150811561235e576040517f28d576d700000000000000000000000000000000000000000000000000000000815273ffffffffffffffffffffffffffffffffffffffff8516906328d576d7906122ca903390600401612f52565b602060405180830381600087803b1580156122e457600080fd5b505af11580156122f8573d6000803e3d6000fd5b505050506040513d601f19601f8201168201806040525061231c9190810190612ca7565b9150811561235e577f5891a745b8d042d48bd1e4aed889e63bdc3e44242bb75694ea97573460e03a8b3387604051612355929190612f60565b60405180910390a15b50949350505050565b336000908152600f60205260408120548190819073ffffffffffffffffffffffffffffffffffffffff161561239b57600080fd5b6002546040517f48bf957700000000000000000000000000000000000000000000000000000000815273ffffffffffffffffffffffffffffffffffffffff909116925082906348bf9577906123f4903390600401612f52565b602060405180830381600087803b15801561240e57600080fd5b505af1158015612422573d6000803e3d6000fd5b505050506040513d601f19601f820116820180604052506124469190810190612a92565b73ffffffffffffffffffffffffffffffffffffffff166000818152600e60209081526040808320805460ff1916600117905533808452600f909252808320805473ffffffffffffffffffffffffffffffffffffffff19908116861790915593835290912080549092161790555090919050565b606060078054806020026020016040519081016040528092919081815260200182805480156109265760200282019190600052602060002090815473ffffffffffffffffffffffffffffffffffffffff1681526001909101906020018083116108fb575050505050905090565b336000908152601260205260408120548190819060ff16151561254857600080fd5b61255184610ccf565b151561255c57600080fd5b8391508173ffffffffffffffffffffffffffffffffffffffff1663a5faa1256040518163ffffffff167c0100000000000000000000000000000000000000000000000000000000028152600401602060405180830381600087803b1580156125c357600080fd5b505af11580156125d7573d6000803e3d6000fd5b505050506040513d601f19601f820116820180604052506125fb9190810190612a92565b6040517fa1cc4ac100000000000000000000000000000000000000000000000000000000815290915073ffffffffffffffffffffffffffffffffffffffff82169063a1cc4ac1906126529033908890600401612f60565b600060405180830381600087803b15801561266c57600080fd5b505af1158015612680573d6000803e3d6000fd5b505050508173ffffffffffffffffffffffffffffffffffffffff1663444e31ca6040518163ffffffff167c0100000000000000000000000000000000000000000000000000000000028152600401600060405180830381600087803b158015611c3657600080fd5b6000828201838110156126f757fe5b9392505050565b73ffffffffffffffffffffffffffffffffffffffff918216600081815260136020908152604080832080546001808201835591855283852001805473ffffffffffffffffffffffffffffffffffffffff19169690971695861790965592825260148152828220938252929092529020805460ff19169091179055565b828054600181600116156101000203166002900490600052602060002090601f016020900481019282601f106127bb57805160ff19168380011785556127e8565b828001600101855582156127e8579182015b828111156127e85782518255916020019190600101906127cd565b506127f49291506127f8565b5090565b61080a91905b808211156127f457600081556001016127fe565b60006126f782356131ee565b60006126f782516131ee565b6000601f8201831361283b57600080fd5b813561284e6128498261319b565b613174565b9150818183526020840193506020810190508385602084028201111561287357600080fd5b60005b838110156111a157816128898882612812565b8452506020928301929190910190600101612876565b60006126f78251613207565b60006126f7823561080a565b600080601f830184136128c957600080fd5b50813567ffffffffffffffff8111156128e157600080fd5b6020830191508360018202830111156128f957600080fd5b9250929050565b6000601f8201831361291157600080fd5b813561291f612849826131bc565b9150808252602083016020830185838301111561293b57600080fd5b610c53838284613217565b60006080828403121561295857600080fd5b6129626080613174565b9050600061297084846128ab565b8252506020612981848483016128ab565b6020830152506040612995848285016128ab565b60408301525060606129a9848285016128ab565b60608301525092915050565b600060e082840312156129c757600080fd5b6129d160e0613174565b905060006129df84846128ab565b82525060206129f0848483016128ab565b6020830152506040612a04848285016128ab565b6040830152506060612a18848285016128ab565b6060830152506080612a2c848285016128ab565b60808301525060a0612a40848285016128ab565b60a08301525060c0612a54848285016128ab565b60c08301525092915050565b60006126f7825161080a565b600060208284031215612a7e57600080fd5b6000612a8a8484612812565b949350505050565b600060208284031215612aa457600080fd5b6000612a8a848461281e565b60008060408385031215612ac357600080fd5b6000612acf8585612812565b9250506020612ae085828601612812565b9150509250929050565b60008060408385031215612afd57600080fd5b6000612b098585612812565b925050602083013567ffffffffffffffff811115612b2657600080fd5b612ae08582860161282a565b600080600080600080600080610100898b031215612b4f57600080fd5b6000612b5b8b8b612812565b9850506020612b6c8b828c016128ab565b9750506040612b7d8b828c016128ab565b9650506060612b8e8b828c016128ab565b9550506080612b9f8b828c016128ab565b94505060a0612bb08b828c016128ab565b93505060c0612bc18b828c016128ab565b92505060e0612bd28b828c016128ab565b9150509295985092959890939650565b60008060408385031215612bf557600080fd5b6000612c018585612812565b925050602083013567ffffffffffffffff811115612c1e57600080fd5b612ae085828601612900565b600080600060608486031215612c3f57600080fd5b6000612c4b8686612812565b935050602084013567ffffffffffffffff811115612c6857600080fd5b612c7486828701612900565b925050604084013567ffffffffffffffff811115612c9157600080fd5b612c9d86828701612900565b9150509250925092565b600060208284031215612cb957600080fd5b6000612a8a848461289f565b600060208284031215612cd757600080fd5b6000612a8a84846128ab565b60008060208385031215612cf657600080fd5b823567ffffffffffffffff811115612d0d57600080fd5b612d19858286016128b7565b92509250509250929050565b60008060006101808486031215612d3b57600080fd5b833567ffffffffffffffff811115612d5257600080fd5b612d5e86828701612900565b9350506020612d6f868287016129b5565b925050610100612c9d86828701612946565b600060208284031215612d9357600080fd5b6000612a8a8484612a60565b60008060408385031215612db257600080fd5b6000612dbe85856128ab565b9250506020612ae0858286016128ab565b612dd8816131ee565b82525050565b6000612de9826131ea565b808452602084019350612dfb836131e4565b60005b82811015612e2b57612e11868351612dcf565b612e1a826131e4565b602096909601959150600101612dfe565b5093949350505050565b612dd881613207565b612dd88161080a565b612dd88161320c565b6000612e5b826131ea565b808452612e6f816020860160208601613223565b612e788161324f565b9093016020019392505050565b80516080830190612e968482612e3e565b506020820151612ea96020850182612e3e565b506040820151612ebc6040850182612e3e565b506060820151610bd26060850182612e3e565b805160e0830190612ee08482612e3e565b506020820151612ef36020850182612e3e565b506040820151612f066040850182612e3e565b506060820151612f196060850182612e3e565b506080820151612f2c6080850182612e3e565b5060a0820151612f3f60a0850182612e3e565b5060c0820151610bd260c0850182612e3e565b60208101611a378284612dcf565b60408101612f6e8285612dcf565b6126f76020830184612dcf565b6101208101612f8a828c612dcf565b612f97602083018b612dcf565b612fa4604083018a612e3e565b612fb16060830189612e3e565b612fbe6080830188612e3e565b612fcb60a0830187612e3e565b612fd860c0830186612e3e565b612fe560e0830185612e3e565b612ff3610100830184612e3e565b9a9950505050505050505050565b6060810161300f8286612dcf565b61301c6020830185612dcf565b612a8a6040830184612e3e565b606081016130378286612dcf565b61301c6020830185612e3e565b602080825281016126f78184612dde565b60208101611a378284612e35565b604081016130718285612e47565b6126f76020830184612e3e565b602080825281016126f78184612e50565b61014080825281016130a1818d612e50565b90506130b0602083018c612dcf565b6130bd604083018b612dcf565b6130ca606083018a612e3e565b6130d76080830189612e3e565b6130e460a0830188612e3e565b6130f160c0830187612e3e565b6130fe60e0830186612e3e565b61310c610100830185612e3e565b61311a610120830184612e3e565b9b9a5050505050505050505050565b6101a0808252810161313b8187612e50565b905061314a6020830186612ecf565b613158610100830185612e85565b61156a610180830184612dcf565b60208101611a378284612e3e565b60405181810167ffffffffffffffff8111828210171561319357600080fd5b604052919050565b600067ffffffffffffffff8211156131b257600080fd5b5060209081020190565b600067ffffffffffffffff8211156131d357600080fd5b506020601f91909101601f19160190565b60200190565b5190565b73ffffffffffffffffffffffffffffffffffffffff1690565b151590565b6000611a378261080a565b82818337506000910152565b60005b8381101561323e578181015183820152602001613226565b83811115610bd25750506000910152565b601f01601f1916905600a265627a7a72305820d46fc2b87a82deaa9416ecc859ff1ff3b0ca893bf9789aa7b4debeaedc93e7cb6c6578706572696d656e74616cf50037",
  "source": "pragma solidity ^0.4.18;\npragma experimental ABIEncoderV2;\n\nimport \"../libraries/math/SafeMath.sol\";\nimport \"../libraries/math/SafeMath128.sol\";\nimport \"../interfaces/IMatryxToken.sol\";\nimport \"../interfaces/IMatryxPeer.sol\";\nimport \"../interfaces/IMatryxPlatform.sol\";\nimport \"../interfaces/factories/IMatryxPeerFactory.sol\";\nimport \"../interfaces/factories/IMatryxTournamentFactory.sol\";\nimport \"../interfaces/IMatryxTournament.sol\";\nimport \"../interfaces/IMatryxRound.sol\";\nimport \"../interfaces/IMatryxSubmission.sol\";\nimport \"./Ownable.sol\";\n\n/// @title MatryxPlatform - The Matryx platform contract.\n/// @author Max Howard - <max@nanome.ai>, Sam Hessenauer - <sam@nanome.ai>\ncontract MatryxPlatform is Ownable {\n  using SafeMath for uint256;\n  using SafeMath128 for uint128;\n\n  // TODO: condense and put in structs\n  address public matryxTokenAddress;\n  address public matryxPeerFactoryAddress;\n  address public matryxTournamentFactoryAddress;\n  address public matryxSubmissionFactoryAddress;\n  address public matryxSubmissionTrustLibAddress;\n  address public matryxRoundLibAddress;\n\n  address[] public allTournaments;\n  // bytes32 public hashOfTopCategory;\n  // bytes32 public hashOfLastCategory;\n  // mapping(uint256=>bytes32) public  topCategoryByCount;\n  // mapping(bytes32=>category) public categoryIterator;\n  string[] public categoryList;\n  mapping(bytes32=>bool) categoryExists;\n  mapping(bytes32=>address[]) categoryHashToTournamentList;\n  mapping(bytes32=>mapping(address=>bool)) tournamentExistsInCategory;\n  mapping(bytes32=>uint256) emptyCountByCategory;\n  mapping(address=>CategoryInfo) tournamentAddressToCategoryInfo;\n\n  mapping(address=>bool) public peerExists;\n  mapping(address=>address) public ownerToPeerAndPeerToOwner;\n  mapping(address=>mapping(address=>bool)) addressToOwnsSubmission;\n  mapping(address=>bool) tournamentExists;\n  mapping(address=>bool) submissionExists;\n\n  mapping(address=>address[]) ownerToTournamentArray;\n  mapping(address=>mapping(address=>bool)) entrantToOwnsTournament;\n  mapping(address=>address[]) ownerToSubmissionArray;\n  mapping(address=>mapping(address=>uint256_optional))  ownerToSubmissionToSubmissionIndex;\n\n  uint256_optional submissionGratitude = uint256_optional({exists: true, value: 2*10**17});\n\n  function MatryxPlatform(address _matryxTokenAddress, address _matryxPeerFactoryAddress, address _matryxTournamentFactoryAddress, address _matryxSubmissionFactoryAddress, address _matryxSubmissionTrustLibAddress) public\n  {\n    matryxTokenAddress = _matryxTokenAddress;\n    matryxPeerFactoryAddress = _matryxPeerFactoryAddress;\n    matryxTournamentFactoryAddress = _matryxTournamentFactoryAddress;\n    matryxSubmissionFactoryAddress = _matryxSubmissionFactoryAddress;\n    matryxSubmissionTrustLibAddress = _matryxSubmissionTrustLibAddress;\n  }\n\n  /*\n   * Structs\n   */\n\n  struct uint256_optional\n  {\n    bool exists;\n    uint256 value;\n  }\n\n  struct CategoryInfo \n  {\n    uint256 index;\n    string category;\n  }\n\n  /*\n   * Events\n   */\n\n  event TournamentCreated(string _discipline, address _owner, address _tournamentAddress, bytes32 _tournamentName_1, bytes32 _tournamentName_2, bytes32 _tournamentName_3, bytes32 _externalAddress_1, bytes32 _externalAddress_2, uint256 _MTXReward, uint256 _entryFee);\n  event TournamentOpened(address _owner, address _tournamentAddress, bytes32 _tournamentName_1, bytes32 _tournamentName_2, bytes32 _tournamentName_3, bytes32 _externalAddress_1, bytes32 _externalAddress_2, uint256 _MTXReward, uint256 _entryFee);\n  event TournamentClosed(address _tournamentAddress, uint256 _finalRoundNumber, uint256 _MTXReward);\n  event UserEnteredTournament(address _entrant, address _tournamentAddress);\n  event QueryID(string queryID);\n  /// @dev Allows tournaments to invoke tournamentOpened events on the platform.\n  /// @param _owner Owner of the tournament.\n  /// @param _tournamentName_1 First part of the tournament name.\n  /// @param _tournamentName_2 Second part of the tournament name.\n  /// @param _tournamentName_3 Third part of the tournament name.\n  /// @param _externalAddress_1 First part of the external address of the tournament.\n  /// @param _externalAddress_2 Second part of the external address of the tournament.\n  /// @param _MTXReward Reward for winning the tournament.\n  /// @param _entryFee Fee for entering into the tournament.\n  function invokeTournamentOpenedEvent(address _owner, bytes32 _tournamentName_1, bytes32 _tournamentName_2, bytes32 _tournamentName_3, bytes32 _externalAddress_1, bytes32 _externalAddress_2, uint256 _MTXReward, uint256 _entryFee) public onlyTournament\n  {\n    TournamentOpened(_owner, msg.sender, _tournamentName_1, _tournamentName_2, _tournamentName_3, _externalAddress_1, _externalAddress_2, _MTXReward, _entryFee);\n  }\n\n  /// @dev Allows tournaments to invoke tournamentClosed events on the platform.\n  /// @param _finalRoundNumber Index of the round containing the winning submission.\n  function invokeTournamentClosedEvent(uint256 _finalRoundNumber, uint256 _MTXReward) public onlyTournament\n  {\n    TournamentClosed(msg.sender, _finalRoundNumber, _MTXReward);\n  }\n\n  /* \n   * Modifiers\n   */\n\n  modifier onlyTournament\n  {\n    require(tournamentExists[msg.sender]);\n    _;\n  }\n\n  modifier onlySubmission\n  {\n    require(submissionExists[msg.sender]);\n    _;\n  }\n\n  modifier onlyPeerLinked(address _sender)\n  {\n    require(hasPeer(_sender));\n    _;\n  }\n\n  modifier onlyTournamentOwnerOrPlatform(address _tournamentAddress)\n  {\n    require(msg.sender == _tournamentAddress || entrantToOwnsTournament[msg.sender][_tournamentAddress] || msg.sender == address(this));\n    _;\n  }\n\n  /*\n   * State Maintenance Methods\n   */\n\n  // @dev Sends out reference requests for a particular submission.\n  // @param _references Reference whose authors will be sent requests.\n  // @returns Whether or not all references were successfully sent a request.\n  function handleReferenceRequestsForSubmission(address _submissionAddress, address[] _references) public onlyTournament returns (bool) \n  {\n    for(uint256 i = 0; i < _references.length; i++)\n    {\n      address _referenceAddress = _references[i];\n\n      if(!isSubmission(_referenceAddress))\n      {\n        // TODO: Introduce uint error codes\n        // for returning things like \"Reference _ is not submission\"\n        continue;\n      }\n\n      IMatryxSubmission submission = IMatryxSubmission(_referenceAddress);\n      address author = submission.getAuthor();\n      IMatryxPeer(author).receiveReferenceRequest(_submissionAddress, _referenceAddress);\n      submission.receiveReferenceRequest();\n    }\n  }\n\n  // @dev Sends out a reference request for a submission (must be called by the submission).\n  // @param _reference Reference whose author will be sent a request.\n  // @returns Whether or not all references were successfully sent a request.\n  function handleReferenceRequestForSubmission(address _reference) public onlySubmission returns (bool)\n  {\n      require(isSubmission(_reference));\n      IMatryxSubmission submission = IMatryxSubmission(_reference);\n      address author = submission.getAuthor();\n      IMatryxPeer(author).receiveReferenceRequest(msg.sender, _reference);\n      submission.receiveReferenceRequest();\n  }\n\n  function handleCancelledReferenceRequestForSubmission(address _reference) public onlySubmission returns (bool)\n  {\n    require(isSubmission(_reference));\n    IMatryxSubmission submission = IMatryxSubmission(_reference);\n    address author = submission.getAuthor();\n    IMatryxPeer(author).receiveCancelledReferenceRequest(msg.sender, _reference);\n    submission.cancelReferenceRequest();\n  }\n\n  function updateUsersTournaments(address _owner, address _tournament) internal\n  {\n    ownerToTournamentArray[_owner].push(_tournament);\n    entrantToOwnsTournament[_owner][_tournament] = true;\n  }\n\n  function updateSubmissions(address _owner, address _submission) public onlyTournament\n  {\n    ownerToSubmissionToSubmissionIndex[_owner][_submission] = uint256_optional({exists:true, value:ownerToSubmissionArray[_owner].length});\n    ownerToSubmissionArray[_owner].push(_submission);\n    addressToOwnsSubmission[_owner][_submission] = true;\n    submissionExists[_submission] = true;\n  }\n\n  function removeSubmission(address _submissionAddress, address _tournamentAddress) public returns (bool)\n  {\n    require(tournamentExists[_tournamentAddress]);\n    require(submissionExists[_submissionAddress]);\n    require(addressToOwnsSubmission[msg.sender][_submissionAddress]);\n\n      IMatryxSubmission submission = IMatryxSubmission(_submissionAddress);\n      address owner = Ownable(_submissionAddress).getOwner();\n      uint256 submissionIndex = ownerToSubmissionToSubmissionIndex[owner][_submissionAddress].value;\n\n      submissionExists[_submissionAddress] = false;\n      delete ownerToSubmissionArray[owner][submissionIndex];\n      delete ownerToSubmissionToSubmissionIndex[owner][_submissionAddress];\n\n      IMatryxTournament(_tournamentAddress).removeSubmission(_submissionAddress, owner);\n      return true;\n  }\n\n  function addTournamentToCategory(address _tournamentAddress, string _category) public onlyTournamentOwnerOrPlatform(_tournamentAddress)\n  {\n    bytes32 categoryHash = sha3(_category);\n    if(categoryExists[categoryHash] == false)\n    {\n      categoryList.push(_category);\n    }\n\n    if(tournamentExistsInCategory[categoryHash][_tournamentAddress] == false)\n    {\n      tournamentExistsInCategory[categoryHash][_tournamentAddress] = true;\n      tournamentAddressToCategoryInfo[_tournamentAddress].category = _category;\n      tournamentAddressToCategoryInfo[_tournamentAddress].index = (categoryHashToTournamentList[categoryHash]).length;\n      categoryHashToTournamentList[categoryHash].push(_tournamentAddress);\n    }\n  }\n\n  function removeTournamentFromCategory(address _tournamentAddress, string _category) public onlyTournamentOwnerOrPlatform(_tournamentAddress)\n  {\n    bytes32 categoryHash = sha3(_category);\n    if(tournamentExistsInCategory[categoryHash][_tournamentAddress])\n    {\n      // It's there! Let's remove it\n      uint256 indexInCategoryList = tournamentAddressToCategoryInfo[_tournamentAddress].index;\n      tournamentExistsInCategory[categoryHash][_tournamentAddress] = false;\n      categoryHashToTournamentList[categoryHash][indexInCategoryList] = 0x0;\n      tournamentAddressToCategoryInfo[_tournamentAddress].index = 0;\n      emptyCountByCategory[categoryHash] = emptyCountByCategory[categoryHash].add(1);\n    }\n  }\n\n  function switchTournamentCategory(address _tournamentAddress, string _oldCategory, string _newCategory) public onlyTournamentOwnerOrPlatform(_tournamentAddress)\n  {\n    removeTournamentFromCategory(_tournamentAddress, _oldCategory);\n    addTournamentToCategory(_tournamentAddress, _newCategory);\n  }\n\n  function getTournamentsByCategory(string _category) external view returns (address[])\n  {\n    return categoryHashToTournamentList[sha3(_category)];\n  }\n\n  function getCategoryCount(string _category) external view returns (uint256)\n  {\n    bytes32 categoryHash = sha3(_category);\n    return categoryHashToTournamentList[categoryHash].length - emptyCountByCategory[categoryHash];\n  }\n\n  function getCategoryByIndex(uint256 _index) public view returns (string)\n  {\n    return categoryList[_index];\n  }\n\n  // function switchTournamentCategory(string discipline) onlyTournament public\n  // {\n  //   revert();\n  // }\n\n  /* \n   * Tournament Entry Methods\n   */\n\n  /// @dev Enter the user into a tournament and charge the entry fee.\n  /// @param _tournamentAddress Address of the tournament to enter into.\n  /// @return _success Whether or not user was successfully entered into the tournament.\n  function enterTournament(address _tournamentAddress) public onlyPeerLinked(msg.sender) returns (bool _success)\n  {\n      require(tournamentExists[_tournamentAddress]);\n      \n      IMatryxTournament tournament = IMatryxTournament(_tournamentAddress);\n      uint256 entryFee = tournament.getEntryFee();\n\n      bool success = IMatryxToken(matryxTokenAddress).transferFrom(msg.sender, _tournamentAddress, entryFee);\n      if(success)\n      {\n        success = tournament.enterUserInTournament(msg.sender);\n        if(success)\n        {\n          UserEnteredTournament(msg.sender, _tournamentAddress);\n        }\n      }\n\n      return success;\n  }\n\n  /* \n   * Tournament Admin Methods\n   */\n\n  /// @dev Create a new tournament.\n  /// @param tournamentData Data to populate the new tournament with. Includes:\n  ///    category: Discipline the tournament falls under.\n  ///    title: Name of the new tournament.\n  ///    contentHash: Off-chain content hash of tournament details (ipfs hash)\n  ///    Bounty: Total tournament reward in MTX.\n  ///    entryFee: Fee to charge participant upon entering into the tournament.\n  /// @param roundData Data to populate the first round of the tournament with. Includes:\n  ///    startTime: The start time (unix-epoch-based) of the first round.\n  ///    endTime: The end time (unix-epoch-based) of the first round.\n  ///    reviewDuration: The amount of the tournament owner has to determine the winners of the round.\n  ///    bounty: The reward for the first round's winners.\n  /// @return _tournamentAddress Address of the newly created tournament.\n  function createTournament(string _category, LibConstruction.TournamentData tournamentData, LibConstruction.RoundData roundData) returns (address _tournamentAddress)\n  {\n    IMatryxTournamentFactory tournamentFactory = IMatryxTournamentFactory(matryxTournamentFactoryAddress);\n    address newTournament = tournamentFactory.createTournament(_category, tournamentData, roundData, msg.sender);\n    //MatryxToken.transferFrom(newTournament, **round_address**, uint256 bounty);\n    TournamentCreated(_category, msg.sender, newTournament, tournamentData.title_1, tournamentData.title_2, tournamentData.title_3, tournamentData.descriptionHash_1, tournamentData.descriptionHash_2, tournamentData.bounty, tournamentData.entryFee);\n    \n    require(IMatryxToken(matryxTokenAddress).transferFrom(msg.sender, newTournament, tournamentData.bounty));\n    IMatryxTournament(newTournament).sendBountyToRound(0, roundData.bounty);\n    //update data structures\n    allTournaments.push(newTournament);\n    tournamentExists[newTournament] = true;\n    updateUsersTournaments(msg.sender, newTournament);\n\n    addTournamentToCategory(newTournament, _category);\n\n    return newTournament;\n  }\n\n  /*\n   * Access Control Methods\n   */\n\n  function createPeer() public returns (address)\n  {\n    require(ownerToPeerAndPeerToOwner[msg.sender] == 0x0);\n    IMatryxPeerFactory peerFactory = IMatryxPeerFactory(matryxPeerFactoryAddress);\n    address peer = peerFactory.createPeer(msg.sender);\n    peerExists[peer] = true;\n    ownerToPeerAndPeerToOwner[msg.sender] = peer;\n    ownerToPeerAndPeerToOwner[peer] = msg.sender;\n  }\n\n  function isPeer(address _peerAddress) public constant returns (bool)\n  {\n    return peerExists[_peerAddress];\n  }\n\n  function hasPeer(address _sender) public constant returns (bool)\n  {\n    return (ownerToPeerAndPeerToOwner[_sender] != 0x0);\n  }\n\n  function peerExistsAndOwnsSubmission(address _peer, address _reference) public constant returns (bool)\n  {\n    bool isAPeer = peerExists[_peer];\n    bool referenceIsSubmission = submissionExists[_reference];\n    bool peerOwnsSubmission = addressToOwnsSubmission[ownerToPeerAndPeerToOwner[_peer]][_reference];\n\n    return isAPeer && referenceIsSubmission && peerOwnsSubmission;\n  }\n\n  function peerAddress(address _sender) public constant returns (address)\n  {\n    return ownerToPeerAndPeerToOwner[_sender];\n  }\n\n  function isSubmission(address _submissionAddress) public constant returns (bool)\n  {\n    return submissionExists[_submissionAddress];\n  }\n\n  function hashForCategory(bytes32 _categoryHash) public constant returns (string _category)\n  {\n    return \"temporary category\";\n  }\n\n  /// @dev Returns whether or not the given tournament belongs to the sender.\n  /// @param _tournamentAddress Address of the tournament to check.\n  /// @return _isMine Whether or not the tournament belongs to the sender.\n  function getTournament_IsMine(address _tournamentAddress) public constant returns (bool _isMine)\n  {\n    require(tournamentExists[_tournamentAddress]);\n    Ownable tournament = Ownable(_tournamentAddress);\n    return (tournament.getOwner() == msg.sender);\n  }\n\n  /*\n   * Setter Methods\n   */ \n\n  /// @dev              Set the relative amount of MTX to be delivered to a submission's\n  ///                   references\n  /// @param _gratitude Weight from 0 to 1 (18 decimal uint) specifying enforced submission\n  ///                   gratitude\n  function setSubmissionGratitude(uint256 _gratitude) public onlyOwner\n  {\n      assert(_gratitude >= 0 && _gratitude <= (1*10**18));\n      submissionGratitude = uint256_optional({exists: true, value: _gratitude});\n  }\n\n  event TimeStamp(uint256 time);\n\n  function getNow() public view returns (uint256)\n  {\n    emit TimeStamp(now);\n    return now;\n  }\n\n  /*\n   * Getter Methods\n   */\n\n   function getTokenAddress() public constant returns (address)\n   {\n      return matryxTokenAddress;\n   }\n\n   function getTournamentFactoryAddress() public view returns (address)\n   {\n      return matryxTournamentFactoryAddress;\n   }\n\n   function getSubmissionTrustLibrary() public constant returns (address)\n   {\n      return matryxSubmissionTrustLibAddress;\n   }\n\n   /// @dev    Returns a weight from 0 to 1 (18 decimal uint) indicating\n   ///         how much of a submission's reward goes to its references.\n   /// @return Relative amount of MTX going to references of submissions under this tournament.\n   function getSubmissionGratitude() public constant returns (uint256)\n   {\n    require(submissionGratitude.exists);\n    return submissionGratitude.value;\n   }\n\n   /// @dev Returns addresses for submissions the sender has created.\n   /// @return Address array representing submissions.\n   function myTournaments() public constant returns (address[])\n   {\n    return ownerToTournamentArray[msg.sender];\n   }\n\n   function mySubmissions() public constant returns (address[])\n   {\n    return ownerToSubmissionArray[msg.sender];\n   }\n\n   /// @dev Returns the total number of tournaments\n   /// @return _tournamentCount Total number of tournaments.\n   function tournamentCount() public constant returns (uint256 _tournamentCount)\n   {\n       return allTournaments.length;\n   }\n \n   function getTournamentAtIndex(uint256 _index) public constant returns (address _tournamentAddress)\n   {\n     require(_index >= 0);\n     require(_index < allTournaments.length);\n     return allTournaments[_index];\n   }\n\n   function getTournaments() public view returns (address[])\n   {\n    return allTournaments;\n   }\n\n   function forceRevert(){\n    revert();\n   }\n}",
  "sourcePath": "/Users/maxhoward/Desktop/Ethereum/Development/Matryx/Projects/MatryxPlatform/contracts/MatryxPlatform.sol",
  "compiler": {
    "name": "solc",
    "version": "0.4.24+commit.e67f0147.Emscripten.clang"
  },
  "schemaVersion": "2.0.0",
  "updatedAt": "2018-06-28T20:53:03.844Z"
}