{
  "contractName": "MatryxTournamentFactory",
  "abi": [
    {
      "constant": true,
      "inputs": [
        {
          "name": "_sender",
          "type": "address"
        }
      ],
      "name": "isOwner",
      "outputs": [
        {
          "name": "_isOwner",
          "type": "bool"
        }
      ],
      "payable": false,
      "stateMutability": "view",
      "type": "function"
    },
    {
      "constant": true,
      "inputs": [],
      "name": "matryxRoundFactoryAddress",
      "outputs": [
        {
          "name": "",
          "type": "address"
        }
      ],
      "payable": false,
      "stateMutability": "view",
      "type": "function"
    },
    {
      "constant": true,
      "inputs": [],
      "name": "getOwner",
      "outputs": [
        {
          "name": "_owner",
          "type": "address"
        }
      ],
      "payable": false,
      "stateMutability": "view",
      "type": "function"
    },
    {
      "constant": true,
      "inputs": [],
      "name": "owner",
      "outputs": [
        {
          "name": "",
          "type": "address"
        }
      ],
      "payable": false,
      "stateMutability": "view",
      "type": "function"
    },
    {
      "constant": true,
      "inputs": [],
      "name": "platformAddress",
      "outputs": [
        {
          "name": "",
          "type": "address"
        }
      ],
      "payable": false,
      "stateMutability": "view",
      "type": "function"
    },
    {
      "constant": false,
      "inputs": [
        {
          "name": "newOwner",
          "type": "address"
        }
      ],
      "name": "transferOwnership",
      "outputs": [],
      "payable": false,
      "stateMutability": "nonpayable",
      "type": "function"
    },
    {
      "inputs": [
        {
          "name": "_matryxRoundFactoryAddress",
          "type": "address"
        }
      ],
      "payable": false,
      "stateMutability": "nonpayable",
      "type": "constructor"
    },
    {
      "constant": false,
      "inputs": [
        {
          "components": [
            {
              "name": "category",
              "type": "bytes32"
            },
            {
              "name": "title",
              "type": "bytes32[3]"
            },
            {
              "name": "descriptionHash",
              "type": "bytes32[2]"
            },
            {
              "name": "fileHash",
              "type": "bytes32[2]"
            },
            {
              "name": "initialBounty",
              "type": "uint256"
            },
            {
              "name": "entryFee",
              "type": "uint256"
            }
          ],
          "name": "tournamentData",
          "type": "tuple"
        },
        {
          "components": [
            {
              "name": "start",
              "type": "uint256"
            },
            {
              "name": "end",
              "type": "uint256"
            },
            {
              "name": "reviewPeriodDuration",
              "type": "uint256"
            },
            {
              "name": "bounty",
              "type": "uint256"
            },
            {
              "name": "closed",
              "type": "bool"
            }
          ],
          "name": "roundData",
          "type": "tuple"
        },
        {
          "name": "_owner",
          "type": "address"
        }
      ],
      "name": "createTournament",
      "outputs": [
        {
          "name": "_tournamentAddress",
          "type": "address"
        }
      ],
      "payable": false,
      "stateMutability": "nonpayable",
      "type": "function"
    },
    {
      "constant": false,
      "inputs": [
        {
          "name": "_platformAddress",
          "type": "address"
        }
      ],
      "name": "setPlatform",
      "outputs": [],
      "payable": false,
      "stateMutability": "nonpayable",
      "type": "function"
    }
  ],
  "bytecode": "0x608060405234801561001057600080fd5b50604051602080611c94833981018060405261002f9190810190610075565b6000805433600160a060020a03199182161790915560028054909116600160a060020a03929092169190911790556100a7565b600061006e825161009b565b9392505050565b60006020828403121561008757600080fd5b60006100938484610062565b949350505050565b600160a060020a031690565b611bde806100b66000396000f300608060405260043610620000965763ffffffff7c010000000000000000000000000000000000000000000000000000000060003504166302f47d6781146200009b5780632f54bf6e14620000d85780636945c5ea146200010c5780636fe564201462000133578063893d20e8146200014b5780638da5cb5b1462000163578063dbe55e56146200017b578063f2fde38b1462000193575b600080fd5b348015620000a857600080fd5b50620000c0620000ba36600462000636565b620001b8565b604051620000cf91906200083f565b60405180910390f35b348015620000e557600080fd5b50620000fd620000f73660046200060d565b62000222565b604051620000cf9190620008ad565b3480156200011957600080fd5b50620001316200012b3660046200060d565b62000243565b005b3480156200014057600080fd5b50620000c0620002af565b3480156200015857600080fd5b50620000c0620002cb565b3480156200017057600080fd5b50620000c0620002e7565b3480156200018857600080fd5b50620000c062000303565b348015620001a057600080fd5b5062000131620001b23660046200060d565b6200031f565b6001546002546000918291849173ffffffffffffffffffffffffffffffffffffffff90811691168787620001eb620003ae565b620001fb95949392919062000855565b604051809103906000f08015801562000218573d6000803e3d6000fd5b5095945050505050565b60005473ffffffffffffffffffffffffffffffffffffffff91821691161490565b60005473ffffffffffffffffffffffffffffffffffffffff1633146200026857600080fd5b600180547fffffffffffffffffffffffff00000000000000000000000000000000000000001673ffffffffffffffffffffffffffffffffffffffff92909216919091179055565b60025473ffffffffffffffffffffffffffffffffffffffff1681565b60005473ffffffffffffffffffffffffffffffffffffffff1690565b60005473ffffffffffffffffffffffffffffffffffffffff1681565b60015473ffffffffffffffffffffffffffffffffffffffff1681565b60005473ffffffffffffffffffffffffffffffffffffffff1633146200034457600080fd5b73ffffffffffffffffffffffffffffffffffffffff811615156200036757600080fd5b600080547fffffffffffffffffffffffff00000000000000000000000000000000000000001673ffffffffffffffffffffffffffffffffffffffff92909216919091179055565b60405161126d806200093883390190565b6000620003cd823562000919565b9392505050565b6000601f82018313620003e657600080fd5b6002620003fd620003f782620008e5565b620008bd565b915081838560208402820111156200041457600080fd5b60005b838110156200044457816200042d8882620004c6565b845250602092830192919091019060010162000417565b5050505092915050565b6000601f820183136200046057600080fd5b600362000471620003f782620008e5565b915081838560208402820111156200048857600080fd5b60005b83811015620004445781620004a18882620004c6565b84525060209283019291909101906001016200048b565b6000620003cd823562000932565b6000620003cd823562000904565b600060a08284031215620004e757600080fd5b620004f360a0620008bd565b90506000620005038484620004c6565b82525060206200051684848301620004c6565b60208301525060406200052c84828501620004c6565b60408301525060606200054284828501620004c6565b60608301525060806200055884828501620004b8565b60808301525092915050565b600061014082840312156200057857600080fd5b6200058460c0620008bd565b90506000620005948484620004c6565b8252506020620005a7848483016200044e565b6020830152506080620005bd84828501620003d4565b60408301525060c0620005d384828501620003d4565b606083015250610100620005ea84828501620004c6565b6080830152506101206200060184828501620004c6565b60a08301525092915050565b6000602082840312156200062057600080fd5b60006200062e8484620003bf565b949350505050565b600080600061020084860312156200064d57600080fd5b60006200065b868662000564565b9350506101406200066f86828701620004d4565b9250506101e06200068386828701620003bf565b9150509250925092565b620006988162000919565b82525050565b620006a98162000907565b620006b48262000904565b60005b82811015620006ea57620006cd85835162000748565b620006d88262000913565b602095909501949150600101620006b7565b5050505050565b620006fc816200090d565b620007078262000904565b60005b82811015620006ea576200072085835162000748565b6200072b8262000913565b6020959095019491506001016200070a565b620006988162000932565b620006988162000904565b805160a083019062000766848262000748565b5060208201516200077b602085018262000748565b50604082015162000790604085018262000748565b506060820151620007a5606085018262000748565b506080820151620007ba60808501826200073d565b50505050565b8051610140830190620007d4848262000748565b506020820151620007e96020850182620006f1565b506040820151620007fe60808501826200069e565b5060608201516200081360c08501826200069e565b5060808201516200082961010085018262000748565b5060a0820151620007ba61012085018262000748565b602081016200084f82846200068d565b92915050565b61024081016200086682886200068d565b6200087560208301876200068d565b6200088460408301866200068d565b620008936060830185620007c0565b620008a36101a083018462000753565b9695505050505050565b602081016200084f82846200073d565b60405181810167ffffffffffffffff81118282101715620008dd57600080fd5b604052919050565b600067ffffffffffffffff821115620008fd57600080fd5b5060200290565b90565b50600290565b50600390565b60200190565b73ffffffffffffffffffffffffffffffffffffffff1690565b151590560060806040523480156200001157600080fd5b50604051610240806200126d833981018060405262000034919081019062000417565b60c05115156200004357600080fd5b60805115156200005257600080fd5b6101005115156200006257600080fd5b6101e0516000106200007357600080fd5b60008581556001859055600284905560e051600355610100516004908155610120516005556101405160065561016051600755610180516008556101a0516009556101c051600a556101e051600b5561020051600c556040517f10fe9ae80000000000000000000000000000000000000000000000000000000080825260a0517c010000000000000000000000000000000000000000000000000000000094919360209284928391905af18015156200012b57600080fd5b81518463cfa037dc029350838352600d600484015260a051602484015280604484015260c05160648401526102205160848401526102405160a48401526102605160c48401526102805160e48401526102a05161010484015260016101248401526020836101448573__LibTournamentAdminMethods_____________5af49150811515620001b957600080fd5b50505050505050505050620004f2565b6000620001d78251620004de565b9392505050565b6000601f82018313620001f057600080fd5b6002620002076200020182620004c0565b62000499565b915081838560208402820111156200021e57600080fd5b60005b838110156200024e5781620002378882620002d0565b845250602092830192919091019060010162000221565b5050505092915050565b6000601f820183136200026a57600080fd5b60036200027b6200020182620004c0565b915081838560208402820111156200029257600080fd5b60005b838110156200024e5781620002ab8882620002d0565b845250602092830192919091019060010162000295565b6000620001d78251620004ea565b6000620001d78251620004ef565b600060a08284031215620002f157600080fd5b620002fd60a062000499565b905060006200030d8484620002d0565b82525060206200032084848301620002d0565b60208301525060406200033684828501620002d0565b60408301525060606200034c84828501620002d0565b60608301525060806200036284828501620002c2565b60808301525092915050565b600061014082840312156200038257600080fd5b6200038e60c062000499565b905060006200039e8484620002d0565b8252506020620003b18484830162000258565b6020830152506080620003c784828501620001de565b60408301525060c0620003dd84828501620001de565b606083015250610100620003f484828501620002d0565b6080830152506101206200040b84828501620002d0565b60a08301525092915050565b600080600080600061024086880312156200043157600080fd5b60006200043f8888620001c9565b95505060206200045288828901620001c9565b94505060406200046588828901620001c9565b935050606062000478888289016200036e565b9250506101a06200048c88828901620002de565b9150509295509295909350565b6040518181016001604060020a0381118282101715620004b857600080fd5b604052919050565b60006001604060020a03821115620004d757600080fd5b5060200290565b600160a060020a031690565b151590565b90565b610d6b80620005026000396000f300608060405234801561001057600080fd5b507c01000000000000000000000000000000000000000000000000000000008060003504632fc1f19081146101c6576310fe9ae881146101d357634644c51b81146101ce576352c01fab81146101e457638c1fc0bb81146101f957638a19c8bc811461020e576380258e47811461021b5763ff3c1a8f81146102235763245edf06811461022b57638493f71f81146102335763f49bff7b811461023b576312065fe081146102475763e586a4f08114610253576345df1945811461025b5763e139a20c811461026457636ec02be9811461026c576389f3beb681146102745763d60561ce811461027c57636984d070811461028557631865c57d811461028d57633bc5de3081146102995763583c3a9281146102a15763d683084681146102aa5763072a456081146102b35763c2f897bf81146102bc57639baec20781146102c5576367f69ab181146102ce576323721e2481146102d7576328d576d781146102e05763fa8f3ac581146102e95763542fe6c281146102f25763893d20e881146102fb57632f54bf6e81146103035763f2fde38b811461030b5761dead6000526002601ea060003560005260046000a060206000f35b6101ce610467565b610313565b6101ce6101df83610477565b610328565b6101ce6101df6101f46000610319565b6104a4565b6101ce6101df6102096000610319565b6104bb565b60406102198361069e565bf35b6101ce6105bc565b6101ce6105cc565b6101ce6105f1565b6101ce61060b565b6101ce6101df83610625565b6101ce6101df83610643565b6101ce61068d565b6101ce82610b1b565b6101ce6106da565b6101ce610738565b6101ce610749565b6101ce8261075a565b6101ce6104d2565b6101ce6101df83610520565b6101ce61055c565b6101ce826107bb565b6101ce82610837565b6101ce8261088c565b6101ce826108ef565b6101ce82610935565b6101ce82610991565b6101ce82610a06565b6101ce82610aa8565b6101ce82610b6e565b6101ce82610c82565b6101ce610cdd565b6101ce610ced565b610313610d09565b50610323565b6020026004013590565b610332565b8060005260206000f35b610346565b80151561034357600080fd5b50565b610361565b600061035c82841483851017610337565b500390565b61037e565b80820161037881831482841017610337565b92915050565b610392565b6103903360005414610337565b565b6103a4565b6103903360015414610337565b6103ba565b6103906103b5336104bb565b610337565b6103f4565b6001548263532311c402600052336004526103e4602060006044600080865af1610337565b6103ef600051610337565b505050565b610405565b6103906103b5336104a4565b610423565b61041381610520565b61041f60028214610337565b5050565b610462565b60206104338261069e565b015181631865c57d02600052610453602060006004600080865af1610337565b61041f60016000511415610337565b610472565b610390600154610328565b61049f565b600080826310fe9ae802815261049860208260048460006001545af1610337565b5192915050565b6104b6565b60009081526016602052604090205490565b6104cd565b6000908152600e602052604090205490565b61051b565b600d6000526020600020600d54604051806020825260208201915082825260005b8381101561051057848101546020939093019283526001016104f3565b506020830260400181f35b610557565b635726b16f81026000908152600d6004528061049860208260248173__LibTournamentStateManagement__________5af4610337565b6105b7565b6040805160035481526004546020820152600554918101919091526006546060820152600754608082015260085460a082015260095460c0820152600a5460e0820152600b54610100820152600c5461012082015261014081f35b6105c7565b610390600354610328565b6105ec565b604080516004548152600554602082015260065491810191909152606081f35b610606565b60408051600754815260085460208201529081f35b610620565b604080516009548152600a5460208201529081f35b61063e565b60006103786003600d015461063984610643565b610366565b610688565b600061064e82610477565b6370a08231830260009081523060045261067060208260248180875af1610337565b6106806002600d0154825161034b565b949350505050565b610699565b600c5461039090610328565b6106d5565b630386922b81026000908152600d6004528061037860408260248173__LibTournamentStateManagement__________5af4610337565b610733565b3360005260026012016020526040600020806000526020600020815460208160020102604051806020825260208201915083825260005b8481101561072e5785810154602093909301928352600101610711565b508281f35b610744565b60135461039090610328565b610755565b60175461039090610328565b6107b6565b610762610383565b604051808263b43475ff02825260036004830152602482019150610140600483376101408201915060015482526103ef602060006101848473__LibTournamentAdminMethods_____________5af4610337565b610832565b6107c3610383565b6040518163d06b5924028152600d600482015260015460248201526107e782610477565b604482015260043603806004606484013760648281018051606001815291019061082c60206000848673__LibTournamentAdminMethods_____________5af4610337565b50505050565b610887565b61083f610383565b61084881610477565b6040518263672ec62302815236600060048301378160c48201526103ef60008060e48473__LibTournamentAdminMethods_____________5af4610337565b6108ea565b610894610383565b61089d81610477565b60405182635fd45f0b028152600d60048201526108ba6000610319565b60248201528160448201526103ef60008060648473__LibTournamentAdminMethods_____________5af4610337565b610930565b6108f7610383565b6040518163af410949028152600d600482015261041f6020600060248473__LibTournamentAdminMethods_____________5af4610337565b61098c565b61093d610383565b60405161094982610477565b8263a91d59d60282526003600483015260015460248301528060448301526103ef60008060648573__LibTournamentAdminMethods_____________5af4610337565b610a01565b6109996103a9565b6040516109a582610477565b8263cfa037dc028252600d60048301526001546024830152806044830152600254606483015260043603600460848401376109fc6020836101448573__LibTournamentAdminMethods_____________5af4610337565b602082f35b610aa3565b610a0e610397565b610a186000610319565b610a226001610319565b6003600d01610a32828254610366565b8155600d6000527fd7b6990105719101dabeb77144f2a3385c8033acd3af97e9423a695e81ad1eb5610a648482610366565b54610a6e86610477565b6040518763a9059cbb028152826004820152856024820152610a996000806044846000875af1610337565b5050505050505050565b610b16565b610ab0610397565b610ab98161040a565b610ac36000610319565b6040518263a09c5c9902815260036004820152600d602482015260126044820152816064820152610b106020600060848473__LibTournamentEntrantMethods___________5af4610337565b60206000f35b610b69565b610b2481610477565b6040518263ff4fef08028152600d6004820152601260248201528160448201526103ef60008060648473__LibTournamentEntrantMethods___________5af4610337565b610c7d565b610b766103f9565b610b8081336103bf565b610b8981610428565b610b928161040a565b6020610b9d8261069e565b015160405180836309d1ebd002825260015460048301528260248301526012604483015261012060046064840137610bf16020826101848573__LibTournamentEntrantMethods___________5af4610337565b610bfb6009610319565b60040180356020820135604083013582840135828501358286013560008111600084111715610c7857610c2f828414610337565b6020890198508a630a181f52028952600489019850602089526020600682848601010102808860208c0137602481019050610c766000808360048e0360008e515af1610337565b505b602088f35b610cd8565b610c8a6103f9565b610c9381610477565b6040518263ddc23bd0028152600d6004820152601260248201528160448201526103ef60008060648473__LibTournamentEntrantMethods___________5af4610337565b610ce8565b610390600054610328565b610d04565b610cf76000610319565b6103438160005414610328565b610d2e565b610d136000610319565b610d203360005414610337565b610d2981610337565b600055565b500000a265627a7a723058206e590c5413c265a1f9274fc91aa3abac460bc7593f60bada493d276ef587a22c6c6578706572696d656e74616cf50037a265627a7a72305820164c2d1edf9e0940dd19a1b92100cb922719ba082ed2bbf3c8459424a5055ae46c6578706572696d656e74616cf50037",
  "source": "pragma solidity ^0.4.18;\npragma experimental ABIEncoderV2;\n\nimport \"../../libraries/LibConstruction.sol\";\nimport \"../../interfaces/IMatryxPlatform.sol\";\nimport \"../JMatryxTournament.sol\";\nimport \"../Ownable.sol\";\n\ncontract MatryxTournamentFactory is Ownable {\n    address public platformAddress;\n    address public matryxRoundFactoryAddress;\n\n    constructor(address _matryxRoundFactoryAddress) public {\n        matryxRoundFactoryAddress = _matryxRoundFactoryAddress;\n    }\n\n    function createTournament(LibConstruction.TournamentData tournamentData, LibConstruction.RoundData roundData, address _owner) public returns (address _tournamentAddress) {\n        JMatryxTournament newTournament = new JMatryxTournament(_owner, platformAddress, matryxRoundFactoryAddress, tournamentData, roundData);\n        return newTournament;\n    }\n\n    function setPlatform(address _platformAddress) public onlyOwner\n    {\n        platformAddress = _platformAddress;\n    }\n}\n",
  "sourcePath": "/Users/maxhoward/Desktop/Ethereum/MatryxPlatform/contracts/factories/MatryxTournamentFactory.sol",
  "compiler": {
    "name": "solc",
    "version": "0.4.24+commit.e67f0147.Emscripten.clang"
  },
  "schemaVersion": "2.0.1",
  "updatedAt": "2018-08-15T21:03:24.261Z"
}