{
  "contractName": "MatryxPlatform",
  "abi": [
    {
      "constant": true,
      "inputs": [],
      "name": "matryxTokenAddress",
      "outputs": [
        {
          "name": "",
          "type": "address"
        }
      ],
      "payable": false,
      "stateMutability": "view",
      "type": "function"
    },
    {
      "constant": true,
      "inputs": [
        {
          "name": "_sender",
          "type": "address"
        }
      ],
      "name": "isOwner",
      "outputs": [
        {
          "name": "_isOwner",
          "type": "bool"
        }
      ],
      "payable": false,
      "stateMutability": "view",
      "type": "function"
    },
    {
      "constant": true,
      "inputs": [
        {
          "name": "",
          "type": "bytes32"
        },
        {
          "name": "",
          "type": "uint256"
        }
      ],
      "name": "tournamentByCategory",
      "outputs": [
        {
          "name": "",
          "type": "address"
        }
      ],
      "payable": false,
      "stateMutability": "view",
      "type": "function"
    },
    {
      "constant": true,
      "inputs": [
        {
          "name": "",
          "type": "bytes32"
        }
      ],
      "name": "categoryCount",
      "outputs": [
        {
          "name": "",
          "type": "uint256"
        }
      ],
      "payable": false,
      "stateMutability": "view",
      "type": "function"
    },
    {
      "constant": true,
      "inputs": [],
      "name": "getOwner",
      "outputs": [
        {
          "name": "_owner",
          "type": "address"
        }
      ],
      "payable": false,
      "stateMutability": "view",
      "type": "function"
    },
    {
      "constant": false,
      "inputs": [
        {
          "name": "_queryID",
          "type": "uint256"
        },
        {
          "name": "_response",
          "type": "uint256"
        }
      ],
      "name": "storeQueryResponse",
      "outputs": [
        {
          "name": "success",
          "type": "bool"
        }
      ],
      "payable": false,
      "stateMutability": "nonpayable",
      "type": "function"
    },
    {
      "constant": true,
      "inputs": [],
      "name": "owner",
      "outputs": [
        {
          "name": "",
          "type": "address"
        }
      ],
      "payable": false,
      "stateMutability": "view",
      "type": "function"
    },
    {
      "constant": true,
      "inputs": [
        {
          "name": "",
          "type": "uint256"
        }
      ],
      "name": "categories",
      "outputs": [
        {
          "name": "",
          "type": "string"
        }
      ],
      "payable": false,
      "stateMutability": "view",
      "type": "function"
    },
    {
      "constant": true,
      "inputs": [
        {
          "name": "",
          "type": "uint256"
        }
      ],
      "name": "allTournaments",
      "outputs": [
        {
          "name": "",
          "type": "address"
        }
      ],
      "payable": false,
      "stateMutability": "view",
      "type": "function"
    },
    {
      "constant": false,
      "inputs": [
        {
          "name": "_query",
          "type": "bytes32"
        },
        {
          "name": "_sender",
          "type": "address"
        }
      ],
      "name": "Query",
      "outputs": [],
      "payable": false,
      "stateMutability": "nonpayable",
      "type": "function"
    },
    {
      "constant": false,
      "inputs": [
        {
          "name": "newOwner",
          "type": "address"
        }
      ],
      "name": "transferOwnership",
      "outputs": [],
      "payable": false,
      "stateMutability": "nonpayable",
      "type": "function"
    },
    {
      "inputs": [
        {
          "name": "_matryxTokenAddress",
          "type": "address"
        },
        {
          "name": "_matryxPeerFactoryAddress",
          "type": "address"
        },
        {
          "name": "_matryxTournamentFactoryAddress",
          "type": "address"
        },
        {
          "name": "_matryxSubmissionTrustLibAddress",
          "type": "address"
        }
      ],
      "payable": false,
      "stateMutability": "nonpayable",
      "type": "constructor"
    },
    {
      "anonymous": false,
      "inputs": [
        {
          "indexed": false,
          "name": "_discipline",
          "type": "string"
        },
        {
          "indexed": false,
          "name": "_owner",
          "type": "address"
        },
        {
          "indexed": false,
          "name": "_tournamentAddress",
          "type": "address"
        },
        {
          "indexed": false,
          "name": "_tournamentName",
          "type": "string"
        },
        {
          "indexed": false,
          "name": "_externalAddress",
          "type": "bytes"
        },
        {
          "indexed": false,
          "name": "_MTXReward",
          "type": "uint256"
        },
        {
          "indexed": false,
          "name": "_entryFee",
          "type": "uint256"
        }
      ],
      "name": "TournamentCreated",
      "type": "event"
    },
    {
      "anonymous": false,
      "inputs": [
        {
          "indexed": false,
          "name": "_owner",
          "type": "address"
        },
        {
          "indexed": false,
          "name": "_tournamentAddress",
          "type": "address"
        },
        {
          "indexed": false,
          "name": "_tournamentName",
          "type": "string"
        },
        {
          "indexed": false,
          "name": "_externalAddress",
          "type": "bytes"
        },
        {
          "indexed": false,
          "name": "_MTXReward",
          "type": "uint256"
        },
        {
          "indexed": false,
          "name": "_entryFee",
          "type": "uint256"
        }
      ],
      "name": "TournamentOpened",
      "type": "event"
    },
    {
      "anonymous": false,
      "inputs": [
        {
          "indexed": false,
          "name": "_tournamentAddress",
          "type": "address"
        },
        {
          "indexed": false,
          "name": "_finalRoundNumber",
          "type": "uint256"
        },
        {
          "indexed": false,
          "name": "_winningSubmissionAddress",
          "type": "address"
        },
        {
          "indexed": false,
          "name": "_MTXReward",
          "type": "uint256"
        }
      ],
      "name": "TournamentClosed",
      "type": "event"
    },
    {
      "anonymous": false,
      "inputs": [
        {
          "indexed": false,
          "name": "_entrant",
          "type": "address"
        },
        {
          "indexed": false,
          "name": "_tournamentAddress",
          "type": "address"
        }
      ],
      "name": "UserEnteredTournament",
      "type": "event"
    },
    {
      "anonymous": false,
      "inputs": [
        {
          "indexed": false,
          "name": "queryID",
          "type": "string"
        }
      ],
      "name": "QueryID",
      "type": "event"
    },
    {
      "anonymous": false,
      "inputs": [
        {
          "indexed": false,
          "name": "id",
          "type": "uint256"
        },
        {
          "indexed": false,
          "name": "sender",
          "type": "address"
        }
      ],
      "name": "QueryPerformed",
      "type": "event"
    },
    {
      "anonymous": false,
      "inputs": [
        {
          "indexed": false,
          "name": "storedResponse",
          "type": "uint256"
        }
      ],
      "name": "StoredResponse",
      "type": "event"
    },
    {
      "anonymous": false,
      "inputs": [
        {
          "indexed": false,
          "name": "response",
          "type": "uint256"
        }
      ],
      "name": "ObtainedResponse",
      "type": "event"
    },
    {
      "anonymous": false,
      "inputs": [
        {
          "indexed": false,
          "name": "newResponse",
          "type": "uint256"
        },
        {
          "indexed": false,
          "name": "oldResponse",
          "type": "uint256"
        }
      ],
      "name": "FailedToStore",
      "type": "event"
    },
    {
      "anonymous": false,
      "inputs": [
        {
          "indexed": false,
          "name": "id",
          "type": "uint256"
        }
      ],
      "name": "QueryID",
      "type": "event"
    },
    {
      "constant": false,
      "inputs": [
        {
          "name": "_owner",
          "type": "address"
        },
        {
          "name": "_tournamentAddress",
          "type": "address"
        },
        {
          "name": "_tournamentName",
          "type": "string"
        },
        {
          "name": "_externalAddress",
          "type": "bytes"
        },
        {
          "name": "_MTXReward",
          "type": "uint256"
        },
        {
          "name": "_entryFee",
          "type": "uint256"
        }
      ],
      "name": "invokeTournamentOpenedEvent",
      "outputs": [],
      "payable": false,
      "stateMutability": "nonpayable",
      "type": "function"
    },
    {
      "constant": false,
      "inputs": [
        {
          "name": "_tournamentAddress",
          "type": "address"
        },
        {
          "name": "_finalRoundNumber",
          "type": "uint256"
        },
        {
          "name": "_winningSubmissionAddress",
          "type": "address"
        },
        {
          "name": "_MTXReward",
          "type": "uint256"
        }
      ],
      "name": "invokeTournamentClosedEvent",
      "outputs": [],
      "payable": false,
      "stateMutability": "nonpayable",
      "type": "function"
    },
    {
      "constant": false,
      "inputs": [
        {
          "name": "_toIgnore",
          "type": "uint256"
        }
      ],
      "name": "prepareBalance",
      "outputs": [],
      "payable": false,
      "stateMutability": "nonpayable",
      "type": "function"
    },
    {
      "constant": true,
      "inputs": [],
      "name": "balanceIsNonZero",
      "outputs": [
        {
          "name": "",
          "type": "bool"
        }
      ],
      "payable": false,
      "stateMutability": "view",
      "type": "function"
    },
    {
      "constant": true,
      "inputs": [],
      "name": "getBalance",
      "outputs": [
        {
          "name": "",
          "type": "uint256"
        }
      ],
      "payable": false,
      "stateMutability": "view",
      "type": "function"
    },
    {
      "constant": false,
      "inputs": [
        {
          "name": "_submissionAddress",
          "type": "address"
        },
        {
          "name": "_references",
          "type": "address[]"
        }
      ],
      "name": "handleReferenceRequestsForSubmission",
      "outputs": [
        {
          "name": "",
          "type": "bool"
        }
      ],
      "payable": false,
      "stateMutability": "nonpayable",
      "type": "function"
    },
    {
      "constant": false,
      "inputs": [
        {
          "name": "_reference",
          "type": "address"
        }
      ],
      "name": "handleReferenceRequestForSubmission",
      "outputs": [
        {
          "name": "",
          "type": "bool"
        }
      ],
      "payable": false,
      "stateMutability": "nonpayable",
      "type": "function"
    },
    {
      "constant": false,
      "inputs": [
        {
          "name": "_reference",
          "type": "address"
        }
      ],
      "name": "handleCancelledReferenceRequestForSubmission",
      "outputs": [
        {
          "name": "",
          "type": "bool"
        }
      ],
      "payable": false,
      "stateMutability": "nonpayable",
      "type": "function"
    },
    {
      "constant": false,
      "inputs": [
        {
          "name": "_owner",
          "type": "address"
        },
        {
          "name": "_submission",
          "type": "address"
        }
      ],
      "name": "updateSubmissions",
      "outputs": [],
      "payable": false,
      "stateMutability": "nonpayable",
      "type": "function"
    },
    {
      "constant": false,
      "inputs": [
        {
          "name": "_submissionAddress",
          "type": "address"
        },
        {
          "name": "_tournamentAddress",
          "type": "address"
        }
      ],
      "name": "removeSubmission",
      "outputs": [
        {
          "name": "",
          "type": "bool"
        }
      ],
      "payable": false,
      "stateMutability": "nonpayable",
      "type": "function"
    },
    {
      "constant": false,
      "inputs": [
        {
          "name": "_tournamentAddress",
          "type": "address"
        }
      ],
      "name": "enterTournament",
      "outputs": [
        {
          "name": "_success",
          "type": "bool"
        }
      ],
      "payable": false,
      "stateMutability": "nonpayable",
      "type": "function"
    },
    {
      "constant": false,
      "inputs": [
        {
          "name": "_category",
          "type": "string"
        },
        {
          "name": "_tournamentName",
          "type": "string"
        },
        {
          "name": "_externalAddress",
          "type": "bytes"
        },
        {
          "name": "_BountyMTX",
          "type": "uint256"
        },
        {
          "name": "_entryFee",
          "type": "uint256"
        },
        {
          "name": "_reviewPeriod",
          "type": "uint256"
        }
      ],
      "name": "createTournament",
      "outputs": [
        {
          "name": "_tournamentAddress",
          "type": "address"
        }
      ],
      "payable": false,
      "stateMutability": "nonpayable",
      "type": "function"
    },
    {
      "constant": false,
      "inputs": [],
      "name": "createPeer",
      "outputs": [
        {
          "name": "",
          "type": "address"
        }
      ],
      "payable": false,
      "stateMutability": "nonpayable",
      "type": "function"
    },
    {
      "constant": true,
      "inputs": [
        {
          "name": "_peerAddress",
          "type": "address"
        }
      ],
      "name": "isPeer",
      "outputs": [
        {
          "name": "",
          "type": "bool"
        }
      ],
      "payable": false,
      "stateMutability": "view",
      "type": "function"
    },
    {
      "constant": true,
      "inputs": [
        {
          "name": "_sender",
          "type": "address"
        }
      ],
      "name": "hasPeer",
      "outputs": [
        {
          "name": "",
          "type": "bool"
        }
      ],
      "payable": false,
      "stateMutability": "view",
      "type": "function"
    },
    {
      "constant": true,
      "inputs": [
        {
          "name": "_peer",
          "type": "address"
        },
        {
          "name": "_reference",
          "type": "address"
        }
      ],
      "name": "peerExistsAndOwnsSubmission",
      "outputs": [
        {
          "name": "",
          "type": "bool"
        }
      ],
      "payable": false,
      "stateMutability": "view",
      "type": "function"
    },
    {
      "constant": true,
      "inputs": [
        {
          "name": "_sender",
          "type": "address"
        }
      ],
      "name": "peerAddress",
      "outputs": [
        {
          "name": "",
          "type": "address"
        }
      ],
      "payable": false,
      "stateMutability": "view",
      "type": "function"
    },
    {
      "constant": true,
      "inputs": [
        {
          "name": "_submissionAddress",
          "type": "address"
        }
      ],
      "name": "isSubmission",
      "outputs": [
        {
          "name": "",
          "type": "bool"
        }
      ],
      "payable": false,
      "stateMutability": "view",
      "type": "function"
    },
    {
      "constant": true,
      "inputs": [
        {
          "name": "_tournamentAddress",
          "type": "address"
        }
      ],
      "name": "getTournament_IsMine",
      "outputs": [
        {
          "name": "_isMine",
          "type": "bool"
        }
      ],
      "payable": false,
      "stateMutability": "view",
      "type": "function"
    },
    {
      "constant": false,
      "inputs": [
        {
          "name": "_gratitude",
          "type": "uint256"
        }
      ],
      "name": "setSubmissionGratitude",
      "outputs": [],
      "payable": false,
      "stateMutability": "nonpayable",
      "type": "function"
    },
    {
      "constant": true,
      "inputs": [],
      "name": "getTokenAddress",
      "outputs": [
        {
          "name": "",
          "type": "address"
        }
      ],
      "payable": false,
      "stateMutability": "view",
      "type": "function"
    },
    {
      "constant": true,
      "inputs": [],
      "name": "getSubmissionTrustLibrary",
      "outputs": [
        {
          "name": "",
          "type": "address"
        }
      ],
      "payable": false,
      "stateMutability": "view",
      "type": "function"
    },
    {
      "constant": true,
      "inputs": [],
      "name": "getRoundLibAddress",
      "outputs": [
        {
          "name": "",
          "type": "address"
        }
      ],
      "payable": false,
      "stateMutability": "view",
      "type": "function"
    },
    {
      "constant": true,
      "inputs": [],
      "name": "getSubmissionGratitude",
      "outputs": [
        {
          "name": "",
          "type": "uint256"
        }
      ],
      "payable": false,
      "stateMutability": "view",
      "type": "function"
    },
    {
      "constant": true,
      "inputs": [],
      "name": "myTournaments",
      "outputs": [
        {
          "name": "",
          "type": "address[]"
        }
      ],
      "payable": false,
      "stateMutability": "view",
      "type": "function"
    },
    {
      "constant": true,
      "inputs": [],
      "name": "mySubmissions",
      "outputs": [
        {
          "name": "",
          "type": "address[]"
        }
      ],
      "payable": false,
      "stateMutability": "view",
      "type": "function"
    },
    {
      "constant": true,
      "inputs": [],
      "name": "tournamentCount",
      "outputs": [
        {
          "name": "_tournamentCount",
          "type": "uint256"
        }
      ],
      "payable": false,
      "stateMutability": "view",
      "type": "function"
    },
    {
      "constant": true,
      "inputs": [
        {
          "name": "_index",
          "type": "uint256"
        }
      ],
      "name": "getTournamentAtIndex",
      "outputs": [
        {
          "name": "_tournamentAddress",
          "type": "address"
        }
      ],
      "payable": false,
      "stateMutability": "view",
      "type": "function"
    }
  ],
  "bytecode": "0x606060405260408051908101604052600181526702c68af0bb140000602082015260158151815460ff1916901515178155602082015181600101555050341561004757600080fd5b6040516080806127698339810160405280805191906020018051919060200180519190602001805160008054600160a060020a03338116600160a060020a0319928316179092556004805498831698821698909817909755600580549682169688169690961790955560068054948616948716949094179093555050600780549290911691909216179055612688806100e16000396000f3006060604052600436106101c95763ffffffff60e060020a60003504166310fe9ae881146101ce57806312065fe0146101fd5780631d2245f51461022257806322985f921461028857806329cc545e146102af5780632f54bf6e146102c25780633e44cf78146102e15780633ea03cb71461030057806350912da11461031957806351488bce14610347578063532311c41461036c5780635490904b1461038b5780636a44e43d1461043d5780636e2b2c7c1461045c578063766526261461046f578063816c369d14610482578063818b5fa814610498578063893d20e8146104b75780638b72062a146104ca5780638c593a8c146104e35780638da5cb5b14610540578063984ed20614610553578063a968c4b914610569578063ab9583d91461058e578063b20a2dce146105b3578063b2fad554146105c6578063bfc9d77c146105e5578063c13ae92a146106c7578063c6cdbe5e146106dd578063c839984a1461076a578063d4a0182014610780578063e139a20c146107a2578063e8a0ed0d146107b5578063edee41d9146107d4578063f2fde38b146107ea578063f3dc0d2514610809578063f7468a3c1461081c578063f7c3609d1461083b578063fb5032d61461084e575b600080fd5b34156101d957600080fd5b6101e161086d565b604051600160a060020a03909116815260200160405180910390f35b341561020857600080fd5b61021061087d565b60405190815260200160405180910390f35b341561022d57600080fd5b610235610893565b60405160208082528190810183818151815260200191508051906020019060200280838360005b8381101561027457808201518382015260200161025c565b505050509050019250505060405180910390f35b341561029357600080fd5b61029b61091e565b604051901515815260200160405180910390f35b34156102ba57600080fd5b6101e1610932565b34156102cd57600080fd5b61029b600160a060020a0360043516610941565b34156102ec57600080fd5b61029b600160a060020a0360043516610955565b341561030b57600080fd5b6101e1600435602435610973565b341561032457600080fd5b610345600160a060020a0360043581169060243590604435166064356109aa565b005b341561035257600080fd5b61029b600160a060020a0360043581169060243516610a31565b341561037757600080fd5b61029b600160a060020a0360043516610aa8565b341561039657600080fd5b610345600160a060020a036004803582169160248035909116919060649060443590810190830135806020601f8201819004810201604051908101604052818152929190602084018383808284378201915050505050509190803590602001908201803590602001908080601f01602080910402602001604051908101604052818152929190602084018383808284375094965050843594602001359350610ac892505050565b341561044857600080fd5b6101e1600160a060020a0360043516610c27565b341561046757600080fd5b610210610c45565b341561047a57600080fd5b6101e1610c4b565b341561048d57600080fd5b610210600435610c5a565b34156104a357600080fd5b61029b600160a060020a0360043516610c6c565b34156104c257600080fd5b6101e1610c8a565b34156104d557600080fd5b61029b600435602435610c99565b34156104ee57600080fd5b61029b60048035600160a060020a0316906044602480359081019083013580602080820201604051908101604052809392919081815260200183836020028082843750949650610db895505050505050565b341561054b57600080fd5b6101e1610f57565b341561055e57600080fd5b6101e1600435610f66565b341561057457600080fd5b61029b600160a060020a0360043581169060243516610fac565b341561059957600080fd5b610345600160a060020a03600435811690602435166111ca565b34156105be57600080fd5b6102106112eb565b34156105d157600080fd5b61029b600160a060020a0360043516611306565b34156105f057600080fd5b6101e160046024813581810190830135806020601f8201819004810201604051908101604052818152929190602084018383808284378201915050505050509190803590602001908201803590602001908080601f01602080910402602001604051908101604052818152929190602084018383808284378201915050505050509190803590602001908201803590602001908080601f016020809104026020016040519081016040528181529291906020840183838082843750949650508435946020810135945060400135925061146c915050565b34156106d257600080fd5b610345600435611a49565b34156106e857600080fd5b6106f3600435611ab9565b60405160208082528190810183818151815260200191508051906020019080838360005b8381101561072f578082015183820152602001610717565b50505050905090810190601f16801561075c5780820380516001836020036101000a031916815260200191505b509250505060405180910390f35b341561077557600080fd5b6101e1600435611b74565b341561078b57600080fd5b610345600435600160a060020a0360243516611b9c565b34156107ad57600080fd5b610235611d25565b34156107c057600080fd5b61029b600160a060020a0360043516611dae565b34156107df57600080fd5b610345600435611e57565b34156107f557600080fd5b610345600160a060020a0360043516611ef8565b341561081457600080fd5b6101e1611f57565b341561082757600080fd5b61029b600160a060020a0360043516611f66565b341561084657600080fd5b6101e161207c565b341561085957600080fd5b61029b600160a060020a036004351661218a565b600454600160a060020a03165b90565b600080610889336122d5565b90508091505b5090565b61089b612375565b6012600033600160a060020a0316600160a060020a0316815260200190815260200160002080548060200260200160405190810160405280929190818152602001828054801561091457602002820191906000526020600020905b8154600160a060020a031681526001909101906020018083116108f6575b5050505050905090565b60008061092a336122d5565b151592915050565b600454600160a060020a031681565b600054600160a060020a0391821691161490565b600160a060020a03166000908152600d602052604090205460ff1690565b600a6020528160005260406000208181548110151561098e57fe5b600091825260209091200154600160a060020a03169150829050565b600160a060020a03331660009081526010602052604090205460ff1615156109d157600080fd5b7f4b7129caf5b43afa8e5fa6636b13666891a1e62cfd286305ae6c96c9403cf5dd84848484604051600160a060020a039485168152602081019390935292166040808301919091526060820192909252608001905180910390a150505050565b600160a060020a038083166000818152600d60209081526040808320548686168085526011845282852054958552600e8452828520549096168452600f835281842095845294909152812054909260ff9081169281169116828015610a935750815b8015610a9c5750805b93505b50505092915050565b600160a060020a039081166000908152600e602052604090205416151590565b600160a060020a03331660009081526010602052604090205460ff161515610aef57600080fd5b7f2237d56eaac80eabccfac0e9fb7d5a6365d4849af29f803b530fabebdf7299d4868686868686604051600160a060020a038088168252861660208201526080810183905260a0810182905260c060408201818152906060830190830187818151815260200191508051906020019080838360005b83811015610b7c578082015183820152602001610b64565b50505050905090810190601f168015610ba95780820380516001836020036101000a031916815260200191505b50838103825286818151815260200191508051906020019080838360005b83811015610bdf578082015183820152602001610bc7565b50505050905090810190601f168015610c0c5780820380516001836020036101000a031916815260200191505b509850505050505050505060405180910390a1505050505050565b600160a060020a039081166000908152600e60205260409020541690565b60095490565b600854600160a060020a031690565b600b6020526000908152604090205481565b600160a060020a031660009081526011602052604090205460ff1690565b600054600160a060020a031690565b600080548190819033600160a060020a03908116911614610cb957600080fd5b5050600160a060020a0333166000908152600260209081526040808320548084526003909252822054909184118015610cf0575080155b15610d5e57600160a060020a03331660009081526002602090815260408083208890558783526003909152908190208590557fae8527266ba82a48a206c6cbaa4634e0d5e70b8c6017ac015e19fa75664d55789085905190815260200160405180910390a160019250610db0565b7fe0ecffc2c891b346f2eeb89101dba4c5748fb0f27fd023b97cdcac60c0a1585c84600360008881526020019081526020016000205460405191825260208201526040908101905180910390a1600092505b505092915050565b600160a060020a033316600090815260106020526040812054819081908190819060ff161515610de757600080fd5b600093505b8551841015610f4d57858481518110610e0157fe5b906020019060200201519250610e1683610c6c565b1515610e2157610f42565b82915081600160a060020a031663a5faa1256000604051602001526040518163ffffffff1660e060020a028152600401602060405180830381600087803b1515610e6a57600080fd5b6102c65a03f11515610e7b57600080fd5b5050506040518051915050600160a060020a03811663d1bbd312888560405160e060020a63ffffffff8516028152600160a060020a03928316600482015291166024820152604401600060405180830381600087803b1515610edc57600080fd5b6102c65a03f11515610eed57600080fd5b50505081600160a060020a031663c7af35516040518163ffffffff1660e060020a028152600401600060405180830381600087803b1515610f2d57600080fd5b6102c65a03f11515610f3e57600080fd5b5050505b600190930192610dec565b5050505092915050565b600054600160a060020a031681565b600080821015610f7557600080fd5b6009548210610f8357600080fd5b6009805483908110610f9157fe5b600091825260209091200154600160a060020a031692915050565b600160a060020a033381166000908152600f6020908152604080832093861683529290529081205481908190819060ff161515610fe857600080fd5b600160a060020a03851660009081526010602052604090205460ff16151561100f57600080fd5b600160a060020a03861660009081526011602052604090205460ff16156111be5785925085600160a060020a031663893d20e86000604051602001526040518163ffffffff1660e060020a028152600401602060405180830381600087803b151561107957600080fd5b6102c65a03f1151561108a57600080fd5b5050506040518051600160a060020a038082166000818152601460209081526040808320948d1683529381528382206001015460118252848320805460ff19169055928252601390529190912080549295509093509150829081106110eb57fe5b60009182526020808320909101805473ffffffffffffffffffffffffffffffffffffffff19169055600160a060020a0384811683526014825260408084208a83168552909252818320805460ff1916815560010183905587169163a968c4b99189918691516020015260405160e060020a63ffffffff8516028152600160a060020a03928316600482015291166024820152604401602060405180830381600087803b151561119957600080fd5b6102c65a03f115156111aa57600080fd5b505050604051805190505060019350610a9f565b50600095945050505050565b600160a060020a03331660009081526010602052604090205460ff1615156111f157600080fd5b60408051908101604090815260018252600160a060020a038085166000818152601360209081528482205481870152918152601482528381209286168152919052208151815460ff19169015151781556020820151600191820155600160a060020a038416600090815260136020526040902080549092509081016112768382612387565b506000918252602080832091909101805473ffffffffffffffffffffffffffffffffffffffff1916600160a060020a03948516908117909155939092168152600f82526040808220938252928252828120805460ff199081166001908117909255601190935292902080549091169091179055565b60155460009060ff1615156112ff57600080fd5b5060165490565b600160a060020a0333166000908152601160205260408120548190819060ff16151561133157600080fd5b61133a84610c6c565b151561134557600080fd5b83915081600160a060020a031663a5faa1256000604051602001526040518163ffffffff1660e060020a028152600401602060405180830381600087803b151561138e57600080fd5b6102c65a03f1151561139f57600080fd5b5050506040518051915050600160a060020a03811663d1bbd312338660405160e060020a63ffffffff8516028152600160a060020a03928316600482015291166024820152604401600060405180830381600087803b151561140057600080fd5b6102c65a03f1151561141157600080fd5b50505081600160a060020a031663c7af35516040518163ffffffff1660e060020a028152600401600060405180830381600087803b151561145157600080fd5b6102c65a03f1151561146257600080fd5b5050505050919050565b6000806000806000803361147f81610aa8565b151561148a57600080fd5b600454600160a060020a03169550898663dd62ed3e333060006040516020015260405160e060020a63ffffffff8516028152600160a060020a03928316600482015291166024820152604401602060405180830381600087803b15156114ef57600080fd5b6102c65a03f1151561150057600080fd5b505050604051805190501015151561151757600080fd5b600654600160a060020a031694508463be9518b3338e8e8e8e8e6000604051602001526040518763ffffffff1660e060020a0281526004018087600160a060020a0316600160a060020a031681526020018060200180602001868152602001858152602001848152602001838103835288818151815260200191508051906020019080838360005b838110156115b757808201518382015260200161159f565b50505050905090810190601f1680156115e45780820380516001836020036101000a031916815260200191505b50838103825287818151815260200191508051906020019080838360005b8381101561161a578082015183820152602001611602565b50505050905090810190601f1680156116475780820380516001836020036101000a031916815260200191505b5098505050505050505050602060405180830381600087803b151561166b57600080fd5b6102c65a03f1151561167c57600080fd5b5050506040518051905093507f344013ba9391d2d4afe01b581cb35c66d83eac82c6b4bae7752c55d4cfef4c0b8d33868f8f8f8f604051600160a060020a0380881660208301528616604082015260a0810183905260c0810182905260e080825281906060820190608083019083018b818151815260200191508051906020019080838360005b8381101561171b578082015183820152602001611703565b50505050905090810190601f1680156117485780820380516001836020036101000a031916815260200191505b50848103835288818151815260200191508051906020019080838360005b8381101561177e578082015183820152602001611766565b50505050905090810190601f1680156117ab5780820380516001836020036101000a031916815260200191505b50848103825287818151815260200191508051906020019080838360005b838110156117e15780820151838201526020016117c9565b50505050905090810190601f16801561180e5780820380516001836020036101000a031916815260200191505b509a505050505050505050505060405180910390a18c6040518082805190602001908083835b602083106118535780518252601f199092019160209182019101611834565b6001836020036101000a03801982511681845116179092525050509190910192506040915050519081900390206000818152600b602052604090205490935015156118c957600c8054600181016118aa83826123b0565b60009283526020909220018e80516118c69291602001906123d4565b50505b6000838152600a602052604090208054600181016118e78382612387565b506000918252602080832091909101805473ffffffffffffffffffffffffffffffffffffffff1916600160a060020a038816179055848252600b905260409020546119339060016122fd565b6000848152600b602052604080822092909255600160a060020a038816916323b872dd91339188918f91516020015260405160e060020a63ffffffff8616028152600160a060020a0393841660048201529190921660248201526044810191909152606401602060405180830381600087803b15156119b157600080fd5b6102c65a03f115156119c257600080fd5b50505060405180519250508115156119d957600080fd5b60098054600181016119eb8382612387565b506000918252602080832091909101805473ffffffffffffffffffffffffffffffffffffffff1916600160a060020a03881690811790915582526010905260409020805460ff1916600117905550919b9a5050505050505050505050565b60005433600160a060020a03908116911614611a6457600080fd5b60008110158015611a7d5750670de0b6b3a76400008111155b1515611a8557fe5b60408051908101604052600181526020810182905260158151815460ff191690151517815560208201516001909101555050565b600c805482908110611ac757fe5b90600052602060002090016000915090508054600181600116156101000203166002900480601f016020809104026020016040519081016040528092919081815260200182805460018160011615610100020316600290048015611b6c5780601f10611b4157610100808354040283529160200191611b6c565b820191906000526020600020905b815481529060010190602001808311611b4f57829003601f168201915b505050505081565b6009805482908110611b8257fe5b600091825260209091200154600160a060020a0316905081565b600160a060020a03808216600090815260016020526040812054909182911681901115611be557600160a060020a03808416600090815260016020526040902054169150611c52565b82611bee61244e565b600160a060020a039091168152602001604051809103906000f0801515611c1457600080fd5b600160a060020a038481166000908152600160205260409020805473ffffffffffffffffffffffffffffffffffffffff191691831691909117905591505b81600160a060020a03166372de26dd8560006040516020015260405160e060020a63ffffffff84160281526004810191909152602401602060405180830381600087803b1515611ca157600080fd5b6102c65a03f11515611cb257600080fd5b5050506040518051600160a060020a038516600090815260026020526040908190208290559092507f1c16af450a72e7153ed6faee28677e32f11936f8ab2e63322d032d1f753b5aea91508290859051918252600160a060020a031660208201526040908101905180910390a150505050565b611d2d612375565b6013600033600160a060020a0316600160a060020a0316815260200190815260200160002080548060200260200160405190810160405280929190818152602001828054801561091457602002820191906000526020600020908154600160a060020a031681526001909101906020018083116108f6575050505050905090565b600160a060020a038116600090815260106020526040812054819060ff161515611dd757600080fd5b82905033600160a060020a031681600160a060020a031663893d20e86000604051602001526040518163ffffffff1660e060020a028152600401602060405180830381600087803b1515611e2a57600080fd5b6102c65a03f11515611e3b57600080fd5b50505060405180519050600160a060020a031614915050919050565b600160a060020a0333166000908152600260209081526040808320548084526003909252909120548015611e8a57600080fd5b600160a060020a03301663d4a01820843360405160e060020a63ffffffff85160281526004810192909252600160a060020a03166024820152604401600060405180830381600087803b1515611edf57600080fd5b6102c65a03f11515611ef057600080fd5b505050505050565b60005433600160a060020a03908116911614611f1357600080fd5b600160a060020a0381161515611f2857600080fd5b6000805473ffffffffffffffffffffffffffffffffffffffff1916600160a060020a0392909216919091179055565b600754600160a060020a031690565b600080600033611f7581610aa8565b1515611f8057600080fd5b600160a060020a03851660009081526010602052604090205460ff161515611fa757600080fd5b84925082600160a060020a03166328d576d73360006040516020015260405160e060020a63ffffffff8416028152600160a060020a039091166004820152602401602060405180830381600087803b151561200157600080fd5b6102c65a03f1151561201257600080fd5b505050604051805192505081156120745761202d3386612313565b7f5891a745b8d042d48bd1e4aed889e63bdc3e44242bb75694ea97573460e03a8b3386604051600160a060020a039283168152911660208201526040908101905180910390a15b509392505050565b600160a060020a033381166000908152600e602052604081205490918291829116156120a757600080fd5b600554600160a060020a03169150816348bf95773360006040516020015260405160e060020a63ffffffff8416028152600160a060020a039091166004820152602401602060405180830381600087803b151561210357600080fd5b6102c65a03f1151561211457600080fd5b5050506040518051600160a060020a039081166000818152600d60209081526040808320805460ff1916600117905533909416808352600e909152838220805473ffffffffffffffffffffffffffffffffffffffff19908116851790915592825292902080549091169091179055509192915050565b600160a060020a0333166000908152601160205260408120548190819060ff1615156121b557600080fd5b6121be84610c6c565b15156121c957600080fd5b83915081600160a060020a031663a5faa1256000604051602001526040518163ffffffff1660e060020a028152600401602060405180830381600087803b151561221257600080fd5b6102c65a03f1151561222357600080fd5b5050506040518051915050600160a060020a03811663a1cc4ac1338660405160e060020a63ffffffff8516028152600160a060020a03928316600482015291166024820152604401600060405180830381600087803b151561228457600080fd5b6102c65a03f1151561229557600080fd5b50505081600160a060020a031663444e31ca6040518163ffffffff1660e060020a028152600401600060405180830381600087803b151561145157600080fd5b600160a060020a03166000908152600260209081526040808320548352600390915290205490565b60008282018381101561230c57fe5b9392505050565b600160a060020a038216600090815260126020526040902080546001810161233b8382612387565b506000918252602090912001805473ffffffffffffffffffffffffffffffffffffffff1916600160a060020a039290921691909117905550565b60206040519081016040526000815290565b8154818355818115116123ab576000838152602090206123ab91810190830161245e565b505050565b8154818355818115116123ab576000838152602090206123ab918101908301612478565b828054600181600116156101000203166002900490600052602060002090601f016020900481019282601f1061241557805160ff1916838001178555612442565b82800160010185558215612442579182015b82811115612442578251825591602001919060010190612427565b5061088f92915061245e565b60405161017a806124e383390190565b61087a91905b8082111561088f5760008155600101612464565b61087a91905b8082111561088f576000612492828261249b565b5060010161247e565b50805460018160011615610100020316600290046000825580601f106124c157506124df565b601f0160209004906000526020600020908101906124df919061245e565b5056006060604052341561000f57600080fd5b60405160208061017a8339810160405280805160008054600160a060020a03338116600160a060020a03199283161790925560018054929093169116179055505061011b8061005f6000396000f300606060405260043610603e5763ffffffff7c010000000000000000000000000000000000000000000000000000000060003504166372de26dd81146043575b600080fd5b3415604d57600080fd5b60566004356068565b60405190815260200160405180910390f35b600080543373ffffffffffffffffffffffffffffffffffffffff908116911614609057600080fd5b43428333604051938452602084019290925260408084019190915273ffffffffffffffffffffffffffffffffffffffff9091166c01000000000000000000000000026060830152607490910190519081900390206002819055929150505600a165627a7a723058209b5cc4fb938a4a70b990aea0c5a6d01dfb2cd60e61a6bca21bc7128b8f086fab0029a165627a7a72305820aefd33211aaa6ce4c2d88489b2dfc85bcf33a54dab76af6044f8a32ee54c227b0029",
  "source": "pragma solidity ^0.4.18;\n\nimport '../libraries/math/SafeMath.sol';\nimport './MatryxOracleMessenger.sol';\nimport '../interfaces/IMatryxToken.sol';\nimport '../interfaces/IMatryxPeer.sol';\nimport '../interfaces/IMatryxPlatform.sol';\nimport '../interfaces/factories/IMatryxPeerFactory.sol';\nimport '../interfaces/factories/IMatryxTournamentFactory.sol';\nimport '../interfaces/IMatryxTournament.sol';\nimport '../interfaces/IMatryxRound.sol';\nimport '../interfaces/IMatryxSubmission.sol';\nimport './Ownable.sol';\n\n/// @title MatryxPlatform - The Matryx platform contract.\n/// @author Max Howard - <max@nanome.ai>, Sam Hessenauer - <sam@nanome.ai>\ncontract MatryxPlatform is MatryxOracleMessenger, IMatryxPlatform {\n  using SafeMath for uint256;\n\n  // TODO: condense and put in structs\n  address public matryxTokenAddress;\n  address matryxPeerFactoryAddress;\n  address matryxTournamentFactoryAddress;\n  address matryxSubmissionTrustLibAddress;\n  address matryxRoundLibAddress;\n\n  address[] public allTournaments;\n  mapping(bytes32=>address[]) public tournamentByCategory;\n  mapping(bytes32=>uint256) public categoryCount;\n  string[] public categories;\n\n  mapping(address=>bool) peerExists;\n  mapping(address=>address) ownerToPeerAndPeerToOwner;\n  mapping(address=>mapping(address=>bool)) addressToOwnsSubmission;\n  mapping(address=>bool) tournamentExists;\n  mapping(address=>bool) submissionExists;\n\n  mapping(address=>address[]) entrantToTournamentArray;\n  mapping(address=>address[]) ownerToSubmissionArray;\n  mapping(address=>mapping(address=>uint256_optional))  ownerToSubmissionToSubmissionIndex;\n\n  uint256_optional submissionGratitude = uint256_optional({exists: true, value: 2*10**17});\n\n  function MatryxPlatform(address _matryxTokenAddress, address _matryxPeerFactoryAddress, address _matryxTournamentFactoryAddress, address _matryxSubmissionTrustLibAddress) public\n  {\n    matryxTokenAddress = _matryxTokenAddress;\n    matryxPeerFactoryAddress = _matryxPeerFactoryAddress;\n    matryxTournamentFactoryAddress = _matryxTournamentFactoryAddress;\n    matryxSubmissionTrustLibAddress = _matryxSubmissionTrustLibAddress;\n  }\n\n  /*\n   * Structs\n   */\n\n  struct uint256_optional\n  {\n    bool exists;\n    uint256 value;\n  }\n\n  /*\n   * Events\n   */\n\n  event TournamentCreated(string _discipline, address _owner, address _tournamentAddress, string _tournamentName, bytes _externalAddress, uint256 _MTXReward, uint256 _entryFee);\n  event TournamentOpened(address _owner, address _tournamentAddress, string _tournamentName, bytes _externalAddress, uint256 _MTXReward, uint256 _entryFee);\n  event TournamentClosed(address _tournamentAddress, uint256 _finalRoundNumber, address _winningSubmissionAddress, uint256 _MTXReward);\n  event UserEnteredTournament(address _entrant, address _tournamentAddress);\n  event QueryID(string queryID);\n  /// @dev Allows tournaments to invoke tournamentOpened events on the platform.\n  /// @param _owner Owner of the tournament.\n  /// @param _tournamentAddress Address of the tournament.\n  /// @param _tournamentName Name of the tournament.\n  /// @param _externalAddress External address of the tournament.\n  /// @param _MTXReward Reward for winning the tournament.\n  /// @param _entryFee Fee for entering into the tournament.\n  function invokeTournamentOpenedEvent(address _owner, address _tournamentAddress, string _tournamentName, bytes _externalAddress, uint256 _MTXReward, uint256 _entryFee) public onlyTournament\n  {\n    TournamentOpened(_owner, _tournamentAddress, _tournamentName, _externalAddress, _MTXReward, _entryFee);\n  }\n\n  /// @dev Allows tournaments to invoke tournamentClosed events on the platform.\n  /// @param _tournamentAddress Address of the tournament.\n  /// @param _finalRoundNumber Index of the round containing the winning submission.\n  /// @param _winningSubmissionAddress Address of the winning submission.\n  function invokeTournamentClosedEvent(address _tournamentAddress, uint256 _finalRoundNumber, address _winningSubmissionAddress, uint256 _MTXReward) public onlyTournament\n  {\n    TournamentClosed(_tournamentAddress, _finalRoundNumber, _winningSubmissionAddress, _MTXReward);\n  }\n\n  /* \n   * Modifiers\n   */\n\n  modifier onlyTournament\n  {\n    require(tournamentExists[msg.sender]);\n    _;\n  }\n\n  modifier onlySubmission\n  {\n    require(submissionExists[msg.sender]);\n    _;\n  }\n\n  modifier onlyPeerLinked(address _sender)\n  {\n    require(hasPeer(_sender));\n    _;\n  }\n\n  /* \n   * MTX Balance Methods\n   */\n\n  /// @dev Prepares the user's MTX balance, allowing them to use the platform.\n  /// @param _toIgnore Request bytes (deprecated).\n  function prepareBalance(uint256 _toIgnore) public\n  {   \n      // Make sure that the user has not already attempted to prepare their balance\n      uint256 qID = fromQuerierToQueryID[msg.sender];\n      uint256 queryResponse = queryResponses[qID];\n      require(queryResponse == 0x0);\n\n      this.Query(bytes32(_toIgnore), msg.sender);\n  }\n\n  /// @dev Returns whether or not the user can use the platform.\n  /// @return Whether or not user has a positive balance.\n  function balanceIsNonZero() public view returns (bool)\n  {\n      uint balance = latestResponseFromOracle(msg.sender);\n      return balance != 0;\n  }\n\n  /// @dev Returns the user's balance\n  /// @return Sender's MTX balance.\n  function getBalance() public constant returns (uint256)\n  {\n      uint256 balance = latestResponseFromOracle(msg.sender);\n      return balance;\n  }\n\n  /*\n   * State Maintenance Methods\n   */\n\n  // @dev Sends out reference requests for a particular submission.\n  // @param _references Reference whose authors will be sent requests.\n  // @returns Whether or not all references were successfully sent a request.\n  function handleReferenceRequestsForSubmission(address _submissionAddress, address[] _references) public onlyTournament returns (bool) \n  {\n    for(uint256 i = 0; i < _references.length; i++)\n    {\n      address _referenceAddress = _references[i];\n\n      if(!isSubmission(_referenceAddress))\n      {\n        // TODO: Introduce uint error codes\n        // for returning things like \"Reference _ is not submission\"\n        continue;\n      }\n\n      IMatryxSubmission submission = IMatryxSubmission(_referenceAddress);\n      address author = submission.getAuthor();\n      IMatryxPeer(author).receiveReferenceRequest(_submissionAddress, _referenceAddress);\n      submission.receiveReferenceRequest();\n    }\n  }\n\n  // @dev Sends out a reference request for a submission (must be called by the submission).\n  // @param _reference Reference whose author will be sent a request.\n  // @returns Whether or not all references were successfully sent a request.\n  function handleReferenceRequestForSubmission(address _reference) public onlySubmission returns (bool)\n  {\n      require(isSubmission(_reference));\n      IMatryxSubmission submission = IMatryxSubmission(_reference);\n      address author = submission.getAuthor();\n      IMatryxPeer(author).receiveReferenceRequest(msg.sender, _reference);\n      submission.receiveReferenceRequest();\n  }\n\n  function handleCancelledReferenceRequestForSubmission(address _reference) public onlySubmission returns (bool)\n  {\n    require(isSubmission(_reference));\n    IMatryxSubmission submission = IMatryxSubmission(_reference);\n    address author = submission.getAuthor();\n    IMatryxPeer(author).receiveCancelledReferenceRequest(msg.sender, _reference);\n    submission.cancelReferenceRequest();\n  }\n\n  function updateUsersTournaments(address _owner, address _tournament) internal\n  {\n    entrantToTournamentArray[_owner].push(_tournament);\n  }\n\n  function updateSubmissions(address _owner, address _submission) public onlyTournament\n  {\n    ownerToSubmissionToSubmissionIndex[_owner][_submission] = uint256_optional({exists:true, value:ownerToSubmissionArray[_owner].length});\n    ownerToSubmissionArray[_owner].push(_submission);\n    addressToOwnsSubmission[_owner][_submission] = true;\n    submissionExists[_submission] = true;\n  }\n\n  function removeSubmission(address _submissionAddress, address _tournamentAddress) public returns (bool)\n  {\n    require(addressToOwnsSubmission[msg.sender][_submissionAddress]);\n    require(tournamentExists[_tournamentAddress]);\n    \n    if(submissionExists[_submissionAddress])\n    {\n      IMatryxSubmission submission = IMatryxSubmission(_submissionAddress);\n      address owner = Ownable(_submissionAddress).getOwner();\n      uint256 submissionIndex = ownerToSubmissionToSubmissionIndex[owner][_submissionAddress].value;\n\n      submissionExists[_submissionAddress] = false;\n      delete ownerToSubmissionArray[owner][submissionIndex];\n      delete ownerToSubmissionToSubmissionIndex[owner][_submissionAddress];\n\n      IMatryxTournament(_tournamentAddress).removeSubmission(_submissionAddress, owner);\n      return true;\n    }\n    \n    return false;\n  }\n\n  /* \n   * Tournament Entry Methods\n   */\n\n  /// @dev Enter the user into a tournament and charge the entry fee.\n  /// @param _tournamentAddress Address of the tournament to enter into.\n  /// @return _success Whether or not user was successfully entered into the tournament.\n  function enterTournament(address _tournamentAddress) public onlyPeerLinked(msg.sender) returns (bool _success)\n  {\n      // TODO: Consider scheme: \n      // submission owner: peer linked account\n      // submission author: peer\n      require(tournamentExists[_tournamentAddress]);\n\n      IMatryxTournament tournament = IMatryxTournament(_tournamentAddress);\n\n      bool success = tournament.enterUserInTournament(msg.sender);\n      if(success)\n      {\n        updateUsersTournaments(msg.sender, _tournamentAddress);\n        UserEnteredTournament(msg.sender, _tournamentAddress);\n      }\n\n      return success;\n  }\n\n  /* \n   * Tournament Admin Methods\n   */\n\n  /// @dev Create a new tournament.\n  /// @param _tournamentName Name of the new tournament.\n  /// @param _externalAddress Off-chain content hash of tournament details (ipfs hash)\n  /// @param _BountyMTX Total tournament reward in MTX.\n  /// @param _entryFee Fee to charge participant upon entering into tournament.\n  /// @return _tournamentAddress Address of the newly created tournament\n  function createTournament(string _category, string _tournamentName, bytes _externalAddress, uint256 _BountyMTX, uint256 _entryFee, uint256 _reviewPeriod) public onlyPeerLinked(msg.sender) returns (address _tournamentAddress)\n  {\n    IMatryxToken matryxToken = IMatryxToken(matryxTokenAddress);\n    // Check that the platform has a sufficient allowance to\n    // transfer the reward from the tournament creator to itself\n    require(matryxToken.allowance(msg.sender, this) >= _BountyMTX);\n\n    IMatryxTournamentFactory tournamentFactory = IMatryxTournamentFactory(matryxTournamentFactoryAddress);\n    address newTournament = tournamentFactory.createTournament(msg.sender, _tournamentName, _externalAddress, _BountyMTX, _entryFee, _reviewPeriod);\n    TournamentCreated(_category, msg.sender, newTournament, _tournamentName, _externalAddress, _BountyMTX, _entryFee);\n    \n    bytes32 hashOfCategory = keccak256(_category);\n    if(categoryCount[hashOfCategory] == 0)\n    {\n      categories.push(_category);\n    }\n    tournamentByCategory[hashOfCategory].push(newTournament);\n    categoryCount[hashOfCategory] = categoryCount[hashOfCategory].add(1);\n\n    // Transfer the MTX reward to the tournament.\n    bool transferSuccess = matryxToken.transferFrom(msg.sender, newTournament, _BountyMTX);\n    require(transferSuccess);\n    \n    // update data structures\n    allTournaments.push(newTournament);\n    tournamentExists[newTournament] = true;\n\n    return newTournament;\n  }\n\n  /*\n   * Access Control Methods\n   */\n\n  function createPeer() public returns (address)\n  {\n    require(ownerToPeerAndPeerToOwner[msg.sender] == 0x0);\n    IMatryxPeerFactory peerFactory = IMatryxPeerFactory(matryxPeerFactoryAddress);\n    address peer = peerFactory.createPeer(msg.sender);\n    peerExists[peer] = true;\n    ownerToPeerAndPeerToOwner[msg.sender] = peer;\n    ownerToPeerAndPeerToOwner[peer] = msg.sender;\n  }\n\n  function isPeer(address _peerAddress) public constant returns (bool)\n  {\n    return peerExists[_peerAddress];\n  }\n\n  // TODO: add constant\n  function hasPeer(address _sender) public constant returns (bool)\n  {\n    return (ownerToPeerAndPeerToOwner[_sender] != 0x0);\n  }\n\n  // TODO: add constant\n  function peerExistsAndOwnsSubmission(address _peer, address _reference) public constant returns (bool)\n  {\n    bool isAPeer = peerExists[_peer];\n    bool referenceIsSubmission = submissionExists[_reference];\n    bool peerOwnsSubmission = addressToOwnsSubmission[ownerToPeerAndPeerToOwner[_peer]][_reference];\n\n    return isAPeer && referenceIsSubmission && peerOwnsSubmission;\n  }\n\n  function peerAddress(address _sender) public constant returns (address)\n  {\n    return ownerToPeerAndPeerToOwner[_sender];\n  }\n\n  function isSubmission(address _submissionAddress) public constant returns (bool)\n  {\n    return submissionExists[_submissionAddress];\n  }\n\n  /// @dev Returns whether or not the given tournament belongs to the sender.\n  /// @param _tournamentAddress Address of the tournament to check.\n  /// @return _isMine Whether or not the tournament belongs to the sender.\n  function getTournament_IsMine(address _tournamentAddress) public constant returns (bool _isMine)\n  {\n    require(tournamentExists[_tournamentAddress]);\n    Ownable tournament = Ownable(_tournamentAddress);\n    return (tournament.getOwner() == msg.sender);\n  }\n\n  /*\n   * Setter Methods\n   */ \n\n    /// @dev              Set the relative amount of MTX to be delivered to a submission's\n    ///                   references\n    /// @param _gratitude Weight from 0 to 1 (18 decimal uint) specifying enforced submission \n    ///                   gratitude\n    function setSubmissionGratitude(uint256 _gratitude) public onlyOwner\n    {\n        assert(_gratitude >= 0 && _gratitude <= (1*10**18));\n        submissionGratitude = uint256_optional({exists: true, value: _gratitude});\n    }\n\n  /*\n   * Getter Methods\n   */\n\n   function getTokenAddress() public constant returns (address)\n   {\n      return matryxTokenAddress;\n   }\n\n   function getSubmissionTrustLibrary() public constant returns (address)\n   {\n      return matryxSubmissionTrustLibAddress;\n   }\n\n   function getRoundLibAddress() public constant returns (address)\n   {\n      return matryxRoundLibAddress;\n   }\n\n   /// @dev    Returns a weight from 0 to 1 (18 decimal uint) indicating\n   ///         how much of a submission's reward goes to its references.\n   /// @return Relative amount of MTX going to references of submissions under this tournament.\n   function getSubmissionGratitude() public constant returns (uint256)\n   {\n      require(submissionGratitude.exists);\n      return submissionGratitude.value;\n   }\n\n   /// @dev Returns addresses for submissions the sender has created.\n   /// @return Address array representing submissions.\n   function myTournaments() public constant returns (address[])\n   {\n      return entrantToTournamentArray[msg.sender];\n   }\n\n   function mySubmissions() public constant returns (address[])\n   {\n    return ownerToSubmissionArray[msg.sender];\n   }\n\n   /// @dev Returns the total number of tournaments\n   /// @return _tournamentCount Total number of tournaments.\n   function tournamentCount() public constant returns (uint256 _tournamentCount)\n   {\n       return allTournaments.length;\n   }\n \n   function getTournamentAtIndex(uint256 _index) public constant returns (address _tournamentAddress)\n   {\n     require(_index >= 0);\n     require(_index < allTournaments.length);\n     return allTournaments[_index];\n   }\n}",
  "sourcePath": "/Users/maxhoward/Desktop/Ethereum/Development/Matryx AWS/Projects/matryx-alpha-source/contracts/MatryxPlatform.sol",
  "compiler": {
    "name": "solc",
    "version": "0.4.19+commit.c4cbbb05.Emscripten.clang"
  },
  "schemaVersion": "2.0.0",
  "updatedAt": "2018-03-26T22:08:18.582Z"
}