{
  "contractName": "MatryxRoundFactory",
  "abi": [
    {
      "constant": true,
      "inputs": [],
      "name": "matryxTokenAddress",
      "outputs": [
        {
          "name": "",
          "type": "address"
        }
      ],
      "payable": false,
      "stateMutability": "view",
      "type": "function"
    },
    {
      "constant": true,
      "inputs": [],
      "name": "matryxSubmissionFactoryAddress",
      "outputs": [
        {
          "name": "",
          "type": "address"
        }
      ],
      "payable": false,
      "stateMutability": "view",
      "type": "function"
    },
    {
      "inputs": [
        {
          "name": "_matryxTokenAddress",
          "type": "address"
        },
        {
          "name": "_matryxSubmissionFactoryAddress",
          "type": "address"
        }
      ],
      "payable": false,
      "stateMutability": "nonpayable",
      "type": "constructor"
    },
    {
      "constant": false,
      "inputs": [
        {
          "name": "_platformAddress",
          "type": "address"
        },
        {
          "name": "_tournamentAddress",
          "type": "address"
        },
        {
          "name": "_owner",
          "type": "address"
        },
        {
          "name": "_roundIndex",
          "type": "uint256"
        },
        {
          "components": [
            {
              "name": "start",
              "type": "uint256"
            },
            {
              "name": "end",
              "type": "uint256"
            },
            {
              "name": "reviewPeriodDuration",
              "type": "uint256"
            },
            {
              "name": "bounty",
              "type": "uint256"
            }
          ],
          "name": "roundData",
          "type": "tuple"
        }
      ],
      "name": "createRound",
      "outputs": [
        {
          "name": "_roundAddress",
          "type": "address"
        }
      ],
      "payable": false,
      "stateMutability": "nonpayable",
      "type": "function"
    }
  ],
  "bytecode": "0x608060405234801561001057600080fd5b506040516040806131ae833981018060405261002f9190810190610073565b60018054600160a060020a03938416600160a060020a031991821617909155600080549290931691161790556100b9565b600061006c82516100ad565b9392505050565b6000806040838503121561008657600080fd5b60006100928585610060565b92505060206100a385828601610060565b9150509250929050565b600160a060020a031690565b6130e6806100c86000396000f3006080604052600436106100565763ffffffff7c010000000000000000000000000000000000000000000000000000000060003504166329cc545e811461005b578063af1237af14610086578063b0ff5492146100a6575b600080fd5b34801561006757600080fd5b506100706100bb565b60405161007d91906102db565b60405180910390f35b34801561009257600080fd5b506100706100a13660046101fd565b6100d7565b3480156100b257600080fd5b50610070610143565b60015473ffffffffffffffffffffffffffffffffffffffff1681565b6001546000805490918291889173ffffffffffffffffffffffffffffffffffffffff9081169189911688888861010b61015f565b61011b97969594939291906102ef565b604051809103906000f080158015610137573d6000803e3d6000fd5b50979650505050505050565b60005473ffffffffffffffffffffffffffffffffffffffff1681565b604051612d118061039c83390190565b600061017b823561037f565b9392505050565b60006080828403121561019457600080fd5b61019e6080610358565b905060006101ac84846101f1565b82525060206101bd848483016101f1565b60208301525060406101d1848285016101f1565b60408301525060606101e5848285016101f1565b60608301525092915050565b600061017b8235610398565b6000806000806000610100868803121561021657600080fd5b6000610222888861016f565b95505060206102338882890161016f565b94505060406102448882890161016f565b9350506060610255888289016101f1565b925050608061026688828901610182565b9150509295509295909350565b61027c8161037f565b82525050565b8051608083019061029384826102d2565b5060208201516102a660208501826102d2565b5060408201516102b960408501826102d2565b5060608201516102cc60608501826102d2565b50505050565b61027c81610398565b602081016102e98284610273565b92915050565b61014081016102fe828a610273565b61030b6020830189610273565b6103186040830188610273565b6103256060830187610273565b6103326080830186610273565b61033f60a08301856102d2565b61034c60c0830184610282565b98975050505050505050565b60405181810167ffffffffffffffff8111828210171561037757600080fd5b604052919050565b73ffffffffffffffffffffffffffffffffffffffff1690565b90560060806040523480156200001157600080fd5b506040516101408062002d1183398101806040526200003491908101906200017a565b6000805460048054600160a060020a038a8116600160a060020a031992831617909255600180548c8416908316179055600280548a84169083161790558682169281163317811692909217909255600584905560038054928716929091169190911790556060810151600b55805160208201516040830151620000c2929190640100000000620000cf810204565b505050505050506200025d565b600892909255600955600a55565b6000620000eb82516200024e565b9392505050565b6000608082840312156200010557600080fd5b62000111608062000226565b905060006200012184846200016c565b825250602062000134848483016200016c565b60208301525060406200014a848285016200016c565b604083015250606062000160848285016200016c565b60608301525092915050565b6000620000eb82516200025a565b6000806000806000806000610140888a0312156200019757600080fd5b6000620001a58a8a620000dd565b9750506020620001b88a828b01620000dd565b9650506040620001cb8a828b01620000dd565b9550506060620001de8a828b01620000dd565b9450506080620001f18a828b01620000dd565b93505060a0620002048a828b016200016c565b92505060c0620002178a828b01620000f2565b91505092959891949750929550565b60405181810167ffffffffffffffff811182821017156200024657600080fd5b604052919050565b600160a060020a031690565b90565b612aa4806200026d6000396000f3006080604052600436106102455763ffffffff7c010000000000000000000000000000000000000000000000000000000060003504166303d66a97811461024a57806307417cf1146102755780630befb0a5146102975780630e3db9f2146102ac5780630e4142a1146102c357806310fe9ae8146102e357806311fb4804146102f85780631865c57d146103255780631cdb7de51461033a578063241b15ad1461035a57806328dd84891461036f57806329cc545e146103845780632f0713bb146103995780632f54bf6e146103b95780632fc1f190146103d9578063389994f9146103ee5780633d62278014610403578063439f5ac21461042357806347e40553146104385780635325cdba1461044d57806354f6aa201461046d57806356974da31461048f578063597e1fb5146104af578063648036ae146104c45780636a3c1953146104d95780637d36f766146104f95780637d758072146105195780637df2d7481461052e5780638499a1381461054e5780638734fe4c1461056e578063893d20e81461058e5780638da5cb5b146105a3578063943dfef1146105b8578063b0ff5492146105cd578063b288e1a9146105e2578063c828371e146105f7578063daff8cd41461060c578063dbe55e561461062c578063df4f9dba14610641578063e278fe6f14610661578063e76c293e14610676578063e9e8b44614610297578063ed0984601461068b578063f2fde38b146106a0578063f49bff7b146106c0578063f89474be146106d5578063f8b2cb4f146106f5578063fe71f3e414610715575b600080fd5b34801561025657600080fd5b5061025f610735565b60405161026c9190612850565b60405180910390f35b34801561028157600080fd5b5061028a610751565b60405161026c9190612926565b3480156102a357600080fd5b5061028a61083c565b3480156102b857600080fd5b506102c16108ec565b005b3480156102cf57600080fd5b506102c16102de3660046123f5565b610947565b3480156102ef57600080fd5b5061025f610997565b34801561030457600080fd5b506103186103133660046123f5565b6109b3565b60405161026c91906128ef565b34801561033157600080fd5b5061028a610a97565b34801561034657600080fd5b506102c1610355366004612439565b610b5f565b34801561036657600080fd5b5061028a610b7d565b34801561037b57600080fd5b5061028a610b87565b34801561039057600080fd5b5061025f610b8d565b3480156103a557600080fd5b506102c16103b43660046125f5565b610ba9565b3480156103c557600080fd5b506103186103d43660046123f5565b610c98565b3480156103e557600080fd5b5061025f610cb9565b3480156103fa57600080fd5b50610318610cd5565b34801561040f57600080fd5b5061025f61041e3660046125f5565b610d10565b34801561042f57600080fd5b5061028a610ec0565b34801561044457600080fd5b5061025f610ec6565b34801561045957600080fd5b506102c16104683660046125f5565b610ee2565b34801561047957600080fd5b5061048261107b565b60405161026c9190612879565b34801561049b57600080fd5b506103186104aa3660046125f5565b6110ea565b3480156104bb57600080fd5b5061031861116d565b3480156104d057600080fd5b5061028a611176565b3480156104e557600080fd5b506102c16104f4366004612547565b61117c565b34801561050557600080fd5b5061028a6105143660046125f5565b61172c565b34801561052557600080fd5b5061028a61174b565b34801561053a57600080fd5b5061025f6105493660046125f5565b611751565b34801561055a57600080fd5b506103186105693660046123f5565b611786565b34801561057a57600080fd5b5061025f610589366004612473565b6117b0565b34801561059a57600080fd5b5061025f611b78565b3480156105af57600080fd5b5061025f611b94565b3480156105c457600080fd5b5061028a611bb0565b3480156105d957600080fd5b5061025f611bb6565b3480156105ee57600080fd5b5061025f611bd2565b34801561060357600080fd5b5061028a611bee565b34801561061857600080fd5b506102c16106273660046123f5565b611bf4565b34801561063857600080fd5b5061025f611c1f565b34801561064d57600080fd5b5061025f61065c3660046125f5565b611c3b565b34801561066d57600080fd5b506102c1611c82565b34801561068257600080fd5b5061025f611cc9565b34801561069757600080fd5b50610482611ce5565b3480156106ac57600080fd5b506102c16106bb3660046123f5565b611d52565b3480156106cc57600080fd5b5061028a611dd4565b3480156106e157600080fd5b506102c16106f0366004612631565b611dda565b34801561070157600080fd5b5061028a6107103660046123f5565b611e68565b34801561072157600080fd5b5061028a6107303660046123f5565b611f18565b60025473ffffffffffffffffffffffffffffffffffffffff1681565b600254600090819073ffffffffffffffffffffffffffffffffffffffff16331461077a57600080fd5b61078261083c565b600480546002546040517fa9059cbb00000000000000000000000000000000000000000000000000000000815293945073ffffffffffffffffffffffffffffffffffffffff9182169363a9059cbb936107e1939092169186910161285e565b602060405180830381600087803b1580156107fb57600080fd5b505af115801561080f573d6000803e3d6000fd5b505050506040513d601f19601f8201168201806040525061083391908101906125d7565b508091505b5090565b600480546040517f70a0823100000000000000000000000000000000000000000000000000000000815260009273ffffffffffffffffffffffffffffffffffffffff909216916370a0823191610894913091016128fd565b602060405180830381600087803b1580156108ae57600080fd5b505af11580156108c2573d6000803e3d6000fd5b505050506040513d601f19601f820116820180604052506108e69190810190612613565b90505b90565b60025460009073ffffffffffffffffffffffffffffffffffffffff16331461091357600080fd5b6008546009546109289163ffffffff611f4016565b426008819055909150610941908263ffffffff611f5216565b60095550565b60025473ffffffffffffffffffffffffffffffffffffffff16331461096b57600080fd5b60005b73ffffffffffffffffffffffffffffffffffffffff909116600090815260116020526040902055565b60045473ffffffffffffffffffffffffffffffffffffffff1690565b73ffffffffffffffffffffffffffffffffffffffff8116600090815260136020526040812054819060ff1615156109e957600080fd5b506040517fa52dd12f000000000000000000000000000000000000000000000000000000008152829073ffffffffffffffffffffffffffffffffffffffff82169063a52dd12f90610a3e903390600401612850565b602060405180830381600087803b158015610a5857600080fd5b505af1158015610a6c573d6000803e3d6000fd5b505050506040513d601f19601f82011682018060405250610a9091908101906125d7565b9392505050565b6000610aa161083c565b1515610ac1576009544210610aba5760065b90506108e9565b6001610ab3565b600854421015610ad2576000610ab3565b6008544210158015610ae5575060095442105b15610af1576002610ab3565b6009544210158015610b165750600a54600954610b139163ffffffff611f5216565b42105b15610b465760105460ff1615610b2d576005610ab3565b600c5460001015610b3f576004610ab3565b6003610ab3565b600c5460001015610b58576005610ab3565b6006610ab3565b3360009081526013602052604090205460ff16151561096e57600080fd5b6016546014540390565b600a5481565b60045473ffffffffffffffffffffffffffffffffffffffff1681565b60025473ffffffffffffffffffffffffffffffffffffffff163314610bcd57600080fd5b6000610bd7610a97565b14610be157600080fd5b600480546040517fa9059cbb00000000000000000000000000000000000000000000000000000000815273ffffffffffffffffffffffffffffffffffffffff9091169163a9059cbb91610c3891339186910161285e565b602060405180830381600087803b158015610c5257600080fd5b505af1158015610c66573d6000803e3d6000fd5b505050506040513d601f19601f82011682018060405250610c8a91908101906125d7565b1515610c9557600080fd5b50565b60005473ffffffffffffffffffffffffffffffffffffffff91821691161490565b60015473ffffffffffffffffffffffffffffffffffffffff1690565b6000600c6000815481101515610ce757fe5b60009182526020909120015473ffffffffffffffffffffffffffffffffffffffff161515905090565b6000803383601481815481101515610d2457fe5b6000918252602090912001546040517fa52dd12f00000000000000000000000000000000000000000000000000000000815273ffffffffffffffffffffffffffffffffffffffff9091169063a52dd12f90610d83908590600401612850565b602060405180830381600087803b158015610d9d57600080fd5b505af1158015610db1573d6000803e3d6000fd5b505050506040513d601f19601f82011682018060405250610dd591908101906125d7565b1515610de057600080fd5b6014805486908110610dee57fe5b9060005260206000200160009054906101000a900473ffffffffffffffffffffffffffffffffffffffff1692508273ffffffffffffffffffffffffffffffffffffffff1663a5faa1256040518163ffffffff167c0100000000000000000000000000000000000000000000000000000000028152600401602060405180830381600087803b158015610e7f57600080fd5b505af1158015610e93573d6000803e3d6000fd5b505050506040513d601f19601f82011682018060405250610eb7919081019061241b565b95945050505050565b60095490565b60075473ffffffffffffffffffffffffffffffffffffffff1681565b6002546000908190819073ffffffffffffffffffffffffffffffffffffffff163314610f0d57600080fd5b600092505b600c5483101561107557600b54610f2f908563ffffffff611f5216565b9150610f8782610f7b600e54610f6f670de0b6b3a7640000600d89815481101515610f5657fe5b9060005260206000200154611f6190919063ffffffff16565b9063ffffffff611f8516565b9063ffffffff611f6116565b600454600c805492935073ffffffffffffffffffffffffffffffffffffffff9091169163a9059cbb919086908110610fbb57fe5b6000918252602090912001546040517c010000000000000000000000000000000000000000000000000000000063ffffffff84160281526110179173ffffffffffffffffffffffffffffffffffffffff1690859060040161285e565b602060405180830381600087803b15801561103157600080fd5b505af1158015611045573d6000803e3d6000fd5b505050506040513d601f19601f8201168201806040525061106991908101906125d7565b50600190920191610f12565b50505050565b606060148054806020026020016040519081016040528092919081815260200182805480156110e057602002820191906000526020600020905b815473ffffffffffffffffffffffffffffffffffffffff1681526001909101906020018083116110b5575b5050505050905090565b601454600090819083106110fd57600080fd5b601480548490811061110b57fe5b6000918252602090912001546040517fa52dd12f00000000000000000000000000000000000000000000000000000000815273ffffffffffffffffffffffffffffffffffffffff9091169150819063a52dd12f90610a3e903390600401612850565b60105460ff1681565b60055481565b60008060008060008061118d611f9c565b60025473ffffffffffffffffffffffffffffffffffffffff1633146111b157600080fd5b60095415156111bf57600080fd5b60036111c9610a97565b146111d357600080fd5b89518b51146111e157600080fd5b8a51158015906111f15750600c54155b15156111fc57600080fd5b8a5161120f90600c9060208e0190611fc5565b50895161122390600d9060208d0190612040565b50600095505b600d5486101561126c5761125f600d8781548110151561124557fe5b906000526020600020015488611f5290919063ffffffff16565b9650600190950194611229565b600e87905587158061127e5750600188145b1561171157600094505b600c548510156113b1576112b9600b54610f7b600e54610f6f670de0b6b3a7640000600d8b815481101515610f5657fe5b600454600c805492965073ffffffffffffffffffffffffffffffffffffffff9091169163a9059cbb9190889081106112ed57fe5b6000918252602090912001546040517c010000000000000000000000000000000000000000000000000000000063ffffffff84160281526113499173ffffffffffffffffffffffffffffffffffffffff1690889060040161285e565b602060405180830381600087803b15801561136357600080fd5b505af1158015611377573d6000803e3d6000fd5b505050506040513d601f19601f8201168201806040525061139b91908101906125d7565b15156113a657600080fd5b600190940193611288565b600480546002546040517f70a0823100000000000000000000000000000000000000000000000000000000815273ffffffffffffffffffffffffffffffffffffffff928316936370a082319361140993169101612850565b602060405180830381600087803b15801561142357600080fd5b505af1158015611437573d6000803e3d6000fd5b505050506040513d601f19601f8201168201806040525061145b9190810190612613565b9150600b5482101561146f57819250611475565b600b5492505b8715156115e15760806040519081016040528061149f600a54600954611f5290919063ffffffff16565b81526020016114df6114be600854600954611f4090919063ffffffff16565b600a546009546114d39163ffffffff611f5216565b9063ffffffff611f5216565b8152600a546020820152604090810185905260025490517f3809eba200000000000000000000000000000000000000000000000000000000815291925073ffffffffffffffffffffffffffffffffffffffff1690633809eba29061154a90849060019060040161290b565b602060405180830381600087803b15801561156457600080fd5b505af1158015611578573d6000803e3d6000fd5b505050506040513d601f19601f8201168201806040525061159c919081019061241b565b601060016101000a81548173ffffffffffffffffffffffffffffffffffffffff021916908373ffffffffffffffffffffffffffffffffffffffff16021790555061170c565b600188141561170c57506010805460ff191660011790556040805160808101825242815260208a8101519082015289820151818301526060808b01519082015260025491517f3809eba2000000000000000000000000000000000000000000000000000000008152909173ffffffffffffffffffffffffffffffffffffffff1690633809eba29061167990849060009060040161290b565b602060405180830381600087803b15801561169357600080fd5b505af11580156116a7573d6000803e3d6000fd5b505050506040513d601f19601f820116820180604052506116cb919081019061241b565b601060016101000a81548173ffffffffffffffffffffffffffffffffffffffff021916908373ffffffffffffffffffffffffffffffffffffffff1602179055505b61171f565b6010805460ff191660011790555b5050505050505050505050565b600d80548290811061173a57fe5b600091825260209091200154905081565b600e5481565b600c80548290811061175f57fe5b60009182526020909120015473ffffffffffffffffffffffffffffffffffffffff16905081565b73ffffffffffffffffffffffffffffffffffffffff16600090815260116020526040902054151590565b60006117ba612087565b600254600090819073ffffffffffffffffffffffffffffffffffffffff1633146117e357600080fd5b60026117ed610a97565b146117f757600080fd5b73ffffffffffffffffffffffffffffffffffffffff8616151561181957600080fd5b6040805160608101825260015473ffffffffffffffffffffffffffffffffffffffff908116825260025481166020830152308284015260035492517f867cda48000000000000000000000000000000000000000000000000000000008152919550919091169063867cda489061189b908c908c908c9089908c9060040161288a565b602060405180830381600087803b1580156118b557600080fd5b505af11580156118c9573d6000803e3d6000fd5b505050506040513d601f19601f820116820180604052506118ed919081019061241b565b604080518082018252600180825260148054602080850191825273ffffffffffffffffffffffffffffffffffffffff87166000818152601383528781209651875460ff191690151517875592519585019590955582549384019092557fce6d7b5282bd9a3661ae061feed1dbda4e52ab073b1f9285be6e155d9c38d4ec909201805473ffffffffffffffffffffffffffffffffffffffff1916909317909255338152601290915220549092501515611a0e576020850151601580546001810182556000919091527f55f448fdea98c4d29eb340757ef0a66cd03dbb9538908a6a81d96026b71ec47501805473ffffffffffffffffffffffffffffffffffffffff191673ffffffffffffffffffffffffffffffffffffffff9092169190911790555b33600090815260126020908152604082208054600181018255908352912001805473ffffffffffffffffffffffffffffffffffffffff191673ffffffffffffffffffffffffffffffffffffffff8416179055600373ffffffffffffffffffffffffffffffffffffffff871660009081526011602052604081209190915590505b8851811015611ae3576002601160008b84815181101515611aab57fe5b602090810290910181015173ffffffffffffffffffffffffffffffffffffffff16825281019190915260400160002055600101611a8e565b6002546040517f4644c51b00000000000000000000000000000000000000000000000000000000815273ffffffffffffffffffffffffffffffffffffffff90911690634644c51b90611b39908590600401612850565b600060405180830381600087803b158015611b5357600080fd5b505af1158015611b67573d6000803e3d6000fd5b50939b9a5050505050505050505050565b60005473ffffffffffffffffffffffffffffffffffffffff1690565b60005473ffffffffffffffffffffffffffffffffffffffff1681565b600b5481565b60035473ffffffffffffffffffffffffffffffffffffffff1681565b60065473ffffffffffffffffffffffffffffffffffffffff1681565b60085490565b60025473ffffffffffffffffffffffffffffffffffffffff163314611c1857600080fd5b600161096e565b60015473ffffffffffffffffffffffffffffffffffffffff1681565b6014546000908210611c4c57600080fd5b6014805483908110611c5a57fe5b60009182526020909120015473ffffffffffffffffffffffffffffffffffffffff1692915050565b60025473ffffffffffffffffffffffffffffffffffffffff163314611ca657600080fd5b6004611cb0610a97565b14611cba57600080fd5b6010805460ff19166001179055565b60025473ffffffffffffffffffffffffffffffffffffffff1690565b6060600c8054806020026020016040519081016040528092919081815260200182805480156110e05760200282019190600052602060002090815473ffffffffffffffffffffffffffffffffffffffff1681526001909101906020018083116110b5575050505050905090565b60005473ffffffffffffffffffffffffffffffffffffffff163314611d7657600080fd5b73ffffffffffffffffffffffffffffffffffffffff81161515611d9857600080fd5b6000805473ffffffffffffffffffffffffffffffffffffffff191673ffffffffffffffffffffffffffffffffffffffff92909216919091179055565b600b5490565b60025473ffffffffffffffffffffffffffffffffffffffff163314611dfe57600080fd5b80518210611e0b57600080fd5b8051602082015111611e1c57600080fd5b6040810151600010611e2d57600080fd5b80516020820151600091611e47919063ffffffff611f4016565b11611e5157600080fd5b8051600855602081015160095560400151600a5550565b600480546040517f70a0823100000000000000000000000000000000000000000000000000000000815260009273ffffffffffffffffffffffffffffffffffffffff909216916370a0823191611ec091869101612850565b602060405180830381600087803b158015611eda57600080fd5b505af1158015611eee573d6000803e3d6000fd5b505050506040513d601f19601f82011682018060405250611f129190810190612613565b92915050565b73ffffffffffffffffffffffffffffffffffffffff1660009081526011602052604090205490565b600082821115611f4c57fe5b50900390565b600082820183811015610a9057fe5b6000828202831580611f7d5750828482811515611f7a57fe5b04145b1515610a9057fe5b6000808284811515611f9357fe5b04949350505050565b608060405190810160405280600081526020016000815260200160008152602001600081525090565b828054828255906000526020600020908101928215612034579160200282015b82811115612034578251825473ffffffffffffffffffffffffffffffffffffffff191673ffffffffffffffffffffffffffffffffffffffff909116178255602090920191600190910190611fe5565b506108389291506120a7565b82805482825590600052602060002090810192821561207b579160200282015b8281111561207b578251825591602001919060010190612060565b506108389291506120d8565b604080516060810182526000808252602082018190529181019190915290565b6108e991905b8082111561083857805473ffffffffffffffffffffffffffffffffffffffff191681556001016120ad565b6108e991905b8082111561083857600081556001016120de565b6000610a9082356129cc565b6000610a9082516129cc565b6000601f8201831361211b57600080fd5b813561212e6121298261295b565b612934565b9150818183526020840193506020810190508385602084028201111561215357600080fd5b60005b8381101561217f578161216988826120f2565b8452506020928301929190910190600101612156565b5050505092915050565b6000601f8201831361219a57600080fd5b81356121a86121298261295b565b915081818352602084019350602081019050838560208402820111156121cd57600080fd5b60005b8381101561217f57816121e388826123d1565b84525060209283019291909101906001016121d0565b6000601f8201831361220a57600080fd5b81356122186121298261295b565b9150818183526020840193506020810190508385602084028201111561223d57600080fd5b60005b8381101561217f578161225388826123dd565b8452506020928301929190910190600101612240565b6000610a9082356129e5565b6000610a9082516129e5565b6000601f8201831361229257600080fd5b81356122a06121298261297c565b915080825260208301602083018583830111156122bc57600080fd5b6122c7838284612a0a565b50505092915050565b6000608082840312156122e257600080fd5b6122ec6080612934565b905060006122fa84846123dd565b825250602061230b848483016123dd565b602083015250604061231f848285016123dd565b6040830152506060612333848285016123dd565b60608301525092915050565b60006080828403121561235157600080fd5b61235b6080612934565b9050813567ffffffffffffffff81111561237457600080fd5b61238084828501612281565b8252506020612391848483016120f2565b602083015250604082013567ffffffffffffffff8111156123b157600080fd5b6123bd84828501612281565b604083015250606061233384828501612269565b6000610a9082356129ea565b6000610a9082356108e9565b6000610a9082516108e9565b60006020828403121561240757600080fd5b600061241384846120f2565b949350505050565b60006020828403121561242d57600080fd5b600061241384846120fe565b6000806040838503121561244c57600080fd5b600061245885856120f2565b9250506020612469858286016123dd565b9150509250929050565b600080600080600060a0868803121561248b57600080fd5b853567ffffffffffffffff8111156124a257600080fd5b6124ae8882890161210a565b955050602086013567ffffffffffffffff8111156124cb57600080fd5b6124d788828901612189565b945050604086013567ffffffffffffffff8111156124f457600080fd5b6125008882890161210a565b9350506060612511888289016120f2565b925050608086013567ffffffffffffffff81111561252e57600080fd5b61253a8882890161233f565b9150509295509295909350565b60008060008060e0858703121561255d57600080fd5b843567ffffffffffffffff81111561257457600080fd5b6125808782880161210a565b945050602085013567ffffffffffffffff81111561259d57600080fd5b6125a9878288016121f9565b93505060406125ba878288016122d0565b92505060c06125cb878288016123dd565b91505092959194509250565b6000602082840312156125e957600080fd5b60006124138484612275565b60006020828403121561260757600080fd5b600061241384846123dd565b60006020828403121561262557600080fd5b600061241384846123e9565b60008060a0838503121561264457600080fd5b600061265085856123dd565b9250506020612469858286016122d0565b61266a816129cc565b82525050565b600061267b826129c8565b80845260208401935061268d836129c2565b60005b828110156126bd576126a3868351612661565b6126ac826129c2565b602096909601959150600101612690565b5093949350505050565b60006126d2826129c8565b8084526020840193506126e4836129c2565b60005b828110156126bd576126fa86835161283e565b612703826129c2565b6020969096019591506001016126e7565b61266a816129e5565b6000612728826129c8565b80845261273c816020860160208601612a16565b61274581612a42565b9093016020019392505050565b61266a816129ff565b8051606083019061276c8482612661565b50602082015161277f6020850182612661565b5060408201516110756040850182612661565b805160808301906127a38482612847565b5060208201516127b66020850182612847565b5060408201516127c96040850182612847565b5060608201516110756060850182612847565b80516080808452600091908401906127f4828261271d565b91505060208301516128096020860182612661565b5060408301518482036040860152612821828261271d565b91505060608301516128366060860182612714565b509392505050565b61266a816129ea565b61266a816108e9565b60208101611f128284612661565b6040810161286c8285612661565b610a906020830184612847565b60208082528101610a908184612670565b60e0808252810161289b8188612670565b905081810360208301526128af81876126c7565b905081810360408301526128c38186612670565b90506128d2606083018561275b565b81810360c08301526128e481846127dc565b979650505050505050565b60208101611f128284612714565b60208101611f128284612752565b60a081016129198285612792565b610a906080830184612714565b60208101611f128284612847565b60405181810167ffffffffffffffff8111828210171561295357600080fd5b604052919050565b600067ffffffffffffffff82111561297257600080fd5b5060209081020190565b600067ffffffffffffffff82111561299357600080fd5b506020601f919091017fffffffffffffffffffffffffffffffffffffffffffffffffffffffffffffffe0160190565b60200190565b5190565b73ffffffffffffffffffffffffffffffffffffffff1690565b151590565b6fffffffffffffffffffffffffffffffff1690565b6000611f12826129cc565b82818337506000910152565b60005b83811015612a31578181015183820152602001612a19565b838111156110755750506000910152565b601f017fffffffffffffffffffffffffffffffffffffffffffffffffffffffffffffffe016905600a265627a7a72305820d394764be8cf9fa3d25b222b7a604a9dd5dcb1a0aa705915662b8823be9d35f26c6578706572696d656e74616cf50037a265627a7a723058206d8c9422655570905baa02521fcf816d13421cabd3d4c2eec60acd11da3ed93c6c6578706572696d656e74616cf50037",
  "source": "pragma solidity ^0.4.18;\npragma experimental ABIEncoderV2;\n\nimport '../MatryxRound.sol';\nimport \"../../libraries/LibConstruction.sol\";\n\ncontract MatryxRoundFactory {\n\taddress public matryxSubmissionFactoryAddress;\n\taddress public matryxTokenAddress;\n\n\tfunction MatryxRoundFactory(address _matryxTokenAddress, address _matryxSubmissionFactoryAddress) public {\n\t\tmatryxTokenAddress = _matryxTokenAddress;\n\t\tmatryxSubmissionFactoryAddress = _matryxSubmissionFactoryAddress;\n\t}\n\n\tfunction createRound(address _platformAddress, address _tournamentAddress, address _owner, uint256 _roundIndex, LibConstruction.RoundData roundData) public returns (address _roundAddress) {\n\t\tMatryxRound newRound = new MatryxRound(_platformAddress, matryxTokenAddress, _tournamentAddress, matryxSubmissionFactoryAddress, _owner, _roundIndex, roundData);\n\t\treturn newRound;\n\t}\n}",
  "sourcePath": "/Users/maxhoward/Desktop/Ethereum/Development/Matryx/Projects/MatryxPlatform/contracts/factories/MatryxRoundFactory.sol",
  "compiler": {
    "name": "solc",
    "version": "0.4.24+commit.e67f0147.Emscripten.clang"
  },
  "schemaVersion": "2.0.0",
  "updatedAt": "2018-07-03T00:20:16.747Z"
}