{
  "contractName": "MatryxPlatform",
  "abi": [
    {
      "inputs": [
        {
          "name": "proxy",
          "type": "address"
        },
        {
          "name": "version",
          "type": "uint256"
        },
        {
          "name": "token",
          "type": "address"
        }
      ],
      "payable": false,
      "stateMutability": "nonpayable",
      "type": "constructor"
    },
    {
      "payable": false,
      "stateMutability": "nonpayable",
      "type": "fallback"
    },
    {
      "constant": false,
      "inputs": [
        {
          "name": "contractType",
          "type": "uint256"
        },
        {
          "name": "libraryName",
          "type": "bytes32"
        }
      ],
      "name": "setContractTypeLibrary",
      "outputs": [],
      "payable": false,
      "stateMutability": "nonpayable",
      "type": "function"
    },
    {
      "constant": true,
      "inputs": [
        {
          "name": "contractType",
          "type": "uint256"
        }
      ],
      "name": "getContractTypeLibrary",
      "outputs": [
        {
          "name": "",
          "type": "bytes32"
        }
      ],
      "payable": false,
      "stateMutability": "view",
      "type": "function"
    },
    {
      "constant": true,
      "inputs": [],
      "name": "getInfo",
      "outputs": [
        {
          "components": [
            {
              "name": "proxy",
              "type": "address"
            },
            {
              "name": "version",
              "type": "uint256"
            },
            {
              "name": "token",
              "type": "address"
            },
            {
              "name": "owner",
              "type": "address"
            }
          ],
          "name": "",
          "type": "tuple"
        }
      ],
      "payable": false,
      "stateMutability": "view",
      "type": "function"
    }
  ],
  "bytecode": "0x608060405234801561001057600080fd5b50604051606080610709833981018060405261002f9190810190610166565b60008054600160a060020a03948516600160a060020a03199182161782556001939093556002805492909416918316919091179092556003805490911633179055600c6020527f4c6962546f75726e616d656e74000000000000000000000000000000000000007f5d6016397a73f5e079297ac5a36fef17b4d9c3831618e63ab105738020ddd720557f4c6962526f756e640000000000000000000000000000000000000000000000007fc0da782485e77ae272268ae0a3ff44c1552ecb60b3743924de17a815e0a3cfd755600490527f4c69625375626d697373696f6e000000000000000000000000000000000000007f5b84bb9e0f5aa9cc45a8bb66468db5d4816d1e75ff86b5e1f1dd8d144dab8097556101c2565b600061015382516101b3565b9392505050565b600061015382516101bf565b60008060006060848603121561017b57600080fd5b60006101878686610147565b93505060206101988682870161015a565b92505060406101a986828701610147565b9150509250925092565b600160a060020a031690565b90565b610538806101d16000396000f3006080604052600436106100565763ffffffff7c01000000000000000000000000000000000000000000000000000000006000350416635a9b0b898114610234578063611be5c81461025f578063d3078e8d1461028c575b34801561006257600080fd5b507c01000000000000000000000000000000000000000000000000000000007f4c6962506c6174666f726d0000000000000000000000000000000000000000006040516000546001600001548463e11aa6a20260005233600452602060006024600080865af18015156100d457600080fd5b600c6020526040600020548015156100e95750845b8663c53cfd9a028552826004860152806024860152602060006044876000885af1915081151561011857600080fd5b60005187633b15aabf0286528360048701528160248701526004600060448801376000806064886000895af1925082151561015257600080fd5b3d6000873e855186016020810151810180516020820191506040830151830180516020820191503d8b019a5084518b5260048b01945033855233602086015260048c881415156101a9576020600460208801376020015b60408601955060005b848110156101d1576020818102870151885296909601956001016101b2565b5080360381873760005b828110156102055760208181028501518102880180516002880190920290910190526001016101db565b50600284016020023682900301600401600080828f8b5af4995089151561022b57600080fd5b3d60008e3e3d8df35b34801561024057600080fd5b506102496102ae565b60405161025691906104d4565b60405180910390f35b34801561026b57600080fd5b5061027f61027a3660046103b8565b610300565b60405161025691906104b0565b34801561029857600080fd5b506102ac6102a73660046103de565b610312565b005b6102b661037e565b506040805160808101825260005473ffffffffffffffffffffffffffffffffffffffff90811682526001546020830152600254811692820192909252600354909116606082015290565b6000908152600c602052604090205490565b60035473ffffffffffffffffffffffffffffffffffffffff16331461036c576040517f08c379a0000000000000000000000000000000000000000000000000000000008152600401610363906104c4565b60405180910390fd5b6000918252600c602052604090912055565b60408051608081018252600080825260208201819052918101829052606081019190915290565b60006103b182356104fb565b9392505050565b6000602082840312156103ca57600080fd5b60006103d684846103a5565b949350505050565b600080604083850312156103f157600080fd5b60006103fd85856103a5565b925050602061040e858286016103a5565b9150509250929050565b610421816104e2565b82525050565b610421816104fb565b601681527f4d75737420626520506c6174666f726d206f776e657200000000000000000000602082015260400190565b805160808301906104718482610418565b5060208201516104846020850182610427565b5060408201516104976040850182610418565b5060608201516104aa6060850182610418565b50505050565b602081016104be8284610427565b92915050565b602080825281016104be81610430565b608081016104be8284610460565b73ffffffffffffffffffffffffffffffffffffffff1690565b905600a265627a7a72305820ca4277cc610fa0483c425cfc1a6077b365d4226b7f06b4763061ce12bc2170376c6578706572696d656e74616cf50037",
  "source": "pragma solidity ^0.4.24;\npragma experimental ABIEncoderV2;\n\nimport \"./MatryxProxy.sol\";\nimport \"./IMatryxToken.sol\";\n\nimport \"./MatryxTournament.sol\";\nimport \"./MatryxRound.sol\";\nimport \"./MatryxSubmission.sol\";\n\nimport \"./LibGlobals.sol\";\nimport \"./LibUser.sol\";\n\ncontract MatryxPlatform {\n    struct Info {\n        address proxy;\n        uint256 version;\n        address token;\n        address owner;\n    }\n\n    struct Data {\n        mapping(address=>LibTournament.TournamentData) tournaments;\n        mapping(address=>LibRound.RoundData) rounds;\n        mapping(address=>LibSubmission.SubmissionData) submissions;\n        mapping(address=>LibUser.UserData) users;\n\n        address[] allTournaments;\n        address[] allRounds;\n        address[] allSubmissions;\n        address[] allUsers;\n    }\n\n    Info info; // slot 0\n    Data data; // slot 4\n\n    // Maps contract types from MatryxProxy to human-readable library names.\n    mapping(uint256=>bytes32) contractTypeToLibraryName;\n\n    constructor(address proxy, uint256 version, address token) public {\n        info.proxy = proxy;\n        info.version = version;\n        info.token = token;\n        info.owner = msg.sender;\n\n        contractTypeToLibraryName[uint256(MatryxProxy.ContractType.Tournament)] = \"LibTournament\";\n        contractTypeToLibraryName[uint256(MatryxProxy.ContractType.Round)] = \"LibRound\";\n        contractTypeToLibraryName[uint256(MatryxProxy.ContractType.Submission)] = \"LibSubmission\";\n    }\n\n    /// @dev\n    /// 1) Uses msg.sender to ask MatryxProxy for the type of library this call should be forwarded to\n    /// 2) Uses this library type to lookup (in its own storage) the name of the library\n    /// 3) Uses this name to ask MatryxProxy for the address of the contract (under this platform's version)\n    /// 4) Uses name and signature to ask MatryxProxy for the data necessary to modify the incoming calldata\n    ///    so as to be appropriate for the associated library call\n    /// 5) Makes a delegatecall to the library address given by MatryxProxy with the library-appropriate calldata\n    function () public {\n        assembly {\n            // constants\n            let offset := 0x100000000000000000000000000000000000000000000000000000000\n            let libPlatform := 0x4c6962506c6174666f726d000000000000000000000000000000000000000000\n\n            let ptr := mload(0x40)                                              // scratch space for calldata\n            let proxy := sload(info_slot)                                       // load info.proxy address\n            let version := sload(add(info_slot, 1))                             // load info.version number\n\n            mstore(0, mul(0xe11aa6a2, offset))                                  // getContractType(address)\n            mstore(0x04, caller)                                                // arg 0 - contract\n            let res := call(gas, proxy, 0, 0, 0x24, 0, 0x20)                    // call proxy.getContractType\n            if iszero(res) { revert(0, 0) }                                     // safety check\n\n            // get library name for contract type                               // key - type (in 0x0) from getContractType\n            mstore(0x20, contractTypeToLibraryName_slot)                        // map - contract type to library name\n            let libName := sload(keccak256(0, 0x40))                            // get library name for contract type\n            if iszero(libName) { libName := libPlatform }                       // default to LibPlatform\n\n            // call proxy and get library address\n            mstore(ptr, mul(0xc53cfd9a, offset))                                // getContract(uint256,bytes32)\n            mstore(add(ptr, 0x04), version)                                     // arg 0 - version\n            mstore(add(ptr, 0x24), libName)                                     // arg 1 - library name\n            res := call(gas, proxy, 0, ptr, 0x44, 0, 0x20)                      // call proxy.getContract\n            if iszero(res) { revert(0, 0) }                                     // safety check\n            let libAddress := mload(0)                                          // store libAddress from response\n\n            // get fnData from proxy\n            mstore(ptr, mul(0x3b15aabf, offset))                                // getContractMethod(uint256,bytes32,bytes32)\n            mstore(add(ptr, 0x04), version)                                     // arg 0 - version\n            mstore(add(ptr, 0x24), libName)                                     // arg 1 - library name\n            calldatacopy(add(ptr, 0x44), 0, 0x04)                               // arg 2 - fn selector\n            res := call(gas, proxy, 0, ptr, 0x64, 0, 0)                         // call proxy.getContractMethod\n            if iszero(res) { revert(0, 0) }                                     // safety check\n\n            returndatacopy(ptr, 0, returndatasize)                              // copy fnData into ptr\n            let ptr2 := add(ptr, mload(ptr))                                    // ptr2 is pointer to start of fnData\n\n            let m_injParams := add(ptr2, mload(add(ptr2, 0x20)))                // mem loc injected params\n            let injParams_len := mload(m_injParams)                             // num injected params\n            m_injParams := add(m_injParams, 0x20)                               // first injected param\n\n            let m_dynParams := add(ptr2, mload(add(ptr2, 0x40)))                // memory location of start of dynamic params\n            let dynParams_len := mload(m_dynParams)                             // num dynamic params\n            m_dynParams := add(m_dynParams, 0x20)                               // first dynamic param\n\n            // forward calldata to library\n            ptr := add(ptr, returndatasize)                                     // shift ptr to new scratch space\n            mstore(ptr, mload(ptr2))                                            // forward call with modified selector\n\n            ptr2 := add(ptr, 0x04)                                              // copy of ptr for keeping track of injected params\n\n            mstore(ptr2, caller)                                                // inject msg.sender\n            mstore(add(ptr2, 0x20), caller)                                     // inject msg.sender again if on platform\n\n            let cdOffset := 0x04                                                // calldata offset, after signature\n\n            if iszero(eq(libName, libPlatform)) {                               // if coming from forwarder:\n                calldatacopy(add(ptr2, 0x20), 0x04, 0x20)                       // overwrite injected msg.sender with address from forwarder\n                cdOffset := add(cdOffset, 0x20)                                 // shift calldata offset for injected address\n            }\n            ptr2 := add(ptr2, 0x40)                                             // shift ptr2\n\n            for { let i := 0 } lt(i, injParams_len) { i := add(i, 1) } {        // loop through injected params and insert\n                let injParam := mload(add(m_injParams, mul(i, 0x20)))           // get injected param slot\n                mstore(ptr2, injParam)                                          // store injected params into next slot\n                ptr2 := add(ptr2, 0x20)                                         // shift ptr2\n            }\n\n            calldatacopy(ptr2, cdOffset, sub(calldatasize, cdOffset))           // copy calldata after injected data storage\n\n            // update dynamic params location\n            for { let i := 0 } lt(i, dynParams_len) { i := add(i, 1) } {\n                let idx := mload(add(m_dynParams, mul(i, 0x20)))                // get dynParam index in parameters\n                let loc := add(ptr2, mul(idx, 0x20))                            // get location in memory of dynParam\n                mstore(loc, add(mload(loc), mul(add(injParams_len, 2), 0x20)))  // shift dynParam location by num injected\n            }\n\n            // calculate size of forwarded call\n            let size := add(0x04, sub(calldatasize, cdOffset))                  // calldatasize minus injected\n            size := add(size, mul(add(injParams_len, 2), 0x20))                 // add size of injected\n\n            res := delegatecall(gas, libAddress, ptr, size, 0, 0)               // delegatecall to library\n            if iszero(res) { revert(0, 0) }                                     // safety check\n\n            returndatacopy(ptr, 0, returndatasize)                              // copy return data into ptr for returning\n            return(ptr, returndatasize)                                         // return forwarded call returndata\n        }\n    }\n\n    /// @dev Sets the name of a library for a given contract type\n    /// @param contractType The type of the contract, as given by MatryxProxy\n    /// @param libraryName  The name of the library\n    function setContractTypeLibrary(uint256 contractType, bytes32 libraryName) public {\n        require(msg.sender == info.owner, \"Must be Platform owner\");\n        contractTypeToLibraryName[contractType] = libraryName;\n    }\n\n    /// @dev Gets the name of a library from a given contract type\n    /// @param contractType The type of the contract, as given by MatryxProxy\n    /// @return              The name of the library as a bytes32\n    function getContractTypeLibrary(uint256 contractType) public view returns (bytes32) {\n        return contractTypeToLibraryName[contractType];\n    }\n\n    function getInfo() public view returns (MatryxPlatform.Info) {\n        return info;\n    }\n}\n\ninterface IMatryxPlatform {\n    function setContractTypeLibrary(uint256, bytes32) external;\n    function getContractTypeLibrary(uint256) external view returns (bytes32);\n    function getInfo() external view returns (MatryxPlatform.Info);\n\n    function getTournaments() external view returns (address[]);\n\n    function enterMatryx() external;\n    function createTournament(LibTournament.TournamentDetails, LibRound.RoundDetails) external returns (address);\n}\n\n// dependencies: LibTournament\nlibrary LibPlatform {\n    event TournamentCreated(address _tournamentAddress);\n\n    /// @dev Return all Tournaments\n    /// @param data  Platform storage containing all contract data\n    /// @return      Array of Tournament addresses\n    function getTournaments(address, address, MatryxPlatform.Data storage data) public view returns (address[]) {\n        return data.allTournaments;\n    }\n\n    /// @dev Enter Matryx\n    /// @param sender  msg.sender to Platform\n    /// @param info    Platform storage containing version number and proxy address\n    /// @param data    Platform storage containing all contract data and users\n    function enterMatryx(address sender, address, MatryxPlatform.Info storage info, MatryxPlatform.Data storage data) public {\n        require(!data.users[sender].exists, \"Already entered Matryx\");\n        require(IMatryxToken(info.token).balanceOf(sender) > 0, \"Must have MTX\");\n\n        data.users[sender].exists = true;\n        data.allUsers.push(sender);\n    }\n\n    /// @dev Creates a Tournament\n    /// @param sender    msg.sender to Platform\n    /// @param info      Platform storage containing version number and proxy address\n    /// @param data      Platform storage containing all contract data and users\n    /// @param tDetails  Tournament details (title, category, descHash, fileHash, bounty, entryFee)\n    /// @param rDetails  Round details (start, end, review, bounty)\n    /// @return          Address of the created Tournament\n    function createTournament(address sender, address, MatryxPlatform.Info storage info, MatryxPlatform.Data storage data, LibTournament.TournamentDetails tDetails, LibRound.RoundDetails rDetails) public returns (address) {\n        require(data.users[sender].exists, \"Must have entered Matryx\");\n        require(rDetails.bounty <= tDetails.bounty, \"Round bounty cannot exceed Tournament bounty\");\n        // require(IMatryxToken(info.token).allowance(sender, this) >= tDetails.bounty, \"Insufficient MTX\");\n\n        address tAddress = new MatryxTournament(info.version, info.proxy);\n        MatryxProxy(info.proxy).setContractType(tAddress, MatryxProxy.ContractType.Tournament);\n        data.allTournaments.push(tAddress);\n        data.users[sender].tournaments.push(tAddress);\n        emit TournamentCreated(tAddress);\n\n        LibTournament.TournamentData storage tournament = data.tournaments[tAddress];\n        tournament.owner = sender;\n        tournament.details = tDetails;\n\n        require(IMatryxToken(info.token).transferFrom(sender, tAddress, tDetails.bounty), \"Transfer failed\");\n\n        // NOTE: if LibTournament is redeployed, relink and redeploy LibPlatform\n        LibTournament.createRound(tAddress, sender, info, data, rDetails);\n\n        return tAddress;\n    }\n}\n\n/**\ntoken.setReleaseAgent(network.accounts[0])\ntoken.releaseTokenTransfer()\ntoken.mint(network.accounts[0], toWei(1000))\ntoken.approve(p.address, toWei(1000))\np.enterMatryx()\np.createTournament([stb('title', 3), stb('category'), stb('descHash', 2), stb('fileHash', 2), toWei(1000), 2], [1,2,3,4])\np.getTournaments()\n\nt = contract('tAddress', IMatryxTournament);0\nt.createSubmission([stb('title', 3), stb('descHash', 2), stb('fileHash', 2)])\nt.getRounds()\n\nr = contract('rAddress', IMatryxRound);0\nr.getSubmissions()\n\ns = contract('sAddress', IMatryxSubmission);0\n\n */\n",
  "sourcePath": "/Users/ajm13/Desktop/matryx/MatryxPlatform/contracts/MatryxPlatform.sol",
  "compiler": {
    "name": "solc",
    "version": "0.4.24+commit.e67f0147.Emscripten.clang"
  },
  "schemaVersion": "2.0.1",
  "updatedAt": "2018-09-17T23:48:00.212Z"
}