{
  "contractName": "MatryxPlatform",
  "abi": [
    {
      "constant": true,
      "inputs": [
        {
          "name": "",
          "type": "uint256"
        }
      ],
      "name": "tournamentList",
      "outputs": [
        {
          "name": "",
          "type": "uint256"
        }
      ],
      "payable": false,
      "stateMutability": "view",
      "type": "function"
    },
    {
      "constant": false,
      "inputs": [
        {
          "name": "_queryID",
          "type": "uint256"
        },
        {
          "name": "_response",
          "type": "bytes32"
        }
      ],
      "name": "storeQueryResponse",
      "outputs": [
        {
          "name": "success",
          "type": "bool"
        }
      ],
      "payable": false,
      "stateMutability": "nonpayable",
      "type": "function"
    },
    {
      "constant": true,
      "inputs": [
        {
          "name": "tournamentId",
          "type": "uint256"
        }
      ],
      "name": "submissionCount",
      "outputs": [
        {
          "name": "",
          "type": "uint256"
        }
      ],
      "payable": false,
      "stateMutability": "view",
      "type": "function"
    },
    {
      "constant": true,
      "inputs": [
        {
          "name": "idx",
          "type": "uint256"
        }
      ],
      "name": "tournamentByIndex",
      "outputs": [
        {
          "name": "",
          "type": "uint256"
        },
        {
          "name": "",
          "type": "string"
        },
        {
          "name": "",
          "type": "string"
        },
        {
          "name": "",
          "type": "uint256"
        }
      ],
      "payable": false,
      "stateMutability": "view",
      "type": "function"
    },
    {
      "constant": true,
      "inputs": [
        {
          "name": "tournamentId",
          "type": "uint256"
        }
      ],
      "name": "tournamentByAddress",
      "outputs": [
        {
          "name": "",
          "type": "uint256"
        },
        {
          "name": "",
          "type": "string"
        },
        {
          "name": "",
          "type": "string"
        },
        {
          "name": "",
          "type": "uint256"
        }
      ],
      "payable": false,
      "stateMutability": "view",
      "type": "function"
    },
    {
      "constant": true,
      "inputs": [],
      "name": "tournamentCount",
      "outputs": [
        {
          "name": "",
          "type": "uint256"
        }
      ],
      "payable": false,
      "stateMutability": "view",
      "type": "function"
    },
    {
      "constant": true,
      "inputs": [
        {
          "name": "",
          "type": "uint256"
        }
      ],
      "name": "tournaments",
      "outputs": [
        {
          "name": "id",
          "type": "uint256"
        },
        {
          "name": "title",
          "type": "string"
        },
        {
          "name": "description",
          "type": "string"
        },
        {
          "name": "bounty",
          "type": "uint256"
        },
        {
          "name": "exists",
          "type": "bool"
        }
      ],
      "payable": false,
      "stateMutability": "view",
      "type": "function"
    },
    {
      "constant": false,
      "inputs": [
        {
          "name": "tournamentId",
          "type": "uint256"
        },
        {
          "name": "title",
          "type": "string"
        },
        {
          "name": "body",
          "type": "string"
        },
        {
          "name": "references",
          "type": "string"
        },
        {
          "name": "contributors",
          "type": "string"
        }
      ],
      "name": "createSubmission",
      "outputs": [],
      "payable": false,
      "stateMutability": "nonpayable",
      "type": "function"
    },
    {
      "constant": true,
      "inputs": [],
      "name": "getOwner",
      "outputs": [
        {
          "name": "_deployer",
          "type": "address"
        }
      ],
      "payable": false,
      "stateMutability": "view",
      "type": "function"
    },
    {
      "constant": true,
      "inputs": [
        {
          "name": "tournamentId",
          "type": "uint256"
        },
        {
          "name": "idx",
          "type": "uint256"
        }
      ],
      "name": "submissionByIndex",
      "outputs": [
        {
          "name": "",
          "type": "uint256"
        },
        {
          "name": "",
          "type": "string"
        },
        {
          "name": "",
          "type": "string"
        },
        {
          "name": "",
          "type": "string"
        },
        {
          "name": "",
          "type": "string"
        },
        {
          "name": "",
          "type": "address"
        }
      ],
      "payable": false,
      "stateMutability": "view",
      "type": "function"
    },
    {
      "constant": true,
      "inputs": [
        {
          "name": "tournamentId",
          "type": "uint256"
        },
        {
          "name": "submissionId",
          "type": "uint256"
        }
      ],
      "name": "submissionByAddress",
      "outputs": [
        {
          "name": "",
          "type": "uint256"
        },
        {
          "name": "",
          "type": "string"
        },
        {
          "name": "",
          "type": "string"
        },
        {
          "name": "",
          "type": "string"
        },
        {
          "name": "",
          "type": "string"
        },
        {
          "name": "",
          "type": "address"
        }
      ],
      "payable": false,
      "stateMutability": "view",
      "type": "function"
    },
    {
      "constant": false,
      "inputs": [
        {
          "name": "_query",
          "type": "bytes32"
        },
        {
          "name": "_sender",
          "type": "address"
        }
      ],
      "name": "Query",
      "outputs": [],
      "payable": false,
      "stateMutability": "nonpayable",
      "type": "function"
    },
    {
      "constant": false,
      "inputs": [
        {
          "name": "toIgnore",
          "type": "uint256"
        }
      ],
      "name": "prepareBalance",
      "outputs": [],
      "payable": false,
      "stateMutability": "nonpayable",
      "type": "function"
    },
    {
      "constant": false,
      "inputs": [
        {
          "name": "title",
          "type": "string"
        },
        {
          "name": "description",
          "type": "string"
        },
        {
          "name": "bounty",
          "type": "uint256"
        }
      ],
      "name": "createTournament",
      "outputs": [],
      "payable": false,
      "stateMutability": "nonpayable",
      "type": "function"
    },
    {
      "inputs": [],
      "payable": false,
      "stateMutability": "nonpayable",
      "type": "constructor"
    },
    {
      "anonymous": false,
      "inputs": [
        {
          "indexed": false,
          "name": "id",
          "type": "uint256"
        },
        {
          "indexed": false,
          "name": "sender",
          "type": "address"
        }
      ],
      "name": "QueryPerformed",
      "type": "event"
    }
  ],
  "bytecode": "0x6060604052341561000f57600080fd5b336000806101000a81548173ffffffffffffffffffffffffffffffffffffffff021916908373ffffffffffffffffffffffffffffffffffffffff16021790555061297f8061005e6000396000f3006060604052600436106100d0576000357c0100000000000000000000000000000000000000000000000000000000900463ffffffff168063053730ea146100d557806308c4fc5f1461010c5780632312cbf6146101545780635b67b6ba1461018b57806363f11a40146102a15780636e2b2c7c146103b75780637503e1b7146103e057806382f40bbf1461053b578063893d20e81461066a5780638e727611146106bf578063c3c3d9ac146108e2578063d4a0182014610b05578063edee41d914610b4b578063f504cf0c14610b6e575b600080fd5b34156100e057600080fd5b6100f66004808035906020019091905050610c17565b6040518082815260200191505060405180910390f35b341561011757600080fd5b61013a600480803590602001909190803560001916906020019091905050610c3b565b604051808215151515815260200191505060405180910390f35b341561015f57600080fd5b6101756004808035906020019091905050610cfe565b6040518082815260200191505060405180910390f35b341561019657600080fd5b6101ac6004808035906020019091905050610f12565b604051808581526020018060200180602001848152602001838103835286818151815260200191508051906020019080838360005b838110156101fc5780820151818401526020810190506101e1565b50505050905090810190601f1680156102295780820380516001836020036101000a031916815260200191505b50838103825285818151815260200191508051906020019080838360005b83811015610262578082015181840152602081019050610247565b50505050905090810190601f16801561028f5780820380516001836020036101000a031916815260200191505b50965050505050505060405180910390f35b34156102ac57600080fd5b6102c26004808035906020019091905050611183565b604051808581526020018060200180602001848152602001838103835286818151815260200191508051906020019080838360005b838110156103125780820151818401526020810190506102f7565b50505050905090810190601f16801561033f5780820380516001836020036101000a031916815260200191505b50838103825285818151815260200191508051906020019080838360005b8381101561037857808201518184015260208101905061035d565b50505050905090810190601f1680156103a55780820380516001836020036101000a031916815260200191505b50965050505050505060405180910390f35b34156103c257600080fd5b6103ca6113c5565b6040518082815260200191505060405180910390f35b34156103eb57600080fd5b61040160048080359060200190919050506113d2565b604051808681526020018060200180602001858152602001841515151581526020018381038352878181546001816001161561010002031660029004815260200191508054600181600116156101000203166002900480156104a45780601f10610479576101008083540402835291602001916104a4565b820191906000526020600020905b81548152906001019060200180831161048757829003601f168201915b50508381038252868181546001816001161561010002031660029004815260200191508054600181600116156101000203166002900480156105275780601f106104fc57610100808354040283529160200191610527565b820191906000526020600020905b81548152906001019060200180831161050a57829003601f168201915b505097505050505050505060405180910390f35b341561054657600080fd5b610668600480803590602001909190803590602001908201803590602001908080601f0160208091040260200160405190810160405280939291908181526020018383808284378201915050505050509190803590602001908201803590602001908080601f0160208091040260200160405190810160405280939291908181526020018383808284378201915050505050509190803590602001908201803590602001908080601f0160208091040260200160405190810160405280939291908181526020018383808284378201915050505050509190803590602001908201803590602001908080601f01602080910402602001604051908101604052809392919081815260200183838082843782019150505050505091905050611413565b005b341561067557600080fd5b61067d611641565b604051808273ffffffffffffffffffffffffffffffffffffffff1673ffffffffffffffffffffffffffffffffffffffff16815260200191505060405180910390f35b34156106ca57600080fd5b6106e9600480803590602001909190803590602001909190505061166a565b60405180878152602001806020018060200180602001806020018673ffffffffffffffffffffffffffffffffffffffff1673ffffffffffffffffffffffffffffffffffffffff16815260200185810385528a818151815260200191508051906020019080838360005b8381101561076d578082015181840152602081019050610752565b50505050905090810190601f16801561079a5780820380516001836020036101000a031916815260200191505b50858103845289818151815260200191508051906020019080838360005b838110156107d35780820151818401526020810190506107b8565b50505050905090810190601f1680156108005780820380516001836020036101000a031916815260200191505b50858103835288818151815260200191508051906020019080838360005b8381101561083957808201518184015260208101905061081e565b50505050905090810190601f1680156108665780820380516001836020036101000a031916815260200191505b50858103825287818151815260200191508051906020019080838360005b8381101561089f578082015181840152602081019050610884565b50505050905090810190601f1680156108cc5780820380516001836020036101000a031916815260200191505b509a505050505050505050505060405180910390f35b34156108ed57600080fd5b61090c6004808035906020019091908035906020019091905050611a7e565b60405180878152602001806020018060200180602001806020018673ffffffffffffffffffffffffffffffffffffffff1673ffffffffffffffffffffffffffffffffffffffff16815260200185810385528a818151815260200191508051906020019080838360005b83811015610990578082015181840152602081019050610975565b50505050905090810190601f1680156109bd5780820380516001836020036101000a031916815260200191505b50858103845289818151815260200191508051906020019080838360005b838110156109f65780820151818401526020810190506109db565b50505050905090810190601f168015610a235780820380516001836020036101000a031916815260200191505b50858103835288818151815260200191508051906020019080838360005b83811015610a5c578082015181840152602081019050610a41565b50505050905090810190601f168015610a895780820380516001836020036101000a031916815260200191505b50858103825287818151815260200191508051906020019080838360005b83811015610ac2578082015181840152602081019050610aa7565b50505050905090810190601f168015610aef5780820380516001836020036101000a031916815260200191505b509a505050505050505050505060405180910390f35b3415610b1057600080fd5b610b4960048080356000191690602001909190803573ffffffffffffffffffffffffffffffffffffffff16906020019091905050611e60565b005b3415610b5657600080fd5b610b6c600480803590602001909190505061216f565b005b3415610b7957600080fd5b610c15600480803590602001908201803590602001908080601f0160208091040260200160405190810160405280939291908181526020018383808284378201915050505050509190803590602001908201803590602001908080601f01602080910402602001604051908101604052809392919081815260200183838082843782019150505050505091908035906020019091905050612233565b005b600581815481101515610c2657fe5b90600052602060002090016000915090505481565b60008060009054906101000a900473ffffffffffffffffffffffffffffffffffffffff1673ffffffffffffffffffffffffffffffffffffffff163373ffffffffffffffffffffffffffffffffffffffff16141515610c9857600080fd5b60006001028260001916118015610cc957506000600102600360008581526020019081526020016000205460001916145b15610cf3578160036000858152602001908152602001600020816000191690555060019050610cf8565b600090505b92915050565b6000610d08612449565b6004600084815260200190815260200160002060c0604051908101604052908160008201548152602001600182018054600181600116156101000203166002900480601f016020809104026020016040519081016040528092919081815260200182805460018160011615610100020316600290048015610dca5780601f10610d9f57610100808354040283529160200191610dca565b820191906000526020600020905b815481529060010190602001808311610dad57829003601f168201915b50505050508152602001600282018054600181600116156101000203166002900480601f016020809104026020016040519081016040528092919081815260200182805460018160011615610100020316600290048015610e6c5780601f10610e4157610100808354040283529160200191610e6c565b820191906000526020600020905b815481529060010190602001808311610e4f57829003601f168201915b505050505081526020016003820154815260200160058201805480602002602001604051908101604052809291908181526020018280548015610ece57602002820191906000526020600020905b815481526020019060010190808311610eba575b505050505081526020016006820160009054906101000a900460ff16151515158152505090508060a001511515610f0457600080fd5b806080015151915050919050565b6000610f1c612494565b610f24612494565b6000610f2e612449565b85610f376113c5565b111515610f4357600080fd5b60046000600588815481101515610f5657fe5b906000526020600020900154815260200190815260200160002060c0604051908101604052908160008201548152602001600182018054600181600116156101000203166002900480601f01602080910402602001604051908101604052809291908181526020018280546001816001161561010002031660029004801561101f5780601f10610ff45761010080835404028352916020019161101f565b820191906000526020600020905b81548152906001019060200180831161100257829003601f168201915b50505050508152602001600282018054600181600116156101000203166002900480601f0160208091040260200160405190810160405280929190818152602001828054600181600116156101000203166002900480156110c15780601f10611096576101008083540402835291602001916110c1565b820191906000526020600020905b8154815290600101906020018083116110a457829003601f168201915b50505050508152602001600382015481526020016005820180548060200260200160405190810160405280929190818152602001828054801561112357602002820191906000526020600020905b81548152602001906001019080831161110f575b505050505081526020016006820160009054906101000a900460ff16151515158152505090508060a00151151561115957600080fd5b80600001518160200151826040015183606001518292508191509450945094509450509193509193565b600061118d612494565b611195612494565b600061119f612449565b6004600087815260200190815260200160002060c0604051908101604052908160008201548152602001600182018054600181600116156101000203166002900480601f0160208091040260200160405190810160405280929190818152602001828054600181600116156101000203166002900480156112615780601f1061123657610100808354040283529160200191611261565b820191906000526020600020905b81548152906001019060200180831161124457829003601f168201915b50505050508152602001600282018054600181600116156101000203166002900480601f0160208091040260200160405190810160405280929190818152602001828054600181600116156101000203166002900480156113035780601f106112d857610100808354040283529160200191611303565b820191906000526020600020905b8154815290600101906020018083116112e657829003601f168201915b50505050508152602001600382015481526020016005820180548060200260200160405190810160405280929190818152602001828054801561136557602002820191906000526020600020905b815481526020019060010190808311611351575b505050505081526020016006820160009054906101000a900460ff16151515158152505090508060a00151151561139b57600080fd5b80600001518160200151826040015183606001518292508191509450945094509450509193509193565b6000600580549050905090565b6004602052806000526040600020600091509050806000015490806001019080600201908060030154908060060160009054906101000a900460ff16905085565b60008061141e6124a8565b6004600089815260200190815260200160002092508260060160009054906101000a900460ff16151561145057600080fd5b6114586123b0565b91506000600102826000191611151561147057600080fd5b87816000018181525050602a61148589610cfe565b01816020018181525050868160400181905250858160600181905250848160800181905250838160a00181905250338160c0019073ffffffffffffffffffffffffffffffffffffffff16908173ffffffffffffffffffffffffffffffffffffffff168152505060018160e001901515908115158152505080836004016000836020015181526020019081526020016000206000820151816000015560208201518160010155604082015181600201908051906020019061154692919061251e565b50606082015181600301908051906020019061156392919061251e565b50608082015181600401908051906020019061158092919061251e565b5060a082015181600501908051906020019061159d92919061251e565b5060c08201518160060160006101000a81548173ffffffffffffffffffffffffffffffffffffffff021916908373ffffffffffffffffffffffffffffffffffffffff16021790555060e08201518160060160146101000a81548160ff02191690831515021790555090505082600501805480600101828161161e919061259e565b916000526020600020900160008360200151909190915055505050505050505050565b60008060009054906101000a900473ffffffffffffffffffffffffffffffffffffffff16905090565b6000611674612494565b61167c612494565b611684612494565b61168c612494565b6000806116976124a8565b886116a18b610cfe565b1115156116ad57600080fd5b600460008b815260200190815260200160002091508160060160009054906101000a900460ff1615156116df57600080fd5b816004016000836005018b8154811015156116f657fe5b906000526020600020900154815260200190815260200160002061010060405190810160405290816000820154815260200160018201548152602001600282018054600181600116156101000203166002900480601f0160208091040260200160405190810160405280929190818152602001828054600181600116156101000203166002900480156117ca5780601f1061179f576101008083540402835291602001916117ca565b820191906000526020600020905b8154815290600101906020018083116117ad57829003601f168201915b50505050508152602001600382018054600181600116156101000203166002900480601f01602080910402602001604051908101604052809291908181526020018280546001816001161561010002031660029004801561186c5780601f106118415761010080835404028352916020019161186c565b820191906000526020600020905b81548152906001019060200180831161184f57829003601f168201915b50505050508152602001600482018054600181600116156101000203166002900480601f01602080910402602001604051908101604052809291908181526020018280546001816001161561010002031660029004801561190e5780601f106118e35761010080835404028352916020019161190e565b820191906000526020600020905b8154815290600101906020018083116118f157829003601f168201915b50505050508152602001600582018054600181600116156101000203166002900480601f0160208091040260200160405190810160405280929190818152602001828054600181600116156101000203166002900480156119b05780601f10611985576101008083540402835291602001916119b0565b820191906000526020600020905b81548152906001019060200180831161199357829003601f168201915b505050505081526020016006820160009054906101000a900473ffffffffffffffffffffffffffffffffffffffff1673ffffffffffffffffffffffffffffffffffffffff1673ffffffffffffffffffffffffffffffffffffffff1681526020016006820160149054906101000a900460ff16151515158152505090508060e001511515611a3c57600080fd5b80602001518160400151826060015183608001518460a001518560c0015184945083935082925081915097509750975097509750975050509295509295509295565b6000611a88612494565b611a90612494565b611a98612494565b611aa0612494565b600080611aab6124a8565b600460008b815260200190815260200160002091508160060160009054906101000a900460ff161515611add57600080fd5b8160040160008a815260200190815260200160002061010060405190810160405290816000820154815260200160018201548152602001600282018054600181600116156101000203166002900480601f016020809104026020016040519081016040528092919081815260200182805460018160011615610100020316600290048015611bac5780601f10611b8157610100808354040283529160200191611bac565b820191906000526020600020905b815481529060010190602001808311611b8f57829003601f168201915b50505050508152602001600382018054600181600116156101000203166002900480601f016020809104026020016040519081016040528092919081815260200182805460018160011615610100020316600290048015611c4e5780601f10611c2357610100808354040283529160200191611c4e565b820191906000526020600020905b815481529060010190602001808311611c3157829003601f168201915b50505050508152602001600482018054600181600116156101000203166002900480601f016020809104026020016040519081016040528092919081815260200182805460018160011615610100020316600290048015611cf05780601f10611cc557610100808354040283529160200191611cf0565b820191906000526020600020905b815481529060010190602001808311611cd357829003601f168201915b50505050508152602001600582018054600181600116156101000203166002900480601f016020809104026020016040519081016040528092919081815260200182805460018160011615610100020316600290048015611d925780601f10611d6757610100808354040283529160200191611d92565b820191906000526020600020905b815481529060010190602001808311611d7557829003601f168201915b505050505081526020016006820160009054906101000a900473ffffffffffffffffffffffffffffffffffffffff1673ffffffffffffffffffffffffffffffffffffffff1673ffffffffffffffffffffffffffffffffffffffff1681526020016006820160149054906101000a900460ff16151515158152505090508060e001511515611e1e57600080fd5b80602001518160400151826060015183608001518460a001518560c0015184945083935082925081915097509750975097509750975050509295509295509295565b6000806000600160008573ffffffffffffffffffffffffffffffffffffffff1673ffffffffffffffffffffffffffffffffffffffff16815260200190815260200160002060009054906101000a900473ffffffffffffffffffffffffffffffffffffffff1673ffffffffffffffffffffffffffffffffffffffff161115611f4857600160008473ffffffffffffffffffffffffffffffffffffffff1673ffffffffffffffffffffffffffffffffffffffff16815260200190815260200160002060009054906101000a900473ffffffffffffffffffffffffffffffffffffffff16915061201e565b82611f516125ca565b808273ffffffffffffffffffffffffffffffffffffffff1673ffffffffffffffffffffffffffffffffffffffff168152602001915050604051809103906000f0801515611f9d57600080fd5b915081600160008573ffffffffffffffffffffffffffffffffffffffff1673ffffffffffffffffffffffffffffffffffffffff16815260200190815260200160002060006101000a81548173ffffffffffffffffffffffffffffffffffffffff021916908373ffffffffffffffffffffffffffffffffffffffff1602179055505b8173ffffffffffffffffffffffffffffffffffffffff1663a3b61a9c856000604051602001526040518263ffffffff167c0100000000000000000000000000000000000000000000000000000000028152600401808260001916600019168152602001915050602060405180830381600087803b151561209d57600080fd5b6102c65a03f115156120ae57600080fd5b50505060405180519050905080600260008573ffffffffffffffffffffffffffffffffffffffff1673ffffffffffffffffffffffffffffffffffffffff168152602001908152602001600020819055507f1c16af450a72e7153ed6faee28677e32f11936f8ab2e63322d032d1f753b5aea8184604051808381526020018273ffffffffffffffffffffffffffffffffffffffff1673ffffffffffffffffffffffffffffffffffffffff1681526020019250505060405180910390a150505050565b3073ffffffffffffffffffffffffffffffffffffffff1663d4a0182082600102336040518363ffffffff167c01000000000000000000000000000000000000000000000000000000000281526004018083600019166000191681526020018273ffffffffffffffffffffffffffffffffffffffff1673ffffffffffffffffffffffffffffffffffffffff16815260200192505050600060405180830381600087803b151561221c57600080fd5b6102c65a03f1151561222d57600080fd5b50505050565b61223b612449565b6000809054906101000a900473ffffffffffffffffffffffffffffffffffffffff1673ffffffffffffffffffffffffffffffffffffffff163373ffffffffffffffffffffffffffffffffffffffff1614151561229657600080fd5b602a6122a06113c5565b018160000181815250508381602001819052508281604001819052508181606001818152505060018160a001901515908115158152505080600460008360000151815260200190815260200160002060008201518160000155602082015181600101908051906020019061231592919061251e565b50604082015181600201908051906020019061233292919061251e565b506060820151816003015560808201518160050190805190602001906123599291906125da565b5060a08201518160060160006101000a81548160ff02191690831515021790555090505060058054806001018281612391919061259e565b9160005260206000209001600083600001519091909150555050505050565b6000806000600260003373ffffffffffffffffffffffffffffffffffffffff1673ffffffffffffffffffffffffffffffffffffffff16815260200190815260200160002054915060008211151561240d5760006001029250612444565b60036000838152602001908152602001600020549050600060010281600019161115156124405760006001029250612444565b8092505b505090565b60c06040519081016040528060008152602001612464612627565b8152602001612471612627565b81526020016000815260200161248561263b565b81526020016000151581525090565b602060405190810160405280600081525090565b6101006040519081016040528060008152602001600081526020016124cb612627565b81526020016124d8612627565b81526020016124e5612627565b81526020016124f2612627565b8152602001600073ffffffffffffffffffffffffffffffffffffffff1681526020016000151581525090565b828054600181600116156101000203166002900490600052602060002090601f016020900481019282601f1061255f57805160ff191683800117855561258d565b8280016001018555821561258d579182015b8281111561258c578251825591602001919060010190612571565b5b50905061259a919061264f565b5090565b8154818355818115116125c5578183600052602060002091820191016125c4919061264f565b5b505050565b6040516102df8061267583390190565b828054828255906000526020600020908101928215612616579160200282015b828111156126155782518255916020019190600101906125fa565b5b509050612623919061264f565b5090565b602060405190810160405280600081525090565b602060405190810160405280600081525090565b61267191905b8082111561266d576000816000905550600101612655565b5090565b9056006060604052341561000f57600080fd5b6040516020806102df83398101604052808051906020019091905050336000806101000a81548173ffffffffffffffffffffffffffffffffffffffff021916908373ffffffffffffffffffffffffffffffffffffffff16021790555080600160006101000a81548173ffffffffffffffffffffffffffffffffffffffff021916908373ffffffffffffffffffffffffffffffffffffffff16021790555050610223806100bc6000396000f30060606040526004361061004c576000357c0100000000000000000000000000000000000000000000000000000000900463ffffffff16806341c0e1b514610051578063a3b61a9c14610066575b600080fd5b341561005c57600080fd5b6100646100a1565b005b341561007157600080fd5b61008b600480803560001916906020019091905050610115565b6040518082815260200191505060405180910390f35b6000809054906101000a900473ffffffffffffffffffffffffffffffffffffffff1673ffffffffffffffffffffffffffffffffffffffff163373ffffffffffffffffffffffffffffffffffffffff161415156100fc57600080fd5b3373ffffffffffffffffffffffffffffffffffffffff16ff5b60008060009054906101000a900473ffffffffffffffffffffffffffffffffffffffff1673ffffffffffffffffffffffffffffffffffffffff163373ffffffffffffffffffffffffffffffffffffffff1614151561017257600080fd5b434283336040518085815260200184815260200183600019166000191681526020018273ffffffffffffffffffffffffffffffffffffffff1673ffffffffffffffffffffffffffffffffffffffff166c0100000000000000000000000002815260140194505050505060405180910390206001900460028190555060025490509190505600a165627a7a72305820710295d2b27ce5df64e78cfeebf8d7e7769856f3826015e384f4761d3efae3800029a165627a7a723058205df7d491e0729bd77ff1dbce700504bea41b0a0fbe304764e731c521de692ad60029",
  "source": "pragma solidity ^0.4.18;\n\nimport \"./MatryxOracleMessenger.sol\";\n\ncontract MatryxPlatform is MatryxOracleMessenger\n{\n\n    struct Submission\n    {\n        uint256 tournamentId;\n        uint256 id;\n\n        string title;\n        string body;\n        string references;\n        string contributors;\n        address author;\n\n        bool exists;\n    }\n\n    struct Tournament\n    {\n        uint256 id;\n\n        string title;\n        string description;\n        uint256 bounty;\n\n        mapping (uint256 => Submission) submissions;\n        uint256[] submissionList;\n\n        bool exists;\n    }\n\n    mapping (uint256 => Tournament) public tournaments;\n    uint256[] public tournamentList;\n\n    modifier owneronly()\n    {\n        require(msg.sender == owner);\n        _;\n    }\n\n    function MatryxPlatform() public\n    {\n    }\n\n    function prepareBalance(uint256 toIgnore) public\n    {\n        this.Query(bytes32(toIgnore), msg.sender);\n    }\n\n    function createTournament(string title, string description, uint256 bounty) owneronly public\n    {\n        Tournament memory newTournament;\n        newTournament.id = tournamentCount() + 42;\n        newTournament.title = title;\n        newTournament.description = description;\n        newTournament.bounty = bounty;\n        newTournament.exists = true;\n        tournaments[newTournament.id] = newTournament;\n        tournamentList.push(newTournament.id);\n    }\n\n    function createSubmission(uint256 tournamentId, string title, string body, string references, string contributors) public\n    {\n        // Require tournament exists\n        Tournament storage t = tournaments[tournamentId];\n        require(t.exists);\n\n        bytes32 balanceMTX = latestResponseFromOracle();\n        require(balanceMTX > 0x0);\n\n        Submission memory newSubmission;\n        newSubmission.tournamentId = tournamentId;\n        newSubmission.id = submissionCount(tournamentId) + 42;\n        newSubmission.title = title;\n        newSubmission.body = body;\n        newSubmission.references = references;\n        newSubmission.contributors = contributors;\n        newSubmission.author = msg.sender;\n        newSubmission.exists = true;\n        t.submissions[newSubmission.id] = newSubmission;\n        t.submissionList.push(newSubmission.id);\n    }\n\n    function tournamentByIndex(uint256 idx) public constant returns (uint256, string, string, uint256)\n    {\n        require(tournamentCount() > idx);\n        Tournament memory t = tournaments[tournamentList[idx]];\n        require(t.exists);\n        return (t.id, t.title, t.description, t.bounty);\n    }\n\n    function tournamentByAddress(uint256 tournamentId) public constant returns (uint256, string, string, uint256)\n    {\n        Tournament memory t = tournaments[tournamentId];\n        require(t.exists);\n        return (t.id, t.title, t.description, t.bounty);\n    }\n\n    function tournamentCount() public constant returns (uint256)\n    {\n        return tournamentList.length;\n    }\n\n    function submissionByIndex(uint256 tournamentId, uint256 idx) public constant returns (uint256, string, string, string, string, address)\n    {\n        require(submissionCount(tournamentId) > idx);\n        Tournament storage t = tournaments[tournamentId];\n        require(t.exists);\n        Submission memory s = t.submissions[t.submissionList[idx]];\n        require(s.exists);\n        return (s.id, s.title, s.body, s.references, s.contributors, s.author);\n    }\n\n    function submissionByAddress(uint256 tournamentId, uint256 submissionId) public constant returns (uint256, string, string, string, string, address)\n    {\n        Tournament storage t = tournaments[tournamentId];\n        require(t.exists);\n        Submission memory s = t.submissions[submissionId];\n        require(s.exists);\n        return (s.id, s.title, s.body, s.references, s.contributors, s.author);\n    }\n\n    function submissionCount(uint256 tournamentId) public constant returns (uint256)\n    {\n        Tournament memory t = tournaments[tournamentId];\n        require(t.exists);\n        return t.submissionList.length;\n    }\n\n}\n",
  "sourcePath": "/Users/maxhoward/Desktop/Ethereum Development/Matryx AWS/Projects/matryx-alpha-source/contracts/MatryxPlatform.sol",
  "compiler": {
    "name": "solc",
    "version": "0.4.18+commit.9cf6e910.Emscripten.clang"
  },
  "schemaVersion": "1.0.1",
  "updatedAt": "2017-11-22T10:02:53.344Z"
}