{
  "contractName": "MatryxRound",
  "abi": [
    {
      "constant": true,
      "inputs": [],
      "name": "tournamentAddress",
      "outputs": [
        {
          "name": "",
          "type": "address"
        }
      ],
      "payable": false,
      "stateMutability": "view",
      "type": "function"
    },
    {
      "constant": true,
      "inputs": [],
      "name": "matryxTokenAddress",
      "outputs": [
        {
          "name": "",
          "type": "address"
        }
      ],
      "payable": false,
      "stateMutability": "view",
      "type": "function"
    },
    {
      "constant": true,
      "inputs": [
        {
          "name": "_sender",
          "type": "address"
        }
      ],
      "name": "isOwner",
      "outputs": [
        {
          "name": "_isOwner",
          "type": "bool"
        }
      ],
      "payable": false,
      "stateMutability": "view",
      "type": "function"
    },
    {
      "constant": true,
      "inputs": [],
      "name": "endTime",
      "outputs": [
        {
          "name": "",
          "type": "uint256"
        }
      ],
      "payable": false,
      "stateMutability": "view",
      "type": "function"
    },
    {
      "constant": true,
      "inputs": [],
      "name": "reviewPeriod",
      "outputs": [
        {
          "name": "",
          "type": "uint256"
        }
      ],
      "payable": false,
      "stateMutability": "view",
      "type": "function"
    },
    {
      "constant": true,
      "inputs": [],
      "name": "winningSubmission",
      "outputs": [
        {
          "name": "",
          "type": "address"
        }
      ],
      "payable": false,
      "stateMutability": "view",
      "type": "function"
    },
    {
      "constant": true,
      "inputs": [],
      "name": "nextRound",
      "outputs": [
        {
          "name": "",
          "type": "address"
        }
      ],
      "payable": false,
      "stateMutability": "view",
      "type": "function"
    },
    {
      "constant": true,
      "inputs": [],
      "name": "roundIndex",
      "outputs": [
        {
          "name": "",
          "type": "uint256"
        }
      ],
      "payable": false,
      "stateMutability": "view",
      "type": "function"
    },
    {
      "constant": true,
      "inputs": [],
      "name": "startTime",
      "outputs": [
        {
          "name": "",
          "type": "uint256"
        }
      ],
      "payable": false,
      "stateMutability": "view",
      "type": "function"
    },
    {
      "constant": true,
      "inputs": [],
      "name": "getOwner",
      "outputs": [
        {
          "name": "_owner",
          "type": "address"
        }
      ],
      "payable": false,
      "stateMutability": "view",
      "type": "function"
    },
    {
      "constant": true,
      "inputs": [],
      "name": "owner",
      "outputs": [
        {
          "name": "",
          "type": "address"
        }
      ],
      "payable": false,
      "stateMutability": "view",
      "type": "function"
    },
    {
      "constant": true,
      "inputs": [],
      "name": "bounty",
      "outputs": [
        {
          "name": "",
          "type": "uint256"
        }
      ],
      "payable": false,
      "stateMutability": "view",
      "type": "function"
    },
    {
      "constant": true,
      "inputs": [],
      "name": "matryxSubmissionFactoryAddress",
      "outputs": [
        {
          "name": "",
          "type": "address"
        }
      ],
      "payable": false,
      "stateMutability": "view",
      "type": "function"
    },
    {
      "constant": true,
      "inputs": [],
      "name": "previousRound",
      "outputs": [
        {
          "name": "",
          "type": "address"
        }
      ],
      "payable": false,
      "stateMutability": "view",
      "type": "function"
    },
    {
      "constant": true,
      "inputs": [],
      "name": "platformAddress",
      "outputs": [
        {
          "name": "",
          "type": "address"
        }
      ],
      "payable": false,
      "stateMutability": "view",
      "type": "function"
    },
    {
      "constant": false,
      "inputs": [
        {
          "name": "newOwner",
          "type": "address"
        }
      ],
      "name": "transferOwnership",
      "outputs": [],
      "payable": false,
      "stateMutability": "nonpayable",
      "type": "function"
    },
    {
      "inputs": [
        {
          "name": "_matryxTokenAddress",
          "type": "address"
        },
        {
          "name": "_platformAddress",
          "type": "address"
        },
        {
          "name": "_tournamentAddress",
          "type": "address"
        },
        {
          "name": "_matryxSubmissionFactoryAddress",
          "type": "address"
        },
        {
          "name": "_owner",
          "type": "address"
        },
        {
          "name": "_bounty",
          "type": "uint256"
        }
      ],
      "payable": false,
      "stateMutability": "nonpayable",
      "type": "constructor"
    },
    {
      "constant": false,
      "inputs": [
        {
          "name": "_submissionAddress",
          "type": "address"
        }
      ],
      "name": "removeSubmission",
      "outputs": [
        {
          "name": "",
          "type": "bool"
        }
      ],
      "payable": false,
      "stateMutability": "nonpayable",
      "type": "function"
    },
    {
      "constant": true,
      "inputs": [],
      "name": "isOpen",
      "outputs": [
        {
          "name": "",
          "type": "bool"
        }
      ],
      "payable": false,
      "stateMutability": "view",
      "type": "function"
    },
    {
      "constant": true,
      "inputs": [],
      "name": "isInReview",
      "outputs": [
        {
          "name": "",
          "type": "bool"
        }
      ],
      "payable": false,
      "stateMutability": "view",
      "type": "function"
    },
    {
      "constant": true,
      "inputs": [
        {
          "name": "_index",
          "type": "uint256"
        }
      ],
      "name": "submissionIsAccessible",
      "outputs": [
        {
          "name": "",
          "type": "bool"
        }
      ],
      "payable": false,
      "stateMutability": "view",
      "type": "function"
    },
    {
      "constant": true,
      "inputs": [
        {
          "name": "_requester",
          "type": "address"
        }
      ],
      "name": "requesterIsContributor",
      "outputs": [
        {
          "name": "",
          "type": "bool"
        }
      ],
      "payable": false,
      "stateMutability": "view",
      "type": "function"
    },
    {
      "constant": false,
      "inputs": [
        {
          "name": "_participantAddress",
          "type": "address"
        },
        {
          "name": "_type",
          "type": "uint256"
        }
      ],
      "name": "setParticipantType",
      "outputs": [],
      "payable": false,
      "stateMutability": "nonpayable",
      "type": "function"
    },
    {
      "constant": true,
      "inputs": [],
      "name": "getPlatform",
      "outputs": [
        {
          "name": "",
          "type": "address"
        }
      ],
      "payable": false,
      "stateMutability": "view",
      "type": "function"
    },
    {
      "constant": true,
      "inputs": [],
      "name": "getTournament",
      "outputs": [
        {
          "name": "",
          "type": "address"
        }
      ],
      "payable": false,
      "stateMutability": "view",
      "type": "function"
    },
    {
      "constant": true,
      "inputs": [],
      "name": "getBounty",
      "outputs": [
        {
          "name": "",
          "type": "uint256"
        }
      ],
      "payable": false,
      "stateMutability": "view",
      "type": "function"
    },
    {
      "constant": true,
      "inputs": [],
      "name": "getTokenAddress",
      "outputs": [
        {
          "name": "",
          "type": "address"
        }
      ],
      "payable": false,
      "stateMutability": "view",
      "type": "function"
    },
    {
      "constant": true,
      "inputs": [],
      "name": "getSubmissions",
      "outputs": [
        {
          "name": "_submissions",
          "type": "address[]"
        }
      ],
      "payable": false,
      "stateMutability": "view",
      "type": "function"
    },
    {
      "constant": true,
      "inputs": [
        {
          "name": "_index",
          "type": "uint256"
        }
      ],
      "name": "getSubmissionAddress",
      "outputs": [
        {
          "name": "_submissionAddress",
          "type": "address"
        }
      ],
      "payable": false,
      "stateMutability": "view",
      "type": "function"
    },
    {
      "constant": true,
      "inputs": [
        {
          "name": "_index",
          "type": "uint256"
        }
      ],
      "name": "getSubmissionAuthor",
      "outputs": [
        {
          "name": "",
          "type": "address"
        }
      ],
      "payable": false,
      "stateMutability": "view",
      "type": "function"
    },
    {
      "constant": true,
      "inputs": [
        {
          "name": "_submissionAddress",
          "type": "address"
        }
      ],
      "name": "getBalance",
      "outputs": [
        {
          "name": "",
          "type": "uint256"
        }
      ],
      "payable": false,
      "stateMutability": "view",
      "type": "function"
    },
    {
      "constant": true,
      "inputs": [],
      "name": "submissionChosen",
      "outputs": [
        {
          "name": "",
          "type": "bool"
        }
      ],
      "payable": false,
      "stateMutability": "view",
      "type": "function"
    },
    {
      "constant": true,
      "inputs": [],
      "name": "getWinningSubmissionAddress",
      "outputs": [
        {
          "name": "",
          "type": "address"
        }
      ],
      "payable": false,
      "stateMutability": "view",
      "type": "function"
    },
    {
      "constant": true,
      "inputs": [],
      "name": "numberOfSubmissions",
      "outputs": [
        {
          "name": "",
          "type": "uint256"
        }
      ],
      "payable": false,
      "stateMutability": "view",
      "type": "function"
    },
    {
      "constant": false,
      "inputs": [
        {
          "name": "_duration",
          "type": "uint256"
        },
        {
          "name": "_reviewPeriod",
          "type": "uint256"
        }
      ],
      "name": "Start",
      "outputs": [],
      "payable": false,
      "stateMutability": "nonpayable",
      "type": "function"
    },
    {
      "constant": false,
      "inputs": [
        {
          "name": "_submissionAddress",
          "type": "address"
        }
      ],
      "name": "chooseWinningSubmission",
      "outputs": [],
      "payable": false,
      "stateMutability": "nonpayable",
      "type": "function"
    },
    {
      "constant": false,
      "inputs": [
        {
          "name": "_submissionAddress",
          "type": "address"
        },
        {
          "name": "_remainingBounty",
          "type": "uint256"
        }
      ],
      "name": "awardBounty",
      "outputs": [],
      "payable": false,
      "stateMutability": "nonpayable",
      "type": "function"
    },
    {
      "constant": false,
      "inputs": [
        {
          "name": "_title",
          "type": "string"
        },
        {
          "name": "_owner",
          "type": "address"
        },
        {
          "name": "_author",
          "type": "address"
        },
        {
          "name": "_externalAddress",
          "type": "bytes"
        },
        {
          "name": "_references",
          "type": "address[]"
        },
        {
          "name": "_contributors",
          "type": "address[]"
        },
        {
          "name": "_publicallyAccessible",
          "type": "bool"
        }
      ],
      "name": "createSubmission",
      "outputs": [
        {
          "name": "_submissionAddress",
          "type": "address"
        }
      ],
      "payable": false,
      "stateMutability": "nonpayable",
      "type": "function"
    }
  ],
  "bytecode": "0x6060604052341561000f57600080fd5b60405160c0806119f88339810160405280805191906020018051919060200180519190602001805191906020018051919060200180516000805460048054600160a060020a0319908116600160a060020a039c8d16179091556001805482169a8c169a909a17909955600280548a16988b16989098179097559587163389161787169388169390931785555050600380549094169190941617909155600b91909155600c805460a060020a60ff02191690556119279081906100d190396000f3006060604052600436106101cc5763ffffffff7c010000000000000000000000000000000000000000000000000000000060003504166303d66a9781146101d15780630b2992081461020d57806310fe9ae81461023b57806319e28e431461024e5780631cdb7de51461027d578063241b15ad146102ac57806329cc545e146102d15780632f54bf6e146102e45780632fc1f190146103245780633197cbb6146103375780633b2498101461034a5780633d6227801461035d578063417e5bc21461037357806345b12a0d1461038657806347535d7b1461039957806347e40553146103ac57806354f6aa20146103bf57806356974da3146104255780635a7d5f501461043b578063648036ae1461045457806378e97925146104675780638499a1381461047a578063893d20e8146104a65780638da5cb5b146104b9578063943dfef1146104cc578063a64c3c4d146104df578063a68e8a861461050b578063b0ff54921461051e578063b288e1a914610531578063dbe55e5614610544578063df4f9dba14610557578063e76c293e1461056d578063ecf251fd14610580578063f2fde38b14610593578063f3eda8e8146105bf578063f49bff7b146106fb578063f8b2cb4f1461070e575b600080fd5b34156101dc57600080fd5b6101e461073a565b60405173ffffffffffffffffffffffffffffffffffffffff909116815260200160405180910390f35b341561021857600080fd5b61023973ffffffffffffffffffffffffffffffffffffffff60043516610756565b005b341561024657600080fd5b6101e46108f0565b341561025957600080fd5b61023973ffffffffffffffffffffffffffffffffffffffff6004351660243561090d565b341561028857600080fd5b61023973ffffffffffffffffffffffffffffffffffffffff60043516602435610a24565b34156102b757600080fd5b6102bf610a81565b60405190815260200160405180910390f35b34156102dc57600080fd5b6101e4610a8b565b34156102ef57600080fd5b61031073ffffffffffffffffffffffffffffffffffffffff60043516610aa7565b604051901515815260200160405180910390f35b341561032f57600080fd5b6101e4610ac8565b341561034257600080fd5b6102bf610ae4565b341561035557600080fd5b6102bf610aea565b341561036857600080fd5b6101e4600435610af0565b341561037e57600080fd5b6101e4610c69565b341561039157600080fd5b610310610c85565b34156103a457600080fd5b610310610ca6565b34156103b757600080fd5b6101e4610cf9565b34156103ca57600080fd5b6103d2610d15565b60405160208082528190810183818151815260200191508051906020019060200280838360005b838110156104115780820151838201526020016103f9565b505050509050019250505060405180910390f35b341561043057600080fd5b610310600435610d8a565b341561044657600080fd5b610239600435602435610e64565b341561045f57600080fd5b6102bf610e90565b341561047257600080fd5b6102bf610e96565b341561048557600080fd5b61031073ffffffffffffffffffffffffffffffffffffffff60043516610e9c565b34156104b157600080fd5b6101e4610ec6565b34156104c457600080fd5b6101e4610ee2565b34156104d757600080fd5b6102bf610efe565b34156104ea57600080fd5b61031073ffffffffffffffffffffffffffffffffffffffff60043516610f04565b341561051657600080fd5b61031061116e565b341561052957600080fd5b6101e46111bc565b341561053c57600080fd5b6101e46111d8565b341561054f57600080fd5b6101e46111f4565b341561056257600080fd5b6101e4600435611210565b341561057857600080fd5b6101e4611257565b341561058b57600080fd5b6101e4611273565b341561059e57600080fd5b61023973ffffffffffffffffffffffffffffffffffffffff6004351661128f565b34156105ca57600080fd5b6101e460046024813581810190830135806020601f82018190048102016040519081016040528181529291906020840183838082843750949673ffffffffffffffffffffffffffffffffffffffff87358116976020808201359092169750919550606082019450604091820135860180820194503592508291601f830182900482029091019051908101604052818152929190602084018383808284378201915050505050509190803590602001908201803590602001908080602002602001604051908101604052809392919081815260200183836020028082843782019150505050505091908035906020019082018035906020019080806020026020016040519081016040528093929190818152602001838360200280828437509496505050509135151591506113209050565b341561070657600080fd5b6102bf6117d8565b341561071957600080fd5b6102bf73ffffffffffffffffffffffffffffffffffffffff600435166117de565b60025473ffffffffffffffffffffffffffffffffffffffff1681565b6002546000903373ffffffffffffffffffffffffffffffffffffffff90811691161461078157600080fd5b73ffffffffffffffffffffffffffffffffffffffff82166000908152600f6020526040902054829060ff1615156107b757600080fd5b6107bf61116e565b15156107ca57600080fd5b600c80547fffffffffffffffffffffff00ffffffffffffffffffffffffffffffffffffffff73ffffffffffffffffffffffffffffffffffffffff8087167fffffffffffffffffffffffff000000000000000000000000000000000000000090931692909217167401000000000000000000000000000000000000000017909155600454600b5491169250829063a9059cbb9085906000604051602001526040517c010000000000000000000000000000000000000000000000000000000063ffffffff851602815273ffffffffffffffffffffffffffffffffffffffff90921660048301526024820152604401602060405180830381600087803b15156108d057600080fd5b6102c65a03f115156108e157600080fd5b50505060405180515050505050565b60045473ffffffffffffffffffffffffffffffffffffffff165b90565b6002546000903373ffffffffffffffffffffffffffffffffffffffff90811691161461093857600080fd5b73ffffffffffffffffffffffffffffffffffffffff83166000908152600f6020526040902054839060ff16151561096e57600080fd5b60045473ffffffffffffffffffffffffffffffffffffffff1691508163a9059cbb85856000604051602001526040517c010000000000000000000000000000000000000000000000000000000063ffffffff851602815273ffffffffffffffffffffffffffffffffffffffff90921660048301526024820152604401602060405180830381600087803b1515610a0357600080fd5b6102c65a03f11515610a1457600080fd5b5050506040518051505050505050565b73ffffffffffffffffffffffffffffffffffffffff33166000908152600f602052604090205460ff161515610a5857600080fd5b73ffffffffffffffffffffffffffffffffffffffff9091166000908152600d6020526040902055565b6011546010540390565b60045473ffffffffffffffffffffffffffffffffffffffff1681565b60005473ffffffffffffffffffffffffffffffffffffffff91821691161490565b60015473ffffffffffffffffffffffffffffffffffffffff1690565b60095481565b600a5481565b6000803383601081815481101515610b0457fe5b600091825260208220015473ffffffffffffffffffffffffffffffffffffffff169063a52dd12f908490604051602001526040517c010000000000000000000000000000000000000000000000000000000063ffffffff841602815273ffffffffffffffffffffffffffffffffffffffff9091166004820152602401602060405180830381600087803b1515610b9957600080fd5b6102c65a03f11515610baa57600080fd5b505050604051805190501515610bbf57600080fd5b6010805486908110610bcd57fe5b600091825260208220015473ffffffffffffffffffffffffffffffffffffffff169350839063a5faa12590604051602001526040518163ffffffff167c0100000000000000000000000000000000000000000000000000000000028152600401602060405180830381600087803b1515610c4657600080fd5b6102c65a03f11515610c5757600080fd5b50505060405180519695505050505050565b600c5473ffffffffffffffffffffffffffffffffffffffff1681565b600c5474010000000000000000000000000000000000000000900460ff1690565b600854600954600c546000924290819011801593909111159174010000000000000000000000000000000000000000900460ff16159084908490610ce75750825b8015610cf05750815b95945050505050565b60075473ffffffffffffffffffffffffffffffffffffffff1681565b610d1d6118a2565b6010805480602002602001604051908101604052809291908181526020018280548015610d8057602002820191906000526020600020905b815473ffffffffffffffffffffffffffffffffffffffff168152600190910190602001808311610d55575b5050505050905090565b60105460009081908310610d9d57600080fd5b6010805484908110610dab57fe5b600091825260208220015473ffffffffffffffffffffffffffffffffffffffff169150819063a52dd12f903390604051602001526040517c010000000000000000000000000000000000000000000000000000000063ffffffff841602815273ffffffffffffffffffffffffffffffffffffffff9091166004820152602401602060405180830381600087803b1515610e4357600080fd5b6102c65a03f11515610e5457600080fd5b5050506040518051949350505050565b60085415610e7157600080fd5b426008819055610e87908363ffffffff61188c16565b600955600a5550565b60055481565b60085481565b73ffffffffffffffffffffffffffffffffffffffff166000908152600d6020526040902054151590565b60005473ffffffffffffffffffffffffffffffffffffffff1690565b60005473ffffffffffffffffffffffffffffffffffffffff1681565b600b5481565b600254600090819081903373ffffffffffffffffffffffffffffffffffffffff908116911614610f3357600080fd5b73ffffffffffffffffffffffffffffffffffffffff33166000908152600f602052604090205460ff16156111625773ffffffffffffffffffffffffffffffffffffffff84166000908152600f6020526040902060010154601080549091908110610f9957fe5b600091825260208220015473ffffffffffffffffffffffffffffffffffffffff169250829063a5faa12590604051602001526040518163ffffffff167c0100000000000000000000000000000000000000000000000000000000028152600401602060405180830381600087803b151561101257600080fd5b6102c65a03f1151561102357600080fd5b505050604051805191505073ffffffffffffffffffffffffffffffffffffffff821663a0bf8fe36040518163ffffffff167c0100000000000000000000000000000000000000000000000000000000028152600401600060405180830381600087803b151561109157600080fd5b6102c65a03f115156110a257600080fd5b50505073ffffffffffffffffffffffffffffffffffffffff8082166000908152600e6020908152604080832080547fffffffffffffffffffffffff00000000000000000000000000000000000000001690559287168252600f9052206001015460108054909190811061111157fe5b600091825260209091200180547fffffffffffffffffffffffff000000000000000000000000000000000000000016905560115461115690600163ffffffff61188c16565b60115560019250611167565b600092505b5050919050565b600954600a546000914281811080159390920190111590829061118e5750805b80156111b55750600c5474010000000000000000000000000000000000000000900460ff16155b9250505090565b60035473ffffffffffffffffffffffffffffffffffffffff1681565b60065473ffffffffffffffffffffffffffffffffffffffff1681565b60015473ffffffffffffffffffffffffffffffffffffffff1681565b601054600090821061122157600080fd5b601080548390811061122f57fe5b60009182526020909120015473ffffffffffffffffffffffffffffffffffffffff1692915050565b60025473ffffffffffffffffffffffffffffffffffffffff1690565b600c5473ffffffffffffffffffffffffffffffffffffffff1690565b6000543373ffffffffffffffffffffffffffffffffffffffff9081169116146112b757600080fd5b73ffffffffffffffffffffffffffffffffffffffff811615156112d957600080fd5b600080547fffffffffffffffffffffffff00000000000000000000000000000000000000001673ffffffffffffffffffffffffffffffffffffffff92909216919091179055565b600254600090819081903373ffffffffffffffffffffffffffffffffffffffff90811691161461134f57600080fd5b611357610ca6565b151561136257600080fd5b73ffffffffffffffffffffffffffffffffffffffff8816151561138457600080fd5b60035460015460025473ffffffffffffffffffffffffffffffffffffffff9283169263288d58bd9281169116308e8e8e8e8e8e8e6000604051602001526040517c010000000000000000000000000000000000000000000000000000000063ffffffff8d1602815273ffffffffffffffffffffffffffffffffffffffff808c16600483019081528b821660248401528a82166044840152888216608484015290871660a483015282151561012483015261014060648301908152909160c481019060e4810190610104810190610144018c818151815260200191508051906020019080838360005b8381101561148457808201518382015260200161146c565b50505050905090810190601f1680156114b15780820380516001836020036101000a031916815260200191505b50858103845289818151815260200191508051906020019080838360005b838110156114e75780820151838201526020016114cf565b50505050905090810190601f1680156115145780820380516001836020036101000a031916815260200191505b50858103835288818151815260200191508051906020019060200280838360005b8381101561154d578082015183820152602001611535565b50505050905001858103825287818151815260200191508051906020019060200280838360005b8381101561158c578082015183820152602001611574565b505050509050019e505050505050505050505050505050602060405180830381600087803b15156115bc57600080fd5b6102c65a03f115156115cd57600080fd5b5050506040518051905091506040805190810160409081526001825260105460208084019190915273ffffffffffffffffffffffffffffffffffffffff85166000908152600f90915220815181547fffffffffffffffffffffffffffffffffffffffffffffffffffffffffffffff001690151517815560208201516001918201556010805490925090810161166283826118b4565b506000918252602080832091909101805473ffffffffffffffffffffffffffffffffffffffff8681167fffffffffffffffffffffffff000000000000000000000000000000000000000092831681179093553381168552600e8452604080862080549093169093179091558b168352600d90915281206003905590505b8451811015611733576002600d60008784815181106116fa57fe5b9060200190602002015173ffffffffffffffffffffffffffffffffffffffff1681526020810191909152604001600020556001016116df565b60025473ffffffffffffffffffffffffffffffffffffffff16634644c51b836040517c010000000000000000000000000000000000000000000000000000000063ffffffff841602815273ffffffffffffffffffffffffffffffffffffffff9091166004820152602401600060405180830381600087803b15156117b657600080fd5b6102c65a03f115156117c757600080fd5b50929b9a5050505050505050505050565b600b5490565b60045460009073ffffffffffffffffffffffffffffffffffffffff166370a082318383604051602001526040517c010000000000000000000000000000000000000000000000000000000063ffffffff841602815273ffffffffffffffffffffffffffffffffffffffff9091166004820152602401602060405180830381600087803b151561186c57600080fd5b6102c65a03f1151561187d57600080fd5b50505060405180519392505050565b60008282018381101561189b57fe5b9392505050565b60206040519081016040526000815290565b8154818355818115116118d8576000838152602090206118d89181019083016118dd565b505050565b61090a91905b808211156118f757600081556001016118e3565b50905600a165627a7a72305820ab7b7fc3b9fc675a770aed004939e1020ef4c72f8f5f227774eb30540ab201d30029",
  "source": "pragma solidity ^0.4.18;\n\nimport '../libraries/math/SafeMath.sol';\nimport '../interfaces/IMatryxToken.sol';\nimport '../interfaces/IMatryxTournament.sol';\nimport '../interfaces/IMatryxRound.sol';\nimport '../interfaces/factories/IMatryxSubmissionFactory.sol';\nimport '../interfaces/IMatryxSubmission.sol';\nimport './Ownable.sol';\n\n/// @title MatryxRound - A round within a Matryx tournament.\n/// @author Max Howard - <max@nanome.ai>, Sam Hessenauer - <sam@nanome.ai>\ncontract MatryxRound is Ownable, IMatryxRound {\n\tusing SafeMath for uint256;\n\n\t//TODO: allow for refunds\n\t// TODO: condense and put in structs\n\taddress public platformAddress;\n\taddress public tournamentAddress;\n\taddress public matryxSubmissionFactoryAddress;\n\taddress public matryxTokenAddress;\n\n\tuint256 public roundIndex;\n\taddress public previousRound;\n\taddress public nextRound;\n\tuint256 public startTime;\n\tuint256 public endTime;\n\tuint256 public reviewPeriod;\n\tuint256 public bounty;\n\taddress public winningSubmission;\n\tbool winningSubmissionChosen;\n\n\tmapping(address=>uint) addressToParticipantType;\n \tmapping(address=>address) authorToSubmissionAddress;\n\tmapping(address=>uint256_optional) addressToSubmissionIndex;\n\taddress[] submissions;\n\tuint256 numberSubmissionsRemoved;\n\n\tfunction MatryxRound(address _matryxTokenAddress, address _platformAddress, address _tournamentAddress, address _matryxSubmissionFactoryAddress, address _owner, uint256 _bounty) public\n\t{\n\t\tmatryxTokenAddress = _matryxTokenAddress;\n\t\tplatformAddress = _platformAddress;\n\t\ttournamentAddress = _tournamentAddress;\n\t\towner = _owner;\n\t\tmatryxSubmissionFactoryAddress = _matryxSubmissionFactoryAddress;\n\t\tbounty = _bounty;\n\t\twinningSubmissionChosen = false;\n\t}\n\n\t/*\n\t * Structs\n\t */\n\n\tstruct uint256_optional\n    {\n        bool exists;\n        uint256 value;\n    }\n\n    /*\n     * Enums\n     */\n\n\tenum participantType { nonentrant, entrant, contributor, author }\n\n\t/*\n     * Modifiers\n     */\n\n    /// @dev Requires that this round is in the open submission state.\n\tmodifier duringOpenSubmission()\n\t{\n\t\trequire(isOpen());\n\t\t_;\n\t}\n\n\t/// @dev Requires that this round is in the winner selection state.\n\tmodifier duringReviewPeriod()\n\t{\n\t\t//require(endTime != 0);\n\t\trequire(isInReview());\n\t\t_;\n\t}\n\n\t// @dev Requires that a winner has been selected for this round.\n\tmodifier afterWinnerSelected()\n\t{\n\t\trequire(winningSubmissionChosen == true);\n\t\t_;\n\t}\n\n\tmodifier onlySubmission()\n\t{\n\t\trequire(addressToSubmissionIndex[msg.sender].exists);\n\t\t_;\n\t}\n\n\tmodifier onlyTournament()\n\t{\n\t\trequire(msg.sender == tournamentAddress);\n\t\t_;\n\t}\n\n\t/// @dev Requires that this round's tournament is open.\n\tmodifier whileTournamentOpen()\n\t{\n\t\tIMatryxTournament tournament = IMatryxTournament(tournamentAddress);\n\t\trequire(tournament.isOpen());\n\t\t_;\n\t}\n\n\t/// @dev Requires that the desired submission is accessible to the requester.\n\tmodifier whenAccessible(address _requester, uint256 _index)\n\t{\n\t\trequire(IMatryxSubmission(submissions[_index]).isAccessible(_requester));\n\t\t_;\n\t}\n\n\tmodifier ifSubmissionExists(address _submissionAddress)\n\t{\n\t\trequire(addressToSubmissionIndex[_submissionAddress].exists);\n\t\t_;\n\t}\n\n\t/// @dev Requires the function caller to be the platform or the owner of this tournament\n\tmodifier tournamentOrOwner()\n    {\n        require((msg.sender == tournamentAddress)||(msg.sender == owner));\n        _;\n    }\n\n\t/// @dev Requires that the sender be the submission's author.\n\t// modifier onlySubmissionAuthor(uint256 _submissionIndex)\n\t// {\n\t// \trequire(IMatryxSubmission(submissions[_submissionIndex]).getAuthor() == msg.sender);\n\t// \t_;\n\t// }\n\n\t/*\n\t * State Maintenance Methods\n\t */\n\n\tfunction removeSubmission(address _submissionAddress) public onlyTournament returns (bool)\n\t{\n\t\tif(addressToSubmissionIndex[msg.sender].exists)\n\t\t{\n\t\t\tIMatryxSubmission submission = IMatryxSubmission(submissions[addressToSubmissionIndex[_submissionAddress].value]);\n\t\t\taddress author = submission.getAuthor();\n\t\t\tsubmission.deleteSubmission();\n\n\t\t\tdelete authorToSubmissionAddress[author];\n\t\t\tdelete submissions[addressToSubmissionIndex[_submissionAddress].value];\n\n\t\t\tnumberSubmissionsRemoved = numberSubmissionsRemoved.add(1);\n\t\t\treturn true;\n\t\t}\n\n\t\treturn false;\n\t}\n\n\t/*\n     * Access Control Methods\n     */\n\n\t/// @dev Returns whether or not this round is open to new submissions.\n\t/// @return Whether or not this round is open to submissions.\n    function isOpen() public constant returns (bool)\n\t{\n\t\tbool roundStartedBeforeNow = startTime <= now;\n\t\tbool roundEndsAfterNow = now <= endTime;\n\t\tbool winningSubmissionNotYetChosen = !winningSubmissionChosen;\n\t\tbool result = roundStartedBeforeNow && roundEndsAfterNow && winningSubmissionNotYetChosen;\n\t\treturn result;\n\t}\n\n\t/// @dev Returns whether or not this round is in the review period.\n\t/// @return Whether or not the round is being reviewed.\n\tfunction isInReview() public constant returns (bool)\n\t{\n\t\tbool roundEndedAfterNow = now >= endTime;\n\t\tbool roundReviewNotOver = now <= endTime+reviewPeriod;\n\t\treturn roundEndedAfterNow && roundReviewNotOver && !winningSubmissionChosen;\n\t}\n\n\t/// @dev Returns whether or not the submission is accessible to the requester.\n\t/// @param _index Index of the submission being requested.\n    /// @return Whether or not the submission is accessible to the requester.\n\tfunction submissionIsAccessible(uint256 _index) public constant returns (bool)\n\t{\n\t\trequire(_index < submissions.length);\n\n\t\tIMatryxSubmission submission = IMatryxSubmission(submissions[_index]);\n\t\treturn submission.isAccessible(msg.sender);\n\t}\n\n\t/// @dev Returns whether or not the submission is accessible to the requester.\n\t/// @param _submissionAddress Address of the submission being requested.\n    /// @return Whether or not the submission is accessible to the requester.\n\t// function submissionIsAccessible(address _submissionAddress) public constant returns (bool)\n\t// {\n\t// \trequire(addressToSubmissionIndex[_submissionAddress]);\n\n\t// \tIMatryxSubmission submission = IMatryxSubmission(_submissionAddress);\n\t// \treturn submission.isAccessible(msg.sender);\n\t// }\n\n\t/// @dev Returns true if the sender is an entrant in this round.\n\t/// @param _requester Address being tested.\n\t/// @return Whether or not the requester is a contributor in this round.\n\tfunction requesterIsContributor(address _requester) public constant returns (bool)\n\t{\n\t\treturn addressToParticipantType[_requester] != 0;\n\t}\n\n\tfunction setParticipantType(address _participantAddress, uint256 _type) public onlySubmission\n\t{\n\t\taddressToParticipantType[_participantAddress] = _type;\n\t}\n\n\t/*\n     * Getter Methods\n     */\n\n    function getPlatform() public constant returns (address) {\n\t\treturn platformAddress;\n\t}\n\n    function getTournament() public constant returns (address) {\n\t\treturn tournamentAddress;\n\t}\n\n    function getBounty() public constant returns (uint256) \n    { \n    \treturn bounty;\n    }\n\n    function getTokenAddress() public constant returns (address)\n    {\n    \treturn matryxTokenAddress;\n    }\n\n\t/// @dev Returns all submissions made to this round.\n\t/// @return _submissions All submissions made to this round.\n\tfunction getSubmissions() public constant returns (address[] _submissions)\n\t{\n\t\treturn submissions;\n\t}\n\n\tfunction getSubmissionAddress(uint256 _index) public constant returns (address _submissionAddress)\n\t{\n\t\trequire(_index < submissions.length);\n\n\t\treturn submissions[_index];\n\t}\n\n\t/// @dev Returns the author of a submission.\n\t/// @param _index Index of the submission.\n\t/// @return Address of this submission's author.\n\tfunction getSubmissionAuthor(uint256 _index) public constant whenAccessible(msg.sender, _index) returns (address) \n\t{\n\t\tIMatryxSubmission submission = IMatryxSubmission(submissions[_index]);\n\t\treturn submission.getAuthor();\n\t}\n\n\t/// @dev Returns the balance of a particular submission\n\t/// @param _submissionAddress Address of the submission\n\t/// @return Balance of the bounty \n\tfunction getBalance(address _submissionAddress) public constant returns (uint256)\n\t{\n\t\treturn IMatryxToken(matryxTokenAddress).balanceOf(_submissionAddress);\n\t}\n\n\t/// @dev Returns whether or not a winning submission has been chosen.\n\t/// @return Whether or not a submission has been chosen.\n\tfunction submissionChosen() public constant returns (bool)\n\t{\n\t\treturn winningSubmissionChosen;\n\t}\n\n\t/// @dev Returns the index of this round's winning submission.\n\t/// @return Index of the winning submission.\n\tfunction getWinningSubmissionAddress() public constant returns (address)\n\t{\n\t\treturn winningSubmission;\n\t}\n\n\t/// @dev Returns the number of submissions made to this round.\n\t/// @return Number of submissions made to this round.\n\tfunction numberOfSubmissions() public constant returns (uint256)\n\t{\n\t\treturn submissions.length - numberSubmissionsRemoved;\n\t}\n\n\t/*\n     * Round Admin Methods\n     */\n\n    /// @dev Starts the round (callable only by the owner of the round).\n    /// @param _duration Duration of the round in seconds.\n\tfunction Start(uint256 _duration, uint256 _reviewPeriod) public\n\t{\n\t\trequire(startTime == 0);\n\t\tstartTime = now;\n\t\tendTime = startTime.add(_duration);\n\t\treviewPeriod = _reviewPeriod;\n\t}\n\n\t/// @dev Choose a winning submission for the round (callable only by the owner of the round).\n    /// @param _submissionAddress Index of the winning submission.\n\tfunction chooseWinningSubmission(address _submissionAddress) public onlyTournament ifSubmissionExists(_submissionAddress) duringReviewPeriod\n\t{\n\t\twinningSubmission = _submissionAddress;\n\t\twinningSubmissionChosen = true;\n\n\t\tIMatryxToken token = IMatryxToken(matryxTokenAddress);\n\t\ttoken.transfer(_submissionAddress, bounty);\n\t}\n\n\t/// @dev Award bounty to a submission. Called by tournament to close a tournament after a \n\t/// round winner has been chosen.\n\t/// @param _submissionAddress Index of the tournament winning submission.\n\t/// @param _remainingBounty Bounty to award the submission.\n\tfunction awardBounty(address _submissionAddress, uint256 _remainingBounty) public onlyTournament ifSubmissionExists(_submissionAddress)\n\t{\n\t\tIMatryxToken token = IMatryxToken(matryxTokenAddress);\n\t\ttoken.transfer(_submissionAddress, _remainingBounty);\n\t}\n\n\t/*\n     * Entrant Methods\n     */\n\n    /// @dev Create a new submission.\n    /// @param _title Title of the submission.\n    /// @param _externalAddress Off-chain content hash of submission details (ipfs hash)\n    /// @param _author Author of this submission.\n    /// @param _references Addresses of submissions referenced in creating this submission\n    /// @param _contributors Contributors to this submission.\n    /// @return _submissionIndex Location of this submission within this round.\n\tfunction createSubmission(string _title, address _owner, address _author, bytes _externalAddress, address[] _references, address[] _contributors, bool _publicallyAccessible) public onlyTournament duringOpenSubmission returns (address _submissionAddress)\n\t{\n\t\trequire(_author != 0x0);\n\t\t\n        address submissionAddress = IMatryxSubmissionFactory(matryxSubmissionFactoryAddress).createSubmission(platformAddress, tournamentAddress, this, _title, _owner, _author, _externalAddress, _references, _contributors, _publicallyAccessible);\n        //submission bookkeeping\n        addressToSubmissionIndex[submissionAddress] = uint256_optional({exists:true, value: submissions.length});\n        submissions.push(submissionAddress);\n        authorToSubmissionAddress[msg.sender] = submissionAddress;\n\n        // round participant bookkeeping\n        addressToParticipantType[_author] = uint(participantType.author);\n        for(uint256 i = 0; i < _contributors.length; i++)\n        {\n        \taddressToParticipantType[_contributors[i]] = uint(participantType.contributor);\n        }\n\n        IMatryxTournament(tournamentAddress).invokeSubmissionCreatedEvent(submissionAddress);\n        return submissionAddress;\n\t}\n}",
  "sourcePath": "/Users/maxhoward/Desktop/Ethereum/Development/Matryx AWS/Projects/matryx-alpha-source/contracts/MatryxRound.sol",
  "compiler": {
    "name": "solc",
    "version": "0.4.19+commit.c4cbbb05.Emscripten.clang"
  },
  "schemaVersion": "2.0.0",
  "updatedAt": "2018-03-30T22:31:23.232Z"
}