{
  "contractName": "MatryxRound",
  "abi": [
    {
      "constant": true,
      "inputs": [],
      "name": "tournamentAddress",
      "outputs": [
        {
          "name": "",
          "type": "address"
        }
      ],
      "payable": false,
      "stateMutability": "view",
      "type": "function"
    },
    {
      "constant": true,
      "inputs": [],
      "name": "reviewPeriodDuration",
      "outputs": [
        {
          "name": "",
          "type": "uint256"
        }
      ],
      "payable": false,
      "stateMutability": "view",
      "type": "function"
    },
    {
      "constant": true,
      "inputs": [
        {
          "name": "_sender",
          "type": "address"
        }
      ],
      "name": "isOwner",
      "outputs": [
        {
          "name": "_isOwner",
          "type": "bool"
        }
      ],
      "payable": false,
      "stateMutability": "view",
      "type": "function"
    },
    {
      "constant": true,
      "inputs": [],
      "name": "nextRound",
      "outputs": [
        {
          "name": "",
          "type": "address"
        }
      ],
      "payable": false,
      "stateMutability": "view",
      "type": "function"
    },
    {
      "constant": true,
      "inputs": [],
      "name": "closed",
      "outputs": [
        {
          "name": "",
          "type": "bool"
        }
      ],
      "payable": false,
      "stateMutability": "view",
      "type": "function"
    },
    {
      "constant": true,
      "inputs": [],
      "name": "roundIndex",
      "outputs": [
        {
          "name": "",
          "type": "uint256"
        }
      ],
      "payable": false,
      "stateMutability": "view",
      "type": "function"
    },
    {
      "constant": true,
      "inputs": [
        {
          "name": "",
          "type": "uint256"
        }
      ],
      "name": "rewardDistribution",
      "outputs": [
        {
          "name": "",
          "type": "uint256"
        }
      ],
      "payable": false,
      "stateMutability": "view",
      "type": "function"
    },
    {
      "constant": true,
      "inputs": [],
      "name": "rewardDistributionTotal",
      "outputs": [
        {
          "name": "",
          "type": "uint256"
        }
      ],
      "payable": false,
      "stateMutability": "view",
      "type": "function"
    },
    {
      "constant": true,
      "inputs": [
        {
          "name": "",
          "type": "uint256"
        }
      ],
      "name": "winningSubmissions",
      "outputs": [
        {
          "name": "",
          "type": "address"
        }
      ],
      "payable": false,
      "stateMutability": "view",
      "type": "function"
    },
    {
      "constant": true,
      "inputs": [],
      "name": "getOwner",
      "outputs": [
        {
          "name": "_owner",
          "type": "address"
        }
      ],
      "payable": false,
      "stateMutability": "view",
      "type": "function"
    },
    {
      "constant": true,
      "inputs": [],
      "name": "owner",
      "outputs": [
        {
          "name": "",
          "type": "address"
        }
      ],
      "payable": false,
      "stateMutability": "view",
      "type": "function"
    },
    {
      "constant": true,
      "inputs": [],
      "name": "bounty",
      "outputs": [
        {
          "name": "",
          "type": "uint256"
        }
      ],
      "payable": false,
      "stateMutability": "view",
      "type": "function"
    },
    {
      "constant": true,
      "inputs": [],
      "name": "matryxSubmissionFactoryAddress",
      "outputs": [
        {
          "name": "",
          "type": "address"
        }
      ],
      "payable": false,
      "stateMutability": "view",
      "type": "function"
    },
    {
      "constant": true,
      "inputs": [],
      "name": "previousRound",
      "outputs": [
        {
          "name": "",
          "type": "address"
        }
      ],
      "payable": false,
      "stateMutability": "view",
      "type": "function"
    },
    {
      "constant": true,
      "inputs": [],
      "name": "platformAddress",
      "outputs": [
        {
          "name": "",
          "type": "address"
        }
      ],
      "payable": false,
      "stateMutability": "view",
      "type": "function"
    },
    {
      "constant": false,
      "inputs": [
        {
          "name": "newOwner",
          "type": "address"
        }
      ],
      "name": "transferOwnership",
      "outputs": [],
      "payable": false,
      "stateMutability": "nonpayable",
      "type": "function"
    },
    {
      "inputs": [
        {
          "name": "_platformAddress",
          "type": "address"
        },
        {
          "name": "_matryxTokenAddress",
          "type": "address"
        },
        {
          "name": "_tournamentAddress",
          "type": "address"
        },
        {
          "name": "_submissionFactoryAddress",
          "type": "address"
        },
        {
          "name": "_owner",
          "type": "address"
        },
        {
          "name": "_roundIndex",
          "type": "uint256"
        },
        {
          "components": [
            {
              "name": "start",
              "type": "uint256"
            },
            {
              "name": "end",
              "type": "uint256"
            },
            {
              "name": "reviewPeriodDuration",
              "type": "uint256"
            },
            {
              "name": "bounty",
              "type": "uint256"
            }
          ],
          "name": "roundData",
          "type": "tuple"
        }
      ],
      "payable": false,
      "stateMutability": "nonpayable",
      "type": "constructor"
    },
    {
      "constant": false,
      "inputs": [
        {
          "name": "_submissionAddress",
          "type": "address"
        }
      ],
      "name": "submissionExists",
      "outputs": [
        {
          "name": "",
          "type": "bool"
        }
      ],
      "payable": false,
      "stateMutability": "nonpayable",
      "type": "function"
    },
    {
      "constant": false,
      "inputs": [
        {
          "name": "_mtxAllocation",
          "type": "uint256"
        }
      ],
      "name": "addBounty",
      "outputs": [],
      "payable": false,
      "stateMutability": "nonpayable",
      "type": "function"
    },
    {
      "constant": false,
      "inputs": [
        {
          "name": "_nameHash",
          "type": "bytes32"
        },
        {
          "name": "_contractAddress",
          "type": "address"
        }
      ],
      "name": "setContractAddress",
      "outputs": [],
      "payable": false,
      "stateMutability": "nonpayable",
      "type": "function"
    },
    {
      "constant": false,
      "inputs": [
        {
          "name": "_nameHash",
          "type": "bytes32"
        }
      ],
      "name": "getContractAddress",
      "outputs": [
        {
          "name": "contractAddress",
          "type": "address"
        }
      ],
      "payable": false,
      "stateMutability": "nonpayable",
      "type": "function"
    },
    {
      "constant": true,
      "inputs": [],
      "name": "getState",
      "outputs": [
        {
          "name": "",
          "type": "uint256"
        }
      ],
      "payable": false,
      "stateMutability": "view",
      "type": "function"
    },
    {
      "constant": true,
      "inputs": [
        {
          "name": "_index",
          "type": "uint256"
        }
      ],
      "name": "submissionIsAccessible",
      "outputs": [
        {
          "name": "",
          "type": "bool"
        }
      ],
      "payable": false,
      "stateMutability": "view",
      "type": "function"
    },
    {
      "constant": true,
      "inputs": [
        {
          "name": "_submissionAddress",
          "type": "address"
        }
      ],
      "name": "submissionIsAccessible",
      "outputs": [
        {
          "name": "",
          "type": "bool"
        }
      ],
      "payable": false,
      "stateMutability": "view",
      "type": "function"
    },
    {
      "constant": true,
      "inputs": [
        {
          "name": "_requester",
          "type": "address"
        }
      ],
      "name": "requesterIsContributor",
      "outputs": [
        {
          "name": "",
          "type": "bool"
        }
      ],
      "payable": false,
      "stateMutability": "view",
      "type": "function"
    },
    {
      "constant": false,
      "inputs": [
        {
          "name": "_participantAddress",
          "type": "address"
        },
        {
          "name": "_type",
          "type": "uint256"
        }
      ],
      "name": "setParticipantType",
      "outputs": [],
      "payable": false,
      "stateMutability": "nonpayable",
      "type": "function"
    },
    {
      "constant": true,
      "inputs": [],
      "name": "getPlatform",
      "outputs": [
        {
          "name": "",
          "type": "address"
        }
      ],
      "payable": false,
      "stateMutability": "view",
      "type": "function"
    },
    {
      "constant": true,
      "inputs": [],
      "name": "getTournament",
      "outputs": [
        {
          "name": "",
          "type": "address"
        }
      ],
      "payable": false,
      "stateMutability": "view",
      "type": "function"
    },
    {
      "constant": true,
      "inputs": [],
      "name": "getStartTime",
      "outputs": [
        {
          "name": "",
          "type": "uint256"
        }
      ],
      "payable": false,
      "stateMutability": "view",
      "type": "function"
    },
    {
      "constant": true,
      "inputs": [],
      "name": "getEndTime",
      "outputs": [
        {
          "name": "",
          "type": "uint256"
        }
      ],
      "payable": false,
      "stateMutability": "view",
      "type": "function"
    },
    {
      "constant": true,
      "inputs": [],
      "name": "getBounty",
      "outputs": [
        {
          "name": "",
          "type": "uint256"
        }
      ],
      "payable": false,
      "stateMutability": "view",
      "type": "function"
    },
    {
      "constant": true,
      "inputs": [],
      "name": "remainingBounty",
      "outputs": [
        {
          "name": "",
          "type": "uint256"
        }
      ],
      "payable": false,
      "stateMutability": "view",
      "type": "function"
    },
    {
      "constant": true,
      "inputs": [],
      "name": "getTokenAddress",
      "outputs": [
        {
          "name": "",
          "type": "address"
        }
      ],
      "payable": false,
      "stateMutability": "view",
      "type": "function"
    },
    {
      "constant": true,
      "inputs": [],
      "name": "getSubmissions",
      "outputs": [
        {
          "name": "_submissions",
          "type": "address[]"
        }
      ],
      "payable": false,
      "stateMutability": "view",
      "type": "function"
    },
    {
      "constant": true,
      "inputs": [
        {
          "name": "_index",
          "type": "uint256"
        }
      ],
      "name": "getSubmissionAddress",
      "outputs": [
        {
          "name": "_submissionAddress",
          "type": "address"
        }
      ],
      "payable": false,
      "stateMutability": "view",
      "type": "function"
    },
    {
      "constant": true,
      "inputs": [
        {
          "name": "_index",
          "type": "uint256"
        }
      ],
      "name": "getSubmissionAuthor",
      "outputs": [
        {
          "name": "",
          "type": "address"
        }
      ],
      "payable": false,
      "stateMutability": "view",
      "type": "function"
    },
    {
      "constant": true,
      "inputs": [
        {
          "name": "_submissionAddress",
          "type": "address"
        }
      ],
      "name": "getBalance",
      "outputs": [
        {
          "name": "",
          "type": "uint256"
        }
      ],
      "payable": false,
      "stateMutability": "view",
      "type": "function"
    },
    {
      "constant": true,
      "inputs": [],
      "name": "getRoundBalance",
      "outputs": [
        {
          "name": "",
          "type": "uint256"
        }
      ],
      "payable": false,
      "stateMutability": "view",
      "type": "function"
    },
    {
      "constant": true,
      "inputs": [],
      "name": "submissionsChosen",
      "outputs": [
        {
          "name": "",
          "type": "bool"
        }
      ],
      "payable": false,
      "stateMutability": "view",
      "type": "function"
    },
    {
      "constant": true,
      "inputs": [],
      "name": "getWinningSubmissionAddresses",
      "outputs": [
        {
          "name": "",
          "type": "address[]"
        }
      ],
      "payable": false,
      "stateMutability": "view",
      "type": "function"
    },
    {
      "constant": true,
      "inputs": [],
      "name": "numberOfSubmissions",
      "outputs": [
        {
          "name": "",
          "type": "uint256"
        }
      ],
      "payable": false,
      "stateMutability": "view",
      "type": "function"
    },
    {
      "constant": true,
      "inputs": [
        {
          "name": "_participant",
          "type": "address"
        }
      ],
      "name": "getParticipantType",
      "outputs": [
        {
          "name": "",
          "type": "uint256"
        }
      ],
      "payable": false,
      "stateMutability": "view",
      "type": "function"
    },
    {
      "constant": false,
      "inputs": [
        {
          "name": "_currentRoundEndTime",
          "type": "uint256"
        },
        {
          "components": [
            {
              "name": "start",
              "type": "uint256"
            },
            {
              "name": "end",
              "type": "uint256"
            },
            {
              "name": "reviewPeriodDuration",
              "type": "uint256"
            },
            {
              "name": "bounty",
              "type": "uint256"
            }
          ],
          "name": "_roundData",
          "type": "tuple"
        }
      ],
      "name": "editRound",
      "outputs": [],
      "payable": false,
      "stateMutability": "nonpayable",
      "type": "function"
    },
    {
      "constant": false,
      "inputs": [
        {
          "name": "_amount",
          "type": "uint256"
        }
      ],
      "name": "transferToTournament",
      "outputs": [],
      "payable": false,
      "stateMutability": "nonpayable",
      "type": "function"
    },
    {
      "constant": false,
      "inputs": [
        {
          "name": "_submissionAddresses",
          "type": "address[]"
        },
        {
          "name": "_rewardDistribution",
          "type": "uint256[]"
        },
        {
          "components": [
            {
              "name": "start",
              "type": "uint256"
            },
            {
              "name": "end",
              "type": "uint256"
            },
            {
              "name": "reviewPeriodDuration",
              "type": "uint256"
            },
            {
              "name": "bounty",
              "type": "uint256"
            }
          ],
          "name": "_roundData",
          "type": "tuple"
        },
        {
          "name": "_selectWinnerAction",
          "type": "uint256"
        }
      ],
      "name": "selectWinningSubmissions",
      "outputs": [],
      "payable": false,
      "stateMutability": "nonpayable",
      "type": "function"
    },
    {
      "constant": false,
      "inputs": [
        {
          "name": "_tournamentBalance",
          "type": "uint256"
        }
      ],
      "name": "transferAllToWinners",
      "outputs": [],
      "payable": false,
      "stateMutability": "nonpayable",
      "type": "function"
    },
    {
      "constant": false,
      "inputs": [],
      "name": "startNow",
      "outputs": [],
      "payable": false,
      "stateMutability": "nonpayable",
      "type": "function"
    },
    {
      "constant": false,
      "inputs": [],
      "name": "closeRound",
      "outputs": [],
      "payable": false,
      "stateMutability": "nonpayable",
      "type": "function"
    },
    {
      "constant": false,
      "inputs": [
        {
          "name": "_entrant",
          "type": "address"
        }
      ],
      "name": "becomeEntrant",
      "outputs": [],
      "payable": false,
      "stateMutability": "nonpayable",
      "type": "function"
    },
    {
      "constant": false,
      "inputs": [
        {
          "name": "_entrant",
          "type": "address"
        }
      ],
      "name": "becomeNonentrant",
      "outputs": [],
      "payable": false,
      "stateMutability": "nonpayable",
      "type": "function"
    },
    {
      "constant": false,
      "inputs": [
        {
          "name": "_contributors",
          "type": "address[]"
        },
        {
          "name": "_contributorRewardDistribution",
          "type": "uint128[]"
        },
        {
          "name": "_references",
          "type": "address[]"
        },
        {
          "name": "_author",
          "type": "address"
        },
        {
          "components": [
            {
              "name": "title",
              "type": "string"
            },
            {
              "name": "owner",
              "type": "address"
            },
            {
              "name": "descriptionHash",
              "type": "bytes"
            },
            {
              "name": "fileHash",
              "type": "bytes"
            },
            {
              "name": "isPublic",
              "type": "bool"
            }
          ],
          "name": "submissionData",
          "type": "tuple"
        }
      ],
      "name": "createSubmission",
      "outputs": [
        {
          "name": "_submissionAddress",
          "type": "address"
        }
      ],
      "payable": false,
      "stateMutability": "nonpayable",
      "type": "function"
    },
    {
      "constant": false,
      "inputs": [],
      "name": "transferBountyToTournament",
      "outputs": [
        {
          "name": "",
          "type": "uint256"
        }
      ],
      "payable": false,
      "stateMutability": "nonpayable",
      "type": "function"
    }
  ],
  "bytecode": "0x60806040523480156200001157600080fd5b5060405161014080620036ff833981018060405262000034919081019062000289565b6000805460018054600160a060020a038b8116600160a060020a031992831617909255600280548a84169083161790558682169281163390811782169390931790935560058590556003805491881691909316179091556060820151600b55604080517f4c6962546f75726e616d656e7441646d696e4d6574686f647300000000000000815290519081900360190181207f0d2020dd0000000000000000000000000000000000000000000000000000000082529190630d2020dd906200010090849060040162000346565b602060405180830381600087803b1580156200011b57600080fd5b505af115801562000130573d6000803e3d6000fd5b505050506040513d601f19601f8201168201806040525062000156919081019062000260565b6000828152600460209081526040918290208054600160a060020a031916600160a060020a03949094169390931790925583519184015190840151620001a7929190640100000000620001b5810204565b505050505050505062000393565b600892909255600955600a55565b6000620001d1825162000387565b9392505050565b600060808284031215620001eb57600080fd5b620001f760806200035c565b9050600062000207848462000252565b82525060206200021a8484830162000252565b6020830152506040620002308482850162000252565b6040830152506060620002468482850162000252565b60608301525092915050565b6000620001d1825162000384565b6000602082840312156200027357600080fd5b6000620002818484620001c3565b949350505050565b6000806000806000806000610140888a031215620002a657600080fd5b6000620002b48a8a620001c3565b9750506020620002c78a828b01620001c3565b9650506040620002da8a828b01620001c3565b9550506060620002ed8a828b01620001c3565b9450506080620003008a828b01620001c3565b93505060a0620003138a828b0162000252565b92505060c0620003268a828b01620001d8565b91505092959891949750929550565b620003408162000384565b82525050565b6020810162000356828462000335565b92915050565b60405181810167ffffffffffffffff811182821017156200037c57600080fd5b604052919050565b90565b600160a060020a031690565b61335c80620003a36000396000f3006080604052600436106102665763ffffffff7c010000000000000000000000000000000000000000000000000000000060003504166303d66a97811461026b57806307417cf1146102965780630befb0a5146102b85780630d2020dd146102cd5780630e3db9f2146102ed5780630e4142a11461030457806310fe9ae81461032457806311fb4804146103395780631865c57d146103665780631cdb7de51461037b578063241b15ad1461039b57806328dd8489146103b05780632f0713bb146103c55780632f54bf6e146103e55780632fc1f19014610405578063389994f91461041a57806338e438951461042f5780633d6227801461044f578063439f5ac21461046f57806347e40553146104845780635325cdba1461049957806354f6aa20146104b957806356974da3146104db578063597e1fb5146104fb578063648036ae146105105780636a3c195314610525578063754b0c3d146105455780637d36f766146105655780637d758072146105855780637df2d7481461059a5780638499a138146105ba578063893d20e8146105da5780638da5cb5b146105ef578063943dfef114610604578063b0ff549214610619578063b288e1a91461062e578063b6a3497514610643578063c828371e14610663578063daff8cd414610678578063dbe55e5614610698578063df4f9dba146106ad578063e001f841146106cd578063e278fe6f146106ed578063e76c293e14610702578063e9e8b446146102b8578063ed09846014610717578063f2fde38b1461072c578063f49bff7b1461074c578063f89474be14610761578063f8b2cb4f14610781578063fe71f3e4146107a1575b600080fd5b34801561027757600080fd5b506102806107c1565b60405161028d9190613108565b60405180910390f35b3480156102a257600080fd5b506102ab6107dd565b60405161028d91906131de565b3480156102c457600080fd5b506102ab610982565b3480156102d957600080fd5b506102806102e8366004612e63565b610ad2565b3480156102f957600080fd5b50610302610afa565b005b34801561031057600080fd5b5061030261031f366004612c63565b610b55565b34801561033057600080fd5b50610280610ba5565b34801561034557600080fd5b50610359610354366004612c63565b610c49565b60405161028d91906131a7565b34801561037257600080fd5b506102ab610d2d565b34801561038757600080fd5b50610302610396366004612ca7565b610df5565b3480156103a757600080fd5b506102ab610e13565b3480156103bc57600080fd5b506102ab610e1d565b3480156103d157600080fd5b506103026103e0366004612e63565b610e23565b3480156103f157600080fd5b50610359610400366004612c63565b610fcf565b34801561041157600080fd5b50610280610ff0565b34801561042657600080fd5b5061035961100c565b34801561043b57600080fd5b5061030261044a366004612e63565b611047565b34801561045b57600080fd5b5061028061046a366004612e63565b6110da565b34801561047b57600080fd5b506102ab61128a565b34801561049057600080fd5b50610280611290565b3480156104a557600080fd5b506103026104b4366004612e63565b6112ac565b3480156104c557600080fd5b506104ce6115a7565b60405161028d9190613131565b3480156104e757600080fd5b506103596104f6366004612e63565b611616565b34801561050757600080fd5b50610359611699565b34801561051c57600080fd5b506102ab6116a2565b34801561053157600080fd5b50610302610540366004612db5565b6116a8565b34801561055157600080fd5b50610280610560366004612ce1565b611e2b565b34801561057157600080fd5b506102ab610580366004612e63565b6121f3565b34801561059157600080fd5b506102ab612212565b3480156105a657600080fd5b506102806105b5366004612e63565b612218565b3480156105c657600080fd5b506103596105d5366004612c63565b61224d565b3480156105e657600080fd5b50610280612277565b3480156105fb57600080fd5b50610280612293565b34801561061057600080fd5b506102ab6122af565b34801561062557600080fd5b506102806122b5565b34801561063a57600080fd5b506102806122d1565b34801561064f57600080fd5b5061035961065e366004612c63565b6122ed565b34801561066f57600080fd5b506102ab612318565b34801561068457600080fd5b50610302610693366004612c63565b61231e565b3480156106a457600080fd5b50610280612349565b3480156106b957600080fd5b506102806106c8366004612e63565b612365565b3480156106d957600080fd5b506103026106e8366004612e81565b6123ac565b3480156106f957600080fd5b50610302612418565b34801561070e57600080fd5b5061028061245f565b34801561072357600080fd5b506104ce61247b565b34801561073857600080fd5b50610302610747366004612c63565b6124e8565b34801561075857600080fd5b506102ab61256a565b34801561076d57600080fd5b5061030261077c366004612ecf565b612570565b34801561078d57600080fd5b506102ab61079c366004612c63565b6125fe565b3480156107ad57600080fd5b506102ab6107bc366004612c63565b61274e565b60025473ffffffffffffffffffffffffffffffffffffffff1681565b600254600090819073ffffffffffffffffffffffffffffffffffffffff16331461080657600080fd5b61080e610982565b9050600160009054906101000a900473ffffffffffffffffffffffffffffffffffffffff1673ffffffffffffffffffffffffffffffffffffffff166310fe9ae86040518163ffffffff167c0100000000000000000000000000000000000000000000000000000000028152600401602060405180830381600087803b15801561089657600080fd5b505af11580156108aa573d6000803e3d6000fd5b505050506040513d601f19601f820116820180604052506108ce9190810190612c89565b6002546040517fa9059cbb00000000000000000000000000000000000000000000000000000000815273ffffffffffffffffffffffffffffffffffffffff9283169263a9059cbb92610927929116908590600401613116565b602060405180830381600087803b15801561094157600080fd5b505af1158015610955573d6000803e3d6000fd5b505050506040513d601f19601f820116820180604052506109799190810190612e45565b508091505b5090565b600154604080517f10fe9ae8000000000000000000000000000000000000000000000000000000008152905160009273ffffffffffffffffffffffffffffffffffffffff16916310fe9ae891600480830192602092919082900301818787803b1580156109ee57600080fd5b505af1158015610a02573d6000803e3d6000fd5b505050506040513d601f19601f82011682018060405250610a269190810190612c89565b73ffffffffffffffffffffffffffffffffffffffff166370a08231306040518263ffffffff167c0100000000000000000000000000000000000000000000000000000000028152600401610a7a91906131b5565b602060405180830381600087803b158015610a9457600080fd5b505af1158015610aa8573d6000803e3d6000fd5b505050506040513d601f19601f82011682018060405250610acc9190810190612eb1565b90505b90565b60009081526004602052604090205473ffffffffffffffffffffffffffffffffffffffff1690565b60025460009073ffffffffffffffffffffffffffffffffffffffff163314610b2157600080fd5b600854600954610b369163ffffffff61277616565b426008819055909150610b4f908263ffffffff61278816565b60095550565b60025473ffffffffffffffffffffffffffffffffffffffff163314610b7957600080fd5b60005b73ffffffffffffffffffffffffffffffffffffffff909116600090815260116020526040902055565b600154604080517f10fe9ae8000000000000000000000000000000000000000000000000000000008152905160009273ffffffffffffffffffffffffffffffffffffffff16916310fe9ae891600480830192602092919082900301818787803b158015610c1157600080fd5b505af1158015610c25573d6000803e3d6000fd5b505050506040513d601f19601f82011682018060405250610acc9190810190612c89565b73ffffffffffffffffffffffffffffffffffffffff8116600090815260136020526040812054819060ff161515610c7f57600080fd5b506040517fa52dd12f000000000000000000000000000000000000000000000000000000008152829073ffffffffffffffffffffffffffffffffffffffff82169063a52dd12f90610cd4903390600401613108565b602060405180830381600087803b158015610cee57600080fd5b505af1158015610d02573d6000803e3d6000fd5b505050506040513d601f19601f82011682018060405250610d269190810190612e45565b9392505050565b6000600854421015610d435760005b9050610acf565b6008544210158015610d56575060095442105b15610d7757610d63610982565b1515610d70576001610d3c565b6002610d3c565b6009544210158015610d9c5750600a54600954610d999163ffffffff61278816565b42105b15610ddc5760105460ff1615610db3576005610d3c565b6014541515610dc3576006610d3c565b600c5460001015610dd5576004610d3c565b6003610d3c565b600c5460001015610dee576005610d3c565b6006610d3c565b3360009081526013602052604090205460ff161515610b7c57600080fd5b6016546014540390565b600a5481565b60025473ffffffffffffffffffffffffffffffffffffffff163314610e4757600080fd5b6000610e51610d2d565b14610e5b57600080fd5b600160009054906101000a900473ffffffffffffffffffffffffffffffffffffffff1673ffffffffffffffffffffffffffffffffffffffff166310fe9ae86040518163ffffffff167c0100000000000000000000000000000000000000000000000000000000028152600401602060405180830381600087803b158015610ee157600080fd5b505af1158015610ef5573d6000803e3d6000fd5b505050506040513d601f19601f82011682018060405250610f199190810190612c89565b73ffffffffffffffffffffffffffffffffffffffff1663a9059cbb33836040518363ffffffff167c0100000000000000000000000000000000000000000000000000000000028152600401610f6f929190613116565b602060405180830381600087803b158015610f8957600080fd5b505af1158015610f9d573d6000803e3d6000fd5b505050506040513d601f19601f82011682018060405250610fc19190810190612e45565b1515610fcc57600080fd5b50565b60005473ffffffffffffffffffffffffffffffffffffffff91821691161490565b60015473ffffffffffffffffffffffffffffffffffffffff1690565b6000600c600081548110151561101e57fe5b60009182526020909120015473ffffffffffffffffffffffffffffffffffffffff161515905090565b600254604080517f4c6962546f75726e616d656e7441646d696e4d6574686f647300000000000000815290519081900360190190203373ffffffffffffffffffffffffffffffffffffffff9092168214916000916110a490610ad2565b73ffffffffffffffffffffffffffffffffffffffff161490506110d283600b5461278890919063ffffffff16565b600b55505050565b60008033836014818154811015156110ee57fe5b6000918252602090912001546040517fa52dd12f00000000000000000000000000000000000000000000000000000000815273ffffffffffffffffffffffffffffffffffffffff9091169063a52dd12f9061114d908590600401613108565b602060405180830381600087803b15801561116757600080fd5b505af115801561117b573d6000803e3d6000fd5b505050506040513d601f19601f8201168201806040525061119f9190810190612e45565b15156111aa57600080fd5b60148054869081106111b857fe5b9060005260206000200160009054906101000a900473ffffffffffffffffffffffffffffffffffffffff1692508273ffffffffffffffffffffffffffffffffffffffff1663a5faa1256040518163ffffffff167c0100000000000000000000000000000000000000000000000000000000028152600401602060405180830381600087803b15801561124957600080fd5b505af115801561125d573d6000803e3d6000fd5b505050506040513d601f19601f820116820180604052506112819190810190612c89565b95945050505050565b60095490565b60075473ffffffffffffffffffffffffffffffffffffffff1681565b6002546000908190819073ffffffffffffffffffffffffffffffffffffffff1633146112d757600080fd5b600092505b600c548310156115a157600b546112f9908563ffffffff61278816565b915061135d670de0b6b3a764000061134584611351600e54611345670de0b6b3a7640000600d8b81548110151561132c57fe5b906000526020600020015461279790919063ffffffff16565b9063ffffffff6127bb16565b9063ffffffff61279716565b9050600160009054906101000a900473ffffffffffffffffffffffffffffffffffffffff1673ffffffffffffffffffffffffffffffffffffffff166310fe9ae86040518163ffffffff167c0100000000000000000000000000000000000000000000000000000000028152600401602060405180830381600087803b1580156113e557600080fd5b505af11580156113f9573d6000803e3d6000fd5b505050506040513d601f19601f8201168201806040525061141d9190810190612c89565b73ffffffffffffffffffffffffffffffffffffffff1663a9059cbb600c8581548110151561144757fe5b6000918252602090912001546040517c010000000000000000000000000000000000000000000000000000000063ffffffff84160281526114a39173ffffffffffffffffffffffffffffffffffffffff16908590600401613116565b602060405180830381600087803b1580156114bd57600080fd5b505af11580156114d1573d6000803e3d6000fd5b505050506040513d601f19601f820116820180604052506114f59190810190612e45565b50600c80548490811061150457fe5b6000918252602090912001546040517f09b542bb00000000000000000000000000000000000000000000000000000000815273ffffffffffffffffffffffffffffffffffffffff909116906309b542bb906115639084906004016131de565b600060405180830381600087803b15801561157d57600080fd5b505af1158015611591573d6000803e3d6000fd5b5050600190940193506112dc9050565b50505050565b6060601480548060200260200160405190810160405280929190818152602001828054801561160c57602002820191906000526020600020905b815473ffffffffffffffffffffffffffffffffffffffff1681526001909101906020018083116115e1575b5050505050905090565b6014546000908190831061162957600080fd5b601480548490811061163757fe5b6000918252602090912001546040517fa52dd12f00000000000000000000000000000000000000000000000000000000815273ffffffffffffffffffffffffffffffffffffffff9091169150819063a52dd12f90610cd4903390600401613108565b60105460ff1681565b60055481565b6000806000806000806116b96127d2565b600254604080517f4c6962546f75726e616d656e7441646d696e4d6574686f647300000000000000815290519081900360190190203373ffffffffffffffffffffffffffffffffffffffff90921682149160009161171690610ad2565b73ffffffffffffffffffffffffffffffffffffffff1614905060095460001415151561174157600080fd5b600361174b610d2d565b1461175557600080fd5b8b518d511461176357600080fd5b8c51158015906117735750600c54155b151561177e57600080fd5b8c600c90805190602001906117949291906127fb565b508b516117a890600d9060208f0190612876565b50600097505b600d548810156117f1576117e4600d898154811015156117ca57fe5b90600052602060002001548a61278890919063ffffffff16565b98506001909701966117ae565b600e899055891580611803575060018a145b15611e0e57600096505b600c54871015611a985761184a670de0b6b3a7640000611345600b54611351600e54611345670de0b6b3a7640000600d8f81548110151561132c57fe5b9550600160009054906101000a900473ffffffffffffffffffffffffffffffffffffffff1673ffffffffffffffffffffffffffffffffffffffff166310fe9ae86040518163ffffffff167c0100000000000000000000000000000000000000000000000000000000028152600401602060405180830381600087803b1580156118d257600080fd5b505af11580156118e6573d6000803e3d6000fd5b505050506040513d601f19601f8201168201806040525061190a9190810190612c89565b73ffffffffffffffffffffffffffffffffffffffff1663a9059cbb600c8981548110151561193457fe5b6000918252602090912001546040517c010000000000000000000000000000000000000000000000000000000063ffffffff84160281526119909173ffffffffffffffffffffffffffffffffffffffff16908a90600401613116565b602060405180830381600087803b1580156119aa57600080fd5b505af11580156119be573d6000803e3d6000fd5b505050506040513d601f19601f820116820180604052506119e29190810190612e45565b15156119ed57600080fd5b600c8054889081106119fb57fe5b6000918252602090912001546040517f09b542bb00000000000000000000000000000000000000000000000000000000815273ffffffffffffffffffffffffffffffffffffffff909116906309b542bb90611a5a9089906004016131de565b600060405180830381600087803b158015611a7457600080fd5b505af1158015611a88573d6000803e3d6000fd5b50506001909801975061180d9050565b600260009054906101000a900473ffffffffffffffffffffffffffffffffffffffff1673ffffffffffffffffffffffffffffffffffffffff166312065fe06040518163ffffffff167c0100000000000000000000000000000000000000000000000000000000028152600401602060405180830381600087803b158015611b1e57600080fd5b505af1158015611b32573d6000803e3d6000fd5b505050506040513d601f19601f82011682018060405250611b569190810190612eb1565b9350600b54841015611b6a57839450611b70565b600b5494505b891515611cdc57608060405190810160405280611b9a600a5460095461278890919063ffffffff16565b8152602001611bda611bb960085460095461277690919063ffffffff16565b600a54600954611bce9163ffffffff61278816565b9063ffffffff61278816565b8152600a546020820152604090810187905260025490517f3809eba200000000000000000000000000000000000000000000000000000000815291945073ffffffffffffffffffffffffffffffffffffffff1690633809eba290611c459086906001906004016131c3565b602060405180830381600087803b158015611c5f57600080fd5b505af1158015611c73573d6000803e3d6000fd5b505050506040513d601f19601f82011682018060405250611c979190810190612c89565b601060016101000a81548173ffffffffffffffffffffffffffffffffffffffff021916908373ffffffffffffffffffffffffffffffffffffffff160217905550611e09565b60018a1415611e09576010805460ff191660011790556040805160808101825242815260208d810151908201528c820151818301526060808e01519082015260025491517f3809eba200000000000000000000000000000000000000000000000000000000815290945073ffffffffffffffffffffffffffffffffffffffff90911690633809eba290611d769086906000906004016131c3565b602060405180830381600087803b158015611d9057600080fd5b505af1158015611da4573d6000803e3d6000fd5b505050506040513d601f19601f82011682018060405250611dc89190810190612c89565b601060016101000a81548173ffffffffffffffffffffffffffffffffffffffff021916908373ffffffffffffffffffffffffffffffffffffffff1602179055505b611e1c565b6010805460ff191660011790555b50505050505050505050505050565b6000611e356128bd565b600254600090819073ffffffffffffffffffffffffffffffffffffffff163314611e5e57600080fd5b6002611e68610d2d565b14611e7257600080fd5b73ffffffffffffffffffffffffffffffffffffffff86161515611e9457600080fd5b6040805160608101825260015473ffffffffffffffffffffffffffffffffffffffff908116825260025481166020830152308284015260035492517f1251ed7d0000000000000000000000000000000000000000000000000000000081529195509190911690631251ed7d90611f16908c908c908c9089908c90600401613142565b602060405180830381600087803b158015611f3057600080fd5b505af1158015611f44573d6000803e3d6000fd5b505050506040513d601f19601f82011682018060405250611f689190810190612c89565b604080518082018252600180825260148054602080850191825273ffffffffffffffffffffffffffffffffffffffff87166000818152601383528781209651875460ff191690151517875592519585019590955582549384019092557fce6d7b5282bd9a3661ae061feed1dbda4e52ab073b1f9285be6e155d9c38d4ec909201805473ffffffffffffffffffffffffffffffffffffffff1916909317909255338152601290915220549092501515612089576020850151601580546001810182556000919091527f55f448fdea98c4d29eb340757ef0a66cd03dbb9538908a6a81d96026b71ec47501805473ffffffffffffffffffffffffffffffffffffffff191673ffffffffffffffffffffffffffffffffffffffff9092169190911790555b33600090815260126020908152604082208054600181018255908352912001805473ffffffffffffffffffffffffffffffffffffffff191673ffffffffffffffffffffffffffffffffffffffff8416179055600373ffffffffffffffffffffffffffffffffffffffff871660009081526011602052604081209190915590505b885181101561215e576002601160008b8481518110151561212657fe5b602090810290910181015173ffffffffffffffffffffffffffffffffffffffff16825281019190915260400160002055600101612109565b6002546040517f4644c51b00000000000000000000000000000000000000000000000000000000815273ffffffffffffffffffffffffffffffffffffffff90911690634644c51b906121b4908590600401613108565b600060405180830381600087803b1580156121ce57600080fd5b505af11580156121e2573d6000803e3d6000fd5b50939b9a5050505050505050505050565b600d80548290811061220157fe5b600091825260209091200154905081565b600e5481565b600c80548290811061222657fe5b60009182526020909120015473ffffffffffffffffffffffffffffffffffffffff16905081565b73ffffffffffffffffffffffffffffffffffffffff16600090815260116020526040902054151590565b60005473ffffffffffffffffffffffffffffffffffffffff1690565b60005473ffffffffffffffffffffffffffffffffffffffff1681565b600b5481565b60035473ffffffffffffffffffffffffffffffffffffffff1681565b60065473ffffffffffffffffffffffffffffffffffffffff1681565b73ffffffffffffffffffffffffffffffffffffffff1660009081526013602052604090205460ff1690565b60085490565b60025473ffffffffffffffffffffffffffffffffffffffff16331461234257600080fd5b6001610b7c565b60015473ffffffffffffffffffffffffffffffffffffffff1681565b601454600090821061237657600080fd5b601480548390811061238457fe5b60009182526020909120015473ffffffffffffffffffffffffffffffffffffffff1692915050565b60005473ffffffffffffffffffffffffffffffffffffffff1633146123d057600080fd5b600091825260046020526040909120805473ffffffffffffffffffffffffffffffffffffffff191673ffffffffffffffffffffffffffffffffffffffff909216919091179055565b60025473ffffffffffffffffffffffffffffffffffffffff16331461243c57600080fd5b6004612446610d2d565b1461245057600080fd5b6010805460ff19166001179055565b60025473ffffffffffffffffffffffffffffffffffffffff1690565b6060600c80548060200260200160405190810160405280929190818152602001828054801561160c5760200282019190600052602060002090815473ffffffffffffffffffffffffffffffffffffffff1681526001909101906020018083116115e1575050505050905090565b60005473ffffffffffffffffffffffffffffffffffffffff16331461250c57600080fd5b73ffffffffffffffffffffffffffffffffffffffff8116151561252e57600080fd5b6000805473ffffffffffffffffffffffffffffffffffffffff191673ffffffffffffffffffffffffffffffffffffffff92909216919091179055565b600b5490565b60025473ffffffffffffffffffffffffffffffffffffffff16331461259457600080fd5b805182106125a157600080fd5b80516020820151116125b257600080fd5b60408101516000106125c357600080fd5b805160208201516000916125dd919063ffffffff61277616565b116125e757600080fd5b8051600855602081015160095560400151600a5550565b600154604080517f10fe9ae8000000000000000000000000000000000000000000000000000000008152905160009273ffffffffffffffffffffffffffffffffffffffff16916310fe9ae891600480830192602092919082900301818787803b15801561266a57600080fd5b505af115801561267e573d6000803e3d6000fd5b505050506040513d601f19601f820116820180604052506126a29190810190612c89565b73ffffffffffffffffffffffffffffffffffffffff166370a08231836040518263ffffffff167c01000000000000000000000000000000000000000000000000000000000281526004016126f69190613108565b602060405180830381600087803b15801561271057600080fd5b505af1158015612724573d6000803e3d6000fd5b505050506040513d601f19601f820116820180604052506127489190810190612eb1565b92915050565b73ffffffffffffffffffffffffffffffffffffffff1660009081526011602052604090205490565b60008282111561278257fe5b50900390565b600082820183811015610d2657fe5b60008282028315806127b357508284828115156127b057fe5b04145b1515610d2657fe5b60008082848115156127c957fe5b04949350505050565b608060405190810160405280600081526020016000815260200160008152602001600081525090565b82805482825590600052602060002090810192821561286a579160200282015b8281111561286a578251825473ffffffffffffffffffffffffffffffffffffffff191673ffffffffffffffffffffffffffffffffffffffff90911617825560209092019160019091019061281b565b5061097e9291506128dd565b8280548282559060005260206000209081019282156128b1579160200282015b828111156128b1578251825591602001919060010190612896565b5061097e92915061290e565b604080516060810182526000808252602082018190529181019190915290565b610acf91905b8082111561097e57805473ffffffffffffffffffffffffffffffffffffffff191681556001016128e3565b610acf91905b8082111561097e5760008155600101612914565b6000610d268235613284565b6000610d268251613284565b6000601f8201831361295157600080fd5b813561296461295f82613213565b6131ec565b9150818183526020840193506020810190508385602084028201111561298957600080fd5b60005b838110156129b5578161299f8882612928565b845250602092830192919091019060010161298c565b5050505092915050565b6000601f820183136129d057600080fd5b81356129de61295f82613213565b91508181835260208401935060208101905083856020840282011115612a0357600080fd5b60005b838110156129b55781612a198882612c4b565b8452506020928301929190910190600101612a06565b6000601f82018313612a4057600080fd5b8135612a4e61295f82613213565b91508181835260208401935060208101905083856020840282011115612a7357600080fd5b60005b838110156129b55781612a898882612ab7565b8452506020928301929190910190600101612a76565b6000610d26823561329d565b6000610d26825161329d565b6000610d268235610acf565b6000601f82018313612ad457600080fd5b8135612ae261295f82613234565b91508082526020830160208301858383011115612afe57600080fd5b612b098382846132c2565b50505092915050565b600060808284031215612b2457600080fd5b612b2e60806131ec565b90506000612b3c8484612ab7565b8252506020612b4d84848301612ab7565b6020830152506040612b6184828501612ab7565b6040830152506060612b7584828501612ab7565b60608301525092915050565b600060a08284031215612b9357600080fd5b612b9d60a06131ec565b9050813567ffffffffffffffff811115612bb657600080fd5b612bc284828501612ac3565b8252506020612bd384848301612928565b602083015250604082013567ffffffffffffffff811115612bf357600080fd5b612bff84828501612ac3565b604083015250606082013567ffffffffffffffff811115612c1f57600080fd5b612c2b84828501612ac3565b6060830152506080612c3f84828501612a9f565b60808301525092915050565b6000610d2682356132a2565b6000610d268251610acf565b600060208284031215612c7557600080fd5b6000612c818484612928565b949350505050565b600060208284031215612c9b57600080fd5b6000612c818484612934565b60008060408385031215612cba57600080fd5b6000612cc68585612928565b9250506020612cd785828601612ab7565b9150509250929050565b600080600080600060a08688031215612cf957600080fd5b853567ffffffffffffffff811115612d1057600080fd5b612d1c88828901612940565b955050602086013567ffffffffffffffff811115612d3957600080fd5b612d45888289016129bf565b945050604086013567ffffffffffffffff811115612d6257600080fd5b612d6e88828901612940565b9350506060612d7f88828901612928565b925050608086013567ffffffffffffffff811115612d9c57600080fd5b612da888828901612b81565b9150509295509295909350565b60008060008060e08587031215612dcb57600080fd5b843567ffffffffffffffff811115612de257600080fd5b612dee87828801612940565b945050602085013567ffffffffffffffff811115612e0b57600080fd5b612e1787828801612a2f565b9350506040612e2887828801612b12565b92505060c0612e3987828801612ab7565b91505092959194509250565b600060208284031215612e5757600080fd5b6000612c818484612aab565b600060208284031215612e7557600080fd5b6000612c818484612ab7565b60008060408385031215612e9457600080fd5b6000612ea08585612ab7565b9250506020612cd785828601612928565b600060208284031215612ec357600080fd5b6000612c818484612c57565b60008060a08385031215612ee257600080fd5b6000612eee8585612ab7565b9250506020612cd785828601612b12565b612f0881613284565b82525050565b6000612f1982613280565b808452602084019350612f2b8361327a565b60005b82811015612f5b57612f41868351612eff565b612f4a8261327a565b602096909601959150600101612f2e565b5093949350505050565b6000612f7082613280565b808452602084019350612f828361327a565b60005b82811015612f5b57612f988683516130f6565b612fa18261327a565b602096909601959150600101612f85565b612f088161329d565b6000612fc682613280565b808452612fda8160208601602086016132ce565b612fe3816132fa565b9093016020019392505050565b612f08816132b7565b8051606083019061300a8482612eff565b50602082015161301d6020850182612eff565b5060408201516115a16040850182612eff565b8051608083019061304184826130ff565b50602082015161305460208501826130ff565b50604082015161306760408501826130ff565b5060608201516115a160608501826130ff565b805160a0808452600091908401906130928282612fbb565b91505060208301516130a76020860182612eff565b50604083015184820360408601526130bf8282612fbb565b915050606083015184820360608601526130d98282612fbb565b91505060808301516130ee6080860182612fb2565b509392505050565b612f08816132a2565b612f0881610acf565b602081016127488284612eff565b604081016131248285612eff565b610d2660208301846130ff565b60208082528101610d268184612f0e565b60e080825281016131538188612f0e565b905081810360208301526131678187612f65565b9050818103604083015261317b8186612f0e565b905061318a6060830185612ff9565b81810360c083015261319c818461307a565b979650505050505050565b602081016127488284612fb2565b602081016127488284612ff0565b60a081016131d18285613030565b610d266080830184612fb2565b6020810161274882846130ff565b60405181810167ffffffffffffffff8111828210171561320b57600080fd5b604052919050565b600067ffffffffffffffff82111561322a57600080fd5b5060209081020190565b600067ffffffffffffffff82111561324b57600080fd5b506020601f919091017fffffffffffffffffffffffffffffffffffffffffffffffffffffffffffffffe0160190565b60200190565b5190565b73ffffffffffffffffffffffffffffffffffffffff1690565b151590565b6fffffffffffffffffffffffffffffffff1690565b600061274882613284565b82818337506000910152565b60005b838110156132e95781810151838201526020016132d1565b838111156115a15750506000910152565b601f017fffffffffffffffffffffffffffffffffffffffffffffffffffffffffffffffe016905600a265627a7a723058209cf5e06cee0b761ec93be535944703a6e0fd09286f9442878d88373cd75cf1546c6578706572696d656e74616cf50037",
  "source": "pragma solidity ^0.4.18;\npragma experimental ABIEncoderV2;\n\nimport \"../libraries/math/SafeMath.sol\";\nimport \"../libraries/LibConstruction.sol\";\nimport \"../interfaces/IMatryxToken.sol\";\nimport \"../interfaces/IMatryxPlatform.sol\";\nimport \"../interfaces/IMatryxTournament.sol\";\nimport \"../interfaces/IMatryxRound.sol\";\nimport \"../interfaces/factories/IMatryxRoundFactory.sol\";\nimport \"../interfaces/factories/IMatryxSubmissionFactory.sol\";\nimport \"../interfaces/IMatryxSubmission.sol\";\nimport \"./Ownable.sol\";\n\n/// @title MatryxRound - A round within a Matryx tournament.\n/// @author Max Howard - <max@nanome.ai>, Sam Hessenauer - <sam@nanome.ai>\ncontract MatryxRound is Ownable, IMatryxRound {\n    using SafeMath for uint256;\n\n    //TODO: allow for refunds\n    // TODO: condense and put in structs\n    address public platformAddress;\n    address public tournamentAddress;\n    address public matryxSubmissionFactoryAddress;\n\n    mapping(bytes32=>address) private contracts;\n\n    uint256 public roundIndex;\n    address public previousRound;\n    address public nextRound;\n    uint256 startTime;\n    uint256 endTime;\n    uint256 public reviewPeriodDuration;\n    uint256 public bounty;\n    address[] public winningSubmissions;\n    uint256[] public rewardDistribution;\n    uint256 public rewardDistributionTotal;\n    mapping(address=>bool) submissionToHasBeenPayed;\n    bool public closed;\n    address newRound;\n\n    mapping(address=>uint) addressToParticipantType;\n    mapping(address=>address[]) authorToSubmissionAddress;\n    mapping(address=>uint256_optional) addressToSubmissionIndex;\n    address[] submissions;\n    address[] submissionOwners;\n    uint256 numberSubmissionsRemoved;\n\n    constructor(address _platformAddress, address _matryxTokenAddress, address _tournamentAddress, address _submissionFactoryAddress, address _owner, uint256 _roundIndex, LibConstruction.RoundData roundData) public\n    {\n        //matryxTokenAddress = _matryxTokenAddress;\n        platformAddress = _platformAddress;\n        tournamentAddress = _tournamentAddress;\n        owner = _owner;\n        roundIndex = _roundIndex;\n        matryxSubmissionFactoryAddress = _submissionFactoryAddress;\n        bounty = roundData.bounty;\n\n        bytes32 tournamentAdminLibHash = sha3(\"LibTournamentAdminMethods\");\n        contracts[tournamentAdminLibHash] = IMatryxRoundFactory(msg.sender).getContractAddress(tournamentAdminLibHash);\n        \n        scheduleStart(roundData.start, roundData.end, roundData.reviewPeriodDuration);\n    }\n\n    /*\n     * Structs\n     */\n\n    struct uint256_optional\n    {\n        bool exists;\n        uint256 value;\n    }\n\n    /*\n     * Enums\n     */\n    enum RoundState { NotYetOpen, Unfunded, Open, InReview, HasWinners, Closed, Abandoned }\n    enum TournamentState { NotYetOpen, OnHold, Open, Closed, Abandoned}\n    enum ParticipantType { Nonentrant, Entrant, Contributor, Author }\n\n    /*\n     * Modifiers\n     */\n\n    /// @dev Requires that this round is in the open submission state.\n    modifier duringOpenSubmission()\n    {\n        require(getState() == uint256(RoundState.Open));\n        _;\n    }\n\n    /// @dev Requires that this round is in the winner selection state.\n    modifier duringReviewPeriod()\n    {\n        require(endTime != 0);\n        require(getState() == uint256(RoundState.InReview));\n        _;\n    }\n\n    // @dev Requires that a winner has been selected for this round.\n    // modifier afterWinnerSelected()\n    // {\n    // \trequire(winningSubmissions[0] != 0x0);\n    // \t_;\n    // }\n\n    modifier onlySubmission()\n    {\n        require(addressToSubmissionIndex[msg.sender].exists);\n        _;\n    }\n\n    modifier onlyTournament()\n    {\n        require(msg.sender == tournamentAddress);\n        _;\n    }\n\n    modifier onlyTournamentOrLib()\n    {\n        bool isTournament = msg.sender == tournamentAddress;\n        bool isLib = getContractAddress(sha3(\"LibTournamentAdminMethods\")) == msg.sender;\n        _;\n    }\n\n    /// @dev Requires that the desired submission is accessible to the requester.\n    modifier whenAccessible(address _requester, uint256 _index)\n    {\n        require(IMatryxSubmission(submissions[_index]).isAccessible(_requester));\n        _;\n    }\n\n    function submissionExists(address _submissionAddress) public returns (bool)\n    {\n        return addressToSubmissionIndex[_submissionAddress].exists;\n    }\n\n    /// @dev Requires the function caller to be the platform or the owner of this tournament\n    // modifier tournamentOrOwner()\n    // {\n    //     require((msg.sender == tournamentAddress)||(msg.sender == owner));\n    //     _;\n    // }\n\n    // @dev Requires that the sender be the submission's author.\n    modifier onlySubmissionAuthor()\n    {\n        require(authorToSubmissionAddress[msg.sender].length != 0);\n        _;\n    }\n\n    /*\n     * State Maintenance Methods\n     */\n\n    // function removeSubmission(address _submissionAddress) public onlyTournament returns (bool)\n    // {\n    // \tif(addressToSubmissionIndex[msg.sender].exists)\n    // \t{\n    // \t\tIMatryxSubmission submission = IMatryxSubmission(submissions[addressToSubmissionIndex[_submissionAddress].value]);\n    // \t\taddress author = submission.getAuthor();\n    // \t\tsubmission.deleteSubmission();\n\n    // \t\tdelete authorToSubmissionAddress[author];\n    // \t\tdelete submissions[addressToSubmissionIndex[_submissionAddress].value];\n\n    // \t\tnumberSubmissionsRemoved = numberSubmissionsRemoved.add(1);\n    // \t\treturn true;\n    // \t}\n\n    // \treturn false;\n    // }\n\n    function addBounty(uint256 _mtxAllocation) public onlyTournamentOrLib\n    {\n        bounty = bounty.add(_mtxAllocation);\n    }\n\n    /*\n     * Access Control Methods\n     */\n\n    /// @dev Sets an address for a contract the platform should know about.\n    /// @param _nameHash Keccak256 hash of the name of the contract to give an address to.\n    /// @param _contractAddress Address to be assigned for the given contract name.\n    function setContractAddress(bytes32 _nameHash, address _contractAddress) public onlyOwner\n    {\n        contracts[_nameHash] = _contractAddress;\n    }\n\n    /// @dev Gets the address of a contract the platform knows about.\n    /// @param _nameHash Keccak256 hash of the name of the contract to look for.\n    /// @return Address of the contract with the designated name.\n    function getContractAddress(bytes32 _nameHash) public returns (address contractAddress)\n    {\n        return contracts[_nameHash];\n    }\n\n    // @dev Returns the state of the round. \n    // The round can be in one of 6 states:\n    // NotYetOpen, Open, InReview, HasWinners, Closed, Abandoned\n    function getState() public view returns (uint256)\n    {\n        if(now < startTime)\n        {\n            return uint256(RoundState.NotYetOpen);\n        }\n        else if(now >= startTime && now < endTime)\n        {\n            if (getRoundBalance() == 0)\n            {\n                return uint256(RoundState.Unfunded);\n            }\n\n            return uint256(RoundState.Open);\n        }\n        else if(now >= endTime && now < endTime.add(reviewPeriodDuration))\n        {\n            if(closed)\n            {\n                return uint256(RoundState.Closed);\n            }\n            else if(submissions.length == 0)\n            {\n                return uint256(RoundState.Abandoned);\n            }\n            else if(winningSubmissions.length > 0)\n            {\n                return uint256(RoundState.HasWinners);\n            }\n\n            return uint256(RoundState.InReview);\n        }\n        else if(winningSubmissions.length > 0)\n        {\n            return uint256(RoundState.Closed);\n        }\n        else\n        {\n            return uint256(RoundState.Abandoned);\n        }\n    }\n\n    /// @dev Returns whether or not the submission is accessible to the requester.\n    /// @param _index Index of the submission being requested.\n    /// @return Whether or not the submission is accessible to the requester.\n    function submissionIsAccessible(uint256 _index) public view returns (bool)\n    {\n        require(_index < submissions.length);\n\n        IMatryxSubmission submission = IMatryxSubmission(submissions[_index]);\n        return submission.isAccessible(msg.sender);\n    }\n\n    /// @dev Returns whether or not the submission is accessible to the requester.\n    /// @param _submissionAddress Address of the submission being requested.\n    /// @return Whether or not the submission is accessible to the requester.\n    function submissionIsAccessible(address _submissionAddress) public view returns (bool)\n    {\n        require(addressToSubmissionIndex[_submissionAddress].exists);\n\n        IMatryxSubmission submission = IMatryxSubmission(_submissionAddress);\n        return submission.isAccessible(msg.sender);\n    }\n\n    /// @dev Returns true if the sender is an entrant in this round.\n    /// @param _requester Address being tested.\n    /// @return Whether or not the requester is a contributor in this round.\n    function requesterIsContributor(address _requester) public view returns (bool)\n    {\n        return addressToParticipantType[_requester] != 0;\n    }\n\n    function setParticipantType(address _participantAddress, uint256 _type) public onlySubmission\n    {\n        addressToParticipantType[_participantAddress] = _type;\n    }\n\n    /*\n     * Getter Methods\n     */\n\n    function getPlatform() public view returns (address) {\n        return platformAddress;\n    }\n\n    function getTournament() public view returns (address) {\n        return tournamentAddress;\n    }\n\n    function getStartTime() public view returns (uint256)\n    {\n        return startTime;\n    }\n\n    function getEndTime() public view returns (uint256)\n    {\n        return endTime;\n    }\n\n    function getBounty() public view returns (uint256) \n    { \n        return bounty;\n    }\n\n    function remainingBounty() public view returns (uint256)\n    {\n        return IMatryxToken(IMatryxPlatform(platformAddress).getTokenAddress()).balanceOf(this);\n    }\n\n    function getTokenAddress() public view returns (address)\n    {\n        return IMatryxPlatform(platformAddress).getTokenAddress();\n    }\n\n    /// @dev Returns all submissions made to this round.\n    /// @return _submissions All submissions made to this round.\n    function getSubmissions() public view returns (address[] _submissions)\n    {\n        return submissions;\n    }\n\n    function getSubmissionAddress(uint256 _index) public view returns (address _submissionAddress)\n    {\n        require(_index < submissions.length);\n\n        return submissions[_index];\n    }\n\n    /// @dev Returns the author of a submission.\n    /// @param _index Index of the submission.\n    /// @return Address of this submission's author.\n    function getSubmissionAuthor(uint256 _index) public view whenAccessible(msg.sender, _index) returns (address) \n    {\n        IMatryxSubmission submission = IMatryxSubmission(submissions[_index]);\n        return submission.getAuthor();\n    }\n\n    /// @dev Returns the balance of a particular submission\n    /// @param _submissionAddress Address of the submission\n    /// @return Balance of the bounty \n    function getBalance(address _submissionAddress) public view returns (uint256)\n    {\n        return IMatryxToken(IMatryxPlatform(platformAddress).getTokenAddress()).balanceOf(_submissionAddress);\n    }\n\n    function getRoundBalance() public view returns (uint256)\n    {\n        return IMatryxToken(IMatryxPlatform(platformAddress).getTokenAddress()).balanceOf(this);\n    }\n\n    /// @dev Returns whether or not a winning submission has been chosen.\n    /// @return Whether or not a submission has been chosen.\n    function submissionsChosen() public view returns (bool)\n    {\n        return winningSubmissions[0] != 0x0;\n    }\n\n    /// @dev Returns the index of this round's winning submission.\n    /// @return Index of the winning submission.\n    function getWinningSubmissionAddresses() public view returns (address[])\n    {\n        return winningSubmissions;\n    }\n\n    /// @dev Returns the number of submissions made to this round.\n    /// @return Number of submissions made to this round.\n    function numberOfSubmissions() public view returns (uint256)\n    {\n        return submissions.length - numberSubmissionsRemoved;\n    }\n\n    function getParticipantType(address _participant) public view returns (uint256)\n    {\n        return addressToParticipantType[_participant];\n    }\n\n    /*\n     * Round Admin Methods\n     */\n\n\n    /// @dev Starts the round (callable only by the owner of the round).\n    /// @param _start Start time.\n    /// @param _end End time.\n    /// @param _reviewPeriodDuration Time to review the round submissions\n    function scheduleStart(uint256 _start, uint256 _end, uint256 _reviewPeriodDuration) internal\n    {\n        startTime = _start;\n        endTime = _end;\n        reviewPeriodDuration = _reviewPeriodDuration;\n    }\n\n    /// @dev Allows the tournament to edit the \n    function editRound(uint256 _currentRoundEndTime, LibConstruction.RoundData _roundData) public onlyTournament\n    {\n        require(_roundData.start > _currentRoundEndTime);\n        require(_roundData.end > _roundData.start);\n        require(_roundData.reviewPeriodDuration > 0);\n        require(_roundData.end.sub(_roundData.start) > 0);\n\n        startTime = _roundData.start;\n        endTime = _roundData.end;\n        reviewPeriodDuration = _roundData.reviewPeriodDuration;\n    }\n\n    function transferToTournament(uint256 _amount) public onlyTournament \n    {\n        require(getState() == uint256(RoundState.NotYetOpen));\n        require(IMatryxToken(IMatryxPlatform(platformAddress).getTokenAddress()).transfer(msg.sender, _amount));\n    }\n\n    enum SelectWinnerAction { DoNothing, StartNextRound, CloseTournament }\n    /// @dev Choose a winning submission for the round (callable only by the owner of the round).\n    /// @param _submissionAddresses Index of the winning submission.\n    /// @param _rewardDistribution Distribution indicating how to split the reward among the submissions\n    function selectWinningSubmissions(address[] _submissionAddresses, uint256[] _rewardDistribution, LibConstruction.RoundData _roundData, uint256 _selectWinnerAction) public onlyTournamentOrLib duringReviewPeriod\n    {\n        require(_submissionAddresses.length == _rewardDistribution.length);\n        require(_submissionAddresses.length != 0 && winningSubmissions.length == 0);\n\n        winningSubmissions = _submissionAddresses;\n        rewardDistribution = _rewardDistribution;\n\n        uint256 _rewardDistributionTotal;\n        for(uint256 i = 0; i < rewardDistribution.length; i++)\n        {\n            _rewardDistributionTotal = _rewardDistributionTotal.add(rewardDistribution[i]);\n        }\n\n        rewardDistributionTotal = _rewardDistributionTotal;\n\n        // DoNothing and StartNextRound cases\n        if(_selectWinnerAction == uint256(SelectWinnerAction.DoNothing) || _selectWinnerAction == uint256(SelectWinnerAction.StartNextRound))\n        {\n            for(uint256 j = 0; j < winningSubmissions.length; j++)\n            {\n                // Calculate total reward denominator and store it somewhere when\n                uint256 reward = rewardDistribution[j].mul(10**18).div(rewardDistributionTotal).mul(bounty).div(10**18);\n                // Transfer the reward to the submission\n                require(IMatryxToken(IMatryxPlatform(platformAddress).getTokenAddress()).transfer(winningSubmissions[j], reward));\n                IMatryxSubmission(winningSubmissions[j]).addToWinnings(reward);\n            }\n\n            uint256 newBounty;\n            uint256 tournamentBalance = IMatryxTournament(tournamentAddress).getBalance();\n\n            if(tournamentBalance < bounty)\n            {\n                newBounty = tournamentBalance;\n            }\n            else\n            {\n                newBounty = bounty;\n            }\n\n            LibConstruction.RoundData memory roundData;\n            if(_selectWinnerAction == uint256(SelectWinnerAction.DoNothing))\n            {\n                roundData = LibConstruction.RoundData({start: endTime.add(reviewPeriodDuration), end: endTime.add(reviewPeriodDuration).add(endTime.sub(startTime)), reviewPeriodDuration: reviewPeriodDuration, bounty: newBounty});\n                newRound = IMatryxTournament(tournamentAddress).createRound(roundData, true);\n            }\n            else if(_selectWinnerAction == uint256(SelectWinnerAction.StartNextRound))\n            {\n                closed = true;\n                roundData = LibConstruction.RoundData({start: now, end: _roundData.end, reviewPeriodDuration: _roundData.reviewPeriodDuration, bounty: _roundData.bounty});\n                newRound = IMatryxTournament(tournamentAddress).createRound(roundData, false);\n            }\n        }\n        else\n        {\n            // CloseTournament case\n            closed = true;\n        }\n    }\n\n    function transferAllToWinners(uint256 _tournamentBalance) public onlyTournament\n    {\n        for(uint256 i = 0; i < winningSubmissions.length; i++)\n        {\n            // Calculate total reward denominator and store it somewhere when\n            uint totalBalance = bounty.add(_tournamentBalance);\n            uint256 reward = rewardDistribution[i].mul(1*10**18).div(rewardDistributionTotal).mul(totalBalance).div(1*10**18);\n            // Transfer the reward to the submission\n            IMatryxToken(IMatryxPlatform(platformAddress).getTokenAddress()).transfer(winningSubmissions[i], reward);\n            IMatryxSubmission(winningSubmissions[i]).addToWinnings(reward);\n        }\n    }\n\n    function startNow() public onlyTournament\n    {\n        uint256 duration = endTime.sub(startTime);\n        startTime = now;\n        endTime = startTime.add(duration);\n    }\n\n    function closeRound() public onlyTournament\n    {\n        require(getState() == uint256(RoundState.HasWinners));\n        closed = true;\n    }\n\n    /*\n     * Entrant Methods\n     */\n\n    function becomeEntrant(address _entrant) public onlyTournament\n    {\n        addressToParticipantType[_entrant] = uint256(ParticipantType.Entrant);\n    }\n\n    function becomeNonentrant(address _entrant) public onlyTournament\n    {\n        addressToParticipantType[_entrant] = uint256(ParticipantType.Nonentrant);\n    }\n\n    /// @dev Create a new submission.\n    /// @param _author of this submission.\n    /// @param submissionData The data of the submission. Includes:\n    ///\t\ttitle: Title of the submission.\n    ///\t\towner: The owner of the submission.\n    ///\t\tcontentHash: Off-chain content hash of submission details (ipfs hash)\n    ///\t\tcontributors: Contributors to this submission.\n    ///\t\tcontributorRewardDistribution: Informs how the reward should be distributed among the contributors\n    /// \tshould this submission win.\n    ///\t\treferences: Addresses of submissions referenced in creating this submission.\n    /// @return _submissionAddress Location of this submission within this round.\n    function createSubmission(address[] _contributors, uint128[] _contributorRewardDistribution, address[] _references, address _author, LibConstruction.SubmissionData submissionData) public onlyTournament duringOpenSubmission returns (address _submissionAddress)\n    {\n        require(_author != 0x0);\n        \n        LibConstruction.RequiredSubmissionAddresses memory requiredSubmissionAddresses = LibConstruction.RequiredSubmissionAddresses({platformAddress: platformAddress, tournamentAddress: tournamentAddress, roundAddress: this});\n        address submissionAddress = IMatryxSubmissionFactory(matryxSubmissionFactoryAddress).createSubmission(_contributors, _contributorRewardDistribution, _references, requiredSubmissionAddresses, submissionData);\n        // submission bookkeeping\n        addressToSubmissionIndex[submissionAddress] = uint256_optional({exists:true, value: submissions.length});\n        submissions.push(submissionAddress);\n\n        // TODO: Change to 'authors.push' once MatryxPeer is part of MatryxPlatform\n        if(authorToSubmissionAddress[msg.sender].length == 0)\n        {\n            submissionOwners.push(submissionData.owner);\n        }\n\n        authorToSubmissionAddress[msg.sender].push(submissionAddress);\n\n        // round participant bookkeeping\n        addressToParticipantType[_author] = uint(ParticipantType.Author);\n        for(uint256 i = 0; i < _contributors.length; i++)\n        {\n            addressToParticipantType[_contributors[i]] = uint(ParticipantType.Contributor);\n        }\n\n        IMatryxTournament(tournamentAddress).invokeSubmissionCreatedEvent(submissionAddress);\n        //emit TimeStamp(now);\n        return submissionAddress;\n    }\n\n    /// @dev Allows contributors to withdraw a portion of the round bounty if the round has been abandoned.\n    function transferBountyToTournament() public onlyTournament returns (uint256)\n    {  \n        uint256 remaining = remainingBounty();\n        IMatryxToken(IMatryxPlatform(platformAddress).getTokenAddress()).transfer(tournamentAddress, remaining);\n        return remaining;\n    }\n\n    // function pullPayoutIntoSubmission() public onlySubmission returns (uint256)\n    // {\n    //     require(getState() == uint256(RoundState.Closed));\n    //     // If the submission's already been paid, revert\n    //     require(submissionToHasBeenPayed[msg.sender] == false);\n    //     // If the tournament closed, we need to pull the tournament funds into this round.\n    //     if(IMatryxTournament(tournamentAddress).getState() == uint256(TournamentState.Closed) && remainingBounty() > 0)\n    //     {\n    //         IMatryxTournament(tournamentAddress).pullRemainingBountyIntoRound();\n    //     }\n\n    //     // Transfer the reward to its recipient if it deserves a reward (and mark that its been given out)\n        \n    //     for(uint256 i = 0; i < winningSubmissions.length; i++)\n    //     {\n    //         if(msg.sender == winningSubmissions[i])\n    //         {\n    //             submissionToHasBeenPayed[msg.sender] = true;\n    //             // Calculate total reward denominator and store it somewhere when\n    //             uint256 reward = (rewardDistribution[i].mul(1*10**18).div(rewardDistributionTotal)).mul(bounty);\n    //             // Transfer the reward to the submission\n    //             IMatryxToken(matryxTokenAddress).transfer(msg.sender, reward);\n    //             return reward;\n    //         }\n    //     }\n\n    //     // TODO:\n    //     // Or we could never transfer funds to the round in the first place.\n    //     // This would allow this function to exist on the tournament instead of the round.\n    //     // I'd need to reintroduce bountyLeft so that the tournament knew how much is left for the round.\n    //     // If I reintroduced it, it would be to the tournament, so that submission.withdrawReward wouldn't have to call round.bountyLeft to figure out how much to ask the tournament for.\n    //     // The tournament would just transfer as much as the submission deserved into it.\n    //     // bountyLeft would be stored as a value under a rounds structure.\n    //     // This would eventually involve writing a library to do round functions.\n    //     // For now, this can be a hardcoded library.\n    //     // Eventually, this library will be part of the upgrade system.\n    //     // Upgrade system will eventually allow for data, data migration and code contracts to exist and be swapped per contract\n    //     // All data and code contract addresses will be sourced from one contract, the MatryxVersionManager.\n    //     // This contract will also contain data migrators to migrate from one version to another (for when data structures change)\n    // }\n}",
  "sourcePath": "/Users/maxhoward/Desktop/Ethereum/Development/Matryx/Projects/MatryxPlatform/contracts/MatryxRound.sol",
  "compiler": {
    "name": "solc",
    "version": "0.4.24+commit.e67f0147.Emscripten.clang"
  },
  "schemaVersion": "2.0.0",
  "updatedAt": "2018-07-12T19:03:55.766Z"
}