{
  "contractName": "MatryxPlatform",
  "abi": [
    {
      "constant": true,
      "inputs": [],
      "name": "matryxTokenAddress",
      "outputs": [
        {
          "name": "",
          "type": "address"
        }
      ],
      "payable": false,
      "stateMutability": "view",
      "type": "function"
    },
    {
      "constant": true,
      "inputs": [
        {
          "name": "_sender",
          "type": "address"
        }
      ],
      "name": "isOwner",
      "outputs": [
        {
          "name": "_isOwner",
          "type": "bool"
        }
      ],
      "payable": false,
      "stateMutability": "view",
      "type": "function"
    },
    {
      "constant": true,
      "inputs": [
        {
          "name": "",
          "type": "bytes32"
        }
      ],
      "name": "categoryIterator",
      "outputs": [
        {
          "name": "count",
          "type": "uint128"
        },
        {
          "name": "prev",
          "type": "bytes32"
        },
        {
          "name": "next",
          "type": "bytes32"
        }
      ],
      "payable": false,
      "stateMutability": "view",
      "type": "function"
    },
    {
      "constant": true,
      "inputs": [],
      "name": "getOwner",
      "outputs": [
        {
          "name": "_owner",
          "type": "address"
        }
      ],
      "payable": false,
      "stateMutability": "view",
      "type": "function"
    },
    {
      "constant": false,
      "inputs": [
        {
          "name": "_queryID",
          "type": "uint256"
        },
        {
          "name": "_response",
          "type": "uint256"
        }
      ],
      "name": "storeQueryResponse",
      "outputs": [
        {
          "name": "success",
          "type": "bool"
        }
      ],
      "payable": false,
      "stateMutability": "nonpayable",
      "type": "function"
    },
    {
      "constant": true,
      "inputs": [],
      "name": "owner",
      "outputs": [
        {
          "name": "",
          "type": "address"
        }
      ],
      "payable": false,
      "stateMutability": "view",
      "type": "function"
    },
    {
      "constant": true,
      "inputs": [],
      "name": "lastCategoryHash",
      "outputs": [
        {
          "name": "",
          "type": "bytes32"
        }
      ],
      "payable": false,
      "stateMutability": "view",
      "type": "function"
    },
    {
      "constant": true,
      "inputs": [
        {
          "name": "",
          "type": "uint256"
        }
      ],
      "name": "categoryList",
      "outputs": [
        {
          "name": "",
          "type": "string"
        }
      ],
      "payable": false,
      "stateMutability": "view",
      "type": "function"
    },
    {
      "constant": true,
      "inputs": [
        {
          "name": "",
          "type": "uint256"
        }
      ],
      "name": "allTournaments",
      "outputs": [
        {
          "name": "",
          "type": "address"
        }
      ],
      "payable": false,
      "stateMutability": "view",
      "type": "function"
    },
    {
      "constant": false,
      "inputs": [
        {
          "name": "_query",
          "type": "bytes32"
        },
        {
          "name": "_sender",
          "type": "address"
        }
      ],
      "name": "Query",
      "outputs": [],
      "payable": false,
      "stateMutability": "nonpayable",
      "type": "function"
    },
    {
      "constant": false,
      "inputs": [
        {
          "name": "newOwner",
          "type": "address"
        }
      ],
      "name": "transferOwnership",
      "outputs": [],
      "payable": false,
      "stateMutability": "nonpayable",
      "type": "function"
    },
    {
      "constant": true,
      "inputs": [],
      "name": "firstCategoryHash",
      "outputs": [
        {
          "name": "",
          "type": "bytes32"
        }
      ],
      "payable": false,
      "stateMutability": "view",
      "type": "function"
    },
    {
      "inputs": [
        {
          "name": "_matryxTokenAddress",
          "type": "address"
        },
        {
          "name": "_matryxPeerFactoryAddress",
          "type": "address"
        },
        {
          "name": "_matryxTournamentFactoryAddress",
          "type": "address"
        },
        {
          "name": "_matryxSubmissionTrustLibAddress",
          "type": "address"
        }
      ],
      "payable": false,
      "stateMutability": "nonpayable",
      "type": "constructor"
    },
    {
      "anonymous": false,
      "inputs": [
        {
          "indexed": false,
          "name": "_discipline",
          "type": "string"
        },
        {
          "indexed": false,
          "name": "_owner",
          "type": "address"
        },
        {
          "indexed": false,
          "name": "_tournamentAddress",
          "type": "address"
        },
        {
          "indexed": false,
          "name": "_tournamentName",
          "type": "string"
        },
        {
          "indexed": false,
          "name": "_externalAddress",
          "type": "bytes"
        },
        {
          "indexed": false,
          "name": "_MTXReward",
          "type": "uint256"
        },
        {
          "indexed": false,
          "name": "_entryFee",
          "type": "uint256"
        }
      ],
      "name": "TournamentCreated",
      "type": "event"
    },
    {
      "anonymous": false,
      "inputs": [
        {
          "indexed": false,
          "name": "_owner",
          "type": "address"
        },
        {
          "indexed": false,
          "name": "_tournamentAddress",
          "type": "address"
        },
        {
          "indexed": false,
          "name": "_tournamentName",
          "type": "string"
        },
        {
          "indexed": false,
          "name": "_externalAddress",
          "type": "bytes"
        },
        {
          "indexed": false,
          "name": "_MTXReward",
          "type": "uint256"
        },
        {
          "indexed": false,
          "name": "_entryFee",
          "type": "uint256"
        }
      ],
      "name": "TournamentOpened",
      "type": "event"
    },
    {
      "anonymous": false,
      "inputs": [
        {
          "indexed": false,
          "name": "_tournamentAddress",
          "type": "address"
        },
        {
          "indexed": false,
          "name": "_finalRoundNumber",
          "type": "uint256"
        },
        {
          "indexed": false,
          "name": "_winningSubmissionAddress",
          "type": "address"
        },
        {
          "indexed": false,
          "name": "_MTXReward",
          "type": "uint256"
        }
      ],
      "name": "TournamentClosed",
      "type": "event"
    },
    {
      "anonymous": false,
      "inputs": [
        {
          "indexed": false,
          "name": "_entrant",
          "type": "address"
        },
        {
          "indexed": false,
          "name": "_tournamentAddress",
          "type": "address"
        }
      ],
      "name": "UserEnteredTournament",
      "type": "event"
    },
    {
      "anonymous": false,
      "inputs": [
        {
          "indexed": false,
          "name": "queryID",
          "type": "string"
        }
      ],
      "name": "QueryID",
      "type": "event"
    },
    {
      "anonymous": false,
      "inputs": [
        {
          "indexed": false,
          "name": "id",
          "type": "uint256"
        },
        {
          "indexed": false,
          "name": "sender",
          "type": "address"
        }
      ],
      "name": "QueryPerformed",
      "type": "event"
    },
    {
      "anonymous": false,
      "inputs": [
        {
          "indexed": false,
          "name": "storedResponse",
          "type": "uint256"
        }
      ],
      "name": "StoredResponse",
      "type": "event"
    },
    {
      "anonymous": false,
      "inputs": [
        {
          "indexed": false,
          "name": "response",
          "type": "uint256"
        }
      ],
      "name": "ObtainedResponse",
      "type": "event"
    },
    {
      "anonymous": false,
      "inputs": [
        {
          "indexed": false,
          "name": "newResponse",
          "type": "uint256"
        },
        {
          "indexed": false,
          "name": "oldResponse",
          "type": "uint256"
        }
      ],
      "name": "FailedToStore",
      "type": "event"
    },
    {
      "anonymous": false,
      "inputs": [
        {
          "indexed": false,
          "name": "id",
          "type": "uint256"
        }
      ],
      "name": "QueryID",
      "type": "event"
    },
    {
      "constant": false,
      "inputs": [
        {
          "name": "_owner",
          "type": "address"
        },
        {
          "name": "_tournamentAddress",
          "type": "address"
        },
        {
          "name": "_tournamentName",
          "type": "string"
        },
        {
          "name": "_externalAddress",
          "type": "bytes"
        },
        {
          "name": "_MTXReward",
          "type": "uint256"
        },
        {
          "name": "_entryFee",
          "type": "uint256"
        }
      ],
      "name": "invokeTournamentOpenedEvent",
      "outputs": [],
      "payable": false,
      "stateMutability": "nonpayable",
      "type": "function"
    },
    {
      "constant": false,
      "inputs": [
        {
          "name": "_tournamentAddress",
          "type": "address"
        },
        {
          "name": "_finalRoundNumber",
          "type": "uint256"
        },
        {
          "name": "_winningSubmissionAddress",
          "type": "address"
        },
        {
          "name": "_MTXReward",
          "type": "uint256"
        }
      ],
      "name": "invokeTournamentClosedEvent",
      "outputs": [],
      "payable": false,
      "stateMutability": "nonpayable",
      "type": "function"
    },
    {
      "constant": false,
      "inputs": [
        {
          "name": "_toIgnore",
          "type": "uint256"
        }
      ],
      "name": "prepareBalance",
      "outputs": [],
      "payable": false,
      "stateMutability": "nonpayable",
      "type": "function"
    },
    {
      "constant": true,
      "inputs": [],
      "name": "balanceIsNonZero",
      "outputs": [
        {
          "name": "",
          "type": "bool"
        }
      ],
      "payable": false,
      "stateMutability": "view",
      "type": "function"
    },
    {
      "constant": true,
      "inputs": [],
      "name": "getBalance",
      "outputs": [
        {
          "name": "",
          "type": "uint256"
        }
      ],
      "payable": false,
      "stateMutability": "view",
      "type": "function"
    },
    {
      "constant": false,
      "inputs": [
        {
          "name": "_submissionAddress",
          "type": "address"
        },
        {
          "name": "_references",
          "type": "address[]"
        }
      ],
      "name": "handleReferenceRequestsForSubmission",
      "outputs": [
        {
          "name": "",
          "type": "bool"
        }
      ],
      "payable": false,
      "stateMutability": "nonpayable",
      "type": "function"
    },
    {
      "constant": false,
      "inputs": [
        {
          "name": "_reference",
          "type": "address"
        }
      ],
      "name": "handleReferenceRequestForSubmission",
      "outputs": [
        {
          "name": "",
          "type": "bool"
        }
      ],
      "payable": false,
      "stateMutability": "nonpayable",
      "type": "function"
    },
    {
      "constant": false,
      "inputs": [
        {
          "name": "_reference",
          "type": "address"
        }
      ],
      "name": "handleCancelledReferenceRequestForSubmission",
      "outputs": [
        {
          "name": "",
          "type": "bool"
        }
      ],
      "payable": false,
      "stateMutability": "nonpayable",
      "type": "function"
    },
    {
      "constant": false,
      "inputs": [
        {
          "name": "_owner",
          "type": "address"
        },
        {
          "name": "_submission",
          "type": "address"
        }
      ],
      "name": "updateSubmissions",
      "outputs": [],
      "payable": false,
      "stateMutability": "nonpayable",
      "type": "function"
    },
    {
      "constant": false,
      "inputs": [
        {
          "name": "_submissionAddress",
          "type": "address"
        },
        {
          "name": "_tournamentAddress",
          "type": "address"
        }
      ],
      "name": "removeSubmission",
      "outputs": [
        {
          "name": "",
          "type": "bool"
        }
      ],
      "payable": false,
      "stateMutability": "nonpayable",
      "type": "function"
    },
    {
      "constant": true,
      "inputs": [
        {
          "name": "category",
          "type": "string"
        }
      ],
      "name": "getTournamentsByCategory",
      "outputs": [
        {
          "name": "",
          "type": "address[]"
        }
      ],
      "payable": false,
      "stateMutability": "view",
      "type": "function"
    },
    {
      "constant": true,
      "inputs": [
        {
          "name": "category",
          "type": "string"
        }
      ],
      "name": "getCategoryCount",
      "outputs": [
        {
          "name": "",
          "type": "uint256"
        }
      ],
      "payable": false,
      "stateMutability": "view",
      "type": "function"
    },
    {
      "constant": false,
      "inputs": [
        {
          "name": "discipline",
          "type": "string"
        }
      ],
      "name": "switchTournamentCategory",
      "outputs": [],
      "payable": false,
      "stateMutability": "nonpayable",
      "type": "function"
    },
    {
      "constant": false,
      "inputs": [
        {
          "name": "_tournamentAddress",
          "type": "address"
        }
      ],
      "name": "enterTournament",
      "outputs": [
        {
          "name": "_success",
          "type": "bool"
        }
      ],
      "payable": false,
      "stateMutability": "nonpayable",
      "type": "function"
    },
    {
      "constant": false,
      "inputs": [
        {
          "name": "_category",
          "type": "string"
        },
        {
          "name": "_tournamentName",
          "type": "string"
        },
        {
          "name": "_externalAddress",
          "type": "bytes"
        },
        {
          "name": "_BountyMTX",
          "type": "uint256"
        },
        {
          "name": "_entryFee",
          "type": "uint256"
        },
        {
          "name": "_reviewPeriod",
          "type": "uint256"
        }
      ],
      "name": "createTournament",
      "outputs": [
        {
          "name": "_tournamentAddress",
          "type": "address"
        }
      ],
      "payable": false,
      "stateMutability": "nonpayable",
      "type": "function"
    },
    {
      "constant": false,
      "inputs": [],
      "name": "createPeer",
      "outputs": [
        {
          "name": "",
          "type": "address"
        }
      ],
      "payable": false,
      "stateMutability": "nonpayable",
      "type": "function"
    },
    {
      "constant": true,
      "inputs": [
        {
          "name": "_peerAddress",
          "type": "address"
        }
      ],
      "name": "isPeer",
      "outputs": [
        {
          "name": "",
          "type": "bool"
        }
      ],
      "payable": false,
      "stateMutability": "view",
      "type": "function"
    },
    {
      "constant": true,
      "inputs": [
        {
          "name": "_sender",
          "type": "address"
        }
      ],
      "name": "hasPeer",
      "outputs": [
        {
          "name": "",
          "type": "bool"
        }
      ],
      "payable": false,
      "stateMutability": "view",
      "type": "function"
    },
    {
      "constant": true,
      "inputs": [
        {
          "name": "_peer",
          "type": "address"
        },
        {
          "name": "_reference",
          "type": "address"
        }
      ],
      "name": "peerExistsAndOwnsSubmission",
      "outputs": [
        {
          "name": "",
          "type": "bool"
        }
      ],
      "payable": false,
      "stateMutability": "view",
      "type": "function"
    },
    {
      "constant": true,
      "inputs": [
        {
          "name": "_sender",
          "type": "address"
        }
      ],
      "name": "peerAddress",
      "outputs": [
        {
          "name": "",
          "type": "address"
        }
      ],
      "payable": false,
      "stateMutability": "view",
      "type": "function"
    },
    {
      "constant": true,
      "inputs": [
        {
          "name": "_submissionAddress",
          "type": "address"
        }
      ],
      "name": "isSubmission",
      "outputs": [
        {
          "name": "",
          "type": "bool"
        }
      ],
      "payable": false,
      "stateMutability": "view",
      "type": "function"
    },
    {
      "constant": true,
      "inputs": [
        {
          "name": "_tournamentAddress",
          "type": "address"
        }
      ],
      "name": "getTournament_IsMine",
      "outputs": [
        {
          "name": "_isMine",
          "type": "bool"
        }
      ],
      "payable": false,
      "stateMutability": "view",
      "type": "function"
    },
    {
      "constant": false,
      "inputs": [
        {
          "name": "_gratitude",
          "type": "uint256"
        }
      ],
      "name": "setSubmissionGratitude",
      "outputs": [],
      "payable": false,
      "stateMutability": "nonpayable",
      "type": "function"
    },
    {
      "constant": true,
      "inputs": [],
      "name": "getTokenAddress",
      "outputs": [
        {
          "name": "",
          "type": "address"
        }
      ],
      "payable": false,
      "stateMutability": "view",
      "type": "function"
    },
    {
      "constant": true,
      "inputs": [],
      "name": "getSubmissionTrustLibrary",
      "outputs": [
        {
          "name": "",
          "type": "address"
        }
      ],
      "payable": false,
      "stateMutability": "view",
      "type": "function"
    },
    {
      "constant": true,
      "inputs": [],
      "name": "getRoundLibAddress",
      "outputs": [
        {
          "name": "",
          "type": "address"
        }
      ],
      "payable": false,
      "stateMutability": "view",
      "type": "function"
    },
    {
      "constant": true,
      "inputs": [],
      "name": "getSubmissionGratitude",
      "outputs": [
        {
          "name": "",
          "type": "uint256"
        }
      ],
      "payable": false,
      "stateMutability": "view",
      "type": "function"
    },
    {
      "constant": true,
      "inputs": [],
      "name": "myTournaments",
      "outputs": [
        {
          "name": "",
          "type": "address[]"
        }
      ],
      "payable": false,
      "stateMutability": "view",
      "type": "function"
    },
    {
      "constant": true,
      "inputs": [],
      "name": "mySubmissions",
      "outputs": [
        {
          "name": "",
          "type": "address[]"
        }
      ],
      "payable": false,
      "stateMutability": "view",
      "type": "function"
    },
    {
      "constant": true,
      "inputs": [],
      "name": "tournamentCount",
      "outputs": [
        {
          "name": "_tournamentCount",
          "type": "uint256"
        }
      ],
      "payable": false,
      "stateMutability": "view",
      "type": "function"
    },
    {
      "constant": true,
      "inputs": [
        {
          "name": "_index",
          "type": "uint256"
        }
      ],
      "name": "getTournamentAtIndex",
      "outputs": [
        {
          "name": "_tournamentAddress",
          "type": "address"
        }
      ],
      "payable": false,
      "stateMutability": "view",
      "type": "function"
    }
  ],
  "bytecode": "0x606060405260408051908101604052600181526702c68af0bb140000602082015260168151815460ff1916901515178155602082015181600101555050341561004757600080fd5b604051608080612f808339810160405280805191906020018051919060200180519190602001805160008054600160a060020a03338116600160a060020a0319928316179092556004805498831698821698909817909755600580549682169688169690961790955560068054948616948716949094179093555050600780549290911691909216179055612e9f806100e16000396000f30060606040526004361061020e5763ffffffff7c010000000000000000000000000000000000000000000000000000000060003504166310fe9ae8811461021357806312065fe0146102425780631d2245f51461026757806322985f92146102cd57806329cc545e146102f45780632f54bf6e146103075780633e44cf7814610326578063493a7af31461034557806350912da11461039257806351488bce146103c0578063532311c4146103e55780635490904b146104045780636a44e43d146104b65780636e2b2c7c146104d557806376652626146104e8578063818b5fa8146104fb578063875153ff1461051a578063893d20e81461056b5780638b72062a1461057e5780638c593a8c146105975780638da5cb5b146105f4578063947d160e14610607578063984ed2061461061a578063a968c4b914610630578063ab9583d914610655578063ac17741b1461067a578063b20a2dce14610698578063b2fad554146106ab578063bfc9d77c146106ca578063c13ae92a146107ac578063c21260a5146107c2578063c839984a1461084f578063d4a0182014610865578063d4f056d414610887578063e139a20c146108a5578063e8a0ed0d146108b8578063edee41d9146108d7578063f2fde38b146108ed578063f3dc0d251461090c578063f4d291f01461091f578063f7468a3c14610932578063f7c3609d14610951578063fb5032d614610964575b600080fd5b341561021e57600080fd5b610226610983565b604051600160a060020a03909116815260200160405180910390f35b341561024d57600080fd5b610255610993565b60405190815260200160405180910390f35b341561027257600080fd5b61027a6109a9565b60405160208082528190810183818151815260200191508051906020019060200280838360005b838110156102b95780820151838201526020016102a1565b505050509050019250505060405180910390f35b34156102d857600080fd5b6102e0610a34565b604051901515815260200160405180910390f35b34156102ff57600080fd5b610226610a48565b341561031257600080fd5b6102e0600160a060020a0360043516610a57565b341561033157600080fd5b6102e0600160a060020a0360043516610a6b565b341561035057600080fd5b61035b600435610a89565b6040516fffffffffffffffffffffffffffffffff909316835260208301919091526040808301919091526060909101905180910390f35b341561039d57600080fd5b6103be600160a060020a036004358116906024359060443516606435610abd565b005b34156103cb57600080fd5b6102e0600160a060020a0360043581169060243516610b44565b34156103f057600080fd5b6102e0600160a060020a0360043516610bbb565b341561040f57600080fd5b6103be600160a060020a036004803582169160248035909116919060649060443590810190830135806020601f8201819004810201604051908101604052818152929190602084018383808284378201915050505050509190803590602001908201803590602001908080601f01602080910402602001604051908101604052818152929190602084018383808284375094965050843594602001359350610bdb92505050565b34156104c157600080fd5b610226600160a060020a0360043516610d3a565b34156104e057600080fd5b610255610d58565b34156104f357600080fd5b610226610d5e565b341561050657600080fd5b6102e0600160a060020a0360043516610d6d565b341561052557600080fd5b6103be60046024813581810190830135806020601f82018190048102016040519081016040528181529291906020840183838082843750949650610d8b95505050505050565b341561057657600080fd5b610226610db5565b341561058957600080fd5b6102e0600435602435610dc4565b34156105a257600080fd5b6102e060048035600160a060020a0316906044602480359081019083013580602080820201604051908101604052809392919081815260200183836020028082843750949650610ee395505050505050565b34156105ff57600080fd5b6102266110cd565b341561061257600080fd5b6102556110dc565b341561062557600080fd5b6102266004356110e2565b341561063b57600080fd5b6102e0600160a060020a0360043581169060243516611128565b341561066057600080fd5b6103be600160a060020a0360043581169060243516611378565b341561068557600080fd5b61027a6004803560248101910135611499565b34156106a357600080fd5b61025561153c565b34156106b657600080fd5b6102e0600160a060020a0360043516611557565b34156106d557600080fd5b61022660046024813581810190830135806020601f8201819004810201604051908101604052818152929190602084018383808284378201915050505050509190803590602001908201803590602001908080601f01602080910402602001604051908101604052818152929190602084018383808284378201915050505050509190803590602001908201803590602001908080601f0160208091040260200160405190810160405281815292919060208401838380828437509496505084359460208101359450604001359250611708915050565b34156107b757600080fd5b6103be600435611c14565b34156107cd57600080fd5b6107d8600435611c84565b60405160208082528190810183818151815260200191508051906020019080838360005b838110156108145780820151838201526020016107fc565b50505050905090810190601f1680156108415780820380516001836020036101000a031916815260200191505b509250505060405180910390f35b341561085a57600080fd5b610226600435611d3f565b341561087057600080fd5b6103be600435600160a060020a0360243516611d67565b341561089257600080fd5b6102556004803560248101910135611f09565b34156108b057600080fd5b61027a611f57565b34156108c357600080fd5b6102e0600160a060020a0360043516611fe0565b34156108e257600080fd5b6103be6004356120a2565b34156108f857600080fd5b6103be600160a060020a036004351661215c565b341561091757600080fd5b6102266121bb565b341561092a57600080fd5b6102556121ca565b341561093d57600080fd5b6102e0600160a060020a03600435166121d0565b341561095c57600080fd5b6102266122ff565b341561096f57600080fd5b6102e0600160a060020a0360043516612426565b600454600160a060020a03165b90565b60008061099f336125bc565b90508091505b5090565b6109b1612aee565b6013600033600160a060020a0316600160a060020a03168152602001908152602001600020805480602002602001604051908101604052809291908181526020018280548015610a2a57602002820191906000526020600020905b8154600160a060020a03168152600190910190602001808311610a0c575b5050505050905090565b600080610a40336125bc565b151592915050565b600454600160a060020a031681565b600054600160a060020a0391821691161490565b600160a060020a03166000908152600e602052604090205460ff1690565b600c602052600090815260409020805460018201546002909201546fffffffffffffffffffffffffffffffff909116919083565b600160a060020a03331660009081526011602052604090205460ff161515610ae457600080fd5b7f4b7129caf5b43afa8e5fa6636b13666891a1e62cfd286305ae6c96c9403cf5dd84848484604051600160a060020a039485168152602081019390935292166040808301919091526060820192909252608001905180910390a150505050565b600160a060020a038083166000818152600e60209081526040808320548686168085526012845282852054958552600f84528285205490961684526010835281842095845294909152812054909260ff9081169281169116828015610ba65750815b8015610baf5750805b93505b50505092915050565b600160a060020a039081166000908152600f602052604090205416151590565b600160a060020a03331660009081526011602052604090205460ff161515610c0257600080fd5b7f2237d56eaac80eabccfac0e9fb7d5a6365d4849af29f803b530fabebdf7299d4868686868686604051600160a060020a038088168252861660208201526080810183905260a0810182905260c060408201818152906060830190830187818151815260200191508051906020019080838360005b83811015610c8f578082015183820152602001610c77565b50505050905090810190601f168015610cbc5780820380516001836020036101000a031916815260200191505b50838103825286818151815260200191508051906020019080838360005b83811015610cf2578082015183820152602001610cda565b50505050905090810190601f168015610d1f5780820380516001836020036101000a031916815260200191505b509850505050505050505060405180910390a1505050505050565b600160a060020a039081166000908152600f60205260409020541690565b60095490565b600854600160a060020a031690565b600160a060020a031660009081526012602052604090205460ff1690565b600160a060020a03331660009081526011602052604090205460ff161515610db257600080fd5b50565b600054600160a060020a031690565b600080548190819033600160a060020a03908116911614610de457600080fd5b5050600160a060020a0333166000908152600260209081526040808320548084526003909252822054909184118015610e1b575080155b15610e8957600160a060020a03331660009081526002602090815260408083208890558783526003909152908190208590557fae8527266ba82a48a206c6cbaa4634e0d5e70b8c6017ac015e19fa75664d55789085905190815260200160405180910390a160019250610edb565b7fe0ecffc2c891b346f2eeb89101dba4c5748fb0f27fd023b97cdcac60c0a1585c84600360008881526020019081526020016000205460405191825260208201526040908101905180910390a1600092505b505092915050565b600160a060020a033316600090815260116020526040812054819081908190819060ff161515610f1257600080fd5b600093505b85518410156110c357858481518110610f2c57fe5b906020019060200201519250610f4183610d6d565b1515610f4c576110b8565b82915081600160a060020a031663a5faa1256000604051602001526040518163ffffffff167c0100000000000000000000000000000000000000000000000000000000028152600401602060405180830381600087803b1515610fae57600080fd5b6102c65a03f11515610fbf57600080fd5b5050506040518051915050600160a060020a03811663d1bbd31288856040517c010000000000000000000000000000000000000000000000000000000063ffffffff8516028152600160a060020a03928316600482015291166024820152604401600060405180830381600087803b151561103957600080fd5b6102c65a03f1151561104a57600080fd5b50505081600160a060020a031663c7af35516040518163ffffffff167c0100000000000000000000000000000000000000000000000000000000028152600401600060405180830381600087803b15156110a357600080fd5b6102c65a03f115156110b457600080fd5b5050505b600190930192610f17565b5050505092915050565b600054600160a060020a031681565b600b5481565b6000808210156110f157600080fd5b60095482106110ff57600080fd5b600980548390811061110d57fe5b600091825260209091200154600160a060020a031692915050565b600160a060020a03338116600090815260106020908152604080832093861683529290529081205481908190819060ff16151561116457600080fd5b600160a060020a03851660009081526011602052604090205460ff16151561118b57600080fd5b600160a060020a03861660009081526012602052604090205460ff161561136c5785925085600160a060020a031663893d20e86000604051602001526040518163ffffffff167c0100000000000000000000000000000000000000000000000000000000028152600401602060405180830381600087803b151561120e57600080fd5b6102c65a03f1151561121f57600080fd5b5050506040518051600160a060020a038082166000818152601560209081526040808320948d1683529381528382206001015460128252848320805460ff191690559282526014905291909120805492955090935091508290811061128057fe5b60009182526020808320909101805473ffffffffffffffffffffffffffffffffffffffff19169055600160a060020a0384811683526015825260408084208a83168552909252818320805460ff1916815560010183905587169163a968c4b9918991869151602001526040517c010000000000000000000000000000000000000000000000000000000063ffffffff8516028152600160a060020a03928316600482015291166024820152604401602060405180830381600087803b151561134757600080fd5b6102c65a03f1151561135857600080fd5b505050604051805190505060019350610bb2565b50600095945050505050565b600160a060020a03331660009081526011602052604090205460ff16151561139f57600080fd5b60408051908101604090815260018252600160a060020a038085166000818152601460209081528482205481870152918152601582528381209286168152919052208151815460ff19169015151781556020820151600191820155600160a060020a038416600090815260146020526040902080549092509081016114248382612b00565b506000918252602080832091909101805473ffffffffffffffffffffffffffffffffffffffff1916600160a060020a03948516908117909155939092168152601082526040808220938252928252828120805460ff199081166001908117909255601290935292902080549091169091179055565b6114a1612aee565b600c600084846040518083838082843782019150509250505060405180910390206000191660001916815260200190815260200160002060030180548060200260200160405190810160405280929190818152602001828054801561152f57602002820191906000526020600020905b8154600160a060020a03168152600190910190602001808311611511575b5050505050905092915050565b60165460009060ff16151561155057600080fd5b5060175490565b600160a060020a0333166000908152601260205260408120548190819060ff16151561158257600080fd5b61158b84610d6d565b151561159657600080fd5b83915081600160a060020a031663a5faa1256000604051602001526040518163ffffffff167c0100000000000000000000000000000000000000000000000000000000028152600401602060405180830381600087803b15156115f857600080fd5b6102c65a03f1151561160957600080fd5b5050506040518051915050600160a060020a03811663d1bbd31233866040517c010000000000000000000000000000000000000000000000000000000063ffffffff8516028152600160a060020a03928316600482015291166024820152604401600060405180830381600087803b151561168357600080fd5b6102c65a03f1151561169457600080fd5b50505081600160a060020a031663c7af35516040518163ffffffff167c0100000000000000000000000000000000000000000000000000000000028152600401600060405180830381600087803b15156116ed57600080fd5b6102c65a03f115156116fe57600080fd5b5050505050919050565b60008060008060003361171a81610bbb565b151561172557600080fd5b600454600160a060020a03169450888563dd62ed3e33306000604051602001526040517c010000000000000000000000000000000000000000000000000000000063ffffffff8516028152600160a060020a03928316600482015291166024820152604401602060405180830381600087803b15156117a357600080fd5b6102c65a03f115156117b457600080fd5b50505060405180519050101515156117cb57600080fd5b600654600160a060020a031693508363be9518b3338d8d8d8d8d6000604051602001526040518763ffffffff167c01000000000000000000000000000000000000000000000000000000000281526004018087600160a060020a0316600160a060020a031681526020018060200180602001868152602001858152602001848152602001838103835288818151815260200191508051906020019080838360005b8381101561188457808201518382015260200161186c565b50505050905090810190601f1680156118b15780820380516001836020036101000a031916815260200191505b50838103825287818151815260200191508051906020019080838360005b838110156118e75780820151838201526020016118cf565b50505050905090810190601f1680156119145780820380516001836020036101000a031916815260200191505b5098505050505050505050602060405180830381600087803b151561193857600080fd5b6102c65a03f1151561194957600080fd5b5050506040518051905092507f344013ba9391d2d4afe01b581cb35c66d83eac82c6b4bae7752c55d4cfef4c0b8c33858e8e8e8e604051600160a060020a0380881660208301528616604082015260a0810183905260c0810182905260e080825281906060820190608083019083018b818151815260200191508051906020019080838360005b838110156119e85780820151838201526020016119d0565b50505050905090810190601f168015611a155780820380516001836020036101000a031916815260200191505b50848103835288818151815260200191508051906020019080838360005b83811015611a4b578082015183820152602001611a33565b50505050905090810190601f168015611a785780820380516001836020036101000a031916815260200191505b50848103825287818151815260200191508051906020019080838360005b83811015611aae578082015183820152602001611a96565b50505050905090810190601f168015611adb5780820380516001836020036101000a031916815260200191505b509a505050505050505050505060405180910390a1611afa838d6125e4565b84600160a060020a03166323b872dd33858c6000604051602001526040517c010000000000000000000000000000000000000000000000000000000063ffffffff8616028152600160a060020a0393841660048201529190921660248201526044810191909152606401602060405180830381600087803b1515611b7d57600080fd5b6102c65a03f11515611b8e57600080fd5b5050506040518051925050811515611ba557600080fd5b6009805460018101611bb78382612b00565b506000918252602080832091909101805473ffffffffffffffffffffffffffffffffffffffff1916600160a060020a03871690811790915582526011905260409020805460ff1916600117905550909a9950505050505050505050565b60005433600160a060020a03908116911614611c2f57600080fd5b60008110158015611c485750670de0b6b3a76400008111155b1515611c5057fe5b60408051908101604052600181526020810182905260168151815460ff191690151517815560208201516001909101555050565b600d805482908110611c9257fe5b90600052602060002090016000915090508054600181600116156101000203166002900480601f016020809104026020016040519081016040528092919081815260200182805460018160011615610100020316600290048015611d375780601f10611d0c57610100808354040283529160200191611d37565b820191906000526020600020905b815481529060010190602001808311611d1a57829003601f168201915b505050505081565b6009805482908110611d4d57fe5b600091825260209091200154600160a060020a0316905081565b600160a060020a03808216600090815260016020526040812054909182911681901115611db057600160a060020a03808416600090815260016020526040902054169150611e1d565b82611db9612b29565b600160a060020a039091168152602001604051809103906000f0801515611ddf57600080fd5b600160a060020a038481166000908152600160205260409020805473ffffffffffffffffffffffffffffffffffffffff191691831691909117905591505b81600160a060020a03166372de26dd856000604051602001526040517c010000000000000000000000000000000000000000000000000000000063ffffffff84160281526004810191909152602401602060405180830381600087803b1515611e8557600080fd5b6102c65a03f11515611e9657600080fd5b5050506040518051600160a060020a038516600090815260026020526040908190208290559092507f1c16af450a72e7153ed6faee28677e32f11936f8ab2e63322d032d1f753b5aea91508290859051918252600160a060020a031660208201526040908101905180910390a150505050565b6000600c600084846040518083838082843782019150509250505060405190819003902081526020810191909152604001600020546fffffffffffffffffffffffffffffffff169392505050565b611f5f612aee565b6014600033600160a060020a0316600160a060020a03168152602001908152602001600020805480602002602001604051908101604052809291908181526020018280548015610a2a57602002820191906000526020600020908154600160a060020a03168152600190910190602001808311610a0c575050505050905090565b600160a060020a038116600090815260116020526040812054819060ff16151561200957600080fd5b82905033600160a060020a031681600160a060020a031663893d20e86000604051602001526040518163ffffffff167c0100000000000000000000000000000000000000000000000000000000028152600401602060405180830381600087803b151561207557600080fd5b6102c65a03f1151561208657600080fd5b50505060405180519050600160a060020a031614915050919050565b600160a060020a03331660009081526002602090815260408083205480845260039092529091205480156120d557600080fd5b600160a060020a03301663d4a0182084336040517c010000000000000000000000000000000000000000000000000000000063ffffffff85160281526004810192909252600160a060020a03166024820152604401600060405180830381600087803b151561214357600080fd5b6102c65a03f1151561215457600080fd5b505050505050565b60005433600160a060020a0390811691161461217757600080fd5b600160a060020a038116151561218c57600080fd5b6000805473ffffffffffffffffffffffffffffffffffffffff1916600160a060020a0392909216919091179055565b600754600160a060020a031690565b600a5481565b6000806000336121df81610bbb565b15156121ea57600080fd5b600160a060020a03851660009081526011602052604090205460ff16151561221157600080fd5b84925082600160a060020a03166328d576d7336000604051602001526040517c010000000000000000000000000000000000000000000000000000000063ffffffff8416028152600160a060020a039091166004820152602401602060405180830381600087803b151561228457600080fd5b6102c65a03f1151561229557600080fd5b505050604051805192505081156122f7576122b03386612a61565b7f5891a745b8d042d48bd1e4aed889e63bdc3e44242bb75694ea97573460e03a8b3386604051600160a060020a039283168152911660208201526040908101905180910390a15b509392505050565b600160a060020a033381166000908152600f6020526040812054909182918291161561232a57600080fd5b600554600160a060020a03169150816348bf9577336000604051602001526040517c010000000000000000000000000000000000000000000000000000000063ffffffff8416028152600160a060020a039091166004820152602401602060405180830381600087803b151561239f57600080fd5b6102c65a03f115156123b057600080fd5b5050506040518051600160a060020a039081166000818152600e60209081526040808320805460ff1916600117905533909416808352600f909152838220805473ffffffffffffffffffffffffffffffffffffffff19908116851790915592825292902080549091169091179055509192915050565b600160a060020a0333166000908152601260205260408120548190819060ff16151561245157600080fd5b61245a84610d6d565b151561246557600080fd5b83915081600160a060020a031663a5faa1256000604051602001526040518163ffffffff167c0100000000000000000000000000000000000000000000000000000000028152600401602060405180830381600087803b15156124c757600080fd5b6102c65a03f115156124d857600080fd5b5050506040518051915050600160a060020a03811663a1cc4ac133866040517c010000000000000000000000000000000000000000000000000000000063ffffffff8516028152600160a060020a03928316600482015291166024820152604401600060405180830381600087803b151561255257600080fd5b6102c65a03f1151561256357600080fd5b50505081600160a060020a031663444e31ca6040518163ffffffff167c0100000000000000000000000000000000000000000000000000000000028152600401600060405180830381600087803b15156116ed57600080fd5b600160a060020a03166000908152600260209081526040808320548352600390915290205490565b6000806000806000856040518082805190602001908083835b6020831061263a57805182527fffffffffffffffffffffffffffffffffffffffffffffffffffffffffffffffe090920191602091820191016125fd565b6001836020036101000a03801982511681845116179092525050509190910192506040915050519081900390206000818152600c60205260409020549095506fffffffffffffffffffffffffffffffff1615156128cb57600d8054600181016126a38382612b39565b60009283526020909220018780516126bf929160200190612b5d565b5050600a54151561279557600a85905560806040519081016040908152600182526000602083018190528183018190526060830191518059106126ff5750595b908082528060200260200182016040525090526000868152600c60205260409020815181547fffffffffffffffffffffffffffffffff00000000000000000000000000000000166fffffffffffffffffffffffffffffffff91909116178155602082015160018201556040820151600282015560608201518160030190805161278c929160200190612bd7565b5090505061286e565b6080604051908101604090815260018252600b54602083015260008183018190526060830191518059106127c65750595b908082528060200260200182016040525090526000868152600c60205260409020815181547fffffffffffffffffffffffffffffffff00000000000000000000000000000000166fffffffffffffffffffffffffffffffff919091161781556020820151600182015560408201516002820155606082015181600301908051612853929160200190612bd7565b5050600b546000908152600c60205260409020600201869055505b6000858152600c6020526040902060030180546001810161288f8382612b00565b506000918252602090912001805473ffffffffffffffffffffffffffffffffffffffff1916600160a060020a038916179055600b859055612a58565b6000858152600c602052604090206003018054600181016128ec8382612b00565b506000918252602080832091909101805473ffffffffffffffffffffffffffffffffffffffff1916600160a060020a038b16179055868252600c9052604090205461294a906fffffffffffffffffffffffffffffffff166001612ac3565b6000868152600c602052604080822080547fffffffffffffffffffffffffffffffff00000000000000000000000000000000166fffffffffffffffffffffffffffffffff948516178082556001909101548352908220549188905290821691161115612a5857600a546000868152600c602052604090206001015414156129d157600a8590555b600b548514156129f1576000858152600c6020526040902060010154600b555b5050506000828152600c6020526040808220600180820180548552838520600280820180548089528789208601548388018054909355848701805496879055958a52888a209093018190558154895296909720909301839055908490559381905592935091905b50505050505050565b600160a060020a0382166000908152601360205260409020805460018101612a898382612b00565b506000918252602090912001805473ffffffffffffffffffffffffffffffffffffffff1916600160a060020a039290921691909117905550565b60008282016fffffffffffffffffffffffffffffffff8085169082161015612ae757fe5b9392505050565b60206040519081016040526000815290565b815481835581811511612b2457600083815260209020612b24918101908301612c47565b505050565b60405161017a80612cfa83390190565b815481835581811511612b2457600083815260209020612b24918101908301612c61565b828054600181600116156101000203166002900490600052602060002090601f016020900481019282601f10612b9e57805160ff1916838001178555612bcb565b82800160010185558215612bcb579182015b82811115612bcb578251825591602001919060010190612bb0565b506109a5929150612c47565b828054828255906000526020600020908101928215612c3b579160200282015b82811115612c3b578251825473ffffffffffffffffffffffffffffffffffffffff1916600160a060020a039190911617825560209290920191600190910190612bf7565b506109a5929150612c84565b61099091905b808211156109a55760008155600101612c4d565b61099091905b808211156109a5576000612c7b8282612cb5565b50600101612c67565b61099091905b808211156109a557805473ffffffffffffffffffffffffffffffffffffffff19168155600101612c8a565b50805460018160011615610100020316600290046000825580601f10612cdb5750610db2565b601f016020900490600052602060002090810190610db29190612c4756006060604052341561000f57600080fd5b60405160208061017a8339810160405280805160008054600160a060020a03338116600160a060020a03199283161790925560018054929093169116179055505061011b8061005f6000396000f300606060405260043610603e5763ffffffff7c010000000000000000000000000000000000000000000000000000000060003504166372de26dd81146043575b600080fd5b3415604d57600080fd5b60566004356068565b60405190815260200160405180910390f35b600080543373ffffffffffffffffffffffffffffffffffffffff908116911614609057600080fd5b43428333604051938452602084019290925260408084019190915273ffffffffffffffffffffffffffffffffffffffff9091166c01000000000000000000000000026060830152607490910190519081900390206002819055929150505600a165627a7a723058202a6a9473188a310f04e6ff29104d5c7ecfd069e0d25d076e2ee50e2d03fc91a40029a165627a7a72305820d37b0ee29f853bb3d237075e3e4382382de5e4468b70f60f50e1553f136f9ce40029",
  "source": "pragma solidity ^0.4.18;\n\nimport '../libraries/math/SafeMath.sol';\nimport '../libraries/math/SafeMath128.sol';\nimport './MatryxOracleMessenger.sol';\nimport '../interfaces/IMatryxToken.sol';\nimport '../interfaces/IMatryxPeer.sol';\nimport '../interfaces/IMatryxPlatform.sol';\nimport '../interfaces/factories/IMatryxPeerFactory.sol';\nimport '../interfaces/factories/IMatryxTournamentFactory.sol';\nimport '../interfaces/IMatryxTournament.sol';\nimport '../interfaces/IMatryxRound.sol';\nimport '../interfaces/IMatryxSubmission.sol';\nimport './Ownable.sol';\n\n/// @title MatryxPlatform - The Matryx platform contract.\n/// @author Max Howard - <max@nanome.ai>, Sam Hessenauer - <sam@nanome.ai>\ncontract MatryxPlatform is MatryxOracleMessenger, IMatryxPlatform {\n  using SafeMath for uint256;\n  using SafeMath128 for uint128;\n\n  // TODO: condense and put in structs\n  address public matryxTokenAddress;\n  address matryxPeerFactoryAddress;\n  address matryxTournamentFactoryAddress;\n  address matryxSubmissionTrustLibAddress;\n  address matryxRoundLibAddress;\n\n  address[] public allTournaments;\n  bytes32 public firstCategoryHash;\n  bytes32 public lastCategoryHash;\n  mapping(bytes32=>category) public categoryIterator;\n  string[] public categoryList;\n\n  mapping(address=>bool) peerExists;\n  mapping(address=>address) ownerToPeerAndPeerToOwner;\n  mapping(address=>mapping(address=>bool)) addressToOwnsSubmission;\n  mapping(address=>bool) tournamentExists;\n  mapping(address=>bool) submissionExists;\n\n  mapping(address=>address[]) entrantToTournamentArray;\n  mapping(address=>address[]) ownerToSubmissionArray;\n  mapping(address=>mapping(address=>uint256_optional))  ownerToSubmissionToSubmissionIndex;\n\n  uint256_optional submissionGratitude = uint256_optional({exists: true, value: 2*10**17});\n\n  function MatryxPlatform(address _matryxTokenAddress, address _matryxPeerFactoryAddress, address _matryxTournamentFactoryAddress, address _matryxSubmissionTrustLibAddress) public\n  {\n    matryxTokenAddress = _matryxTokenAddress;\n    matryxPeerFactoryAddress = _matryxPeerFactoryAddress;\n    matryxTournamentFactoryAddress = _matryxTournamentFactoryAddress;\n    matryxSubmissionTrustLibAddress = _matryxSubmissionTrustLibAddress;\n  }\n\n  /*\n   * Structs\n   */\n\n  struct uint256_optional\n  {\n    bool exists;\n    uint256 value;\n  }\n\n  struct category\n  {\n    uint128 count;\n    bytes32 prev;\n    bytes32 next;\n    address[] tournaments;\n  }\n\n  /*\n   * Events\n   */\n\n  event TournamentCreated(string _discipline, address _owner, address _tournamentAddress, string _tournamentName, bytes _externalAddress, uint256 _MTXReward, uint256 _entryFee);\n  event TournamentOpened(address _owner, address _tournamentAddress, string _tournamentName, bytes _externalAddress, uint256 _MTXReward, uint256 _entryFee);\n  event TournamentClosed(address _tournamentAddress, uint256 _finalRoundNumber, address _winningSubmissionAddress, uint256 _MTXReward);\n  event UserEnteredTournament(address _entrant, address _tournamentAddress);\n  event QueryID(string queryID);\n  /// @dev Allows tournaments to invoke tournamentOpened events on the platform.\n  /// @param _owner Owner of the tournament.\n  /// @param _tournamentAddress Address of the tournament.\n  /// @param _tournamentName Name of the tournament.\n  /// @param _externalAddress External address of the tournament.\n  /// @param _MTXReward Reward for winning the tournament.\n  /// @param _entryFee Fee for entering into the tournament.\n  function invokeTournamentOpenedEvent(address _owner, address _tournamentAddress, string _tournamentName, bytes _externalAddress, uint256 _MTXReward, uint256 _entryFee) public onlyTournament\n  {\n    TournamentOpened(_owner, _tournamentAddress, _tournamentName, _externalAddress, _MTXReward, _entryFee);\n  }\n\n  /// @dev Allows tournaments to invoke tournamentClosed events on the platform.\n  /// @param _tournamentAddress Address of the tournament.\n  /// @param _finalRoundNumber Index of the round containing the winning submission.\n  /// @param _winningSubmissionAddress Address of the winning submission.\n  function invokeTournamentClosedEvent(address _tournamentAddress, uint256 _finalRoundNumber, address _winningSubmissionAddress, uint256 _MTXReward) public onlyTournament\n  {\n    TournamentClosed(_tournamentAddress, _finalRoundNumber, _winningSubmissionAddress, _MTXReward);\n  }\n\n  /* \n   * Modifiers\n   */\n\n  modifier onlyTournament\n  {\n    require(tournamentExists[msg.sender]);\n    _;\n  }\n\n  modifier onlySubmission\n  {\n    require(submissionExists[msg.sender]);\n    _;\n  }\n\n  modifier onlyPeerLinked(address _sender)\n  {\n    require(hasPeer(_sender));\n    _;\n  }\n\n  /* \n   * MTX Balance Methods\n   */\n\n  /// @dev Prepares the user's MTX balance, allowing them to use the platform.\n  /// @param _toIgnore Request bytes (deprecated).\n  function prepareBalance(uint256 _toIgnore) public\n  {   \n      // Make sure that the user has not already attempted to prepare their balance\n      uint256 qID = fromQuerierToQueryID[msg.sender];\n      uint256 queryResponse = queryResponses[qID];\n      require(queryResponse == 0x0);\n\n      this.Query(bytes32(_toIgnore), msg.sender);\n  }\n\n  /// @dev Returns whether or not the user can use the platform.\n  /// @return Whether or not user has a positive balance.\n  function balanceIsNonZero() public view returns (bool)\n  {\n      uint balance = latestResponseFromOracle(msg.sender);\n      return balance != 0;\n  }\n\n  /// @dev Returns the user's balance\n  /// @return Sender's MTX balance.\n  function getBalance() public constant returns (uint256)\n  {\n      uint256 balance = latestResponseFromOracle(msg.sender);\n      return balance;\n  }\n\n  /*\n   * State Maintenance Methods\n   */\n\n  // @dev Sends out reference requests for a particular submission.\n  // @param _references Reference whose authors will be sent requests.\n  // @returns Whether or not all references were successfully sent a request.\n  function handleReferenceRequestsForSubmission(address _submissionAddress, address[] _references) public onlyTournament returns (bool) \n  {\n    for(uint256 i = 0; i < _references.length; i++)\n    {\n      address _referenceAddress = _references[i];\n\n      if(!isSubmission(_referenceAddress))\n      {\n        // TODO: Introduce uint error codes\n        // for returning things like \"Reference _ is not submission\"\n        continue;\n      }\n\n      IMatryxSubmission submission = IMatryxSubmission(_referenceAddress);\n      address author = submission.getAuthor();\n      IMatryxPeer(author).receiveReferenceRequest(_submissionAddress, _referenceAddress);\n      submission.receiveReferenceRequest();\n    }\n  }\n\n  // @dev Sends out a reference request for a submission (must be called by the submission).\n  // @param _reference Reference whose author will be sent a request.\n  // @returns Whether or not all references were successfully sent a request.\n  function handleReferenceRequestForSubmission(address _reference) public onlySubmission returns (bool)\n  {\n      require(isSubmission(_reference));\n      IMatryxSubmission submission = IMatryxSubmission(_reference);\n      address author = submission.getAuthor();\n      IMatryxPeer(author).receiveReferenceRequest(msg.sender, _reference);\n      submission.receiveReferenceRequest();\n  }\n\n  function handleCancelledReferenceRequestForSubmission(address _reference) public onlySubmission returns (bool)\n  {\n    require(isSubmission(_reference));\n    IMatryxSubmission submission = IMatryxSubmission(_reference);\n    address author = submission.getAuthor();\n    IMatryxPeer(author).receiveCancelledReferenceRequest(msg.sender, _reference);\n    submission.cancelReferenceRequest();\n  }\n\n  function updateUsersTournaments(address _owner, address _tournament) internal\n  {\n    entrantToTournamentArray[_owner].push(_tournament);\n  }\n\n  function updateSubmissions(address _owner, address _submission) public onlyTournament\n  {\n    ownerToSubmissionToSubmissionIndex[_owner][_submission] = uint256_optional({exists:true, value:ownerToSubmissionArray[_owner].length});\n    ownerToSubmissionArray[_owner].push(_submission);\n    addressToOwnsSubmission[_owner][_submission] = true;\n    submissionExists[_submission] = true;\n  }\n\n  function removeSubmission(address _submissionAddress, address _tournamentAddress) public returns (bool)\n  {\n    require(addressToOwnsSubmission[msg.sender][_submissionAddress]);\n    require(tournamentExists[_tournamentAddress]);\n    \n    if(submissionExists[_submissionAddress])\n    {\n      IMatryxSubmission submission = IMatryxSubmission(_submissionAddress);\n      address owner = Ownable(_submissionAddress).getOwner();\n      uint256 submissionIndex = ownerToSubmissionToSubmissionIndex[owner][_submissionAddress].value;\n\n      submissionExists[_submissionAddress] = false;\n      delete ownerToSubmissionArray[owner][submissionIndex];\n      delete ownerToSubmissionToSubmissionIndex[owner][_submissionAddress];\n\n      IMatryxTournament(_tournamentAddress).removeSubmission(_submissionAddress, owner);\n      return true;\n    }\n    \n    return false;\n  }\n\n  function addTournamentToCategory(address _tournamentAddress, string _category) internal\n  {\n    bytes32 hashOfCategory = keccak256(_category);\n    if(categoryIterator[hashOfCategory].count == 0)\n    {\n      categoryList.push(_category);\n\n      if(firstCategoryHash == 0x0)\n      {\n        firstCategoryHash = hashOfCategory;\n        categoryIterator[hashOfCategory] = category({count: 1, prev: 0, next: 0, tournaments: new address[](0)});\n      }\n      else\n      {\n        categoryIterator[hashOfCategory] = category({count: 1, prev: lastCategoryHash, next: 0x0, tournaments: new address[](0)});\n        categoryIterator[lastCategoryHash].next = hashOfCategory;\n      }\n\n      categoryIterator[hashOfCategory].tournaments.push(_tournamentAddress);\n      lastCategoryHash = hashOfCategory;\n\n      return;\n    }\n\n    categoryIterator[hashOfCategory].tournaments.push(_tournamentAddress);\n    categoryIterator[hashOfCategory].count = categoryIterator[hashOfCategory].count.add(1);\n\n    // if the count of the category is now greater than the previous category\n    // swap the categories\n    if(categoryIterator[hashOfCategory].count > categoryIterator[categoryIterator[hashOfCategory].prev].count)\n    {\n        if(categoryIterator[hashOfCategory].prev == firstCategoryHash)\n        {\n          firstCategoryHash = hashOfCategory;\n        }\n\n        if(hashOfCategory == lastCategoryHash)\n        {\n          lastCategoryHash = categoryIterator[hashOfCategory].prev;\n        }\n\n        category storage A = categoryIterator[categoryIterator[hashOfCategory].prev];\n        category storage B = categoryIterator[hashOfCategory];\n        bytes32 hashOfA = categoryIterator[A.next].prev;\n        bytes32 hashOfB = categoryIterator[B.prev].next;\n\n        A.next = B.next;\n        B.prev = A.prev;\n        categoryIterator[A.prev].next = hashOfB;\n        categoryIterator[B.next].prev = hashOfA;\n        A.prev = hashOfB;\n        B.next = hashOfA;\n    }\n  }\n\n  function getTournamentsByCategory(string category) external constant returns (address[])\n  {\n    return categoryIterator[keccak256(category)].tournaments;\n  }\n\n  function getCategoryCount(string category) external constant returns (uint256)\n  {\n    return categoryIterator[keccak256(category)].count;\n  }\n\n  function switchTournamentCategory(string discipline) onlyTournament public\n  {\n\n  }\n\n  /* \n   * Tournament Entry Methods\n   */\n\n  /// @dev Enter the user into a tournament and charge the entry fee.\n  /// @param _tournamentAddress Address of the tournament to enter into.\n  /// @return _success Whether or not user was successfully entered into the tournament.\n  function enterTournament(address _tournamentAddress) public onlyPeerLinked(msg.sender) returns (bool _success)\n  {\n      // TODO: Consider scheme: \n      // submission owner: peer linked account\n      // submission author: peer\n      require(tournamentExists[_tournamentAddress]);\n\n      IMatryxTournament tournament = IMatryxTournament(_tournamentAddress);\n\n      bool success = tournament.enterUserInTournament(msg.sender);\n      if(success)\n      {\n        updateUsersTournaments(msg.sender, _tournamentAddress);\n        UserEnteredTournament(msg.sender, _tournamentAddress);\n      }\n\n      return success;\n  }\n\n  /* \n   * Tournament Admin Methods\n   */\n\n  /// @dev Create a new tournament.\n  /// @param _tournamentName Name of the new tournament.\n  /// @param _externalAddress Off-chain content hash of tournament details (ipfs hash)\n  /// @param _BountyMTX Total tournament reward in MTX.\n  /// @param _entryFee Fee to charge participant upon entering into tournament.\n  /// @return _tournamentAddress Address of the newly created tournament\n  function createTournament(string _category, string _tournamentName, bytes _externalAddress, uint256 _BountyMTX, uint256 _entryFee, uint256 _reviewPeriod) public onlyPeerLinked(msg.sender) returns (address _tournamentAddress)\n  {\n    IMatryxToken matryxToken = IMatryxToken(matryxTokenAddress);\n    // Check that the platform has a sufficient allowance to\n    // transfer the reward from the tournament creator to itself\n    require(matryxToken.allowance(msg.sender, this) >= _BountyMTX);\n\n    IMatryxTournamentFactory tournamentFactory = IMatryxTournamentFactory(matryxTournamentFactoryAddress);\n    address newTournament = tournamentFactory.createTournament(msg.sender, _tournamentName, _externalAddress, _BountyMTX, _entryFee, _reviewPeriod);\n    TournamentCreated(_category, msg.sender, newTournament, _tournamentName, _externalAddress, _BountyMTX, _entryFee);\n    \n    addTournamentToCategory(newTournament, _category);\n\n    // Transfer the MTX reward to the tournament.\n    bool transferSuccess = matryxToken.transferFrom(msg.sender, newTournament, _BountyMTX);\n    require(transferSuccess);\n    \n    // update data structures\n    allTournaments.push(newTournament);\n    tournamentExists[newTournament] = true;\n\n    return newTournament;\n  }\n\n  /*\n   * Access Control Methods\n   */\n\n  function createPeer() public returns (address)\n  {\n    require(ownerToPeerAndPeerToOwner[msg.sender] == 0x0);\n    IMatryxPeerFactory peerFactory = IMatryxPeerFactory(matryxPeerFactoryAddress);\n    address peer = peerFactory.createPeer(msg.sender);\n    peerExists[peer] = true;\n    ownerToPeerAndPeerToOwner[msg.sender] = peer;\n    ownerToPeerAndPeerToOwner[peer] = msg.sender;\n  }\n\n  function isPeer(address _peerAddress) public constant returns (bool)\n  {\n    return peerExists[_peerAddress];\n  }\n\n  // TODO: add constant\n  function hasPeer(address _sender) public constant returns (bool)\n  {\n    return (ownerToPeerAndPeerToOwner[_sender] != 0x0);\n  }\n\n  // TODO: add constant\n  function peerExistsAndOwnsSubmission(address _peer, address _reference) public constant returns (bool)\n  {\n    bool isAPeer = peerExists[_peer];\n    bool referenceIsSubmission = submissionExists[_reference];\n    bool peerOwnsSubmission = addressToOwnsSubmission[ownerToPeerAndPeerToOwner[_peer]][_reference];\n\n    return isAPeer && referenceIsSubmission && peerOwnsSubmission;\n  }\n\n  function peerAddress(address _sender) public constant returns (address)\n  {\n    return ownerToPeerAndPeerToOwner[_sender];\n  }\n\n  function isSubmission(address _submissionAddress) public constant returns (bool)\n  {\n    return submissionExists[_submissionAddress];\n  }\n\n  /// @dev Returns whether or not the given tournament belongs to the sender.\n  /// @param _tournamentAddress Address of the tournament to check.\n  /// @return _isMine Whether or not the tournament belongs to the sender.\n  function getTournament_IsMine(address _tournamentAddress) public constant returns (bool _isMine)\n  {\n    require(tournamentExists[_tournamentAddress]);\n    Ownable tournament = Ownable(_tournamentAddress);\n    return (tournament.getOwner() == msg.sender);\n  }\n\n  /*\n   * Setter Methods\n   */ \n\n    /// @dev              Set the relative amount of MTX to be delivered to a submission's\n    ///                   references\n    /// @param _gratitude Weight from 0 to 1 (18 decimal uint) specifying enforced submission \n    ///                   gratitude\n    function setSubmissionGratitude(uint256 _gratitude) public onlyOwner\n    {\n        assert(_gratitude >= 0 && _gratitude <= (1*10**18));\n        submissionGratitude = uint256_optional({exists: true, value: _gratitude});\n    }\n\n  /*\n   * Getter Methods\n   */\n\n   function getTokenAddress() public constant returns (address)\n   {\n      return matryxTokenAddress;\n   }\n\n   function getSubmissionTrustLibrary() public constant returns (address)\n   {\n      return matryxSubmissionTrustLibAddress;\n   }\n\n   function getRoundLibAddress() public constant returns (address)\n   {\n      return matryxRoundLibAddress;\n   }\n\n   /// @dev    Returns a weight from 0 to 1 (18 decimal uint) indicating\n   ///         how much of a submission's reward goes to its references.\n   /// @return Relative amount of MTX going to references of submissions under this tournament.\n   function getSubmissionGratitude() public constant returns (uint256)\n   {\n      require(submissionGratitude.exists);\n      return submissionGratitude.value;\n   }\n\n   /// @dev Returns addresses for submissions the sender has created.\n   /// @return Address array representing submissions.\n   function myTournaments() public constant returns (address[])\n   {\n      return entrantToTournamentArray[msg.sender];\n   }\n\n   function mySubmissions() public constant returns (address[])\n   {\n    return ownerToSubmissionArray[msg.sender];\n   }\n\n   /// @dev Returns the total number of tournaments\n   /// @return _tournamentCount Total number of tournaments.\n   function tournamentCount() public constant returns (uint256 _tournamentCount)\n   {\n       return allTournaments.length;\n   }\n \n   function getTournamentAtIndex(uint256 _index) public constant returns (address _tournamentAddress)\n   {\n     require(_index >= 0);\n     require(_index < allTournaments.length);\n     return allTournaments[_index];\n   }\n}",
  "sourcePath": "/Users/maxhoward/Desktop/Ethereum/Development/Matryx AWS/Projects/matryx-alpha-source/contracts/MatryxPlatform.sol",
  "compiler": {
    "name": "solc",
    "version": "0.4.19+commit.c4cbbb05.Emscripten.clang"
  },
  "schemaVersion": "2.0.0",
  "updatedAt": "2018-03-29T02:57:30.681Z"
}