{
  "contractName": "MatryxTournament",
  "abi": [
    {
      "constant": true,
      "inputs": [
        {
          "name": "_sender",
          "type": "address"
        }
      ],
      "name": "isOwner",
      "outputs": [
        {
          "name": "_isOwner",
          "type": "bool"
        }
      ],
      "payable": false,
      "stateMutability": "view",
      "type": "function"
    },
    {
      "constant": true,
      "inputs": [],
      "name": "matryxRoundFactoryAddress",
      "outputs": [
        {
          "name": "",
          "type": "address"
        }
      ],
      "payable": false,
      "stateMutability": "view",
      "type": "function"
    },
    {
      "constant": true,
      "inputs": [],
      "name": "getOwner",
      "outputs": [
        {
          "name": "_owner",
          "type": "address"
        }
      ],
      "payable": false,
      "stateMutability": "view",
      "type": "function"
    },
    {
      "constant": true,
      "inputs": [],
      "name": "owner",
      "outputs": [
        {
          "name": "",
          "type": "address"
        }
      ],
      "payable": false,
      "stateMutability": "view",
      "type": "function"
    },
    {
      "constant": true,
      "inputs": [],
      "name": "platformAddress",
      "outputs": [
        {
          "name": "",
          "type": "address"
        }
      ],
      "payable": false,
      "stateMutability": "view",
      "type": "function"
    },
    {
      "constant": false,
      "inputs": [
        {
          "name": "newOwner",
          "type": "address"
        }
      ],
      "name": "transferOwnership",
      "outputs": [],
      "payable": false,
      "stateMutability": "nonpayable",
      "type": "function"
    },
    {
      "inputs": [
        {
          "name": "_owner",
          "type": "address"
        },
        {
          "name": "_platformAddress",
          "type": "address"
        },
        {
          "name": "_matryxRoundFactoryAddress",
          "type": "address"
        },
        {
          "components": [
            {
              "name": "category",
              "type": "bytes32"
            },
            {
              "name": "title",
              "type": "bytes32[3]"
            },
            {
              "name": "descriptionHash",
              "type": "bytes32[2]"
            },
            {
              "name": "fileHash",
              "type": "bytes32[2]"
            },
            {
              "name": "initialBounty",
              "type": "uint256"
            },
            {
              "name": "entryFee",
              "type": "uint256"
            }
          ],
          "name": "tournamentData",
          "type": "tuple"
        },
        {
          "components": [
            {
              "name": "start",
              "type": "uint256"
            },
            {
              "name": "end",
              "type": "uint256"
            },
            {
              "name": "reviewPeriodDuration",
              "type": "uint256"
            },
            {
              "name": "bounty",
              "type": "uint256"
            },
            {
              "name": "closed",
              "type": "bool"
            }
          ],
          "name": "roundData",
          "type": "tuple"
        }
      ],
      "payable": false,
      "stateMutability": "nonpayable",
      "type": "constructor"
    },
    {
      "anonymous": false,
      "inputs": [
        {
          "indexed": false,
          "name": "_startTime",
          "type": "uint256"
        },
        {
          "indexed": false,
          "name": "_endTime",
          "type": "uint256"
        },
        {
          "indexed": false,
          "name": "_reviewPeriodDuration",
          "type": "uint256"
        },
        {
          "indexed": false,
          "name": "_roundAddress",
          "type": "address"
        },
        {
          "indexed": false,
          "name": "_roundNumber",
          "type": "uint256"
        }
      ],
      "name": "NewRound",
      "type": "event"
    },
    {
      "anonymous": false,
      "inputs": [
        {
          "indexed": false,
          "name": "_roundIndex",
          "type": "uint256"
        },
        {
          "indexed": false,
          "name": "_submissionAddress",
          "type": "address"
        }
      ],
      "name": "SubmissionCreated",
      "type": "event"
    },
    {
      "anonymous": false,
      "inputs": [
        {
          "indexed": false,
          "name": "_submissionAddresses",
          "type": "address[]"
        }
      ],
      "name": "RoundWinnersChosen",
      "type": "event"
    },
    {
      "constant": false,
      "inputs": [
        {
          "name": "_submissionAddress",
          "type": "address"
        }
      ],
      "name": "invokeSubmissionCreatedEvent",
      "outputs": [],
      "payable": false,
      "stateMutability": "nonpayable",
      "type": "function"
    },
    {
      "constant": false,
      "inputs": [
        {
          "name": "_submissionAddress",
          "type": "address"
        },
        {
          "name": "_author",
          "type": "address"
        }
      ],
      "name": "removeSubmission",
      "outputs": [
        {
          "name": "",
          "type": "bool"
        }
      ],
      "payable": false,
      "stateMutability": "nonpayable",
      "type": "function"
    },
    {
      "constant": true,
      "inputs": [
        {
          "name": "_sender",
          "type": "address"
        }
      ],
      "name": "isEntrant",
      "outputs": [
        {
          "name": "",
          "type": "bool"
        }
      ],
      "payable": false,
      "stateMutability": "view",
      "type": "function"
    },
    {
      "constant": true,
      "inputs": [],
      "name": "getState",
      "outputs": [
        {
          "name": "",
          "type": "uint256"
        }
      ],
      "payable": false,
      "stateMutability": "view",
      "type": "function"
    },
    {
      "constant": true,
      "inputs": [],
      "name": "getPlatform",
      "outputs": [
        {
          "name": "_platformAddress",
          "type": "address"
        }
      ],
      "payable": false,
      "stateMutability": "view",
      "type": "function"
    },
    {
      "constant": true,
      "inputs": [],
      "name": "getTokenAddress",
      "outputs": [
        {
          "name": "_matryxTokenAddress",
          "type": "address"
        }
      ],
      "payable": false,
      "stateMutability": "view",
      "type": "function"
    },
    {
      "constant": true,
      "inputs": [],
      "name": "getData",
      "outputs": [
        {
          "components": [
            {
              "name": "category",
              "type": "bytes32"
            },
            {
              "name": "title",
              "type": "bytes32[3]"
            },
            {
              "name": "descriptionHash",
              "type": "bytes32[2]"
            },
            {
              "name": "fileHash",
              "type": "bytes32[2]"
            },
            {
              "name": "initialBounty",
              "type": "uint256"
            },
            {
              "name": "entryFee",
              "type": "uint256"
            }
          ],
          "name": "_data",
          "type": "tuple"
        }
      ],
      "payable": false,
      "stateMutability": "view",
      "type": "function"
    },
    {
      "constant": true,
      "inputs": [
        {
          "name": "_roundAddress",
          "type": "address"
        }
      ],
      "name": "isRound",
      "outputs": [
        {
          "name": "_isRound",
          "type": "bool"
        }
      ],
      "payable": false,
      "stateMutability": "view",
      "type": "function"
    },
    {
      "constant": true,
      "inputs": [],
      "name": "getRounds",
      "outputs": [
        {
          "name": "_rounds",
          "type": "address[]"
        }
      ],
      "payable": false,
      "stateMutability": "view",
      "type": "function"
    },
    {
      "constant": true,
      "inputs": [],
      "name": "getCategory",
      "outputs": [
        {
          "name": "_category",
          "type": "bytes32"
        }
      ],
      "payable": false,
      "stateMutability": "view",
      "type": "function"
    },
    {
      "constant": true,
      "inputs": [],
      "name": "getTitle",
      "outputs": [
        {
          "name": "_title",
          "type": "bytes32[3]"
        }
      ],
      "payable": false,
      "stateMutability": "view",
      "type": "function"
    },
    {
      "constant": true,
      "inputs": [],
      "name": "getDescriptionHash",
      "outputs": [
        {
          "name": "_descriptionHash",
          "type": "bytes32[2]"
        }
      ],
      "payable": false,
      "stateMutability": "view",
      "type": "function"
    },
    {
      "constant": true,
      "inputs": [],
      "name": "getFileHash",
      "outputs": [
        {
          "name": "_fileHash",
          "type": "bytes32[2]"
        }
      ],
      "payable": false,
      "stateMutability": "view",
      "type": "function"
    },
    {
      "constant": true,
      "inputs": [],
      "name": "currentRound",
      "outputs": [
        {
          "name": "_currentRound",
          "type": "uint256"
        },
        {
          "name": "_currentRoundAddress",
          "type": "address"
        }
      ],
      "payable": false,
      "stateMutability": "view",
      "type": "function"
    },
    {
      "constant": true,
      "inputs": [],
      "name": "getBounty",
      "outputs": [
        {
          "name": "_tournamentBounty",
          "type": "uint256"
        }
      ],
      "payable": false,
      "stateMutability": "view",
      "type": "function"
    },
    {
      "constant": true,
      "inputs": [],
      "name": "getBalance",
      "outputs": [
        {
          "name": "_tournamentBalance",
          "type": "uint256"
        }
      ],
      "payable": false,
      "stateMutability": "view",
      "type": "function"
    },
    {
      "constant": true,
      "inputs": [],
      "name": "getEntryFee",
      "outputs": [
        {
          "name": "",
          "type": "uint256"
        }
      ],
      "payable": false,
      "stateMutability": "view",
      "type": "function"
    },
    {
      "constant": true,
      "inputs": [],
      "name": "mySubmissions",
      "outputs": [
        {
          "name": "",
          "type": "address[]"
        }
      ],
      "payable": false,
      "stateMutability": "view",
      "type": "function"
    },
    {
      "constant": true,
      "inputs": [],
      "name": "submissionCount",
      "outputs": [
        {
          "name": "_submissionCount",
          "type": "uint256"
        }
      ],
      "payable": false,
      "stateMutability": "view",
      "type": "function"
    },
    {
      "constant": true,
      "inputs": [],
      "name": "entrantCount",
      "outputs": [
        {
          "name": "_entrantCount",
          "type": "uint256"
        }
      ],
      "payable": false,
      "stateMutability": "view",
      "type": "function"
    },
    {
      "constant": false,
      "inputs": [
        {
          "components": [
            {
              "name": "category",
              "type": "bytes32"
            },
            {
              "name": "title",
              "type": "bytes32[3]"
            },
            {
              "name": "descriptionHash",
              "type": "bytes32[2]"
            },
            {
              "name": "fileHash",
              "type": "bytes32[2]"
            },
            {
              "name": "entryFee",
              "type": "uint256"
            },
            {
              "name": "entryFeeChanged",
              "type": "bool"
            }
          ],
          "name": "tournamentData",
          "type": "tuple"
        }
      ],
      "name": "update",
      "outputs": [],
      "payable": false,
      "stateMutability": "nonpayable",
      "type": "function"
    },
    {
      "constant": false,
      "inputs": [
        {
          "name": "_fundsToAdd",
          "type": "uint256"
        }
      ],
      "name": "addFunds",
      "outputs": [],
      "payable": false,
      "stateMutability": "nonpayable",
      "type": "function"
    },
    {
      "constant": false,
      "inputs": [
        {
          "components": [
            {
              "name": "winningSubmissions",
              "type": "address[]"
            },
            {
              "name": "rewardDistribution",
              "type": "uint256[]"
            },
            {
              "name": "selectWinnerAction",
              "type": "uint256"
            },
            {
              "name": "rewardDistributionTotal",
              "type": "uint256"
            }
          ],
          "name": "_selectWinnersData",
          "type": "tuple"
        },
        {
          "components": [
            {
              "name": "start",
              "type": "uint256"
            },
            {
              "name": "end",
              "type": "uint256"
            },
            {
              "name": "reviewPeriodDuration",
              "type": "uint256"
            },
            {
              "name": "bounty",
              "type": "uint256"
            },
            {
              "name": "closed",
              "type": "bool"
            }
          ],
          "name": "_roundData",
          "type": "tuple"
        }
      ],
      "name": "selectWinners",
      "outputs": [],
      "payable": false,
      "stateMutability": "nonpayable",
      "type": "function"
    },
    {
      "constant": false,
      "inputs": [
        {
          "components": [
            {
              "name": "start",
              "type": "uint256"
            },
            {
              "name": "end",
              "type": "uint256"
            },
            {
              "name": "reviewPeriodDuration",
              "type": "uint256"
            },
            {
              "name": "bounty",
              "type": "uint256"
            },
            {
              "name": "closed",
              "type": "bool"
            }
          ],
          "name": "_roundData",
          "type": "tuple"
        }
      ],
      "name": "editGhostRound",
      "outputs": [],
      "payable": false,
      "stateMutability": "nonpayable",
      "type": "function"
    },
    {
      "constant": false,
      "inputs": [
        {
          "name": "_mtxAllocation",
          "type": "uint256"
        }
      ],
      "name": "allocateMoreToRound",
      "outputs": [],
      "payable": false,
      "stateMutability": "nonpayable",
      "type": "function"
    },
    {
      "constant": false,
      "inputs": [],
      "name": "jumpToNextRound",
      "outputs": [],
      "payable": false,
      "stateMutability": "nonpayable",
      "type": "function"
    },
    {
      "constant": false,
      "inputs": [],
      "name": "stopTournament",
      "outputs": [],
      "payable": false,
      "stateMutability": "nonpayable",
      "type": "function"
    },
    {
      "constant": false,
      "inputs": [
        {
          "components": [
            {
              "name": "start",
              "type": "uint256"
            },
            {
              "name": "end",
              "type": "uint256"
            },
            {
              "name": "reviewPeriodDuration",
              "type": "uint256"
            },
            {
              "name": "bounty",
              "type": "uint256"
            },
            {
              "name": "closed",
              "type": "bool"
            }
          ],
          "name": "roundData",
          "type": "tuple"
        },
        {
          "name": "_automaticCreation",
          "type": "bool"
        }
      ],
      "name": "createRound",
      "outputs": [
        {
          "name": "_roundAddress",
          "type": "address"
        }
      ],
      "payable": false,
      "stateMutability": "nonpayable",
      "type": "function"
    },
    {
      "constant": false,
      "inputs": [
        {
          "name": "_roundIndex",
          "type": "uint256"
        },
        {
          "name": "_bountyMTX",
          "type": "uint256"
        }
      ],
      "name": "sendBountyToRound",
      "outputs": [],
      "payable": false,
      "stateMutability": "nonpayable",
      "type": "function"
    },
    {
      "constant": false,
      "inputs": [
        {
          "name": "_entrantAddress",
          "type": "address"
        }
      ],
      "name": "enterUserInTournament",
      "outputs": [
        {
          "name": "_success",
          "type": "bool"
        }
      ],
      "payable": false,
      "stateMutability": "nonpayable",
      "type": "function"
    },
    {
      "constant": false,
      "inputs": [],
      "name": "collectMyEntryFee",
      "outputs": [],
      "payable": false,
      "stateMutability": "nonpayable",
      "type": "function"
    },
    {
      "constant": false,
      "inputs": [
        {
          "components": [
            {
              "name": "title",
              "type": "bytes32[3]"
            },
            {
              "name": "descriptionHash",
              "type": "bytes32[2]"
            },
            {
              "name": "fileHash",
              "type": "bytes32[2]"
            },
            {
              "name": "timeSubmitted",
              "type": "uint256"
            },
            {
              "name": "timeUpdated",
              "type": "uint256"
            }
          ],
          "name": "submissionData",
          "type": "tuple"
        },
        {
          "components": [
            {
              "name": "contributors",
              "type": "address[]"
            },
            {
              "name": "contributorRewardDistribution",
              "type": "uint128[]"
            },
            {
              "name": "references",
              "type": "address[]"
            }
          ],
          "name": "contribsAndRefs",
          "type": "tuple"
        }
      ],
      "name": "createSubmission",
      "outputs": [
        {
          "name": "_submissionAddress",
          "type": "address"
        }
      ],
      "payable": false,
      "stateMutability": "nonpayable",
      "type": "function"
    },
    {
      "constant": false,
      "inputs": [],
      "name": "withdrawFromAbandoned",
      "outputs": [],
      "payable": false,
      "stateMutability": "nonpayable",
      "type": "function"
    }
  ],
  "bytecode": "0x60806040523480156200001157600080fd5b506040516102408062003b988339810180604052620000349190810190620005d7565b60008054600160a060020a03191633179055600160a060020a03851615156200005c57600080fd5b60208201515115156200006e57600080fd5b60808201516000106200008057600080fd5b600160a060020a03831615156200009657600080fd5b60018054600160a060020a03808716600160a060020a031992831617909255600280548684169083161790556000805492881692909116919091179055815160039081556020830151839190620000f19060049083620002d1565b50604082015162000109906004830190600262000316565b50606082015162000121906006830190600262000316565b506080820151600882015560a0909101516009909101556200014e8160006401000000006200015a810204565b505050505050620007af565b600080600160009054906101000a9004600160a060020a0316600160a060020a03166310fe9ae86040518163ffffffff167c0100000000000000000000000000000000000000000000000000000000028152600401602060405180830381600087803b158015620001ca57600080fd5b505af1158015620001df573d6000803e3d6000fd5b505050506040513d601f19601f82011682018060405250620002059190810190620005b6565b6001546002546040517fcfa037dc00000000000000000000000000000000000000000000000000000000815292935073__LibTournamentAdminMethods_____________9263cfa037dc926200027592600d92600160a060020a0392831692889216908b908b90600401620006f1565b60206040518083038186803b1580156200028e57600080fd5b505af4158015620002a3573d6000803e3d6000fd5b505050506040513d601f19601f82011682018060405250620002c99190810190620005b6565b949350505050565b826003810192821562000304579160200282015b82811115620003045782518255602090920191600190910190620002e5565b506200031292915062000348565b5090565b8260028101928215620003045791602002820182811115620003045782518255602090920191600190910190620002e5565b6200036591905b808211156200031257600081556001016200034f565b90565b60006200037682516200079e565b9392505050565b6000601f820183136200038f57600080fd5b6002620003a6620003a08262000780565b62000759565b91508183856020840282011115620003bd57600080fd5b60005b83811015620003ed5781620003d688826200046f565b8452506020928301929190910190600101620003c0565b5050505092915050565b6000601f820183136200040957600080fd5b60036200041a620003a08262000780565b915081838560208402820111156200043157600080fd5b60005b83811015620003ed57816200044a88826200046f565b845250602092830192919091019060010162000434565b6000620003768251620007aa565b600062000376825162000365565b600060a082840312156200049057600080fd5b6200049c60a062000759565b90506000620004ac84846200046f565b8252506020620004bf848483016200046f565b6020830152506040620004d5848285016200046f565b6040830152506060620004eb848285016200046f565b6060830152506080620005018482850162000461565b60808301525092915050565b600061014082840312156200052157600080fd5b6200052d60c062000759565b905060006200053d84846200046f565b82525060206200055084848301620003f7565b602083015250608062000566848285016200037d565b60408301525060c06200057c848285016200037d565b60608301525061010062000593848285016200046f565b608083015250610120620005aa848285016200046f565b60a08301525092915050565b600060208284031215620005c957600080fd5b6000620002c9848462000368565b60008060008060006102408688031215620005f157600080fd5b6000620005ff888862000368565b9550506020620006128882890162000368565b9450506040620006258882890162000368565b935050606062000638888289016200050d565b9250506101a06200064c888289016200047d565b9150509295509295909350565b62000664816200079e565b82525050565b6200066481620007aa565b805160a0830190620006888482620006e6565b5060208201516200069d6020850182620006e6565b506040820151620006b26040850182620006e6565b506060820151620006c76060850182620006e6565b506080820151620006dc60808501826200066a565b50505050565b9052565b620006648162000365565b6101408101620007028289620006e2565b62000711602083018862000659565b62000720604083018762000659565b6200072f606083018662000659565b6200073e608083018562000675565b6200074e6101208301846200066a565b979650505050505050565b6040518181016001604060020a03811182821017156200077857600080fd5b604052919050565b60006001604060020a038211156200079757600080fd5b5060200290565b600160a060020a031690565b151590565b6133d980620007bf6000396000f3006080604052600436106101e25763ffffffff7c0100000000000000000000000000000000000000000000000000000000600035041663072a456081146101e757806310fe9ae81461020957806312065fe0146102345780631865c57d1461025657806323721e241461026b578063245edf061461028b57806328d576d7146102ad5780632f54bf6e146102da5780632fc1f190146102fa57806331691a7b1461030f5780633bc5de301461032f57806345df1945146103515780634644c51b1461036657806352c01fab14610386578063542fe6c2146103a6578063583c3a92146103bb57806367f69ab1146103db5780636984d070146103fb5780636ec02be91461041d5780636fe564201461043257806380258e47146104475780638493f71f1461045c578063893d20e81461047157806389f3beb6146104865780638a19c8bc1461049b5780638c1fc0bb146104be5780638da5cb5b146104de5780639baec207146104f3578063a968c4b914610508578063be99970514610528578063c2f897bf14610548578063d60561ce1461055d578063dbe55e561461057d578063e139a20c14610592578063e42b8c0a146105a7578063e586a4f0146105c7578063f2fde38b146105dc578063f49bff7b146105fc578063ff3c1a8f14610611575b600080fd5b3480156101f357600080fd5b50610207610202366004612b05565b610633565b005b34801561021557600080fd5b5061021e6107a2565b60405161022b9190613047565b60405180910390f35b34801561024057600080fd5b5061024961084b565b60405161022b9190613112565b34801561026257600080fd5b506102496109cc565b34801561027757600080fd5b50610207610286366004612b71565b610a70565b34801561029757600080fd5b506102a0610c40565b60405161022b91906130e8565b3480156102b957600080fd5b506102cd6102c8366004612973565b610c7c565b60405161022b9190613104565b3480156102e657600080fd5b506102cd6102f5366004612973565b610d66565b34801561030657600080fd5b5061021e610d87565b34801561031b57600080fd5b5061020761032a366004612a07565b610da3565b34801561033b57600080fd5b50610344610ede565b60405161022b9190613264565b34801561035d57600080fd5b50610207610fb9565b34801561037257600080fd5b50610207610381366004612973565b6110e9565b34801561039257600080fd5b506102cd6103a1366004612973565b61116a565b3480156103b257600080fd5b50610207611195565b3480156103c757600080fd5b506102076103d6366004612a55565b6112cb565b3480156103e757600080fd5b5061021e6103f6366004612a25565b611457565b34801561040757600080fd5b50610410611486565b60405161022b91906130d7565b34801561042957600080fd5b506102496114f7565b34801561043e57600080fd5b5061021e6114fd565b34801561045357600080fd5b50610249611519565b34801561046857600080fd5b506102a061151f565b34801561047d57600080fd5b5061021e611554565b34801561049257600080fd5b50610249611570565b3480156104a757600080fd5b506104b0611576565b60405161022b9291906132d2565b3480156104ca57600080fd5b506102cd6104d9366004612973565b611624565b3480156104ea57600080fd5b5061021e61164f565b3480156104ff57600080fd5b5061020761166b565b34801561051457600080fd5b506102cd6105233660046129af565b6117be565b34801561053457600080fd5b50610207610543366004612b05565b61191c565b34801561055457600080fd5b50610207611af7565b34801561056957600080fd5b50610207610578366004612ae6565b611b9e565b34801561058957600080fd5b5061021e611c2f565b34801561059e57600080fd5b50610410611c4b565b3480156105b357600080fd5b5061021e6105c2366004612a9c565b611cca565b3480156105d357600080fd5b50610249611ff5565b3480156105e857600080fd5b506102076105f7366004612973565b611ffb565b34801561060857600080fd5b50610249612088565b34801561061d57600080fd5b506106266121b9565b60405161022b91906130f6565b6000805473ffffffffffffffffffffffffffffffffffffffff16331461065857600080fd5b600160009054906101000a900473ffffffffffffffffffffffffffffffffffffffff1673ffffffffffffffffffffffffffffffffffffffff166310fe9ae86040518163ffffffff167c0100000000000000000000000000000000000000000000000000000000028152600401602060405180830381600087803b1580156106de57600080fd5b505af11580156106f2573d6000803e3d6000fd5b505050506040513d601f19601f820116820180604052506107169190810190612991565b6040517f5fd45f0b00000000000000000000000000000000000000000000000000000000815290915073__LibTournamentAdminMethods_____________90635fd45f0b9061076e90600d9086908690600401613249565b60006040518083038186803b15801561078657600080fd5b505af415801561079a573d6000803e3d6000fd5b505050505050565b600154604080517f10fe9ae8000000000000000000000000000000000000000000000000000000008152905160009273ffffffffffffffffffffffffffffffffffffffff16916310fe9ae891600480830192602092919082900301818787803b15801561080e57600080fd5b505af1158015610822573d6000803e3d6000fd5b505050506040513d601f19601f820116820180604052506108469190810190612991565b905090565b600080600160009054906101000a900473ffffffffffffffffffffffffffffffffffffffff1673ffffffffffffffffffffffffffffffffffffffff166310fe9ae86040518163ffffffff167c0100000000000000000000000000000000000000000000000000000000028152600401602060405180830381600087803b1580156108d457600080fd5b505af11580156108e8573d6000803e3d6000fd5b505050506040513d601f19601f8201168201806040525061090c9190810190612991565b600f546040517f70a082310000000000000000000000000000000000000000000000000000000081529192506109c69173ffffffffffffffffffffffffffffffffffffffff8416906370a0823190610968903090600401613047565b602060405180830381600087803b15801561098257600080fd5b505af1158015610996573d6000803e3d6000fd5b505050506040513d601f19601f820116820180604052506109ba9190810190612b23565b9063ffffffff6121ef16565b91505090565b6040517f5726b16f00000000000000000000000000000000000000000000000000000000815260009073__LibTournamentStateManagement__________90635726b16f90610a2090600d90600401613120565b60206040518083038186803b158015610a3857600080fd5b505af4158015610a4c573d6000803e3d6000fd5b505050506040513d601f19601f820116820180604052506108469190810190612b23565b60015460009073ffffffffffffffffffffffffffffffffffffffff163314610a9757600080fd5b601054610aaa908363ffffffff61220116565b601055600154604080517f10fe9ae8000000000000000000000000000000000000000000000000000000008152905173ffffffffffffffffffffffffffffffffffffffff909216916310fe9ae8916004808201926020929091908290030181600087803b158015610b1a57600080fd5b505af1158015610b2e573d6000803e3d6000fd5b505050506040513d601f19601f82011682018060405250610b529190810190612991565b90508073ffffffffffffffffffffffffffffffffffffffff1663a9059cbb600d60000185815481101515610b8257fe5b6000918252602090912001546040517c010000000000000000000000000000000000000000000000000000000063ffffffff8416028152610bde9173ffffffffffffffffffffffffffffffffffffffff169086906004016130bc565b602060405180830381600087803b158015610bf857600080fd5b505af1158015610c0c573d6000803e3d6000fd5b505050506040513d601f19601f82011682018060405250610c3091908101906129e9565b1515610c3b57600080fd5b505050565b610c486123a4565b60408051808201918290529060079060029082845b81548152600190910190602001808311610c5d575b5050505050905090565b60015460009073ffffffffffffffffffffffffffffffffffffffff163314610ca357600080fd5b6002610cad6109cc565b14610cb757600080fd5b6040517fa09c5c9900000000000000000000000000000000000000000000000000000000815273__LibTournamentEntrantMethods___________9063a09c5c9990610d1090600390600d90601290889060040161329d565b60206040518083038186803b158015610d2857600080fd5b505af4158015610d3c573d6000803e3d6000fd5b505050506040513d601f19601f82011682018060405250610d6091908101906129e9565b92915050565b60005473ffffffffffffffffffffffffffffffffffffffff91821691161490565b60015473ffffffffffffffffffffffffffffffffffffffff1690565b6000805473ffffffffffffffffffffffffffffffffffffffff163314610dc857600080fd5b600160009054906101000a900473ffffffffffffffffffffffffffffffffffffffff1673ffffffffffffffffffffffffffffffffffffffff166310fe9ae86040518163ffffffff167c0100000000000000000000000000000000000000000000000000000000028152600401602060405180830381600087803b158015610e4e57600080fd5b505af1158015610e62573d6000803e3d6000fd5b505050506040513d601f19601f82011682018060405250610e869190810190612991565b6040517f672ec62300000000000000000000000000000000000000000000000000000000815290915073__LibTournamentAdminMethods_____________9063672ec6239061076e90600d9086908690600401613221565b610ee66123bf565b6040805160c08101825260038054825282516060810193849052919290916020840191600490849082845b81548152600190910190602001808311610f11575050509183525050604080518082019182905260209092019190600484019060029082845b81548152600190910190602001808311610f4a575050509183525050604080518082019182905260209092019190600684019060029082845b81548152600190910190602001808311610f83575050505050815260200160088201548152602001600982015481525050905090565b600154604080517f10fe9ae8000000000000000000000000000000000000000000000000000000008152905160009273ffffffffffffffffffffffffffffffffffffffff16916310fe9ae891600480830192602092919082900301818787803b15801561102557600080fd5b505af1158015611039573d6000803e3d6000fd5b505050506040513d601f19601f8201168201806040525061105d9190810190612991565b6040517f734e4a1600000000000000000000000000000000000000000000000000000000815290915073__LibTournamentEntrantMethods___________9063734e4a16906110b690600d906012908690600401613206565b60006040518083038186803b1580156110ce57600080fd5b505af41580156110e2573d6000803e3d6000fd5b5050505050565b336000908152600e602052604090205460ff16151561110757600080fd5b600d546040517f5fbb3d346317d5ecdb86412d4c69c7503ff4dbed1eccd4cb6290453ea0b1a3229161115f917fffffffffffffffffffffffffffffffffffffffffffffffffffffffffffffffff9091019084906132d2565b60405180910390a150565b73ffffffffffffffffffffffffffffffffffffffff1660009081526016602052604090205460ff1690565b3360009081526016602052604081205460ff168015156111b457600080fd5b600160009054906101000a900473ffffffffffffffffffffffffffffffffffffffff1673ffffffffffffffffffffffffffffffffffffffff166310fe9ae86040518163ffffffff167c0100000000000000000000000000000000000000000000000000000000028152600401602060405180830381600087803b15801561123a57600080fd5b505af115801561124e573d6000803e3d6000fd5b505050506040513d601f19601f820116820180604052506112729190810190612991565b6040517fddc23bd000000000000000000000000000000000000000000000000000000000815290925073__LibTournamentEntrantMethods___________9063ddc23bd09061076e90600d906012908790600401613206565b6000805473ffffffffffffffffffffffffffffffffffffffff1633146112f057600080fd5b600160009054906101000a900473ffffffffffffffffffffffffffffffffffffffff1673ffffffffffffffffffffffffffffffffffffffff166310fe9ae86040518163ffffffff167c0100000000000000000000000000000000000000000000000000000000028152600401602060405180830381600087803b15801561137657600080fd5b505af115801561138a573d6000803e3d6000fd5b505050506040513d601f19601f820116820180604052506113ae9190810190612991565b6001546040517fd06b592400000000000000000000000000000000000000000000000000000000815291925073__LibTournamentAdminMethods_____________9163d06b59249161142291600d9173ffffffffffffffffffffffffffffffffffffffff16908690899089906004016131b2565b60006040518083038186803b15801561143a57600080fd5b505af415801561144e573d6000803e3d6000fd5b50505050505050565b336000908152600e602052604081205460ff16151561147557600080fd5b61147f8383612210565b9392505050565b6060600d600001805480602002602001604051908101604052809291908181526020018280548015610c7257602002820191906000526020600020905b815473ffffffffffffffffffffffffffffffffffffffff1681526001909101906020018083116114c3575050505050905090565b60135490565b60025473ffffffffffffffffffffffffffffffffffffffff1681565b60035490565b6115276123a4565b60408051808201918290526009805482529091600290600a60208501808311610c5d575050505050905090565b60005473ffffffffffffffffffffffffffffffffffffffff1690565b60175490565b60008073__LibTournamentStateManagement__________630386922b600d6040518263ffffffff167c01000000000000000000000000000000000000000000000000000000000281526004016115cd9190613120565b604080518083038186803b1580156115e457600080fd5b505af41580156115f8573d6000803e3d6000fd5b505050506040513d601f19601f8201168201806040525061161c9190810190612b41565b915091509091565b73ffffffffffffffffffffffffffffffffffffffff166000908152600e602052604090205460ff1690565b60005473ffffffffffffffffffffffffffffffffffffffff1681565b6000805473ffffffffffffffffffffffffffffffffffffffff16331461169057600080fd5b600160009054906101000a900473ffffffffffffffffffffffffffffffffffffffff1673ffffffffffffffffffffffffffffffffffffffff166310fe9ae86040518163ffffffff167c0100000000000000000000000000000000000000000000000000000000028152600401602060405180830381600087803b15801561171657600080fd5b505af115801561172a573d6000803e3d6000fd5b505050506040513d601f19601f8201168201806040525061174e9190810190612991565b6001546040517fa91d59d600000000000000000000000000000000000000000000000000000000815291925073__LibTournamentAdminMethods_____________9163a91d59d6916110b691600d9173ffffffffffffffffffffffffffffffffffffffff1690869060040161312e565b60015460009073ffffffffffffffffffffffffffffffffffffffff1633146117e557600080fd5b73ffffffffffffffffffffffffffffffffffffffff80831660009081526015602090815260408083209387168352929052205460ff16151561182657600080fd5b60135461183a90600163ffffffff6121ef16565b60135573ffffffffffffffffffffffffffffffffffffffff8083166000908152601460209081526040808320601583528184209488168452939091529020600101548154811061188657fe5b6000918252602080832090910180547fffffffffffffffffffffffff000000000000000000000000000000000000000016905573ffffffffffffffffffffffffffffffffffffffff848116835260158252604080842091871684529152812080547fffffffffffffffffffffffffffffffffffffffffffffffffffffffffffffff00168155600190810191909155905092915050565b6000803073ffffffffffffffffffffffffffffffffffffffff16631865c57d6040518163ffffffff167c0100000000000000000000000000000000000000000000000000000000028152600401602060405180830381600087803b15801561198357600080fd5b505af1158015611997573d6000803e3d6000fd5b505050506040513d601f19601f820116820180604052506119bb9190810190612b23565b91508115806119ca5750600282145b806119d55750600182145b15156119e057600080fd5b600160009054906101000a900473ffffffffffffffffffffffffffffffffffffffff1673ffffffffffffffffffffffffffffffffffffffff166310fe9ae86040518163ffffffff167c0100000000000000000000000000000000000000000000000000000000028152600401602060405180830381600087803b158015611a6657600080fd5b505af1158015611a7a573d6000803e3d6000fd5b505050506040513d601f19601f82011682018060405250611a9e9190810190612991565b6040517f23b872dd00000000000000000000000000000000000000000000000000000000815290915073ffffffffffffffffffffffffffffffffffffffff8216906323b872dd90610bde90339030908890600401613094565b60005473ffffffffffffffffffffffffffffffffffffffff163314611b1b57600080fd5b6040517faf41094900000000000000000000000000000000000000000000000000000000815273__LibTournamentAdminMethods_____________9063af41094990611b6c90600d90600401613120565b60006040518083038186803b158015611b8457600080fd5b505af4158015611b98573d6000803e3d6000fd5b50505050565b60005473ffffffffffffffffffffffffffffffffffffffff163314611bc257600080fd5b6001546040517fb43475ff00000000000000000000000000000000000000000000000000000000815273__LibTournamentAdminMethods_____________9163b43475ff916110b691600391869173ffffffffffffffffffffffffffffffffffffffff1690600401613273565b60015473ffffffffffffffffffffffffffffffffffffffff1681565b336000908152601460209081526040918290208054835181840281018401909452808452606093849390929190830182828015611cbe57602002820191906000526020600020905b815473ffffffffffffffffffffffffffffffffffffffff168152600190910190602001808311611c93575b50939695505050505050565b336000908152601660205260408120548190819060ff16801515611ced57600080fd5b6001546040517f532311c4000000000000000000000000000000000000000000000000000000008152339173ffffffffffffffffffffffffffffffffffffffff1690819063532311c490611d45908590600401613047565b602060405180830381600087803b158015611d5f57600080fd5b505af1158015611d73573d6000803e3d6000fd5b505050506040513d601f19601f82011682018060405250611d9791908101906129e9565b1515611da257600080fd5b6000611dac611576565b9150600190508173ffffffffffffffffffffffffffffffffffffffff16631865c57d6040518163ffffffff167c0100000000000000000000000000000000000000000000000000000000028152600401602060405180830381600087803b158015611e1657600080fd5b505af1158015611e2a573d6000803e3d6000fd5b505050506040513d601f19601f82011682018060405250611e4e9190810190612b23565b1415611e5957600080fd5b6002611e636109cc565b14611e6d57600080fd5b6040517f0386922b00000000000000000000000000000000000000000000000000000000815273__LibTournamentStateManagement__________90630386922b90611ebe90600d90600401613120565b604080518083038186803b158015611ed557600080fd5b505af4158015611ee9573d6000803e3d6000fd5b505050506040513d601f19601f82011682018060405250611f0d9190810190612b41565b6001546040517f09d1ebd000000000000000000000000000000000000000000000000000000000815291985073__LibTournamentEntrantMethods___________92506309d1ebd091611f809173ffffffffffffffffffffffffffffffffffffffff16908a906012908f90600401613055565b60206040518083038186803b158015611f9857600080fd5b505af4158015611fac573d6000803e3d6000fd5b505050506040513d601f19601f82011682018060405250611fd09190810190612991565b885151909550151580611fe7575060408801515115155b509398975050505050505050565b600c5490565b60005473ffffffffffffffffffffffffffffffffffffffff16331461201f57600080fd5b73ffffffffffffffffffffffffffffffffffffffff8116151561204157600080fd5b600080547fffffffffffffffffffffffff00000000000000000000000000000000000000001673ffffffffffffffffffffffffffffffffffffffff92909216919091179055565b600080600160009054906101000a900473ffffffffffffffffffffffffffffffffffffffff1673ffffffffffffffffffffffffffffffffffffffff166310fe9ae86040518163ffffffff167c0100000000000000000000000000000000000000000000000000000000028152600401602060405180830381600087803b15801561211157600080fd5b505af1158015612125573d6000803e3d6000fd5b505050506040513d601f19601f820116820180604052506121499190810190612991565b601054600f546040517f70a082310000000000000000000000000000000000000000000000000000000081529293506109c6926121ad919073ffffffffffffffffffffffffffffffffffffffff8616906370a0823190610968903090600401613047565b9063ffffffff61220116565b6121c1612409565b6040805160608101918290526004805482529091600390600560208501808311610c5d575050505050905090565b6000828211156121fb57fe5b50900390565b60008282018381101561147f57fe5b600080600160009054906101000a900473ffffffffffffffffffffffffffffffffffffffff1673ffffffffffffffffffffffffffffffffffffffff166310fe9ae86040518163ffffffff167c0100000000000000000000000000000000000000000000000000000000028152600401602060405180830381600087803b15801561229957600080fd5b505af11580156122ad573d6000803e3d6000fd5b505050506040513d601f19601f820116820180604052506122d19190810190612991565b6001546002546040517fcfa037dc00000000000000000000000000000000000000000000000000000000815292935073__LibTournamentAdminMethods_____________9263cfa037dc9261234c92600d9273ffffffffffffffffffffffffffffffffffffffff92831692889216908b908b90600401613156565b60206040518083038186803b15801561236457600080fd5b505af4158015612378573d6000803e3d6000fd5b505050506040513d601f19601f8201168201806040525061239c9190810190612991565b949350505050565b60408051808201825290600290829080388339509192915050565b60408051610140810190915260008152602081016123db612409565b81526020016123e86123a4565b81526020016123f56123a4565b815260200160008152602001600081525090565b6060604051908101604052806003906020820280388339509192915050565b600061147f823561336c565b600061147f825161336c565b6000601f8201831361245157600080fd5b813561246461245f82613314565b6132ed565b9150818183526020840193506020810190508385602084028201111561248957600080fd5b60005b838110156124b5578161249f8882612428565b845250602092830192919091019060010161248c565b5050505092915050565b6000601f820183136124d057600080fd5b60026124de61245f82613335565b915081838560208402820111156124f457600080fd5b60005b838110156124b5578161250a8882612679565b84525060209283019291909101906001016124f7565b6000601f8201831361253157600080fd5b600361253f61245f82613335565b9150818385602084028201111561255557600080fd5b60005b838110156124b5578161256b8882612679565b8452506020928301929190910190600101612558565b6000601f8201831361259257600080fd5b81356125a061245f82613314565b915081818352602084019350602081019050838560208402820111156125c557600080fd5b60005b838110156124b557816125db888261295b565b84525060209283019291909101906001016125c8565b6000601f8201831361260257600080fd5b813561261061245f82613314565b9150818183526020840193506020810190508385602084028201111561263557600080fd5b60005b838110156124b5578161264b8882612679565b8452506020928301929190910190600101612638565b600061147f8235613385565b600061147f8251613385565b600061147f8235613359565b60006060828403121561269757600080fd5b6126a160606132ed565b9050813567ffffffffffffffff8111156126ba57600080fd5b6126c684828501612440565b825250602082013567ffffffffffffffff8111156126e357600080fd5b6126ef84828501612581565b602083015250604082013567ffffffffffffffff81111561270f57600080fd5b61271b84828501612440565b60408301525092915050565b600060a0828403121561273957600080fd5b61274360a06132ed565b905060006127518484612679565b825250602061276284848301612679565b602083015250604061277684828501612679565b604083015250606061278a84828501612679565b606083015250608061279e84828501612661565b60808301525092915050565b6000608082840312156127bc57600080fd5b6127c660806132ed565b9050813567ffffffffffffffff8111156127df57600080fd5b6127eb84828501612440565b825250602082013567ffffffffffffffff81111561280857600080fd5b612814848285016125f1565b602083015250604061282884828501612679565b604083015250606061283c84828501612679565b60608301525092915050565b6000610120828403121561285b57600080fd5b61286560a06132ed565b905060006128738484612520565b8252506060612884848483016124bf565b60208301525060a0612898848285016124bf565b60408301525060e06128ac84828501612679565b60608301525061010061279e84828501612679565b600061014082840312156128d457600080fd5b6128de60c06132ed565b905060006128ec8484612679565b82525060206128fd84848301612520565b6020830152506080612911848285016124bf565b60408301525060c0612925848285016124bf565b60608301525061010061293a84828501612679565b60808301525061012061294f84828501612661565b60a08301525092915050565b600061147f823561338a565b600061147f8251613359565b60006020828403121561298557600080fd5b600061239c8484612428565b6000602082840312156129a357600080fd5b600061239c8484612434565b600080604083850312156129c257600080fd5b60006129ce8585612428565b92505060206129df85828601612428565b9150509250929050565b6000602082840312156129fb57600080fd5b600061239c848461266d565b600060a08284031215612a1957600080fd5b600061239c8484612727565b60008060c08385031215612a3857600080fd5b6000612a448585612727565b92505060a06129df85828601612661565b60008060c08385031215612a6857600080fd5b823567ffffffffffffffff811115612a7f57600080fd5b612a8b858286016127aa565b92505060206129df85828601612727565b6000806101408385031215612ab057600080fd5b6000612abc8585612848565b92505061012083013567ffffffffffffffff811115612ada57600080fd5b6129df85828601612685565b60006101408284031215612af957600080fd5b600061239c84846128c1565b600060208284031215612b1757600080fd5b600061239c8484612679565b600060208284031215612b3557600080fd5b600061239c8484612967565b60008060408385031215612b5457600080fd5b6000612b608585612967565b92505060206129df85828601612434565b60008060408385031215612b8457600080fd5b6000612b908585612679565b92505060206129df85828601612679565b612baa8161336c565b82525050565b6000612bbb8261335c565b808452602084019350612bcd83613353565b60005b82811015612bfd57612be3868351612ba1565b612bec82613353565b602096909601959150600101612bd0565b5093949350505050565b6000612c128261335c565b808452602084019350612c2483613353565b60005b82811015612bfd57612c3a868351612ba1565b612c4382613353565b602096909601959150600101612c27565b612c5d81613360565b612c6682613359565b60005b828110156110e257612c7c858351612e36565b612c8582613353565b602095909501949150600101612c69565b612c9f81613360565b612ca882613359565b60005b828110156110e257612cbe858351612e36565b612cc782613353565b602095909501949150600101612cab565b612ce181613360565b612cea82613359565b60005b828110156110e257612d00858351612e36565b612d0982613353565b602095909501949150600101612ced565b612d2381613366565b612d2c82613359565b60005b828110156110e257612d42858351612e36565b612d4b82613353565b602095909501949150600101612d2f565b612d6581613366565b612d6e82613359565b60005b828110156110e257612d84858351612e36565b612d8d82613353565b602095909501949150600101612d71565b612da781613366565b612db082613359565b60005b828110156110e257612dc6858351612e36565b612dcf82613353565b602095909501949150600101612db3565b6000612deb8261335c565b808452602084019350612dfd83613353565b60005b82811015612bfd57612e13868351612e36565b612e1c82613353565b602096909601959150600101612e00565b612baa81613385565b612baa81613359565b9052565b805160a0830190612e548482612e36565b506020820151612e676020850182612e36565b506040820151612e7a6040850182612e36565b506060820151612e8d6060850182612e36565b506080820151611b986080850182612e2d565b8051608080845260009190840190612eb88282612c07565b91505060208301518482036020860152612ed28282612de0565b9150506040830151612ee76040860182612e36565b506060830151612efa6060860182612e36565b509392505050565b8051610120830190612f148482612d9e565b506020820151612f276060850182612cd8565b506040820151612f3a60a0850182612cd8565b506060820151612f4d60e0850182612e36565b506080820151611b98610100850182612e36565b8051610140830190612f738482612e36565b506020820151612f866020850182612d5c565b506040820151612f996080850182612c96565b506060820151612fac60c0850182612c96565b506080820151612fc0610100850182612e36565b5060a0820151611b98610120850182612e36565b8051610140830190612fe68482612e36565b506020820151612ff96020850182612d9e565b50604082015161300c6080850182612cd8565b50606082015161301f60c0850182612cd8565b506080820151613033610100850182612e36565b5060a0820151611b98610120850182612e2d565b60208101610d608284612ba1565b61018081016130648287612ba1565b6130716020830186612ba1565b61307e6040830185612e3f565b61308b6060830184612f02565b95945050505050565b606081016130a28286612ba1565b6130af6020830185612ba1565b61239c6040830184612e36565b604081016130ca8285612ba1565b61147f6020830184612e36565b6020808252810161147f8184612bb0565b60408101610d608284612c54565b60608101610d608284612d1a565b60208101610d608284612e2d565b60208101610d608284612e36565b60208101610d608284612e3f565b6060810161313c8286612e3f565b6131496020830185612ba1565b61239c6040830184612ba1565b61014081016131658289612e3f565b6131726020830188612ba1565b61317f6040830187612ba1565b61318c6060830186612ba1565b6131996080830185612e43565b6131a7610120830184612e2d565b979650505050505050565b61012081016131c18288612e3f565b6131ce6020830187612ba1565b6131db6040830186612ba1565b81810360608301526131ed8185612ea0565b90506131fc6080830184612e43565b9695505050505050565b606081016132148286612e3f565b6131496020830185612e3f565b60e0810161322f8286612e3f565b61323c6020830185612e43565b61239c60c0830184612ba1565b606081016132578286612e3f565b6131496020830185612e36565b6101408101610d608284612f61565b61018081016132828286612e3f565b61328f6020830185612fd4565b61239c610160830184612ba1565b608081016132ab8287612e3f565b6132b86020830186612e3f565b6132c56040830185612e3f565b61308b6060830184612ba1565b604081016132e08285612e36565b61147f6020830184612ba1565b60405181810167ffffffffffffffff8111828210171561330c57600080fd5b604052919050565b600067ffffffffffffffff82111561332b57600080fd5b5060209081020190565b600067ffffffffffffffff82111561334c57600080fd5b5060200290565b60200190565b90565b5190565b50600290565b50600390565b73ffffffffffffffffffffffffffffffffffffffff1690565b151590565b6fffffffffffffffffffffffffffffffff16905600a265627a7a723058201c368a48f0b401b00e9c1cc947a82de2f99b75147bd46c2b7be471d0674bbd076c6578706572696d656e74616cf50037",
  "source": "pragma solidity ^0.4.18;\npragma experimental ABIEncoderV2;\n\nimport \"../libraries/strings/strings.sol\";\nimport \"../libraries/math/SafeMath.sol\";\nimport \"../libraries/LibConstruction.sol\";\n//import \"../libraries/interfaces/tournament/iLibTournamentStateManagement.sol\";\nimport \"../libraries/tournament/LibTournamentStateManagement.sol\";\nimport \"../libraries/tournament/LibTournamentAdminMethods.sol\";\nimport \"../libraries/tournament/LibTournamentEntrantMethods.sol\";\nimport \"../libraries/LibEnums.sol\";\nimport \"../interfaces/IMatryxPlatform.sol\";\nimport \"../interfaces/IMatryxTournament.sol\";\nimport \"../interfaces/IMatryxSubmission.sol\";\nimport \"../interfaces/factories/IMatryxRoundFactory.sol\";\nimport \"../interfaces/IMatryxRound.sol\";\nimport \"../interfaces/IMatryxToken.sol\";\nimport \"./Ownable.sol\";\n\n/// @title Tournament - The Matryx tournament.\n/// @author Max Howard - <max@nanome.ai>, Sam Hessenauer - <sam@nanome.ai>\ncontract MatryxTournament is Ownable, IMatryxTournament {\n    using SafeMath for uint256;\n    using strings for *;\n    using LibTournamentAdminMethods for LibConstruction.TournamentData;\n\n    // TODO: condense and put in structs\n    // Platform identification\n    address public platformAddress;\n    address public matryxRoundFactoryAddress;\n\n    // TODO: Create setter for this (resume here for upgrade system.)\n    // address public libTournamentStateManagement;\n\n    //Tournament identification\n    LibConstruction.TournamentData data;\n    LibTournamentStateManagement.StateData stateData;\n    // Submission tracking\n    LibTournamentStateManagement.EntryData entryData;\n\n    // address roundDelegate;\n    // bytes4 fnSelector_chooseWinner = bytes4(keccak256(\"chooseWinner(address)\"));\n    // bytes4 fnSelector_createRound = bytes4(keccak256(\"createRound(uint256)\"));\n    // bytes4 fnSelector_startRound = bytes4(keccak256(\"startRound(uint256)\"));\n\n    constructor(address _owner, address _platformAddress, address _matryxRoundFactoryAddress, LibConstruction.TournamentData tournamentData, LibConstruction.RoundData roundData)\n    {\n        //Clean inputs\n        require(_owner != 0x0);\n        require(tournamentData.title[0] != 0x0);\n        require(tournamentData.initialBounty > 0);\n        require(_matryxRoundFactoryAddress != 0x0);\n\n        platformAddress = _platformAddress;\n        matryxRoundFactoryAddress = _matryxRoundFactoryAddress;\n\n        // Identification\n        owner = _owner;\n        data = tournamentData;\n\n        _createRound(roundData, false);\n        // roundDelegate = IMatryxPlatform(platformAddress).getRoundLibAddress();\n    }\n\n    /*\n     * Structs\n     */\n\n    struct uint256_optional\n    {\n        bool exists;\n        uint256 value;\n    }\n\n    struct SubmissionLocation\n    {\n        uint256 roundIndex;\n        uint256 submissionIndex;\n    }\n\n    /*\n     * Events\n     */\n\n    event NewRound(uint256 _startTime, uint256 _endTime, uint256 _reviewPeriodDuration, address _roundAddress, uint256 _roundNumber);\n    //event RoundStarted(uint256 _roundIndex);\n    // Fired at the end of every round, one time per submission created in that round\n    event SubmissionCreated(uint256 _roundIndex, address _submissionAddress);\n    event RoundWinnersChosen(address[] _submissionAddresses);\n\n    /// @dev Allows rounds to invoke SubmissionCreated events on this tournament.\n    /// @param _submissionAddress Address of the submission.\n    function invokeSubmissionCreatedEvent(address _submissionAddress) public onlyRound\n    {\n        emit SubmissionCreated(stateData.rounds.length-1, _submissionAddress);\n    }\n\n    /*\n     * Modifiers\n     */\n\n    /// @dev Requires the function caller to be the platform.\n    modifier onlyPlatform() {\n        require(msg.sender == platformAddress);\n        _;\n    }\n\n    modifier onlyRound() {\n        require(stateData.isRound[msg.sender]);\n        _;\n    }\n\n    // modifier onlySubmission(address _submissionAddress, address _author)\n    // {\n    //     // If the submission does not exist,\n    //     // the address of the submission we return will not be msg.sender\n    //     // It will either be\n    //     // 1) The first submission, or\n    //     // 2) all 0s from having deleted it previously.\n    //     uint256 indexOfSubmission = entrantToSubmissionToSubmissionIndex[_author][_submissionAddress].value;\n    //     address submissionAddress = entrantToSubmissions[_author][indexOfSubmission];\n    //     require(_submissionAddress == msg.sender);\n    //     _;\n    // }\n\n    modifier onlyPeerLinked(address _sender) {\n        IMatryxPlatform platform = IMatryxPlatform(platformAddress);\n        require(platform.hasPeer(_sender));\n        _;\n    }\n\n    /// @dev Requires the function caller to be an entrant.\n    modifier onlyEntrant()\n    {\n        bool senderIsEntrant = entryData.addressToEntryFeePaid[msg.sender].exists;\n        require(senderIsEntrant);\n        _;\n    }\n\n    modifier whileTournamentOpen()\n    {\n        require(getState() == uint256(LibEnums.TournamentState.Open));\n        _;\n    }\n\n    modifier ifRoundHasFunds()\n    {\n        address currentRoundAddress;\n\n        (,currentRoundAddress) = currentRound();\n        require(IMatryxRound(currentRoundAddress).getState() != uint256(LibEnums.RoundState.Unfunded));\n        _;\n    }\n\n    modifier onlyOwner()\n    {\n        require(msg.sender == owner);\n        _;\n    }\n\n    // /// @dev Requires the tournament to be open.\n    // modifier duringReviewPeriod()\n    // {\n    //     // TODO: Finish me!\n    //     require(isInReview());\n    //     _;\n    // }\n\n    // TODO: Use MatryxToken\n    // modifier whileBountyLeft(uint256 _nextRoundBounty)\n    // {\n    //     require(BountyLeft.sub(_nextRoundBounty) >= 0);\n    //     _;\n    // }\n\n    /*\n    * State Maintenance Methods\n    */\n\n    function removeSubmission(address _submissionAddress, address _author) public onlyPlatform returns (bool)\n    {\n        require(entryData.entrantToSubmissionToSubmissionIndex[_author][_submissionAddress].exists);\n        entryData.numberOfSubmissions = entryData.numberOfSubmissions.sub(1);\n        delete entryData.entrantToSubmissions[_author][entryData.entrantToSubmissionToSubmissionIndex[_author][_submissionAddress].value];\n        delete entryData.entrantToSubmissionToSubmissionIndex[_author][_submissionAddress];\n        return true;\n    }\n\n    /*\n     * Access Control Methods\n     */\n\n    /// @dev Returns whether or not the sender is an entrant in this tournament\n    /// @param _sender Explicit sender address.\n    /// @return Whether or not the sender is an entrant in this tournament.\n    function isEntrant(address _sender) public view returns (bool)\n    {\n        return entryData.addressToEntryFeePaid[_sender].exists;\n    }\n\n    /// @dev Returns the state of the tournament. One of:\n    /// NotYetOpen, Open, Closed, Abandoned\n    function getState() public view returns (uint256)\n    {\n        return LibTournamentStateManagement.getState(stateData);\n    }\n\n    /*\n     * Getter Methods\n     */\n\n    function getPlatform() public view returns (address _platformAddress)\n    {\n        return platformAddress;\n    }\n\n    function getTokenAddress() public view returns (address _matryxTokenAddress)\n    {\n        return IMatryxPlatform(platformAddress).getTokenAddress();\n    }\n\n    function getData() public view returns (LibConstruction.TournamentData _data)\n    {\n        return data;\n    }\n\n    /// @dev Returns bool indicating whether _address corresponds to an existing round or not\n    function isRound(address _roundAddress) public view returns (bool _isRound)\n    {\n        return stateData.isRound[_roundAddress];\n    }\n\n    /// @dev Returns list of round addresses in the tournament\n    function getRounds() public view returns (address[] _rounds)\n    {\n        return stateData.rounds;\n    }\n\n    function getCategory() public view returns (bytes32 _category)\n    {\n        return data.category;\n    }\n\n    function getTitle() public view returns (bytes32[3] _title)\n    {\n        return data.title;\n    }\n\n    // @dev Returns the external address of the tournament.\n    // @return _descriptionHash Off-chain content hash of tournament details (ipfs hash)\n    function getDescriptionHash() public view returns (bytes32[2] _descriptionHash)\n    {\n        return data.descriptionHash;\n    }\n\n    function getFileHash() public view returns (bytes32[2] _fileHash)\n    {\n        return data.fileHash;\n    }\n\n    /// @dev Returns the current round number.\n    /// @return _currentRound Number of the current round.\n    function currentRound() public view returns (uint256 _currentRound, address _currentRoundAddress)\n    {\n        return LibTournamentStateManagement.currentRound(stateData);\n    }\n\n    ///@dev Returns this tournament's bounty.\n    function getBounty() public view returns (uint256 _tournamentBounty)\n    {\n        IMatryxToken token = IMatryxToken(IMatryxPlatform(platformAddress).getTokenAddress());\n        return token.balanceOf(address(this)).sub(stateData.entryFeesTotal).add(stateData.roundBountyAllocation);\n    }\n\n    // @dev Returns the remaining bounty this tournament is able to award.\n    function getBalance() public view returns (uint256 _tournamentBalance)\n    {\n        IMatryxToken token = IMatryxToken(IMatryxPlatform(platformAddress).getTokenAddress());\n        return token.balanceOf(address(this)).sub(stateData.entryFeesTotal);\n    }\n\n    /// @dev Returns the fee in MTX to be payed by a prospective entrant.\n    /// @return Entry fee for this tournament.\n    function getEntryFee() public view returns (uint256)\n    {\n        return data.entryFee;\n    }\n\n    /// @dev Returns all of the sender's submissions to this tournament.\n    /// @return (_roundIndices[], _submissionIndices[]) Locations of the sender's submissions.\n    function mySubmissions() public view returns (address[])\n    {\n        address[] memory _mySubmissions = entryData.entrantToSubmissions[msg.sender];\n        return _mySubmissions;\n    }\n\n    /// @dev Returns the number of submissions made to this tournament.\n    /// @return _submissionCount Number of submissions made to this tournament.\n    function submissionCount() public view returns (uint256 _submissionCount)\n    {\n        return entryData.numberOfSubmissions;\n    }\n\n    function entrantCount() public view returns (uint256 _entrantCount)\n    {\n        return entryData.numberOfEntrants;\n    }\n\n    /*\n     * Setter Methods\n     */\n\n    function update(LibConstruction.TournamentModificationData tournamentData) public onlyOwner\n    {\n        data.update(tournamentData, platformAddress);\n    }\n\n    /// @dev Add additional funds to the tournament\n    function addFunds(uint256 _fundsToAdd) public\n    {\n        uint256 tournamentState = this.getState();\n        require(\n            tournamentState == uint256(LibEnums.TournamentState.NotYetOpen) ||\n            tournamentState == uint256(LibEnums.TournamentState.Open) ||\n            tournamentState == uint256(LibEnums.TournamentState.OnHold));\n\n        address matryxTokenAddress = IMatryxPlatform(platformAddress).getTokenAddress();\n        require(IMatryxToken(matryxTokenAddress).transferFrom(msg.sender, address(this), _fundsToAdd));\n    }\n\n    /*\n     * Tournament Admin Methods\n     */\n\n    /// @dev Chooses the winner(s) of the current round. If this is the last round,\n    //       this method will also close the tournament.\n    /// @param _selectWinnersData Struct containing winning submission information including:\n    ///        winningSubmissions: Winning submission addresses\n    ///        rewardDistribution: Distribution indicating how to split the reward among the submissions\n    ///        selectWinnerAction: SelectWinnerAction (DoNothing, StartNextRound, CloseTournament) indicating what to do after winner selection\n    ///        rewardDistributionTotal: (Unused)\n    /// @param _roundData Struct containing data for the next round including:\n    ///   start: Start time (seconds since unix-epoch) for next round\n    ///   end: End time (seconds since unix-epoch) for next round\n    ///   reviewPeriodDuration: Number of seconds to allow for winning submissions to be selected in next round\n    ///   bounty: Bounty in MTX for next round\n    ///   closed: (Unused)\n    function selectWinners(LibRound.SelectWinnersData _selectWinnersData, LibConstruction.RoundData _roundData) public onlyOwner\n    {\n        address matryxTokenAddress = IMatryxPlatform(platformAddress).getTokenAddress();\n        LibTournamentAdminMethods.selectWinners(stateData, platformAddress, matryxTokenAddress, _selectWinnersData, _roundData);\n    }\n\n    /// @dev modifies the future \"Ghost\" Round Information\n    function editGhostRound(LibConstruction.RoundData _roundData) public onlyOwner\n    {\n        address matryxTokenAddress = IMatryxPlatform(platformAddress).getTokenAddress();\n        LibTournamentAdminMethods.editGhostRound(stateData, _roundData, matryxTokenAddress);\n    }\n\n    ///@dev Allocates some of this tournament's balance to the current round\n    function allocateMoreToRound(uint256 _mtxAllocation) public onlyOwner\n    {\n        address matryxTokenAddress = IMatryxPlatform(platformAddress).getTokenAddress();\n        LibTournamentAdminMethods.allocateMoreToRound(stateData, _mtxAllocation, matryxTokenAddress);\n    }\n\n    /// @dev This function should be called after the user selects winners for their tournament and chooses the \"DoNothing\" option\n    function jumpToNextRound() public onlyOwner\n    {\n        LibTournamentAdminMethods.jumpToNextRound(stateData);\n    }\n\n    /// @dev This function closes the tournament after the tournament owner selects their winners with the \"DoNothing\" option\n    function stopTournament() public onlyOwner\n    {\n        address matryxTokenAddress = IMatryxPlatform(platformAddress).getTokenAddress();\n        LibTournamentAdminMethods.stopTournament(stateData, platformAddress, matryxTokenAddress);\n    }\n\n    /// @dev Creates a new round.\n    /// @return The new round's address.\n    function createRound(LibConstruction.RoundData roundData, bool _automaticCreation) public onlyRound returns (address _roundAddress)\n    {\n        return _createRound(roundData, _automaticCreation);\n    }\n\n    function _createRound(LibConstruction.RoundData roundData, bool _automaticCreation) private returns (address _roundAddress)\n    {\n        address matryxTokenAddress = IMatryxPlatform(platformAddress).getTokenAddress();\n        return LibTournamentAdminMethods.createRound(stateData, platformAddress, matryxTokenAddress, matryxRoundFactoryAddress, roundData, _automaticCreation);\n    }\n\n    function sendBountyToRound(uint256 _roundIndex, uint256 _bountyMTX) public onlyPlatform\n    {\n        stateData.roundBountyAllocation = stateData.roundBountyAllocation.add(_bountyMTX);\n        IMatryxToken token = IMatryxToken(IMatryxPlatform(platformAddress).getTokenAddress());\n        require(token.transfer(stateData.rounds[_roundIndex], _bountyMTX));\n    }\n\n    /*\n     * Entrant Methods\n     */\n\n    // LibTournamentEntrantMethods\n    /// @dev Enters the user into the tournament.\n    /// @param _entrantAddress Address of the user to enter.\n    /// @return success Whether or not the user was entered successfully.\n    function enterUserInTournament(address _entrantAddress) public onlyPlatform whileTournamentOpen returns (bool _success)\n    {\n        return LibTournamentEntrantMethods.enterUserInTournament(data, stateData, entryData, _entrantAddress);\n    }\n\n    function collectMyEntryFee() public\n    {\n        address matryxTokenAddress = IMatryxPlatform(platformAddress).getTokenAddress();\n        LibTournamentEntrantMethods.collectMyEntryFee(stateData, entryData, matryxTokenAddress);\n    }\n\n    function createSubmission(LibConstruction.SubmissionData submissionData, LibConstruction.ContributorsAndReferences contribsAndRefs) public onlyEntrant onlyPeerLinked(msg.sender) ifRoundHasFunds whileTournamentOpen returns (address _submissionAddress)\n    {\n        address currentRoundAddress;\n        (, currentRoundAddress) = LibTournamentStateManagement.currentRound(stateData);\n        address newSubmission = LibTournamentEntrantMethods.createSubmission(platformAddress, currentRoundAddress, entryData, submissionData);\n\n        if (contribsAndRefs.contributors.length != 0 || contribsAndRefs.references.length != 0)\n        {\n            // IMatryxSubmission(newSubmission).setContributorsAndReferences(contribsAndRefs);\n        }\n        // Send out reference requests to the authors of other submissions\n        // IMatryxPlatform(platformAddress).handleReferenceRequestsForSubmission(newSubmission, contribsAndRefs.references);\n\n        return newSubmission;\n    }\n\n    function withdrawFromAbandoned() public onlyEntrant\n    {\n        address matryxTokenAddress = IMatryxPlatform(platformAddress).getTokenAddress();\n        LibTournamentEntrantMethods.withdrawFromAbandoned(stateData, entryData, matryxTokenAddress);\n    }\n}\n",
  "sourcePath": "/Users/maxhoward/Desktop/Ethereum/MatryxPlatform/contracts/MatryxTournament.sol",
  "compiler": {
    "name": "solc",
    "version": "0.4.24+commit.e67f0147.Emscripten.clang"
  },
  "schemaVersion": "2.0.1",
  "updatedAt": "2018-08-06T23:52:56.554Z"
}