{
  "contractName": "MatryxPlatformAlphaMain",
  "abi": [
    {
      "constant": true,
      "inputs": [],
      "name": "getBalance",
      "outputs": [
        {
          "name": "",
          "type": "uint256"
        }
      ],
      "payable": false,
      "stateMutability": "view",
      "type": "function"
    },
    {
      "constant": true,
      "inputs": [],
      "name": "balanceIsNonZero",
      "outputs": [
        {
          "name": "",
          "type": "bool"
        }
      ],
      "payable": false,
      "stateMutability": "view",
      "type": "function"
    },
    {
      "constant": false,
      "inputs": [
        {
          "name": "_tournamentName",
          "type": "string"
        },
        {
          "name": "_externalAddress",
          "type": "bytes32"
        },
        {
          "name": "_tournamentStartTime",
          "type": "uint256"
        },
        {
          "name": "_startRoundTime",
          "type": "uint256"
        },
        {
          "name": "_roundEndTime",
          "type": "uint256"
        },
        {
          "name": "_reviewPeriod",
          "type": "uint256"
        },
        {
          "name": "_endOfTournamentTime",
          "type": "uint256"
        },
        {
          "name": "_MTXReward",
          "type": "uint256"
        },
        {
          "name": "_currentRound",
          "type": "uint256"
        },
        {
          "name": "_maxRounds",
          "type": "uint256"
        }
      ],
      "name": "createTournament",
      "outputs": [
        {
          "name": "",
          "type": "address"
        }
      ],
      "payable": false,
      "stateMutability": "nonpayable",
      "type": "function"
    },
    {
      "constant": true,
      "inputs": [],
      "name": "tournamentCount",
      "outputs": [
        {
          "name": "",
          "type": "uint256"
        }
      ],
      "payable": false,
      "stateMutability": "view",
      "type": "function"
    },
    {
      "constant": true,
      "inputs": [],
      "name": "getOwner",
      "outputs": [
        {
          "name": "_deployer",
          "type": "address"
        }
      ],
      "payable": false,
      "stateMutability": "view",
      "type": "function"
    },
    {
      "constant": false,
      "inputs": [
        {
          "name": "_queryID",
          "type": "uint256"
        },
        {
          "name": "_response",
          "type": "uint256"
        }
      ],
      "name": "storeQueryResponse",
      "outputs": [
        {
          "name": "success",
          "type": "bool"
        }
      ],
      "payable": false,
      "stateMutability": "nonpayable",
      "type": "function"
    },
    {
      "constant": true,
      "inputs": [],
      "name": "owner",
      "outputs": [
        {
          "name": "",
          "type": "address"
        }
      ],
      "payable": false,
      "stateMutability": "view",
      "type": "function"
    },
    {
      "constant": true,
      "inputs": [
        {
          "name": "",
          "type": "uint256"
        }
      ],
      "name": "allTournaments",
      "outputs": [
        {
          "name": "",
          "type": "address"
        }
      ],
      "payable": false,
      "stateMutability": "view",
      "type": "function"
    },
    {
      "constant": false,
      "inputs": [
        {
          "name": "_query",
          "type": "bytes32"
        },
        {
          "name": "_sender",
          "type": "address"
        }
      ],
      "name": "Query",
      "outputs": [],
      "payable": false,
      "stateMutability": "nonpayable",
      "type": "function"
    },
    {
      "constant": false,
      "inputs": [
        {
          "name": "tournamentAddress",
          "type": "address"
        }
      ],
      "name": "tournamentByAddress",
      "outputs": [
        {
          "name": "",
          "type": "bytes32"
        }
      ],
      "payable": false,
      "stateMutability": "nonpayable",
      "type": "function"
    },
    {
      "constant": false,
      "inputs": [
        {
          "name": "toIgnore",
          "type": "uint256"
        }
      ],
      "name": "prepareBalance",
      "outputs": [],
      "payable": false,
      "stateMutability": "nonpayable",
      "type": "function"
    },
    {
      "constant": false,
      "inputs": [
        {
          "name": "newOwner",
          "type": "address"
        }
      ],
      "name": "transferOwnership",
      "outputs": [],
      "payable": false,
      "stateMutability": "nonpayable",
      "type": "function"
    },
    {
      "constant": false,
      "inputs": [
        {
          "name": "_tournamentAddress",
          "type": "address"
        }
      ],
      "name": "enterTournament",
      "outputs": [
        {
          "name": "_submissionViewer",
          "type": "address"
        }
      ],
      "payable": false,
      "stateMutability": "nonpayable",
      "type": "function"
    },
    {
      "anonymous": false,
      "inputs": [
        {
          "indexed": false,
          "name": "tournamentOwner",
          "type": "address"
        },
        {
          "indexed": false,
          "name": "tournamentAddress",
          "type": "address"
        },
        {
          "indexed": false,
          "name": "tournamentName",
          "type": "string"
        },
        {
          "indexed": false,
          "name": "externalAddress",
          "type": "bytes32"
        },
        {
          "indexed": false,
          "name": "startRoundTime",
          "type": "uint256"
        },
        {
          "indexed": false,
          "name": "roundEndTime",
          "type": "uint256"
        },
        {
          "indexed": false,
          "name": "reviewPeriod",
          "type": "uint256"
        },
        {
          "indexed": false,
          "name": "endOfTournamentTime",
          "type": "uint256"
        },
        {
          "indexed": false,
          "name": "bountyMTX",
          "type": "uint256"
        },
        {
          "indexed": false,
          "name": "currentRound",
          "type": "uint256"
        },
        {
          "indexed": false,
          "name": "maxRounds",
          "type": "uint256"
        }
      ],
      "name": "TournamentCreated",
      "type": "event"
    },
    {
      "anonymous": false,
      "inputs": [
        {
          "indexed": false,
          "name": "id",
          "type": "uint256"
        },
        {
          "indexed": false,
          "name": "sender",
          "type": "address"
        }
      ],
      "name": "QueryPerformed",
      "type": "event"
    },
    {
      "anonymous": false,
      "inputs": [
        {
          "indexed": false,
          "name": "storedResponse",
          "type": "uint256"
        }
      ],
      "name": "StoredResponse",
      "type": "event"
    },
    {
      "anonymous": false,
      "inputs": [
        {
          "indexed": false,
          "name": "newResponse",
          "type": "uint256"
        },
        {
          "indexed": false,
          "name": "oldResponse",
          "type": "uint256"
        }
      ],
      "name": "FailedToStore",
      "type": "event"
    }
  ],
  "bytecode": "0x6060604052336000806101000a81548173ffffffffffffffffffffffffffffffffffffffff021916908373ffffffffffffffffffffffffffffffffffffffff1602179055506141cc806100536000396000f300606060405260043610620000d3576000357c0100000000000000000000000000000000000000000000000000000000900463ffffffff16806312065fe014620000d857806322985f921462000104578063494d57bf14620001345780636e2b2c7c1462000229578063893d20e814620002555780638b72062a14620002ad5780638da5cb5b14620002f4578063c839984a146200034c578063d4a0182014620003b2578063d5f0efa014620003fb578063edee41d91462000453578063f2fde38b1462000479578063f7468a3c14620004b5575b600080fd5b3415620000e457600080fd5b620000ee62000531565b6040518082815260200191505060405180910390f35b34156200011057600080fd5b6200011a62000548565b604051808215151515815260200191505060405180910390f35b34156200014057600080fd5b620001e7600480803590602001908201803590602001908080601f016020809104026020016040519081016040528093929190818152602001838380828437820191505050505050919080356000191690602001909190803590602001909190803590602001909190803590602001909190803590602001909190803590602001909190803590602001909190803590602001909190803590602001909190505062000568565b604051808273ffffffffffffffffffffffffffffffffffffffff1673ffffffffffffffffffffffffffffffffffffffff16815260200191505060405180910390f35b34156200023557600080fd5b6200023f620008ab565b6040518082815260200191505060405180910390f35b34156200026157600080fd5b6200026b620008b8565b604051808273ffffffffffffffffffffffffffffffffffffffff1673ffffffffffffffffffffffffffffffffffffffff16815260200191505060405180910390f35b3415620002b957600080fd5b620002da6004808035906020019091908035906020019091905050620008e1565b604051808215151515815260200191505060405180910390f35b34156200030057600080fd5b6200030a62000a37565b604051808273ffffffffffffffffffffffffffffffffffffffff1673ffffffffffffffffffffffffffffffffffffffff16815260200191505060405180910390f35b34156200035857600080fd5b62000370600480803590602001909190505062000a5c565b604051808273ffffffffffffffffffffffffffffffffffffffff1673ffffffffffffffffffffffffffffffffffffffff16815260200191505060405180910390f35b3415620003be57600080fd5b620003f960048080356000191690602001909190803573ffffffffffffffffffffffffffffffffffffffff1690602001909190505062000a9c565b005b34156200040757600080fd5b62000435600480803573ffffffffffffffffffffffffffffffffffffffff1690602001909190505062000db2565b60405180826000191660001916815260200191505060405180910390f35b34156200045f57600080fd5b62000477600480803590602001909190505062000ea8565b005b34156200048557600080fd5b620004b3600480803573ffffffffffffffffffffffffffffffffffffffff1690602001909190505062000f6e565b005b3415620004c157600080fd5b620004ef600480803573ffffffffffffffffffffffffffffffffffffffff169060200190919050506200104a565b604051808273ffffffffffffffffffffffffffffffffffffffff1673ffffffffffffffffffffffffffffffffffffffff16815260200191505060405180910390f35b6000806200053f336200111e565b90508091505090565b600080600062000558336200111e565b9150600082119050809250505090565b60008060008060009054906101000a900473ffffffffffffffffffffffffffffffffffffffff1673ffffffffffffffffffffffffffffffffffffffff163373ffffffffffffffffffffffffffffffffffffffff16141515620005c957600080fd5b60019150338d8d8d8d8d8d8d8d8d8d620005e262001185565b808c73ffffffffffffffffffffffffffffffffffffffff1673ffffffffffffffffffffffffffffffffffffffff168152602001806020018b600019166000191681526020018a815260200189815260200188815260200187815260200186815260200185815260200184815260200183815260200182810382528c818151815260200191508051906020019080838360005b838110156200069157808201518184015260208101905062000674565b50505050905090810190601f168015620006bf5780820380516001836020036101000a031916815260200191505b509c50505050505050505050505050604051809103906000f0801515620006e557600080fd5b90507f62235684a0241c583d94a716557d3ea77772fb6eff554e07c6f226241d71428733828f8f8e8e8e8e8e8e8e604051808c73ffffffffffffffffffffffffffffffffffffffff1673ffffffffffffffffffffffffffffffffffffffff1681526020018b73ffffffffffffffffffffffffffffffffffffffff1673ffffffffffffffffffffffffffffffffffffffff168152602001806020018a6000191660001916815260200189815260200188815260200187815260200186815260200185815260200184815260200183815260200182810382528b818151815260200191508051906020019080838360005b83811015620007f1578082015181840152602081019050620007d4565b50505050905090810190601f1680156200081f5780820380516001836020036101000a031916815260200191505b509c5050505050505050505050505060405180910390a1600480548060010182816200084c919062001196565b9160005260206000209001600083909190916101000a81548173ffffffffffffffffffffffffffffffffffffffff021916908373ffffffffffffffffffffffffffffffffffffffff1602179055505050509a9950505050505050505050565b6000600480549050905090565b60008060009054906101000a900473ffffffffffffffffffffffffffffffffffffffff16905090565b6000806000809054906101000a900473ffffffffffffffffffffffffffffffffffffffff1673ffffffffffffffffffffffffffffffffffffffff163373ffffffffffffffffffffffffffffffffffffffff161415156200094057600080fd5b60036000858152602001908152602001600020549050600083118015620009675750600081145b15620009d9578260036000868152602001908152602001600020819055507fae8527266ba82a48a206c6cbaa4634e0d5e70b8c6017ac015e19fa75664d557860036000868152602001908152602001600020546040518082815260200191505060405180910390a16001915062000a30565b7fe0ecffc2c891b346f2eeb89101dba4c5748fb0f27fd023b97cdcac60c0a1585c836003600087815260200190815260200160002054604051808381526020018281526020019250505060405180910390a1600091505b5092915050565b6000809054906101000a900473ffffffffffffffffffffffffffffffffffffffff1681565b60048181548110151562000a6c57fe5b90600052602060002090016000915054906101000a900473ffffffffffffffffffffffffffffffffffffffff1681565b6000806000600160008573ffffffffffffffffffffffffffffffffffffffff1673ffffffffffffffffffffffffffffffffffffffff16815260200190815260200160002060009054906101000a900473ffffffffffffffffffffffffffffffffffffffff1673ffffffffffffffffffffffffffffffffffffffff16111562000b8657600160008473ffffffffffffffffffffffffffffffffffffffff1673ffffffffffffffffffffffffffffffffffffffff16815260200190815260200160002060009054906101000a900473ffffffffffffffffffffffffffffffffffffffff16915062000c5f565b8262000b91620011c5565b808273ffffffffffffffffffffffffffffffffffffffff1673ffffffffffffffffffffffffffffffffffffffff168152602001915050604051809103906000f080151562000bde57600080fd5b915081600160008573ffffffffffffffffffffffffffffffffffffffff1673ffffffffffffffffffffffffffffffffffffffff16815260200190815260200160002060006101000a81548173ffffffffffffffffffffffffffffffffffffffff021916908373ffffffffffffffffffffffffffffffffffffffff1602179055505b8173ffffffffffffffffffffffffffffffffffffffff1663a3b61a9c856000604051602001526040518263ffffffff167c0100000000000000000000000000000000000000000000000000000000028152600401808260001916600019168152602001915050602060405180830381600087803b151562000cdf57600080fd5b6102c65a03f1151562000cf157600080fd5b50505060405180519050905080600260008573ffffffffffffffffffffffffffffffffffffffff1673ffffffffffffffffffffffffffffffffffffffff168152602001908152602001600020819055507f1c16af450a72e7153ed6faee28677e32f11936f8ab2e63322d032d1f753b5aea8184604051808381526020018273ffffffffffffffffffffffffffffffffffffffff1673ffffffffffffffffffffffffffffffffffffffff1681526020019250505060405180910390a150505050565b6000806000600560008573ffffffffffffffffffffffffffffffffffffffff1673ffffffffffffffffffffffffffffffffffffffff16815260200190815260200160002060009054906101000a900460ff16151562000e1057600080fd5b8391508173ffffffffffffffffffffffffffffffffffffffff16635c11a3e46000604051602001526040518163ffffffff167c0100000000000000000000000000000000000000000000000000000000028152600401602060405180830381600087803b151562000e8057600080fd5b6102c65a03f1151562000e9257600080fd5b5050506040518051905090508092505050919050565b3073ffffffffffffffffffffffffffffffffffffffff1663d4a0182082600102336040518363ffffffff167c01000000000000000000000000000000000000000000000000000000000281526004018083600019166000191681526020018273ffffffffffffffffffffffffffffffffffffffff1673ffffffffffffffffffffffffffffffffffffffff16815260200192505050600060405180830381600087803b151562000f5657600080fd5b6102c65a03f1151562000f6857600080fd5b50505050565b6000809054906101000a900473ffffffffffffffffffffffffffffffffffffffff1673ffffffffffffffffffffffffffffffffffffffff163373ffffffffffffffffffffffffffffffffffffffff1614151562000fca57600080fd5b600073ffffffffffffffffffffffffffffffffffffffff168173ffffffffffffffffffffffffffffffffffffffff16141515156200100757600080fd5b806000806101000a81548173ffffffffffffffffffffffffffffffffffffffff021916908373ffffffffffffffffffffffffffffffffffffffff16021790555050565b60008060008391508173ffffffffffffffffffffffffffffffffffffffff166328d576d7336000604051602001526040518263ffffffff167c0100000000000000000000000000000000000000000000000000000000028152600401808273ffffffffffffffffffffffffffffffffffffffff1673ffffffffffffffffffffffffffffffffffffffff168152602001915050602060405180830381600087803b1515620010f657600080fd5b6102c65a03f115156200110857600080fd5b5050506040518051905090508092505050919050565b6000806000600260008573ffffffffffffffffffffffffffffffffffffffff1673ffffffffffffffffffffffffffffffffffffffff168152602001908152602001600020549150600360008381526020019081526020016000205490508092505050919050565b604051612cc380620011ff83390190565b815481835581811511620011c057818360005260206000209182019101620011bf9190620011d6565b5b505050565b6040516102df8062003ec283390190565b620011fb91905b80821115620011f7576000816000905550600101620011dd565b5090565b90560060606040526001600d5534156200001557600080fd5b60405162002cc338038062002cc383398101604052808051906020019091908051820191906020018051906020019091908051906020019091908051906020019091908051906020019091908051906020019091908051906020019091908051906020019091908051906020019091908051906020019091905050336000806101000a81548173ffffffffffffffffffffffffffffffffffffffff021916908373ffffffffffffffffffffffffffffffffffffffff16021790555060008b73ffffffffffffffffffffffffffffffffffffffff1614151515620000f757600080fd5b620001168a620002eb64010000000002620008ae176401000000009004565b1515156200012357600080fd5b4288101515156200013357600080fd5b42861115156200014257600080fd5b600085141515156200015357600080fd5b42841115156200016257600080fd5b6000831115156200017257600080fd5b600082101515156200018357600080fd5b600081101515156200019457600080fd5b33600160006101000a81548173ffffffffffffffffffffffffffffffffffffffff021916908373ffffffffffffffffffffffffffffffffffffffff160217905550426006819055508a600360006101000a81548173ffffffffffffffffffffffffffffffffffffffff021916908373ffffffffffffffffffffffffffffffffffffffff1602179055508960049080519060200190620002359291906200031a565b50886005816000191690555087600781905550866008819055508560098190555084600a8190555083600b8190555082600f8190555081600c8190555080600d8190555062000283620003a1565b604051809103906000f08015156200029a57600080fd5b601360006101000a81548173ffffffffffffffffffffffffffffffffffffffff021916908373ffffffffffffffffffffffffffffffffffffffff1602179055505050505050505050505050620003ee565b6000620002f7620003b2565b8290506000815114156200030f576001915062000314565b600091505b50919050565b828054600181600116156101000203166002900490600052602060002090601f016020900481019282601f106200035d57805160ff19168380011785556200038e565b828001600101855582156200038e579182015b828111156200038d57825182559160200191906001019062000370565b5b5090506200039d9190620003c6565b5090565b604051610324806200299f83390190565b602060405190810160405280600081525090565b620003eb91905b80821115620003e7576000816000905550600101620003cd565b5090565b90565b6125a180620003fe6000396000f3006060604052600436106200016f576000357c0100000000000000000000000000000000000000000000000000000000900463ffffffff168063072ea61c14620001745780631147659914620001a057806316bffb3b14620001d05780631faf969b14620001fc5780632678e7cf146200022857806328d576d714620002a05780632f54bf6e146200031c5780633b2498101462000370578063563b39dc146200039c57806358a5b0f614620003f45780635c11a3e414620004205780635cb116bd146200045457806380ce04e8146200048057806384c7dee314620004985780638a19c8bc14620004b05780638da5cb5b14620004dc578063a21190d21462000534578063a43628f614620005c8578063af45718b14620005e0578063dbe55e56146200070d578063dd4f8f741462000765578063e40205d61462000791578063e586a4f014620007bd578063e70347bb14620007e9578063f1653f6e146200081d578063f2fde38b1462000849575b600080fd5b34156200018057600080fd5b6200018a62000885565b6040518082815260200191505060405180910390f35b3415620001ac57600080fd5b620001b66200088b565b604051808215151515815260200191505060405180910390f35b3415620001dc57600080fd5b620001e6620008a2565b6040518082815260200191505060405180910390f35b34156200020857600080fd5b62000212620008a8565b6040518082815260200191505060405180910390f35b34156200023457600080fd5b62000286600480803590602001908201803590602001908080601f01602080910402602001604051908101604052809392919081815260200183838082843782019150505050505091905050620008ae565b604051808215151515815260200191505060405180910390f35b3415620002ac57600080fd5b620002da600480803573ffffffffffffffffffffffffffffffffffffffff16906020019091905050620008dd565b604051808273ffffffffffffffffffffffffffffffffffffffff1673ffffffffffffffffffffffffffffffffffffffff16815260200191505060405180910390f35b34156200032857600080fd5b62000356600480803573ffffffffffffffffffffffffffffffffffffffff16906020019091905050620009be565b604051808215151515815260200191505060405180910390f35b34156200037c57600080fd5b6200038662000a1c565b6040518082815260200191505060405180910390f35b3415620003a857600080fd5b620003b262000a22565b604051808273ffffffffffffffffffffffffffffffffffffffff1673ffffffffffffffffffffffffffffffffffffffff16815260200191505060405180910390f35b34156200040057600080fd5b6200040a62000a48565b6040518082815260200191505060405180910390f35b34156200042c57600080fd5b6200043662000a4e565b60405180826000191660001916815260200191505060405180910390f35b34156200046057600080fd5b6200046a62000a58565b6040518082815260200191505060405180910390f35b34156200048c57600080fd5b6200049662000a5e565b005b3415620004a457600080fd5b620004ae62000ad7565b005b3415620004bc57600080fd5b620004c662000ad9565b6040518082815260200191505060405180910390f35b3415620004e857600080fd5b620004f262000adf565b604051808273ffffffffffffffffffffffffffffffffffffffff1673ffffffffffffffffffffffffffffffffffffffff16815260200191505060405180910390f35b34156200054057600080fd5b6200054a62000b04565b6040518080602001828103825283818151815260200191508051906020019080838360005b838110156200058c5780820151818401526020810190506200056f565b50505050905090810190601f168015620005ba5780820380516001836020036101000a031916815260200191505b509250505060405180910390f35b3415620005d457600080fd5b620005de62000ba6565b005b3415620005ec57600080fd5b620006cb600480803590602001908201803590602001908080601f0160208091040260200160405190810160405280939291908181526020018383808284378201915050505050509190803560001916906020019091908035906020019082018035906020019080806020026020016040519081016040528093929190818152602001838360200280828437820191505050505050919080359060200190820180359060200190808060200260200160405190810160405280939291908181526020018383602002808284378201915050505050509190505062000c1f565b604051808273ffffffffffffffffffffffffffffffffffffffff1673ffffffffffffffffffffffffffffffffffffffff16815260200191505060405180910390f35b34156200071957600080fd5b62000723620010c5565b604051808273ffffffffffffffffffffffffffffffffffffffff1673ffffffffffffffffffffffffffffffffffffffff16815260200191505060405180910390f35b34156200077157600080fd5b6200077b620010eb565b6040518082815260200191505060405180910390f35b34156200079d57600080fd5b620007a7620010f1565b6040518082815260200191505060405180910390f35b3415620007c957600080fd5b620007d3620010f7565b6040518082815260200191505060405180910390f35b3415620007f557600080fd5b620007ff62001101565b60405180826000191660001916815260200191505060405180910390f35b34156200082957600080fd5b6200083362001107565b6040518082815260200191505060405180910390f35b34156200085557600080fd5b62000883600480803573ffffffffffffffffffffffffffffffffffffffff169060200190919050506200110d565b005b60105481565b6000600e60009054906101000a900460ff16905090565b600f5481565b600d5481565b6000620008ba620011e9565b829050600081511415620008d25760019150620008d7565b600091505b50919050565b60003373ffffffffffffffffffffffffffffffffffffffff16600160009054906101000a900473ffffffffffffffffffffffffffffffffffffffff1673ffffffffffffffffffffffffffffffffffffffff161415156200093c57600080fd5b6001601460008473ffffffffffffffffffffffffffffffffffffffff1673ffffffffffffffffffffffffffffffffffffffff16815260200190815260200160002060006101000a81548160ff021916908315150217905550601360009054906101000a900473ffffffffffffffffffffffffffffffffffffffff169050919050565b6000806000809054906101000a900473ffffffffffffffffffffffffffffffffffffffff1673ffffffffffffffffffffffffffffffffffffffff168373ffffffffffffffffffffffffffffffffffffffff1614905080915050919050565b600a5481565b600360009054906101000a900473ffffffffffffffffffffffffffffffffffffffff1681565b60075481565b6000600554905090565b600b5481565b6000809054906101000a900473ffffffffffffffffffffffffffffffffffffffff1673ffffffffffffffffffffffffffffffffffffffff163373ffffffffffffffffffffffffffffffffffffffff1614151562000aba57600080fd5b6001600e60006101000a81548160ff021916908315150217905550565b565b600c5481565b6000809054906101000a900473ffffffffffffffffffffffffffffffffffffffff1681565b60048054600181600116156101000203166002900480601f01602080910402602001604051908101604052809291908181526020018280546001816001161561010002031660029004801562000b9e5780601f1062000b725761010080835404028352916020019162000b9e565b820191906000526020600020905b81548152906001019060200180831162000b8057829003601f168201915b505050505081565b6000809054906101000a900473ffffffffffffffffffffffffffffffffffffffff1673ffffffffffffffffffffffffffffffffffffffff163373ffffffffffffffffffffffffffffffffffffffff1614151562000c0257600080fd5b6000600e60006101000a81548160ff021916908315150217905550565b600080600080601460003373ffffffffffffffffffffffffffffffffffffffff1673ffffffffffffffffffffffffffffffffffffffff16815260200190815260200160002060009054906101000a900460ff16905080151562000c8157600080fd5b6001151562000c8f57600080fd5b6001151562000c9d57600080fd5b42925030600360009054906101000a900473ffffffffffffffffffffffffffffffffffffffff16338a8a8a8a8960095462000cd7620011fd565b808a73ffffffffffffffffffffffffffffffffffffffff1673ffffffffffffffffffffffffffffffffffffffff1681526020018973ffffffffffffffffffffffffffffffffffffffff1673ffffffffffffffffffffffffffffffffffffffff1681526020018873ffffffffffffffffffffffffffffffffffffffff1673ffffffffffffffffffffffffffffffffffffffff168152602001806020018760001916600019168152602001806020018060200186815260200185815260200184810384528a818151815260200191508051906020019080838360005b8381101562000dce57808201518184015260208101905062000db1565b50505050905090810190601f16801562000dfc5780820380516001836020036101000a031916815260200191505b50848103835288818151815260200191508051906020019060200280838360005b8381101562000e3a57808201518184015260208101905062000e1d565b50505050905001848103825287818151815260200191508051906020019060200280838360005b8381101562000e7e57808201518184015260208101905062000e61565b505050509050019c50505050505050505050505050604051809103906000f080151562000eaa57600080fd5b9150876002908051906020019062000ec49291906200120e565b50601360009054906101000a900473ffffffffffffffffffffffffffffffffffffffff1673ffffffffffffffffffffffffffffffffffffffff166345ef219989600554898988336040518763ffffffff167c01000000000000000000000000000000000000000000000000000000000281526004018080602001876000191660001916815260200180602001806020018681526020018573ffffffffffffffffffffffffffffffffffffffff1673ffffffffffffffffffffffffffffffffffffffff16815260200184810384528a818151815260200191508051906020019080838360005b8381101562000fc657808201518184015260208101905062000fa9565b50505050905090810190601f16801562000ff45780820380516001836020036101000a031916815260200191505b50848103835288818151815260200191508051906020019060200280838360005b838110156200103257808201518184015260208101905062001015565b50505050905001848103825287818151815260200191508051906020019060200280838360005b838110156200107657808201518184015260208101905062001059565b505050509050019950505050505050505050600060405180830381600087803b1515620010a257600080fd5b6102c65a03f11515620010b457600080fd5b505050819350505050949350505050565b600160009054906101000a900473ffffffffffffffffffffffffffffffffffffffff1681565b60085481565b60095481565b6000601054905090565b60055481565b60065481565b6000809054906101000a900473ffffffffffffffffffffffffffffffffffffffff1673ffffffffffffffffffffffffffffffffffffffff163373ffffffffffffffffffffffffffffffffffffffff161415156200116957600080fd5b600073ffffffffffffffffffffffffffffffffffffffff168173ffffffffffffffffffffffffffffffffffffffff1614151515620011a657600080fd5b806000806101000a81548173ffffffffffffffffffffffffffffffffffffffff021916908373ffffffffffffffffffffffffffffffffffffffff16021790555050565b602060405190810160405280600081525090565b6040516112b880620012be83390190565b828054600181600116156101000203166002900490600052602060002090601f016020900481019282601f106200125157805160ff191683800117855562001282565b8280016001018555821562001282579182015b828111156200128157825182559160200191906001019062001264565b5b50905062001291919062001295565b5090565b620012ba91905b80821115620012b65760008160009055506001016200129c565b5090565b9056006060604052341561000f57600080fd5b604051620012b8380380620012b883398101604052808051906020019091908051906020019091908051906020019091908051820191906020018051906020019091908051820191906020018051820191906020018051906020019091908051906020019091905050336000806101000a81548173ffffffffffffffffffffffffffffffffffffffff021916908373ffffffffffffffffffffffffffffffffffffffff16021790555060008773ffffffffffffffffffffffffffffffffffffffff16141515156100de57600080fd5b88600160006101000a81548173ffffffffffffffffffffffffffffffffffffffff021916908373ffffffffffffffffffffffffffffffffffffffff16021790555087600260006101000a81548173ffffffffffffffffffffffffffffffffffffffff021916908373ffffffffffffffffffffffffffffffffffffffff16021790555086600360006101000a81548173ffffffffffffffffffffffffffffffffffffffff021916908373ffffffffffffffffffffffffffffffffffffffff16021790555083600490805190602001906101b79291906101f6565b5082600590805190602001906101ce9291906101f6565b50846006816000191690555081600781905550806008819055505050505050505050506102c3565b82805482825590600052602060002090810192821561026f579160200282015b8281111561026e5782518260006101000a81548173ffffffffffffffffffffffffffffffffffffffff021916908373ffffffffffffffffffffffffffffffffffffffff16021790555091602001919060010190610216565b5b50905061027c9190610280565b5090565b6102c091905b808211156102bc57600081816101000a81549073ffffffffffffffffffffffffffffffffffffffff021916905550600101610286565b5090565b90565b610fe580620002d36000396000f3006060604052600436106100ba576000357c0100000000000000000000000000000000000000000000000000000000900463ffffffff16806303d66a97146100bf578063433bcd6114610114578063563b39dc146101695780635c11a3e4146101be5780637a6337fa146101ef5780638da5cb5b146102595780639ba1941b146102ae578063ae1ca692146102d7578063af157c1914610300578063f2fde38b1461036a578063f5c758d6146103a3578063f73c970f146103b8575b600080fd5b34156100ca57600080fd5b6100d261040d565b604051808273ffffffffffffffffffffffffffffffffffffffff1673ffffffffffffffffffffffffffffffffffffffff16815260200191505060405180910390f35b341561011f57600080fd5b610127610433565b604051808273ffffffffffffffffffffffffffffffffffffffff1673ffffffffffffffffffffffffffffffffffffffff16815260200191505060405180910390f35b341561017457600080fd5b61017c610604565b604051808273ffffffffffffffffffffffffffffffffffffffff1673ffffffffffffffffffffffffffffffffffffffff16815260200191505060405180910390f35b34156101c957600080fd5b6101d161062a565b60405180826000191660001916815260200191505060405180910390f35b34156101fa57600080fd5b6102026107db565b6040518080602001828103825283818151815260200191508051906020019060200280838360005b8381101561024557808201518184015260208101905061022a565b505050509050019250505060405180910390f35b341561026457600080fd5b61026c610a16565b604051808273ffffffffffffffffffffffffffffffffffffffff1673ffffffffffffffffffffffffffffffffffffffff16815260200191505060405180910390f35b34156102b957600080fd5b6102c1610a3b565b6040518082815260200191505060405180910390f35b34156102e257600080fd5b6102ea610a41565b6040518082815260200191505060405180910390f35b341561030b57600080fd5b610313610bf2565b6040518080602001828103825283818151815260200191508051906020019060200280838360005b8381101561035657808201518184015260208101905061033b565b505050509050019250505060405180910390f35b341561037557600080fd5b6103a1600480803573ffffffffffffffffffffffffffffffffffffffff16906020019091905050610e2d565b005b34156103ae57600080fd5b6103b6610f07565b005b34156103c357600080fd5b6103cb610f7f565b604051808273ffffffffffffffffffffffffffffffffffffffff1673ffffffffffffffffffffffffffffffffffffffff16815260200191505060405180910390f35b600160009054906101000a900473ffffffffffffffffffffffffffffffffffffffff1681565b6000806000806000600160009054906101000a900473ffffffffffffffffffffffffffffffffffffffff1693508373ffffffffffffffffffffffffffffffffffffffff16632f54bf6e336000604051602001526040518263ffffffff167c0100000000000000000000000000000000000000000000000000000000028152600401808273ffffffffffffffffffffffffffffffffffffffff1673ffffffffffffffffffffffffffffffffffffffff168152602001915050602060405180830381600087803b151561050357600080fd5b6102c65a03f1151561051457600080fd5b505050604051805190509250600960009054906101000a900460ff1691508373ffffffffffffffffffffffffffffffffffffffff1663114765996000604051602001526040518163ffffffff167c0100000000000000000000000000000000000000000000000000000000028152600401602060405180830381600087803b151561059e57600080fd5b6102c65a03f115156105af57600080fd5b5050506040518051905015905082806105c55750815b806105cd5750805b15156105d857600080fd5b600360009054906101000a900473ffffffffffffffffffffffffffffffffffffffff1694505050505090565b600260009054906101000a900473ffffffffffffffffffffffffffffffffffffffff1681565b6000806000806000600160009054906101000a900473ffffffffffffffffffffffffffffffffffffffff1693508373ffffffffffffffffffffffffffffffffffffffff16632f54bf6e336000604051602001526040518263ffffffff167c0100000000000000000000000000000000000000000000000000000000028152600401808273ffffffffffffffffffffffffffffffffffffffff1673ffffffffffffffffffffffffffffffffffffffff168152602001915050602060405180830381600087803b15156106fa57600080fd5b6102c65a03f1151561070b57600080fd5b505050604051805190509250600960009054906101000a900460ff1691508373ffffffffffffffffffffffffffffffffffffffff1663114765996000604051602001526040518163ffffffff167c0100000000000000000000000000000000000000000000000000000000028152600401602060405180830381600087803b151561079557600080fd5b6102c65a03f115156107a657600080fd5b5050506040518051905015905082806107bc5750815b806107c45750805b15156107cf57600080fd5b60065494505050505090565b6107e3610fa5565b600080600080600160009054906101000a900473ffffffffffffffffffffffffffffffffffffffff1693508373ffffffffffffffffffffffffffffffffffffffff16632f54bf6e336000604051602001526040518263ffffffff167c0100000000000000000000000000000000000000000000000000000000028152600401808273ffffffffffffffffffffffffffffffffffffffff1673ffffffffffffffffffffffffffffffffffffffff168152602001915050602060405180830381600087803b15156108b157600080fd5b6102c65a03f115156108c257600080fd5b505050604051805190509250600960009054906101000a900460ff1691508373ffffffffffffffffffffffffffffffffffffffff1663114765996000604051602001526040518163ffffffff167c0100000000000000000000000000000000000000000000000000000000028152600401602060405180830381600087803b151561094c57600080fd5b6102c65a03f1151561095d57600080fd5b5050506040518051905015905082806109735750815b8061097b5750805b151561098657600080fd5b6004805480602002602001604051908101604052809291908181526020018280548015610a0857602002820191906000526020600020905b8160009054906101000a900473ffffffffffffffffffffffffffffffffffffffff1673ffffffffffffffffffffffffffffffffffffffff16815260200190600101908083116109be575b505050505094505050505090565b6000809054906101000a900473ffffffffffffffffffffffffffffffffffffffff1681565b60075481565b6000806000806000600160009054906101000a900473ffffffffffffffffffffffffffffffffffffffff1693508373ffffffffffffffffffffffffffffffffffffffff16632f54bf6e336000604051602001526040518263ffffffff167c0100000000000000000000000000000000000000000000000000000000028152600401808273ffffffffffffffffffffffffffffffffffffffff1673ffffffffffffffffffffffffffffffffffffffff168152602001915050602060405180830381600087803b1515610b1157600080fd5b6102c65a03f11515610b2257600080fd5b505050604051805190509250600960009054906101000a900460ff1691508373ffffffffffffffffffffffffffffffffffffffff1663114765996000604051602001526040518163ffffffff167c0100000000000000000000000000000000000000000000000000000000028152600401602060405180830381600087803b1515610bac57600080fd5b6102c65a03f11515610bbd57600080fd5b505050604051805190501590508280610bd35750815b80610bdb5750805b1515610be657600080fd5b60075494505050505090565b610bfa610fa5565b600080600080600160009054906101000a900473ffffffffffffffffffffffffffffffffffffffff1693508373ffffffffffffffffffffffffffffffffffffffff16632f54bf6e336000604051602001526040518263ffffffff167c0100000000000000000000000000000000000000000000000000000000028152600401808273ffffffffffffffffffffffffffffffffffffffff1673ffffffffffffffffffffffffffffffffffffffff168152602001915050602060405180830381600087803b1515610cc857600080fd5b6102c65a03f11515610cd957600080fd5b505050604051805190509250600960009054906101000a900460ff1691508373ffffffffffffffffffffffffffffffffffffffff1663114765996000604051602001526040518163ffffffff167c0100000000000000000000000000000000000000000000000000000000028152600401602060405180830381600087803b1515610d6357600080fd5b6102c65a03f11515610d7457600080fd5b505050604051805190501590508280610d8a5750815b80610d925750805b1515610d9d57600080fd5b6005805480602002602001604051908101604052809291908181526020018280548015610e1f57602002820191906000526020600020905b8160009054906101000a900473ffffffffffffffffffffffffffffffffffffffff1673ffffffffffffffffffffffffffffffffffffffff1681526020019060010190808311610dd5575b505050505094505050505090565b6000809054906101000a900473ffffffffffffffffffffffffffffffffffffffff1673ffffffffffffffffffffffffffffffffffffffff163373ffffffffffffffffffffffffffffffffffffffff16141515610e8857600080fd5b600073ffffffffffffffffffffffffffffffffffffffff168173ffffffffffffffffffffffffffffffffffffffff1614151515610ec457600080fd5b806000806101000a81548173ffffffffffffffffffffffffffffffffffffffff021916908373ffffffffffffffffffffffffffffffffffffffff16021790555050565b6000809054906101000a900473ffffffffffffffffffffffffffffffffffffffff1673ffffffffffffffffffffffffffffffffffffffff163373ffffffffffffffffffffffffffffffffffffffff16141515610f6257600080fd5b6001600960006101000a81548160ff021916908315150217905550565b600360009054906101000a900473ffffffffffffffffffffffffffffffffffffffff1681565b6020604051908101604052806000815250905600a165627a7a7230582049b2ac84be3401f5b9591f8751811991fccb1646617e8fc18c67648c6607afd60029a165627a7a7230582023e614e26115d9c87fc5aaa82ebc7cd7e331c71a0b7c4de71f288bfd2225d1fd00296060604052341561000f57600080fd5b6103068061001e6000396000f300606060405260043610610041576000357c0100000000000000000000000000000000000000000000000000000000900463ffffffff16806345ef219914610046575b600080fd5b341561005157600080fd5b610156600480803590602001908201803590602001908080601f0160208091040260200160405190810160405280939291908181526020018383808284378201915050505050509190803560001916906020019091908035906020019082018035906020019080806020026020016040519081016040528093929190818152602001838360200280828437820191505050505050919080359060200190820180359060200190808060200260200160405190810160405280939291908181526020018383602002808284378201915050505050509190803590602001909190803573ffffffffffffffffffffffffffffffffffffffff16906020019091905050610158565b005b7ffc989a9618eb34fd6e0f6e0058fa2bd0eac01d863f6626a767b4d8ec647c501c8686868686866040518080602001876000191660001916815260200180602001806020018681526020018573ffffffffffffffffffffffffffffffffffffffff1673ffffffffffffffffffffffffffffffffffffffff16815260200184810384528a818151815260200191508051906020019080838360005b8381101561020d5780820151818401526020810190506101f2565b50505050905090810190601f16801561023a5780820380516001836020036101000a031916815260200191505b50848103835288818151815260200191508051906020019060200280838360005b8381101561027657808201518184015260208101905061025b565b50505050905001848103825287818151815260200191508051906020019060200280838360005b838110156102b857808201518184015260208101905061029d565b50505050905001995050505050505050505060405180910390a15050505050505600a165627a7a723058206c5cc57f30a8a134349894188ffcf72b473aa781322d411edb23bc7f113e0be300296060604052341561000f57600080fd5b6040516020806102df83398101604052808051906020019091905050336000806101000a81548173ffffffffffffffffffffffffffffffffffffffff021916908373ffffffffffffffffffffffffffffffffffffffff16021790555080600160006101000a81548173ffffffffffffffffffffffffffffffffffffffff021916908373ffffffffffffffffffffffffffffffffffffffff16021790555050610223806100bc6000396000f30060606040526004361061004c576000357c0100000000000000000000000000000000000000000000000000000000900463ffffffff16806341c0e1b514610051578063a3b61a9c14610066575b600080fd5b341561005c57600080fd5b6100646100a1565b005b341561007157600080fd5b61008b600480803560001916906020019091905050610115565b6040518082815260200191505060405180910390f35b6000809054906101000a900473ffffffffffffffffffffffffffffffffffffffff1673ffffffffffffffffffffffffffffffffffffffff163373ffffffffffffffffffffffffffffffffffffffff161415156100fc57600080fd5b3373ffffffffffffffffffffffffffffffffffffffff16ff5b60008060009054906101000a900473ffffffffffffffffffffffffffffffffffffffff1673ffffffffffffffffffffffffffffffffffffffff163373ffffffffffffffffffffffffffffffffffffffff1614151561017257600080fd5b434283336040518085815260200184815260200183600019166000191681526020018273ffffffffffffffffffffffffffffffffffffffff1673ffffffffffffffffffffffffffffffffffffffff166c0100000000000000000000000002815260140194505050505060405180910390206001900460028190555060025490509190505600a165627a7a7230582013b067f0b8e098ba541997d524de03f6c2a7d6c53bbd793566fe1697129e189f0029a165627a7a72305820ab8f9727553ffb8230f4eef23818ed50e96163a06b4f2d6347a0e4db46125aba0029",
  "source": "pragma solidity ^0.4.18;\n\n//Import all necessary contracts\nimport './MatryxOracleMessenger.sol';\nimport './Tournament.sol';\nimport './Ownable.sol';\n\n//import submissions contract\n\n//Initialize the contract\ncontract MatryxPlatformAlphaMain is MatryxOracleMessenger{\n\n  event TournamentCreated(address tournamentOwner, address tournamentAddress, string tournamentName, bytes32  externalAddress, \n    uint256  startRoundTime, uint256  roundEndTime, uint256  reviewPeriod, uint256  endOfTournamentTime,\n    uint bountyMTX, uint currentRound, uint maxRounds);\n\n\t//Initialize variables\n  address[] public allTournaments; //convert into a map?\n  mapping(address=>bool) tournamentExists;\n  //TODO for when anyone can submit a tournament\n  // mapping(address => TournamentSubmitters) public submitters\n\n  // ----------------- MTX Balance Methods -----------------\n\n  // Prepares the user's balance (allowing them to use the platform)\n  function prepareBalance(uint256 toIgnore) public\n  {\n      this.Query(bytes32(toIgnore), msg.sender);\n  }\n\n  // Returns whether or not the user can use the platform\n  function balanceIsNonZero() public view returns (bool)\n  {\n      uint balance = latestResponseFromOracle(msg.sender);\n      bool nonZero = balance > 0;\n      return nonZero;\n  }\n\n  // Returns the user's balance\n  function getBalance() public constant returns (uint256)\n  {\n      uint256 balance = latestResponseFromOracle(msg.sender);\n      return balance;\n  }\n\n  // ----------------- Tournament Info Methods -----------------\n\n  // Gets a tournament by its address\n  function tournamentByAddress(address tournamentAddress) public returns (bytes32)\n  {\n      require(tournamentExists[tournamentAddress]);\n      Tournament t = Tournament(tournamentAddress);\n      bytes32 externalAddress = t.getExternalAddress();\n\n      return (externalAddress);\n  }\n\n  // Gets the total number of tournaments\n  function tournamentCount() public constant returns (uint256)\n  {\n      return allTournaments.length;\n  }\n\n  // ----------------- Tournament Entry Methods -----------------\n\n  // A function allowing the user to make submissions.\n  // This function charges the user MTX as an entry fee\n  // set by the tournament creator.\n  function enterTournament(address _tournamentAddress) public returns (address _submissionViewer)\n  {\n      Tournament tournament = Tournament(_tournamentAddress);\n      address submissionViewerAddress = tournament.enterUserInTournament(msg.sender);\n      return submissionViewerAddress;\n  }\n\n  // ----------------- Tournament Editing Methods -----------------\n  \n  //Create a new tournament if you own the contract ie: just Matrx Team for now.\n  function createTournament(string _tournamentName, bytes32 _externalAddress, uint256 _tournamentStartTime, uint256 _startRoundTime, uint256 _roundEndTime, uint256 _reviewPeriod, uint256 _endOfTournamentTime, uint256 _MTXReward, uint256 _currentRound, uint256 _maxRounds) public onlyOwner returns (address)\n  {\n    uint maxRounds = 1;\n    address newTournament = new Tournament(msg.sender, _tournamentName, _externalAddress, _tournamentStartTime, _startRoundTime, _roundEndTime, _reviewPeriod, _endOfTournamentTime, _MTXReward, _currentRound, _maxRounds);\n    TournamentCreated(msg.sender, newTournament, _tournamentName, _externalAddress, _startRoundTime, _roundEndTime, _reviewPeriod, _endOfTournamentTime, _MTXReward, _currentRound, _maxRounds);\n    allTournaments.push(newTournament);\n  }\n\n}",
  "sourcePath": "/Users/maxhoward/Desktop/Ethereum Development/Matryx AWS/Projects/matryx-alpha-source/contracts/MatryxPlatformAlphaMain.sol",
  "compiler": {
    "name": "solc",
    "version": "0.4.18+commit.9cf6e910.Emscripten.clang"
  },
  "schemaVersion": "1.0.1",
  "updatedAt": "2017-12-06T02:09:32.616Z"
}