{
  "contractName": "MatryxRound",
  "abi": [
    {
      "constant": true,
      "inputs": [],
      "name": "tournamentAddress",
      "outputs": [
        {
          "name": "",
          "type": "address"
        }
      ],
      "payable": false,
      "stateMutability": "view",
      "type": "function"
    },
    {
      "constant": true,
      "inputs": [],
      "name": "matryxTokenAddress",
      "outputs": [
        {
          "name": "",
          "type": "address"
        }
      ],
      "payable": false,
      "stateMutability": "view",
      "type": "function"
    },
    {
      "constant": true,
      "inputs": [
        {
          "name": "_sender",
          "type": "address"
        }
      ],
      "name": "isOwner",
      "outputs": [
        {
          "name": "_isOwner",
          "type": "bool"
        }
      ],
      "payable": false,
      "stateMutability": "view",
      "type": "function"
    },
    {
      "constant": true,
      "inputs": [],
      "name": "endTime",
      "outputs": [
        {
          "name": "",
          "type": "uint256"
        }
      ],
      "payable": false,
      "stateMutability": "view",
      "type": "function"
    },
    {
      "constant": true,
      "inputs": [],
      "name": "reviewPeriod",
      "outputs": [
        {
          "name": "",
          "type": "uint256"
        }
      ],
      "payable": false,
      "stateMutability": "view",
      "type": "function"
    },
    {
      "constant": true,
      "inputs": [],
      "name": "winningSubmission",
      "outputs": [
        {
          "name": "",
          "type": "address"
        }
      ],
      "payable": false,
      "stateMutability": "view",
      "type": "function"
    },
    {
      "constant": true,
      "inputs": [],
      "name": "nextRound",
      "outputs": [
        {
          "name": "",
          "type": "address"
        }
      ],
      "payable": false,
      "stateMutability": "view",
      "type": "function"
    },
    {
      "constant": true,
      "inputs": [],
      "name": "roundIndex",
      "outputs": [
        {
          "name": "",
          "type": "uint256"
        }
      ],
      "payable": false,
      "stateMutability": "view",
      "type": "function"
    },
    {
      "constant": true,
      "inputs": [],
      "name": "startTime",
      "outputs": [
        {
          "name": "",
          "type": "uint256"
        }
      ],
      "payable": false,
      "stateMutability": "view",
      "type": "function"
    },
    {
      "constant": true,
      "inputs": [],
      "name": "getOwner",
      "outputs": [
        {
          "name": "_owner",
          "type": "address"
        }
      ],
      "payable": false,
      "stateMutability": "view",
      "type": "function"
    },
    {
      "constant": true,
      "inputs": [],
      "name": "owner",
      "outputs": [
        {
          "name": "",
          "type": "address"
        }
      ],
      "payable": false,
      "stateMutability": "view",
      "type": "function"
    },
    {
      "constant": true,
      "inputs": [],
      "name": "bounty",
      "outputs": [
        {
          "name": "",
          "type": "uint256"
        }
      ],
      "payable": false,
      "stateMutability": "view",
      "type": "function"
    },
    {
      "constant": true,
      "inputs": [],
      "name": "matryxSubmissionFactoryAddress",
      "outputs": [
        {
          "name": "",
          "type": "address"
        }
      ],
      "payable": false,
      "stateMutability": "view",
      "type": "function"
    },
    {
      "constant": true,
      "inputs": [],
      "name": "previousRound",
      "outputs": [
        {
          "name": "",
          "type": "address"
        }
      ],
      "payable": false,
      "stateMutability": "view",
      "type": "function"
    },
    {
      "constant": true,
      "inputs": [],
      "name": "platformAddress",
      "outputs": [
        {
          "name": "",
          "type": "address"
        }
      ],
      "payable": false,
      "stateMutability": "view",
      "type": "function"
    },
    {
      "constant": false,
      "inputs": [
        {
          "name": "newOwner",
          "type": "address"
        }
      ],
      "name": "transferOwnership",
      "outputs": [],
      "payable": false,
      "stateMutability": "nonpayable",
      "type": "function"
    },
    {
      "inputs": [
        {
          "name": "_matryxTokenAddress",
          "type": "address"
        },
        {
          "name": "_platformAddress",
          "type": "address"
        },
        {
          "name": "_tournamentAddress",
          "type": "address"
        },
        {
          "name": "_matryxSubmissionFactoryAddress",
          "type": "address"
        },
        {
          "name": "_owner",
          "type": "address"
        },
        {
          "name": "_bounty",
          "type": "uint256"
        }
      ],
      "payable": false,
      "stateMutability": "nonpayable",
      "type": "constructor"
    },
    {
      "constant": false,
      "inputs": [
        {
          "name": "_submissionAddress",
          "type": "address"
        }
      ],
      "name": "removeSubmission",
      "outputs": [
        {
          "name": "",
          "type": "bool"
        }
      ],
      "payable": false,
      "stateMutability": "nonpayable",
      "type": "function"
    },
    {
      "constant": true,
      "inputs": [],
      "name": "isOpen",
      "outputs": [
        {
          "name": "",
          "type": "bool"
        }
      ],
      "payable": false,
      "stateMutability": "view",
      "type": "function"
    },
    {
      "constant": true,
      "inputs": [],
      "name": "isInReview",
      "outputs": [
        {
          "name": "",
          "type": "bool"
        }
      ],
      "payable": false,
      "stateMutability": "view",
      "type": "function"
    },
    {
      "constant": true,
      "inputs": [
        {
          "name": "_index",
          "type": "uint256"
        }
      ],
      "name": "submissionIsAccessible",
      "outputs": [
        {
          "name": "",
          "type": "bool"
        }
      ],
      "payable": false,
      "stateMutability": "view",
      "type": "function"
    },
    {
      "constant": true,
      "inputs": [
        {
          "name": "_requester",
          "type": "address"
        }
      ],
      "name": "requesterIsContributor",
      "outputs": [
        {
          "name": "",
          "type": "bool"
        }
      ],
      "payable": false,
      "stateMutability": "view",
      "type": "function"
    },
    {
      "constant": false,
      "inputs": [
        {
          "name": "_participantAddress",
          "type": "address"
        },
        {
          "name": "_type",
          "type": "uint256"
        }
      ],
      "name": "setParticipantType",
      "outputs": [],
      "payable": false,
      "stateMutability": "nonpayable",
      "type": "function"
    },
    {
      "constant": true,
      "inputs": [],
      "name": "getPlatform",
      "outputs": [
        {
          "name": "",
          "type": "address"
        }
      ],
      "payable": false,
      "stateMutability": "view",
      "type": "function"
    },
    {
      "constant": true,
      "inputs": [],
      "name": "getTournament",
      "outputs": [
        {
          "name": "",
          "type": "address"
        }
      ],
      "payable": false,
      "stateMutability": "view",
      "type": "function"
    },
    {
      "constant": true,
      "inputs": [],
      "name": "getBounty",
      "outputs": [
        {
          "name": "",
          "type": "uint256"
        }
      ],
      "payable": false,
      "stateMutability": "view",
      "type": "function"
    },
    {
      "constant": true,
      "inputs": [],
      "name": "getTokenAddress",
      "outputs": [
        {
          "name": "",
          "type": "address"
        }
      ],
      "payable": false,
      "stateMutability": "view",
      "type": "function"
    },
    {
      "constant": true,
      "inputs": [],
      "name": "getSubmissions",
      "outputs": [
        {
          "name": "_submissions",
          "type": "address[]"
        }
      ],
      "payable": false,
      "stateMutability": "view",
      "type": "function"
    },
    {
      "constant": true,
      "inputs": [
        {
          "name": "_index",
          "type": "uint256"
        }
      ],
      "name": "getSubmissionAddress",
      "outputs": [
        {
          "name": "_submissionAddress",
          "type": "address"
        }
      ],
      "payable": false,
      "stateMutability": "view",
      "type": "function"
    },
    {
      "constant": true,
      "inputs": [
        {
          "name": "_index",
          "type": "uint256"
        }
      ],
      "name": "getSubmissionAuthor",
      "outputs": [
        {
          "name": "",
          "type": "address"
        }
      ],
      "payable": false,
      "stateMutability": "view",
      "type": "function"
    },
    {
      "constant": true,
      "inputs": [
        {
          "name": "_submissionAddress",
          "type": "address"
        }
      ],
      "name": "getBalance",
      "outputs": [
        {
          "name": "",
          "type": "uint256"
        }
      ],
      "payable": false,
      "stateMutability": "view",
      "type": "function"
    },
    {
      "constant": true,
      "inputs": [],
      "name": "submissionChosen",
      "outputs": [
        {
          "name": "",
          "type": "bool"
        }
      ],
      "payable": false,
      "stateMutability": "view",
      "type": "function"
    },
    {
      "constant": true,
      "inputs": [],
      "name": "getWinningSubmissionAddress",
      "outputs": [
        {
          "name": "",
          "type": "address"
        }
      ],
      "payable": false,
      "stateMutability": "view",
      "type": "function"
    },
    {
      "constant": true,
      "inputs": [],
      "name": "numberOfSubmissions",
      "outputs": [
        {
          "name": "",
          "type": "uint256"
        }
      ],
      "payable": false,
      "stateMutability": "view",
      "type": "function"
    },
    {
      "constant": false,
      "inputs": [
        {
          "name": "_duration",
          "type": "uint256"
        },
        {
          "name": "_reviewPeriod",
          "type": "uint256"
        }
      ],
      "name": "Start",
      "outputs": [],
      "payable": false,
      "stateMutability": "nonpayable",
      "type": "function"
    },
    {
      "constant": false,
      "inputs": [
        {
          "name": "_submissionAddress",
          "type": "address"
        }
      ],
      "name": "chooseWinningSubmission",
      "outputs": [],
      "payable": false,
      "stateMutability": "nonpayable",
      "type": "function"
    },
    {
      "constant": false,
      "inputs": [
        {
          "name": "_submissionAddress",
          "type": "address"
        },
        {
          "name": "_remainingBounty",
          "type": "uint256"
        }
      ],
      "name": "awardBounty",
      "outputs": [],
      "payable": false,
      "stateMutability": "nonpayable",
      "type": "function"
    },
    {
      "constant": false,
      "inputs": [
        {
          "name": "_title",
          "type": "string"
        },
        {
          "name": "_owner",
          "type": "address"
        },
        {
          "name": "_author",
          "type": "address"
        },
        {
          "name": "_externalAddress",
          "type": "bytes"
        },
        {
          "name": "_references",
          "type": "address[]"
        },
        {
          "name": "_contributors",
          "type": "address[]"
        },
        {
          "name": "_contributorRewardDistribution",
          "type": "uint128[]"
        }
      ],
      "name": "createSubmission",
      "outputs": [
        {
          "name": "_submissionAddress",
          "type": "address"
        }
      ],
      "payable": false,
      "stateMutability": "nonpayable",
      "type": "function"
    }
  ],
  "bytecode": "0x6060604052341561000f57600080fd5b60405160c080611a718339810160405280805191906020018051919060200180519190602001805191906020018051919060200180516000805460048054600160a060020a0319908116600160a060020a039c8d16179091556001805482169a8c169a909a17909955600280548a16988b16989098179097559587163389161787169388169390931785555050600380549094169190941617909155600b91909155600c805460a060020a60ff02191690556119a09081906100d190396000f3006060604052600436106101cc5763ffffffff7c010000000000000000000000000000000000000000000000000000000060003504166303d66a9781146101d15780630b2992081461020d57806310fe9ae81461023b57806319e28e431461024e5780631cdb7de51461027d578063241b15ad146102ac57806329cc545e146102d15780632d699178146102e45780632f54bf6e1461045c5780632fc1f1901461049c5780633197cbb6146104af5780633b249810146104c25780633d622780146104d5578063417e5bc2146104eb57806345b12a0d146104fe57806347535d7b1461051157806347e405531461052457806354f6aa201461053757806356974da31461059d5780635a7d5f50146105b3578063648036ae146105cc57806378e97925146105df5780638499a138146105f2578063893d20e81461061e5780638da5cb5b14610631578063943dfef114610644578063a64c3c4d14610657578063a68e8a8614610683578063b0ff549214610696578063b288e1a9146106a9578063dbe55e56146106bc578063df4f9dba146106cf578063e76c293e146106e5578063ecf251fd146106f8578063f2fde38b1461070b578063f49bff7b14610737578063f8b2cb4f1461074a575b600080fd5b34156101dc57600080fd5b6101e4610776565b60405173ffffffffffffffffffffffffffffffffffffffff909116815260200160405180910390f35b341561021857600080fd5b61023973ffffffffffffffffffffffffffffffffffffffff60043516610792565b005b341561024657600080fd5b6101e461092c565b341561025957600080fd5b61023973ffffffffffffffffffffffffffffffffffffffff60043516602435610949565b341561028857600080fd5b61023973ffffffffffffffffffffffffffffffffffffffff60043516602435610a60565b34156102b757600080fd5b6102bf610abd565b60405190815260200160405180910390f35b34156102dc57600080fd5b6101e4610ac7565b34156102ef57600080fd5b6101e460046024813581810190830135806020601f82018190048102016040519081016040528181529291906020840183838082843750949673ffffffffffffffffffffffffffffffffffffffff87358116976020808201359092169750919550606082019450604091820135860180820194503592508291601f8301829004820290910190519081016040528181529291906020840183838082843782019150505050505091908035906020019082018035906020019080806020026020016040519081016040528093929190818152602001838360200280828437820191505050505050919080359060200190820180359060200190808060200260200160405190810160405280939291908181526020018383602002808284378201915050505050509190803590602001908201803590602001908080602002602001604051908101604052809392919081815260200183836020028082843750949650610ae395505050505050565b341561046757600080fd5b61048873ffffffffffffffffffffffffffffffffffffffff60043516610fd8565b604051901515815260200160405180910390f35b34156104a757600080fd5b6101e4610ff9565b34156104ba57600080fd5b6102bf611015565b34156104cd57600080fd5b6102bf61101b565b34156104e057600080fd5b6101e4600435611021565b34156104f657600080fd5b6101e461119a565b341561050957600080fd5b6104886111b6565b341561051c57600080fd5b6104886111d7565b341561052f57600080fd5b6101e461122a565b341561054257600080fd5b61054a611246565b60405160208082528190810183818151815260200191508051906020019060200280838360005b83811015610589578082015183820152602001610571565b505050509050019250505060405180910390f35b34156105a857600080fd5b6104886004356112bb565b34156105be57600080fd5b610239600435602435611395565b34156105d757600080fd5b6102bf6113c1565b34156105ea57600080fd5b6102bf6113c7565b34156105fd57600080fd5b61048873ffffffffffffffffffffffffffffffffffffffff600435166113cd565b341561062957600080fd5b6101e46113f7565b341561063c57600080fd5b6101e4611413565b341561064f57600080fd5b6102bf61142f565b341561066257600080fd5b61048873ffffffffffffffffffffffffffffffffffffffff60043516611435565b341561068e57600080fd5b61048861169f565b34156106a157600080fd5b6101e46116ed565b34156106b457600080fd5b6101e4611709565b34156106c757600080fd5b6101e4611725565b34156106da57600080fd5b6101e4600435611741565b34156106f057600080fd5b6101e4611788565b341561070357600080fd5b6101e46117a4565b341561071657600080fd5b61023973ffffffffffffffffffffffffffffffffffffffff600435166117c0565b341561074257600080fd5b6102bf611851565b341561075557600080fd5b6102bf73ffffffffffffffffffffffffffffffffffffffff60043516611857565b60025473ffffffffffffffffffffffffffffffffffffffff1681565b6002546000903373ffffffffffffffffffffffffffffffffffffffff9081169116146107bd57600080fd5b73ffffffffffffffffffffffffffffffffffffffff82166000908152600f6020526040902054829060ff1615156107f357600080fd5b6107fb61169f565b151561080657600080fd5b600c80547fffffffffffffffffffffff00ffffffffffffffffffffffffffffffffffffffff73ffffffffffffffffffffffffffffffffffffffff8087167fffffffffffffffffffffffff000000000000000000000000000000000000000090931692909217167401000000000000000000000000000000000000000017909155600454600b5491169250829063a9059cbb9085906000604051602001526040517c010000000000000000000000000000000000000000000000000000000063ffffffff851602815273ffffffffffffffffffffffffffffffffffffffff90921660048301526024820152604401602060405180830381600087803b151561090c57600080fd5b6102c65a03f1151561091d57600080fd5b50505060405180515050505050565b60045473ffffffffffffffffffffffffffffffffffffffff165b90565b6002546000903373ffffffffffffffffffffffffffffffffffffffff90811691161461097457600080fd5b73ffffffffffffffffffffffffffffffffffffffff83166000908152600f6020526040902054839060ff1615156109aa57600080fd5b60045473ffffffffffffffffffffffffffffffffffffffff1691508163a9059cbb85856000604051602001526040517c010000000000000000000000000000000000000000000000000000000063ffffffff851602815273ffffffffffffffffffffffffffffffffffffffff90921660048301526024820152604401602060405180830381600087803b1515610a3f57600080fd5b6102c65a03f11515610a5057600080fd5b5050506040518051505050505050565b73ffffffffffffffffffffffffffffffffffffffff33166000908152600f602052604090205460ff161515610a9457600080fd5b73ffffffffffffffffffffffffffffffffffffffff9091166000908152600d6020526040902055565b6011546010540390565b60045473ffffffffffffffffffffffffffffffffffffffff1681565b600254600090819081903373ffffffffffffffffffffffffffffffffffffffff908116911614610b1257600080fd5b610b1a6111d7565b1515610b2557600080fd5b73ffffffffffffffffffffffffffffffffffffffff88161515610b4757600080fd5b60035460015460025473ffffffffffffffffffffffffffffffffffffffff928316926382bcce6f9281169116308e8e8e8e8e8e8e6000604051602001526040517c010000000000000000000000000000000000000000000000000000000063ffffffff8d1602815273ffffffffffffffffffffffffffffffffffffffff808c16600483019081528b821660248401528a82166044840152888216608484015290871660a483015261014060648301908152909160c481019060e4810190610104810190610124810190610144018d818151815260200191508051906020019080838360005b83811015610c44578082015183820152602001610c2c565b50505050905090810190601f168015610c715780820380516001836020036101000a031916815260200191505b5086810385528a818151815260200191508051906020019080838360005b83811015610ca7578082015183820152602001610c8f565b50505050905090810190601f168015610cd45780820380516001836020036101000a031916815260200191505b50868103845289818151815260200191508051906020019060200280838360005b83811015610d0d578082015183820152602001610cf5565b50505050905001868103835288818151815260200191508051906020019060200280838360005b83811015610d4c578082015183820152602001610d34565b50505050905001868103825287818151815260200191508051906020019060200280838360005b83811015610d8b578082015183820152602001610d73565b505050509050019f50505050505050505050505050505050602060405180830381600087803b1515610dbc57600080fd5b6102c65a03f11515610dcd57600080fd5b5050506040518051905091506040805190810160409081526001825260105460208084019190915273ffffffffffffffffffffffffffffffffffffffff85166000908152600f90915220815181547fffffffffffffffffffffffffffffffffffffffffffffffffffffffffffffff0016901515178155602082015160019182015560108054909250908101610e62838261191b565b506000918252602080832091909101805473ffffffffffffffffffffffffffffffffffffffff8681167fffffffffffffffffffffffff000000000000000000000000000000000000000092831681179093553381168552600e8452604080862080549093169093179091558b168352600d90915281206003905590505b8451811015610f33576002600d6000878481518110610efa57fe5b9060200190602002015173ffffffffffffffffffffffffffffffffffffffff168152602081019190915260400160002055600101610edf565b60025473ffffffffffffffffffffffffffffffffffffffff16634644c51b836040517c010000000000000000000000000000000000000000000000000000000063ffffffff841602815273ffffffffffffffffffffffffffffffffffffffff9091166004820152602401600060405180830381600087803b1515610fb657600080fd5b6102c65a03f11515610fc757600080fd5b50929b9a5050505050505050505050565b60005473ffffffffffffffffffffffffffffffffffffffff91821691161490565b60015473ffffffffffffffffffffffffffffffffffffffff1690565b60095481565b600a5481565b600080338360108181548110151561103557fe5b600091825260208220015473ffffffffffffffffffffffffffffffffffffffff169063a52dd12f908490604051602001526040517c010000000000000000000000000000000000000000000000000000000063ffffffff841602815273ffffffffffffffffffffffffffffffffffffffff9091166004820152602401602060405180830381600087803b15156110ca57600080fd5b6102c65a03f115156110db57600080fd5b5050506040518051905015156110f057600080fd5b60108054869081106110fe57fe5b600091825260208220015473ffffffffffffffffffffffffffffffffffffffff169350839063a5faa12590604051602001526040518163ffffffff167c0100000000000000000000000000000000000000000000000000000000028152600401602060405180830381600087803b151561117757600080fd5b6102c65a03f1151561118857600080fd5b50505060405180519695505050505050565b600c5473ffffffffffffffffffffffffffffffffffffffff1681565b600c5474010000000000000000000000000000000000000000900460ff1690565b600854600954600c546000924290819011801593909111159174010000000000000000000000000000000000000000900460ff161590849084906112185750825b80156112215750815b95945050505050565b60075473ffffffffffffffffffffffffffffffffffffffff1681565b61124e611944565b60108054806020026020016040519081016040528092919081815260200182805480156112b157602002820191906000526020600020905b815473ffffffffffffffffffffffffffffffffffffffff168152600190910190602001808311611286575b5050505050905090565b601054600090819083106112ce57600080fd5b60108054849081106112dc57fe5b600091825260208220015473ffffffffffffffffffffffffffffffffffffffff169150819063a52dd12f903390604051602001526040517c010000000000000000000000000000000000000000000000000000000063ffffffff841602815273ffffffffffffffffffffffffffffffffffffffff9091166004820152602401602060405180830381600087803b151561137457600080fd5b6102c65a03f1151561138557600080fd5b5050506040518051949350505050565b600854156113a257600080fd5b4260088190556113b8908363ffffffff61190516565b600955600a5550565b60055481565b60085481565b73ffffffffffffffffffffffffffffffffffffffff166000908152600d6020526040902054151590565b60005473ffffffffffffffffffffffffffffffffffffffff1690565b60005473ffffffffffffffffffffffffffffffffffffffff1681565b600b5481565b600254600090819081903373ffffffffffffffffffffffffffffffffffffffff90811691161461146457600080fd5b73ffffffffffffffffffffffffffffffffffffffff33166000908152600f602052604090205460ff16156116935773ffffffffffffffffffffffffffffffffffffffff84166000908152600f60205260409020600101546010805490919081106114ca57fe5b600091825260208220015473ffffffffffffffffffffffffffffffffffffffff169250829063a5faa12590604051602001526040518163ffffffff167c0100000000000000000000000000000000000000000000000000000000028152600401602060405180830381600087803b151561154357600080fd5b6102c65a03f1151561155457600080fd5b505050604051805191505073ffffffffffffffffffffffffffffffffffffffff821663a0bf8fe36040518163ffffffff167c0100000000000000000000000000000000000000000000000000000000028152600401600060405180830381600087803b15156115c257600080fd5b6102c65a03f115156115d357600080fd5b50505073ffffffffffffffffffffffffffffffffffffffff8082166000908152600e6020908152604080832080547fffffffffffffffffffffffff00000000000000000000000000000000000000001690559287168252600f9052206001015460108054909190811061164257fe5b600091825260209091200180547fffffffffffffffffffffffff000000000000000000000000000000000000000016905560115461168790600163ffffffff61190516565b60115560019250611698565b600092505b5050919050565b600954600a54600091428181108015939092019011159082906116bf5750805b80156116e65750600c5474010000000000000000000000000000000000000000900460ff16155b9250505090565b60035473ffffffffffffffffffffffffffffffffffffffff1681565b60065473ffffffffffffffffffffffffffffffffffffffff1681565b60015473ffffffffffffffffffffffffffffffffffffffff1681565b601054600090821061175257600080fd5b601080548390811061176057fe5b60009182526020909120015473ffffffffffffffffffffffffffffffffffffffff1692915050565b60025473ffffffffffffffffffffffffffffffffffffffff1690565b600c5473ffffffffffffffffffffffffffffffffffffffff1690565b6000543373ffffffffffffffffffffffffffffffffffffffff9081169116146117e857600080fd5b73ffffffffffffffffffffffffffffffffffffffff8116151561180a57600080fd5b600080547fffffffffffffffffffffffff00000000000000000000000000000000000000001673ffffffffffffffffffffffffffffffffffffffff92909216919091179055565b600b5490565b60045460009073ffffffffffffffffffffffffffffffffffffffff166370a082318383604051602001526040517c010000000000000000000000000000000000000000000000000000000063ffffffff841602815273ffffffffffffffffffffffffffffffffffffffff9091166004820152602401602060405180830381600087803b15156118e557600080fd5b6102c65a03f115156118f657600080fd5b50505060405180519392505050565b60008282018381101561191457fe5b9392505050565b81548183558181151161193f5760008381526020902061193f918101908301611956565b505050565b60206040519081016040526000815290565b61094691905b80821115611970576000815560010161195c565b50905600a165627a7a723058204c733549a145cdc471e2f333f9170b90bce81cc4527a88bc7ab2aaaa9a873f060029",
  "source": "pragma solidity ^0.4.18;\n\nimport '../libraries/math/SafeMath.sol';\nimport '../interfaces/IMatryxToken.sol';\nimport '../interfaces/IMatryxTournament.sol';\nimport '../interfaces/IMatryxRound.sol';\nimport '../interfaces/factories/IMatryxSubmissionFactory.sol';\nimport '../interfaces/IMatryxSubmission.sol';\nimport './Ownable.sol';\n\n/// @title MatryxRound - A round within a Matryx tournament.\n/// @author Max Howard - <max@nanome.ai>, Sam Hessenauer - <sam@nanome.ai>\ncontract MatryxRound is Ownable, IMatryxRound {\n\tusing SafeMath for uint256;\n\n\t//TODO: allow for refunds\n\t// TODO: condense and put in structs\n\taddress public platformAddress;\n\taddress public tournamentAddress;\n\taddress public matryxSubmissionFactoryAddress;\n\taddress public matryxTokenAddress;\n\n\tuint256 public roundIndex;\n\taddress public previousRound;\n\taddress public nextRound;\n\tuint256 public startTime;\n\tuint256 public endTime;\n\tuint256 public reviewPeriod;\n\tuint256 public bounty;\n\taddress public winningSubmission;\n\tbool winningSubmissionChosen;\n\n\tmapping(address=>uint) addressToParticipantType;\n \tmapping(address=>address) authorToSubmissionAddress;\n\tmapping(address=>uint256_optional) addressToSubmissionIndex;\n\taddress[] submissions;\n\tuint256 numberSubmissionsRemoved;\n\n\tfunction MatryxRound(address _matryxTokenAddress, address _platformAddress, address _tournamentAddress, address _matryxSubmissionFactoryAddress, address _owner, uint256 _bounty) public\n\t{\n\t\tmatryxTokenAddress = _matryxTokenAddress;\n\t\tplatformAddress = _platformAddress;\n\t\ttournamentAddress = _tournamentAddress;\n\t\towner = _owner;\n\t\tmatryxSubmissionFactoryAddress = _matryxSubmissionFactoryAddress;\n\t\tbounty = _bounty;\n\t\twinningSubmissionChosen = false;\n\t}\n\n\t/*\n\t * Structs\n\t */\n\n\tstruct uint256_optional\n    {\n        bool exists;\n        uint256 value;\n    }\n\n    /*\n     * Enums\n     */\n\n\tenum participantType { nonentrant, entrant, contributor, author }\n\n\t/*\n     * Modifiers\n     */\n\n    /// @dev Requires that this round is in the open submission state.\n\tmodifier duringOpenSubmission()\n\t{\n\t\trequire(isOpen());\n\t\t_;\n\t}\n\n\t/// @dev Requires that this round is in the winner selection state.\n\tmodifier duringReviewPeriod()\n\t{\n\t\t//require(endTime != 0);\n\t\trequire(isInReview());\n\t\t_;\n\t}\n\n\t// @dev Requires that a winner has been selected for this round.\n\tmodifier afterWinnerSelected()\n\t{\n\t\trequire(winningSubmissionChosen == true);\n\t\t_;\n\t}\n\n\tmodifier onlySubmission()\n\t{\n\t\trequire(addressToSubmissionIndex[msg.sender].exists);\n\t\t_;\n\t}\n\n\tmodifier onlyTournament()\n\t{\n\t\trequire(msg.sender == tournamentAddress);\n\t\t_;\n\t}\n\n\t/// @dev Requires that this round's tournament is open.\n\tmodifier whileTournamentOpen()\n\t{\n\t\tIMatryxTournament tournament = IMatryxTournament(tournamentAddress);\n\t\trequire(tournament.isOpen());\n\t\t_;\n\t}\n\n\t/// @dev Requires that the desired submission is accessible to the requester.\n\tmodifier whenAccessible(address _requester, uint256 _index)\n\t{\n\t\trequire(IMatryxSubmission(submissions[_index]).isAccessible(_requester));\n\t\t_;\n\t}\n\n\tmodifier ifSubmissionExists(address _submissionAddress)\n\t{\n\t\trequire(addressToSubmissionIndex[_submissionAddress].exists);\n\t\t_;\n\t}\n\n\t/// @dev Requires the function caller to be the platform or the owner of this tournament\n\tmodifier tournamentOrOwner()\n    {\n        require((msg.sender == tournamentAddress)||(msg.sender == owner));\n        _;\n    }\n\n\t/// @dev Requires that the sender be the submission's author.\n\t// modifier onlySubmissionAuthor(uint256 _submissionIndex)\n\t// {\n\t// \trequire(IMatryxSubmission(submissions[_submissionIndex]).getAuthor() == msg.sender);\n\t// \t_;\n\t// }\n\n\t/*\n\t * State Maintenance Methods\n\t */\n\n\tfunction removeSubmission(address _submissionAddress) public onlyTournament returns (bool)\n\t{\n\t\tif(addressToSubmissionIndex[msg.sender].exists)\n\t\t{\n\t\t\tIMatryxSubmission submission = IMatryxSubmission(submissions[addressToSubmissionIndex[_submissionAddress].value]);\n\t\t\taddress author = submission.getAuthor();\n\t\t\tsubmission.deleteSubmission();\n\n\t\t\tdelete authorToSubmissionAddress[author];\n\t\t\tdelete submissions[addressToSubmissionIndex[_submissionAddress].value];\n\n\t\t\tnumberSubmissionsRemoved = numberSubmissionsRemoved.add(1);\n\t\t\treturn true;\n\t\t}\n\n\t\treturn false;\n\t}\n\n\t/*\n     * Access Control Methods\n     */\n\n\t/// @dev Returns whether or not this round is open to new submissions.\n\t/// @return Whether or not this round is open to submissions.\n    function isOpen() public constant returns (bool)\n\t{\n\t\tbool roundStartedBeforeNow = startTime <= now;\n\t\tbool roundEndsAfterNow = now <= endTime;\n\t\tbool winningSubmissionNotYetChosen = !winningSubmissionChosen;\n\t\tbool result = roundStartedBeforeNow && roundEndsAfterNow && winningSubmissionNotYetChosen;\n\t\treturn result;\n\t}\n\n\t/// @dev Returns whether or not this round is in the review period.\n\t/// @return Whether or not the round is being reviewed.\n\tfunction isInReview() public constant returns (bool)\n\t{\n\t\tbool roundEndedAfterNow = now >= endTime;\n\t\tbool roundReviewNotOver = now <= endTime+reviewPeriod;\n\t\treturn roundEndedAfterNow && roundReviewNotOver && !winningSubmissionChosen;\n\t}\n\n\t/// @dev Returns whether or not the submission is accessible to the requester.\n\t/// @param _index Index of the submission being requested.\n    /// @return Whether or not the submission is accessible to the requester.\n\tfunction submissionIsAccessible(uint256 _index) public constant returns (bool)\n\t{\n\t\trequire(_index < submissions.length);\n\n\t\tIMatryxSubmission submission = IMatryxSubmission(submissions[_index]);\n\t\treturn submission.isAccessible(msg.sender);\n\t}\n\n\t/// @dev Returns whether or not the submission is accessible to the requester.\n\t/// @param _submissionAddress Address of the submission being requested.\n    /// @return Whether or not the submission is accessible to the requester.\n\t// function submissionIsAccessible(address _submissionAddress) public constant returns (bool)\n\t// {\n\t// \trequire(addressToSubmissionIndex[_submissionAddress]);\n\n\t// \tIMatryxSubmission submission = IMatryxSubmission(_submissionAddress);\n\t// \treturn submission.isAccessible(msg.sender);\n\t// }\n\n\t/// @dev Returns true if the sender is an entrant in this round.\n\t/// @param _requester Address being tested.\n\t/// @return Whether or not the requester is a contributor in this round.\n\tfunction requesterIsContributor(address _requester) public constant returns (bool)\n\t{\n\t\treturn addressToParticipantType[_requester] != 0;\n\t}\n\n\tfunction setParticipantType(address _participantAddress, uint256 _type) public onlySubmission\n\t{\n\t\taddressToParticipantType[_participantAddress] = _type;\n\t}\n\n\t/*\n     * Getter Methods\n     */\n\n    function getPlatform() public constant returns (address) {\n\t\treturn platformAddress;\n\t}\n\n    function getTournament() public constant returns (address) {\n\t\treturn tournamentAddress;\n\t}\n\n    function getBounty() public constant returns (uint256) \n    { \n    \treturn bounty;\n    }\n\n    function getTokenAddress() public constant returns (address)\n    {\n    \treturn matryxTokenAddress;\n    }\n\n\t/// @dev Returns all submissions made to this round.\n\t/// @return _submissions All submissions made to this round.\n\tfunction getSubmissions() public constant returns (address[] _submissions)\n\t{\n\t\treturn submissions;\n\t}\n\n\tfunction getSubmissionAddress(uint256 _index) public constant returns (address _submissionAddress)\n\t{\n\t\trequire(_index < submissions.length);\n\n\t\treturn submissions[_index];\n\t}\n\n\t/// @dev Returns the author of a submission.\n\t/// @param _index Index of the submission.\n\t/// @return Address of this submission's author.\n\tfunction getSubmissionAuthor(uint256 _index) public constant whenAccessible(msg.sender, _index) returns (address) \n\t{\n\t\tIMatryxSubmission submission = IMatryxSubmission(submissions[_index]);\n\t\treturn submission.getAuthor();\n\t}\n\n\t/// @dev Returns the balance of a particular submission\n\t/// @param _submissionAddress Address of the submission\n\t/// @return Balance of the bounty \n\tfunction getBalance(address _submissionAddress) public constant returns (uint256)\n\t{\n\t\treturn IMatryxToken(matryxTokenAddress).balanceOf(_submissionAddress);\n\t}\n\n\t/// @dev Returns whether or not a winning submission has been chosen.\n\t/// @return Whether or not a submission has been chosen.\n\tfunction submissionChosen() public constant returns (bool)\n\t{\n\t\treturn winningSubmissionChosen;\n\t}\n\n\t/// @dev Returns the index of this round's winning submission.\n\t/// @return Index of the winning submission.\n\tfunction getWinningSubmissionAddress() public constant returns (address)\n\t{\n\t\treturn winningSubmission;\n\t}\n\n\t/// @dev Returns the number of submissions made to this round.\n\t/// @return Number of submissions made to this round.\n\tfunction numberOfSubmissions() public constant returns (uint256)\n\t{\n\t\treturn submissions.length - numberSubmissionsRemoved;\n\t}\n\n\t/*\n     * Round Admin Methods\n     */\n\n    /// @dev Starts the round (callable only by the owner of the round).\n    /// @param _duration Duration of the round in seconds.\n\tfunction Start(uint256 _duration, uint256 _reviewPeriod) public\n\t{\n\t\trequire(startTime == 0);\n\t\tstartTime = now;\n\t\tendTime = startTime.add(_duration);\n\t\treviewPeriod = _reviewPeriod;\n\t}\n\n\t/// @dev Choose a winning submission for the round (callable only by the owner of the round).\n    /// @param _submissionAddress Index of the winning submission.\n\tfunction chooseWinningSubmission(address _submissionAddress) public onlyTournament ifSubmissionExists(_submissionAddress) duringReviewPeriod\n\t{\n\t\twinningSubmission = _submissionAddress;\n\t\twinningSubmissionChosen = true;\n\n\t\tIMatryxToken token = IMatryxToken(matryxTokenAddress);\n\t\ttoken.transfer(_submissionAddress, bounty);\n\t}\n\n\t/// @dev Award bounty to a submission. Called by tournament to close a tournament after a \n\t/// round winner has been chosen.\n\t/// @param _submissionAddress Index of the tournament winning submission.\n\t/// @param _remainingBounty Bounty to award the submission.\n\tfunction awardBounty(address _submissionAddress, uint256 _remainingBounty) public onlyTournament ifSubmissionExists(_submissionAddress)\n\t{\n\t\tIMatryxToken token = IMatryxToken(matryxTokenAddress);\n\t\ttoken.transfer(_submissionAddress, _remainingBounty);\n\t}\n\n\t/*\n     * Entrant Methods\n     */\n\n    /// @dev Create a new submission.\n    /// @param _title Title of the submission.\n    /// @param _externalAddress Off-chain content hash of submission details (ipfs hash)\n    /// @param _author Author of this submission.\n    /// @param _references Addresses of submissions referenced in creating this submission\n    /// @param _contributors Contributors to this submission.\n    /// @return _submissionIndex Location of this submission within this round.\n\tfunction createSubmission(string _title, address _owner, address _author, bytes _externalAddress, address[] _references, address[] _contributors, uint128[] _contributorRewardDistribution) public onlyTournament duringOpenSubmission returns (address _submissionAddress)\n\t{\n\t\trequire(_author != 0x0);\n\t\t\n        address submissionAddress = IMatryxSubmissionFactory(matryxSubmissionFactoryAddress).createSubmission(platformAddress, tournamentAddress, this, _title, _owner, _author, _externalAddress, _references, _contributors, _contributorRewardDistribution);\n        //submission bookkeeping\n        addressToSubmissionIndex[submissionAddress] = uint256_optional({exists:true, value: submissions.length});\n        submissions.push(submissionAddress);\n        authorToSubmissionAddress[msg.sender] = submissionAddress;\n\n        // round participant bookkeeping\n        addressToParticipantType[_author] = uint(participantType.author);\n        for(uint256 i = 0; i < _contributors.length; i++)\n        {\n        \taddressToParticipantType[_contributors[i]] = uint(participantType.contributor);\n        }\n\n        IMatryxTournament(tournamentAddress).invokeSubmissionCreatedEvent(submissionAddress);\n        return submissionAddress;\n\t}\n}",
  "sourcePath": "/Users/maxhoward/Desktop/Ethereum/Development/Matryx AWS/Projects/matryx-alpha-source/contracts/MatryxRound.sol",
  "compiler": {
    "name": "solc",
    "version": "0.4.19+commit.c4cbbb05.Emscripten.clang"
  },
  "schemaVersion": "2.0.0",
  "updatedAt": "2018-04-05T19:07:08.390Z"
}