{
  "contractName": "MatryxPlatform",
  "abi": [
    {
      "constant": true,
      "inputs": [],
      "name": "matryxTournamentFactoryAddress",
      "outputs": [
        {
          "name": "",
          "type": "address"
        }
      ],
      "payable": false,
      "stateMutability": "view",
      "type": "function"
    },
    {
      "constant": true,
      "inputs": [],
      "name": "matryxTokenAddress",
      "outputs": [
        {
          "name": "",
          "type": "address"
        }
      ],
      "payable": false,
      "stateMutability": "view",
      "type": "function"
    },
    {
      "constant": true,
      "inputs": [
        {
          "name": "_sender",
          "type": "address"
        }
      ],
      "name": "isOwner",
      "outputs": [
        {
          "name": "_isOwner",
          "type": "bool"
        }
      ],
      "payable": false,
      "stateMutability": "view",
      "type": "function"
    },
    {
      "constant": true,
      "inputs": [
        {
          "name": "",
          "type": "address"
        }
      ],
      "name": "peerExists",
      "outputs": [
        {
          "name": "",
          "type": "bool"
        }
      ],
      "payable": false,
      "stateMutability": "view",
      "type": "function"
    },
    {
      "constant": true,
      "inputs": [],
      "name": "getOwner",
      "outputs": [
        {
          "name": "_owner",
          "type": "address"
        }
      ],
      "payable": false,
      "stateMutability": "view",
      "type": "function"
    },
    {
      "constant": true,
      "inputs": [],
      "name": "matryxRoundLibAddress",
      "outputs": [
        {
          "name": "",
          "type": "address"
        }
      ],
      "payable": false,
      "stateMutability": "view",
      "type": "function"
    },
    {
      "constant": true,
      "inputs": [],
      "name": "owner",
      "outputs": [
        {
          "name": "",
          "type": "address"
        }
      ],
      "payable": false,
      "stateMutability": "view",
      "type": "function"
    },
    {
      "constant": true,
      "inputs": [
        {
          "name": "",
          "type": "address"
        }
      ],
      "name": "ownerToPeerAndPeerToOwner",
      "outputs": [
        {
          "name": "",
          "type": "address"
        }
      ],
      "payable": false,
      "stateMutability": "view",
      "type": "function"
    },
    {
      "constant": true,
      "inputs": [],
      "name": "matryxPeerFactoryAddress",
      "outputs": [
        {
          "name": "",
          "type": "address"
        }
      ],
      "payable": false,
      "stateMutability": "view",
      "type": "function"
    },
    {
      "constant": true,
      "inputs": [],
      "name": "matryxSubmissionFactoryAddress",
      "outputs": [
        {
          "name": "",
          "type": "address"
        }
      ],
      "payable": false,
      "stateMutability": "view",
      "type": "function"
    },
    {
      "constant": true,
      "inputs": [],
      "name": "matryxSubmissionTrustLibAddress",
      "outputs": [
        {
          "name": "",
          "type": "address"
        }
      ],
      "payable": false,
      "stateMutability": "view",
      "type": "function"
    },
    {
      "constant": true,
      "inputs": [
        {
          "name": "",
          "type": "uint256"
        }
      ],
      "name": "categoryList",
      "outputs": [
        {
          "name": "",
          "type": "string"
        }
      ],
      "payable": false,
      "stateMutability": "view",
      "type": "function"
    },
    {
      "constant": true,
      "inputs": [
        {
          "name": "",
          "type": "uint256"
        }
      ],
      "name": "allTournaments",
      "outputs": [
        {
          "name": "",
          "type": "address"
        }
      ],
      "payable": false,
      "stateMutability": "view",
      "type": "function"
    },
    {
      "constant": false,
      "inputs": [
        {
          "name": "newOwner",
          "type": "address"
        }
      ],
      "name": "transferOwnership",
      "outputs": [],
      "payable": false,
      "stateMutability": "nonpayable",
      "type": "function"
    },
    {
      "inputs": [
        {
          "name": "_matryxTokenAddress",
          "type": "address"
        },
        {
          "name": "_matryxPeerFactoryAddress",
          "type": "address"
        },
        {
          "name": "_matryxTournamentFactoryAddress",
          "type": "address"
        },
        {
          "name": "_matryxSubmissionFactoryAddress",
          "type": "address"
        },
        {
          "name": "_matryxSubmissionTrustLibAddress",
          "type": "address"
        }
      ],
      "payable": false,
      "stateMutability": "nonpayable",
      "type": "constructor"
    },
    {
      "anonymous": false,
      "inputs": [
        {
          "indexed": false,
          "name": "_discipline",
          "type": "string"
        },
        {
          "indexed": false,
          "name": "_owner",
          "type": "address"
        },
        {
          "indexed": false,
          "name": "_tournamentAddress",
          "type": "address"
        },
        {
          "indexed": false,
          "name": "_tournamentName_1",
          "type": "bytes32"
        },
        {
          "indexed": false,
          "name": "_tournamentName_2",
          "type": "bytes32"
        },
        {
          "indexed": false,
          "name": "_tournamentName_3",
          "type": "bytes32"
        },
        {
          "indexed": false,
          "name": "_externalAddress_1",
          "type": "bytes32"
        },
        {
          "indexed": false,
          "name": "_externalAddress_2",
          "type": "bytes32"
        },
        {
          "indexed": false,
          "name": "_MTXReward",
          "type": "uint256"
        },
        {
          "indexed": false,
          "name": "_entryFee",
          "type": "uint256"
        }
      ],
      "name": "TournamentCreated",
      "type": "event"
    },
    {
      "anonymous": false,
      "inputs": [
        {
          "indexed": false,
          "name": "_tournamentAddress",
          "type": "address"
        },
        {
          "indexed": false,
          "name": "_tournamentName_1",
          "type": "bytes32"
        },
        {
          "indexed": false,
          "name": "_tournamentName_2",
          "type": "bytes32"
        },
        {
          "indexed": false,
          "name": "_tournamentName_3",
          "type": "bytes32"
        },
        {
          "indexed": false,
          "name": "_externalAddress_1",
          "type": "bytes32"
        },
        {
          "indexed": false,
          "name": "_externalAddress_2",
          "type": "bytes32"
        },
        {
          "indexed": false,
          "name": "_MTXReward",
          "type": "uint256"
        },
        {
          "indexed": false,
          "name": "_entryFee",
          "type": "uint256"
        }
      ],
      "name": "TournamentOpened",
      "type": "event"
    },
    {
      "anonymous": false,
      "inputs": [
        {
          "indexed": false,
          "name": "_tournamentAddress",
          "type": "address"
        },
        {
          "indexed": false,
          "name": "_finalRoundNumber",
          "type": "uint256"
        },
        {
          "indexed": false,
          "name": "_MTXReward",
          "type": "uint256"
        }
      ],
      "name": "TournamentClosed",
      "type": "event"
    },
    {
      "anonymous": false,
      "inputs": [
        {
          "indexed": false,
          "name": "_entrant",
          "type": "address"
        },
        {
          "indexed": false,
          "name": "_tournamentAddress",
          "type": "address"
        }
      ],
      "name": "UserEnteredTournament",
      "type": "event"
    },
    {
      "anonymous": false,
      "inputs": [
        {
          "indexed": false,
          "name": "queryID",
          "type": "string"
        }
      ],
      "name": "QueryID",
      "type": "event"
    },
    {
      "anonymous": false,
      "inputs": [
        {
          "indexed": false,
          "name": "time",
          "type": "uint256"
        }
      ],
      "name": "TimeStamp",
      "type": "event"
    },
    {
      "constant": false,
      "inputs": [
        {
          "name": "_tournamentName_1",
          "type": "bytes32"
        },
        {
          "name": "_tournamentName_2",
          "type": "bytes32"
        },
        {
          "name": "_tournamentName_3",
          "type": "bytes32"
        },
        {
          "name": "_externalAddress_1",
          "type": "bytes32"
        },
        {
          "name": "_externalAddress_2",
          "type": "bytes32"
        },
        {
          "name": "_MTXReward",
          "type": "uint256"
        },
        {
          "name": "_entryFee",
          "type": "uint256"
        }
      ],
      "name": "invokeTournamentOpenedEvent",
      "outputs": [],
      "payable": false,
      "stateMutability": "nonpayable",
      "type": "function"
    },
    {
      "constant": false,
      "inputs": [
        {
          "name": "_finalRoundNumber",
          "type": "uint256"
        },
        {
          "name": "_MTXReward",
          "type": "uint256"
        }
      ],
      "name": "invokeTournamentClosedEvent",
      "outputs": [],
      "payable": false,
      "stateMutability": "nonpayable",
      "type": "function"
    },
    {
      "constant": false,
      "inputs": [
        {
          "name": "_nameHash",
          "type": "bytes32"
        },
        {
          "name": "_contractAddress",
          "type": "address"
        }
      ],
      "name": "setContractAddress",
      "outputs": [],
      "payable": false,
      "stateMutability": "nonpayable",
      "type": "function"
    },
    {
      "constant": false,
      "inputs": [
        {
          "name": "_nameHash",
          "type": "bytes32"
        }
      ],
      "name": "getContractAddress",
      "outputs": [
        {
          "name": "contractAddress",
          "type": "address"
        }
      ],
      "payable": false,
      "stateMutability": "nonpayable",
      "type": "function"
    },
    {
      "constant": false,
      "inputs": [
        {
          "name": "_submissionAddress",
          "type": "address"
        },
        {
          "name": "_references",
          "type": "address[]"
        }
      ],
      "name": "handleReferenceRequestsForSubmission",
      "outputs": [
        {
          "name": "",
          "type": "bool"
        }
      ],
      "payable": false,
      "stateMutability": "nonpayable",
      "type": "function"
    },
    {
      "constant": false,
      "inputs": [
        {
          "name": "_reference",
          "type": "address"
        }
      ],
      "name": "handleReferenceRequestForSubmission",
      "outputs": [
        {
          "name": "",
          "type": "bool"
        }
      ],
      "payable": false,
      "stateMutability": "nonpayable",
      "type": "function"
    },
    {
      "constant": false,
      "inputs": [
        {
          "name": "_reference",
          "type": "address"
        }
      ],
      "name": "handleCancelledReferenceRequestForSubmission",
      "outputs": [
        {
          "name": "",
          "type": "bool"
        }
      ],
      "payable": false,
      "stateMutability": "nonpayable",
      "type": "function"
    },
    {
      "constant": false,
      "inputs": [
        {
          "name": "_owner",
          "type": "address"
        },
        {
          "name": "_submission",
          "type": "address"
        }
      ],
      "name": "updateSubmissions",
      "outputs": [],
      "payable": false,
      "stateMutability": "nonpayable",
      "type": "function"
    },
    {
      "constant": false,
      "inputs": [
        {
          "name": "_submissionAddress",
          "type": "address"
        },
        {
          "name": "_tournamentAddress",
          "type": "address"
        }
      ],
      "name": "removeSubmission",
      "outputs": [
        {
          "name": "",
          "type": "bool"
        }
      ],
      "payable": false,
      "stateMutability": "nonpayable",
      "type": "function"
    },
    {
      "constant": false,
      "inputs": [
        {
          "name": "_tournamentAddress",
          "type": "address"
        },
        {
          "name": "_category",
          "type": "string"
        }
      ],
      "name": "addTournamentToCategory",
      "outputs": [],
      "payable": false,
      "stateMutability": "nonpayable",
      "type": "function"
    },
    {
      "constant": false,
      "inputs": [
        {
          "name": "_tournamentAddress",
          "type": "address"
        },
        {
          "name": "_category",
          "type": "string"
        }
      ],
      "name": "removeTournamentFromCategory",
      "outputs": [],
      "payable": false,
      "stateMutability": "nonpayable",
      "type": "function"
    },
    {
      "constant": false,
      "inputs": [
        {
          "name": "_tournamentAddress",
          "type": "address"
        },
        {
          "name": "_oldCategory",
          "type": "string"
        },
        {
          "name": "_newCategory",
          "type": "string"
        }
      ],
      "name": "switchTournamentCategory",
      "outputs": [],
      "payable": false,
      "stateMutability": "nonpayable",
      "type": "function"
    },
    {
      "constant": true,
      "inputs": [
        {
          "name": "_category",
          "type": "string"
        }
      ],
      "name": "getTournamentsByCategory",
      "outputs": [
        {
          "name": "",
          "type": "address[]"
        }
      ],
      "payable": false,
      "stateMutability": "view",
      "type": "function"
    },
    {
      "constant": true,
      "inputs": [
        {
          "name": "_category",
          "type": "string"
        }
      ],
      "name": "getCategoryCount",
      "outputs": [
        {
          "name": "",
          "type": "uint256"
        }
      ],
      "payable": false,
      "stateMutability": "view",
      "type": "function"
    },
    {
      "constant": true,
      "inputs": [
        {
          "name": "_index",
          "type": "uint256"
        }
      ],
      "name": "getCategoryByIndex",
      "outputs": [
        {
          "name": "",
          "type": "string"
        }
      ],
      "payable": false,
      "stateMutability": "view",
      "type": "function"
    },
    {
      "constant": false,
      "inputs": [
        {
          "name": "_tournamentAddress",
          "type": "address"
        }
      ],
      "name": "enterTournament",
      "outputs": [
        {
          "name": "_success",
          "type": "bool"
        }
      ],
      "payable": false,
      "stateMutability": "nonpayable",
      "type": "function"
    },
    {
      "constant": false,
      "inputs": [
        {
          "components": [
            {
              "name": "category",
              "type": "string"
            },
            {
              "name": "title_1",
              "type": "bytes32"
            },
            {
              "name": "title_2",
              "type": "bytes32"
            },
            {
              "name": "title_3",
              "type": "bytes32"
            },
            {
              "name": "descriptionHash_1",
              "type": "bytes32"
            },
            {
              "name": "descriptionHash_2",
              "type": "bytes32"
            },
            {
              "name": "fileHash_1",
              "type": "bytes32"
            },
            {
              "name": "fileHash_2",
              "type": "bytes32"
            },
            {
              "name": "bounty",
              "type": "uint256"
            },
            {
              "name": "entryFee",
              "type": "uint256"
            }
          ],
          "name": "tournamentData",
          "type": "tuple"
        },
        {
          "components": [
            {
              "name": "start",
              "type": "uint256"
            },
            {
              "name": "end",
              "type": "uint256"
            },
            {
              "name": "reviewPeriodDuration",
              "type": "uint256"
            },
            {
              "name": "bounty",
              "type": "uint256"
            }
          ],
          "name": "roundData",
          "type": "tuple"
        }
      ],
      "name": "createTournament",
      "outputs": [
        {
          "name": "_tournamentAddress",
          "type": "address"
        }
      ],
      "payable": false,
      "stateMutability": "nonpayable",
      "type": "function"
    },
    {
      "constant": false,
      "inputs": [],
      "name": "createPeer",
      "outputs": [
        {
          "name": "",
          "type": "address"
        }
      ],
      "payable": false,
      "stateMutability": "nonpayable",
      "type": "function"
    },
    {
      "constant": true,
      "inputs": [
        {
          "name": "_peerAddress",
          "type": "address"
        }
      ],
      "name": "isPeer",
      "outputs": [
        {
          "name": "",
          "type": "bool"
        }
      ],
      "payable": false,
      "stateMutability": "view",
      "type": "function"
    },
    {
      "constant": true,
      "inputs": [
        {
          "name": "_sender",
          "type": "address"
        }
      ],
      "name": "hasPeer",
      "outputs": [
        {
          "name": "",
          "type": "bool"
        }
      ],
      "payable": false,
      "stateMutability": "view",
      "type": "function"
    },
    {
      "constant": true,
      "inputs": [
        {
          "name": "_peer",
          "type": "address"
        },
        {
          "name": "_reference",
          "type": "address"
        }
      ],
      "name": "peerExistsAndOwnsSubmission",
      "outputs": [
        {
          "name": "",
          "type": "bool"
        }
      ],
      "payable": false,
      "stateMutability": "view",
      "type": "function"
    },
    {
      "constant": true,
      "inputs": [
        {
          "name": "_sender",
          "type": "address"
        }
      ],
      "name": "peerAddress",
      "outputs": [
        {
          "name": "",
          "type": "address"
        }
      ],
      "payable": false,
      "stateMutability": "view",
      "type": "function"
    },
    {
      "constant": true,
      "inputs": [
        {
          "name": "_submissionAddress",
          "type": "address"
        }
      ],
      "name": "isSubmission",
      "outputs": [
        {
          "name": "",
          "type": "bool"
        }
      ],
      "payable": false,
      "stateMutability": "view",
      "type": "function"
    },
    {
      "constant": true,
      "inputs": [
        {
          "name": "_tournamentAddress",
          "type": "address"
        }
      ],
      "name": "getTournament_IsMine",
      "outputs": [
        {
          "name": "_isMine",
          "type": "bool"
        }
      ],
      "payable": false,
      "stateMutability": "view",
      "type": "function"
    },
    {
      "constant": false,
      "inputs": [
        {
          "name": "_gratitude",
          "type": "uint256"
        }
      ],
      "name": "setSubmissionGratitude",
      "outputs": [],
      "payable": false,
      "stateMutability": "nonpayable",
      "type": "function"
    },
    {
      "constant": true,
      "inputs": [],
      "name": "getNow",
      "outputs": [
        {
          "name": "",
          "type": "uint256"
        }
      ],
      "payable": false,
      "stateMutability": "view",
      "type": "function"
    },
    {
      "constant": true,
      "inputs": [],
      "name": "getTokenAddress",
      "outputs": [
        {
          "name": "",
          "type": "address"
        }
      ],
      "payable": false,
      "stateMutability": "view",
      "type": "function"
    },
    {
      "constant": true,
      "inputs": [],
      "name": "getTournamentFactoryAddress",
      "outputs": [
        {
          "name": "",
          "type": "address"
        }
      ],
      "payable": false,
      "stateMutability": "view",
      "type": "function"
    },
    {
      "constant": true,
      "inputs": [],
      "name": "getSubmissionTrustLibrary",
      "outputs": [
        {
          "name": "",
          "type": "address"
        }
      ],
      "payable": false,
      "stateMutability": "view",
      "type": "function"
    },
    {
      "constant": true,
      "inputs": [],
      "name": "getSubmissionGratitude",
      "outputs": [
        {
          "name": "",
          "type": "uint256"
        }
      ],
      "payable": false,
      "stateMutability": "view",
      "type": "function"
    },
    {
      "constant": true,
      "inputs": [],
      "name": "myTournaments",
      "outputs": [
        {
          "name": "",
          "type": "address[]"
        }
      ],
      "payable": false,
      "stateMutability": "view",
      "type": "function"
    },
    {
      "constant": true,
      "inputs": [],
      "name": "mySubmissions",
      "outputs": [
        {
          "name": "",
          "type": "address[]"
        }
      ],
      "payable": false,
      "stateMutability": "view",
      "type": "function"
    },
    {
      "constant": true,
      "inputs": [],
      "name": "tournamentCount",
      "outputs": [
        {
          "name": "_tournamentCount",
          "type": "uint256"
        }
      ],
      "payable": false,
      "stateMutability": "view",
      "type": "function"
    },
    {
      "constant": true,
      "inputs": [
        {
          "name": "_index",
          "type": "uint256"
        }
      ],
      "name": "getTournamentAtIndex",
      "outputs": [
        {
          "name": "_tournamentAddress",
          "type": "address"
        }
      ],
      "payable": false,
      "stateMutability": "view",
      "type": "function"
    },
    {
      "constant": true,
      "inputs": [],
      "name": "getTournaments",
      "outputs": [
        {
          "name": "",
          "type": "address[]"
        }
      ],
      "payable": false,
      "stateMutability": "view",
      "type": "function"
    },
    {
      "constant": false,
      "inputs": [],
      "name": "forceRevert",
      "outputs": [],
      "payable": false,
      "stateMutability": "nonpayable",
      "type": "function"
    }
  ],
  "bytecode": "0x60c0604052600160808190526702c68af0bb14000060a08190526018805460ff19169092179091556019553480156200003757600080fd5b5060405160a080620035938339810180604052620000599190810190620000db565b6000805433600160a060020a031991821617909155600180548216600160a060020a03978816179055600280548216958716959095179094556003805485169386169390931790925560048054841691851691909117905560058054909216921691909117905562000167565b6000620000d482516200015b565b9392505050565b600080600080600060a08688031215620000f457600080fd5b6000620001028888620000c6565b95505060206200011588828901620000c6565b94505060406200012888828901620000c6565b93505060606200013b88828901620000c6565b92505060806200014e88828901620000c6565b9150509295509295909350565b600160a060020a031690565b61341c80620001776000396000f30060806040526004361061025b5763ffffffff7c01000000000000000000000000000000000000000000000000000000006000350416630d2020dd811461026057806310fe9ae81461029657806311cf11ae146102ab5780631411f0a8146102c25780631d2245f5146102ef578063201afb761461031157806327252a0c1461033157806329cc545e146103465780632f54bf6e1461035b5780633e44cf78146103885780633f1a4c11146103a857806351488bce146103c8578063532311c4146103e85780636a44e43d146104085780636e2b2c7c1461042857806370e592b81461044a578063818b5fa81461046a5780638764422f1461048a5780638785494e146104aa578063893d20e8146104ca5780638ac70272146104df5780638c593a8c146104f45780638da5cb5b14610514578063984ed2061461052957806399db60dd14610549578063a2d0ab4714610569578063a3e02f921461057e578063a968c4b91461059e578063ab9583d9146105be578063ac17741b146105de578063b0ff5492146105fe578063b20a2dce14610613578063b2fad55414610628578063b846e21c14610648578063bbe4fd501461065d578063c13ae92a14610672578063c21260a514610692578063c839984a146106b2578063c8ab6c87146106d2578063d4f056d4146106e7578063e001f84114610707578063e139a20c14610727578063e14feaea1461073c578063e8a0ed0d1461075c578063f2fde38b1461077c578063f3dc0d251461079c578063f7468a3c146107b1578063f7c3609d146107d1578063f7f20cb3146107e6578063fb5032d6146107fb575b600080fd5b34801561026c57600080fd5b5061028061027b366004612d5b565b61081b565b60405161028d91906130dd565b60405180910390f35b3480156102a257600080fd5b50610280610843565b3480156102b757600080fd5b506102c061025b565b005b3480156102ce57600080fd5b506102e26102dd366004612d5b565b610860565b60405161028d91906131fa565b3480156102fb57600080fd5b5061030461090b565b60405161028d91906131c0565b34801561031d57600080fd5b506102c061032c366004612d98565b610983565b34801561033d57600080fd5b506102806109ef565b34801561035257600080fd5b50610280610a0b565b34801561036757600080fd5b5061037b610376366004612bba565b610a27565b60405161028d91906131d1565b34801561039457600080fd5b5061037b6103a3366004612bba565b610a48565b3480156103b457600080fd5b506102c06103c3366004612c78565b610a73565b3480156103d457600080fd5b5061037b6103e3366004612bf6565b610c97565b3480156103f457600080fd5b5061037b610403366004612bba565b610d1b565b34801561041457600080fd5b50610280610423366004612bba565b610d48565b34801561043457600080fd5b5061043d610d73565b60405161028d91906132ef565b34801561045657600080fd5b5061037b610465366004612bba565b610d79565b34801561047657600080fd5b5061037b610485366004612bba565b610d8e565b34801561049657600080fd5b506102c06104a5366004612c78565b610db9565b3480156104b657600080fd5b506102c06104c5366004612cc0565b610f98565b3480156104d657600080fd5b50610280611016565b3480156104eb57600080fd5b50610280611032565b34801561050057600080fd5b5061037b61050f366004612c30565b61104e565b34801561052057600080fd5b5061028061126a565b34801561053557600080fd5b50610280610544366004612d5b565b611286565b34801561055557600080fd5b50610280610564366004612bba565b6112d9565b34801561057557600080fd5b50610280611301565b34801561058a57600080fd5b50610280610599366004612e76565b61131d565b3480156105aa57600080fd5b5061037b6105b9366004612bf6565b611621565b3480156105ca57600080fd5b506102c06105d9366004612bf6565b6118d4565b3480156105ea57600080fd5b506103046105f9366004612e34565b611a1b565b34801561060a57600080fd5b50610280611ac3565b34801561061f57600080fd5b5061043d611adf565b34801561063457600080fd5b5061037b610643366004612bba565b611afa565b34801561065457600080fd5b50610280611cdb565b34801561066957600080fd5b5061043d611cf7565b34801561067e57600080fd5b506102c061068d366004612d5b565b611d35565b34801561069e57600080fd5b506102e26106ad366004612d5b565b611da3565b3480156106be57600080fd5b506102806106cd366004612d5b565b611e4a565b3480156106de57600080fd5b50610280611e7f565b3480156106f357600080fd5b5061043d610702366004612e34565b611e9b565b34801561071357600080fd5b506102c0610722366004612d79565b611ee0565b34801561073357600080fd5b50610304611f4c565b34801561074857600080fd5b506102c0610757366004612edb565b611fc2565b34801561076857600080fd5b5061037b610777366004612bba565b61201f565b34801561078857600080fd5b506102c0610797366004612bba565b612129565b3480156107a857600080fd5b506102806121ab565b3480156107bd57600080fd5b5061037b6107cc366004612bba565b6121c7565b3480156107dd57600080fd5b5061028061245c565b3480156107f257600080fd5b506103046125ae565b34801561080757600080fd5b5061037b610816366004612bba565b61261b565b60009081526007602052604090205473ffffffffffffffffffffffffffffffffffffffff1690565b60015473ffffffffffffffffffffffffffffffffffffffff165b90565b606060098281548110151561087157fe5b600091825260209182902001805460408051601f60026000196101006001871615020190941693909304928301859004850281018501909152818152928301828280156108ff5780601f106108d4576101008083540402835291602001916108ff565b820191906000526020600020905b8154815290600101906020018083116108e257829003601f168201915b50505050509050919050565b3360009081526014602090815260409182902080548351818402810184019094528084526060939283018282801561097957602002820191906000526020600020905b815473ffffffffffffffffffffffffffffffffffffffff16815260019091019060200180831161094e575b5050505050905090565b3360009081526012602052604090205460ff1615156109a157600080fd5b7f3e40349bce5ead99eef5033f3d2a1fee1e99eb24e24880b94f234971d85923e633888888888888886040516109de98979695949392919061312e565b60405180910390a150505050505050565b60035473ffffffffffffffffffffffffffffffffffffffff1681565b60015473ffffffffffffffffffffffffffffffffffffffff1681565b60005473ffffffffffffffffffffffffffffffffffffffff91821691161490565b73ffffffffffffffffffffffffffffffffffffffff166000908152600f602052604090205460ff1690565b6000823373ffffffffffffffffffffffffffffffffffffffff82161480610aca575033600090815260156020908152604080832073ffffffffffffffffffffffffffffffffffffffff8516845290915290205460ff165b80610ad457503330145b1515610adf57600080fd5b826040518082805190602001908083835b60208310610b0f5780518252601f199092019160209182019101610af0565b51815160209384036101000a600019018019909216911617905260408051929094018290039091206000818152600a909252929020549195505060ff1615159150610b9d90505760098054600181018083556000929092528451610b9a917f6e1540171b6c0c960b71a7020d9f60077f6af931a8bbf590da0223dacf75c7af0190602087019061286f565b50505b6000828152600c6020908152604080832073ffffffffffffffffffffffffffffffffffffffff8816845290915290205460ff161515610c91576000828152600c6020908152604080832073ffffffffffffffffffffffffffffffffffffffff881684528252808320805460ff19166001908117909155600e835292208551610c2c93919091019186019061286f565b506000828152600b60208181526040808420805473ffffffffffffffffffffffffffffffffffffffff8a16808752600e85529286208190559383526001840181558452922001805473ffffffffffffffffffffffffffffffffffffffff191690911790555b50505050565b73ffffffffffffffffffffffffffffffffffffffff8083166000818152600f60209081526040808320548686168085526013845282852054958552601084528285205490961684526011835281842095845294909152812054909260ff9081169281169116828015610d065750815b8015610d0f5750805b93505b50505092915050565b73ffffffffffffffffffffffffffffffffffffffff90811660009081526010602052604090205416151590565b73ffffffffffffffffffffffffffffffffffffffff9081166000908152601060205260409020541690565b60085490565b600f6020526000908152604090205460ff1681565b73ffffffffffffffffffffffffffffffffffffffff1660009081526013602052604090205460ff1690565b600080833373ffffffffffffffffffffffffffffffffffffffff82161480610e11575033600090815260156020908152604080832073ffffffffffffffffffffffffffffffffffffffff8516845290915290205460ff165b80610e1b57503330145b1515610e2657600080fd5b836040518082805190602001908083835b60208310610e565780518252601f199092019160209182019101610e37565b51815160209384036101000a600019018019909216911617905260408051929094018290039091206000818152600c835284812073ffffffffffffffffffffffffffffffffffffffff8d168252909252929020549196505060ff16159150610f9190505773ffffffffffffffffffffffffffffffffffffffff85166000818152600e6020908152604080832054878452600c8352818420948452938252808320805460ff19169055868352600b90915281208054929450909184908110610f1957fe5b6000918252602080832091909101805473ffffffffffffffffffffffffffffffffffffffff191673ffffffffffffffffffffffffffffffffffffffff9485161790559187168152600e82526040808220829055858252600d9092522054610f819060016127dd565b6000848152600d60205260409020555b5050505050565b823373ffffffffffffffffffffffffffffffffffffffff82161480610fed575033600090815260156020908152604080832073ffffffffffffffffffffffffffffffffffffffff8516845290915290205460ff165b80610ff757503330145b151561100257600080fd5b61100c8484610db9565b610c918483610a73565b60005473ffffffffffffffffffffffffffffffffffffffff1690565b60065473ffffffffffffffffffffffffffffffffffffffff1681565b33600090815260126020526040812054819081908190819060ff16151561107457600080fd5b600093505b855184101561126057858481518110151561109057fe5b9060200190602002015192506110a583610d8e565b15156110b057611255565b8291508173ffffffffffffffffffffffffffffffffffffffff1663a5faa1256040518163ffffffff167c0100000000000000000000000000000000000000000000000000000000028152600401602060405180830381600087803b15801561111757600080fd5b505af115801561112b573d6000803e3d6000fd5b505050506040513d601f19601f8201168201806040525061114f9190810190612bd8565b6040517fd1bbd31200000000000000000000000000000000000000000000000000000000815290915073ffffffffffffffffffffffffffffffffffffffff82169063d1bbd312906111a6908a9087906004016130eb565b600060405180830381600087803b1580156111c057600080fd5b505af11580156111d4573d6000803e3d6000fd5b505050508173ffffffffffffffffffffffffffffffffffffffff1663c7af35516040518163ffffffff167c0100000000000000000000000000000000000000000000000000000000028152600401600060405180830381600087803b15801561123c57600080fd5b505af1158015611250573d6000803e3d6000fd5b505050505b600190930192611079565b5050505092915050565b60005473ffffffffffffffffffffffffffffffffffffffff1681565b60008082101561129557600080fd5b60085482106112a357600080fd5b60088054839081106112b157fe5b60009182526020909120015473ffffffffffffffffffffffffffffffffffffffff1692915050565b60106020526000908152604090205473ffffffffffffffffffffffffffffffffffffffff1681565b60025473ffffffffffffffffffffffffffffffffffffffff1681565b60035482516040517fa95abd8900000000000000000000000000000000000000000000000000000000815260009273ffffffffffffffffffffffffffffffffffffffff16918391839163a95abd899161137f91908990899033906004016132a5565b602060405180830381600087803b15801561139957600080fd5b505af11580156113ad573d6000803e3d6000fd5b505050506040513d601f19601f820116820180604052506113d19190810190612bd8565b90507f0a3eabe50f6fdb1131643d035f8bde7e91d600ba5d64c4a17de4d9c9fef3ec6385600001513383886020015189604001518a606001518b608001518c60a001518d61010001518e61012001516040516114369a9998979695949392919061320b565b60405180910390a16001546101008601516040517f23b872dd00000000000000000000000000000000000000000000000000000000815273ffffffffffffffffffffffffffffffffffffffff909216916323b872dd9161149c9133918691600401613106565b602060405180830381600087803b1580156114b657600080fd5b505af11580156114ca573d6000803e3d6000fd5b505050506040513d601f19601f820116820180604052506114ee9190810190612d3d565b15156114f957600080fd5b60608401516040517f23721e2400000000000000000000000000000000000000000000000000000000815273ffffffffffffffffffffffffffffffffffffffff8316916323721e2491611551916000916004016131df565b600060405180830381600087803b15801561156b57600080fd5b505af115801561157f573d6000803e3d6000fd5b50506008805460018082019092557ff3f7a9fe364faab93b216da50a3214154f22a0a2b415b23a84c8169e8b636ee301805473ffffffffffffffffffffffffffffffffffffffff191673ffffffffffffffffffffffffffffffffffffffff86169081179091556000908152601260205260409020805460ff191690911790555061160b905033826127f3565b611619818660000151610a73565b949350505050565b73ffffffffffffffffffffffffffffffffffffffff811660009081526012602052604081205481908190819060ff16151561165b57600080fd5b73ffffffffffffffffffffffffffffffffffffffff861660009081526013602052604090205460ff16151561168f57600080fd5b33600090815260116020908152604080832073ffffffffffffffffffffffffffffffffffffffff8a16845290915290205460ff1615156116ce57600080fd5b8592508573ffffffffffffffffffffffffffffffffffffffff1663893d20e86040518163ffffffff167c0100000000000000000000000000000000000000000000000000000000028152600401602060405180830381600087803b15801561173557600080fd5b505af1158015611749573d6000803e3d6000fd5b505050506040513d601f19601f8201168201806040525061176d9190810190612bd8565b73ffffffffffffffffffffffffffffffffffffffff8082166000818152601760209081526040808320948c1683529381528382206001015460138252848320805460ff191690559282526016905291909120805492945090925090829081106117d257fe5b60009182526020808320909101805473ffffffffffffffffffffffffffffffffffffffff1916905573ffffffffffffffffffffffffffffffffffffffff84811683526017825260408084208a83168552909252818320805460ff1916815560010192909255517fa968c4b90000000000000000000000000000000000000000000000000000000081529086169063a968c4b99061187590899086906004016130eb565b602060405180830381600087803b15801561188f57600080fd5b505af11580156118a3573d6000803e3d6000fd5b505050506040513d601f19601f820116820180604052506118c79190810190612d3d565b5060019695505050505050565b336000818152601260205260408082205481517f4c6962546f75726e616d656e74456e7472616e744d6574686f647300000000008152915191829003601b0190912060ff90911692906119269061081b565b73ffffffffffffffffffffffffffffffffffffffff1614905081806119485750805b151561195357600080fd5b5050604080518082018252600180825273ffffffffffffffffffffffffffffffffffffffff948516600081815260166020908152858220805482870190815284845260178352878420989099168084529782528683209551865490151560ff1991821617875598519585019590955584548085018655948252808220909401805473ffffffffffffffffffffffffffffffffffffffff191687179055908152601183528381209481529382528284208054861682179055601390915291208054909216179055565b6060600b6000848460405180838380828437820191505092505050604051809103902060001916600019168152602001908152602001600020805480602002602001604051908101604052809291908181526020018280548015611ab557602002820191906000526020600020905b815473ffffffffffffffffffffffffffffffffffffffff168152600190910190602001808311611a8a575b505050505090505b92915050565b60045473ffffffffffffffffffffffffffffffffffffffff1681565b60185460009060ff161515611af357600080fd5b5060195490565b336000908152601360205260408120548190819060ff161515611b1c57600080fd5b611b2584610d8e565b1515611b3057600080fd5b8391508173ffffffffffffffffffffffffffffffffffffffff1663a5faa1256040518163ffffffff167c0100000000000000000000000000000000000000000000000000000000028152600401602060405180830381600087803b158015611b9757600080fd5b505af1158015611bab573d6000803e3d6000fd5b505050506040513d601f19601f82011682018060405250611bcf9190810190612bd8565b6040517fd1bbd31200000000000000000000000000000000000000000000000000000000815290915073ffffffffffffffffffffffffffffffffffffffff82169063d1bbd31290611c2690339088906004016130eb565b600060405180830381600087803b158015611c4057600080fd5b505af1158015611c54573d6000803e3d6000fd5b505050508173ffffffffffffffffffffffffffffffffffffffff1663c7af35516040518163ffffffff167c0100000000000000000000000000000000000000000000000000000000028152600401600060405180830381600087803b158015611cbc57600080fd5b505af1158015611cd0573d6000803e3d6000fd5b505050505050919050565b60055473ffffffffffffffffffffffffffffffffffffffff1681565b60007fdfbf6547deaf4fa5dd154ec1daf5350032f31d34e4c755104dfbf6049163c08742604051611d2891906132ef565b60405180910390a1504290565b60005473ffffffffffffffffffffffffffffffffffffffff163314611d5957600080fd5b60008110158015611d725750670de0b6b3a76400008111155b1515611d7a57fe5b60408051808201909152600180825260209091018290526018805460ff19169091179055601955565b6009805482908110611db157fe5b600091825260209182902001805460408051601f6002600019610100600187161502019094169390930492830185900485028101850190915281815293509091830182828015611e425780601f10611e1757610100808354040283529160200191611e42565b820191906000526020600020905b815481529060010190602001808311611e2557829003601f168201915b505050505081565b6008805482908110611e5857fe5b60009182526020909120015473ffffffffffffffffffffffffffffffffffffffff16905081565b60035473ffffffffffffffffffffffffffffffffffffffff1690565b600080838360405180838380828437604080519190930181900390206000908152600d602090815283822054600b909152929020549190910398975050505050505050565b60005473ffffffffffffffffffffffffffffffffffffffff163314611f0457600080fd5b600091825260076020526040909120805473ffffffffffffffffffffffffffffffffffffffff191673ffffffffffffffffffffffffffffffffffffffff909216919091179055565b336000908152601660209081526040918290208054835181840281018401909452808452606093928301828280156109795760200282019190600052602060002090815473ffffffffffffffffffffffffffffffffffffffff16815260019091019060200180831161094e575050505050905090565b3360009081526012602052604090205460ff161515611fe057600080fd5b7f575670c81f31b6e19bd59bbbe1729f3f052ae8a508d3977e1e1b2b752a256edb338383604051612013939291906131a5565b60405180910390a15050565b73ffffffffffffffffffffffffffffffffffffffff8116600090815260126020526040812054819060ff16151561205557600080fd5b8290503373ffffffffffffffffffffffffffffffffffffffff168173ffffffffffffffffffffffffffffffffffffffff1663893d20e86040518163ffffffff167c0100000000000000000000000000000000000000000000000000000000028152600401602060405180830381600087803b1580156120d357600080fd5b505af11580156120e7573d6000803e3d6000fd5b505050506040513d601f19601f8201168201806040525061210b9190810190612bd8565b73ffffffffffffffffffffffffffffffffffffffff16149392505050565b60005473ffffffffffffffffffffffffffffffffffffffff16331461214d57600080fd5b73ffffffffffffffffffffffffffffffffffffffff8116151561216f57600080fd5b6000805473ffffffffffffffffffffffffffffffffffffffff191673ffffffffffffffffffffffffffffffffffffffff92909216919091179055565b60055473ffffffffffffffffffffffffffffffffffffffff1690565b600080600080336121d781610d1b565b15156121e257600080fd5b73ffffffffffffffffffffffffffffffffffffffff861660009081526012602052604090205460ff16151561221657600080fd5b8593508373ffffffffffffffffffffffffffffffffffffffff1663e586a4f06040518163ffffffff167c0100000000000000000000000000000000000000000000000000000000028152600401602060405180830381600087803b15801561227d57600080fd5b505af1158015612291573d6000803e3d6000fd5b505050506040513d601f19601f820116820180604052506122b59190810190612ebd565b6001546040517f23b872dd00000000000000000000000000000000000000000000000000000000815291945073ffffffffffffffffffffffffffffffffffffffff16906323b872dd906123109033908a908890600401613106565b602060405180830381600087803b15801561232a57600080fd5b505af115801561233e573d6000803e3d6000fd5b505050506040513d601f19601f820116820180604052506123629190810190612d3d565b91508115612450576040517f28d576d700000000000000000000000000000000000000000000000000000000815273ffffffffffffffffffffffffffffffffffffffff8516906328d576d7906123bc9033906004016130dd565b602060405180830381600087803b1580156123d657600080fd5b505af11580156123ea573d6000803e3d6000fd5b505050506040513d601f19601f8201168201806040525061240e9190810190612d3d565b91508115612450577f5891a745b8d042d48bd1e4aed889e63bdc3e44242bb75694ea97573460e03a8b33876040516124479291906130eb565b60405180910390a15b50600195945050505050565b336000908152601060205260408120548190819073ffffffffffffffffffffffffffffffffffffffff161561249057600080fd5b6002546040517f48bf957700000000000000000000000000000000000000000000000000000000815273ffffffffffffffffffffffffffffffffffffffff909116925082906348bf9577906124e99033906004016130dd565b602060405180830381600087803b15801561250357600080fd5b505af1158015612517573d6000803e3d6000fd5b505050506040513d601f19601f8201168201806040525061253b9190810190612bd8565b73ffffffffffffffffffffffffffffffffffffffff166000818152600f60209081526040808320805460ff19166001179055338084526010909252808320805473ffffffffffffffffffffffffffffffffffffffff19908116861790915593835290912080549092161790555090919050565b606060088054806020026020016040519081016040528092919081815260200182805480156109795760200282019190600052602060002090815473ffffffffffffffffffffffffffffffffffffffff16815260019091019060200180831161094e575050505050905090565b336000908152601360205260408120548190819060ff16151561263d57600080fd5b61264684610d8e565b151561265157600080fd5b8391508173ffffffffffffffffffffffffffffffffffffffff1663a5faa1256040518163ffffffff167c0100000000000000000000000000000000000000000000000000000000028152600401602060405180830381600087803b1580156126b857600080fd5b505af11580156126cc573d6000803e3d6000fd5b505050506040513d601f19601f820116820180604052506126f09190810190612bd8565b6040517fa1cc4ac100000000000000000000000000000000000000000000000000000000815290915073ffffffffffffffffffffffffffffffffffffffff82169063a1cc4ac19061274790339088906004016130eb565b600060405180830381600087803b15801561276157600080fd5b505af1158015612775573d6000803e3d6000fd5b505050508173ffffffffffffffffffffffffffffffffffffffff1663444e31ca6040518163ffffffff167c0100000000000000000000000000000000000000000000000000000000028152600401600060405180830381600087803b158015611cbc57600080fd5b6000828201838110156127ec57fe5b9392505050565b73ffffffffffffffffffffffffffffffffffffffff918216600081815260146020908152604080832080546001808201835591855283852001805473ffffffffffffffffffffffffffffffffffffffff19169690971695861790965592825260158152828220938252929092529020805460ff19169091179055565b828054600181600116156101000203166002900490600052602060002090601f016020900481019282601f106128b057805160ff19168380011785556128dd565b828001600101855582156128dd579182015b828111156128dd5782518255916020019190600101906128c2565b506128e99291506128ed565b5090565b61085d91905b808211156128e957600081556001016128f3565b60006127ec8235613377565b60006127ec8251613377565b6000601f8201831361293057600080fd5b813561294361293e82613324565b6132fd565b9150818183526020840193506020810190508385602084028201111561296857600080fd5b60005b83811015611260578161297e8882612907565b845250602092830192919091019060010161296b565b60006127ec8251613390565b60006127ec823561085d565b600080601f830184136129be57600080fd5b50813567ffffffffffffffff8111156129d657600080fd5b6020830191508360018202830111156129ee57600080fd5b9250929050565b6000601f82018313612a0657600080fd5b8135612a1461293e82613345565b91508082526020830160208301858383011115612a3057600080fd5b610d128382846133a0565b600060808284031215612a4d57600080fd5b612a5760806132fd565b90506000612a6584846129a0565b8252506020612a76848483016129a0565b6020830152506040612a8a848285016129a0565b6040830152506060612a9e848285016129a0565b60608301525092915050565b60006101408284031215612abd57600080fd5b612ac86101406132fd565b9050813567ffffffffffffffff811115612ae157600080fd5b612aed848285016129f5565b8252506020612afe848483016129a0565b6020830152506040612b12848285016129a0565b6040830152506060612b26848285016129a0565b6060830152506080612b3a848285016129a0565b60808301525060a0612b4e848285016129a0565b60a08301525060c0612b62848285016129a0565b60c08301525060e0612b76848285016129a0565b60e083015250610100612b8b848285016129a0565b61010083015250610120612ba1848285016129a0565b6101208301525092915050565b60006127ec825161085d565b600060208284031215612bcc57600080fd5b60006116198484612907565b600060208284031215612bea57600080fd5b60006116198484612913565b60008060408385031215612c0957600080fd5b6000612c158585612907565b9250506020612c2685828601612907565b9150509250929050565b60008060408385031215612c4357600080fd5b6000612c4f8585612907565b925050602083013567ffffffffffffffff811115612c6c57600080fd5b612c268582860161291f565b60008060408385031215612c8b57600080fd5b6000612c978585612907565b925050602083013567ffffffffffffffff811115612cb457600080fd5b612c26858286016129f5565b600080600060608486031215612cd557600080fd5b6000612ce18686612907565b935050602084013567ffffffffffffffff811115612cfe57600080fd5b612d0a868287016129f5565b925050604084013567ffffffffffffffff811115612d2757600080fd5b612d33868287016129f5565b9150509250925092565b600060208284031215612d4f57600080fd5b60006116198484612994565b600060208284031215612d6d57600080fd5b600061161984846129a0565b60008060408385031215612d8c57600080fd5b6000612c1585856129a0565b600080600080600080600060e0888a031215612db357600080fd5b6000612dbf8a8a6129a0565b9750506020612dd08a828b016129a0565b9650506040612de18a828b016129a0565b9550506060612df28a828b016129a0565b9450506080612e038a828b016129a0565b93505060a0612e148a828b016129a0565b92505060c0612e258a828b016129a0565b91505092959891949750929550565b60008060208385031215612e4757600080fd5b823567ffffffffffffffff811115612e5e57600080fd5b612e6a858286016129ac565b92509250509250929050565b60008060a08385031215612e8957600080fd5b823567ffffffffffffffff811115612ea057600080fd5b612eac85828601612aaa565b9250506020612c2685828601612a3b565b600060208284031215612ecf57600080fd5b60006116198484612bae565b60008060408385031215612eee57600080fd5b6000612efa85856129a0565b9250506020612c26858286016129a0565b612f1481613377565b82525050565b6000612f2582613373565b808452602084019350612f378361336d565b60005b82811015612f6757612f4d868351612f0b565b612f568261336d565b602096909601959150600101612f3a565b5093949350505050565b612f1481613390565b612f148161085d565b612f1481613395565b6000612f9782613373565b808452612fab8160208601602086016133ac565b612fb4816133d8565b9093016020019392505050565b80516080830190612fd28482612f7a565b506020820151612fe56020850182612f7a565b506040820151612ff86040850182612f7a565b506060820151610c916060850182612f7a565b8051610140808452600091908401906130248282612f8c565b91505060208301516130396020860182612f7a565b50604083015161304c6040860182612f7a565b50606083015161305f6060860182612f7a565b5060808301516130726080860182612f7a565b5060a083015161308560a0860182612f7a565b5060c083015161309860c0860182612f7a565b5060e08301516130ab60e0860182612f7a565b506101008301516130c0610100860182612f7a565b506101208301516130d5610120860182612f7a565b509392505050565b60208101611abd8284612f0b565b604081016130f98285612f0b565b6127ec6020830184612f0b565b606081016131148286612f0b565b6131216020830185612f0b565b6116196040830184612f7a565b610100810161313d828b612f0b565b61314a602083018a612f7a565b6131576040830189612f7a565b6131646060830188612f7a565b6131716080830187612f7a565b61317e60a0830186612f7a565b61318b60c0830185612f7a565b61319860e0830184612f7a565b9998505050505050505050565b606081016131b38286612f0b565b6131216020830185612f7a565b602080825281016127ec8184612f1a565b60208101611abd8284612f71565b604081016131ed8285612f83565b6127ec6020830184612f7a565b602080825281016127ec8184612f8c565b610140808252810161321d818d612f8c565b905061322c602083018c612f0b565b613239604083018b612f0b565b613246606083018a612f7a565b6132536080830189612f7a565b61326060a0830188612f7a565b61326d60c0830187612f7a565b61327a60e0830186612f7a565b613288610100830185612f7a565b613296610120830184612f7a565b9b9a5050505050505050505050565b60e080825281016132b68187612f8c565b905081810360208301526132ca818661300b565b90506132d96040830185612fc1565b6132e660c0830184612f0b565b95945050505050565b60208101611abd8284612f7a565b60405181810167ffffffffffffffff8111828210171561331c57600080fd5b604052919050565b600067ffffffffffffffff82111561333b57600080fd5b5060209081020190565b600067ffffffffffffffff82111561335c57600080fd5b506020601f91909101601f19160190565b60200190565b5190565b73ffffffffffffffffffffffffffffffffffffffff1690565b151590565b6000611abd8261085d565b82818337506000910152565b60005b838110156133c75781810151838201526020016133af565b83811115610c915750506000910152565b601f01601f1916905600a265627a7a72305820059dd38245cca519847c22d390d8bbf84e42f4d1a3f040f3af627030478aea396c6578706572696d656e74616cf50037",
  "source": "pragma solidity ^0.4.18;\npragma experimental ABIEncoderV2;\n\nimport \"../libraries/math/SafeMath.sol\";\nimport \"../libraries/math/SafeMath128.sol\";\nimport \"../interfaces/IMatryxToken.sol\";\nimport \"../interfaces/IMatryxPeer.sol\";\nimport \"../interfaces/IMatryxPlatform.sol\";\nimport \"../interfaces/factories/IMatryxPeerFactory.sol\";\nimport \"../interfaces/factories/IMatryxTournamentFactory.sol\";\nimport \"../interfaces/IMatryxTournament.sol\";\nimport \"../interfaces/IMatryxRound.sol\";\nimport \"../interfaces/IMatryxSubmission.sol\";\nimport \"./Ownable.sol\";\n\n/// @title MatryxPlatform - The Matryx platform contract.\n/// @author Max Howard - <max@nanome.ai>, Sam Hessenauer - <sam@nanome.ai>\ncontract MatryxPlatform is Ownable {\n  using SafeMath for uint256;\n  using SafeMath128 for uint128;\n\n  // TODO: condense and put in structs\n  address public matryxTokenAddress;\n  address public matryxPeerFactoryAddress;\n  address public matryxTournamentFactoryAddress;\n  address public matryxSubmissionFactoryAddress;\n  address public matryxSubmissionTrustLibAddress;\n  address public matryxRoundLibAddress;\n\n  mapping(bytes32=>address) private contracts;\n\n  address[] public allTournaments;\n  // bytes32 public hashOfTopCategory;\n  // bytes32 public hashOfLastCategory;\n  // mapping(uint256=>bytes32) public  topCategoryByCount;\n  // mapping(bytes32=>category) public categoryIterator;\n  string[] public categoryList;\n  mapping(bytes32=>bool) categoryExists;\n  mapping(bytes32=>address[]) categoryHashToTournamentList;\n  mapping(bytes32=>mapping(address=>bool)) tournamentExistsInCategory;\n  mapping(bytes32=>uint256) emptyCountByCategory;\n  mapping(address=>CategoryInfo) tournamentAddressToCategoryInfo;\n\n  mapping(address=>bool) public peerExists;\n  mapping(address=>address) public ownerToPeerAndPeerToOwner;\n  mapping(address=>mapping(address=>bool)) addressToOwnsSubmission;\n  mapping(address=>bool) tournamentExists;\n  mapping(address=>bool) submissionExists;\n\n  mapping(address=>address[]) ownerToTournamentArray;\n  mapping(address=>mapping(address=>bool)) entrantToOwnsTournament;\n  mapping(address=>address[]) ownerToSubmissionArray;\n  mapping(address=>mapping(address=>uint256_optional))  ownerToSubmissionToSubmissionIndex;\n\n  // Hyperparams\n  uint256_optional submissionGratitude = uint256_optional({exists: true, value: 2*10**17});\n\n  function MatryxPlatform(address _matryxTokenAddress, address _matryxPeerFactoryAddress, address _matryxTournamentFactoryAddress, address _matryxSubmissionFactoryAddress, address _matryxSubmissionTrustLibAddress) public\n  {\n    matryxTokenAddress = _matryxTokenAddress;\n    matryxPeerFactoryAddress = _matryxPeerFactoryAddress;\n    matryxTournamentFactoryAddress = _matryxTournamentFactoryAddress;\n    matryxSubmissionFactoryAddress = _matryxSubmissionFactoryAddress;\n    matryxSubmissionTrustLibAddress = _matryxSubmissionTrustLibAddress;\n  }\n\n  /*\n   * Structs\n   */\n\n  struct uint256_optional\n  {\n    bool exists;\n    uint256 value;\n  }\n\n  struct CategoryInfo \n  {\n    uint256 index;\n    string category;\n  }\n\n  /*\n   * Events\n   */\n\n  event TournamentCreated(string _discipline, address _owner, address _tournamentAddress, bytes32 _tournamentName_1, bytes32 _tournamentName_2, bytes32 _tournamentName_3, bytes32 _externalAddress_1, bytes32 _externalAddress_2, uint256 _MTXReward, uint256 _entryFee);\n  event TournamentOpened(address _tournamentAddress, bytes32 _tournamentName_1, bytes32 _tournamentName_2, bytes32 _tournamentName_3, bytes32 _externalAddress_1, bytes32 _externalAddress_2, uint256 _MTXReward, uint256 _entryFee);\n  event TournamentClosed(address _tournamentAddress, uint256 _finalRoundNumber, uint256 _MTXReward);\n  event UserEnteredTournament(address _entrant, address _tournamentAddress);\n  event QueryID(string queryID);\n  /// @dev Allows tournaments to invoke tournamentOpened events on the platform.\n  /// @param _tournamentName_1 First part of the tournament name.\n  /// @param _tournamentName_2 Second part of the tournament name.\n  /// @param _tournamentName_3 Third part of the tournament name.\n  /// @param _externalAddress_1 First part of the external address of the tournament.\n  /// @param _externalAddress_2 Second part of the external address of the tournament.\n  /// @param _MTXReward Reward for winning the tournament.\n  /// @param _entryFee Fee for entering into the tournament.\n  function invokeTournamentOpenedEvent(bytes32 _tournamentName_1, bytes32 _tournamentName_2, bytes32 _tournamentName_3, bytes32 _externalAddress_1, bytes32 _externalAddress_2, uint256 _MTXReward, uint256 _entryFee) public onlyTournament\n  {\n    TournamentOpened(msg.sender, _tournamentName_1, _tournamentName_2, _tournamentName_3, _externalAddress_1, _externalAddress_2, _MTXReward, _entryFee);\n  }\n\n  /// @dev Allows tournaments to invoke tournamentClosed events on the platform.\n  /// @param _finalRoundNumber Index of the round containing the winning submission.\n  function invokeTournamentClosedEvent(uint256 _finalRoundNumber, uint256 _MTXReward) public onlyTournament\n  {\n    TournamentClosed(msg.sender, _finalRoundNumber, _MTXReward);\n  }\n\n  /* \n   * Modifiers\n   */\n\n  modifier onlyTournament\n  {\n    require(tournamentExists[msg.sender]);\n    _;\n  }\n\n  modifier onlyTournamentOrTournamentLib\n  {\n    bool isTournament = tournamentExists[msg.sender];\n    bool isTournamentLib = getContractAddress(sha3(\"LibTournamentEntrantMethods\")) == msg.sender;\n\n    require(isTournament || isTournamentLib);\n    _;\n  }\n\n  modifier onlySubmission\n  {\n    require(submissionExists[msg.sender]);\n    _;\n  }\n\n  modifier onlyPeerLinked(address _sender)\n  {\n    require(hasPeer(_sender));\n    _;\n  }\n\n  modifier onlyTournamentOwnerOrPlatform(address _tournamentAddress)\n  {\n    require(msg.sender == _tournamentAddress || entrantToOwnsTournament[msg.sender][_tournamentAddress] || msg.sender == address(this));\n    _;\n  }\n\n  /*\n   * State Maintenance Methods\n   */\n\n   /// @dev Sets an address for a contract the platform should know about.\n   /// @param _nameHash Keccak256 hash of the name of the contract to give an address to.\n   /// @param _contractAddress Address to be assigned for the given contract name.\n   function setContractAddress(bytes32 _nameHash, address _contractAddress) public onlyOwner\n   {\n      contracts[_nameHash] = _contractAddress;\n   }\n\n   /// @dev Gets the address of a contract the platform knows about.\n   /// @param _nameHash Keccak256 hash of the name of the contract to look for.\n   /// @return Address of the contract with the designated name.\n   function getContractAddress(bytes32 _nameHash) public returns (address contractAddress)\n   {\n      return contracts[_nameHash];\n   }\n\n  // @dev Sends out reference requests for a particular submission.\n  // @param _references Reference whose authors will be sent requests.\n  // @returns Whether or not all references were successfully sent a request.\n  function handleReferenceRequestsForSubmission(address _submissionAddress, address[] _references) public onlyTournament returns (bool) \n  {\n    for(uint256 i = 0; i < _references.length; i++)\n    {\n      address _referenceAddress = _references[i];\n\n      if(!isSubmission(_referenceAddress))\n      {\n        // TODO: Introduce uint error codes\n        // for returning things like \"Reference _ is not submission\"\n        continue;\n      }\n\n      IMatryxSubmission submission = IMatryxSubmission(_referenceAddress);\n      address author = submission.getAuthor();\n      IMatryxPeer(author).receiveReferenceRequest(_submissionAddress, _referenceAddress);\n      submission.receiveReferenceRequest();\n    }\n  }\n\n  // @dev Sends out a reference request for a submission (must be called by the submission).\n  // @param _reference Reference whose author will be sent a request.\n  // @returns Whether or not all references were successfully sent a request.\n  function handleReferenceRequestForSubmission(address _reference) public onlySubmission returns (bool)\n  {\n      require(isSubmission(_reference));\n      IMatryxSubmission submission = IMatryxSubmission(_reference);\n      address author = submission.getAuthor();\n      IMatryxPeer(author).receiveReferenceRequest(msg.sender, _reference);\n      submission.receiveReferenceRequest();\n  }\n\n  function handleCancelledReferenceRequestForSubmission(address _reference) public onlySubmission returns (bool)\n  {\n    require(isSubmission(_reference));\n    IMatryxSubmission submission = IMatryxSubmission(_reference);\n    address author = submission.getAuthor();\n    IMatryxPeer(author).receiveCancelledReferenceRequest(msg.sender, _reference);\n    submission.cancelReferenceRequest();\n  }\n\n  function updateUsersTournaments(address _owner, address _tournament) internal\n  {\n    ownerToTournamentArray[_owner].push(_tournament);\n    entrantToOwnsTournament[_owner][_tournament] = true;\n  }\n\n  function updateSubmissions(address _owner, address _submission) public onlyTournamentOrTournamentLib\n  {\n    ownerToSubmissionToSubmissionIndex[_owner][_submission] = uint256_optional({exists:true, value:ownerToSubmissionArray[_owner].length});\n    ownerToSubmissionArray[_owner].push(_submission);\n    addressToOwnsSubmission[_owner][_submission] = true;\n    submissionExists[_submission] = true;\n  }\n\n  function removeSubmission(address _submissionAddress, address _tournamentAddress) public returns (bool)\n  {\n    require(tournamentExists[_tournamentAddress]);\n    require(submissionExists[_submissionAddress]);\n    require(addressToOwnsSubmission[msg.sender][_submissionAddress]);\n\n      IMatryxSubmission submission = IMatryxSubmission(_submissionAddress);\n      address owner = Ownable(_submissionAddress).getOwner();\n      uint256 submissionIndex = ownerToSubmissionToSubmissionIndex[owner][_submissionAddress].value;\n\n      submissionExists[_submissionAddress] = false;\n      delete ownerToSubmissionArray[owner][submissionIndex];\n      delete ownerToSubmissionToSubmissionIndex[owner][_submissionAddress];\n\n      IMatryxTournament(_tournamentAddress).removeSubmission(_submissionAddress, owner);\n      return true;\n  }\n\n  function addTournamentToCategory(address _tournamentAddress, string _category) public onlyTournamentOwnerOrPlatform(_tournamentAddress)\n  {\n    bytes32 categoryHash = sha3(_category);\n    if(categoryExists[categoryHash] == false)\n    {\n      categoryList.push(_category);\n    }\n\n    if(tournamentExistsInCategory[categoryHash][_tournamentAddress] == false)\n    {\n      tournamentExistsInCategory[categoryHash][_tournamentAddress] = true;\n      tournamentAddressToCategoryInfo[_tournamentAddress].category = _category;\n      tournamentAddressToCategoryInfo[_tournamentAddress].index = (categoryHashToTournamentList[categoryHash]).length;\n      categoryHashToTournamentList[categoryHash].push(_tournamentAddress);\n    }\n  }\n\n  function removeTournamentFromCategory(address _tournamentAddress, string _category) public onlyTournamentOwnerOrPlatform(_tournamentAddress)\n  {\n    bytes32 categoryHash = sha3(_category);\n    if(tournamentExistsInCategory[categoryHash][_tournamentAddress])\n    {\n      // It's there! Let's remove it\n      uint256 indexInCategoryList = tournamentAddressToCategoryInfo[_tournamentAddress].index;\n      tournamentExistsInCategory[categoryHash][_tournamentAddress] = false;\n      categoryHashToTournamentList[categoryHash][indexInCategoryList] = 0x0;\n      tournamentAddressToCategoryInfo[_tournamentAddress].index = 0;\n      emptyCountByCategory[categoryHash] = emptyCountByCategory[categoryHash].add(1);\n    }\n  }\n\n  function switchTournamentCategory(address _tournamentAddress, string _oldCategory, string _newCategory) public onlyTournamentOwnerOrPlatform(_tournamentAddress)\n  {\n    removeTournamentFromCategory(_tournamentAddress, _oldCategory);\n    addTournamentToCategory(_tournamentAddress, _newCategory);\n  }\n\n  function getTournamentsByCategory(string _category) external view returns (address[])\n  {\n    return categoryHashToTournamentList[sha3(_category)];\n  }\n\n  function getCategoryCount(string _category) external view returns (uint256)\n  {\n    bytes32 categoryHash = sha3(_category);\n    return categoryHashToTournamentList[categoryHash].length - emptyCountByCategory[categoryHash];\n  }\n\n  function getCategoryByIndex(uint256 _index) public view returns (string)\n  {\n    return categoryList[_index];\n  }\n\n  // function switchTournamentCategory(string discipline) onlyTournament public\n  // {\n  //   revert();\n  // }\n\n  /* \n   * Tournament Entry Methods\n   */\n\n  /// @dev Enter the user into a tournament and charge the entry fee.\n  /// @param _tournamentAddress Address of the tournament to enter into.\n  /// @return _success Whether or not user was successfully entered into the tournament.\n  function enterTournament(address _tournamentAddress) public onlyPeerLinked(msg.sender) returns (bool _success)\n  {\n      require(tournamentExists[_tournamentAddress]);\n      \n      IMatryxTournament tournament = IMatryxTournament(_tournamentAddress);\n      uint256 entryFee = tournament.getEntryFee();\n\n      bool success = IMatryxToken(matryxTokenAddress).transferFrom(msg.sender, _tournamentAddress, entryFee);\n      if(success)\n      {\n        success = tournament.enterUserInTournament(msg.sender);\n        if(success)\n        {\n          emit UserEnteredTournament(msg.sender, _tournamentAddress);\n        }\n      }\n\n      return true;\n  }\n\n  /* \n   * Tournament Admin Methods\n   */\n\n  /// @dev Create a new tournament.\n  /// @param tournamentData Data to populate the new tournament with. Includes:\n  ///    category: Discipline the tournament falls under.\n  ///    title: Name of the new tournament.\n  ///    contentHash: Off-chain content hash of tournament details (ipfs hash)\n  ///    Bounty: Total tournament reward in MTX.\n  ///    entryFee: Fee to charge participant upon entering into the tournament.\n  /// @param roundData Data to populate the first round of the tournament with. Includes:\n  ///    startTime: The start time (unix-epoch-based) of the first round.\n  ///    endTime: The end time (unix-epoch-based) of the first round.\n  ///    reviewPeriodDuration: The amount of the tournament owner has to determine the winners of the round.\n  ///    bounty: The reward for the first round's winners.\n  /// @return _tournamentAddress Address of the newly created tournament.\n  function createTournament(LibConstruction.TournamentData tournamentData, LibConstruction.RoundData roundData) returns (address _tournamentAddress)\n  {\n    IMatryxTournamentFactory tournamentFactory = IMatryxTournamentFactory(matryxTournamentFactoryAddress);\n    address newTournament = tournamentFactory.createTournament(tournamentData.category, tournamentData, roundData, msg.sender);\n    TournamentCreated(tournamentData.category, msg.sender, newTournament, tournamentData.title_1, tournamentData.title_2, tournamentData.title_3, tournamentData.descriptionHash_1, tournamentData.descriptionHash_2, tournamentData.bounty, tournamentData.entryFee);\n    \n    require(IMatryxToken(matryxTokenAddress).transferFrom(msg.sender, newTournament, tournamentData.bounty));\n    IMatryxTournament(newTournament).sendBountyToRound(0, roundData.bounty);\n    // update data structures\n    allTournaments.push(newTournament);\n    tournamentExists[newTournament] = true;\n    updateUsersTournaments(msg.sender, newTournament);\n\n    addTournamentToCategory(newTournament, tournamentData.category);\n\n    return newTournament;\n  }\n\n  /*\n   * Access Control Methods\n   */\n\n  function createPeer() public returns (address)\n  {\n    require(ownerToPeerAndPeerToOwner[msg.sender] == 0x0);\n    IMatryxPeerFactory peerFactory = IMatryxPeerFactory(matryxPeerFactoryAddress);\n    address peer = peerFactory.createPeer(msg.sender);\n    peerExists[peer] = true;\n    ownerToPeerAndPeerToOwner[msg.sender] = peer;\n    ownerToPeerAndPeerToOwner[peer] = msg.sender;\n  }\n\n  function isPeer(address _peerAddress) public constant returns (bool)\n  {\n    return peerExists[_peerAddress];\n  }\n\n  function hasPeer(address _sender) public constant returns (bool)\n  {\n    return (ownerToPeerAndPeerToOwner[_sender] != 0x0);\n  }\n\n  function peerExistsAndOwnsSubmission(address _peer, address _reference) public constant returns (bool)\n  {\n    bool isAPeer = peerExists[_peer];\n    bool referenceIsSubmission = submissionExists[_reference];\n    bool peerOwnsSubmission = addressToOwnsSubmission[ownerToPeerAndPeerToOwner[_peer]][_reference];\n\n    return isAPeer && referenceIsSubmission && peerOwnsSubmission;\n  }\n\n  function peerAddress(address _sender) public constant returns (address)\n  {\n    return ownerToPeerAndPeerToOwner[_sender];\n  }\n\n  function isSubmission(address _submissionAddress) public constant returns (bool)\n  {\n    return submissionExists[_submissionAddress];\n  }\n\n  /// @dev Returns whether or not the given tournament belongs to the sender.\n  /// @param _tournamentAddress Address of the tournament to check.\n  /// @return _isMine Whether or not the tournament belongs to the sender.\n  function getTournament_IsMine(address _tournamentAddress) public constant returns (bool _isMine)\n  {\n    require(tournamentExists[_tournamentAddress]);\n    Ownable tournament = Ownable(_tournamentAddress);\n    return (tournament.getOwner() == msg.sender);\n  }\n\n  /*\n   * Setter Methods\n   */ \n\n  /// @dev              Set the relative amount of MTX to be delivered to a submission's\n  ///                   references\n  /// @param _gratitude Weight from 0 to 1 (18 decimal uint) specifying enforced submission\n  ///                   gratitude\n  function setSubmissionGratitude(uint256 _gratitude) public onlyOwner\n  {\n      assert(_gratitude >= 0 && _gratitude <= (1*10**18));\n      submissionGratitude = uint256_optional({exists: true, value: _gratitude});\n  }\n\n  event TimeStamp(uint256 time);\n\n  function getNow() public view returns (uint256)\n  {\n    emit TimeStamp(now);\n    return now;\n  }\n\n  /*\n   * Getter Methods\n   */\n\n   function getTokenAddress() public constant returns (address)\n   {\n      return matryxTokenAddress;\n   }\n\n   function getTournamentFactoryAddress() public view returns (address)\n   {\n      return matryxTournamentFactoryAddress;\n   }\n\n   function getSubmissionTrustLibrary() public constant returns (address)\n   {\n      return matryxSubmissionTrustLibAddress;\n   }\n\n   /// @dev    Returns a weight from 0 to 1 (18 decimal uint) indicating\n   ///         how much of a submission's reward goes to its references.\n   /// @return Relative amount of MTX going to references of submissions under this tournament.\n   function getSubmissionGratitude() public constant returns (uint256)\n   {\n    require(submissionGratitude.exists);\n    return submissionGratitude.value;\n   }\n\n   /// @dev Returns addresses for submissions the sender has created.\n   /// @return Address array representing submissions.\n   function myTournaments() public constant returns (address[])\n   {\n    return ownerToTournamentArray[msg.sender];\n   }\n\n   function mySubmissions() public constant returns (address[])\n   {\n    return ownerToSubmissionArray[msg.sender];\n   }\n\n   /// @dev Returns the total number of tournaments\n   /// @return _tournamentCount Total number of tournaments.\n   function tournamentCount() public constant returns (uint256 _tournamentCount)\n   {\n       return allTournaments.length;\n   }\n \n   function getTournamentAtIndex(uint256 _index) public constant returns (address _tournamentAddress)\n   {\n     require(_index >= 0);\n     require(_index < allTournaments.length);\n     return allTournaments[_index];\n   }\n\n   function getTournaments() public view returns (address[])\n   {\n    return allTournaments;\n   }\n\n   function forceRevert(){\n    revert();\n   }\n}",
  "sourcePath": "/Users/maxhoward/Desktop/Ethereum/Development/Matryx/Projects/MatryxPlatform/contracts/MatryxPlatform.sol",
  "compiler": {
    "name": "solc",
    "version": "0.4.24+commit.e67f0147.Emscripten.clang"
  },
  "schemaVersion": "2.0.0",
  "updatedAt": "2018-07-04T00:57:47.347Z"
}