{
  "contractName": "MatryxPlatform",
  "abi": [
    {
      "inputs": [
        {
          "name": "_proxy",
          "type": "address"
        },
        {
          "name": "_version",
          "type": "uint256"
        }
      ],
      "payable": false,
      "stateMutability": "nonpayable",
      "type": "constructor"
    },
    {
      "payable": false,
      "stateMutability": "nonpayable",
      "type": "fallback"
    },
    {
      "constant": false,
      "inputs": [
        {
          "name": "_contract",
          "type": "address"
        },
        {
          "name": "_libraryName",
          "type": "bytes32"
        }
      ],
      "name": "setContractLibrary",
      "outputs": [],
      "payable": false,
      "stateMutability": "nonpayable",
      "type": "function"
    }
  ],
  "bytecode": "0x608060405234801561001057600080fd5b506040516040806103db833981018060405261002f91908101906100c6565b60008054600160a060020a031916600160a060020a039390931692909217825560019081556002805480830182559281905260037f405787fa12a823e0f2b7631cc41b3ba8828b3321ca811111fa75cd3aa3bb5ace93840181905581548084018355600490850155815492830190915591015561010f565b60006100b38251610100565b9392505050565b60006100b3825161010c565b600080604083850312156100d957600080fd5b60006100e585856100a7565b92505060206100f6858286016100ba565b9150509250929050565b600160a060020a031690565b90565b6102bd8061011e6000396000f3006080604052600436106100405763ffffffff7c0100000000000000000000000000000000000000000000000000000000600035041663c51c1d0b81146101c3575b34801561004c57600080fd5b507c01000000000000000000000000000000000000000000000000000000007f4c6962506c6174666f726d0000000000000000000000000000000000000000006040516000546001543360005260036020526040600020548015156100ae5750835b8563c53cfd9a028452816004850152806024850152602060006044866000875af18015156100db57600080fd5b60005187633b15aabf0286528360048701528260248701526004600060448801376000866064886000895af1915081151561011557600080fd5b3d6000873e855186016020810151810180516020820191506040830151830180516020820191503d8b019a5084518b5260048b0160005b8481101561016b5760208181028701518352919091019060010161014c565b50600436036004823760005b8281101561019d5760208181028501518102830180519187029091019052600101610177565b5060208402360160008d828f8b5af498508815156101ba57600080fd5b3d60008e3e3d8df35b3480156101cf57600080fd5b506101e36101de36600461022d565b6101e5565b005b73ffffffffffffffffffffffffffffffffffffffff909116600090815260036020526040902055565b600061021a8235610267565b9392505050565b600061021a8235610280565b6000806040838503121561024057600080fd5b600061024c858561020e565b925050602061025d85828601610221565b9150509250929050565b73ffffffffffffffffffffffffffffffffffffffff1690565b905600a265627a7a723058205892198f6473e050638a8505044657a3f81e2857c8a592cb1f67fbec414435c36c6578706572696d656e74616cf50037",
  "source": "pragma solidity ^0.4.24;\npragma experimental ABIEncoderV2;\n\nimport \"./Ownable.sol\";\n\ncontract MatryxPlatform {\n    address proxy;\n    uint256 version;\n\n    uint256[] arr;\n\n    mapping(address=>bytes32) contractToLibraryName;                           // contract address => 'Lib_____' (hex)\n\n    constructor(address _proxy, uint256 _version) public {\n        proxy = _proxy;\n        version = _version;\n        arr.push(3);\n        arr.push(4);\n        arr.push(3);\n    }\n\n    function () public {\n        assembly {\n            // constants\n            let offset := 0x100000000000000000000000000000000000000000000000000000000\n            let libPlatform := 0x4c6962506c6174666f726d000000000000000000000000000000000000000000\n\n            let ptr := mload(0x40)                                              // scratch space for calldata\n            let proxy := sload(proxy_slot)                                      // load proxy address\n            let version := sload(version_slot)                                  // load version number\n\n            // get library name for contract\n            mstore(0, caller)                                                   // key - caller\n            mstore(0x20, contractToLibraryName_slot)                            // map - contract library name\n            let libName := sload(keccak256(0, 0x40))                            // get library name for contract\n            if iszero(libName) { libName := libPlatform }                       // default to LibPlatform\n\n            // call proxy and get library address\n            mstore(ptr, mul(0xc53cfd9a, offset))                                // getContract(uint256,bytes32)\n            mstore(add(ptr, 0x04), version)                                     // arg 0 - version\n            mstore(add(ptr, 0x24), libName)                                     // arg 1 - library name\n            let res := call(gas, proxy, 0, ptr, 0x44, 0, 0x20)                  // call proxy.getContract\n            if iszero(res) { revert(0, 0) }                                     // safety check\n            let libAddress := mload(0)                                          // store libAddress from response\n\n            // get fnData from proxy\n            mstore(ptr, mul(0x3b15aabf, offset))                                // getContractMethod(uint256,bytes32,bytes32)\n            mstore(add(ptr, 0x04), version)                                     // arg 0 - version\n            mstore(add(ptr, 0x24), libName)                                     // arg 1 - library name\n            calldatacopy(add(ptr, 0x44), 0, 0x04)                               // arg 2 - fn selector\n            res := call(gas, proxy, 0, ptr, 0x64, ptr, 0)                       // call proxy.getContractMethod\n            if iszero(res) { revert(0, 0) }                                     // safety check\n\n            returndatacopy(ptr, 0, returndatasize)                              // copy fnData into ptr\n            let ret := add(ptr, mload(ptr))                                     // ret is pointer to start of fnData\n\n            let m_injParams := add(ret, mload(add(ret, 0x20)))                  // mem loc injected params\n            let injParams_len := mload(m_injParams)                             // num injected params\n            m_injParams := add(m_injParams, 0x20)                               // first injected param\n\n            let m_dynParams := add(ret, mload(add(ret, 0x40)))                  // memory location of start of dynamic params\n            let dynParams_len := mload(m_dynParams)                             // num dynamic params\n            m_dynParams := add(m_dynParams, 0x20)                               // first dynamic param\n\n            // forward calldata to LibTournament\n            ptr := add(ptr, returndatasize)                                     // shift ptr to new scratch space\n            mstore(ptr, mload(ret))                                             // forward call with modified selector\n\n            let ptr2 := add(ptr, 0x04)                                          // copy of ptr for keeping track of injected params\n            for { let i := 0 } lt(i, injParams_len) { i := add(i, 1) } {        // loop through injected params and insert\n                let injParam := mload(add(m_injParams, mul(i, 0x20)))           // get injected param slot\n                mstore(ptr2, injParam)                                          // store injected params into next slot\n                ptr2 := add(ptr2, 0x20)                                         // shift ptr2\n            }\n\n            calldatacopy(ptr2, 0x04, sub(calldatasize, 0x04))                   // copy calldata after injected data storage\n\n            // update dynamic params location\n            for { let i := 0 } lt(i, dynParams_len) { i := add(i, 1) } {\n                let idx := mload(add(m_dynParams, mul(i, 0x20)))                // get dynParam index in parameters\n                let loc := add(ptr2, mul(idx, 0x20))                            // get location in memory of dynParam\n                mstore(loc, add(mload(loc), mul(injParams_len, 0x20)))          // shift dynParam location by num injected\n            }\n\n            let size := add(calldatasize, mul(injParams_len, 0x20))             // calculate size of forwarded call\n            res := delegatecall(gas, libAddress, ptr, size, ptr, 0)             // delegatecall to library\n            if iszero(res) { revert(0, 0) }                                     // safety check\n\n            returndatacopy(ptr, 0, returndatasize)                              // copy return data into ptr for returning\n            return(ptr, returndatasize)                                         // return forwarded call returndata\n        }\n    }\n\n    // event TournamentCreated(address _tournamentAddress);\n    // function createTournament() public returns(address) {\n    //     address tournamentAddress = new Tournament(this);\n    //     emit TournamentCreated(tournamentAddress);\n    //     return tournamentAddress;\n    // }\n\n    function setContractLibrary(address _contract, bytes32 _libraryName) public { // onlyOwner!!!\n        contractToLibraryName[_contract] = _libraryName;\n    }\n}\n\ninterface IMatryxPlatform {\n    // function test(uint256,uint256[],uint256) external view returns (uint256);\n    function test(uint256) public view returns (uint256);\n}\n\nlibrary LibPlatform {\n    function test(uint256 n) public view returns (uint256) {\n        return n + 1;\n    }\n    // function test(uint256[] storage injected, uint256 a, uint256[] b, uint256 c) public view returns (uint256) {\n    //     return injected.length;\n    // }\n}\n\nlibrary LibTest {\n    function test(uint256 n) public view returns (uint256) {\n        return n;\n    }\n}\n\n/*\n\nproxy = contract(MatryxProxy.address, MatryxProxy);0\nproxy.createVersion(1)\nproxy.setVersion(1)\n// proxy.setContract(1, 'stringToBytes('LibPlatform')', LibPlatform.address)\n// proxy.addContractMethod(1, 'stringToBytes('LibPlatform')', '0xb01bd421', ['0x4cc53767', [2], [1]])\n\nproxy.setContract(1, stringToBytes('LibTest'), LibTest.address)\n\np = contract(MatryxPlatform.address, IMatryxPlatform);0\np.setContractLibrary(network.accounts[0], stringToBytes('LibTest'))\np.test(3,[7,6,5],4)\n\n*/\n",
  "sourcePath": "/Users/ajm13/Desktop/matryx/MatryxPlatform/contracts/MatryxPlatform.sol",
  "compiler": {
    "name": "solc",
    "version": "0.4.24+commit.e67f0147.Emscripten.clang"
  },
  "schemaVersion": "2.0.1",
  "updatedAt": "2018-09-12T23:49:26.377Z"
}