{
  "contractName": "MatryxPlatform",
  "abi": [
    {
      "constant": true,
      "inputs": [],
      "name": "matryxTournamentFactoryAddress",
      "outputs": [
        {
          "name": "",
          "type": "address"
        }
      ],
      "payable": false,
      "stateMutability": "view",
      "type": "function"
    },
    {
      "constant": true,
      "inputs": [],
      "name": "matryxTokenAddress",
      "outputs": [
        {
          "name": "",
          "type": "address"
        }
      ],
      "payable": false,
      "stateMutability": "view",
      "type": "function"
    },
    {
      "constant": true,
      "inputs": [
        {
          "name": "_sender",
          "type": "address"
        }
      ],
      "name": "isOwner",
      "outputs": [
        {
          "name": "_isOwner",
          "type": "bool"
        }
      ],
      "payable": false,
      "stateMutability": "view",
      "type": "function"
    },
    {
      "constant": true,
      "inputs": [
        {
          "name": "",
          "type": "address"
        }
      ],
      "name": "peerExists",
      "outputs": [
        {
          "name": "",
          "type": "bool"
        }
      ],
      "payable": false,
      "stateMutability": "view",
      "type": "function"
    },
    {
      "constant": true,
      "inputs": [],
      "name": "getOwner",
      "outputs": [
        {
          "name": "_owner",
          "type": "address"
        }
      ],
      "payable": false,
      "stateMutability": "view",
      "type": "function"
    },
    {
      "constant": true,
      "inputs": [],
      "name": "matryxRoundLibAddress",
      "outputs": [
        {
          "name": "",
          "type": "address"
        }
      ],
      "payable": false,
      "stateMutability": "view",
      "type": "function"
    },
    {
      "constant": true,
      "inputs": [],
      "name": "owner",
      "outputs": [
        {
          "name": "",
          "type": "address"
        }
      ],
      "payable": false,
      "stateMutability": "view",
      "type": "function"
    },
    {
      "constant": true,
      "inputs": [
        {
          "name": "",
          "type": "address"
        }
      ],
      "name": "ownerToPeerAndPeerToOwner",
      "outputs": [
        {
          "name": "",
          "type": "address"
        }
      ],
      "payable": false,
      "stateMutability": "view",
      "type": "function"
    },
    {
      "constant": true,
      "inputs": [],
      "name": "matryxPeerFactoryAddress",
      "outputs": [
        {
          "name": "",
          "type": "address"
        }
      ],
      "payable": false,
      "stateMutability": "view",
      "type": "function"
    },
    {
      "constant": true,
      "inputs": [],
      "name": "matryxSubmissionFactoryAddress",
      "outputs": [
        {
          "name": "",
          "type": "address"
        }
      ],
      "payable": false,
      "stateMutability": "view",
      "type": "function"
    },
    {
      "constant": true,
      "inputs": [
        {
          "name": "",
          "type": "uint256"
        }
      ],
      "name": "categoryList",
      "outputs": [
        {
          "name": "",
          "type": "bytes32"
        }
      ],
      "payable": false,
      "stateMutability": "view",
      "type": "function"
    },
    {
      "constant": true,
      "inputs": [
        {
          "name": "",
          "type": "uint256"
        }
      ],
      "name": "allTournaments",
      "outputs": [
        {
          "name": "",
          "type": "address"
        }
      ],
      "payable": false,
      "stateMutability": "view",
      "type": "function"
    },
    {
      "constant": false,
      "inputs": [
        {
          "name": "newOwner",
          "type": "address"
        }
      ],
      "name": "transferOwnership",
      "outputs": [],
      "payable": false,
      "stateMutability": "nonpayable",
      "type": "function"
    },
    {
      "inputs": [
        {
          "name": "_matryxTokenAddress",
          "type": "address"
        },
        {
          "name": "_matryxPeerFactoryAddress",
          "type": "address"
        },
        {
          "name": "_matryxTournamentFactoryAddress",
          "type": "address"
        },
        {
          "name": "_matryxSubmissionFactoryAddress",
          "type": "address"
        }
      ],
      "payable": false,
      "stateMutability": "nonpayable",
      "type": "constructor"
    },
    {
      "anonymous": false,
      "inputs": [
        {
          "indexed": false,
          "name": "_discipline",
          "type": "bytes32"
        },
        {
          "indexed": false,
          "name": "_owner",
          "type": "address"
        },
        {
          "indexed": false,
          "name": "_tournamentAddress",
          "type": "address"
        },
        {
          "indexed": false,
          "name": "_tournamentName",
          "type": "bytes32[3]"
        },
        {
          "indexed": false,
          "name": "_descriptionHash",
          "type": "bytes32[2]"
        },
        {
          "indexed": false,
          "name": "_MTXReward",
          "type": "uint256"
        },
        {
          "indexed": false,
          "name": "_entryFee",
          "type": "uint256"
        }
      ],
      "name": "TournamentCreated",
      "type": "event"
    },
    {
      "anonymous": false,
      "inputs": [
        {
          "indexed": false,
          "name": "_tournamentAddress",
          "type": "address"
        },
        {
          "indexed": false,
          "name": "_tournamentName_1",
          "type": "bytes32"
        },
        {
          "indexed": false,
          "name": "_tournamentName_2",
          "type": "bytes32"
        },
        {
          "indexed": false,
          "name": "_tournamentName_3",
          "type": "bytes32"
        },
        {
          "indexed": false,
          "name": "_externalAddress_1",
          "type": "bytes32"
        },
        {
          "indexed": false,
          "name": "_externalAddress_2",
          "type": "bytes32"
        },
        {
          "indexed": false,
          "name": "_MTXReward",
          "type": "uint256"
        },
        {
          "indexed": false,
          "name": "_entryFee",
          "type": "uint256"
        }
      ],
      "name": "TournamentOpened",
      "type": "event"
    },
    {
      "anonymous": false,
      "inputs": [
        {
          "indexed": false,
          "name": "_tournamentAddress",
          "type": "address"
        },
        {
          "indexed": false,
          "name": "_finalRoundNumber",
          "type": "uint256"
        },
        {
          "indexed": false,
          "name": "_MTXReward",
          "type": "uint256"
        }
      ],
      "name": "TournamentClosed",
      "type": "event"
    },
    {
      "anonymous": false,
      "inputs": [
        {
          "indexed": false,
          "name": "_entrant",
          "type": "address"
        },
        {
          "indexed": false,
          "name": "_tournamentAddress",
          "type": "address"
        }
      ],
      "name": "UserEnteredTournament",
      "type": "event"
    },
    {
      "anonymous": false,
      "inputs": [
        {
          "indexed": false,
          "name": "queryID",
          "type": "string"
        }
      ],
      "name": "QueryID",
      "type": "event"
    },
    {
      "anonymous": false,
      "inputs": [
        {
          "indexed": false,
          "name": "time",
          "type": "uint256"
        }
      ],
      "name": "TimeStamp",
      "type": "event"
    },
    {
      "constant": false,
      "inputs": [
        {
          "name": "_finalRoundNumber",
          "type": "uint256"
        },
        {
          "name": "_MTXReward",
          "type": "uint256"
        }
      ],
      "name": "invokeTournamentClosedEvent",
      "outputs": [],
      "payable": false,
      "stateMutability": "nonpayable",
      "type": "function"
    },
    {
      "constant": false,
      "inputs": [
        {
          "name": "_nameHash",
          "type": "bytes32"
        },
        {
          "name": "_contractAddress",
          "type": "address"
        }
      ],
      "name": "setContractAddress",
      "outputs": [],
      "payable": false,
      "stateMutability": "nonpayable",
      "type": "function"
    },
    {
      "constant": false,
      "inputs": [
        {
          "name": "_matryxTokenAddress",
          "type": "address"
        }
      ],
      "name": "setTokenAddress",
      "outputs": [],
      "payable": false,
      "stateMutability": "nonpayable",
      "type": "function"
    },
    {
      "constant": false,
      "inputs": [
        {
          "name": "_nameHash",
          "type": "bytes32"
        }
      ],
      "name": "getContractAddress",
      "outputs": [
        {
          "name": "contractAddress",
          "type": "address"
        }
      ],
      "payable": false,
      "stateMutability": "nonpayable",
      "type": "function"
    },
    {
      "constant": false,
      "inputs": [
        {
          "name": "_submissionAddress",
          "type": "address"
        },
        {
          "name": "_references",
          "type": "address[]"
        }
      ],
      "name": "handleReferenceRequestsForSubmission",
      "outputs": [
        {
          "name": "",
          "type": "bool"
        }
      ],
      "payable": false,
      "stateMutability": "nonpayable",
      "type": "function"
    },
    {
      "constant": false,
      "inputs": [
        {
          "name": "_reference",
          "type": "address"
        }
      ],
      "name": "handleReferenceRequestForSubmission",
      "outputs": [
        {
          "name": "",
          "type": "bool"
        }
      ],
      "payable": false,
      "stateMutability": "nonpayable",
      "type": "function"
    },
    {
      "constant": false,
      "inputs": [
        {
          "name": "_reference",
          "type": "address"
        }
      ],
      "name": "handleCancelledReferenceRequestForSubmission",
      "outputs": [
        {
          "name": "",
          "type": "bool"
        }
      ],
      "payable": false,
      "stateMutability": "nonpayable",
      "type": "function"
    },
    {
      "constant": false,
      "inputs": [
        {
          "name": "_owner",
          "type": "address"
        },
        {
          "name": "_submission",
          "type": "address"
        }
      ],
      "name": "updateSubmissions",
      "outputs": [],
      "payable": false,
      "stateMutability": "nonpayable",
      "type": "function"
    },
    {
      "constant": false,
      "inputs": [
        {
          "name": "_submissionAddress",
          "type": "address"
        },
        {
          "name": "_tournamentAddress",
          "type": "address"
        }
      ],
      "name": "removeSubmission",
      "outputs": [
        {
          "name": "",
          "type": "bool"
        }
      ],
      "payable": false,
      "stateMutability": "nonpayable",
      "type": "function"
    },
    {
      "constant": false,
      "inputs": [
        {
          "name": "_tournamentAddress",
          "type": "address"
        },
        {
          "name": "_category",
          "type": "bytes32"
        }
      ],
      "name": "addTournamentToCategory",
      "outputs": [],
      "payable": false,
      "stateMutability": "nonpayable",
      "type": "function"
    },
    {
      "constant": false,
      "inputs": [
        {
          "name": "_tournamentAddress",
          "type": "address"
        },
        {
          "name": "_category",
          "type": "bytes32"
        }
      ],
      "name": "removeTournamentFromCategory",
      "outputs": [],
      "payable": false,
      "stateMutability": "nonpayable",
      "type": "function"
    },
    {
      "constant": false,
      "inputs": [
        {
          "name": "_tournamentAddress",
          "type": "address"
        },
        {
          "name": "_oldCategory",
          "type": "bytes32"
        },
        {
          "name": "_newCategory",
          "type": "bytes32"
        }
      ],
      "name": "switchTournamentCategory",
      "outputs": [],
      "payable": false,
      "stateMutability": "nonpayable",
      "type": "function"
    },
    {
      "constant": true,
      "inputs": [
        {
          "name": "_category",
          "type": "bytes32"
        }
      ],
      "name": "getTournamentsByCategory",
      "outputs": [
        {
          "name": "",
          "type": "address[]"
        }
      ],
      "payable": false,
      "stateMutability": "view",
      "type": "function"
    },
    {
      "constant": true,
      "inputs": [
        {
          "name": "_category",
          "type": "bytes32"
        }
      ],
      "name": "getCategoryCount",
      "outputs": [
        {
          "name": "",
          "type": "uint256"
        }
      ],
      "payable": false,
      "stateMutability": "view",
      "type": "function"
    },
    {
      "constant": true,
      "inputs": [
        {
          "name": "_index",
          "type": "uint256"
        }
      ],
      "name": "getCategoryByIndex",
      "outputs": [
        {
          "name": "",
          "type": "bytes32"
        }
      ],
      "payable": false,
      "stateMutability": "view",
      "type": "function"
    },
    {
      "constant": true,
      "inputs": [],
      "name": "getAllCategories",
      "outputs": [
        {
          "name": "",
          "type": "uint256"
        },
        {
          "name": "",
          "type": "bytes32[]"
        }
      ],
      "payable": false,
      "stateMutability": "view",
      "type": "function"
    },
    {
      "constant": false,
      "inputs": [
        {
          "name": "_tournamentAddress",
          "type": "address"
        }
      ],
      "name": "enterTournament",
      "outputs": [
        {
          "name": "_success",
          "type": "bool"
        }
      ],
      "payable": false,
      "stateMutability": "nonpayable",
      "type": "function"
    },
    {
      "constant": false,
      "inputs": [
        {
          "components": [
            {
              "name": "category",
              "type": "bytes32"
            },
            {
              "name": "title",
              "type": "bytes32[3]"
            },
            {
              "name": "descriptionHash",
              "type": "bytes32[2]"
            },
            {
              "name": "fileHash",
              "type": "bytes32[2]"
            },
            {
              "name": "initialBounty",
              "type": "uint256"
            },
            {
              "name": "entryFee",
              "type": "uint256"
            }
          ],
          "name": "tournamentData",
          "type": "tuple"
        },
        {
          "components": [
            {
              "name": "start",
              "type": "uint256"
            },
            {
              "name": "end",
              "type": "uint256"
            },
            {
              "name": "reviewPeriodDuration",
              "type": "uint256"
            },
            {
              "name": "bounty",
              "type": "uint256"
            },
            {
              "name": "closed",
              "type": "bool"
            }
          ],
          "name": "roundData",
          "type": "tuple"
        }
      ],
      "name": "createTournament",
      "outputs": [
        {
          "name": "_tournamentAddress",
          "type": "address"
        }
      ],
      "payable": false,
      "stateMutability": "nonpayable",
      "type": "function"
    },
    {
      "constant": false,
      "inputs": [],
      "name": "createPeer",
      "outputs": [
        {
          "name": "",
          "type": "address"
        }
      ],
      "payable": false,
      "stateMutability": "nonpayable",
      "type": "function"
    },
    {
      "constant": true,
      "inputs": [
        {
          "name": "_peerAddress",
          "type": "address"
        }
      ],
      "name": "isPeer",
      "outputs": [
        {
          "name": "",
          "type": "bool"
        }
      ],
      "payable": false,
      "stateMutability": "view",
      "type": "function"
    },
    {
      "constant": true,
      "inputs": [
        {
          "name": "_sender",
          "type": "address"
        }
      ],
      "name": "hasPeer",
      "outputs": [
        {
          "name": "",
          "type": "bool"
        }
      ],
      "payable": false,
      "stateMutability": "view",
      "type": "function"
    },
    {
      "constant": true,
      "inputs": [
        {
          "name": "_peer",
          "type": "address"
        },
        {
          "name": "_reference",
          "type": "address"
        }
      ],
      "name": "peerExistsAndOwnsSubmission",
      "outputs": [
        {
          "name": "",
          "type": "bool"
        }
      ],
      "payable": false,
      "stateMutability": "view",
      "type": "function"
    },
    {
      "constant": true,
      "inputs": [
        {
          "name": "_sender",
          "type": "address"
        }
      ],
      "name": "peerAddress",
      "outputs": [
        {
          "name": "",
          "type": "address"
        }
      ],
      "payable": false,
      "stateMutability": "view",
      "type": "function"
    },
    {
      "constant": true,
      "inputs": [
        {
          "name": "_submissionAddress",
          "type": "address"
        }
      ],
      "name": "isSubmission",
      "outputs": [
        {
          "name": "",
          "type": "bool"
        }
      ],
      "payable": false,
      "stateMutability": "view",
      "type": "function"
    },
    {
      "constant": true,
      "inputs": [
        {
          "name": "_tournamentAddress",
          "type": "address"
        }
      ],
      "name": "getTournament_IsMine",
      "outputs": [
        {
          "name": "_isMine",
          "type": "bool"
        }
      ],
      "payable": false,
      "stateMutability": "view",
      "type": "function"
    },
    {
      "constant": false,
      "inputs": [
        {
          "name": "_gratitude",
          "type": "uint256"
        }
      ],
      "name": "setSubmissionGratitude",
      "outputs": [],
      "payable": false,
      "stateMutability": "nonpayable",
      "type": "function"
    },
    {
      "constant": true,
      "inputs": [],
      "name": "getNow",
      "outputs": [
        {
          "name": "",
          "type": "uint256"
        }
      ],
      "payable": false,
      "stateMutability": "view",
      "type": "function"
    },
    {
      "constant": true,
      "inputs": [],
      "name": "getTokenAddress",
      "outputs": [
        {
          "name": "",
          "type": "address"
        }
      ],
      "payable": false,
      "stateMutability": "view",
      "type": "function"
    },
    {
      "constant": true,
      "inputs": [],
      "name": "getTournamentFactoryAddress",
      "outputs": [
        {
          "name": "",
          "type": "address"
        }
      ],
      "payable": false,
      "stateMutability": "view",
      "type": "function"
    },
    {
      "constant": true,
      "inputs": [],
      "name": "getSubmissionGratitude",
      "outputs": [
        {
          "name": "",
          "type": "uint256"
        }
      ],
      "payable": false,
      "stateMutability": "view",
      "type": "function"
    },
    {
      "constant": true,
      "inputs": [],
      "name": "myTournaments",
      "outputs": [
        {
          "name": "",
          "type": "address[]"
        }
      ],
      "payable": false,
      "stateMutability": "view",
      "type": "function"
    },
    {
      "constant": true,
      "inputs": [],
      "name": "mySubmissions",
      "outputs": [
        {
          "name": "",
          "type": "address[]"
        }
      ],
      "payable": false,
      "stateMutability": "view",
      "type": "function"
    },
    {
      "constant": true,
      "inputs": [],
      "name": "tournamentCount",
      "outputs": [
        {
          "name": "_tournamentCount",
          "type": "uint256"
        }
      ],
      "payable": false,
      "stateMutability": "view",
      "type": "function"
    },
    {
      "constant": true,
      "inputs": [
        {
          "name": "_index",
          "type": "uint256"
        }
      ],
      "name": "getTournamentAtIndex",
      "outputs": [
        {
          "name": "_tournamentAddress",
          "type": "address"
        }
      ],
      "payable": false,
      "stateMutability": "view",
      "type": "function"
    },
    {
      "constant": true,
      "inputs": [],
      "name": "getTournaments",
      "outputs": [
        {
          "name": "",
          "type": "address[]"
        }
      ],
      "payable": false,
      "stateMutability": "view",
      "type": "function"
    },
    {
      "constant": false,
      "inputs": [],
      "name": "forceRevert",
      "outputs": [],
      "payable": false,
      "stateMutability": "nonpayable",
      "type": "function"
    }
  ],
  "bytecode": "0x60c0604052600160808190526702c68af0bb14000060a08190526017805460ff19169092179091556018553480156200003757600080fd5b506040516080806200304c8339810180604052620000599190810190620000cc565b6000805433600160a060020a031991821617909155600180548216600160a060020a03968716179055600280548216948616949094179093556003805484169285169290921790915560048054909216921691909117905562000142565b6000620000c5825162000136565b9392505050565b60008060008060808587031215620000e357600080fd5b6000620000f18787620000b7565b94505060206200010487828801620000b7565b93505060406200011787828801620000b7565b92505060606200012a87828801620000b7565b91505092959194509250565b600160a060020a031690565b612efa80620001526000396000f3006080604052600436106102505763ffffffff7c01000000000000000000000000000000000000000000000000000000006000350416630d2020dd811461025557806310fe9ae81461028b57806311cf11ae146102a05780631411f0a8146102b75780631d2245f5146102e457806326a4e8d21461030657806327252a0c1461032657806329cc545e1461033b5780632f54bf6e146103505780633e44cf781461037d578063453dd3e71461039d57806351488bce146103bd578063523b6ba2146103dd578063532311c4146103fd5780636a44e43d1461041d5780636c81a1e11461043d5780636e2b2c7c1461045d57806370e592b8146104725780637e10faa814610492578063818b5fa8146104b2578063893d20e8146104d25780638ac70272146104e75780638c593a8c146104fc5780638da5cb5b1461051c578063984ed2061461053157806399db60dd14610551578063a2d0ab4714610571578063a968c4b914610586578063ab9583d9146105a6578063b0ff5492146105c6578063b20a2dce146105db578063b2fad554146105f0578063b3abaaaa14610610578063bbe4fd5014610630578063c13ae92a14610645578063c21260a514610665578063c839984a14610685578063c8ab6c87146106a5578063dadd0a57146106ba578063e001f841146106dd578063e139a20c146106fd578063e14feaea14610712578063e8a0ed0d14610732578063eb19a6b614610752578063f2fde38b14610772578063f7468a3c14610792578063f7c3609d146107b2578063f7f20cb3146107c7578063fb5032d6146107dc575b600080fd5b34801561026157600080fd5b506102756102703660046129d3565b6107fc565b6040516102829190612ca8565b60405180910390f35b34801561029757600080fd5b50610275610824565b3480156102ac57600080fd5b506102b5610250565b005b3480156102c357600080fd5b506102d76102d23660046129d3565b610840565b6040516102829190612d39565b3480156102f057600080fd5b506102f9610863565b6040516102829190612d1a565b34801561031257600080fd5b506102b561032136600461287a565b6108db565b34801561033257600080fd5b5061027561093b565b34801561034757600080fd5b50610275610957565b34801561035c57600080fd5b5061037061036b36600461287a565b610973565b6040516102829190612d2b565b34801561038957600080fd5b5061037061039836600461287a565b610994565b3480156103a957600080fd5b506102f96103b83660046129d3565b6109bf565b3480156103c957600080fd5b506103706103d83660046128b6565b610a45565b3480156103e957600080fd5b506102d76103f83660046129d3565b610ac7565b34801561040957600080fd5b5061037061041836600461287a565b610ae6565b34801561042957600080fd5b5061027561043836600461287a565b610b13565b34801561044957600080fd5b506102b5610458366004612938565b610b3e565b34801561046957600080fd5b506102d7610cbf565b34801561047e57600080fd5b5061037061048d36600461287a565b610cc5565b34801561049e57600080fd5b506102756104ad366004612a10565b610cda565b3480156104be57600080fd5b506103706104cd36600461287a565b610fc6565b3480156104de57600080fd5b50610275610ff1565b3480156104f357600080fd5b5061027561100d565b34801561050857600080fd5b506103706105173660046128f0565b611029565b34801561052857600080fd5b506102756112ac565b34801561053d57600080fd5b5061027561054c3660046129d3565b6112c8565b34801561055d57600080fd5b5061027561056c36600461287a565b61131b565b34801561057d57600080fd5b50610275611343565b34801561059257600080fd5b506103706105a13660046128b6565b61135f565b3480156105b257600080fd5b506102b56105c13660046128b6565b611580565b3480156105d257600080fd5b506102756116c7565b3480156105e757600080fd5b506102d76116e3565b3480156105fc57600080fd5b5061037061060b36600461287a565b6116fe565b34801561061c57600080fd5b506102b561062b366004612968565b6118df565b34801561063c57600080fd5b506102d761195d565b34801561065157600080fd5b506102b56106603660046129d3565b61199b565b34801561067157600080fd5b506102d76106803660046129d3565b611a09565b34801561069157600080fd5b506102756106a03660046129d3565b611a28565b3480156106b157600080fd5b50610275611a5d565b3480156106c657600080fd5b506106cf611a79565b604051610282929190612df8565b3480156106e957600080fd5b506102b56106f83660046129f1565b611ae0565b34801561070957600080fd5b506102f9611b4c565b34801561071e57600080fd5b506102b561072d366004612a60565b611bc2565b34801561073e57600080fd5b5061037061074d36600461287a565b611c1f565b34801561075e57600080fd5b506102b561076d366004612938565b611d29565b34801561077e57600080fd5b506102b561078d36600461287a565b611ea8565b34801561079e57600080fd5b506103706107ad36600461287a565b611f2a565b3480156107be57600080fd5b506102756121c1565b3480156107d357600080fd5b506102f9612313565b3480156107e857600080fd5b506103706107f736600461287a565b612380565b60009081526006602052604090205473ffffffffffffffffffffffffffffffffffffffff1690565b60015473ffffffffffffffffffffffffffffffffffffffff1690565b600060088281548110151561085157fe5b90600052602060002001549050919050565b336000908152601360209081526040918290208054835181840281018401909452808452606093928301828280156108d157602002820191906000526020600020905b815473ffffffffffffffffffffffffffffffffffffffff1681526001909101906020018083116108a6575b5050505050905090565b60005473ffffffffffffffffffffffffffffffffffffffff1633146108ff57600080fd5b6001805473ffffffffffffffffffffffffffffffffffffffff191673ffffffffffffffffffffffffffffffffffffffff92909216919091179055565b60035473ffffffffffffffffffffffffffffffffffffffff1681565b60015473ffffffffffffffffffffffffffffffffffffffff1681565b60005473ffffffffffffffffffffffffffffffffffffffff91821691161490565b73ffffffffffffffffffffffffffffffffffffffff166000908152600e602052604090205460ff1690565b60408051828152815190819003602090810182206000908152600a82528390208054808302840183019094528383526060939091830182828015610a3957602002820191906000526020600020905b815473ffffffffffffffffffffffffffffffffffffffff168152600190910190602001808311610a0e575b50505050509050919050565b73ffffffffffffffffffffffffffffffffffffffff8083166000818152600e60209081526040808320548686168085526012845282852054958552600f84528285205490961684526010835281842095845294909152812054909260ff9081169281169116828015610ab45750815b8015610abd5750805b9695505050505050565b6000908152600c6020908152604080832054600a909252909120540390565b73ffffffffffffffffffffffffffffffffffffffff9081166000908152600f602052604090205416151590565b73ffffffffffffffffffffffffffffffffffffffff9081166000908152600f60205260409020541690565b6000823373ffffffffffffffffffffffffffffffffffffffff82161480610b95575033600090815260146020908152604080832073ffffffffffffffffffffffffffffffffffffffff8516845290915290205460ff165b80610b9f57503330145b1515610baa57600080fd5b6000838152600b6020908152604080832073ffffffffffffffffffffffffffffffffffffffff8816845290915290205460ff1615610cb95773ffffffffffffffffffffffffffffffffffffffff84166000818152600d6020908152604080832054878452600b8352818420948452938252808320805460ff19169055868352600a90915281208054929450909184908110610c4157fe5b6000918252602080832091909101805473ffffffffffffffffffffffffffffffffffffffff191673ffffffffffffffffffffffffffffffffffffffff9485161790559186168152600d82526040808220829055858252600c9092522054610ca9906001612542565b6000848152600c60205260409020555b50505050565b60075490565b600e6020526000908152604090205460ff1681565b6003546040517f02f47d6700000000000000000000000000000000000000000000000000000000815260009173ffffffffffffffffffffffffffffffffffffffff1690829082906302f47d6790610d3990889088903390600401612dcd565b602060405180830381600087803b158015610d5357600080fd5b505af1158015610d67573d6000803e3d6000fd5b505050506040513d601f19601f82011682018060405250610d8b9190810190612898565b90507f7f0842c9f62d65d689dd2d073fc3a8408ceeeb2cf7f0feb21bc6af149babbe1d85600001513383886020015189604001518a608001518b60a00151604051610ddc9796959493929190612d47565b60405180910390a160015460808601516040517f23b872dd00000000000000000000000000000000000000000000000000000000815273ffffffffffffffffffffffffffffffffffffffff909216916323b872dd91610e419133918691600401612cd7565b602060405180830381600087803b158015610e5b57600080fd5b505af1158015610e6f573d6000803e3d6000fd5b505050506040513d601f19601f82011682018060405250610e9391908101906129b5565b1515610e9e57600080fd5b60608401516040517f23721e2400000000000000000000000000000000000000000000000000000000815273ffffffffffffffffffffffffffffffffffffffff8316916323721e2491610ef691600091600401612db2565b600060405180830381600087803b158015610f1057600080fd5b505af1158015610f24573d6000803e3d6000fd5b50506007805460018082019092557fa66cc928b5edb82af9bd49922954155ab7b0942694bea4ce44661d9a8736c68801805473ffffffffffffffffffffffffffffffffffffffff191673ffffffffffffffffffffffffffffffffffffffff86169081179091556000908152601160205260409020805460ff1916909117905550610fb090503382612558565b610fbe818660000151611d29565b949350505050565b73ffffffffffffffffffffffffffffffffffffffff1660009081526012602052604090205460ff1690565b60005473ffffffffffffffffffffffffffffffffffffffff1690565b60055473ffffffffffffffffffffffffffffffffffffffff1681565b336000818152601160205260408082205481517f4c6962546f75726e616d656e74456e7472616e744d6574686f647300000000008152915191829003601b019091209192839283928392839260ff90921691839190611087906107fc565b73ffffffffffffffffffffffffffffffffffffffff1614905081806110a95750805b15156110b457600080fd5b600095505b87518610156112a05787868151811015156110d057fe5b9060200190602002015194506110e585610fc6565b15156110f057611295565b8493508373ffffffffffffffffffffffffffffffffffffffff1663a5faa1256040518163ffffffff167c0100000000000000000000000000000000000000000000000000000000028152600401602060405180830381600087803b15801561115757600080fd5b505af115801561116b573d6000803e3d6000fd5b505050506040513d601f19601f8201168201806040525061118f9190810190612898565b6040517fd1bbd31200000000000000000000000000000000000000000000000000000000815290935073ffffffffffffffffffffffffffffffffffffffff84169063d1bbd312906111e6908c908990600401612cbc565b600060405180830381600087803b15801561120057600080fd5b505af1158015611214573d6000803e3d6000fd5b505050508373ffffffffffffffffffffffffffffffffffffffff1663c7af35516040518163ffffffff167c0100000000000000000000000000000000000000000000000000000000028152600401600060405180830381600087803b15801561127c57600080fd5b505af1158015611290573d6000803e3d6000fd5b505050505b6001909501946110b9565b50505050505092915050565b60005473ffffffffffffffffffffffffffffffffffffffff1681565b6000808210156112d757600080fd5b60075482106112e557600080fd5b60078054839081106112f357fe5b60009182526020909120015473ffffffffffffffffffffffffffffffffffffffff1692915050565b600f6020526000908152604090205473ffffffffffffffffffffffffffffffffffffffff1681565b60025473ffffffffffffffffffffffffffffffffffffffff1681565b73ffffffffffffffffffffffffffffffffffffffff811660009081526011602052604081205481908190819060ff16151561139957600080fd5b73ffffffffffffffffffffffffffffffffffffffff861660009081526012602052604090205460ff1615156113cd57600080fd5b33600090815260106020908152604080832073ffffffffffffffffffffffffffffffffffffffff8a16845290915290205460ff16151561140c57600080fd5b8592508573ffffffffffffffffffffffffffffffffffffffff1663893d20e86040518163ffffffff167c0100000000000000000000000000000000000000000000000000000000028152600401602060405180830381600087803b15801561147357600080fd5b505af1158015611487573d6000803e3d6000fd5b505050506040513d601f19601f820116820180604052506114ab9190810190612898565b73ffffffffffffffffffffffffffffffffffffffff8082166000818152601660209081526040808320948c1683529381528382206001015460128252848320805460ff1916905592825260159052919091208054929450909250908290811061151057fe5b60009182526020808320909101805473ffffffffffffffffffffffffffffffffffffffff1916905573ffffffffffffffffffffffffffffffffffffffff8481168352601682526040808420918a16845291528120805460ff19168155600190810191909155935050505092915050565b336000818152601160205260408082205481517f4c6962546f75726e616d656e74456e7472616e744d6574686f647300000000008152915191829003601b0190912060ff90911692906115d2906107fc565b73ffffffffffffffffffffffffffffffffffffffff1614905081806115f45750805b15156115ff57600080fd5b5050604080518082018252600180825273ffffffffffffffffffffffffffffffffffffffff948516600081815260156020908152858220805482870190815284845260168352878420989099168084529782528683209551865490151560ff1991821617875598519585019590955584548085018655948252808220909401805473ffffffffffffffffffffffffffffffffffffffff191687179055908152601083528381209481529382528284208054861682179055601290915291208054909216179055565b60045473ffffffffffffffffffffffffffffffffffffffff1681565b60175460009060ff1615156116f757600080fd5b5060185490565b336000908152601260205260408120548190819060ff16151561172057600080fd5b61172984610fc6565b151561173457600080fd5b8391508173ffffffffffffffffffffffffffffffffffffffff1663a5faa1256040518163ffffffff167c0100000000000000000000000000000000000000000000000000000000028152600401602060405180830381600087803b15801561179b57600080fd5b505af11580156117af573d6000803e3d6000fd5b505050506040513d601f19601f820116820180604052506117d39190810190612898565b6040517fd1bbd31200000000000000000000000000000000000000000000000000000000815290915073ffffffffffffffffffffffffffffffffffffffff82169063d1bbd3129061182a9033908890600401612cbc565b600060405180830381600087803b15801561184457600080fd5b505af1158015611858573d6000803e3d6000fd5b505050508173ffffffffffffffffffffffffffffffffffffffff1663c7af35516040518163ffffffff167c0100000000000000000000000000000000000000000000000000000000028152600401600060405180830381600087803b1580156118c057600080fd5b505af11580156118d4573d6000803e3d6000fd5b505050505050919050565b823373ffffffffffffffffffffffffffffffffffffffff82161480611934575033600090815260146020908152604080832073ffffffffffffffffffffffffffffffffffffffff8516845290915290205460ff165b8061193e57503330145b151561194957600080fd5b6119538484610b3e565b610cb98483611d29565b60007fdfbf6547deaf4fa5dd154ec1daf5350032f31d34e4c755104dfbf6049163c0874260405161198e9190612d39565b60405180910390a1504290565b60005473ffffffffffffffffffffffffffffffffffffffff1633146119bf57600080fd5b600081101580156119d85750670de0b6b3a76400008111155b15156119e057fe5b60408051808201909152600180825260209091018290526017805460ff19169091179055601855565b6008805482908110611a1757fe5b600091825260209091200154905081565b6007805482908110611a3657fe5b60009182526020909120015473ffffffffffffffffffffffffffffffffffffffff16905081565b60035473ffffffffffffffffffffffffffffffffffffffff1690565b60006060600880549050600880805480602002602001604051908101604052809291908181526020018280548015611ad157602002820191906000526020600020905b81548152600190910190602001808311611abc575b50505050509050915091509091565b60005473ffffffffffffffffffffffffffffffffffffffff163314611b0457600080fd5b600091825260066020526040909120805473ffffffffffffffffffffffffffffffffffffffff191673ffffffffffffffffffffffffffffffffffffffff909216919091179055565b336000908152601560209081526040918290208054835181840281018401909452808452606093928301828280156108d15760200282019190600052602060002090815473ffffffffffffffffffffffffffffffffffffffff1681526001909101906020018083116108a6575050505050905090565b3360009081526011602052604090205460ff161515611be057600080fd5b7f575670c81f31b6e19bd59bbbe1729f3f052ae8a508d3977e1e1b2b752a256edb338383604051611c1393929190612cff565b60405180910390a15050565b73ffffffffffffffffffffffffffffffffffffffff8116600090815260116020526040812054819060ff161515611c5557600080fd5b8290503373ffffffffffffffffffffffffffffffffffffffff168173ffffffffffffffffffffffffffffffffffffffff1663893d20e86040518163ffffffff167c0100000000000000000000000000000000000000000000000000000000028152600401602060405180830381600087803b158015611cd357600080fd5b505af1158015611ce7573d6000803e3d6000fd5b505050506040513d601f19601f82011682018060405250611d0b9190810190612898565b73ffffffffffffffffffffffffffffffffffffffff16149392505050565b813373ffffffffffffffffffffffffffffffffffffffff82161480611d7e575033600090815260146020908152604080832073ffffffffffffffffffffffffffffffffffffffff8516845290915290205460ff165b80611d8857503330145b1515611d9357600080fd5b60008281526009602052604090205460ff161515611de157600880546001810182556000919091527ff3f7a9fe364faab93b216da50a3214154f22a0a2b415b23a84c8169e8b636ee3018290555b6000828152600b6020908152604080832073ffffffffffffffffffffffffffffffffffffffff8716845290915290205460ff161515611ea3576000828152600b6020908152604080832073ffffffffffffffffffffffffffffffffffffffff8716808552908352818420805460ff19166001908117909155600d8452828520808201889055878652600a85529285208054938490559083018155845291909220909101805473ffffffffffffffffffffffffffffffffffffffff191690911790555b505050565b60005473ffffffffffffffffffffffffffffffffffffffff163314611ecc57600080fd5b73ffffffffffffffffffffffffffffffffffffffff81161515611eee57600080fd5b6000805473ffffffffffffffffffffffffffffffffffffffff191673ffffffffffffffffffffffffffffffffffffffff92909216919091179055565b60008060008033611f3a81610ae6565b1515611f4557600080fd5b8573ffffffffffffffffffffffffffffffffffffffff871660009081526011602052604090205460ff161515611f7a57600080fd5b8694508473ffffffffffffffffffffffffffffffffffffffff1663e586a4f06040518163ffffffff167c0100000000000000000000000000000000000000000000000000000000028152600401602060405180830381600087803b158015611fe157600080fd5b505af1158015611ff5573d6000803e3d6000fd5b505050506040513d601f19601f820116820180604052506120199190810190612a42565b6001546040517f23b872dd00000000000000000000000000000000000000000000000000000000815291955073ffffffffffffffffffffffffffffffffffffffff16906323b872dd906120749033908b908990600401612cd7565b602060405180830381600087803b15801561208e57600080fd5b505af11580156120a2573d6000803e3d6000fd5b505050506040513d601f19601f820116820180604052506120c691908101906129b5565b925082156121b4576040517f28d576d700000000000000000000000000000000000000000000000000000000815273ffffffffffffffffffffffffffffffffffffffff8616906328d576d790612120903390600401612ca8565b602060405180830381600087803b15801561213a57600080fd5b505af115801561214e573d6000803e3d6000fd5b505050506040513d601f19601f8201168201806040525061217291908101906129b5565b925082156121b4577f5891a745b8d042d48bd1e4aed889e63bdc3e44242bb75694ea97573460e03a8b33886040516121ab929190612cbc565b60405180910390a15b5060019695505050505050565b336000908152600f60205260408120548190819073ffffffffffffffffffffffffffffffffffffffff16156121f557600080fd5b6002546040517f48bf957700000000000000000000000000000000000000000000000000000000815273ffffffffffffffffffffffffffffffffffffffff909116925082906348bf95779061224e903390600401612ca8565b602060405180830381600087803b15801561226857600080fd5b505af115801561227c573d6000803e3d6000fd5b505050506040513d601f19601f820116820180604052506122a09190810190612898565b73ffffffffffffffffffffffffffffffffffffffff166000818152600e60209081526040808320805460ff1916600117905533808452600f909252808320805473ffffffffffffffffffffffffffffffffffffffff19908116861790915593835290912080549092161790555090919050565b606060078054806020026020016040519081016040528092919081815260200182805480156108d15760200282019190600052602060002090815473ffffffffffffffffffffffffffffffffffffffff1681526001909101906020018083116108a6575050505050905090565b336000908152601260205260408120548190819060ff1615156123a257600080fd5b6123ab84610fc6565b15156123b657600080fd5b8391508173ffffffffffffffffffffffffffffffffffffffff1663a5faa1256040518163ffffffff167c0100000000000000000000000000000000000000000000000000000000028152600401602060405180830381600087803b15801561241d57600080fd5b505af1158015612431573d6000803e3d6000fd5b505050506040513d601f19601f820116820180604052506124559190810190612898565b6040517fa1cc4ac100000000000000000000000000000000000000000000000000000000815290915073ffffffffffffffffffffffffffffffffffffffff82169063a1cc4ac1906124ac9033908890600401612cbc565b600060405180830381600087803b1580156124c657600080fd5b505af11580156124da573d6000803e3d6000fd5b505050508173ffffffffffffffffffffffffffffffffffffffff1663444e31ca6040518163ffffffff167c0100000000000000000000000000000000000000000000000000000000028152600401600060405180830381600087803b1580156118c057600080fd5b60008282018381101561255157fe5b9392505050565b73ffffffffffffffffffffffffffffffffffffffff918216600081815260136020908152604080832080546001808201835591855283852001805473ffffffffffffffffffffffffffffffffffffffff19169690971695861790965592825260148152828220938252929092529020805460ff19169091179055565b60006125518235612e97565b60006125518251612e97565b6000601f820183136125fd57600080fd5b813561261061260b82612e3f565b612e18565b9150818183526020840193506020810190508385602084028201111561263557600080fd5b60005b83811015612661578161264b88826125d4565b8452506020928301929190910190600101612638565b5050505092915050565b6000601f8201831361267c57600080fd5b600261268a61260b82612e60565b915081838560208402820111156126a057600080fd5b60005b8381101561266157816126b68882612745565b84525060209283019291909101906001016126a3565b6000601f820183136126dd57600080fd5b60036126eb61260b82612e60565b9150818385602084028201111561270157600080fd5b60005b8381101561266157816127178882612745565b8452506020928301929190910190600101612704565b60006125518235612eb0565b60006125518251612eb0565b60006125518235612e84565b600060a0828403121561276357600080fd5b61276d60a0612e18565b9050600061277b8484612745565b825250602061278c84848301612745565b60208301525060406127a084828501612745565b60408301525060606127b484828501612745565b60608301525060806127c88482850161272d565b60808301525092915050565b600061014082840312156127e757600080fd5b6127f160c0612e18565b905060006127ff8484612745565b8252506020612810848483016126cc565b60208301525060806128248482850161266b565b60408301525060c06128388482850161266b565b60608301525061010061284d84828501612745565b60808301525061012061286284828501612745565b60a08301525092915050565b60006125518251612e84565b60006020828403121561288c57600080fd5b6000610fbe84846125d4565b6000602082840312156128aa57600080fd5b6000610fbe84846125e0565b600080604083850312156128c957600080fd5b60006128d585856125d4565b92505060206128e6858286016125d4565b9150509250929050565b6000806040838503121561290357600080fd5b600061290f85856125d4565b925050602083013567ffffffffffffffff81111561292c57600080fd5b6128e6858286016125ec565b6000806040838503121561294b57600080fd5b600061295785856125d4565b92505060206128e685828601612745565b60008060006060848603121561297d57600080fd5b600061298986866125d4565b935050602061299a86828701612745565b92505060406129ab86828701612745565b9150509250925092565b6000602082840312156129c757600080fd5b6000610fbe8484612739565b6000602082840312156129e557600080fd5b6000610fbe8484612745565b60008060408385031215612a0457600080fd5b60006128d58585612745565b6000806101e08385031215612a2457600080fd5b6000612a3085856127d4565b9250506101406128e685828601612751565b600060208284031215612a5457600080fd5b6000610fbe848461286e565b60008060408385031215612a7357600080fd5b60006129578585612745565b612a8881612e97565b82525050565b6000612a9982612e87565b808452602084019350612aab83612e7e565b60005b82811015612adb57612ac1868351612a7f565b612aca82612e7e565b602096909601959150600101612aae565b5093949350505050565b612aee81612e8b565b612af782612e84565b60005b82811015612b2757612b0d858351612bc6565b612b1682612e7e565b602095909501949150600101612afa565b5050505050565b612b3781612e91565b612b4082612e84565b60005b82811015612b2757612b56858351612bc6565b612b5f82612e7e565b602095909501949150600101612b43565b6000612b7b82612e87565b808452602084019350612b8d83612e7e565b60005b82811015612adb57612ba3868351612bc6565b612bac82612e7e565b602096909601959150600101612b90565b612a8881612eb0565b612a8881612e84565b612a8881612eb5565b805160a0830190612be98482612bc6565b506020820151612bfc6020850182612bc6565b506040820151612c0f6040850182612bc6565b506060820151612c226060850182612bc6565b506080820151610cb96080850182612bbd565b8051610140830190612c478482612bc6565b506020820151612c5a6020850182612b2e565b506040820151612c6d6080850182612ae5565b506060820151612c8060c0850182612ae5565b506080820151612c94610100850182612bc6565b5060a0820151610cb9610120850182612bc6565b60208101612cb68284612a7f565b92915050565b60408101612cca8285612a7f565b6125516020830184612a7f565b60608101612ce58286612a7f565b612cf26020830185612a7f565b610fbe6040830184612bc6565b60608101612d0d8286612a7f565b612cf26020830185612bc6565b602080825281016125518184612a8e565b60208101612cb68284612bbd565b60208101612cb68284612bc6565b6101408101612d56828a612bc6565b612d636020830189612a7f565b612d706040830188612a7f565b612d7d6060830187612b2e565b612d8a60c0830186612ae5565b612d98610100830185612bc6565b612da6610120830184612bc6565b98975050505050505050565b60408101612dc08285612bcf565b6125516020830184612bc6565b6102008101612ddc8286612c35565b612dea610140830185612bd8565b610fbe6101e0830184612a7f565b60408101612e068285612bc6565b8181036020830152610fbe8184612b70565b60405181810167ffffffffffffffff81118282101715612e3757600080fd5b604052919050565b600067ffffffffffffffff821115612e5657600080fd5b5060209081020190565b600067ffffffffffffffff821115612e7757600080fd5b5060200290565b60200190565b90565b5190565b50600290565b50600390565b73ffffffffffffffffffffffffffffffffffffffff1690565b151590565b6000612cb682612e845600a265627a7a72305820da6f15842a7c74e801045a24b2da2343d1f3176f069891625ffd409a5936066b6c6578706572696d656e74616cf50037",
  "source": "pragma solidity ^0.4.18;\npragma experimental ABIEncoderV2;\n\nimport \"../libraries/math/SafeMath.sol\";\nimport \"../libraries/math/SafeMath128.sol\";\nimport \"../interfaces/IMatryxToken.sol\";\nimport \"../interfaces/IMatryxPeer.sol\";\nimport \"../interfaces/IMatryxPlatform.sol\";\nimport \"../interfaces/factories/IMatryxPeerFactory.sol\";\nimport \"../interfaces/factories/IMatryxTournamentFactory.sol\";\nimport \"../interfaces/IMatryxTournament.sol\";\nimport \"../interfaces/IMatryxRound.sol\";\nimport \"../interfaces/IMatryxSubmission.sol\";\nimport \"./Ownable.sol\";\n\n/// @title MatryxPlatform - The Matryx platform contract.\n/// @author Max Howard - <max@nanome.ai>, Sam Hessenauer - <sam@nanome.ai>\ncontract MatryxPlatform is Ownable {\n    using SafeMath for uint256;\n    using SafeMath128 for uint128;\n\n    // TODO: condense and put in structs\n    address public matryxTokenAddress;\n    address public matryxPeerFactoryAddress;\n    address public matryxTournamentFactoryAddress;\n    address public matryxSubmissionFactoryAddress;\n    address public matryxRoundLibAddress;\n\n    mapping(bytes32=>address) private contracts;\n\n    address[] public allTournaments;\n    // bytes32 public hashOfTopCategory;\n    // bytes32 public hashOfLastCategory;\n    // mapping(uint256=>bytes32) public  topCategoryByCount;\n    // mapping(bytes32=>category) public categoryIterator;\n    bytes32[] public categoryList;\n    mapping(bytes32=>bool) categoryExists;\n    mapping(bytes32=>address[]) categoryToTournamentList;\n    mapping(bytes32=>mapping(address=>bool)) tournamentExistsInCategory;\n    mapping(bytes32=>uint256) emptyCountByCategory;\n    mapping(address=>CategoryInfo) tournamentAddressToCategoryInfo;\n\n    mapping(address=>bool) public peerExists;\n    mapping(address=>address) public ownerToPeerAndPeerToOwner;\n    mapping(address=>mapping(address=>bool)) addressToOwnsSubmission;\n    mapping(address=>bool) tournamentExists;\n    mapping(address=>bool) submissionExists;\n\n    mapping(address=>address[]) ownerToTournamentArray;\n    mapping(address=>mapping(address=>bool)) entrantToOwnsTournament;\n    mapping(address=>address[]) ownerToSubmissionArray;\n    mapping(address=>mapping(address=>uint256_optional))  ownerToSubmissionToSubmissionIndex;\n\n    // Hyperparams\n    uint256_optional submissionGratitude = uint256_optional({exists: true, value: 2*10**17});\n\n    constructor(address _matryxTokenAddress, address _matryxPeerFactoryAddress, address _matryxTournamentFactoryAddress, address _matryxSubmissionFactoryAddress) public\n    {\n        matryxTokenAddress = _matryxTokenAddress;\n        matryxPeerFactoryAddress = _matryxPeerFactoryAddress;\n        matryxTournamentFactoryAddress = _matryxTournamentFactoryAddress;\n        matryxSubmissionFactoryAddress = _matryxSubmissionFactoryAddress;\n    }\n\n    /*\n    * Structs\n    */\n\n    struct uint256_optional\n    {\n        bool exists;\n        uint256 value;\n    }\n\n    struct CategoryInfo\n    {\n        uint256 index;\n        bytes32 category;\n    }\n\n    /*\n    * Events\n    */\n    event TournamentCreated(bytes32 _discipline, address _owner, address _tournamentAddress, bytes32[3] _tournamentName, bytes32[2] _descriptionHash, uint256 _MTXReward, uint256 _entryFee);\n    event TournamentOpened(address _tournamentAddress, bytes32 _tournamentName_1, bytes32 _tournamentName_2, bytes32 _tournamentName_3, bytes32 _externalAddress_1, bytes32 _externalAddress_2, uint256 _MTXReward, uint256 _entryFee);\n    event TournamentClosed(address _tournamentAddress, uint256 _finalRoundNumber, uint256 _MTXReward);\n    event UserEnteredTournament(address _entrant, address _tournamentAddress);\n    event QueryID(string queryID);\n\n    /// @dev Allows tournaments to invoke tournamentClosed events on the platform.\n    /// @param _finalRoundNumber Index of the round containing the winning submission.\n    function invokeTournamentClosedEvent(uint256 _finalRoundNumber, uint256 _MTXReward) public onlyTournament\n    {\n        emit TournamentClosed(msg.sender, _finalRoundNumber, _MTXReward);\n    }\n\n    /*\n    * Modifiers\n    */\n\n    modifier onlyTournament\n    {\n        require(tournamentExists[msg.sender]);\n        _;\n    }\n\n    modifier onlyTournamentOrTournamentLib\n    {\n        bool isTournament = tournamentExists[msg.sender];\n        bool isTournamentLib = getContractAddress(keccak256(\"LibTournamentEntrantMethods\")) == msg.sender;\n\n        require(isTournament || isTournamentLib);\n        _;\n    }\n\n    modifier onlySubmission\n    {\n        require(submissionExists[msg.sender]);\n        _;\n    }\n\n    modifier onlyPeerLinked(address _sender)\n    {\n        require(hasPeer(_sender));\n        _;\n    }\n\n    modifier onlyTournamentOwnerOrPlatform(address _tournamentAddress)\n    {\n        require(msg.sender == _tournamentAddress || entrantToOwnsTournament[msg.sender][_tournamentAddress] || msg.sender == address(this));\n        _;\n    }\n\n    modifier notOwner(address _tournamentAddress)\n    {\n        require(true);\n        // require(entrantToOwnsTournament[msg.sender][_tournamentAddress] == false);\n        _;\n    }\n\n    /*\n    * State Maintenance Methods\n    */\n\n    /// @dev Sets an address for a contract the platform should know about.\n    /// @param _nameHash Keccak256 hash of the name of the contract to give an address to.\n    /// @param _contractAddress Address to be assigned for the given contract name.\n    function setContractAddress(bytes32 _nameHash, address _contractAddress) public onlyOwner\n    {\n        contracts[_nameHash] = _contractAddress;\n    }\n\n\n    function setTokenAddress(address _matryxTokenAddress) public onlyOwner\n    {\n        matryxTokenAddress = _matryxTokenAddress;\n    }\n\n    /// @dev Gets the address of a contract the platform knows about.\n    /// @param _nameHash Keccak256 hash of the name of the contract to look for.\n    /// @return Address of the contract with the designated name.\n    function getContractAddress(bytes32 _nameHash) public returns (address contractAddress)\n    {\n        return contracts[_nameHash];\n    }\n\n    // @dev Sends out reference requests for a particular submission.\n    // @param _references Reference whose authors will be sent requests.\n    // @returns Whether or not all references were successfully sent a request.\n    function handleReferenceRequestsForSubmission(address _submissionAddress, address[] _references) public onlyTournamentOrTournamentLib returns (bool)\n    {\n        for(uint256 i = 0; i < _references.length; i++)\n        {\n            address _referenceAddress = _references[i];\n\n            if(!isSubmission(_referenceAddress))\n            {\n                // TODO: Introduce uint error codes\n                // for returning things like \"Reference _ is not submission\"\n                continue;\n            }\n\n            IMatryxSubmission submission = IMatryxSubmission(_referenceAddress);\n            address author = submission.getAuthor();\n            IMatryxPeer(author).receiveReferenceRequest(_submissionAddress, _referenceAddress);\n            submission.receiveReferenceRequest();\n        }\n    }\n\n    // @dev Sends out a reference request for a submission (must be called by the submission).\n    // @param _reference Reference whose author will be sent a request.\n    // @returns Whether or not all references were successfully sent a request.\n    function handleReferenceRequestForSubmission(address _reference) public onlySubmission returns (bool)\n    {\n        require(isSubmission(_reference));\n        IMatryxSubmission submission = IMatryxSubmission(_reference);\n        address author = submission.getAuthor();\n        IMatryxPeer(author).receiveReferenceRequest(msg.sender, _reference);\n        submission.receiveReferenceRequest();\n    }\n\n    function handleCancelledReferenceRequestForSubmission(address _reference) public onlySubmission returns (bool)\n    {\n        require(isSubmission(_reference));\n        IMatryxSubmission submission = IMatryxSubmission(_reference);\n        address author = submission.getAuthor();\n        IMatryxPeer(author).receiveCancelledReferenceRequest(msg.sender, _reference);\n        submission.cancelReferenceRequest();\n    }\n\n    function updateUsersTournaments(address _owner, address _tournament) internal\n    {\n        ownerToTournamentArray[_owner].push(_tournament);\n        entrantToOwnsTournament[_owner][_tournament] = true;\n    }\n\n    function updateSubmissions(address _owner, address _submission) public onlyTournamentOrTournamentLib\n    {\n        ownerToSubmissionToSubmissionIndex[_owner][_submission] = uint256_optional({exists:true, value:ownerToSubmissionArray[_owner].length});\n        ownerToSubmissionArray[_owner].push(_submission);\n        addressToOwnsSubmission[_owner][_submission] = true;\n        submissionExists[_submission] = true;\n    }\n\n    function removeSubmission(address _submissionAddress, address _tournamentAddress) public returns (bool)\n    {\n        require(tournamentExists[_tournamentAddress]);\n        require(submissionExists[_submissionAddress]);\n        require(addressToOwnsSubmission[msg.sender][_submissionAddress]);\n\n        IMatryxSubmission submission = IMatryxSubmission(_submissionAddress);\n        address owner = Ownable(_submissionAddress).getOwner();\n        uint256 submissionIndex = ownerToSubmissionToSubmissionIndex[owner][_submissionAddress].value;\n\n        submissionExists[_submissionAddress] = false;\n        delete ownerToSubmissionArray[owner][submissionIndex];\n        delete ownerToSubmissionToSubmissionIndex[owner][_submissionAddress];\n\n        //IMatryxTournament(_tournamentAddress).removeSubmission(_submissionAddress, owner);\n        return true;\n    }\n\n    function addTournamentToCategory(address _tournamentAddress, bytes32 _category) public onlyTournamentOwnerOrPlatform(_tournamentAddress)\n    {\n        if(categoryExists[_category] == false)\n        {\n            categoryList.push(_category);\n        }\n\n        if(tournamentExistsInCategory[_category][_tournamentAddress] == false)\n        {\n            tournamentExistsInCategory[_category][_tournamentAddress] = true;\n            tournamentAddressToCategoryInfo[_tournamentAddress].category = _category;\n            tournamentAddressToCategoryInfo[_tournamentAddress].index = (categoryToTournamentList[_category]).length;\n            categoryToTournamentList[_category].push(_tournamentAddress);\n        }\n    }\n\n    function removeTournamentFromCategory(address _tournamentAddress, bytes32 _category) public onlyTournamentOwnerOrPlatform(_tournamentAddress)\n    {\n        if(tournamentExistsInCategory[_category][_tournamentAddress])\n        {\n            // It's there! Let's remove it\n            uint256 indexInCategoryList = tournamentAddressToCategoryInfo[_tournamentAddress].index;\n            tournamentExistsInCategory[_category][_tournamentAddress] = false;\n            categoryToTournamentList[_category][indexInCategoryList] = 0x0;\n            tournamentAddressToCategoryInfo[_tournamentAddress].index = 0;\n            emptyCountByCategory[_category] = emptyCountByCategory[_category].add(1);\n        }\n    }\n\n    function switchTournamentCategory(address _tournamentAddress, bytes32 _oldCategory, bytes32 _newCategory) public onlyTournamentOwnerOrPlatform(_tournamentAddress)\n    {\n        removeTournamentFromCategory(_tournamentAddress, _oldCategory);\n        addTournamentToCategory(_tournamentAddress, _newCategory);\n    }\n\n    function getTournamentsByCategory(bytes32 _category) external view returns (address[])\n    {\n        return categoryToTournamentList[keccak256(_category)];\n    }\n\n    function getCategoryCount(bytes32 _category) external view returns (uint256)\n    {\n        return categoryToTournamentList[_category].length - emptyCountByCategory[_category];\n    }\n\n    function getCategoryByIndex(uint256 _index) public view returns (bytes32)\n    {\n        return categoryList[_index];\n    }\n\n    function getAllCategories() public view returns (uint256, bytes32[])\n    {\n        return (categoryList.length, categoryList);\n    }\n\n    // function switchTournamentCategory(string discipline) onlyTournament public\n    // {\n    //   revert();\n    // }\n\n    /*\n    * Tournament Entry Methods\n    */\n\n    /// @dev Enter the user into a tournament and charge the entry fee.\n    /// @param _tournamentAddress Address of the tournament to enter into.\n    /// @return _success Whether or not user was successfully entered into the tournament.\n    function enterTournament(address _tournamentAddress) public onlyPeerLinked(msg.sender) notOwner(_tournamentAddress) returns (bool _success)\n    {\n        require(tournamentExists[_tournamentAddress]);\n\n        IMatryxTournament tournament = IMatryxTournament(_tournamentAddress);\n        uint256 entryFee = tournament.getEntryFee();\n\n        bool success = IMatryxToken(matryxTokenAddress).transferFrom(msg.sender, _tournamentAddress, entryFee);\n        if(success)\n        {\n            success = tournament.enterUserInTournament(msg.sender);\n            if(success)\n            {\n                emit UserEnteredTournament(msg.sender, _tournamentAddress);\n            }\n        }\n\n        return true;\n    }\n\n    /*\n    * Tournament Admin Methods\n    */\n\n    // function createTournament(LibConstruction.TournamentData tournamentData, LibConstruction.RoundData roundData) public returns (address _tournamentAddress)\n    // {\n    //     IMatryxTournamentFactory tournamentFactory = IMatryxTournamentFactory(matryxTournamentFactoryAddress);\n    //     address newTournament = tournamentFactory.createTournament(tournamentData, roundData, msg.sender);\n    //     emit TournamentCreated(tournamentData.category, msg.sender, newTournament, tournamentData.title, tournamentData.descriptionHash, tournamentData.initialBounty, tournamentData.entryFee);\n\n    //     require(IMatryxToken(matryxTokenAddress).transferFrom(msg.sender, newTournament, tournamentData.initialBounty));\n    //     IMatryxTournament(newTournament).sendBountyToRound(0, roundData.bounty);\n    //     // update data structures\n    //     allTournaments.push(newTournament);\n    //     tournamentExists[newTournament] = true;\n    //     updateUsersTournaments(msg.sender, newTournament);\n\n    //     addTournamentToCategory(newTournament, tournamentData.category);\n\n    //     return newTournament;\n    // }\n\n    /// @dev Create a new tournament.\n    /// @param tournamentData Data to populate the new tournament with. Includes:\n    ///    category: Discipline the tournament falls under.\n    ///    title: Name of the new tournament.\n    ///    contentHash: Off-chain content hash of tournament details (ipfs hash)\n    ///    initialBounty: Total tournament reward in MTX.\n    ///    entryFee: Fee to charge participant upon entering into the tournament.\n    /// @param roundData Data to populate the first round of the tournament with. Includes:\n    ///    startTime: The start time (unix-epoch-based) of the first round.\n    ///    endTime: The end time (unix-epoch-based) of the first round.\n    ///    reviewPeriodDuration: The amount of the tournament owner has to determine the winners of the round.\n    ///    bounty: The reward for the first round's winners.\n    /// @return _tournamentAddress Address of the newly created tournament.\n    function createTournament(LibConstruction.TournamentData tournamentData, LibConstruction.RoundData roundData) public returns (address _tournamentAddress)\n    {\n        IMatryxTournamentFactory tournamentFactory = IMatryxTournamentFactory(matryxTournamentFactoryAddress);\n        address newTournament = tournamentFactory.createTournament(tournamentData, roundData, msg.sender);\n\n        emit TournamentCreated(tournamentData.category, msg.sender, newTournament, tournamentData.title, tournamentData.descriptionHash, tournamentData.initialBounty, tournamentData.entryFee);\n\n        require(IMatryxToken(matryxTokenAddress).transferFrom(msg.sender, newTournament, tournamentData.initialBounty));\n        IMatryxTournament(newTournament).sendBountyToRound(0, roundData.bounty);\n        // update data structures\n        allTournaments.push(newTournament);\n        tournamentExists[newTournament] = true;\n        updateUsersTournaments(msg.sender, newTournament);\n\n        addTournamentToCategory(newTournament, tournamentData.category);\n\n        return newTournament;\n    }\n    /*\n    * Access Control Methods\n    */\n\n    function createPeer() public returns (address)\n    {\n        require(ownerToPeerAndPeerToOwner[msg.sender] == 0x0);\n        IMatryxPeerFactory peerFactory = IMatryxPeerFactory(matryxPeerFactoryAddress);\n        address peer = peerFactory.createPeer(msg.sender);\n        peerExists[peer] = true;\n        ownerToPeerAndPeerToOwner[msg.sender] = peer;\n        ownerToPeerAndPeerToOwner[peer] = msg.sender;\n    }\n\n    function isPeer(address _peerAddress) public view returns (bool)\n    {\n        return peerExists[_peerAddress];\n    }\n\n    function hasPeer(address _sender) public view returns (bool)\n    {\n        return (ownerToPeerAndPeerToOwner[_sender] != 0x0);\n    }\n\n    function peerExistsAndOwnsSubmission(address _peer, address _reference) public view returns (bool)\n    {\n        bool isAPeer = peerExists[_peer];\n        bool referenceIsSubmission = submissionExists[_reference];\n        bool peerOwnsSubmission = addressToOwnsSubmission[ownerToPeerAndPeerToOwner[_peer]][_reference];\n\n        return isAPeer && referenceIsSubmission && peerOwnsSubmission;\n    }\n\n    function peerAddress(address _sender) public view returns (address)\n    {\n        return ownerToPeerAndPeerToOwner[_sender];\n    }\n\n    function isSubmission(address _submissionAddress) public view returns (bool)\n    {\n        return submissionExists[_submissionAddress];\n    }\n\n    /// @dev Returns whether or not the given tournament belongs to the sender.\n    /// @param _tournamentAddress Address of the tournament to check.\n    /// @return _isMine Whether or not the tournament belongs to the sender.\n    function getTournament_IsMine(address _tournamentAddress) public view returns (bool _isMine)\n    {\n        require(tournamentExists[_tournamentAddress]);\n        Ownable tournament = Ownable(_tournamentAddress);\n        return (tournament.getOwner() == msg.sender);\n    }\n\n    /*\n    * Setter Methods\n    */\n\n    /// @dev              Set the relative amount of MTX to be delivered to a submission's\n    ///                   references\n    /// @param _gratitude Weight from 0 to 1 (18 decimal uint) specifying enforced submission\n    ///                   gratitude\n    function setSubmissionGratitude(uint256 _gratitude) public onlyOwner\n    {\n        assert(_gratitude >= 0 && _gratitude <= (1*10**18));\n        submissionGratitude = uint256_optional({exists: true, value: _gratitude});\n    }\n\n    event TimeStamp(uint256 time);\n\n    function getNow() public view returns (uint256)\n    {\n        emit TimeStamp(now);\n        return now;\n    }\n\n    /*\n    * Getter Methods\n    */\n\n    function getTokenAddress() public view returns (address)\n    {\n        return matryxTokenAddress;\n    }\n\n    function getTournamentFactoryAddress() public view returns (address)\n    {\n        return matryxTournamentFactoryAddress;\n    }\n\n    /// @dev    Returns a weight from 0 to 1 (18 decimal uint) indicating\n    ///         how much of a submission's reward goes to its references.\n    /// @return Relative amount of MTX going to references of submissions under this tournament.\n    function getSubmissionGratitude() public view returns (uint256)\n    {\n        require(submissionGratitude.exists);\n        return submissionGratitude.value;\n    }\n\n    /// @dev    Returns addresses for submissions the sender has created.\n    /// @return Address array representing submissions.\n    function myTournaments() public view returns (address[])\n    {\n        return ownerToTournamentArray[msg.sender];\n    }\n\n    function mySubmissions() public view returns (address[])\n    {\n        return ownerToSubmissionArray[msg.sender];\n    }\n\n    /// @dev    Returns the total number of tournaments\n    /// @return _tournamentCount Total number of tournaments.\n    function tournamentCount() public view returns (uint256 _tournamentCount)\n    {\n        return allTournaments.length;\n    }\n\n    function getTournamentAtIndex(uint256 _index) public view returns (address _tournamentAddress)\n    {\n        require(_index >= 0);\n        require(_index < allTournaments.length);\n        return allTournaments[_index];\n    }\n\n    function getTournaments() public view returns (address[])\n    {\n        return allTournaments;\n    }\n\n    function forceRevert() public {\n        revert();\n    }\n}\n",
  "sourcePath": "/Users/maxhoward/Desktop/Ethereum/MatryxPlatform/contracts/MatryxPlatform.sol",
  "compiler": {
    "name": "solc",
    "version": "0.4.24+commit.e67f0147.Emscripten.clang"
  },
  "schemaVersion": "2.0.1",
  "updatedAt": "2018-08-03T23:43:41.448Z"
}