{
  "contractName": "MatryxPeer",
  "abi": [
    {
      "constant": true,
      "inputs": [
        {
          "name": "_sender",
          "type": "address"
        }
      ],
      "name": "isOwner",
      "outputs": [
        {
          "name": "_isOwner",
          "type": "bool"
        }
      ],
      "payable": false,
      "stateMutability": "view",
      "type": "function"
    },
    {
      "constant": true,
      "inputs": [],
      "name": "getOwner",
      "outputs": [
        {
          "name": "_owner",
          "type": "address"
        }
      ],
      "payable": false,
      "stateMutability": "view",
      "type": "function"
    },
    {
      "constant": true,
      "inputs": [],
      "name": "owner",
      "outputs": [
        {
          "name": "",
          "type": "address"
        }
      ],
      "payable": false,
      "stateMutability": "view",
      "type": "function"
    },
    {
      "constant": false,
      "inputs": [
        {
          "name": "newOwner",
          "type": "address"
        }
      ],
      "name": "transferOwnership",
      "outputs": [],
      "payable": false,
      "stateMutability": "nonpayable",
      "type": "function"
    },
    {
      "inputs": [
        {
          "name": "_platformAddress",
          "type": "address"
        },
        {
          "name": "_owner",
          "type": "address"
        },
        {
          "name": "_initialTrust",
          "type": "uint128"
        }
      ],
      "payable": false,
      "stateMutability": "nonpayable",
      "type": "constructor"
    },
    {
      "anonymous": false,
      "inputs": [
        {
          "indexed": false,
          "name": "_submissionAddress",
          "type": "address"
        },
        {
          "indexed": false,
          "name": "reference",
          "type": "address"
        }
      ],
      "name": "ReceivedReferenceRequest",
      "type": "event"
    },
    {
      "anonymous": false,
      "inputs": [
        {
          "indexed": false,
          "name": "_submissionAddress",
          "type": "address"
        },
        {
          "indexed": false,
          "name": "reference",
          "type": "address"
        }
      ],
      "name": "ReferenceRequestCancelled",
      "type": "event"
    },
    {
      "constant": true,
      "inputs": [],
      "name": "getReputation",
      "outputs": [
        {
          "name": "",
          "type": "uint128"
        }
      ],
      "payable": false,
      "stateMutability": "view",
      "type": "function"
    },
    {
      "constant": false,
      "inputs": [
        {
          "name": "_submissionAddress",
          "type": "address"
        },
        {
          "name": "_reference",
          "type": "address"
        }
      ],
      "name": "receiveReferenceRequest",
      "outputs": [],
      "payable": false,
      "stateMutability": "nonpayable",
      "type": "function"
    },
    {
      "constant": false,
      "inputs": [
        {
          "name": "_submissionAddress",
          "type": "address"
        },
        {
          "name": "_reference",
          "type": "address"
        }
      ],
      "name": "receiveCancelledReferenceRequest",
      "outputs": [],
      "payable": false,
      "stateMutability": "nonpayable",
      "type": "function"
    },
    {
      "constant": false,
      "inputs": [
        {
          "name": "_newTotalTrust",
          "type": "uint128"
        },
        {
          "name": "_senderReputation",
          "type": "uint128"
        }
      ],
      "name": "receiveTrust",
      "outputs": [],
      "payable": false,
      "stateMutability": "nonpayable",
      "type": "function"
    },
    {
      "constant": false,
      "inputs": [
        {
          "name": "_newTotalTrust",
          "type": "uint128"
        },
        {
          "name": "_senderReputation",
          "type": "uint128"
        }
      ],
      "name": "receiveDistrust",
      "outputs": [
        {
          "name": "",
          "type": "bool"
        }
      ],
      "payable": false,
      "stateMutability": "nonpayable",
      "type": "function"
    },
    {
      "constant": true,
      "inputs": [
        {
          "name": "_peerAddress",
          "type": "address"
        }
      ],
      "name": "getPeersInfluenceOnMyReputation",
      "outputs": [
        {
          "name": "",
          "type": "uint256"
        }
      ],
      "payable": false,
      "stateMutability": "view",
      "type": "function"
    },
    {
      "constant": false,
      "inputs": [
        {
          "name": "_submissionAddress",
          "type": "address"
        },
        {
          "name": "_missingReference",
          "type": "address"
        }
      ],
      "name": "flagMissingReference",
      "outputs": [
        {
          "name": "",
          "type": "bool"
        }
      ],
      "payable": false,
      "stateMutability": "nonpayable",
      "type": "function"
    },
    {
      "constant": true,
      "inputs": [
        {
          "name": "_submissionAddress",
          "type": "address"
        }
      ],
      "name": "getMissingReferenceCount",
      "outputs": [
        {
          "name": "",
          "type": "uint128"
        },
        {
          "name": "",
          "type": "uint128"
        }
      ],
      "payable": false,
      "stateMutability": "view",
      "type": "function"
    },
    {
      "constant": false,
      "inputs": [
        {
          "name": "_submissionAddress",
          "type": "address"
        },
        {
          "name": "_missingReference",
          "type": "address"
        }
      ],
      "name": "removeMissingReferenceFlag",
      "outputs": [],
      "payable": false,
      "stateMutability": "nonpayable",
      "type": "function"
    },
    {
      "constant": false,
      "inputs": [
        {
          "name": "_submissionAddress",
          "type": "address"
        },
        {
          "name": "_reference",
          "type": "address"
        }
      ],
      "name": "approveReference",
      "outputs": [],
      "payable": false,
      "stateMutability": "nonpayable",
      "type": "function"
    },
    {
      "constant": false,
      "inputs": [
        {
          "name": "_submissionAddress",
          "type": "address"
        },
        {
          "name": "_reference",
          "type": "address"
        }
      ],
      "name": "removeReferenceApproval",
      "outputs": [],
      "payable": false,
      "stateMutability": "nonpayable",
      "type": "function"
    },
    {
      "constant": true,
      "inputs": [
        {
          "name": "_submissionAddress",
          "type": "address"
        }
      ],
      "name": "getApprovedAndTotalReferenceCounts",
      "outputs": [
        {
          "name": "",
          "type": "uint128"
        },
        {
          "name": "",
          "type": "uint128"
        }
      ],
      "payable": false,
      "stateMutability": "view",
      "type": "function"
    },
    {
      "constant": true,
      "inputs": [
        {
          "name": "_submissionAddress",
          "type": "address"
        }
      ],
      "name": "getApprovedReferenceProportion",
      "outputs": [
        {
          "name": "",
          "type": "uint128"
        }
      ],
      "payable": false,
      "stateMutability": "view",
      "type": "function"
    },
    {
      "constant": true,
      "inputs": [],
      "name": "peersJudged",
      "outputs": [
        {
          "name": "",
          "type": "uint256"
        }
      ],
      "payable": false,
      "stateMutability": "view",
      "type": "function"
    },
    {
      "constant": true,
      "inputs": [
        {
          "name": "_peer",
          "type": "address"
        }
      ],
      "name": "normalizedTrustInPeer",
      "outputs": [
        {
          "name": "",
          "type": "uint128"
        }
      ],
      "payable": false,
      "stateMutability": "view",
      "type": "function"
    }
  ],
  "bytecode": "0x6060604052600180546001608060020a031916670de0b6b3a7640000179055341561002957600080fd5b6040516060806122748339810160405280805191906020018051919060200180516000805460028054600160a060020a0319908116600160a060020a03998a16179091559081163388161716949095169390931784555050600380546001608060020a0319166001608060020a039092169190911790556121c49081906100b090396000f3006060604052600436106101065763ffffffff7c0100000000000000000000000000000000000000000000000000000000600035041663268c7dcb811461010b5780632f54bf6e146101325780634073996a1461016557806341a83f95146101965780634476cd86146101bb5780636a7940c9146101ff578063889b26871461024b578063893d20e81461025e5780638da5cb5b1461028d57806397c22c24146102a0578063a1cc4ac1146102c5578063b6c3d15b146102ea578063bc46576514610318578063c464e29414610346578063d1bbd3121461036b578063d528ff4e14610390578063f2fde38b146103af578063fa6daea7146103ce578063ffe6a18e146103ed575b600080fd5b341561011657600080fd5b610130600160a060020a0360043581169060243516610400565b005b341561013d57600080fd5b610151600160a060020a036004351661070f565b604051901515815260200160405180910390f35b341561017057600080fd5b610184600160a060020a0360043516610728565b60405190815260200160405180910390f35b34156101a157600080fd5b610151600160a060020a0360043581169060243516610759565b34156101c657600080fd5b6101da600160a060020a0360043516610aee565b6040516fffffffffffffffffffffffffffffffff909116815260200160405180910390f35b341561020a57600080fd5b61021e600160a060020a0360043516610b61565b6040516fffffffffffffffffffffffffffffffff9283168152911660208201526040908101905180910390f35b341561025657600080fd5b610184610bae565b341561026957600080fd5b610271610bb5565b604051600160a060020a03909116815260200160405180910390f35b341561029857600080fd5b610271610bc4565b34156102ab57600080fd5b610130600160a060020a0360043581169060243516610bd3565b34156102d057600080fd5b610130600160a060020a0360043581169060243516610f59565b34156102f557600080fd5b6101306fffffffffffffffffffffffffffffffff6004358116906024351661104c565b341561032357600080fd5b6101516fffffffffffffffffffffffffffffffff600435811690602435166113dd565b341561035157600080fd5b610130600160a060020a03600435811690602435166117d3565b341561037657600080fd5b610130600160a060020a0360043581169060243516611ad9565b341561039b57600080fd5b61021e600160a060020a0360043516611b7c565b34156103ba57600080fd5b610130600160a060020a0360043516611bb5565b34156103d957600080fd5b6101da600160a060020a0360043516611c1f565b34156103f857600080fd5b6101da611d17565b600080548190849033600160a060020a0390811691161480610433575080600160a060020a031633600160a060020a0316145b151561043e57600080fd5b6002548590600160a060020a03168063818b5fa8836000604051602001526040517c010000000000000000000000000000000000000000000000000000000063ffffffff8416028152600160a060020a039091166004820152602401602060405180830381600087803b15156104b357600080fd5b6102c65a03f115156104c457600080fd5b5050506040518051905015156104d957600080fd5b6002548690600160a060020a03168063818b5fa8836000604051602001526040517c010000000000000000000000000000000000000000000000000000000063ffffffff8416028152600160a060020a039091166004820152602401602060405180830381600087803b151561054e57600080fd5b6102c65a03f1151561055f57600080fd5b50505060405180519050151561057457600080fd5b600160a060020a0389166000908152600e60205260409020546105be9070010000000000000000000000000000000090046fffffffffffffffffffffffffffffffff166001611d2f565b600160a060020a038a166000818152600e60205260409081902080546fffffffffffffffffffffffffffffffff948516700100000000000000000000000000000000029416939093179092558a985090630cbfdb2d908a90517c010000000000000000000000000000000000000000000000000000000063ffffffff8416028152600160a060020a039091166004820152602401600060405180830381600087803b151561066b57600080fd5b6102c65a03f1151561067c57600080fd5b50505086600160a060020a031663a5faa1256000604051602001526040518163ffffffff167c0100000000000000000000000000000000000000000000000000000000028152600401602060405180830381600087803b15156106de57600080fd5b6102c65a03f115156106ef57600080fd5b50505060405180519050955061070486611d56565b505050505050505050565b600054600160a060020a03828116911614805b50919050565b600160a060020a0381166000908152600960205260409020546fffffffffffffffffffffffffffffffff165b919050565b600080548190819033600160a060020a0390811691161461077957600080fd5b83806000600160a060020a03821663893d20e882604051602001526040518163ffffffff167c0100000000000000000000000000000000000000000000000000000000028152600401602060405180830381600087803b15156107db57600080fd5b6102c65a03f115156107ec57600080fd5b50505060405180519050905033600160a060020a031681600160a060020a031614151561081857600080fd5b6002548890600160a060020a03168063818b5fa8836000604051602001526040517c010000000000000000000000000000000000000000000000000000000063ffffffff8416028152600160a060020a039091166004820152602401602060405180830381600087803b151561088d57600080fd5b6102c65a03f1151561089e57600080fd5b5050506040518051905015156108b357600080fd5b6002548990600160a060020a03168063818b5fa8836000604051602001526040517c010000000000000000000000000000000000000000000000000000000063ffffffff8416028152600160a060020a039091166004820152602401602060405180830381600087803b151561092857600080fd5b6102c65a03f1151561093957600080fd5b50505060405180519050151561094e57600080fd5b600160a060020a038c166000908152600e60205260409020546109989070010000000000000000000000000000000090046fffffffffffffffffffffffffffffffff166001611eb0565b600160a060020a038d166000818152600e60205260409081902080546fffffffffffffffffffffffffffffffff948516700100000000000000000000000000000000029416939093179092558d9a50906332c9c9d3908d90517c010000000000000000000000000000000000000000000000000000000063ffffffff8416028152600160a060020a039091166004820152602401600060405180830381600087803b1515610a4557600080fd5b6102c65a03f11515610a5657600080fd5b50505088600160a060020a031663a5faa1256000604051602001526040518163ffffffff167c0100000000000000000000000000000000000000000000000000000000028152600401602060405180830381600087803b1515610ab857600080fd5b6102c65a03f11515610ac957600080fd5b505050604051805190509750610ade88611edb565b9c9b505050505050505050505050565b600654600160a060020a03821660009081526004602052604081205490918291610b33916fffffffffffffffffffffffffffffffff918216911663ffffffff61209816565b90506000816fffffffffffffffffffffffffffffffff161115610b5857809150610722565b50600092915050565b600160a060020a03166000908152600e6020526040902080546001909101546fffffffffffffffffffffffffffffffff700100000000000000000000000000000000909204821692911690565b6005545b90565b600054600160a060020a031690565b600054600160a060020a031681565b60008054819033600160a060020a03908116911614610bf157600080fd5b82806000600160a060020a03821663893d20e882604051602001526040518163ffffffff167c0100000000000000000000000000000000000000000000000000000000028152600401602060405180830381600087803b1515610c5357600080fd5b6102c65a03f11515610c6457600080fd5b50505060405180519050905033600160a060020a031681600160a060020a0316141515610c9057600080fd5b6002548790600160a060020a03168063818b5fa8836000604051602001526040517c010000000000000000000000000000000000000000000000000000000063ffffffff8416028152600160a060020a039091166004820152602401602060405180830381600087803b1515610d0557600080fd5b6102c65a03f11515610d1657600080fd5b505050604051805190501515610d2b57600080fd5b6002548890600160a060020a03168063818b5fa8836000604051602001526040517c010000000000000000000000000000000000000000000000000000000063ffffffff8416028152600160a060020a039091166004820152602401602060405180830381600087803b1515610da057600080fd5b6102c65a03f11515610db157600080fd5b505050604051805190501515610dc657600080fd5b600154600160a060020a038c166000908152600e6020526040902054610e07916fffffffffffffffffffffffffffffffff918216911663ffffffff611eb016565b600160a060020a038c166000818152600e60205260409081902080546fffffffffffffffffffffffffffffffff19166fffffffffffffffffffffffffffffffff94909416939093179092558c9a509063e7139ec0908c90517c010000000000000000000000000000000000000000000000000000000063ffffffff8416028152600160a060020a039091166004820152602401600060405180830381600087803b1515610eb357600080fd5b6102c65a03f11515610ec457600080fd5b50505088600160a060020a031663a5faa1256000604051602001526040518163ffffffff167c0100000000000000000000000000000000000000000000000000000000028152600401602060405180830381600087803b1515610f2657600080fd5b6102c65a03f11515610f3757600080fd5b505050604051805190509750610f4c88611d56565b5050505050505050505050565b60025433600160a060020a03908116911614610f7457600080fd5b7f46f6444d987f5ebdf7eae0dc34572eb3119b434c84f3292d85b161737c4ec22f8282604051600160a060020a039283168152911660208201526040908101905180910390a1600160a060020a0382166000908152600e60205260409020600190810154610ffc916fffffffffffffffffffffffffffffffff9091169063ffffffff611d2f16565b600160a060020a03929092166000908152600e6020526040902060010180546fffffffffffffffffffffffffffffffff19166fffffffffffffffffffffffffffffffff9093169290921790915550565b60008030600160a060020a031633600160a060020a03161415151561107057600080fd5b60005433600160a060020a039081169116141561108c57600080fd5b600254600160a060020a031680633e44cf78336000604051602001526040517c010000000000000000000000000000000000000000000000000000000063ffffffff8416028152600160a060020a039091166004820152602401602060405180830381600087803b15156110ff57600080fd5b6102c65a03f1151561111057600080fd5b50505060405180519050151561112557600080fd5b600160a060020a0333166000908152600a602052604090205460ff16156111be57600160a060020a033316600090815260096020526040902054600354611187916fffffffffffffffffffffffffffffffff918216911663ffffffff611d2f16565b600380546fffffffffffffffffffffffffffffffff19166fffffffffffffffffffffffffffffffff92909216919091179055611252565b600160a060020a0333166000908152600a6020526040902080547fffffffffffffffffffffffffffffffffffffffffffffffffffffffffffffff00166001908117909155600b8054909181016112148382612151565b50600091825260209091200180547fffffffffffffffffffffffff00000000000000000000000000000000000000001633600160a060020a03161790555b600154600160a060020a033316600090815260076020526040902054611293916fffffffffffffffffffffffffffffffff918216911663ffffffff611eb016565b33600160a060020a0316600090815260076020818152604080842080546fffffffffffffffffffffffffffffffff199081166fffffffffffffffffffffffffffffffff978816178255600884529190942080549091168a861617905552546112fc911686612098565b92506113206fffffffffffffffffffffffffffffffff84168563ffffffff6120d316565b60015490925061134b906fffffffffffffffffffffffffffffffff808516911663ffffffff61209816565b33600160a060020a0316600090815260096020526040902080546fffffffffffffffffffffffffffffffff19166fffffffffffffffffffffffffffffffff838116919091179091556003549193506113a4911683611eb0565b600380546fffffffffffffffffffffffffffffffff19166fffffffffffffffffffffffffffffffff929092169190911790555050505050565b600080600030600160a060020a031633600160a060020a03161415151561140357600080fd5b60005433600160a060020a039081169116141561141f57600080fd5b600254600160a060020a031680633e44cf78336000604051602001526040517c010000000000000000000000000000000000000000000000000000000063ffffffff8416028152600160a060020a039091166004820152602401602060405180830381600087803b151561149257600080fd5b6102c65a03f115156114a357600080fd5b5050506040518051905015156114b857600080fd5b600160a060020a0333166000908152600a602052604090205460ff161561155157600160a060020a03331660009081526009602052604090205460035461151a916fffffffffffffffffffffffffffffffff918216911663ffffffff611d2f16565b600380546fffffffffffffffffffffffffffffffff19166fffffffffffffffffffffffffffffffff929092169190911790556115e5565b600160a060020a0333166000908152600a6020526040902080547fffffffffffffffffffffffffffffffffffffffffffffffffffffffffffffff00166001908117909155600b8054909181016115a78382612151565b50600091825260209091200180547fffffffffffffffffffffffff00000000000000000000000000000000000000001633600160a060020a03161790555b600154600160a060020a0333166000908152600760205260409020546fffffffffffffffffffffffffffffffff9182169116108061163357506fffffffffffffffffffffffffffffffff8616155b1561164157600093506117ca565b600154600160a060020a033316600090815260076020526040902054611682916fffffffffffffffffffffffffffffffff918216911663ffffffff611d2f16565b33600160a060020a0316600090815260076020818152604080842080546fffffffffffffffffffffffffffffffff199081166fffffffffffffffffffffffffffffffff978816178255600884529190942080549091168b861617905552546116eb911687612098565b925061170f6fffffffffffffffffffffffffffffffff84168663ffffffff6120d316565b60015490925061173a906fffffffffffffffffffffffffffffffff808516911663ffffffff61209816565b33600160a060020a0316600090815260096020526040902080546fffffffffffffffffffffffffffffffff19166fffffffffffffffffffffffffffffffff83811691909117909155600354919350611793911683611eb0565b600380546fffffffffffffffffffffffffffffffff19166fffffffffffffffffffffffffffffffff92909216919091179055600193505b50505092915050565b600080548190849033600160a060020a0390811691161480611806575080600160a060020a031633600160a060020a0316145b151561181157600080fd5b6002548590600160a060020a03168063818b5fa8836000604051602001526040517c010000000000000000000000000000000000000000000000000000000063ffffffff8416028152600160a060020a039091166004820152602401602060405180830381600087803b151561188657600080fd5b6102c65a03f1151561189757600080fd5b5050506040518051905015156118ac57600080fd5b6002548690600160a060020a03168063818b5fa8836000604051602001526040517c010000000000000000000000000000000000000000000000000000000063ffffffff8416028152600160a060020a039091166004820152602401602060405180830381600087803b151561192157600080fd5b6102c65a03f1151561193257600080fd5b50505060405180519050151561194757600080fd5b600154600160a060020a038a166000908152600e6020526040902054611988916fffffffffffffffffffffffffffffffff918216911663ffffffff611d2f16565b600160a060020a038a166000818152600e60205260409081902080546fffffffffffffffffffffffffffffffff19166fffffffffffffffffffffffffffffffff94909416939093179092558a98509063e4e3e83a908a90517c010000000000000000000000000000000000000000000000000000000063ffffffff8416028152600160a060020a039091166004820152602401600060405180830381600087803b1515611a3457600080fd5b6102c65a03f11515611a4557600080fd5b50505086600160a060020a031663a5faa1256000604051602001526040518163ffffffff167c0100000000000000000000000000000000000000000000000000000000028152600401602060405180830381600087803b1515611aa757600080fd5b6102c65a03f11515611ab857600080fd5b505050604051805190509550611acd86611edb565b50505050505050505050565b60025433600160a060020a03908116911614611af457600080fd5b7f033c34e967f60202eea9737daab3184556afeb5429022244146f7927782f42988282604051600160a060020a039283168152911660208201526040908101905180910390a1600160a060020a0382166000908152600e60205260409020600190810154610ffc916fffffffffffffffffffffffffffffffff9091169063ffffffff611eb016565b600160a060020a03166000908152600e6020526040902080546001909101546fffffffffffffffffffffffffffffffff91821692911690565b60005433600160a060020a03908116911614611bd057600080fd5b600160a060020a0381161515611be557600080fd5b600080547fffffffffffffffffffffffff000000000000000000000000000000000000000016600160a060020a0392909216919091179055565b600160a060020a0381166000908152600e6020526040812080546001909101546fffffffffffffffffffffffffffffffff908116700100000000000000000000000000000000909204811691909101161515611c7d57506000610754565b600160a060020a0382166000908152600e602052604090208054600190910154611d1191611cda916fffffffffffffffffffffffffffffffff9081169170010000000000000000000000000000000090041663ffffffff611eb016565b600160a060020a0384166000908152600e60205260409020546fffffffffffffffffffffffffffffffff169063ffffffff61209816565b92915050565b6003546fffffffffffffffffffffffffffffffff1690565b60006fffffffffffffffffffffffffffffffff8084169083161115611d5057fe5b50900390565b600154600160a060020a038216600090815260046020526040902054611d97916fffffffffffffffffffffffffffffffff918216911663ffffffff611eb016565b600160a060020a038216600090815260046020526040902080546fffffffffffffffffffffffffffffffff19166fffffffffffffffffffffffffffffffff928316179055600654611dea91166001611eb0565b600680546fffffffffffffffffffffffffffffffff19166fffffffffffffffffffffffffffffffff9283161790819055600354600160a060020a0384169263b6c3d15b92811691166040517c010000000000000000000000000000000000000000000000000000000063ffffffff85160281526fffffffffffffffffffffffffffffffff928316600482015291166024820152604401600060405180830381600087803b1515611e9957600080fd5b6102c65a03f11515611eaa57600080fd5b50505050565b60008282016fffffffffffffffffffffffffffffffff8085169082161015611ed457fe5b9392505050565b600154600160a060020a03821660009081526004602052604081205490916fffffffffffffffffffffffffffffffff908116911610611fdb57600154600160a060020a038316600090815260046020526040902054611f55916fffffffffffffffffffffffffffffffff918216911663ffffffff611d2f16565b600160a060020a038316600090815260046020526040902080546fffffffffffffffffffffffffffffffff19166fffffffffffffffffffffffffffffffff928316179055600654611fa891166001611d2f565b600680546fffffffffffffffffffffffffffffffff19166fffffffffffffffffffffffffffffffff929092169190911790555b600654600354600160a060020a0384169163bc465765916fffffffffffffffffffffffffffffffff91821691166000604051602001526040517c010000000000000000000000000000000000000000000000000000000063ffffffff85160281526fffffffffffffffffffffffffffffffff928316600482015291166024820152604401602060405180830381600087803b151561207857600080fd5b6102c65a03f1151561208957600080fd5b50505060405180519392505050565b600080826fffffffffffffffffffffffffffffffff16846fffffffffffffffffffffffffffffffff168115156120ca57fe5b04949350505050565b60008282026fffffffffffffffffffffffffffffffff841615806121495750826fffffffffffffffffffffffffffffffff16846fffffffffffffffffffffffffffffffff16826fffffffffffffffffffffffffffffffff1681151561213457fe5b046fffffffffffffffffffffffffffffffff16145b1515611ed457fe5b8154818355818115116121755760008381526020902061217591810190830161217a565b505050565b610bb291905b808211156121945760008155600101612180565b50905600a165627a7a7230582063cb56dcb885b98647678b3ef3048ab2e475cea6541b629d7f5ecfe64348635e0029",
  "source": "pragma solidity ^0.4.18;\n\nimport '../libraries/math/SafeMath.sol';\nimport '../libraries/math/SafeMath128.sol';\nimport '../interfaces/IMatryxPlatform.sol';\nimport '../interfaces/IMatryxTournament.sol';\nimport '../interfaces/IMatryxRound.sol';\nimport '../interfaces/IMatryxSubmission.sol';\nimport './Ownable.sol';\n\n/// @title MatryxPeer - A peer within the MatryxPlatform.\n/// @author Max Howard - <max@nanome.ai>\ncontract MatryxPeer is Ownable {\n\tusing SafeMath for uint256;\n\tusing SafeMath128 for uint128;\n\n\tuint128 one_eighteenDecimal = 1*10**18;\n\n\t// TODO: condense and put in structs\n\taddress platformAddress;\n\n\tuint128 globalTrust;\n\tmapping(address=>uint128) judgedPeerToUnnormalizedTrust;\n\taddress[] judgedPeers;\n\tuint128 totalTrustGiven;\n\tmapping(address=>uint128) judgingPeerToUnnormalizedTrust;\n\tmapping(address=>uint128) judgingPeerToTotalTrustGiven;\n\n\tmapping(address=>uint128) judgingPeerToInfluenceOnMyReputation;\n\tmapping(address=>bool) peerHasJudgedMe;\n\taddress[] judgingPeers;\n\n\t// Tracks the proportion of references this peer has approved on a given submission\n\tmapping(address=>uint256) submissionToApprovedReferences;\n\tmapping(address=>uint256) submissionToReferenceCount;\n\tmapping(address=>ReferencesMetadata) submissionToReferencesMetadata;\n\n\tevent ReceivedReferenceRequest(address _submissionAddress, address reference);\n\tevent ReferenceRequestCancelled(address _submissionAddress, address reference);\n\n\t/*\n\t * Structs\n\t */\n\n\tstruct ReferencesMetadata\n\t{\n\t\tuint128 approvedReferenceCount;\n\t\tuint128 missingReferenceCount;\n\t\tuint128 totalReferenceCount;\n\t}\n\n\t/*\n\t * Modifiers\n\t */\n\n\tmodifier onlyPlatform()\n\t{\n\t\trequire(msg.sender == platformAddress);\n\t\t_;\n\t}\n\n\tmodifier onlyPeer()\n\t{\n\t\tIMatryxPlatform platform = IMatryxPlatform(platformAddress);\n\t\trequire(platform.isPeer(msg.sender));\n\t\t_;\n\t}\n\n\tmodifier notMe()\n\t{\n\t\trequire(msg.sender != address(this));\n\t\t_;\n\t}\n\n\tmodifier notOwner()\n\t{\n\t\trequire(msg.sender != owner);\n\t\t_;\n\t}\n\n\tmodifier ownerOrSubmission(address _submission)\n\t{\n\t\trequire((msg.sender == owner) || (msg.sender == _submission));\n\t\t_;\n\t}\n\n\tmodifier forExistingSubmission(address _submission)\n\t{\n\t\tIMatryxPlatform platform = IMatryxPlatform(platformAddress);\n\t\trequire(platform.isSubmission(_submission));\n\t\t_;\n\t}\n\n\tmodifier senderOwnsReference(address _reference)\n\t{\n\t\tOwnable referencedSubmission = Ownable(_reference);\n\t\taddress referenceOwner = referencedSubmission.getOwner();\n\t\trequire(referenceOwner == msg.sender);\n\t\t_;\n\t}\n\n\tfunction MatryxPeer(address _platformAddress, address _owner, uint128 _initialTrust) public\n\t{\n\t\tplatformAddress = _platformAddress;\n\t\towner = _owner;\n\t\tglobalTrust = _initialTrust;\n\t}\n\n\tfunction getReputation() public constant returns (uint128)\n\t{\n\t\treturn globalTrust;\n\t}\n\n\tfunction receiveReferenceRequest(address _submissionAddress, address _reference) public onlyPlatform\n\t{\n\t\tReceivedReferenceRequest(_submissionAddress, _reference);\n\t\tsubmissionToReferencesMetadata[_submissionAddress].totalReferenceCount = submissionToReferencesMetadata[_submissionAddress].totalReferenceCount.add(1);\n\t}\n\n\tfunction receiveCancelledReferenceRequest(address _submissionAddress, address _reference) public onlyPlatform\n\t{\n\t\tReferenceRequestCancelled(_submissionAddress, _reference);\n\t\tsubmissionToReferencesMetadata[_submissionAddress].totalReferenceCount = submissionToReferencesMetadata[_submissionAddress].totalReferenceCount.sub(1);\n\t}\n\n\tfunction giveTrust(address _peer) internal\n\t{\n\t\tjudgedPeerToUnnormalizedTrust[_peer] = judgedPeerToUnnormalizedTrust[_peer].add(one_eighteenDecimal);\n\t\ttotalTrustGiven = totalTrustGiven.add(1);\n\n\t\tMatryxPeer(_peer).receiveTrust(totalTrustGiven, globalTrust);\n\t}\n\n\tfunction giveDistrust(address _peer) internal returns (bool)\n\t{\n\t\tif(judgedPeerToUnnormalizedTrust[_peer] >= one_eighteenDecimal)\n\t\t{\n\t\t\tjudgedPeerToUnnormalizedTrust[_peer] = judgedPeerToUnnormalizedTrust[_peer].sub(one_eighteenDecimal);\n\t\t\ttotalTrustGiven = totalTrustGiven.sub(1);\n\t\t}\n\n\t\treturn MatryxPeer(_peer).receiveDistrust(totalTrustGiven, globalTrust);\n\t}\n\n\tfunction receiveTrust(uint128 _newTotalTrust, uint128 _senderReputation) public notMe notOwner onlyPeer\n\t{\t\n\t\t// remove peer's influence on my reputation before adding their new influence\n\t\tif(peerHasJudgedMe[msg.sender])\n\t\t{\n\t\t\tglobalTrust = globalTrust.sub(judgingPeerToInfluenceOnMyReputation[msg.sender]);\n\t\t}\n\t\t// if we've never been judged by this peer before,\n\t\t// update state to reflect that we have now.\n\t\telse \n\t\t{\n\t\t\tpeerHasJudgedMe[msg.sender] = true;\n\t\t\tjudgingPeers.push(msg.sender);\n\t\t}\n\n\t\t// update state variables so we can look at them later\n\t\tjudgingPeerToUnnormalizedTrust[msg.sender] = judgingPeerToUnnormalizedTrust[msg.sender].add(one_eighteenDecimal);\n\t\tjudgingPeerToTotalTrustGiven[msg.sender] = _newTotalTrust;\n\t\t// calculate peer's new influence on my reputation\n\t\tuint128 peersNewNormalizedOpinionOfMe = judgingPeerToUnnormalizedTrust[msg.sender].div(_newTotalTrust);\n\t\tuint128 peersNewInfluenceOnMyReputation = peersNewNormalizedOpinionOfMe.mul(_senderReputation);\n\t\t// _senderReputation and peersNewNormalizedOpinionOfMe are both 18 decimal numbers;\n\t\t// we must divide by 1*10**18 in order to retain the correct number of decimals.\n\t\tpeersNewInfluenceOnMyReputation = peersNewInfluenceOnMyReputation.div(one_eighteenDecimal);\n\t\tjudgingPeerToInfluenceOnMyReputation[msg.sender] = peersNewInfluenceOnMyReputation;\n\t\t// add this influence to my reputation\n\t\tglobalTrust = globalTrust.add(peersNewInfluenceOnMyReputation);\n\t}\n\n\tfunction receiveDistrust(uint128 _newTotalTrust, uint128 _senderReputation) public notMe notOwner onlyPeer returns (bool)\n\t{\n\t\t// remove peer's influence on my reputation before adding their new influence\n\t\tif(peerHasJudgedMe[msg.sender])\n\t\t{\n\t\t\tglobalTrust = globalTrust.sub(judgingPeerToInfluenceOnMyReputation[msg.sender]);\n\t\t}\n\t\t// if we've never been judged by this peer before,\n\t\t// update state to reflect that we have now.\n\t\telse\n\t\t{\n\t\t\tpeerHasJudgedMe[msg.sender] = true;\n\t\t\tjudgingPeers.push(msg.sender);\n\t\t}\n\n\t\tif((judgingPeerToUnnormalizedTrust[msg.sender] < one_eighteenDecimal) || (_newTotalTrust == 0))\n\t\t{\n\t\t\treturn false;\n\t\t}\n\n\t\tjudgingPeerToUnnormalizedTrust[msg.sender] = judgingPeerToUnnormalizedTrust[msg.sender].sub(one_eighteenDecimal);\n\t\tjudgingPeerToTotalTrustGiven[msg.sender] = _newTotalTrust;\n\t\t// calculate peer's new influence on my reputation\n\t\tuint128 peersNewNormalizedOpinionOfMe = judgingPeerToUnnormalizedTrust[msg.sender].div(_newTotalTrust);\n\t\tuint128 peersNewInfluenceOnMyReputation = peersNewNormalizedOpinionOfMe.mul(_senderReputation);\n\t\t// _senderReputation and peersNewNormalizedOpinionOfMe are both 18 decimal numbers;\n\t\t// we must divide by 1*10**18 in order to retain the correct number of decimals.\n\t\tpeersNewInfluenceOnMyReputation = peersNewInfluenceOnMyReputation.div(one_eighteenDecimal);\n\t\tjudgingPeerToInfluenceOnMyReputation[msg.sender] = peersNewInfluenceOnMyReputation;\n\t\t// add this influence to my reputation\n\t\tglobalTrust = globalTrust.add(peersNewInfluenceOnMyReputation);\n\t\treturn true;\n\t}\n\n\tfunction getPeersInfluenceOnMyReputation(address _peerAddress) public constant returns (uint256)\n\t{\n\t\treturn judgingPeerToInfluenceOnMyReputation[_peerAddress];\n\t}\n\n\t/// @dev \t\t\t\t\t  Flags a missing reference to a submission within another\n\t///\t\t\t\t\t\t\t  submission. This method should be called by the owner of\n\t/// \t\t\t\t\t\t  this peer in order to approve a reference to one of\n\t/// \t \t\t\t\t\t  their works within someone else's submission.\n\t/// @param _submissionAddress Address of the submission missing a reference.\n\t/// @param _missingReference  Reference that is missing.\n\tfunction flagMissingReference(address _submissionAddress, address _missingReference) public onlyOwner senderOwnsReference(_missingReference) forExistingSubmission(_submissionAddress) forExistingSubmission(_missingReference) returns (bool)\n\t{\n\t\t// Require that we're the author of the reference we're claiming is missing.\n\t\t// Require that the platform knows the submission.\n\t\t// Require that the platform knows the reference we're attempting to flag.\n\t\t\n\t\t// Add 1 to the state vars keeping track of the number of\n\t\t// this peer's submissions that _submission fails to reference\n\t\t// as well as the submission's total number of references to submissions by this peer\n\t\tsubmissionToReferencesMetadata[_submissionAddress].missingReferenceCount = submissionToReferencesMetadata[_submissionAddress].missingReferenceCount.add(1);\n\n\t\tIMatryxSubmission submission = IMatryxSubmission(_submissionAddress);\n\t\tsubmission.flagMissingReference(_missingReference);\n\n\t\taddress submissionAuthor = submission.getAuthor();\n\t\treturn giveDistrust(submissionAuthor);\n\t}\n\n\tfunction getMissingReferenceCount(address _submissionAddress) public constant returns (uint128, uint128)\n\t{\n\t\treturn (submissionToReferencesMetadata[_submissionAddress].missingReferenceCount, submissionToReferencesMetadata[_submissionAddress].totalReferenceCount);\n\t}\n\n\t/// @dev\t\t\t\t\t  Removes a flag on a missing reference from a submission.\n\t/// @param _submissionAddress Address of the submission which was previously flagged as missing a reference\n\t///\t\t\t\t\t\t\t  to this peer's work.\n\t/// @param _missingReference  Address of the reference to vindicate.\n\tfunction removeMissingReferenceFlag(address _submissionAddress, address _missingReference) public ownerOrSubmission(_submissionAddress) forExistingSubmission(_submissionAddress) forExistingSubmission(_missingReference)\n\t{\n\t\t// Require that the platform knows the submission.\n\t\t// Require that the platform knows the reference we'd like to vindicate.\n\t\t// Require that we're the author of the reference we're attempting to vindicate\n\n\t\tsubmissionToReferencesMetadata[_submissionAddress].missingReferenceCount = submissionToReferencesMetadata[_submissionAddress].missingReferenceCount.sub(1);\n\n\t\tIMatryxSubmission submission = IMatryxSubmission(_submissionAddress);\n\t\tsubmission.removeMissingReferenceFlag(_missingReference);\n\n\t\taddress submissionAuthor = submission.getAuthor();\n\t\tgiveTrust(submissionAuthor);\n\t}\n\n\t/// @dev \t\t\t\t\t  Approve of a reference to a submission written by this peer\n\t/// \t\t\t\t\t\t  on another submission. This method should be called by the \n\t/// \t \t\t\t\t\t  owner of this peer in order to approve a reference to one  \n\t/// \t \t\t\t\t\t  of their works within someone else's submission.\n\t/// @param _submissionAddress Address of the submission on which to approve the reference.\n\t/// @param _reference \t\t  Reference to approve.\n\tfunction approveReference(address _submissionAddress, address _reference) public onlyOwner senderOwnsReference(_reference) forExistingSubmission(_submissionAddress) forExistingSubmission(_reference)\n\t{\n\t\t// Require that we're the author of the reference we're attempting to approve\n\t\t// Require that the platform knows the submission.\n\t\t// Require that the platform knows the reference we'd like to approve.\n\t\t\n\t\t// Add 1 to the state var keeping track of the number of approved references on this submission\n\t\tsubmissionToReferencesMetadata[_submissionAddress].approvedReferenceCount = submissionToReferencesMetadata[_submissionAddress].approvedReferenceCount.add(one_eighteenDecimal);\n\t\t\n\t\tIMatryxSubmission submission = IMatryxSubmission(_submissionAddress);\n\t\tsubmission.approveReference(_reference);\n\n\t\taddress submissionAuthor = submission.getAuthor();\n\t\tgiveTrust(submissionAuthor);\n\t}\n\n\t/// @dev \t\t\t\t\t  Remove approval of a reference from a submission.\n\t/// @param _submissionAddress Address of the submission which was previously given an approval\n\t/// \t\t\t\t\t\t  for one of its references.\n\t/// @param _reference \t\t  Address of the reference to decry.\n\tfunction removeReferenceApproval(address _submissionAddress, address _reference) public ownerOrSubmission(_submissionAddress) forExistingSubmission(_submissionAddress) forExistingSubmission(_reference)\n\t{\n\t\t// Require that the platform knows the submission.\n\t\t// Require that the platform knows the reference we'd like to decry.\n\t\t// Require that we're the author of the reference we're attempting to decry.\n\n\t\t// Remove 1 from the state var keeping track of the number of approved references on this submission\n\t\tsubmissionToReferencesMetadata[_submissionAddress].approvedReferenceCount = submissionToReferencesMetadata[_submissionAddress].approvedReferenceCount.sub(one_eighteenDecimal);\n\n\t\tIMatryxSubmission submission = IMatryxSubmission(_submissionAddress);\n\t\tsubmission.removeReferenceApproval(_reference);\n\n\t\taddress submissionAuthor = submission.getAuthor();\n\t\tgiveDistrust(submissionAuthor);\n\t}\n\n\tfunction getApprovedAndTotalReferenceCounts(address _submissionAddress) public constant returns (uint128, uint128)\n\t{\n\t\treturn (submissionToReferencesMetadata[_submissionAddress].approvedReferenceCount, submissionToReferencesMetadata[_submissionAddress].totalReferenceCount);\n\t}\n\n\tfunction getApprovedReferenceProportion(address _submissionAddress) public constant returns (uint128)\n\t{\n\t\tif(submissionToReferencesMetadata[_submissionAddress].totalReferenceCount + submissionToReferencesMetadata[_submissionAddress].missingReferenceCount == 0)\n\t\t{\n\t\t\treturn 0;\n\t\t}\n\n\t\treturn submissionToReferencesMetadata[_submissionAddress].approvedReferenceCount.div(submissionToReferencesMetadata[_submissionAddress].totalReferenceCount.add(submissionToReferencesMetadata[_submissionAddress].missingReferenceCount));\n\t}\n\n\tfunction peersJudged() public constant returns (uint256)\n\t{\n\t\treturn judgedPeers.length;\n\t}\n\n\tfunction normalizedTrustInPeer(address _peer) public constant returns (uint128)\n\t{\n\t\tuint128 normalizedTrust = judgedPeerToUnnormalizedTrust[_peer].div(totalTrustGiven);\n\t\tif(normalizedTrust > 0)\n\t\t{\n\t\t\treturn normalizedTrust;\n\t\t}\n\n\t\treturn 0;\n\t}\n}",
  "sourcePath": "/Users/maxhoward/Desktop/Ethereum/Development/Matryx AWS/Projects/matryx-alpha-source/contracts/MatryxPeer.sol",
  "compiler": {
    "name": "solc",
    "version": "0.4.19+commit.c4cbbb05.Emscripten.clang"
  },
  "schemaVersion": "2.0.0",
  "updatedAt": "2018-03-30T22:31:23.219Z"
}