{
  "contractName": "MatryxTournament",
  "abi": [
    {
      "constant": true,
      "inputs": [],
      "name": "entryFee",
      "outputs": [
        {
          "name": "",
          "type": "uint256"
        }
      ],
      "payable": false,
      "stateMutability": "view",
      "type": "function"
    },
    {
      "constant": true,
      "inputs": [],
      "name": "matryxTokenAddress",
      "outputs": [
        {
          "name": "",
          "type": "address"
        }
      ],
      "payable": false,
      "stateMutability": "view",
      "type": "function"
    },
    {
      "constant": true,
      "inputs": [
        {
          "name": "_sender",
          "type": "address"
        }
      ],
      "name": "isOwner",
      "outputs": [
        {
          "name": "_isOwner",
          "type": "bool"
        }
      ],
      "payable": false,
      "stateMutability": "view",
      "type": "function"
    },
    {
      "constant": true,
      "inputs": [
        {
          "name": "",
          "type": "uint256"
        }
      ],
      "name": "title",
      "outputs": [
        {
          "name": "",
          "type": "bytes32"
        }
      ],
      "payable": false,
      "stateMutability": "view",
      "type": "function"
    },
    {
      "constant": true,
      "inputs": [
        {
          "name": "",
          "type": "uint256"
        }
      ],
      "name": "fileHash",
      "outputs": [
        {
          "name": "",
          "type": "bytes32"
        }
      ],
      "payable": false,
      "stateMutability": "view",
      "type": "function"
    },
    {
      "constant": true,
      "inputs": [],
      "name": "tournamentOpenedTime",
      "outputs": [
        {
          "name": "",
          "type": "uint256"
        }
      ],
      "payable": false,
      "stateMutability": "view",
      "type": "function"
    },
    {
      "constant": true,
      "inputs": [],
      "name": "closed",
      "outputs": [
        {
          "name": "",
          "type": "bool"
        }
      ],
      "payable": false,
      "stateMutability": "view",
      "type": "function"
    },
    {
      "constant": true,
      "inputs": [
        {
          "name": "",
          "type": "uint256"
        }
      ],
      "name": "descriptionHash",
      "outputs": [
        {
          "name": "",
          "type": "bytes32"
        }
      ],
      "payable": false,
      "stateMutability": "view",
      "type": "function"
    },
    {
      "constant": true,
      "inputs": [],
      "name": "matryxRoundFactoryAddress",
      "outputs": [
        {
          "name": "",
          "type": "address"
        }
      ],
      "payable": false,
      "stateMutability": "view",
      "type": "function"
    },
    {
      "constant": true,
      "inputs": [
        {
          "name": "",
          "type": "address"
        }
      ],
      "name": "isRound",
      "outputs": [
        {
          "name": "",
          "type": "bool"
        }
      ],
      "payable": false,
      "stateMutability": "view",
      "type": "function"
    },
    {
      "constant": true,
      "inputs": [
        {
          "name": "",
          "type": "uint256"
        }
      ],
      "name": "rounds",
      "outputs": [
        {
          "name": "",
          "type": "address"
        }
      ],
      "payable": false,
      "stateMutability": "view",
      "type": "function"
    },
    {
      "constant": true,
      "inputs": [],
      "name": "owner",
      "outputs": [
        {
          "name": "",
          "type": "address"
        }
      ],
      "payable": false,
      "stateMutability": "view",
      "type": "function"
    },
    {
      "constant": true,
      "inputs": [],
      "name": "bounty",
      "outputs": [
        {
          "name": "",
          "type": "uint256"
        }
      ],
      "payable": false,
      "stateMutability": "view",
      "type": "function"
    },
    {
      "constant": true,
      "inputs": [],
      "name": "categoryHash",
      "outputs": [
        {
          "name": "",
          "type": "bytes32"
        }
      ],
      "payable": false,
      "stateMutability": "view",
      "type": "function"
    },
    {
      "constant": true,
      "inputs": [],
      "name": "platformAddress",
      "outputs": [
        {
          "name": "",
          "type": "address"
        }
      ],
      "payable": false,
      "stateMutability": "view",
      "type": "function"
    },
    {
      "constant": true,
      "inputs": [],
      "name": "category",
      "outputs": [
        {
          "name": "",
          "type": "string"
        }
      ],
      "payable": false,
      "stateMutability": "view",
      "type": "function"
    },
    {
      "constant": true,
      "inputs": [],
      "name": "timeCreated",
      "outputs": [
        {
          "name": "",
          "type": "uint256"
        }
      ],
      "payable": false,
      "stateMutability": "view",
      "type": "function"
    },
    {
      "constant": false,
      "inputs": [
        {
          "name": "newOwner",
          "type": "address"
        }
      ],
      "name": "transferOwnership",
      "outputs": [],
      "payable": false,
      "stateMutability": "nonpayable",
      "type": "function"
    },
    {
      "inputs": [
        {
          "name": "_category",
          "type": "string"
        },
        {
          "components": [
            {
              "name": "title_1",
              "type": "bytes32"
            },
            {
              "name": "title_2",
              "type": "bytes32"
            },
            {
              "name": "title_3",
              "type": "bytes32"
            },
            {
              "name": "descriptionHash_1",
              "type": "bytes32"
            },
            {
              "name": "descriptionHash_2",
              "type": "bytes32"
            },
            {
              "name": "fileHash_1",
              "type": "bytes32"
            },
            {
              "name": "fileHash_2",
              "type": "bytes32"
            },
            {
              "name": "bounty",
              "type": "uint256"
            },
            {
              "name": "entryFee",
              "type": "uint256"
            }
          ],
          "name": "tournamentData",
          "type": "tuple"
        },
        {
          "components": [
            {
              "name": "start",
              "type": "uint256"
            },
            {
              "name": "end",
              "type": "uint256"
            },
            {
              "name": "reviewPeriodDuration",
              "type": "uint256"
            },
            {
              "name": "bounty",
              "type": "uint256"
            }
          ],
          "name": "roundData",
          "type": "tuple"
        },
        {
          "name": "_platformAddress",
          "type": "address"
        },
        {
          "name": "_matryxTokenAddress",
          "type": "address"
        },
        {
          "name": "_matryxRoundFactoryAddress",
          "type": "address"
        },
        {
          "name": "_owner",
          "type": "address"
        }
      ],
      "payable": false,
      "stateMutability": "nonpayable",
      "type": "constructor"
    },
    {
      "anonymous": false,
      "inputs": [
        {
          "indexed": false,
          "name": "_startTime",
          "type": "uint256"
        },
        {
          "indexed": false,
          "name": "_endTime",
          "type": "uint256"
        },
        {
          "indexed": false,
          "name": "_reviewPeriodDuration",
          "type": "uint256"
        },
        {
          "indexed": false,
          "name": "_roundAddress",
          "type": "address"
        },
        {
          "indexed": false,
          "name": "_roundNumber",
          "type": "uint256"
        }
      ],
      "name": "NewRound",
      "type": "event"
    },
    {
      "anonymous": false,
      "inputs": [
        {
          "indexed": false,
          "name": "_roundIndex",
          "type": "uint256"
        },
        {
          "indexed": false,
          "name": "_submissionAddress",
          "type": "address"
        }
      ],
      "name": "SubmissionCreated",
      "type": "event"
    },
    {
      "anonymous": false,
      "inputs": [
        {
          "indexed": false,
          "name": "_submissionAddresses",
          "type": "address[]"
        }
      ],
      "name": "RoundWinnersChosen",
      "type": "event"
    },
    {
      "constant": false,
      "inputs": [
        {
          "name": "_submissionAddress",
          "type": "address"
        }
      ],
      "name": "invokeSubmissionCreatedEvent",
      "outputs": [],
      "payable": false,
      "stateMutability": "nonpayable",
      "type": "function"
    },
    {
      "constant": false,
      "inputs": [
        {
          "name": "_submissionAddress",
          "type": "address"
        },
        {
          "name": "_author",
          "type": "address"
        }
      ],
      "name": "removeSubmission",
      "outputs": [
        {
          "name": "",
          "type": "bool"
        }
      ],
      "payable": false,
      "stateMutability": "nonpayable",
      "type": "function"
    },
    {
      "constant": true,
      "inputs": [
        {
          "name": "_sender",
          "type": "address"
        }
      ],
      "name": "isEntrant",
      "outputs": [
        {
          "name": "",
          "type": "bool"
        }
      ],
      "payable": false,
      "stateMutability": "view",
      "type": "function"
    },
    {
      "constant": true,
      "inputs": [],
      "name": "getState",
      "outputs": [
        {
          "name": "",
          "type": "uint256"
        }
      ],
      "payable": false,
      "stateMutability": "view",
      "type": "function"
    },
    {
      "constant": true,
      "inputs": [],
      "name": "getPlatform",
      "outputs": [
        {
          "name": "_platformAddress",
          "type": "address"
        }
      ],
      "payable": false,
      "stateMutability": "view",
      "type": "function"
    },
    {
      "constant": true,
      "inputs": [],
      "name": "getTitle",
      "outputs": [
        {
          "name": "_title",
          "type": "bytes32[3]"
        }
      ],
      "payable": false,
      "stateMutability": "view",
      "type": "function"
    },
    {
      "constant": true,
      "inputs": [],
      "name": "getCategory",
      "outputs": [
        {
          "name": "_category",
          "type": "string"
        }
      ],
      "payable": false,
      "stateMutability": "view",
      "type": "function"
    },
    {
      "constant": true,
      "inputs": [],
      "name": "getOwner",
      "outputs": [
        {
          "name": "_owner",
          "type": "address"
        }
      ],
      "payable": false,
      "stateMutability": "view",
      "type": "function"
    },
    {
      "constant": true,
      "inputs": [],
      "name": "getDescriptionHash",
      "outputs": [
        {
          "name": "_descriptionHash",
          "type": "bytes32[2]"
        }
      ],
      "payable": false,
      "stateMutability": "view",
      "type": "function"
    },
    {
      "constant": true,
      "inputs": [],
      "name": "currentRound",
      "outputs": [
        {
          "name": "_currentRound",
          "type": "uint256"
        },
        {
          "name": "_currentRoundAddress",
          "type": "address"
        }
      ],
      "payable": false,
      "stateMutability": "view",
      "type": "function"
    },
    {
      "constant": true,
      "inputs": [],
      "name": "mySubmissions",
      "outputs": [
        {
          "name": "",
          "type": "address[]"
        }
      ],
      "payable": false,
      "stateMutability": "view",
      "type": "function"
    },
    {
      "constant": true,
      "inputs": [],
      "name": "submissionCount",
      "outputs": [
        {
          "name": "_submissionCount",
          "type": "uint256"
        }
      ],
      "payable": false,
      "stateMutability": "view",
      "type": "function"
    },
    {
      "constant": true,
      "inputs": [],
      "name": "entrantCount",
      "outputs": [
        {
          "name": "_entrantCount",
          "type": "uint256"
        }
      ],
      "payable": false,
      "stateMutability": "view",
      "type": "function"
    },
    {
      "constant": false,
      "inputs": [
        {
          "name": "_category",
          "type": "string"
        },
        {
          "components": [
            {
              "name": "title_1",
              "type": "bytes32"
            },
            {
              "name": "title_2",
              "type": "bytes32"
            },
            {
              "name": "title_3",
              "type": "bytes32"
            },
            {
              "name": "descriptionHash_1",
              "type": "bytes32"
            },
            {
              "name": "descriptionHash_2",
              "type": "bytes32"
            },
            {
              "name": "fileHash_1",
              "type": "bytes32"
            },
            {
              "name": "fileHash_2",
              "type": "bytes32"
            },
            {
              "name": "entryFee",
              "type": "uint256"
            },
            {
              "name": "entryFeeChanged",
              "type": "bool"
            }
          ],
          "name": "tournamentData",
          "type": "tuple"
        }
      ],
      "name": "update",
      "outputs": [],
      "payable": false,
      "stateMutability": "nonpayable",
      "type": "function"
    },
    {
      "constant": false,
      "inputs": [
        {
          "name": "_title",
          "type": "bytes32[3]"
        }
      ],
      "name": "updateTitle",
      "outputs": [],
      "payable": false,
      "stateMutability": "nonpayable",
      "type": "function"
    },
    {
      "constant": false,
      "inputs": [
        {
          "name": "_descriptionHash",
          "type": "bytes32[2]"
        }
      ],
      "name": "updateDescriptionHash",
      "outputs": [],
      "payable": false,
      "stateMutability": "nonpayable",
      "type": "function"
    },
    {
      "constant": false,
      "inputs": [
        {
          "name": "_entryFee",
          "type": "uint256"
        }
      ],
      "name": "updateEntryFee",
      "outputs": [],
      "payable": false,
      "stateMutability": "nonpayable",
      "type": "function"
    },
    {
      "constant": false,
      "inputs": [
        {
          "name": "_category",
          "type": "string"
        }
      ],
      "name": "updateCategory",
      "outputs": [],
      "payable": false,
      "stateMutability": "nonpayable",
      "type": "function"
    },
    {
      "constant": false,
      "inputs": [
        {
          "name": "_submissionAddresses",
          "type": "address[]"
        },
        {
          "name": "_rewardDistribution",
          "type": "uint256[]"
        },
        {
          "name": "_selectWinnerAction",
          "type": "uint256"
        }
      ],
      "name": "selectWinners",
      "outputs": [],
      "payable": false,
      "stateMutability": "nonpayable",
      "type": "function"
    },
    {
      "constant": false,
      "inputs": [
        {
          "components": [
            {
              "name": "start",
              "type": "uint256"
            },
            {
              "name": "end",
              "type": "uint256"
            },
            {
              "name": "reviewPeriodDuration",
              "type": "uint256"
            },
            {
              "name": "bounty",
              "type": "uint256"
            }
          ],
          "name": "_roundData",
          "type": "tuple"
        }
      ],
      "name": "editNextRound",
      "outputs": [],
      "payable": false,
      "stateMutability": "nonpayable",
      "type": "function"
    },
    {
      "constant": false,
      "inputs": [],
      "name": "jumpToNextRound",
      "outputs": [],
      "payable": false,
      "stateMutability": "nonpayable",
      "type": "function"
    },
    {
      "constant": false,
      "inputs": [],
      "name": "stopTournament",
      "outputs": [],
      "payable": false,
      "stateMutability": "nonpayable",
      "type": "function"
    },
    {
      "constant": false,
      "inputs": [
        {
          "components": [
            {
              "name": "start",
              "type": "uint256"
            },
            {
              "name": "end",
              "type": "uint256"
            },
            {
              "name": "reviewPeriodDuration",
              "type": "uint256"
            },
            {
              "name": "bounty",
              "type": "uint256"
            }
          ],
          "name": "roundData",
          "type": "tuple"
        },
        {
          "name": "_automaticCreation",
          "type": "bool"
        }
      ],
      "name": "createRound",
      "outputs": [
        {
          "name": "_roundAddress",
          "type": "address"
        }
      ],
      "payable": false,
      "stateMutability": "nonpayable",
      "type": "function"
    },
    {
      "constant": false,
      "inputs": [
        {
          "name": "_roundIndex",
          "type": "uint256"
        },
        {
          "name": "_bountyMTX",
          "type": "uint256"
        }
      ],
      "name": "sendBountyToRound",
      "outputs": [],
      "payable": false,
      "stateMutability": "nonpayable",
      "type": "function"
    },
    {
      "constant": true,
      "inputs": [],
      "name": "remainingBounty",
      "outputs": [
        {
          "name": "",
          "type": "uint256"
        }
      ],
      "payable": false,
      "stateMutability": "view",
      "type": "function"
    },
    {
      "constant": false,
      "inputs": [
        {
          "name": "_entrantAddress",
          "type": "address"
        }
      ],
      "name": "enterUserInTournament",
      "outputs": [
        {
          "name": "_success",
          "type": "bool"
        }
      ],
      "payable": false,
      "stateMutability": "nonpayable",
      "type": "function"
    },
    {
      "constant": true,
      "inputs": [],
      "name": "getEntryFee",
      "outputs": [
        {
          "name": "",
          "type": "uint256"
        }
      ],
      "payable": false,
      "stateMutability": "view",
      "type": "function"
    },
    {
      "constant": false,
      "inputs": [
        {
          "name": "_contributors",
          "type": "address[]"
        },
        {
          "name": "_contributorRewardDistribution",
          "type": "uint128[]"
        },
        {
          "name": "_references",
          "type": "address[]"
        },
        {
          "components": [
            {
              "name": "title",
              "type": "string"
            },
            {
              "name": "owner",
              "type": "address"
            },
            {
              "name": "contentHash",
              "type": "bytes"
            },
            {
              "name": "isPublic",
              "type": "bool"
            }
          ],
          "name": "submissionData",
          "type": "tuple"
        }
      ],
      "name": "createSubmission",
      "outputs": [
        {
          "name": "_submissionAddress",
          "type": "address"
        }
      ],
      "payable": false,
      "stateMutability": "nonpayable",
      "type": "function"
    },
    {
      "constant": false,
      "inputs": [],
      "name": "withdraw",
      "outputs": [],
      "payable": false,
      "stateMutability": "nonpayable",
      "type": "function"
    },
    {
      "constant": false,
      "inputs": [],
      "name": "pullRemainingBountyIntoRound",
      "outputs": [],
      "payable": false,
      "stateMutability": "nonpayable",
      "type": "function"
    }
  ],
  "bytecode": "0x608060405260006017553480156200001657600080fd5b5060405162004cb638038062004cb683398101806040526200003c919081019062000796565b6000805433600160a060020a031991821617909155600180548216600160a060020a038781169190911790915560028054831686831617905560038054831685831617905542600e55600c80549092169083161790558651620000a790600d9060208a0190620004b4565b508551600455602086015160055560408601516006556060860151600755608086015160085560a086015160095560c0860151600a5560e08601516013556101008601516014556200010485600064010000000062000112810204565b505050505050505062000a83565b6000808033301480620001dd5750600160009054906101000a9004600160a060020a0316600160a060020a031663c8ab6c876040518163ffffffff167c0100000000000000000000000000000000000000000000000000000000028152600401602060405180830381600087803b1580156200018d57600080fd5b505af1158015620001a2573d6000803e3d6000fd5b505050506040513d601f19601f82011682018060405250620001c891908101906200074c565b600160a060020a031633600160a060020a0316145b80620001f857503360009081526011602052604090205460ff165b15156200020457600080fd5b845142118015906200021a575060208501518551105b15156200025e576040517f08c379a0000000000000000000000000000000000000000000000000000000008152600401620002559062000983565b60405180910390fd5b600354600160a060020a03169150831515620002865760608501516000106200028657600080fd5b6001546010546040517faf1237af000000000000000000000000000000000000000000000000000000008152600160a060020a038581169363af1237af93620002dd939290911691309133918c906004016200090d565b602060405180830381600087803b158015620002f857600080fd5b505af11580156200030d573d6000803e3d6000fd5b505050506040513d601f19601f820116820180604052506200033391908101906200074c565b601054909150158015906200034b5750606085015115155b15620003fa5760025460608601516040517fa9059cbb000000000000000000000000000000000000000000000000000000008152600160a060020a039092169163a9059cbb91620003a29185919060040162000964565b602060405180830381600087803b158015620003bd57600080fd5b505af1158015620003d2573d6000803e3d6000fd5b505050506040513d601f19601f82011682018060405250620003f8919081019062000775565b505b60108054600180820183557f1b6847dc741a1b0cd08d278845f9d819d87b734759afb55fe2de5cb82a9ae6729091018054600160a060020a031916600160a060020a038516908117909155600090815260116020908152604091829020805460ff191690931790925587519188015188820151935491517f7d3cfca05a07773179cf217e8ffc51764c3dce48e826d85feb2b280f7674eeef94620004a4949390918791906200099b565b60405180910390a1949350505050565b828054600181600116156101000203166002900490600052602060002090601f016020900481019282601f10620004f757805160ff191683800117855562000527565b8280016001018555821562000527579182015b82811115620005275782518255916020019190600101906200050a565b506200053592915062000539565b5090565b6200055691905b8082111562000535576000815560010162000540565b90565b600062000567825162000a36565b9392505050565b600062000567825162000a42565b600062000567825162000556565b6000601f820183136200059c57600080fd5b8151620005b3620005ad8262000a0e565b620009e7565b91508082526020830160208301858383011115620005d057600080fd5b620005dd83828462000a54565b50505092915050565b600060808284031215620005f957600080fd5b620006056080620009e7565b905060006200061584846200057c565b825250602062000628848483016200057c565b60208301525060406200063e848285016200057c565b604083015250606062000654848285016200057c565b60608301525092915050565b600061012082840312156200067457600080fd5b62000681610120620009e7565b905060006200069184846200057c565b8252506020620006a4848483016200057c565b6020830152506040620006ba848285016200057c565b6040830152506060620006d0848285016200057c565b6060830152506080620006e6848285016200057c565b60808301525060a0620006fc848285016200057c565b60a08301525060c062000712848285016200057c565b60c08301525060e062000728848285016200057c565b60e0830152506101006200073f848285016200057c565b6101008301525092915050565b6000602082840312156200075f57600080fd5b60006200076d848462000559565b949350505050565b6000602082840312156200078857600080fd5b60006200076d84846200056e565b6000806000806000806000610240888a031215620007b357600080fd5b87516001604060020a03811115620007ca57600080fd5b620007d88a828b016200058a565b9750506020620007eb8a828b0162000660565b965050610140620007ff8a828b01620005e6565b9550506101c0620008138a828b0162000559565b9450506101e0620008278a828b0162000559565b9350506102006200083b8a828b0162000559565b9250506102206200084f8a828b0162000559565b91505092959891949750929550565b620008698162000a36565b82525050565b620008698162000a47565b601c81527f54696d6520706172616d65746572732061726520696e76616c69642e00000000602082015260400190565b80516080830190620008bd848262000902565b506020820151620008d2602085018262000902565b506040820151620008e7604085018262000902565b506060820151620008fc606085018262000902565b50505050565b620008698162000556565b61010081016200091e82886200085e565b6200092d60208301876200086f565b6200093c60408301866200085e565b6200094b606083018562000902565b6200095a6080830184620008aa565b9695505050505050565b604081016200097482856200085e565b62000567602083018462000902565b6020808252810162000995816200087a565b92915050565b60a08101620009ab828862000902565b620009ba602083018762000902565b620009c9604083018662000902565b620009d860608301856200085e565b6200095a608083018462000902565b6040518181016001604060020a038111828210171562000a0657600080fd5b604052919050565b60006001604060020a0382111562000a2557600080fd5b506020601f91909101601f19160190565b600160a060020a031690565b151590565b6000620009958262000a36565b60005b8381101562000a7157818101518382015260200162000a57565b83811115620008fc5750506000910152565b6142238062000a936000396000f3006080604052600436106102455763ffffffff7c0100000000000000000000000000000000000000000000000000000000600035041663072ea61c811461024a5780630befb0a51461027557806315dc132e1461028a5780631865c57d146102b757806323721e24146102cc578063245edf06146102ee57806324d9a0d91461031057806326b3a1761461033057806328d576d71461034557806329cc545e146103725780632f54bf6e146103875780632fc1f190146103a757806335a1223a146103bc5780633809eba2146103dc57806339b88d67146103fc5780633a2fa2de1461041c5780633ccfd60b1461043c578063447411f3146104515780634644c51b1461046657806352c01fab14610486578063597e1fb5146104a65780635ce7a46a146104bb5780636482ed69146104db5780636ec02be9146104fb5780636fe564201461051057806380258e4714610525578063893d20e81461054757806389f3beb61461055c5780638a19c8bc146105715780638c1fc0bb146105945780638c65c81f146105b45780638da5cb5b146105d4578063943dfef1146105e95780639baec207146105fe578063a968c4b914610613578063aa18262614610633578063aba0f77414610653578063c0bb3b6014610673578063c2f897bf14610688578063d83717e11461069d578063dbe55e56146106bd578063e139a20c146106d2578063e586a4f0146106f4578063ef430aa614610709578063f1653f6e1461071e578063f2fde38b14610733578063fc116acd14610753578063ff3c1a8f14610773575b600080fd5b34801561025657600080fd5b5061025f610795565b60405161026c9190613fe3565b60405180910390f35b34801561028157600080fd5b5061025f61079b565b34801561029657600080fd5b506102aa6102a53660046136e6565b61084a565b60405161026c9190613daa565b3480156102c357600080fd5b5061025f610df3565b3480156102d857600080fd5b506102ec6102e73660046139b8565b610f6a565b005b3480156102fa57600080fd5b50610303611072565b60405161026c9190613fb9565b34801561031c57600080fd5b506102ec61032b366004613822565b6110ad565b34801561033c57600080fd5b506102ec6110e2565b34801561035157600080fd5b50610365610360366004613668565b6111b5565b60405161026c9190613fd5565b34801561037e57600080fd5b506102aa6112c7565b34801561039357600080fd5b506103656103a2366004613668565b6112e3565b3480156103b357600080fd5b506102aa611304565b3480156103c857600080fd5b5061025f6103d736600461397c565b611320565b3480156103e857600080fd5b506102aa6103f736600461394c565b611334565b34801561040857600080fd5b506102ec6104173660046137a6565b61173d565b34801561042857600080fd5b5061025f61043736600461397c565b611937565b34801561044857600080fd5b506102ec611944565b34801561045d57600080fd5b5061025f611ced565b34801561047257600080fd5b506102ec610481366004613668565b611cf3565b34801561049257600080fd5b506103656104a1366004613668565b611d55565b3480156104b257600080fd5b50610365611d80565b3480156104c757600080fd5b5061025f6104d636600461397c565b611d89565b3480156104e757600080fd5b506102ec6104f63660046138e6565b611d96565b34801561050757600080fd5b5061025f611f45565b34801561051c57600080fd5b506102aa611f4b565b34801561053157600080fd5b5061053a611f67565b60405161026c9190613fff565b34801561055357600080fd5b506102aa612016565b34801561056857600080fd5b5061025f612032565b34801561057d57600080fd5b50610586612038565b60405161026c929190614040565b3480156105a057600080fd5b506103656105af366004613668565b61226b565b3480156105c057600080fd5b506102aa6105cf36600461397c565b612280565b3480156105e057600080fd5b506102aa6122b5565b3480156105f557600080fd5b5061025f6122d1565b34801561060a57600080fd5b506102ec6122d7565b34801561061f57600080fd5b5061036561062e3660046136ac565b61238d565b34801561063f57600080fd5b506102ec61064e36600461397c565b6124ce565b34801561065f57600080fd5b506102ec61066e36600461392e565b6124f7565b34801561067f57600080fd5b5061025f6126ae565b34801561069457600080fd5b506102ec6126b4565b3480156106a957600080fd5b506102ec6106b8366004613840565b612801565b3480156106c957600080fd5b506102aa612832565b3480156106de57600080fd5b506106e761284e565b60405161026c9190613f0f565b34801561070057600080fd5b5061025f6128d0565b34801561071557600080fd5b5061053a6128d6565b34801561072a57600080fd5b5061025f612964565b34801561073f57600080fd5b506102ec61074e366004613668565b61296a565b34801561075f57600080fd5b506102ec61076e36600461387c565b6129f7565b34801561077f57600080fd5b50610788612ad1565b60405161026c9190613fc7565b60145481565b6002546040517f70a0823100000000000000000000000000000000000000000000000000000000815260009173ffffffffffffffffffffffffffffffffffffffff16906370a08231906107f2903090600401613ff1565b602060405180830381600087803b15801561080c57600080fd5b505af1158015610820573d6000803e3d6000fd5b505050506040513d601f19601f82011682018060405250610844919081019061399a565b90505b90565b336000908152601a602052604081205481908190819060ff1680151561086f57600080fd5b6001546040517f532311c4000000000000000000000000000000000000000000000000000000008152339173ffffffffffffffffffffffffffffffffffffffff1690819063532311c4906108c7908590600401613daa565b602060405180830381600087803b1580156108e157600080fd5b505af11580156108f5573d6000803e3d6000fd5b505050506040513d601f19601f82011682018060405250610919919081019061385e565b151561092457600080fd5b600061092e612038565b9150600190508173ffffffffffffffffffffffffffffffffffffffff16631865c57d6040518163ffffffff167c0100000000000000000000000000000000000000000000000000000000028152600401602060405180830381600087803b15801561099857600080fd5b505af11580156109ac573d6000803e3d6000fd5b505050506040513d601f19601f820116820180604052506109d0919081019061399a565b14156109db57600080fd5b60026109e5610df3565b146109ef57600080fd5b60015460208a01516040517f6a44e43d00000000000000000000000000000000000000000000000000000000815273ffffffffffffffffffffffffffffffffffffffff90921691636a44e43d91610a4891600401613daa565b602060405180830381600087803b158015610a6257600080fd5b505af1158015610a76573d6000803e3d6000fd5b505050506040513d601f19601f82011682018060405250610a9a919081019061368e565b9650610aa4612038565b9050809650508573ffffffffffffffffffffffffffffffffffffffff16638734fe4c8d8d8d8b8e6040518663ffffffff167c0100000000000000000000000000000000000000000000000000000000028152600401610b07959493929190613f20565b602060405180830381600087803b158015610b2157600080fd5b505af1158015610b35573d6000803e3d6000fd5b505050506040513d601f19601f82011682018060405250610b59919081019061368e565b6001546040517f8c593a8c00000000000000000000000000000000000000000000000000000000815291965073ffffffffffffffffffffffffffffffffffffffff1690638c593a8c90610bb29088908e90600401613dd3565b602060405180830381600087803b158015610bcc57600080fd5b505af1158015610be0573d6000803e3d6000fd5b505050506040513d601f19601f82011682018060405250610c04919081019061385e565b506017541515610cb657600154600c54600480546005546006546007546008546013546014546040517fa923251e00000000000000000000000000000000000000000000000000000000815273ffffffffffffffffffffffffffffffffffffffff9a8b169a63a923251e9a610c839a9116989796959493929101613df3565b600060405180830381600087803b158015610c9d57600080fd5b505af1158015610cb1573d6000803e3d6000fd5b505050505b601754610cca90600163ffffffff612b0716565b60175560408051808201825260018082523360008181526018602081815286832080548288019081528585526019835288852073ffffffffffffffffffffffffffffffffffffffff8f81168088529185528a872099518a5460ff1916901515178a5591519888019890985592825280548087018255908452922090910180547fffffffffffffffffffffffff000000000000000000000000000000000000000016909417909355905492517fab9583d9000000000000000000000000000000000000000000000000000000008152929091169163ab9583d991610db1918990600401613db8565b600060405180830381600087803b158015610dcb57600080fd5b505af1158015610ddf573d6000803e3d6000fd5b50969e9d5050505050505050505050505050565b600080600080610e01612038565b601254919450925060ff1615610e1b5760035b9350610f64565b6000831115610f5f578173ffffffffffffffffffffffffffffffffffffffff16631865c57d6040518163ffffffff167c0100000000000000000000000000000000000000000000000000000000028152600401602060405180830381600087803b158015610e8857600080fd5b505af1158015610e9c573d6000803e3d6000fd5b505050506040513d601f19601f82011682018060405250610ec0919081019061399a565b905060018314610f20576001811480610ed95750600281145b80610ee45750600381145b80610eef5750600481145b15610efb576002610e14565b801515610f09576001610e14565b6005811415610f19576003610e14565b6004610e14565b801515610f2e576000610e14565b6001811480610f3d5750600281145b80610f485750600381145b80610f535750600481145b15610f09576002610e14565b600093505b50505090565b60015473ffffffffffffffffffffffffffffffffffffffff163314610f8e57600080fd5b6002546010805473ffffffffffffffffffffffffffffffffffffffff9092169163a9059cbb919085908110610fbf57fe5b6000918252602090912001546040517c010000000000000000000000000000000000000000000000000000000063ffffffff841602815261101b9173ffffffffffffffffffffffffffffffffffffffff16908590600401613ef4565b602060405180830381600087803b15801561103557600080fd5b505af1158015611049573d6000803e3d6000fd5b505050506040513d601f19601f8201168201806040525061106d919081019061385e565b505050565b61107a613042565b60408051808201918290529060079060029082845b8154815260019091019060200180831161108f575050505050905090565b600c5473ffffffffffffffffffffffffffffffffffffffff1633146110d157600080fd5b6110de600782600261305d565b5050565b3360009081526011602052604090205460ff16151561110057600080fd5b60025473ffffffffffffffffffffffffffffffffffffffff1663a9059cbb3361112761079b565b6040518363ffffffff167c0100000000000000000000000000000000000000000000000000000000028152600401611160929190613ef4565b602060405180830381600087803b15801561117a57600080fd5b505af115801561118e573d6000803e3d6000fd5b505050506040513d601f19601f820116820180604052506111b2919081019061385e565b50565b60015460009073ffffffffffffffffffffffffffffffffffffffff1633146111dc57600080fd5b60026111e6610df3565b146111f057600080fd5b73ffffffffffffffffffffffffffffffffffffffff82166000908152601a602052604090205460ff1615156001141561122b575060006112c2565b5073ffffffffffffffffffffffffffffffffffffffff81166000818152601a60205260408120805460ff19166001908117825560145491810191909155601b8054808301825592527f3ad8aa4f87544323a9d1e5dd902f40c356527a7955687113db5f9a85ad579dc190910180547fffffffffffffffffffffffff0000000000000000000000000000000000000000169092179091555b919050565b60025473ffffffffffffffffffffffffffffffffffffffff1681565b60005473ffffffffffffffffffffffffffffffffffffffff91821691161490565b60015473ffffffffffffffffffffffffffffffffffffffff1690565b6004816003811061132d57fe5b0154905081565b600080803330148061142e5750600160009054906101000a900473ffffffffffffffffffffffffffffffffffffffff1673ffffffffffffffffffffffffffffffffffffffff1663c8ab6c876040518163ffffffff167c0100000000000000000000000000000000000000000000000000000000028152600401602060405180830381600087803b1580156113c757600080fd5b505af11580156113db573d6000803e3d6000fd5b505050506040513d601f19601f820116820180604052506113ff919081019061368e565b73ffffffffffffffffffffffffffffffffffffffff163373ffffffffffffffffffffffffffffffffffffffff16145b8061144857503360009081526011602052604090205460ff165b151561145357600080fd5b84514211801590611468575060208501518551105b15156114a9576040517f08c379a00000000000000000000000000000000000000000000000000000000081526004016114a090614030565b60405180910390fd5b60035473ffffffffffffffffffffffffffffffffffffffff1691508315156114dc5760608501516000106114dc57600080fd5b6001546010546040517faf1237af00000000000000000000000000000000000000000000000000000000815273ffffffffffffffffffffffffffffffffffffffff8581169363af1237af9361153e939290911691309133918c90600401613e6a565b602060405180830381600087803b15801561155857600080fd5b505af115801561156c573d6000803e3d6000fd5b505050506040513d601f19601f82011682018060405250611590919081019061368e565b601054909150158015906115a75750606085015115155b1561165c5760025460608601516040517fa9059cbb00000000000000000000000000000000000000000000000000000000815273ffffffffffffffffffffffffffffffffffffffff9092169163a9059cbb9161160891859190600401613ef4565b602060405180830381600087803b15801561162257600080fd5b505af1158015611636573d6000803e3d6000fd5b505050506040513d601f19601f8201168201806040525061165a919081019061385e565b505b60108054600180820183557f1b6847dc741a1b0cd08d278845f9d819d87b734759afb55fe2de5cb82a9ae67290910180547fffffffffffffffffffffffff00000000000000000000000000000000000000001673ffffffffffffffffffffffffffffffffffffffff8516908117909155600090815260116020908152604091829020805460ff191690931790925587519188015188820151935491517f7d3cfca05a07773179cf217e8ffc51764c3dce48e826d85feb2b280f7674eeef9461172994939091879190614077565b60405180910390a18092505b505092915050565b600c54600090819073ffffffffffffffffffffffffffffffffffffffff16331461176657600080fd5b61176e612038565b9050809250508173ffffffffffffffffffffffffffffffffffffffff16631865c57d6040518163ffffffff167c0100000000000000000000000000000000000000000000000000000000028152600401602060405180830381600087803b1580156117d857600080fd5b505af11580156117ec573d6000803e3d6000fd5b505050506040513d601f19601f82011682018060405250611810919081019061399a565b905060038114806118215750600481145b1515611859576040517f08c379a00000000000000000000000000000000000000000000000000000000081526004016114a090614010565b7f5ec9914f46ca24eeb7222e98b6f699b769ab33c1d88072c0651eb9bb19478ad5856040516118889190613f0f565b60405180910390a16040517f96729d1e00000000000000000000000000000000000000000000000000000000815273ffffffffffffffffffffffffffffffffffffffff8316906396729d1e906118e690889088908890600401613f85565b600060405180830381600087803b15801561190057600080fd5b505af1158015611914573d6000803e3d6000fd5b5060029250611921915050565b83141561193057611930612b1d565b5050505050565b6009816002811061132d57fe5b336000908152601a6020526040812054819060ff1680151561196557600080fd5b600461196f610df3565b146119a6576040517f08c379a00000000000000000000000000000000000000000000000000000000081526004016114a090614020565b3360009081526016602052604090205460ff16156119c357600080fd5b6119cb612038565b601b546002546040517f70a082310000000000000000000000000000000000000000000000000000000081529296509094506000925073ffffffffffffffffffffffffffffffffffffffff16906370a0823190611a2c908790600401613daa565b602060405180830381600087803b158015611a4657600080fd5b505af1158015611a5a573d6000803e3d6000fd5b505050506040513d601f19601f82011682018060405250611a7e919081019061399a565b1115611be3578273ffffffffffffffffffffffffffffffffffffffff166307417cf16040518163ffffffff167c0100000000000000000000000000000000000000000000000000000000028152600401600060405180830381600087803b158015611ae857600080fd5b505af1158015611afc573d6000803e3d6000fd5b50506002805460135473ffffffffffffffffffffffffffffffffffffffff909116935063a9059cbb92503391611b4891611b3c908863ffffffff612de616565b9063ffffffff612dfd16565b6040518363ffffffff167c0100000000000000000000000000000000000000000000000000000000028152600401611b81929190613ef4565b602060405180830381600087803b158015611b9b57600080fd5b505af1158015611baf573d6000803e3d6000fd5b505050506040513d601f19601f82011682018060405250611bd3919081019061385e565b1515611bde57600080fd5b611cce565b60025460135473ffffffffffffffffffffffffffffffffffffffff9091169063a9059cbb903390611c3890600019870190611c2c9088908290600119830163ffffffff612dfd16565b9063ffffffff612de616565b6040518363ffffffff167c0100000000000000000000000000000000000000000000000000000000028152600401611c71929190613ef4565b602060405180830381600087803b158015611c8b57600080fd5b505af1158015611c9f573d6000803e3d6000fd5b505050506040513d601f19601f82011682018060405250611cc3919081019061385e565b1515611cce57600080fd5b5050336000908152601660205260409020805460ff1916600117905550565b600f5481565b3360009081526011602052604090205460ff161515611d1157600080fd5b7f5fbb3d346317d5ecdb86412d4c69c7503ff4dbed1eccd4cb6290453ea0b1a32260016010805490500382604051611d4a929190614040565b60405180910390a150565b73ffffffffffffffffffffffffffffffffffffffff166000908152601a602052604090205460ff1690565b60125460ff1681565b6007816002811061132d57fe5b600d805460408051602060026001851615610100026000190190941693909304601f8101849004840282018401909252818152611e3593611e309391929091830182828015611e265780601f10611dfb57610100808354040283529160200191611e26565b820191906000526020600020905b815481529060010190602001808311611e0957829003601f168201915b5050505050612e21565b612e47565b1515611edd576001546040517f8785494e00000000000000000000000000000000000000000000000000000000815273ffffffffffffffffffffffffffffffffffffffff90911690638785494e90611e96903090600d908790600401613eb7565b600060405180830381600087803b158015611eb057600080fd5b505af1158015611ec4573d6000803e3d6000fd5b50508351611edb9250600d91506020850190613099565b505b805115611efa578051600455602081015160055560408101516006555b606081015115611f1557606081015160075560808101516008555b60a081015115611f305760a081015160095560c0810151600a555b806101000151156110de5760e0015160145550565b60175490565b60035473ffffffffffffffffffffffffffffffffffffffff1681565b600154600b546040517f8d1d498c00000000000000000000000000000000000000000000000000000000815260609273ffffffffffffffffffffffffffffffffffffffff1691638d1d498c91611fc09190600401613fe3565b600060405180830381600087803b158015611fda57600080fd5b505af1158015611fee573d6000803e3d6000fd5b505050506040513d6000823e601f3d908101601f1916820160405261084491908101906138b1565b600c5473ffffffffffffffffffffffffffffffffffffffff1690565b601b5490565b60008060016010805490501180156121275750600460108054600119810190811061205f57fe5b9060005260206000200160009054906101000a900473ffffffffffffffffffffffffffffffffffffffff1673ffffffffffffffffffffffffffffffffffffffff16631865c57d6040518163ffffffff167c0100000000000000000000000000000000000000000000000000000000028152600401602060405180830381600087803b1580156120ed57600080fd5b505af1158015612101573d6000803e3d6000fd5b505050506040513d601f19601f82011682018060405250612125919081019061399a565b145b801561220a5750600060108054600019810190811061214257fe5b9060005260206000200160009054906101000a900473ffffffffffffffffffffffffffffffffffffffff1673ffffffffffffffffffffffffffffffffffffffff16631865c57d6040518163ffffffff167c0100000000000000000000000000000000000000000000000000000000028152600401602060405180830381600087803b1580156121d057600080fd5b505af11580156121e4573d6000803e3d6000fd5b505050506040513d601f19601f82011682018060405250612208919081019061399a565b145b15612254576010805460001981019190600119810190811061222857fe5b60009182526020909120015490925073ffffffffffffffffffffffffffffffffffffffff169050612267565b6010805490600019820182811061222857fe5b9091565b60116020526000908152604090205460ff1681565b601080548290811061228e57fe5b60009182526020909120015473ffffffffffffffffffffffffffffffffffffffff16905081565b600c5473ffffffffffffffffffffffffffffffffffffffff1681565b60135481565b600c5460009073ffffffffffffffffffffffffffffffffffffffff1633146122fe57600080fd5b612306612038565b9150508073ffffffffffffffffffffffffffffffffffffffff1663e278fe6f6040518163ffffffff167c0100000000000000000000000000000000000000000000000000000000028152600401600060405180830381600087803b15801561236d57600080fd5b505af1158015612381573d6000803e3d6000fd5b505050506111b2612b1d565b60015460009073ffffffffffffffffffffffffffffffffffffffff1633146123b457600080fd5b73ffffffffffffffffffffffffffffffffffffffff80831660009081526019602090815260408083209387168352929052205460ff1615156123f557600080fd5b60175461240990600163ffffffff612e4c16565b60175573ffffffffffffffffffffffffffffffffffffffff8083166000908152601860209081526040808320601983528184209488168452939091529020600101548154811061245557fe5b6000918252602080832090910180547fffffffffffffffffffffffff000000000000000000000000000000000000000016905573ffffffffffffffffffffffffffffffffffffffff8481168352601982526040808420918716845291528120805460ff1916815560019081019190915590505b92915050565b600c5473ffffffffffffffffffffffffffffffffffffffff1633146124f257600080fd5b601455565b600c54600090819073ffffffffffffffffffffffffffffffffffffffff16331461252057600080fd5b612528612e5e565b909250905073ffffffffffffffffffffffffffffffffffffffff81161561106d578073ffffffffffffffffffffffffffffffffffffffff1663f89474be60106001850381548110151561257757fe5b9060005260206000200160009054906101000a900473ffffffffffffffffffffffffffffffffffffffff1673ffffffffffffffffffffffffffffffffffffffff1663439f5ac26040518163ffffffff167c0100000000000000000000000000000000000000000000000000000000028152600401602060405180830381600087803b15801561260557600080fd5b505af1158015612619573d6000803e3d6000fd5b505050506040513d601f19601f8201168201806040525061263d919081019061399a565b856040518363ffffffff167c010000000000000000000000000000000000000000000000000000000002815260040161267792919061404e565b600060405180830381600087803b15801561269157600080fd5b505af11580156126a5573d6000803e3d6000fd5b50505050505050565b600b5481565b600c54600090819073ffffffffffffffffffffffffffffffffffffffff1633146126dd57600080fd5b6126e5612038565b915091508073ffffffffffffffffffffffffffffffffffffffff1663e278fe6f6040518163ffffffff167c0100000000000000000000000000000000000000000000000000000000028152600401600060405180830381600087803b15801561274d57600080fd5b505af1158015612761573d6000803e3d6000fd5b5050505060108260010181548110151561277757fe5b6000918252602082200154604080517f0e3db9f2000000000000000000000000000000000000000000000000000000008152905173ffffffffffffffffffffffffffffffffffffffff90921692630e3db9f29260048084019382900301818387803b1580156127e557600080fd5b505af11580156127f9573d6000803e3d6000fd5b505050505050565b600c5473ffffffffffffffffffffffffffffffffffffffff16331461282557600080fd5b6110de6004826003613107565b60015473ffffffffffffffffffffffffffffffffffffffff1681565b3360009081526018602090815260409182902080548351818402810184019094528084526060938493909291908301828280156128c157602002820191906000526020600020905b815473ffffffffffffffffffffffffffffffffffffffff168152600190910190602001808311612896575b505050505090508091505b5090565b60145490565b600d805460408051602060026001851615610100026000190190941693909304601f8101849004840282018401909252818152929183018282801561295c5780601f106129315761010080835404028352916020019161295c565b820191906000526020600020905b81548152906001019060200180831161293f57829003601f168201915b505050505081565b600e5481565b600c5473ffffffffffffffffffffffffffffffffffffffff16331461298e57600080fd5b73ffffffffffffffffffffffffffffffffffffffff811615156129b057600080fd5b600080547fffffffffffffffffffffffff00000000000000000000000000000000000000001673ffffffffffffffffffffffffffffffffffffffff92909216919091179055565b600c5473ffffffffffffffffffffffffffffffffffffffff163314612a1b57600080fd5b612a27611e3082612e21565b15612a3157600080fd5b6001546040517f8785494e00000000000000000000000000000000000000000000000000000000815273ffffffffffffffffffffffffffffffffffffffff90911690638785494e90612a8c903090600d908690600401613eb7565b600060405180830381600087803b158015612aa657600080fd5b505af1158015612aba573d6000803e3d6000fd5b505082516110de9250600d91506020840190613099565b612ad9613136565b604080516060810191829052600480548252909160039060056020850180831161108f575050505050905090565b600082820183811015612b1657fe5b9392505050565b600080612b28612038565b9050809250508173ffffffffffffffffffffffffffffffffffffffff16631865c57d6040518163ffffffff167c0100000000000000000000000000000000000000000000000000000000028152600401602060405180830381600087803b158015612b9257600080fd5b505af1158015612ba6573d6000803e3d6000fd5b505050506040513d601f19601f82011682018060405250612bca919081019061399a565b60025490915073ffffffffffffffffffffffffffffffffffffffff1663a9059cbb83612bf461079b565b6040518363ffffffff167c0100000000000000000000000000000000000000000000000000000000028152600401612c2d929190613ef4565b602060405180830381600087803b158015612c4757600080fd5b505af1158015612c5b573d6000803e3d6000fd5b505050506040513d601f19601f82011682018060405250612c7f919081019061385e565b1515612c8a57600080fd5b600160009054906101000a900473ffffffffffffffffffffffffffffffffffffffff1673ffffffffffffffffffffffffffffffffffffffff1663e14feaea6010805490508473ffffffffffffffffffffffffffffffffffffffff1663f49bff7b6040518163ffffffff167c0100000000000000000000000000000000000000000000000000000000028152600401602060405180830381600087803b158015612d3257600080fd5b505af1158015612d46573d6000803e3d6000fd5b505050506040513d601f19601f82011682018060405250612d6a919081019061399a565b6040518363ffffffff167c0100000000000000000000000000000000000000000000000000000000028152600401612da3929190614069565b600060405180830381600087803b158015612dbd57600080fd5b505af1158015612dd1573d6000803e3d6000fd5b50506012805460ff1916600117905550505050565b6000808284811515612df457fe5b04949350505050565b6000828202831580612e195750828482811515612e1657fe5b04145b1515612b1657fe5b612e29613155565b50604080518082019091528151815260209182019181019190915290565b511590565b600082821115612e5857fe5b50900390565b6000806004601080546001198101908110612e7557fe5b9060005260206000200160009054906101000a900473ffffffffffffffffffffffffffffffffffffffff1673ffffffffffffffffffffffffffffffffffffffff16631865c57d6040518163ffffffff167c0100000000000000000000000000000000000000000000000000000000028152600401602060405180830381600087803b158015612f0357600080fd5b505af1158015612f17573d6000803e3d6000fd5b505050506040513d601f19601f82011682018060405250612f3b919081019061399a565b14801561301f57506000601080546000198101908110612f5757fe5b9060005260206000200160009054906101000a900473ffffffffffffffffffffffffffffffffffffffff1673ffffffffffffffffffffffffffffffffffffffff16631865c57d6040518163ffffffff167c0100000000000000000000000000000000000000000000000000000000028152600401602060405180830381600087803b158015612fe557600080fd5b505af1158015612ff9573d6000803e3d6000fd5b505050506040513d601f19601f8201168201806040525061301d919081019061399a565b145b156130395760108054600019810191908290811061222857fe5b50600091829150565b60408051808201825290600290829080388339509192915050565b826002810192821561308d579160200282015b8281111561308d5782518255602090920191600190910190613070565b506128cc92915061316c565b828054600181600116156101000203166002900490600052602060002090601f016020900481019282601f106130da57805160ff191683800117855561308d565b8280016001018555821561308d579182015b8281111561308d5782518255916020019190600101906130ec565b826003810192821561308d579160200282018281111561308d5782518255602090920191600190910190613070565b6060604051908101604052806003906020820280388339509192915050565b604080518082019091526000808252602082015290565b61084791905b808211156128cc5760008155600101613172565b6000612b168235614169565b6000612b168251614169565b6000601f820183136131af57600080fd5b81356131c26131bd826140e0565b6140b9565b915081818352602084019350602081019050838560208402820111156131e757600080fd5b60005b8381101561321357816131fd8882613186565b84525060209283019291909101906001016131ea565b5050505092915050565b6000601f8201831361322e57600080fd5b600261323c6131bd82614101565b9150818385602084028201111561325257600080fd5b60005b83811015613213578161326888826133d7565b8452506020928301929190910190600101613255565b6000601f8201831361328f57600080fd5b600361329d6131bd82614101565b915081838560208402820111156132b357600080fd5b60005b8381101561321357816132c988826133d7565b84525060209283019291909101906001016132b6565b6000601f820183136132f057600080fd5b81356132fe6131bd826140e0565b9150818183526020840193506020810190508385602084028201111561332357600080fd5b60005b8381101561321357816133398882613650565b8452506020928301929190910190600101613326565b6000601f8201831361336057600080fd5b813561336e6131bd826140e0565b9150818183526020840193506020810190508385602084028201111561339357600080fd5b60005b8381101561321357816133a988826133d7565b8452506020928301929190910190600101613396565b6000612b168235614182565b6000612b168251614182565b6000612b168235610847565b6000601f820183136133f457600080fd5b81356134026131bd8261411f565b9150808252602083016020830185838301111561341e57600080fd5b6134298382846141a7565b50505092915050565b6000601f8201831361344357600080fd5b81516134516131bd8261411f565b9150808252602083016020830185838301111561346d57600080fd5b6134298382846141b3565b60006080828403121561348a57600080fd5b61349460806140b9565b905060006134a284846133d7565b82525060206134b3848483016133d7565b60208301525060406134c7848285016133d7565b60408301525060606134db848285016133d7565b60608301525092915050565b6000608082840312156134f957600080fd5b61350360806140b9565b9050813567ffffffffffffffff81111561351c57600080fd5b613528848285016133e3565b825250602061353984848301613186565b602083015250604082013567ffffffffffffffff81111561355957600080fd5b613565848285016133e3565b60408301525060606134db848285016133bf565b6000610120828403121561358c57600080fd5b6135976101206140b9565b905060006135a584846133d7565b82525060206135b6848483016133d7565b60208301525060406135ca848285016133d7565b60408301525060606135de848285016133d7565b60608301525060806135f2848285016133d7565b60808301525060a0613606848285016133d7565b60a08301525060c061361a848285016133d7565b60c08301525060e061362e848285016133d7565b60e083015250610100613643848285016133bf565b6101008301525092915050565b6000612b168235614187565b6000612b168251610847565b60006020828403121561367a57600080fd5b60006136868484613186565b949350505050565b6000602082840312156136a057600080fd5b60006136868484613192565b600080604083850312156136bf57600080fd5b60006136cb8585613186565b92505060206136dc85828601613186565b9150509250929050565b600080600080608085870312156136fc57600080fd5b843567ffffffffffffffff81111561371357600080fd5b61371f8782880161319e565b945050602085013567ffffffffffffffff81111561373c57600080fd5b613748878288016132df565b935050604085013567ffffffffffffffff81111561376557600080fd5b6137718782880161319e565b925050606085013567ffffffffffffffff81111561378e57600080fd5b61379a878288016134e7565b91505092959194509250565b6000806000606084860312156137bb57600080fd5b833567ffffffffffffffff8111156137d257600080fd5b6137de8682870161319e565b935050602084013567ffffffffffffffff8111156137fb57600080fd5b6138078682870161334f565b9250506040613818868287016133d7565b9150509250925092565b60006040828403121561383457600080fd5b6000613686848461321d565b60006060828403121561385257600080fd5b6000613686848461327e565b60006020828403121561387057600080fd5b600061368684846133cb565b60006020828403121561388e57600080fd5b813567ffffffffffffffff8111156138a557600080fd5b613686848285016133e3565b6000602082840312156138c357600080fd5b815167ffffffffffffffff8111156138da57600080fd5b61368684828501613432565b60008061014083850312156138fa57600080fd5b823567ffffffffffffffff81111561391157600080fd5b61391d858286016133e3565b92505060206136dc85828601613579565b60006080828403121561394057600080fd5b60006136868484613478565b60008060a0838503121561395f57600080fd5b600061396b8585613478565b92505060806136dc858286016133bf565b60006020828403121561398e57600080fd5b600061368684846133d7565b6000602082840312156139ac57600080fd5b6000613686848461365c565b600080604083850312156139cb57600080fd5b60006139d785856133d7565b92505060206136dc858286016133d7565b6139f181614169565b82525050565b6000613a0282614159565b808452602084019350613a1483614147565b60005b82811015613a4457613a2a8683516139e8565b613a3382614147565b602096909601959150600101613a17565b5093949350505050565b613a578161415d565b613a6082610847565b60005b8281101561193057613a76858351613b75565b613a7f82614147565b602095909501949150600101613a63565b613a9981614163565b613aa282610847565b60005b8281101561193057613ab8858351613b75565b613ac182614147565b602095909501949150600101613aa5565b6000613add82614159565b808452602084019350613aef83614147565b60005b82811015613a4457613b05868351613da1565b613b0e82614147565b602096909601959150600101613af2565b6000613b2a82614159565b808452602084019350613b3c83614147565b60005b82811015613a4457613b52868351613b75565b613b5b82614147565b602096909601959150600101613b3f565b6139f181614182565b6139f181610847565b6000613b8982614159565b808452613b9d8160208601602086016141b3565b613ba6816141df565b9093016020019392505050565b6139f18161419c565b600081546001811660008114613bd95760018114613bf757611735565b60028204607f16855260ff1982166020860152604085019250611735565b60028204808652602086019550613c0d8561414d565b60005b82811015613c2c57815488820152600190910190602001613c10565b9096019695505050505050565b603881527f526f756e64206973206e6f7420696e2072657669657720616e642077696e6e6560208201527f72732068617665206e6f74206265656e2063686f73656e2e0000000000000000604082015260600190565b601f81527f5468697320746f75726e616d656e74206973207374696c6c2076616c69642e00602082015260400190565b601c81527f54696d6520706172616d65746572732061726520696e76616c69642e00000000602082015260400190565b80516080830190613d008482613b75565b506020820151613d136020850182613b75565b506040820151613d266040850182613b75565b506060820151613d396060850182613b75565b50505050565b8051608080845260009190840190613d578282613b7e565b9150506020830151613d6c60208601826139e8565b5060408301518482036040860152613d848282613b7e565b9150506060830151613d996060860182613b6c565b509392505050565b6139f181614187565b602081016124c882846139e8565b60408101613dc682856139e8565b612b1660208301846139e8565b60408101613de182856139e8565b818103602083015261368681846139f7565b6101008101613e02828b6139e8565b613e0f602083018a613b75565b613e1c6040830189613b75565b613e296060830188613b75565b613e366080830187613b75565b613e4360a0830186613b75565b613e5060c0830185613b75565b613e5d60e0830184613b75565b9998505050505050505050565b6101008101613e7982886139e8565b613e866020830187613bb3565b613e9360408301866139e8565b613ea06060830185613b75565b613ead6080830184613cef565b9695505050505050565b60608101613ec582866139e8565b8181036020830152613ed78185613bbc565b90508181036040830152613eeb8184613b7e565b95945050505050565b60408101613f0282856139e8565b612b166020830184613b75565b60208082528101612b1681846139f7565b60a08082528101613f3181886139f7565b90508181036020830152613f458187613ad2565b90508181036040830152613f5981866139f7565b9050613f6860608301856139e8565b8181036080830152613f7a8184613d3f565b979650505050505050565b60608082528101613f9681866139f7565b90508181036020830152613faa8185613b1f565b90506136866040830184613b75565b604081016124c88284613a4e565b606081016124c88284613a90565b602081016124c88284613b6c565b602081016124c88284613b75565b602081016124c88284613bb3565b60208082528101612b168184613b7e565b602080825281016124c881613c39565b602080825281016124c881613c8f565b602080825281016124c881613cbf565b60408101613dc68285613b75565b60a0810161405c8285613b75565b612b166020830184613cef565b60408101613f028285613b75565b60a081016140858288613b75565b6140926020830187613b75565b61409f6040830186613b75565b6140ac60608301856139e8565b613ead6080830184613b75565b60405181810167ffffffffffffffff811182821017156140d857600080fd5b604052919050565b600067ffffffffffffffff8211156140f757600080fd5b5060209081020190565b600067ffffffffffffffff82111561411857600080fd5b5060200290565b600067ffffffffffffffff82111561413657600080fd5b506020601f91909101601f19160190565b60200190565b60009081526020902090565b5190565b50600290565b50600390565b73ffffffffffffffffffffffffffffffffffffffff1690565b151590565b6fffffffffffffffffffffffffffffffff1690565b60006124c882614169565b82818337506000910152565b60005b838110156141ce5781810151838201526020016141b6565b83811115613d395750506000910152565b601f01601f1916905600a265627a7a72305820649fef524a8bcc7aea71b2877132467b06c6cca84fd7d98818ff2938beb476f76c6578706572696d656e74616cf50037",
  "source": " pragma solidity ^0.4.18;\n pragma experimental ABIEncoderV2;\n\nimport \"../libraries/strings/strings.sol\";\nimport \"../libraries/math/SafeMath.sol\";\nimport \"../libraries/LibConstruction.sol\";\nimport \"../interfaces/IMatryxPlatform.sol\";\nimport \"../interfaces/IMatryxTournament.sol\";\nimport \"../interfaces/factories/IMatryxRoundFactory.sol\";\nimport \"../interfaces/IMatryxRound.sol\";\nimport \"../interfaces/IMatryxToken.sol\";\nimport \"./Ownable.sol\";\n\n/// @title Tournament - The Matryx tournament.\n/// @author Max Howard - <max@nanome.ai>, Sam Hessenauer - <sam@nanome.ai>\ncontract MatryxTournament is Ownable, IMatryxTournament {\n    using SafeMath for uint256;\n    using strings for *;\n    \n    // TODO: condense and put in structs\n    // Platform identification\n    address public platformAddress;\n    address public matryxTokenAddress;\n    address public matryxRoundFactoryAddress;\n\n    //Tournament identification\n    bytes32[3] public title;\n    bytes32[2] public descriptionHash;\n    bytes32[2] public fileHash;\n    bytes32 public categoryHash;\n    address public owner;\n    string public category;\n    // Timing and State\n    uint256 public timeCreated;\n    uint256 public tournamentOpenedTime;\n    address[] public rounds;\n    mapping(address=>bool) public isRound;\n    bool public closed;\n    // Reward and fee\n    uint256 public bounty;\n    uint256 public entryFee;\n    bool hasBeenWithdrawnFrom;\n    mapping(address=>bool) hasWithdrawn;\n\n    // address roundDelegate;\n    // bytes4 fnSelector_chooseWinner = bytes4(keccak256(\"chooseWinner(address)\"));\n    // bytes4 fnSelector_createRound = bytes4(keccak256(\"createRound(uint256)\"));\n    // bytes4 fnSelector_startRound = bytes4(keccak256(\"startRound(uint256)\"));\n\n    // Submission tracking\n    uint256 numberOfSubmissions = 0;\n    mapping(address=>address[]) private entrantToSubmissions;\n    mapping(address=>mapping(address=>uint256_optional)) private entrantToSubmissionToSubmissionIndex;\n    mapping(address=>uint256_optional) private addressToIsEntrant;\n    address[] private allEntrants;\n    bool winnersChosen;\n\n    constructor(string _category, LibConstruction.TournamentData tournamentData, LibConstruction.RoundData roundData, address _platformAddress, address _matryxTokenAddress, address _matryxRoundFactoryAddress, address _owner) \n    {\n        //Clean inputs\n        //require(_owner != 0x0);\n        //require(tournamentData.title[0] != 0x0);\n        //require(tournamentData.Bounty > 0);\n        //require(_matryxRoundFactoryAddress != 0x0);\n        \n        platformAddress = _platformAddress;\n        matryxTokenAddress = _matryxTokenAddress;\n        matryxRoundFactoryAddress = _matryxRoundFactoryAddress;\n\n        timeCreated = now;\n        // Identification\n        owner = _owner;\n        category = _category;\n        title[0] = tournamentData.title_1;\n        title[1] = tournamentData.title_2;\n        title[2] = tournamentData.title_3;\n        descriptionHash[0] = tournamentData.descriptionHash_1;\n        descriptionHash[1] = tournamentData.descriptionHash_2;\n        fileHash[0] = tournamentData.fileHash_1;\n        fileHash[1] = tournamentData.fileHash_2;\n        // Reward and fee\n        bounty = tournamentData.bounty;\n        entryFee = tournamentData.entryFee;\n\n        createRound(roundData, false);\n        // roundDelegate = IMatryxPlatform(platformAddress).getRoundLibAddress();\n    }\n\n    /*\n     * Structs\n     */\n\n    struct uint256_optional\n    {\n        bool exists;\n        uint256 value;\n    }\n\n    struct SubmissionLocation\n    {\n        uint256 roundIndex;\n        uint256 submissionIndex;\n    }\n\n    /*\n     * Events\n     */\n\n    event NewRound(uint256 _startTime, uint256 _endTime, uint256 _reviewPeriodDuration, address _roundAddress, uint256 _roundNumber);\n    //event RoundStarted(uint256 _roundIndex);\n    // Fired at the end of every round, one time per submission created in that round\n    event SubmissionCreated(uint256 _roundIndex, address _submissionAddress);\n    event RoundWinnersChosen(address[] _submissionAddresses);\n\n    /// @dev Allows rounds to invoke SubmissionCreated events on this tournament.\n    /// @param _submissionAddress Address of the submission.\n    function invokeSubmissionCreatedEvent(address _submissionAddress) public onlyRound\n    {\n        emit SubmissionCreated(rounds.length-1, _submissionAddress);\n    }\n\n    /*\n     * Modifiers\n     */\n\n    /// @dev Requires the function caller to be the platform.\n    modifier onlyPlatform()\n    {\n        require(msg.sender == platformAddress);\n        _;\n    }\n\n    modifier onlyRound()\n    {\n        require(isRound[msg.sender]);\n        _;\n    }\n\n    // modifier onlySubmission(address _submissionAddress, address _author)\n    // {\n    //     // If the submission does not exist,\n    //     // the address of the submission we return will not be msg.sender\n    //     // It will either be \n    //     // 1) The first submission, or\n    //     // 2) all 0s from having deleted it previously.\n    //     uint256 indexOfSubmission = entrantToSubmissionToSubmissionIndex[_author][_submissionAddress].value;\n    //     address submissionAddress = entrantToSubmissions[_author][indexOfSubmission];\n    //     require(_submissionAddress == msg.sender);\n    //     _;\n    // }\n\n    modifier onlyPeerLinked(address _sender)\n    {\n        IMatryxPlatform platform = IMatryxPlatform(platformAddress);\n        require(platform.hasPeer(_sender));\n        _;\n    }\n\n    /// @dev Requires the function caller to be an entrant.\n    modifier onlyEntrant()\n    {\n        bool senderIsEntrant = addressToIsEntrant[msg.sender].exists;\n        require(senderIsEntrant);\n        _;\n    }\n\n    /// @dev Requires the function caller to be the platform or the owner of this tournament\n    modifier platformOrOwner()\n    {\n        require((msg.sender == platformAddress)||(msg.sender == owner));\n        _;\n    }\n\n    modifier whileTournamentOpen()\n    {\n        require(getState() == uint256(TournamentState.Open));\n        _;\n    }\n\n    modifier ifRoundHasFunds()\n    {\n        // require((IMatryxRound(currentRound()[1]).getState()) != uint256(RoundState.Unfunded));\n        address currentRoundAddress;\n\n        (,currentRoundAddress) = currentRound();\n        require(IMatryxRound(currentRoundAddress).getState() != uint256(RoundState.Unfunded));\n        _;\n    }\n\n    modifier onlyOwner()\n    {\n        require(msg.sender == owner);\n        _;\n    }\n\n    // /// @dev Requires the tournament to be open.\n    // modifier duringReviewPeriod()\n    // {\n    //     // TODO: Finish me!\n    //     require(isInReview());\n    //     _;\n    // }\n\n    // TODO: Use MatryxToken\n    // modifier whileBountyLeft(uint256 _nextRoundBounty)\n    // {\n    //     require(BountyLeft.sub(_nextRoundBounty) >= 0);\n    //     _;\n    // }\n\n    /*\n    * State Maintenance Methods\n    */\n\n    function removeSubmission(address _submissionAddress, address _author) public onlyPlatform returns (bool)\n    {\n        require(entrantToSubmissionToSubmissionIndex[_author][_submissionAddress].exists);\n        numberOfSubmissions = numberOfSubmissions.sub(1);\n        delete entrantToSubmissions[_author][entrantToSubmissionToSubmissionIndex[_author][_submissionAddress].value];\n        delete entrantToSubmissionToSubmissionIndex[_author][_submissionAddress];\n        return true;\n    }\n\n    /*\n     * Access Control Methods\n     */\n\n    /// @dev Returns whether or not the sender is an entrant in this tournament\n    /// @param _sender Explicit sender address.\n    /// @return Whether or not the sender is an entrant in this tournament.\n    function isEntrant(address _sender) public view returns (bool)\n    {\n        return addressToIsEntrant[_sender].exists;\n    }\n\n    enum RoundState { NotYetOpen, Unfunded, Open, InReview, HasWinners, Closed, Abandoned }\n    enum TournamentState { NotYetOpen, OnHold, Open, Closed, Abandoned}\n    /// @dev Returns the state of the tournament. One of:\n    /// NotYetOpen, Open, Closed, Abandoned\n    function getState() public view returns (uint256)\n    {\n        uint256 numberOfRounds;\n        address roundAddress;\n        (numberOfRounds, roundAddress) = currentRound();\n\n        if(closed)\n        {\n            return uint256(TournamentState.Closed);\n        }\n        else if(numberOfRounds > 0)\n        {\n            uint256 roundState = IMatryxRound(roundAddress).getState();\n            if(numberOfRounds != 1)\n            {\n                if(roundState == uint256(RoundState.Unfunded) || roundState == uint256(RoundState.Open) || roundState == uint256(RoundState.InReview)\n                    || roundState == uint256(RoundState.HasWinners))\n                {\n                    return uint256(TournamentState.Open);\n                }\n                else if(roundState == uint256(RoundState.NotYetOpen))\n                {\n                    return uint256(TournamentState.OnHold);\n                }\n                else if(roundState == uint256(RoundState.Closed))\n                {\n                    return uint256(TournamentState.Closed);\n                }\n                else\n                {\n                    return uint256(TournamentState.Abandoned);\n                }\n            }\n            else if(roundState == uint256(RoundState.NotYetOpen))\n            {\n                return uint256(TournamentState.NotYetOpen);\n            }\n            else if(roundState == uint256(RoundState.Unfunded) || roundState == uint256(RoundState.Open) || roundState == uint256(RoundState.InReview)\n                    || roundState == uint256(RoundState.HasWinners))\n            {\n                return uint256(TournamentState.Open);\n            }\n            else if(roundState == uint256(RoundState.Closed))\n            {\n                return uint256(TournamentState.Closed);\n            }\n            else\n            {\n                return uint256(TournamentState.Abandoned);\n            }\n        }\n        \n        return 0;\n    }\n\n    /*\n     * Getter Methods\n     */\n\n    function getPlatform() public view returns (address _platformAddress)\n    {\n        return platformAddress;\n    }\n\n    function getTitle() public view returns (bytes32[3] _title)\n    {\n        return title;\n    }\n\n    function getCategory() public view returns (string _category)\n    {\n        return IMatryxPlatform(platformAddress).hashForCategory(categoryHash);\n    }\n\n    function getOwner() public view returns (address _owner)\n    {\n        return owner;\n    }\n\n    /// @dev Returns the external address of the tournament.\n    /// @return _descriptionHash Off-chain content hash of tournament details (ipfs hash)\n    function getDescriptionHash() public view returns (bytes32[2] _descriptionHash)\n    {\n        return descriptionHash;\n    }\n\n    /// @dev Returns the current round number.\n    /// @return _currentRound Number of the current round.\n    function currentRound() public view returns (uint256 _currentRound, address _currentRoundAddress)\n    {\n        if(rounds.length > 1 && \n           IMatryxRound(rounds[rounds.length-2]).getState() == uint256(RoundState.HasWinners) &&\n           IMatryxRound(rounds[rounds.length-1]).getState() == uint256(RoundState.NotYetOpen))\n        {\n            return (rounds.length-1, rounds[rounds.length-2]);\n        }\n        else\n        {\n            return (rounds.length, rounds[rounds.length-1]);\n        }\n    }\n\n    ///@dev Returns the round that was created implicitly for the user after they chose the \"DoNothing\" option\n    ///     when choosing their round winners.\n    ///@return _ghostAddress Address of the upcoming round created during winner selection\n    function getGhostRound() internal returns (uint256 _index, address _ghostAddress)\n    {\n        if(IMatryxRound(rounds[rounds.length-2]).getState() == uint256(RoundState.HasWinners) &&\n           IMatryxRound(rounds[rounds.length-1]).getState() == uint256(RoundState.NotYetOpen))\n        {\n            return (rounds.length-1, rounds[rounds.length-1]);\n        }\n\n        return (0, address(0x0));\n    }\n\n    /// @dev Returns all of the sender's submissions to this tournament.\n    /// @return (_roundIndices[], _submissionIndices[]) Locations of the sender's submissions.\n    function mySubmissions() public view returns (address[])\n    {\n        address[] memory _mySubmissions = entrantToSubmissions[msg.sender];\n        return _mySubmissions;\n    }\n\n    /// @dev Returns the number of submissions made to this tournament.\n    /// @return _submissionCount Number of submissions made to this tournament.\n    function submissionCount() public view returns (uint256 _submissionCount)\n    {\n        return numberOfSubmissions;\n    }\n\n    function entrantCount() public view returns (uint256 _entrantCount)\n    {\n        return allEntrants.length;\n    }\n\n    /*\n     * Setter Methods\n     */\n\n    function update(string _category, LibConstruction.TournamentModificationData tournamentData)\n    {\n        // TODO: Update the category on the platform\n        if(category.toSlice().empty() == false)\n        {\n            IMatryxPlatform(platformAddress).switchTournamentCategory(address(this), category, _category);\n            category = _category;\n        }\n        if(tournamentData.title_1 != 0x0)\n        {\n            title[0] = tournamentData.title_1;\n            title[1] = tournamentData.title_2;\n            title[2] = tournamentData.title_3;\n        }\n        if(tournamentData.descriptionHash_1 != 0x0)\n        {\n            descriptionHash[0] = tournamentData.descriptionHash_1;\n            descriptionHash[1] = tournamentData.descriptionHash_2;\n        }\n        if(tournamentData.fileHash_1 != 0x0)\n        {\n            fileHash[0] = tournamentData.fileHash_1;\n            fileHash[1] = tournamentData.fileHash_2;\n        }\n        if(tournamentData.entryFeeChanged)\n        {\n            entryFee = tournamentData.entryFee;\n        }\n    }\n\n    function updateTitle(bytes32[3] _title) public onlyOwner\n    {\n        title = _title;\n    }\n\n    function updateDescriptionHash(bytes32[2] _descriptionHash) public onlyOwner\n    {\n        descriptionHash = _descriptionHash;\n    }\n\n    function updateEntryFee(uint256 _entryFee) public onlyOwner\n    {\n        entryFee = _entryFee;\n    }\n\n    function updateCategory(string _category) public onlyOwner\n    {\n        require(_category.toSlice().empty() == false);\n        IMatryxPlatform(platformAddress).switchTournamentCategory(address(this), category, _category);\n        category = _category;\n    }\n\n    /*\n     * Tournament Admin Methods\n     */\n\n    enum SelectWinnerAction { DoNothing, StartNextRound, CloseTournament }\n    /// @dev Chooses the winner(s) of the current round. If this is the last round, \n    //       this method will also close the tournament.\n    /// @param _submissionAddresses The winning submission addresses\n    /// @param _rewardDistribution Distribution indicating how to split the reward among the submissions\n    function selectWinners(address[] _submissionAddresses, uint256[] _rewardDistribution, uint256 _selectWinnerAction) public onlyOwner\n    {\n        // Round must be in to close\n        address currentRoundAddress;\n        (, currentRoundAddress) = currentRound();\n        uint256 roundState = uint256(IMatryxRound(currentRoundAddress).getState());\n        require(roundState == uint256(RoundState.InReview) || roundState == uint256(RoundState.HasWinners), \"Round is not in review and winners have not been chosen.\");\n\n        // Event to notify web3 of the winning submission address\n        emit RoundWinnersChosen(_submissionAddresses);\n        IMatryxRound(currentRoundAddress).selectWinningSubmissions(_submissionAddresses, _rewardDistribution, _selectWinnerAction);\n        if(_selectWinnerAction == uint256(SelectWinnerAction.CloseTournament))\n        {\n            closeTournament();\n        }\n    }\n\n    function editNextRound(LibConstruction.RoundData _roundData) public onlyOwner\n    {\n        (uint256 nextRoundIndex, address nextRound) = getGhostRound();\n        if(nextRound != 0x0)\n        {\n            IMatryxRound(nextRound).editRound(IMatryxRound(rounds[nextRoundIndex-1]).getEndTime(), _roundData);\n        }\n    }\n\n    /// @dev This function should be called after the user selects winners for their tournament and chooses the \"DoNothing\" option\n    function jumpToNextRound() public onlyOwner\n    {\n        (uint256 currentRoundIndex, address currentRoundAddress) = currentRound();\n        IMatryxRound(currentRoundAddress).closeRound();\n        IMatryxRound(rounds[currentRoundIndex+1]).startNow();\n    }\n\n    /// @dev This function closes the tournament after the tournament owner selects their winners with the \"DoNothing\" option\n    function stopTournament() public onlyOwner\n    {\n        (,address currentRoundAddress) = currentRound();\n        IMatryxRound(currentRoundAddress).closeRound();\n        closeTournament();\n    }\n\n    // @dev Chooses the winner of the tournament.\n    function closeTournament() private\n    {\n        address currentRoundAddress;\n        (, currentRoundAddress) = currentRound();\n        uint256 roundState = uint256(IMatryxRound(currentRoundAddress).getState());\n        //Transfer the remaining MTX in the tournament to the current round\n        require(IMatryxToken(matryxTokenAddress).transfer(currentRoundAddress, remainingBounty()));\n        IMatryxPlatform(platformAddress).invokeTournamentClosedEvent(rounds.length, IMatryxRound(currentRoundAddress).getBounty());\n        \n        closed = true;\n    }\n\n    /// @dev Creates a new round.\n    /// @return The new round's address.\n    function createRound(LibConstruction.RoundData roundData, bool _automaticCreation) public returns (address _roundAddress)\n    {\n        // only this, the tournamentFactory or rounds can call createRound\n        require(msg.sender == address(this) || msg.sender == IMatryxPlatform(platformAddress).getTournamentFactoryAddress() || isRound[msg.sender]);\n        require((roundData.start >= now && roundData.start < roundData.end), \"Time parameters are invalid.\");\n\n        IMatryxRoundFactory roundFactory = IMatryxRoundFactory(matryxRoundFactoryAddress);\n        address newRoundAddress;\n\n        if(_automaticCreation == false)\n        {\n            require(roundData.bounty > 0);\n        }\n\n        newRoundAddress = roundFactory.createRound(platformAddress, this, msg.sender, rounds.length, roundData);\n        \n        // Transfer the round bounty to the round.\n        if(rounds.length != 0 && roundData.bounty != 0)\n        {\n            IMatryxToken(matryxTokenAddress).transfer(newRoundAddress, roundData.bounty);\n        }\n \n        rounds.push(newRoundAddress);\n        isRound[newRoundAddress] = true;\n\n        // Triggers Event displaying start time, end, address, and round number\n        emit NewRound(roundData.start, roundData.end, roundData.reviewPeriodDuration, newRoundAddress, rounds.length);\n\n        return newRoundAddress;\n    }\n\n    function sendBountyToRound(uint256 _roundIndex, uint256 _bountyMTX) public onlyPlatform\n    {\n        IMatryxToken(matryxTokenAddress).transfer(rounds[_roundIndex], _bountyMTX);\n    }\n\n    // @dev Returns the remaining bounty the tournament is able to award\n    function remainingBounty() public view returns (uint256)\n    {\n        return IMatryxToken(matryxTokenAddress).balanceOf(this);\n    }\n\n    /*\n     * Entrant Methods\n     */\n\n    /// @dev Enters the user into the tournament.\n    /// @param _entrantAddress Address of the user to enter.\n    /// @return success Whether or not the user was entered successfully.\n    function enterUserInTournament(address _entrantAddress) public onlyPlatform whileTournamentOpen returns (bool _success)\n    {\n        if(addressToIsEntrant[_entrantAddress].exists == true)\n        {\n            return false;\n        }\n\n        // Change the tournament's state to reflect the user entering.\n        addressToIsEntrant[_entrantAddress].exists = true;\n        addressToIsEntrant[_entrantAddress].value = entryFee;\n        allEntrants.push(_entrantAddress);\n\n        return true;\n    }\n\n    /// @dev Returns the fee in MTX to be payed by a prospective entrant.\n    /// @return Entry fee for this tournament.\n    function getEntryFee() public view returns (uint256)\n    {\n        return entryFee;\n    }\n\n    // function collectEntryFee() public returns (bool)\n    // {\n    //     IMatryxToken matryxToken = IMatryxToken(matryxTokenAddress);\n    //     bool success = matryxToken.transfer(msg.sender, addressToIsEntrant[msg.sender].value);\n    //     if(success)\n    //     {\n    //         addressToIsEntrant[msg.sender].value = 0;\n    //         return true;\n    //     }\n\n    //     return false;\n    // }\n\n    function createSubmission(address[] _contributors, uint128[] _contributorRewardDistribution, address[] _references, LibConstruction.SubmissionData submissionData) public onlyEntrant onlyPeerLinked(msg.sender) ifRoundHasFunds whileTournamentOpen returns (address _submissionAddress)\n    {\n        address peerAddress = IMatryxPlatform(platformAddress).peerAddress(submissionData.owner);\n\n        address currentRoundAddress;\n        (, currentRoundAddress) = currentRound();\n        address submissionAddress = IMatryxRound(currentRoundAddress).createSubmission(_contributors, _contributorRewardDistribution, _references, peerAddress, submissionData);\n        // Send out reference requests to the authors of other submissions\n        IMatryxPlatform(platformAddress).handleReferenceRequestsForSubmission(submissionAddress, _references);\n\n        if(numberOfSubmissions == 0)\n        {\n            IMatryxPlatform(platformAddress).invokeTournamentOpenedEvent(owner, title[0], title[1], title[2], descriptionHash[0], descriptionHash[1], bounty, entryFee);\n        }\n\n        numberOfSubmissions = numberOfSubmissions.add(1);\n        entrantToSubmissionToSubmissionIndex[msg.sender][submissionAddress] = uint256_optional({exists:true, value:entrantToSubmissions[msg.sender].length});\n        entrantToSubmissions[msg.sender].push(submissionAddress);\n        IMatryxPlatform(platformAddress).updateSubmissions(msg.sender, submissionAddress);\n        \n        return submissionAddress;\n    }\n\n\n    function withdraw() public onlyEntrant\n    {\n        require(getState() == uint256(TournamentState.Abandoned), \"This tournament is still valid.\");\n        require(!hasWithdrawn[msg.sender]);\n        address currentRoundAddress;\n        (, currentRoundAddress) = currentRound();\n        uint256 entrantCount = allEntrants.length;\n        // If this is the first withdrawal being made...\n        if(IMatryxToken(matryxTokenAddress).balanceOf(currentRoundAddress) > 0)\n        {\n            IMatryxRound(currentRoundAddress).transferBountyToTournament();\n            require(IMatryxToken(matryxTokenAddress).transfer(msg.sender, bounty.div(entrantCount).mul(2)));\n        }\n        else\n        {\n            require(IMatryxToken(matryxTokenAddress).transfer(msg.sender, bounty.mul(entrantCount-2).div(entrantCount).div(entrantCount-1)));\n        }\n\n        hasWithdrawn[msg.sender] = true;\n    }\n\n    function pullRemainingBountyIntoRound() public onlyRound\n    {\n        IMatryxToken(matryxTokenAddress).transfer(msg.sender, remainingBounty());\n    }\n}",
  "sourcePath": "/Users/maxhoward/Desktop/Ethereum/Development/Matryx/Projects/MatryxPlatform/contracts/MatryxTournament.sol",
  "compiler": {
    "name": "solc",
    "version": "0.4.24+commit.e67f0147.Emscripten.clang"
  },
  "schemaVersion": "2.0.0",
  "updatedAt": "2018-06-29T00:24:50.790Z"
}