{
  "contractName": "MatryxToken",
  "abi": [
    {
      "constant": false,
      "inputs": [
        {
          "name": "addr",
          "type": "address"
        },
        {
          "name": "state",
          "type": "bool"
        }
      ],
      "name": "setTransferAgent",
      "outputs": [],
      "payable": false,
      "stateMutability": "nonpayable",
      "type": "function"
    },
    {
      "constant": true,
      "inputs": [],
      "name": "mintingFinished",
      "outputs": [
        {
          "name": "",
          "type": "bool"
        }
      ],
      "payable": false,
      "stateMutability": "view",
      "type": "function"
    },
    {
      "constant": true,
      "inputs": [],
      "name": "name",
      "outputs": [
        {
          "name": "",
          "type": "string"
        }
      ],
      "payable": false,
      "stateMutability": "view",
      "type": "function"
    },
    {
      "constant": false,
      "inputs": [
        {
          "name": "_spender",
          "type": "address"
        },
        {
          "name": "_value",
          "type": "uint256"
        }
      ],
      "name": "approve",
      "outputs": [
        {
          "name": "",
          "type": "bool"
        }
      ],
      "payable": false,
      "stateMutability": "nonpayable",
      "type": "function"
    },
    {
      "constant": true,
      "inputs": [],
      "name": "totalSupply",
      "outputs": [
        {
          "name": "",
          "type": "uint256"
        }
      ],
      "payable": false,
      "stateMutability": "view",
      "type": "function"
    },
    {
      "constant": false,
      "inputs": [
        {
          "name": "_from",
          "type": "address"
        },
        {
          "name": "_to",
          "type": "address"
        },
        {
          "name": "_value",
          "type": "uint256"
        }
      ],
      "name": "transferFrom",
      "outputs": [
        {
          "name": "success",
          "type": "bool"
        }
      ],
      "payable": false,
      "stateMutability": "nonpayable",
      "type": "function"
    },
    {
      "constant": false,
      "inputs": [
        {
          "name": "addr",
          "type": "address"
        }
      ],
      "name": "setReleaseAgent",
      "outputs": [],
      "payable": false,
      "stateMutability": "nonpayable",
      "type": "function"
    },
    {
      "constant": true,
      "inputs": [],
      "name": "decimals",
      "outputs": [
        {
          "name": "",
          "type": "uint256"
        }
      ],
      "payable": false,
      "stateMutability": "view",
      "type": "function"
    },
    {
      "constant": false,
      "inputs": [
        {
          "name": "_to",
          "type": "address"
        },
        {
          "name": "_amount",
          "type": "uint256"
        }
      ],
      "name": "mint",
      "outputs": [
        {
          "name": "",
          "type": "bool"
        }
      ],
      "payable": false,
      "stateMutability": "nonpayable",
      "type": "function"
    },
    {
      "constant": false,
      "inputs": [
        {
          "name": "value",
          "type": "uint256"
        }
      ],
      "name": "upgrade",
      "outputs": [],
      "payable": false,
      "stateMutability": "nonpayable",
      "type": "function"
    },
    {
      "constant": true,
      "inputs": [],
      "name": "upgradeAgent",
      "outputs": [
        {
          "name": "",
          "type": "address"
        }
      ],
      "payable": false,
      "stateMutability": "view",
      "type": "function"
    },
    {
      "constant": false,
      "inputs": [],
      "name": "releaseTokenTransfer",
      "outputs": [],
      "payable": false,
      "stateMutability": "nonpayable",
      "type": "function"
    },
    {
      "constant": true,
      "inputs": [],
      "name": "upgradeMaster",
      "outputs": [
        {
          "name": "",
          "type": "address"
        }
      ],
      "payable": false,
      "stateMutability": "view",
      "type": "function"
    },
    {
      "constant": true,
      "inputs": [
        {
          "name": "_owner",
          "type": "address"
        }
      ],
      "name": "balanceOf",
      "outputs": [
        {
          "name": "balance",
          "type": "uint256"
        }
      ],
      "payable": false,
      "stateMutability": "view",
      "type": "function"
    },
    {
      "constant": false,
      "inputs": [],
      "name": "finishMinting",
      "outputs": [
        {
          "name": "",
          "type": "bool"
        }
      ],
      "payable": false,
      "stateMutability": "nonpayable",
      "type": "function"
    },
    {
      "constant": true,
      "inputs": [],
      "name": "getUpgradeState",
      "outputs": [
        {
          "name": "",
          "type": "uint8"
        }
      ],
      "payable": false,
      "stateMutability": "view",
      "type": "function"
    },
    {
      "constant": true,
      "inputs": [
        {
          "name": "",
          "type": "address"
        }
      ],
      "name": "transferAgents",
      "outputs": [
        {
          "name": "",
          "type": "bool"
        }
      ],
      "payable": false,
      "stateMutability": "view",
      "type": "function"
    },
    {
      "constant": true,
      "inputs": [],
      "name": "owner",
      "outputs": [
        {
          "name": "",
          "type": "address"
        }
      ],
      "payable": false,
      "stateMutability": "view",
      "type": "function"
    },
    {
      "constant": true,
      "inputs": [],
      "name": "symbol",
      "outputs": [
        {
          "name": "",
          "type": "string"
        }
      ],
      "payable": false,
      "stateMutability": "view",
      "type": "function"
    },
    {
      "constant": true,
      "inputs": [],
      "name": "released",
      "outputs": [
        {
          "name": "",
          "type": "bool"
        }
      ],
      "payable": false,
      "stateMutability": "view",
      "type": "function"
    },
    {
      "constant": false,
      "inputs": [
        {
          "name": "_to",
          "type": "address"
        },
        {
          "name": "_value",
          "type": "uint256"
        }
      ],
      "name": "transfer",
      "outputs": [
        {
          "name": "success",
          "type": "bool"
        }
      ],
      "payable": false,
      "stateMutability": "nonpayable",
      "type": "function"
    },
    {
      "constant": true,
      "inputs": [],
      "name": "totalUpgraded",
      "outputs": [
        {
          "name": "",
          "type": "uint256"
        }
      ],
      "payable": false,
      "stateMutability": "view",
      "type": "function"
    },
    {
      "constant": true,
      "inputs": [],
      "name": "releaseAgent",
      "outputs": [
        {
          "name": "",
          "type": "address"
        }
      ],
      "payable": false,
      "stateMutability": "view",
      "type": "function"
    },
    {
      "constant": false,
      "inputs": [
        {
          "name": "agent",
          "type": "address"
        }
      ],
      "name": "setUpgradeAgent",
      "outputs": [],
      "payable": false,
      "stateMutability": "nonpayable",
      "type": "function"
    },
    {
      "constant": true,
      "inputs": [
        {
          "name": "_owner",
          "type": "address"
        },
        {
          "name": "_spender",
          "type": "address"
        }
      ],
      "name": "allowance",
      "outputs": [
        {
          "name": "remaining",
          "type": "uint256"
        }
      ],
      "payable": false,
      "stateMutability": "view",
      "type": "function"
    },
    {
      "constant": false,
      "inputs": [
        {
          "name": "newOwner",
          "type": "address"
        }
      ],
      "name": "transferOwnership",
      "outputs": [],
      "payable": false,
      "stateMutability": "nonpayable",
      "type": "function"
    },
    {
      "constant": false,
      "inputs": [
        {
          "name": "master",
          "type": "address"
        }
      ],
      "name": "setUpgradeMaster",
      "outputs": [],
      "payable": false,
      "stateMutability": "nonpayable",
      "type": "function"
    },
    {
      "inputs": [],
      "payable": false,
      "stateMutability": "nonpayable",
      "type": "constructor"
    },
    {
      "anonymous": false,
      "inputs": [
        {
          "indexed": true,
          "name": "_from",
          "type": "address"
        },
        {
          "indexed": true,
          "name": "_to",
          "type": "address"
        },
        {
          "indexed": false,
          "name": "_value",
          "type": "uint256"
        }
      ],
      "name": "Upgrade",
      "type": "event"
    },
    {
      "anonymous": false,
      "inputs": [
        {
          "indexed": false,
          "name": "agent",
          "type": "address"
        }
      ],
      "name": "UpgradeAgentSet",
      "type": "event"
    },
    {
      "anonymous": false,
      "inputs": [
        {
          "indexed": true,
          "name": "to",
          "type": "address"
        },
        {
          "indexed": false,
          "name": "amount",
          "type": "uint256"
        }
      ],
      "name": "Mint",
      "type": "event"
    },
    {
      "anonymous": false,
      "inputs": [],
      "name": "MintFinished",
      "type": "event"
    },
    {
      "anonymous": false,
      "inputs": [
        {
          "indexed": true,
          "name": "from",
          "type": "address"
        },
        {
          "indexed": true,
          "name": "to",
          "type": "address"
        },
        {
          "indexed": false,
          "name": "value",
          "type": "uint256"
        }
      ],
      "name": "Transfer",
      "type": "event"
    },
    {
      "anonymous": false,
      "inputs": [
        {
          "indexed": true,
          "name": "owner",
          "type": "address"
        },
        {
          "indexed": true,
          "name": "spender",
          "type": "address"
        },
        {
          "indexed": false,
          "name": "value",
          "type": "uint256"
        }
      ],
      "name": "Approval",
      "type": "event"
    }
  ],
  "bytecode": "0x6004805460a060020a60ff02191690556006805460ff1916905560c0604052600b60808190527f4d6174727978546f6b656e00000000000000000000000000000000000000000060a09081526200005a9160099190620000ec565b506040805180820190915260038082527f4d545800000000000000000000000000000000000000000000000000000000006020909201918252620000a191600a91620000ec565b506012600b55348015620000b457600080fd5b506000805433600160a060020a031990911681179091556006805461010060a860020a03191661010090920291909117905562000191565b828054600181600116156101000203166002900490600052602060002090601f016020900481019282601f106200012f57805160ff19168380011785556200015f565b828001600101855582156200015f579182015b828111156200015f57825182559160200191906001019062000142565b506200016d92915062000171565b5090565b6200018e91905b808211156200016d576000815560010162000178565b90565b6114b280620001a16000396000f30060806040526004361061015e5763ffffffff7c010000000000000000000000000000000000000000000000000000000060003504166302f652a3811461016357806305d2035b1461019857806306fdde03146101c1578063095ea7b31461024b57806318160ddd1461027c57806323b872dd146102a357806329ff4f53146102da578063313ce5671461030857806340c10f191461031d57806345977d031461034e5780635de4ccb0146103665780635f412d4f146103a4578063600440cb146103b957806370a08231146103ce5780637d64bcb4146103fc5780638444b39114610411578063867c28571461044a5780638da5cb5b1461047857806395d89b411461048d57806396132521146104a2578063a9059cbb146104b7578063c752ff62146104e8578063d1f276d3146104fd578063d7e7088a14610512578063dd62ed3e14610540578063f2fde38b14610574578063ffeb7d75146105a2575b600080fd5b34801561016f57600080fd5b5061019673ffffffffffffffffffffffffffffffffffffffff6004351660243515156105d0565b005b3480156101a457600080fd5b506101ad610676565b604080519115158252519081900360200190f35b3480156101cd57600080fd5b506101d661067f565b6040805160208082528351818301528351919283929083019185019080838360005b838110156102105781810151838201526020016101f8565b50505050905090810190601f16801561023d5780820380516001836020036101000a031916815260200191505b509250505060405180910390f35b34801561025757600080fd5b506101ad73ffffffffffffffffffffffffffffffffffffffff6004351660243561072b565b34801561028857600080fd5b506102916107e7565b60408051918252519081900360200190f35b3480156102af57600080fd5b506101ad73ffffffffffffffffffffffffffffffffffffffff600435811690602435166044356107ed565b3480156102e657600080fd5b5061019673ffffffffffffffffffffffffffffffffffffffff6004351661085f565b34801561031457600080fd5b506102916108f6565b34801561032957600080fd5b506101ad73ffffffffffffffffffffffffffffffffffffffff600435166024356108fc565b34801561035a57600080fd5b50610196600435610a33565b34801561037257600080fd5b5061037b610bbe565b6040805173ffffffffffffffffffffffffffffffffffffffff9092168252519081900360200190f35b3480156103b057600080fd5b50610196610bda565b3480156103c557600080fd5b5061037b610c3f565b3480156103da57600080fd5b5061029173ffffffffffffffffffffffffffffffffffffffff60043516610c60565b34801561040857600080fd5b506101ad610c88565b34801561041d57600080fd5b50610426610d08565b6040518082600481111561043657fe5b60ff16815260200191505060405180910390f35b34801561045657600080fd5b506101ad73ffffffffffffffffffffffffffffffffffffffff60043516610d4b565b34801561048457600080fd5b5061037b610d60565b34801561049957600080fd5b506101d6610d7c565b3480156104ae57600080fd5b506101ad610df5565b3480156104c357600080fd5b506101ad73ffffffffffffffffffffffffffffffffffffffff60043516602435610e16565b3480156104f457600080fd5b50610291610e86565b34801561050957600080fd5b5061037b610e8c565b34801561051e57600080fd5b5061019673ffffffffffffffffffffffffffffffffffffffff60043516610ea8565b34801561054c57600080fd5b5061029173ffffffffffffffffffffffffffffffffffffffff600435811690602435166110f5565b34801561058057600080fd5b5061019673ffffffffffffffffffffffffffffffffffffffff6004351661112d565b3480156105ae57600080fd5b5061019673ffffffffffffffffffffffffffffffffffffffff600435166111ba565b60005473ffffffffffffffffffffffffffffffffffffffff1633146105f457600080fd5b60045460009074010000000000000000000000000000000000000000900460ff161561061f57600080fd5b5073ffffffffffffffffffffffffffffffffffffffff91909116600090815260056020526040902080547fffffffffffffffffffffffffffffffffffffffffffffffffffffffffffffff0016911515919091179055565b60065460ff1681565b6009805460408051602060026001851615610100027fffffffffffffffffffffffffffffffffffffffffffffffffffffffffffffffff0190941693909304601f810184900484028201840190925281815292918301828280156107235780601f106106f857610100808354040283529160200191610723565b820191906000526020600020905b81548152906001019060200180831161070657829003601f168201915b505050505081565b6000811580610768575033600090815260036020908152604080832073ffffffffffffffffffffffffffffffffffffffff87168452909152902054155b151561077357600080fd5b33600081815260036020908152604080832073ffffffffffffffffffffffffffffffffffffffff881680855290835292819020869055805186815290519293927f8c5be1e5ebec7d5bd14f71427d1e84f3dd0314c0f7b2291e5b200ac8c7c3b925929181900390910190a350600192915050565b60015481565b600454600090849074010000000000000000000000000000000000000000900460ff1680610840575073ffffffffffffffffffffffffffffffffffffffff811660009081526005602052604090205460ff165b151561084b57600080fd5b610856858585611251565b95945050505050565b60005473ffffffffffffffffffffffffffffffffffffffff16331461088357600080fd5b60045460009074010000000000000000000000000000000000000000900460ff16156108ae57600080fd5b50600480547fffffffffffffffffffffffff00000000000000000000000000000000000000001673ffffffffffffffffffffffffffffffffffffffff92909216919091179055565b600b5481565b6000805473ffffffffffffffffffffffffffffffffffffffff16331461092157600080fd5b60065460ff161561093157600080fd5b600154610944908363ffffffff61139416565b60015573ffffffffffffffffffffffffffffffffffffffff831660009081526002602052604090205461097d908363ffffffff61139416565b73ffffffffffffffffffffffffffffffffffffffff8416600081815260026020908152604091829020939093558051858152905191927f0f6798a560793a54c3bcfe86a93cde1e73087d944c0ea20544137d412139688592918290030190a260408051838152905173ffffffffffffffffffffffffffffffffffffffff8516916000917fddf252ad1be2c89b69c2b068fc378daa952ba7f163c4a11628f55a4df523b3ef9181900360200190a350600192915050565b6000610a3d610d08565b90506003816004811115610a4d57fe5b1480610a6457506004816004811115610a6257fe5b145b1515610a6f57600080fd5b811515610a7b57600080fd5b33600090815260026020526040902054610a9b908363ffffffff6113aa16565b33600090815260026020526040902055600154610abe908363ffffffff6113aa16565b600155600854610ad4908363ffffffff61139416565b600855600754604080517f753e88e500000000000000000000000000000000000000000000000000000000815233600482015260248101859052905173ffffffffffffffffffffffffffffffffffffffff9092169163753e88e59160448082019260009290919082900301818387803b158015610b5057600080fd5b505af1158015610b64573d6000803e3d6000fd5b505060075460408051868152905173ffffffffffffffffffffffffffffffffffffffff90921693503392507f7e5c344a8141a805725cb476f76c6953b842222b967edd1f78ddb6e8b3f397ac919081900360200190a35050565b60075473ffffffffffffffffffffffffffffffffffffffff1681565b60045473ffffffffffffffffffffffffffffffffffffffff163314610bfe57600080fd5b600480547fffffffffffffffffffffff00ffffffffffffffffffffffffffffffffffffffff1674010000000000000000000000000000000000000000179055565b600654610100900473ffffffffffffffffffffffffffffffffffffffff1681565b73ffffffffffffffffffffffffffffffffffffffff1660009081526002602052604090205490565b6000805473ffffffffffffffffffffffffffffffffffffffff163314610cad57600080fd5b600680547fffffffffffffffffffffffffffffffffffffffffffffffffffffffffffffff001660011790556040517fae5184fba832cb2b1f702aca6117b8d265eaf03ad33eb133f19dde0f5920fa0890600090a15060015b90565b60075460009073ffffffffffffffffffffffffffffffffffffffff161515610d3257506002610d05565b6008541515610d4357506003610d05565b506004610d05565b60056020526000908152604090205460ff1681565b60005473ffffffffffffffffffffffffffffffffffffffff1681565b600a805460408051602060026001851615610100027fffffffffffffffffffffffffffffffffffffffffffffffffffffffffffffffff0190941693909304601f810184900484028201840190925281815292918301828280156107235780601f106106f857610100808354040283529160200191610723565b60045474010000000000000000000000000000000000000000900460ff1681565b600454600090339074010000000000000000000000000000000000000000900460ff1680610e69575073ffffffffffffffffffffffffffffffffffffffff811660009081526005602052604090205460ff165b1515610e7457600080fd5b610e7e84846113bc565b949350505050565b60085481565b60045473ffffffffffffffffffffffffffffffffffffffff1681565b73ffffffffffffffffffffffffffffffffffffffff81161515610eca57600080fd5b600654610100900473ffffffffffffffffffffffffffffffffffffffff163314610ef357600080fd5b6004610efd610d08565b6004811115610f0857fe5b1415610f1357600080fd5b600780547fffffffffffffffffffffffff00000000000000000000000000000000000000001673ffffffffffffffffffffffffffffffffffffffff8381169190911791829055604080517f61d3d7a6000000000000000000000000000000000000000000000000000000008152905192909116916361d3d7a6916004808201926020929091908290030181600087803b158015610faf57600080fd5b505af1158015610fc3573d6000803e3d6000fd5b505050506040513d6020811015610fd957600080fd5b50511515610fe657600080fd5b600154600760009054906101000a900473ffffffffffffffffffffffffffffffffffffffff1673ffffffffffffffffffffffffffffffffffffffff16634b2ba0dd6040518163ffffffff167c0100000000000000000000000000000000000000000000000000000000028152600401602060405180830381600087803b15801561106f57600080fd5b505af1158015611083573d6000803e3d6000fd5b505050506040513d602081101561109957600080fd5b505114156110a657600080fd5b6007546040805173ffffffffffffffffffffffffffffffffffffffff9092168252517f7845d5aa74cc410e35571258d954f23b82276e160fe8c188fa80566580f279cc9181900360200190a150565b73ffffffffffffffffffffffffffffffffffffffff918216600090815260036020908152604080832093909416825291909152205490565b60005473ffffffffffffffffffffffffffffffffffffffff16331461115157600080fd5b73ffffffffffffffffffffffffffffffffffffffff8116151561117357600080fd5b600080547fffffffffffffffffffffffff00000000000000000000000000000000000000001673ffffffffffffffffffffffffffffffffffffffff92909216919091179055565b73ffffffffffffffffffffffffffffffffffffffff811615156111dc57600080fd5b600654610100900473ffffffffffffffffffffffffffffffffffffffff16331461120557600080fd5b6006805473ffffffffffffffffffffffffffffffffffffffff909216610100027fffffffffffffffffffffff0000000000000000000000000000000000000000ff909216919091179055565b73ffffffffffffffffffffffffffffffffffffffff8084166000908152600360209081526040808320338452825280832054938616835260029091528120549091906112a3908463ffffffff61139416565b73ffffffffffffffffffffffffffffffffffffffff80861660009081526002602052604080822093909355908716815220546112e5908463ffffffff6113aa16565b73ffffffffffffffffffffffffffffffffffffffff861660009081526002602052604090205561131b818463ffffffff6113aa16565b73ffffffffffffffffffffffffffffffffffffffff808716600081815260036020908152604080832033845282529182902094909455805187815290519288169391927fddf252ad1be2c89b69c2b068fc378daa952ba7f163c4a11628f55a4df523b3ef929181900390910190a3506001949350505050565b6000828201838110156113a357fe5b9392505050565b6000828211156113b657fe5b50900390565b336000908152600260205260408120546113dc908363ffffffff6113aa16565b336000908152600260205260408082209290925573ffffffffffffffffffffffffffffffffffffffff85168152205461141b908363ffffffff61139416565b73ffffffffffffffffffffffffffffffffffffffff84166000818152600260209081526040918290209390935580518581529051919233927fddf252ad1be2c89b69c2b068fc378daa952ba7f163c4a11628f55a4df523b3ef9281900390910190a3506001929150505600a165627a7a72305820fc5030f691f608659730a08ef3779beac8fbbf6abb68f5df7692321eb4b4f7d60029",
  "source": "pragma solidity ^0.4.13;\n\nimport \"./MintableToken.sol\";\nimport \"./UpgradeableToken.sol\";\n\n/**\n * Matryx Ethereum token.\n */\ncontract MatryxToken is MintableToken, UpgradeableToken{\n\n  string public name = \"MatryxToken\";\n  string public symbol = \"MTX\";\n  uint public decimals = 18;\n\n  // supply upgrade owner as the contract creation account\n  function MatryxToken() public UpgradeableToken(msg.sender) {\n\n  }\n}",
  "sourcePath": "/Users/ajm13/Desktop/matryx/MatryxPlatform/contracts/MatryxToken/MatryxToken.sol",
  "compiler": {
    "name": "solc",
    "version": "0.4.24+commit.e67f0147.Emscripten.clang"
  },
  "schemaVersion": "2.0.1",
  "updatedAt": "2018-09-12T23:49:25.893Z"
}