{
  "contractName": "MatryxPlatform",
  "abi": [
    {
      "constant": true,
      "inputs": [
        {
          "name": "",
          "type": "uint256"
        }
      ],
      "name": "tournamentList",
      "outputs": [
        {
          "name": "",
          "type": "uint256"
        }
      ],
      "payable": false,
      "stateMutability": "view",
      "type": "function"
    },
    {
      "constant": false,
      "inputs": [
        {
          "name": "_queryID",
          "type": "uint256"
        },
        {
          "name": "_response",
          "type": "bytes32"
        }
      ],
      "name": "storeQueryResponse",
      "outputs": [
        {
          "name": "success",
          "type": "bool"
        }
      ],
      "payable": false,
      "stateMutability": "nonpayable",
      "type": "function"
    },
    {
      "constant": true,
      "inputs": [
        {
          "name": "tournamentId",
          "type": "uint256"
        }
      ],
      "name": "submissionCount",
      "outputs": [
        {
          "name": "",
          "type": "uint256"
        }
      ],
      "payable": false,
      "stateMutability": "view",
      "type": "function"
    },
    {
      "constant": true,
      "inputs": [
        {
          "name": "idx",
          "type": "uint256"
        }
      ],
      "name": "tournamentByIndex",
      "outputs": [
        {
          "name": "",
          "type": "uint256"
        },
        {
          "name": "",
          "type": "string"
        },
        {
          "name": "",
          "type": "string"
        },
        {
          "name": "",
          "type": "uint256"
        }
      ],
      "payable": false,
      "stateMutability": "view",
      "type": "function"
    },
    {
      "constant": true,
      "inputs": [
        {
          "name": "tournamentId",
          "type": "uint256"
        }
      ],
      "name": "tournamentByAddress",
      "outputs": [
        {
          "name": "",
          "type": "uint256"
        },
        {
          "name": "",
          "type": "string"
        },
        {
          "name": "",
          "type": "string"
        },
        {
          "name": "",
          "type": "uint256"
        }
      ],
      "payable": false,
      "stateMutability": "view",
      "type": "function"
    },
    {
      "constant": true,
      "inputs": [],
      "name": "tournamentCount",
      "outputs": [
        {
          "name": "",
          "type": "uint256"
        }
      ],
      "payable": false,
      "stateMutability": "view",
      "type": "function"
    },
    {
      "constant": true,
      "inputs": [
        {
          "name": "",
          "type": "uint256"
        }
      ],
      "name": "tournaments",
      "outputs": [
        {
          "name": "id",
          "type": "uint256"
        },
        {
          "name": "title",
          "type": "string"
        },
        {
          "name": "description",
          "type": "string"
        },
        {
          "name": "bounty",
          "type": "uint256"
        },
        {
          "name": "exists",
          "type": "bool"
        }
      ],
      "payable": false,
      "stateMutability": "view",
      "type": "function"
    },
    {
      "constant": false,
      "inputs": [
        {
          "name": "tournamentId",
          "type": "uint256"
        },
        {
          "name": "title",
          "type": "string"
        },
        {
          "name": "body",
          "type": "string"
        },
        {
          "name": "references",
          "type": "string"
        },
        {
          "name": "contributors",
          "type": "string"
        }
      ],
      "name": "createSubmission",
      "outputs": [],
      "payable": false,
      "stateMutability": "nonpayable",
      "type": "function"
    },
    {
      "constant": true,
      "inputs": [],
      "name": "getOwner",
      "outputs": [
        {
          "name": "_deployer",
          "type": "address"
        }
      ],
      "payable": false,
      "stateMutability": "view",
      "type": "function"
    },
    {
      "constant": true,
      "inputs": [
        {
          "name": "tournamentId",
          "type": "uint256"
        },
        {
          "name": "idx",
          "type": "uint256"
        }
      ],
      "name": "submissionByIndex",
      "outputs": [
        {
          "name": "",
          "type": "uint256"
        },
        {
          "name": "",
          "type": "string"
        },
        {
          "name": "",
          "type": "string"
        },
        {
          "name": "",
          "type": "string"
        },
        {
          "name": "",
          "type": "string"
        },
        {
          "name": "",
          "type": "address"
        }
      ],
      "payable": false,
      "stateMutability": "view",
      "type": "function"
    },
    {
      "constant": false,
      "inputs": [
        {
          "name": "_query",
          "type": "bytes32"
        }
      ],
      "name": "Query",
      "outputs": [],
      "payable": false,
      "stateMutability": "nonpayable",
      "type": "function"
    },
    {
      "constant": true,
      "inputs": [
        {
          "name": "tournamentId",
          "type": "uint256"
        },
        {
          "name": "submissionId",
          "type": "uint256"
        }
      ],
      "name": "submissionByAddress",
      "outputs": [
        {
          "name": "",
          "type": "uint256"
        },
        {
          "name": "",
          "type": "string"
        },
        {
          "name": "",
          "type": "string"
        },
        {
          "name": "",
          "type": "string"
        },
        {
          "name": "",
          "type": "string"
        },
        {
          "name": "",
          "type": "address"
        }
      ],
      "payable": false,
      "stateMutability": "view",
      "type": "function"
    },
    {
      "constant": false,
      "inputs": [
        {
          "name": "toIgnore",
          "type": "uint256"
        }
      ],
      "name": "prepareBalance",
      "outputs": [],
      "payable": false,
      "stateMutability": "nonpayable",
      "type": "function"
    },
    {
      "constant": false,
      "inputs": [
        {
          "name": "title",
          "type": "string"
        },
        {
          "name": "description",
          "type": "string"
        },
        {
          "name": "bounty",
          "type": "uint256"
        }
      ],
      "name": "createTournament",
      "outputs": [],
      "payable": false,
      "stateMutability": "nonpayable",
      "type": "function"
    },
    {
      "inputs": [],
      "payable": false,
      "stateMutability": "nonpayable",
      "type": "constructor"
    },
    {
      "anonymous": false,
      "inputs": [
        {
          "indexed": false,
          "name": "id",
          "type": "uint256"
        },
        {
          "indexed": false,
          "name": "sender",
          "type": "address"
        }
      ],
      "name": "QueryPerformed",
      "type": "event"
    }
  ],
  "bytecode": "0x6060604052341561000f57600080fd5b336000806101000a81548173ffffffffffffffffffffffffffffffffffffffff021916908373ffffffffffffffffffffffffffffffffffffffff16021790555033600660006101000a81548173ffffffffffffffffffffffffffffffffffffffff021916908373ffffffffffffffffffffffffffffffffffffffff1602179055506128718061009f6000396000f3006060604052600436106100d0576000357c0100000000000000000000000000000000000000000000000000000000900463ffffffff168063053730ea146100d557806308c4fc5f1461010c5780632312cbf6146101545780635b67b6ba1461018b57806363f11a40146102a15780636e2b2c7c146103b75780637503e1b7146103e057806382f40bbf1461053b578063893d20e81461066a5780638e727611146106bf578063a99fe225146108e2578063c3c3d9ac14610909578063edee41d914610b2c578063f504cf0c14610b4f575b600080fd5b34156100e057600080fd5b6100f66004808035906020019091905050610bf8565b6040518082815260200191505060405180910390f35b341561011757600080fd5b61013a600480803590602001909190803560001916906020019091905050610c1c565b604051808215151515815260200191505060405180910390f35b341561015f57600080fd5b6101756004808035906020019091905050610cdf565b6040518082815260200191505060405180910390f35b341561019657600080fd5b6101ac6004808035906020019091905050610ef3565b604051808581526020018060200180602001848152602001838103835286818151815260200191508051906020019080838360005b838110156101fc5780820151818401526020810190506101e1565b50505050905090810190601f1680156102295780820380516001836020036101000a031916815260200191505b50838103825285818151815260200191508051906020019080838360005b83811015610262578082015181840152602081019050610247565b50505050905090810190601f16801561028f5780820380516001836020036101000a031916815260200191505b50965050505050505060405180910390f35b34156102ac57600080fd5b6102c26004808035906020019091905050611164565b604051808581526020018060200180602001848152602001838103835286818151815260200191508051906020019080838360005b838110156103125780820151818401526020810190506102f7565b50505050905090810190601f16801561033f5780820380516001836020036101000a031916815260200191505b50838103825285818151815260200191508051906020019080838360005b8381101561037857808201518184015260208101905061035d565b50505050905090810190601f1680156103a55780820380516001836020036101000a031916815260200191505b50965050505050505060405180910390f35b34156103c257600080fd5b6103ca6113a6565b6040518082815260200191505060405180910390f35b34156103eb57600080fd5b61040160048080359060200190919050506113b3565b604051808681526020018060200180602001858152602001841515151581526020018381038352878181546001816001161561010002031660029004815260200191508054600181600116156101000203166002900480156104a45780601f10610479576101008083540402835291602001916104a4565b820191906000526020600020905b81548152906001019060200180831161048757829003601f168201915b50508381038252868181546001816001161561010002031660029004815260200191508054600181600116156101000203166002900480156105275780601f106104fc57610100808354040283529160200191610527565b820191906000526020600020905b81548152906001019060200180831161050a57829003601f168201915b505097505050505050505060405180910390f35b341561054657600080fd5b610668600480803590602001909190803590602001908201803590602001908080601f0160208091040260200160405190810160405280939291908181526020018383808284378201915050505050509190803590602001908201803590602001908080601f0160208091040260200160405190810160405280939291908181526020018383808284378201915050505050509190803590602001908201803590602001908080601f0160208091040260200160405190810160405280939291908181526020018383808284378201915050505050509190803590602001908201803590602001908080601f016020809104026020016040519081016040528093929190818152602001838380828437820191505050505050919050506113f4565b005b341561067557600080fd5b61067d611600565b604051808273ffffffffffffffffffffffffffffffffffffffff1673ffffffffffffffffffffffffffffffffffffffff16815260200191505060405180910390f35b34156106ca57600080fd5b6106e96004808035906020019091908035906020019091905050611629565b60405180878152602001806020018060200180602001806020018673ffffffffffffffffffffffffffffffffffffffff1673ffffffffffffffffffffffffffffffffffffffff16815260200185810385528a818151815260200191508051906020019080838360005b8381101561076d578082015181840152602081019050610752565b50505050905090810190601f16801561079a5780820380516001836020036101000a031916815260200191505b50858103845289818151815260200191508051906020019080838360005b838110156107d35780820151818401526020810190506107b8565b50505050905090810190601f1680156108005780820380516001836020036101000a031916815260200191505b50858103835288818151815260200191508051906020019080838360005b8381101561083957808201518184015260208101905061081e565b50505050905090810190601f1680156108665780820380516001836020036101000a031916815260200191505b50858103825287818151815260200191508051906020019080838360005b8381101561089f578082015181840152602081019050610884565b50505050905090810190601f1680156108cc5780820380516001836020036101000a031916815260200191505b509a505050505050505050505060405180910390f35b34156108ed57600080fd5b610907600480803560001916906020019091905050611a3d565b005b341561091457600080fd5b6109336004808035906020019091908035906020019091905050611d4b565b60405180878152602001806020018060200180602001806020018673ffffffffffffffffffffffffffffffffffffffff1673ffffffffffffffffffffffffffffffffffffffff16815260200185810385528a818151815260200191508051906020019080838360005b838110156109b757808201518184015260208101905061099c565b50505050905090810190601f1680156109e45780820380516001836020036101000a031916815260200191505b50858103845289818151815260200191508051906020019080838360005b83811015610a1d578082015181840152602081019050610a02565b50505050905090810190601f168015610a4a5780820380516001836020036101000a031916815260200191505b50858103835288818151815260200191508051906020019080838360005b83811015610a83578082015181840152602081019050610a68565b50505050905090810190601f168015610ab05780820380516001836020036101000a031916815260200191505b50858103825287818151815260200191508051906020019080838360005b83811015610ae9578082015181840152602081019050610ace565b50505050905090810190601f168015610b165780820380516001836020036101000a031916815260200191505b509a505050505050505050505060405180910390f35b3415610b3757600080fd5b610b4d600480803590602001909190505061212d565b005b3415610b5a57600080fd5b610bf6600480803590602001908201803590602001908080601f0160208091040260200160405190810160405280939291908181526020018383808284378201915050505050509190803590602001908201803590602001908080601f016020809104026020016040519081016040528093929190818152602001838380828437820191505050505050919080359060200190919050506121bd565b005b600581815481101515610c0757fe5b90600052602060002090016000915090505481565b60008060009054906101000a900473ffffffffffffffffffffffffffffffffffffffff1673ffffffffffffffffffffffffffffffffffffffff163373ffffffffffffffffffffffffffffffffffffffff16141515610c7957600080fd5b60006001028260001916118015610caa57506000600102600360008581526020019081526020016000205460001916145b15610cd4578160036000858152602001908152602001600020816000191690555060019050610cd9565b600090505b92915050565b6000610ce961233b565b6004600084815260200190815260200160002060c0604051908101604052908160008201548152602001600182018054600181600116156101000203166002900480601f016020809104026020016040519081016040528092919081815260200182805460018160011615610100020316600290048015610dab5780601f10610d8057610100808354040283529160200191610dab565b820191906000526020600020905b815481529060010190602001808311610d8e57829003601f168201915b50505050508152602001600282018054600181600116156101000203166002900480601f016020809104026020016040519081016040528092919081815260200182805460018160011615610100020316600290048015610e4d5780601f10610e2257610100808354040283529160200191610e4d565b820191906000526020600020905b815481529060010190602001808311610e3057829003601f168201915b505050505081526020016003820154815260200160058201805480602002602001604051908101604052809291908181526020018280548015610eaf57602002820191906000526020600020905b815481526020019060010190808311610e9b575b505050505081526020016006820160009054906101000a900460ff16151515158152505090508060a001511515610ee557600080fd5b806080015151915050919050565b6000610efd612386565b610f05612386565b6000610f0f61233b565b85610f186113a6565b111515610f2457600080fd5b60046000600588815481101515610f3757fe5b906000526020600020900154815260200190815260200160002060c0604051908101604052908160008201548152602001600182018054600181600116156101000203166002900480601f0160208091040260200160405190810160405280929190818152602001828054600181600116156101000203166002900480156110005780601f10610fd557610100808354040283529160200191611000565b820191906000526020600020905b815481529060010190602001808311610fe357829003601f168201915b50505050508152602001600282018054600181600116156101000203166002900480601f0160208091040260200160405190810160405280929190818152602001828054600181600116156101000203166002900480156110a25780601f10611077576101008083540402835291602001916110a2565b820191906000526020600020905b81548152906001019060200180831161108557829003601f168201915b50505050508152602001600382015481526020016005820180548060200260200160405190810160405280929190818152602001828054801561110457602002820191906000526020600020905b8154815260200190600101908083116110f0575b505050505081526020016006820160009054906101000a900460ff16151515158152505090508060a00151151561113a57600080fd5b80600001518160200151826040015183606001518292508191509450945094509450509193509193565b600061116e612386565b611176612386565b600061118061233b565b6004600087815260200190815260200160002060c0604051908101604052908160008201548152602001600182018054600181600116156101000203166002900480601f0160208091040260200160405190810160405280929190818152602001828054600181600116156101000203166002900480156112425780601f1061121757610100808354040283529160200191611242565b820191906000526020600020905b81548152906001019060200180831161122557829003601f168201915b50505050508152602001600282018054600181600116156101000203166002900480601f0160208091040260200160405190810160405280929190818152602001828054600181600116156101000203166002900480156112e45780601f106112b9576101008083540402835291602001916112e4565b820191906000526020600020905b8154815290600101906020018083116112c757829003601f168201915b50505050508152602001600382015481526020016005820180548060200260200160405190810160405280929190818152602001828054801561134657602002820191906000526020600020905b815481526020019060010190808311611332575b505050505081526020016006820160009054906101000a900460ff16151515158152505090508060a00151151561137c57600080fd5b80600001518160200151826040015183606001518292508191509450945094509450509193509193565b6000600580549050905090565b6004602052806000526040600020600091509050806000015490806001019080600201908060030154908060060160009054906101000a900460ff16905085565b60006113fe61239a565b6004600088815260200190815260200160002091508160060160009054906101000a900460ff16151561143057600080fd5b86816000018181525050602a61144588610cdf565b01816020018181525050858160400181905250848160600181905250838160800181905250828160a00181905250338160c0019073ffffffffffffffffffffffffffffffffffffffff16908173ffffffffffffffffffffffffffffffffffffffff168152505060018160e0019015159081151581525050808260040160008360200151815260200190815260200160002060008201518160000155602082015181600101556040820151816002019080519060200190611506929190612410565b506060820151816003019080519060200190611523929190612410565b506080820151816004019080519060200190611540929190612410565b5060a082015181600501908051906020019061155d929190612410565b5060c08201518160060160006101000a81548173ffffffffffffffffffffffffffffffffffffffff021916908373ffffffffffffffffffffffffffffffffffffffff16021790555060e08201518160060160146101000a81548160ff0219169083151502179055509050508160050180548060010182816115de9190612490565b9160005260206000209001600083602001519091909150555050505050505050565b60008060009054906101000a900473ffffffffffffffffffffffffffffffffffffffff16905090565b6000611633612386565b61163b612386565b611643612386565b61164b612386565b60008061165661239a565b886116608b610cdf565b11151561166c57600080fd5b600460008b815260200190815260200160002091508160060160009054906101000a900460ff16151561169e57600080fd5b816004016000836005018b8154811015156116b557fe5b906000526020600020900154815260200190815260200160002061010060405190810160405290816000820154815260200160018201548152602001600282018054600181600116156101000203166002900480601f0160208091040260200160405190810160405280929190818152602001828054600181600116156101000203166002900480156117895780601f1061175e57610100808354040283529160200191611789565b820191906000526020600020905b81548152906001019060200180831161176c57829003601f168201915b50505050508152602001600382018054600181600116156101000203166002900480601f01602080910402602001604051908101604052809291908181526020018280546001816001161561010002031660029004801561182b5780601f106118005761010080835404028352916020019161182b565b820191906000526020600020905b81548152906001019060200180831161180e57829003601f168201915b50505050508152602001600482018054600181600116156101000203166002900480601f0160208091040260200160405190810160405280929190818152602001828054600181600116156101000203166002900480156118cd5780601f106118a2576101008083540402835291602001916118cd565b820191906000526020600020905b8154815290600101906020018083116118b057829003601f168201915b50505050508152602001600582018054600181600116156101000203166002900480601f01602080910402602001604051908101604052809291908181526020018280546001816001161561010002031660029004801561196f5780601f106119445761010080835404028352916020019161196f565b820191906000526020600020905b81548152906001019060200180831161195257829003601f168201915b505050505081526020016006820160009054906101000a900473ffffffffffffffffffffffffffffffffffffffff1673ffffffffffffffffffffffffffffffffffffffff1673ffffffffffffffffffffffffffffffffffffffff1681526020016006820160149054906101000a900460ff16151515158152505090508060e0015115156119fb57600080fd5b80602001518160400151826060015183608001518460a001518560c0015184945083935082925081915097509750975097509750975050509295509295509295565b6000806000600160003373ffffffffffffffffffffffffffffffffffffffff1673ffffffffffffffffffffffffffffffffffffffff16815260200190815260200160002060009054906101000a900473ffffffffffffffffffffffffffffffffffffffff1673ffffffffffffffffffffffffffffffffffffffff161115611b2557600160003373ffffffffffffffffffffffffffffffffffffffff1673ffffffffffffffffffffffffffffffffffffffff16815260200190815260200160002060009054906101000a900473ffffffffffffffffffffffffffffffffffffffff169150611bfb565b33611b2e6124bc565b808273ffffffffffffffffffffffffffffffffffffffff1673ffffffffffffffffffffffffffffffffffffffff168152602001915050604051809103906000f0801515611b7a57600080fd5b915081600160003373ffffffffffffffffffffffffffffffffffffffff1673ffffffffffffffffffffffffffffffffffffffff16815260200190815260200160002060006101000a81548173ffffffffffffffffffffffffffffffffffffffff021916908373ffffffffffffffffffffffffffffffffffffffff1602179055505b8173ffffffffffffffffffffffffffffffffffffffff1663a3b61a9c846000604051602001526040518263ffffffff167c0100000000000000000000000000000000000000000000000000000000028152600401808260001916600019168152602001915050602060405180830381600087803b1515611c7a57600080fd5b6102c65a03f11515611c8b57600080fd5b50505060405180519050905080600260003373ffffffffffffffffffffffffffffffffffffffff1673ffffffffffffffffffffffffffffffffffffffff168152602001908152602001600020819055507f1c16af450a72e7153ed6faee28677e32f11936f8ab2e63322d032d1f753b5aea8133604051808381526020018273ffffffffffffffffffffffffffffffffffffffff1673ffffffffffffffffffffffffffffffffffffffff1681526020019250505060405180910390a1505050565b6000611d55612386565b611d5d612386565b611d65612386565b611d6d612386565b600080611d7861239a565b600460008b815260200190815260200160002091508160060160009054906101000a900460ff161515611daa57600080fd5b8160040160008a815260200190815260200160002061010060405190810160405290816000820154815260200160018201548152602001600282018054600181600116156101000203166002900480601f016020809104026020016040519081016040528092919081815260200182805460018160011615610100020316600290048015611e795780601f10611e4e57610100808354040283529160200191611e79565b820191906000526020600020905b815481529060010190602001808311611e5c57829003601f168201915b50505050508152602001600382018054600181600116156101000203166002900480601f016020809104026020016040519081016040528092919081815260200182805460018160011615610100020316600290048015611f1b5780601f10611ef057610100808354040283529160200191611f1b565b820191906000526020600020905b815481529060010190602001808311611efe57829003601f168201915b50505050508152602001600482018054600181600116156101000203166002900480601f016020809104026020016040519081016040528092919081815260200182805460018160011615610100020316600290048015611fbd5780601f10611f9257610100808354040283529160200191611fbd565b820191906000526020600020905b815481529060010190602001808311611fa057829003601f168201915b50505050508152602001600582018054600181600116156101000203166002900480601f01602080910402602001604051908101604052809291908181526020018280546001816001161561010002031660029004801561205f5780601f106120345761010080835404028352916020019161205f565b820191906000526020600020905b81548152906001019060200180831161204257829003601f168201915b505050505081526020016006820160009054906101000a900473ffffffffffffffffffffffffffffffffffffffff1673ffffffffffffffffffffffffffffffffffffffff1673ffffffffffffffffffffffffffffffffffffffff1681526020016006820160149054906101000a900460ff16151515158152505090508060e0015115156120eb57600080fd5b80602001518160400151826060015183608001518460a001518560c0015184945083935082925081915097509750975097509750975050509295509295509295565b3073ffffffffffffffffffffffffffffffffffffffff1663a99fe225826001026040518263ffffffff167c0100000000000000000000000000000000000000000000000000000000028152600401808260001916600019168152602001915050600060405180830381600087803b15156121a657600080fd5b6102c65a03f115156121b757600080fd5b50505050565b6121c561233b565b600660009054906101000a900473ffffffffffffffffffffffffffffffffffffffff1673ffffffffffffffffffffffffffffffffffffffff163373ffffffffffffffffffffffffffffffffffffffff1614151561222157600080fd5b602a61222b6113a6565b018160000181815250508381602001819052508281604001819052508181606001818152505060018160a00190151590811515815250508060046000836000015181526020019081526020016000206000820151816000015560208201518160010190805190602001906122a0929190612410565b5060408201518160020190805190602001906122bd929190612410565b506060820151816003015560808201518160050190805190602001906122e49291906124cc565b5060a08201518160060160006101000a81548160ff0219169083151502179055509050506005805480600101828161231c9190612490565b9160005260206000209001600083600001519091909150555050505050565b60c06040519081016040528060008152602001612356612519565b8152602001612363612519565b81526020016000815260200161237761252d565b81526020016000151581525090565b602060405190810160405280600081525090565b6101006040519081016040528060008152602001600081526020016123bd612519565b81526020016123ca612519565b81526020016123d7612519565b81526020016123e4612519565b8152602001600073ffffffffffffffffffffffffffffffffffffffff1681526020016000151581525090565b828054600181600116156101000203166002900490600052602060002090601f016020900481019282601f1061245157805160ff191683800117855561247f565b8280016001018555821561247f579182015b8281111561247e578251825591602001919060010190612463565b5b50905061248c9190612541565b5090565b8154818355818115116124b7578183600052602060002091820191016124b69190612541565b5b505050565b6040516102df8061256783390190565b828054828255906000526020600020908101928215612508579160200282015b828111156125075782518255916020019190600101906124ec565b5b5090506125159190612541565b5090565b602060405190810160405280600081525090565b602060405190810160405280600081525090565b61256391905b8082111561255f576000816000905550600101612547565b5090565b9056006060604052341561000f57600080fd5b6040516020806102df83398101604052808051906020019091905050336000806101000a81548173ffffffffffffffffffffffffffffffffffffffff021916908373ffffffffffffffffffffffffffffffffffffffff16021790555080600160006101000a81548173ffffffffffffffffffffffffffffffffffffffff021916908373ffffffffffffffffffffffffffffffffffffffff16021790555050610223806100bc6000396000f30060606040526004361061004c576000357c0100000000000000000000000000000000000000000000000000000000900463ffffffff16806341c0e1b514610051578063a3b61a9c14610066575b600080fd5b341561005c57600080fd5b6100646100a1565b005b341561007157600080fd5b61008b600480803560001916906020019091905050610115565b6040518082815260200191505060405180910390f35b6000809054906101000a900473ffffffffffffffffffffffffffffffffffffffff1673ffffffffffffffffffffffffffffffffffffffff163373ffffffffffffffffffffffffffffffffffffffff161415156100fc57600080fd5b3373ffffffffffffffffffffffffffffffffffffffff16ff5b60008060009054906101000a900473ffffffffffffffffffffffffffffffffffffffff1673ffffffffffffffffffffffffffffffffffffffff163373ffffffffffffffffffffffffffffffffffffffff1614151561017257600080fd5b434283336040518085815260200184815260200183600019166000191681526020018273ffffffffffffffffffffffffffffffffffffffff1673ffffffffffffffffffffffffffffffffffffffff166c0100000000000000000000000002815260140194505050505060405180910390206001900460028190555060025490509190505600a165627a7a72305820ce9dd1ab521d7acc5b8f2fba7de850eeb0b89efd8b1b91b5ef2d1a313f4ffd330029a165627a7a72305820f1dd4d3b8e56d1af64a54ccff82eba8f52b78d53bcfb7dfd7a0ba264d5b793500029",
  "source": "pragma solidity ^0.4.18;\r\n\r\nimport \"./MatryxOracleMessenger.sol\";\r\n\r\ncontract MatryxPlatform is MatryxOracleMessenger\r\n{\r\n\r\n    struct Submission\r\n    {\r\n        uint256 tournamentId;\r\n        uint256 id;\r\n\r\n        string title;\r\n        string body;\r\n        string references;\r\n        string contributors;\r\n        address author;\r\n\r\n        bool exists;\r\n    }\r\n\r\n    struct Tournament\r\n    {\r\n        uint256 id;\r\n\r\n        string title;\r\n        string description;\r\n        uint256 bounty;\r\n\r\n        mapping (uint256 => Submission) submissions;\r\n        uint256[] submissionList;\r\n\r\n        bool exists;\r\n    }\r\n\r\n    mapping (uint256 => Tournament) public tournaments;\r\n    uint256[] public tournamentList;\r\n\r\n    address owner;\r\n    modifier owneronly()\r\n    {\r\n        require(msg.sender == owner);\r\n        _;\r\n    }\r\n\r\n    function MatryxPlatform()\r\n    {\r\n        owner = msg.sender;\r\n    }\r\n\r\n    function prepareBalance(uint256 toIgnore) public\r\n    {\r\n        this.Query(bytes32(toIgnore));\r\n    }\r\n\r\n    function createTournament(string title, string description, uint256 bounty) owneronly public\r\n    {\r\n        Tournament memory newTournament;\r\n        newTournament.id = tournamentCount() + 42;\r\n        newTournament.title = title;\r\n        newTournament.description = description;\r\n        newTournament.bounty = bounty;\r\n        newTournament.exists = true;\r\n        tournaments[newTournament.id] = newTournament;\r\n        tournamentList.push(newTournament.id);\r\n    }\r\n\r\n    function createSubmission(uint256 tournamentId, string title, string body, string references, string contributors) public\r\n    {\r\n        // Require tournament exists\r\n        Tournament storage t = tournaments[tournamentId];\r\n        require(t.exists);\r\n\r\n        //bytes32 balanceMTX = latestResponseFromOracle();\r\n        //require(balanceMTX > 0x0);\r\n\r\n        Submission memory newSubmission;\r\n        newSubmission.tournamentId = tournamentId;\r\n        newSubmission.id = submissionCount(tournamentId) + 42;\r\n        newSubmission.title = title;\r\n        newSubmission.body = body;\r\n        newSubmission.references = references;\r\n        newSubmission.contributors = contributors;\r\n        newSubmission.author = msg.sender;\r\n        newSubmission.exists = true;\r\n        t.submissions[newSubmission.id] = newSubmission;\r\n        t.submissionList.push(newSubmission.id);\r\n    }\r\n\r\n    function tournamentByIndex(uint256 idx) public constant returns (uint256, string, string, uint256)\r\n    {\r\n        require(tournamentCount() > idx);\r\n        Tournament memory t = tournaments[tournamentList[idx]];\r\n        require(t.exists);\r\n        return (t.id, t.title, t.description, t.bounty);\r\n    }\r\n\r\n    function tournamentByAddress(uint256 tournamentId) public constant returns (uint256, string, string, uint256)\r\n    {\r\n        Tournament memory t = tournaments[tournamentId];\r\n        require(t.exists);\r\n        return (t.id, t.title, t.description, t.bounty);\r\n    }\r\n\r\n    function tournamentCount() public constant returns (uint256)\r\n    {\r\n        return tournamentList.length;\r\n    }\r\n\r\n    function submissionByIndex(uint256 tournamentId, uint256 idx) public constant returns (uint256, string, string, string, string, address)\r\n    {\r\n        require(submissionCount(tournamentId) > idx);\r\n        Tournament storage t = tournaments[tournamentId];\r\n        require(t.exists);\r\n        Submission memory s = t.submissions[t.submissionList[idx]];\r\n        require(s.exists);\r\n        return (s.id, s.title, s.body, s.references, s.contributors, s.author);\r\n    }\r\n\r\n    function submissionByAddress(uint256 tournamentId, uint256 submissionId) public constant returns (uint256, string, string, string, string, address)\r\n    {\r\n        Tournament storage t = tournaments[tournamentId];\r\n        require(t.exists);\r\n        Submission memory s = t.submissions[submissionId];\r\n        require(s.exists);\r\n        return (s.id, s.title, s.body, s.references, s.contributors, s.author);\r\n    }\r\n\r\n    function submissionCount(uint256 tournamentId) public constant returns (uint256)\r\n    {\r\n        Tournament memory t = tournaments[tournamentId];\r\n        require(t.exists);\r\n        return t.submissionList.length;\r\n    }\r\n\r\n}\r\n",
  "sourcePath": "C:\\Users\\Pointcare\\Workspace\\matryx-alpha-source\\contracts\\MatryxPlatform.sol",
  "compiler": {
    "name": "solc",
    "version": "0.4.18+commit.9cf6e910.Emscripten.clang"
  },
  "schemaVersion": "1.0.1",
  "updatedAt": "2017-11-15T19:35:28.049Z"
}