{
  "contractName": "MatryxRoundFactory",
  "abi": [
    {
      "constant": true,
      "inputs": [],
      "name": "matryxTokenAddress",
      "outputs": [
        {
          "name": "",
          "type": "address"
        }
      ],
      "payable": false,
      "stateMutability": "view",
      "type": "function"
    },
    {
      "constant": true,
      "inputs": [],
      "name": "matryxSubmissionFactoryAddress",
      "outputs": [
        {
          "name": "",
          "type": "address"
        }
      ],
      "payable": false,
      "stateMutability": "view",
      "type": "function"
    },
    {
      "inputs": [
        {
          "name": "_matryxTokenAddress",
          "type": "address"
        },
        {
          "name": "_matryxSubmissionFactoryAddress",
          "type": "address"
        }
      ],
      "payable": false,
      "stateMutability": "nonpayable",
      "type": "constructor"
    },
    {
      "constant": false,
      "inputs": [
        {
          "name": "_platformAddress",
          "type": "address"
        },
        {
          "name": "_tournamentAddress",
          "type": "address"
        },
        {
          "name": "_owner",
          "type": "address"
        },
        {
          "name": "_roundIndex",
          "type": "uint256"
        },
        {
          "components": [
            {
              "name": "start",
              "type": "uint256"
            },
            {
              "name": "end",
              "type": "uint256"
            },
            {
              "name": "reviewPeriodDuration",
              "type": "uint256"
            },
            {
              "name": "bounty",
              "type": "uint256"
            }
          ],
          "name": "roundData",
          "type": "tuple"
        }
      ],
      "name": "createRound",
      "outputs": [
        {
          "name": "_roundAddress",
          "type": "address"
        }
      ],
      "payable": false,
      "stateMutability": "nonpayable",
      "type": "function"
    }
  ],
  "bytecode": "0x608060405234801561001057600080fd5b50604051604080613030833981018060405261002f9190810190610073565b60018054600160a060020a03938416600160a060020a031991821617909155600080549290931691161790556100b9565b600061006c82516100ad565b9392505050565b6000806040838503121561008657600080fd5b60006100928585610060565b92505060206100a385828601610060565b9150509250929050565b600160a060020a031690565b612f68806100c86000396000f3006080604052600436106100565763ffffffff7c010000000000000000000000000000000000000000000000000000000060003504166329cc545e811461005b578063af1237af14610086578063b0ff5492146100a6575b600080fd5b34801561006757600080fd5b506100706100bb565b60405161007d91906102db565b60405180910390f35b34801561009257600080fd5b506100706100a13660046101fd565b6100d7565b3480156100b257600080fd5b50610070610143565b60015473ffffffffffffffffffffffffffffffffffffffff1681565b6001546000805490918291889173ffffffffffffffffffffffffffffffffffffffff9081169189911688888861010b61015f565b61011b97969594939291906102ef565b604051809103906000f080158015610137573d6000803e3d6000fd5b50979650505050505050565b60005473ffffffffffffffffffffffffffffffffffffffff1681565b604051612b938061039c83390190565b600061017b823561037f565b9392505050565b60006080828403121561019457600080fd5b61019e6080610358565b905060006101ac84846101f1565b82525060206101bd848483016101f1565b60208301525060406101d1848285016101f1565b60408301525060606101e5848285016101f1565b60608301525092915050565b600061017b8235610398565b6000806000806000610100868803121561021657600080fd5b6000610222888861016f565b95505060206102338882890161016f565b94505060406102448882890161016f565b9350506060610255888289016101f1565b925050608061026688828901610182565b9150509295509295909350565b61027c8161037f565b82525050565b8051608083019061029384826102d2565b5060208201516102a660208501826102d2565b5060408201516102b960408501826102d2565b5060608201516102cc60608501826102d2565b50505050565b61027c81610398565b602081016102e98284610273565b92915050565b61014081016102fe828a610273565b61030b6020830189610273565b6103186040830188610273565b6103256060830187610273565b6103326080830186610273565b61033f60a08301856102d2565b61034c60c0830184610282565b98975050505050505050565b60405181810167ffffffffffffffff8111828210171561037757600080fd5b604052919050565b73ffffffffffffffffffffffffffffffffffffffff1690565b90560060806040523480156200001157600080fd5b506040516101408062002b9383398101806040526200003491908101906200017a565b6000805460048054600160a060020a038a8116600160a060020a031992831617909255600180548c8416908316179055600280548a84169083161790558682169281163317811692909217909255600584905560038054928716929091169190911790556060810151600b55805160208201516040830151620000c2929190640100000000620000cf810204565b505050505050506200025d565b600892909255600955600a55565b6000620000eb82516200024e565b9392505050565b6000608082840312156200010557600080fd5b62000111608062000226565b905060006200012184846200016c565b825250602062000134848483016200016c565b60208301525060406200014a848285016200016c565b604083015250606062000160848285016200016c565b60608301525092915050565b6000620000eb82516200025a565b6000806000806000806000610140888a0312156200019757600080fd5b6000620001a58a8a620000dd565b9750506020620001b88a828b01620000dd565b9650506040620001cb8a828b01620000dd565b9550506060620001de8a828b01620000dd565b9450506080620001f18a828b01620000dd565b93505060a0620002048a828b016200016c565b92505060c0620002178a828b01620000f2565b91505092959891949750929550565b60405181810167ffffffffffffffff811182821017156200024657600080fd5b604052919050565b600160a060020a031690565b90565b612926806200026d6000396000f3006080604052600436106102195763ffffffff7c010000000000000000000000000000000000000000000000000000000060003504166303d66a97811461021e57806307417cf1146102495780630befb0a5146102605780630e3db9f21461028257806310fe9ae81461029757806311fb4804146102ac5780631865c57d146102d95780631cdb7de5146102ee578063241b15ad1461030e57806328dd84891461032357806329cc545e146103385780632f54bf6e1461034d5780632fc1f1901461036d578063315ce95314610382578063389994f9146103975780633d622780146103ac578063439f5ac2146103cc57806347e40553146103e157806354f6aa20146103f657806356974da314610418578063597e1fb514610438578063648036ae1461044d5780637d36f766146104625780637d758072146104825780637df2d748146104975780638499a138146104b75780638734fe4c146104d7578063893d20e8146104f75780638da5cb5b1461050c578063943dfef11461052157806396729d1e14610536578063b0ff549214610556578063b288e1a91461056b578063c828371e14610580578063dbe55e5614610595578063df4f9dba146105aa578063e278fe6f146105ca578063e76c293e146105df578063e9e8b44614610260578063ed098460146105f4578063f2fde38b14610609578063f49bff7b14610629578063f89474be1461063e578063f8b2cb4f1461065e575b600080fd5b34801561022a57600080fd5b5061023361067e565b60405161024091906126d2565b60405180910390f35b34801561025557600080fd5b5061025e61069a565b005b34801561026c57600080fd5b5061027561077a565b60405161024091906127a8565b34801561028e57600080fd5b5061025e61082a565b3480156102a357600080fd5b50610233610885565b3480156102b857600080fd5b506102cc6102c7366004612285565b6108a1565b6040516102409190612771565b3480156102e557600080fd5b50610275610985565b3480156102fa57600080fd5b5061025e6103093660046122c9565b610a4d565b34801561031a57600080fd5b50610275610a94565b34801561032f57600080fd5b50610275610a9e565b34801561034457600080fd5b50610233610aa4565b34801561035957600080fd5b506102cc610368366004612285565b610ac0565b34801561037957600080fd5b50610233610ae1565b34801561038e57600080fd5b50610275610afd565b3480156103a357600080fd5b506102cc610e49565b3480156103b857600080fd5b506102336103c7366004612471565b610e84565b3480156103d857600080fd5b50610275611034565b3480156103ed57600080fd5b5061023361103a565b34801561040257600080fd5b5061040b611056565b60405161024091906126fb565b34801561042457600080fd5b506102cc610433366004612471565b6110c5565b34801561044457600080fd5b506102cc611148565b34801561045957600080fd5b50610275611151565b34801561046e57600080fd5b5061027561047d366004612471565b611157565b34801561048e57600080fd5b50610275611176565b3480156104a357600080fd5b506102336104b2366004612471565b61117c565b3480156104c357600080fd5b506102cc6104d2366004612285565b6111b1565b3480156104e357600080fd5b506102336104f2366004612303565b6111db565b34801561050357600080fd5b506102336115a3565b34801561051857600080fd5b506102336115bf565b34801561052d57600080fd5b506102756115db565b34801561054257600080fd5b5061025e6105513660046123d7565b6115e1565b34801561056257600080fd5b50610233611a95565b34801561057757600080fd5b50610233611ab1565b34801561058c57600080fd5b50610275611acd565b3480156105a157600080fd5b50610233611ad3565b3480156105b657600080fd5b506102336105c5366004612471565b611aef565b3480156105d657600080fd5b5061025e611b36565b3480156105eb57600080fd5b50610233611b7d565b34801561060057600080fd5b5061040b611b99565b34801561061557600080fd5b5061025e610624366004612285565b611c06565b34801561063557600080fd5b50610275611c88565b34801561064a57600080fd5b5061025e6106593660046124ad565b611c8e565b34801561066a57600080fd5b50610275610679366004612285565b611d1c565b60025473ffffffffffffffffffffffffffffffffffffffff1681565b60025473ffffffffffffffffffffffffffffffffffffffff1633146106be57600080fd5b60045460025473ffffffffffffffffffffffffffffffffffffffff9182169163a9059cbb91166106ec61077a565b6040518363ffffffff167c01000000000000000000000000000000000000000000000000000000000281526004016107259291906126e0565b602060405180830381600087803b15801561073f57600080fd5b505af1158015610753573d6000803e3d6000fd5b505050506040513d601f19601f820116820180604052506107779190810190612453565b50565b600480546040517f70a0823100000000000000000000000000000000000000000000000000000000815260009273ffffffffffffffffffffffffffffffffffffffff909216916370a08231916107d29130910161277f565b602060405180830381600087803b1580156107ec57600080fd5b505af1158015610800573d6000803e3d6000fd5b505050506040513d601f19601f82011682018060405250610824919081019061248f565b90505b90565b60025460009073ffffffffffffffffffffffffffffffffffffffff16331461085157600080fd5b6008546009546108669163ffffffff611dcc16565b42600881905590915061087f908263ffffffff611dde16565b60095550565b60045473ffffffffffffffffffffffffffffffffffffffff1690565b73ffffffffffffffffffffffffffffffffffffffff8116600090815260136020526040812054819060ff1615156108d757600080fd5b506040517fa52dd12f000000000000000000000000000000000000000000000000000000008152829073ffffffffffffffffffffffffffffffffffffffff82169063a52dd12f9061092c9033906004016126d2565b602060405180830381600087803b15801561094657600080fd5b505af115801561095a573d6000803e3d6000fd5b505050506040513d601f19601f8201168201806040525061097e9190810190612453565b9392505050565b600061098f61077a565b15156109af5760095442106109a85760065b9050610827565b60016109a1565b6008544210156109c05760006109a1565b60085442101580156109d3575060095442105b156109df5760026109a1565b6009544210158015610a045750600a54600954610a019163ffffffff611dde16565b42105b15610a345760105460ff1615610a1b5760056109a1565b600c5460001015610a2d5760046109a1565b60036109a1565b600c5460001015610a465760056109a1565b60066109a1565b3360009081526013602052604090205460ff161515610a6b57600080fd5b73ffffffffffffffffffffffffffffffffffffffff909116600090815260116020526040902055565b6016546014540390565b600a5481565b60045473ffffffffffffffffffffffffffffffffffffffff1681565b60005473ffffffffffffffffffffffffffffffffffffffff91821691161490565b60015473ffffffffffffffffffffffffffffffffffffffff1690565b336000908152601360205260408120548190819060ff161515610b1f57600080fd5b6005610b29610985565b14610b3357600080fd5b336000908152600f602052604090205460ff1615610b5057600080fd5b600260009054906101000a900473ffffffffffffffffffffffffffffffffffffffff1673ffffffffffffffffffffffffffffffffffffffff16631865c57d6040518163ffffffff167c0100000000000000000000000000000000000000000000000000000000028152600401602060405180830381600087803b158015610bd657600080fd5b505af1158015610bea573d6000803e3d6000fd5b505050506040513d601f19601f82011682018060405250610c0e919081019061248f565b6005148015610c2457506000610c2261077a565b115b15610cc857600260009054906101000a900473ffffffffffffffffffffffffffffffffffffffff1673ffffffffffffffffffffffffffffffffffffffff166326b3a1766040518163ffffffff167c0100000000000000000000000000000000000000000000000000000000028152600401600060405180830381600087803b158015610caf57600080fd5b505af1158015610cc3573d6000803e3d6000fd5b505050505b600091505b600c54821015610e4457600c805483908110610ce557fe5b60009182526020909120015473ffffffffffffffffffffffffffffffffffffffff16331415610e3957336000908152600f60205260409020805460ff19166001179055600b54600e54600d8054610d869392610d7a929091610d6e91670de0b6b3a76400009189908110610d5557fe5b9060005260206000200154611ded90919063ffffffff16565b9063ffffffff611e1116565b9063ffffffff611ded16565b600480546040517fa9059cbb00000000000000000000000000000000000000000000000000000000815292935073ffffffffffffffffffffffffffffffffffffffff169163a9059cbb91610dde9133918691016126e0565b602060405180830381600087803b158015610df857600080fd5b505af1158015610e0c573d6000803e3d6000fd5b505050506040513d601f19601f82011682018060405250610e309190810190612453565b50809250610e44565b600190910190610ccd565b505090565b6000600c6000815481101515610e5b57fe5b60009182526020909120015473ffffffffffffffffffffffffffffffffffffffff161515905090565b6000803383601481815481101515610e9857fe5b6000918252602090912001546040517fa52dd12f00000000000000000000000000000000000000000000000000000000815273ffffffffffffffffffffffffffffffffffffffff9091169063a52dd12f90610ef79085906004016126d2565b602060405180830381600087803b158015610f1157600080fd5b505af1158015610f25573d6000803e3d6000fd5b505050506040513d601f19601f82011682018060405250610f499190810190612453565b1515610f5457600080fd5b6014805486908110610f6257fe5b9060005260206000200160009054906101000a900473ffffffffffffffffffffffffffffffffffffffff1692508273ffffffffffffffffffffffffffffffffffffffff1663a5faa1256040518163ffffffff167c0100000000000000000000000000000000000000000000000000000000028152600401602060405180830381600087803b158015610ff357600080fd5b505af1158015611007573d6000803e3d6000fd5b505050506040513d601f19601f8201168201806040525061102b91908101906122ab565b95945050505050565b60095490565b60075473ffffffffffffffffffffffffffffffffffffffff1681565b606060148054806020026020016040519081016040528092919081815260200182805480156110bb57602002820191906000526020600020905b815473ffffffffffffffffffffffffffffffffffffffff168152600190910190602001808311611090575b5050505050905090565b601454600090819083106110d857600080fd5b60148054849081106110e657fe5b6000918252602090912001546040517fa52dd12f00000000000000000000000000000000000000000000000000000000815273ffffffffffffffffffffffffffffffffffffffff9091169150819063a52dd12f9061092c9033906004016126d2565b60105460ff1681565b60055481565b600d80548290811061116557fe5b600091825260209091200154905081565b600e5481565b600c80548290811061118a57fe5b60009182526020909120015473ffffffffffffffffffffffffffffffffffffffff16905081565b73ffffffffffffffffffffffffffffffffffffffff16600090815260116020526040902054151590565b60006111e5611e28565b600254600090819073ffffffffffffffffffffffffffffffffffffffff16331461120e57600080fd5b6002611218610985565b1461122257600080fd5b73ffffffffffffffffffffffffffffffffffffffff8616151561124457600080fd5b6040805160608101825260015473ffffffffffffffffffffffffffffffffffffffff908116825260025481166020830152308284015260035492517f867cda48000000000000000000000000000000000000000000000000000000008152919550919091169063867cda48906112c6908c908c908c9089908c9060040161270c565b602060405180830381600087803b1580156112e057600080fd5b505af11580156112f4573d6000803e3d6000fd5b505050506040513d601f19601f8201168201806040525061131891908101906122ab565b604080518082018252600180825260148054602080850191825273ffffffffffffffffffffffffffffffffffffffff87166000818152601383528781209651875460ff191690151517875592519585019590955582549384019092557fce6d7b5282bd9a3661ae061feed1dbda4e52ab073b1f9285be6e155d9c38d4ec909201805473ffffffffffffffffffffffffffffffffffffffff1916909317909255338152601290915220549092501515611439576020850151601580546001810182556000919091527f55f448fdea98c4d29eb340757ef0a66cd03dbb9538908a6a81d96026b71ec47501805473ffffffffffffffffffffffffffffffffffffffff191673ffffffffffffffffffffffffffffffffffffffff9092169190911790555b33600090815260126020908152604082208054600181018255908352912001805473ffffffffffffffffffffffffffffffffffffffff191673ffffffffffffffffffffffffffffffffffffffff8416179055600373ffffffffffffffffffffffffffffffffffffffff871660009081526011602052604081209190915590505b885181101561150e576002601160008b848151811015156114d657fe5b602090810290910181015173ffffffffffffffffffffffffffffffffffffffff168252810191909152604001600020556001016114b9565b6002546040517f4644c51b00000000000000000000000000000000000000000000000000000000815273ffffffffffffffffffffffffffffffffffffffff90911690634644c51b906115649085906004016126d2565b600060405180830381600087803b15801561157e57600080fd5b505af1158015611592573d6000803e3d6000fd5b50939b9a5050505050505050505050565b60005473ffffffffffffffffffffffffffffffffffffffff1690565b60005473ffffffffffffffffffffffffffffffffffffffff1681565b600b5481565b6000806000806115ef611e48565b60025473ffffffffffffffffffffffffffffffffffffffff16331461161357600080fd5b600954151561162157600080fd5b600361162b610985565b1461163557600080fd5b865188511461164357600080fd5b8751158015906116535750600c54155b151561165e57600080fd5b875161167190600c9060208b0190611e71565b50865161168590600d9060208a0190611ef0565b50600093505b600d548410156116ce576116c1600d858154811015156116a757fe5b906000526020600020015486611dde90919063ffffffff16565b945060019093019261168b565b600e859055601054610100900473ffffffffffffffffffffffffffffffffffffffff161515611a7457600480546002546040517f70a0823100000000000000000000000000000000000000000000000000000000815273ffffffffffffffffffffffffffffffffffffffff928316936370a082319361174f931691016126d2565b602060405180830381600087803b15801561176957600080fd5b505af115801561177d573d6000803e3d6000fd5b505050506040513d601f19601f820116820180604052506117a1919081019061248f565b9150600b548210156117b5578192506117bb565b600b5492505b851515611927576080604051908101604052806117e5600a54600954611dde90919063ffffffff16565b8152602001611825611804600854600954611dcc90919063ffffffff16565b600a546009546118199163ffffffff611dde16565b9063ffffffff611dde16565b8152600a546020820152604090810185905260025490517f3809eba200000000000000000000000000000000000000000000000000000000815291925073ffffffffffffffffffffffffffffffffffffffff1690633809eba29061189090849060019060040161278d565b602060405180830381600087803b1580156118aa57600080fd5b505af11580156118be573d6000803e3d6000fd5b505050506040513d601f19601f820116820180604052506118e291908101906122ab565b601060016101000a81548173ffffffffffffffffffffffffffffffffffffffff021916908373ffffffffffffffffffffffffffffffffffffffff160217905550611a74565b6001861415611a74576010805460ff1916600117905560408051608081019091524281526008546009546020830191611976916119699163ffffffff611dcc16565b429063ffffffff611dde16565b8152600a546020820152604090810185905260025490517f3809eba200000000000000000000000000000000000000000000000000000000815291925073ffffffffffffffffffffffffffffffffffffffff1690633809eba2906119e190849060009060040161278d565b602060405180830381600087803b1580156119fb57600080fd5b505af1158015611a0f573d6000803e3d6000fd5b505050506040513d601f19601f82011682018060405250611a3391908101906122ab565b601060016101000a81548173ffffffffffffffffffffffffffffffffffffffff021916908373ffffffffffffffffffffffffffffffffffffffff1602179055505b6002861415611a8b576010805460ff191660011790555b5050505050505050565b60035473ffffffffffffffffffffffffffffffffffffffff1681565b60065473ffffffffffffffffffffffffffffffffffffffff1681565b60085490565b60015473ffffffffffffffffffffffffffffffffffffffff1681565b6014546000908210611b0057600080fd5b6014805483908110611b0e57fe5b60009182526020909120015473ffffffffffffffffffffffffffffffffffffffff1692915050565b60025473ffffffffffffffffffffffffffffffffffffffff163314611b5a57600080fd5b6004611b64610985565b14611b6e57600080fd5b6010805460ff19166001179055565b60025473ffffffffffffffffffffffffffffffffffffffff1690565b6060600c8054806020026020016040519081016040528092919081815260200182805480156110bb5760200282019190600052602060002090815473ffffffffffffffffffffffffffffffffffffffff168152600190910190602001808311611090575050505050905090565b60005473ffffffffffffffffffffffffffffffffffffffff163314611c2a57600080fd5b73ffffffffffffffffffffffffffffffffffffffff81161515611c4c57600080fd5b6000805473ffffffffffffffffffffffffffffffffffffffff191673ffffffffffffffffffffffffffffffffffffffff92909216919091179055565b600b5490565b60025473ffffffffffffffffffffffffffffffffffffffff163314611cb257600080fd5b80518210611cbf57600080fd5b8051602082015111611cd057600080fd5b6040810151600010611ce157600080fd5b80516020820151600091611cfb919063ffffffff611dcc16565b11611d0557600080fd5b8051600855602081015160095560400151600a5550565b600480546040517f70a0823100000000000000000000000000000000000000000000000000000000815260009273ffffffffffffffffffffffffffffffffffffffff909216916370a0823191611d74918691016126d2565b602060405180830381600087803b158015611d8e57600080fd5b505af1158015611da2573d6000803e3d6000fd5b505050506040513d601f19601f82011682018060405250611dc6919081019061248f565b92915050565b600082821115611dd857fe5b50900390565b60008282018381101561097e57fe5b6000828202831580611e095750828482811515611e0657fe5b04145b151561097e57fe5b6000808284811515611e1f57fe5b04949350505050565b604080516060810182526000808252602082018190529181019190915290565b608060405190810160405280600081526020016000815260200160008152602001600081525090565b828054828255906000526020600020908101928215611ee0579160200282015b82811115611ee0578251825473ffffffffffffffffffffffffffffffffffffffff191673ffffffffffffffffffffffffffffffffffffffff909116178255602090920191600190910190611e91565b50611eec929150611f37565b5090565b828054828255906000526020600020908101928215611f2b579160200282015b82811115611f2b578251825591602001919060010190611f10565b50611eec929150611f68565b61082791905b80821115611eec57805473ffffffffffffffffffffffffffffffffffffffff19168155600101611f3d565b61082791905b80821115611eec5760008155600101611f6e565b600061097e823561284e565b600061097e825161284e565b6000601f82018313611fab57600080fd5b8135611fbe611fb9826127dd565b6127b6565b91508181835260208401935060208101905083856020840282011115611fe357600080fd5b60005b8381101561200f5781611ff98882611f82565b8452506020928301929190910190600101611fe6565b5050505092915050565b6000601f8201831361202a57600080fd5b8135612038611fb9826127dd565b9150818183526020840193506020810190508385602084028201111561205d57600080fd5b60005b8381101561200f57816120738882612261565b8452506020928301929190910190600101612060565b6000601f8201831361209a57600080fd5b81356120a8611fb9826127dd565b915081818352602084019350602081019050838560208402820111156120cd57600080fd5b60005b8381101561200f57816120e3888261226d565b84525060209283019291909101906001016120d0565b600061097e8235612867565b600061097e8251612867565b6000601f8201831361212257600080fd5b8135612130611fb9826127fe565b9150808252602083016020830185838301111561214c57600080fd5b61215783828461288c565b50505092915050565b60006080828403121561217257600080fd5b61217c60806127b6565b9050600061218a848461226d565b825250602061219b8484830161226d565b60208301525060406121af8482850161226d565b60408301525060606121c38482850161226d565b60608301525092915050565b6000608082840312156121e157600080fd5b6121eb60806127b6565b9050813567ffffffffffffffff81111561220457600080fd5b61221084828501612111565b825250602061222184848301611f82565b602083015250604082013567ffffffffffffffff81111561224157600080fd5b61224d84828501612111565b60408301525060606121c3848285016120f9565b600061097e823561286c565b600061097e8235610827565b600061097e8251610827565b60006020828403121561229757600080fd5b60006122a38484611f82565b949350505050565b6000602082840312156122bd57600080fd5b60006122a38484611f8e565b600080604083850312156122dc57600080fd5b60006122e88585611f82565b92505060206122f98582860161226d565b9150509250929050565b600080600080600060a0868803121561231b57600080fd5b853567ffffffffffffffff81111561233257600080fd5b61233e88828901611f9a565b955050602086013567ffffffffffffffff81111561235b57600080fd5b61236788828901612019565b945050604086013567ffffffffffffffff81111561238457600080fd5b61239088828901611f9a565b93505060606123a188828901611f82565b925050608086013567ffffffffffffffff8111156123be57600080fd5b6123ca888289016121cf565b9150509295509295909350565b6000806000606084860312156123ec57600080fd5b833567ffffffffffffffff81111561240357600080fd5b61240f86828701611f9a565b935050602084013567ffffffffffffffff81111561242c57600080fd5b61243886828701612089565b92505060406124498682870161226d565b9150509250925092565b60006020828403121561246557600080fd5b60006122a38484612105565b60006020828403121561248357600080fd5b60006122a3848461226d565b6000602082840312156124a157600080fd5b60006122a38484612279565b60008060a083850312156124c057600080fd5b60006124cc858561226d565b92505060206122f985828601612160565b6124e68161284e565b82525050565b60006124f78261284a565b80845260208401935061250983612844565b60005b828110156125395761251f8683516124dd565b61252882612844565b60209690960195915060010161250c565b5093949350505050565b600061254e8261284a565b80845260208401935061256083612844565b60005b82811015612539576125768683516126c0565b61257f82612844565b602096909601959150600101612563565b6124e681612867565b60006125a48261284a565b8084526125b8816020860160208601612898565b6125c1816128c4565b9093016020019392505050565b6124e681612881565b805160608301906125e884826124dd565b5060208201516125fb60208501826124dd565b50604082015161260e60408501826124dd565b50505050565b8051608083019061262584826126c9565b50602082015161263860208501826126c9565b50604082015161264b60408501826126c9565b50606082015161260e60608501826126c9565b80516080808452600091908401906126768282612599565b915050602083015161268b60208601826124dd565b50604083015184820360408601526126a38282612599565b91505060608301516126b86060860182612590565b509392505050565b6124e68161286c565b6124e681610827565b60208101611dc682846124dd565b604081016126ee82856124dd565b61097e60208301846126c9565b6020808252810161097e81846124ec565b60e0808252810161271d81886124ec565b905081810360208301526127318187612543565b9050818103604083015261274581866124ec565b905061275460608301856125d7565b81810360c0830152612766818461265e565b979650505050505050565b60208101611dc68284612590565b60208101611dc682846125ce565b60a0810161279b8285612614565b61097e6080830184612590565b60208101611dc682846126c9565b60405181810167ffffffffffffffff811182821017156127d557600080fd5b604052919050565b600067ffffffffffffffff8211156127f457600080fd5b5060209081020190565b600067ffffffffffffffff82111561281557600080fd5b506020601f919091017fffffffffffffffffffffffffffffffffffffffffffffffffffffffffffffffe0160190565b60200190565b5190565b73ffffffffffffffffffffffffffffffffffffffff1690565b151590565b6fffffffffffffffffffffffffffffffff1690565b6000611dc68261284e565b82818337506000910152565b60005b838110156128b357818101518382015260200161289b565b8381111561260e5750506000910152565b601f017fffffffffffffffffffffffffffffffffffffffffffffffffffffffffffffffe016905600a265627a7a7230582063f7fd69b9b83e71bfb82a9edac9d04880fb39ce7ae50c8874ec5ea83078ba486c6578706572696d656e74616cf50037a265627a7a72305820988f7359a4be5b784044d9d845e91feef5a85cc8cbeb4efdd3afa7ca6cb481176c6578706572696d656e74616cf50037",
  "source": "pragma solidity ^0.4.18;\npragma experimental ABIEncoderV2;\n\nimport '../MatryxRound.sol';\nimport \"../../libraries/LibConstruction.sol\";\n\ncontract MatryxRoundFactory {\n\taddress public matryxSubmissionFactoryAddress;\n\taddress public matryxTokenAddress;\n\n\tfunction MatryxRoundFactory(address _matryxTokenAddress, address _matryxSubmissionFactoryAddress) public {\n\t\tmatryxTokenAddress = _matryxTokenAddress;\n\t\tmatryxSubmissionFactoryAddress = _matryxSubmissionFactoryAddress;\n\t}\n\n\tfunction createRound(address _platformAddress, address _tournamentAddress, address _owner, uint256 _roundIndex, LibConstruction.RoundData roundData) public returns (address _roundAddress) {\n\t\tMatryxRound newRound = new MatryxRound(_platformAddress, matryxTokenAddress, _tournamentAddress, matryxSubmissionFactoryAddress, _owner, _roundIndex, roundData);\n\t\treturn newRound;\n\t}\n}",
  "sourcePath": "/Users/maxhoward/Desktop/Ethereum/Development/Matryx/Projects/MatryxPlatform/contracts/factories/MatryxRoundFactory.sol",
  "compiler": {
    "name": "solc",
    "version": "0.4.24+commit.e67f0147.Emscripten.clang"
  },
  "schemaVersion": "2.0.0",
  "updatedAt": "2018-06-29T00:24:50.718Z"
}