{
  "contractName": "MatryxRound",
  "abi": [
    {
      "constant": true,
      "inputs": [],
      "name": "tournamentAddress",
      "outputs": [
        {
          "name": "",
          "type": "address"
        }
      ],
      "payable": false,
      "stateMutability": "view",
      "type": "function"
    },
    {
      "constant": true,
      "inputs": [],
      "name": "matryxSubmissionFactoryAddress",
      "outputs": [
        {
          "name": "",
          "type": "address"
        }
      ],
      "payable": false,
      "stateMutability": "view",
      "type": "function"
    },
    {
      "constant": true,
      "inputs": [],
      "name": "platformAddress",
      "outputs": [
        {
          "name": "",
          "type": "address"
        }
      ],
      "payable": false,
      "stateMutability": "view",
      "type": "function"
    },
    {
      "inputs": [
        {
          "name": "_platformAddress",
          "type": "address"
        },
        {
          "name": "_tournamentAddress",
          "type": "address"
        },
        {
          "name": "_submissionFactoryAddress",
          "type": "address"
        },
        {
          "components": [
            {
              "name": "start",
              "type": "uint256"
            },
            {
              "name": "end",
              "type": "uint256"
            },
            {
              "name": "reviewPeriodDuration",
              "type": "uint256"
            },
            {
              "name": "bounty",
              "type": "uint256"
            },
            {
              "name": "closed",
              "type": "bool"
            }
          ],
          "name": "_roundData",
          "type": "tuple"
        }
      ],
      "payable": false,
      "stateMutability": "nonpayable",
      "type": "constructor"
    },
    {
      "constant": true,
      "inputs": [],
      "name": "getState",
      "outputs": [
        {
          "name": "",
          "type": "uint256"
        }
      ],
      "payable": false,
      "stateMutability": "view",
      "type": "function"
    },
    {
      "constant": true,
      "inputs": [],
      "name": "getPlatform",
      "outputs": [
        {
          "name": "",
          "type": "address"
        }
      ],
      "payable": false,
      "stateMutability": "view",
      "type": "function"
    },
    {
      "constant": true,
      "inputs": [],
      "name": "getTournament",
      "outputs": [
        {
          "name": "",
          "type": "address"
        }
      ],
      "payable": false,
      "stateMutability": "view",
      "type": "function"
    },
    {
      "constant": true,
      "inputs": [],
      "name": "getData",
      "outputs": [
        {
          "components": [
            {
              "name": "start",
              "type": "uint256"
            },
            {
              "name": "end",
              "type": "uint256"
            },
            {
              "name": "reviewPeriodDuration",
              "type": "uint256"
            },
            {
              "name": "bounty",
              "type": "uint256"
            },
            {
              "name": "closed",
              "type": "bool"
            }
          ],
          "name": "_roundData",
          "type": "tuple"
        }
      ],
      "payable": false,
      "stateMutability": "view",
      "type": "function"
    },
    {
      "constant": true,
      "inputs": [],
      "name": "getStartTime",
      "outputs": [
        {
          "name": "",
          "type": "uint256"
        }
      ],
      "payable": false,
      "stateMutability": "view",
      "type": "function"
    },
    {
      "constant": true,
      "inputs": [],
      "name": "getEndTime",
      "outputs": [
        {
          "name": "",
          "type": "uint256"
        }
      ],
      "payable": false,
      "stateMutability": "view",
      "type": "function"
    },
    {
      "constant": true,
      "inputs": [],
      "name": "getReviewPeriodDuration",
      "outputs": [
        {
          "name": "",
          "type": "uint256"
        }
      ],
      "payable": false,
      "stateMutability": "view",
      "type": "function"
    },
    {
      "constant": true,
      "inputs": [],
      "name": "getBounty",
      "outputs": [
        {
          "name": "",
          "type": "uint256"
        }
      ],
      "payable": false,
      "stateMutability": "view",
      "type": "function"
    },
    {
      "constant": true,
      "inputs": [],
      "name": "getRemainingBounty",
      "outputs": [
        {
          "name": "",
          "type": "uint256"
        }
      ],
      "payable": false,
      "stateMutability": "view",
      "type": "function"
    },
    {
      "constant": true,
      "inputs": [],
      "name": "getTokenAddress",
      "outputs": [
        {
          "name": "",
          "type": "address"
        }
      ],
      "payable": false,
      "stateMutability": "view",
      "type": "function"
    },
    {
      "constant": true,
      "inputs": [],
      "name": "getSubmissions",
      "outputs": [
        {
          "name": "_submissions",
          "type": "address[]"
        }
      ],
      "payable": false,
      "stateMutability": "view",
      "type": "function"
    },
    {
      "constant": true,
      "inputs": [
        {
          "name": "_submissionAddress",
          "type": "address"
        }
      ],
      "name": "getBalance",
      "outputs": [
        {
          "name": "",
          "type": "uint256"
        }
      ],
      "payable": false,
      "stateMutability": "view",
      "type": "function"
    },
    {
      "constant": true,
      "inputs": [],
      "name": "getRoundBalance",
      "outputs": [
        {
          "name": "",
          "type": "uint256"
        }
      ],
      "payable": false,
      "stateMutability": "view",
      "type": "function"
    },
    {
      "constant": true,
      "inputs": [],
      "name": "submissionsChosen",
      "outputs": [
        {
          "name": "",
          "type": "bool"
        }
      ],
      "payable": false,
      "stateMutability": "view",
      "type": "function"
    },
    {
      "constant": true,
      "inputs": [],
      "name": "getWinningSubmissionAddresses",
      "outputs": [
        {
          "name": "",
          "type": "address[]"
        }
      ],
      "payable": false,
      "stateMutability": "view",
      "type": "function"
    },
    {
      "constant": true,
      "inputs": [],
      "name": "numberOfSubmissions",
      "outputs": [
        {
          "name": "",
          "type": "uint256"
        }
      ],
      "payable": false,
      "stateMutability": "view",
      "type": "function"
    },
    {
      "constant": true,
      "inputs": [
        {
          "name": "_submissionAddress",
          "type": "address"
        }
      ],
      "name": "submissionExists",
      "outputs": [
        {
          "name": "",
          "type": "bool"
        }
      ],
      "payable": false,
      "stateMutability": "view",
      "type": "function"
    },
    {
      "constant": false,
      "inputs": [
        {
          "name": "_mtxAllocation",
          "type": "uint256"
        }
      ],
      "name": "addBounty",
      "outputs": [],
      "payable": false,
      "stateMutability": "nonpayable",
      "type": "function"
    },
    {
      "constant": false,
      "inputs": [
        {
          "name": "_currentRoundEndTime",
          "type": "uint256"
        },
        {
          "components": [
            {
              "name": "start",
              "type": "uint256"
            },
            {
              "name": "end",
              "type": "uint256"
            },
            {
              "name": "reviewPeriodDuration",
              "type": "uint256"
            },
            {
              "name": "bounty",
              "type": "uint256"
            },
            {
              "name": "closed",
              "type": "bool"
            }
          ],
          "name": "_roundData",
          "type": "tuple"
        }
      ],
      "name": "editRound",
      "outputs": [],
      "payable": false,
      "stateMutability": "nonpayable",
      "type": "function"
    },
    {
      "constant": false,
      "inputs": [
        {
          "name": "_amount",
          "type": "uint256"
        }
      ],
      "name": "transferToTournament",
      "outputs": [],
      "payable": false,
      "stateMutability": "nonpayable",
      "type": "function"
    },
    {
      "constant": false,
      "inputs": [
        {
          "components": [
            {
              "name": "winningSubmissions",
              "type": "address[]"
            },
            {
              "name": "rewardDistribution",
              "type": "uint256[]"
            },
            {
              "name": "selectWinnerAction",
              "type": "uint256"
            },
            {
              "name": "rewardDistributionTotal",
              "type": "uint256"
            }
          ],
          "name": "_selectWinnersData",
          "type": "tuple"
        },
        {
          "components": [
            {
              "name": "start",
              "type": "uint256"
            },
            {
              "name": "end",
              "type": "uint256"
            },
            {
              "name": "reviewPeriodDuration",
              "type": "uint256"
            },
            {
              "name": "bounty",
              "type": "uint256"
            },
            {
              "name": "closed",
              "type": "bool"
            }
          ],
          "name": "_roundData",
          "type": "tuple"
        }
      ],
      "name": "selectWinningSubmissions",
      "outputs": [],
      "payable": false,
      "stateMutability": "nonpayable",
      "type": "function"
    },
    {
      "constant": false,
      "inputs": [],
      "name": "transferBountyToTournament",
      "outputs": [
        {
          "name": "",
          "type": "uint256"
        }
      ],
      "payable": false,
      "stateMutability": "nonpayable",
      "type": "function"
    },
    {
      "constant": false,
      "inputs": [
        {
          "name": "_tournamentBalance",
          "type": "uint256"
        }
      ],
      "name": "transferAllToWinners",
      "outputs": [],
      "payable": false,
      "stateMutability": "nonpayable",
      "type": "function"
    },
    {
      "constant": false,
      "inputs": [],
      "name": "startNow",
      "outputs": [],
      "payable": false,
      "stateMutability": "nonpayable",
      "type": "function"
    },
    {
      "constant": false,
      "inputs": [],
      "name": "closeRound",
      "outputs": [],
      "payable": false,
      "stateMutability": "nonpayable",
      "type": "function"
    },
    {
      "constant": false,
      "inputs": [
        {
          "name": "_owner",
          "type": "address"
        },
        {
          "name": "platformAddress",
          "type": "address"
        },
        {
          "components": [
            {
              "name": "title",
              "type": "bytes32[3]"
            },
            {
              "name": "descriptionHash",
              "type": "bytes32[2]"
            },
            {
              "name": "fileHash",
              "type": "bytes32[2]"
            },
            {
              "name": "timeSubmitted",
              "type": "uint256"
            },
            {
              "name": "timeUpdated",
              "type": "uint256"
            }
          ],
          "name": "submissionData",
          "type": "tuple"
        }
      ],
      "name": "createSubmission",
      "outputs": [
        {
          "name": "_submissionAddress",
          "type": "address"
        }
      ],
      "payable": false,
      "stateMutability": "nonpayable",
      "type": "function"
    }
  ],
  "bytecode": "0x60806040523480156200001157600080fd5b5060405161010080620023c4833981018060405262000034919081019062000154565b60008054600160a060020a0319908116600160a060020a039687161790915560018054821694861694909417909355600280549093169190931617905580516003556020810151600455604081015160055560600151600655620001fb565b6000620000a18251620001e7565b9392505050565b6000620000a18251620001f3565b600060a08284031215620000c957600080fd5b620000d560a0620001bf565b90506000620000e5848462000146565b8252506020620000f88484830162000146565b60208301525060406200010e8482850162000146565b6040830152506060620001248482850162000146565b60608301525060806200013a84828501620000a8565b60808301525092915050565b6000620000a18251620001f8565b60008060008061010085870312156200016c57600080fd5b60006200017a878762000093565b94505060206200018d8782880162000093565b9350506040620001a08782880162000093565b9250506060620001b387828801620000b6565b91505092959194509250565b60405181810167ffffffffffffffff81118282101715620001df57600080fd5b604052919050565b600160a060020a031690565b151590565b90565b6121b9806200020b6000396000f3006080604052600436106101745763ffffffff7c010000000000000000000000000000000000000000000000000000000060003504166303d66a97811461017957806307417cf1146101a45780630e3db9f2146101c657806310fe9ae8146101dd5780631865c57d146101f2578063241b15ad146102075780632f0713bb1461021c5780632fc1f1901461023c578063389994f91461025157806338e43895146102735780633bc5de3014610293578063439f5ac2146102b55780635325cdba146102ca57806354f6aa20146102ea57806357c60fb01461030c5780637bc935be1461032c578063856646fd146103415780638fa4e7b914610361578063b0ff549214610381578063b6a3497514610396578063c828371e146103b6578063dbe55e56146103cb578063e278fe6f146103e0578063e45ceed2146103f5578063e76c293e1461040a578063e9e8b446146103f5578063ed0984601461041f578063f49bff7b14610434578063f8b2cb4f14610449575b600080fd5b34801561018557600080fd5b5061018e610469565b60405161019b9190611f75565b60405180910390f35b3480156101b057600080fd5b506101b9610485565b60405161019b91906120c9565b3480156101d257600080fd5b506101db610630565b005b3480156101e957600080fd5b5061018e61068b565b3480156101fe57600080fd5b506101b961074f565b34801561021357600080fd5b506101b9610811565b34801561022857600080fd5b506101db610237366004611c53565b610817565b34801561024857600080fd5b5061018e6109c2565b34801561025d57600080fd5b506102666109de565b60405161019b919061203a565b34801561027f57600080fd5b506101db61028e366004611c53565b6109e6565b34801561029f57600080fd5b506102a8610a23565b60405161019b9190612056565b3480156102c157600080fd5b506101b9610a65565b3480156102d657600080fd5b506101db6102e5366004611c53565b610a6b565b3480156102f657600080fd5b506102ff610d8a565b60405161019b9190612029565b34801561031857600080fd5b5061018e610327366004611b96565b610dfc565b34801561033857600080fd5b506101b96111cd565b34801561034d57600080fd5b506101db61035c366004611c02565b6111d3565b34801561036d57600080fd5b506101db61037c366004611c8f565b6112a5565b34801561038d57600080fd5b5061018e61131e565b3480156103a257600080fd5b506102666103b1366004611b52565b61133a565b3480156103c257600080fd5b506101b9611365565b3480156103d757600080fd5b5061018e61136b565b3480156103ec57600080fd5b506101db611387565b34801561040157600080fd5b506101b96113ec565b34801561041657600080fd5b5061018e61152d565b34801561042b57600080fd5b506102ff611549565b34801561044057600080fd5b506101b96115b9565b34801561045557600080fd5b506101b9610464366004611b52565b6115bf565b60015473ffffffffffffffffffffffffffffffffffffffff1681565b600154600090819073ffffffffffffffffffffffffffffffffffffffff1633146104ae57600080fd5b6104b66113ec565b90506000809054906101000a900473ffffffffffffffffffffffffffffffffffffffff1673ffffffffffffffffffffffffffffffffffffffff166310fe9ae86040518163ffffffff167c0100000000000000000000000000000000000000000000000000000000028152600401602060405180830381600087803b15801561053d57600080fd5b505af1158015610551573d6000803e3d6000fd5b505050506040513d601f19601f820116820180604052506105759190810190611b78565b6001546040517fa9059cbb00000000000000000000000000000000000000000000000000000000815273ffffffffffffffffffffffffffffffffffffffff9283169263a9059cbb926105ce92911690859060040161200e565b602060405180830381600087803b1580156105e857600080fd5b505af11580156105fc573d6000803e3d6000fd5b505050506040513d601f19601f820116820180604052506106209190810190611be4565b151561062b57600080fd5b919050565b60015460009073ffffffffffffffffffffffffffffffffffffffff16331461065757600080fd5b60035460045461066c9163ffffffff61172a16565b426003819055909150610685908263ffffffff61173c16565b60045550565b60008060009054906101000a900473ffffffffffffffffffffffffffffffffffffffff1673ffffffffffffffffffffffffffffffffffffffff166310fe9ae86040518163ffffffff167c0100000000000000000000000000000000000000000000000000000000028152600401602060405180830381600087803b15801561071257600080fd5b505af1158015610726573d6000803e3d6000fd5b505050506040513d601f19601f8201168201806040525061074a9190810190611b78565b905090565b600080546040517f05b00ec100000000000000000000000000000000000000000000000000000000815273__LibRound______________________________916305b00ec1916107c19173ffffffffffffffffffffffffffffffffffffffff1690600390600890600c90600401611fd0565b60206040518083038186803b1580156107d957600080fd5b505af41580156107ed573d6000803e3d6000fd5b505050506040513d601f19601f8201168201806040525061074a9190810190611c71565b600c5490565b60015473ffffffffffffffffffffffffffffffffffffffff16331461083b57600080fd5b600061084561074f565b1461084f57600080fd5b6000809054906101000a900473ffffffffffffffffffffffffffffffffffffffff1673ffffffffffffffffffffffffffffffffffffffff166310fe9ae86040518163ffffffff167c0100000000000000000000000000000000000000000000000000000000028152600401602060405180830381600087803b1580156108d457600080fd5b505af11580156108e8573d6000803e3d6000fd5b505050506040513d601f19601f8201168201806040525061090c9190810190611b78565b73ffffffffffffffffffffffffffffffffffffffff1663a9059cbb33836040518363ffffffff167c010000000000000000000000000000000000000000000000000000000002815260040161096292919061200e565b602060405180830381600087803b15801561097c57600080fd5b505af1158015610990573d6000803e3d6000fd5b505050506040513d601f19601f820116820180604052506109b49190810190611be4565b15156109bf57600080fd5b50565b60005473ffffffffffffffffffffffffffffffffffffffff1690565b600854151590565b60015473ffffffffffffffffffffffffffffffffffffffff163314610a0a57600080fd5b600654610a1d908263ffffffff61173c16565b60065550565b610a2b61178d565b506040805160a0810182526003548152600454602082015260055491810191909152600654606082015260075460ff161515608082015290565b60045490565b60015460009081908190819073ffffffffffffffffffffffffffffffffffffffff163314610a9857600080fd5b600654610ac590670de0b6b3a764000090610ab9908863ffffffff61173c16565b9063ffffffff61175216565b600b54909450610ae390670de0b6b3a764000063ffffffff61175216565b9250600091505b600854821015610d8357610b3383610b2786600860010186815481101515610b0e57fe5b906000526020600020015461175290919063ffffffff16565b9063ffffffff61177616565b90506000809054906101000a900473ffffffffffffffffffffffffffffffffffffffff1673ffffffffffffffffffffffffffffffffffffffff166310fe9ae86040518163ffffffff167c0100000000000000000000000000000000000000000000000000000000028152600401602060405180830381600087803b158015610bba57600080fd5b505af1158015610bce573d6000803e3d6000fd5b505050506040513d601f19601f82011682018060405250610bf29190810190611b78565b73ffffffffffffffffffffffffffffffffffffffff1663a9059cbb600860000184815481101515610c1f57fe5b6000918252602090912001546040517c010000000000000000000000000000000000000000000000000000000063ffffffff8416028152610c7b9173ffffffffffffffffffffffffffffffffffffffff1690859060040161200e565b602060405180830381600087803b158015610c9557600080fd5b505af1158015610ca9573d6000803e3d6000fd5b505050506040513d601f19601f82011682018060405250610ccd9190810190611be4565b1515610cd857600080fd5b6008805483908110610ce657fe5b6000918252602090912001546040517f09b542bb00000000000000000000000000000000000000000000000000000000815273ffffffffffffffffffffffffffffffffffffffff909116906309b542bb90610d459084906004016120c9565b600060405180830381600087803b158015610d5f57600080fd5b505af1158015610d73573d6000803e3d6000fd5b505060019093019250610aea9050565b5050505050565b6060600c600001805480602002602001604051908101604052809291908181526020018280548015610df257602002820191906000526020600020905b815473ffffffffffffffffffffffffffffffffffffffff168152600190910190602001808311610dc7575b5050505050905090565b6001546000908190819073ffffffffffffffffffffffffffffffffffffffff163314610e2757600080fd5b6002610e3161074f565b14610e3b57600080fd5b73ffffffffffffffffffffffffffffffffffffffff86161515610e5d57600080fd5b6002546001546040517f6c4074f700000000000000000000000000000000000000000000000000000000815273ffffffffffffffffffffffffffffffffffffffff92831692636c4074f792610ebe928b928b92169030908b90600401611f83565b602060405180830381600087803b158015610ed857600080fd5b505af1158015610eec573d6000803e3d6000fd5b505050506040513d601f19601f82011682018060405250610f109190810190611b78565b73ffffffffffffffffffffffffffffffffffffffff8082166000818152600f602052604080822080547fffffffffffffffffffffffffffffffffffffffffffffffffffffffffffffff00166001908117909155600c805491820181559092527fdf6966c971051c3d54ec59162606531493a51404a002842f56009d7e5cf4a8c790910180547fffffffffffffffffffffffff000000000000000000000000000000000000000016909217909155517f6a44e43d000000000000000000000000000000000000000000000000000000008152919350861690636a44e43d90610ffb908990600401611f75565b602060405180830381600087803b15801561101557600080fd5b505af1158015611029573d6000803e3d6000fd5b505050506040513d601f19601f8201168201806040525061104d9190810190611b78565b73ffffffffffffffffffffffffffffffffffffffff81166000908152600e602052604090205490915015156110ed57600d80546001810182556000919091527fd7b6990105719101dabeb77144f2a3385c8033acd3af97e9423a695e81ad1eb50180547fffffffffffffffffffffffff00000000000000000000000000000000000000001673ffffffffffffffffffffffffffffffffffffffff88161790555b73ffffffffffffffffffffffffffffffffffffffff8181166000908152600e602090815260408083208054600180820183559185529290932090910180547fffffffffffffffffffffffff000000000000000000000000000000000000000016868516179055905490517f4644c51b000000000000000000000000000000000000000000000000000000008152911690634644c51b90611191908590600401611f75565b600060405180830381600087803b1580156111ab57600080fd5b505af11580156111bf573d6000803e3d6000fd5b509398975050505050505050565b60055490565b60015473ffffffffffffffffffffffffffffffffffffffff1633146111f757600080fd5b600454151561120557600080fd5b600361120f61074f565b1461121957600080fd5b6040517f6e86d66200000000000000000000000000000000000000000000000000000000815273__LibRound______________________________90636e86d662906112719060039060089087908790600401612064565b60006040518083038186803b15801561128957600080fd5b505af415801561129d573d6000803e3d6000fd5b505050505050565b60015473ffffffffffffffffffffffffffffffffffffffff1633146112c957600080fd5b6040517fb666875000000000000000000000000000000000000000000000000000000000815273__LibRound______________________________9063b66687509061127190600390869086906004016120a1565b60025473ffffffffffffffffffffffffffffffffffffffff1681565b73ffffffffffffffffffffffffffffffffffffffff166000908152600f602052604090205460ff1690565b60035490565b60005473ffffffffffffffffffffffffffffffffffffffff1681565b60015473ffffffffffffffffffffffffffffffffffffffff1633146113ab57600080fd5b60046113b561074f565b146113bf57600080fd5b600780547fffffffffffffffffffffffffffffffffffffffffffffffffffffffffffffff00166001179055565b60008060009054906101000a900473ffffffffffffffffffffffffffffffffffffffff1673ffffffffffffffffffffffffffffffffffffffff166310fe9ae86040518163ffffffff167c0100000000000000000000000000000000000000000000000000000000028152600401602060405180830381600087803b15801561147357600080fd5b505af1158015611487573d6000803e3d6000fd5b505050506040513d601f19601f820116820180604052506114ab9190810190611b78565b73ffffffffffffffffffffffffffffffffffffffff166370a08231306040518263ffffffff167c01000000000000000000000000000000000000000000000000000000000281526004016114ff9190612048565b602060405180830381600087803b15801561151957600080fd5b505af11580156107ed573d6000803e3d6000fd5b60015473ffffffffffffffffffffffffffffffffffffffff1690565b60606008600001805480602002602001604051908101604052809291908181526020018280548015610df25760200282019190600052602060002090815473ffffffffffffffffffffffffffffffffffffffff168152600190910190602001808311610dc7575050505050905090565b60065490565b60008060009054906101000a900473ffffffffffffffffffffffffffffffffffffffff1673ffffffffffffffffffffffffffffffffffffffff166310fe9ae86040518163ffffffff167c0100000000000000000000000000000000000000000000000000000000028152600401602060405180830381600087803b15801561164657600080fd5b505af115801561165a573d6000803e3d6000fd5b505050506040513d601f19601f8201168201806040525061167e9190810190611b78565b73ffffffffffffffffffffffffffffffffffffffff166370a08231836040518263ffffffff167c01000000000000000000000000000000000000000000000000000000000281526004016116d29190611f75565b602060405180830381600087803b1580156116ec57600080fd5b505af1158015611700573d6000803e3d6000fd5b505050506040513d601f19601f820116820180604052506117249190810190611c71565b92915050565b60008282111561173657fe5b50900390565b60008282018381101561174b57fe5b9392505050565b600082820283158061176e575082848281151561176b57fe5b04145b151561174b57fe5b600080828481151561178457fe5b04949350505050565b60a060405190810160405280600081526020016000815260200160008152602001600081526020016000151581525090565b600061174b8235612156565b600061174b8251612156565b6000601f820183136117e857600080fd5b81356117fb6117f6826120fe565b6120d7565b9150818183526020840193506020810190508385602084028201111561182057600080fd5b60005b8381101561184c578161183688826117bf565b8452506020928301929190910190600101611823565b5050505092915050565b6000601f8201831361186757600080fd5b60026118756117f68261211f565b9150818385602084028201111561188b57600080fd5b60005b8381101561184c57816118a188826119a0565b845250602092830192919091019060010161188e565b6000601f820183136118c857600080fd5b60036118d66117f68261211f565b915081838560208402820111156118ec57600080fd5b60005b8381101561184c578161190288826119a0565b84525060209283019291909101906001016118ef565b6000601f8201831361192957600080fd5b81356119376117f6826120fe565b9150818183526020840193506020810190508385602084028201111561195c57600080fd5b60005b8381101561184c578161197288826119a0565b845250602092830192919091019060010161195f565b600061174b823561216f565b600061174b825161216f565b600061174b8235612143565b600060a082840312156119be57600080fd5b6119c860a06120d7565b905060006119d684846119a0565b82525060206119e7848483016119a0565b60208301525060406119fb848285016119a0565b6040830152506060611a0f848285016119a0565b6060830152506080611a2384828501611988565b60808301525092915050565b600060808284031215611a4157600080fd5b611a4b60806120d7565b9050813567ffffffffffffffff811115611a6457600080fd5b611a70848285016117d7565b825250602082013567ffffffffffffffff811115611a8d57600080fd5b611a9984828501611918565b6020830152506040611aad848285016119a0565b6040830152506060611ac1848285016119a0565b60608301525092915050565b60006101208284031215611ae057600080fd5b611aea60a06120d7565b90506000611af884846118b7565b8252506060611b0984848301611856565b60208301525060a0611b1d84828501611856565b60408301525060e0611b31848285016119a0565b606083015250610100611a23848285016119a0565b600061174b8251612143565b600060208284031215611b6457600080fd5b6000611b7084846117bf565b949350505050565b600060208284031215611b8a57600080fd5b6000611b7084846117cb565b60008060006101608486031215611bac57600080fd5b6000611bb886866117bf565b9350506020611bc9868287016117bf565b9250506040611bda86828701611acd565b9150509250925092565b600060208284031215611bf657600080fd5b6000611b708484611994565b60008060c08385031215611c1557600080fd5b823567ffffffffffffffff811115611c2c57600080fd5b611c3885828601611a2f565b9250506020611c49858286016119ac565b9150509250929050565b600060208284031215611c6557600080fd5b6000611b7084846119a0565b600060208284031215611c8357600080fd5b6000611b708484611b46565b60008060c08385031215611ca257600080fd5b6000611c3885856119a0565b611cb781612156565b82525050565b6000611cc882612146565b808452602084019350611cda8361213d565b60005b82811015611d0a57611cf0868351611cae565b611cf98261213d565b602096909601959150600101611cdd565b5093949350505050565b6000611d1f82612146565b808452602084019350611d318361213d565b60005b82811015611d0a57611d47868351611cae565b611d508261213d565b602096909601959150600101611d34565b611d6a8161214a565b611d7382612143565b60005b82811015610d8357611d89858351611e3b565b611d928261213d565b602095909501949150600101611d76565b611dac81612150565b611db582612143565b60005b82811015610d8357611dcb858351611e3b565b611dd48261213d565b602095909501949150600101611db8565b6000611df082612146565b808452602084019350611e028361213d565b60005b82811015611d0a57611e18868351611e3b565b611e218261213d565b602096909601959150600101611e05565b611cb78161216f565b611cb781612143565b611cb781612174565b805160a0830190611e5e8482611e3b565b506020820151611e716020850182611e3b565b506040820151611e846040850182611e3b565b506060820151611e976060850182611e3b565b506080820151611eaa6080850182611e32565b50505050565b9052565b8051608080845260009190840190611ecc8282611d14565b91505060208301518482036020860152611ee68282611de5565b9150506040830151611efb6040860182611e3b565b506060830151611f0e6060860182611e3b565b509392505050565b8051610120830190611f288482611da3565b506020820151611f3b6060850182611d61565b506040820151611f4e60a0850182611d61565b506060820151611f6160e0850182611e3b565b506080820151611eaa610100850182611e3b565b602081016117248284611cae565b6101a08101611f928288611cae565b611f9f6020830187611cae565b611fac6040830186611cae565b611fb96060830185611e44565b611fc66080830184611f16565b9695505050505050565b60808101611fde8287611cae565b611feb6020830186611eb0565b611ff86040830185611eb0565b6120056060830184611eb0565b95945050505050565b6040810161201c8285611cae565b61174b6020830184611e3b565b6020808252810161174b8184611cbd565b602081016117248284611e32565b602081016117248284611e44565b60a081016117248284611e4d565b61010081016120738287611eb0565b6120806020830186611eb0565b81810360408301526120928185611eb4565b90506120056060830184611e4d565b60e081016120af8286611eb0565b6120bc6020830185611e3b565b611b706040830184611e4d565b602081016117248284611e3b565b60405181810167ffffffffffffffff811182821017156120f657600080fd5b604052919050565b600067ffffffffffffffff82111561211557600080fd5b5060209081020190565b600067ffffffffffffffff82111561213657600080fd5b5060200290565b60200190565b90565b5190565b50600290565b50600390565b73ffffffffffffffffffffffffffffffffffffffff1690565b151590565b6000611724826121565600a265627a7a72305820a7d7bafae2027fd1462e1528d05faa85b34b6fdba7563521fdf1490f8419ca3b6c6578706572696d656e74616cf50037",
  "source": "pragma solidity ^0.4.24;\npragma experimental ABIEncoderV2;\n\nimport \"../libraries/math/SafeMath.sol\";\nimport \"../libraries/LibConstruction.sol\";\nimport \"../libraries/round/LibRound.sol\";\nimport \"../libraries/LibEnums.sol\";\nimport \"../interfaces/IMatryxToken.sol\";\nimport \"../interfaces/IMatryxPlatform.sol\";\nimport \"../interfaces/IMatryxTournament.sol\";\nimport \"../interfaces/IMatryxRound.sol\";\nimport \"../interfaces/factories/IMatryxSubmissionFactory.sol\";\nimport \"../interfaces/IMatryxSubmission.sol\";\nimport \"./Ownable.sol\";\n\n/// @title MatryxRound - A round within a Matryx tournament.\n/// @author Max Howard - <max@nanome.ai>, Sam Hessenauer - <sam@nanome.ai>\ncontract MatryxRound is IMatryxRound {\n    using SafeMath for uint256;\n\n    // TODO: allow for refunds\n    // TODO: condense and put in structs\n\n    address public platformAddress;\n    address public tournamentAddress;\n    address public matryxSubmissionFactoryAddress;\n\n    LibConstruction.RoundData data;\n    LibRound.SelectWinnersData winningSubmissionsData;\n    LibRound.SubmissionsData submissionsData;\n    LibRound.SubmissionAndEntrantTracking submissionEntrantTrackingData;\n\n    constructor(address _platformAddress, address _tournamentAddress, address _submissionFactoryAddress, LibConstruction.RoundData _roundData) public {\n        platformAddress = _platformAddress;\n        tournamentAddress = _tournamentAddress;\n        matryxSubmissionFactoryAddress = _submissionFactoryAddress;\n\n        data.start = _roundData.start;\n        data.end = _roundData.end;\n        data.reviewPeriodDuration = _roundData.reviewPeriodDuration;\n        data.bounty = _roundData.bounty;\n    }\n\n    /*\n     * Modifiers\n     */\n\n    /// @dev requires the messanger is the tournamnet\n    modifier onlyTournament() {\n        require(msg.sender == tournamentAddress);\n        _;\n    }\n\n    /// @dev Requires that this round is in the open submission state.\n    modifier duringOpenRound() {\n        require(getState() == uint256(LibEnums.RoundState.Open));\n        _;\n    }\n\n    /// @dev Requires that this round is in the winner selection state.\n    modifier duringReviewPeriod() {\n        require(data.end != 0);\n        require(getState() == uint256(LibEnums.RoundState.InReview));\n        _;\n    }\n\n    /// @dev Requires that this round already has chosen winners\n    modifier hasWinners() {\n        require(getState() == uint256(LibEnums.RoundState.HasWinners));\n        _;\n    }\n\n    /*\n     * Getter Methods\n     */\n\n    /// @dev Returns the state of the round: { NotYetOpen, Unfunded, Open, InReview, HasWinners, Closed, Abandoned }\n    function getState() public view returns (uint256){\n        return LibRound.getState(platformAddress, data, winningSubmissionsData, submissionsData);\n    }\n\n    function getPlatform() public view returns (address) {\n        return platformAddress;\n    }\n\n    function getTournament() public view returns (address) {\n        return tournamentAddress;\n    }\n\n    function getData() public view returns (LibConstruction.RoundData _roundData) {\n        return data;\n    }\n\n    function getStartTime() public view returns (uint256) {\n        return data.start;\n    }\n\n    function getEndTime() public view returns (uint256) {\n        return data.end;\n    }\n\n    function getReviewPeriodDuration() public view returns (uint256) {\n        return data.reviewPeriodDuration;\n    }\n\n    function getBounty() public view returns (uint256) {\n        return data.bounty;\n    }\n\n    function getRemainingBounty() public view returns (uint256) {\n        return IMatryxToken(IMatryxPlatform(platformAddress).getTokenAddress()).balanceOf(this);\n    }\n\n    function getTokenAddress() public view returns (address) {\n        return IMatryxPlatform(platformAddress).getTokenAddress();\n    }\n\n    /// @dev Returns all submissions made to this round.\n    /// @return _submissions All submissions made to this round.\n    function getSubmissions() public view returns (address[] _submissions) {\n        return submissionsData.submissions;\n    }\n\n    /// @dev Returns the balance of a particular submission\n    /// @param _submissionAddress Address of the submission\n    /// @return Balance of the bounty\n    function getBalance(address _submissionAddress) public view returns (uint256) {\n        return IMatryxToken(IMatryxPlatform(platformAddress).getTokenAddress()).balanceOf(_submissionAddress);\n    }\n\n    /// @dev Returns the balance of this round\n    /// @return Balance of the round\n    function getRoundBalance() public view returns (uint256) {\n        return IMatryxToken(IMatryxPlatform(platformAddress).getTokenAddress()).balanceOf(this);\n    }\n\n    /// @dev Returns whether or not a winning submission has been chosen.\n    /// @return Whether or not a submission has been chosen.\n    function submissionsChosen() public view returns (bool) {\n        return winningSubmissionsData.winningSubmissions.length != 0;\n    }\n\n    /// @dev Returns the index of this round's winning submission.\n    /// @return Index of the winning submission.\n    function getWinningSubmissionAddresses() public view returns (address[]) {\n        return winningSubmissionsData.winningSubmissions;\n    }\n\n    /// @dev Returns the number of submissions made to this round.\n    /// @return Number of submissions made to this round.\n    function numberOfSubmissions() public view returns (uint256) {\n        return submissionsData.submissions.length;\n    }\n\n    /*\n     * Functions\n     */\n\n    /// @dev checks if the submission address is registerd on the platform\n    /// @param _submissionAddress the address of the\n    function submissionExists(address _submissionAddress) public view returns (bool) {\n        return submissionEntrantTrackingData.submissionExists[_submissionAddress];\n    }\n\n    /// @dev Add funds to this round's bounty\n    /// @param _mtxAllocation Amount of MTX to add\n    function addBounty(uint256 _mtxAllocation) public onlyTournament {\n        data.bounty = data.bounty.add(_mtxAllocation);\n    }\n\n    /*\n     * Round Admin Methods\n     */\n\n    /// @dev Allows the tournament to edit the\n    function editRound(uint256 _currentRoundEndTime, LibConstruction.RoundData _roundData) public onlyTournament {\n        LibRound.editRound(data, _currentRoundEndTime, _roundData);\n    }\n\n    function transferToTournament(uint256 _amount) public onlyTournament {\n        require(getState() == uint256(LibEnums.RoundState.NotYetOpen));\n        require(IMatryxToken(IMatryxPlatform(platformAddress).getTokenAddress()).transfer(msg.sender, _amount));\n    }\n\n    /// @dev Choose a winning submission for the round (callable only by the owner of the round).\n    /// @param _selectWinnersData Data containing:\n    ///   winningSubmissions: Addresses of the winning submissions\n    ///   rewardDistribution: Distribution indicating how to split the MTX reward among the submissions\n    ///   rewardDistributionTotal: (Unused)\n    /// @param _roundData Data containing:\n    ///   start: Start time (seconds since unix-epoch) for next round\n    ///   end: End time (seconds since unix-epoch) for next round\n    ///   reviewPeriodDuration: Number of seconds to allow for winning submissions to be selected in next round\n    ///   bounty: Bounty in MTX for next round\n    ///   closed: (Unused)\n    function selectWinningSubmissions(LibRound.SelectWinnersData _selectWinnersData, LibConstruction.RoundData _roundData) public onlyTournament duringReviewPeriod {\n        LibRound.selectWinningSubmissions(data, winningSubmissionsData, _selectWinnersData, _roundData);\n    }\n\n    /// @dev Allows contributors to withdraw a portion of the round bounty if the round has been abandoned.\n    function transferBountyToTournament() public onlyTournament returns (uint256) {\n        uint256 remaining = getRemainingBounty();\n        require(IMatryxToken(IMatryxPlatform(platformAddress).getTokenAddress()).transfer(tournamentAddress, remaining));\n        return remaining;\n    }\n\n    function transferAllToWinners(uint256 _tournamentBalance) public onlyTournament {\n        // Calculate total reward denominator\n        uint256 totalBalance = data.bounty.add(_tournamentBalance).mul(10**18);\n        uint256 totalDist = winningSubmissionsData.rewardDistributionTotal.mul(10**18);\n\n        for(uint256 i = 0; i < winningSubmissionsData.winningSubmissions.length; i++)\n        {\n            // Calculate reward numerator based on distribution for this specific submission\n            uint256 reward = winningSubmissionsData.rewardDistribution[i].mul(totalBalance).div(totalDist);\n            // Transfer the reward to the submission\n            require(IMatryxToken(IMatryxPlatform(platformAddress).getTokenAddress()).transfer(winningSubmissionsData.winningSubmissions[i], reward));\n            IMatryxSubmission(winningSubmissionsData.winningSubmissions[i]).addToWinnings(reward);\n        }\n    }\n\n    /// @dev Starts the next round at the end time of the previous round\n    function startNow() public onlyTournament {\n        uint256 duration = data.end.sub(data.start);\n        data.start = now;\n        data.end = data.start.add(duration);\n    }\n\n    /// @dev Sets closed flag to true\n    function closeRound() public onlyTournament hasWinners {\n        data.closed = true;\n    }\n\n    /*\n     * Entrant Methods\n     */\n\n    /// @dev Create a new submission. Called by MatryxTournament\n    /// @param _owner Owner of this submission.\n    /// @param submissionData The data of the submission. Includes:\n    ///\t\ttitle: Title of the submission.\n    ///\t\towner: The owner of the submission.\n    ///\t\tcontentHash: Off-chain content hash of submission details (ipfs hash)\n    ///\t\tcontributors: Contributors to this submission.\n    ///\t\tcontributorRewardDistribution: Informs how the reward should be distributed among the contributors\n    /// \tshould this submission win.\n    ///\t\treferences: Addresses of submissions referenced in creating this submission.\n    /// @return _submissionAddress Location of this submission within this round.\n    function createSubmission(address _owner, address platformAddress, LibConstruction.SubmissionData submissionData) public onlyTournament duringOpenRound returns (address _submissionAddress) {\n        require(_owner != 0x0);\n\n        address submissionAddress = IMatryxSubmissionFactory(matryxSubmissionFactoryAddress).createSubmission(_owner, platformAddress, tournamentAddress, this, submissionData);\n        // submission bookkeeping\n        submissionEntrantTrackingData.submissionExists[submissionAddress] = true;\n        submissionsData.submissions.push(submissionAddress);\n        // TODO: Change to 'authors.push' once MatryxPeer is part of MatryxPlatform\n        address submissionAuthor = IMatryxPlatform(platformAddress).peerAddress(_owner);\n        if(submissionEntrantTrackingData.authorToSubmissionAddress[submissionAuthor].length == 0)\n        {\n            submissionsData.submissionOwners.push(_owner);\n        }\n\n        submissionEntrantTrackingData.authorToSubmissionAddress[submissionAuthor].push(submissionAddress);\n\n        IMatryxTournament(tournamentAddress).invokeSubmissionCreatedEvent(submissionAddress);\n        return submissionAddress;\n    }\n\n\n    //     // TODO:\n    //     // Or we could never transfer funds to the round in the first place.\n    //     // This would allow this function to exist on the tournament instead of the round.\n    //     // I'd need to reintroduce bountyLeft so that the tournament knew how much is left for the round.\n    //     // If I reintroduced it, it would be to the tournament, so that submission.withdrawReward wouldn't have to call round.bountyLeft to figure out how much to ask the tournament for.\n    //     // The tournament would just transfer as much as the submission deserved into it.\n    //     // bountyLeft would be stored as a value under a rounds structure.\n    //     // This would eventually involve writing a library to do round functions.\n    //     // For now, this can be a hardcoded library.\n    //     // Eventually, this library will be part of the upgrade system.\n    //     // Upgrade system will eventually allow for data, data migration and code contracts to exist and be swapped per contract\n    //     // All data and code contract addresses will be sourced from one contract, the MatryxVersionManager.\n    //     // This contract will also contain data migrators to migrate from one version to another (for when data structures change)\n    // }\n}\n",
  "sourcePath": "/Users/maxhoward/Desktop/Ethereum/MatryxPlatform/contracts/MatryxRound.sol",
  "compiler": {
    "name": "solc",
    "version": "0.4.24+commit.e67f0147.Emscripten.clang"
  },
  "schemaVersion": "2.0.1",
  "updatedAt": "2018-08-17T22:42:59.559Z"
}