{
  "contractName": "MatryxPlatform",
  "abi": [
    {
      "inputs": [
        {
          "name": "_proxy",
          "type": "address"
        },
        {
          "name": "_version",
          "type": "uint256"
        }
      ],
      "payable": false,
      "stateMutability": "nonpayable",
      "type": "constructor"
    },
    {
      "payable": false,
      "stateMutability": "nonpayable",
      "type": "fallback"
    },
    {
      "constant": false,
      "inputs": [
        {
          "name": "_contractType",
          "type": "uint256"
        },
        {
          "name": "_libraryName",
          "type": "bytes32"
        }
      ],
      "name": "setContractTypeLibrary",
      "outputs": [],
      "payable": false,
      "stateMutability": "nonpayable",
      "type": "function"
    },
    {
      "constant": true,
      "inputs": [
        {
          "name": "_contractType",
          "type": "uint256"
        }
      ],
      "name": "getContractTypeLibrary",
      "outputs": [
        {
          "name": "",
          "type": "bytes32"
        }
      ],
      "payable": false,
      "stateMutability": "view",
      "type": "function"
    }
  ],
  "bytecode": "0x608060405234801561001057600080fd5b506040516040806104fa833981018060405261002f9190810190610156565b60008054600160a060020a0393909316600160a060020a0319938416178155600191909155600280549092163317909155600b6020527f4c6962546f75726e616d656e74000000000000000000000000000000000000007fa50eece07c7db1631545c0069bd8f5f54d5935e215d59097edf258a44ba91634557f4c6962526f756e640000000000000000000000000000000000000000000000007f64c15cc42be7899b001f818cf4433057002112c418d1d3a67cd5cb453051d33e55600490527f4c69625375626d697373696f6e000000000000000000000000000000000000007f12d0c11577e2f0950f57c455c117796550b79f444811db8ba2f69c57b646c7845561019f565b60006101438251610190565b9392505050565b6000610143825161019c565b6000806040838503121561016957600080fd5b60006101758585610137565b92505060206101868582860161014a565b9150509250929050565b600160a060020a031690565b90565b61034c806101ae6000396000f30060806040526004361061004b5763ffffffff7c0100000000000000000000000000000000000000000000000000000000600035041663611be5c881146101fd578063d3078e8d14610233575b34801561005757600080fd5b507c01000000000000000000000000000000000000000000000000000000007f4c6962506c6174666f726d0000000000000000000000000000000000000000006040516000546001600001548463e11aa6a20260005233600452602060006024600080865af18015156100c957600080fd5b600b6020526040600020548015156100de5750845b8663c53cfd9a028552826004860152806024860152602060006044876000885af1915081151561010d57600080fd5b60005187633b15aabf0286528360048701528160248701526004600060448801376000806064886000895af1925082151561014757600080fd5b3d6000873e855186016020818101518201805160408401518401805185513d909c019b8c523360048d015292840193919291019060248b0160005b848110156101a157602081810287015183529190910190600101610182565b50600436036004823760005b828110156101d45760208181028501518102830180516001888101909302019052016101ad565b50602060018501023601600080828f8b5af499508915156101f457600080fd5b3d60008e3e3d8df35b34801561020957600080fd5b5061021d61021836600461028c565b610255565b60405161022a91906102fb565b60405180910390f35b34801561023f57600080fd5b5061025361024e3660046102b2565b610267565b005b6000908152600b602052604090205490565b6000918252600b602052604090912055565b6000610285823561030f565b9392505050565b60006020828403121561029e57600080fd5b60006102aa8484610279565b949350505050565b600080604083850312156102c557600080fd5b60006102d18585610279565b92505060206102e285828601610279565b9150509250929050565b6102f58161030f565b82525050565b6020810161030982846102ec565b92915050565b905600a265627a7a72305820fca3fb7d3b18246e039fe3ec0960e1dcea2e3d85b5d8440f5be906b1c29163066c6578706572696d656e74616cf50037",
  "source": "pragma solidity ^0.4.24;\npragma experimental ABIEncoderV2;\n\nimport \"./MatryxProxy.sol\";\nimport \"./MatryxTournament.sol\";\nimport \"./MatryxRound.sol\";\nimport \"./MatryxSubmission.sol\";\nimport \"./LibUser.sol\";\n\ncontract MatryxPlatform {\n    struct Info {\n        address proxy;\n        uint256 version;\n        address owner;\n    }\n\n    struct Data {\n        mapping(address=>LibTournament.TournamentData) tournaments;\n        mapping(address=>LibRound.RoundData) rounds;\n        mapping(address=>LibSubmission.SubmissionData) submissions;\n        mapping(address=>LibUser.UserData) users;\n\n        address[] allTournaments;\n        address[] allRounds;\n        address[] allSubmissions;\n        address[] allUsers;\n    }\n\n    Info info; // slot 0\n    Data data; // slot 3\n\n    mapping(uint256=>bytes32) contractTypeToLibraryName;                        // contract type => 'Lib_____' (hex)\n\n    // event TournamentCreated(address _tournamentAddress);\n    // event RoundCreated(address _roundAddress);\n\n    constructor(address _proxy, uint256 _version) public {\n        info.proxy = _proxy;\n        info.version = _version;\n        info.owner = msg.sender;\n\n        contractTypeToLibraryName[uint256(MatryxProxy.ContractType.Tournament)] = \"LibTournament\";\n        contractTypeToLibraryName[uint256(MatryxProxy.ContractType.Round)] = \"LibRound\";\n        contractTypeToLibraryName[uint256(MatryxProxy.ContractType.Submission)] = \"LibSubmission\";\n    }\n\n    modifier onlyOwner {\n        require(msg.sender == info.owner);\n        _;\n    }\n\n    function () public {\n        assembly {\n            // constants\n            let offset := 0x100000000000000000000000000000000000000000000000000000000\n            let libPlatform := 0x4c6962506c6174666f726d000000000000000000000000000000000000000000\n\n            let ptr := mload(0x40)                                              // scratch space for calldata\n            let proxy := sload(info_slot)                                       // load info.proxy address\n            let version := sload(add(info_slot, 1))                             // load info.version number\n\n            mstore(0, mul(0xe11aa6a2, offset))                                  // getContractType(address)\n            mstore(0x04, caller)                                                // arg 0 - contract\n            let res := call(gas, proxy, 0, 0, 0x24, 0, 0x20)                    // call proxy.getContractType\n            if iszero(res) { revert(0, 0) }                                     // safety check\n\n            // get library name for contract type                               // key - type (in 0x0) from getContractType\n            mstore(0x20, contractTypeToLibraryName_slot)                        // map - contract type to library name\n            let libName := sload(keccak256(0, 0x40))                            // get library name for contract type\n            if iszero(libName) { libName := libPlatform }                       // default to LibPlatform\n\n            // call proxy and get library address\n            mstore(ptr, mul(0xc53cfd9a, offset))                                // getContract(uint256,bytes32)\n            mstore(add(ptr, 0x04), version)                                     // arg 0 - version\n            mstore(add(ptr, 0x24), libName)                                     // arg 1 - library name\n            res := call(gas, proxy, 0, ptr, 0x44, 0, 0x20)                      // call proxy.getContract\n            if iszero(res) { revert(0, 0) }                                     // safety check\n            let libAddress := mload(0)                                          // store libAddress from response\n\n            // get fnData from proxy\n            mstore(ptr, mul(0x3b15aabf, offset))                                // getContractMethod(uint256,bytes32,bytes32)\n            mstore(add(ptr, 0x04), version)                                     // arg 0 - version\n            mstore(add(ptr, 0x24), libName)                                     // arg 1 - library name\n            calldatacopy(add(ptr, 0x44), 0, 0x04)                               // arg 2 - fn selector\n            res := call(gas, proxy, 0, ptr, 0x64, 0, 0)                         // call proxy.getContractMethod\n            if iszero(res) { revert(0, 0) }                                     // safety check\n\n            returndatacopy(ptr, 0, returndatasize)                              // copy fnData into ptr\n            let ret := add(ptr, mload(ptr))                                     // ret is pointer to start of fnData\n\n            let m_injParams := add(ret, mload(add(ret, 0x20)))                  // mem loc injected params\n            let injParams_len := mload(m_injParams)                             // num injected params\n            m_injParams := add(m_injParams, 0x20)                               // first injected param\n\n            let m_dynParams := add(ret, mload(add(ret, 0x40)))                  // memory location of start of dynamic params\n            let dynParams_len := mload(m_dynParams)                             // num dynamic params\n            m_dynParams := add(m_dynParams, 0x20)                               // first dynamic param\n\n            // forward calldata to library\n            ptr := add(ptr, returndatasize)                                     // shift ptr to new scratch space\n            mstore(ptr, mload(ret))                                             // forward call with modified selector\n\n            let ptr2 := add(ptr, 0x04)                                          // copy of ptr for keeping track of injected params\n\n            mstore(ptr2, caller)                                                // inject msg.sender\n            ptr2 := add(ptr2, 0x20)                                             // shift ptr2\n\n            for { let i := 0 } lt(i, injParams_len) { i := add(i, 1) } {        // loop through injected params and insert\n                let injParam := mload(add(m_injParams, mul(i, 0x20)))           // get injected param slot\n                mstore(ptr2, injParam)                                          // store injected params into next slot\n                ptr2 := add(ptr2, 0x20)                                         // shift ptr2\n            }\n\n            calldatacopy(ptr2, 0x04, sub(calldatasize, 0x04))                   // copy calldata after injected data storage\n\n            // update dynamic params location\n            for { let i := 0 } lt(i, dynParams_len) { i := add(i, 1) } {\n                let idx := mload(add(m_dynParams, mul(i, 0x20)))                // get dynParam index in parameters\n                let loc := add(ptr2, mul(idx, 0x20))                            // get location in memory of dynParam\n                mstore(loc, add(mload(loc), mul(add(injParams_len, 1), 0x20)))  // shift dynParam location by num injected\n            }\n\n            let size := add(calldatasize, mul(add(injParams_len, 1), 0x20))     // calculate size of forwarded call\n            // log0(ptr, size)\n            res := delegatecall(gas, libAddress, ptr, size, 0, 0)               // delegatecall to library\n            if iszero(res) { revert(0, 0) }                                     // safety check\n\n            returndatacopy(ptr, 0, returndatasize)                              // copy return data into ptr for returning\n            return(ptr, returndatasize)                                         // return forwarded call returndata\n        }\n    }\n\n    function setContractTypeLibrary(uint256 _contractType, bytes32 _libraryName) public { // onlyOwner!!!\n        contractTypeToLibraryName[_contractType] = _libraryName;\n    }\n\n    function getContractTypeLibrary(uint256 _contractType) public view returns (bytes32) {\n        return contractTypeToLibraryName[_contractType];\n    }\n}\n\ninterface IMatryxPlatform {\n    function setContractTypeLibrary(uint256, bytes32) public;\n    function getContractTypeLibrary(uint256) public view returns (bytes32);\n\n    function getAllTournaments() public view returns (address[]);\n    function createTournament() public returns (address);\n    function enterTournament(address) public;\n}\n\nlibrary LibPlatform {\n    event TournamentCreated(address _tournamentAddress);\n\n    function getAllTournaments(address sender, MatryxPlatform.Data storage data) public view returns (address[]) {\n        return data.allTournaments;\n    }\n\n    function createTournament(address sender, MatryxPlatform.Info storage info, MatryxPlatform.Data storage data) public returns (address) {\n        address tournamentAddress = new MatryxTournament(info.version, info.proxy);\n        MatryxProxy(info.proxy).setContractType(tournamentAddress, MatryxProxy.ContractType.Tournament);\n        data.allTournaments.push(tournamentAddress);\n        emit TournamentCreated(tournamentAddress);\n\n        LibTournament.TournamentData storage tournament = data.tournaments[tournamentAddress];\n        tournament.owner = 0x7ac07ac0;\n\n        return tournamentAddress;\n    }\n\n    function enterTournament(address sender, MatryxPlatform.Data storage data, address _tournamentAddress) public {\n        // LibTournament.TournamentData storage tournamentData = data.tournaments[_tournamentAddress];\n        // do stuff to enter\n    }\n}\n",
  "sourcePath": "/Users/ajm13/Desktop/matryx/MatryxPlatform/contracts/MatryxPlatform.sol",
  "compiler": {
    "name": "solc",
    "version": "0.4.24+commit.e67f0147.Emscripten.clang"
  },
  "schemaVersion": "2.0.1",
  "updatedAt": "2018-09-14T00:22:19.678Z"
}