{
  "contractName": "MatryxPlatform",
  "abi": [
    {
      "constant": true,
      "inputs": [],
      "name": "matryxTournamentFactoryAddress",
      "outputs": [
        {
          "name": "",
          "type": "address"
        }
      ],
      "payable": false,
      "stateMutability": "view",
      "type": "function"
    },
    {
      "constant": true,
      "inputs": [],
      "name": "matryxTokenAddress",
      "outputs": [
        {
          "name": "",
          "type": "address"
        }
      ],
      "payable": false,
      "stateMutability": "view",
      "type": "function"
    },
    {
      "constant": true,
      "inputs": [
        {
          "name": "_sender",
          "type": "address"
        }
      ],
      "name": "isOwner",
      "outputs": [
        {
          "name": "_isOwner",
          "type": "bool"
        }
      ],
      "payable": false,
      "stateMutability": "view",
      "type": "function"
    },
    {
      "constant": true,
      "inputs": [
        {
          "name": "",
          "type": "address"
        }
      ],
      "name": "peerExists",
      "outputs": [
        {
          "name": "",
          "type": "bool"
        }
      ],
      "payable": false,
      "stateMutability": "view",
      "type": "function"
    },
    {
      "constant": true,
      "inputs": [],
      "name": "getOwner",
      "outputs": [
        {
          "name": "_owner",
          "type": "address"
        }
      ],
      "payable": false,
      "stateMutability": "view",
      "type": "function"
    },
    {
      "constant": true,
      "inputs": [],
      "name": "matryxRoundLibAddress",
      "outputs": [
        {
          "name": "",
          "type": "address"
        }
      ],
      "payable": false,
      "stateMutability": "view",
      "type": "function"
    },
    {
      "constant": true,
      "inputs": [],
      "name": "owner",
      "outputs": [
        {
          "name": "",
          "type": "address"
        }
      ],
      "payable": false,
      "stateMutability": "view",
      "type": "function"
    },
    {
      "constant": true,
      "inputs": [
        {
          "name": "",
          "type": "address"
        }
      ],
      "name": "ownerToPeerAndPeerToOwner",
      "outputs": [
        {
          "name": "",
          "type": "address"
        }
      ],
      "payable": false,
      "stateMutability": "view",
      "type": "function"
    },
    {
      "constant": true,
      "inputs": [],
      "name": "matryxPeerFactoryAddress",
      "outputs": [
        {
          "name": "",
          "type": "address"
        }
      ],
      "payable": false,
      "stateMutability": "view",
      "type": "function"
    },
    {
      "constant": true,
      "inputs": [],
      "name": "matryxSubmissionFactoryAddress",
      "outputs": [
        {
          "name": "",
          "type": "address"
        }
      ],
      "payable": false,
      "stateMutability": "view",
      "type": "function"
    },
    {
      "constant": true,
      "inputs": [],
      "name": "matryxSubmissionTrustLibAddress",
      "outputs": [
        {
          "name": "",
          "type": "address"
        }
      ],
      "payable": false,
      "stateMutability": "view",
      "type": "function"
    },
    {
      "constant": true,
      "inputs": [
        {
          "name": "",
          "type": "uint256"
        }
      ],
      "name": "categoryList",
      "outputs": [
        {
          "name": "",
          "type": "string"
        }
      ],
      "payable": false,
      "stateMutability": "view",
      "type": "function"
    },
    {
      "constant": true,
      "inputs": [
        {
          "name": "",
          "type": "uint256"
        }
      ],
      "name": "allTournaments",
      "outputs": [
        {
          "name": "",
          "type": "address"
        }
      ],
      "payable": false,
      "stateMutability": "view",
      "type": "function"
    },
    {
      "constant": false,
      "inputs": [
        {
          "name": "newOwner",
          "type": "address"
        }
      ],
      "name": "transferOwnership",
      "outputs": [],
      "payable": false,
      "stateMutability": "nonpayable",
      "type": "function"
    },
    {
      "inputs": [
        {
          "name": "_matryxTokenAddress",
          "type": "address"
        },
        {
          "name": "_matryxPeerFactoryAddress",
          "type": "address"
        },
        {
          "name": "_matryxTournamentFactoryAddress",
          "type": "address"
        },
        {
          "name": "_matryxSubmissionFactoryAddress",
          "type": "address"
        },
        {
          "name": "_matryxSubmissionTrustLibAddress",
          "type": "address"
        }
      ],
      "payable": false,
      "stateMutability": "nonpayable",
      "type": "constructor"
    },
    {
      "anonymous": false,
      "inputs": [
        {
          "indexed": false,
          "name": "_discipline",
          "type": "string"
        },
        {
          "indexed": false,
          "name": "_owner",
          "type": "address"
        },
        {
          "indexed": false,
          "name": "_tournamentAddress",
          "type": "address"
        },
        {
          "indexed": false,
          "name": "_tournamentName_1",
          "type": "bytes32"
        },
        {
          "indexed": false,
          "name": "_tournamentName_2",
          "type": "bytes32"
        },
        {
          "indexed": false,
          "name": "_tournamentName_3",
          "type": "bytes32"
        },
        {
          "indexed": false,
          "name": "_externalAddress_1",
          "type": "bytes32"
        },
        {
          "indexed": false,
          "name": "_externalAddress_2",
          "type": "bytes32"
        },
        {
          "indexed": false,
          "name": "_MTXReward",
          "type": "uint256"
        },
        {
          "indexed": false,
          "name": "_entryFee",
          "type": "uint256"
        }
      ],
      "name": "TournamentCreated",
      "type": "event"
    },
    {
      "anonymous": false,
      "inputs": [
        {
          "indexed": false,
          "name": "_tournamentAddress",
          "type": "address"
        },
        {
          "indexed": false,
          "name": "_tournamentName_1",
          "type": "bytes32"
        },
        {
          "indexed": false,
          "name": "_tournamentName_2",
          "type": "bytes32"
        },
        {
          "indexed": false,
          "name": "_tournamentName_3",
          "type": "bytes32"
        },
        {
          "indexed": false,
          "name": "_externalAddress_1",
          "type": "bytes32"
        },
        {
          "indexed": false,
          "name": "_externalAddress_2",
          "type": "bytes32"
        },
        {
          "indexed": false,
          "name": "_MTXReward",
          "type": "uint256"
        },
        {
          "indexed": false,
          "name": "_entryFee",
          "type": "uint256"
        }
      ],
      "name": "TournamentOpened",
      "type": "event"
    },
    {
      "anonymous": false,
      "inputs": [
        {
          "indexed": false,
          "name": "_tournamentAddress",
          "type": "address"
        },
        {
          "indexed": false,
          "name": "_finalRoundNumber",
          "type": "uint256"
        },
        {
          "indexed": false,
          "name": "_MTXReward",
          "type": "uint256"
        }
      ],
      "name": "TournamentClosed",
      "type": "event"
    },
    {
      "anonymous": false,
      "inputs": [
        {
          "indexed": false,
          "name": "_entrant",
          "type": "address"
        },
        {
          "indexed": false,
          "name": "_tournamentAddress",
          "type": "address"
        }
      ],
      "name": "UserEnteredTournament",
      "type": "event"
    },
    {
      "anonymous": false,
      "inputs": [
        {
          "indexed": false,
          "name": "queryID",
          "type": "string"
        }
      ],
      "name": "QueryID",
      "type": "event"
    },
    {
      "anonymous": false,
      "inputs": [
        {
          "indexed": false,
          "name": "time",
          "type": "uint256"
        }
      ],
      "name": "TimeStamp",
      "type": "event"
    },
    {
      "constant": false,
      "inputs": [
        {
          "name": "_tournamentName_1",
          "type": "bytes32"
        },
        {
          "name": "_tournamentName_2",
          "type": "bytes32"
        },
        {
          "name": "_tournamentName_3",
          "type": "bytes32"
        },
        {
          "name": "_externalAddress_1",
          "type": "bytes32"
        },
        {
          "name": "_externalAddress_2",
          "type": "bytes32"
        },
        {
          "name": "_MTXReward",
          "type": "uint256"
        },
        {
          "name": "_entryFee",
          "type": "uint256"
        }
      ],
      "name": "invokeTournamentOpenedEvent",
      "outputs": [],
      "payable": false,
      "stateMutability": "nonpayable",
      "type": "function"
    },
    {
      "constant": false,
      "inputs": [
        {
          "name": "_finalRoundNumber",
          "type": "uint256"
        },
        {
          "name": "_MTXReward",
          "type": "uint256"
        }
      ],
      "name": "invokeTournamentClosedEvent",
      "outputs": [],
      "payable": false,
      "stateMutability": "nonpayable",
      "type": "function"
    },
    {
      "constant": false,
      "inputs": [
        {
          "name": "_nameHash",
          "type": "bytes32"
        },
        {
          "name": "_contractAddress",
          "type": "address"
        }
      ],
      "name": "setContractAddress",
      "outputs": [],
      "payable": false,
      "stateMutability": "nonpayable",
      "type": "function"
    },
    {
      "constant": false,
      "inputs": [
        {
          "name": "_matryxTokenAddress",
          "type": "address"
        }
      ],
      "name": "setTokenAddress",
      "outputs": [],
      "payable": false,
      "stateMutability": "nonpayable",
      "type": "function"
    },
    {
      "constant": false,
      "inputs": [
        {
          "name": "_nameHash",
          "type": "bytes32"
        }
      ],
      "name": "getContractAddress",
      "outputs": [
        {
          "name": "contractAddress",
          "type": "address"
        }
      ],
      "payable": false,
      "stateMutability": "nonpayable",
      "type": "function"
    },
    {
      "constant": false,
      "inputs": [
        {
          "name": "_submissionAddress",
          "type": "address"
        },
        {
          "name": "_references",
          "type": "address[]"
        }
      ],
      "name": "handleReferenceRequestsForSubmission",
      "outputs": [
        {
          "name": "",
          "type": "bool"
        }
      ],
      "payable": false,
      "stateMutability": "nonpayable",
      "type": "function"
    },
    {
      "constant": false,
      "inputs": [
        {
          "name": "_reference",
          "type": "address"
        }
      ],
      "name": "handleReferenceRequestForSubmission",
      "outputs": [
        {
          "name": "",
          "type": "bool"
        }
      ],
      "payable": false,
      "stateMutability": "nonpayable",
      "type": "function"
    },
    {
      "constant": false,
      "inputs": [
        {
          "name": "_reference",
          "type": "address"
        }
      ],
      "name": "handleCancelledReferenceRequestForSubmission",
      "outputs": [
        {
          "name": "",
          "type": "bool"
        }
      ],
      "payable": false,
      "stateMutability": "nonpayable",
      "type": "function"
    },
    {
      "constant": false,
      "inputs": [
        {
          "name": "_owner",
          "type": "address"
        },
        {
          "name": "_submission",
          "type": "address"
        }
      ],
      "name": "updateSubmissions",
      "outputs": [],
      "payable": false,
      "stateMutability": "nonpayable",
      "type": "function"
    },
    {
      "constant": false,
      "inputs": [
        {
          "name": "_submissionAddress",
          "type": "address"
        },
        {
          "name": "_tournamentAddress",
          "type": "address"
        }
      ],
      "name": "removeSubmission",
      "outputs": [
        {
          "name": "",
          "type": "bool"
        }
      ],
      "payable": false,
      "stateMutability": "nonpayable",
      "type": "function"
    },
    {
      "constant": false,
      "inputs": [
        {
          "name": "_tournamentAddress",
          "type": "address"
        },
        {
          "name": "_category",
          "type": "string"
        }
      ],
      "name": "addTournamentToCategory",
      "outputs": [],
      "payable": false,
      "stateMutability": "nonpayable",
      "type": "function"
    },
    {
      "constant": false,
      "inputs": [
        {
          "name": "_tournamentAddress",
          "type": "address"
        },
        {
          "name": "_category",
          "type": "string"
        }
      ],
      "name": "removeTournamentFromCategory",
      "outputs": [],
      "payable": false,
      "stateMutability": "nonpayable",
      "type": "function"
    },
    {
      "constant": false,
      "inputs": [
        {
          "name": "_tournamentAddress",
          "type": "address"
        },
        {
          "name": "_oldCategory",
          "type": "string"
        },
        {
          "name": "_newCategory",
          "type": "string"
        }
      ],
      "name": "switchTournamentCategory",
      "outputs": [],
      "payable": false,
      "stateMutability": "nonpayable",
      "type": "function"
    },
    {
      "constant": true,
      "inputs": [
        {
          "name": "_category",
          "type": "string"
        }
      ],
      "name": "getTournamentsByCategory",
      "outputs": [
        {
          "name": "",
          "type": "address[]"
        }
      ],
      "payable": false,
      "stateMutability": "view",
      "type": "function"
    },
    {
      "constant": true,
      "inputs": [
        {
          "name": "_category",
          "type": "string"
        }
      ],
      "name": "getCategoryCount",
      "outputs": [
        {
          "name": "",
          "type": "uint256"
        }
      ],
      "payable": false,
      "stateMutability": "view",
      "type": "function"
    },
    {
      "constant": true,
      "inputs": [
        {
          "name": "_index",
          "type": "uint256"
        }
      ],
      "name": "getCategoryByIndex",
      "outputs": [
        {
          "name": "",
          "type": "string"
        }
      ],
      "payable": false,
      "stateMutability": "view",
      "type": "function"
    },
    {
      "constant": true,
      "inputs": [],
      "name": "getAllCategories",
      "outputs": [
        {
          "name": "",
          "type": "uint256"
        },
        {
          "name": "",
          "type": "string[]"
        }
      ],
      "payable": false,
      "stateMutability": "view",
      "type": "function"
    },
    {
      "constant": false,
      "inputs": [
        {
          "name": "_tournamentAddress",
          "type": "address"
        }
      ],
      "name": "enterTournament",
      "outputs": [
        {
          "name": "_success",
          "type": "bool"
        }
      ],
      "payable": false,
      "stateMutability": "nonpayable",
      "type": "function"
    },
    {
      "constant": false,
      "inputs": [
        {
          "components": [
            {
              "name": "category",
              "type": "string"
            },
            {
              "name": "title_1",
              "type": "bytes32"
            },
            {
              "name": "title_2",
              "type": "bytes32"
            },
            {
              "name": "title_3",
              "type": "bytes32"
            },
            {
              "name": "descriptionHash_1",
              "type": "bytes32"
            },
            {
              "name": "descriptionHash_2",
              "type": "bytes32"
            },
            {
              "name": "fileHash_1",
              "type": "bytes32"
            },
            {
              "name": "fileHash_2",
              "type": "bytes32"
            },
            {
              "name": "initialBounty",
              "type": "uint256"
            },
            {
              "name": "entryFee",
              "type": "uint256"
            }
          ],
          "name": "tournamentData",
          "type": "tuple"
        },
        {
          "components": [
            {
              "name": "start",
              "type": "uint256"
            },
            {
              "name": "end",
              "type": "uint256"
            },
            {
              "name": "reviewPeriodDuration",
              "type": "uint256"
            },
            {
              "name": "bounty",
              "type": "uint256"
            }
          ],
          "name": "roundData",
          "type": "tuple"
        }
      ],
      "name": "createTournament",
      "outputs": [
        {
          "name": "_tournamentAddress",
          "type": "address"
        }
      ],
      "payable": false,
      "stateMutability": "nonpayable",
      "type": "function"
    },
    {
      "constant": false,
      "inputs": [],
      "name": "createPeer",
      "outputs": [
        {
          "name": "",
          "type": "address"
        }
      ],
      "payable": false,
      "stateMutability": "nonpayable",
      "type": "function"
    },
    {
      "constant": true,
      "inputs": [
        {
          "name": "_peerAddress",
          "type": "address"
        }
      ],
      "name": "isPeer",
      "outputs": [
        {
          "name": "",
          "type": "bool"
        }
      ],
      "payable": false,
      "stateMutability": "view",
      "type": "function"
    },
    {
      "constant": true,
      "inputs": [
        {
          "name": "_sender",
          "type": "address"
        }
      ],
      "name": "hasPeer",
      "outputs": [
        {
          "name": "",
          "type": "bool"
        }
      ],
      "payable": false,
      "stateMutability": "view",
      "type": "function"
    },
    {
      "constant": true,
      "inputs": [
        {
          "name": "_peer",
          "type": "address"
        },
        {
          "name": "_reference",
          "type": "address"
        }
      ],
      "name": "peerExistsAndOwnsSubmission",
      "outputs": [
        {
          "name": "",
          "type": "bool"
        }
      ],
      "payable": false,
      "stateMutability": "view",
      "type": "function"
    },
    {
      "constant": true,
      "inputs": [
        {
          "name": "_sender",
          "type": "address"
        }
      ],
      "name": "peerAddress",
      "outputs": [
        {
          "name": "",
          "type": "address"
        }
      ],
      "payable": false,
      "stateMutability": "view",
      "type": "function"
    },
    {
      "constant": true,
      "inputs": [
        {
          "name": "_submissionAddress",
          "type": "address"
        }
      ],
      "name": "isSubmission",
      "outputs": [
        {
          "name": "",
          "type": "bool"
        }
      ],
      "payable": false,
      "stateMutability": "view",
      "type": "function"
    },
    {
      "constant": true,
      "inputs": [
        {
          "name": "_tournamentAddress",
          "type": "address"
        }
      ],
      "name": "getTournament_IsMine",
      "outputs": [
        {
          "name": "_isMine",
          "type": "bool"
        }
      ],
      "payable": false,
      "stateMutability": "view",
      "type": "function"
    },
    {
      "constant": false,
      "inputs": [
        {
          "name": "_gratitude",
          "type": "uint256"
        }
      ],
      "name": "setSubmissionGratitude",
      "outputs": [],
      "payable": false,
      "stateMutability": "nonpayable",
      "type": "function"
    },
    {
      "constant": true,
      "inputs": [],
      "name": "getNow",
      "outputs": [
        {
          "name": "",
          "type": "uint256"
        }
      ],
      "payable": false,
      "stateMutability": "view",
      "type": "function"
    },
    {
      "constant": true,
      "inputs": [],
      "name": "getTokenAddress",
      "outputs": [
        {
          "name": "",
          "type": "address"
        }
      ],
      "payable": false,
      "stateMutability": "view",
      "type": "function"
    },
    {
      "constant": true,
      "inputs": [],
      "name": "getTournamentFactoryAddress",
      "outputs": [
        {
          "name": "",
          "type": "address"
        }
      ],
      "payable": false,
      "stateMutability": "view",
      "type": "function"
    },
    {
      "constant": true,
      "inputs": [],
      "name": "getSubmissionTrustLibrary",
      "outputs": [
        {
          "name": "",
          "type": "address"
        }
      ],
      "payable": false,
      "stateMutability": "view",
      "type": "function"
    },
    {
      "constant": true,
      "inputs": [],
      "name": "getSubmissionGratitude",
      "outputs": [
        {
          "name": "",
          "type": "uint256"
        }
      ],
      "payable": false,
      "stateMutability": "view",
      "type": "function"
    },
    {
      "constant": true,
      "inputs": [],
      "name": "myTournaments",
      "outputs": [
        {
          "name": "",
          "type": "address[]"
        }
      ],
      "payable": false,
      "stateMutability": "view",
      "type": "function"
    },
    {
      "constant": true,
      "inputs": [],
      "name": "mySubmissions",
      "outputs": [
        {
          "name": "",
          "type": "address[]"
        }
      ],
      "payable": false,
      "stateMutability": "view",
      "type": "function"
    },
    {
      "constant": true,
      "inputs": [],
      "name": "tournamentCount",
      "outputs": [
        {
          "name": "_tournamentCount",
          "type": "uint256"
        }
      ],
      "payable": false,
      "stateMutability": "view",
      "type": "function"
    },
    {
      "constant": true,
      "inputs": [
        {
          "name": "_index",
          "type": "uint256"
        }
      ],
      "name": "getTournamentAtIndex",
      "outputs": [
        {
          "name": "_tournamentAddress",
          "type": "address"
        }
      ],
      "payable": false,
      "stateMutability": "view",
      "type": "function"
    },
    {
      "constant": true,
      "inputs": [],
      "name": "getTournaments",
      "outputs": [
        {
          "name": "",
          "type": "address[]"
        }
      ],
      "payable": false,
      "stateMutability": "view",
      "type": "function"
    },
    {
      "constant": false,
      "inputs": [],
      "name": "forceRevert",
      "outputs": [],
      "payable": false,
      "stateMutability": "nonpayable",
      "type": "function"
    }
  ],
  "bytecode": "0x60c0604052600160808190526702c68af0bb14000060a08190526018805460ff19169092179091556019553480156200003757600080fd5b5060405160a080620037ba8339810180604052620000599190810190620000db565b6000805433600160a060020a031991821617909155600180548216600160a060020a03978816179055600280548216958716959095179094556003805485169386169390931790925560048054841691851691909117905560058054909216921691909117905562000167565b6000620000d482516200015b565b9392505050565b600080600080600060a08688031215620000f457600080fd5b6000620001028888620000c6565b95505060206200011588828901620000c6565b94505060406200012888828901620000c6565b93505060606200013b88828901620000c6565b92505060806200014e88828901620000c6565b9150509295509295909350565b600160a060020a031690565b61364380620001776000396000f3006080604052600436106102715763ffffffff7c01000000000000000000000000000000000000000000000000000000006000350416630d2020dd811461027657806310fe9ae8146102ac57806311cf11ae146102c15780631411f0a8146102d85780631d2245f514610305578063201afb761461032757806326a4e8d21461034757806327252a0c1461036757806329cc545e1461037c5780632f54bf6e146103915780633e44cf78146103be5780633f1a4c11146103de57806351488bce146103fe578063532311c41461041e5780636a44e43d1461043e5780636e2b2c7c1461045e57806370e592b814610480578063818b5fa8146104a05780638764422f146104c05780638785494e146104e0578063893d20e8146105005780638ac70272146105155780638c593a8c1461052a5780638da5cb5b1461054a578063984ed2061461055f57806399db60dd1461057f578063a2d0ab471461059f578063a3e02f92146105b4578063a968c4b9146105d4578063ab9583d9146105f4578063ac17741b14610614578063b0ff549214610634578063b20a2dce14610649578063b2fad5541461065e578063b846e21c1461067e578063bbe4fd5014610693578063c13ae92a146106a8578063c21260a5146106c8578063c839984a146106e8578063c8ab6c8714610708578063d4f056d41461071d578063dadd0a571461073d578063e001f84114610760578063e139a20c14610780578063e14feaea14610795578063e8a0ed0d146107b5578063f2fde38b146107d5578063f3dc0d25146107f5578063f7468a3c1461080a578063f7c3609d1461082a578063f7f20cb31461083f578063fb5032d614610854575b600080fd5b34801561028257600080fd5b50610296610291366004612efb565b610874565b6040516102a391906132e4565b60405180910390f35b3480156102b857600080fd5b5061029661089c565b3480156102cd57600080fd5b506102d6610271565b005b3480156102e457600080fd5b506102f86102f3366004612efb565b6108b9565b6040516102a39190613401565b34801561031157600080fd5b5061031a610964565b6040516102a391906133c7565b34801561033357600080fd5b506102d6610342366004612f38565b6109dc565b34801561035357600080fd5b506102d6610362366004612d5a565b610a48565b34801561037357600080fd5b50610296610aa8565b34801561038857600080fd5b50610296610ac4565b34801561039d57600080fd5b506103b16103ac366004612d5a565b610ae0565b6040516102a391906133d8565b3480156103ca57600080fd5b506103b16103d9366004612d5a565b610b01565b3480156103ea57600080fd5b506102d66103f9366004612e18565b610b2c565b34801561040a57600080fd5b506103b1610419366004612d96565b610d50565b34801561042a57600080fd5b506103b1610439366004612d5a565b610dd4565b34801561044a57600080fd5b50610296610459366004612d5a565b610e01565b34801561046a57600080fd5b50610473610e2c565b6040516102a391906134f6565b34801561048c57600080fd5b506103b161049b366004612d5a565b610e32565b3480156104ac57600080fd5b506103b16104bb366004612d5a565b610e47565b3480156104cc57600080fd5b506102d66104db366004612e18565b610e72565b3480156104ec57600080fd5b506102d66104fb366004612e60565b611051565b34801561050c57600080fd5b506102966110cf565b34801561052157600080fd5b506102966110eb565b34801561053657600080fd5b506103b1610545366004612dd0565b611107565b34801561055657600080fd5b50610296611323565b34801561056b57600080fd5b5061029661057a366004612efb565b61133f565b34801561058b57600080fd5b5061029661059a366004612d5a565b611392565b3480156105ab57600080fd5b506102966113ba565b3480156105c057600080fd5b506102966105cf366004613016565b6113d6565b3480156105e057600080fd5b506103b16105ef366004612d96565b6116da565b34801561060057600080fd5b506102d661060f366004612d96565b61198d565b34801561062057600080fd5b5061031a61062f366004612fd4565b611ad4565b34801561064057600080fd5b50610296611b7c565b34801561065557600080fd5b50610473611b98565b34801561066a57600080fd5b506103b1610679366004612d5a565b611bb3565b34801561068a57600080fd5b50610296611d94565b34801561069f57600080fd5b50610473611db0565b3480156106b457600080fd5b506102d66106c3366004612efb565b611dee565b3480156106d457600080fd5b506102f86106e3366004612efb565b611e5c565b3480156106f457600080fd5b50610296610703366004612efb565b611f03565b34801561071457600080fd5b50610296611f38565b34801561072957600080fd5b50610473610738366004612fd4565b611f54565b34801561074957600080fd5b50610752611f99565b6040516102a3929190613504565b34801561076c57600080fd5b506102d661077b366004612f19565b61207f565b34801561078c57600080fd5b5061031a6120eb565b3480156107a157600080fd5b506102d66107b036600461307b565b612161565b3480156107c157600080fd5b506103b16107d0366004612d5a565b6121be565b3480156107e157600080fd5b506102d66107f0366004612d5a565b6122c8565b34801561080157600080fd5b5061029661234a565b34801561081657600080fd5b506103b1610825366004612d5a565b612366565b34801561083657600080fd5b506102966125fc565b34801561084b57600080fd5b5061031a61274e565b34801561086057600080fd5b506103b161086f366004612d5a565b6127bb565b60009081526007602052604090205473ffffffffffffffffffffffffffffffffffffffff1690565b60015473ffffffffffffffffffffffffffffffffffffffff165b90565b60606009828154811015156108ca57fe5b600091825260209182902001805460408051601f60026000196101006001871615020190941693909304928301859004850281018501909152818152928301828280156109585780601f1061092d57610100808354040283529160200191610958565b820191906000526020600020905b81548152906001019060200180831161093b57829003601f168201915b50505050509050919050565b336000908152601460209081526040918290208054835181840281018401909452808452606093928301828280156109d257602002820191906000526020600020905b815473ffffffffffffffffffffffffffffffffffffffff1681526001909101906020018083116109a7575b5050505050905090565b3360009081526012602052604090205460ff1615156109fa57600080fd5b7f3e40349bce5ead99eef5033f3d2a1fee1e99eb24e24880b94f234971d85923e63388888888888888604051610a37989796959493929190613335565b60405180910390a150505050505050565b60005473ffffffffffffffffffffffffffffffffffffffff163314610a6c57600080fd5b6001805473ffffffffffffffffffffffffffffffffffffffff191673ffffffffffffffffffffffffffffffffffffffff92909216919091179055565b60035473ffffffffffffffffffffffffffffffffffffffff1681565b60015473ffffffffffffffffffffffffffffffffffffffff1681565b60005473ffffffffffffffffffffffffffffffffffffffff91821691161490565b73ffffffffffffffffffffffffffffffffffffffff166000908152600f602052604090205460ff1690565b6000823373ffffffffffffffffffffffffffffffffffffffff82161480610b83575033600090815260156020908152604080832073ffffffffffffffffffffffffffffffffffffffff8516845290915290205460ff165b80610b8d57503330145b1515610b9857600080fd5b826040518082805190602001908083835b60208310610bc85780518252601f199092019160209182019101610ba9565b51815160209384036101000a600019018019909216911617905260408051929094018290039091206000818152600a909252929020549195505060ff1615159150610c5690505760098054600181018083556000929092528451610c53917f6e1540171b6c0c960b71a7020d9f60077f6af931a8bbf590da0223dacf75c7af01906020870190612a0f565b50505b6000828152600c6020908152604080832073ffffffffffffffffffffffffffffffffffffffff8816845290915290205460ff161515610d4a576000828152600c6020908152604080832073ffffffffffffffffffffffffffffffffffffffff881684528252808320805460ff19166001908117909155600e835292208551610ce5939190910191860190612a0f565b506000828152600b60208181526040808420805473ffffffffffffffffffffffffffffffffffffffff8a16808752600e85529286208190559383526001840181558452922001805473ffffffffffffffffffffffffffffffffffffffff191690911790555b50505050565b73ffffffffffffffffffffffffffffffffffffffff8083166000818152600f60209081526040808320548686168085526013845282852054958552601084528285205490961684526011835281842095845294909152812054909260ff9081169281169116828015610dbf5750815b8015610dc85750805b93505b50505092915050565b73ffffffffffffffffffffffffffffffffffffffff90811660009081526010602052604090205416151590565b73ffffffffffffffffffffffffffffffffffffffff9081166000908152601060205260409020541690565b60085490565b600f6020526000908152604090205460ff1681565b73ffffffffffffffffffffffffffffffffffffffff1660009081526013602052604090205460ff1690565b600080833373ffffffffffffffffffffffffffffffffffffffff82161480610eca575033600090815260156020908152604080832073ffffffffffffffffffffffffffffffffffffffff8516845290915290205460ff165b80610ed457503330145b1515610edf57600080fd5b836040518082805190602001908083835b60208310610f0f5780518252601f199092019160209182019101610ef0565b51815160209384036101000a600019018019909216911617905260408051929094018290039091206000818152600c835284812073ffffffffffffffffffffffffffffffffffffffff8d168252909252929020549196505060ff1615915061104a90505773ffffffffffffffffffffffffffffffffffffffff85166000818152600e6020908152604080832054878452600c8352818420948452938252808320805460ff19169055868352600b90915281208054929450909184908110610fd257fe5b6000918252602080832091909101805473ffffffffffffffffffffffffffffffffffffffff191673ffffffffffffffffffffffffffffffffffffffff9485161790559187168152600e82526040808220829055858252600d909252205461103a90600161297d565b6000848152600d60205260409020555b5050505050565b823373ffffffffffffffffffffffffffffffffffffffff821614806110a6575033600090815260156020908152604080832073ffffffffffffffffffffffffffffffffffffffff8516845290915290205460ff165b806110b057503330145b15156110bb57600080fd5b6110c58484610e72565b610d4a8483610b2c565b60005473ffffffffffffffffffffffffffffffffffffffff1690565b60065473ffffffffffffffffffffffffffffffffffffffff1681565b33600090815260126020526040812054819081908190819060ff16151561112d57600080fd5b600093505b855184101561131957858481518110151561114957fe5b90602001906020020151925061115e83610e47565b15156111695761130e565b8291508173ffffffffffffffffffffffffffffffffffffffff1663a5faa1256040518163ffffffff167c0100000000000000000000000000000000000000000000000000000000028152600401602060405180830381600087803b1580156111d057600080fd5b505af11580156111e4573d6000803e3d6000fd5b505050506040513d601f19601f820116820180604052506112089190810190612d78565b6040517fd1bbd31200000000000000000000000000000000000000000000000000000000815290915073ffffffffffffffffffffffffffffffffffffffff82169063d1bbd3129061125f908a9087906004016132f2565b600060405180830381600087803b15801561127957600080fd5b505af115801561128d573d6000803e3d6000fd5b505050508173ffffffffffffffffffffffffffffffffffffffff1663c7af35516040518163ffffffff167c0100000000000000000000000000000000000000000000000000000000028152600401600060405180830381600087803b1580156112f557600080fd5b505af1158015611309573d6000803e3d6000fd5b505050505b600190930192611132565b5050505092915050565b60005473ffffffffffffffffffffffffffffffffffffffff1681565b60008082101561134e57600080fd5b600854821061135c57600080fd5b600880548390811061136a57fe5b60009182526020909120015473ffffffffffffffffffffffffffffffffffffffff1692915050565b60106020526000908152604090205473ffffffffffffffffffffffffffffffffffffffff1681565b60025473ffffffffffffffffffffffffffffffffffffffff1681565b60035482516040517fa95abd8900000000000000000000000000000000000000000000000000000000815260009273ffffffffffffffffffffffffffffffffffffffff16918391839163a95abd899161143891908990899033906004016134ac565b602060405180830381600087803b15801561145257600080fd5b505af1158015611466573d6000803e3d6000fd5b505050506040513d601f19601f8201168201806040525061148a9190810190612d78565b90507f0a3eabe50f6fdb1131643d035f8bde7e91d600ba5d64c4a17de4d9c9fef3ec6385600001513383886020015189604001518a606001518b608001518c60a001518d61010001518e61012001516040516114ef9a99989796959493929190613412565b60405180910390a16001546101008601516040517f23b872dd00000000000000000000000000000000000000000000000000000000815273ffffffffffffffffffffffffffffffffffffffff909216916323b872dd91611555913391869160040161330d565b602060405180830381600087803b15801561156f57600080fd5b505af1158015611583573d6000803e3d6000fd5b505050506040513d601f19601f820116820180604052506115a79190810190612edd565b15156115b257600080fd5b60608401516040517f23721e2400000000000000000000000000000000000000000000000000000000815273ffffffffffffffffffffffffffffffffffffffff8316916323721e249161160a916000916004016133e6565b600060405180830381600087803b15801561162457600080fd5b505af1158015611638573d6000803e3d6000fd5b50506008805460018082019092557ff3f7a9fe364faab93b216da50a3214154f22a0a2b415b23a84c8169e8b636ee301805473ffffffffffffffffffffffffffffffffffffffff191673ffffffffffffffffffffffffffffffffffffffff86169081179091556000908152601260205260409020805460ff19169091179055506116c490503382612993565b6116d2818660000151610b2c565b949350505050565b73ffffffffffffffffffffffffffffffffffffffff811660009081526012602052604081205481908190819060ff16151561171457600080fd5b73ffffffffffffffffffffffffffffffffffffffff861660009081526013602052604090205460ff16151561174857600080fd5b33600090815260116020908152604080832073ffffffffffffffffffffffffffffffffffffffff8a16845290915290205460ff16151561178757600080fd5b8592508573ffffffffffffffffffffffffffffffffffffffff1663893d20e86040518163ffffffff167c0100000000000000000000000000000000000000000000000000000000028152600401602060405180830381600087803b1580156117ee57600080fd5b505af1158015611802573d6000803e3d6000fd5b505050506040513d601f19601f820116820180604052506118269190810190612d78565b73ffffffffffffffffffffffffffffffffffffffff8082166000818152601760209081526040808320948c1683529381528382206001015460138252848320805460ff1916905592825260169052919091208054929450909250908290811061188b57fe5b60009182526020808320909101805473ffffffffffffffffffffffffffffffffffffffff1916905573ffffffffffffffffffffffffffffffffffffffff84811683526017825260408084208a83168552909252818320805460ff1916815560010192909255517fa968c4b90000000000000000000000000000000000000000000000000000000081529086169063a968c4b99061192e90899086906004016132f2565b602060405180830381600087803b15801561194857600080fd5b505af115801561195c573d6000803e3d6000fd5b505050506040513d601f19601f820116820180604052506119809190810190612edd565b5060019695505050505050565b336000818152601260205260408082205481517f4c6962546f75726e616d656e74456e7472616e744d6574686f647300000000008152915191829003601b0190912060ff90911692906119df90610874565b73ffffffffffffffffffffffffffffffffffffffff161490508180611a015750805b1515611a0c57600080fd5b5050604080518082018252600180825273ffffffffffffffffffffffffffffffffffffffff948516600081815260166020908152858220805482870190815284845260178352878420989099168084529782528683209551865490151560ff1991821617875598519585019590955584548085018655948252808220909401805473ffffffffffffffffffffffffffffffffffffffff191687179055908152601183528381209481529382528284208054861682179055601390915291208054909216179055565b6060600b6000848460405180838380828437820191505092505050604051809103902060001916600019168152602001908152602001600020805480602002602001604051908101604052809291908181526020018280548015611b6e57602002820191906000526020600020905b815473ffffffffffffffffffffffffffffffffffffffff168152600190910190602001808311611b43575b505050505090505b92915050565b60045473ffffffffffffffffffffffffffffffffffffffff1681565b60185460009060ff161515611bac57600080fd5b5060195490565b336000908152601360205260408120548190819060ff161515611bd557600080fd5b611bde84610e47565b1515611be957600080fd5b8391508173ffffffffffffffffffffffffffffffffffffffff1663a5faa1256040518163ffffffff167c0100000000000000000000000000000000000000000000000000000000028152600401602060405180830381600087803b158015611c5057600080fd5b505af1158015611c64573d6000803e3d6000fd5b505050506040513d601f19601f82011682018060405250611c889190810190612d78565b6040517fd1bbd31200000000000000000000000000000000000000000000000000000000815290915073ffffffffffffffffffffffffffffffffffffffff82169063d1bbd31290611cdf90339088906004016132f2565b600060405180830381600087803b158015611cf957600080fd5b505af1158015611d0d573d6000803e3d6000fd5b505050508173ffffffffffffffffffffffffffffffffffffffff1663c7af35516040518163ffffffff167c0100000000000000000000000000000000000000000000000000000000028152600401600060405180830381600087803b158015611d7557600080fd5b505af1158015611d89573d6000803e3d6000fd5b505050505050919050565b60055473ffffffffffffffffffffffffffffffffffffffff1681565b60007fdfbf6547deaf4fa5dd154ec1daf5350032f31d34e4c755104dfbf6049163c08742604051611de191906134f6565b60405180910390a1504290565b60005473ffffffffffffffffffffffffffffffffffffffff163314611e1257600080fd5b60008110158015611e2b5750670de0b6b3a76400008111155b1515611e3357fe5b60408051808201909152600180825260209091018290526018805460ff19169091179055601955565b6009805482908110611e6a57fe5b600091825260209182902001805460408051601f6002600019610100600187161502019094169390930492830185900485028101850190915281815293509091830182828015611efb5780601f10611ed057610100808354040283529160200191611efb565b820191906000526020600020905b815481529060010190602001808311611ede57829003601f168201915b505050505081565b6008805482908110611f1157fe5b60009182526020909120015473ffffffffffffffffffffffffffffffffffffffff16905081565b60035473ffffffffffffffffffffffffffffffffffffffff1690565b600080838360405180838380828437604080519190930181900390206000908152600d602090815283822054600b909152929020549190910398975050505050505050565b60006060600980549050600980805480602002602001604051908101604052809291908181526020016000905b828210156120715760008481526020908190208301805460408051601f600260001961010060018716150201909416939093049283018590048502810185019091528181529283018282801561205d5780601f106120325761010080835404028352916020019161205d565b820191906000526020600020905b81548152906001019060200180831161204057829003601f168201915b505050505081526020019060010190611fc6565b505050509050915091509091565b60005473ffffffffffffffffffffffffffffffffffffffff1633146120a357600080fd5b600091825260076020526040909120805473ffffffffffffffffffffffffffffffffffffffff191673ffffffffffffffffffffffffffffffffffffffff909216919091179055565b336000908152601660209081526040918290208054835181840281018401909452808452606093928301828280156109d25760200282019190600052602060002090815473ffffffffffffffffffffffffffffffffffffffff1681526001909101906020018083116109a7575050505050905090565b3360009081526012602052604090205460ff16151561217f57600080fd5b7f575670c81f31b6e19bd59bbbe1729f3f052ae8a508d3977e1e1b2b752a256edb3383836040516121b2939291906133ac565b60405180910390a15050565b73ffffffffffffffffffffffffffffffffffffffff8116600090815260126020526040812054819060ff1615156121f457600080fd5b8290503373ffffffffffffffffffffffffffffffffffffffff168173ffffffffffffffffffffffffffffffffffffffff1663893d20e86040518163ffffffff167c0100000000000000000000000000000000000000000000000000000000028152600401602060405180830381600087803b15801561227257600080fd5b505af1158015612286573d6000803e3d6000fd5b505050506040513d601f19601f820116820180604052506122aa9190810190612d78565b73ffffffffffffffffffffffffffffffffffffffff16149392505050565b60005473ffffffffffffffffffffffffffffffffffffffff1633146122ec57600080fd5b73ffffffffffffffffffffffffffffffffffffffff8116151561230e57600080fd5b6000805473ffffffffffffffffffffffffffffffffffffffff191673ffffffffffffffffffffffffffffffffffffffff92909216919091179055565b60055473ffffffffffffffffffffffffffffffffffffffff1690565b6000806000803361237681610dd4565b151561238157600080fd5b8573ffffffffffffffffffffffffffffffffffffffff871660009081526012602052604090205460ff1615156123b657600080fd5b8694508473ffffffffffffffffffffffffffffffffffffffff1663e586a4f06040518163ffffffff167c0100000000000000000000000000000000000000000000000000000000028152600401602060405180830381600087803b15801561241d57600080fd5b505af1158015612431573d6000803e3d6000fd5b505050506040513d601f19601f82011682018060405250612455919081019061305d565b6001546040517f23b872dd00000000000000000000000000000000000000000000000000000000815291955073ffffffffffffffffffffffffffffffffffffffff16906323b872dd906124b09033908b90899060040161330d565b602060405180830381600087803b1580156124ca57600080fd5b505af11580156124de573d6000803e3d6000fd5b505050506040513d601f19601f820116820180604052506125029190810190612edd565b92508215611980576040517f28d576d700000000000000000000000000000000000000000000000000000000815273ffffffffffffffffffffffffffffffffffffffff8616906328d576d79061255c9033906004016132e4565b602060405180830381600087803b15801561257657600080fd5b505af115801561258a573d6000803e3d6000fd5b505050506040513d601f19601f820116820180604052506125ae9190810190612edd565b92508215611980577f5891a745b8d042d48bd1e4aed889e63bdc3e44242bb75694ea97573460e03a8b33886040516125e79291906132f2565b60405180910390a15060019695505050505050565b336000908152601060205260408120548190819073ffffffffffffffffffffffffffffffffffffffff161561263057600080fd5b6002546040517f48bf957700000000000000000000000000000000000000000000000000000000815273ffffffffffffffffffffffffffffffffffffffff909116925082906348bf9577906126899033906004016132e4565b602060405180830381600087803b1580156126a357600080fd5b505af11580156126b7573d6000803e3d6000fd5b505050506040513d601f19601f820116820180604052506126db9190810190612d78565b73ffffffffffffffffffffffffffffffffffffffff166000818152600f60209081526040808320805460ff19166001179055338084526010909252808320805473ffffffffffffffffffffffffffffffffffffffff19908116861790915593835290912080549092161790555090919050565b606060088054806020026020016040519081016040528092919081815260200182805480156109d25760200282019190600052602060002090815473ffffffffffffffffffffffffffffffffffffffff1681526001909101906020018083116109a7575050505050905090565b336000908152601360205260408120548190819060ff1615156127dd57600080fd5b6127e684610e47565b15156127f157600080fd5b8391508173ffffffffffffffffffffffffffffffffffffffff1663a5faa1256040518163ffffffff167c0100000000000000000000000000000000000000000000000000000000028152600401602060405180830381600087803b15801561285857600080fd5b505af115801561286c573d6000803e3d6000fd5b505050506040513d601f19601f820116820180604052506128909190810190612d78565b6040517fa1cc4ac100000000000000000000000000000000000000000000000000000000815290915073ffffffffffffffffffffffffffffffffffffffff82169063a1cc4ac1906128e790339088906004016132f2565b600060405180830381600087803b15801561290157600080fd5b505af1158015612915573d6000803e3d6000fd5b505050508173ffffffffffffffffffffffffffffffffffffffff1663444e31ca6040518163ffffffff167c0100000000000000000000000000000000000000000000000000000000028152600401600060405180830381600087803b158015611d7557600080fd5b60008282018381101561298c57fe5b9392505050565b73ffffffffffffffffffffffffffffffffffffffff918216600081815260146020908152604080832080546001808201835591855283852001805473ffffffffffffffffffffffffffffffffffffffff19169690971695861790965592825260158152828220938252929092529020805460ff19169091179055565b828054600181600116156101000203166002900490600052602060002090601f016020900481019282601f10612a5057805160ff1916838001178555612a7d565b82800160010185558215612a7d579182015b82811115612a7d578251825591602001919060010190612a62565b50612a89929150612a8d565b5090565b6108b691905b80821115612a895760008155600101612a93565b600061298c823561359e565b600061298c825161359e565b6000601f82018313612ad057600080fd5b8135612ae3612ade8261354b565b613524565b91508181835260208401935060208101905083856020840282011115612b0857600080fd5b60005b838110156113195781612b1e8882612aa7565b8452506020928301929190910190600101612b0b565b600061298c82516135b7565b600061298c82356108b6565b600080601f83018413612b5e57600080fd5b50813567ffffffffffffffff811115612b7657600080fd5b602083019150836001820283011115612b8e57600080fd5b9250929050565b6000601f82018313612ba657600080fd5b8135612bb4612ade8261356c565b91508082526020830160208301858383011115612bd057600080fd5b610dcb8382846135c7565b600060808284031215612bed57600080fd5b612bf76080613524565b90506000612c058484612b40565b8252506020612c1684848301612b40565b6020830152506040612c2a84828501612b40565b6040830152506060612c3e84828501612b40565b60608301525092915050565b60006101408284031215612c5d57600080fd5b612c68610140613524565b9050813567ffffffffffffffff811115612c8157600080fd5b612c8d84828501612b95565b8252506020612c9e84848301612b40565b6020830152506040612cb284828501612b40565b6040830152506060612cc684828501612b40565b6060830152506080612cda84828501612b40565b60808301525060a0612cee84828501612b40565b60a08301525060c0612d0284828501612b40565b60c08301525060e0612d1684828501612b40565b60e083015250610100612d2b84828501612b40565b61010083015250610120612d4184828501612b40565b6101208301525092915050565b600061298c82516108b6565b600060208284031215612d6c57600080fd5b60006116d28484612aa7565b600060208284031215612d8a57600080fd5b60006116d28484612ab3565b60008060408385031215612da957600080fd5b6000612db58585612aa7565b9250506020612dc685828601612aa7565b9150509250929050565b60008060408385031215612de357600080fd5b6000612def8585612aa7565b925050602083013567ffffffffffffffff811115612e0c57600080fd5b612dc685828601612abf565b60008060408385031215612e2b57600080fd5b6000612e378585612aa7565b925050602083013567ffffffffffffffff811115612e5457600080fd5b612dc685828601612b95565b600080600060608486031215612e7557600080fd5b6000612e818686612aa7565b935050602084013567ffffffffffffffff811115612e9e57600080fd5b612eaa86828701612b95565b925050604084013567ffffffffffffffff811115612ec757600080fd5b612ed386828701612b95565b9150509250925092565b600060208284031215612eef57600080fd5b60006116d28484612b34565b600060208284031215612f0d57600080fd5b60006116d28484612b40565b60008060408385031215612f2c57600080fd5b6000612db58585612b40565b600080600080600080600060e0888a031215612f5357600080fd5b6000612f5f8a8a612b40565b9750506020612f708a828b01612b40565b9650506040612f818a828b01612b40565b9550506060612f928a828b01612b40565b9450506080612fa38a828b01612b40565b93505060a0612fb48a828b01612b40565b92505060c0612fc58a828b01612b40565b91505092959891949750929550565b60008060208385031215612fe757600080fd5b823567ffffffffffffffff811115612ffe57600080fd5b61300a85828601612b4c565b92509250509250929050565b60008060a0838503121561302957600080fd5b823567ffffffffffffffff81111561304057600080fd5b61304c85828601612c4a565b9250506020612dc685828601612bdb565b60006020828403121561306f57600080fd5b60006116d28484612d4e565b6000806040838503121561308e57600080fd5b600061309a8585612b40565b9250506020612dc685828601612b40565b6130b48161359e565b82525050565b60006130c58261359a565b8084526020840193506130d783613594565b60005b82811015613107576130ed8683516130ab565b6130f682613594565b6020969096019591506001016130da565b5093949350505050565b600061311c8261359a565b8084526020840193508360208202850161313585613594565b60005b8481101561316c578383038852613150838351613193565b925061315b82613594565b602098909801979150600101613138565b50909695505050505050565b6130b4816135b7565b6130b4816108b6565b6130b4816135bc565b600061319e8261359a565b8084526131b28160208601602086016135d3565b6131bb816135ff565b9093016020019392505050565b805160808301906131d98482613181565b5060208201516131ec6020850182613181565b5060408201516131ff6040850182613181565b506060820151610d4a6060850182613181565b80516101408084526000919084019061322b8282613193565b91505060208301516132406020860182613181565b5060408301516132536040860182613181565b5060608301516132666060860182613181565b5060808301516132796080860182613181565b5060a083015161328c60a0860182613181565b5060c083015161329f60c0860182613181565b5060e08301516132b260e0860182613181565b506101008301516132c7610100860182613181565b506101208301516132dc610120860182613181565b509392505050565b60208101611b7682846130ab565b6040810161330082856130ab565b61298c60208301846130ab565b6060810161331b82866130ab565b61332860208301856130ab565b6116d26040830184613181565b6101008101613344828b6130ab565b613351602083018a613181565b61335e6040830189613181565b61336b6060830188613181565b6133786080830187613181565b61338560a0830186613181565b61339260c0830185613181565b61339f60e0830184613181565b9998505050505050505050565b606081016133ba82866130ab565b6133286020830185613181565b6020808252810161298c81846130ba565b60208101611b768284613178565b604081016133f4828561318a565b61298c6020830184613181565b6020808252810161298c8184613193565b6101408082528101613424818d613193565b9050613433602083018c6130ab565b613440604083018b6130ab565b61344d606083018a613181565b61345a6080830189613181565b61346760a0830188613181565b61347460c0830187613181565b61348160e0830186613181565b61348f610100830185613181565b61349d610120830184613181565b9b9a5050505050505050505050565b60e080825281016134bd8187613193565b905081810360208301526134d18186613212565b90506134e060408301856131c8565b6134ed60c08301846130ab565b95945050505050565b60208101611b768284613181565b604081016135128285613181565b81810360208301526116d28184613111565b60405181810167ffffffffffffffff8111828210171561354357600080fd5b604052919050565b600067ffffffffffffffff82111561356257600080fd5b5060209081020190565b600067ffffffffffffffff82111561358357600080fd5b506020601f91909101601f19160190565b60200190565b5190565b73ffffffffffffffffffffffffffffffffffffffff1690565b151590565b6000611b76826108b6565b82818337506000910152565b60005b838110156135ee5781810151838201526020016135d6565b83811115610d4a5750506000910152565b601f01601f1916905600a265627a7a7230582030bae03156004ff77a0c15e4cebce452af116c51694ef4ae65eafe216066e0316c6578706572696d656e74616cf50037",
  "source": "pragma solidity ^0.4.18;\npragma experimental ABIEncoderV2;\n\nimport \"../libraries/math/SafeMath.sol\";\nimport \"../libraries/math/SafeMath128.sol\";\nimport \"../interfaces/IMatryxToken.sol\";\nimport \"../interfaces/IMatryxPeer.sol\";\nimport \"../interfaces/IMatryxPlatform.sol\";\nimport \"../interfaces/factories/IMatryxPeerFactory.sol\";\nimport \"../interfaces/factories/IMatryxTournamentFactory.sol\";\nimport \"../interfaces/IMatryxTournament.sol\";\nimport \"../interfaces/IMatryxRound.sol\";\nimport \"../interfaces/IMatryxSubmission.sol\";\nimport \"./Ownable.sol\";\n\n/// @title MatryxPlatform - The Matryx platform contract.\n/// @author Max Howard - <max@nanome.ai>, Sam Hessenauer - <sam@nanome.ai>\ncontract MatryxPlatform is Ownable {\n    using SafeMath for uint256;\n    using SafeMath128 for uint128;\n\n    // TODO: condense and put in structs\n    address public matryxTokenAddress;\n    address public matryxPeerFactoryAddress;\n    address public matryxTournamentFactoryAddress;\n    address public matryxSubmissionFactoryAddress;\n    address public matryxSubmissionTrustLibAddress;\n    address public matryxRoundLibAddress;\n\n    mapping(bytes32=>address) private contracts;\n\n    address[] public allTournaments;\n    // bytes32 public hashOfTopCategory;\n    // bytes32 public hashOfLastCategory;\n    // mapping(uint256=>bytes32) public  topCategoryByCount;\n    // mapping(bytes32=>category) public categoryIterator;\n    string[] public categoryList;\n    mapping(bytes32=>bool) categoryExists;\n    mapping(bytes32=>address[]) categoryHashToTournamentList;\n    mapping(bytes32=>mapping(address=>bool)) tournamentExistsInCategory;\n    mapping(bytes32=>uint256) emptyCountByCategory;\n    mapping(address=>CategoryInfo) tournamentAddressToCategoryInfo;\n\n    mapping(address=>bool) public peerExists;\n    mapping(address=>address) public ownerToPeerAndPeerToOwner;\n    mapping(address=>mapping(address=>bool)) addressToOwnsSubmission;\n    mapping(address=>bool) tournamentExists;\n    mapping(address=>bool) submissionExists;\n\n    mapping(address=>address[]) ownerToTournamentArray;\n    mapping(address=>mapping(address=>bool)) entrantToOwnsTournament;\n    mapping(address=>address[]) ownerToSubmissionArray;\n    mapping(address=>mapping(address=>uint256_optional))  ownerToSubmissionToSubmissionIndex;\n\n    // Hyperparams\n    uint256_optional submissionGratitude = uint256_optional({exists: true, value: 2*10**17});\n\n    function MatryxPlatform(address _matryxTokenAddress, address _matryxPeerFactoryAddress, address _matryxTournamentFactoryAddress, address _matryxSubmissionFactoryAddress, address _matryxSubmissionTrustLibAddress) public\n    {\n        matryxTokenAddress = _matryxTokenAddress;\n        matryxPeerFactoryAddress = _matryxPeerFactoryAddress;\n        matryxTournamentFactoryAddress = _matryxTournamentFactoryAddress;\n        matryxSubmissionFactoryAddress = _matryxSubmissionFactoryAddress;\n        matryxSubmissionTrustLibAddress = _matryxSubmissionTrustLibAddress;\n    }\n\n    /*\n    * Structs\n    */\n\n    struct uint256_optional\n    {\n        bool exists;\n        uint256 value;\n    }\n\n    struct CategoryInfo \n    {\n        uint256 index;\n        string category;\n    }\n\n    /*\n    * Events\n    */\n    event TournamentCreated(string _discipline, address _owner, address _tournamentAddress, bytes32 _tournamentName_1, bytes32 _tournamentName_2, bytes32 _tournamentName_3, bytes32 _externalAddress_1, bytes32 _externalAddress_2, uint256 _MTXReward, uint256 _entryFee);\n    event TournamentOpened(address _tournamentAddress, bytes32 _tournamentName_1, bytes32 _tournamentName_2, bytes32 _tournamentName_3, bytes32 _externalAddress_1, bytes32 _externalAddress_2, uint256 _MTXReward, uint256 _entryFee);\n    event TournamentClosed(address _tournamentAddress, uint256 _finalRoundNumber, uint256 _MTXReward);\n    event UserEnteredTournament(address _entrant, address _tournamentAddress);\n    event QueryID(string queryID);\n\n    /// @dev Allows tournaments to invoke tournamentOpened events on the platform.\n    /// @param _tournamentName_1 First part of the tournament name.\n    /// @param _tournamentName_2 Second part of the tournament name.\n    /// @param _tournamentName_3 Third part of the tournament name.\n    /// @param _externalAddress_1 First part of the external address of the tournament.\n    /// @param _externalAddress_2 Second part of the external address of the tournament.\n    /// @param _MTXReward Reward for winning the tournament.\n    /// @param _entryFee Fee for entering into the tournament.\n    function invokeTournamentOpenedEvent(bytes32 _tournamentName_1, bytes32 _tournamentName_2, bytes32 _tournamentName_3, bytes32 _externalAddress_1, bytes32 _externalAddress_2, uint256 _MTXReward, uint256 _entryFee) public onlyTournament\n    {\n        TournamentOpened(msg.sender, _tournamentName_1, _tournamentName_2, _tournamentName_3, _externalAddress_1, _externalAddress_2, _MTXReward, _entryFee);\n    }\n\n    /// @dev Allows tournaments to invoke tournamentClosed events on the platform.\n    /// @param _finalRoundNumber Index of the round containing the winning submission.\n    function invokeTournamentClosedEvent(uint256 _finalRoundNumber, uint256 _MTXReward) public onlyTournament\n    {\n        TournamentClosed(msg.sender, _finalRoundNumber, _MTXReward);\n    }\n\n    /* \n    * Modifiers\n    */\n\n    modifier onlyTournament\n    {\n        require(tournamentExists[msg.sender]);\n        _;\n    }\n\n    modifier onlyTournamentOrTournamentLib\n    {\n        bool isTournament = tournamentExists[msg.sender];\n        bool isTournamentLib = getContractAddress(sha3(\"LibTournamentEntrantMethods\")) == msg.sender;\n\n        require(isTournament || isTournamentLib);\n        _;\n    }\n\n    modifier onlySubmission\n    {\n        require(submissionExists[msg.sender]);\n        _;\n    }\n\n    modifier onlyPeerLinked(address _sender)\n    {\n        require(hasPeer(_sender));\n        _;\n    }\n\n    modifier onlyTournamentOwnerOrPlatform(address _tournamentAddress)\n    {\n        require(msg.sender == _tournamentAddress || entrantToOwnsTournament[msg.sender][_tournamentAddress] || msg.sender == address(this));\n        _;\n    }\n\n    modifier notOwner(address _tournamentAddress)\n    {\n        require(true);\n        // require(entrantToOwnsTournament[msg.sender][_tournamentAddress] == false);\n        _;\n    }\n\n    /*\n    * State Maintenance Methods\n    */\n\n    /// @dev Sets an address for a contract the platform should know about.\n    /// @param _nameHash Keccak256 hash of the name of the contract to give an address to.\n    /// @param _contractAddress Address to be assigned for the given contract name.\n    function setContractAddress(bytes32 _nameHash, address _contractAddress) public onlyOwner\n    {\n        contracts[_nameHash] = _contractAddress;\n    }\n\n\n    function setTokenAddress(address _matryxTokenAddress) public onlyOwner\n    {\n        matryxTokenAddress = _matryxTokenAddress;\n    }\n\n    /// @dev Gets the address of a contract the platform knows about.\n    /// @param _nameHash Keccak256 hash of the name of the contract to look for.\n    /// @return Address of the contract with the designated name.\n    function getContractAddress(bytes32 _nameHash) public returns (address contractAddress)\n    {\n        return contracts[_nameHash];\n    }\n\n    // @dev Sends out reference requests for a particular submission.\n    // @param _references Reference whose authors will be sent requests.\n    // @returns Whether or not all references were successfully sent a request.\n    function handleReferenceRequestsForSubmission(address _submissionAddress, address[] _references) public onlyTournament returns (bool) \n    {\n        for(uint256 i = 0; i < _references.length; i++)\n        {\n        address _referenceAddress = _references[i];\n\n        if(!isSubmission(_referenceAddress))\n        {\n            // TODO: Introduce uint error codes\n            // for returning things like \"Reference _ is not submission\"\n            continue;\n        }\n\n        IMatryxSubmission submission = IMatryxSubmission(_referenceAddress);\n        address author = submission.getAuthor();\n        IMatryxPeer(author).receiveReferenceRequest(_submissionAddress, _referenceAddress);\n        submission.receiveReferenceRequest();\n        }\n    }\n\n    // @dev Sends out a reference request for a submission (must be called by the submission).\n    // @param _reference Reference whose author will be sent a request.\n    // @returns Whether or not all references were successfully sent a request.\n    function handleReferenceRequestForSubmission(address _reference) public onlySubmission returns (bool)\n    {\n        require(isSubmission(_reference));\n        IMatryxSubmission submission = IMatryxSubmission(_reference);\n        address author = submission.getAuthor();\n        IMatryxPeer(author).receiveReferenceRequest(msg.sender, _reference);\n        submission.receiveReferenceRequest();\n    }\n\n    function handleCancelledReferenceRequestForSubmission(address _reference) public onlySubmission returns (bool)\n    {\n        require(isSubmission(_reference));\n        IMatryxSubmission submission = IMatryxSubmission(_reference);\n        address author = submission.getAuthor();\n        IMatryxPeer(author).receiveCancelledReferenceRequest(msg.sender, _reference);\n        submission.cancelReferenceRequest();\n    }\n\n    function updateUsersTournaments(address _owner, address _tournament) internal\n    {\n        ownerToTournamentArray[_owner].push(_tournament);\n        entrantToOwnsTournament[_owner][_tournament] = true;\n    }\n\n    function updateSubmissions(address _owner, address _submission) public onlyTournamentOrTournamentLib\n    {\n        ownerToSubmissionToSubmissionIndex[_owner][_submission] = uint256_optional({exists:true, value:ownerToSubmissionArray[_owner].length});\n        ownerToSubmissionArray[_owner].push(_submission);\n        addressToOwnsSubmission[_owner][_submission] = true;\n        submissionExists[_submission] = true;\n    }\n\n    function removeSubmission(address _submissionAddress, address _tournamentAddress) public returns (bool)\n    {\n        require(tournamentExists[_tournamentAddress]);\n        require(submissionExists[_submissionAddress]);\n        require(addressToOwnsSubmission[msg.sender][_submissionAddress]);\n\n        IMatryxSubmission submission = IMatryxSubmission(_submissionAddress);\n        address owner = Ownable(_submissionAddress).getOwner();\n        uint256 submissionIndex = ownerToSubmissionToSubmissionIndex[owner][_submissionAddress].value;\n\n        submissionExists[_submissionAddress] = false;\n        delete ownerToSubmissionArray[owner][submissionIndex];\n        delete ownerToSubmissionToSubmissionIndex[owner][_submissionAddress];\n\n        IMatryxTournament(_tournamentAddress).removeSubmission(_submissionAddress, owner);\n        return true;\n    }\n\n    function addTournamentToCategory(address _tournamentAddress, string _category) public onlyTournamentOwnerOrPlatform(_tournamentAddress)\n    {\n        bytes32 categoryHash = sha3(_category);\n        if(categoryExists[categoryHash] == false)\n        {\n        categoryList.push(_category);\n        }\n\n        if(tournamentExistsInCategory[categoryHash][_tournamentAddress] == false)\n        {\n        tournamentExistsInCategory[categoryHash][_tournamentAddress] = true;\n        tournamentAddressToCategoryInfo[_tournamentAddress].category = _category;\n        tournamentAddressToCategoryInfo[_tournamentAddress].index = (categoryHashToTournamentList[categoryHash]).length;\n        categoryHashToTournamentList[categoryHash].push(_tournamentAddress);\n        }\n    }\n\n    function removeTournamentFromCategory(address _tournamentAddress, string _category) public onlyTournamentOwnerOrPlatform(_tournamentAddress)\n    {\n        bytes32 categoryHash = sha3(_category);\n        if(tournamentExistsInCategory[categoryHash][_tournamentAddress])\n        {\n        // It's there! Let's remove it\n        uint256 indexInCategoryList = tournamentAddressToCategoryInfo[_tournamentAddress].index;\n        tournamentExistsInCategory[categoryHash][_tournamentAddress] = false;\n        categoryHashToTournamentList[categoryHash][indexInCategoryList] = 0x0;\n        tournamentAddressToCategoryInfo[_tournamentAddress].index = 0;\n        emptyCountByCategory[categoryHash] = emptyCountByCategory[categoryHash].add(1);\n        }\n    }\n\n    function switchTournamentCategory(address _tournamentAddress, string _oldCategory, string _newCategory) public onlyTournamentOwnerOrPlatform(_tournamentAddress)\n    {\n        removeTournamentFromCategory(_tournamentAddress, _oldCategory);\n        addTournamentToCategory(_tournamentAddress, _newCategory);\n    }\n\n    function getTournamentsByCategory(string _category) external view returns (address[])\n    {\n        return categoryHashToTournamentList[sha3(_category)];\n    }\n\n    function getCategoryCount(string _category) external view returns (uint256)\n    {\n        bytes32 categoryHash = sha3(_category);\n        return categoryHashToTournamentList[categoryHash].length - emptyCountByCategory[categoryHash];\n    }\n\n    function getCategoryByIndex(uint256 _index) public view returns (string)\n    {\n        return categoryList[_index];\n    }\n\n    function getAllCategories() public view returns (uint256, string[])\n    {\n        return (categoryList.length, categoryList);\n    }\n\n    // function switchTournamentCategory(string discipline) onlyTournament public\n    // {\n    //   revert();\n    // }\n\n    /* \n    * Tournament Entry Methods\n    */\n\n    /// @dev Enter the user into a tournament and charge the entry fee.\n    /// @param _tournamentAddress Address of the tournament to enter into.\n    /// @return _success Whether or not user was successfully entered into the tournament.\n    function enterTournament(address _tournamentAddress) public onlyPeerLinked(msg.sender) notOwner(_tournamentAddress) returns (bool _success)\n    {\n        require(tournamentExists[_tournamentAddress]);\n        \n        IMatryxTournament tournament = IMatryxTournament(_tournamentAddress);\n        uint256 entryFee = tournament.getEntryFee();\n\n        bool success = IMatryxToken(matryxTokenAddress).transferFrom(msg.sender, _tournamentAddress, entryFee);\n        if(success)\n        {\n            success = tournament.enterUserInTournament(msg.sender);\n            if(success)\n            {\n            emit UserEnteredTournament(msg.sender, _tournamentAddress);\n            }\n        }\n\n        return true;\n    }\n\n    /* \n    * Tournament Admin Methods\n    */\n\n    /// @dev Create a new tournament.\n    /// @param tournamentData Data to populate the new tournament with. Includes:\n    ///    category: Discipline the tournament falls under.\n    ///    title: Name of the new tournament.\n    ///    contentHash: Off-chain content hash of tournament details (ipfs hash)\n    ///    initialBounty: Total tournament reward in MTX.\n    ///    entryFee: Fee to charge participant upon entering into the tournament.\n    /// @param roundData Data to populate the first round of the tournament with. Includes:\n    ///    startTime: The start time (unix-epoch-based) of the first round.\n    ///    endTime: The end time (unix-epoch-based) of the first round.\n    ///    reviewPeriodDuration: The amount of the tournament owner has to determine the winners of the round.\n    ///    bounty: The reward for the first round's winners.\n    /// @return _tournamentAddress Address of the newly created tournament.\n    function createTournament(LibConstruction.TournamentData tournamentData, LibConstruction.RoundData roundData) returns (address _tournamentAddress)\n    {\n        IMatryxTournamentFactory tournamentFactory = IMatryxTournamentFactory(matryxTournamentFactoryAddress);\n        address newTournament = tournamentFactory.createTournament(tournamentData.category, tournamentData, roundData, msg.sender);\n        TournamentCreated(tournamentData.category, msg.sender, newTournament, tournamentData.title_1, tournamentData.title_2, tournamentData.title_3, tournamentData.descriptionHash_1, tournamentData.descriptionHash_2, tournamentData.initialBounty, tournamentData.entryFee);\n        \n        require(IMatryxToken(matryxTokenAddress).transferFrom(msg.sender, newTournament, tournamentData.initialBounty));\n        IMatryxTournament(newTournament).sendBountyToRound(0, roundData.bounty);\n        // update data structures\n        allTournaments.push(newTournament);\n        tournamentExists[newTournament] = true;\n        updateUsersTournaments(msg.sender, newTournament);\n\n        addTournamentToCategory(newTournament, tournamentData.category);\n\n        return newTournament;\n    }\n\n    /*\n    * Access Control Methods\n    */\n\n    function createPeer() public returns (address)\n    {\n        require(ownerToPeerAndPeerToOwner[msg.sender] == 0x0);\n        IMatryxPeerFactory peerFactory = IMatryxPeerFactory(matryxPeerFactoryAddress);\n        address peer = peerFactory.createPeer(msg.sender);\n        peerExists[peer] = true;\n        ownerToPeerAndPeerToOwner[msg.sender] = peer;\n        ownerToPeerAndPeerToOwner[peer] = msg.sender;\n    }\n\n    function isPeer(address _peerAddress) public view returns (bool)\n    {\n        return peerExists[_peerAddress];\n    }\n\n    function hasPeer(address _sender) public view returns (bool)\n    {\n        return (ownerToPeerAndPeerToOwner[_sender] != 0x0);\n    }\n\n    function peerExistsAndOwnsSubmission(address _peer, address _reference) public view returns (bool)\n    {\n        bool isAPeer = peerExists[_peer];\n        bool referenceIsSubmission = submissionExists[_reference];\n        bool peerOwnsSubmission = addressToOwnsSubmission[ownerToPeerAndPeerToOwner[_peer]][_reference];\n\n        return isAPeer && referenceIsSubmission && peerOwnsSubmission;\n    }\n\n    function peerAddress(address _sender) public view returns (address)\n    {\n        return ownerToPeerAndPeerToOwner[_sender];\n    }\n\n    function isSubmission(address _submissionAddress) public view returns (bool)\n    {\n        return submissionExists[_submissionAddress];\n    }\n\n    /// @dev Returns whether or not the given tournament belongs to the sender.\n    /// @param _tournamentAddress Address of the tournament to check.\n    /// @return _isMine Whether or not the tournament belongs to the sender.\n    function getTournament_IsMine(address _tournamentAddress) public view returns (bool _isMine)\n    {\n        require(tournamentExists[_tournamentAddress]);\n        Ownable tournament = Ownable(_tournamentAddress);\n        return (tournament.getOwner() == msg.sender);\n    }\n\n    /*\n    * Setter Methods\n    */ \n\n    /// @dev              Set the relative amount of MTX to be delivered to a submission's\n    ///                   references\n    /// @param _gratitude Weight from 0 to 1 (18 decimal uint) specifying enforced submission\n    ///                   gratitude\n    function setSubmissionGratitude(uint256 _gratitude) public onlyOwner\n    {\n        assert(_gratitude >= 0 && _gratitude <= (1*10**18));\n        submissionGratitude = uint256_optional({exists: true, value: _gratitude});\n    }\n\n    event TimeStamp(uint256 time);\n\n    function getNow() public view returns (uint256)\n    {\n        emit TimeStamp(now);\n        return now;\n    }\n\n    /*\n    * Getter Methods\n    */\n\n    function getTokenAddress() public view returns (address)\n    {\n        return matryxTokenAddress;\n    }\n\n    function getTournamentFactoryAddress() public view returns (address)\n    {\n        return matryxTournamentFactoryAddress;\n    }\n\n    function getSubmissionTrustLibrary() public view returns (address)\n    {\n        return matryxSubmissionTrustLibAddress;\n    }\n\n    /// @dev    Returns a weight from 0 to 1 (18 decimal uint) indicating\n    ///         how much of a submission's reward goes to its references.\n    /// @return Relative amount of MTX going to references of submissions under this tournament.\n    function getSubmissionGratitude() public view returns (uint256)\n    {\n        require(submissionGratitude.exists);\n        return submissionGratitude.value;\n    }\n\n    /// @dev    Returns addresses for submissions the sender has created.\n    /// @return Address array representing submissions.\n    function myTournaments() public view returns (address[])\n    {\n        return ownerToTournamentArray[msg.sender];\n    }\n\n    function mySubmissions() public view returns (address[])\n    {\n        return ownerToSubmissionArray[msg.sender];\n    }\n\n    /// @dev    Returns the total number of tournaments\n    /// @return _tournamentCount Total number of tournaments.\n    function tournamentCount() public view returns (uint256 _tournamentCount)\n    {\n        return allTournaments.length;\n    }\n    \n    function getTournamentAtIndex(uint256 _index) public view returns (address _tournamentAddress)\n    {\n        require(_index >= 0);\n        require(_index < allTournaments.length);\n        return allTournaments[_index];\n    }\n\n    function getTournaments() public view returns (address[])\n    {\n        return allTournaments;\n    }\n\n    function forceRevert() public {\n        revert();\n    }\n}",
  "sourcePath": "/Users/maxhoward/Desktop/Ethereum/Development/Matryx/Projects/MatryxPlatform/contracts/MatryxPlatform.sol",
  "compiler": {
    "name": "solc",
    "version": "0.4.24+commit.e67f0147.Emscripten.clang"
  },
  "schemaVersion": "2.0.0",
  "updatedAt": "2018-07-12T19:23:06.870Z"
}