{
  "contractName": "MatryxPeerFactory",
  "abi": [
    {
      "constant": true,
      "inputs": [
        {
          "name": "_sender",
          "type": "address"
        }
      ],
      "name": "isOwner",
      "outputs": [
        {
          "name": "_isOwner",
          "type": "bool"
        }
      ],
      "payable": false,
      "stateMutability": "view",
      "type": "function"
    },
    {
      "constant": true,
      "inputs": [],
      "name": "getOwner",
      "outputs": [
        {
          "name": "_owner",
          "type": "address"
        }
      ],
      "payable": false,
      "stateMutability": "view",
      "type": "function"
    },
    {
      "constant": true,
      "inputs": [],
      "name": "owner",
      "outputs": [
        {
          "name": "",
          "type": "address"
        }
      ],
      "payable": false,
      "stateMutability": "view",
      "type": "function"
    },
    {
      "constant": true,
      "inputs": [],
      "name": "platformAddress",
      "outputs": [
        {
          "name": "",
          "type": "address"
        }
      ],
      "payable": false,
      "stateMutability": "view",
      "type": "function"
    },
    {
      "constant": true,
      "inputs": [],
      "name": "peerCount",
      "outputs": [
        {
          "name": "",
          "type": "uint64"
        }
      ],
      "payable": false,
      "stateMutability": "view",
      "type": "function"
    },
    {
      "constant": false,
      "inputs": [
        {
          "name": "newOwner",
          "type": "address"
        }
      ],
      "name": "transferOwnership",
      "outputs": [],
      "payable": false,
      "stateMutability": "nonpayable",
      "type": "function"
    },
    {
      "constant": false,
      "inputs": [
        {
          "name": "_platformAddress",
          "type": "address"
        }
      ],
      "name": "setPlatform",
      "outputs": [],
      "payable": false,
      "stateMutability": "nonpayable",
      "type": "function"
    },
    {
      "constant": false,
      "inputs": [
        {
          "name": "_owner",
          "type": "address"
        }
      ],
      "name": "createPeer",
      "outputs": [
        {
          "name": "_peerAddress",
          "type": "address"
        }
      ],
      "payable": false,
      "stateMutability": "nonpayable",
      "type": "function"
    },
    {
      "constant": true,
      "inputs": [],
      "name": "getReputationForNewPeer",
      "outputs": [
        {
          "name": "",
          "type": "uint128"
        }
      ],
      "payable": false,
      "stateMutability": "view",
      "type": "function"
    },
    {
      "constant": true,
      "inputs": [
        {
          "name": "_input",
          "type": "uint256"
        }
      ],
      "name": "fastSigmoid",
      "outputs": [
        {
          "name": "",
          "type": "uint128"
        }
      ],
      "payable": false,
      "stateMutability": "pure",
      "type": "function"
    }
  ],
  "bytecode": "0x608060405260008054600160a060020a03191633179055613497806100256000396000f3006080604052600436106100a35763ffffffff7c01000000000000000000000000000000000000000000000000000000006000350416631bf03d7781146100a85780632f54bf6e146100e257806348bf9577146101245780636945c5ea1461017b578063893d20e8146101ab5780638da5cb5b146101c057806395cc1b10146101d5578063dbe55e56146101ed578063e81ea59514610202578063f2fde38b14610234575b600080fd5b3480156100b457600080fd5b506100bd610262565b604080516fffffffffffffffffffffffffffffffff9092168252519081900360200190f35b3480156100ee57600080fd5b5061011073ffffffffffffffffffffffffffffffffffffffff600435166102ee565b604080519115158252519081900360200190f35b34801561013057600080fd5b5061015273ffffffffffffffffffffffffffffffffffffffff6004351661030f565b6040805173ffffffffffffffffffffffffffffffffffffffff9092168252519081900360200190f35b34801561018757600080fd5b506101a973ffffffffffffffffffffffffffffffffffffffff60043516610453565b005b3480156101b757600080fd5b506101526104be565b3480156101cc57600080fd5b506101526104da565b3480156101e157600080fd5b506100bd6004356104f6565b3480156101f957600080fd5b50610152610569565b34801561020e57600080fd5b50610217610585565b6040805167ffffffffffffffff9092168252519081900360200190f35b34801561024057600080fd5b506101a973ffffffffffffffffffffffffffffffffffffffff600435166105ad565b600080600080610294600160149054906101000a900467ffffffffffffffff1660020167ffffffffffffffff166104f6565b92506102c2600160149054906101000a900467ffffffffffffffff1660010167ffffffffffffffff166104f6565b91506102e66fffffffffffffffffffffffffffffffff84168363ffffffff61063a16565b949350505050565b60005473ffffffffffffffffffffffffffffffffffffffff91821691161490565b6001546000908190819073ffffffffffffffffffffffffffffffffffffffff16331461033a57600080fd5b610342610262565b60015490925073ffffffffffffffffffffffffffffffffffffffff168483610368610745565b73ffffffffffffffffffffffffffffffffffffffff93841681529190921660208201526fffffffffffffffffffffffffffffffff9091166040808301919091525190819003606001906000f0801580156103c6573d6000803e3d6000fd5b50600180549192506103fa9174010000000000000000000000000000000000000000900467ffffffffffffffff1690610661565b6001805467ffffffffffffffff9290921674010000000000000000000000000000000000000000027fffffffff0000000000000000ffffffffffffffffffffffffffffffffffffffff9092169190911790559392505050565b60005473ffffffffffffffffffffffffffffffffffffffff16331461047757600080fd5b600180547fffffffffffffffffffffffff00000000000000000000000000000000000000001673ffffffffffffffffffffffffffffffffffffffff92909216919091179055565b60005473ffffffffffffffffffffffffffffffffffffffff1690565b60005473ffffffffffffffffffffffffffffffffffffffff1681565b6000670de0b6b3a7640000671bc16d674ec80000838202610560610520848363ffffffff61066116565b6105426fffffffffffffffffffffffffffffffff85168463ffffffff61068c16565b6fffffffffffffffffffffffffffffffff169063ffffffff61070a16565b95945050505050565b60015473ffffffffffffffffffffffffffffffffffffffff1681565b60015474010000000000000000000000000000000000000000900467ffffffffffffffff1681565b60005473ffffffffffffffffffffffffffffffffffffffff1633146105d157600080fd5b73ffffffffffffffffffffffffffffffffffffffff811615156105f357600080fd5b600080547fffffffffffffffffffffffff00000000000000000000000000000000000000001673ffffffffffffffffffffffffffffffffffffffff92909216919091179055565b60006fffffffffffffffffffffffffffffffff808416908316111561065b57fe5b50900390565b60008282016fffffffffffffffffffffffffffffffff808516908216101561068557fe5b9392505050565b60008282026fffffffffffffffffffffffffffffffff841615806107025750826fffffffffffffffffffffffffffffffff16846fffffffffffffffffffffffffffffffff16826fffffffffffffffffffffffffffffffff168115156106ed57fe5b046fffffffffffffffffffffffffffffffff16145b151561068557fe5b600080826fffffffffffffffffffffffffffffffff16846fffffffffffffffffffffffffffffffff1681151561073c57fe5b04949350505050565b604051612d16806107568339019056006080604052600180546001608060020a031916670de0b6b3a764000017905534801561002a57600080fd5b50604051606080612d168339810160409081528151602083015191909201516000805460028054600160a060020a03968716600160a060020a03199182161790915594909316928416331790931691909117909155600380546001608060020a039092166001608060020a0319909216919091179055612c67806100af6000396000f30060806040526004361061011c5763ffffffff7c0100000000000000000000000000000000000000000000000000000000600035041663268c7dcb81146101215780632f54bf6e146101575780634073996a1461019957806341a83f95146101d957806357f090821461020d5780636a7940c914610260578063889b2687146102bd578063893d20e8146102d25780638da5cb5b146103105780639726b6791461032557806397c22c241461034f5780639eff7df114610383578063a1cc4ac1146103ad578063b6c3d15b146103e1578063bc46576514610411578063c464e29414610441578063d1bbd31214610475578063d528ff4e146104a9578063f2fde38b146104d7578063fa6daea714610505578063ffe6a18e14610533575b600080fd5b34801561012d57600080fd5b5061015573ffffffffffffffffffffffffffffffffffffffff60043581169060243516610548565b005b34801561016357600080fd5b5061018573ffffffffffffffffffffffffffffffffffffffff60043516610a80565b604080519115158252519081900360200190f35b3480156101a557600080fd5b506101c773ffffffffffffffffffffffffffffffffffffffff60043516610aa1565b60408051918252519081900360200190f35b3480156101e557600080fd5b5061015573ffffffffffffffffffffffffffffffffffffffff60043581169060243516610adf565b34801561021957600080fd5b5061023b73ffffffffffffffffffffffffffffffffffffffff60043516610f4c565b604080516fffffffffffffffffffffffffffffffff9092168252519081900360200190f35b34801561026c57600080fd5b5061028e73ffffffffffffffffffffffffffffffffffffffff60043516610f86565b604080516fffffffffffffffffffffffffffffffff938416815291909216602082015281519081900390910190f35b3480156102c957600080fd5b506101c7610fe0565b3480156102de57600080fd5b506102e7610fe6565b6040805173ffffffffffffffffffffffffffffffffffffffff9092168252519081900360200190f35b34801561031c57600080fd5b506102e7611002565b34801561033157600080fd5b506101556fffffffffffffffffffffffffffffffff6004351661101e565b34801561035b57600080fd5b5061015573ffffffffffffffffffffffffffffffffffffffff60043581169060243516611176565b34801561038f57600080fd5b506101556fffffffffffffffffffffffffffffffff600435166115d4565b3480156103b957600080fd5b5061015573ffffffffffffffffffffffffffffffffffffffff60043581169060243516611655565b3480156103ed57600080fd5b5061023b6fffffffffffffffffffffffffffffffff60043581169060243516611777565b34801561041d57600080fd5b5061023b6fffffffffffffffffffffffffffffffff60043581169060243516611ab3565b34801561044d57600080fd5b5061015573ffffffffffffffffffffffffffffffffffffffff60043581169060243516611e73565b34801561048157600080fd5b5061015573ffffffffffffffffffffffffffffffffffffffff60043581169060243516612394565b3480156104b557600080fd5b5061028e73ffffffffffffffffffffffffffffffffffffffff60043516612459565b3480156104e357600080fd5b5061015573ffffffffffffffffffffffffffffffffffffffff6004351661249f565b34801561051157600080fd5b5061023b73ffffffffffffffffffffffffffffffffffffffff6004351661252c565b34801561053f57600080fd5b5061023b61264b565b600080548190849073ffffffffffffffffffffffffffffffffffffffff1633148061058857503373ffffffffffffffffffffffffffffffffffffffff8216145b151561059357600080fd5b600254604080517f818b5fa800000000000000000000000000000000000000000000000000000000815273ffffffffffffffffffffffffffffffffffffffff8089166004830152915188939290921691829163818b5fa89160248083019260209291908290030181600087803b15801561060c57600080fd5b505af1158015610620573d6000803e3d6000fd5b505050506040513d602081101561063657600080fd5b5051151561064357600080fd5b600254604080517f818b5fa800000000000000000000000000000000000000000000000000000000815273ffffffffffffffffffffffffffffffffffffffff808a166004830152915189939290921691829163818b5fa89160248083019260209291908290030181600087803b1580156106bc57600080fd5b505af11580156106d0573d6000803e3d6000fd5b505050506040513d60208110156106e657600080fd5b505115156106f357600080fd5b73ffffffffffffffffffffffffffffffffffffffff891660009081526011602052604090205461074a9070010000000000000000000000000000000090046fffffffffffffffffffffffffffffffff166001612663565b73ffffffffffffffffffffffffffffffffffffffff8a16600090815260116020526040902080546fffffffffffffffffffffffffffffffff928316700100000000000000000000000000000000029083161790556007546107b39116600163ffffffff61268a16565b600780546fffffffffffffffffffffffffffffffff19166fffffffffffffffffffffffffffffffff92909216919091179055604080517f0cbfdb2d00000000000000000000000000000000000000000000000000000000815273ffffffffffffffffffffffffffffffffffffffff8a8116600483015291518b995091891691630cbfdb2d9160248082019260009290919082900301818387803b15801561085957600080fd5b505af115801561086d573d6000803e3d6000fd5b505050508673ffffffffffffffffffffffffffffffffffffffff1663a5faa1256040518163ffffffff167c0100000000000000000000000000000000000000000000000000000000028152600401602060405180830381600087803b1580156108d557600080fd5b505af11580156108e9573d6000803e3d6000fd5b505050506040513d60208110156108ff57600080fd5b505160015473ffffffffffffffffffffffffffffffffffffffff8216600090815260046020526040902054919750610952916fffffffffffffffffffffffffffffffff908116911663ffffffff61268a16565b73ffffffffffffffffffffffffffffffffffffffff878116600081815260046020818152604080842080546fffffffffffffffffffffffffffffffff19166fffffffffffffffffffffffffffffffff9889161790558f86168452600e8252808420958f1684529490528382205484517f9726b67900000000000000000000000000000000000000000000000000000000815295169085015291519092639726b67992602480830193919282900301818387803b158015610a1157600080fd5b505af1158015610a25573d6000803e3d6000fd5b50505073ffffffffffffffffffffffffffffffffffffffff998a166000908152600e602090815260408083209b909c168252999099525050509590942080546fffffffffffffffffffffffffffffffff191690555050505050565b60005473ffffffffffffffffffffffffffffffffffffffff91821691161490565b73ffffffffffffffffffffffffffffffffffffffff81166000908152600a60205260409020546fffffffffffffffffffffffffffffffff165b919050565b60008054819073ffffffffffffffffffffffffffffffffffffffff163314610b0657600080fd5b826000808291508173ffffffffffffffffffffffffffffffffffffffff1663893d20e86040518163ffffffff167c0100000000000000000000000000000000000000000000000000000000028152600401602060405180830381600087803b158015610b7157600080fd5b505af1158015610b85573d6000803e3d6000fd5b505050506040513d6020811015610b9b57600080fd5b5051905073ffffffffffffffffffffffffffffffffffffffff81163314610bc157600080fd5b600254604080517f818b5fa800000000000000000000000000000000000000000000000000000000815273ffffffffffffffffffffffffffffffffffffffff808b16600483015291518a939290921691829163818b5fa89160248083019260209291908290030181600087803b158015610c3a57600080fd5b505af1158015610c4e573d6000803e3d6000fd5b505050506040513d6020811015610c6457600080fd5b50511515610c7157600080fd5b600254604080517f818b5fa800000000000000000000000000000000000000000000000000000000815273ffffffffffffffffffffffffffffffffffffffff808c16600483015291518b939290921691829163818b5fa89160248083019260209291908290030181600087803b158015610cea57600080fd5b505af1158015610cfe573d6000803e3d6000fd5b505050506040513d6020811015610d1457600080fd5b50511515610d2157600080fd5b73ffffffffffffffffffffffffffffffffffffffff8b16600090815260116020526040902054610d789070010000000000000000000000000000000090046fffffffffffffffffffffffffffffffff16600161268a565b73ffffffffffffffffffffffffffffffffffffffff808d1660008181526011602052604080822080546fffffffffffffffffffffffffffffffff9687167001000000000000000000000000000000000296169590951790945583517f32c9c9d3000000000000000000000000000000000000000000000000000000008152928e16600484015292518e9c5090926332c9c9d3926024808201939182900301818387803b158015610e2757600080fd5b505af1158015610e3b573d6000803e3d6000fd5b505050508873ffffffffffffffffffffffffffffffffffffffff1663a5faa1256040518163ffffffff167c0100000000000000000000000000000000000000000000000000000000028152600401602060405180830381600087803b158015610ea357600080fd5b505af1158015610eb7573d6000803e3d6000fd5b505050506040513d6020811015610ecd57600080fd5b50519750610eda886126b5565b73ffffffffffffffffffffffffffffffffffffffff9b8c166000908152600e602090815260408083209d909e1682529b909b529a90992080546fffffffffffffffffffffffffffffffff19166fffffffffffffffffffffffffffffffff909b169a909a17909955505050505050505050565b73ffffffffffffffffffffffffffffffffffffffff166000908152600860205260409020546fffffffffffffffffffffffffffffffff1690565b73ffffffffffffffffffffffffffffffffffffffff16600090815260116020526040902080546001909101546fffffffffffffffffffffffffffffffff700100000000000000000000000000000000909204821692911690565b60065490565b60005473ffffffffffffffffffffffffffffffffffffffff1690565b60005473ffffffffffffffffffffffffffffffffffffffff1681565b60015433600090815260086020526040902054611056916fffffffffffffffffffffffffffffffff918216911663ffffffff61268a16565b33600090815260086020908152604080832080546fffffffffffffffffffffffffffffffff19166fffffffffffffffffffffffffffffffff95861617905560099091529020546110a791168261268a565b33600090815260096020908152604080832080546fffffffffffffffffffffffffffffffff19166fffffffffffffffffffffffffffffffff958616179055600a9091529020546110f891168261268a565b336000908152600a6020526040902080546fffffffffffffffffffffffffffffffff19166fffffffffffffffffffffffffffffffff92831617905560035461114191168261268a565b600380546fffffffffffffffffffffffffffffffff19166fffffffffffffffffffffffffffffffff9290921691909117905550565b60008054819073ffffffffffffffffffffffffffffffffffffffff16331461119d57600080fd5b826000808291508173ffffffffffffffffffffffffffffffffffffffff1663893d20e86040518163ffffffff167c0100000000000000000000000000000000000000000000000000000000028152600401602060405180830381600087803b15801561120857600080fd5b505af115801561121c573d6000803e3d6000fd5b505050506040513d602081101561123257600080fd5b5051905073ffffffffffffffffffffffffffffffffffffffff8116331461125857600080fd5b600254604080517f818b5fa800000000000000000000000000000000000000000000000000000000815273ffffffffffffffffffffffffffffffffffffffff808b16600483015291518a939290921691829163818b5fa89160248083019260209291908290030181600087803b1580156112d157600080fd5b505af11580156112e5573d6000803e3d6000fd5b505050506040513d60208110156112fb57600080fd5b5051151561130857600080fd5b600254604080517f818b5fa800000000000000000000000000000000000000000000000000000000815273ffffffffffffffffffffffffffffffffffffffff808c16600483015291518b939290921691829163818b5fa89160248083019260209291908290030181600087803b15801561138157600080fd5b505af1158015611395573d6000803e3d6000fd5b505050506040513d60208110156113ab57600080fd5b505115156113b857600080fd5b73ffffffffffffffffffffffffffffffffffffffff8b16600090815260116020526040902054611401906fffffffffffffffffffffffffffffffff16600163ffffffff61268a16565b73ffffffffffffffffffffffffffffffffffffffff8c811660008181526011602052604080822080546fffffffffffffffffffffffffffffffff19166fffffffffffffffffffffffffffffffff969096169590951790945583517fe7139ec0000000000000000000000000000000000000000000000000000000008152928e16600484015292518e9c50909263e7139ec0926024808201939182900301818387803b1580156114af57600080fd5b505af11580156114c3573d6000803e3d6000fd5b505050508873ffffffffffffffffffffffffffffffffffffffff1663a5faa1256040518163ffffffff167c0100000000000000000000000000000000000000000000000000000000028152600401602060405180830381600087803b15801561152b57600080fd5b505af115801561153f573d6000803e3d6000fd5b505050506040513d602081101561155557600080fd5b5051975061156288612957565b73ffffffffffffffffffffffffffffffffffffffff9b8c166000908152600d602090815260408083209d909e1682529b909b529a90992080546fffffffffffffffffffffffffffffffff19166fffffffffffffffffffffffffffffffff909b169a909a17909955505050505050505050565b6001543360009081526008602052604090205461160c916fffffffffffffffffffffffffffffffff918216911663ffffffff61266316565b33600090815260086020526040902080546fffffffffffffffffffffffffffffffff19166fffffffffffffffffffffffffffffffff928316179055600354611141911682612663565b60025473ffffffffffffffffffffffffffffffffffffffff16331461167957600080fd5b6040805173ffffffffffffffffffffffffffffffffffffffff80851682528316602082015281517f46f6444d987f5ebdf7eae0dc34572eb3119b434c84f3292d85b161737c4ec22f929181900390910190a173ffffffffffffffffffffffffffffffffffffffff8216600090815260116020526040902060019081015461171a916fffffffffffffffffffffffffffffffff9091169063ffffffff61266316565b73ffffffffffffffffffffffffffffffffffffffff92909216600090815260116020526040902060010180546fffffffffffffffffffffffffffffffff19166fffffffffffffffffffffffffffffffff9093169290921790915550565b600254604080517f3e44cf78000000000000000000000000000000000000000000000000000000008152336004820152905160009283928392839273ffffffffffffffffffffffffffffffffffffffff16918291633e44cf789160248082019260209290919082900301818887803b1580156117f257600080fd5b505af1158015611806573d6000803e3d6000fd5b505050506040513d602081101561181c57600080fd5b5051151561182957600080fd5b336000908152600b602052604090205460ff16156118b057336000908152600a6020526040902054600354611879916fffffffffffffffffffffffffffffffff918216911663ffffffff61266316565b600380546fffffffffffffffffffffffffffffffff19166fffffffffffffffffffffffffffffffff92909216919091179055611925565b336000818152600b60205260408120805460ff19166001908117909155600c805491820181559091527fdf6966c971051c3d54ec59162606531493a51404a002842f56009d7e5cf4a8c70180547fffffffffffffffffffffffff00000000000000000000000000000000000000001690911790555b336000908152600a602090815260408083205460015460089093529220546fffffffffffffffffffffffffffffffff928316965061196d92908116911663ffffffff61268a16565b33600090815260086020818152604080842080546fffffffffffffffffffffffffffffffff199081166fffffffffffffffffffffffffffffffff978816178255600984529190942080549091168c861617905552546119cd911688612b82565b92506119f16fffffffffffffffffffffffffffffffff84168763ffffffff612bbd16565b600154909250611a1c906fffffffffffffffffffffffffffffffff808516911663ffffffff612b8216565b336000908152600a6020526040902080546fffffffffffffffffffffffffffffffff19166fffffffffffffffffffffffffffffffff83811691909117909155600354919350611a6c91168361268a565b600380546fffffffffffffffffffffffffffffffff19166fffffffffffffffffffffffffffffffff928316179055611aa690831685612663565b94505b5050505092915050565b600254604080517f3e44cf78000000000000000000000000000000000000000000000000000000008152336004820152905160009283928392839273ffffffffffffffffffffffffffffffffffffffff16918291633e44cf789160248082019260209290919082900301818887803b158015611b2e57600080fd5b505af1158015611b42573d6000803e3d6000fd5b505050506040513d6020811015611b5857600080fd5b50511515611b6557600080fd5b336000908152600b602052604081205490945060ff1615611bf157336000908152600a60205260409020546003546fffffffffffffffffffffffffffffffff9182169550611bba91168563ffffffff61266316565b600380546fffffffffffffffffffffffffffffffff19166fffffffffffffffffffffffffffffffff92909216919091179055611c66565b336000818152600b60205260408120805460ff19166001908117909155600c805491820181559091527fdf6966c971051c3d54ec59162606531493a51404a002842f56009d7e5cf4a8c70180547fffffffffffffffffffffffff00000000000000000000000000000000000000001690911790555b6fffffffffffffffffffffffffffffffff87161580611cab5750600154336000908152600860205260409020546fffffffffffffffffffffffffffffffff9182169116105b15611d025733600090815260086020908152604080832080546fffffffffffffffffffffffffffffffff1990811690915560098352818420805482169055600a909252909120805490911690559293508392611aa9565b60015433600090815260086020526040902054611d3a916fffffffffffffffffffffffffffffffff918216911663ffffffff61266316565b33600090815260086020818152604080842080546fffffffffffffffffffffffffffffffff199081166fffffffffffffffffffffffffffffffff978816178255600984529190942080549091168c86161790555254611d9a911688612b82565b9250611dbe6fffffffffffffffffffffffffffffffff84168763ffffffff612bbd16565b600154909250611de9906fffffffffffffffffffffffffffffffff808516911663ffffffff612b8216565b336000908152600a6020526040902080546fffffffffffffffffffffffffffffffff19166fffffffffffffffffffffffffffffffff83811691909117909155600354919350611e3991168361268a565b600380546fffffffffffffffffffffffffffffffff19166fffffffffffffffffffffffffffffffff928316179055611aa690851683612663565b600080548190849073ffffffffffffffffffffffffffffffffffffffff16331480611eb357503373ffffffffffffffffffffffffffffffffffffffff8216145b1515611ebe57600080fd5b600254604080517f818b5fa800000000000000000000000000000000000000000000000000000000815273ffffffffffffffffffffffffffffffffffffffff8089166004830152915188939290921691829163818b5fa89160248083019260209291908290030181600087803b158015611f3757600080fd5b505af1158015611f4b573d6000803e3d6000fd5b505050506040513d6020811015611f6157600080fd5b50511515611f6e57600080fd5b600254604080517f818b5fa800000000000000000000000000000000000000000000000000000000815273ffffffffffffffffffffffffffffffffffffffff808a166004830152915189939290921691829163818b5fa89160248083019260209291908290030181600087803b158015611fe757600080fd5b505af1158015611ffb573d6000803e3d6000fd5b505050506040513d602081101561201157600080fd5b5051151561201e57600080fd5b73ffffffffffffffffffffffffffffffffffffffff8916600090815260116020526040902054612067906fffffffffffffffffffffffffffffffff16600163ffffffff61266316565b73ffffffffffffffffffffffffffffffffffffffff8a16600090815260116020526040902080546fffffffffffffffffffffffffffffffff19166fffffffffffffffffffffffffffffffff9283161790556007546120c791166001612663565b600780546fffffffffffffffffffffffffffffffff19166fffffffffffffffffffffffffffffffff92909216919091179055604080517fe4e3e83a00000000000000000000000000000000000000000000000000000000815273ffffffffffffffffffffffffffffffffffffffff8a8116600483015291518b99509189169163e4e3e83a9160248082019260009290919082900301818387803b15801561216d57600080fd5b505af1158015612181573d6000803e3d6000fd5b505050508673ffffffffffffffffffffffffffffffffffffffff1663a5faa1256040518163ffffffff167c0100000000000000000000000000000000000000000000000000000000028152600401602060405180830381600087803b1580156121e957600080fd5b505af11580156121fd573d6000803e3d6000fd5b505050506040513d602081101561221357600080fd5b505160015473ffffffffffffffffffffffffffffffffffffffff8216600090815260046020526040902054919750612266916fffffffffffffffffffffffffffffffff908116911663ffffffff61268a16565b73ffffffffffffffffffffffffffffffffffffffff878116600081815260046020818152604080842080546fffffffffffffffffffffffffffffffff19166fffffffffffffffffffffffffffffffff9889161790558f86168452600d8252808420958f1684529490528382205484517f9eff7df100000000000000000000000000000000000000000000000000000000815295169085015291519092639eff7df192602480830193919282900301818387803b15801561232557600080fd5b505af1158015612339573d6000803e3d6000fd5b50505073ffffffffffffffffffffffffffffffffffffffff998a166000908152600d602090815260408083209b909c168252999099525050509590942080546fffffffffffffffffffffffffffffffff191690555050505050565b60025473ffffffffffffffffffffffffffffffffffffffff1633146123b857600080fd5b6040805173ffffffffffffffffffffffffffffffffffffffff80851682528316602082015281517f033c34e967f60202eea9737daab3184556afeb5429022244146f7927782f4298929181900390910190a173ffffffffffffffffffffffffffffffffffffffff8216600090815260116020526040902060019081015461171a916fffffffffffffffffffffffffffffffff9091169063ffffffff61268a16565b73ffffffffffffffffffffffffffffffffffffffff16600090815260116020526040902080546001909101546fffffffffffffffffffffffffffffffff91821692911690565b60005473ffffffffffffffffffffffffffffffffffffffff1633146124c357600080fd5b73ffffffffffffffffffffffffffffffffffffffff811615156124e557600080fd5b600080547fffffffffffffffffffffffff00000000000000000000000000000000000000001673ffffffffffffffffffffffffffffffffffffffff92909216919091179055565b73ffffffffffffffffffffffffffffffffffffffff8116600090815260116020526040812080546001909101546fffffffffffffffffffffffffffffffff90811670010000000000000000000000000000000090920481169190910116151561259757506000610ada565b73ffffffffffffffffffffffffffffffffffffffff82166000908152601160205260409020805460019091015461264591612601916fffffffffffffffffffffffffffffffff9081169170010000000000000000000000000000000090041663ffffffff61268a16565b73ffffffffffffffffffffffffffffffffffffffff84166000908152601160205260409020546fffffffffffffffffffffffffffffffff169063ffffffff612b8216565b92915050565b6003546fffffffffffffffffffffffffffffffff1690565b60006fffffffffffffffffffffffffffffffff808416908316111561268457fe5b50900390565b60008282016fffffffffffffffffffffffffffffffff80851690821610156126ae57fe5b9392505050565b60015473ffffffffffffffffffffffffffffffffffffffff821660009081526004602052604081205490916fffffffffffffffffffffffffffffffff9081169116106127dc5760015473ffffffffffffffffffffffffffffffffffffffff8316600090815260046020526040902054612749916fffffffffffffffffffffffffffffffff918216911663ffffffff61266316565b73ffffffffffffffffffffffffffffffffffffffff8316600090815260046020526040902080546fffffffffffffffffffffffffffffffff19166fffffffffffffffffffffffffffffffff9283161790556007546127a991166001612663565b600780546fffffffffffffffffffffffffffffffff19166fffffffffffffffffffffffffffffffff929092169190911790555b73ffffffffffffffffffffffffffffffffffffffff821660009081526005602052604090205460ff1615156128965773ffffffffffffffffffffffffffffffffffffffff82166000818152600560205260408120805460ff191660019081179091556006805491820181559091527ff652222313e28459528d920b65115c16c04f3efc82aaedc97be59f3f377c0d3f0180547fffffffffffffffffffffffff00000000000000000000000000000000000000001690911790555b600754600354604080517fbc4657650000000000000000000000000000000000000000000000000000000081526fffffffffffffffffffffffffffffffff93841660048201529290911660248301525173ffffffffffffffffffffffffffffffffffffffff84169163bc4657659160448083019260209291908290030181600087803b15801561292557600080fd5b505af1158015612939573d6000803e3d6000fd5b505050506040513d602081101561294f57600080fd5b505192915050565b60015473ffffffffffffffffffffffffffffffffffffffff821660009081526004602052604081205490916129a7916fffffffffffffffffffffffffffffffff908116911663ffffffff61268a16565b73ffffffffffffffffffffffffffffffffffffffff8316600090815260046020526040902080546fffffffffffffffffffffffffffffffff19166fffffffffffffffffffffffffffffffff928316179055600754612a079116600161268a565b600780546fffffffffffffffffffffffffffffffff19166fffffffffffffffffffffffffffffffff9290921691909117905573ffffffffffffffffffffffffffffffffffffffff821660009081526005602052604090205460ff161515612af35773ffffffffffffffffffffffffffffffffffffffff82166000818152600560205260408120805460ff191660019081179091556006805491820181559091527ff652222313e28459528d920b65115c16c04f3efc82aaedc97be59f3f377c0d3f0180547fffffffffffffffffffffffff00000000000000000000000000000000000000001690911790555b600754600354604080517fb6c3d15b0000000000000000000000000000000000000000000000000000000081526fffffffffffffffffffffffffffffffff93841660048201529290911660248301525173ffffffffffffffffffffffffffffffffffffffff84169163b6c3d15b9160448083019260209291908290030181600087803b15801561292557600080fd5b600080826fffffffffffffffffffffffffffffffff16846fffffffffffffffffffffffffffffffff16811515612bb457fe5b04949350505050565b60008282026fffffffffffffffffffffffffffffffff84161580612c335750826fffffffffffffffffffffffffffffffff16846fffffffffffffffffffffffffffffffff16826fffffffffffffffffffffffffffffffff16811515612c1e57fe5b046fffffffffffffffffffffffffffffffff16145b15156126ae57fe00a165627a7a72305820eeb2b644ccaee875ab6077111c1685ed585733a9a4cfceb96cff8ad87e6a52480029a165627a7a723058204d44b6ed0eecb1bcb49e504583e9de2459955de0602b47d97340d3f2e225dbd00029",
  "source": "pragma solidity ^0.4.18;\n\nimport \"../MatryxPeer.sol\";\nimport \"../../libraries/math/SafeMath128.sol\";\n\ncontract MatryxPeerFactory is Ownable {\n    using SafeMath128 for uint128;\n\n    address public platformAddress;\n    uint64 public peerCount;\n\n    modifier onlyPlatform\n    {\n        require(msg.sender == platformAddress);\n        _;\n    }\n\n    function setPlatform(address _platformAddress) public onlyOwner\n    {\n        platformAddress = _platformAddress;\n    }\n\n    function createPeer(address _owner) public onlyPlatform returns (address _peerAddress) {\n        uint128 trust = getReputationForNewPeer();\n        MatryxPeer peerAddress = new MatryxPeer(platformAddress, _owner, trust);\n        peerCount  = uint64(uint128(peerCount).add(1));\n        return peerAddress;\n    }\n\n    function getReputationForNewPeer() public view returns (uint128)\n    {\n        uint128 integralTopValue = fastSigmoid(peerCount+2);\n        uint128 integralBottomValue = fastSigmoid(peerCount+1);\n        uint128 trustValue = integralTopValue.sub(integralBottomValue);\n\n        return trustValue;\n    }\n\n    function fastSigmoid(uint256 _input) public pure returns (uint128)\n    {\n        uint128 one = 1 * 10**18;\n        uint128 two = 2 * 10**18;\n        uint128 inputWithDecimals = uint128(_input) * 10**18;\n\n        return (two.mul(inputWithDecimals)).div(one.add(inputWithDecimals));\n    }\n}",
  "sourcePath": "/Users/maxhoward/Desktop/Ethereum/MatryxPlatform/contracts/factories/MatryxPeerFactory.sol",
  "compiler": {
    "name": "solc",
    "version": "0.4.24+commit.e67f0147.Emscripten.clang"
  },
  "schemaVersion": "2.0.1",
  "updatedAt": "2018-08-03T23:43:41.354Z"
}