{
  "contractName": "MatryxSubmission",
  "abi": [
    {
      "constant": true,
      "inputs": [
        {
          "name": "_sender",
          "type": "address"
        }
      ],
      "name": "isOwner",
      "outputs": [
        {
          "name": "_isOwner",
          "type": "bool"
        }
      ],
      "payable": false,
      "stateMutability": "view",
      "type": "function"
    },
    {
      "constant": true,
      "inputs": [],
      "name": "getOwner",
      "outputs": [
        {
          "name": "_owner",
          "type": "address"
        }
      ],
      "payable": false,
      "stateMutability": "view",
      "type": "function"
    },
    {
      "constant": true,
      "inputs": [],
      "name": "owner",
      "outputs": [
        {
          "name": "",
          "type": "address"
        }
      ],
      "payable": false,
      "stateMutability": "view",
      "type": "function"
    },
    {
      "constant": false,
      "inputs": [
        {
          "name": "newOwner",
          "type": "address"
        }
      ],
      "name": "transferOwnership",
      "outputs": [],
      "payable": false,
      "stateMutability": "nonpayable",
      "type": "function"
    },
    {
      "inputs": [
        {
          "name": "_owner",
          "type": "address"
        },
        {
          "name": "_platformAddress",
          "type": "address"
        },
        {
          "name": "_tournamentAddress",
          "type": "address"
        },
        {
          "name": "_roundAddress",
          "type": "address"
        },
        {
          "components": [
            {
              "name": "title",
              "type": "bytes32[3]"
            },
            {
              "name": "descriptionHash",
              "type": "bytes32[2]"
            },
            {
              "name": "fileHash",
              "type": "bytes32[2]"
            },
            {
              "name": "timeSubmitted",
              "type": "uint256"
            },
            {
              "name": "timeUpdated",
              "type": "uint256"
            }
          ],
          "name": "_submissionData",
          "type": "tuple"
        }
      ],
      "payable": false,
      "stateMutability": "nonpayable",
      "type": "constructor"
    },
    {
      "payable": false,
      "stateMutability": "nonpayable",
      "type": "fallback"
    },
    {
      "constant": true,
      "inputs": [],
      "name": "getTournament",
      "outputs": [
        {
          "name": "",
          "type": "address"
        }
      ],
      "payable": false,
      "stateMutability": "view",
      "type": "function"
    },
    {
      "constant": true,
      "inputs": [],
      "name": "getRound",
      "outputs": [
        {
          "name": "",
          "type": "address"
        }
      ],
      "payable": false,
      "stateMutability": "view",
      "type": "function"
    },
    {
      "constant": true,
      "inputs": [
        {
          "name": "_requester",
          "type": "address"
        }
      ],
      "name": "isAccessible",
      "outputs": [
        {
          "name": "",
          "type": "bool"
        }
      ],
      "payable": false,
      "stateMutability": "view",
      "type": "function"
    },
    {
      "constant": true,
      "inputs": [],
      "name": "getData",
      "outputs": [
        {
          "components": [
            {
              "name": "title",
              "type": "bytes32[3]"
            },
            {
              "name": "descriptionHash",
              "type": "bytes32[2]"
            },
            {
              "name": "fileHash",
              "type": "bytes32[2]"
            },
            {
              "name": "timeSubmitted",
              "type": "uint256"
            },
            {
              "name": "timeUpdated",
              "type": "uint256"
            }
          ],
          "name": "_data",
          "type": "tuple"
        }
      ],
      "payable": false,
      "stateMutability": "view",
      "type": "function"
    },
    {
      "constant": true,
      "inputs": [],
      "name": "getTitle",
      "outputs": [
        {
          "name": "",
          "type": "bytes32[3]"
        }
      ],
      "payable": false,
      "stateMutability": "view",
      "type": "function"
    },
    {
      "constant": true,
      "inputs": [],
      "name": "getAuthor",
      "outputs": [
        {
          "name": "",
          "type": "address"
        }
      ],
      "payable": false,
      "stateMutability": "view",
      "type": "function"
    },
    {
      "constant": true,
      "inputs": [],
      "name": "getDescriptionHash",
      "outputs": [
        {
          "name": "",
          "type": "bytes32[2]"
        }
      ],
      "payable": false,
      "stateMutability": "view",
      "type": "function"
    },
    {
      "constant": true,
      "inputs": [],
      "name": "getFileHash",
      "outputs": [
        {
          "name": "",
          "type": "bytes32[2]"
        }
      ],
      "payable": false,
      "stateMutability": "view",
      "type": "function"
    },
    {
      "constant": true,
      "inputs": [],
      "name": "getPermittedDownloaders",
      "outputs": [
        {
          "name": "",
          "type": "address[]"
        }
      ],
      "payable": false,
      "stateMutability": "view",
      "type": "function"
    },
    {
      "constant": true,
      "inputs": [],
      "name": "getReferences",
      "outputs": [
        {
          "name": "",
          "type": "address[]"
        }
      ],
      "payable": false,
      "stateMutability": "view",
      "type": "function"
    },
    {
      "constant": true,
      "inputs": [],
      "name": "getContributors",
      "outputs": [
        {
          "name": "",
          "type": "address[]"
        }
      ],
      "payable": false,
      "stateMutability": "view",
      "type": "function"
    },
    {
      "constant": true,
      "inputs": [],
      "name": "getContributorRewardDistribution",
      "outputs": [
        {
          "name": "",
          "type": "uint256[]"
        }
      ],
      "payable": false,
      "stateMutability": "view",
      "type": "function"
    },
    {
      "constant": true,
      "inputs": [],
      "name": "getTimeSubmitted",
      "outputs": [
        {
          "name": "",
          "type": "uint256"
        }
      ],
      "payable": false,
      "stateMutability": "view",
      "type": "function"
    },
    {
      "constant": true,
      "inputs": [],
      "name": "getTimeUpdated",
      "outputs": [
        {
          "name": "",
          "type": "uint256"
        }
      ],
      "payable": false,
      "stateMutability": "view",
      "type": "function"
    },
    {
      "constant": true,
      "inputs": [],
      "name": "getTotalWinnings",
      "outputs": [
        {
          "name": "",
          "type": "uint256"
        }
      ],
      "payable": false,
      "stateMutability": "view",
      "type": "function"
    },
    {
      "constant": false,
      "inputs": [],
      "name": "unlockFile",
      "outputs": [],
      "payable": false,
      "stateMutability": "nonpayable",
      "type": "function"
    },
    {
      "constant": false,
      "inputs": [
        {
          "components": [
            {
              "name": "title",
              "type": "bytes32[3]"
            },
            {
              "name": "descriptionHash",
              "type": "bytes32[2]"
            },
            {
              "name": "fileHash",
              "type": "bytes32[2]"
            }
          ],
          "name": "_modificationData",
          "type": "tuple"
        }
      ],
      "name": "updateData",
      "outputs": [],
      "payable": false,
      "stateMutability": "nonpayable",
      "type": "function"
    },
    {
      "constant": false,
      "inputs": [
        {
          "components": [
            {
              "name": "contributorsToAdd",
              "type": "address[]"
            },
            {
              "name": "contributorRewardDistribution",
              "type": "uint256[]"
            },
            {
              "name": "contributorsToRemove",
              "type": "uint256[]"
            }
          ],
          "name": "_contributorsModificationData",
          "type": "tuple"
        }
      ],
      "name": "updateContributors",
      "outputs": [],
      "payable": false,
      "stateMutability": "nonpayable",
      "type": "function"
    },
    {
      "constant": false,
      "inputs": [
        {
          "components": [
            {
              "name": "referencesToAdd",
              "type": "address[]"
            },
            {
              "name": "referencesToRemove",
              "type": "uint256[]"
            }
          ],
          "name": "_referencesModificationData",
          "type": "tuple"
        }
      ],
      "name": "updateReferences",
      "outputs": [],
      "payable": false,
      "stateMutability": "nonpayable",
      "type": "function"
    },
    {
      "constant": false,
      "inputs": [
        {
          "name": "_amount",
          "type": "uint256"
        }
      ],
      "name": "addToWinnings",
      "outputs": [],
      "payable": false,
      "stateMutability": "nonpayable",
      "type": "function"
    },
    {
      "constant": false,
      "inputs": [
        {
          "name": "_reference",
          "type": "address"
        }
      ],
      "name": "flagMissingReference",
      "outputs": [],
      "payable": false,
      "stateMutability": "nonpayable",
      "type": "function"
    },
    {
      "constant": false,
      "inputs": [
        {
          "name": "_reference",
          "type": "address"
        }
      ],
      "name": "removeMissingReferenceFlag",
      "outputs": [],
      "payable": false,
      "stateMutability": "nonpayable",
      "type": "function"
    },
    {
      "constant": false,
      "inputs": [
        {
          "components": [
            {
              "name": "contributors",
              "type": "address[]"
            },
            {
              "name": "contributorRewardDistribution",
              "type": "uint256[]"
            },
            {
              "name": "references",
              "type": "address[]"
            }
          ],
          "name": "_contribsAndRefs",
          "type": "tuple"
        }
      ],
      "name": "setContributorsAndReferences",
      "outputs": [],
      "payable": false,
      "stateMutability": "nonpayable",
      "type": "function"
    },
    {
      "constant": true,
      "inputs": [],
      "name": "getBalance",
      "outputs": [
        {
          "name": "",
          "type": "uint256"
        }
      ],
      "payable": false,
      "stateMutability": "view",
      "type": "function"
    },
    {
      "constant": false,
      "inputs": [],
      "name": "withdrawReward",
      "outputs": [],
      "payable": false,
      "stateMutability": "nonpayable",
      "type": "function"
    },
    {
      "constant": true,
      "inputs": [],
      "name": "myReward",
      "outputs": [
        {
          "name": "",
          "type": "uint256"
        }
      ],
      "payable": false,
      "stateMutability": "view",
      "type": "function"
    }
  ],
  "bytecode": "0x6080604052670de0b6b3a76400006022553480156200001d57600080fd5b506040516101a080620030b983398101806040526200004091908101906200054f565b6000805433600160a060020a0319918216178255600180548216600160a060020a038881169190911790915560028054831687831617905560038054909216908516178155825183916004916200009a91839190620002f6565b506020820151620000b290600383019060026200033b565b506040820151620000ca90600583019060026200033b565b506060820151600782015560809091015160089091015560008054600160a060020a031916600160a060020a03888116919091179091556001546040517f6a44e43d000000000000000000000000000000000000000000000000000000008152911690636a44e43d9062000143908990600401620005e1565b602060405180830381600087803b1580156200015e57600080fd5b505af115801562000173573d6000803e3d6000fd5b505050506040513d601f19601f8201168201806040525062000199919081019062000526565b60218054600160a060020a03928316600160a060020a03199182161790915542600b819055600c558782166000818152601f60209081526040808320805460ff19166001908117909155825490810183558284526000805160206200309983398151915201805490951690931790935560025482517f893d20e8000000000000000000000000000000000000000000000000000000008152925194169363893d20e8936004848101949193918390030190829087803b1580156200025c57600080fd5b505af115801562000271573d6000803e3d6000fd5b505050506040513d601f19601f8201168201806040525062000297919081019062000526565b600160a060020a03166000818152601f602090815260408220805460ff1916600190811790915581549081018255915260008051602062003099833981519152018054600160a060020a03191690911790555062000648945050505050565b826003810192821562000329579160200282015b828111156200032957825182556020909201916001909101906200030a565b50620003379291506200036d565b5090565b82600281019282156200032957916020028201828111156200032957825182556020909201916001909101906200030a565b6200038a91905b8082111562000337576000815560010162000374565b90565b60006200039b82516200063c565b9392505050565b6000601f82018313620003b457600080fd5b6002620003cb620003c5826200061e565b620005f7565b91508183856020840282011115620003e257600080fd5b60005b83811015620004125781620003fb888262000486565b8452506020928301929190910190600101620003e5565b5050505092915050565b6000601f820183136200042e57600080fd5b60036200043f620003c5826200061e565b915081838560208402820111156200045657600080fd5b60005b838110156200041257816200046f888262000486565b845250602092830192919091019060010162000459565b60006200039b82516200038a565b60006101208284031215620004a857600080fd5b620004b460a0620005f7565b90506000620004c484846200041c565b8252506060620004d784848301620003a2565b60208301525060a0620004ed84828501620003a2565b60408301525060e0620005038482850162000486565b6060830152506101006200051a8482850162000486565b60808301525092915050565b6000602082840312156200053957600080fd5b60006200054784846200038d565b949350505050565b60008060008060006101a086880312156200056957600080fd5b60006200057788886200038d565b95505060206200058a888289016200038d565b94505060406200059d888289016200038d565b9350506060620005b0888289016200038d565b9250506080620005c38882890162000494565b9150509295509295909350565b620005db816200063c565b82525050565b60208101620005f18284620005d0565b92915050565b6040518181016001604060020a03811182821017156200061657600080fd5b604052919050565b60006001604060020a038211156200063557600080fd5b5060200290565b600160a060020a031690565b612a4180620006586000396000f30060806040526004361061017f5763ffffffff7c010000000000000000000000000000000000000000000000000000000060003504166309b542bb81146101a45780630a181f52146101c65780630cbfdb2d146101e657806312065fe01461020657806314889e9914610231578063245edf06146102535780632f54bf6e1461027557806332c9c9d3146102a25780633bc5de30146102c257806342849570146102e457806349ca4d7f146102f95780635de8439f146103195780637a6337fa146103395780638493f71f1461034e578063893d20e8146103635780638da5cb5b146103855780638efa54101461039a57806393d1e712146103af5780639b057610146103cf5780639f8743f7146103e4578063a52dd12f146103f9578063a5faa12514610419578063ae1ca6921461042e578063af157c1914610443578063b09103d814610458578063c885bc581461046d578063e76c293e14610482578063f23e1cb414610497578063f2fde38b146104b9578063ff3c1a8f146104d9575b34801561018b57600080fd5b5061dead6000526002601ea060003560005260046000a0005b3480156101b057600080fd5b506101c46101bf36600461228e565b6104fb565b005b3480156101d257600080fd5b506101c46101e13660046121d1565b6105e8565b3480156101f257600080fd5b506101c461020136600461216f565b61069b565b34801561021257600080fd5b5061021b6107a1565b6040516102289190612951565b60405180910390f35b34801561023d57600080fd5b50610246610852565b60405161022891906127ee565b34801561025f57600080fd5b506102686108bd565b60405161022891906127ff565b34801561028157600080fd5b5061029561029036600461216f565b61090f565b604051610228919061282c565b3480156102ae57600080fd5b506101c46102bd36600461216f565b610930565b3480156102ce57600080fd5b506102d7610a36565b60405161022891906128c4565b3480156102f057600080fd5b5061021b610b56565b34801561030557600080fd5b506101c4610314366004612206565b610ca0565b34801561032557600080fd5b506101c4610334366004612270565b610dce565b34801561034557600080fd5b50610246610ef3565b34801561035a57600080fd5b50610268610f74565b34801561036f57600080fd5b50610378610fdd565b604051610228919061272b565b34801561039157600080fd5b50610378610ff9565b3480156103a657600080fd5b5061021b611015565b3480156103bb57600080fd5b506101c46103ca36600461223b565b61101b565b3480156103db57600080fd5b5061021b611160565b3480156103f057600080fd5b50610378611166565b34801561040557600080fd5b5061029561041436600461216f565b611182565b34801561042557600080fd5b506103786117bf565b34801561043a57600080fd5b5061021b6117f4565b34801561044f57600080fd5b506102466117fa565b34801561046457600080fd5b506101c461187a565b34801561047957600080fd5b506101c4611a8a565b34801561048e57600080fd5b50610378611b8e565b3480156104a357600080fd5b506104ac611baa565b604051610228919061281b565b3480156104c557600080fd5b506101c46104d436600461216f565b611c19565b3480156104e557600080fd5b506104ee611ca6565b604051610228919061280d565b60035473ffffffffffffffffffffffffffffffffffffffff163314806105c457506003546040517fb6a3497500000000000000000000000000000000000000000000000000000000815273ffffffffffffffffffffffffffffffffffffffff9091169063b6a349759061057290339060040161272b565b602060405180830381600087803b15801561058c57600080fd5b505af11580156105a0573d6000803e3d6000fd5b505050506040513d601f19601f820116820180604052506105c491908101906121b3565b15156105cf57600080fd5b6010546105e2908263ffffffff611cf216565b60105550565b60025473ffffffffffffffffffffffffffffffffffffffff16331461060c57600080fd5b6040517f15392d2f00000000000000000000000000000000000000000000000000000000815273__LibSubmission_________________________906315392d2f9061066890600d90601090601590601f90889060040161287d565b60006040518083038186803b15801561068057600080fd5b505af4158015610694573d6000803e3d6000fd5b5050505050565b6001546040517f3e44cf7800000000000000000000000000000000000000000000000000000000815273ffffffffffffffffffffffffffffffffffffffff90911690633e44cf78906106f190339060040161272b565b602060405180830381600087803b15801561070b57600080fd5b505af115801561071f573d6000803e3d6000fd5b505050506040513d601f19601f8201168201806040525061074391908101906121b3565b151561074e57600080fd5b6040517fb0bba0ff00000000000000000000000000000000000000000000000000000000815273__LibSubmissionTrust____________________9063b0bba0ff90610668906015908590600401612936565b6003546040517ff8b2cb4f00000000000000000000000000000000000000000000000000000000815260009173ffffffffffffffffffffffffffffffffffffffff1690819063f8b2cb4f906107fa90309060040161283a565b602060405180830381600087803b15801561081457600080fd5b505af1158015610828573d6000803e3d6000fd5b505050506040513d601f19601f8201168201806040525061084c91908101906122ac565b91505090565b6020805460408051828402810184019091528181526060929091828201828280156108b357602002820191906000526020600020905b815473ffffffffffffffffffffffffffffffffffffffff168152600190910190602001808311610888575b5050505050905090565b6108c5611d08565b336108cf81611182565b15156108da57600080fd5b60408051808201918290529060079060029082845b815481526001909101906020018083116108ef575b505050505091505090565b60005473ffffffffffffffffffffffffffffffffffffffff91821691161490565b6001546040517f3e44cf7800000000000000000000000000000000000000000000000000000000815273ffffffffffffffffffffffffffffffffffffffff90911690633e44cf789061098690339060040161272b565b602060405180830381600087803b1580156109a057600080fd5b505af11580156109b4573d6000803e3d6000fd5b505050506040513d601f19601f820116820180604052506109d891908101906121b3565b15156109e357600080fd5b6040517f35974e8f00000000000000000000000000000000000000000000000000000000815273__LibSubmissionTrust____________________906335974e8f90610668906015908590600401612936565b610a3e611d23565b610a46611d23565b33610a5081611182565b1515610a5b57600080fd5b60408051610100810190915260048160a081018260038282826020028201915b81548152600190910190602001808311610a7b575050509183525050604080518082019182905260209092019190600384019060029082845b81548152600190910190602001808311610ab4575050509183525050604080518082019182905260209092019190600584019060029082845b81548152600190910190602001808311610aed5750505091835250506007820154602080830191909152600890920154604091820152336000908152601f90925290205490925060ff161515610b50576040820180516000908190529051602001525b50919050565b6001546040517f223c8136000000000000000000000000000000000000000000000000000000008152600091829173__LibSubmission_________________________9163223c813691610bc99173ffffffffffffffffffffffffffffffffffffffff1690601090601590600401612774565b60206040518083038186803b158015610be157600080fd5b505af4158015610bf5573d6000803e3d6000fd5b505050506040513d601f19601f82011682018060405250610c1991908101906122ac565b6040517fbf1053e200000000000000000000000000000000000000000000000000000000815290915073__LibSubmission_________________________9063bf1053e290610c7490600d9060109033908790600401612848565b60206040518083038186803b158015610c8c57600080fd5b505af4158015610828573d6000803e3d6000fd5b60005473ffffffffffffffffffffffffffffffffffffffff163314610cc457600080fd5b600354604080517f1865c57d000000000000000000000000000000000000000000000000000000008152905160029273ffffffffffffffffffffffffffffffffffffffff1691631865c57d9160048083019260209291908290030181600087803b158015610d3157600080fd5b505af1158015610d45573d6000803e3d6000fd5b505050506040513d601f19601f82011682018060405250610d6991908101906122ac565b14610d7357600080fd5b6040517f852972b200000000000000000000000000000000000000000000000000000000815273__LibSubmission_________________________9063852972b29061066890600490600d90601090601f90889085016128d3565b60005473ffffffffffffffffffffffffffffffffffffffff163314610df257600080fd5b600354604080517f1865c57d000000000000000000000000000000000000000000000000000000008152905160029273ffffffffffffffffffffffffffffffffffffffff1691631865c57d9160048083019260209291908290030181600087803b158015610e5f57600080fd5b505af1158015610e73573d6000803e3d6000fd5b505050506040513d601f19601f82011682018060405250610e9791908101906122ac565b14610ea157600080fd5b6040517f92ee139000000000000000000000000000000000000000000000000000000000815273__LibSubmission_________________________906392ee139090610668906004908590820161291a565b606033610eff81611182565b1515610f0a57600080fd5b600f80546040805160208084028201810190925282815292919083018282801561090457602002820191906000526020600020905b815473ffffffffffffffffffffffffffffffffffffffff168152600190910190602001808311610f3f57505050505091505090565b610f7c611d08565b33610f8681611182565b1515610f9157600080fd5b336000908152601f602052604090205460ff161515610faf57600080fd5b60408051808201918290526009805482529091600290600a602085018083116108ef57505050505091505090565b60005473ffffffffffffffffffffffffffffffffffffffff1690565b60005473ffffffffffffffffffffffffffffffffffffffff1681565b600c5490565b60005473ffffffffffffffffffffffffffffffffffffffff16331461103f57600080fd5b600354604080517f1865c57d000000000000000000000000000000000000000000000000000000008152905160029273ffffffffffffffffffffffffffffffffffffffff1691631865c57d9160048083019260209291908290030181600087803b1580156110ac57600080fd5b505af11580156110c0573d6000803e3d6000fd5b505050506040513d601f19601f820116820180604052506110e491908101906122ac565b146110ee57600080fd5b6001546040517f2612f55c00000000000000000000000000000000000000000000000000000000815273__LibSubmission_________________________91632612f55c916106689173ffffffffffffffffffffffffffffffffffffffff1690600490600d906015908890840161279c565b60105490565b60035473ffffffffffffffffffffffffffffffffffffffff1690565b600354600254604080517f2fc1f190000000000000000000000000000000000000000000000000000000008152905160009373ffffffffffffffffffffffffffffffffffffffff908116931691849182918291829182918291829182918a91632fc1f1909160048082019260209290919082900301818787803b15801561120857600080fd5b505af115801561121c573d6000803e3d6000fd5b505050506040513d601f19601f820116820180604052506112409190810190612195565b73ffffffffffffffffffffffffffffffffffffffff168c73ffffffffffffffffffffffffffffffffffffffff16149750600360009054906101000a900473ffffffffffffffffffffffffffffffffffffffff1673ffffffffffffffffffffffffffffffffffffffff168c73ffffffffffffffffffffffffffffffffffffffff161496506000809054906101000a900473ffffffffffffffffffffffffffffffffffffffff1673ffffffffffffffffffffffffffffffffffffffff168c73ffffffffffffffffffffffffffffffffffffffff161495506003600681111561132257fe5b600360009054906101000a900473ffffffffffffffffffffffffffffffffffffffff1673ffffffffffffffffffffffffffffffffffffffff16631865c57d6040518163ffffffff167c0100000000000000000000000000000000000000000000000000000000028152600401602060405180830381600087803b1580156113a857600080fd5b505af11580156113bc573d6000803e3d6000fd5b505050506040513d601f19601f820116820180604052506113e091908101906122ac565b6002546040517f52c01fab0000000000000000000000000000000000000000000000000000000081529290911015965073ffffffffffffffffffffffffffffffffffffffff16906352c01fab9061143b908f9060040161272b565b602060405180830381600087803b15801561145557600080fd5b505af1158015611469573d6000803e3d6000fd5b505050506040513d601f19601f8201168201806040525061148d91908101906121b3565b93508b73ffffffffffffffffffffffffffffffffffffffff168973ffffffffffffffffffffffffffffffffffffffff1663893d20e86040518163ffffffff167c0100000000000000000000000000000000000000000000000000000000028152600401602060405180830381600087803b15801561150a57600080fd5b505af115801561151e573d6000803e3d6000fd5b505050506040513d601f19601f820116820180604052506115429190810190612195565b73ffffffffffffffffffffffffffffffffffffffff1614925084801561156c5750828061156c5750835b91506005600360009054906101000a900473ffffffffffffffffffffffffffffffffffffffff1673ffffffffffffffffffffffffffffffffffffffff16631865c57d6040518163ffffffff167c0100000000000000000000000000000000000000000000000000000000028152600401602060405180830381600087803b1580156115f657600080fd5b505af115801561160a573d6000803e3d6000fd5b505050506040513d601f19601f8201168201806040525061162e91908101906122ac565b10159050878061163b5750865b806116435750855b8061164b5750815b806116f957506001546040517f3e44cf7800000000000000000000000000000000000000000000000000000000815273ffffffffffffffffffffffffffffffffffffffff90911690633e44cf78906116a7908f9060040161272b565b602060405180830381600087803b1580156116c157600080fd5b505af11580156116d5573d6000803e3d6000fd5b505050506040513d601f19601f820116820180604052506116f991908101906121b3565b806117a757506001546040517f818b5fa800000000000000000000000000000000000000000000000000000000815273ffffffffffffffffffffffffffffffffffffffff9091169063818b5fa890611755908f9060040161272b565b602060405180830381600087803b15801561176f57600080fd5b505af1158015611783573d6000803e3d6000fd5b505050506040513d601f19601f820116820180604052506117a791908101906121b3565b806117af5750805b9c9b505050505050505050505050565b6000336117cb81611182565b15156117d657600080fd5b505060215473ffffffffffffffffffffffffffffffffffffffff1690565b600b5490565b60603361180681611182565b151561181157600080fd5b600d8054604080516020808402820181019092528281529291908301828280156109045760200282019190600052602060002090815473ffffffffffffffffffffffffffffffffffffffff168152600190910190602001808311610f3f57505050505091505090565b6001546040517f532311c400000000000000000000000000000000000000000000000000000000815273ffffffffffffffffffffffffffffffffffffffff9091169063532311c4906118d090339060040161272b565b602060405180830381600087803b1580156118ea57600080fd5b505af11580156118fe573d6000803e3d6000fd5b505050506040513d601f19601f8201168201806040525061192291908101906121b3565b151561192d57600080fd5b60038060009054906101000a900473ffffffffffffffffffffffffffffffffffffffff1673ffffffffffffffffffffffffffffffffffffffff16631865c57d6040518163ffffffff167c0100000000000000000000000000000000000000000000000000000000028152600401602060405180830381600087803b1580156119b457600080fd5b505af11580156119c8573d6000803e3d6000fd5b505050506040513d601f19601f820116820180604052506119ec91908101906122ac565b10156119f757600080fd5b336000818152601f60209081526040822080547fffffffffffffffffffffffffffffffffffffffffffffffffffffffffffffff001660019081179091558154908101825591527fc97bfaf2f8ee708c303a06d134f5ecd8389ae0432af62dc132a24118292866bb0180547fffffffffffffffffffffffff0000000000000000000000000000000000000000169091179055565b60005473ffffffffffffffffffffffffffffffffffffffff16331480611abe57503360009081526013602052604090205415155b80611ae0575060035473ffffffffffffffffffffffffffffffffffffffff1633145b1515611aeb57600080fd5b6001546040517f36b39c0800000000000000000000000000000000000000000000000000000000815273__LibSubmission_________________________916336b39c0891611b5c9173ffffffffffffffffffffffffffffffffffffffff1690600d9060109060159060040161273f565b60006040518083038186803b158015611b7457600080fd5b505af4158015611b88573d6000803e3d6000fd5b50505050565b60025473ffffffffffffffffffffffffffffffffffffffff1690565b606033611bb681611182565b1515611bc157600080fd5b604051600d5460208252806020830152600d6000526020600020600360100160205260005b82811015611c0e57818101546000908152604090205460028201602002850152600101611be6565b506020600283010283f35b60005473ffffffffffffffffffffffffffffffffffffffff163314611c3d57600080fd5b73ffffffffffffffffffffffffffffffffffffffff81161515611c5f57600080fd5b600080547fffffffffffffffffffffffff00000000000000000000000000000000000000001673ffffffffffffffffffffffffffffffffffffffff92909216919091179055565b611cae611d66565b33611cb881611182565b1515611cc357600080fd5b60408051606081019182905260048054825290916003906005602085018083116108ef57505050505091505090565b600082820183811015611d0157fe5b9392505050565b60408051808201825290600290829080388339509192915050565b61012060405190810160405280611d38611d66565b8152602001611d45611d08565b8152602001611d52611d08565b815260200160008152602001600081525090565b6060604051908101604052806003906020820280388339509192915050565b6000611d0182356129de565b6000611d0182516129de565b6000601f82018313611dae57600080fd5b8135611dc1611dbc82612986565b61295f565b91508181835260208401935060208101905083856020840282011115611de657600080fd5b60005b83811015611e125781611dfc8882611d85565b8452506020928301929190910190600101611de9565b5050505092915050565b6000601f82018313611e2d57600080fd5b6002611e3b611dbc826129a7565b91508183856020840282011115611e5157600080fd5b60005b83811015611e125781611e678882611f5a565b8452506020928301929190910190600101611e54565b6000601f82018313611e8e57600080fd5b6003611e9c611dbc826129a7565b91508183856020840282011115611eb257600080fd5b60005b83811015611e125781611ec88882611f5a565b8452506020928301929190910190600101611eb5565b6000601f82018313611eef57600080fd5b8135611efd611dbc82612986565b91508181835260208401935060208101905083856020840282011115611f2257600080fd5b60005b83811015611e125781611f388882611f5a565b8452506020928301929190910190600101611f25565b6000611d0182516129f7565b6000611d0182356129cb565b600060608284031215611f7857600080fd5b611f82606061295f565b9050813567ffffffffffffffff811115611f9b57600080fd5b611fa784828501611d9d565b825250602082013567ffffffffffffffff811115611fc457600080fd5b611fd084828501611ede565b602083015250604082013567ffffffffffffffff811115611ff057600080fd5b611ffc84828501611d9d565b60408301525092915050565b60006060828403121561201a57600080fd5b612024606061295f565b9050813567ffffffffffffffff81111561203d57600080fd5b61204984828501611d9d565b825250602082013567ffffffffffffffff81111561206657600080fd5b61207284828501611ede565b602083015250604082013567ffffffffffffffff81111561209257600080fd5b611ffc84828501611ede565b6000604082840312156120b057600080fd5b6120ba604061295f565b9050813567ffffffffffffffff8111156120d357600080fd5b6120df84828501611d9d565b825250602082013567ffffffffffffffff8111156120fc57600080fd5b61210884828501611ede565b60208301525092915050565b600060e0828403121561212657600080fd5b612130606061295f565b9050600061213e8484611e7d565b825250606061214f84848301611e1c565b60208301525060a0611ffc84828501611e1c565b6000611d0182516129cb565b60006020828403121561218157600080fd5b600061218d8484611d85565b949350505050565b6000602082840312156121a757600080fd5b600061218d8484611d91565b6000602082840312156121c557600080fd5b600061218d8484611f4e565b6000602082840312156121e357600080fd5b813567ffffffffffffffff8111156121fa57600080fd5b61218d84828501611f66565b60006020828403121561221857600080fd5b813567ffffffffffffffff81111561222f57600080fd5b61218d84828501612008565b60006020828403121561224d57600080fd5b813567ffffffffffffffff81111561226457600080fd5b61218d8482850161209e565b600060e0828403121561228257600080fd5b600061218d8484612114565b6000602082840312156122a057600080fd5b600061218d8484611f5a565b6000602082840312156122be57600080fd5b600061218d8484612163565b6122d3816129de565b82525050565b60006122e4826129ce565b8084526020840193506122f6836129c5565b60005b828110156123265761230c8683516122ca565b612315826129c5565b6020969096019591506001016122f9565b5093949350505050565b600061233b826129ce565b80845260208401935061234d836129c5565b60005b82811015612326576123638683516122ca565b61236c826129c5565b602096909601959150600101612350565b612386816129d2565b61238f826129cb565b60005b82811015610694576123a58583516125ac565b6123ae826129c5565b602095909501949150600101612392565b6123c8816129d2565b6123d1826129cb565b60005b82811015610694576123e78583516125ac565b6123f0826129c5565b6020959095019491506001016123d4565b61240a816129d2565b612413826129cb565b60005b82811015610694576124298583516125ac565b612432826129c5565b602095909501949150600101612416565b61244c816129d8565b612455826129cb565b60005b828110156106945761246b8583516125ac565b612474826129c5565b602095909501949150600101612458565b61248e816129d8565b612497826129cb565b60005b82811015610694576124ad8583516125ac565b6124b6826129c5565b60209590950194915060010161249a565b6124d0816129d8565b6124d9826129cb565b60005b82811015610694576124ef8583516125ac565b6124f8826129c5565b6020959095019491506001016124dc565b6000612514826129ce565b808452602084019350612526836129c5565b60005b828110156123265761253c8683516125ac565b612545826129c5565b602096909601959150600101612529565b6000612561826129ce565b808452602084019350612573836129c5565b60005b82811015612326576125898683516125ac565b612592826129c5565b602096909601959150600101612576565b6122d3816129f7565b6122d3816129cb565b6122d3816129fc565b80516060808452600091908401906125d68282612330565b915050602083015184820360208601526125f08282612556565b9150506040830151848203604086015261260a8282612330565b95945050505050565b9052565b805160608084526000919084019061262f8282612330565b915050602083015184820360208601526126498282612556565b9150506040830151848203604086015261260a8282612556565b805160408084526000919084019061267b8282612330565b9150506020830151848203602086015261260a8282612556565b80516101208301906126a78482612485565b5060208201516126ba60608501826123bf565b5060408201516126cd60a08501826123bf565b5060608201516126e060e08501826125ac565b506080820151611b886101008501826125ac565b805160e083019061270584826124c7565b5060208201516127186060850182612401565b506040820151611b8860a0850182612401565b6020810161273982846122ca565b92915050565b6080810161274d82876122ca565b61275a6020830186612613565b6127676040830185612613565b61260a6060830184612613565b6060810161278282866122ca565b61278f6020830185612613565b61218d6040830184612613565b60a081016127aa82886122ca565b6127b76020830187612613565b6127c46040830186612613565b6127d16060830185612613565b81810360808301526127e38184612663565b979650505050505050565b60208082528101611d0181846122d9565b60408101612739828461237d565b606081016127398284612443565b60208082528101611d018184612509565b6020810161273982846125a3565b6020810161273982846125b5565b608081016128568287612613565b6128636020830186612613565b61287060408301856122ca565b61260a60608301846125ac565b60a0810161288b8288612613565b6128986020830187612613565b6128a56040830186612613565b6128b26060830185612613565b81810360808301526127e381846125be565b61012081016127398284612695565b60a081016128e18288612613565b6128ee6020830187612613565b6128fb6040830186612613565b6129086060830185612613565b81810360808301526127e38184612617565b61010081016129298285612613565b611d0160208301846126f4565b604081016129448285612613565b611d0160208301846122ca565b6020810161273982846125ac565b60405181810167ffffffffffffffff8111828210171561297e57600080fd5b604052919050565b600067ffffffffffffffff82111561299d57600080fd5b5060209081020190565b600067ffffffffffffffff8211156129be57600080fd5b5060200290565b60200190565b90565b5190565b50600290565b50600390565b73ffffffffffffffffffffffffffffffffffffffff1690565b151590565b6000612739826129de5600a265627a7a7230582002551efcb083b92d62974a397eabe8b981c977bf0ae00c286522550c5ae41e236c6578706572696d656e74616cf50037c97bfaf2f8ee708c303a06d134f5ecd8389ae0432af62dc132a24118292866bb",
  "source": "pragma solidity ^0.4.18;\npragma experimental ABIEncoderV2;\n\n\nimport \"../libraries/math/SafeMath.sol\";\nimport \"../libraries/math/SafeMath128.sol\";\nimport \"../libraries/strings/strings.sol\";\nimport \"../libraries/LibConstruction.sol\";\nimport \"../libraries/LibEnums.sol\";\nimport \"../libraries/submission/LibSubmission.sol\";\nimport \"../libraries/submission/LibSubmissionTrust.sol\";\nimport \"../interfaces/IMatryxToken.sol\";\nimport \"../interfaces/IMatryxPeer.sol\";\nimport \"../interfaces/IMatryxPlatform.sol\";\nimport \"../interfaces/IMatryxTournament.sol\";\nimport \"../interfaces/IMatryxRound.sol\";\nimport \"../interfaces/IMatryxSubmission.sol\";\nimport \"./Ownable.sol\";\n\ncontract MatryxSubmission is Ownable, IMatryxSubmission {\n    using SafeMath for uint256;\n    using SafeMath128 for uint128;\n    using SafeMath for uint32;\n    using strings for *;\n\n    // Parent identification\n    address private platformAddress;\n    address private tournamentAddress;\n    address private roundAddress;\n\n    // Submission\n    LibConstruction.SubmissionData data;\n    LibConstruction.ContributorsAndReferences contributorsAndReferences;\n    LibSubmission.RewardData rewardData;\n    LibSubmission.TrustData trustData;\n    LibSubmission.FileDownloadTracking downloadData;\n\n    address author;\n\n    uint256 one = 10**18;\n\n    constructor(address _owner, address _platformAddress, address _tournamentAddress, address _roundAddress, LibConstruction.SubmissionData _submissionData) public\n    {\n        platformAddress = _platformAddress;\n        tournamentAddress = _tournamentAddress;\n        roundAddress = _roundAddress;\n\n        data = _submissionData;\n        owner = _owner;\n        author = IMatryxPlatform(platformAddress).peerAddress(_owner);\n\n        data.timeSubmitted = now;\n        data.timeUpdated = now;\n\n        downloadData.permittedToViewFile[_owner] = true;\n        downloadData.allPermittedToViewFile.push(_owner);\n        address tournamentOwner = Ownable(tournamentAddress).getOwner();\n        downloadData.permittedToViewFile[tournamentOwner] = true;\n        downloadData.allPermittedToViewFile.push(tournamentOwner);\n    }\n\n    /*\n    * Modifiers\n    */\n\n    // modifier onlyAuthor() {\n    //    \trequire(msg.sender == author);\n    //    \t_;\n    //  \t}\n\n    modifier onlyPlatform() {\n        require(msg.sender == platformAddress);\n        _;\n    }\n\n    modifier onlyTournament() {\n        require(msg.sender == tournamentAddress);\n        _;\n    }\n\n    // modifier onlyRound()\n    // {\n    // \trequire(msg.sender == roundAddress);\n    // \t_;\n    // }\n\n    modifier ownerContributorOrRound()\n    {\n        require(msg.sender == owner || rewardData.contributorToBountyDividend[msg.sender] != 0 || msg.sender == roundAddress);\n        _;\n    }\n\n    modifier onlyPeer()\n    {\n        require(IMatryxPlatform(platformAddress).isPeer(msg.sender));\n        _;\n    }\n\n    modifier onlyHasPeer() {\n        require(IMatryxPlatform(platformAddress).hasPeer(msg.sender));\n        _;\n    }\n\n    modifier atLeastInReview() {\n        require(IMatryxRound(roundAddress).getState() >= uint256(LibEnums.RoundState.InReview));\n        _;\n    }\n\n    // A modifier to ensure that information can only obtained\n    // about this submission when it should be.\n    modifier whenAccessible(address _requester)\n    {\n        require(isAccessible(_requester));\n        _;\n    }\n\n    modifier onlySubmissionOrRound()\n    {\n        require(msg.sender == roundAddress || IMatryxRound(roundAddress).submissionExists(msg.sender));\n        _;\n    }\n\n    modifier onlyOwnerOrThis()\n    {\n        require(msg.sender == owner || msg.sender == address(this));\n        _;\n    }\n\n    modifier duringOpenSubmission()\n    {\n        require(IMatryxRound(roundAddress).getState() == uint256(LibEnums.RoundState.Open));\n        _;\n    }\n\n    /*\n    * Getter Methods\n    */\n\n    function() public {\n        assembly {\n            mstore(0, 0xdead)\n            log0(0x1e, 0x02)\n            mstore(0, calldataload(0x0))\n            log0(0, 0x04)\n        }\n    }\n\n    function getTournament() public view returns (address) {\n        return tournamentAddress;\n    }\n\n    function getRound() public view returns (address) {\n        return roundAddress;\n    }\n\n    function isAccessible(address _requester) public view returns (bool)\n    {\n        IMatryxRound round = IMatryxRound(roundAddress);\n        Ownable ownableTournament = Ownable(tournamentAddress);\n\n        bool isPlatform = _requester == IMatryxTournament(tournamentAddress).getPlatform();\n        bool isRound = _requester == roundAddress;\n        bool ownsThisSubmission = _requester == owner;\n        bool roundAtLeastInReview = IMatryxRound(roundAddress).getState() >= uint256(LibEnums.RoundState.InReview);\n        bool requesterIsEntrant = IMatryxTournament(tournamentAddress).isEntrant(_requester);\n        bool requesterOwnsTournament = ownableTournament.getOwner() == _requester;\n        bool duringReviewAndRequesterInTournament = roundAtLeastInReview && (requesterOwnsTournament || requesterIsEntrant);\n        // TODO: think about next steps (encryption)\n        bool roundIsClosed = IMatryxRound(roundAddress).getState() >= uint256(LibEnums.RoundState.Closed);\n\n        return isPlatform || isRound || ownsThisSubmission || duringReviewAndRequesterInTournament || IMatryxPlatform(platformAddress).isPeer(_requester) || IMatryxPlatform(platformAddress).isSubmission(_requester) || roundIsClosed;\n    }\n\n    function getData() public view whenAccessible(msg.sender) returns(LibConstruction.SubmissionData _data) {\n        LibConstruction.SubmissionData memory returnData = data;\n\n        if(!downloadData.permittedToViewFile[msg.sender])\n        {\n            returnData.fileHash[0] = 0x0;\n            returnData.fileHash[1] = 0x0;\n        }\n\n        return returnData;\n    }\n\n    function getTitle() public view whenAccessible(msg.sender) returns(bytes32[3]) {\n        return data.title;\n    }\n\n    function getAuthor() public view whenAccessible(msg.sender) returns(address) {\n        return author;\n    }\n\n    function getDescriptionHash() public view whenAccessible(msg.sender) returns (bytes32[2]) {\n        return data.descriptionHash;\n    }\n\n    function getFileHash() public view whenAccessible(msg.sender) returns (bytes32[2]) {\n        require(downloadData.permittedToViewFile[msg.sender]);\n        return data.fileHash;\n    }\n\n    function getPermittedDownloaders() public view returns (address[]) {\n        return downloadData.allPermittedToViewFile;\n    }\n\n    function getReferences() public view whenAccessible(msg.sender) returns(address[]) {\n        return contributorsAndReferences.references;\n    }\n\n    function getContributors() public view whenAccessible(msg.sender) returns(address[]) {\n        return contributorsAndReferences.contributors;\n    }\n\n    function getContributorRewardDistribution() public view whenAccessible(msg.sender) returns (uint256[]) {\n        assembly {\n            let ptr := mload(0x40)\n            let len := sload(contributorsAndReferences_slot)\n\n            mstore(ptr, 0x20)           // elem size\n            mstore(add(ptr, 0x20), len) // arr len\n\n            mstore(0, contributorsAndReferences_slot)\n            let s_car := keccak256(0, 0x20)\n\n            mstore(0x20, add(rewardData_slot, 3)) // rewardData.contributorToBountyDividend\n\n            for { let i := 0 } lt(i, len) { i := add(i, 1) } {\n                let con := sload(add(s_car, i))\n                mstore(0, con)\n                let dist := keccak256(0, 0x40)    // rewardData.contributorToBountyDividend[contributor]\n                mstore(add(ptr, mul(add(i, 2), 0x20)), sload(dist))\n            }\n\n            return(ptr, mul(add(len, 2), 0x20))\n        }\n    }\n\n    function getTimeSubmitted() public view returns(uint256) {\n        return data.timeSubmitted;\n    }\n\n    function getTimeUpdated() public view returns(uint256) {\n        return data.timeUpdated;\n    }\n\n    function getTotalWinnings() public view returns(uint256) {\n        return rewardData.winnings;\n    }\n\n    /*\n    * Setter Methods\n    */\n\n    function unlockFile() public onlyHasPeer atLeastInReview {\n        downloadData.permittedToViewFile[msg.sender] = true;\n        downloadData.allPermittedToViewFile.push(msg.sender);\n    }\n\n    function updateData(LibConstruction.SubmissionModificationData _modificationData) public onlyOwner duringOpenSubmission\n    {\n        LibSubmission.updateData(data, _modificationData);\n    }\n\n    function updateContributors(LibConstruction.ContributorsModificationData _contributorsModificationData) public onlyOwner duringOpenSubmission\n    {\n        LibSubmission.updateContributors(data, contributorsAndReferences, rewardData, downloadData, _contributorsModificationData);\n    }\n\n    function updateReferences(LibConstruction.ReferencesModificationData _referencesModificationData) public onlyOwner duringOpenSubmission\n    {\n        LibSubmission.updateReferences(platformAddress, data, contributorsAndReferences, trustData, _referencesModificationData);\n    }\n\n    function addToWinnings(uint256 _amount) public onlySubmissionOrRound\n    {\n        rewardData.winnings = rewardData.winnings.add(_amount);\n    }\n\n    // // Debug function. ?MAYBEDO:Delete\n    // function addressIsFlagged(address _reference) public view returns (bool, bool)\n    // {\n    // \treturn (addressToReferenceInfo[_reference].flagged, missingReferenceToIndex[_reference].exists);\n    // }\n\n    /// @dev \tCalled by the owner of _reference when this submission does not list _reference\n    /// \t\tas a reference.\n    /// @param  _reference Missing reference in this submission.\n    function flagMissingReference(address _reference) public onlyPeer\n    {\n        LibSubmissionTrust.flagMissingReference(trustData, _reference);\n    }\n\n    /// @dev \t\t\t  Called by the owner of _reference to remove a missing reference flag placed on a reference\n    ///\t\t \t\t\t  as missing.\n    /// @param _reference Reference previously marked by peer as missing.\n    function removeMissingReferenceFlag(address _reference) public onlyPeer\n    {\n        LibSubmissionTrust.removeMissingReferenceFlag(trustData, _reference);\n    }\n\n    /// @dev Sets contributors and references at submission creation time\n    /// @param _contribsAndRefs Struct containing contributors, reward distribution, and references\n    function setContributorsAndReferences(LibConstruction.ContributorsAndReferences _contribsAndRefs) public onlyTournament\n    {\n        LibSubmission.setContributorsAndReferences(contributorsAndReferences, rewardData, trustData, downloadData, _contribsAndRefs);\n    }\n\n    function getBalance() public view returns (uint256)\n    {\n        IMatryxRound round = IMatryxRound(roundAddress);\n        return round.getBalance(this);\n    }\n\n    function withdrawReward() public ownerContributorOrRound\n    {\n        LibSubmission.withdrawReward(platformAddress, contributorsAndReferences, rewardData, trustData);\n    }\n\n    function myReward() public view returns (uint256)\n    {\n        uint256 transferAmount = LibSubmission.getTransferAmount(platformAddress, rewardData, trustData);\n        return LibSubmission._myReward(contributorsAndReferences, rewardData, msg.sender, transferAmount);\n    }\n\n}\n",
  "sourcePath": "/Users/maxhoward/Desktop/Ethereum/MatryxPlatform/contracts/MatryxSubmission.sol",
  "compiler": {
    "name": "solc",
    "version": "0.4.24+commit.e67f0147.Emscripten.clang"
  },
  "schemaVersion": "2.0.1",
  "updatedAt": "2018-08-10T16:15:12.919Z"
}