{
  "contractName": "MatryxPeerFactory",
  "abi": [
    {
      "constant": true,
      "inputs": [
        {
          "name": "_sender",
          "type": "address"
        }
      ],
      "name": "isOwner",
      "outputs": [
        {
          "name": "_isOwner",
          "type": "bool"
        }
      ],
      "payable": false,
      "stateMutability": "view",
      "type": "function"
    },
    {
      "constant": true,
      "inputs": [],
      "name": "getOwner",
      "outputs": [
        {
          "name": "_owner",
          "type": "address"
        }
      ],
      "payable": false,
      "stateMutability": "view",
      "type": "function"
    },
    {
      "constant": true,
      "inputs": [],
      "name": "owner",
      "outputs": [
        {
          "name": "",
          "type": "address"
        }
      ],
      "payable": false,
      "stateMutability": "view",
      "type": "function"
    },
    {
      "constant": true,
      "inputs": [],
      "name": "platformAddress",
      "outputs": [
        {
          "name": "",
          "type": "address"
        }
      ],
      "payable": false,
      "stateMutability": "view",
      "type": "function"
    },
    {
      "constant": true,
      "inputs": [],
      "name": "peerCount",
      "outputs": [
        {
          "name": "",
          "type": "uint64"
        }
      ],
      "payable": false,
      "stateMutability": "view",
      "type": "function"
    },
    {
      "constant": false,
      "inputs": [
        {
          "name": "newOwner",
          "type": "address"
        }
      ],
      "name": "transferOwnership",
      "outputs": [],
      "payable": false,
      "stateMutability": "nonpayable",
      "type": "function"
    },
    {
      "constant": false,
      "inputs": [
        {
          "name": "_platformAddress",
          "type": "address"
        }
      ],
      "name": "setPlatform",
      "outputs": [],
      "payable": false,
      "stateMutability": "nonpayable",
      "type": "function"
    },
    {
      "constant": false,
      "inputs": [
        {
          "name": "_owner",
          "type": "address"
        }
      ],
      "name": "createPeer",
      "outputs": [
        {
          "name": "_peerAddress",
          "type": "address"
        }
      ],
      "payable": false,
      "stateMutability": "nonpayable",
      "type": "function"
    },
    {
      "constant": true,
      "inputs": [],
      "name": "getTrustForNewPeer",
      "outputs": [
        {
          "name": "",
          "type": "uint128"
        }
      ],
      "payable": false,
      "stateMutability": "view",
      "type": "function"
    },
    {
      "constant": true,
      "inputs": [
        {
          "name": "_input",
          "type": "uint256"
        }
      ],
      "name": "fastSigmoid",
      "outputs": [
        {
          "name": "",
          "type": "uint128"
        }
      ],
      "payable": false,
      "stateMutability": "pure",
      "type": "function"
    }
  ],
  "bytecode": "0x608060405260008054600160a060020a03191633179055610655806100256000396000f3006080604052600436106100a35763ffffffff7c01000000000000000000000000000000000000000000000000000000006000350416632f54bf6e81146100a857806348bf9577146100ea5780636945c5ea146101415780637fdf816c14610171578063893d20e8146101ab5780638da5cb5b146101c057806395cc1b10146101d5578063dbe55e56146101ed578063e81ea59514610202578063f2fde38b14610234575b600080fd5b3480156100b457600080fd5b506100d673ffffffffffffffffffffffffffffffffffffffff60043516610262565b604080519115158252519081900360200190f35b3480156100f657600080fd5b5061011873ffffffffffffffffffffffffffffffffffffffff60043516610283565b6040805173ffffffffffffffffffffffffffffffffffffffff9092168252519081900360200190f35b34801561014d57600080fd5b5061016f73ffffffffffffffffffffffffffffffffffffffff600435166102b1565b005b34801561017d57600080fd5b5061018661031c565b604080516fffffffffffffffffffffffffffffffff9092168252519081900360200190f35b3480156101b757600080fd5b506101186103d0565b3480156101cc57600080fd5b506101186103ec565b3480156101e157600080fd5b50610186600435610408565b3480156101f957600080fd5b5061011861047b565b34801561020e57600080fd5b50610217610497565b6040805167ffffffffffffffff9092168252519081900360200190f35b34801561024057600080fd5b5061016f73ffffffffffffffffffffffffffffffffffffffff600435166104bf565b60005473ffffffffffffffffffffffffffffffffffffffff91821691161490565b60015460009073ffffffffffffffffffffffffffffffffffffffff1633146102aa57600080fd5b5030919050565b60005473ffffffffffffffffffffffffffffffffffffffff1633146102d557600080fd5b600180547fffffffffffffffffffffffff00000000000000000000000000000000000000001673ffffffffffffffffffffffffffffffffffffffff92909216919091179055565b60008060008061034e600160149054906101000a900467ffffffffffffffff1660020167ffffffffffffffff16610408565b925061037c600160149054906101000a900467ffffffffffffffff1660010167ffffffffffffffff16610408565b91505080820360006fffffffffffffffffffffffffffffffff821610156103a257600080fd5b670de0b6b3a76400006fffffffffffffffffffffffffffffffff821611156103c957600080fd5b9392505050565b60005473ffffffffffffffffffffffffffffffffffffffff1690565b60005473ffffffffffffffffffffffffffffffffffffffff1681565b6000670de0b6b3a7640000671bc16d674ec80000838202610472610432848363ffffffff61054c16565b6104546fffffffffffffffffffffffffffffffff85168463ffffffff61057016565b6fffffffffffffffffffffffffffffffff169063ffffffff6105ee16565b95945050505050565b60015473ffffffffffffffffffffffffffffffffffffffff1681565b60015474010000000000000000000000000000000000000000900467ffffffffffffffff1681565b60005473ffffffffffffffffffffffffffffffffffffffff1633146104e357600080fd5b73ffffffffffffffffffffffffffffffffffffffff8116151561050557600080fd5b600080547fffffffffffffffffffffffff00000000000000000000000000000000000000001673ffffffffffffffffffffffffffffffffffffffff92909216919091179055565b60008282016fffffffffffffffffffffffffffffffff80851690821610156103c957fe5b60008282026fffffffffffffffffffffffffffffffff841615806105e65750826fffffffffffffffffffffffffffffffff16846fffffffffffffffffffffffffffffffff16826fffffffffffffffffffffffffffffffff168115156105d157fe5b046fffffffffffffffffffffffffffffffff16145b15156103c957fe5b600080826fffffffffffffffffffffffffffffffff16846fffffffffffffffffffffffffffffffff1681151561062057fe5b049493505050505600a165627a7a72305820c0f30acc6c3cee9483c1ffb56391cb66de904acacd8fc3733e05400c0b9b991a0029",
  "source": "pragma solidity ^0.4.18;\n\nimport '../MatryxPeer.sol';\nimport '../../libraries/math/SafeMath128.sol';\n\ncontract MatryxPeerFactory is Ownable {\n\tusing SafeMath128 for uint128;\n\n\taddress public platformAddress;\n\tuint64 public peerCount;\n\n\tmodifier onlyPlatform\n\t{\n\t\trequire(msg.sender == platformAddress);\n\t\t_;\n\t}\n\n\tfunction setPlatform(address _platformAddress) public onlyOwner\n\t{\n\t\tplatformAddress = _platformAddress;\n\t}\n\n\tfunction createPeer(address _owner) public onlyPlatform returns (address _peerAddress) {\n\t\t// uint128 trust = getTrustForNewPeer();\n\t\t// MatryxPeer peerAddress = new MatryxPeer(platformAddress, _owner, trust);\n\t\t// peerCount  = uint64(uint128(peerCount).add(1));\n\t\t// return peerAddress;\n\t\treturn this;\n\t}\n\n\tfunction getTrustForNewPeer() public constant returns (uint128)\n\t{\n\t\tuint128 integralTopValue = fastSigmoid(peerCount+2);\n\t\tuint128 integralBottomValue = fastSigmoid(peerCount+1);\n\t\tuint128 trustValue = integralTopValue - integralBottomValue;\n\t\trequire(trustValue >= 0);\n\t\trequire(trustValue <= 1*10**18);\n\n\t\treturn trustValue;\n\t}\n\n\tfunction fastSigmoid(uint256 _input) public pure returns (uint128)\n\t{\n\t\tuint128 one = 1 * 10**18;\n\t\tuint128 two = 2 * 10**18;\n\t\tuint128 inputWithDecimals = uint128(_input) * 10**18;\n\n\t\treturn (two.mul(inputWithDecimals)).div(one.add(inputWithDecimals));\n\t}\n}",
  "sourcePath": "/Users/maxhoward/Desktop/Ethereum/Development/Matryx/Projects/MatryxPlatform/contracts/factories/MatryxPeerFactory.sol",
  "compiler": {
    "name": "solc",
    "version": "0.4.24+commit.e67f0147.Emscripten.clang"
  },
  "schemaVersion": "2.0.0",
  "updatedAt": "2018-06-22T18:13:21.449Z"
}