{
  "contractName": "MatryxRound",
  "abi": [
    {
      "constant": true,
      "inputs": [],
      "name": "tournamentAddress",
      "outputs": [
        {
          "name": "",
          "type": "address"
        }
      ],
      "payable": false,
      "stateMutability": "view",
      "type": "function"
    },
    {
      "constant": true,
      "inputs": [],
      "name": "matryxTokenAddress",
      "outputs": [
        {
          "name": "",
          "type": "address"
        }
      ],
      "payable": false,
      "stateMutability": "view",
      "type": "function"
    },
    {
      "constant": true,
      "inputs": [
        {
          "name": "_sender",
          "type": "address"
        }
      ],
      "name": "isOwner",
      "outputs": [
        {
          "name": "_isOwner",
          "type": "bool"
        }
      ],
      "payable": false,
      "stateMutability": "view",
      "type": "function"
    },
    {
      "constant": true,
      "inputs": [],
      "name": "endTime",
      "outputs": [
        {
          "name": "",
          "type": "uint256"
        }
      ],
      "payable": false,
      "stateMutability": "view",
      "type": "function"
    },
    {
      "constant": true,
      "inputs": [],
      "name": "reviewPeriod",
      "outputs": [
        {
          "name": "",
          "type": "uint256"
        }
      ],
      "payable": false,
      "stateMutability": "view",
      "type": "function"
    },
    {
      "constant": true,
      "inputs": [],
      "name": "nextRound",
      "outputs": [
        {
          "name": "",
          "type": "address"
        }
      ],
      "payable": false,
      "stateMutability": "view",
      "type": "function"
    },
    {
      "constant": true,
      "inputs": [],
      "name": "roundIndex",
      "outputs": [
        {
          "name": "",
          "type": "uint256"
        }
      ],
      "payable": false,
      "stateMutability": "view",
      "type": "function"
    },
    {
      "constant": true,
      "inputs": [],
      "name": "startTime",
      "outputs": [
        {
          "name": "",
          "type": "uint256"
        }
      ],
      "payable": false,
      "stateMutability": "view",
      "type": "function"
    },
    {
      "constant": true,
      "inputs": [
        {
          "name": "",
          "type": "uint256"
        }
      ],
      "name": "winningSubmissions",
      "outputs": [
        {
          "name": "",
          "type": "address"
        }
      ],
      "payable": false,
      "stateMutability": "view",
      "type": "function"
    },
    {
      "constant": true,
      "inputs": [],
      "name": "getOwner",
      "outputs": [
        {
          "name": "_owner",
          "type": "address"
        }
      ],
      "payable": false,
      "stateMutability": "view",
      "type": "function"
    },
    {
      "constant": true,
      "inputs": [],
      "name": "owner",
      "outputs": [
        {
          "name": "",
          "type": "address"
        }
      ],
      "payable": false,
      "stateMutability": "view",
      "type": "function"
    },
    {
      "constant": true,
      "inputs": [],
      "name": "bounty",
      "outputs": [
        {
          "name": "",
          "type": "uint256"
        }
      ],
      "payable": false,
      "stateMutability": "view",
      "type": "function"
    },
    {
      "constant": true,
      "inputs": [],
      "name": "matryxSubmissionFactoryAddress",
      "outputs": [
        {
          "name": "",
          "type": "address"
        }
      ],
      "payable": false,
      "stateMutability": "view",
      "type": "function"
    },
    {
      "constant": true,
      "inputs": [],
      "name": "previousRound",
      "outputs": [
        {
          "name": "",
          "type": "address"
        }
      ],
      "payable": false,
      "stateMutability": "view",
      "type": "function"
    },
    {
      "constant": true,
      "inputs": [],
      "name": "platformAddress",
      "outputs": [
        {
          "name": "",
          "type": "address"
        }
      ],
      "payable": false,
      "stateMutability": "view",
      "type": "function"
    },
    {
      "constant": false,
      "inputs": [
        {
          "name": "newOwner",
          "type": "address"
        }
      ],
      "name": "transferOwnership",
      "outputs": [],
      "payable": false,
      "stateMutability": "nonpayable",
      "type": "function"
    },
    {
      "inputs": [
        {
          "name": "_platformAddress",
          "type": "address"
        },
        {
          "name": "_matryxTokenAddress",
          "type": "address"
        },
        {
          "name": "_tournamentAddress",
          "type": "address"
        },
        {
          "name": "_submissionFactoryAddress",
          "type": "address"
        },
        {
          "name": "_owner",
          "type": "address"
        },
        {
          "components": [
            {
              "name": "start",
              "type": "uint256"
            },
            {
              "name": "end",
              "type": "uint256"
            },
            {
              "name": "reviewDuration",
              "type": "uint256"
            },
            {
              "name": "bounty",
              "type": "uint256"
            }
          ],
          "name": "roundData",
          "type": "tuple"
        }
      ],
      "payable": false,
      "stateMutability": "nonpayable",
      "type": "constructor"
    },
    {
      "constant": true,
      "inputs": [],
      "name": "getState",
      "outputs": [
        {
          "name": "",
          "type": "uint256"
        }
      ],
      "payable": false,
      "stateMutability": "view",
      "type": "function"
    },
    {
      "constant": true,
      "inputs": [
        {
          "name": "_index",
          "type": "uint256"
        }
      ],
      "name": "submissionIsAccessible",
      "outputs": [
        {
          "name": "",
          "type": "bool"
        }
      ],
      "payable": false,
      "stateMutability": "view",
      "type": "function"
    },
    {
      "constant": true,
      "inputs": [
        {
          "name": "_submissionAddress",
          "type": "address"
        }
      ],
      "name": "submissionIsAccessible",
      "outputs": [
        {
          "name": "",
          "type": "bool"
        }
      ],
      "payable": false,
      "stateMutability": "view",
      "type": "function"
    },
    {
      "constant": true,
      "inputs": [
        {
          "name": "_requester",
          "type": "address"
        }
      ],
      "name": "requesterIsContributor",
      "outputs": [
        {
          "name": "",
          "type": "bool"
        }
      ],
      "payable": false,
      "stateMutability": "view",
      "type": "function"
    },
    {
      "constant": false,
      "inputs": [
        {
          "name": "_participantAddress",
          "type": "address"
        },
        {
          "name": "_type",
          "type": "uint256"
        }
      ],
      "name": "setParticipantType",
      "outputs": [],
      "payable": false,
      "stateMutability": "nonpayable",
      "type": "function"
    },
    {
      "constant": true,
      "inputs": [],
      "name": "getPlatform",
      "outputs": [
        {
          "name": "",
          "type": "address"
        }
      ],
      "payable": false,
      "stateMutability": "view",
      "type": "function"
    },
    {
      "constant": true,
      "inputs": [],
      "name": "getTournament",
      "outputs": [
        {
          "name": "",
          "type": "address"
        }
      ],
      "payable": false,
      "stateMutability": "view",
      "type": "function"
    },
    {
      "constant": true,
      "inputs": [],
      "name": "getBounty",
      "outputs": [
        {
          "name": "",
          "type": "uint256"
        }
      ],
      "payable": false,
      "stateMutability": "view",
      "type": "function"
    },
    {
      "constant": true,
      "inputs": [],
      "name": "getTokenAddress",
      "outputs": [
        {
          "name": "",
          "type": "address"
        }
      ],
      "payable": false,
      "stateMutability": "view",
      "type": "function"
    },
    {
      "constant": true,
      "inputs": [],
      "name": "getSubmissions",
      "outputs": [
        {
          "name": "_submissions",
          "type": "address[]"
        }
      ],
      "payable": false,
      "stateMutability": "view",
      "type": "function"
    },
    {
      "constant": true,
      "inputs": [
        {
          "name": "_index",
          "type": "uint256"
        }
      ],
      "name": "getSubmissionAddress",
      "outputs": [
        {
          "name": "_submissionAddress",
          "type": "address"
        }
      ],
      "payable": false,
      "stateMutability": "view",
      "type": "function"
    },
    {
      "constant": true,
      "inputs": [
        {
          "name": "_index",
          "type": "uint256"
        }
      ],
      "name": "getSubmissionAuthor",
      "outputs": [
        {
          "name": "",
          "type": "address"
        }
      ],
      "payable": false,
      "stateMutability": "view",
      "type": "function"
    },
    {
      "constant": true,
      "inputs": [
        {
          "name": "_submissionAddress",
          "type": "address"
        }
      ],
      "name": "getBalance",
      "outputs": [
        {
          "name": "",
          "type": "uint256"
        }
      ],
      "payable": false,
      "stateMutability": "view",
      "type": "function"
    },
    {
      "constant": true,
      "inputs": [],
      "name": "submissionsChosen",
      "outputs": [
        {
          "name": "",
          "type": "bool"
        }
      ],
      "payable": false,
      "stateMutability": "view",
      "type": "function"
    },
    {
      "constant": true,
      "inputs": [],
      "name": "getWinningSubmissionAddresses",
      "outputs": [
        {
          "name": "",
          "type": "address[]"
        }
      ],
      "payable": false,
      "stateMutability": "view",
      "type": "function"
    },
    {
      "constant": true,
      "inputs": [],
      "name": "numberOfSubmissions",
      "outputs": [
        {
          "name": "",
          "type": "uint256"
        }
      ],
      "payable": false,
      "stateMutability": "view",
      "type": "function"
    },
    {
      "constant": false,
      "inputs": [
        {
          "name": "_submissionAddresses",
          "type": "address[]"
        },
        {
          "name": "_rewardDistribution",
          "type": "uint256[]"
        }
      ],
      "name": "chooseWinningSubmissions",
      "outputs": [],
      "payable": false,
      "stateMutability": "nonpayable",
      "type": "function"
    },
    {
      "constant": false,
      "inputs": [
        {
          "name": "_contributors",
          "type": "address[]"
        },
        {
          "name": "_contributorRewardDistribution",
          "type": "uint128[]"
        },
        {
          "name": "_references",
          "type": "address[]"
        },
        {
          "name": "_author",
          "type": "address"
        },
        {
          "components": [
            {
              "name": "title",
              "type": "string"
            },
            {
              "name": "owner",
              "type": "address"
            },
            {
              "name": "contentHash",
              "type": "bytes"
            },
            {
              "name": "isPublic",
              "type": "bool"
            }
          ],
          "name": "submissionData",
          "type": "tuple"
        }
      ],
      "name": "createSubmission",
      "outputs": [
        {
          "name": "_submissionAddress",
          "type": "address"
        }
      ],
      "payable": false,
      "stateMutability": "nonpayable",
      "type": "function"
    },
    {
      "constant": false,
      "inputs": [],
      "name": "liquidate",
      "outputs": [],
      "payable": false,
      "stateMutability": "nonpayable",
      "type": "function"
    }
  ],
  "bytecode": "0x60806040523480156200001157600080fd5b506040516101208062002287833981018060405262000034919081019062000174565b6000805460048054600160a060020a03898116600160a060020a031992831617909255600180548b841690831617905560028054898416908316179055858216928116331781169290921790925560038054928616929091169190911790556060810151600b55805160208201516040830151620000bd929190640100000000620000c9810204565b50505050505062000240565b600892909255600955600a55565b6000620000e5825162000231565b9392505050565b600060808284031215620000ff57600080fd5b6200010b608062000209565b905060006200011b848462000166565b82525060206200012e8484830162000166565b6020830152506040620001448482850162000166565b60408301525060606200015a8482850162000166565b60608301525092915050565b6000620000e582516200023d565b60008060008060008061012087890312156200018f57600080fd5b60006200019d8989620000d7565b9650506020620001b089828a01620000d7565b9550506040620001c389828a01620000d7565b9450506060620001d689828a01620000d7565b9350506080620001e989828a01620000d7565b92505060a0620001fc89828a01620000ec565b9150509295509295509295565b60405181810167ffffffffffffffff811182821017156200022957600080fd5b604052919050565b600160a060020a031690565b90565b61203780620002506000396000f3006080604052600436106101b65763ffffffff7c010000000000000000000000000000000000000000000000000000000060003504166303d66a9781146101bb57806310fe9ae8146101e657806311fb4804146101fb5780631865c57d146102285780631cdb7de51461024a578063241b15ad1461026c57806328a070251461028157806329cc545e146102965780632f54bf6e146102ab5780632fc1f190146102cb5780633197cbb6146102e0578063389994f9146102f55780633b2498101461030a5780633d6227801461031f57806347e405531461033f57806354f6aa201461035457806356974da314610376578063648036ae1461039657806378e97925146103ab5780637df2d748146103c05780638499a138146103e05780638734fe4c14610400578063893d20e8146104205780638da5cb5b14610435578063943dfef11461044a578063b0ff54921461045f578063b288e1a914610474578063c2d426cf14610489578063dbe55e56146104a9578063df4f9dba146104be578063e76c293e146104de578063ed098460146104f3578063f2fde38b14610508578063f49bff7b14610528578063f8b2cb4f1461053d575b600080fd5b3480156101c757600080fd5b506101d061055d565b6040516101dd9190611e07565b60405180910390f35b3480156101f257600080fd5b506101d0610579565b34801561020757600080fd5b5061021b610216366004611a2a565b610596565b6040516101dd9190611ea6565b34801561023457600080fd5b5061023d61067a565b6040516101dd9190611ec4565b34801561025657600080fd5b5061026a610265366004611a6e565b6106f8565b005b34801561027857600080fd5b5061023d61073f565b34801561028d57600080fd5b5061026a610749565b3480156102a257600080fd5b506101d0610a24565b3480156102b757600080fd5b5061021b6102c6366004611a2a565b610a40565b3480156102d757600080fd5b506101d0610a61565b3480156102ec57600080fd5b5061023d610a7d565b34801561030157600080fd5b5061021b610a83565b34801561031657600080fd5b5061023d610abe565b34801561032b57600080fd5b506101d061033a366004611bf9565b610ac4565b34801561034b57600080fd5b506101d0610c74565b34801561036057600080fd5b50610369610c90565b6040516101dd9190611e30565b34801561038257600080fd5b5061021b610391366004611bf9565b610cff565b3480156103a257600080fd5b5061023d610d82565b3480156103b757600080fd5b5061023d610d88565b3480156103cc57600080fd5b506101d06103db366004611bf9565b610d8e565b3480156103ec57600080fd5b5061021b6103fb366004611a2a565b610dc3565b34801561040c57600080fd5b506101d061041b366004611aa8565b610ded565b34801561042c57600080fd5b506101d06111d3565b34801561044157600080fd5b506101d06111ef565b34801561045657600080fd5b5061023d61120b565b34801561046b57600080fd5b506101d0611211565b34801561048057600080fd5b506101d061122d565b34801561049557600080fd5b5061026a6104a4366004611b7c565b611249565b3480156104b557600080fd5b506101d0611421565b3480156104ca57600080fd5b506101d06104d9366004611bf9565b61143d565b3480156104ea57600080fd5b506101d0611484565b3480156104ff57600080fd5b506103696114a0565b34801561051457600080fd5b5061026a610523366004611a2a565b61150d565b34801561053457600080fd5b5061023d61158f565b34801561054957600080fd5b5061023d610558366004611a2a565b611595565b60025473ffffffffffffffffffffffffffffffffffffffff1681565b60045473ffffffffffffffffffffffffffffffffffffffff165b90565b73ffffffffffffffffffffffffffffffffffffffff8116600090815260116020526040812054819060ff1615156105cc57600080fd5b506040517fa52dd12f000000000000000000000000000000000000000000000000000000008152829073ffffffffffffffffffffffffffffffffffffffff82169063a52dd12f90610621903390600401611e07565b602060405180830381600087803b15801561063b57600080fd5b505af115801561064f573d6000803e3d6000fd5b505050506040513d601f19601f820116820180604052506106739190810190611bdb565b9392505050565b60006008544210156106905760005b9050610593565b600854421180156106a2575060095442105b156106ae576001610689565b60095442101580156106d35750600a546009546106d09163ffffffff61164516565b42105b156106df576002610689565b600e54600010156106f1576003610689565b6004610689565b3360009081526011602052604090205460ff16151561071657600080fd5b73ffffffffffffffffffffffffffffffffffffffff9091166000908152600f6020526040902055565b6014546012540390565b33600090815260106020526040812054151561076457600080fd5b600461076e61067a565b146107ae576040517f08c379a00000000000000000000000000000000000000000000000000000000081526004016107a590611eb4565b60405180910390fd5b336000908152600d602052604090205460ff16156107cb57600080fd5b600c5460ff1615156108be57600454601354600b5473ffffffffffffffffffffffffffffffffffffffff9092169163a9059cbb913391610823916002916108179163ffffffff61165416565b9063ffffffff61166b16565b6040518363ffffffff167c010000000000000000000000000000000000000000000000000000000002815260040161085c929190611e15565b602060405180830381600087803b15801561087657600080fd5b505af115801561088a573d6000803e3d6000fd5b505050506040513d601f19601f820116820180604052506108ae9190810190611bdb565b15156108b957600080fd5b6109e9565b50601354600454600b5473ffffffffffffffffffffffffffffffffffffffff9091169063a9059cbb903390610953907fffffffffffffffffffffffffffffffffffffffffffffffffffffffffffffffff86019061094790879082907ffffffffffffffffffffffffffffffffffffffffffffffffffffffffffffffffe830163ffffffff61166b16565b9063ffffffff61165416565b6040518363ffffffff167c010000000000000000000000000000000000000000000000000000000002815260040161098c929190611e15565b602060405180830381600087803b1580156109a657600080fd5b505af11580156109ba573d6000803e3d6000fd5b505050506040513d601f19601f820116820180604052506109de9190810190611bdb565b15156109e957600080fd5b50336000908152600d6020526040902080547fffffffffffffffffffffffffffffffffffffffffffffffffffffffffffffff00166001179055565b60045473ffffffffffffffffffffffffffffffffffffffff1681565b60005473ffffffffffffffffffffffffffffffffffffffff91821691161490565b60015473ffffffffffffffffffffffffffffffffffffffff1690565b60095481565b6000600e6000815481101515610a9557fe5b60009182526020909120015473ffffffffffffffffffffffffffffffffffffffff161515905090565b600a5481565b6000803383601281815481101515610ad857fe5b6000918252602090912001546040517fa52dd12f00000000000000000000000000000000000000000000000000000000815273ffffffffffffffffffffffffffffffffffffffff9091169063a52dd12f90610b37908590600401611e07565b602060405180830381600087803b158015610b5157600080fd5b505af1158015610b65573d6000803e3d6000fd5b505050506040513d601f19601f82011682018060405250610b899190810190611bdb565b1515610b9457600080fd5b6012805486908110610ba257fe5b9060005260206000200160009054906101000a900473ffffffffffffffffffffffffffffffffffffffff1692508273ffffffffffffffffffffffffffffffffffffffff1663a5faa1256040518163ffffffff167c0100000000000000000000000000000000000000000000000000000000028152600401602060405180830381600087803b158015610c3357600080fd5b505af1158015610c47573d6000803e3d6000fd5b505050506040513d601f19601f82011682018060405250610c6b9190810190611a50565b95945050505050565b60075473ffffffffffffffffffffffffffffffffffffffff1681565b60606012805480602002602001604051908101604052809291908181526020018280548015610cf557602002820191906000526020600020905b815473ffffffffffffffffffffffffffffffffffffffff168152600190910190602001808311610cca575b5050505050905090565b60125460009081908310610d1257600080fd5b6012805484908110610d2057fe5b6000918252602090912001546040517fa52dd12f00000000000000000000000000000000000000000000000000000000815273ffffffffffffffffffffffffffffffffffffffff9091169150819063a52dd12f90610621903390600401611e07565b60055481565b60085481565b600e805482908110610d9c57fe5b60009182526020909120015473ffffffffffffffffffffffffffffffffffffffff16905081565b73ffffffffffffffffffffffffffffffffffffffff166000908152600f6020526040902054151590565b6000610df76116ba565b600254600090819073ffffffffffffffffffffffffffffffffffffffff163314610e2057600080fd5b6001610e2a61067a565b14610e3457600080fd5b73ffffffffffffffffffffffffffffffffffffffff86161515610e5657600080fd5b6040805160608101825260015473ffffffffffffffffffffffffffffffffffffffff908116825260025481166020830152308284015260035492517f867cda48000000000000000000000000000000000000000000000000000000008152919550919091169063867cda4890610ed8908c908c908c9089908c90600401611e41565b602060405180830381600087803b158015610ef257600080fd5b505af1158015610f06573d6000803e3d6000fd5b505050506040513d601f19601f82011682018060405250610f2a9190810190611a50565b604080518082018252600180825260128054602080850191825273ffffffffffffffffffffffffffffffffffffffff8716600081815260118352878120965187547fffffffffffffffffffffffffffffffffffffffffffffffffffffffffffffff001690151517875592519585019590955582549384019092557fbb8a6a4669ba250d26cd7a459eca9d215f8307e33aebe50379bc5a3617ec3444909201805473ffffffffffffffffffffffffffffffffffffffff1916909317909255338152601090915220549092501515611069576020850151601380546001810182556000919091527f66de8ffda797e3de9c05e8fc57b3bf0ec28a930d40b0d285d93c06501cf6a09001805473ffffffffffffffffffffffffffffffffffffffff191673ffffffffffffffffffffffffffffffffffffffff9092169190911790555b33600090815260106020908152604082208054600181018255908352912001805473ffffffffffffffffffffffffffffffffffffffff191673ffffffffffffffffffffffffffffffffffffffff8416179055600373ffffffffffffffffffffffffffffffffffffffff87166000908152600f602052604081209190915590505b885181101561113e576002600f60008b8481518110151561110657fe5b602090810290910181015173ffffffffffffffffffffffffffffffffffffffff168252810191909152604001600020556001016110e9565b6002546040517f4644c51b00000000000000000000000000000000000000000000000000000000815273ffffffffffffffffffffffffffffffffffffffff90911690634644c51b90611194908590600401611e07565b600060405180830381600087803b1580156111ae57600080fd5b505af11580156111c2573d6000803e3d6000fd5b50939b9a5050505050505050505050565b60005473ffffffffffffffffffffffffffffffffffffffff1690565b60005473ffffffffffffffffffffffffffffffffffffffff1681565b600b5481565b60035473ffffffffffffffffffffffffffffffffffffffff1681565b60065473ffffffffffffffffffffffffffffffffffffffff1681565b6002546000908190819073ffffffffffffffffffffffffffffffffffffffff16331461127457600080fd5b835185511461128257600080fd5b845161129590600e9060208801906116da565b505060045473ffffffffffffffffffffffffffffffffffffffff16915060005b845181101561141a5783818151811015156112cc57fe5b9060200190602002015182019150670de0b6b3a764000082111515156112f157600080fd5b611311858281518110151561130257fe5b9060200190602002015161168f565b151561131c57600080fd5b8273ffffffffffffffffffffffffffffffffffffffff1663a9059cbb868381518110151561134657fe5b90602001906020020151611386670de0b6b3a7640000610947898781518110151561136d57fe5b60209081029091010151600b549063ffffffff61166b16565b6040518363ffffffff167c01000000000000000000000000000000000000000000000000000000000281526004016113bf929190611e15565b602060405180830381600087803b1580156113d957600080fd5b505af11580156113ed573d6000803e3d6000fd5b505050506040513d601f19601f820116820180604052506114119190810190611bdb565b506001016112b5565b5050505050565b60015473ffffffffffffffffffffffffffffffffffffffff1681565b601254600090821061144e57600080fd5b601280548390811061145c57fe5b60009182526020909120015473ffffffffffffffffffffffffffffffffffffffff1692915050565b60025473ffffffffffffffffffffffffffffffffffffffff1690565b6060600e805480602002602001604051908101604052809291908181526020018280548015610cf55760200282019190600052602060002090815473ffffffffffffffffffffffffffffffffffffffff168152600190910190602001808311610cca575050505050905090565b60005473ffffffffffffffffffffffffffffffffffffffff16331461153157600080fd5b73ffffffffffffffffffffffffffffffffffffffff8116151561155357600080fd5b6000805473ffffffffffffffffffffffffffffffffffffffff191673ffffffffffffffffffffffffffffffffffffffff92909216919091179055565b600b5490565b600480546040517f70a0823100000000000000000000000000000000000000000000000000000000815260009273ffffffffffffffffffffffffffffffffffffffff909216916370a08231916115ed91869101611e07565b602060405180830381600087803b15801561160757600080fd5b505af115801561161b573d6000803e3d6000fd5b505050506040513d601f19601f8201168201806040525061163f9190810190611c17565b92915050565b60008282018381101561067357fe5b600080828481151561166257fe5b04949350505050565b6000828202831580611687575082848281151561168457fe5b04145b151561067357fe5b73ffffffffffffffffffffffffffffffffffffffff1660009081526011602052604090205460ff1690565b604080516060810182526000808252602082018190529181019190915290565b828054828255906000526020600020908101928215611749579160200282015b82811115611749578251825473ffffffffffffffffffffffffffffffffffffffff191673ffffffffffffffffffffffffffffffffffffffff9091161782556020909201916001909101906116fa565b50611755929150611759565b5090565b61059391905b8082111561175557805473ffffffffffffffffffffffffffffffffffffffff1916815560010161175f565b60006106738235611f6a565b60006106738251611f6a565b6000601f820183136117b357600080fd5b81356117c66117c182611ef9565b611ed2565b915081818352602084019350602081019050838560208402820111156117eb57600080fd5b60005b838110156118175781611801888261178a565b84525060209283019291909101906001016117ee565b5050505092915050565b6000601f8201831361183257600080fd5b81356118406117c182611ef9565b9150818183526020840193506020810190508385602084028201111561186557600080fd5b60005b83811015611817578161187b8882611a06565b8452506020928301929190910190600101611868565b6000601f820183136118a257600080fd5b81356118b06117c182611ef9565b915081818352602084019350602081019050838560208402820111156118d557600080fd5b60005b8381101561181757816118eb8882611a12565b84525060209283019291909101906001016118d8565b60006106738235611f83565b60006106738251611f83565b6000601f8201831361192a57600080fd5b81356119386117c182611f1a565b9150808252602083016020830185838301111561195457600080fd5b61195f838284611f9d565b50505092915050565b60006080828403121561197a57600080fd5b6119846080611ed2565b9050813567ffffffffffffffff81111561199d57600080fd5b6119a984828501611919565b82525060206119ba8484830161178a565b602083015250604082013567ffffffffffffffff8111156119da57600080fd5b6119e684828501611919565b60408301525060606119fa84828501611901565b60608301525092915050565b60006106738235611f88565b60006106738235610593565b60006106738251610593565b600060208284031215611a3c57600080fd5b6000611a48848461178a565b949350505050565b600060208284031215611a6257600080fd5b6000611a488484611796565b60008060408385031215611a8157600080fd5b6000611a8d858561178a565b9250506020611a9e85828601611a12565b9150509250929050565b600080600080600060a08688031215611ac057600080fd5b853567ffffffffffffffff811115611ad757600080fd5b611ae3888289016117a2565b955050602086013567ffffffffffffffff811115611b0057600080fd5b611b0c88828901611821565b945050604086013567ffffffffffffffff811115611b2957600080fd5b611b35888289016117a2565b9350506060611b468882890161178a565b925050608086013567ffffffffffffffff811115611b6357600080fd5b611b6f88828901611968565b9150509295509295909350565b60008060408385031215611b8f57600080fd5b823567ffffffffffffffff811115611ba657600080fd5b611bb2858286016117a2565b925050602083013567ffffffffffffffff811115611bcf57600080fd5b611a9e85828601611891565b600060208284031215611bed57600080fd5b6000611a48848461190d565b600060208284031215611c0b57600080fd5b6000611a488484611a12565b600060208284031215611c2957600080fd5b6000611a488484611a1e565b611c3e81611f6a565b82525050565b6000611c4f82611f66565b808452602084019350611c6183611f60565b60005b82811015611c9157611c77868351611c35565b611c8082611f60565b602096909601959150600101611c64565b5093949350505050565b6000611ca682611f66565b808452602084019350611cb883611f60565b60005b82811015611c9157611cce868351611df5565b611cd782611f60565b602096909601959150600101611cbb565b611c3e81611f83565b6000611cfc82611f66565b808452611d10816020860160208601611fa9565b611d1981611fd5565b9093016020019392505050565b601f81527f5468697320746f75726e616d656e74206973207374696c6c2076616c69642e00602082015260400190565b80516060830190611d678482611c35565b506020820151611d7a6020850182611c35565b506040820151611d8d6040850182611c35565b50505050565b8051608080845260009190840190611dab8282611cf1565b9150506020830151611dc06020860182611c35565b5060408301518482036040860152611dd88282611cf1565b9150506060830151611ded6060860182611ce8565b509392505050565b611c3e81611f88565b611c3e81610593565b6020810161163f8284611c35565b60408101611e238285611c35565b6106736020830184611dfe565b602080825281016106738184611c44565b60e08082528101611e528188611c44565b90508181036020830152611e668187611c9b565b90508181036040830152611e7a8186611c44565b9050611e896060830185611d56565b81810360c0830152611e9b8184611d93565b979650505050505050565b6020810161163f8284611ce8565b6020808252810161163f81611d26565b6020810161163f8284611dfe565b60405181810167ffffffffffffffff81118282101715611ef157600080fd5b604052919050565b600067ffffffffffffffff821115611f1057600080fd5b5060209081020190565b600067ffffffffffffffff821115611f3157600080fd5b506020601f919091017fffffffffffffffffffffffffffffffffffffffffffffffffffffffffffffffe0160190565b60200190565b5190565b73ffffffffffffffffffffffffffffffffffffffff1690565b151590565b6fffffffffffffffffffffffffffffffff1690565b82818337506000910152565b60005b83811015611fc4578181015183820152602001611fac565b83811115611d8d5750506000910152565b601f017fffffffffffffffffffffffffffffffffffffffffffffffffffffffffffffffe016905600a265627a7a7230582009a9fb5359390afe9006478bc6889da5b08bfdb8d252fa8e63e420faadcdc6bd6c6578706572696d656e74616cf50037",
  "source": "pragma solidity ^0.4.18;\npragma experimental ABIEncoderV2;\n\nimport \"../libraries/math/SafeMath.sol\";\nimport \"../libraries/LibConstruction.sol\";\nimport \"../interfaces/IMatryxToken.sol\";\nimport \"../interfaces/IMatryxTournament.sol\";\nimport \"../interfaces/IMatryxRound.sol\";\nimport \"../interfaces/factories/IMatryxSubmissionFactory.sol\";\nimport \"../interfaces/IMatryxSubmission.sol\";\nimport \"./Ownable.sol\";\n\n/// @title MatryxRound - A round within a Matryx tournament.\n/// @author Max Howard - <max@nanome.ai>, Sam Hessenauer - <sam@nanome.ai>\ncontract MatryxRound is Ownable, IMatryxRound {\n    using SafeMath for uint256;\n\n    //TODO: allow for refunds\n    // TODO: condense and put in structs\n    address public platformAddress;\n    address public tournamentAddress;\n    address public matryxSubmissionFactoryAddress;\n    address public matryxTokenAddress;\n\n    uint256 public roundIndex;\n    address public previousRound;\n    address public nextRound;\n    uint256 public startTime;\n    uint256 public endTime;\n    uint256 public reviewPeriod;\n    uint256 public bounty;\n    bool hasBeenWithdrawnFrom;\n    mapping(address=>bool) hasWithdrawn;\n    address[] public winningSubmissions;\n\n    mapping(address=>uint) addressToParticipantType;\n    mapping(address=>address[]) authorToSubmissionAddress;\n    mapping(address=>uint256_optional) addressToSubmissionIndex;\n    address[] submissions;\n    address[] submissionOwners;\n    uint256 numberSubmissionsRemoved;\n\n\tconstructor(address _platformAddress, address _matryxTokenAddress, address _tournamentAddress, address _submissionFactoryAddress, address _owner, LibConstruction.RoundData roundData) public\n\t{\n\t\tmatryxTokenAddress = _matryxTokenAddress;\n\t\tplatformAddress = _platformAddress;\n\t\ttournamentAddress = _tournamentAddress;\n\t\towner = _owner;\n\t\tmatryxSubmissionFactoryAddress = _submissionFactoryAddress;\n\t\tbounty = roundData.bounty;\n\n\t\tscheduleStart(roundData.start, roundData.end, roundData.reviewDuration);\n\t}\n\n\t/*\n\t * Structs\n\t */\n\n\tstruct uint256_optional\n    {\n        bool exists;\n        uint256 value;\n    }\n\n    /*\n     * Enums\n     */\n\n\tenum participantType { nonentrant, entrant, contributor, author }\n\n\t/*\n     * Modifiers\n     */\n\n    /// @dev Requires that this round is in the open submission state.\n\tmodifier duringOpenSubmission()\n\t{\n\t\trequire(getState() == uint256(RoundState.Open));\n\t\t_;\n\t}\n\n\t/// @dev Requires that this round is in the winner selection state.\n\t// modifier duringReviewPeriod()\n\t// {\n\t// \t//require(endTime != 0);\n\t// \trequire(getState() == RoundInReview);\n\t// \t_;\n\t// }\n\n\t// @dev Requires that a winner has been selected for this round.\n\t// modifier afterWinnerSelected()\n\t// {\n\t// \trequire(winningSubmissions[0] != 0x0);\n\t// \t_;\n\t// }\n\n    modifier onlySubmission()\n    {\n        require(addressToSubmissionIndex[msg.sender].exists);\n        _;\n    }\n\n    modifier onlyTournament()\n    {\n        require(msg.sender == tournamentAddress);\n        _;\n    }\n\n\t/// @dev Requires that the desired submission is accessible to the requester.\n    modifier whenAccessible(address _requester, uint256 _index)\n    {\n        require(IMatryxSubmission(submissions[_index]).isAccessible(_requester));\n        _;\n    }\n\n    function submissionExists(address _submissionAddress) internal returns (bool)\n    {\n        return addressToSubmissionIndex[_submissionAddress].exists;\n    }\n\n\t/// @dev Requires the function caller to be the platform or the owner of this tournament\n\t// modifier tournamentOrOwner()\n    // {\n    //     require((msg.sender == tournamentAddress)||(msg.sender == owner));\n    //     _;\n    // }\n\n\t// @dev Requires that the sender be the submission's author.\n\tmodifier onlySubmissionAuthor()\n\t{\n\t\trequire(authorToSubmissionAddress[msg.sender].length != 0);\n\t\t_;\n\t}\n\n\t/*\n\t * State Maintenance Methods\n\t */\n\n\t// function removeSubmission(address _submissionAddress) public onlyTournament returns (bool)\n\t// {\n\t// \tif(addressToSubmissionIndex[msg.sender].exists)\n\t// \t{\n\t// \t\tIMatryxSubmission submission = IMatryxSubmission(submissions[addressToSubmissionIndex[_submissionAddress].value]);\n\t// \t\taddress author = submission.getAuthor();\n\t// \t\tsubmission.deleteSubmission();\n\n\t// \t\tdelete authorToSubmissionAddress[author];\n\t// \t\tdelete submissions[addressToSubmissionIndex[_submissionAddress].value];\n\n\t// \t\tnumberSubmissionsRemoved = numberSubmissionsRemoved.add(1);\n\t// \t\treturn true;\n\t// \t}\n\n\t// \treturn false;\n\t// }\n\n\t/*\n     * Access Control Methods\n     */\n\n    enum RoundState { NotYetOpen, Open, InReview, Closed, Abandoned }\n\n\t// @dev Returns the state of the round. \n\t// The round can be in one of 5 states:\n\t// NotYetOpen, Open, InReview, Closed, Abandoned\n\t// TODO how do we keep track of the startTime, endTime, and winningSubmissions?\n    function getState() public view returns (uint256)\n    {\n        if(now < startTime)\n        {\n            return uint256(RoundState.NotYetOpen);\n        }\n        else if(now > startTime && now < endTime)\n        {\n            return uint256(RoundState.Open);\n        }\n        else if(now >= endTime && now < endTime.add(reviewPeriod))\n        {\n            return uint256(RoundState.InReview);\n        }\n        else if(winningSubmissions.length > 0)\n        {\n            return uint256(RoundState.Closed);\n        }\n        else\n        {\n            return uint256(RoundState.Abandoned);\n        }\n    }\n\n\t/// @dev Returns whether or not the submission is accessible to the requester.\n\t/// @param _index Index of the submission being requested.\n    /// @return Whether or not the submission is accessible to the requester.\n\tfunction submissionIsAccessible(uint256 _index) public constant returns (bool)\n\t{\n\t\trequire(_index < submissions.length);\n\n\t\tIMatryxSubmission submission = IMatryxSubmission(submissions[_index]);\n\t\treturn submission.isAccessible(msg.sender);\n\t}\n\n\t/// @dev Returns whether or not the submission is accessible to the requester.\n\t/// @param _submissionAddress Address of the submission being requested.\n    /// @return Whether or not the submission is accessible to the requester.\n\tfunction submissionIsAccessible(address _submissionAddress) public view returns (bool)\n\t{\n\t\trequire(addressToSubmissionIndex[_submissionAddress].exists);\n\n\t\tIMatryxSubmission submission = IMatryxSubmission(_submissionAddress);\n\t\treturn submission.isAccessible(msg.sender);\n\t}\n\n\t/// @dev Returns true if the sender is an entrant in this round.\n\t/// @param _requester Address being tested.\n\t/// @return Whether or not the requester is a contributor in this round.\n\tfunction requesterIsContributor(address _requester) public constant returns (bool)\n\t{\n\t\treturn addressToParticipantType[_requester] != 0;\n\t}\n\n\tfunction setParticipantType(address _participantAddress, uint256 _type) public onlySubmission\n\t{\n\t\taddressToParticipantType[_participantAddress] = _type;\n\t}\n\n\t/*\n     * Getter Methods\n     */\n\n    function getPlatform() public constant returns (address) {\n\t\treturn platformAddress;\n\t}\n\n    function getTournament() public constant returns (address) {\n\t\treturn tournamentAddress;\n\t}\n\n    function getBounty() public constant returns (uint256) \n    { \n    \treturn bounty;\n    }\n\n    function getTokenAddress() public constant returns (address)\n    {\n    \treturn matryxTokenAddress;\n    }\n\n\t/// @dev Returns all submissions made to this round.\n\t/// @return _submissions All submissions made to this round.\n\tfunction getSubmissions() public constant returns (address[] _submissions)\n\t{\n\t\treturn submissions;\n\t}\n\n\tfunction getSubmissionAddress(uint256 _index) public constant returns (address _submissionAddress)\n\t{\n\t\trequire(_index < submissions.length);\n\n\t\treturn submissions[_index];\n\t}\n\n\t/// @dev Returns the author of a submission.\n\t/// @param _index Index of the submission.\n\t/// @return Address of this submission's author.\n\tfunction getSubmissionAuthor(uint256 _index) public constant whenAccessible(msg.sender, _index) returns (address) \n\t{\n\t\tIMatryxSubmission submission = IMatryxSubmission(submissions[_index]);\n\t\treturn submission.getAuthor();\n\t}\n\n\t/// @dev Returns the balance of a particular submission\n\t/// @param _submissionAddress Address of the submission\n\t/// @return Balance of the bounty \n\tfunction getBalance(address _submissionAddress) public constant returns (uint256)\n\t{\n\t\treturn IMatryxToken(matryxTokenAddress).balanceOf(_submissionAddress);\n\t}\n\n\t/// @dev Returns whether or not a winning submission has been chosen.\n\t/// @return Whether or not a submission has been chosen.\n\tfunction submissionsChosen() public constant returns (bool)\n\t{\n\t\treturn winningSubmissions[0] != 0x0;\n\t}\n\n\t/// @dev Returns the index of this round's winning submission.\n\t/// @return Index of the winning submission.\n\tfunction getWinningSubmissionAddresses() public constant returns (address[])\n\t{\n\t\treturn winningSubmissions;\n\t}\n\n\t/// @dev Returns the number of submissions made to this round.\n\t/// @return Number of submissions made to this round.\n\tfunction numberOfSubmissions() public constant returns (uint256)\n\t{\n\t\treturn submissions.length - numberSubmissionsRemoved;\n\t}\n\n\t/*\n     * Round Admin Methods\n     */\n\n\n\t/// @dev Starts the round (callable only by the owner of the round).\n\t/// @param _start Start time.\n\t/// @param _end End time.\n\t/// @param _reviewPeriod Time to review the round submissions\n\tfunction scheduleStart(uint256 _start, uint256 _end, uint256 _reviewPeriod) internal\n\t{\n\t\tstartTime = _start;\n\t\tendTime = _end;\n\t\treviewPeriod = _reviewPeriod;\n\t}\n\n\t/// @dev Choose a winning submission for the round (callable only by the owner of the round).\n    /// @param _submissionAddresses Index of the winning submission.\n    /// @param _rewardDistribution Distribution indicating how to split the reward among the submissions\n\tfunction chooseWinningSubmissions(address[] _submissionAddresses, uint256[] _rewardDistribution) public onlyTournament /*duringReviewPeriod*/\n\t{\n\t\trequire(_submissionAddresses.length == _rewardDistribution.length);\n\n\t\twinningSubmissions = _submissionAddresses;\n\n\t\tIMatryxToken token = IMatryxToken(matryxTokenAddress);\n\n\t\tuint256 distributionTotal;\n\t\tfor(uint256 i = 0; i < _submissionAddresses.length; i++)\n\t\t{\n\t\t\tdistributionTotal = distributionTotal + _rewardDistribution[i];\n\t\t\trequire(distributionTotal <= 1*10**18);\n\t\t\trequire(submissionExists(_submissionAddresses[i]));\n\t\t\ttoken.transfer(_submissionAddresses[i], bounty.mul(_rewardDistribution[i]).div(1*10**18));\n\t\t}\n\t}\n\n\t/*\n     * Entrant Methods\n     */\n\n    /// @dev Create a new submission.\n    /// @param _author of this submission.\n    /// @param submissionData The data of the submission. Includes:\n    ///\t\ttitle: Title of the submission.\n    ///\t\towner: The owner of the submission.\n    ///\t\tcontentHash: Off-chain content hash of submission details (ipfs hash)\n    ///\t\tcontributors: Contributors to this submission.\n    ///\t\tcontributorRewardDistribution: Informs how the reward should be distributed among the contributors\n    /// \tshould this submission win.\n    ///\t\treferences: Addresses of submissions referenced in creating this submission.\n    /// @return _submissionAddress Location of this submission within this round.\n\tfunction createSubmission(address[] _contributors, uint128[] _contributorRewardDistribution, address[] _references, address _author, LibConstruction.SubmissionData submissionData) public onlyTournament duringOpenSubmission returns (address _submissionAddress)\n\t{\n\t\trequire(_author != 0x0);\n\t\t\n\t\tLibConstruction.RequiredSubmissionAddresses memory requiredSubmissionAddresses = LibConstruction.RequiredSubmissionAddresses({platformAddress: platformAddress, tournamentAddress: tournamentAddress, roundAddress: this});\n        address submissionAddress = IMatryxSubmissionFactory(matryxSubmissionFactoryAddress).createSubmission(_contributors, _contributorRewardDistribution, _references, requiredSubmissionAddresses, submissionData);\n        // submission bookkeeping\n        addressToSubmissionIndex[submissionAddress] = uint256_optional({exists:true, value: submissions.length});\n        submissions.push(submissionAddress);\n\n        // TODO: Change to 'authors.push' once MatryxPeer is part of MatryxPlatform\n        if(authorToSubmissionAddress[msg.sender].length == 0)\n        {\n        \tsubmissionOwners.push(submissionData.owner);\n        }\n\n        authorToSubmissionAddress[msg.sender].push(submissionAddress);\n\n        // round participant bookkeeping\n        addressToParticipantType[_author] = uint(participantType.author);\n        for(uint256 i = 0; i < _contributors.length; i++)\n        {\n        \taddressToParticipantType[_contributors[i]] = uint(participantType.contributor);\n        }\n\n        IMatryxTournament(tournamentAddress).invokeSubmissionCreatedEvent(submissionAddress);\n        return submissionAddress;\n\t}\n\n\t/// @dev Allows contributors to withdraw a portion of the round bounty if the round has been abandoned.\n\tfunction liquidate() public onlySubmissionAuthor\n\t{\n\t\trequire(getState() == uint256(RoundState.Abandoned), \"This tournament is still valid.\");\n\t\trequire(!hasWithdrawn[msg.sender]);\n\n\t\tif(!hasBeenWithdrawnFrom)\n\t\t{\n\t\t\trequire(IMatryxToken(matryxTokenAddress).transfer(msg.sender, bounty.div(submissionOwners.length).mul(2)));\n\t\t}\n\t\telse\n\t\t{\n\t\t\tuint256 numberOfOwners = submissionOwners.length;\n\t\t\trequire(IMatryxToken(matryxTokenAddress).transfer(msg.sender, bounty.mul(numberOfOwners-2).div(numberOfOwners).div(numberOfOwners-1)));\n\t\t}\n\n\t\thasWithdrawn[msg.sender] = true;\n\t}\n}",
  "sourcePath": "/Users/maxhoward/Desktop/Ethereum/Development/Matryx/Projects/MatryxPlatform/contracts/MatryxRound.sol",
  "compiler": {
    "name": "solc",
    "version": "0.4.24+commit.e67f0147.Emscripten.clang"
  },
  "schemaVersion": "2.0.0",
  "updatedAt": "2018-06-20T18:13:14.257Z"
}