{
  "contractName": "MatryxPlatform",
  "abi": [
    {
      "constant": true,
      "inputs": [
        {
          "name": "",
          "type": "uint256"
        }
      ],
      "name": "tournamentList",
      "outputs": [
        {
          "name": "",
          "type": "uint256"
        }
      ],
      "payable": false,
      "stateMutability": "view",
      "type": "function"
    },
    {
      "constant": false,
      "inputs": [
        {
          "name": "_queryID",
          "type": "uint256"
        },
        {
          "name": "_response",
          "type": "bytes32"
        }
      ],
      "name": "storeQueryResponse",
      "outputs": [
        {
          "name": "success",
          "type": "bool"
        }
      ],
      "payable": false,
      "stateMutability": "nonpayable",
      "type": "function"
    },
    {
      "constant": true,
      "inputs": [
        {
          "name": "tournamentId",
          "type": "uint256"
        }
      ],
      "name": "submissionCount",
      "outputs": [
        {
          "name": "",
          "type": "uint256"
        }
      ],
      "payable": false,
      "stateMutability": "view",
      "type": "function"
    },
    {
      "constant": true,
      "inputs": [
        {
          "name": "idx",
          "type": "uint256"
        }
      ],
      "name": "tournamentByIndex",
      "outputs": [
        {
          "name": "",
          "type": "uint256"
        },
        {
          "name": "",
          "type": "string"
        },
        {
          "name": "",
          "type": "string"
        },
        {
          "name": "",
          "type": "uint256"
        }
      ],
      "payable": false,
      "stateMutability": "view",
      "type": "function"
    },
    {
      "constant": true,
      "inputs": [
        {
          "name": "tournamentId",
          "type": "uint256"
        }
      ],
      "name": "tournamentByAddress",
      "outputs": [
        {
          "name": "",
          "type": "uint256"
        },
        {
          "name": "",
          "type": "string"
        },
        {
          "name": "",
          "type": "string"
        },
        {
          "name": "",
          "type": "uint256"
        }
      ],
      "payable": false,
      "stateMutability": "view",
      "type": "function"
    },
    {
      "constant": true,
      "inputs": [],
      "name": "tournamentCount",
      "outputs": [
        {
          "name": "",
          "type": "uint256"
        }
      ],
      "payable": false,
      "stateMutability": "view",
      "type": "function"
    },
    {
      "constant": true,
      "inputs": [
        {
          "name": "",
          "type": "uint256"
        }
      ],
      "name": "tournaments",
      "outputs": [
        {
          "name": "id",
          "type": "uint256"
        },
        {
          "name": "title",
          "type": "string"
        },
        {
          "name": "description",
          "type": "string"
        },
        {
          "name": "bounty",
          "type": "uint256"
        },
        {
          "name": "exists",
          "type": "bool"
        }
      ],
      "payable": false,
      "stateMutability": "view",
      "type": "function"
    },
    {
      "constant": false,
      "inputs": [
        {
          "name": "tournamentId",
          "type": "uint256"
        },
        {
          "name": "title",
          "type": "string"
        },
        {
          "name": "body",
          "type": "string"
        },
        {
          "name": "references",
          "type": "string"
        },
        {
          "name": "contributors",
          "type": "string"
        }
      ],
      "name": "createSubmission",
      "outputs": [],
      "payable": false,
      "stateMutability": "nonpayable",
      "type": "function"
    },
    {
      "constant": false,
      "inputs": [
        {
          "name": "toIgnore",
          "type": "bytes32"
        }
      ],
      "name": "prepareBalance",
      "outputs": [],
      "payable": false,
      "stateMutability": "nonpayable",
      "type": "function"
    },
    {
      "constant": true,
      "inputs": [],
      "name": "getOwner",
      "outputs": [
        {
          "name": "_deployer",
          "type": "address"
        }
      ],
      "payable": false,
      "stateMutability": "view",
      "type": "function"
    },
    {
      "constant": true,
      "inputs": [
        {
          "name": "tournamentId",
          "type": "uint256"
        },
        {
          "name": "idx",
          "type": "uint256"
        }
      ],
      "name": "submissionByIndex",
      "outputs": [
        {
          "name": "",
          "type": "uint256"
        },
        {
          "name": "",
          "type": "string"
        },
        {
          "name": "",
          "type": "string"
        },
        {
          "name": "",
          "type": "string"
        },
        {
          "name": "",
          "type": "string"
        },
        {
          "name": "",
          "type": "address"
        }
      ],
      "payable": false,
      "stateMutability": "view",
      "type": "function"
    },
    {
      "constant": false,
      "inputs": [
        {
          "name": "_query",
          "type": "bytes32"
        }
      ],
      "name": "Query",
      "outputs": [],
      "payable": false,
      "stateMutability": "nonpayable",
      "type": "function"
    },
    {
      "constant": true,
      "inputs": [
        {
          "name": "tournamentId",
          "type": "uint256"
        },
        {
          "name": "submissionId",
          "type": "uint256"
        }
      ],
      "name": "submissionByAddress",
      "outputs": [
        {
          "name": "",
          "type": "uint256"
        },
        {
          "name": "",
          "type": "string"
        },
        {
          "name": "",
          "type": "string"
        },
        {
          "name": "",
          "type": "string"
        },
        {
          "name": "",
          "type": "string"
        },
        {
          "name": "",
          "type": "address"
        }
      ],
      "payable": false,
      "stateMutability": "view",
      "type": "function"
    },
    {
      "constant": false,
      "inputs": [
        {
          "name": "title",
          "type": "string"
        },
        {
          "name": "description",
          "type": "string"
        },
        {
          "name": "bounty",
          "type": "uint256"
        }
      ],
      "name": "createTournament",
      "outputs": [],
      "payable": false,
      "stateMutability": "nonpayable",
      "type": "function"
    },
    {
      "inputs": [],
      "payable": false,
      "stateMutability": "nonpayable",
      "type": "constructor"
    },
    {
      "anonymous": false,
      "inputs": [
        {
          "indexed": false,
          "name": "id",
          "type": "uint256"
        },
        {
          "indexed": false,
          "name": "sender",
          "type": "address"
        }
      ],
      "name": "QueryPerformed",
      "type": "event"
    }
  ],
  "bytecode": "0x6060604052341561000f57600080fd5b336000806101000a81548173ffffffffffffffffffffffffffffffffffffffff021916908373ffffffffffffffffffffffffffffffffffffffff16021790555033600660006101000a81548173ffffffffffffffffffffffffffffffffffffffff021916908373ffffffffffffffffffffffffffffffffffffffff16021790555061292c8061009f6000396000f3006060604052600436106100d0576000357c0100000000000000000000000000000000000000000000000000000000900463ffffffff168063053730ea146100d557806308c4fc5f1461010c5780632312cbf6146101545780635b67b6ba1461018b57806363f11a40146102a15780636e2b2c7c146103b75780637503e1b7146103e057806382f40bbf1461053b578063881b3c491461066a578063893d20e8146106915780638e727611146106e6578063a99fe22514610909578063c3c3d9ac14610930578063f504cf0c14610b53575b600080fd5b34156100e057600080fd5b6100f66004808035906020019091905050610bfc565b6040518082815260200191505060405180910390f35b341561011757600080fd5b61013a600480803590602001909190803560001916906020019091905050610c20565b604051808215151515815260200191505060405180910390f35b341561015f57600080fd5b6101756004808035906020019091905050610ce3565b6040518082815260200191505060405180910390f35b341561019657600080fd5b6101ac6004808035906020019091905050610ef7565b604051808581526020018060200180602001848152602001838103835286818151815260200191508051906020019080838360005b838110156101fc5780820151818401526020810190506101e1565b50505050905090810190601f1680156102295780820380516001836020036101000a031916815260200191505b50838103825285818151815260200191508051906020019080838360005b83811015610262578082015181840152602081019050610247565b50505050905090810190601f16801561028f5780820380516001836020036101000a031916815260200191505b50965050505050505060405180910390f35b34156102ac57600080fd5b6102c26004808035906020019091905050611168565b604051808581526020018060200180602001848152602001838103835286818151815260200191508051906020019080838360005b838110156103125780820151818401526020810190506102f7565b50505050905090810190601f16801561033f5780820380516001836020036101000a031916815260200191505b50838103825285818151815260200191508051906020019080838360005b8381101561037857808201518184015260208101905061035d565b50505050905090810190601f1680156103a55780820380516001836020036101000a031916815260200191505b50965050505050505060405180910390f35b34156103c257600080fd5b6103ca6113aa565b6040518082815260200191505060405180910390f35b34156103eb57600080fd5b61040160048080359060200190919050506113b7565b604051808681526020018060200180602001858152602001841515151581526020018381038352878181546001816001161561010002031660029004815260200191508054600181600116156101000203166002900480156104a45780601f10610479576101008083540402835291602001916104a4565b820191906000526020600020905b81548152906001019060200180831161048757829003601f168201915b50508381038252868181546001816001161561010002031660029004815260200191508054600181600116156101000203166002900480156105275780601f106104fc57610100808354040283529160200191610527565b820191906000526020600020905b81548152906001019060200180831161050a57829003601f168201915b505097505050505050505060405180910390f35b341561054657600080fd5b610668600480803590602001909190803590602001908201803590602001908080601f0160208091040260200160405190810160405280939291908181526020018383808284378201915050505050509190803590602001908201803590602001908080601f0160208091040260200160405190810160405280939291908181526020018383808284378201915050505050509190803590602001908201803590602001908080601f0160208091040260200160405190810160405280939291908181526020018383808284378201915050505050509190803590602001908201803590602001908080601f016020809104026020016040519081016040528093929190818152602001838380828437820191505050505050919050506113f8565b005b341561067557600080fd5b61068f600480803560001916906020019091905050611626565b005b341561069c57600080fd5b6106a46116b3565b604051808273ffffffffffffffffffffffffffffffffffffffff1673ffffffffffffffffffffffffffffffffffffffff16815260200191505060405180910390f35b34156106f157600080fd5b61071060048080359060200190919080359060200190919050506116dc565b60405180878152602001806020018060200180602001806020018673ffffffffffffffffffffffffffffffffffffffff1673ffffffffffffffffffffffffffffffffffffffff16815260200185810385528a818151815260200191508051906020019080838360005b83811015610794578082015181840152602081019050610779565b50505050905090810190601f1680156107c15780820380516001836020036101000a031916815260200191505b50858103845289818151815260200191508051906020019080838360005b838110156107fa5780820151818401526020810190506107df565b50505050905090810190601f1680156108275780820380516001836020036101000a031916815260200191505b50858103835288818151815260200191508051906020019080838360005b83811015610860578082015181840152602081019050610845565b50505050905090810190601f16801561088d5780820380516001836020036101000a031916815260200191505b50858103825287818151815260200191508051906020019080838360005b838110156108c65780820151818401526020810190506108ab565b50505050905090810190601f1680156108f35780820380516001836020036101000a031916815260200191505b509a505050505050505050505060405180910390f35b341561091457600080fd5b61092e600480803560001916906020019091905050611af0565b005b341561093b57600080fd5b61095a6004808035906020019091908035906020019091905050611dfe565b60405180878152602001806020018060200180602001806020018673ffffffffffffffffffffffffffffffffffffffff1673ffffffffffffffffffffffffffffffffffffffff16815260200185810385528a818151815260200191508051906020019080838360005b838110156109de5780820151818401526020810190506109c3565b50505050905090810190601f168015610a0b5780820380516001836020036101000a031916815260200191505b50858103845289818151815260200191508051906020019080838360005b83811015610a44578082015181840152602081019050610a29565b50505050905090810190601f168015610a715780820380516001836020036101000a031916815260200191505b50858103835288818151815260200191508051906020019080838360005b83811015610aaa578082015181840152602081019050610a8f565b50505050905090810190601f168015610ad75780820380516001836020036101000a031916815260200191505b50858103825287818151815260200191508051906020019080838360005b83811015610b10578082015181840152602081019050610af5565b50505050905090810190601f168015610b3d5780820380516001836020036101000a031916815260200191505b509a505050505050505050505060405180910390f35b3415610b5e57600080fd5b610bfa600480803590602001908201803590602001908080601f0160208091040260200160405190810160405280939291908181526020018383808284378201915050505050509190803590602001908201803590602001908080601f016020809104026020016040519081016040528093929190818152602001838380828437820191505050505050919080359060200190919050506121e0565b005b600581815481101515610c0b57fe5b90600052602060002090016000915090505481565b60008060009054906101000a900473ffffffffffffffffffffffffffffffffffffffff1673ffffffffffffffffffffffffffffffffffffffff163373ffffffffffffffffffffffffffffffffffffffff16141515610c7d57600080fd5b60006001028260001916118015610cae57506000600102600360008581526020019081526020016000205460001916145b15610cd8578160036000858152602001908152602001600020816000191690555060019050610cdd565b600090505b92915050565b6000610ced6123f6565b6004600084815260200190815260200160002060c0604051908101604052908160008201548152602001600182018054600181600116156101000203166002900480601f016020809104026020016040519081016040528092919081815260200182805460018160011615610100020316600290048015610daf5780601f10610d8457610100808354040283529160200191610daf565b820191906000526020600020905b815481529060010190602001808311610d9257829003601f168201915b50505050508152602001600282018054600181600116156101000203166002900480601f016020809104026020016040519081016040528092919081815260200182805460018160011615610100020316600290048015610e515780601f10610e2657610100808354040283529160200191610e51565b820191906000526020600020905b815481529060010190602001808311610e3457829003601f168201915b505050505081526020016003820154815260200160058201805480602002602001604051908101604052809291908181526020018280548015610eb357602002820191906000526020600020905b815481526020019060010190808311610e9f575b505050505081526020016006820160009054906101000a900460ff16151515158152505090508060a001511515610ee957600080fd5b806080015151915050919050565b6000610f01612441565b610f09612441565b6000610f136123f6565b85610f1c6113aa565b111515610f2857600080fd5b60046000600588815481101515610f3b57fe5b906000526020600020900154815260200190815260200160002060c0604051908101604052908160008201548152602001600182018054600181600116156101000203166002900480601f0160208091040260200160405190810160405280929190818152602001828054600181600116156101000203166002900480156110045780601f10610fd957610100808354040283529160200191611004565b820191906000526020600020905b815481529060010190602001808311610fe757829003601f168201915b50505050508152602001600282018054600181600116156101000203166002900480601f0160208091040260200160405190810160405280929190818152602001828054600181600116156101000203166002900480156110a65780601f1061107b576101008083540402835291602001916110a6565b820191906000526020600020905b81548152906001019060200180831161108957829003601f168201915b50505050508152602001600382015481526020016005820180548060200260200160405190810160405280929190818152602001828054801561110857602002820191906000526020600020905b8154815260200190600101908083116110f4575b505050505081526020016006820160009054906101000a900460ff16151515158152505090508060a00151151561113e57600080fd5b80600001518160200151826040015183606001518292508191509450945094509450509193509193565b6000611172612441565b61117a612441565b60006111846123f6565b6004600087815260200190815260200160002060c0604051908101604052908160008201548152602001600182018054600181600116156101000203166002900480601f0160208091040260200160405190810160405280929190818152602001828054600181600116156101000203166002900480156112465780601f1061121b57610100808354040283529160200191611246565b820191906000526020600020905b81548152906001019060200180831161122957829003601f168201915b50505050508152602001600282018054600181600116156101000203166002900480601f0160208091040260200160405190810160405280929190818152602001828054600181600116156101000203166002900480156112e85780601f106112bd576101008083540402835291602001916112e8565b820191906000526020600020905b8154815290600101906020018083116112cb57829003601f168201915b50505050508152602001600382015481526020016005820180548060200260200160405190810160405280929190818152602001828054801561134a57602002820191906000526020600020905b815481526020019060010190808311611336575b505050505081526020016006820160009054906101000a900460ff16151515158152505090508060a00151151561138057600080fd5b80600001518160200151826040015183606001518292508191509450945094509450509193509193565b6000600580549050905090565b6004602052806000526040600020600091509050806000015490806001019080600201908060030154908060060160009054906101000a900460ff16905085565b600080611403612455565b6004600089815260200190815260200160002092508260060160009054906101000a900460ff16151561143557600080fd5b61143d61235e565b91506000600102826000191611151561145557600080fd5b87816000018181525050602a61146a89610ce3565b01816020018181525050868160400181905250858160600181905250848160800181905250838160a00181905250338160c0019073ffffffffffffffffffffffffffffffffffffffff16908173ffffffffffffffffffffffffffffffffffffffff168152505060018160e001901515908115158152505080836004016000836020015181526020019081526020016000206000820151816000015560208201518160010155604082015181600201908051906020019061152b9291906124cb565b5060608201518160030190805190602001906115489291906124cb565b5060808201518160040190805190602001906115659291906124cb565b5060a08201518160050190805190602001906115829291906124cb565b5060c08201518160060160006101000a81548173ffffffffffffffffffffffffffffffffffffffff021916908373ffffffffffffffffffffffffffffffffffffffff16021790555060e08201518160060160146101000a81548160ff021916908315150217905550905050826005018054806001018281611603919061254b565b916000526020600020900160008360200151909190915055505050505050505050565b3073ffffffffffffffffffffffffffffffffffffffff1663a99fe225826040518263ffffffff167c0100000000000000000000000000000000000000000000000000000000028152600401808260001916600019168152602001915050600060405180830381600087803b151561169c57600080fd5b6102c65a03f115156116ad57600080fd5b50505050565b60008060009054906101000a900473ffffffffffffffffffffffffffffffffffffffff16905090565b60006116e6612441565b6116ee612441565b6116f6612441565b6116fe612441565b600080611709612455565b886117138b610ce3565b11151561171f57600080fd5b600460008b815260200190815260200160002091508160060160009054906101000a900460ff16151561175157600080fd5b816004016000836005018b81548110151561176857fe5b906000526020600020900154815260200190815260200160002061010060405190810160405290816000820154815260200160018201548152602001600282018054600181600116156101000203166002900480601f01602080910402602001604051908101604052809291908181526020018280546001816001161561010002031660029004801561183c5780601f106118115761010080835404028352916020019161183c565b820191906000526020600020905b81548152906001019060200180831161181f57829003601f168201915b50505050508152602001600382018054600181600116156101000203166002900480601f0160208091040260200160405190810160405280929190818152602001828054600181600116156101000203166002900480156118de5780601f106118b3576101008083540402835291602001916118de565b820191906000526020600020905b8154815290600101906020018083116118c157829003601f168201915b50505050508152602001600482018054600181600116156101000203166002900480601f0160208091040260200160405190810160405280929190818152602001828054600181600116156101000203166002900480156119805780601f1061195557610100808354040283529160200191611980565b820191906000526020600020905b81548152906001019060200180831161196357829003601f168201915b50505050508152602001600582018054600181600116156101000203166002900480601f016020809104026020016040519081016040528092919081815260200182805460018160011615610100020316600290048015611a225780601f106119f757610100808354040283529160200191611a22565b820191906000526020600020905b815481529060010190602001808311611a0557829003601f168201915b505050505081526020016006820160009054906101000a900473ffffffffffffffffffffffffffffffffffffffff1673ffffffffffffffffffffffffffffffffffffffff1673ffffffffffffffffffffffffffffffffffffffff1681526020016006820160149054906101000a900460ff16151515158152505090508060e001511515611aae57600080fd5b80602001518160400151826060015183608001518460a001518560c0015184945083935082925081915097509750975097509750975050509295509295509295565b6000806000600160003373ffffffffffffffffffffffffffffffffffffffff1673ffffffffffffffffffffffffffffffffffffffff16815260200190815260200160002060009054906101000a900473ffffffffffffffffffffffffffffffffffffffff1673ffffffffffffffffffffffffffffffffffffffff161115611bd857600160003373ffffffffffffffffffffffffffffffffffffffff1673ffffffffffffffffffffffffffffffffffffffff16815260200190815260200160002060009054906101000a900473ffffffffffffffffffffffffffffffffffffffff169150611cae565b33611be1612577565b808273ffffffffffffffffffffffffffffffffffffffff1673ffffffffffffffffffffffffffffffffffffffff168152602001915050604051809103906000f0801515611c2d57600080fd5b915081600160003373ffffffffffffffffffffffffffffffffffffffff1673ffffffffffffffffffffffffffffffffffffffff16815260200190815260200160002060006101000a81548173ffffffffffffffffffffffffffffffffffffffff021916908373ffffffffffffffffffffffffffffffffffffffff1602179055505b8173ffffffffffffffffffffffffffffffffffffffff1663a3b61a9c846000604051602001526040518263ffffffff167c0100000000000000000000000000000000000000000000000000000000028152600401808260001916600019168152602001915050602060405180830381600087803b1515611d2d57600080fd5b6102c65a03f11515611d3e57600080fd5b50505060405180519050905080600260003373ffffffffffffffffffffffffffffffffffffffff1673ffffffffffffffffffffffffffffffffffffffff168152602001908152602001600020819055507f1c16af450a72e7153ed6faee28677e32f11936f8ab2e63322d032d1f753b5aea8133604051808381526020018273ffffffffffffffffffffffffffffffffffffffff1673ffffffffffffffffffffffffffffffffffffffff1681526020019250505060405180910390a1505050565b6000611e08612441565b611e10612441565b611e18612441565b611e20612441565b600080611e2b612455565b600460008b815260200190815260200160002091508160060160009054906101000a900460ff161515611e5d57600080fd5b8160040160008a815260200190815260200160002061010060405190810160405290816000820154815260200160018201548152602001600282018054600181600116156101000203166002900480601f016020809104026020016040519081016040528092919081815260200182805460018160011615610100020316600290048015611f2c5780601f10611f0157610100808354040283529160200191611f2c565b820191906000526020600020905b815481529060010190602001808311611f0f57829003601f168201915b50505050508152602001600382018054600181600116156101000203166002900480601f016020809104026020016040519081016040528092919081815260200182805460018160011615610100020316600290048015611fce5780601f10611fa357610100808354040283529160200191611fce565b820191906000526020600020905b815481529060010190602001808311611fb157829003601f168201915b50505050508152602001600482018054600181600116156101000203166002900480601f0160208091040260200160405190810160405280929190818152602001828054600181600116156101000203166002900480156120705780601f1061204557610100808354040283529160200191612070565b820191906000526020600020905b81548152906001019060200180831161205357829003601f168201915b50505050508152602001600582018054600181600116156101000203166002900480601f0160208091040260200160405190810160405280929190818152602001828054600181600116156101000203166002900480156121125780601f106120e757610100808354040283529160200191612112565b820191906000526020600020905b8154815290600101906020018083116120f557829003601f168201915b505050505081526020016006820160009054906101000a900473ffffffffffffffffffffffffffffffffffffffff1673ffffffffffffffffffffffffffffffffffffffff1673ffffffffffffffffffffffffffffffffffffffff1681526020016006820160149054906101000a900460ff16151515158152505090508060e00151151561219e57600080fd5b80602001518160400151826060015183608001518460a001518560c0015184945083935082925081915097509750975097509750975050509295509295509295565b6121e86123f6565b600660009054906101000a900473ffffffffffffffffffffffffffffffffffffffff1673ffffffffffffffffffffffffffffffffffffffff163373ffffffffffffffffffffffffffffffffffffffff1614151561224457600080fd5b602a61224e6113aa565b018160000181815250508381602001819052508281604001819052508181606001818152505060018160a00190151590811515815250508060046000836000015181526020019081526020016000206000820151816000015560208201518160010190805190602001906122c39291906124cb565b5060408201518160020190805190602001906122e09291906124cb565b50606082015181600301556080820151816005019080519060200190612307929190612587565b5060a08201518160060160006101000a81548160ff0219169083151502179055509050506005805480600101828161233f919061254b565b9160005260206000209001600083600001519091909150555050505050565b6000806000600260003373ffffffffffffffffffffffffffffffffffffffff1673ffffffffffffffffffffffffffffffffffffffff1681526020019081526020016000205491506000821115156123bb57600060010292506123f1565b600360008381526020019081526020016000205490506000600102816000191611156123e9578092506123f1565b600060010292505b505090565b60c060405190810160405280600081526020016124116125d4565b815260200161241e6125d4565b8152602001600081526020016124326125e8565b81526020016000151581525090565b602060405190810160405280600081525090565b6101006040519081016040528060008152602001600081526020016124786125d4565b81526020016124856125d4565b81526020016124926125d4565b815260200161249f6125d4565b8152602001600073ffffffffffffffffffffffffffffffffffffffff1681526020016000151581525090565b828054600181600116156101000203166002900490600052602060002090601f016020900481019282601f1061250c57805160ff191683800117855561253a565b8280016001018555821561253a579182015b8281111561253957825182559160200191906001019061251e565b5b50905061254791906125fc565b5090565b8154818355818115116125725781836000526020600020918201910161257191906125fc565b5b505050565b6040516102df8061262283390190565b8280548282559060005260206000209081019282156125c3579160200282015b828111156125c25782518255916020019190600101906125a7565b5b5090506125d091906125fc565b5090565b602060405190810160405280600081525090565b602060405190810160405280600081525090565b61261e91905b8082111561261a576000816000905550600101612602565b5090565b9056006060604052341561000f57600080fd5b6040516020806102df83398101604052808051906020019091905050336000806101000a81548173ffffffffffffffffffffffffffffffffffffffff021916908373ffffffffffffffffffffffffffffffffffffffff16021790555080600160006101000a81548173ffffffffffffffffffffffffffffffffffffffff021916908373ffffffffffffffffffffffffffffffffffffffff16021790555050610223806100bc6000396000f30060606040526004361061004c576000357c0100000000000000000000000000000000000000000000000000000000900463ffffffff16806341c0e1b514610051578063a3b61a9c14610066575b600080fd5b341561005c57600080fd5b6100646100a1565b005b341561007157600080fd5b61008b600480803560001916906020019091905050610115565b6040518082815260200191505060405180910390f35b6000809054906101000a900473ffffffffffffffffffffffffffffffffffffffff1673ffffffffffffffffffffffffffffffffffffffff163373ffffffffffffffffffffffffffffffffffffffff161415156100fc57600080fd5b3373ffffffffffffffffffffffffffffffffffffffff16ff5b60008060009054906101000a900473ffffffffffffffffffffffffffffffffffffffff1673ffffffffffffffffffffffffffffffffffffffff163373ffffffffffffffffffffffffffffffffffffffff1614151561017257600080fd5b434283336040518085815260200184815260200183600019166000191681526020018273ffffffffffffffffffffffffffffffffffffffff1673ffffffffffffffffffffffffffffffffffffffff166c0100000000000000000000000002815260140194505050505060405180910390206001900460028190555060025490509190505600a165627a7a72305820f76c23013347f5e987a91a3d35f6ab817030f91d45887d19b803501d01403a8d0029a165627a7a723058205a681717d2f10ffdb83e7542dfb91b24f0af24e0302882eb64be747c49e2a4ca0029",
  "source": "pragma solidity ^0.4.18;\n\nimport \"./MatryxOracleMessenger.sol\";\n\ncontract MatryxPlatform is MatryxOracleMessenger\n{\n\n    struct Submission\n    {\n        uint256 tournamentId;\n        uint256 id;\n\n        string title;\n        string body;\n        string references;\n        string contributors;\n        address author;\n\n        bool exists;\n    }\n\n    struct Tournament\n    {\n        uint256 id;\n\n        string title;\n        string description;\n        uint256 bounty;\n\n        mapping (uint256 => Submission) submissions;\n        uint256[] submissionList;\n\n        bool exists;\n    }\n\n    mapping (uint256 => Tournament) public tournaments;\n    uint256[] public tournamentList;\n\n    address owner;\n    modifier owneronly()\n    {\n        require(msg.sender == owner);\n        _;\n    }\n\n    function MatryxPlatform() public\n    {\n        owner = msg.sender;\n    }\n\n    function prepareBalance(bytes32 toIgnore) public\n    {\n        this.Query(toIgnore);\n    }\n\n    function createTournament(string title, string description, uint256 bounty) owneronly public\n    {\n        Tournament memory newTournament;\n        newTournament.id = tournamentCount() + 42;\n        newTournament.title = title;\n        newTournament.description = description;\n        newTournament.bounty = bounty;\n        newTournament.exists = true;\n        tournaments[newTournament.id] = newTournament;\n        tournamentList.push(newTournament.id);\n    }\n\n    function createSubmission(uint256 tournamentId, string title, string body, string references, string contributors) public\n    {\n        // Require tournament exists\n        Tournament storage t = tournaments[tournamentId];\n        require(t.exists);\n\n        bytes32 balanceMTX = latestResponseFromOracle();\n        require(balanceMTX > 0x0);\n\n        Submission memory newSubmission;\n        newSubmission.tournamentId = tournamentId;\n        newSubmission.id = submissionCount(tournamentId) + 42;\n        newSubmission.title = title;\n        newSubmission.body = body;\n        newSubmission.references = references;\n        newSubmission.contributors = contributors;\n        newSubmission.author = msg.sender;\n        newSubmission.exists = true;\n        t.submissions[newSubmission.id] = newSubmission;\n        t.submissionList.push(newSubmission.id);\n    }\n\n    function tournamentByIndex(uint256 idx) public constant returns (uint256, string, string, uint256)\n    {\n        require(tournamentCount() > idx);\n        Tournament memory t = tournaments[tournamentList[idx]];\n        require(t.exists);\n        return (t.id, t.title, t.description, t.bounty);\n    }\n\n    function tournamentByAddress(uint256 tournamentId) public constant returns (uint256, string, string, uint256)\n    {\n        Tournament memory t = tournaments[tournamentId];\n        require(t.exists);\n        return (t.id, t.title, t.description, t.bounty);\n    }\n\n    function tournamentCount() public constant returns (uint256)\n    {\n        return tournamentList.length;\n    }\n\n    function submissionByIndex(uint256 tournamentId, uint256 idx) public constant returns (uint256, string, string, string, string, address)\n    {\n        require(submissionCount(tournamentId) > idx);\n        Tournament storage t = tournaments[tournamentId];\n        require(t.exists);\n        Submission memory s = t.submissions[t.submissionList[idx]];\n        require(s.exists);\n        return (s.id, s.title, s.body, s.references, s.contributors, s.author);\n    }\n\n    function submissionByAddress(uint256 tournamentId, uint256 submissionId) public constant returns (uint256, string, string, string, string, address)\n    {\n        Tournament storage t = tournaments[tournamentId];\n        require(t.exists);\n        Submission memory s = t.submissions[submissionId];\n        require(s.exists);\n        return (s.id, s.title, s.body, s.references, s.contributors, s.author);\n    }\n\n    function submissionCount(uint256 tournamentId) public constant returns (uint256)\n    {\n        Tournament memory t = tournaments[tournamentId];\n        require(t.exists);\n        return t.submissionList.length;\n    }\n\n}",
  "sourcePath": "/Users/maxhoward/Desktop/Ethereum Development/matryx-platform-alpha-contracts/contracts/MatryxPlatform.sol",
  "compiler": {
    "name": "solc",
    "version": "0.4.18+commit.9cf6e910.Emscripten.clang"
  },
  "schemaVersion": "1.0.1",
  "updatedAt": "2017-11-15T10:55:18.594Z"
}