{
  "contractName": "MatryxRoundFactory",
  "abi": [
    {
      "constant": true,
      "inputs": [
        {
          "name": "_sender",
          "type": "address"
        }
      ],
      "name": "isOwner",
      "outputs": [
        {
          "name": "_isOwner",
          "type": "bool"
        }
      ],
      "payable": false,
      "stateMutability": "view",
      "type": "function"
    },
    {
      "constant": true,
      "inputs": [],
      "name": "getOwner",
      "outputs": [
        {
          "name": "_owner",
          "type": "address"
        }
      ],
      "payable": false,
      "stateMutability": "view",
      "type": "function"
    },
    {
      "constant": true,
      "inputs": [],
      "name": "owner",
      "outputs": [
        {
          "name": "",
          "type": "address"
        }
      ],
      "payable": false,
      "stateMutability": "view",
      "type": "function"
    },
    {
      "constant": true,
      "inputs": [],
      "name": "matryxSubmissionFactoryAddress",
      "outputs": [
        {
          "name": "",
          "type": "address"
        }
      ],
      "payable": false,
      "stateMutability": "view",
      "type": "function"
    },
    {
      "constant": false,
      "inputs": [
        {
          "name": "newOwner",
          "type": "address"
        }
      ],
      "name": "transferOwnership",
      "outputs": [],
      "payable": false,
      "stateMutability": "nonpayable",
      "type": "function"
    },
    {
      "inputs": [
        {
          "name": "_matryxSubmissionFactoryAddress",
          "type": "address"
        }
      ],
      "payable": false,
      "stateMutability": "nonpayable",
      "type": "constructor"
    },
    {
      "constant": false,
      "inputs": [
        {
          "name": "_platformAddress",
          "type": "address"
        },
        {
          "name": "_tournamentAddress",
          "type": "address"
        },
        {
          "name": "_owner",
          "type": "address"
        },
        {
          "components": [
            {
              "name": "start",
              "type": "uint256"
            },
            {
              "name": "end",
              "type": "uint256"
            },
            {
              "name": "reviewPeriodDuration",
              "type": "uint256"
            },
            {
              "name": "bounty",
              "type": "uint256"
            },
            {
              "name": "closed",
              "type": "bool"
            }
          ],
          "name": "roundData",
          "type": "tuple"
        }
      ],
      "name": "createRound",
      "outputs": [
        {
          "name": "_roundAddress",
          "type": "address"
        }
      ],
      "payable": false,
      "stateMutability": "nonpayable",
      "type": "function"
    },
    {
      "constant": false,
      "inputs": [
        {
          "name": "_nameHash",
          "type": "bytes32"
        },
        {
          "name": "_contractAddress",
          "type": "address"
        }
      ],
      "name": "setContractAddress",
      "outputs": [],
      "payable": false,
      "stateMutability": "nonpayable",
      "type": "function"
    },
    {
      "constant": true,
      "inputs": [
        {
          "name": "_nameHash",
          "type": "bytes32"
        }
      ],
      "name": "getContractAddress",
      "outputs": [
        {
          "name": "contractAddress",
          "type": "address"
        }
      ],
      "payable": false,
      "stateMutability": "view",
      "type": "function"
    }
  ],
  "bytecode": "0x608060405234801561001057600080fd5b50604051602080612fed833981018060405261002f9190810190610075565b6000805433600160a060020a03199182161790915560018054909116600160a060020a03929092169190911790556100a7565b600061006e825161009b565b9392505050565b60006020828403121561008757600080fd5b60006100938484610062565b949350505050565b600160a060020a031690565b612f37806100b66000396000f300608060405260043610620000965763ffffffff7c01000000000000000000000000000000000000000000000000000000006000350416630d2020dd81146200009b5780632f54bf6e14620000d8578063893d20e8146200010c5780638da5cb5b1462000124578063911132e2146200013c578063b0ff54921462000161578063e001f8411462000179578063f2fde38b14620001a0575b600080fd5b348015620000a857600080fd5b50620000c0620000ba36600462000535565b620001c5565b604051620000cf919062000629565b60405180910390f35b348015620000e557600080fd5b50620000fd620000f7366004620004a1565b620001ed565b604051620000cf919062000696565b3480156200011957600080fd5b50620000c06200020e565b3480156200013157600080fd5b50620000c06200022a565b3480156200014957600080fd5b50620000c06200015b366004620004ca565b62000246565b3480156200016e57600080fd5b50620000c0620002ac565b3480156200018657600080fd5b506200019e6200019836600462000556565b620002c8565b005b348015620001ad57600080fd5b506200019e620001bf366004620004a1565b62000340565b60009081526002602052604090205473ffffffffffffffffffffffffffffffffffffffff1690565b60005473ffffffffffffffffffffffffffffffffffffffff91821691161490565b60005473ffffffffffffffffffffffffffffffffffffffff1690565b60005473ffffffffffffffffffffffffffffffffffffffff1681565b60015460009081908690869073ffffffffffffffffffffffffffffffffffffffff16868662000274620003cf565b620002849594939291906200063f565b604051809103906000f080158015620002a1573d6000803e3d6000fd5b509695505050505050565b60015473ffffffffffffffffffffffffffffffffffffffff1681565b60005473ffffffffffffffffffffffffffffffffffffffff163314620002ed57600080fd5b60009182526002602052604090912080547fffffffffffffffffffffffff00000000000000000000000000000000000000001673ffffffffffffffffffffffffffffffffffffffff909216919091179055565b60005473ffffffffffffffffffffffffffffffffffffffff1633146200036557600080fd5b73ffffffffffffffffffffffffffffffffffffffff811615156200038857600080fd5b600080547fffffffffffffffffffffffff00000000000000000000000000000000000000001673ffffffffffffffffffffffffffffffffffffffff92909216919091179055565b60405161280e80620006f083390190565b6000620003ee8235620006ce565b9392505050565b6000620003ee8235620006e7565b6000620003ee8235620006ec565b600060a082840312156200042457600080fd5b6200043060a0620006a6565b9050600062000440848462000403565b8252506020620004538484830162000403565b6020830152506040620004698482850162000403565b60408301525060606200047f8482850162000403565b60608301525060806200049584828501620003f5565b60808301525092915050565b600060208284031215620004b457600080fd5b6000620004c28484620003e0565b949350505050565b6000806000806101008587031215620004e257600080fd5b6000620004f08787620003e0565b94505060206200050387828801620003e0565b93505060406200051687828801620003e0565b9250506060620005298782880162000411565b91505092959194509250565b6000602082840312156200054857600080fd5b6000620004c2848462000403565b600080604083850312156200056a57600080fd5b600062000578858562000403565b92505060206200058b85828601620003e0565b9150509250929050565b620005a081620006ce565b82525050565b620005a081620006e7565b805160a0830190620005c484826200061e565b506020820151620005d960208501826200061e565b506040820151620005ee60408501826200061e565b5060608201516200060360608501826200061e565b506080820151620006186080850182620005a6565b50505050565b620005a081620006ec565b6020810162000639828462000595565b92915050565b610120810162000650828862000595565b6200065f602083018762000595565b6200066e604083018662000595565b6200067d606083018562000595565b6200068c6080830184620005b1565b9695505050505050565b60208101620006398284620005a6565b60405181810167ffffffffffffffff81118282101715620006c657600080fd5b604052919050565b73ffffffffffffffffffffffffffffffffffffffff1690565b151590565b90560060806040523480156200001157600080fd5b50604051610120806200280e83398101806040526200003491908101906200029a565b6000805460018054600160a060020a0319908116600160a060020a038a81169190911790925560028054821689841617905560038054821688841617905533928116831716908516179091556060820151600855604080517f4c6962546f75726e616d656e7441646d696e4d6574686f647300000000000000815290516019918190039190910181207f0d2020dd0000000000000000000000000000000000000000000000000000000082529190630d2020dd90620000f89084906004016200032c565b602060405180830381600087803b1580156200011357600080fd5b505af115801562000128573d6000803e3d6000fd5b505050506040513d601f19601f820116820180604052506200014e919081019062000271565b60008281526004602052604090208054600160a060020a031916600160a060020a03929092169190911790556200018e826401000000006200019a810204565b5050505050506200037e565b8051600555602081015160065560400151600755565b6000620001be82516200036d565b9392505050565b6000620001be825162000379565b600060a08284031215620001e657600080fd5b620001f260a062000342565b9050600062000202848462000263565b8252506020620002158484830162000263565b60208301525060406200022b8482850162000263565b6040830152506060620002418482850162000263565b60608301525060806200025784828501620001c5565b60808301525092915050565b6000620001be82516200036a565b6000602082840312156200028457600080fd5b6000620002928484620001b0565b949350505050565b60008060008060006101208688031215620002b457600080fd5b6000620002c28888620001b0565b9550506020620002d588828901620001b0565b9450506040620002e888828901620001b0565b9350506060620002fb88828901620001b0565b92505060806200030e88828901620001d3565b9150509295509295909350565b62000326816200036a565b82525050565b602081016200033c82846200031b565b92915050565b60405181810167ffffffffffffffff811182821017156200036257600080fd5b604052919050565b90565b600160a060020a031690565b151590565b612480806200038e6000396000f3006080604052600436106101a05763ffffffff7c010000000000000000000000000000000000000000000000000000000060003504166303d66a9781146101a557806307417cf1146101d05780630befb0a5146101f25780630d2020dd146102075780630e3db9f21461022757806310fe9ae81461023e5780631865c57d14610253578063241b15ad146102685780632f0713bb1461027d5780632f54bf6e1461029d5780632fc1f190146102ca578063389994f9146102df57806338e43895146102f4578063439f5ac2146103145780635325cdba1461032957806354f6aa201461034957806357c60fb01461036b578063856646fd1461038b578063893d20e8146103ab5780638da5cb5b146103c05780638fa4e7b9146103d5578063b0ff5492146103f5578063b6a349751461040a578063c828371e1461042a578063dbe55e561461043f578063e001f84114610454578063e278fe6f14610474578063e76c293e14610489578063e9e8b446146101f2578063ed0984601461049e578063f2fde38b146104b3578063f49bff7b146104d3578063f8b2cb4f146104e8575b600080fd5b3480156101b157600080fd5b506101ba610508565b6040516101c7919061224a565b60405180910390f35b3480156101dc57600080fd5b506101e5610524565b6040516101c79190612390565b3480156101fe57600080fd5b506101e56106c6565b34801561021357600080fd5b506101ba610222366004611ea6565b610815565b34801561023357600080fd5b5061023c61083d565b005b34801561024a57600080fd5b506101ba610898565b34801561025f57600080fd5b506101e561093c565b34801561027457600080fd5b506101e56109de565b34801561028957600080fd5b5061023c610298366004611ea6565b6109e4565b3480156102a957600080fd5b506102bd6102b8366004611df6565b610b90565b6040516101c7919061230f565b3480156102d657600080fd5b506101ba610bb1565b3480156102eb57600080fd5b506102bd610bcd565b34801561030057600080fd5b5061023c61030f366004611ea6565b610bd5565b34801561032057600080fd5b506101e5610c7a565b34801561033557600080fd5b5061023c610344366004611ea6565b610c80565b34801561035557600080fd5b5061035e610f84565b6040516101c791906122fe565b34801561037757600080fd5b506101ba610386366004611e3a565b610ff6565b34801561039757600080fd5b5061023c6103a6366004611efe565b61142d565b3480156103b757600080fd5b506101ba611567565b3480156103cc57600080fd5b506101ba611583565b3480156103e157600080fd5b5061023c6103f0366004611f63565b61159f565b34801561040157600080fd5b506101ba61164c565b34801561041657600080fd5b506102bd610425366004611df6565b611668565b34801561043657600080fd5b506101e5611693565b34801561044b57600080fd5b506101ba611699565b34801561046057600080fd5b5061023c61046f366004611ec4565b6116b5565b34801561048057600080fd5b5061023c61172c565b34801561049557600080fd5b506101ba611791565b3480156104aa57600080fd5b5061035e6117ad565b3480156104bf57600080fd5b5061023c6104ce366004611df6565b61181d565b3480156104df57600080fd5b506101e56118aa565b3480156104f457600080fd5b506101e5610503366004611df6565b6118b0565b60025473ffffffffffffffffffffffffffffffffffffffff1681565b600254600090819073ffffffffffffffffffffffffffffffffffffffff16331461054d57600080fd5b6105556106c6565b9050600160009054906101000a900473ffffffffffffffffffffffffffffffffffffffff1673ffffffffffffffffffffffffffffffffffffffff166310fe9ae86040518163ffffffff167c0100000000000000000000000000000000000000000000000000000000028152600401602060405180830381600087803b1580156105dd57600080fd5b505af11580156105f1573d6000803e3d6000fd5b505050506040513d601f19601f820116820180604052506106159190810190611e1c565b6002546040517fa9059cbb00000000000000000000000000000000000000000000000000000000815273ffffffffffffffffffffffffffffffffffffffff9283169263a9059cbb9261066e9291169085906004016122e3565b602060405180830381600087803b15801561068857600080fd5b505af115801561069c573d6000803e3d6000fd5b505050506040513d601f19601f820116820180604052506106c09190810190611e88565b50919050565b600154604080517f10fe9ae8000000000000000000000000000000000000000000000000000000008152905160009273ffffffffffffffffffffffffffffffffffffffff16916310fe9ae891600480830192602092919082900301818787803b15801561073257600080fd5b505af1158015610746573d6000803e3d6000fd5b505050506040513d601f19601f8201168201806040525061076a9190810190611e1c565b73ffffffffffffffffffffffffffffffffffffffff166370a08231306040518263ffffffff167c01000000000000000000000000000000000000000000000000000000000281526004016107be919061231d565b602060405180830381600087803b1580156107d857600080fd5b505af11580156107ec573d6000803e3d6000fd5b505050506040513d601f19601f820116820180604052506108109190810190611f45565b905090565b60009081526004602052604090205473ffffffffffffffffffffffffffffffffffffffff1690565b60025460009073ffffffffffffffffffffffffffffffffffffffff16331461086457600080fd5b6005546006546108799163ffffffff611a0016565b426005819055909150610892908263ffffffff611a1216565b60065550565b600154604080517f10fe9ae8000000000000000000000000000000000000000000000000000000008152905160009273ffffffffffffffffffffffffffffffffffffffff16916310fe9ae891600480830192602092919082900301818787803b15801561090457600080fd5b505af1158015610918573d6000803e3d6000fd5b505050506040513d601f19601f820116820180604052506108109190810190611e1c565b6001546040517f05b00ec100000000000000000000000000000000000000000000000000000000815260009173__LibRound______________________________916305b00ec1916109b29173ffffffffffffffffffffffffffffffffffffffff90911690600590600a90600e906004016122a5565b60206040518083038186803b1580156109ca57600080fd5b505af41580156107ec573d6000803e3d6000fd5b600e5490565b60025473ffffffffffffffffffffffffffffffffffffffff163314610a0857600080fd5b6000610a1261093c565b14610a1c57600080fd5b600160009054906101000a900473ffffffffffffffffffffffffffffffffffffffff1673ffffffffffffffffffffffffffffffffffffffff166310fe9ae86040518163ffffffff167c0100000000000000000000000000000000000000000000000000000000028152600401602060405180830381600087803b158015610aa257600080fd5b505af1158015610ab6573d6000803e3d6000fd5b505050506040513d601f19601f82011682018060405250610ada9190810190611e1c565b73ffffffffffffffffffffffffffffffffffffffff1663a9059cbb33836040518363ffffffff167c0100000000000000000000000000000000000000000000000000000000028152600401610b309291906122e3565b602060405180830381600087803b158015610b4a57600080fd5b505af1158015610b5e573d6000803e3d6000fd5b505050506040513d601f19601f82011682018060405250610b829190810190611e88565b1515610b8d57600080fd5b50565b60005473ffffffffffffffffffffffffffffffffffffffff91821691161490565b60015473ffffffffffffffffffffffffffffffffffffffff1690565b600a54151590565b600254604080517f4c6962546f75726e616d656e7441646d696e4d6574686f647300000000000000815290519081900360190190203373ffffffffffffffffffffffffffffffffffffffff909216821491600091610c3290610815565b73ffffffffffffffffffffffffffffffffffffffff161490508180610c545750805b1515610c5f57600080fd5b600854610c72908463ffffffff611a1216565b600855505050565b60065490565b6002546000908190819073ffffffffffffffffffffffffffffffffffffffff163314610cab57600080fd5b600092505b600a54831015610f7e57600854610ccd908563ffffffff611a1216565b9150610d37670de0b6b3a7640000610d1f84610d2b600a60030154610d1f670de0b6b3a7640000600a6001018b815481101515610d0657fe5b9060005260206000200154611a2890919063ffffffff16565b9063ffffffff611a4c16565b9063ffffffff611a2816565b9050600160009054906101000a900473ffffffffffffffffffffffffffffffffffffffff1673ffffffffffffffffffffffffffffffffffffffff166310fe9ae86040518163ffffffff167c0100000000000000000000000000000000000000000000000000000000028152600401602060405180830381600087803b158015610dbf57600080fd5b505af1158015610dd3573d6000803e3d6000fd5b505050506040513d601f19601f82011682018060405250610df79190810190611e1c565b73ffffffffffffffffffffffffffffffffffffffff1663a9059cbb600a60000185815481101515610e2457fe5b6000918252602090912001546040517c010000000000000000000000000000000000000000000000000000000063ffffffff8416028152610e809173ffffffffffffffffffffffffffffffffffffffff169085906004016122e3565b602060405180830381600087803b158015610e9a57600080fd5b505af1158015610eae573d6000803e3d6000fd5b505050506040513d601f19601f82011682018060405250610ed29190810190611e88565b50600a805484908110610ee157fe5b6000918252602090912001546040517f09b542bb00000000000000000000000000000000000000000000000000000000815273ffffffffffffffffffffffffffffffffffffffff909116906309b542bb90610f40908490600401612390565b600060405180830381600087803b158015610f5a57600080fd5b505af1158015610f6e573d6000803e3d6000fd5b505060019094019350610cb09050565b50505050565b6060600e600001805480602002602001604051908101604052809291908181526020018280548015610fec57602002820191906000526020600020905b815473ffffffffffffffffffffffffffffffffffffffff168152600190910190602001808311610fc1575b5050505050905090565b600254604080517f4c6962546f75726e616d656e7441646d696e4d6574686f64730000000000000081529051908190036019019020600091829182913373ffffffffffffffffffffffffffffffffffffffff90911681149183919061105a90610815565b73ffffffffffffffffffffffffffffffffffffffff16149050818061107c5750805b151561108757600080fd5b600261109161093c565b1461109b57600080fd5b73ffffffffffffffffffffffffffffffffffffffff881615156110bd57600080fd5b6003546002546040517f6c4074f700000000000000000000000000000000000000000000000000000000815273ffffffffffffffffffffffffffffffffffffffff92831692636c4074f79261111e928d928d92169030908d90600401612258565b602060405180830381600087803b15801561113857600080fd5b505af115801561114c573d6000803e3d6000fd5b505050506040513d601f19601f820116820180604052506111709190810190611e1c565b73ffffffffffffffffffffffffffffffffffffffff80821660008181526011602052604080822080547fffffffffffffffffffffffffffffffffffffffffffffffffffffffffffffff00166001908117909155600e805491820181559092527fbb7b4a454dc3493923482f07822329ed19e8244eff582cc204f8554c3620c3fd90910180547fffffffffffffffffffffffff000000000000000000000000000000000000000016909217909155517f6a44e43d000000000000000000000000000000000000000000000000000000008152919550881690636a44e43d9061125b908b9060040161224a565b602060405180830381600087803b15801561127557600080fd5b505af1158015611289573d6000803e3d6000fd5b505050506040513d601f19601f820116820180604052506112ad9190810190611e1c565b73ffffffffffffffffffffffffffffffffffffffff8116600090815260106020526040902054909350151561134d57600f80546001810182556000919091527f8d1108e10bcb7c27dddfc02ed9d693a074039d026cf4ea4240b40f7d581ac8020180547fffffffffffffffffffffffff00000000000000000000000000000000000000001673ffffffffffffffffffffffffffffffffffffffff8a161790555b73ffffffffffffffffffffffffffffffffffffffff83811660009081526010602090815260408083208054600181018255908452919092200180547fffffffffffffffffffffffff00000000000000000000000000000000000000001687841617905560025490517f4644c51b000000000000000000000000000000000000000000000000000000008152911690634644c51b906113ef90879060040161224a565b600060405180830381600087803b15801561140957600080fd5b505af115801561141d573d6000803e3d6000fd5b50959a9950505050505050505050565b600254604080517f4c6962546f75726e616d656e7441646d696e4d6574686f647300000000000000815290519081900360190190203373ffffffffffffffffffffffffffffffffffffffff90921682149160009161148a90610815565b73ffffffffffffffffffffffffffffffffffffffff1614905081806114ac5750805b15156114b757600080fd5b60065415156114c557600080fd5b60036114cf61093c565b146114d957600080fd5b6040517f6e86d66200000000000000000000000000000000000000000000000000000000815273__LibRound______________________________90636e86d6629061153190600590600a908990899060040161232b565b60006040518083038186803b15801561154957600080fd5b505af415801561155d573d6000803e3d6000fd5b5050505050505050565b60005473ffffffffffffffffffffffffffffffffffffffff1690565b60005473ffffffffffffffffffffffffffffffffffffffff1681565b60025473ffffffffffffffffffffffffffffffffffffffff1633146115c357600080fd5b6040517fb666875000000000000000000000000000000000000000000000000000000000815273__LibRound______________________________9063b6668750906116189060059086908690600401612368565b60006040518083038186803b15801561163057600080fd5b505af4158015611644573d6000803e3d6000fd5b505050505050565b60035473ffffffffffffffffffffffffffffffffffffffff1681565b73ffffffffffffffffffffffffffffffffffffffff1660009081526011602052604090205460ff1690565b60055490565b60015473ffffffffffffffffffffffffffffffffffffffff1681565b60005473ffffffffffffffffffffffffffffffffffffffff1633146116d957600080fd5b60009182526004602052604090912080547fffffffffffffffffffffffff00000000000000000000000000000000000000001673ffffffffffffffffffffffffffffffffffffffff909216919091179055565b60025473ffffffffffffffffffffffffffffffffffffffff16331461175057600080fd5b600461175a61093c565b1461176457600080fd5b600980547fffffffffffffffffffffffffffffffffffffffffffffffffffffffffffffff00166001179055565b60025473ffffffffffffffffffffffffffffffffffffffff1690565b6060600a600001805480602002602001604051908101604052809291908181526020018280548015610fec5760200282019190600052602060002090815473ffffffffffffffffffffffffffffffffffffffff168152600190910190602001808311610fc1575050505050905090565b60005473ffffffffffffffffffffffffffffffffffffffff16331461184157600080fd5b73ffffffffffffffffffffffffffffffffffffffff8116151561186357600080fd5b600080547fffffffffffffffffffffffff00000000000000000000000000000000000000001673ffffffffffffffffffffffffffffffffffffffff92909216919091179055565b60085490565b600154604080517f10fe9ae8000000000000000000000000000000000000000000000000000000008152905160009273ffffffffffffffffffffffffffffffffffffffff16916310fe9ae891600480830192602092919082900301818787803b15801561191c57600080fd5b505af1158015611930573d6000803e3d6000fd5b505050506040513d601f19601f820116820180604052506119549190810190611e1c565b73ffffffffffffffffffffffffffffffffffffffff166370a08231836040518263ffffffff167c01000000000000000000000000000000000000000000000000000000000281526004016119a8919061224a565b602060405180830381600087803b1580156119c257600080fd5b505af11580156119d6573d6000803e3d6000fd5b505050506040513d601f19601f820116820180604052506119fa9190810190611f45565b92915050565b600082821115611a0c57fe5b50900390565b600082820183811015611a2157fe5b9392505050565b6000828202831580611a445750828482811515611a4157fe5b04145b1515611a2157fe5b6000808284811515611a5a57fe5b04949350505050565b6000611a21823561241d565b6000611a21825161241d565b6000601f82018313611a8c57600080fd5b8135611a9f611a9a826123c5565b61239e565b91508181835260208401935060208101905083856020840282011115611ac457600080fd5b60005b83811015611af05781611ada8882611a63565b8452506020928301929190910190600101611ac7565b5050505092915050565b6000601f82018313611b0b57600080fd5b6002611b19611a9a826123e6565b91508183856020840282011115611b2f57600080fd5b60005b83811015611af05781611b458882611c44565b8452506020928301929190910190600101611b32565b6000601f82018313611b6c57600080fd5b6003611b7a611a9a826123e6565b91508183856020840282011115611b9057600080fd5b60005b83811015611af05781611ba68882611c44565b8452506020928301929190910190600101611b93565b6000601f82018313611bcd57600080fd5b8135611bdb611a9a826123c5565b91508181835260208401935060208101905083856020840282011115611c0057600080fd5b60005b83811015611af05781611c168882611c44565b8452506020928301929190910190600101611c03565b6000611a218235612436565b6000611a218251612436565b6000611a21823561240a565b600060a08284031215611c6257600080fd5b611c6c60a061239e565b90506000611c7a8484611c44565b8252506020611c8b84848301611c44565b6020830152506040611c9f84828501611c44565b6040830152506060611cb384828501611c44565b6060830152506080611cc784828501611c2c565b60808301525092915050565b600060808284031215611ce557600080fd5b611cef608061239e565b9050813567ffffffffffffffff811115611d0857600080fd5b611d1484828501611a7b565b825250602082013567ffffffffffffffff811115611d3157600080fd5b611d3d84828501611bbc565b6020830152506040611d5184828501611c44565b6040830152506060611d6584828501611c44565b60608301525092915050565b60006101208284031215611d8457600080fd5b611d8e60a061239e565b90506000611d9c8484611b5b565b8252506060611dad84848301611afa565b60208301525060a0611dc184828501611afa565b60408301525060e0611dd584828501611c44565b606083015250610100611cc784828501611c44565b6000611a21825161240a565b600060208284031215611e0857600080fd5b6000611e148484611a63565b949350505050565b600060208284031215611e2e57600080fd5b6000611e148484611a6f565b60008060006101608486031215611e5057600080fd5b6000611e5c8686611a63565b9350506020611e6d86828701611a63565b9250506040611e7e86828701611d71565b9150509250925092565b600060208284031215611e9a57600080fd5b6000611e148484611c38565b600060208284031215611eb857600080fd5b6000611e148484611c44565b60008060408385031215611ed757600080fd5b6000611ee38585611c44565b9250506020611ef485828601611a63565b9150509250929050565b60008060c08385031215611f1157600080fd5b823567ffffffffffffffff811115611f2857600080fd5b611f3485828601611cd3565b9250506020611ef485828601611c50565b600060208284031215611f5757600080fd5b6000611e148484611dea565b60008060c08385031215611f7657600080fd5b6000611f348585611c44565b611f8b8161241d565b82525050565b6000611f9c8261240d565b808452602084019350611fae83612404565b60005b82811015611fde57611fc4868351611f82565b611fcd82612404565b602096909601959150600101611fb1565b5093949350505050565b6000611ff38261240d565b80845260208401935061200583612404565b60005b82811015611fde5761201b868351611f82565b61202482612404565b602096909601959150600101612008565b61203e81612411565b6120478261240a565b60005b828110156120775761205d858351612116565b61206682612404565b60209590950194915060010161204a565b5050505050565b61208781612417565b6120908261240a565b60005b82811015612077576120a6858351612116565b6120af82612404565b602095909501949150600101612093565b60006120cb8261240d565b8084526020840193506120dd83612404565b60005b82811015611fde576120f3868351612116565b6120fc82612404565b6020969096019591506001016120e0565b611f8b81612436565b611f8b8161240a565b611f8b8161243b565b805160a08301906121398482612116565b50602082015161214c6020850182612116565b50604082015161215f6040850182612116565b5060608201516121726060850182612116565b506080820151610f7e608085018261210d565b9052565b80516080808452600091908401906121a18282611fe8565b915050602083015184820360208601526121bb82826120c0565b91505060408301516121d06040860182612116565b5060608301516121e36060860182612116565b509392505050565b80516101208301906121fd848261207e565b5060208201516122106060850182612035565b50604082015161222360a0850182612035565b50606082015161223660e0850182612116565b506080820151610f7e610100850182612116565b602081016119fa8284611f82565b6101a081016122678288611f82565b6122746020830187611f82565b6122816040830186611f82565b61228e606083018561211f565b61229b60808301846121eb565b9695505050505050565b608081016122b38287611f82565b6122c06020830186612185565b6122cd6040830185612185565b6122da6060830184612185565b95945050505050565b604081016122f18285611f82565b611a216020830184612116565b60208082528101611a218184611f91565b602081016119fa828461210d565b602081016119fa828461211f565b610100810161233a8287612185565b6123476020830186612185565b81810360408301526123598185612189565b90506122da6060830184612128565b60e081016123768286612185565b6123836020830185612116565b611e146040830184612128565b602081016119fa8284612116565b60405181810167ffffffffffffffff811182821017156123bd57600080fd5b604052919050565b600067ffffffffffffffff8211156123dc57600080fd5b5060209081020190565b600067ffffffffffffffff8211156123fd57600080fd5b5060200290565b60200190565b90565b5190565b50600290565b50600390565b73ffffffffffffffffffffffffffffffffffffffff1690565b151590565b60006119fa8261241d5600a265627a7a723058203fed0f8187214501203701bb5ec2f7c7659a0f5f18a69a170eac7f12b41a1cfb6c6578706572696d656e74616cf50037a265627a7a72305820dbcb8e786ce3867e8e63cf7b083862b0395aea298deabd900d935f943ed9f6e36c6578706572696d656e74616cf50037",
  "source": "pragma solidity ^0.4.24;\npragma experimental ABIEncoderV2;\n\nimport \"../Ownable.sol\";\nimport \"../MatryxRound.sol\";\nimport \"../../interfaces/IMatryxPlatform.sol\";\nimport \"../../libraries/LibConstruction.sol\";\n\ncontract MatryxRoundFactory is Ownable {\n    address public matryxSubmissionFactoryAddress;\n\n    mapping(bytes32=>address) contracts;\n\n    constructor(address _matryxSubmissionFactoryAddress) public {\n        matryxSubmissionFactoryAddress = _matryxSubmissionFactoryAddress;\n    }\n\n    function createRound(address _platformAddress, address _tournamentAddress, address _owner, LibConstruction.RoundData roundData) public returns (address _roundAddress) {\n        MatryxRound newRound = new MatryxRound(_platformAddress, _tournamentAddress, matryxSubmissionFactoryAddress, _owner, roundData);\n        return newRound;\n    }\n\n    /// @dev Sets an address for a contract the platform should know about.\n    /// @param _nameHash Keccak256 hash of the name of the contract to give an address to.\n    /// @param _contractAddress Address to be assigned for the given contract name.\n    function setContractAddress(bytes32 _nameHash, address _contractAddress) public onlyOwner\n    {\n        contracts[_nameHash] = _contractAddress;\n    }\n\n    /// @dev Gets the address of a contract the platform knows about.\n    /// @param _nameHash Keccak256 hash of the name of the contract to look for.\n    /// @return Address of the contract with the designated name.\n    function getContractAddress(bytes32 _nameHash) public view returns (address contractAddress)\n    {\n        return contracts[_nameHash];\n    }\n}\n",
  "sourcePath": "/Users/maxhoward/Desktop/Ethereum/MatryxPlatform/contracts/factories/MatryxRoundFactory.sol",
  "compiler": {
    "name": "solc",
    "version": "0.4.24+commit.e67f0147.Emscripten.clang"
  },
  "schemaVersion": "2.0.1",
  "updatedAt": "2018-08-01T22:11:57.961Z"
}