{
  "contractName": "MatryxOracleMessenger",
  "abi": [
    {
      "constant": false,
      "inputs": [
        {
          "name": "_queryID",
          "type": "uint256"
        },
        {
          "name": "_response",
          "type": "bytes32"
        }
      ],
      "name": "storeQueryResponse",
      "outputs": [
        {
          "name": "success",
          "type": "bool"
        }
      ],
      "payable": false,
      "stateMutability": "nonpayable",
      "type": "function"
    },
    {
      "constant": true,
      "inputs": [],
      "name": "getOwner",
      "outputs": [
        {
          "name": "_deployer",
          "type": "address"
        }
      ],
      "payable": false,
      "stateMutability": "view",
      "type": "function"
    },
    {
      "constant": false,
      "inputs": [
        {
          "name": "_query",
          "type": "bytes32"
        },
        {
          "name": "_sender",
          "type": "address"
        }
      ],
      "name": "Query",
      "outputs": [],
      "payable": false,
      "stateMutability": "nonpayable",
      "type": "function"
    },
    {
      "inputs": [],
      "payable": false,
      "stateMutability": "nonpayable",
      "type": "constructor"
    },
    {
      "anonymous": false,
      "inputs": [
        {
          "indexed": false,
          "name": "id",
          "type": "uint256"
        },
        {
          "indexed": false,
          "name": "sender",
          "type": "address"
        }
      ],
      "name": "QueryPerformed",
      "type": "event"
    }
  ],
  "bytecode": "0x6060604052341561000f57600080fd5b336000806101000a81548173ffffffffffffffffffffffffffffffffffffffff021916908373ffffffffffffffffffffffffffffffffffffffff1602179055506108558061005e6000396000f300606060405260043610610057576000357c0100000000000000000000000000000000000000000000000000000000900463ffffffff16806308c4fc5f1461005c578063893d20e8146100a4578063d4a01820146100f9575b600080fd5b341561006757600080fd5b61008a60048080359060200190919080356000191690602001909190505061013f565b604051808215151515815260200191505060405180910390f35b34156100af57600080fd5b6100b7610202565b604051808273ffffffffffffffffffffffffffffffffffffffff1673ffffffffffffffffffffffffffffffffffffffff16815260200191505060405180910390f35b341561010457600080fd5b61013d60048080356000191690602001909190803573ffffffffffffffffffffffffffffffffffffffff1690602001909190505061022b565b005b60008060009054906101000a900473ffffffffffffffffffffffffffffffffffffffff1673ffffffffffffffffffffffffffffffffffffffff163373ffffffffffffffffffffffffffffffffffffffff1614151561019c57600080fd5b600060010282600019161180156101cd57506000600102600360008581526020019081526020016000205460001916145b156101f75781600360008581526020019081526020016000208160001916905550600190506101fc565b600090505b92915050565b60008060009054906101000a900473ffffffffffffffffffffffffffffffffffffffff16905090565b6000806000600160008573ffffffffffffffffffffffffffffffffffffffff1673ffffffffffffffffffffffffffffffffffffffff16815260200190815260200160002060009054906101000a900473ffffffffffffffffffffffffffffffffffffffff1673ffffffffffffffffffffffffffffffffffffffff16111561031357600160008473ffffffffffffffffffffffffffffffffffffffff1673ffffffffffffffffffffffffffffffffffffffff16815260200190815260200160002060009054906101000a900473ffffffffffffffffffffffffffffffffffffffff1691506103e9565b8261031c61053a565b808273ffffffffffffffffffffffffffffffffffffffff1673ffffffffffffffffffffffffffffffffffffffff168152602001915050604051809103906000f080151561036857600080fd5b915081600160008573ffffffffffffffffffffffffffffffffffffffff1673ffffffffffffffffffffffffffffffffffffffff16815260200190815260200160002060006101000a81548173ffffffffffffffffffffffffffffffffffffffff021916908373ffffffffffffffffffffffffffffffffffffffff1602179055505b8173ffffffffffffffffffffffffffffffffffffffff1663a3b61a9c856000604051602001526040518263ffffffff167c0100000000000000000000000000000000000000000000000000000000028152600401808260001916600019168152602001915050602060405180830381600087803b151561046857600080fd5b6102c65a03f1151561047957600080fd5b50505060405180519050905080600260008573ffffffffffffffffffffffffffffffffffffffff1673ffffffffffffffffffffffffffffffffffffffff168152602001908152602001600020819055507f1c16af450a72e7153ed6faee28677e32f11936f8ab2e63322d032d1f753b5aea8184604051808381526020018273ffffffffffffffffffffffffffffffffffffffff1673ffffffffffffffffffffffffffffffffffffffff1681526020019250505060405180910390a150505050565b6040516102df8061054b8339019056006060604052341561000f57600080fd5b6040516020806102df83398101604052808051906020019091905050336000806101000a81548173ffffffffffffffffffffffffffffffffffffffff021916908373ffffffffffffffffffffffffffffffffffffffff16021790555080600160006101000a81548173ffffffffffffffffffffffffffffffffffffffff021916908373ffffffffffffffffffffffffffffffffffffffff16021790555050610223806100bc6000396000f30060606040526004361061004c576000357c0100000000000000000000000000000000000000000000000000000000900463ffffffff16806341c0e1b514610051578063a3b61a9c14610066575b600080fd5b341561005c57600080fd5b6100646100a1565b005b341561007157600080fd5b61008b600480803560001916906020019091905050610115565b6040518082815260200191505060405180910390f35b6000809054906101000a900473ffffffffffffffffffffffffffffffffffffffff1673ffffffffffffffffffffffffffffffffffffffff163373ffffffffffffffffffffffffffffffffffffffff161415156100fc57600080fd5b3373ffffffffffffffffffffffffffffffffffffffff16ff5b60008060009054906101000a900473ffffffffffffffffffffffffffffffffffffffff1673ffffffffffffffffffffffffffffffffffffffff163373ffffffffffffffffffffffffffffffffffffffff1614151561017257600080fd5b434283336040518085815260200184815260200183600019166000191681526020018273ffffffffffffffffffffffffffffffffffffffff1673ffffffffffffffffffffffffffffffffffffffff166c0100000000000000000000000002815260140194505050505060405180910390206001900460028190555060025490509190505600a165627a7a72305820710295d2b27ce5df64e78cfeebf8d7e7769856f3826015e384f4761d3efae3800029a165627a7a72305820fcf7c5f12e9a64e4d18cb507dab8344d466bd02aa0e0b3d34dac19145adb50e40029",
  "source": "pragma solidity ^0.4.18;\n\nimport \"./MatryxQueryEncrypter.sol\";\n\n// The actual part to be included in a client contract\ncontract MatryxOracleMessenger {\n\n  // The original deployer of this contract (A Matryx private chain.\n  // It is worth mentioning that neither this oracle nor this address \n  // will exist in the Mainnet version of Matryx. For now however,\n  // Alpha Matryx needs this address and this class to ensure the \n  // initial security of users MTX balances. Our sincere and humbled\n  // apologies. \n  address owner;\n\n  // An event to let our node know that a new query has been performed.\n  event QueryPerformed(uint256 id, address sender);\n\n  // Map from user addresses to MatryxQueryEncrypters. We assume each user only\n  // sends one query at a time.\n  mapping(address => MatryxQueryEncrypter) internal queryEncrypters;\n  // Map from user addresses (queriers) to QueryIDs. We assume each user only\n  // makes one query at a time.\n  mapping(address => uint256) internal fromQuerierToQueryID;\n  // Map from QueryIDs to responses (bytes32s. aka dynamically-sized byte arrays.)\n  mapping(uint256 => bytes32) internal queryResponses;\n\n  // Constructor for the Oracle (owner specified for Alpha Matryx)\n  function MatryxOracleMessenger() public\n  {\n    owner = msg.sender;\n  }\n\n  // Requires that the platform owner (Nanome) is the sender\n  // This is used to verify that we're the only ones acting as an oracle.\n  modifier storerIsPlatformOwner()\n  {\n    require(msg.sender == owner);\n    _;\n  }\n\n  function getOwner() public view returns (address _deployer)\n  {\n    return owner;\n  }\n\n  function latestResponseFromOracle() internal view returns (bytes32 _response)\n  {\n        uint256 queryID = fromQuerierToQueryID[msg.sender];\n        if(queryID <= 0x0)\n        {\n          return 0x0;\n        }\n\n        bytes32 response = queryResponses[queryID];\n        if(response <= 0x0)\n        {\n          return 0x0;\n        }\n        \n        return response;\n  }\n\n  // Uses [the user's existing]/[a new] QueryResolver,\n  // depending on whether or not the user has submitted a query before.\n  // Then, returns the queryID for the user to use in tracking the results\n  // of their query.\n  function Query(bytes32 _query, address _sender) external {\n    MatryxQueryEncrypter encrypter;\n    // If there's already a queryResolver for this user\n    if(address(queryEncrypters[_sender]) > 0x0)\n    {\n        // Use that one.\n        encrypter = queryEncrypters[_sender];\n    }\n    else\n    {\n        // Otherwise, create a new one and assign it.\n        encrypter = new MatryxQueryEncrypter(_sender);\n        queryEncrypters[_sender] = encrypter;\n    }\n\n    // Get the queryID from the QueryResolver.\n    uint256 queryID = encrypter.query(_query);\n    // Store that id under the sender's (querier's) address.\n    fromQuerierToQueryID[_sender] = queryID;\n\n    // Let our Alpha Matryx server know that a query has been performed!\n    QueryPerformed(queryID, _sender);\n  }\n\n  // (Only to be used by MatryxPlatform, TinyOracle and MatryxQueryEncrypter.\n  // This is not a user function.)\n  // This function can be called (successfully) from Nanome's private chain\n  function storeQueryResponse(uint256 _queryID, bytes32 _response) storerIsPlatformOwner public returns (bool success)\n  {\n      // Make sure:\n      // 1) The response is not empty and\n      // 2) There has not yet been a response created for this query\n      if(_response > 0 && queryResponses[_queryID] == 0x0)\n      {\n          // If these conditions hold, we set the response here.\n          queryResponses[_queryID] = _response;\n          return true;\n      }\n      else\n      {\n        // Otherwise, we do nothing with the response,\n        // and return false (unsuccessful storage of response).\n        return false;\n      }\n  }\n}",
  "sourcePath": "/Users/maxhoward/Desktop/Ethereum Development/Matryx AWS/Projects/matryx-alpha-source/contracts/MatryxOracleMessenger.sol",
  "compiler": {
    "name": "solc",
    "version": "0.4.18+commit.9cf6e910.Emscripten.clang"
  },
  "schemaVersion": "1.0.1",
  "updatedAt": "2017-11-22T10:00:55.448Z"
}