{
  "contractName": "MatryxTournament",
  "abi": [
    {
      "constant": true,
      "inputs": [],
      "name": "entryFee",
      "outputs": [
        {
          "name": "",
          "type": "uint256"
        }
      ],
      "payable": false,
      "stateMutability": "view",
      "type": "function"
    },
    {
      "constant": true,
      "inputs": [],
      "name": "matryxTokenAddress",
      "outputs": [
        {
          "name": "",
          "type": "address"
        }
      ],
      "payable": false,
      "stateMutability": "view",
      "type": "function"
    },
    {
      "constant": true,
      "inputs": [
        {
          "name": "_sender",
          "type": "address"
        }
      ],
      "name": "isOwner",
      "outputs": [
        {
          "name": "_isOwner",
          "type": "bool"
        }
      ],
      "payable": false,
      "stateMutability": "view",
      "type": "function"
    },
    {
      "constant": true,
      "inputs": [
        {
          "name": "",
          "type": "uint256"
        }
      ],
      "name": "title",
      "outputs": [
        {
          "name": "",
          "type": "bytes32"
        }
      ],
      "payable": false,
      "stateMutability": "view",
      "type": "function"
    },
    {
      "constant": true,
      "inputs": [],
      "name": "tournamentOpenedTime",
      "outputs": [
        {
          "name": "",
          "type": "uint256"
        }
      ],
      "payable": false,
      "stateMutability": "view",
      "type": "function"
    },
    {
      "constant": true,
      "inputs": [],
      "name": "closed",
      "outputs": [
        {
          "name": "",
          "type": "bool"
        }
      ],
      "payable": false,
      "stateMutability": "view",
      "type": "function"
    },
    {
      "constant": true,
      "inputs": [
        {
          "name": "",
          "type": "uint256"
        }
      ],
      "name": "descriptionHash",
      "outputs": [
        {
          "name": "",
          "type": "bytes32"
        }
      ],
      "payable": false,
      "stateMutability": "view",
      "type": "function"
    },
    {
      "constant": true,
      "inputs": [],
      "name": "matryxRoundFactoryAddress",
      "outputs": [
        {
          "name": "",
          "type": "address"
        }
      ],
      "payable": false,
      "stateMutability": "view",
      "type": "function"
    },
    {
      "constant": true,
      "inputs": [],
      "name": "getOwner",
      "outputs": [
        {
          "name": "_owner",
          "type": "address"
        }
      ],
      "payable": false,
      "stateMutability": "view",
      "type": "function"
    },
    {
      "constant": true,
      "inputs": [
        {
          "name": "",
          "type": "address"
        }
      ],
      "name": "isRound",
      "outputs": [
        {
          "name": "",
          "type": "bool"
        }
      ],
      "payable": false,
      "stateMutability": "view",
      "type": "function"
    },
    {
      "constant": true,
      "inputs": [
        {
          "name": "",
          "type": "uint256"
        }
      ],
      "name": "rounds",
      "outputs": [
        {
          "name": "",
          "type": "address"
        }
      ],
      "payable": false,
      "stateMutability": "view",
      "type": "function"
    },
    {
      "constant": true,
      "inputs": [],
      "name": "owner",
      "outputs": [
        {
          "name": "",
          "type": "address"
        }
      ],
      "payable": false,
      "stateMutability": "view",
      "type": "function"
    },
    {
      "constant": true,
      "inputs": [],
      "name": "bounty",
      "outputs": [
        {
          "name": "",
          "type": "uint256"
        }
      ],
      "payable": false,
      "stateMutability": "view",
      "type": "function"
    },
    {
      "constant": true,
      "inputs": [],
      "name": "categoryHash",
      "outputs": [
        {
          "name": "",
          "type": "bytes32"
        }
      ],
      "payable": false,
      "stateMutability": "view",
      "type": "function"
    },
    {
      "constant": true,
      "inputs": [],
      "name": "platformAddress",
      "outputs": [
        {
          "name": "",
          "type": "address"
        }
      ],
      "payable": false,
      "stateMutability": "view",
      "type": "function"
    },
    {
      "constant": true,
      "inputs": [],
      "name": "category",
      "outputs": [
        {
          "name": "",
          "type": "string"
        }
      ],
      "payable": false,
      "stateMutability": "view",
      "type": "function"
    },
    {
      "constant": true,
      "inputs": [],
      "name": "timeCreated",
      "outputs": [
        {
          "name": "",
          "type": "uint256"
        }
      ],
      "payable": false,
      "stateMutability": "view",
      "type": "function"
    },
    {
      "constant": false,
      "inputs": [
        {
          "name": "newOwner",
          "type": "address"
        }
      ],
      "name": "transferOwnership",
      "outputs": [],
      "payable": false,
      "stateMutability": "nonpayable",
      "type": "function"
    },
    {
      "inputs": [
        {
          "name": "_category",
          "type": "string"
        },
        {
          "components": [
            {
              "name": "categoryHash",
              "type": "bytes32"
            },
            {
              "name": "title_1",
              "type": "bytes32"
            },
            {
              "name": "title_2",
              "type": "bytes32"
            },
            {
              "name": "title_3",
              "type": "bytes32"
            },
            {
              "name": "descriptionHash_1",
              "type": "bytes32"
            },
            {
              "name": "descriptionHash_2",
              "type": "bytes32"
            },
            {
              "name": "bounty",
              "type": "uint256"
            },
            {
              "name": "entryFee",
              "type": "uint256"
            }
          ],
          "name": "tournamentData",
          "type": "tuple"
        },
        {
          "components": [
            {
              "name": "start",
              "type": "uint256"
            },
            {
              "name": "end",
              "type": "uint256"
            },
            {
              "name": "reviewDuration",
              "type": "uint256"
            },
            {
              "name": "bounty",
              "type": "uint256"
            }
          ],
          "name": "roundData",
          "type": "tuple"
        },
        {
          "name": "_platformAddress",
          "type": "address"
        },
        {
          "name": "_matryxTokenAddress",
          "type": "address"
        },
        {
          "name": "_matryxRoundFactoryAddress",
          "type": "address"
        },
        {
          "name": "_owner",
          "type": "address"
        }
      ],
      "payable": false,
      "stateMutability": "nonpayable",
      "type": "constructor"
    },
    {
      "anonymous": false,
      "inputs": [
        {
          "indexed": false,
          "name": "_startTime",
          "type": "uint256"
        },
        {
          "indexed": false,
          "name": "_endTime",
          "type": "uint256"
        },
        {
          "indexed": false,
          "name": "_reviewDuration",
          "type": "uint256"
        },
        {
          "indexed": false,
          "name": "_roundAddress",
          "type": "address"
        },
        {
          "indexed": false,
          "name": "_roundNumber",
          "type": "uint256"
        }
      ],
      "name": "NewRound",
      "type": "event"
    },
    {
      "anonymous": false,
      "inputs": [
        {
          "indexed": false,
          "name": "_roundIndex",
          "type": "uint256"
        },
        {
          "indexed": false,
          "name": "_submissionAddress",
          "type": "address"
        }
      ],
      "name": "SubmissionCreated",
      "type": "event"
    },
    {
      "anonymous": false,
      "inputs": [
        {
          "indexed": false,
          "name": "_submissionAddresses",
          "type": "address[]"
        }
      ],
      "name": "RoundWinnersChosen",
      "type": "event"
    },
    {
      "constant": false,
      "inputs": [
        {
          "name": "_submissionAddress",
          "type": "address"
        }
      ],
      "name": "invokeSubmissionCreatedEvent",
      "outputs": [],
      "payable": false,
      "stateMutability": "nonpayable",
      "type": "function"
    },
    {
      "constant": false,
      "inputs": [
        {
          "name": "_submissionAddress",
          "type": "address"
        },
        {
          "name": "_author",
          "type": "address"
        }
      ],
      "name": "removeSubmission",
      "outputs": [
        {
          "name": "",
          "type": "bool"
        }
      ],
      "payable": false,
      "stateMutability": "nonpayable",
      "type": "function"
    },
    {
      "constant": true,
      "inputs": [
        {
          "name": "_sender",
          "type": "address"
        }
      ],
      "name": "isEntrant",
      "outputs": [
        {
          "name": "",
          "type": "bool"
        }
      ],
      "payable": false,
      "stateMutability": "view",
      "type": "function"
    },
    {
      "constant": true,
      "inputs": [],
      "name": "getState",
      "outputs": [
        {
          "name": "",
          "type": "uint256"
        }
      ],
      "payable": false,
      "stateMutability": "view",
      "type": "function"
    },
    {
      "constant": true,
      "inputs": [],
      "name": "getPlatform",
      "outputs": [
        {
          "name": "_platformAddress",
          "type": "address"
        }
      ],
      "payable": false,
      "stateMutability": "view",
      "type": "function"
    },
    {
      "constant": true,
      "inputs": [],
      "name": "getTitle",
      "outputs": [
        {
          "name": "_title",
          "type": "bytes32[3]"
        }
      ],
      "payable": false,
      "stateMutability": "view",
      "type": "function"
    },
    {
      "constant": true,
      "inputs": [],
      "name": "getCategory",
      "outputs": [
        {
          "name": "_category",
          "type": "string"
        }
      ],
      "payable": false,
      "stateMutability": "view",
      "type": "function"
    },
    {
      "constant": true,
      "inputs": [],
      "name": "getDescriptionHash",
      "outputs": [
        {
          "name": "_descriptionHash",
          "type": "bytes32[2]"
        }
      ],
      "payable": false,
      "stateMutability": "view",
      "type": "function"
    },
    {
      "constant": true,
      "inputs": [],
      "name": "currentRound",
      "outputs": [
        {
          "name": "_currentRound",
          "type": "uint256"
        },
        {
          "name": "_currentRoundAddress",
          "type": "address"
        }
      ],
      "payable": false,
      "stateMutability": "view",
      "type": "function"
    },
    {
      "constant": true,
      "inputs": [],
      "name": "mySubmissions",
      "outputs": [
        {
          "name": "",
          "type": "address[]"
        }
      ],
      "payable": false,
      "stateMutability": "view",
      "type": "function"
    },
    {
      "constant": true,
      "inputs": [],
      "name": "submissionCount",
      "outputs": [
        {
          "name": "_submissionCount",
          "type": "uint256"
        }
      ],
      "payable": false,
      "stateMutability": "view",
      "type": "function"
    },
    {
      "constant": true,
      "inputs": [],
      "name": "entrantCount",
      "outputs": [
        {
          "name": "_entrantCount",
          "type": "uint256"
        }
      ],
      "payable": false,
      "stateMutability": "view",
      "type": "function"
    },
    {
      "constant": false,
      "inputs": [
        {
          "components": [
            {
              "name": "categoryHash",
              "type": "bytes32"
            },
            {
              "name": "title_1",
              "type": "bytes32"
            },
            {
              "name": "title_2",
              "type": "bytes32"
            },
            {
              "name": "title_3",
              "type": "bytes32"
            },
            {
              "name": "descriptionHash_1",
              "type": "bytes32"
            },
            {
              "name": "descriptionHash_2",
              "type": "bytes32"
            },
            {
              "name": "entryFee",
              "type": "uint256"
            },
            {
              "name": "entryFeeChanged",
              "type": "bool"
            }
          ],
          "name": "tournamentData",
          "type": "tuple"
        }
      ],
      "name": "update",
      "outputs": [],
      "payable": false,
      "stateMutability": "nonpayable",
      "type": "function"
    },
    {
      "constant": false,
      "inputs": [
        {
          "name": "_title",
          "type": "bytes32[3]"
        }
      ],
      "name": "updateTitle",
      "outputs": [],
      "payable": false,
      "stateMutability": "nonpayable",
      "type": "function"
    },
    {
      "constant": false,
      "inputs": [
        {
          "name": "_descriptionHash",
          "type": "bytes32[2]"
        }
      ],
      "name": "updateDescriptionHash",
      "outputs": [],
      "payable": false,
      "stateMutability": "nonpayable",
      "type": "function"
    },
    {
      "constant": false,
      "inputs": [
        {
          "name": "_entryFee",
          "type": "uint256"
        }
      ],
      "name": "updateEntryFee",
      "outputs": [],
      "payable": false,
      "stateMutability": "nonpayable",
      "type": "function"
    },
    {
      "constant": false,
      "inputs": [
        {
          "name": "_category",
          "type": "string"
        }
      ],
      "name": "updateCategory",
      "outputs": [],
      "payable": false,
      "stateMutability": "nonpayable",
      "type": "function"
    },
    {
      "constant": false,
      "inputs": [
        {
          "name": "_submissionAddresses",
          "type": "address[]"
        },
        {
          "name": "_rewardDistribution",
          "type": "uint256[]"
        }
      ],
      "name": "selectWinners",
      "outputs": [],
      "payable": false,
      "stateMutability": "nonpayable",
      "type": "function"
    },
    {
      "constant": false,
      "inputs": [
        {
          "components": [
            {
              "name": "start",
              "type": "uint256"
            },
            {
              "name": "end",
              "type": "uint256"
            },
            {
              "name": "reviewDuration",
              "type": "uint256"
            },
            {
              "name": "bounty",
              "type": "uint256"
            }
          ],
          "name": "roundData",
          "type": "tuple"
        },
        {
          "name": "_closeTournament",
          "type": "bool"
        },
        {
          "name": "_closeRound",
          "type": "bool"
        }
      ],
      "name": "endReviewPeriod",
      "outputs": [],
      "payable": false,
      "stateMutability": "nonpayable",
      "type": "function"
    },
    {
      "constant": false,
      "inputs": [
        {
          "components": [
            {
              "name": "start",
              "type": "uint256"
            },
            {
              "name": "end",
              "type": "uint256"
            },
            {
              "name": "reviewDuration",
              "type": "uint256"
            },
            {
              "name": "bounty",
              "type": "uint256"
            }
          ],
          "name": "roundData",
          "type": "tuple"
        }
      ],
      "name": "nextRound",
      "outputs": [],
      "payable": false,
      "stateMutability": "nonpayable",
      "type": "function"
    },
    {
      "constant": false,
      "inputs": [
        {
          "components": [
            {
              "name": "start",
              "type": "uint256"
            },
            {
              "name": "end",
              "type": "uint256"
            },
            {
              "name": "reviewDuration",
              "type": "uint256"
            },
            {
              "name": "bounty",
              "type": "uint256"
            }
          ],
          "name": "roundData",
          "type": "tuple"
        },
        {
          "name": "_automaticCreation",
          "type": "bool"
        }
      ],
      "name": "createRound",
      "outputs": [
        {
          "name": "_roundAddress",
          "type": "address"
        }
      ],
      "payable": false,
      "stateMutability": "nonpayable",
      "type": "function"
    },
    {
      "constant": false,
      "inputs": [
        {
          "name": "_roundIndex",
          "type": "uint256"
        },
        {
          "name": "_bountyMTX",
          "type": "uint256"
        }
      ],
      "name": "sendBountyToRound",
      "outputs": [],
      "payable": false,
      "stateMutability": "nonpayable",
      "type": "function"
    },
    {
      "constant": true,
      "inputs": [],
      "name": "remainingBounty",
      "outputs": [
        {
          "name": "",
          "type": "uint256"
        }
      ],
      "payable": false,
      "stateMutability": "view",
      "type": "function"
    },
    {
      "constant": false,
      "inputs": [
        {
          "name": "_entrantAddress",
          "type": "address"
        }
      ],
      "name": "enterUserInTournament",
      "outputs": [
        {
          "name": "_success",
          "type": "bool"
        }
      ],
      "payable": false,
      "stateMutability": "nonpayable",
      "type": "function"
    },
    {
      "constant": true,
      "inputs": [],
      "name": "getEntryFee",
      "outputs": [
        {
          "name": "",
          "type": "uint256"
        }
      ],
      "payable": false,
      "stateMutability": "view",
      "type": "function"
    },
    {
      "constant": false,
      "inputs": [
        {
          "name": "_contributors",
          "type": "address[]"
        },
        {
          "name": "_contributorRewardDistribution",
          "type": "uint128[]"
        },
        {
          "name": "_references",
          "type": "address[]"
        },
        {
          "components": [
            {
              "name": "title",
              "type": "string"
            },
            {
              "name": "owner",
              "type": "address"
            },
            {
              "name": "contentHash",
              "type": "bytes"
            },
            {
              "name": "isPublic",
              "type": "bool"
            }
          ],
          "name": "submissionData",
          "type": "tuple"
        }
      ],
      "name": "createSubmission",
      "outputs": [
        {
          "name": "_submissionAddress",
          "type": "address"
        }
      ],
      "payable": false,
      "stateMutability": "nonpayable",
      "type": "function"
    },
    {
      "constant": false,
      "inputs": [],
      "name": "withdraw",
      "outputs": [],
      "payable": false,
      "stateMutability": "nonpayable",
      "type": "function"
    },
    {
      "constant": false,
      "inputs": [],
      "name": "pullRemainingBountyIntoRound",
      "outputs": [],
      "payable": false,
      "stateMutability": "nonpayable",
      "type": "function"
    }
  ],
  "bytecode": "0x608060405260006014553480156200001657600080fd5b50604051620042273803806200422783398101806040526200003c919081019062000696565b6000805460018054600160a060020a03888116600160a060020a031992831617909255600280548884169083161790556003805487841690831617905542600b5590841691811633171617905585516009558651620000a390600a9060208a0190620003cc565b50602086015160045560408601516005556060860151600655608086015160075560a086015160085560c086015160105560e0860151601155620000f285600064010000000062000100810204565b505050505050505062000983565b336000908152600e60205260408120548190819060ff16806200012257503033145b15156200012e57600080fd5b8451421180159062000144575060208501518551105b151562000188576040517f08c379a00000000000000000000000000000000000000000000000000000000081526004016200017f9062000883565b60405180910390fd5b600354600160a060020a03169150831515620001b0576060850151600010620001b057600080fd5b600154600d546040517faf1237af000000000000000000000000000000000000000000000000000000008152600160a060020a038581169363af1237af9362000207939290911691309133918c906004016200080d565b602060405180830381600087803b1580156200022257600080fd5b505af115801562000237573d6000803e3d6000fd5b505050506040513d601f19601f820116820180604052506200025d91908101906200064c565b600d5490915015620003125760025460608601516040517fa9059cbb000000000000000000000000000000000000000000000000000000008152600160a060020a039092169163a9059cbb91620002ba9185919060040162000864565b602060405180830381600087803b158015620002d557600080fd5b505af1158015620002ea573d6000803e3d6000fd5b505050506040513d601f19601f8201168201806040525062000310919081019062000675565b505b600d8054600180820183557fd7b6990105719101dabeb77144f2a3385c8033acd3af97e9423a695e81ad1eb59091018054600160a060020a031916600160a060020a0385169081179091556000908152600e6020908152604091829020805460ff191690931790925587519188015188820151935491517f7d3cfca05a07773179cf217e8ffc51764c3dce48e826d85feb2b280f7674eeef94620003bc949390918791906200089b565b60405180910390a1949350505050565b828054600181600116156101000203166002900490600052602060002090601f016020900481019282601f106200040f57805160ff19168380011785556200043f565b828001600101855582156200043f579182015b828111156200043f57825182559160200191906001019062000422565b506200044d92915062000451565b5090565b6200046e91905b808211156200044d576000815560010162000458565b90565b60006200047f825162000936565b9392505050565b60006200047f825162000942565b60006200047f82516200046e565b6000601f82018313620004b457600080fd5b8151620004cb620004c5826200090e565b620008e7565b91508082526020830160208301858383011115620004e857600080fd5b620004f583828462000954565b50505092915050565b6000608082840312156200051157600080fd5b6200051d6080620008e7565b905060006200052d848462000494565b8252506020620005408484830162000494565b6020830152506040620005568482850162000494565b60408301525060606200056c8482850162000494565b60608301525092915050565b600061010082840312156200058c57600080fd5b62000599610100620008e7565b90506000620005a9848462000494565b8252506020620005bc8484830162000494565b6020830152506040620005d28482850162000494565b6040830152506060620005e88482850162000494565b6060830152506080620005fe8482850162000494565b60808301525060a0620006148482850162000494565b60a08301525060c06200062a8482850162000494565b60c08301525060e0620006408482850162000494565b60e08301525092915050565b6000602082840312156200065f57600080fd5b60006200066d848462000471565b949350505050565b6000602082840312156200068857600080fd5b60006200066d848462000486565b6000806000806000806000610220888a031215620006b357600080fd5b87516001604060020a03811115620006ca57600080fd5b620006d88a828b01620004a2565b9750506020620006eb8a828b0162000578565b965050610120620006ff8a828b01620004fe565b9550506101a0620007138a828b0162000471565b9450506101c0620007278a828b0162000471565b9350506101e06200073b8a828b0162000471565b9250506102006200074f8a828b0162000471565b91505092959891949750929550565b620007698162000936565b82525050565b620007698162000947565b601c81527f54696d6520706172616d65746572732061726520696e76616c69642e00000000602082015260400190565b80516080830190620007bd848262000802565b506020820151620007d2602085018262000802565b506040820151620007e7604085018262000802565b506060820151620007fc606085018262000802565b50505050565b62000769816200046e565b61010081016200081e82886200075e565b6200082d60208301876200076f565b6200083c60408301866200075e565b6200084b606083018562000802565b6200085a6080830184620007aa565b9695505050505050565b604081016200087482856200075e565b6200047f602083018462000802565b6020808252810162000895816200077a565b92915050565b60a08101620008ab828862000802565b620008ba602083018762000802565b620008c9604083018662000802565b620008d860608301856200075e565b6200085a608083018462000802565b6040518181016001604060020a03811182821017156200090657600080fd5b604052919050565b60006001604060020a038211156200092557600080fd5b506020601f91909101601f19160190565b600160a060020a031690565b151590565b6000620008958262000936565b60005b838110156200097157818101518382015260200162000957565b83811115620007fc5750506000910152565b61389480620009936000396000f30060806040526004361061022f5763ffffffff7c0100000000000000000000000000000000000000000000000000000000600035041663072ea61c81146102345780630befb0a51461025f57806315dc132e146102745780631865c57d146102a157806323721e24146102b6578063245edf06146102d857806324d9a0d9146102fa57806326b3a1761461031a57806328d576d71461032f57806329cc545e1461035c5780632f54bf6e146103715780632fc1f1901461039157806335a1223a146103a65780633809eba2146103c65780633ccfd60b146103e6578063447411f3146103fb5780634644c51b14610410578063509007171461043057806352c01fab14610450578063597e1fb5146104705780635ce7a46a146104855780636ec02be9146104a55780636fe56420146104ba578063785fcb09146104cf57806380258e47146104ef578063893d20e81461051157806389f3beb6146105265780638a19c8bc1461053b5780638c1fc0bb1461055e5780638c65c81f1461057e5780638da5cb5b1461059e578063943dfef1146105b3578063a968c4b9146105c8578063aa182626146105e8578063c0bb3b6014610608578063c81282a61461061d578063c964c0bb1461063d578063d83717e11461065d578063dbe55e561461067d578063e139a20c14610692578063e586a4f0146106b4578063ef430aa6146106c9578063f1653f6e146106de578063f2fde38b146106f3578063fc116acd14610713578063ff3c1a8f14610733575b600080fd5b34801561024057600080fd5b50610249610755565b604051610256919061367b565b60405180910390f35b34801561026b57600080fd5b5061024961075b565b34801561028057600080fd5b5061029461028f366004612e46565b61080a565b604051610256919061348e565b3480156102ad57600080fd5b50610249610db0565b3480156102c257600080fd5b506102d66102d136600461311f565b610f27565b005b3480156102e457600080fd5b506102ed61102f565b6040516102569190613651565b34801561030657600080fd5b506102d6610315366004612f65565b61106a565b34801561032657600080fd5b506102d661109f565b34801561033b57600080fd5b5061034f61034a366004612dc8565b611172565b604051610256919061366d565b34801561036857600080fd5b50610294611284565b34801561037d57600080fd5b5061034f61038c366004612dc8565b6112a0565b34801561039d57600080fd5b506102946112c1565b3480156103b257600080fd5b506102496103c13660046130e3565b6112dd565b3480156103d257600080fd5b506102946103e1366004613047565b6112f1565b3480156103f257600080fd5b506102d66115f2565b34801561040757600080fd5b506102496119b9565b34801561041c57600080fd5b506102d661042b366004612dc8565b6119bf565b34801561043c57600080fd5b506102d661044b366004613077565b611a21565b34801561045c57600080fd5b5061034f61046b366004612dc8565b611b27565b34801561047c57600080fd5b5061034f611b52565b34801561049157600080fd5b506102496104a03660046130e3565b611b5b565b3480156104b157600080fd5b50610249611b68565b3480156104c657600080fd5b50610294611b6e565b3480156104db57600080fd5b506102d66104ea366004612f06565b611b8a565b3480156104fb57600080fd5b50610504611d64565b6040516102569190613697565b34801561051d57600080fd5b50610294611e13565b34801561053257600080fd5b50610249611e2f565b34801561054757600080fd5b50610550611e35565b6040516102569291906136d8565b34801561056a57600080fd5b5061034f610579366004612dc8565b611f93565b34801561058a57600080fd5b506102946105993660046130e3565b611fa8565b3480156105aa57600080fd5b50610294611fdd565b3480156105bf57600080fd5b50610249611ff9565b3480156105d457600080fd5b5061034f6105e3366004612e0c565b611fff565b3480156105f457600080fd5b506102d66106033660046130e3565b612140565b34801561061457600080fd5b50610249612169565b34801561062957600080fd5b506102d66106383660046130c4565b61216f565b34801561064957600080fd5b506102d6610658366004613029565b6121c0565b34801561066957600080fd5b506102d6610678366004612f83565b6122c4565b34801561068957600080fd5b506102946122f5565b34801561069e57600080fd5b506106a7612311565b60405161025691906135b6565b3480156106c057600080fd5b50610249612393565b3480156106d557600080fd5b50610504612399565b3480156106ea57600080fd5b50610249612427565b3480156106ff57600080fd5b506102d661070e366004612dc8565b61242d565b34801561071f57600080fd5b506102d661072e366004612fbf565b6124ba565b34801561073f57600080fd5b506107486124de565b604051610256919061365f565b60115481565b6002546040517f70a0823100000000000000000000000000000000000000000000000000000000815260009173ffffffffffffffffffffffffffffffffffffffff16906370a08231906107b2903090600401613689565b602060405180830381600087803b1580156107cc57600080fd5b505af11580156107e0573d6000803e3d6000fd5b505050506040513d601f19601f820116820180604052506108049190810190613101565b90505b90565b3360009081526017602052604081205481908190819060ff1680151561082f57600080fd5b6001546040517f532311c4000000000000000000000000000000000000000000000000000000008152339173ffffffffffffffffffffffffffffffffffffffff1690819063532311c49061088790859060040161348e565b602060405180830381600087803b1580156108a157600080fd5b505af11580156108b5573d6000803e3d6000fd5b505050506040513d601f19601f820116820180604052506108d99190810190612fa1565b15156108e457600080fd5b60006108ee611e35565b9150600190508173ffffffffffffffffffffffffffffffffffffffff16631865c57d6040518163ffffffff167c0100000000000000000000000000000000000000000000000000000000028152600401602060405180830381600087803b15801561095857600080fd5b505af115801561096c573d6000803e3d6000fd5b505050506040513d601f19601f820116820180604052506109909190810190613101565b141561099b57600080fd5b60026109a5610db0565b146109af57600080fd5b60015460208a01516040517f6a44e43d00000000000000000000000000000000000000000000000000000000815273ffffffffffffffffffffffffffffffffffffffff90921691636a44e43d91610a089160040161348e565b602060405180830381600087803b158015610a2257600080fd5b505af1158015610a36573d6000803e3d6000fd5b505050506040513d601f19601f82011682018060405250610a5a9190810190612dee565b9650610a64611e35565b9650508573ffffffffffffffffffffffffffffffffffffffff16638734fe4c8d8d8d8b8e6040518663ffffffff167c0100000000000000000000000000000000000000000000000000000000028152600401610ac49594939291906135c7565b602060405180830381600087803b158015610ade57600080fd5b505af1158015610af2573d6000803e3d6000fd5b505050506040513d601f19601f82011682018060405250610b169190810190612dee565b6001546040517f8c593a8c00000000000000000000000000000000000000000000000000000000815291965073ffffffffffffffffffffffffffffffffffffffff1690638c593a8c90610b6f9088908e906004016134b7565b602060405180830381600087803b158015610b8957600080fd5b505af1158015610b9d573d6000803e3d6000fd5b505050506040513d601f19601f82011682018060405250610bc19190810190612fa1565b506014541515610c7357600154600054600480546005546006546007546008546010546011546040517fa923251e00000000000000000000000000000000000000000000000000000000815273ffffffffffffffffffffffffffffffffffffffff9a8b169a63a923251e9a610c409a91169897969594939291016134d7565b600060405180830381600087803b158015610c5a57600080fd5b505af1158015610c6e573d6000803e3d6000fd5b505050505b601454610c8790600163ffffffff61251416565b60145560408051808201825260018082523360008181526015602081815286832080548288019081528585526016835288852073ffffffffffffffffffffffffffffffffffffffff8f81168088529185528a872099518a5460ff1916901515178a5591519888019890985592825280548087018255908452922090910180547fffffffffffffffffffffffff000000000000000000000000000000000000000016909417909355905492517fab9583d9000000000000000000000000000000000000000000000000000000008152929091169163ab9583d991610d6e91899060040161349c565b600060405180830381600087803b158015610d8857600080fd5b505af1158015610d9c573d6000803e3d6000fd5b50969e9d5050505050505050505050505050565b600080600080610dbe611e35565b600f54919450925060ff1615610dd85760035b9350610f21565b6000831115610f1c578173ffffffffffffffffffffffffffffffffffffffff16631865c57d6040518163ffffffff167c0100000000000000000000000000000000000000000000000000000000028152600401602060405180830381600087803b158015610e4557600080fd5b505af1158015610e59573d6000803e3d6000fd5b505050506040513d601f19601f82011682018060405250610e7d9190810190613101565b905060018314610edd576001811480610e965750600281145b80610ea15750600381145b80610eac5750600481145b15610eb8576002610dd1565b801515610ec6576001610dd1565b6005811415610ed6576003610dd1565b6004610dd1565b801515610eeb576000610dd1565b6001811480610efa5750600281145b80610f055750600381145b80610f105750600481145b15610ec6576002610dd1565b600093505b50505090565b60015473ffffffffffffffffffffffffffffffffffffffff163314610f4b57600080fd5b600254600d805473ffffffffffffffffffffffffffffffffffffffff9092169163a9059cbb919085908110610f7c57fe5b6000918252602090912001546040517c010000000000000000000000000000000000000000000000000000000063ffffffff8416028152610fd89173ffffffffffffffffffffffffffffffffffffffff1690859060040161359b565b602060405180830381600087803b158015610ff257600080fd5b505af1158015611006573d6000803e3d6000fd5b505050506040513d601f19601f8201168201806040525061102a9190810190612fa1565b505050565b61103761283d565b60408051808201918290529060079060029082845b8154815260019091019060200180831161104c575050505050905090565b60005473ffffffffffffffffffffffffffffffffffffffff16331461108e57600080fd5b61109b6007826002612858565b5050565b336000908152600e602052604090205460ff1615156110bd57600080fd5b60025473ffffffffffffffffffffffffffffffffffffffff1663a9059cbb336110e461075b565b6040518363ffffffff167c010000000000000000000000000000000000000000000000000000000002815260040161111d92919061359b565b602060405180830381600087803b15801561113757600080fd5b505af115801561114b573d6000803e3d6000fd5b505050506040513d601f19601f8201168201806040525061116f9190810190612fa1565b50565b60015460009073ffffffffffffffffffffffffffffffffffffffff16331461119957600080fd5b60026111a3610db0565b146111ad57600080fd5b73ffffffffffffffffffffffffffffffffffffffff821660009081526017602052604090205460ff161515600114156111e85750600061127f565b5073ffffffffffffffffffffffffffffffffffffffff81166000818152601760205260408120805460ff1916600190811782556011549181019190915560188054808301825592527fb13d2d76d1f4b7be834882e410b3e3a8afaf69f83600ae24db354391d2378d2e90910180547fffffffffffffffffffffffff0000000000000000000000000000000000000000169092179091555b919050565b60025473ffffffffffffffffffffffffffffffffffffffff1681565b60005473ffffffffffffffffffffffffffffffffffffffff91821691161490565b60015473ffffffffffffffffffffffffffffffffffffffff1690565b600481600381106112ea57fe5b0154905081565b336000908152600e60205260408120548190819060ff168061131257503033145b151561131d57600080fd5b84514211801590611332575060208501518551105b1515611373576040517f08c379a000000000000000000000000000000000000000000000000000000000815260040161136a906136c8565b60405180910390fd5b60035473ffffffffffffffffffffffffffffffffffffffff1691508315156113a65760608501516000106113a657600080fd5b600154600d546040517faf1237af00000000000000000000000000000000000000000000000000000000815273ffffffffffffffffffffffffffffffffffffffff8581169363af1237af93611408939290911691309133918c9060040161354e565b602060405180830381600087803b15801561142257600080fd5b505af1158015611436573d6000803e3d6000fd5b505050506040513d601f19601f8201168201806040525061145a9190810190612dee565b600d54909150156115155760025460608601516040517fa9059cbb00000000000000000000000000000000000000000000000000000000815273ffffffffffffffffffffffffffffffffffffffff9092169163a9059cbb916114c19185919060040161359b565b602060405180830381600087803b1580156114db57600080fd5b505af11580156114ef573d6000803e3d6000fd5b505050506040513d601f19601f820116820180604052506115139190810190612fa1565b505b600d8054600180820183557fd7b6990105719101dabeb77144f2a3385c8033acd3af97e9423a695e81ad1eb590910180547fffffffffffffffffffffffff00000000000000000000000000000000000000001673ffffffffffffffffffffffffffffffffffffffff85169081179091556000908152600e6020908152604091829020805460ff191690931790925587519188015188820151935491517f7d3cfca05a07773179cf217e8ffc51764c3dce48e826d85feb2b280f7674eeef946115e2949390918791906136f4565b60405180910390a1949350505050565b33600090815260176020526040812054819060ff1680151561161357600080fd5b600461161d610db0565b14611654576040517f08c379a000000000000000000000000000000000000000000000000000000000815260040161136a906136b8565b3360009081526013602052604090205460ff161561167157600080fd5b611679611e35565b6018546002546040517f70a082310000000000000000000000000000000000000000000000000000000081529296509094506000925073ffffffffffffffffffffffffffffffffffffffff16906370a08231906116da90879060040161348e565b602060405180830381600087803b1580156116f457600080fd5b505af1158015611708573d6000803e3d6000fd5b505050506040513d601f19601f8201168201806040525061172c9190810190613101565b1115611891578273ffffffffffffffffffffffffffffffffffffffff166307417cf16040518163ffffffff167c0100000000000000000000000000000000000000000000000000000000028152600401600060405180830381600087803b15801561179657600080fd5b505af11580156117aa573d6000803e3d6000fd5b50506002805460105473ffffffffffffffffffffffffffffffffffffffff909116935063a9059cbb925033916117f6916117ea908863ffffffff61252a16565b9063ffffffff61254116565b6040518363ffffffff167c010000000000000000000000000000000000000000000000000000000002815260040161182f92919061359b565b602060405180830381600087803b15801561184957600080fd5b505af115801561185d573d6000803e3d6000fd5b505050506040513d601f19601f820116820180604052506118819190810190612fa1565b151561188c57600080fd5b61199a565b60025460105473ffffffffffffffffffffffffffffffffffffffff9091169063a9059cbb903390611904906000198701906118f890889082907ffffffffffffffffffffffffffffffffffffffffffffffffffffffffffffffffe830163ffffffff61254116565b9063ffffffff61252a16565b6040518363ffffffff167c010000000000000000000000000000000000000000000000000000000002815260040161193d92919061359b565b602060405180830381600087803b15801561195757600080fd5b505af115801561196b573d6000803e3d6000fd5b505050506040513d601f19601f8201168201806040525061198f9190810190612fa1565b151561199a57600080fd5b5050336000908152601360205260409020805460ff1916600117905550565b600c5481565b336000908152600e602052604090205460ff1615156119dd57600080fd5b7f5fbb3d346317d5ecdb86412d4c69c7503ff4dbed1eccd4cb6290453ea0b1a3226001600d805490500382604051611a169291906136d8565b60405180910390a150565b60008054819073ffffffffffffffffffffffffffffffffffffffff163314611a4857600080fd5b611a50611e35565b9250508173ffffffffffffffffffffffffffffffffffffffff16631865c57d6040518163ffffffff167c0100000000000000000000000000000000000000000000000000000000028152600401602060405180830381600087803b158015611ab757600080fd5b505af1158015611acb573d6000803e3d6000fd5b505050506040513d601f19601f82011682018060405250611aef9190810190613101565b905060048114611afe57600080fd5b8315611b1157611b0c612565565b611b20565b8215611b2057611b20856121c0565b5050505050565b73ffffffffffffffffffffffffffffffffffffffff1660009081526017602052604090205460ff1690565b600f5460ff1681565b600781600281106112ea57fe5b60145490565b60035473ffffffffffffffffffffffffffffffffffffffff1681565b60008054819073ffffffffffffffffffffffffffffffffffffffff163314611bb157600080fd5b611bb9611e35565b9250508173ffffffffffffffffffffffffffffffffffffffff16631865c57d6040518163ffffffff167c0100000000000000000000000000000000000000000000000000000000028152600401602060405180830381600087803b158015611c2057600080fd5b505af1158015611c34573d6000803e3d6000fd5b505050506040513d601f19601f82011682018060405250611c589190810190613101565b90506003811480611c695750600481145b1515611ca1576040517f08c379a000000000000000000000000000000000000000000000000000000000815260040161136a906136a8565b7f5ec9914f46ca24eeb7222e98b6f699b769ab33c1d88072c0651eb9bb19478ad584604051611cd091906135b6565b60405180910390a16040517f14e6270400000000000000000000000000000000000000000000000000000000815273ffffffffffffffffffffffffffffffffffffffff8316906314e6270490611d2c908790879060040161362c565b600060405180830381600087803b158015611d4657600080fd5b505af1158015611d5a573d6000803e3d6000fd5b5050505050505050565b6001546009546040517f8d1d498c00000000000000000000000000000000000000000000000000000000815260609273ffffffffffffffffffffffffffffffffffffffff1691638d1d498c91611dbd919060040161367b565b600060405180830381600087803b158015611dd757600080fd5b505af1158015611deb573d6000803e3d6000fd5b505050506040513d6000823e601f3d908101601f191682016040526108049190810190612ff4565b60005473ffffffffffffffffffffffffffffffffffffffff1690565b60185490565b600d805460009182916000198101908110611e4c57fe5b9060005260206000200160009054906101000a900473ffffffffffffffffffffffffffffffffffffffff1673ffffffffffffffffffffffffffffffffffffffff1663c828371e6040518163ffffffff167c0100000000000000000000000000000000000000000000000000000000028152600401602060405180830381600087803b158015611eda57600080fd5b505af1158015611eee573d6000803e3d6000fd5b505050506040513d601f19601f82011682018060405250611f129190810190613101565b421015611f7c57600d8054600019810191907ffffffffffffffffffffffffffffffffffffffffffffffffffffffffffffffffe8101908110611f5057fe5b60009182526020909120015490925073ffffffffffffffffffffffffffffffffffffffff169050611f8f565b600d8054906000198201828110611f5057fe5b9091565b600e6020526000908152604090205460ff1681565b600d805482908110611fb657fe5b60009182526020909120015473ffffffffffffffffffffffffffffffffffffffff16905081565b60005473ffffffffffffffffffffffffffffffffffffffff1681565b60105481565b60015460009073ffffffffffffffffffffffffffffffffffffffff16331461202657600080fd5b73ffffffffffffffffffffffffffffffffffffffff80831660009081526016602090815260408083209387168352929052205460ff16151561206757600080fd5b60145461207b90600163ffffffff61282b16565b60145573ffffffffffffffffffffffffffffffffffffffff808316600090815260156020908152604080832060168352818420948816845293909152902060010154815481106120c757fe5b6000918252602080832090910180547fffffffffffffffffffffffff000000000000000000000000000000000000000016905573ffffffffffffffffffffffffffffffffffffffff8481168352601682526040808420918716845291528120805460ff1916815560019081019190915590505b92915050565b60005473ffffffffffffffffffffffffffffffffffffffff16331461216457600080fd5b601155565b60095481565b602081015115612192576020810151600455604081015160055560608101516006555b6080810151156121ad57608081015160075560a08101516008555b8060e001511561116f5760c00151601155565b6000806121cb611e35565b9250508173ffffffffffffffffffffffffffffffffffffffff16631865c57d6040518163ffffffff167c0100000000000000000000000000000000000000000000000000000000028152600401602060405180830381600087803b15801561223257600080fd5b505af1158015612246573d6000803e3d6000fd5b505050506040513d601f19601f8201168201806040525061226a9190810190613101565b9050600381148061227b5750600481145b15156122b3576040517f08c379a000000000000000000000000000000000000000000000000000000000815260040161136a906136a8565b6122be8360006112f1565b50505050565b60005473ffffffffffffffffffffffffffffffffffffffff1633146122e857600080fd5b61109b6004826003612894565b60015473ffffffffffffffffffffffffffffffffffffffff1681565b33600090815260156020908152604091829020805483518184028101840190945280845260609384939092919083018282801561238457602002820191906000526020600020905b815473ffffffffffffffffffffffffffffffffffffffff168152600190910190602001808311612359575b505050505090508091505b5090565b60115490565b600a805460408051602060026001851615610100026000190190941693909304601f8101849004840282018401909252818152929183018282801561241f5780601f106123f45761010080835404028352916020019161241f565b820191906000526020600020905b81548152906001019060200180831161240257829003601f168201915b505050505081565b600b5481565b60005473ffffffffffffffffffffffffffffffffffffffff16331461245157600080fd5b73ffffffffffffffffffffffffffffffffffffffff8116151561247357600080fd5b600080547fffffffffffffffffffffffff00000000000000000000000000000000000000001673ffffffffffffffffffffffffffffffffffffffff92909216919091179055565b60005473ffffffffffffffffffffffffffffffffffffffff16331461116f57600080fd5b6124e66128c3565b604080516060810191829052600480548252909160039060056020850180831161104c575050505050905090565b60008282018381101561252357fe5b9392505050565b600080828481151561253857fe5b04949350505050565b600082820283158061255d575082848281151561255a57fe5b04145b151561252357fe5b600080612570611e35565b9250508173ffffffffffffffffffffffffffffffffffffffff16631865c57d6040518163ffffffff167c0100000000000000000000000000000000000000000000000000000000028152600401602060405180830381600087803b1580156125d757600080fd5b505af11580156125eb573d6000803e3d6000fd5b505050506040513d601f19601f8201168201806040525061260f9190810190613101565b60025490915073ffffffffffffffffffffffffffffffffffffffff1663a9059cbb8361263961075b565b6040518363ffffffff167c010000000000000000000000000000000000000000000000000000000002815260040161267292919061359b565b602060405180830381600087803b15801561268c57600080fd5b505af11580156126a0573d6000803e3d6000fd5b505050506040513d601f19601f820116820180604052506126c49190810190612fa1565b15156126cf57600080fd5b600160009054906101000a900473ffffffffffffffffffffffffffffffffffffffff1673ffffffffffffffffffffffffffffffffffffffff1663e14feaea600d805490508473ffffffffffffffffffffffffffffffffffffffff1663f49bff7b6040518163ffffffff167c0100000000000000000000000000000000000000000000000000000000028152600401602060405180830381600087803b15801561277757600080fd5b505af115801561278b573d6000803e3d6000fd5b505050506040513d601f19601f820116820180604052506127af9190810190613101565b6040518363ffffffff167c01000000000000000000000000000000000000000000000000000000000281526004016127e89291906136e6565b600060405180830381600087803b15801561280257600080fd5b505af1158015612816573d6000803e3d6000fd5b5050600f805460ff1916600117905550505050565b60008282111561283757fe5b50900390565b60408051808201825290600290829080388339509192915050565b8260028101928215612888579160200282015b82811115612888578251825560209092019160019091019061286b565b5061238f9291506128e2565b82600381019282156128885791602002820182811115612888578251825560209092019160019091019061286b565b6060604051908101604052806003906020820280388339509192915050565b61080791905b8082111561238f57600081556001016128e8565b600061252382356137da565b600061252382516137da565b6000601f8201831361292557600080fd5b81356129386129338261375d565b613736565b9150818183526020840193506020810190508385602084028201111561295d57600080fd5b60005b83811015612989578161297388826128fc565b8452506020928301929190910190600101612960565b5050505092915050565b6000601f820183136129a457600080fd5b60026129b26129338261377e565b915081838560208402820111156129c857600080fd5b60005b8381101561298957816129de8882612b4d565b84525060209283019291909101906001016129cb565b6000601f82018313612a0557600080fd5b6003612a136129338261377e565b91508183856020840282011115612a2957600080fd5b60005b838110156129895781612a3f8882612b4d565b8452506020928301929190910190600101612a2c565b6000601f82018313612a6657600080fd5b8135612a746129338261375d565b91508181835260208401935060208101905083856020840282011115612a9957600080fd5b60005b838110156129895781612aaf8882612db0565b8452506020928301929190910190600101612a9c565b6000601f82018313612ad657600080fd5b8135612ae46129338261375d565b91508181835260208401935060208101905083856020840282011115612b0957600080fd5b60005b838110156129895781612b1f8882612b4d565b8452506020928301929190910190600101612b0c565b600061252382356137f3565b600061252382516137f3565b60006125238235610807565b6000601f82018313612b6a57600080fd5b8135612b786129338261379c565b91508082526020830160208301858383011115612b9457600080fd5b612b9f838284613818565b50505092915050565b6000601f82018313612bb957600080fd5b8151612bc76129338261379c565b91508082526020830160208301858383011115612be357600080fd5b612b9f838284613824565b600060808284031215612c0057600080fd5b612c0a6080613736565b90506000612c188484612b4d565b8252506020612c2984848301612b4d565b6020830152506040612c3d84828501612b4d565b6040830152506060612c5184828501612b4d565b60608301525092915050565b600060808284031215612c6f57600080fd5b612c796080613736565b9050813567ffffffffffffffff811115612c9257600080fd5b612c9e84828501612b59565b8252506020612caf848483016128fc565b602083015250604082013567ffffffffffffffff811115612ccf57600080fd5b612cdb84828501612b59565b6040830152506060612c5184828501612b35565b60006101008284031215612d0257600080fd5b612d0d610100613736565b90506000612d1b8484612b4d565b8252506020612d2c84848301612b4d565b6020830152506040612d4084828501612b4d565b6040830152506060612d5484828501612b4d565b6060830152506080612d6884828501612b4d565b60808301525060a0612d7c84828501612b4d565b60a08301525060c0612d9084828501612b4d565b60c08301525060e0612da484828501612b35565b60e08301525092915050565b600061252382356137f8565b60006125238251610807565b600060208284031215612dda57600080fd5b6000612de684846128fc565b949350505050565b600060208284031215612e0057600080fd5b6000612de68484612908565b60008060408385031215612e1f57600080fd5b6000612e2b85856128fc565b9250506020612e3c858286016128fc565b9150509250929050565b60008060008060808587031215612e5c57600080fd5b843567ffffffffffffffff811115612e7357600080fd5b612e7f87828801612914565b945050602085013567ffffffffffffffff811115612e9c57600080fd5b612ea887828801612a55565b935050604085013567ffffffffffffffff811115612ec557600080fd5b612ed187828801612914565b925050606085013567ffffffffffffffff811115612eee57600080fd5b612efa87828801612c5d565b91505092959194509250565b60008060408385031215612f1957600080fd5b823567ffffffffffffffff811115612f3057600080fd5b612f3c85828601612914565b925050602083013567ffffffffffffffff811115612f5957600080fd5b612e3c85828601612ac5565b600060408284031215612f7757600080fd5b6000612de68484612993565b600060608284031215612f9557600080fd5b6000612de684846129f4565b600060208284031215612fb357600080fd5b6000612de68484612b41565b600060208284031215612fd157600080fd5b813567ffffffffffffffff811115612fe857600080fd5b612de684828501612b59565b60006020828403121561300657600080fd5b815167ffffffffffffffff81111561301d57600080fd5b612de684828501612ba8565b60006080828403121561303b57600080fd5b6000612de68484612bee565b60008060a0838503121561305a57600080fd5b60006130668585612bee565b9250506080612e3c85828601612b35565b600080600060c0848603121561308c57600080fd5b60006130988686612bee565b93505060806130a986828701612b35565b92505060a06130ba86828701612b35565b9150509250925092565b600061010082840312156130d757600080fd5b6000612de68484612cef565b6000602082840312156130f557600080fd5b6000612de68484612b4d565b60006020828403121561311357600080fd5b6000612de68484612dbc565b6000806040838503121561313257600080fd5b600061313e8585612b4d565b9250506020612e3c85828601612b4d565b613158816137da565b82525050565b6000613169826137ca565b80845260208401935061317b836137c4565b60005b828110156131ab5761319186835161314f565b61319a826137c4565b60209690960195915060010161317e565b5093949350505050565b6131be816137ce565b6131c782610807565b60005b82811015611b20576131dd8583516132dc565b6131e6826137c4565b6020959095019491506001016131ca565b613200816137d4565b61320982610807565b60005b82811015611b205761321f8583516132dc565b613228826137c4565b60209590950194915060010161320c565b6000613244826137ca565b808452602084019350613256836137c4565b60005b828110156131ab5761326c868351613485565b613275826137c4565b602096909601959150600101613259565b6000613291826137ca565b8084526020840193506132a3836137c4565b60005b828110156131ab576132b98683516132dc565b6132c2826137c4565b6020969096019591506001016132a6565b613158816137f3565b61315881610807565b60006132f0826137ca565b808452613304816020860160208601613824565b61330d81613850565b9093016020019392505050565b6131588161380d565b603881527f526f756e64206973206e6f7420696e2072657669657720616e642077696e6e6560208201527f72732068617665206e6f74206265656e2063686f73656e2e0000000000000000604082015260600190565b601f81527f5468697320746f75726e616d656e74206973207374696c6c2076616c69642e00602082015260400190565b601c81527f54696d6520706172616d65746572732061726520696e76616c69642e00000000602082015260400190565b805160808301906133ea84826132dc565b5060208201516133fd60208501826132dc565b50604082015161341060408501826132dc565b5060608201516122be60608501826132dc565b805160808084526000919084019061343b82826132e5565b9150506020830151613450602086018261314f565b506040830151848203604086015261346882826132e5565b915050606083015161347d60608601826132d3565b509392505050565b613158816137f8565b6020810161213a828461314f565b604081016134aa828561314f565b612523602083018461314f565b604081016134c5828561314f565b8181036020830152612de6818461315e565b61010081016134e6828b61314f565b6134f3602083018a6132dc565b61350060408301896132dc565b61350d60608301886132dc565b61351a60808301876132dc565b61352760a08301866132dc565b61353460c08301856132dc565b61354160e08301846132dc565b9998505050505050505050565b610100810161355d828861314f565b61356a602083018761331a565b613577604083018661314f565b61358460608301856132dc565b61359160808301846133d9565b9695505050505050565b604081016135a9828561314f565b61252360208301846132dc565b60208082528101612523818461315e565b60a080825281016135d8818861315e565b905081810360208301526135ec8187613239565b90508181036040830152613600818661315e565b905061360f606083018561314f565b81810360808301526136218184613423565b979650505050505050565b6040808252810161363d818561315e565b90508181036020830152612de68184613286565b6040810161213a82846131b5565b6060810161213a82846131f7565b6020810161213a82846132d3565b6020810161213a82846132dc565b6020810161213a828461331a565b6020808252810161252381846132e5565b6020808252810161213a81613323565b6020808252810161213a81613379565b6020808252810161213a816133a9565b604081016134aa82856132dc565b604081016135a982856132dc565b60a0810161370282886132dc565b61370f60208301876132dc565b61371c60408301866132dc565b613729606083018561314f565b61359160808301846132dc565b60405181810167ffffffffffffffff8111828210171561375557600080fd5b604052919050565b600067ffffffffffffffff82111561377457600080fd5b5060209081020190565b600067ffffffffffffffff82111561379557600080fd5b5060200290565b600067ffffffffffffffff8211156137b357600080fd5b506020601f91909101601f19160190565b60200190565b5190565b50600290565b50600390565b73ffffffffffffffffffffffffffffffffffffffff1690565b151590565b6fffffffffffffffffffffffffffffffff1690565b600061213a826137da565b82818337506000910152565b60005b8381101561383f578181015183820152602001613827565b838111156122be5750506000910152565b601f01601f1916905600a265627a7a723058205c5754cb104459cff5d1991eed4eed747912e952a2709cb4928c4b2cf6253c666c6578706572696d656e74616cf50037",
  "source": " pragma solidity ^0.4.18;\n pragma experimental ABIEncoderV2;\n\nimport \"../libraries/strings/strings.sol\";\nimport \"../libraries/math/SafeMath.sol\";\nimport \"../libraries/LibConstruction.sol\";\nimport \"../interfaces/IMatryxPlatform.sol\";\nimport \"../interfaces/IMatryxTournament.sol\";\nimport \"../interfaces/factories/IMatryxRoundFactory.sol\";\nimport \"../interfaces/IMatryxRound.sol\";\nimport \"../interfaces/IMatryxToken.sol\";\nimport \"./Ownable.sol\";\n\n/// @title Tournament - The Matryx tournament.\n/// @author Max Howard - <max@nanome.ai>, Sam Hessenauer - <sam@nanome.ai>\ncontract MatryxTournament is Ownable, IMatryxTournament {\n    using SafeMath for uint256;\n    using strings for *;\n    \n    // TODO: condense and put in structs\n    //Platform identification\n    address public platformAddress;\n    address public matryxTokenAddress;\n    address public matryxRoundFactoryAddress;\n\n    //Tournament identification\n    bytes32[3] public title;\n    bytes32[2] public descriptionHash;\n    bytes32 public categoryHash;\n    string public category;\n\n    // Timing and State\n    uint256 public timeCreated;\n    uint256 public tournamentOpenedTime;\n    address[] public rounds;\n    mapping(address=>bool) public isRound;\n    bool public closed;\n    // Reward and fee\n    uint256 public bounty;\n    uint256 public entryFee;\n    bool hasBeenWithdrawnFrom;\n    mapping(address=>bool) hasWithdrawn;\n\n    // address roundDelegate;\n    // bytes4 fnSelector_chooseWinner = bytes4(keccak256(\"chooseWinner(address)\"));\n    // bytes4 fnSelector_createRound = bytes4(keccak256(\"createRound(uint256)\"));\n    // bytes4 fnSelector_startRound = bytes4(keccak256(\"startRound(uint256)\"));\n\n    // Submission tracking\n    uint256 numberOfSubmissions = 0;\n    mapping(address=>address[]) private entrantToSubmissions;\n    mapping(address=>mapping(address=>uint256_optional)) private entrantToSubmissionToSubmissionIndex;\n    mapping(address=>uint256_optional) private addressToIsEntrant;\n    address[] private allEntrants;\n    bool winnersChosen;\n\n    constructor(string _category, LibConstruction.TournamentData tournamentData, LibConstruction.RoundData roundData, address _platformAddress, address _matryxTokenAddress, address _matryxRoundFactoryAddress, address _owner) \n    {\n        //Clean inputs\n        //require(_owner != 0x0);\n        //require(tournamentData.title[0] != 0x0);\n        //require(tournamentData.Bounty > 0);\n        //require(_matryxRoundFactoryAddress != 0x0);\n        \n        platformAddress = _platformAddress;\n        matryxTokenAddress = _matryxTokenAddress;\n        matryxRoundFactoryAddress = _matryxRoundFactoryAddress;\n\n        timeCreated = now;\n        // Identification\n        owner = _owner;\n        categoryHash = tournamentData.categoryHash;\n        category = _category;\n        title[0] = tournamentData.title_1;\n        title[1] = tournamentData.title_2;\n        title[2] = tournamentData.title_3;\n        descriptionHash[0] = tournamentData.descriptionHash_1;\n        descriptionHash[1] = tournamentData.descriptionHash_2;\n        // Reward and fee\n        bounty = tournamentData.bounty;\n        entryFee = tournamentData.entryFee;\n\n        createRound(roundData, false);\n        // roundDelegate = IMatryxPlatform(platformAddress).getRoundLibAddress();\n    }\n\n    /*\n     * Structs\n     */\n\n    struct uint256_optional\n    {\n        bool exists;\n        uint256 value;\n    }\n\n    struct SubmissionLocation\n    {\n        uint256 roundIndex;\n        uint256 submissionIndex;\n    }\n\n    /*\n     * Events\n     */\n\n    event NewRound(uint256 _startTime, uint256 _endTime, uint256 _reviewDuration, address _roundAddress, uint256 _roundNumber);\n    //event RoundStarted(uint256 _roundIndex);\n    // Fired at the end of every round, one time per submission created in that round\n    event SubmissionCreated(uint256 _roundIndex, address _submissionAddress);\n    event RoundWinnersChosen(address[] _submissionAddresses);\n\n    /// @dev Allows rounds to invoke SubmissionCreated events on this tournament.\n    /// @param _submissionAddress Address of the submission.\n    function invokeSubmissionCreatedEvent(address _submissionAddress) public onlyRound\n    {\n        emit SubmissionCreated(rounds.length-1, _submissionAddress);\n    }\n\n    /*\n     * Modifiers\n     */\n\n    /// @dev Requires the function caller to be the platform.\n    modifier onlyPlatform()\n    {\n        require(msg.sender == platformAddress);\n        _;\n    }\n\n    modifier onlyRound()\n    {\n        require(isRound[msg.sender]);\n        _;\n    }\n\n    modifier onlyRoundOrThis()\n    {\n        require(isRound[msg.sender] || this == msg.sender);\n        _;\n    }\n\n    // modifier onlySubmission(address _submissionAddress, address _author)\n    // {\n    //     // If the submission does not exist,\n    //     // the address of the submission we return will not be msg.sender\n    //     // It will either be \n    //     // 1) The first submission, or\n    //     // 2) all 0s from having deleted it previously.\n    //     uint256 indexOfSubmission = entrantToSubmissionToSubmissionIndex[_author][_submissionAddress].value;\n    //     address submissionAddress = entrantToSubmissions[_author][indexOfSubmission];\n    //     require(_submissionAddress == msg.sender);\n    //     _;\n    // }\n\n    modifier onlyPeerLinked(address _sender)\n    {\n        IMatryxPlatform platform = IMatryxPlatform(platformAddress);\n        require(platform.hasPeer(_sender));\n        _;\n    }\n\n    /// @dev Requires the function caller to be an entrant.\n    modifier onlyEntrant()\n    {\n        bool senderIsEntrant = addressToIsEntrant[msg.sender].exists;\n        require(senderIsEntrant);\n        _;\n    }\n\n    /// @dev Requires the function caller to be the platform or the owner of this tournament\n    modifier platformOrOwner()\n    {\n        require((msg.sender == platformAddress)||(msg.sender == owner));\n        _;\n    }\n\n    modifier whileTournamentOpen()\n    {\n        require(getState() == uint256(TournamentState.Open));\n        _;\n    }\n\n    modifier ifRoundHasFunds()\n    {\n        // require((IMatryxRound(currentRound()[1]).getState()) != uint256(RoundState.Unfunded));\n        (,address currentRoundAddress) = currentRound();\n        require(IMatryxRound(currentRoundAddress).getState() != uint256(RoundState.Unfunded));\n        _;\n    }\n\n    // /// @dev Requires the tournament to be open.\n    // modifier duringReviewPeriod()\n    // {\n    //     // TODO: Finish me!\n    //     require(isInReview());\n    //     _;\n    // }\n\n    // TODO: Use MatryxToken\n    // modifier whileBountyLeft(uint256 _nextRoundBounty)\n    // {\n    //     require(BountyLeft.sub(_nextRoundBounty) >= 0);\n    //     _;\n    // }\n\n    /*\n    * State Maintenance Methods\n    */\n\n    function removeSubmission(address _submissionAddress, address _author) public onlyPlatform returns (bool)\n    {\n        require(entrantToSubmissionToSubmissionIndex[_author][_submissionAddress].exists);\n        numberOfSubmissions = numberOfSubmissions.sub(1);\n        delete entrantToSubmissions[_author][entrantToSubmissionToSubmissionIndex[_author][_submissionAddress].value];\n        delete entrantToSubmissionToSubmissionIndex[_author][_submissionAddress];\n        return true;\n    }\n\n    /*\n     * Access Control Methods\n     */\n\n    /// @dev Returns whether or not the sender is an entrant in this tournament\n    /// @param _sender Explicit sender address.\n    /// @return Whether or not the sender is an entrant in this tournament.\n    function isEntrant(address _sender) public view returns (bool)\n    {\n        return addressToIsEntrant[_sender].exists;\n    }\n\n    enum RoundState { NotYetOpen, Unfunded, Open, InReview, HasWinners, Closed, Abandoned }\n    enum TournamentState { NotYetOpen, OnHold, Open, Closed, Abandoned}\n    /// @dev Returns the state of the tournament. One of:\n    /// NotYetOpen, Open, Closed, Abandoned\n    function getState() public view returns (uint256)\n    {\n        (uint256 numberOfRounds, address roundAddress) = currentRound();\n\n        if(closed)\n        {\n            return uint256(TournamentState.Closed);\n        }\n        else if(numberOfRounds > 0)\n        {\n            uint256 roundState = IMatryxRound(roundAddress).getState();\n            if(numberOfRounds != 1)\n            {\n                if(roundState == uint256(RoundState.Unfunded) || roundState == uint256(RoundState.Open) || roundState == uint256(RoundState.InReview)\n                    || roundState == uint256(RoundState.HasWinners))\n                {\n                    return uint256(TournamentState.Open);\n                }\n                else if(roundState == uint256(RoundState.NotYetOpen))\n                {\n                    return uint256(TournamentState.OnHold);\n                }\n                else if(roundState == uint256(RoundState.Closed))\n                {\n                    return uint256(TournamentState.Closed);\n                }\n                else\n                {\n                    return uint256(TournamentState.Abandoned);\n                }\n            }\n            else if(roundState == uint256(RoundState.NotYetOpen))\n            {\n                return uint256(TournamentState.NotYetOpen);\n            }\n            else if(roundState == uint256(RoundState.Unfunded) || roundState == uint256(RoundState.Open) || roundState == uint256(RoundState.InReview)\n                    || roundState == uint256(RoundState.HasWinners))\n            {\n                return uint256(TournamentState.Open);\n            }\n            else if(roundState == uint256(RoundState.Closed))\n            {\n                return uint256(TournamentState.Closed);\n            }\n            else\n            {\n                return uint256(TournamentState.Abandoned);\n            }\n        }\n        \n        return 0;\n    }\n\n    /*\n     * Getter Methods\n     */\n\n    function getPlatform() public view returns (address _platformAddress)\n    {\n        return platformAddress;\n    }\n\n    function getTitle() public view returns (bytes32[3] _title)\n    {\n        return title;\n    }\n\n    function getCategory() public view returns (string _category)\n    {\n        return IMatryxPlatform(platformAddress).hashForCategory(categoryHash);\n    }\n\n    /// @dev Returns the external address of the tournament.\n    /// @return _descriptionHash Off-chain content hash of tournament details (ipfs hash)\n    function getDescriptionHash() public view returns (bytes32[2] _descriptionHash)\n    {\n        return descriptionHash;\n    }\n\n    /// @dev Returns the current round number.\n    /// @return _currentRound Number of the current round.\n    function currentRound() public view returns (uint256 _currentRound, address _currentRoundAddress)\n    {\n        if(now < IMatryxRound(rounds[rounds.length-1]).getStartTime())\n        {\n            return (rounds.length-1, rounds[rounds.length-2]);\n        }\n        else\n        {\n            return (rounds.length, rounds[rounds.length-1]);\n        }   \n    }\n\n    /// @dev Returns all of the sender's submissions to this tournament.\n    /// @return (_roundIndices[], _submissionIndices[]) Locations of the sender's submissions.\n    function mySubmissions() public view returns (address[])\n    {\n        address[] memory _mySubmissions = entrantToSubmissions[msg.sender];\n        return _mySubmissions;\n    }\n\n    /// @dev Returns the number of submissions made to this tournament.\n    /// @return _submissionCount Number of submissions made to this tournament.\n    function submissionCount() public view returns (uint256 _submissionCount)\n    {\n        return numberOfSubmissions;\n    }\n\n    function entrantCount() public view returns (uint256 _entrantCount)\n    {\n        return allEntrants.length;\n    }\n\n    /*\n     * Setter Methods\n     */\n\n    function update(LibConstruction.TournamentModificationData tournamentData)\n    {\n        if(tournamentData.title_1 != 0x0)\n        {\n            title[0] = tournamentData.title_1;\n            title[1] = tournamentData.title_2;\n            title[2] = tournamentData.title_3;\n        }\n        if(tournamentData.descriptionHash_1 != 0x0)\n        {\n            descriptionHash[0] = tournamentData.descriptionHash_1;\n            descriptionHash[1] = tournamentData.descriptionHash_2;\n        }\n        if(tournamentData.entryFeeChanged)\n        {\n            entryFee = tournamentData.entryFee;\n        }\n    }\n\n    function updateTitle(bytes32[3] _title) public onlyOwner\n    {\n        title = _title;\n    }\n\n    function updateDescriptionHash(bytes32[2] _descriptionHash) public onlyOwner\n    {\n        descriptionHash = _descriptionHash;\n    }\n\n    function updateEntryFee(uint256 _entryFee) public onlyOwner\n    {\n        entryFee = _entryFee;\n    }\n\n    function updateCategory(string _category) public onlyOwner\n    {\n        // if(!category.toSlice().empty())\n        // {\n        //     revert();\n        // }\n        // revert();\n        // category = _category;\n    }\n\n    /*\n     * Tournament Admin Methods\n     */\n\n    /// @dev Chooses the winner(s) of the current round. If this is the last round, \n    //       this method will also close the tournament.\n    /// @param _submissionAddresses The winning submission addresses\n    /// @param _rewardDistribution Distribution indicating how to split the reward among the submissions\n    function selectWinners(address[] _submissionAddresses, uint256[] _rewardDistribution) public onlyOwner\n    {\n        // TODO: \n        // If no round data provided:\n        //          If closeTournament is false:\n        //               Simply select the winners. If afterward the user calls nextRound, great, create a new round. ()\n        //               If the user doesn't, the tournament will close automatically at the end of the review period. (~)\n        //          If closeTournament is true:\n        //               Close the tournament with the given winners ()\n        // If round data is provided and the tournament has funds:\n        //     Make sure the tournament goes to next round immediately ()\n\n        // Round must be in review to close\n        (,address currentRoundAddress) = currentRound();\n        uint256 roundState = uint256(IMatryxRound(currentRoundAddress).getState());\n        require(roundState == uint256(RoundState.InReview) || roundState == uint256(RoundState.HasWinners), \"Round is not in review and winners have not been chosen.\");\n\n        // Event to notify web3 of the winning submission address\n        emit RoundWinnersChosen(_submissionAddresses);\n        IMatryxRound(currentRoundAddress).selectWinningSubmissions(_submissionAddresses, _rewardDistribution);\n\n    }\n\n    //Manually close round and start the next one, or close tournament and don't start a new round\n    function endReviewPeriod(LibConstruction.RoundData roundData, bool _closeTournament, bool _closeRound) public onlyOwner\n    {\n        (,address currentRoundAddress) = currentRound();\n        uint256 roundState = uint256(IMatryxRound(currentRoundAddress).getState());\n        require(roundState == uint256(RoundState.HasWinners));\n        if(_closeTournament)\n        {\n            closeTournament();\n        }\n        else if (_closeRound)\n        {\n            nextRound(roundData);\n        }\n\n\n    }\n\n    // @dev Chooses the winner of the tournament.\n    function closeTournament() private\n    {\n        (,address currentRoundAddress) = currentRound();\n        uint256 roundState = uint256(IMatryxRound(currentRoundAddress).getState());\n        //Transfer the remaining MTX in the tournament to the current round\n        require(IMatryxToken(matryxTokenAddress).transfer(currentRoundAddress, remainingBounty()));\n        IMatryxPlatform(platformAddress).invokeTournamentClosedEvent(rounds.length, IMatryxRound(currentRoundAddress).getBounty());\n        \n        closed = true;\n    }\n\n    function nextRound(LibConstruction.RoundData roundData) public\n    {\n        (,address currentRoundAddress) = currentRound();\n        uint256 roundState = uint256(IMatryxRound(currentRoundAddress).getState());\n        require(roundState == uint256(RoundState.InReview) || roundState == uint256(RoundState.HasWinners), \"Round is not in review and winners have not been chosen.\");\n\n        createRound(roundData, false);\n    }\n\n    /// @dev Creates a new round.\n    /// @return The new round's address.\n    function createRound(LibConstruction.RoundData roundData, bool _automaticCreation) public onlyRoundOrThis returns (address _roundAddress)\n    {\n        require((roundData.start >= now && roundData.start < roundData.end), \"Time parameters are invalid.\");\n\n        IMatryxRoundFactory roundFactory = IMatryxRoundFactory(matryxRoundFactoryAddress);\n        address newRoundAddress;\n\n        if(_automaticCreation == false)\n        {\n            require(roundData.bounty > 0);\n        }\n\n        newRoundAddress = roundFactory.createRound(platformAddress, this, msg.sender, rounds.length, roundData);\n        \n        // Transfer the round bounty to the round.\n        if(rounds.length != 0)\n        {\n            IMatryxToken(matryxTokenAddress).transfer(newRoundAddress, roundData.bounty);\n        }\n \n        rounds.push(newRoundAddress);\n        isRound[newRoundAddress] = true;\n\n        // Triggers Event displaying start time, end, address, and round number\n        emit NewRound(roundData.start, roundData.end, roundData.reviewDuration, newRoundAddress, rounds.length);\n\n        return newRoundAddress;\n    }\n\n    function sendBountyToRound(uint256 _roundIndex, uint256 _bountyMTX) public onlyPlatform\n    {\n        IMatryxToken(matryxTokenAddress).transfer(rounds[_roundIndex], _bountyMTX);\n    }\n\n    // @dev Returns the remaining bounty the tournament is able to award\n    function remainingBounty() public view returns (uint256)\n    {\n        return IMatryxToken(matryxTokenAddress).balanceOf(this);\n    }\n\n    /*\n     * Entrant Methods\n     */\n\n    /// @dev Enters the user into the tournament.\n    /// @param _entrantAddress Address of the user to enter.\n    /// @return success Whether or not the user was entered successfully.\n    function enterUserInTournament(address _entrantAddress) public onlyPlatform whileTournamentOpen returns (bool _success)\n    {\n        if(addressToIsEntrant[_entrantAddress].exists == true)\n        {\n            return false;\n        }\n\n        // Change the tournament's state to reflect the user entering.\n        addressToIsEntrant[_entrantAddress].exists = true;\n        addressToIsEntrant[_entrantAddress].value = entryFee;\n        allEntrants.push(_entrantAddress);\n\n        return true;\n    }\n\n    /// @dev Returns the fee in MTX to be payed by a prospective entrant.\n    /// @return Entry fee for this tournament.\n    function getEntryFee() public view returns (uint256)\n    {\n        return entryFee;\n    }\n\n    // function collectEntryFee() public returns (bool)\n    // {\n    //     IMatryxToken matryxToken = IMatryxToken(matryxTokenAddress);\n    //     bool success = matryxToken.transfer(msg.sender, addressToIsEntrant[msg.sender].value);\n    //     if(success)\n    //     {\n    //         addressToIsEntrant[msg.sender].value = 0;\n    //         return true;\n    //     }\n\n    //     return false;\n    // }\n\n    function createSubmission(address[] _contributors, uint128[] _contributorRewardDistribution, address[] _references, LibConstruction.SubmissionData submissionData) public onlyEntrant onlyPeerLinked(msg.sender) ifRoundHasFunds whileTournamentOpen returns (address _submissionAddress)\n    {\n        address peerAddress = IMatryxPlatform(platformAddress).peerAddress(submissionData.owner);\n\n        (,address currentRoundAddress) = currentRound();\n        address submissionAddress = IMatryxRound(currentRoundAddress).createSubmission(_contributors, _contributorRewardDistribution, _references, peerAddress, submissionData);\n        // Send out reference requests to the authors of other submissions\n        IMatryxPlatform(platformAddress).handleReferenceRequestsForSubmission(submissionAddress, _references);\n\n        if(numberOfSubmissions == 0)\n        {\n            IMatryxPlatform(platformAddress).invokeTournamentOpenedEvent(owner, title[0], title[1], title[2], descriptionHash[0], descriptionHash[1], bounty, entryFee);\n        }\n\n        numberOfSubmissions = numberOfSubmissions.add(1);\n        entrantToSubmissionToSubmissionIndex[msg.sender][submissionAddress] = uint256_optional({exists:true, value:entrantToSubmissions[msg.sender].length});\n        entrantToSubmissions[msg.sender].push(submissionAddress);\n        IMatryxPlatform(platformAddress).updateSubmissions(msg.sender, submissionAddress);\n        \n        return submissionAddress;\n    }\n\n\n    function withdraw() public onlyEntrant\n    {\n        require(getState() == uint256(TournamentState.Abandoned), \"This tournament is still valid.\");\n        require(!hasWithdrawn[msg.sender]);\n        (,address currentRoundAddress) = currentRound();\n        uint256 entrantCount = allEntrants.length;\n        // If this is the first withdrawal being made...\n        if(IMatryxToken(matryxTokenAddress).balanceOf(currentRoundAddress) > 0)\n        {\n            IMatryxRound(currentRoundAddress).transferBountyToTournament();\n            require(IMatryxToken(matryxTokenAddress).transfer(msg.sender, bounty.div(entrantCount).mul(2)));\n        }\n        else\n        {\n            require(IMatryxToken(matryxTokenAddress).transfer(msg.sender, bounty.mul(entrantCount-2).div(entrantCount).div(entrantCount-1)));\n        }\n\n        hasWithdrawn[msg.sender] = true;\n    }\n\n    function pullRemainingBountyIntoRound() public onlyRound\n    {\n        IMatryxToken(matryxTokenAddress).transfer(msg.sender, remainingBounty());\n    }\n}",
  "sourcePath": "/Users/maxhoward/Desktop/Ethereum/Development/Matryx/Projects/MatryxPlatform/contracts/MatryxTournament.sol",
  "compiler": {
    "name": "solc",
    "version": "0.4.24+commit.e67f0147.Emscripten.clang"
  },
  "schemaVersion": "2.0.0",
  "updatedAt": "2018-06-27T23:52:08.629Z"
}