{
  "contractName": "MatryxTournamentFactory",
  "abi": [
    {
      "constant": true,
      "inputs": [],
      "name": "matryxTokenAddress",
      "outputs": [
        {
          "name": "",
          "type": "address"
        }
      ],
      "payable": false,
      "stateMutability": "view",
      "type": "function"
    },
    {
      "constant": true,
      "inputs": [
        {
          "name": "_sender",
          "type": "address"
        }
      ],
      "name": "isOwner",
      "outputs": [
        {
          "name": "_isOwner",
          "type": "bool"
        }
      ],
      "payable": false,
      "stateMutability": "view",
      "type": "function"
    },
    {
      "constant": true,
      "inputs": [],
      "name": "matryxRoundFactoryAddress",
      "outputs": [
        {
          "name": "",
          "type": "address"
        }
      ],
      "payable": false,
      "stateMutability": "view",
      "type": "function"
    },
    {
      "constant": true,
      "inputs": [],
      "name": "getOwner",
      "outputs": [
        {
          "name": "_owner",
          "type": "address"
        }
      ],
      "payable": false,
      "stateMutability": "view",
      "type": "function"
    },
    {
      "constant": true,
      "inputs": [],
      "name": "owner",
      "outputs": [
        {
          "name": "",
          "type": "address"
        }
      ],
      "payable": false,
      "stateMutability": "view",
      "type": "function"
    },
    {
      "constant": true,
      "inputs": [],
      "name": "platformAddress",
      "outputs": [
        {
          "name": "",
          "type": "address"
        }
      ],
      "payable": false,
      "stateMutability": "view",
      "type": "function"
    },
    {
      "constant": false,
      "inputs": [
        {
          "name": "newOwner",
          "type": "address"
        }
      ],
      "name": "transferOwnership",
      "outputs": [],
      "payable": false,
      "stateMutability": "nonpayable",
      "type": "function"
    },
    {
      "inputs": [
        {
          "name": "_matryxTokenAddress",
          "type": "address"
        },
        {
          "name": "_matryxRoundFactoryAddress",
          "type": "address"
        }
      ],
      "payable": false,
      "stateMutability": "nonpayable",
      "type": "constructor"
    },
    {
      "constant": false,
      "inputs": [
        {
          "name": "_owner",
          "type": "address"
        },
        {
          "name": "_tournamentTitle",
          "type": "string"
        },
        {
          "name": "_externalAddress",
          "type": "bytes"
        },
        {
          "name": "_BountyMTX",
          "type": "uint256"
        },
        {
          "name": "_entryFee",
          "type": "uint256"
        },
        {
          "name": "_reviewPeriod",
          "type": "uint256"
        }
      ],
      "name": "createTournament",
      "outputs": [
        {
          "name": "_tournamentAddress",
          "type": "address"
        }
      ],
      "payable": false,
      "stateMutability": "nonpayable",
      "type": "function"
    },
    {
      "constant": false,
      "inputs": [
        {
          "name": "_platformAddress",
          "type": "address"
        }
      ],
      "name": "setPlatform",
      "outputs": [],
      "payable": false,
      "stateMutability": "nonpayable",
      "type": "function"
    }
  ],
  "bytecode": "0x6060604052341561000f57600080fd5b604051604080612bf8833981016040528080519190602001805160008054600160a060020a03338116600160a060020a031992831617909255600180549683169682169690961790955560038054919092169416939093179092555050612b7d8061007b6000396000f3006060604052600436106100985763ffffffff7c010000000000000000000000000000000000000000000000000000000060003504166329cc545e811461009d5780632f54bf6e146100d95780636945c5ea146101195780636fe5642014610147578063893d20e81461015a5780638da5cb5b1461016d578063be9518b314610180578063dbe55e561461023b578063f2fde38b1461024e575b600080fd5b34156100a857600080fd5b6100b061027a565b60405173ffffffffffffffffffffffffffffffffffffffff909116815260200160405180910390f35b34156100e457600080fd5b61010573ffffffffffffffffffffffffffffffffffffffff60043516610296565b604051901515815260200160405180910390f35b341561012457600080fd5b61014573ffffffffffffffffffffffffffffffffffffffff600435166102b7565b005b341561015257600080fd5b6100b0610326565b341561016557600080fd5b6100b0610342565b341561017857600080fd5b6100b061035e565b341561018b57600080fd5b6100b06004803573ffffffffffffffffffffffffffffffffffffffff169060446024803590810190830135806020601f8201819004810201604051908101604052818152929190602084018383808284378201915050505050509190803590602001908201803590602001908080601f016020809104026020016040519081016040528181529291906020840183838082843750949650508435946020810135945060400135925061037a915050565b341561024657600080fd5b6100b06104fd565b341561025957600080fd5b61014573ffffffffffffffffffffffffffffffffffffffff60043516610519565b60015473ffffffffffffffffffffffffffffffffffffffff1681565b60005473ffffffffffffffffffffffffffffffffffffffff91821691161490565b6000543373ffffffffffffffffffffffffffffffffffffffff9081169116146102df57600080fd5b600280547fffffffffffffffffffffffff00000000000000000000000000000000000000001673ffffffffffffffffffffffffffffffffffffffff92909216919091179055565b60035473ffffffffffffffffffffffffffffffffffffffff1681565b60005473ffffffffffffffffffffffffffffffffffffffff1690565b60005473ffffffffffffffffffffffffffffffffffffffff1681565b600254600154600354600092839273ffffffffffffffffffffffffffffffffffffffff9182169290821691168a8a8a8a8a8a6103b46105aa565b73ffffffffffffffffffffffffffffffffffffffff808b168252898116602083015288811660408301528716606082015260c0810184905260e081018390526101008101829052610120608082018181529060a0830190830188818151815260200191508051906020019080838360005b8381101561043d578082015183820152602001610425565b50505050905090810190601f16801561046a5780820380516001836020036101000a031916815260200191505b50838103825287818151815260200191508051906020019080838360005b838110156104a0578082015183820152602001610488565b50505050905090810190601f1680156104cd5780820380516001836020036101000a031916815260200191505b509b505050505050505050505050604051809103906000f08015156104f157600080fd5b98975050505050505050565b60025473ffffffffffffffffffffffffffffffffffffffff1681565b6000543373ffffffffffffffffffffffffffffffffffffffff90811691161461054157600080fd5b73ffffffffffffffffffffffffffffffffffffffff8116151561056357600080fd5b600080547fffffffffffffffffffffffff00000000000000000000000000000000000000001673ffffffffffffffffffffffffffffffffffffffff92909216919091179055565b604051612597806105bb83390190560060606040526003600d55600e805460ff19169055600060125534156200002457600080fd5b60405162002597380380620025978339810160405280805191906020018051919060200180519190602001805191906020018051820191906020018051820191906020018051919060200180519190602001805160008054600160a060020a03191633600160a060020a0390811691909117909155909250871615159050620000ac57600080fd5b60008311620000ba57600080fd5b600160a060020a0387161515620000d057600080fd5b60018054600160a060020a03808c16600160a060020a031992831617909255600280548b8416908316179055600380548a841690831617905542600755600080549289169290911691909117905560048580516200013392916020019062000168565b5060058480516200014992916020019062000168565b50600f839055601092909255601155600b55506200020d945050505050565b828054600181600116156101000203166002900490600052602060002090601f016020900481019282601f10620001ab57805160ff1916838001178555620001db565b82800160010185558215620001db579182015b82811115620001db578251825591602001919060010190620001be565b50620001e9929150620001ed565b5090565b6200020a91905b80821115620001e95760008155600101620001f4565b90565b61237a806200021d6000396000f3006060604052600436106102245763ffffffff7c0100000000000000000000000000000000000000000000000000000000600035041663072ea61c8114610229578063114765991461024e5780631faf969b1461027557806328d576d71461028857806329cc545e146102a75780632d830cd5146102d65780632f54bf6e146102ee5780632fc1f1901461030d5780633b249810146103205780633c7bb913146103335780633da1bba114610352578063447411f3146103685780634644c51b1461037b57806347535d7b1461039a57806348f73095146103ad5780634a79d50c146103c057806352c01fab1461044a5780635ace2914146104695780635c11a3e4146104ba5780636ec02be9146104cd5780636fe56420146104e057806372910be0146104f35780637af52ade14610544578063814baebb14610557578063893d20e8146105a857806389f3beb6146105bb5780638a19c8bc146105ce5780638c1fc0bb146106025780638c65c81f146106215780638da5cb5b14610637578063a68e8a861461064a578063a968c4b91461065d578063aa53d50414610682578063ab88ef6814610695578063b1902e0f146106a8578063c3964372146106bb578063c5561236146106d4578063dbe55e56146106e7578063e139a20c146106fa578063e586a4f014610760578063e70347bb14610773578063eb770d0c14610786578063ee5ba56c1461079c578063f1653f6e146108c5578063f2fde38b146108d8575b600080fd5b341561023457600080fd5b61023c6108f7565b60405190815260200160405180910390f35b341561025957600080fd5b6102616108fd565b604051901515815260200160405180910390f35b341561028057600080fd5b61023c610906565b341561029357600080fd5b610261600160a060020a036004351661090c565b34156102b257600080fd5b6102ba610b40565b604051600160a060020a03909116815260200160405180910390f35b34156102e157600080fd5b6102ec600435610b4f565b005b34156102f957600080fd5b610261600160a060020a0360043516610b98565b341561031857600080fd5b6102ba610bac565b341561032b57600080fd5b61023c610bbc565b341561033e57600080fd5b6102ec600160a060020a0360043516610bc2565b341561035d57600080fd5b6102ba600435610df2565b341561037357600080fd5b61023c61113e565b341561038657600080fd5b6102ec600160a060020a0360043516611144565b34156103a557600080fd5b610261611191565b34156103b857600080fd5b61023c61119a565b34156103cb57600080fd5b6103d36111a0565b60405160208082528190810183818151815260200191508051906020019080838360005b8381101561040f5780820151838201526020016103f7565b50505050905090810190601f16801561043c5780820380516001836020036101000a031916815260200191505b509250505060405180910390f35b341561045557600080fd5b610261600160a060020a036004351661123e565b341561047457600080fd5b6102ec60046024813581810190830135806020601f8201819004810201604051908101604052818152929190602084018383808284375094965061125c95505050505050565b34156104c557600080fd5b6103d361128e565b34156104d857600080fd5b61023c611336565b34156104eb57600080fd5b6102ba61133c565b34156104fe57600080fd5b6102ec60046024813581810190830135806020601f8201819004810201604051908101604052818152929190602084018383808284375094965061134b95505050505050565b341561054f57600080fd5b610261611379565b341561056257600080fd5b6102ec60046024813581810190830135806020601f8201819004810201604051908101604052818152929190602084018383808284375094965061146395505050505050565b34156105b357600080fd5b6102ba611491565b34156105c657600080fd5b61023c6114a0565b34156105d957600080fd5b6105e16114a6565b604051918252600160a060020a031660208201526040908101905180910390f35b341561060d57600080fd5b610261600160a060020a03600435166114dc565b341561062c57600080fd5b6102ba6004356114f1565b341561064257600080fd5b6102ba611519565b341561065557600080fd5b610261611528565b341561066857600080fd5b610261600160a060020a0360043581169060243516611555565b341561068d57600080fd5b61023c61165d565b34156106a057600080fd5b61023c611663565b34156106b357600080fd5b6103d3611669565b34156106c657600080fd5b6102ec6004356024356116d4565b34156106df57600080fd5b610261611865565b34156106f257600080fd5b6102ba611909565b341561070557600080fd5b61070d611918565b60405160208082528190810183818151815260200191508051906020019060200280838360005b8381101561074c578082015183820152602001610734565b505050509050019250505060405180910390f35b341561076b57600080fd5b61023c6119ad565b341561077e57600080fd5b6103d36119b3565b341561079157600080fd5b6102ec600435611a1e565b34156107a757600080fd5b6102ba60046024813581810190830135806020601f82018190048102016040519081016040528181529291906020840183838082843782019150505050505091908035600160a060020a031690602001909190803590602001908201803590602001908080601f0160208091040260200160405190810160405281815292919060208401838380828437820191505050505050919080359060200190820180359060200190808060200260200160405190810160405280939291908181526020018383602002808284378201915050505050509190803590602001908201803590602001908080602002602001604051908101604052809392919081815260200183836020028082843750949650505050913515159150611a3e9050565b34156108d057600080fd5b61023c612034565b34156108e357600080fd5b6102ec600160a060020a036004351661203a565b60115481565b600e5460ff1681565b600d5481565b6001546000908190819033600160a060020a0390811691161461092e57600080fd5b610936611191565b151561094157600080fd5b600160a060020a03841660009081526015602052604090205460ff161515600114156109705760009250610b39565b600254601154600160a060020a0390911692508263dd62ed3e86306000604051602001526040517c010000000000000000000000000000000000000000000000000000000063ffffffff8516028152600160a060020a03928316600482015291166024820152604401602060405180830381600087803b15156109f257600080fd5b6102c65a03f11515610a0357600080fd5b5050506040518051905010151515610a1a57600080fd5b81600160a060020a03166323b872dd85306011546000604051602001526040517c010000000000000000000000000000000000000000000000000000000063ffffffff8616028152600160a060020a0393841660048201529190921660248201526044810191909152606401602060405180830381600087803b1515610a9f57600080fd5b6102c65a03f11515610ab057600080fd5b50505060405180519150508015610b3557600160a060020a0384166000908152601560205260409020805460ff191660019081178255601154918101919091556016805490918101610b02838261227f565b506000918252602090912001805473ffffffffffffffffffffffffffffffffffffffff1916600160a060020a0386161790555b8092505b5050919050565b600254600160a060020a031681565b60015433600160a060020a0390811691161480610b7a575060005433600160a060020a039081169116145b1515610b8557600080fd5b6009548111610b9357600080fd5b600d55565b600054600160a060020a0391821691161490565b600154600160a060020a03165b90565b600b5481565b600980546000918291829182916000198101908110610bdd57fe5b600091825260209091200154600160a060020a0316935083630b299208866040517c010000000000000000000000000000000000000000000000000000000063ffffffff8416028152600160a060020a039091166004820152602401600060405180830381600087803b1515610c5257600080fd5b6102c65a03f11515610c6357600080fd5b5050507f7a4f6edbca9ed97194ce723e574776da48cb8afcff0d96fb90a4ee76ffef4e5a85604051600160a060020a03909116815260200160405180910390a1600d546009541415610deb57610cb7611528565b1515610cc257600080fd5b600e805460ff19169055600154600160a060020a039081169350841663f49bff7b6000604051602001526040518163ffffffff167c0100000000000000000000000000000000000000000000000000000000028152600401602060405180830381600087803b1515610d3357600080fd5b6102c65a03f11515610d4457600080fd5b5050506040518051600954909350915050600160a060020a0383166350912da1308388866040517c010000000000000000000000000000000000000000000000000000000063ffffffff8716028152600160a060020a0394851660048201526024810193909352921660448201526064810191909152608401600060405180830381600087803b1515610dd657600080fd5b6102c65a03f11515610de757600080fd5b5050505b5050505050565b600354600254600d54600954600093600160a060020a039081169316918491829182916001011415610f7057601054600154909250600160a060020a0380871691637f12d52a91163033866000604051602001526040517c010000000000000000000000000000000000000000000000000000000063ffffffff8716028152600160a060020a0394851660048201529284166024840152921660448201526064810191909152608401602060405180830381600087803b1515610eb457600080fd5b6102c65a03f11515610ec557600080fd5b505050604051805190509250600060108190555083600160a060020a031663a9059cbb84846000604051602001526040517c010000000000000000000000000000000000000000000000000000000063ffffffff8516028152600160a060020a0390921660048301526024820152604401602060405180830381600087803b1515610f4f57600080fd5b6102c65a03f11515610f6057600080fd5b50505060405180519050506110c9565b601054610f83908863ffffffff61209916565b600154909150600160a060020a0380871691637f12d52a911630338b6000604051602001526040517c010000000000000000000000000000000000000000000000000000000063ffffffff8716028152600160a060020a0394851660048201529284166024840152921660448201526064810191909152608401602060405180830381600087803b151561101657600080fd5b6102c65a03f1151561102757600080fd5b50505060405180516010839055935050600160a060020a03841663a9059cbb84896000604051602001526040517c010000000000000000000000000000000000000000000000000000000063ffffffff8516028152600160a060020a0390921660048301526024820152604401602060405180830381600087803b15156110ad57600080fd5b6102c65a03f115156110be57600080fd5b505050604051805150505b600160a060020a0383166000908152600a60205260409020805460ff191660019081179091556009805490918101611101838261227f565b506000918252602090912001805473ffffffffffffffffffffffffffffffffffffffff1916600160a060020a038516179055509095945050505050565b60085481565b6009547f5fbb3d346317d5ecdb86412d4c69c7503ff4dbed1eccd4cb6290453ea0b1a322906000190182604051918252600160a060020a031660208201526040908101905180910390a150565b600e5460ff1690565b600c5481565b60048054600181600116156101000203166002900480601f0160208091040260200160405190810160405280929190818152602001828054600181600116156101000203166002900480156112365780601f1061120b57610100808354040283529160200191611236565b820191906000526020600020905b81548152906001019060200180831161121957829003601f168201915b505050505081565b600160a060020a031660009081526015602052604090205460ff1690565b60005433600160a060020a0390811691161461127757600080fd5b600581805161128a9291602001906122a8565b5050565b611296612322565b60058054600181600116156101000203166002900480601f01602080910402602001604051908101604052809291908181526020018280546001816001161561010002031660029004801561132c5780601f106113015761010080835404028352916020019161132c565b820191906000526020600020905b81548152906001019060200180831161130f57829003601f168201915b5050505050905090565b60125490565b600354600160a060020a031681565b60005433600160a060020a0390811691161461136657600080fd5b600481805161128a9291602001906122a8565b600254600160a060020a033381811660009081526015602052604080822060010154919493909316928492849263a9059cbb92859051602001526040517c010000000000000000000000000000000000000000000000000000000063ffffffff8516028152600160a060020a0390921660048301526024820152604401602060405180830381600087803b151561140f57600080fd5b6102c65a03f1151561142057600080fd5b5050506040518051915050801561145957600160a060020a0333166000908152601560205260408120600190810191909155925061145e565b600092505b505090565b60005433600160a060020a0390811691161461147e57600080fd5b600681805161128a9291602001906122a8565b600054600160a060020a031690565b60165490565b6009805460009182919060001982018281106114be57fe5b600091825260209091200154909250600160a060020a031690509091565b600a6020526000908152604090205460ff1681565b60098054829081106114ff57fe5b600091825260209091200154600160a060020a0316905081565b600054600160a060020a031681565b6000600c5442101580156115425750600b54600c54014211155b80156115505750600e5460ff165b905090565b60015460009033600160a060020a0390811691161461157357600080fd5b600160a060020a0380831660009081526014602090815260408083209387168352929052205460ff1615611653576012546115b590600163ffffffff61209916565b601255600160a060020a03808316600090815260136020908152604080832060148352818420948816845293909152902060010154815481106115f457fe5b60009182526020808320909101805473ffffffffffffffffffffffffffffffffffffffff19169055600160a060020a038481168352601482526040808420918716845291528120805460ff191681556001908101919091559050611657565b5060005b92915050565b600f5481565b60105481565b60068054600181600116156101000203166002900480601f0160208091040260200160405190810160405280929190818152602001828054600181600116156101000203166002900480156112365780601f1061120b57610100808354040283529160200191611236565b600980546000919060001981019081106116ea57fe5b600091825260209091200154600e54600160a060020a03909116915060ff161515611717576117176120ab565b600d5460095414156117ac57824201600c8190555080600160a060020a0316635a7d5f5084600b546040517c010000000000000000000000000000000000000000000000000000000063ffffffff851602815260048101929092526024820152604401600060405180830381600087803b151561179357600080fd5b6102c65a03f115156117a457600080fd5b505050611826565b80600160a060020a0316635a7d5f5084846040517c010000000000000000000000000000000000000000000000000000000063ffffffff851602815260048101929092526024820152604401600060405180830381600087803b151561181157600080fd5b6102c65a03f1151561182257600080fd5b5050505b6009547f33a701182892fd888ed152ca2ac23771a32e814469b7cd255965471e1af3a659906000190160405190815260200160405180910390a1505050565b600980546000918291600019810190811061187c57fe5b6000918252602082200154600160a060020a0316915081906347535d7b90604051602001526040518163ffffffff167c0100000000000000000000000000000000000000000000000000000000028152600401602060405180830381600087803b15156118e857600080fd5b6102c65a03f115156118f957600080fd5b50505060405180519250505b5090565b600154600160a060020a031681565b611920612322565b611928612322565b6013600033600160a060020a0316600160a060020a031681526020019081526020016000208054806020026020016040519081016040528092919081815260200182805480156119a157602002820191906000526020600020905b8154600160a060020a03168152600190910190602001808311611983575b50939695505050505050565b60115490565b60058054600181600116156101000203166002900480601f0160208091040260200160405190810160405280929190818152602001828054600181600116156101000203166002900480156112365780601f1061120b57610100808354040283529160200191611236565b60005433600160a060020a03908116911614611a3957600080fd5b601155565b600160a060020a0333166000908152601560205260408120548190819060ff16801515611a6a57600080fd5b6001543390600160a060020a03168063532311c4836000604051602001526040517c010000000000000000000000000000000000000000000000000000000063ffffffff8416028152600160a060020a039091166004820152602401602060405180830381600087803b1515611adf57600080fd5b6102c65a03f11515611af057600080fd5b505050604051805190501515611b0557600080fd5b611b0d611191565b1515611b1857600080fd5b600154600160a060020a0316636a44e43d8c6000604051602001526040517c010000000000000000000000000000000000000000000000000000000063ffffffff8416028152600160a060020a039091166004820152602401602060405180830381600087803b1515611b8a57600080fd5b6102c65a03f11515611b9b57600080fd5b5050506040518051955050600160a060020a0385161515611bbb57600080fd5b600980546000198101908110611bcd57fe5b906000526020600020900160009054906101000a9004600160a060020a0316600160a060020a031663f3eda8e88d8d888e8d8f8e6000604051602001526040517c010000000000000000000000000000000000000000000000000000000063ffffffff8a16028152600160a060020a0380881660248301528616604482015281151560c482015260e0600482019081529081906064810190608481019060a481019060e4018c818151815260200191508051906020019080838360005b83811015611ca2578082015183820152602001611c8a565b50505050905090810190601f168015611ccf5780820380516001836020036101000a031916815260200191505b50858103845289818151815260200191508051906020019080838360005b83811015611d05578082015183820152602001611ced565b50505050905090810190601f168015611d325780820380516001836020036101000a031916815260200191505b50858103835288818151815260200191508051906020019060200280838360005b83811015611d6b578082015183820152602001611d53565b50505050905001858103825287818151815260200191508051906020019060200280838360005b83811015611daa578082015183820152602001611d92565b505050509050019b505050505050505050505050602060405180830381600087803b1515611dd757600080fd5b6102c65a03f11515611de857600080fd5b5050506040518051600154909550600160a060020a03169050638c593a8c858a6000604051602001526040518363ffffffff167c01000000000000000000000000000000000000000000000000000000000281526004018083600160a060020a0316600160a060020a0316815260200180602001828103825283818151815260200191508051906020019060200280838360005b83811015611e94578082015183820152602001611e7c565b505050509050019350505050602060405180830381600087803b1515611eb957600080fd5b6102c65a03f11515611eca57600080fd5b50505060405180515050601254611ee890600163ffffffff61226916565b60125560408051908101604090815260018252600160a060020a033381166000818152601360209081528482205481870152918152601482528381209289168152919052208151815460ff19169015151781556020820151600191820155600160a060020a03331660009081526013602052604090208054909250908101611f70838261227f565b506000918252602090912001805473ffffffffffffffffffffffffffffffffffffffff1916600160a060020a03868116919091179091556001541663ab9583d933866040517c010000000000000000000000000000000000000000000000000000000063ffffffff8516028152600160a060020a03928316600482015291166024820152604401600060405180830381600087803b151561201057600080fd5b6102c65a03f1151561202157600080fd5b50949d9c50505050505050505050505050565b60075481565b60005433600160a060020a0390811691161461205557600080fd5b600160a060020a038116151561206a57600080fd5b6000805473ffffffffffffffffffffffffffffffffffffffff1916600160a060020a0392909216919091179055565b6000828211156120a557fe5b50900390565b600e805460ff1916600190811790915554600054600f54601154600160a060020a03938416938493635490904b939116913091600491600591906040517c010000000000000000000000000000000000000000000000000000000063ffffffff8916028152600160a060020a038088166004830190815290871660248301526084820184905260a4820183905260c06044830190815286546002600019610100600184161502019091160460c4840181905291929091606482019160e40190889080156121b95780601f1061218e576101008083540402835291602001916121b9565b820191906000526020600020905b81548152906001019060200180831161219c57829003601f168201915b505083810382528654600260001961010060018416150201909116048082526020909101908790801561222d5780601f106122025761010080835404028352916020019161222d565b820191906000526020600020905b81548152906001019060200180831161221057829003601f168201915b505098505050505050505050600060405180830381600087803b151561225257600080fd5b6102c65a03f1151561226357600080fd5b50505050565b60008282018381101561227857fe5b9392505050565b8154818355818115116122a3576000838152602090206122a3918101908301612334565b505050565b828054600181600116156101000203166002900490600052602060002090601f016020900481019282601f106122e957805160ff1916838001178555612316565b82800160010185558215612316579182015b828111156123165782518255916020019190600101906122fb565b50611905929150612334565b60206040519081016040526000815290565b610bb991905b80821115611905576000815560010161233a5600a165627a7a723058202915b7979c5d083d939fc6629505cd3c36b4371f46e2e601f99670b8b511ce870029a165627a7a723058207be74af01643cf2e2b3efc89063a338c46881cfdb626480a2e9906e22380e4970029",
  "source": "pragma solidity ^0.4.18;\n\nimport '../MatryxTournament.sol';\nimport '../Ownable.sol';\n\ncontract MatryxTournamentFactory is Ownable {\n\taddress public matryxTokenAddress;\n\taddress public platformAddress;\n\taddress public matryxRoundFactoryAddress;\n\n\tfunction MatryxTournamentFactory(address _matryxTokenAddress, address _matryxRoundFactoryAddress) public {\n\t\tmatryxTokenAddress = _matryxTokenAddress;\n\t\tmatryxRoundFactoryAddress = _matryxRoundFactoryAddress;\n\t}\n\n\tfunction createTournament(address _owner, string _tournamentTitle, bytes _externalAddress, uint256 _BountyMTX, uint256 _entryFee, uint256 _reviewPeriod) public returns (address _tournamentAddress) {\n\t\tMatryxTournament newTournament = new MatryxTournament(platformAddress, matryxTokenAddress, matryxRoundFactoryAddress, _owner, _tournamentTitle, _externalAddress, _BountyMTX, _entryFee, _reviewPeriod);\n\t\treturn newTournament;\n\t}\n\n\tfunction setPlatform(address _platformAddress) public onlyOwner\n\t{\n\t\tplatformAddress = _platformAddress;\n\t}\n}",
  "sourcePath": "/Users/maxhoward/Desktop/Ethereum/Development/Matryx AWS/Projects/matryx-alpha-source/contracts/factories/MatryxTournamentFactory.sol",
  "compiler": {
    "name": "solc",
    "version": "0.4.19+commit.c4cbbb05.Emscripten.clang"
  },
  "schemaVersion": "2.0.0",
  "updatedAt": "2018-03-29T02:57:30.659Z"
}