{
  "contractName": "MatryxPlatformAlphaMain",
  "abi": [
    {
      "constant": true,
      "inputs": [],
      "name": "getBalance",
      "outputs": [
        {
          "name": "",
          "type": "uint256"
        }
      ],
      "payable": false,
      "stateMutability": "view",
      "type": "function"
    },
    {
      "constant": true,
      "inputs": [],
      "name": "balanceIsNonZero",
      "outputs": [
        {
          "name": "",
          "type": "bool"
        }
      ],
      "payable": false,
      "stateMutability": "view",
      "type": "function"
    },
    {
      "constant": true,
      "inputs": [],
      "name": "tournamentCount",
      "outputs": [
        {
          "name": "",
          "type": "uint256"
        }
      ],
      "payable": false,
      "stateMutability": "view",
      "type": "function"
    },
    {
      "constant": false,
      "inputs": [
        {
          "name": "_tournamentName",
          "type": "string"
        },
        {
          "name": "_externalAddress",
          "type": "bytes32"
        },
        {
          "name": "_MTXReward",
          "type": "uint256"
        },
        {
          "name": "_entryFee",
          "type": "uint256"
        }
      ],
      "name": "createTournament",
      "outputs": [
        {
          "name": "",
          "type": "address"
        }
      ],
      "payable": false,
      "stateMutability": "nonpayable",
      "type": "function"
    },
    {
      "constant": true,
      "inputs": [],
      "name": "getOwner",
      "outputs": [
        {
          "name": "_deployer",
          "type": "address"
        }
      ],
      "payable": false,
      "stateMutability": "view",
      "type": "function"
    },
    {
      "constant": false,
      "inputs": [
        {
          "name": "_queryID",
          "type": "uint256"
        },
        {
          "name": "_response",
          "type": "uint256"
        }
      ],
      "name": "storeQueryResponse",
      "outputs": [
        {
          "name": "success",
          "type": "bool"
        }
      ],
      "payable": false,
      "stateMutability": "nonpayable",
      "type": "function"
    },
    {
      "constant": true,
      "inputs": [],
      "name": "owner",
      "outputs": [
        {
          "name": "_owner",
          "type": "address"
        }
      ],
      "payable": false,
      "stateMutability": "view",
      "type": "function"
    },
    {
      "constant": true,
      "inputs": [
        {
          "name": "",
          "type": "uint256"
        }
      ],
      "name": "allTournaments",
      "outputs": [
        {
          "name": "",
          "type": "address"
        }
      ],
      "payable": false,
      "stateMutability": "view",
      "type": "function"
    },
    {
      "constant": false,
      "inputs": [
        {
          "name": "_query",
          "type": "bytes32"
        },
        {
          "name": "_sender",
          "type": "address"
        }
      ],
      "name": "Query",
      "outputs": [],
      "payable": false,
      "stateMutability": "nonpayable",
      "type": "function"
    },
    {
      "constant": true,
      "inputs": [
        {
          "name": "tournamentAddress",
          "type": "address"
        }
      ],
      "name": "tournamentByAddress",
      "outputs": [
        {
          "name": "",
          "type": "bytes32"
        }
      ],
      "payable": false,
      "stateMutability": "view",
      "type": "function"
    },
    {
      "constant": false,
      "inputs": [
        {
          "name": "toIgnore",
          "type": "uint256"
        }
      ],
      "name": "prepareBalance",
      "outputs": [],
      "payable": false,
      "stateMutability": "nonpayable",
      "type": "function"
    },
    {
      "constant": false,
      "inputs": [
        {
          "name": "newOwner",
          "type": "address"
        }
      ],
      "name": "transferOwnership",
      "outputs": [],
      "payable": false,
      "stateMutability": "nonpayable",
      "type": "function"
    },
    {
      "constant": false,
      "inputs": [
        {
          "name": "_tournamentAddress",
          "type": "address"
        }
      ],
      "name": "enterTournament",
      "outputs": [
        {
          "name": "_submissionViewer",
          "type": "address"
        }
      ],
      "payable": false,
      "stateMutability": "nonpayable",
      "type": "function"
    },
    {
      "anonymous": false,
      "inputs": [
        {
          "indexed": false,
          "name": "_owner",
          "type": "address"
        },
        {
          "indexed": false,
          "name": "_tournamentAddress",
          "type": "address"
        },
        {
          "indexed": false,
          "name": "_tournamentName",
          "type": "string"
        },
        {
          "indexed": false,
          "name": "_externalAddress",
          "type": "bytes32"
        },
        {
          "indexed": false,
          "name": "_MTXReward",
          "type": "uint256"
        },
        {
          "indexed": false,
          "name": "_entryFee",
          "type": "uint256"
        }
      ],
      "name": "TournamentCreated",
      "type": "event"
    },
    {
      "anonymous": false,
      "inputs": [
        {
          "indexed": false,
          "name": "id",
          "type": "uint256"
        },
        {
          "indexed": false,
          "name": "sender",
          "type": "address"
        }
      ],
      "name": "QueryPerformed",
      "type": "event"
    },
    {
      "anonymous": false,
      "inputs": [
        {
          "indexed": false,
          "name": "storedResponse",
          "type": "uint256"
        }
      ],
      "name": "StoredResponse",
      "type": "event"
    },
    {
      "anonymous": false,
      "inputs": [
        {
          "indexed": false,
          "name": "newResponse",
          "type": "uint256"
        },
        {
          "indexed": false,
          "name": "oldResponse",
          "type": "uint256"
        }
      ],
      "name": "FailedToStore",
      "type": "event"
    }
  ],
  "bytecode": "0x6060604052336000806101000a81548173ffffffffffffffffffffffffffffffffffffffff021916908373ffffffffffffffffffffffffffffffffffffffff160217905550614384806100536000396000f300606060405260043610620000d3576000357c0100000000000000000000000000000000000000000000000000000000900463ffffffff16806312065fe014620000d857806322985f9214620001045780636e2b2c7c14620001345780637b6679e61462000160578063893d20e8146200021f5780638b72062a14620002775780638da5cb5b14620002be578063c839984a1462000316578063d4a01820146200037c578063d5f0efa014620003c5578063edee41d9146200041d578063f2fde38b1462000443578063f7468a3c146200047f575b600080fd5b3415620000e457600080fd5b620000ee620004fb565b6040518082815260200191505060405180910390f35b34156200011057600080fd5b6200011a62000512565b604051808215151515815260200191505060405180910390f35b34156200014057600080fd5b6200014a62000532565b6040518082815260200191505060405180910390f35b34156200016c57600080fd5b620001dd600480803590602001908201803590602001908080601f01602080910402602001604051908101604052809392919081815260200183838082843782019150505050505091908035600019169060200190919080359060200190919080359060200190919050506200053f565b604051808273ffffffffffffffffffffffffffffffffffffffff1673ffffffffffffffffffffffffffffffffffffffff16815260200191505060405180910390f35b34156200022b57600080fd5b620002356200081d565b604051808273ffffffffffffffffffffffffffffffffffffffff1673ffffffffffffffffffffffffffffffffffffffff16815260200191505060405180910390f35b34156200028357600080fd5b620002a4600480803590602001909190803590602001909190505062000846565b604051808215151515815260200191505060405180910390f35b3415620002ca57600080fd5b620002d46200099c565b604051808273ffffffffffffffffffffffffffffffffffffffff1673ffffffffffffffffffffffffffffffffffffffff16815260200191505060405180910390f35b34156200032257600080fd5b6200033a6004808035906020019091905050620009c5565b604051808273ffffffffffffffffffffffffffffffffffffffff1673ffffffffffffffffffffffffffffffffffffffff16815260200191505060405180910390f35b34156200038857600080fd5b620003c360048080356000191690602001909190803573ffffffffffffffffffffffffffffffffffffffff1690602001909190505062000a05565b005b3415620003d157600080fd5b620003ff600480803573ffffffffffffffffffffffffffffffffffffffff1690602001909190505062000d1b565b60405180826000191660001916815260200191505060405180910390f35b34156200042957600080fd5b62000441600480803590602001909190505062000e11565b005b34156200044f57600080fd5b6200047d600480803573ffffffffffffffffffffffffffffffffffffffff1690602001909190505062000ed7565b005b34156200048b57600080fd5b620004b9600480803573ffffffffffffffffffffffffffffffffffffffff1690602001909190505062000fb3565b604051808273ffffffffffffffffffffffffffffffffffffffff1673ffffffffffffffffffffffffffffffffffffffff16815260200191505060405180910390f35b600080620005093362001087565b90508091505090565b6000806000620005223362001087565b9150600082119050809250505090565b6000600480549050905090565b6000806000809054906101000a900473ffffffffffffffffffffffffffffffffffffffff1673ffffffffffffffffffffffffffffffffffffffff163373ffffffffffffffffffffffffffffffffffffffff161415156200059e57600080fd5b3386868686620005ad620010ee565b808673ffffffffffffffffffffffffffffffffffffffff1673ffffffffffffffffffffffffffffffffffffffff168152602001806020018560001916600019168152602001848152602001838152602001828103825286818151815260200191508051906020019080838360005b83811015620006385780820151818401526020810190506200061b565b50505050905090810190601f168015620006665780820380516001836020036101000a031916815260200191505b509650505050505050604051809103906000f08015156200068657600080fd5b90507fc03b261ab656881a558b6cb5e6342045794b655f9174e18f0e7b67a35be1d5c3338288888888604051808773ffffffffffffffffffffffffffffffffffffffff1673ffffffffffffffffffffffffffffffffffffffff1681526020018673ffffffffffffffffffffffffffffffffffffffff1673ffffffffffffffffffffffffffffffffffffffff168152602001806020018560001916600019168152602001848152602001838152602001828103825286818151815260200191508051906020019080838360005b838110156200076f57808201518184015260208101905062000752565b50505050905090810190601f1680156200079d5780820380516001836020036101000a031916815260200191505b5097505050505050505060405180910390a160048054806001018281620007c59190620010ff565b9160005260206000209001600083909190916101000a81548173ffffffffffffffffffffffffffffffffffffffff021916908373ffffffffffffffffffffffffffffffffffffffff1602179055505050949350505050565b60008060009054906101000a900473ffffffffffffffffffffffffffffffffffffffff16905090565b6000806000809054906101000a900473ffffffffffffffffffffffffffffffffffffffff1673ffffffffffffffffffffffffffffffffffffffff163373ffffffffffffffffffffffffffffffffffffffff16141515620008a557600080fd5b60036000858152602001908152602001600020549050600083118015620008cc5750600081145b156200093e578260036000868152602001908152602001600020819055507fae8527266ba82a48a206c6cbaa4634e0d5e70b8c6017ac015e19fa75664d557860036000868152602001908152602001600020546040518082815260200191505060405180910390a16001915062000995565b7fe0ecffc2c891b346f2eeb89101dba4c5748fb0f27fd023b97cdcac60c0a1585c836003600087815260200190815260200160002054604051808381526020018281526020019250505060405180910390a1600091505b5092915050565b60008060009054906101000a900473ffffffffffffffffffffffffffffffffffffffff16905090565b600481815481101515620009d557fe5b90600052602060002090016000915054906101000a900473ffffffffffffffffffffffffffffffffffffffff1681565b6000806000600160008573ffffffffffffffffffffffffffffffffffffffff1673ffffffffffffffffffffffffffffffffffffffff16815260200190815260200160002060009054906101000a900473ffffffffffffffffffffffffffffffffffffffff1673ffffffffffffffffffffffffffffffffffffffff16111562000aef57600160008473ffffffffffffffffffffffffffffffffffffffff1673ffffffffffffffffffffffffffffffffffffffff16815260200190815260200160002060009054906101000a900473ffffffffffffffffffffffffffffffffffffffff16915062000bc8565b8262000afa6200112e565b808273ffffffffffffffffffffffffffffffffffffffff1673ffffffffffffffffffffffffffffffffffffffff168152602001915050604051809103906000f080151562000b4757600080fd5b915081600160008573ffffffffffffffffffffffffffffffffffffffff1673ffffffffffffffffffffffffffffffffffffffff16815260200190815260200160002060006101000a81548173ffffffffffffffffffffffffffffffffffffffff021916908373ffffffffffffffffffffffffffffffffffffffff1602179055505b8173ffffffffffffffffffffffffffffffffffffffff1663a3b61a9c856000604051602001526040518263ffffffff167c0100000000000000000000000000000000000000000000000000000000028152600401808260001916600019168152602001915050602060405180830381600087803b151562000c4857600080fd5b6102c65a03f1151562000c5a57600080fd5b50505060405180519050905080600260008573ffffffffffffffffffffffffffffffffffffffff1673ffffffffffffffffffffffffffffffffffffffff168152602001908152602001600020819055507f1c16af450a72e7153ed6faee28677e32f11936f8ab2e63322d032d1f753b5aea8184604051808381526020018273ffffffffffffffffffffffffffffffffffffffff1673ffffffffffffffffffffffffffffffffffffffff1681526020019250505060405180910390a150505050565b6000806000600560008573ffffffffffffffffffffffffffffffffffffffff1673ffffffffffffffffffffffffffffffffffffffff16815260200190815260200160002060009054906101000a900460ff16151562000d7957600080fd5b8391508173ffffffffffffffffffffffffffffffffffffffff16635c11a3e46000604051602001526040518163ffffffff167c0100000000000000000000000000000000000000000000000000000000028152600401602060405180830381600087803b151562000de957600080fd5b6102c65a03f1151562000dfb57600080fd5b5050506040518051905090508092505050919050565b3073ffffffffffffffffffffffffffffffffffffffff1663d4a0182082600102336040518363ffffffff167c01000000000000000000000000000000000000000000000000000000000281526004018083600019166000191681526020018273ffffffffffffffffffffffffffffffffffffffff1673ffffffffffffffffffffffffffffffffffffffff16815260200192505050600060405180830381600087803b151562000ebf57600080fd5b6102c65a03f1151562000ed157600080fd5b50505050565b6000809054906101000a900473ffffffffffffffffffffffffffffffffffffffff1673ffffffffffffffffffffffffffffffffffffffff163373ffffffffffffffffffffffffffffffffffffffff1614151562000f3357600080fd5b600073ffffffffffffffffffffffffffffffffffffffff168173ffffffffffffffffffffffffffffffffffffffff161415151562000f7057600080fd5b806000806101000a81548173ffffffffffffffffffffffffffffffffffffffff021916908373ffffffffffffffffffffffffffffffffffffffff16021790555050565b60008060008391508173ffffffffffffffffffffffffffffffffffffffff166328d576d7336000604051602001526040518263ffffffff167c0100000000000000000000000000000000000000000000000000000000028152600401808273ffffffffffffffffffffffffffffffffffffffff1673ffffffffffffffffffffffffffffffffffffffff168152602001915050602060405180830381600087803b15156200105f57600080fd5b6102c65a03f115156200107157600080fd5b5050506040518051905090508092505050919050565b6000806000600260008573ffffffffffffffffffffffffffffffffffffffff1673ffffffffffffffffffffffffffffffffffffffff168152602001908152602001600020549150600360008381526020019081526020016000205490508092505050919050565b604051612f12806200116883390190565b81548183558181151162001129578183600052602060002091820191016200112891906200113f565b5b505050565b6040516102df806200407a83390190565b6200116491905b808211156200116057600081600090555060010162001146565b5090565b90560060606040526001600d5534156200001557600080fd5b60405162002f1238038062002f1283398101604052808051906020019091908051820191906020018051906020019091908051906020019091908051906020019091905050336000806101000a81548173ffffffffffffffffffffffffffffffffffffffff021916908373ffffffffffffffffffffffffffffffffffffffff16021790555060008573ffffffffffffffffffffffffffffffffffffffff1614151515620000c157600080fd5b620000e0846200022464010000000002620008ae176401000000009004565b151515620000ed57600080fd5b600082111515620000fd57600080fd5b33600160006101000a81548173ffffffffffffffffffffffffffffffffffffffff021916908373ffffffffffffffffffffffffffffffffffffffff1602179055504260068190555084600360006101000a81548173ffffffffffffffffffffffffffffffffffffffff021916908373ffffffffffffffffffffffffffffffffffffffff16021790555083600490805190602001906200019e92919062000253565b50826005816000191690555081600f8190555080601081905550620001c2620002da565b604051809103906000f0801515620001d957600080fd5b601360006101000a81548173ffffffffffffffffffffffffffffffffffffffff021916908373ffffffffffffffffffffffffffffffffffffffff160217905550505050505062000327565b600062000230620002eb565b8290506000815114156200024857600191506200024d565b600091505b50919050565b828054600181600116156101000203166002900490600052602060002090601f016020900481019282601f106200029657805160ff1916838001178555620002c7565b82800160010185558215620002c7579182015b82811115620002c6578251825591602001919060010190620002a9565b5b509050620002d69190620002ff565b5090565b60405161055b80620029b783390190565b602060405190810160405280600081525090565b6200032491905b808211156200032057600081600090555060010162000306565b5090565b90565b61268080620003376000396000f3006060604052600436106200016f576000357c0100000000000000000000000000000000000000000000000000000000900463ffffffff168063072ea61c14620001745780631147659914620001a057806316bffb3b14620001d05780631faf969b14620001fc5780632678e7cf146200022857806328d576d714620002a05780632f54bf6e146200031c5780633b2498101462000370578063563b39dc146200039c57806358a5b0f614620003f45780635c11a3e414620004205780635cb116bd146200045457806380ce04e8146200048057806384c7dee314620004985780638a19c8bc14620004b05780638da5cb5b14620004dc578063a21190d21462000534578063a43628f614620005c8578063af45718b14620005e0578063dbe55e56146200070d578063dd4f8f741462000765578063e40205d61462000791578063e586a4f014620007bd578063e70347bb14620007e9578063f1653f6e146200081d578063f2fde38b1462000849575b600080fd5b34156200018057600080fd5b6200018a62000885565b6040518082815260200191505060405180910390f35b3415620001ac57600080fd5b620001b66200088b565b604051808215151515815260200191505060405180910390f35b3415620001dc57600080fd5b620001e6620008a2565b6040518082815260200191505060405180910390f35b34156200020857600080fd5b62000212620008a8565b6040518082815260200191505060405180910390f35b34156200023457600080fd5b62000286600480803590602001908201803590602001908080601f01602080910402602001604051908101604052809392919081815260200183838082843782019150505050505091905050620008ae565b604051808215151515815260200191505060405180910390f35b3415620002ac57600080fd5b620002da600480803573ffffffffffffffffffffffffffffffffffffffff16906020019091905050620008dd565b604051808273ffffffffffffffffffffffffffffffffffffffff1673ffffffffffffffffffffffffffffffffffffffff16815260200191505060405180910390f35b34156200032857600080fd5b62000356600480803573ffffffffffffffffffffffffffffffffffffffff16906020019091905050620009be565b604051808215151515815260200191505060405180910390f35b34156200037c57600080fd5b6200038662000a1c565b6040518082815260200191505060405180910390f35b3415620003a857600080fd5b620003b262000a22565b604051808273ffffffffffffffffffffffffffffffffffffffff1673ffffffffffffffffffffffffffffffffffffffff16815260200191505060405180910390f35b34156200040057600080fd5b6200040a62000a48565b6040518082815260200191505060405180910390f35b34156200042c57600080fd5b6200043662000a4e565b60405180826000191660001916815260200191505060405180910390f35b34156200046057600080fd5b6200046a62000a58565b6040518082815260200191505060405180910390f35b34156200048c57600080fd5b6200049662000a5e565b005b3415620004a457600080fd5b620004ae62000ad7565b005b3415620004bc57600080fd5b620004c662000ad9565b6040518082815260200191505060405180910390f35b3415620004e857600080fd5b620004f262000adf565b604051808273ffffffffffffffffffffffffffffffffffffffff1673ffffffffffffffffffffffffffffffffffffffff16815260200191505060405180910390f35b34156200054057600080fd5b6200054a62000b08565b6040518080602001828103825283818151815260200191508051906020019080838360005b838110156200058c5780820151818401526020810190506200056f565b50505050905090810190601f168015620005ba5780820380516001836020036101000a031916815260200191505b509250505060405180910390f35b3415620005d457600080fd5b620005de62000baa565b005b3415620005ec57600080fd5b620006cb600480803590602001908201803590602001908080601f0160208091040260200160405190810160405280939291908181526020018383808284378201915050505050509190803560001916906020019091908035906020019082018035906020019080806020026020016040519081016040528093929190818152602001838360200280828437820191505050505050919080359060200190820180359060200190808060200260200160405190810160405280939291908181526020018383602002808284378201915050505050509190505062000c23565b604051808273ffffffffffffffffffffffffffffffffffffffff1673ffffffffffffffffffffffffffffffffffffffff16815260200191505060405180910390f35b34156200071957600080fd5b62000723620010c9565b604051808273ffffffffffffffffffffffffffffffffffffffff1673ffffffffffffffffffffffffffffffffffffffff16815260200191505060405180910390f35b34156200077157600080fd5b6200077b620010ef565b6040518082815260200191505060405180910390f35b34156200079d57600080fd5b620007a7620010f5565b6040518082815260200191505060405180910390f35b3415620007c957600080fd5b620007d3620010fb565b6040518082815260200191505060405180910390f35b3415620007f557600080fd5b620007ff62001105565b60405180826000191660001916815260200191505060405180910390f35b34156200082957600080fd5b620008336200110b565b6040518082815260200191505060405180910390f35b34156200085557600080fd5b62000883600480803573ffffffffffffffffffffffffffffffffffffffff1690602001909190505062001111565b005b60105481565b6000600e60009054906101000a900460ff16905090565b600f5481565b600d5481565b6000620008ba620011ed565b829050600081511415620008d25760019150620008d7565b600091505b50919050565b60003373ffffffffffffffffffffffffffffffffffffffff16600160009054906101000a900473ffffffffffffffffffffffffffffffffffffffff1673ffffffffffffffffffffffffffffffffffffffff161415156200093c57600080fd5b6001601460008473ffffffffffffffffffffffffffffffffffffffff1673ffffffffffffffffffffffffffffffffffffffff16815260200190815260200160002060006101000a81548160ff021916908315150217905550601360009054906101000a900473ffffffffffffffffffffffffffffffffffffffff169050919050565b6000806000809054906101000a900473ffffffffffffffffffffffffffffffffffffffff1673ffffffffffffffffffffffffffffffffffffffff168373ffffffffffffffffffffffffffffffffffffffff1614905080915050919050565b600a5481565b600360009054906101000a900473ffffffffffffffffffffffffffffffffffffffff1681565b60075481565b6000600554905090565b600b5481565b6000809054906101000a900473ffffffffffffffffffffffffffffffffffffffff1673ffffffffffffffffffffffffffffffffffffffff163373ffffffffffffffffffffffffffffffffffffffff1614151562000aba57600080fd5b6001600e60006101000a81548160ff021916908315150217905550565b565b600c5481565b60008060009054906101000a900473ffffffffffffffffffffffffffffffffffffffff16905090565b60048054600181600116156101000203166002900480601f01602080910402602001604051908101604052809291908181526020018280546001816001161561010002031660029004801562000ba25780601f1062000b765761010080835404028352916020019162000ba2565b820191906000526020600020905b81548152906001019060200180831162000b8457829003601f168201915b505050505081565b6000809054906101000a900473ffffffffffffffffffffffffffffffffffffffff1673ffffffffffffffffffffffffffffffffffffffff163373ffffffffffffffffffffffffffffffffffffffff1614151562000c0657600080fd5b6000600e60006101000a81548160ff021916908315150217905550565b600080600080601460003373ffffffffffffffffffffffffffffffffffffffff1673ffffffffffffffffffffffffffffffffffffffff16815260200190815260200160002060009054906101000a900460ff16905080151562000c8557600080fd5b6001151562000c9357600080fd5b6001151562000ca157600080fd5b42925030600360009054906101000a900473ffffffffffffffffffffffffffffffffffffffff16338a8a8a8a8960095462000cdb62001201565b808a73ffffffffffffffffffffffffffffffffffffffff1673ffffffffffffffffffffffffffffffffffffffff1681526020018973ffffffffffffffffffffffffffffffffffffffff1673ffffffffffffffffffffffffffffffffffffffff1681526020018873ffffffffffffffffffffffffffffffffffffffff1673ffffffffffffffffffffffffffffffffffffffff168152602001806020018760001916600019168152602001806020018060200186815260200185815260200184810384528a818151815260200191508051906020019080838360005b8381101562000dd257808201518184015260208101905062000db5565b50505050905090810190601f16801562000e005780820380516001836020036101000a031916815260200191505b50848103835288818151815260200191508051906020019060200280838360005b8381101562000e3e57808201518184015260208101905062000e21565b50505050905001848103825287818151815260200191508051906020019060200280838360005b8381101562000e8257808201518184015260208101905062000e65565b505050509050019c50505050505050505050505050604051809103906000f080151562000eae57600080fd5b9150876002908051906020019062000ec892919062001212565b50601360009054906101000a900473ffffffffffffffffffffffffffffffffffffffff1673ffffffffffffffffffffffffffffffffffffffff166345ef219989600554898988336040518763ffffffff167c01000000000000000000000000000000000000000000000000000000000281526004018080602001876000191660001916815260200180602001806020018681526020018573ffffffffffffffffffffffffffffffffffffffff1673ffffffffffffffffffffffffffffffffffffffff16815260200184810384528a818151815260200191508051906020019080838360005b8381101562000fca57808201518184015260208101905062000fad565b50505050905090810190601f16801562000ff85780820380516001836020036101000a031916815260200191505b50848103835288818151815260200191508051906020019060200280838360005b838110156200103657808201518184015260208101905062001019565b50505050905001848103825287818151815260200191508051906020019060200280838360005b838110156200107a5780820151818401526020810190506200105d565b505050509050019950505050505050505050600060405180830381600087803b1515620010a657600080fd5b6102c65a03f11515620010b857600080fd5b505050819350505050949350505050565b600160009054906101000a900473ffffffffffffffffffffffffffffffffffffffff1681565b60085481565b60095481565b6000601054905090565b60055481565b60065481565b6000809054906101000a900473ffffffffffffffffffffffffffffffffffffffff1673ffffffffffffffffffffffffffffffffffffffff163373ffffffffffffffffffffffffffffffffffffffff161415156200116d57600080fd5b600073ffffffffffffffffffffffffffffffffffffffff168173ffffffffffffffffffffffffffffffffffffffff1614151515620011aa57600080fd5b806000806101000a81548173ffffffffffffffffffffffffffffffffffffffff021916908373ffffffffffffffffffffffffffffffffffffffff16021790555050565b602060405190810160405280600081525090565b60405161139380620012c283390190565b828054600181600116156101000203166002900490600052602060002090601f016020900481019282601f106200125557805160ff191683800117855562001286565b8280016001018555821562001286579182015b828111156200128557825182559160200191906001019062001268565b5b50905062001295919062001299565b5090565b620012be91905b80821115620012ba576000816000905550600101620012a0565b5090565b905600606060405234156200001057600080fd5b604051620013933803806200139383398101604052808051906020019091908051906020019091908051906020019091908051820191906020018051906020019091908051820191906020018051820191906020018051906020019091908051906020019091905050336000806101000a81548173ffffffffffffffffffffffffffffffffffffffff021916908373ffffffffffffffffffffffffffffffffffffffff16021790555060008773ffffffffffffffffffffffffffffffffffffffff1614151515620000e057600080fd5b88600160006101000a81548173ffffffffffffffffffffffffffffffffffffffff021916908373ffffffffffffffffffffffffffffffffffffffff16021790555087600260006101000a81548173ffffffffffffffffffffffffffffffffffffffff021916908373ffffffffffffffffffffffffffffffffffffffff16021790555085600390805190602001906200017a92919062000216565b5086600460006101000a81548173ffffffffffffffffffffffffffffffffffffffff021916908373ffffffffffffffffffffffffffffffffffffffff1602179055508360059080519060200190620001d49291906200029d565b508260069080519060200190620001ed9291906200029d565b50846007816000191690555081600881905550806009819055505050505050505050506200039a565b828054600181600116156101000203166002900490600052602060002090601f016020900481019282601f106200025957805160ff19168380011785556200028a565b828001600101855582156200028a579182015b82811115620002895782518255916020019190600101906200026c565b5b5090506200029991906200032c565b5090565b82805482825590600052602060002090810192821562000319579160200282015b82811115620003185782518260006101000a81548173ffffffffffffffffffffffffffffffffffffffff021916908373ffffffffffffffffffffffffffffffffffffffff16021790555091602001919060010190620002be565b5b50905062000328919062000354565b5090565b6200035191905b808211156200034d57600081600090555060010162000333565b5090565b90565b6200039791905b808211156200039357600081816101000a81549073ffffffffffffffffffffffffffffffffffffffff0219169055506001016200035b565b5090565b90565b610fe980620003aa6000396000f3006060604052600436106100ba576000357c0100000000000000000000000000000000000000000000000000000000900463ffffffff16806303d66a97146100bf578063433bcd6114610114578063563b39dc146101695780635c11a3e4146101be5780637a6337fa146101ef5780638da5cb5b146102595780639ba1941b146102ae578063ae1ca692146102d7578063af157c1914610300578063f2fde38b1461036a578063f5c758d6146103a3578063f73c970f146103b8575b600080fd5b34156100ca57600080fd5b6100d261040d565b604051808273ffffffffffffffffffffffffffffffffffffffff1673ffffffffffffffffffffffffffffffffffffffff16815260200191505060405180910390f35b341561011f57600080fd5b610127610433565b604051808273ffffffffffffffffffffffffffffffffffffffff1673ffffffffffffffffffffffffffffffffffffffff16815260200191505060405180910390f35b341561017457600080fd5b61017c610604565b604051808273ffffffffffffffffffffffffffffffffffffffff1673ffffffffffffffffffffffffffffffffffffffff16815260200191505060405180910390f35b34156101c957600080fd5b6101d161062a565b60405180826000191660001916815260200191505060405180910390f35b34156101fa57600080fd5b6102026107db565b6040518080602001828103825283818151815260200191508051906020019060200280838360005b8381101561024557808201518184015260208101905061022a565b505050509050019250505060405180910390f35b341561026457600080fd5b61026c610a16565b604051808273ffffffffffffffffffffffffffffffffffffffff1673ffffffffffffffffffffffffffffffffffffffff16815260200191505060405180910390f35b34156102b957600080fd5b6102c1610a3f565b6040518082815260200191505060405180910390f35b34156102e257600080fd5b6102ea610a45565b6040518082815260200191505060405180910390f35b341561030b57600080fd5b610313610bf6565b6040518080602001828103825283818151815260200191508051906020019060200280838360005b8381101561035657808201518184015260208101905061033b565b505050509050019250505060405180910390f35b341561037557600080fd5b6103a1600480803573ffffffffffffffffffffffffffffffffffffffff16906020019091905050610e31565b005b34156103ae57600080fd5b6103b6610f0b565b005b34156103c357600080fd5b6103cb610f83565b604051808273ffffffffffffffffffffffffffffffffffffffff1673ffffffffffffffffffffffffffffffffffffffff16815260200191505060405180910390f35b600160009054906101000a900473ffffffffffffffffffffffffffffffffffffffff1681565b6000806000806000600160009054906101000a900473ffffffffffffffffffffffffffffffffffffffff1693508373ffffffffffffffffffffffffffffffffffffffff16632f54bf6e336000604051602001526040518263ffffffff167c0100000000000000000000000000000000000000000000000000000000028152600401808273ffffffffffffffffffffffffffffffffffffffff1673ffffffffffffffffffffffffffffffffffffffff168152602001915050602060405180830381600087803b151561050357600080fd5b6102c65a03f1151561051457600080fd5b505050604051805190509250600a60009054906101000a900460ff1691508373ffffffffffffffffffffffffffffffffffffffff1663114765996000604051602001526040518163ffffffff167c0100000000000000000000000000000000000000000000000000000000028152600401602060405180830381600087803b151561059e57600080fd5b6102c65a03f115156105af57600080fd5b5050506040518051905015905082806105c55750815b806105cd5750805b15156105d857600080fd5b600460009054906101000a900473ffffffffffffffffffffffffffffffffffffffff1694505050505090565b600260009054906101000a900473ffffffffffffffffffffffffffffffffffffffff1681565b6000806000806000600160009054906101000a900473ffffffffffffffffffffffffffffffffffffffff1693508373ffffffffffffffffffffffffffffffffffffffff16632f54bf6e336000604051602001526040518263ffffffff167c0100000000000000000000000000000000000000000000000000000000028152600401808273ffffffffffffffffffffffffffffffffffffffff1673ffffffffffffffffffffffffffffffffffffffff168152602001915050602060405180830381600087803b15156106fa57600080fd5b6102c65a03f1151561070b57600080fd5b505050604051805190509250600a60009054906101000a900460ff1691508373ffffffffffffffffffffffffffffffffffffffff1663114765996000604051602001526040518163ffffffff167c0100000000000000000000000000000000000000000000000000000000028152600401602060405180830381600087803b151561079557600080fd5b6102c65a03f115156107a657600080fd5b5050506040518051905015905082806107bc5750815b806107c45750805b15156107cf57600080fd5b60075494505050505090565b6107e3610fa9565b600080600080600160009054906101000a900473ffffffffffffffffffffffffffffffffffffffff1693508373ffffffffffffffffffffffffffffffffffffffff16632f54bf6e336000604051602001526040518263ffffffff167c0100000000000000000000000000000000000000000000000000000000028152600401808273ffffffffffffffffffffffffffffffffffffffff1673ffffffffffffffffffffffffffffffffffffffff168152602001915050602060405180830381600087803b15156108b157600080fd5b6102c65a03f115156108c257600080fd5b505050604051805190509250600a60009054906101000a900460ff1691508373ffffffffffffffffffffffffffffffffffffffff1663114765996000604051602001526040518163ffffffff167c0100000000000000000000000000000000000000000000000000000000028152600401602060405180830381600087803b151561094c57600080fd5b6102c65a03f1151561095d57600080fd5b5050506040518051905015905082806109735750815b8061097b5750805b151561098657600080fd5b6005805480602002602001604051908101604052809291908181526020018280548015610a0857602002820191906000526020600020905b8160009054906101000a900473ffffffffffffffffffffffffffffffffffffffff1673ffffffffffffffffffffffffffffffffffffffff16815260200190600101908083116109be575b505050505094505050505090565b60008060009054906101000a900473ffffffffffffffffffffffffffffffffffffffff16905090565b60085481565b6000806000806000600160009054906101000a900473ffffffffffffffffffffffffffffffffffffffff1693508373ffffffffffffffffffffffffffffffffffffffff16632f54bf6e336000604051602001526040518263ffffffff167c0100000000000000000000000000000000000000000000000000000000028152600401808273ffffffffffffffffffffffffffffffffffffffff1673ffffffffffffffffffffffffffffffffffffffff168152602001915050602060405180830381600087803b1515610b1557600080fd5b6102c65a03f11515610b2657600080fd5b505050604051805190509250600a60009054906101000a900460ff1691508373ffffffffffffffffffffffffffffffffffffffff1663114765996000604051602001526040518163ffffffff167c0100000000000000000000000000000000000000000000000000000000028152600401602060405180830381600087803b1515610bb057600080fd5b6102c65a03f11515610bc157600080fd5b505050604051805190501590508280610bd75750815b80610bdf5750805b1515610bea57600080fd5b60085494505050505090565b610bfe610fa9565b600080600080600160009054906101000a900473ffffffffffffffffffffffffffffffffffffffff1693508373ffffffffffffffffffffffffffffffffffffffff16632f54bf6e336000604051602001526040518263ffffffff167c0100000000000000000000000000000000000000000000000000000000028152600401808273ffffffffffffffffffffffffffffffffffffffff1673ffffffffffffffffffffffffffffffffffffffff168152602001915050602060405180830381600087803b1515610ccc57600080fd5b6102c65a03f11515610cdd57600080fd5b505050604051805190509250600a60009054906101000a900460ff1691508373ffffffffffffffffffffffffffffffffffffffff1663114765996000604051602001526040518163ffffffff167c0100000000000000000000000000000000000000000000000000000000028152600401602060405180830381600087803b1515610d6757600080fd5b6102c65a03f11515610d7857600080fd5b505050604051805190501590508280610d8e5750815b80610d965750805b1515610da157600080fd5b6006805480602002602001604051908101604052809291908181526020018280548015610e2357602002820191906000526020600020905b8160009054906101000a900473ffffffffffffffffffffffffffffffffffffffff1673ffffffffffffffffffffffffffffffffffffffff1681526020019060010190808311610dd9575b505050505094505050505090565b6000809054906101000a900473ffffffffffffffffffffffffffffffffffffffff1673ffffffffffffffffffffffffffffffffffffffff163373ffffffffffffffffffffffffffffffffffffffff16141515610e8c57600080fd5b600073ffffffffffffffffffffffffffffffffffffffff168173ffffffffffffffffffffffffffffffffffffffff1614151515610ec857600080fd5b806000806101000a81548173ffffffffffffffffffffffffffffffffffffffff021916908373ffffffffffffffffffffffffffffffffffffffff16021790555050565b6000809054906101000a900473ffffffffffffffffffffffffffffffffffffffff1673ffffffffffffffffffffffffffffffffffffffff163373ffffffffffffffffffffffffffffffffffffffff16141515610f6657600080fd5b6001600a60006101000a81548160ff021916908315150217905550565b600460009054906101000a900473ffffffffffffffffffffffffffffffffffffffff1681565b6020604051908101604052806000815250905600a165627a7a72305820909acc74206936584258a32751812a3dd05488389543280570b2785b477d5f2c0029a165627a7a7230582005c2c4200707d3a13fa0b3c331c6d6690dcd39084514408eabb062790c42803c00296060604052336000806101000a81548173ffffffffffffffffffffffffffffffffffffffff021916908373ffffffffffffffffffffffffffffffffffffffff160217905550610508806100536000396000f300606060405260043610610057576000357c0100000000000000000000000000000000000000000000000000000000900463ffffffff16806345ef21991461005c5780638da5cb5b1461016e578063f2fde38b146101c3575b600080fd5b341561006757600080fd5b61016c600480803590602001908201803590602001908080601f0160208091040260200160405190810160405280939291908181526020018383808284378201915050505050509190803560001916906020019091908035906020019082018035906020019080806020026020016040519081016040528093929190818152602001838360200280828437820191505050505050919080359060200190820180359060200190808060200260200160405190810160405280939291908181526020018383602002808284378201915050505050509190803590602001909190803573ffffffffffffffffffffffffffffffffffffffff169060200190919050506101fc565b005b341561017957600080fd5b6101816103d9565b604051808273ffffffffffffffffffffffffffffffffffffffff1673ffffffffffffffffffffffffffffffffffffffff16815260200191505060405180910390f35b34156101ce57600080fd5b6101fa600480803573ffffffffffffffffffffffffffffffffffffffff16906020019091905050610402565b005b6000809054906101000a900473ffffffffffffffffffffffffffffffffffffffff1673ffffffffffffffffffffffffffffffffffffffff163373ffffffffffffffffffffffffffffffffffffffff1614151561025757600080fd5b7ffc989a9618eb34fd6e0f6e0058fa2bd0eac01d863f6626a767b4d8ec647c501c8686868686866040518080602001876000191660001916815260200180602001806020018681526020018573ffffffffffffffffffffffffffffffffffffffff1673ffffffffffffffffffffffffffffffffffffffff16815260200184810384528a818151815260200191508051906020019080838360005b8381101561030c5780820151818401526020810190506102f1565b50505050905090810190601f1680156103395780820380516001836020036101000a031916815260200191505b50848103835288818151815260200191508051906020019060200280838360005b8381101561037557808201518184015260208101905061035a565b50505050905001848103825287818151815260200191508051906020019060200280838360005b838110156103b757808201518184015260208101905061039c565b50505050905001995050505050505050505060405180910390a1505050505050565b60008060009054906101000a900473ffffffffffffffffffffffffffffffffffffffff16905090565b6000809054906101000a900473ffffffffffffffffffffffffffffffffffffffff1673ffffffffffffffffffffffffffffffffffffffff163373ffffffffffffffffffffffffffffffffffffffff1614151561045d57600080fd5b600073ffffffffffffffffffffffffffffffffffffffff168173ffffffffffffffffffffffffffffffffffffffff161415151561049957600080fd5b806000806101000a81548173ffffffffffffffffffffffffffffffffffffffff021916908373ffffffffffffffffffffffffffffffffffffffff160217905550505600a165627a7a72305820c1659ea3bdf4b34537c1b4206d05f5a628dce61505536d4e823c0ca6adf1d3ab00296060604052341561000f57600080fd5b6040516020806102df83398101604052808051906020019091905050336000806101000a81548173ffffffffffffffffffffffffffffffffffffffff021916908373ffffffffffffffffffffffffffffffffffffffff16021790555080600160006101000a81548173ffffffffffffffffffffffffffffffffffffffff021916908373ffffffffffffffffffffffffffffffffffffffff16021790555050610223806100bc6000396000f30060606040526004361061004c576000357c0100000000000000000000000000000000000000000000000000000000900463ffffffff16806341c0e1b514610051578063a3b61a9c14610066575b600080fd5b341561005c57600080fd5b6100646100a1565b005b341561007157600080fd5b61008b600480803560001916906020019091905050610115565b6040518082815260200191505060405180910390f35b6000809054906101000a900473ffffffffffffffffffffffffffffffffffffffff1673ffffffffffffffffffffffffffffffffffffffff163373ffffffffffffffffffffffffffffffffffffffff161415156100fc57600080fd5b3373ffffffffffffffffffffffffffffffffffffffff16ff5b60008060009054906101000a900473ffffffffffffffffffffffffffffffffffffffff1673ffffffffffffffffffffffffffffffffffffffff163373ffffffffffffffffffffffffffffffffffffffff1614151561017257600080fd5b434283336040518085815260200184815260200183600019166000191681526020018273ffffffffffffffffffffffffffffffffffffffff1673ffffffffffffffffffffffffffffffffffffffff166c0100000000000000000000000002815260140194505050505060405180910390206001900460028190555060025490509190505600a165627a7a72305820fbfdcb4d24db9340a6fd7f364b82aabbd8452fa24a5d436f9298a490f32a55cb0029a165627a7a72305820fcbd75f0ebdb4c06425815db4aaeb42e209a6525bd13d66a14eab37d702118480029",
  "source": "pragma solidity ^0.4.18;\n\n//Import all necessary contracts\nimport './MatryxOracleMessenger.sol';\nimport './Tournament.sol';\nimport './Ownable.sol';\n\n//import submissions contract\n\n//Initialize the contract\ncontract MatryxPlatformAlphaMain is MatryxOracleMessenger{\n\n  event TournamentCreated(address _owner, address _tournamentAddress, string _tournamentName, bytes32 _externalAddress, uint256 _MTXReward, uint256 _entryFee);\n\t//Initialize variables\n  address[] public allTournaments; //convert into a map?\n  mapping(address=>bool) tournamentExists;\n  //TODO for when anyone can submit a tournament\n  // mapping(address => TournamentSubmitters) public submitters\n\n  // ----------------- MTX Balance Methods -----------------\n\n  // Prepares the user's balance (allowing them to use the platform)\n  function prepareBalance(uint256 toIgnore) public\n  {\n      this.Query(bytes32(toIgnore), msg.sender);\n  }\n\n  // Returns whether or not the user can use the platform\n  function balanceIsNonZero() public view returns (bool)\n  {\n      uint balance = latestResponseFromOracle(msg.sender);\n      bool nonZero = balance > 0;\n      return nonZero;\n  }\n\n  // Returns the user's balance\n  function getBalance() public constant returns (uint256)\n  {\n      uint256 balance = latestResponseFromOracle(msg.sender);\n      return balance;\n  }\n\n  // ----------------- Tournament Info Methods -----------------\n\n  // Gets a tournament by its address\n  function tournamentByAddress(address tournamentAddress) public view returns (bytes32)\n  {\n      require(tournamentExists[tournamentAddress]);\n      Tournament t = Tournament(tournamentAddress);\n      bytes32 externalAddress = t.getExternalAddress();\n\n      return (externalAddress);\n  }\n\n  // Gets the total number of tournaments\n  function tournamentCount() public constant returns (uint256)\n  {\n      return allTournaments.length;\n  }\n\n  // ----------------- Tournament Entry Methods -----------------\n\n  // A function allowing the user to make submissions.\n  // This function charges the user MTX as an entry fee\n  // set by the tournament creator.\n  function enterTournament(address _tournamentAddress) public returns (address _submissionViewer)\n  {\n      Tournament tournament = Tournament(_tournamentAddress);\n      // TODO: Charge the user the MTX entry fee.\n      address submissionViewerAddress = tournament.enterUserInTournament(msg.sender);\n      return submissionViewerAddress;\n  }\n\n  // ----------------- Tournament Editing Methods -----------------\n  \n  //Create a new tournament if you own the contract ie: just Matryx Team for now.\n  function createTournament(string _tournamentName, bytes32 _externalAddress, uint256 _MTXReward, uint256 _entryFee) public onlyOwner returns (address)\n  {\n    address newTournament = new Tournament(msg.sender, _tournamentName, _externalAddress, _MTXReward, _entryFee);\n    TournamentCreated(msg.sender, newTournament, _tournamentName, _externalAddress, _MTXReward, _entryFee);\n    allTournaments.push(newTournament);\n  }\n\n}",
  "sourcePath": "/Users/maxhoward/Desktop/Ethereum Development/Matryx AWS/Projects/matryx-alpha-source/contracts/MatryxPlatformAlphaMain.sol",
  "compiler": {
    "name": "solc",
    "version": "0.4.18+commit.9cf6e910.Emscripten.clang"
  },
  "schemaVersion": "1.0.1",
  "updatedAt": "2017-12-07T03:00:24.968Z"
}