{
  "contractName": "MatryxRoundFactory",
  "abi": [
    {
      "constant": true,
      "inputs": [],
      "name": "matryxTokenAddress",
      "outputs": [
        {
          "name": "",
          "type": "address"
        }
      ],
      "payable": false,
      "stateMutability": "view",
      "type": "function"
    },
    {
      "constant": true,
      "inputs": [],
      "name": "matryxSubmissionFactoryAddress",
      "outputs": [
        {
          "name": "",
          "type": "address"
        }
      ],
      "payable": false,
      "stateMutability": "view",
      "type": "function"
    },
    {
      "inputs": [
        {
          "name": "_matryxTokenAddress",
          "type": "address"
        },
        {
          "name": "_matryxSubmissionFactoryAddress",
          "type": "address"
        }
      ],
      "payable": false,
      "stateMutability": "nonpayable",
      "type": "constructor"
    },
    {
      "constant": false,
      "inputs": [
        {
          "name": "_platformAddress",
          "type": "address"
        },
        {
          "name": "_tournamentAddress",
          "type": "address"
        },
        {
          "name": "_owner",
          "type": "address"
        },
        {
          "components": [
            {
              "name": "start",
              "type": "uint256"
            },
            {
              "name": "end",
              "type": "uint256"
            },
            {
              "name": "reviewDuration",
              "type": "uint256"
            },
            {
              "name": "bounty",
              "type": "uint256"
            }
          ],
          "name": "roundData",
          "type": "tuple"
        }
      ],
      "name": "createRound",
      "outputs": [
        {
          "name": "_roundAddress",
          "type": "address"
        }
      ],
      "payable": false,
      "stateMutability": "nonpayable",
      "type": "function"
    }
  ],
  "bytecode": "0x608060405234801561001057600080fd5b50604051604080612722833981018060405261002f9190810190610073565b60018054600160a060020a03938416600160a060020a031991821617909155600080549290931691161790556100b9565b600061006c82516100ad565b9392505050565b6000806040838503121561008657600080fd5b60006100928585610060565b92505060206100a385828601610060565b9150509250929050565b600160a060020a031690565b61265a806100c86000396000f3006080604052600436106100565763ffffffff7c010000000000000000000000000000000000000000000000000000000060003504166329cc545e811461005b5780636ecd3a9c14610086578063b0ff5492146100a6575b600080fd5b34801561006757600080fd5b506100706100bb565b60405161007d91906102c3565b60405180910390f35b34801561009257600080fd5b506100706100a13660046101fa565b6100d7565b3480156100b257600080fd5b50610070610140565b60015473ffffffffffffffffffffffffffffffffffffffff1681565b6001546000805490918291879173ffffffffffffffffffffffffffffffffffffffff90811691889116878761010a61015c565b610119969594939291906102d7565b604051809103906000f080158015610135573d6000803e3d6000fd5b509695505050505050565b60005473ffffffffffffffffffffffffffffffffffffffff1681565b6040516122ab8061037683390190565b60006101788235610359565b9392505050565b60006080828403121561019157600080fd5b61019b6080610332565b905060006101a984846101ee565b82525060206101ba848483016101ee565b60208301525060406101ce848285016101ee565b60408301525060606101e2848285016101ee565b60608301525092915050565b60006101788235610372565b60008060008060e0858703121561021057600080fd5b600061021c878761016c565b945050602061022d8782880161016c565b935050604061023e8782880161016c565b925050606061024f8782880161017f565b91505092959194509250565b61026481610359565b82525050565b8051608083019061027b84826102ba565b50602082015161028e60208501826102ba565b5060408201516102a160408501826102ba565b5060608201516102b460608501826102ba565b50505050565b61026481610372565b602081016102d1828461025b565b92915050565b61012081016102e6828961025b565b6102f3602083018861025b565b610300604083018761025b565b61030d606083018661025b565b61031a608083018561025b565b61032760a083018461026a565b979650505050505050565b60405181810167ffffffffffffffff8111828210171561035157600080fd5b604052919050565b73ffffffffffffffffffffffffffffffffffffffff1690565b90560060806040523480156200001157600080fd5b5060405161012080620022ab833981018060405262000034919081019062000174565b6000805460048054600160a060020a03898116600160a060020a031992831617909255600180548b841690831617905560028054898416908316179055858216928116331781169290921790925560038054928616929091169190911790556060810151600b55805160208201516040830151620000bd929190640100000000620000c9810204565b50505050505062000240565b600892909255600955600a55565b6000620000e5825162000231565b9392505050565b600060808284031215620000ff57600080fd5b6200010b608062000209565b905060006200011b848462000166565b82525060206200012e8484830162000166565b6020830152506040620001448482850162000166565b60408301525060606200015a8482850162000166565b60608301525092915050565b6000620000e582516200023d565b60008060008060008061012087890312156200018f57600080fd5b60006200019d8989620000d7565b9650506020620001b089828a01620000d7565b9550506040620001c389828a01620000d7565b9450506060620001d689828a01620000d7565b9350506080620001e989828a01620000d7565b92505060a0620001fc89828a01620000ec565b9150509295509295509295565b60405181810167ffffffffffffffff811182821017156200022957600080fd5b604052919050565b600160a060020a031690565b90565b61205b80620002506000396000f3006080604052600436106101c15763ffffffff7c010000000000000000000000000000000000000000000000000000000060003504166303d66a9781146101c657806310fe9ae8146101f157806311fb4804146102065780631865c57d146102335780631cdb7de514610255578063241b15ad1461027757806328a070251461028c57806329cc545e146102a15780632f54bf6e146102b65780632fc1f190146102d65780633197cbb6146102eb578063389994f9146103005780633b249810146103155780633d6227801461032a57806347e405531461034a57806354f6aa201461035f57806356974da314610381578063648036ae146103a157806378e97925146103b65780637df2d748146103cb5780638499a138146103eb5780638734fe4c1461040b578063893d20e81461042b5780638da5cb5b14610440578063943dfef114610455578063b0ff54921461046a578063b288e1a91461047f578063bbe4fd5014610494578063c2d426cf146104a9578063dbe55e56146104c9578063df4f9dba146104de578063e76c293e146104fe578063ed09846014610513578063f2fde38b14610528578063f49bff7b14610548578063f8b2cb4f1461055d575b600080fd5b3480156101d257600080fd5b506101db61057d565b6040516101e89190611e2b565b60405180910390f35b3480156101fd57600080fd5b506101db610599565b34801561021257600080fd5b50610226610221366004611a4e565b6105b6565b6040516101e89190611eca565b34801561023f57600080fd5b5061024861069a565b6040516101e89190611ee8565b34801561026157600080fd5b50610275610270366004611a92565b610718565b005b34801561028357600080fd5b5061024861075f565b34801561029857600080fd5b50610275610769565b3480156102ad57600080fd5b506101db610a44565b3480156102c257600080fd5b506102266102d1366004611a4e565b610a60565b3480156102e257600080fd5b506101db610a81565b3480156102f757600080fd5b50610248610a9d565b34801561030c57600080fd5b50610226610aa3565b34801561032157600080fd5b50610248610ade565b34801561033657600080fd5b506101db610345366004611c1d565b610ae4565b34801561035657600080fd5b506101db610c94565b34801561036b57600080fd5b50610374610cb0565b6040516101e89190611e54565b34801561038d57600080fd5b5061022661039c366004611c1d565b610d1f565b3480156103ad57600080fd5b50610248610da2565b3480156103c257600080fd5b50610248610da8565b3480156103d757600080fd5b506101db6103e6366004611c1d565b610dae565b3480156103f757600080fd5b50610226610406366004611a4e565b610de3565b34801561041757600080fd5b506101db610426366004611acc565b610e0d565b34801561043757600080fd5b506101db6111f3565b34801561044c57600080fd5b506101db61120f565b34801561046157600080fd5b5061024861122b565b34801561047657600080fd5b506101db611231565b34801561048b57600080fd5b506101db61124d565b3480156104a057600080fd5b50610248611269565b3480156104b557600080fd5b506102756104c4366004611ba0565b61126d565b3480156104d557600080fd5b506101db611445565b3480156104ea57600080fd5b506101db6104f9366004611c1d565b611461565b34801561050a57600080fd5b506101db6114a8565b34801561051f57600080fd5b506103746114c4565b34801561053457600080fd5b50610275610543366004611a4e565b611531565b34801561055457600080fd5b506102486115b3565b34801561056957600080fd5b50610248610578366004611a4e565b6115b9565b60025473ffffffffffffffffffffffffffffffffffffffff1681565b60045473ffffffffffffffffffffffffffffffffffffffff165b90565b73ffffffffffffffffffffffffffffffffffffffff8116600090815260116020526040812054819060ff1615156105ec57600080fd5b506040517fa52dd12f000000000000000000000000000000000000000000000000000000008152829073ffffffffffffffffffffffffffffffffffffffff82169063a52dd12f90610641903390600401611e2b565b602060405180830381600087803b15801561065b57600080fd5b505af115801561066f573d6000803e3d6000fd5b505050506040513d601f19601f820116820180604052506106939190810190611bff565b9392505050565b60006008544210156106b05760005b90506105b3565b600854421180156106c2575060095442105b156106ce5760016106a9565b60095442101580156106f35750600a546009546106f09163ffffffff61166916565b42105b156106ff5760026106a9565b600e54600010156107115760036106a9565b60046106a9565b3360009081526011602052604090205460ff16151561073657600080fd5b73ffffffffffffffffffffffffffffffffffffffff9091166000908152600f6020526040902055565b6014546012540390565b33600090815260106020526040812054151561078457600080fd5b600461078e61069a565b146107ce576040517f08c379a00000000000000000000000000000000000000000000000000000000081526004016107c590611ed8565b60405180910390fd5b336000908152600d602052604090205460ff16156107eb57600080fd5b600c5460ff1615156108de57600454601354600b5473ffffffffffffffffffffffffffffffffffffffff9092169163a9059cbb913391610843916002916108379163ffffffff61167816565b9063ffffffff61168f16565b6040518363ffffffff167c010000000000000000000000000000000000000000000000000000000002815260040161087c929190611e39565b602060405180830381600087803b15801561089657600080fd5b505af11580156108aa573d6000803e3d6000fd5b505050506040513d601f19601f820116820180604052506108ce9190810190611bff565b15156108d957600080fd5b610a09565b50601354600454600b5473ffffffffffffffffffffffffffffffffffffffff9091169063a9059cbb903390610973907fffffffffffffffffffffffffffffffffffffffffffffffffffffffffffffffff86019061096790879082907ffffffffffffffffffffffffffffffffffffffffffffffffffffffffffffffffe830163ffffffff61168f16565b9063ffffffff61167816565b6040518363ffffffff167c01000000000000000000000000000000000000000000000000000000000281526004016109ac929190611e39565b602060405180830381600087803b1580156109c657600080fd5b505af11580156109da573d6000803e3d6000fd5b505050506040513d601f19601f820116820180604052506109fe9190810190611bff565b1515610a0957600080fd5b50336000908152600d6020526040902080547fffffffffffffffffffffffffffffffffffffffffffffffffffffffffffffff00166001179055565b60045473ffffffffffffffffffffffffffffffffffffffff1681565b60005473ffffffffffffffffffffffffffffffffffffffff91821691161490565b60015473ffffffffffffffffffffffffffffffffffffffff1690565b60095481565b6000600e6000815481101515610ab557fe5b60009182526020909120015473ffffffffffffffffffffffffffffffffffffffff161515905090565b600a5481565b6000803383601281815481101515610af857fe5b6000918252602090912001546040517fa52dd12f00000000000000000000000000000000000000000000000000000000815273ffffffffffffffffffffffffffffffffffffffff9091169063a52dd12f90610b57908590600401611e2b565b602060405180830381600087803b158015610b7157600080fd5b505af1158015610b85573d6000803e3d6000fd5b505050506040513d601f19601f82011682018060405250610ba99190810190611bff565b1515610bb457600080fd5b6012805486908110610bc257fe5b9060005260206000200160009054906101000a900473ffffffffffffffffffffffffffffffffffffffff1692508273ffffffffffffffffffffffffffffffffffffffff1663a5faa1256040518163ffffffff167c0100000000000000000000000000000000000000000000000000000000028152600401602060405180830381600087803b158015610c5357600080fd5b505af1158015610c67573d6000803e3d6000fd5b505050506040513d601f19601f82011682018060405250610c8b9190810190611a74565b95945050505050565b60075473ffffffffffffffffffffffffffffffffffffffff1681565b60606012805480602002602001604051908101604052809291908181526020018280548015610d1557602002820191906000526020600020905b815473ffffffffffffffffffffffffffffffffffffffff168152600190910190602001808311610cea575b5050505050905090565b60125460009081908310610d3257600080fd5b6012805484908110610d4057fe5b6000918252602090912001546040517fa52dd12f00000000000000000000000000000000000000000000000000000000815273ffffffffffffffffffffffffffffffffffffffff9091169150819063a52dd12f90610641903390600401611e2b565b60055481565b60085481565b600e805482908110610dbc57fe5b60009182526020909120015473ffffffffffffffffffffffffffffffffffffffff16905081565b73ffffffffffffffffffffffffffffffffffffffff166000908152600f6020526040902054151590565b6000610e176116de565b600254600090819073ffffffffffffffffffffffffffffffffffffffff163314610e4057600080fd5b6001610e4a61069a565b14610e5457600080fd5b73ffffffffffffffffffffffffffffffffffffffff86161515610e7657600080fd5b6040805160608101825260015473ffffffffffffffffffffffffffffffffffffffff908116825260025481166020830152308284015260035492517f867cda48000000000000000000000000000000000000000000000000000000008152919550919091169063867cda4890610ef8908c908c908c9089908c90600401611e65565b602060405180830381600087803b158015610f1257600080fd5b505af1158015610f26573d6000803e3d6000fd5b505050506040513d601f19601f82011682018060405250610f4a9190810190611a74565b604080518082018252600180825260128054602080850191825273ffffffffffffffffffffffffffffffffffffffff8716600081815260118352878120965187547fffffffffffffffffffffffffffffffffffffffffffffffffffffffffffffff001690151517875592519585019590955582549384019092557fbb8a6a4669ba250d26cd7a459eca9d215f8307e33aebe50379bc5a3617ec3444909201805473ffffffffffffffffffffffffffffffffffffffff1916909317909255338152601090915220549092501515611089576020850151601380546001810182556000919091527f66de8ffda797e3de9c05e8fc57b3bf0ec28a930d40b0d285d93c06501cf6a09001805473ffffffffffffffffffffffffffffffffffffffff191673ffffffffffffffffffffffffffffffffffffffff9092169190911790555b33600090815260106020908152604082208054600181018255908352912001805473ffffffffffffffffffffffffffffffffffffffff191673ffffffffffffffffffffffffffffffffffffffff8416179055600373ffffffffffffffffffffffffffffffffffffffff87166000908152600f602052604081209190915590505b885181101561115e576002600f60008b8481518110151561112657fe5b602090810290910181015173ffffffffffffffffffffffffffffffffffffffff16825281019190915260400160002055600101611109565b6002546040517f4644c51b00000000000000000000000000000000000000000000000000000000815273ffffffffffffffffffffffffffffffffffffffff90911690634644c51b906111b4908590600401611e2b565b600060405180830381600087803b1580156111ce57600080fd5b505af11580156111e2573d6000803e3d6000fd5b50939b9a5050505050505050505050565b60005473ffffffffffffffffffffffffffffffffffffffff1690565b60005473ffffffffffffffffffffffffffffffffffffffff1681565b600b5481565b60035473ffffffffffffffffffffffffffffffffffffffff1681565b60065473ffffffffffffffffffffffffffffffffffffffff1681565b4290565b6002546000908190819073ffffffffffffffffffffffffffffffffffffffff16331461129857600080fd5b83518551146112a657600080fd5b84516112b990600e9060208801906116fe565b505060045473ffffffffffffffffffffffffffffffffffffffff16915060005b845181101561143e5783818151811015156112f057fe5b9060200190602002015182019150670de0b6b3a7640000821115151561131557600080fd5b611335858281518110151561132657fe5b906020019060200201516116b3565b151561134057600080fd5b8273ffffffffffffffffffffffffffffffffffffffff1663a9059cbb868381518110151561136a57fe5b906020019060200201516113aa670de0b6b3a7640000610967898781518110151561139157fe5b60209081029091010151600b549063ffffffff61168f16565b6040518363ffffffff167c01000000000000000000000000000000000000000000000000000000000281526004016113e3929190611e39565b602060405180830381600087803b1580156113fd57600080fd5b505af1158015611411573d6000803e3d6000fd5b505050506040513d601f19601f820116820180604052506114359190810190611bff565b506001016112d9565b5050505050565b60015473ffffffffffffffffffffffffffffffffffffffff1681565b601254600090821061147257600080fd5b601280548390811061148057fe5b60009182526020909120015473ffffffffffffffffffffffffffffffffffffffff1692915050565b60025473ffffffffffffffffffffffffffffffffffffffff1690565b6060600e805480602002602001604051908101604052809291908181526020018280548015610d155760200282019190600052602060002090815473ffffffffffffffffffffffffffffffffffffffff168152600190910190602001808311610cea575050505050905090565b60005473ffffffffffffffffffffffffffffffffffffffff16331461155557600080fd5b73ffffffffffffffffffffffffffffffffffffffff8116151561157757600080fd5b6000805473ffffffffffffffffffffffffffffffffffffffff191673ffffffffffffffffffffffffffffffffffffffff92909216919091179055565b600b5490565b600480546040517f70a0823100000000000000000000000000000000000000000000000000000000815260009273ffffffffffffffffffffffffffffffffffffffff909216916370a082319161161191869101611e2b565b602060405180830381600087803b15801561162b57600080fd5b505af115801561163f573d6000803e3d6000fd5b505050506040513d601f19601f820116820180604052506116639190810190611c3b565b92915050565b60008282018381101561069357fe5b600080828481151561168657fe5b04949350505050565b60008282028315806116ab57508284828115156116a857fe5b04145b151561069357fe5b73ffffffffffffffffffffffffffffffffffffffff1660009081526011602052604090205460ff1690565b604080516060810182526000808252602082018190529181019190915290565b82805482825590600052602060002090810192821561176d579160200282015b8281111561176d578251825473ffffffffffffffffffffffffffffffffffffffff191673ffffffffffffffffffffffffffffffffffffffff90911617825560209092019160019091019061171e565b5061177992915061177d565b5090565b6105b391905b8082111561177957805473ffffffffffffffffffffffffffffffffffffffff19168155600101611783565b60006106938235611f8e565b60006106938251611f8e565b6000601f820183136117d757600080fd5b81356117ea6117e582611f1d565b611ef6565b9150818183526020840193506020810190508385602084028201111561180f57600080fd5b60005b8381101561183b578161182588826117ae565b8452506020928301929190910190600101611812565b5050505092915050565b6000601f8201831361185657600080fd5b81356118646117e582611f1d565b9150818183526020840193506020810190508385602084028201111561188957600080fd5b60005b8381101561183b578161189f8882611a2a565b845250602092830192919091019060010161188c565b6000601f820183136118c657600080fd5b81356118d46117e582611f1d565b915081818352602084019350602081019050838560208402820111156118f957600080fd5b60005b8381101561183b578161190f8882611a36565b84525060209283019291909101906001016118fc565b60006106938235611fa7565b60006106938251611fa7565b6000601f8201831361194e57600080fd5b813561195c6117e582611f3e565b9150808252602083016020830185838301111561197857600080fd5b611983838284611fc1565b50505092915050565b60006080828403121561199e57600080fd5b6119a86080611ef6565b9050813567ffffffffffffffff8111156119c157600080fd5b6119cd8482850161193d565b82525060206119de848483016117ae565b602083015250604082013567ffffffffffffffff8111156119fe57600080fd5b611a0a8482850161193d565b6040830152506060611a1e84828501611925565b60608301525092915050565b60006106938235611fac565b600061069382356105b3565b600061069382516105b3565b600060208284031215611a6057600080fd5b6000611a6c84846117ae565b949350505050565b600060208284031215611a8657600080fd5b6000611a6c84846117ba565b60008060408385031215611aa557600080fd5b6000611ab185856117ae565b9250506020611ac285828601611a36565b9150509250929050565b600080600080600060a08688031215611ae457600080fd5b853567ffffffffffffffff811115611afb57600080fd5b611b07888289016117c6565b955050602086013567ffffffffffffffff811115611b2457600080fd5b611b3088828901611845565b945050604086013567ffffffffffffffff811115611b4d57600080fd5b611b59888289016117c6565b9350506060611b6a888289016117ae565b925050608086013567ffffffffffffffff811115611b8757600080fd5b611b938882890161198c565b9150509295509295909350565b60008060408385031215611bb357600080fd5b823567ffffffffffffffff811115611bca57600080fd5b611bd6858286016117c6565b925050602083013567ffffffffffffffff811115611bf357600080fd5b611ac2858286016118b5565b600060208284031215611c1157600080fd5b6000611a6c8484611931565b600060208284031215611c2f57600080fd5b6000611a6c8484611a36565b600060208284031215611c4d57600080fd5b6000611a6c8484611a42565b611c6281611f8e565b82525050565b6000611c7382611f8a565b808452602084019350611c8583611f84565b60005b82811015611cb557611c9b868351611c59565b611ca482611f84565b602096909601959150600101611c88565b5093949350505050565b6000611cca82611f8a565b808452602084019350611cdc83611f84565b60005b82811015611cb557611cf2868351611e19565b611cfb82611f84565b602096909601959150600101611cdf565b611c6281611fa7565b6000611d2082611f8a565b808452611d34816020860160208601611fcd565b611d3d81611ff9565b9093016020019392505050565b601f81527f5468697320746f75726e616d656e74206973207374696c6c2076616c69642e00602082015260400190565b80516060830190611d8b8482611c59565b506020820151611d9e6020850182611c59565b506040820151611db16040850182611c59565b50505050565b8051608080845260009190840190611dcf8282611d15565b9150506020830151611de46020860182611c59565b5060408301518482036040860152611dfc8282611d15565b9150506060830151611e116060860182611d0c565b509392505050565b611c6281611fac565b611c62816105b3565b602081016116638284611c59565b60408101611e478285611c59565b6106936020830184611e22565b602080825281016106938184611c68565b60e08082528101611e768188611c68565b90508181036020830152611e8a8187611cbf565b90508181036040830152611e9e8186611c68565b9050611ead6060830185611d7a565b81810360c0830152611ebf8184611db7565b979650505050505050565b602081016116638284611d0c565b6020808252810161166381611d4a565b602081016116638284611e22565b60405181810167ffffffffffffffff81118282101715611f1557600080fd5b604052919050565b600067ffffffffffffffff821115611f3457600080fd5b5060209081020190565b600067ffffffffffffffff821115611f5557600080fd5b506020601f919091017fffffffffffffffffffffffffffffffffffffffffffffffffffffffffffffffe0160190565b60200190565b5190565b73ffffffffffffffffffffffffffffffffffffffff1690565b151590565b6fffffffffffffffffffffffffffffffff1690565b82818337506000910152565b60005b83811015611fe8578181015183820152602001611fd0565b83811115611db15750506000910152565b601f017fffffffffffffffffffffffffffffffffffffffffffffffffffffffffffffffe016905600a265627a7a72305820238ee9e71a483d10c02efcd4b10fa3b2cd6d4d95a54a36a4bfc41683b10a39006c6578706572696d656e74616cf50037a265627a7a7230582080a284c3e2ad3ff9da710e12ce40e36c6214b10b27b95ab9a7627551236420406c6578706572696d656e74616cf50037",
  "source": "pragma solidity ^0.4.18;\npragma experimental ABIEncoderV2;\n\nimport '../MatryxRound.sol';\nimport \"../../libraries/LibConstruction.sol\";\n\ncontract MatryxRoundFactory {\n\taddress public matryxSubmissionFactoryAddress;\n\taddress public matryxTokenAddress;\n\n\tfunction MatryxRoundFactory(address _matryxTokenAddress, address _matryxSubmissionFactoryAddress) public {\n\t\tmatryxTokenAddress = _matryxTokenAddress;\n\t\tmatryxSubmissionFactoryAddress = _matryxSubmissionFactoryAddress;\n\t}\n\n\tfunction createRound(address _platformAddress, address _tournamentAddress, address _owner, LibConstruction.RoundData roundData) public returns (address _roundAddress) {\n\t\tMatryxRound newRound = new MatryxRound(_platformAddress, matryxTokenAddress, _tournamentAddress, matryxSubmissionFactoryAddress, _owner, roundData);\n\t\treturn newRound;\n\t}\n}",
  "sourcePath": "/Users/maxhoward/Desktop/Ethereum/Development/Matryx/Projects/MatryxPlatform/contracts/factories/MatryxRoundFactory.sol",
  "compiler": {
    "name": "solc",
    "version": "0.4.24+commit.e67f0147.Emscripten.clang"
  },
  "schemaVersion": "2.0.0",
  "updatedAt": "2018-06-22T18:05:26.293Z"
}