{
  "contractName": "MatryxSubmissionFactory",
  "abi": [
    {
      "constant": false,
      "inputs": [
        {
          "name": "_platformAddress",
          "type": "address"
        },
        {
          "name": "_tournamentAddress",
          "type": "address"
        },
        {
          "name": "_roundAddress",
          "type": "address"
        },
        {
          "name": "_title",
          "type": "string"
        },
        {
          "name": "_submissionOwner",
          "type": "address"
        },
        {
          "name": "_submissionAuthor",
          "type": "address"
        },
        {
          "name": "_externalAddress",
          "type": "bytes"
        },
        {
          "name": "_references",
          "type": "address[]"
        },
        {
          "name": "_contributors",
          "type": "address[]"
        },
        {
          "name": "_publicallyAccessibleDuringTournament",
          "type": "bool"
        }
      ],
      "name": "createSubmission",
      "outputs": [
        {
          "name": "_submissionAddress",
          "type": "address"
        }
      ],
      "payable": false,
      "stateMutability": "nonpayable",
      "type": "function"
    }
  ],
  "bytecode": "0x6060604052341561000f57600080fd5b612a058061001e6000396000f3006060604052600436106100405763ffffffff7c0100000000000000000000000000000000000000000000000000000000600035041663288d58bd8114610045575b600080fd5b341561005057600080fd5b6101ab6004803573ffffffffffffffffffffffffffffffffffffffff908116916024803583169260443516919060849060643590810190830135806020601f82018190048102016040519081016040528181529291906020840183838082843750949673ffffffffffffffffffffffffffffffffffffffff87358116976020808201359092169750919550606082019450604091820135860180820194503592508291601f830182900482029091019051908101604052818152929190602084018383808284378201915050505050509190803590602001908201803590602001908080602002602001604051908101604052809392919081815260200183836020028082843782019150505050505091908035906020019082018035906020019080806020026020016040519081016040528093929190818152602001838360200280828437509496505050509135151591506101d49050565b60405173ffffffffffffffffffffffffffffffffffffffff909116815260200160405180910390f35b6000808b8b8b8b8b8b8b8b8b8b6101e96103bd565b73ffffffffffffffffffffffffffffffffffffffff808c1682528a8116602083015289811660408301528781166080830152861660a0820152811515610120820152610140606082018181529060c083019060e084019061010085019085018c818151815260200191508051906020019080838360005b83811015610278578082015183820152602001610260565b50505050905090810190601f1680156102a55780820380516001836020036101000a031916815260200191505b50858103845289818151815260200191508051906020019080838360005b838110156102db5780820151838201526020016102c3565b50505050905090810190601f1680156103085780820380516001836020036101000a031916815260200191505b50858103835288818151815260200191508051906020019060200280838360005b83811015610341578082015183820152602001610329565b50505050905001858103825287818151815260200191508051906020019060200280838360005b83811015610380578082015183820152602001610368565b505050509050019e505050505050505050505050505050604051809103906000f08015156103ad57600080fd5b9c9b505050505050505050505050565b60405161260c806103ce83390190560060606040526040517f6164645265666572656e636528616464726573732900000000000000000000008152601501604051908190039020601580547c010000000000000000000000000000000000000000000000000000000090920475010000000000000000000000000000000000000000000260a860020a63ffffffff02199092169190911790556040517f72656d6f76655265666572656e636528616464726573732900000000000000008152601801604051908190039020601580547c01000000000000000000000000000000000000000000000000000000009092047901000000000000000000000000000000000000000000000000000260c860020a63ffffffff02199092169190911790556040517f617070726f76655265666572656e63652861646472657373290000000000000081526019016040519081900390206016805463ffffffff19167c01000000000000000000000000000000000000000000000000000000009092049190911790556040517f72656d6f76655265666572656e6365417070726f76616c2861646472657373298152602001604051908190039020601680547c01000000000000000000000000000000000000000000000000000000009092046401000000000267ffffffff00000000199092169190911790556040517f666c61674d697373696e675265666572656e63652861646472657373290000008152601d01604051908190039020601680547c01000000000000000000000000000000000000000000000000000000009092046801000000000000000002604060020a63ffffffff02199092169190911790556040517f72656d6f76654d697373696e675265666572656e6365466c616728616464726581527f73732900000000000000000000000000000000000000000000000000000000006020820152602301604051908190039020601680547c01000000000000000000000000000000000000000000000000000000009092046c0100000000000000000000000002606060020a63ffffffff02199092169190911790556040517f72657665727449665265666572656e6365466c6167676564286164647265737381527f29000000000000000000000000000000000000000000000000000000000000006020820152602101604051908190039020601680547c010000000000000000000000000000000000000000000000000000000090920470010000000000000000000000000000000002608060020a63ffffffff02199092169190911790553415620003ae57600080fd5b6040516200260c3803806200260c83398101604052808051919060200180519190602001805191906020018051820191906020018051919060200180519190602001805182019190602001805182019190602001805182019190602001805160008054600160a060020a03191633600160a060020a039081169190911782559193509150861615156200044057600080fd5b60018054600160a060020a03808e16600160a060020a031992831617909255600280548d841690831617905560038054928c1692909116919091179055600488805162000492929160200190620006a1565b5060008054600160a060020a03808a16600160a060020a03199283161790925560058054928916929091169190911790556006858051620004d8929160200190620006a1565b506007848051620004ee92916020019062000726565b508a600160a060020a031663f3dc0d256000604051602001526040518163ffffffff167c0100000000000000000000000000000000000000000000000000000000028152600401602060405180830381600087803b15156200054f57600080fd5b6102c65a03f115156200056157600080fd5b505050604051805160158054600160a060020a039092166101000261010060a860020a031990921691909117905550600090505b60075463ffffffff8216101562000665576001600e600060078463ffffffff16815481101515620005c257fe5b6000918252602080832090910154600160a060020a03168352820192909252604001812080549215156401000000000264ff000000001990931692909217909155600780548392600e92909163ffffffff85169081106200061f57fe5b600091825260208083209190910154600160a060020a031683528201929092526040019020805463ffffffff191663ffffffff9290921691909117905560010162000595565b60128380516200067a92916020019062000726565b5050426013556015805460ff191691151591909117905550620007d5975050505050505050565b828054600181600116156101000203166002900490600052602060002090601f016020900481019282601f10620006e457805160ff191683800117855562000714565b8280016001018555821562000714579182015b8281111562000714578251825591602001919060010190620006f7565b50620007229291506200078e565b5090565b82805482825590600052602060002090810192821562000780579160200282015b82811115620007805782518254600160a060020a031916600160a060020a03919091161782556020929092019160019091019062000747565b5062000722929150620007ae565b620007ab91905b8082111562000722576000815560010162000795565b90565b620007ab91905b8082111562000722578054600160a060020a0319168155600101620007b5565b611e2780620007e56000396000f3006060604052600436106102035763ffffffff7c01000000000000000000000000000000000000000000000000000000006000350416630cbfdb2d81146102085780630eff2507146102295780630fb3395c1461026457806310f835301461028357806312065fe0146102d45780631abaf3fc146102f957806323bab50b1461030c5780632f54bf6e1461032b57806332c9c9d31461035e57806337fb13b01461037d578063444e31ca146103ce5780635c11a3e4146103e15780636e27bcc61461046b578063747560911461049a5780637a6337fa146104b057806382966f8b14610516578063890545831461054e578063893d20e8146105645780638da5cb5b146105775780638efa54101461058a5780639c1b92a11461059d5780639f8743f7146105b3578063a0bf8fe3146105c6578063a33d9543146105d9578063a52dd12f146105ec578063a5faa1251461060b578063ac260ba01461061e578063ae1ca69214610631578063af157c1914610644578063b579184f14610657578063b86e321c14610676578063c7af355114610695578063c8656978146106a8578063c885bc58146106bb578063e4e3e83a146106ce578063e7139ec0146106ed578063e76c293e1461070c578063e786bb981461071f578063e9946c231461073e578063f2fde38b14610751578063f5c758d614610770578063ff3c1a8f14610783575b600080fd5b341561021357600080fd5b610227600160a060020a0360043516610796565b005b341561023457600080fd5b610248600160a060020a036004351661083f565b6040519115158252151560208201526040908101905180910390f35b341561026f57600080fd5b610227600160a060020a0360043516610878565b341561028e57600080fd5b61022760046024813581810190830135806020601f8201819004810201604051908101604052818152929190602084018383808284375094965061093e95505050505050565b34156102df57600080fd5b6102e76109fd565b60405190815260200160405180910390f35b341561030457600080fd5b6102e7610a98565b341561031757600080fd5b610227600160a060020a0360043516610a9e565b341561033657600080fd5b61034a600160a060020a0360043516610b68565b604051901515815260200160405180910390f35b341561036957600080fd5b610227600160a060020a0360043516610b7c565b341561038857600080fd5b61022760046024813581810190830135806020601f82018190048102016040519081016040528181529291906020840183838082843750949650610c1e95505050505050565b34156103d957600080fd5b610227610cd9565b34156103ec57600080fd5b6103f4610d0d565b60405160208082528190810183818151815260200191508051906020019080838360005b83811015610430578082015183820152602001610418565b50505050905090810190601f16801561045d5780820380516001836020036101000a031916815260200191505b509250505060405180910390f35b341561047657600080fd5b61047e610dcc565b604051600160a060020a03909116815260200160405180910390f35b34156104a557600080fd5b610227600435610de0565b34156104bb57600080fd5b6104c3610e3d565b60405160208082528190810183818151815260200191508051906020019060200280838360005b838110156105025780820151838201526020016104ea565b505050509050019250505060405180910390f35b341561052157600080fd5b610529610eba565b6040516fffffffffffffffffffffffffffffffff909116815260200160405180910390f35b341561055957600080fd5b61047e600435610ed2565b341561056f57600080fd5b61047e610efa565b341561058257600080fd5b61047e610f0a565b341561059557600080fd5b6102e7610f19565b34156105a857600080fd5b61047e600435610f1f565b34156105be57600080fd5b61047e610f2d565b34156105d157600080fd5b610227610f3c565b34156105e457600080fd5b6102e7610f6d565b34156105f757600080fd5b61034a600160a060020a0360043516611098565b341561061657600080fd5b61047e6114a1565b341561062957600080fd5b61034a6114c9565b341561063c57600080fd5b6102e76114d2565b341561064f57600080fd5b6104c36114d8565b341561066257600080fd5b610227600160a060020a0360043516611554565b341561068157600080fd5b610227600160a060020a0360043516611647565b34156106a057600080fd5b61022761198a565b34156106b357600080fd5b6102e76119b9565b34156106c657600080fd5b6102276119bf565b34156106d957600080fd5b610227600160a060020a03600435166119f2565b34156106f857600080fd5b610227600160a060020a0360043516611a90565b341561071757600080fd5b61047e611b26565b341561072a57600080fd5b610227600160a060020a0360043516611b35565b341561074957600080fd5b6102e7611b8f565b341561075c57600080fd5b610227600160a060020a0360043516611b95565b341561077b57600080fd5b610227611bff565b341561078e57600080fd5b6103f4611c47565b601554601654610100909104600160a060020a0316907c01000000000000000000000000000000000000000000000000000000006c01000000000000000000000000909104810204826040517c010000000000000000000000000000000000000000000000000000000063ffffffff8416028152600160a060020a0390911660048201526024016000604051808303818661646e5a03f492505050151561083c57600080fd5b50565b600160a060020a03166000908152600e6020908152604080832054600c9092529091205460ff6601000000000000909204821692911690565b60005433600160a060020a0390811691161461089357600080fd5b601554600160a060020a03610100820416907c01000000000000000000000000000000000000000000000000000000007501000000000000000000000000000000000000000000909104810204826040517c010000000000000000000000000000000000000000000000000000000063ffffffff8416028152600160a060020a0390911660048201526024016000604051808303818661646e5a03f492505050151561083c57600080fd5b60005433600160a060020a0390811691161461095957600080fd5b600354600160a060020a0316806347535d7b6000604051602001526040518163ffffffff167c0100000000000000000000000000000000000000000000000000000000028152600401602060405180830381600087803b15156109bb57600080fd5b6102c65a03f115156109cc57600080fd5b5050506040518051905015156109e157600080fd5b60068280516109f4929160200190611d35565b50504260145550565b600354600090600160a060020a0316818163f8b2cb4f3083604051602001526040517c010000000000000000000000000000000000000000000000000000000063ffffffff8416028152600160a060020a039091166004820152602401602060405180830381600087803b1515610a7357600080fd5b6102c65a03f11515610a8457600080fd5b50505060405180519350839150505b505090565b60105481565b60005433600160a060020a03908116911614610ab957600080fd5b601554600160a060020a03610100820416907c0100000000000000000000000000000000000000000000000000000000790100000000000000000000000000000000000000000000000000909104810204826040517c010000000000000000000000000000000000000000000000000000000063ffffffff8416028152600160a060020a0390911660048201526024016000604051808303818661646e5a03f492505050151561083c57600080fd5b600054600160a060020a0391821691161490565b601554601654610100909104600160a060020a0316907c010000000000000000000000000000000000000000000000000000000068010000000000000000909104810204826040517c010000000000000000000000000000000000000000000000000000000063ffffffff8416028152600160a060020a0390911660048201526024016000604051808303818661646e5a03f492505050151561083c57600080fd5b60005433600160a060020a03908116911614610c3957600080fd5b600354600160a060020a0316806347535d7b6000604051602001526040518163ffffffff167c0100000000000000000000000000000000000000000000000000000000028152600401602060405180830381600087803b1515610c9b57600080fd5b6102c65a03f11515610cac57600080fd5b505050604051805190501515610cc157600080fd5b6004828051610cd4929160200190611d35565b505050565b60015433600160a060020a03908116911614610cf457600080fd5b601154610d0890600163ffffffff611ccf16565b601155565b610d15611daf565b33610d1f81611098565b1515610d2a57600080fd5b60068054600181600116156101000203166002900480601f016020809104026020016040519081016040528092919081815260200182805460018160011615610100020316600290048015610dc05780601f10610d9557610100808354040283529160200191610dc0565b820191906000526020600020905b815481529060010190602001808311610da357829003601f168201915b505050505091505b5090565b6015546101009004600160a060020a031681565b60005433600160a060020a03908116911614610dfb57600080fd5b6012805482908110610e0957fe5b600091825260209091200180547fffffffffffffffffffffffff000000000000000000000000000000000000000016905550565b610e45611daf565b33610e4f81611098565b1515610e5a57600080fd5b6007805480602002602001604051908101604052809291908181526020018280548015610dc057602002820191906000526020600020905b8154600160a060020a03168152600190910190602001808311610e9257505050505091505090565b6009546fffffffffffffffffffffffffffffffff1681565b600b805482908110610ee057fe5b600091825260209091200154600160a060020a0316905081565b600054600160a060020a03165b90565b600054600160a060020a031681565b60145490565b600d805482908110610ee057fe5b600354600160a060020a031690565b60035433600160a060020a03908116911614610f5757600080fd5b610f5f611ce1565b600554600160a060020a0316ff5b6000806000610f7a6109fd565b9150600a5460001415610fa457600d546000901115610f9c5760009250610a93565b819250610a93565b60015461104e90600160a060020a031663b20a2dce6000604051602001526040518163ffffffff167c0100000000000000000000000000000000000000000000000000000000028152600401602060405180830381600087803b151561100957600080fd5b6102c65a03f1151561101a57600080fd5b50505060405180516009546fffffffffffffffffffffffffffffffff169150670de0b6b3a76400000363ffffffff611ceb16565b9050611065600a5482611d0f90919063ffffffff16565b9050611077818363ffffffff611ceb16565b905061109181670de0b6b3a764000063ffffffff611d0f16565b9392505050565b600354600254600091600160a060020a03908116911682808080808080808089632fc1f19082604051602001526040518163ffffffff167c0100000000000000000000000000000000000000000000000000000000028152600401602060405180830381600087803b151561110c57600080fd5b6102c65a03f1151561111d57600080fd5b50505060405180519050600160a060020a03168d600160a060020a0316149850600360009054906101000a9004600160a060020a0316600160a060020a03168d600160a060020a0316149750600560009054906101000a9004600160a060020a0316600160a060020a03168d600160a060020a0316149650601560009054906101000a900460ff169550600360009054906101000a9004600160a060020a0316600160a060020a031663a68e8a866000604051602001526040518163ffffffff167c0100000000000000000000000000000000000000000000000000000000028152600401602060405180830381600087803b151561121b57600080fd5b6102c65a03f1151561122c57600080fd5b50505060405180519050806112b95750600254600160a060020a031663a68e8a866000604051602001526040518163ffffffff167c0100000000000000000000000000000000000000000000000000000000028152600401602060405180830381600087803b151561129d57600080fd5b6102c65a03f115156112ae57600080fd5b505050604051805190505b600254909550600160a060020a03166352c01fab8e6000604051602001526040517c010000000000000000000000000000000000000000000000000000000063ffffffff8416028152600160a060020a039091166004820152602401602060405180830381600087803b151561132e57600080fd5b6102c65a03f1151561133f57600080fd5b5050506040518051945050600160a060020a038a16632f54bf6e8e6000604051602001526040517c010000000000000000000000000000000000000000000000000000000063ffffffff8416028152600160a060020a039091166004820152602401602060405180830381600087803b15156113ba57600080fd5b6102c65a03f115156113cb57600080fd5b5050506040518051905092508480156113e8575082806113e85750835b91508a600160a060020a03166347535d7b6000604051602001526040518163ffffffff167c0100000000000000000000000000000000000000000000000000000000028152600401602060405180830381600087803b151561144957600080fd5b6102c65a03f1151561145a57600080fd5b5050506040518051905015905088806114705750875b806114785750865b806114805750855b806114885750815b806114905750805b9d9c50505050505050505050505050565b6000336114ad81611098565b15156114b857600080fd5b5050600554600160a060020a031690565b60155460ff1681565b60135490565b6114e0611daf565b336114ea81611098565b15156114f557600080fd5b6012805480602002602001604051908101604052809291908181526020018280548015610dc057602002820191906000526020600020908154600160a060020a03168152600190910190602001808311610e9257505050505091505090565b6000805433600160a060020a0390811691161461157057600080fd5b60128054600181016115828382611dc1565b50600091825260209091200180547fffffffffffffffffffffffff000000000000000000000000000000000000000016600160a060020a038481169190911790915560035416905080631cdb7de58360026040517c010000000000000000000000000000000000000000000000000000000063ffffffff8516028152600160a060020a0390921660048301526024820152604401600060405180830381600087803b151561162f57600080fd5b6102c65a03f1151561164057600080fd5b5050505050565b6000805460035482918291829182918291829133600160a060020a0390811692811683149291161481806116785750805b151561168357600080fd5b61168b6109fd565b600154909950600160a060020a03166310fe9ae86000604051602001526040518163ffffffff167c0100000000000000000000000000000000000000000000000000000000028152600401602060405180830381600087803b15156116ef57600080fd5b6102c65a03f1151561170057600080fd5b505050604051805190509750611714610f6d565b965087600160a060020a031663a9059cbb8b896000604051602001526040517c010000000000000000000000000000000000000000000000000000000063ffffffff8516028152600160a060020a0390921660048301526024820152604401602060405180830381600087803b151561178c57600080fd5b6102c65a03f1151561179d57600080fd5b5050506040518051506117b89050898863ffffffff611ccf16565b9550600094505b60075485101561197e57600e60006007878154811015156117dc57fe5b6000918252602080832090910154600160a060020a0316835282019290925260400190205460ff6501000000000090910416156119735761189f600a54611893670de0b6b3a7640000600e600060078b81548110151561183857fe5b6000918252602080832090910154600160a060020a031683528201929092526040019020600101546fffffffffffffffffffffffffffffffff700100000000000000000000000000000000909104169063ffffffff611ceb16565b9063ffffffff611d0f16565b93506118bd670de0b6b3a7640000611893888763ffffffff611ceb16565b925087600160a060020a031663a9059cbb6007878154811015156118dd57fe5b6000918252602082200154600160a060020a0316908690604051602001526040517c010000000000000000000000000000000000000000000000000000000063ffffffff8516028152600160a060020a0390921660048301526024820152604401602060405180830381600087803b151561195757600080fd5b6102c65a03f1151561196857600080fd5b505050604051805150505b6001909401936117bf565b50505050505050505050565b60015433600160a060020a039081169116146119a557600080fd5b601154610d0890600163ffffffff611d2616565b60115481565b60005460035433600160a060020a0390811692811683149291161481806119e35750805b15156119ee57600080fd5b5050565b601554601654610100909104600160a060020a0316907c0100000000000000000000000000000000000000000000000000000000640100000000909104810204826040517c010000000000000000000000000000000000000000000000000000000063ffffffff8416028152600160a060020a0390911660048201526024016000604051808303818661646e5a03f492505050151561083c57600080fd5b601554601654610100909104600160a060020a0316907c010000000000000000000000000000000000000000000000000000000090810204826040517c010000000000000000000000000000000000000000000000000000000063ffffffff8416028152600160a060020a0390911660048201526024016000604051808303818661646e5a03f492505050151561083c57600080fd5b600254600160a060020a031690565b60005433600160a060020a03908116911614611b5057600080fd5b60158054600160a060020a03909216610100027fffffffffffffffffffffff0000000000000000000000000000000000000000ff909216919091179055565b600a5481565b60005433600160a060020a03908116911614611bb057600080fd5b600160a060020a0381161515611bc557600080fd5b600080547fffffffffffffffffffffffff000000000000000000000000000000000000000016600160a060020a0392909216919091179055565b60005433600160a060020a03908116911614611c1a57600080fd5b601580547fffffffffffffffffffffffffffffffffffffffffffffffffffffffffffffff00166001179055565b611c4f611daf565b33611c5981611098565b1515611c6457600080fd5b60048054600181600116156101000203166002900480601f016020809104026020016040519081016040528092919081815260200182805460018160011615610100020316600290048015610dc05780601f10610d9557610100808354040283529160200191610dc0565b600082821115611cdb57fe5b50900390565b611ce96119bf565b565b6000828202831580611d075750828482811515611d0457fe5b04145b151561109157fe5b6000808284811515611d1d57fe5b04949350505050565b60008282018381101561109157fe5b828054600181600116156101000203166002900490600052602060002090601f016020900481019282601f10611d7657805160ff1916838001178555611da3565b82800160010185558215611da3579182015b82811115611da3578251825591602001919060010190611d88565b50610dc8929150611de1565b60206040519081016040526000815290565b815481835581811511610cd457600083815260209020610cd49181019083015b610f0791905b80821115610dc85760008155600101611de75600a165627a7a723058204abe5b1c431bc8609470e58ea9a5756e3882e1f2963837b7f0a78ccea861d8460029a165627a7a72305820dff05dfa314265706bbfc5262e89d10aed5fae83638f3252a2ff14928be7175e0029",
  "source": "pragma solidity ^0.4.18;\n\nimport '../MatryxSubmission.sol';\n\ncontract MatryxSubmissionFactory {\n\n\tfunction createSubmission(address _platformAddress, address _tournamentAddress, address _roundAddress, string _title, address _submissionOwner, address _submissionAuthor, bytes _externalAddress, address[] _references, address[] _contributors, bool _publicallyAccessibleDuringTournament) public returns (address _submissionAddress) {\n\t\tMatryxSubmission submission = new MatryxSubmission(_platformAddress, _tournamentAddress, _roundAddress, _title, _submissionOwner, _submissionAuthor, _externalAddress, _references, _contributors, _publicallyAccessibleDuringTournament);\n\t\treturn submission;\n\t}\n}",
  "sourcePath": "/Users/maxhoward/Desktop/Ethereum/Development/Matryx AWS/Projects/matryx-alpha-source/contracts/factories/MatryxSubmissionFactory.sol",
  "compiler": {
    "name": "solc",
    "version": "0.4.19+commit.c4cbbb05.Emscripten.clang"
  },
  "schemaVersion": "2.0.0",
  "updatedAt": "2018-03-29T04:20:47.393Z"
}