{
  "contractName": "MatryxSubmissionFactory",
  "abi": [
    {
      "constant": false,
      "inputs": [
        {
          "name": "_contributors",
          "type": "address[]"
        },
        {
          "name": "_contributorRewardDistribution",
          "type": "uint128[]"
        },
        {
          "name": "_references",
          "type": "address[]"
        },
        {
          "components": [
            {
              "name": "platformAddress",
              "type": "address"
            },
            {
              "name": "tournamentAddress",
              "type": "address"
            },
            {
              "name": "roundAddress",
              "type": "address"
            }
          ],
          "name": "requiredAddresses",
          "type": "tuple"
        },
        {
          "components": [
            {
              "name": "title",
              "type": "string"
            },
            {
              "name": "owner",
              "type": "address"
            },
            {
              "name": "contentHash",
              "type": "bytes"
            },
            {
              "name": "isPublic",
              "type": "bool"
            }
          ],
          "name": "submissionData",
          "type": "tuple"
        }
      ],
      "name": "createSubmission",
      "outputs": [
        {
          "name": "_submissionAddress",
          "type": "address"
        }
      ],
      "payable": false,
      "stateMutability": "nonpayable",
      "type": "function"
    }
  ],
  "bytecode": "0x608060405234801561001057600080fd5b5061410f806100206000396000f300608060405260043610620000425763ffffffff7c0100000000000000000000000000000000000000000000000000000000600035041663867cda48811462000047575b600080fd5b3480156200005457600080fd5b506200006c6200006636600462000376565b62000084565b6040516200007b919062000620565b60405180910390f35b6000858585858562000095620000cd565b620000a595949392919062000636565b604051809103906000f080158015620000c2573d6000803e3d6000fd5b509695505050505050565b6040516138ff80620007d783390190565b6000620000ec823562000740565b9392505050565b6000601f820183136200010557600080fd5b81356200011c6200011682620006cd565b620006a5565b915081818352602084019350602081019050838560208402820111156200014257600080fd5b60005b838110156200017257816200015b8882620000de565b845250602092830192919091019060010162000145565b5050505092915050565b6000601f820183136200018e57600080fd5b81356200019f6200011682620006cd565b91508181835260208401935060208101905083856020840282011115620001c557600080fd5b60005b83811015620001725781620001de888262000368565b8452506020928301929190910190600101620001c8565b6000620000ec823562000759565b6000601f820183136200021557600080fd5b8135620002266200011682620006ef565b915080825260208301602083018583830111156200024357600080fd5b6200025083828462000773565b50505092915050565b6000606082840312156200026c57600080fd5b620002786060620006a5565b90506000620002888484620000de565b82525060206200029b84848301620000de565b6020830152506040620002b184828501620000de565b60408301525092915050565b600060808284031215620002d057600080fd5b620002dc6080620006a5565b9050813567ffffffffffffffff811115620002f657600080fd5b620003048482850162000203565b82525060206200031784848301620000de565b602083015250604082013567ffffffffffffffff8111156200033857600080fd5b620003468482850162000203565b60408301525060606200035c84828501620001f5565b60608301525092915050565b6000620000ec82356200075e565b600080600080600060e086880312156200038f57600080fd5b853567ffffffffffffffff811115620003a757600080fd5b620003b588828901620000f3565b955050602086013567ffffffffffffffff811115620003d357600080fd5b620003e1888289016200017c565b945050604086013567ffffffffffffffff811115620003ff57600080fd5b6200040d88828901620000f3565b9350506060620004208882890162000259565b92505060c086013567ffffffffffffffff8111156200043e57600080fd5b6200044c88828901620002bd565b9150509295509295909350565b620004648162000740565b82525050565b600062000477826200073c565b8084526020840193506200048b8362000736565b60005b82811015620004c157620004a486835162000459565b620004af8262000736565b6020969096019591506001016200048e565b5093949350505050565b6000620004d8826200073c565b808452602084019350620004ec8362000736565b60005b82811015620004c1576200050586835162000615565b620005108262000736565b602096909601959150600101620004ef565b620004648162000759565b60006200053a826200073c565b808452620005508160208601602086016200077f565b6200055b81620007ae565b9093016020019392505050565b805160608301906200057b848262000459565b50602082015162000590602085018262000459565b506040820151620005a5604085018262000459565b50505050565b8051608080845260009190840190620005c582826200052d565b9150506020830151620005dc602086018262000459565b5060408301518482036040860152620005f682826200052d565b91505060608301516200060d606086018262000522565b509392505050565b62000464816200075e565b6020810162000630828462000459565b92915050565b60e080825281016200064981886200046a565b905081810360208301526200065f8187620004cb565b905081810360408301526200067581866200046a565b905062000686606083018562000568565b81810360c08301526200069a8184620005ab565b979650505050505050565b60405181810167ffffffffffffffff81118282101715620006c557600080fd5b604052919050565b600067ffffffffffffffff821115620006e557600080fd5b5060209081020190565b600067ffffffffffffffff8211156200070757600080fd5b506020601f919091017fffffffffffffffffffffffffffffffffffffffffffffffffffffffffffffffe0160190565b60200190565b5190565b73ffffffffffffffffffffffffffffffffffffffff1690565b151590565b6fffffffffffffffffffffffffffffffff1690565b82818337506000910152565b60005b838110156200079c57818101518382015260200162000782565b83811115620005a55750506000910152565b601f017fffffffffffffffffffffffffffffffffffffffffffffffffffffffffffffffe016905600608060408190526017805460a860020a63ffffffff021916780fb3395c0000000000000000000000000000000000000000001760c860020a63ffffffff0219167c23bab50b00000000000000000000000000000000000000000000000000179055601880547f72657665727449665265666572656e6365466c616767656428616464726573739092527f290000000000000000000000000000000000000000000000000000000000000060a05263ffffffff1990911663e7139ec01767ffffffff00000000191667e4e3e83a0000000017604060020a63ffffffff0219166b32c9c9d3000000000000000017606060020a63ffffffff0219166f0cbfdb2d00000000000000000000000017608060020a63ffffffff02191673b57e2855000000000000000000000000000000001790553480156200013c57600080fd5b50604051620038ff380380620038ff8339810180604052620001629190810190620009a8565b6000805433600160a060020a03199182161782558351600180548316600160a060020a0392831617905560208086015160028054851691841691909117905560408601516003805490941692169190911790915582518051620001ca926004920190620005b6565b50602082015160008054600160a060020a031916600160a060020a0392831617908190556001546040517f6a44e43d00000000000000000000000000000000000000000000000000000000815290831692636a44e43d92620002329291169060040162000a98565b602060405180830381600087803b1580156200024d57600080fd5b505af115801562000262573d6000803e3d6000fd5b505050506040513d601f19601f820116820180604052506200028891908101906200097f565b60058054600160a060020a031916600160a060020a039283161790819055161515620002b357600080fd5b60408201518051620002ce91600691602090910190620005b6565b508351620002e49060079060208701906200063b565b508260000151600160a060020a031663f3dc0d256040518163ffffffff167c0100000000000000000000000000000000000000000000000000000000028152600401602060405180830381600087803b1580156200034157600080fd5b505af115801562000356573d6000803e3d6000fd5b505050506040513d601f19601f820116820180604052506200037c91908101906200097f565b601780546060850151151560ff19600160a060020a03949094166101000261010060a860020a031990921691909117929092169190911790555060005b60075463ffffffff8216101562000489576001600e600060078463ffffffff16815481101515620003e657fe5b6000918252602080832090910154600160a060020a03168352820192909252604001812080549215156401000000000264ff000000001990931692909217909155600780548392600e92909163ffffffff85169081106200044357fe5b600091825260208083209190910154600160a060020a031683528201929092526040019020805463ffffffff191663ffffffff92909216919091179055600101620003b9565b6200049e8686640100000000620004c5810204565b8551620004b39060129060208901906200063b565b5050426015555062000b6e9350505050565b8051825160009114620004d757600080fd5b5060005b82518163ffffffff161015620005b157818163ffffffff168151811015156200050057fe5b6020908102919091010151601480546001608060020a031981166001608060020a03918216909301169190911790558151829063ffffffff83169081106200054457fe5b9060200190602002015160136000858463ffffffff168151811015156200056757fe5b602090810291909101810151600160a060020a0316825281019190915260400160002080546001608060020a0319166001608060020a0392909216919091179055600101620004db565b505050565b828054600181600116156101000203166002900490600052602060002090601f016020900481019282601f10620005f957805160ff191683800117855562000629565b8280016001018555821562000629579182015b82811115620006295782518255916020019190600101906200060c565b5062000637929150620006a1565b5090565b82805482825590600052602060002090810192821562000693579160200282015b82811115620006935782518254600160a060020a031916600160a060020a039091161782556020909201916001909101906200065c565b5062000637929150620006c1565b620006be91905b80821115620006375760008155600101620006a8565b90565b620006be91905b8082111562000637578054600160a060020a0319168155600101620006c8565b6000620006f6825162000b1e565b9392505050565b6000601f820183136200070f57600080fd5b815162000726620007208262000ad5565b62000aae565b915081818352602084019350602081019050838560208402820111156200074c57600080fd5b60005b838110156200077c5781620007658882620006e8565b84525060209283019291909101906001016200074f565b5050505092915050565b6000601f820183136200079857600080fd5b8151620007a9620007208262000ad5565b91508181835260208401935060208101905083856020840282011115620007cf57600080fd5b60005b838110156200077c5781620007e8888262000971565b8452506020928301929190910190600101620007d2565b6000620006f6825162000b2a565b6000601f820183136200081f57600080fd5b815162000830620007208262000af6565b915080825260208301602083018583830111156200084d57600080fd5b6200085a83828462000b3b565b50505092915050565b6000606082840312156200087657600080fd5b62000882606062000aae565b90506000620008928484620006e8565b8252506020620008a584848301620006e8565b6020830152506040620008bb84828501620006e8565b60408301525092915050565b600060808284031215620008da57600080fd5b620008e6608062000aae565b82519091506001604060020a038111156200090057600080fd5b6200090e848285016200080d565b82525060206200092184848301620006e8565b60208301525060408201516001604060020a038111156200094157600080fd5b6200094f848285016200080d565b60408301525060606200096584828501620007ff565b60608301525092915050565b6000620006f6825162000b2f565b6000602082840312156200099257600080fd5b6000620009a08484620006e8565b949350505050565b600080600080600060e08688031215620009c157600080fd5b85516001604060020a03811115620009d857600080fd5b620009e688828901620006fd565b95505060208601516001604060020a0381111562000a0357600080fd5b62000a118882890162000786565b94505060408601516001604060020a0381111562000a2e57600080fd5b62000a3c88828901620006fd565b935050606062000a4f8882890162000863565b92505060c08601516001604060020a0381111562000a6c57600080fd5b62000a7a88828901620008c7565b9150509295509295909350565b62000a928162000b1e565b82525050565b6020810162000aa8828462000a87565b92915050565b6040518181016001604060020a038111828210171562000acd57600080fd5b604052919050565b60006001604060020a0382111562000aec57600080fd5b5060209081020190565b60006001604060020a0382111562000b0d57600080fd5b506020601f91909101601f19160190565b600160a060020a031690565b151590565b6001608060020a031690565b60005b8381101562000b5857818101518382015260200162000b3e565b8381111562000b68576000848401525b50505050565b612d818062000b7e6000396000f3006080604052600436106102195763ffffffff7c01000000000000000000000000000000000000000000000000000000006000350416630cbfdb2d811461021e5780630fb3395c1461024057806310f835301461026057806312065fe0146102805780631abaf3fc146102ab5780631af73c32146102c057806323bab50b146102e057806329f9e665146103005780632f54bf6e1461032257806332c9c9d31461021e57806337fb13b01461034f57806339408c271461036f578063444e31ca1461038f5780634586de5d146103a45780635c11a3e4146103c45780636948f406146103e65780636e27bcc61461040657806374756091146104285780637a6337fa1461044857806382966f8b1461046a578063890545831461047f578063893d20e81461049f5780638da5cb5b146104b45780638efa5410146104c95780639c1b92a1146104de5780639f8743f7146104fe578063a33d954314610513578063a52dd12f14610528578063a5faa12514610548578063ae1ca6921461055d578063af157c1914610572578063b86e321c14610587578063c7af3551146105a7578063c8656978146105bc578063d3dc4c37146105d1578063dc9a1535146105f1578063e4e3e83a1461021e578063e7139ec01461021e578063e76c293e14610606578063e786bb981461061b578063e9946c231461063b578063f2fde38b14610650578063f889b6d414610670578063ff3c1a8f14610690575b600080fd5b34801561022a57600080fd5b5061023e610239366004612821565b6106a5565b005b34801561024c57600080fd5b5061023e61025b366004612821565b61075e565b34801561026c57600080fd5b5061023e61027b366004612a2f565b61081f565b34801561028c57600080fd5b50610295610911565b6040516102a29190612bf8565b60405180910390f35b3480156102b757600080fd5b506102956109c9565b3480156102cc57600080fd5b5061023e6102db36600461289f565b6109cf565b3480156102ec57600080fd5b5061023e6102fb366004612821565b610b0c565b34801561030c57600080fd5b50610315610bce565b6040516102a29190612bea565b34801561032e57600080fd5b5061034261033d366004612821565b610be6565b6040516102a29190612bbd565b34801561035b57600080fd5b5061023e61036a366004612a2f565b610c07565b34801561037b57600080fd5b5061023e61038a366004612933565b610cf5565b34801561039b57600080fd5b5061023e610e2c565b3480156103b057600080fd5b506103156103bf366004612821565b610e69565b3480156103d057600080fd5b506103d9610e8d565b6040516102a29190612bcb565b3480156103f257600080fd5b5061023e6104013660046128d4565b610f54565b34801561041257600080fd5b5061041b610f82565b6040516102a29190612b68565b34801561043457600080fd5b5061023e610443366004612a64565b610fa3565b34801561045457600080fd5b5061045d611121565b6040516102a29190612bac565b34801561047657600080fd5b506103156111a5565b34801561048b57600080fd5b5061041b61049a366004612a64565b6111bd565b3480156104ab57600080fd5b5061041b6111f2565b3480156104c057600080fd5b5061041b61120f565b3480156104d557600080fd5b5061029561122b565b3480156104ea57600080fd5b5061041b6104f9366004612a64565b611231565b34801561050a57600080fd5b5061041b61123f565b34801561051f57600080fd5b5061029561125b565b34801561053457600080fd5b50610342610543366004612821565b6113a5565b34801561055457600080fd5b5061041b611900565b34801561056957600080fd5b50610295611935565b34801561057e57600080fd5b5061045d61193b565b34801561059357600080fd5b5061023e6105a2366004612821565b6119be565b3480156105b357600080fd5b5061023e611fed565b3480156105c857600080fd5b50610295612025565b3480156105dd57600080fd5b5061023e6105ec3660046129f3565b61202b565b3480156105fd57600080fd5b50610342612080565b34801561061257600080fd5b5061041b612089565b34801561062757600080fd5b5061023e610636366004612821565b6120a5565b34801561064757600080fd5b50610295612115565b34801561065c57600080fd5b5061023e61066b366004612821565b61211b565b34801561067c57600080fd5b5061023e61068b366004612865565b6121a8565b34801561069c57600080fd5b506103d961230c565b6001546040517f3e44cf7800000000000000000000000000000000000000000000000000000000815273ffffffffffffffffffffffffffffffffffffffff909116908190633e44cf78906106fd903390600401612b68565b602060405180830381600087803b15801561071757600080fd5b505af115801561072b573d6000803e3d6000fd5b505050506040513d601f19601f8201168201806040525061074f9190810190612a11565b151561075a57600080fd5b5050565b60005473ffffffffffffffffffffffffffffffffffffffff16331461078257600080fd5b6017546040805163ffffffff7c010000000000000000000000000000000000000000000000000000000075010000000000000000000000000000000000000000008504810281900491821602825273ffffffffffffffffffffffffffffffffffffffff85811660048401529251610100909404929092169260248083019260009291908290030181865af492505050151561081c57600080fd5b50565b60005473ffffffffffffffffffffffffffffffffffffffff16331461084357600080fd5b600354604080517f1865c57d000000000000000000000000000000000000000000000000000000008152905173ffffffffffffffffffffffffffffffffffffffff909216918291631865c57d9160048083019260209291908290030181600087803b1580156108b157600080fd5b505af11580156108c5573d6000803e3d6000fd5b505050506040513d601f19601f820116820180604052506108e99190810190612a82565b6001146108f557600080fd5b8151610908906006906020850190612546565b50504260165550565b6003546040517ff8b2cb4f00000000000000000000000000000000000000000000000000000000815260009173ffffffffffffffffffffffffffffffffffffffff16908290829063f8b2cb4f9061096c903090600401612bdc565b602060405180830381600087803b15801561098657600080fd5b505af115801561099a573d6000803e3d6000fd5b505050506040513d601f19601f820116820180604052506109be9190810190612a82565b90508092505b505090565b60105481565b6000805473ffffffffffffffffffffffffffffffffffffffff1633146109f457600080fd5b5060005b81518163ffffffff16101561075a5760136000838363ffffffff16815181101515610a1f57fe5b602090810290910181015173ffffffffffffffffffffffffffffffffffffffff168252810191909152604001600090812054601480546fffffffffffffffffffffffffffffffff928316818416039092166fffffffffffffffffffffffffffffffff1990921691909117905582516013908290859063ffffffff8616908110610aa457fe5b60209081029190910181015173ffffffffffffffffffffffffffffffffffffffff16825281019190915260400160002080546fffffffffffffffffffffffffffffffff19166fffffffffffffffffffffffffffffffff929092169190911790556001016109f8565b60005473ffffffffffffffffffffffffffffffffffffffff163314610b3057600080fd5b6017546040805163ffffffff7c01000000000000000000000000000000000000000000000000000000007901000000000000000000000000000000000000000000000000008504810281900491821602825273ffffffffffffffffffffffffffffffffffffffff85811660048401529251610100909404929092169260248083019260009291908290030181865af492505050151561081c57600080fd5b6014546fffffffffffffffffffffffffffffffff1681565b60005473ffffffffffffffffffffffffffffffffffffffff91821691161490565b60005473ffffffffffffffffffffffffffffffffffffffff163314610c2b57600080fd5b600354604080517f1865c57d000000000000000000000000000000000000000000000000000000008152905173ffffffffffffffffffffffffffffffffffffffff909216918291631865c57d9160048083019260209291908290030181600087803b158015610c9957600080fd5b505af1158015610cad573d6000803e3d6000fd5b505050506040513d601f19601f82011682018060405250610cd19190810190612a82565b600114610cdd57600080fd5b8151610cf0906004906020850190612546565b505050565b610d0a610d05826000015161239c565b6123c2565b1515610d285780518051610d2691600491602090910190612546565b505b602081015173ffffffffffffffffffffffffffffffffffffffff1615610d92576020810151600080547fffffffffffffffffffffffff00000000000000000000000000000000000000001673ffffffffffffffffffffffffffffffffffffffff9092169190911790555b60408101515115610db85760408101518051610db691600691602090910190612546565b505b806060015115610df7576060810151601780547fffffffffffffffffffffffffffffffffffffffffffffffffffffffffffffff00169115159190911790555b835115610e16578251845114610e0c57600080fd5b610e168484610f54565b815115610e2657610e26826109cf565b50505050565b60015473ffffffffffffffffffffffffffffffffffffffff163314610e5057600080fd5b601154610e6490600163ffffffff6123c716565b601155565b6013602052600090815260409020546fffffffffffffffffffffffffffffffff1681565b606033610e99816113a5565b1515610ea457600080fd5b6006805460408051602060026001851615610100027fffffffffffffffffffffffffffffffffffffffffffffffffffffffffffffffff0190941693909304601f81018490048402820184019092528181529291830182828015610f485780601f10610f1d57610100808354040283529160200191610f48565b820191906000526020600020905b815481529060010190602001808311610f2b57829003601f168201915b505050505091505b5090565b60005473ffffffffffffffffffffffffffffffffffffffff163314610f7857600080fd5b61075a82826123de565b601754610100900473ffffffffffffffffffffffffffffffffffffffff1681565b60005473ffffffffffffffffffffffffffffffffffffffff163314610fc757600080fd5b60005473ffffffffffffffffffffffffffffffffffffffff163314610feb57600080fd5b60136000601283815481101515610ffe57fe5b600091825260208083209091015473ffffffffffffffffffffffffffffffffffffffff168352820192909252604001812054601480546fffffffffffffffffffffffffffffffff928316818416039092166fffffffffffffffffffffffffffffffff199092169190911790556012805460139183918590811061107d57fe5b60009182526020808320919091015473ffffffffffffffffffffffffffffffffffffffff168352820192909252604001902080546fffffffffffffffffffffffffffffffff19166fffffffffffffffffffffffffffffffff9290921691909117905560128054829081106110ed57fe5b600091825260209091200180547fffffffffffffffffffffffff000000000000000000000000000000000000000016905550565b60603361112d816113a5565b151561113857600080fd5b6007805480602002602001604051908101604052809291908181526020018280548015610f4857602002820191906000526020600020905b815473ffffffffffffffffffffffffffffffffffffffff16815260019091019060200180831161117057505050505091505090565b6009546fffffffffffffffffffffffffffffffff1681565b600b8054829081106111cb57fe5b60009182526020909120015473ffffffffffffffffffffffffffffffffffffffff16905081565b60005473ffffffffffffffffffffffffffffffffffffffff165b90565b60005473ffffffffffffffffffffffffffffffffffffffff1681565b60165490565b600d8054829081106111cb57fe5b60035473ffffffffffffffffffffffffffffffffffffffff1690565b6000806000611268610911565b9150600a546000141561129157600d546000101561128957600092506109c4565b8192506109c4565b600154604080517fb20a2dce00000000000000000000000000000000000000000000000000000000815290516113629273ffffffffffffffffffffffffffffffffffffffff169163b20a2dce9160048083019260209291908290030181600087803b1580156112ff57600080fd5b505af1158015611313573d6000803e3d6000fd5b505050506040513d601f19601f820116820180604052506113379190810190612a82565b6009546fffffffffffffffffffffffffffffffff1690670de0b6b3a76400000363ffffffff6124f516565b9050611379600a548261252090919063ffffffff16565b905061138b818363ffffffff6124f516565b90506109be81670de0b6b3a764000063ffffffff61252016565b600354600254604080517f2fc1f190000000000000000000000000000000000000000000000000000000008152905160009373ffffffffffffffffffffffffffffffffffffffff908116931691849182918291829182918291829182918a91632fc1f1909160048082019260209290919082900301818787803b15801561142b57600080fd5b505af115801561143f573d6000803e3d6000fd5b505050506040513d601f19601f820116820180604052506114639190810190612847565b73ffffffffffffffffffffffffffffffffffffffff168c73ffffffffffffffffffffffffffffffffffffffff16149750600360009054906101000a900473ffffffffffffffffffffffffffffffffffffffff1673ffffffffffffffffffffffffffffffffffffffff168c73ffffffffffffffffffffffffffffffffffffffff161496506000809054906101000a900473ffffffffffffffffffffffffffffffffffffffff1673ffffffffffffffffffffffffffffffffffffffff168c73ffffffffffffffffffffffffffffffffffffffff16149550601760009054906101000a900460ff1694506002600360009054906101000a900473ffffffffffffffffffffffffffffffffffffffff1673ffffffffffffffffffffffffffffffffffffffff16631865c57d6040518163ffffffff167c0100000000000000000000000000000000000000000000000000000000028152600401602060405180830381600087803b1580156115d257600080fd5b505af11580156115e6573d6000803e3d6000fd5b505050506040513d601f19601f8201168201806040525061160a9190810190612a82565b6002546040517f52c01fab0000000000000000000000000000000000000000000000000000000081529290911015955073ffffffffffffffffffffffffffffffffffffffff16906352c01fab90611665908f90600401612b68565b602060405180830381600087803b15801561167f57600080fd5b505af1158015611693573d6000803e3d6000fd5b505050506040513d601f19601f820116820180604052506116b79190810190612a11565b6040517f2f54bf6e00000000000000000000000000000000000000000000000000000000815290935073ffffffffffffffffffffffffffffffffffffffff8a1690632f54bf6e9061170c908f90600401612b68565b602060405180830381600087803b15801561172657600080fd5b505af115801561173a573d6000803e3d6000fd5b505050506040513d601f19601f8201168201806040525061175e9190810190612a11565b9150838015611771575081806117715750825b9050878061177c5750865b806117845750855b8061178c5750845b806117945750805b8061184257506001546040517f3e44cf7800000000000000000000000000000000000000000000000000000000815273ffffffffffffffffffffffffffffffffffffffff90911690633e44cf78906117f0908f90600401612b68565b602060405180830381600087803b15801561180a57600080fd5b505af115801561181e573d6000803e3d6000fd5b505050506040513d601f19601f820116820180604052506118429190810190612a11565b806118f057506001546040517f818b5fa800000000000000000000000000000000000000000000000000000000815273ffffffffffffffffffffffffffffffffffffffff9091169063818b5fa89061189e908f90600401612b68565b602060405180830381600087803b1580156118b857600080fd5b505af11580156118cc573d6000803e3d6000fd5b505050506040513d601f19601f820116820180604052506118f09190810190612a11565b9c9b505050505050505050505050565b60003361190c816113a5565b151561191757600080fd5b505060055473ffffffffffffffffffffffffffffffffffffffff1690565b60155490565b606033611947816113a5565b151561195257600080fd5b6012805480602002602001604051908101604052809291908181526020018280548015610f485760200282019190600052602060002090815473ffffffffffffffffffffffffffffffffffffffff16815260019091019060200180831161117057505050505091505090565b6000806000806000806000806000806000806000809054906101000a900473ffffffffffffffffffffffffffffffffffffffff1673ffffffffffffffffffffffffffffffffffffffff163373ffffffffffffffffffffffffffffffffffffffff161480611a42575060035473ffffffffffffffffffffffffffffffffffffffff1633145b1515611a4d57600080fd5b611a55610911565b9b50600160009054906101000a900473ffffffffffffffffffffffffffffffffffffffff1673ffffffffffffffffffffffffffffffffffffffff166310fe9ae86040518163ffffffff167c0100000000000000000000000000000000000000000000000000000000028152600401602060405180830381600087803b158015611add57600080fd5b505af1158015611af1573d6000803e3d6000fd5b505050506040513d601f19601f82011682018060405250611b159190810190612847565b9a50611b1f61125b565b9950611b328a600263ffffffff61252016565b98508a73ffffffffffffffffffffffffffffffffffffffff1663a9059cbb8e8b6040518363ffffffff167c0100000000000000000000000000000000000000000000000000000000028152600401611b8b929190612b91565b602060405180830381600087803b158015611ba557600080fd5b505af1158015611bb9573d6000803e3d6000fd5b505050506040513d601f19601f82011682018060405250611bdd9190810190612a11565b50611bee8a8a63ffffffff6123c716565b9750600096505b601254871015611dd3576012805488908110611c0d57fe5b60009182526020909120015473ffffffffffffffffffffffffffffffffffffffff1615611dc85760145460128054611ccd926fffffffffffffffffffffffffffffffff1691611cc191670de0b6b3a764000091601391600091908e908110611c7157fe5b600091825260208083209091015473ffffffffffffffffffffffffffffffffffffffff1683528201929092526040019020546fffffffffffffffffffffffffffffffff169063ffffffff6124f516565b9063ffffffff61252016565b9550611ceb670de0b6b3a7640000611cc18a8963ffffffff6124f516565b94508a73ffffffffffffffffffffffffffffffffffffffff1663a9059cbb601289815481101515611d1857fe5b6000918252602090912001546040517c010000000000000000000000000000000000000000000000000000000063ffffffff8416028152611d749173ffffffffffffffffffffffffffffffffffffffff16908990600401612b91565b602060405180830381600087803b158015611d8e57600080fd5b505af1158015611da2573d6000803e3d6000fd5b505050506040513d601f19601f82011682018060405250611dc69190810190612a11565b505b600190960195611bf5565b611de38c8b63ffffffff6123c716565b9350600092505b600754831015611fde57600e6000600785815481101515611e0757fe5b600091825260208083209091015473ffffffffffffffffffffffffffffffffffffffff16835282019290925260400190205460ff650100000000009091041615611fd357611ed8600a54611cc1670de0b6b3a7640000600e6000600789815481101515611e7057fe5b600091825260208083209091015473ffffffffffffffffffffffffffffffffffffffff1683528201929092526040019020600101546fffffffffffffffffffffffffffffffff700100000000000000000000000000000000909104169063ffffffff6124f516565b9150611ef6670de0b6b3a7640000611cc1868563ffffffff6124f516565b90508a73ffffffffffffffffffffffffffffffffffffffff1663a9059cbb600785815481101515611f2357fe5b6000918252602090912001546040517c010000000000000000000000000000000000000000000000000000000063ffffffff8416028152611f7f9173ffffffffffffffffffffffffffffffffffffffff16908590600401612b91565b602060405180830381600087803b158015611f9957600080fd5b505af1158015611fad573d6000803e3d6000fd5b505050506040513d601f19601f82011682018060405250611fd19190810190612a11565b505b600190920191611dea565b50505050505050505050505050565b60015473ffffffffffffffffffffffffffffffffffffffff16331461201157600080fd5b601154610e6490600163ffffffff61253716565b60115481565b60005473ffffffffffffffffffffffffffffffffffffffff16331461204f57600080fd5b601780547fffffffffffffffffffffffffffffffffffffffffffffffffffffffffffffff0016911515919091179055565b60175460ff1681565b60025473ffffffffffffffffffffffffffffffffffffffff1690565b60015473ffffffffffffffffffffffffffffffffffffffff1633146120c957600080fd5b6017805473ffffffffffffffffffffffffffffffffffffffff909216610100027fffffffffffffffffffffff0000000000000000000000000000000000000000ff909216919091179055565b600a5481565b60005473ffffffffffffffffffffffffffffffffffffffff16331461213f57600080fd5b73ffffffffffffffffffffffffffffffffffffffff8116151561216157600080fd5b600080547fffffffffffffffffffffffff00000000000000000000000000000000000000001673ffffffffffffffffffffffffffffffffffffffff92909216919091179055565b6000805473ffffffffffffffffffffffffffffffffffffffff1633146121cd57600080fd5b5060128054600181019091557fbb8a6a4669ba250d26cd7a459eca9d215f8307e33aebe50379bc5a3617ec34440180547fffffffffffffffffffffffff00000000000000000000000000000000000000001673ffffffffffffffffffffffffffffffffffffffff8481169182179092556000908152601360205260409081902080546fffffffffffffffffffffffffffffffff199081166fffffffffffffffffffffffffffffffff8681169190911790925560148054918216918316860190921617905560035490517f1cdb7de50000000000000000000000000000000000000000000000000000000081529116908190631cdb7de5906122d5908690600290600401612b76565b600060405180830381600087803b1580156122ef57600080fd5b505af1158015612303573d6000803e3d6000fd5b50505050505050565b606033612318816113a5565b151561232357600080fd5b6004805460408051602060026001851615610100027fffffffffffffffffffffffffffffffffffffffffffffffffffffffffffffffff0190941693909304601f81018490048402820184019092528181529291830182828015610f485780601f10610f1d57610100808354040283529160200191610f48565b6123a46125c0565b50604080518082019091528151815260209182019181019190915290565b511590565b6000828211156123d357fe5b508082035b92915050565b80518251600091146123ef57600080fd5b5060005b82518163ffffffff161015610cf057818163ffffffff1681518110151561241657fe5b6020908102919091010151601480546fffffffffffffffffffffffffffffffff1981166fffffffffffffffffffffffffffffffff918216909301169190911790558151829063ffffffff831690811061246b57fe5b9060200190602002015160136000858463ffffffff1681518110151561248d57fe5b60209081029190910181015173ffffffffffffffffffffffffffffffffffffffff16825281019190915260400160002080546fffffffffffffffffffffffffffffffff19166fffffffffffffffffffffffffffffffff929092169190911790556001016123f3565b6000828202831580612511575082848281151561250e57fe5b04145b151561251957fe5b9392505050565b600080828481151561252e57fe5b04949350505050565b60008282018381101561251957fe5b828054600181600116156101000203166002900490600052602060002090601f016020900481019282601f1061258757805160ff19168380011785556125b4565b828001600101855582156125b4579182015b828111156125b4578251825591602001919060010190612599565b50610f509291506125d7565b604080518082019091526000808252602082015290565b61120c91905b80821115610f5057600081556001016125dd565b60006125198235612c9e565b60006125198251612c9e565b6000601f8201831361261a57600080fd5b813561262d61262882612c2d565b612c06565b9150818183526020840193506020810190508385602084028201111561265257600080fd5b60005b8381101561267e578161266888826125f1565b8452506020928301929190910190600101612655565b5050505092915050565b6000601f8201831361269957600080fd5b81356126a761262882612c2d565b915081818352602084019350602081019050838560208402820111156126cc57600080fd5b60005b8381101561267e57816126e288826127fd565b84525060209283019291909101906001016126cf565b60006125198235612cb7565b60006125198251612cb7565b6000601f8201831361272157600080fd5b813561272f61262882612c4e565b9150808252602083016020830185838301111561274b57600080fd5b612756838284612ce7565b50505092915050565b60006080828403121561277157600080fd5b61277b6080612c06565b9050813567ffffffffffffffff81111561279457600080fd5b6127a084828501612710565b82525060206127b1848483016125f1565b602083015250604082013567ffffffffffffffff8111156127d157600080fd5b6127dd84828501612710565b60408301525060606127f1848285016126f8565b60608301525092915050565b60006125198235612cbc565b6000612519823561120c565b6000612519825161120c565b60006020828403121561283357600080fd5b600061283f84846125f1565b949350505050565b60006020828403121561285957600080fd5b600061283f84846125fd565b6000806040838503121561287857600080fd5b600061288485856125f1565b9250506020612895858286016127fd565b9150509250929050565b6000602082840312156128b157600080fd5b813567ffffffffffffffff8111156128c857600080fd5b61283f84828501612609565b600080604083850312156128e757600080fd5b823567ffffffffffffffff8111156128fe57600080fd5b61290a85828601612609565b925050602083013567ffffffffffffffff81111561292757600080fd5b61289585828601612688565b6000806000806080858703121561294957600080fd5b843567ffffffffffffffff81111561296057600080fd5b61296c87828801612609565b945050602085013567ffffffffffffffff81111561298957600080fd5b61299587828801612688565b935050604085013567ffffffffffffffff8111156129b257600080fd5b6129be87828801612609565b925050606085013567ffffffffffffffff8111156129db57600080fd5b6129e78782880161275f565b91505092959194509250565b600060208284031215612a0557600080fd5b600061283f84846126f8565b600060208284031215612a2357600080fd5b600061283f8484612704565b600060208284031215612a4157600080fd5b813567ffffffffffffffff811115612a5857600080fd5b61283f84828501612710565b600060208284031215612a7657600080fd5b600061283f8484612809565b600060208284031215612a9457600080fd5b600061283f8484612815565b612aa981612c9e565b82525050565b6000612aba82612c9a565b808452602084019350612acc83612c94565b60005b82811015612afc57612ae2868351612aa0565b612aeb82612c94565b602096909601959150600101612acf565b5093949350505050565b612aa981612cb7565b6000612b1a82612c9a565b808452612b2e816020860160208601612cf3565b612b3781612d1f565b9093016020019392505050565b612aa981612cd1565b612aa981612cdc565b612aa981612cbc565b612aa98161120c565b602081016123d88284612aa0565b60408101612b848285612aa0565b6125196020830184612b4d565b60408101612b9f8285612aa0565b6125196020830184612b5f565b602080825281016125198184612aaf565b602081016123d88284612b06565b602080825281016125198184612b0f565b602081016123d88284612b44565b602081016123d88284612b56565b602081016123d88284612b5f565b60405181810167ffffffffffffffff81118282101715612c2557600080fd5b604052919050565b600067ffffffffffffffff821115612c4457600080fd5b5060209081020190565b600067ffffffffffffffff821115612c6557600080fd5b506020601f919091017fffffffffffffffffffffffffffffffffffffffffffffffffffffffffffffffe0160190565b60200190565b5190565b73ffffffffffffffffffffffffffffffffffffffff1690565b151590565b6fffffffffffffffffffffffffffffffff1690565b60006123d882612c9e565b60006123d88261120c565b82818337506000910152565b60005b83811015612d0e578181015183820152602001612cf6565b83811115610e265750506000910152565b601f017fffffffffffffffffffffffffffffffffffffffffffffffffffffffffffffffe016905600a265627a7a72305820809d6a03b121a886e728509190fd8eebf19460c07d04a3bf3221626242a21a866c6578706572696d656e74616cf50037a265627a7a723058206307021069a403ee95937369549e1a3a39ac5c8319f609f6a9084cefea69ea556c6578706572696d656e74616cf50037",
  "source": "pragma solidity ^0.4.18;\npragma experimental ABIEncoderV2;\n\nimport \"../../libraries/LibConstruction.sol\";\nimport '../MatryxSubmission.sol';\n\ncontract MatryxSubmissionFactory {\n\n\tfunction createSubmission(address[] _contributors, uint128[] _contributorRewardDistribution, address[] _references, LibConstruction.RequiredSubmissionAddresses requiredAddresses, LibConstruction.SubmissionData submissionData) public returns (address _submissionAddress) {\n\t\treturn new MatryxSubmission(_contributors, _contributorRewardDistribution, _references, requiredAddresses, submissionData);\n\t}\n}",
  "sourcePath": "/Users/maxhoward/Desktop/Ethereum/Development/Matryx/Projects/MatryxPlatform/contracts/factories/MatryxSubmissionFactory.sol",
  "compiler": {
    "name": "solc",
    "version": "0.4.24+commit.e67f0147.Emscripten.clang"
  },
  "schemaVersion": "2.0.0",
  "updatedAt": "2018-06-22T18:13:21.453Z"
}