{
  "contractName": "MatryxRound",
  "abi": [
    {
      "constant": true,
      "inputs": [],
      "name": "tournamentAddress",
      "outputs": [
        {
          "name": "",
          "type": "address"
        }
      ],
      "payable": false,
      "stateMutability": "view",
      "type": "function"
    },
    {
      "constant": true,
      "inputs": [],
      "name": "matryxTokenAddress",
      "outputs": [
        {
          "name": "",
          "type": "address"
        }
      ],
      "payable": false,
      "stateMutability": "view",
      "type": "function"
    },
    {
      "constant": true,
      "inputs": [
        {
          "name": "_sender",
          "type": "address"
        }
      ],
      "name": "isOwner",
      "outputs": [
        {
          "name": "_isOwner",
          "type": "bool"
        }
      ],
      "payable": false,
      "stateMutability": "view",
      "type": "function"
    },
    {
      "constant": true,
      "inputs": [],
      "name": "endTime",
      "outputs": [
        {
          "name": "",
          "type": "uint256"
        }
      ],
      "payable": false,
      "stateMutability": "view",
      "type": "function"
    },
    {
      "constant": true,
      "inputs": [],
      "name": "reviewPeriod",
      "outputs": [
        {
          "name": "",
          "type": "uint256"
        }
      ],
      "payable": false,
      "stateMutability": "view",
      "type": "function"
    },
    {
      "constant": true,
      "inputs": [],
      "name": "nextRound",
      "outputs": [
        {
          "name": "",
          "type": "address"
        }
      ],
      "payable": false,
      "stateMutability": "view",
      "type": "function"
    },
    {
      "constant": true,
      "inputs": [],
      "name": "roundIndex",
      "outputs": [
        {
          "name": "",
          "type": "uint256"
        }
      ],
      "payable": false,
      "stateMutability": "view",
      "type": "function"
    },
    {
      "constant": true,
      "inputs": [],
      "name": "startTime",
      "outputs": [
        {
          "name": "",
          "type": "uint256"
        }
      ],
      "payable": false,
      "stateMutability": "view",
      "type": "function"
    },
    {
      "constant": true,
      "inputs": [
        {
          "name": "",
          "type": "uint256"
        }
      ],
      "name": "winningSubmissions",
      "outputs": [
        {
          "name": "",
          "type": "address"
        }
      ],
      "payable": false,
      "stateMutability": "view",
      "type": "function"
    },
    {
      "constant": true,
      "inputs": [],
      "name": "getOwner",
      "outputs": [
        {
          "name": "_owner",
          "type": "address"
        }
      ],
      "payable": false,
      "stateMutability": "view",
      "type": "function"
    },
    {
      "constant": true,
      "inputs": [],
      "name": "owner",
      "outputs": [
        {
          "name": "",
          "type": "address"
        }
      ],
      "payable": false,
      "stateMutability": "view",
      "type": "function"
    },
    {
      "constant": true,
      "inputs": [],
      "name": "bounty",
      "outputs": [
        {
          "name": "",
          "type": "uint256"
        }
      ],
      "payable": false,
      "stateMutability": "view",
      "type": "function"
    },
    {
      "constant": true,
      "inputs": [],
      "name": "matryxSubmissionFactoryAddress",
      "outputs": [
        {
          "name": "",
          "type": "address"
        }
      ],
      "payable": false,
      "stateMutability": "view",
      "type": "function"
    },
    {
      "constant": true,
      "inputs": [],
      "name": "previousRound",
      "outputs": [
        {
          "name": "",
          "type": "address"
        }
      ],
      "payable": false,
      "stateMutability": "view",
      "type": "function"
    },
    {
      "constant": true,
      "inputs": [],
      "name": "platformAddress",
      "outputs": [
        {
          "name": "",
          "type": "address"
        }
      ],
      "payable": false,
      "stateMutability": "view",
      "type": "function"
    },
    {
      "constant": false,
      "inputs": [
        {
          "name": "newOwner",
          "type": "address"
        }
      ],
      "name": "transferOwnership",
      "outputs": [],
      "payable": false,
      "stateMutability": "nonpayable",
      "type": "function"
    },
    {
      "inputs": [
        {
          "name": "_platformAddress",
          "type": "address"
        },
        {
          "name": "_matryxTokenAddress",
          "type": "address"
        },
        {
          "name": "_tournamentAddress",
          "type": "address"
        },
        {
          "name": "_submissionFactoryAddress",
          "type": "address"
        },
        {
          "name": "_owner",
          "type": "address"
        },
        {
          "components": [
            {
              "name": "start",
              "type": "uint256"
            },
            {
              "name": "end",
              "type": "uint256"
            },
            {
              "name": "reviewDuration",
              "type": "uint256"
            },
            {
              "name": "bounty",
              "type": "uint256"
            }
          ],
          "name": "roundData",
          "type": "tuple"
        }
      ],
      "payable": false,
      "stateMutability": "nonpayable",
      "type": "constructor"
    },
    {
      "constant": true,
      "inputs": [],
      "name": "getState",
      "outputs": [
        {
          "name": "",
          "type": "uint256"
        }
      ],
      "payable": false,
      "stateMutability": "view",
      "type": "function"
    },
    {
      "constant": true,
      "inputs": [],
      "name": "getNow",
      "outputs": [
        {
          "name": "",
          "type": "uint256"
        }
      ],
      "payable": false,
      "stateMutability": "view",
      "type": "function"
    },
    {
      "constant": true,
      "inputs": [
        {
          "name": "_index",
          "type": "uint256"
        }
      ],
      "name": "submissionIsAccessible",
      "outputs": [
        {
          "name": "",
          "type": "bool"
        }
      ],
      "payable": false,
      "stateMutability": "view",
      "type": "function"
    },
    {
      "constant": true,
      "inputs": [
        {
          "name": "_submissionAddress",
          "type": "address"
        }
      ],
      "name": "submissionIsAccessible",
      "outputs": [
        {
          "name": "",
          "type": "bool"
        }
      ],
      "payable": false,
      "stateMutability": "view",
      "type": "function"
    },
    {
      "constant": true,
      "inputs": [
        {
          "name": "_requester",
          "type": "address"
        }
      ],
      "name": "requesterIsContributor",
      "outputs": [
        {
          "name": "",
          "type": "bool"
        }
      ],
      "payable": false,
      "stateMutability": "view",
      "type": "function"
    },
    {
      "constant": false,
      "inputs": [
        {
          "name": "_participantAddress",
          "type": "address"
        },
        {
          "name": "_type",
          "type": "uint256"
        }
      ],
      "name": "setParticipantType",
      "outputs": [],
      "payable": false,
      "stateMutability": "nonpayable",
      "type": "function"
    },
    {
      "constant": true,
      "inputs": [],
      "name": "getPlatform",
      "outputs": [
        {
          "name": "",
          "type": "address"
        }
      ],
      "payable": false,
      "stateMutability": "view",
      "type": "function"
    },
    {
      "constant": true,
      "inputs": [],
      "name": "getTournament",
      "outputs": [
        {
          "name": "",
          "type": "address"
        }
      ],
      "payable": false,
      "stateMutability": "view",
      "type": "function"
    },
    {
      "constant": true,
      "inputs": [],
      "name": "getBounty",
      "outputs": [
        {
          "name": "",
          "type": "uint256"
        }
      ],
      "payable": false,
      "stateMutability": "view",
      "type": "function"
    },
    {
      "constant": true,
      "inputs": [],
      "name": "getTokenAddress",
      "outputs": [
        {
          "name": "",
          "type": "address"
        }
      ],
      "payable": false,
      "stateMutability": "view",
      "type": "function"
    },
    {
      "constant": true,
      "inputs": [],
      "name": "getSubmissions",
      "outputs": [
        {
          "name": "_submissions",
          "type": "address[]"
        }
      ],
      "payable": false,
      "stateMutability": "view",
      "type": "function"
    },
    {
      "constant": true,
      "inputs": [
        {
          "name": "_index",
          "type": "uint256"
        }
      ],
      "name": "getSubmissionAddress",
      "outputs": [
        {
          "name": "_submissionAddress",
          "type": "address"
        }
      ],
      "payable": false,
      "stateMutability": "view",
      "type": "function"
    },
    {
      "constant": true,
      "inputs": [
        {
          "name": "_index",
          "type": "uint256"
        }
      ],
      "name": "getSubmissionAuthor",
      "outputs": [
        {
          "name": "",
          "type": "address"
        }
      ],
      "payable": false,
      "stateMutability": "view",
      "type": "function"
    },
    {
      "constant": true,
      "inputs": [
        {
          "name": "_submissionAddress",
          "type": "address"
        }
      ],
      "name": "getBalance",
      "outputs": [
        {
          "name": "",
          "type": "uint256"
        }
      ],
      "payable": false,
      "stateMutability": "view",
      "type": "function"
    },
    {
      "constant": true,
      "inputs": [],
      "name": "submissionsChosen",
      "outputs": [
        {
          "name": "",
          "type": "bool"
        }
      ],
      "payable": false,
      "stateMutability": "view",
      "type": "function"
    },
    {
      "constant": true,
      "inputs": [],
      "name": "getWinningSubmissionAddresses",
      "outputs": [
        {
          "name": "",
          "type": "address[]"
        }
      ],
      "payable": false,
      "stateMutability": "view",
      "type": "function"
    },
    {
      "constant": true,
      "inputs": [],
      "name": "numberOfSubmissions",
      "outputs": [
        {
          "name": "",
          "type": "uint256"
        }
      ],
      "payable": false,
      "stateMutability": "view",
      "type": "function"
    },
    {
      "constant": false,
      "inputs": [
        {
          "name": "_submissionAddresses",
          "type": "address[]"
        },
        {
          "name": "_rewardDistribution",
          "type": "uint256[]"
        }
      ],
      "name": "chooseWinningSubmissions",
      "outputs": [],
      "payable": false,
      "stateMutability": "nonpayable",
      "type": "function"
    },
    {
      "constant": false,
      "inputs": [
        {
          "name": "_contributors",
          "type": "address[]"
        },
        {
          "name": "_contributorRewardDistribution",
          "type": "uint128[]"
        },
        {
          "name": "_references",
          "type": "address[]"
        },
        {
          "name": "_author",
          "type": "address"
        },
        {
          "components": [
            {
              "name": "title",
              "type": "string"
            },
            {
              "name": "owner",
              "type": "address"
            },
            {
              "name": "contentHash",
              "type": "bytes"
            },
            {
              "name": "isPublic",
              "type": "bool"
            }
          ],
          "name": "submissionData",
          "type": "tuple"
        }
      ],
      "name": "createSubmission",
      "outputs": [
        {
          "name": "_submissionAddress",
          "type": "address"
        }
      ],
      "payable": false,
      "stateMutability": "nonpayable",
      "type": "function"
    },
    {
      "constant": false,
      "inputs": [],
      "name": "liquidate",
      "outputs": [],
      "payable": false,
      "stateMutability": "nonpayable",
      "type": "function"
    }
  ],
  "bytecode": "0x60806040523480156200001157600080fd5b5060405161012080620022ab833981018060405262000034919081019062000174565b6000805460048054600160a060020a03898116600160a060020a031992831617909255600180548b841690831617905560028054898416908316179055858216928116331781169290921790925560038054928616929091169190911790556060810151600b55805160208201516040830151620000bd929190640100000000620000c9810204565b50505050505062000240565b600892909255600955600a55565b6000620000e5825162000231565b9392505050565b600060808284031215620000ff57600080fd5b6200010b608062000209565b905060006200011b848462000166565b82525060206200012e8484830162000166565b6020830152506040620001448482850162000166565b60408301525060606200015a8482850162000166565b60608301525092915050565b6000620000e582516200023d565b60008060008060008061012087890312156200018f57600080fd5b60006200019d8989620000d7565b9650506020620001b089828a01620000d7565b9550506040620001c389828a01620000d7565b9450506060620001d689828a01620000d7565b9350506080620001e989828a01620000d7565b92505060a0620001fc89828a01620000ec565b9150509295509295509295565b60405181810167ffffffffffffffff811182821017156200022957600080fd5b604052919050565b600160a060020a031690565b90565b61205b80620002506000396000f3006080604052600436106101c15763ffffffff7c010000000000000000000000000000000000000000000000000000000060003504166303d66a9781146101c657806310fe9ae8146101f157806311fb4804146102065780631865c57d146102335780631cdb7de514610255578063241b15ad1461027757806328a070251461028c57806329cc545e146102a15780632f54bf6e146102b65780632fc1f190146102d65780633197cbb6146102eb578063389994f9146103005780633b249810146103155780633d6227801461032a57806347e405531461034a57806354f6aa201461035f57806356974da314610381578063648036ae146103a157806378e97925146103b65780637df2d748146103cb5780638499a138146103eb5780638734fe4c1461040b578063893d20e81461042b5780638da5cb5b14610440578063943dfef114610455578063b0ff54921461046a578063b288e1a91461047f578063bbe4fd5014610494578063c2d426cf146104a9578063dbe55e56146104c9578063df4f9dba146104de578063e76c293e146104fe578063ed09846014610513578063f2fde38b14610528578063f49bff7b14610548578063f8b2cb4f1461055d575b600080fd5b3480156101d257600080fd5b506101db61057d565b6040516101e89190611e2b565b60405180910390f35b3480156101fd57600080fd5b506101db610599565b34801561021257600080fd5b50610226610221366004611a4e565b6105b6565b6040516101e89190611eca565b34801561023f57600080fd5b5061024861069a565b6040516101e89190611ee8565b34801561026157600080fd5b50610275610270366004611a92565b610718565b005b34801561028357600080fd5b5061024861075f565b34801561029857600080fd5b50610275610769565b3480156102ad57600080fd5b506101db610a44565b3480156102c257600080fd5b506102266102d1366004611a4e565b610a60565b3480156102e257600080fd5b506101db610a81565b3480156102f757600080fd5b50610248610a9d565b34801561030c57600080fd5b50610226610aa3565b34801561032157600080fd5b50610248610ade565b34801561033657600080fd5b506101db610345366004611c1d565b610ae4565b34801561035657600080fd5b506101db610c94565b34801561036b57600080fd5b50610374610cb0565b6040516101e89190611e54565b34801561038d57600080fd5b5061022661039c366004611c1d565b610d1f565b3480156103ad57600080fd5b50610248610da2565b3480156103c257600080fd5b50610248610da8565b3480156103d757600080fd5b506101db6103e6366004611c1d565b610dae565b3480156103f757600080fd5b50610226610406366004611a4e565b610de3565b34801561041757600080fd5b506101db610426366004611acc565b610e0d565b34801561043757600080fd5b506101db6111f3565b34801561044c57600080fd5b506101db61120f565b34801561046157600080fd5b5061024861122b565b34801561047657600080fd5b506101db611231565b34801561048b57600080fd5b506101db61124d565b3480156104a057600080fd5b50610248611269565b3480156104b557600080fd5b506102756104c4366004611ba0565b61126d565b3480156104d557600080fd5b506101db611445565b3480156104ea57600080fd5b506101db6104f9366004611c1d565b611461565b34801561050a57600080fd5b506101db6114a8565b34801561051f57600080fd5b506103746114c4565b34801561053457600080fd5b50610275610543366004611a4e565b611531565b34801561055457600080fd5b506102486115b3565b34801561056957600080fd5b50610248610578366004611a4e565b6115b9565b60025473ffffffffffffffffffffffffffffffffffffffff1681565b60045473ffffffffffffffffffffffffffffffffffffffff165b90565b73ffffffffffffffffffffffffffffffffffffffff8116600090815260116020526040812054819060ff1615156105ec57600080fd5b506040517fa52dd12f000000000000000000000000000000000000000000000000000000008152829073ffffffffffffffffffffffffffffffffffffffff82169063a52dd12f90610641903390600401611e2b565b602060405180830381600087803b15801561065b57600080fd5b505af115801561066f573d6000803e3d6000fd5b505050506040513d601f19601f820116820180604052506106939190810190611bff565b9392505050565b60006008544210156106b05760005b90506105b3565b600854421180156106c2575060095442105b156106ce5760016106a9565b60095442101580156106f35750600a546009546106f09163ffffffff61166916565b42105b156106ff5760026106a9565b600e54600010156107115760036106a9565b60046106a9565b3360009081526011602052604090205460ff16151561073657600080fd5b73ffffffffffffffffffffffffffffffffffffffff9091166000908152600f6020526040902055565b6014546012540390565b33600090815260106020526040812054151561078457600080fd5b600461078e61069a565b146107ce576040517f08c379a00000000000000000000000000000000000000000000000000000000081526004016107c590611ed8565b60405180910390fd5b336000908152600d602052604090205460ff16156107eb57600080fd5b600c5460ff1615156108de57600454601354600b5473ffffffffffffffffffffffffffffffffffffffff9092169163a9059cbb913391610843916002916108379163ffffffff61167816565b9063ffffffff61168f16565b6040518363ffffffff167c010000000000000000000000000000000000000000000000000000000002815260040161087c929190611e39565b602060405180830381600087803b15801561089657600080fd5b505af11580156108aa573d6000803e3d6000fd5b505050506040513d601f19601f820116820180604052506108ce9190810190611bff565b15156108d957600080fd5b610a09565b50601354600454600b5473ffffffffffffffffffffffffffffffffffffffff9091169063a9059cbb903390610973907fffffffffffffffffffffffffffffffffffffffffffffffffffffffffffffffff86019061096790879082907ffffffffffffffffffffffffffffffffffffffffffffffffffffffffffffffffe830163ffffffff61168f16565b9063ffffffff61167816565b6040518363ffffffff167c01000000000000000000000000000000000000000000000000000000000281526004016109ac929190611e39565b602060405180830381600087803b1580156109c657600080fd5b505af11580156109da573d6000803e3d6000fd5b505050506040513d601f19601f820116820180604052506109fe9190810190611bff565b1515610a0957600080fd5b50336000908152600d6020526040902080547fffffffffffffffffffffffffffffffffffffffffffffffffffffffffffffff00166001179055565b60045473ffffffffffffffffffffffffffffffffffffffff1681565b60005473ffffffffffffffffffffffffffffffffffffffff91821691161490565b60015473ffffffffffffffffffffffffffffffffffffffff1690565b60095481565b6000600e6000815481101515610ab557fe5b60009182526020909120015473ffffffffffffffffffffffffffffffffffffffff161515905090565b600a5481565b6000803383601281815481101515610af857fe5b6000918252602090912001546040517fa52dd12f00000000000000000000000000000000000000000000000000000000815273ffffffffffffffffffffffffffffffffffffffff9091169063a52dd12f90610b57908590600401611e2b565b602060405180830381600087803b158015610b7157600080fd5b505af1158015610b85573d6000803e3d6000fd5b505050506040513d601f19601f82011682018060405250610ba99190810190611bff565b1515610bb457600080fd5b6012805486908110610bc257fe5b9060005260206000200160009054906101000a900473ffffffffffffffffffffffffffffffffffffffff1692508273ffffffffffffffffffffffffffffffffffffffff1663a5faa1256040518163ffffffff167c0100000000000000000000000000000000000000000000000000000000028152600401602060405180830381600087803b158015610c5357600080fd5b505af1158015610c67573d6000803e3d6000fd5b505050506040513d601f19601f82011682018060405250610c8b9190810190611a74565b95945050505050565b60075473ffffffffffffffffffffffffffffffffffffffff1681565b60606012805480602002602001604051908101604052809291908181526020018280548015610d1557602002820191906000526020600020905b815473ffffffffffffffffffffffffffffffffffffffff168152600190910190602001808311610cea575b5050505050905090565b60125460009081908310610d3257600080fd5b6012805484908110610d4057fe5b6000918252602090912001546040517fa52dd12f00000000000000000000000000000000000000000000000000000000815273ffffffffffffffffffffffffffffffffffffffff9091169150819063a52dd12f90610641903390600401611e2b565b60055481565b60085481565b600e805482908110610dbc57fe5b60009182526020909120015473ffffffffffffffffffffffffffffffffffffffff16905081565b73ffffffffffffffffffffffffffffffffffffffff166000908152600f6020526040902054151590565b6000610e176116de565b600254600090819073ffffffffffffffffffffffffffffffffffffffff163314610e4057600080fd5b6001610e4a61069a565b14610e5457600080fd5b73ffffffffffffffffffffffffffffffffffffffff86161515610e7657600080fd5b6040805160608101825260015473ffffffffffffffffffffffffffffffffffffffff908116825260025481166020830152308284015260035492517f867cda48000000000000000000000000000000000000000000000000000000008152919550919091169063867cda4890610ef8908c908c908c9089908c90600401611e65565b602060405180830381600087803b158015610f1257600080fd5b505af1158015610f26573d6000803e3d6000fd5b505050506040513d601f19601f82011682018060405250610f4a9190810190611a74565b604080518082018252600180825260128054602080850191825273ffffffffffffffffffffffffffffffffffffffff8716600081815260118352878120965187547fffffffffffffffffffffffffffffffffffffffffffffffffffffffffffffff001690151517875592519585019590955582549384019092557fbb8a6a4669ba250d26cd7a459eca9d215f8307e33aebe50379bc5a3617ec3444909201805473ffffffffffffffffffffffffffffffffffffffff1916909317909255338152601090915220549092501515611089576020850151601380546001810182556000919091527f66de8ffda797e3de9c05e8fc57b3bf0ec28a930d40b0d285d93c06501cf6a09001805473ffffffffffffffffffffffffffffffffffffffff191673ffffffffffffffffffffffffffffffffffffffff9092169190911790555b33600090815260106020908152604082208054600181018255908352912001805473ffffffffffffffffffffffffffffffffffffffff191673ffffffffffffffffffffffffffffffffffffffff8416179055600373ffffffffffffffffffffffffffffffffffffffff87166000908152600f602052604081209190915590505b885181101561115e576002600f60008b8481518110151561112657fe5b602090810290910181015173ffffffffffffffffffffffffffffffffffffffff16825281019190915260400160002055600101611109565b6002546040517f4644c51b00000000000000000000000000000000000000000000000000000000815273ffffffffffffffffffffffffffffffffffffffff90911690634644c51b906111b4908590600401611e2b565b600060405180830381600087803b1580156111ce57600080fd5b505af11580156111e2573d6000803e3d6000fd5b50939b9a5050505050505050505050565b60005473ffffffffffffffffffffffffffffffffffffffff1690565b60005473ffffffffffffffffffffffffffffffffffffffff1681565b600b5481565b60035473ffffffffffffffffffffffffffffffffffffffff1681565b60065473ffffffffffffffffffffffffffffffffffffffff1681565b4290565b6002546000908190819073ffffffffffffffffffffffffffffffffffffffff16331461129857600080fd5b83518551146112a657600080fd5b84516112b990600e9060208801906116fe565b505060045473ffffffffffffffffffffffffffffffffffffffff16915060005b845181101561143e5783818151811015156112f057fe5b9060200190602002015182019150670de0b6b3a7640000821115151561131557600080fd5b611335858281518110151561132657fe5b906020019060200201516116b3565b151561134057600080fd5b8273ffffffffffffffffffffffffffffffffffffffff1663a9059cbb868381518110151561136a57fe5b906020019060200201516113aa670de0b6b3a7640000610967898781518110151561139157fe5b60209081029091010151600b549063ffffffff61168f16565b6040518363ffffffff167c01000000000000000000000000000000000000000000000000000000000281526004016113e3929190611e39565b602060405180830381600087803b1580156113fd57600080fd5b505af1158015611411573d6000803e3d6000fd5b505050506040513d601f19601f820116820180604052506114359190810190611bff565b506001016112d9565b5050505050565b60015473ffffffffffffffffffffffffffffffffffffffff1681565b601254600090821061147257600080fd5b601280548390811061148057fe5b60009182526020909120015473ffffffffffffffffffffffffffffffffffffffff1692915050565b60025473ffffffffffffffffffffffffffffffffffffffff1690565b6060600e805480602002602001604051908101604052809291908181526020018280548015610d155760200282019190600052602060002090815473ffffffffffffffffffffffffffffffffffffffff168152600190910190602001808311610cea575050505050905090565b60005473ffffffffffffffffffffffffffffffffffffffff16331461155557600080fd5b73ffffffffffffffffffffffffffffffffffffffff8116151561157757600080fd5b6000805473ffffffffffffffffffffffffffffffffffffffff191673ffffffffffffffffffffffffffffffffffffffff92909216919091179055565b600b5490565b600480546040517f70a0823100000000000000000000000000000000000000000000000000000000815260009273ffffffffffffffffffffffffffffffffffffffff909216916370a082319161161191869101611e2b565b602060405180830381600087803b15801561162b57600080fd5b505af115801561163f573d6000803e3d6000fd5b505050506040513d601f19601f820116820180604052506116639190810190611c3b565b92915050565b60008282018381101561069357fe5b600080828481151561168657fe5b04949350505050565b60008282028315806116ab57508284828115156116a857fe5b04145b151561069357fe5b73ffffffffffffffffffffffffffffffffffffffff1660009081526011602052604090205460ff1690565b604080516060810182526000808252602082018190529181019190915290565b82805482825590600052602060002090810192821561176d579160200282015b8281111561176d578251825473ffffffffffffffffffffffffffffffffffffffff191673ffffffffffffffffffffffffffffffffffffffff90911617825560209092019160019091019061171e565b5061177992915061177d565b5090565b6105b391905b8082111561177957805473ffffffffffffffffffffffffffffffffffffffff19168155600101611783565b60006106938235611f8e565b60006106938251611f8e565b6000601f820183136117d757600080fd5b81356117ea6117e582611f1d565b611ef6565b9150818183526020840193506020810190508385602084028201111561180f57600080fd5b60005b8381101561183b578161182588826117ae565b8452506020928301929190910190600101611812565b5050505092915050565b6000601f8201831361185657600080fd5b81356118646117e582611f1d565b9150818183526020840193506020810190508385602084028201111561188957600080fd5b60005b8381101561183b578161189f8882611a2a565b845250602092830192919091019060010161188c565b6000601f820183136118c657600080fd5b81356118d46117e582611f1d565b915081818352602084019350602081019050838560208402820111156118f957600080fd5b60005b8381101561183b578161190f8882611a36565b84525060209283019291909101906001016118fc565b60006106938235611fa7565b60006106938251611fa7565b6000601f8201831361194e57600080fd5b813561195c6117e582611f3e565b9150808252602083016020830185838301111561197857600080fd5b611983838284611fc1565b50505092915050565b60006080828403121561199e57600080fd5b6119a86080611ef6565b9050813567ffffffffffffffff8111156119c157600080fd5b6119cd8482850161193d565b82525060206119de848483016117ae565b602083015250604082013567ffffffffffffffff8111156119fe57600080fd5b611a0a8482850161193d565b6040830152506060611a1e84828501611925565b60608301525092915050565b60006106938235611fac565b600061069382356105b3565b600061069382516105b3565b600060208284031215611a6057600080fd5b6000611a6c84846117ae565b949350505050565b600060208284031215611a8657600080fd5b6000611a6c84846117ba565b60008060408385031215611aa557600080fd5b6000611ab185856117ae565b9250506020611ac285828601611a36565b9150509250929050565b600080600080600060a08688031215611ae457600080fd5b853567ffffffffffffffff811115611afb57600080fd5b611b07888289016117c6565b955050602086013567ffffffffffffffff811115611b2457600080fd5b611b3088828901611845565b945050604086013567ffffffffffffffff811115611b4d57600080fd5b611b59888289016117c6565b9350506060611b6a888289016117ae565b925050608086013567ffffffffffffffff811115611b8757600080fd5b611b938882890161198c565b9150509295509295909350565b60008060408385031215611bb357600080fd5b823567ffffffffffffffff811115611bca57600080fd5b611bd6858286016117c6565b925050602083013567ffffffffffffffff811115611bf357600080fd5b611ac2858286016118b5565b600060208284031215611c1157600080fd5b6000611a6c8484611931565b600060208284031215611c2f57600080fd5b6000611a6c8484611a36565b600060208284031215611c4d57600080fd5b6000611a6c8484611a42565b611c6281611f8e565b82525050565b6000611c7382611f8a565b808452602084019350611c8583611f84565b60005b82811015611cb557611c9b868351611c59565b611ca482611f84565b602096909601959150600101611c88565b5093949350505050565b6000611cca82611f8a565b808452602084019350611cdc83611f84565b60005b82811015611cb557611cf2868351611e19565b611cfb82611f84565b602096909601959150600101611cdf565b611c6281611fa7565b6000611d2082611f8a565b808452611d34816020860160208601611fcd565b611d3d81611ff9565b9093016020019392505050565b601f81527f5468697320746f75726e616d656e74206973207374696c6c2076616c69642e00602082015260400190565b80516060830190611d8b8482611c59565b506020820151611d9e6020850182611c59565b506040820151611db16040850182611c59565b50505050565b8051608080845260009190840190611dcf8282611d15565b9150506020830151611de46020860182611c59565b5060408301518482036040860152611dfc8282611d15565b9150506060830151611e116060860182611d0c565b509392505050565b611c6281611fac565b611c62816105b3565b602081016116638284611c59565b60408101611e478285611c59565b6106936020830184611e22565b602080825281016106938184611c68565b60e08082528101611e768188611c68565b90508181036020830152611e8a8187611cbf565b90508181036040830152611e9e8186611c68565b9050611ead6060830185611d7a565b81810360c0830152611ebf8184611db7565b979650505050505050565b602081016116638284611d0c565b6020808252810161166381611d4a565b602081016116638284611e22565b60405181810167ffffffffffffffff81118282101715611f1557600080fd5b604052919050565b600067ffffffffffffffff821115611f3457600080fd5b5060209081020190565b600067ffffffffffffffff821115611f5557600080fd5b506020601f919091017fffffffffffffffffffffffffffffffffffffffffffffffffffffffffffffffe0160190565b60200190565b5190565b73ffffffffffffffffffffffffffffffffffffffff1690565b151590565b6fffffffffffffffffffffffffffffffff1690565b82818337506000910152565b60005b83811015611fe8578181015183820152602001611fd0565b83811115611db15750506000910152565b601f017fffffffffffffffffffffffffffffffffffffffffffffffffffffffffffffffe016905600a265627a7a72305820238ee9e71a483d10c02efcd4b10fa3b2cd6d4d95a54a36a4bfc41683b10a39006c6578706572696d656e74616cf50037",
  "source": "pragma solidity ^0.4.18;\npragma experimental ABIEncoderV2;\n\nimport \"../libraries/math/SafeMath.sol\";\nimport \"../libraries/LibConstruction.sol\";\nimport \"../interfaces/IMatryxToken.sol\";\nimport \"../interfaces/IMatryxTournament.sol\";\nimport \"../interfaces/IMatryxRound.sol\";\nimport \"../interfaces/factories/IMatryxSubmissionFactory.sol\";\nimport \"../interfaces/IMatryxSubmission.sol\";\nimport \"./Ownable.sol\";\n\n/// @title MatryxRound - A round within a Matryx tournament.\n/// @author Max Howard - <max@nanome.ai>, Sam Hessenauer - <sam@nanome.ai>\ncontract MatryxRound is Ownable, IMatryxRound {\n    using SafeMath for uint256;\n\n    //TODO: allow for refunds\n    // TODO: condense and put in structs\n    address public platformAddress;\n    address public tournamentAddress;\n    address public matryxSubmissionFactoryAddress;\n    address public matryxTokenAddress;\n\n    uint256 public roundIndex;\n    address public previousRound;\n    address public nextRound;\n    uint256 public startTime;\n    uint256 public endTime;\n    uint256 public reviewPeriod;\n    uint256 public bounty;\n    bool hasBeenWithdrawnFrom;\n    mapping(address=>bool) hasWithdrawn;\n    address[] public winningSubmissions;\n\n    mapping(address=>uint) addressToParticipantType;\n    mapping(address=>address[]) authorToSubmissionAddress;\n    mapping(address=>uint256_optional) addressToSubmissionIndex;\n    address[] submissions;\n    address[] submissionOwners;\n    uint256 numberSubmissionsRemoved;\n\n\tconstructor(address _platformAddress, address _matryxTokenAddress, address _tournamentAddress, address _submissionFactoryAddress, address _owner, LibConstruction.RoundData roundData) public\n\t{\n\t\tmatryxTokenAddress = _matryxTokenAddress;\n\t\tplatformAddress = _platformAddress;\n\t\ttournamentAddress = _tournamentAddress;\n\t\towner = _owner;\n\t\tmatryxSubmissionFactoryAddress = _submissionFactoryAddress;\n\t\tbounty = roundData.bounty;\n\n\t\tscheduleStart(roundData.start, roundData.end, roundData.reviewDuration);\n\t}\n\n\t/*\n\t * Structs\n\t */\n\n\tstruct uint256_optional\n    {\n        bool exists;\n        uint256 value;\n    }\n\n    /*\n     * Enums\n     */\n\n\tenum participantType { nonentrant, entrant, contributor, author }\n\n\t/*\n     * Modifiers\n     */\n\n    /// @dev Requires that this round is in the open submission state.\n\tmodifier duringOpenSubmission()\n\t{\n\t\trequire(getState() == uint256(RoundState.Open));\n\t\t_;\n\t}\n\n\t/// @dev Requires that this round is in the winner selection state.\n\t// modifier duringReviewPeriod()\n\t// {\n\t// \t//require(endTime != 0);\n\t// \trequire(getState() == RoundInReview);\n\t// \t_;\n\t// }\n\n\t// @dev Requires that a winner has been selected for this round.\n\t// modifier afterWinnerSelected()\n\t// {\n\t// \trequire(winningSubmissions[0] != 0x0);\n\t// \t_;\n\t// }\n\n    modifier onlySubmission()\n    {\n        require(addressToSubmissionIndex[msg.sender].exists);\n        _;\n    }\n\n    modifier onlyTournament()\n    {\n        require(msg.sender == tournamentAddress);\n        _;\n    }\n\n\t/// @dev Requires that the desired submission is accessible to the requester.\n    modifier whenAccessible(address _requester, uint256 _index)\n    {\n        require(IMatryxSubmission(submissions[_index]).isAccessible(_requester));\n        _;\n    }\n\n    function submissionExists(address _submissionAddress) internal returns (bool)\n    {\n        return addressToSubmissionIndex[_submissionAddress].exists;\n    }\n\n\t/// @dev Requires the function caller to be the platform or the owner of this tournament\n\t// modifier tournamentOrOwner()\n    // {\n    //     require((msg.sender == tournamentAddress)||(msg.sender == owner));\n    //     _;\n    // }\n\n\t// @dev Requires that the sender be the submission's author.\n\tmodifier onlySubmissionAuthor()\n\t{\n\t\trequire(authorToSubmissionAddress[msg.sender].length != 0);\n\t\t_;\n\t}\n\n\t/*\n\t * State Maintenance Methods\n\t */\n\n\t// function removeSubmission(address _submissionAddress) public onlyTournament returns (bool)\n\t// {\n\t// \tif(addressToSubmissionIndex[msg.sender].exists)\n\t// \t{\n\t// \t\tIMatryxSubmission submission = IMatryxSubmission(submissions[addressToSubmissionIndex[_submissionAddress].value]);\n\t// \t\taddress author = submission.getAuthor();\n\t// \t\tsubmission.deleteSubmission();\n\n\t// \t\tdelete authorToSubmissionAddress[author];\n\t// \t\tdelete submissions[addressToSubmissionIndex[_submissionAddress].value];\n\n\t// \t\tnumberSubmissionsRemoved = numberSubmissionsRemoved.add(1);\n\t// \t\treturn true;\n\t// \t}\n\n\t// \treturn false;\n\t// }\n\n\t/*\n     * Access Control Methods\n     */\n\n    enum RoundState { NotYetOpen, Open, InReview, Closed, Abandoned }\n\n\t// @dev Returns the state of the round. \n\t// The round can be in one of 5 states:\n\t// NotYetOpen, Open, InReview, Closed, Abandoned\n\t// TODO how do we keep track of the startTime, endTime, and winningSubmissions?\n    function getState() public view returns (uint256)\n    {\n        if(now < startTime)\n        {\n            return uint256(RoundState.NotYetOpen);\n        }\n        else if(now > startTime && now < endTime)\n        {\n            return uint256(RoundState.Open);\n        }\n        else if(now >= endTime && now < endTime.add(reviewPeriod))\n        {\n            return uint256(RoundState.InReview);\n        }\n        else if(winningSubmissions.length > 0)\n        {\n            return uint256(RoundState.Closed);\n        }\n        else\n        {\n            return uint256(RoundState.Abandoned);\n        }\n    }\n\n    function getNow() public view returns (uint256)\n    {\n    \treturn now;\n    }\n\n\t/// @dev Returns whether or not the submission is accessible to the requester.\n\t/// @param _index Index of the submission being requested.\n    /// @return Whether or not the submission is accessible to the requester.\n\tfunction submissionIsAccessible(uint256 _index) public constant returns (bool)\n\t{\n\t\trequire(_index < submissions.length);\n\n\t\tIMatryxSubmission submission = IMatryxSubmission(submissions[_index]);\n\t\treturn submission.isAccessible(msg.sender);\n\t}\n\n\t/// @dev Returns whether or not the submission is accessible to the requester.\n\t/// @param _submissionAddress Address of the submission being requested.\n    /// @return Whether or not the submission is accessible to the requester.\n\tfunction submissionIsAccessible(address _submissionAddress) public view returns (bool)\n\t{\n\t\trequire(addressToSubmissionIndex[_submissionAddress].exists);\n\n\t\tIMatryxSubmission submission = IMatryxSubmission(_submissionAddress);\n\t\treturn submission.isAccessible(msg.sender);\n\t}\n\n\t/// @dev Returns true if the sender is an entrant in this round.\n\t/// @param _requester Address being tested.\n\t/// @return Whether or not the requester is a contributor in this round.\n\tfunction requesterIsContributor(address _requester) public constant returns (bool)\n\t{\n\t\treturn addressToParticipantType[_requester] != 0;\n\t}\n\n\tfunction setParticipantType(address _participantAddress, uint256 _type) public onlySubmission\n\t{\n\t\taddressToParticipantType[_participantAddress] = _type;\n\t}\n\n\t/*\n     * Getter Methods\n     */\n\n    function getPlatform() public constant returns (address) {\n\t\treturn platformAddress;\n\t}\n\n    function getTournament() public constant returns (address) {\n\t\treturn tournamentAddress;\n\t}\n\n    function getBounty() public constant returns (uint256) \n    { \n    \treturn bounty;\n    }\n\n    function getTokenAddress() public constant returns (address)\n    {\n    \treturn matryxTokenAddress;\n    }\n\n\t/// @dev Returns all submissions made to this round.\n\t/// @return _submissions All submissions made to this round.\n\tfunction getSubmissions() public constant returns (address[] _submissions)\n\t{\n\t\treturn submissions;\n\t}\n\n\tfunction getSubmissionAddress(uint256 _index) public constant returns (address _submissionAddress)\n\t{\n\t\trequire(_index < submissions.length);\n\n\t\treturn submissions[_index];\n\t}\n\n\t/// @dev Returns the author of a submission.\n\t/// @param _index Index of the submission.\n\t/// @return Address of this submission's author.\n\tfunction getSubmissionAuthor(uint256 _index) public constant whenAccessible(msg.sender, _index) returns (address) \n\t{\n\t\tIMatryxSubmission submission = IMatryxSubmission(submissions[_index]);\n\t\treturn submission.getAuthor();\n\t}\n\n\t/// @dev Returns the balance of a particular submission\n\t/// @param _submissionAddress Address of the submission\n\t/// @return Balance of the bounty \n\tfunction getBalance(address _submissionAddress) public constant returns (uint256)\n\t{\n\t\treturn IMatryxToken(matryxTokenAddress).balanceOf(_submissionAddress);\n\t}\n\n\t/// @dev Returns whether or not a winning submission has been chosen.\n\t/// @return Whether or not a submission has been chosen.\n\tfunction submissionsChosen() public constant returns (bool)\n\t{\n\t\treturn winningSubmissions[0] != 0x0;\n\t}\n\n\t/// @dev Returns the index of this round's winning submission.\n\t/// @return Index of the winning submission.\n\tfunction getWinningSubmissionAddresses() public constant returns (address[])\n\t{\n\t\treturn winningSubmissions;\n\t}\n\n\t/// @dev Returns the number of submissions made to this round.\n\t/// @return Number of submissions made to this round.\n\tfunction numberOfSubmissions() public constant returns (uint256)\n\t{\n\t\treturn submissions.length - numberSubmissionsRemoved;\n\t}\n\n\t/*\n     * Round Admin Methods\n     */\n\n\n\t/// @dev Starts the round (callable only by the owner of the round).\n\t/// @param _start Start time.\n\t/// @param _end End time.\n\t/// @param _reviewPeriod Time to review the round submissions\n\tfunction scheduleStart(uint256 _start, uint256 _end, uint256 _reviewPeriod) internal\n\t{\n\t\tstartTime = _start;\n\t\tendTime = _end;\n\t\treviewPeriod = _reviewPeriod;\n\t}\n\n\t/// @dev Choose a winning submission for the round (callable only by the owner of the round).\n    /// @param _submissionAddresses Index of the winning submission.\n    /// @param _rewardDistribution Distribution indicating how to split the reward among the submissions\n\tfunction chooseWinningSubmissions(address[] _submissionAddresses, uint256[] _rewardDistribution) public onlyTournament /*duringReviewPeriod*/\n\t{\n\t\trequire(_submissionAddresses.length == _rewardDistribution.length);\n\n\t\twinningSubmissions = _submissionAddresses;\n\n\t\tIMatryxToken token = IMatryxToken(matryxTokenAddress);\n\n\t\tuint256 distributionTotal;\n\t\tfor(uint256 i = 0; i < _submissionAddresses.length; i++)\n\t\t{\n\t\t\tdistributionTotal = distributionTotal + _rewardDistribution[i];\n\t\t\trequire(distributionTotal <= 1*10**18);\n\t\t\trequire(submissionExists(_submissionAddresses[i]));\n\t\t\ttoken.transfer(_submissionAddresses[i], bounty.mul(_rewardDistribution[i]).div(1*10**18));\n\t\t}\n\t}\n\n\t/*\n     * Entrant Methods\n     */\n\n    /// @dev Create a new submission.\n    /// @param _author of this submission.\n    /// @param submissionData The data of the submission. Includes:\n    ///\t\ttitle: Title of the submission.\n    ///\t\towner: The owner of the submission.\n    ///\t\tcontentHash: Off-chain content hash of submission details (ipfs hash)\n    ///\t\tcontributors: Contributors to this submission.\n    ///\t\tcontributorRewardDistribution: Informs how the reward should be distributed among the contributors\n    /// \tshould this submission win.\n    ///\t\treferences: Addresses of submissions referenced in creating this submission.\n    /// @return _submissionAddress Location of this submission within this round.\n\tfunction createSubmission(address[] _contributors, uint128[] _contributorRewardDistribution, address[] _references, address _author, LibConstruction.SubmissionData submissionData) public onlyTournament duringOpenSubmission returns (address _submissionAddress)\n\t{\n\t\trequire(_author != 0x0);\n\t\t\n\t\tLibConstruction.RequiredSubmissionAddresses memory requiredSubmissionAddresses = LibConstruction.RequiredSubmissionAddresses({platformAddress: platformAddress, tournamentAddress: tournamentAddress, roundAddress: this});\n        address submissionAddress = IMatryxSubmissionFactory(matryxSubmissionFactoryAddress).createSubmission(_contributors, _contributorRewardDistribution, _references, requiredSubmissionAddresses, submissionData);\n        // submission bookkeeping\n        addressToSubmissionIndex[submissionAddress] = uint256_optional({exists:true, value: submissions.length});\n        submissions.push(submissionAddress);\n\n        // TODO: Change to 'authors.push' once MatryxPeer is part of MatryxPlatform\n        if(authorToSubmissionAddress[msg.sender].length == 0)\n        {\n        \tsubmissionOwners.push(submissionData.owner);\n        }\n\n        authorToSubmissionAddress[msg.sender].push(submissionAddress);\n\n        // round participant bookkeeping\n        addressToParticipantType[_author] = uint(participantType.author);\n        for(uint256 i = 0; i < _contributors.length; i++)\n        {\n        \taddressToParticipantType[_contributors[i]] = uint(participantType.contributor);\n        }\n\n        IMatryxTournament(tournamentAddress).invokeSubmissionCreatedEvent(submissionAddress);\n        return submissionAddress;\n\t}\n\n\t/// @dev Allows contributors to withdraw a portion of the round bounty if the round has been abandoned.\n\tfunction liquidate() public onlySubmissionAuthor\n\t{\n\t\trequire(getState() == uint256(RoundState.Abandoned), \"This tournament is still valid.\");\n\t\trequire(!hasWithdrawn[msg.sender]);\n\n\t\tif(!hasBeenWithdrawnFrom)\n\t\t{\n\t\t\trequire(IMatryxToken(matryxTokenAddress).transfer(msg.sender, bounty.div(submissionOwners.length).mul(2)));\n\t\t}\n\t\telse\n\t\t{\n\t\t\tuint256 numberOfOwners = submissionOwners.length;\n\t\t\trequire(IMatryxToken(matryxTokenAddress).transfer(msg.sender, bounty.mul(numberOfOwners-2).div(numberOfOwners).div(numberOfOwners-1)));\n\t\t}\n\n\t\thasWithdrawn[msg.sender] = true;\n\t}\n}",
  "sourcePath": "/Users/maxhoward/Desktop/Ethereum/Development/Matryx/Projects/MatryxPlatform/contracts/MatryxRound.sol",
  "compiler": {
    "name": "solc",
    "version": "0.4.24+commit.e67f0147.Emscripten.clang"
  },
  "schemaVersion": "2.0.0",
  "updatedAt": "2018-06-22T18:05:26.283Z"
}