{
  "contractName": "MatryxQueryEncrypter",
  "abi": [
    {
      "constant": false,
      "inputs": [],
      "name": "kill",
      "outputs": [],
      "payable": false,
      "stateMutability": "nonpayable",
      "type": "function"
    },
    {
      "constant": false,
      "inputs": [
        {
          "name": "_query",
          "type": "bytes32"
        }
      ],
      "name": "query",
      "outputs": [
        {
          "name": "_id",
          "type": "uint256"
        }
      ],
      "payable": false,
      "stateMutability": "nonpayable",
      "type": "function"
    },
    {
      "inputs": [
        {
          "name": "_querier",
          "type": "address"
        }
      ],
      "payable": false,
      "stateMutability": "nonpayable",
      "type": "constructor"
    }
  ],
  "bytecode": "0x6060604052341561000f57600080fd5b6040516020806102df83398101604052808051906020019091905050336000806101000a81548173ffffffffffffffffffffffffffffffffffffffff021916908373ffffffffffffffffffffffffffffffffffffffff16021790555080600160006101000a81548173ffffffffffffffffffffffffffffffffffffffff021916908373ffffffffffffffffffffffffffffffffffffffff16021790555050610223806100bc6000396000f30060606040526004361061004c576000357c0100000000000000000000000000000000000000000000000000000000900463ffffffff16806341c0e1b514610051578063a3b61a9c14610066575b600080fd5b341561005c57600080fd5b6100646100a1565b005b341561007157600080fd5b61008b600480803560001916906020019091905050610115565b6040518082815260200191505060405180910390f35b6000809054906101000a900473ffffffffffffffffffffffffffffffffffffffff1673ffffffffffffffffffffffffffffffffffffffff163373ffffffffffffffffffffffffffffffffffffffff161415156100fc57600080fd5b3373ffffffffffffffffffffffffffffffffffffffff16ff5b60008060009054906101000a900473ffffffffffffffffffffffffffffffffffffffff1673ffffffffffffffffffffffffffffffffffffffff163373ffffffffffffffffffffffffffffffffffffffff1614151561017257600080fd5b434283336040518085815260200184815260200183600019166000191681526020018273ffffffffffffffffffffffffffffffffffffffff1673ffffffffffffffffffffffffffffffffffffffff166c0100000000000000000000000002815260140194505050505060405180910390206001900460028190555060025490509190505600a165627a7a72305820f76c23013347f5e987a91a3d35f6ab817030f91d45887d19b803501d01403a8d0029",
  "source": "pragma solidity ^0.4.18;\n\n//\n// The lookup contract for storing both the query and responder addresses\n//\nimport \"./MatryxOracleMessenger.sol\";\n\n// Readies and takes query results from the web client.\ncontract MatryxQueryEncrypter {\n\n  // The owner of this contract. i.e. The single TinyOracle contract.\n  MatryxOracleMessenger owner;\n  // The address of the querier (user) for the query this resolver has been given.\n  address querier;\n  // The id of the query (this contract generates this value).\n  uint256 queryID;\n  // The response. The server \n  bytes32 response;\n\n  function MatryxQueryEncrypter(address _querier) public {\n    owner = MatryxOracleMessenger(msg.sender);\n    querier = _querier;\n  }\n\n  modifier owneronly { \n    require(msg.sender == address(owner));\n    _;\n  }\n\n  modifier querierOnly {\n    require(msg.sender == querier);\n    _;\n  }\n\n  function query(bytes32 _query) owneronly public returns (uint256 _id) {\n    // Set the queryID for this QueryResolver by hashing:\n    // 1) The current blocknumber\n    // 2) The time\n    // 3) The query itself\n    // 4) The sender of the query.\n    queryID = uint256(keccak256(block.number, now, _query, msg.sender));\n\n    // Return to the MatryxOracle the queryID we just created.\n    return (queryID);\n  }\n\n  function kill() owneronly public {\n    selfdestruct(msg.sender);\n  }\n}\n",
  "sourcePath": "/Users/maxhoward/Desktop/Ethereum Development/matryx-platform-alpha-contracts/contracts/MatryxQueryEncrypter.sol",
  "compiler": {
    "name": "solc",
    "version": "0.4.18+commit.9cf6e910.Emscripten.clang"
  },
  "schemaVersion": "1.0.1",
  "updatedAt": "2017-11-15T10:55:18.548Z"
}