{
  "contractName": "MatryxTournament",
  "abi": [
    {
      "constant": true,
      "inputs": [],
      "name": "entryFee",
      "outputs": [
        {
          "name": "",
          "type": "uint256"
        }
      ],
      "payable": false,
      "stateMutability": "view",
      "type": "function"
    },
    {
      "constant": true,
      "inputs": [],
      "name": "tournamentOpen",
      "outputs": [
        {
          "name": "",
          "type": "bool"
        }
      ],
      "payable": false,
      "stateMutability": "view",
      "type": "function"
    },
    {
      "constant": true,
      "inputs": [],
      "name": "maxRounds",
      "outputs": [
        {
          "name": "",
          "type": "uint256"
        }
      ],
      "payable": false,
      "stateMutability": "view",
      "type": "function"
    },
    {
      "constant": true,
      "inputs": [],
      "name": "matryxTokenAddress",
      "outputs": [
        {
          "name": "",
          "type": "address"
        }
      ],
      "payable": false,
      "stateMutability": "view",
      "type": "function"
    },
    {
      "constant": true,
      "inputs": [
        {
          "name": "_sender",
          "type": "address"
        }
      ],
      "name": "isOwner",
      "outputs": [
        {
          "name": "_isOwner",
          "type": "bool"
        }
      ],
      "payable": false,
      "stateMutability": "view",
      "type": "function"
    },
    {
      "constant": true,
      "inputs": [],
      "name": "reviewPeriod",
      "outputs": [
        {
          "name": "",
          "type": "uint256"
        }
      ],
      "payable": false,
      "stateMutability": "view",
      "type": "function"
    },
    {
      "constant": true,
      "inputs": [],
      "name": "tournamentOpenedTime",
      "outputs": [
        {
          "name": "",
          "type": "uint256"
        }
      ],
      "payable": false,
      "stateMutability": "view",
      "type": "function"
    },
    {
      "constant": true,
      "inputs": [],
      "name": "tournamentClosedTime",
      "outputs": [
        {
          "name": "",
          "type": "uint256"
        }
      ],
      "payable": false,
      "stateMutability": "view",
      "type": "function"
    },
    {
      "constant": true,
      "inputs": [],
      "name": "title",
      "outputs": [
        {
          "name": "",
          "type": "string"
        }
      ],
      "payable": false,
      "stateMutability": "view",
      "type": "function"
    },
    {
      "constant": true,
      "inputs": [],
      "name": "matryxRoundFactoryAddress",
      "outputs": [
        {
          "name": "",
          "type": "address"
        }
      ],
      "payable": false,
      "stateMutability": "view",
      "type": "function"
    },
    {
      "constant": true,
      "inputs": [],
      "name": "getOwner",
      "outputs": [
        {
          "name": "_owner",
          "type": "address"
        }
      ],
      "payable": false,
      "stateMutability": "view",
      "type": "function"
    },
    {
      "constant": true,
      "inputs": [
        {
          "name": "",
          "type": "address"
        }
      ],
      "name": "isRound",
      "outputs": [
        {
          "name": "",
          "type": "bool"
        }
      ],
      "payable": false,
      "stateMutability": "view",
      "type": "function"
    },
    {
      "constant": true,
      "inputs": [
        {
          "name": "",
          "type": "uint256"
        }
      ],
      "name": "rounds",
      "outputs": [
        {
          "name": "",
          "type": "address"
        }
      ],
      "payable": false,
      "stateMutability": "view",
      "type": "function"
    },
    {
      "constant": true,
      "inputs": [],
      "name": "owner",
      "outputs": [
        {
          "name": "",
          "type": "address"
        }
      ],
      "payable": false,
      "stateMutability": "view",
      "type": "function"
    },
    {
      "constant": true,
      "inputs": [],
      "name": "Bounty",
      "outputs": [
        {
          "name": "",
          "type": "uint256"
        }
      ],
      "payable": false,
      "stateMutability": "view",
      "type": "function"
    },
    {
      "constant": true,
      "inputs": [],
      "name": "BountyLeft",
      "outputs": [
        {
          "name": "",
          "type": "uint256"
        }
      ],
      "payable": false,
      "stateMutability": "view",
      "type": "function"
    },
    {
      "constant": true,
      "inputs": [],
      "name": "platformAddress",
      "outputs": [
        {
          "name": "",
          "type": "address"
        }
      ],
      "payable": false,
      "stateMutability": "view",
      "type": "function"
    },
    {
      "constant": true,
      "inputs": [],
      "name": "externalAddress",
      "outputs": [
        {
          "name": "",
          "type": "bytes"
        }
      ],
      "payable": false,
      "stateMutability": "view",
      "type": "function"
    },
    {
      "constant": true,
      "inputs": [],
      "name": "category",
      "outputs": [
        {
          "name": "",
          "type": "string"
        }
      ],
      "payable": false,
      "stateMutability": "view",
      "type": "function"
    },
    {
      "constant": true,
      "inputs": [],
      "name": "timeCreated",
      "outputs": [
        {
          "name": "",
          "type": "uint256"
        }
      ],
      "payable": false,
      "stateMutability": "view",
      "type": "function"
    },
    {
      "constant": false,
      "inputs": [
        {
          "name": "newOwner",
          "type": "address"
        }
      ],
      "name": "transferOwnership",
      "outputs": [],
      "payable": false,
      "stateMutability": "nonpayable",
      "type": "function"
    },
    {
      "inputs": [
        {
          "name": "_platformAddress",
          "type": "address"
        },
        {
          "name": "_matryxTokenAddress",
          "type": "address"
        },
        {
          "name": "_matryxRoundFactoryAddress",
          "type": "address"
        },
        {
          "name": "_owner",
          "type": "address"
        },
        {
          "name": "_category",
          "type": "string"
        },
        {
          "name": "_tournamentTitle",
          "type": "string"
        },
        {
          "name": "_externalAddress",
          "type": "bytes"
        },
        {
          "name": "_Bounty",
          "type": "uint256"
        },
        {
          "name": "_entryFee",
          "type": "uint256"
        }
      ],
      "payable": false,
      "stateMutability": "nonpayable",
      "type": "constructor"
    },
    {
      "anonymous": false,
      "inputs": [
        {
          "indexed": false,
          "name": "_roundIndex",
          "type": "uint256"
        }
      ],
      "name": "RoundStarted",
      "type": "event"
    },
    {
      "anonymous": false,
      "inputs": [
        {
          "indexed": false,
          "name": "_roundIndex",
          "type": "uint256"
        },
        {
          "indexed": false,
          "name": "_submissionAddress",
          "type": "address"
        }
      ],
      "name": "SubmissionCreated",
      "type": "event"
    },
    {
      "anonymous": false,
      "inputs": [
        {
          "indexed": false,
          "name": "_submissionAddress",
          "type": "address"
        }
      ],
      "name": "RoundWinnerChosen",
      "type": "event"
    },
    {
      "constant": false,
      "inputs": [
        {
          "name": "_submissionAddress",
          "type": "address"
        }
      ],
      "name": "invokeSubmissionCreatedEvent",
      "outputs": [],
      "payable": false,
      "stateMutability": "nonpayable",
      "type": "function"
    },
    {
      "constant": false,
      "inputs": [
        {
          "name": "_submissionAddress",
          "type": "address"
        },
        {
          "name": "_author",
          "type": "address"
        }
      ],
      "name": "removeSubmission",
      "outputs": [
        {
          "name": "",
          "type": "bool"
        }
      ],
      "payable": false,
      "stateMutability": "nonpayable",
      "type": "function"
    },
    {
      "constant": true,
      "inputs": [
        {
          "name": "_sender",
          "type": "address"
        }
      ],
      "name": "isEntrant",
      "outputs": [
        {
          "name": "",
          "type": "bool"
        }
      ],
      "payable": false,
      "stateMutability": "view",
      "type": "function"
    },
    {
      "constant": true,
      "inputs": [],
      "name": "isOpen",
      "outputs": [
        {
          "name": "",
          "type": "bool"
        }
      ],
      "payable": false,
      "stateMutability": "view",
      "type": "function"
    },
    {
      "constant": true,
      "inputs": [],
      "name": "isInReview",
      "outputs": [
        {
          "name": "",
          "type": "bool"
        }
      ],
      "payable": false,
      "stateMutability": "view",
      "type": "function"
    },
    {
      "constant": true,
      "inputs": [],
      "name": "roundIsOpen",
      "outputs": [
        {
          "name": "",
          "type": "bool"
        }
      ],
      "payable": false,
      "stateMutability": "view",
      "type": "function"
    },
    {
      "constant": true,
      "inputs": [],
      "name": "getPlatform",
      "outputs": [
        {
          "name": "_platformAddress",
          "type": "address"
        }
      ],
      "payable": false,
      "stateMutability": "view",
      "type": "function"
    },
    {
      "constant": true,
      "inputs": [],
      "name": "getExternalAddress",
      "outputs": [
        {
          "name": "_externalAddress",
          "type": "bytes"
        }
      ],
      "payable": false,
      "stateMutability": "view",
      "type": "function"
    },
    {
      "constant": true,
      "inputs": [],
      "name": "currentRound",
      "outputs": [
        {
          "name": "_currentRound",
          "type": "uint256"
        },
        {
          "name": "_currentRoundAddress",
          "type": "address"
        }
      ],
      "payable": false,
      "stateMutability": "view",
      "type": "function"
    },
    {
      "constant": true,
      "inputs": [],
      "name": "mySubmissions",
      "outputs": [
        {
          "name": "",
          "type": "address[]"
        }
      ],
      "payable": false,
      "stateMutability": "view",
      "type": "function"
    },
    {
      "constant": true,
      "inputs": [],
      "name": "submissionCount",
      "outputs": [
        {
          "name": "_submissionCount",
          "type": "uint256"
        }
      ],
      "payable": false,
      "stateMutability": "view",
      "type": "function"
    },
    {
      "constant": true,
      "inputs": [],
      "name": "entrantCount",
      "outputs": [
        {
          "name": "_entrantCount",
          "type": "uint256"
        }
      ],
      "payable": false,
      "stateMutability": "view",
      "type": "function"
    },
    {
      "constant": false,
      "inputs": [
        {
          "name": "_title",
          "type": "string"
        }
      ],
      "name": "setTitle",
      "outputs": [],
      "payable": false,
      "stateMutability": "nonpayable",
      "type": "function"
    },
    {
      "constant": false,
      "inputs": [
        {
          "name": "_externalAddress",
          "type": "bytes"
        }
      ],
      "name": "setExternalAddress",
      "outputs": [],
      "payable": false,
      "stateMutability": "nonpayable",
      "type": "function"
    },
    {
      "constant": false,
      "inputs": [
        {
          "name": "_entryFee",
          "type": "uint256"
        }
      ],
      "name": "setEntryFee",
      "outputs": [],
      "payable": false,
      "stateMutability": "nonpayable",
      "type": "function"
    },
    {
      "constant": false,
      "inputs": [
        {
          "name": "_newMaxRounds",
          "type": "uint256"
        }
      ],
      "name": "setNumberOfRounds",
      "outputs": [],
      "payable": false,
      "stateMutability": "nonpayable",
      "type": "function"
    },
    {
      "constant": false,
      "inputs": [
        {
          "name": "_category",
          "type": "string"
        }
      ],
      "name": "setCategory",
      "outputs": [],
      "payable": false,
      "stateMutability": "nonpayable",
      "type": "function"
    },
    {
      "constant": false,
      "inputs": [
        {
          "name": "_submissionAddress",
          "type": "address"
        }
      ],
      "name": "chooseWinner",
      "outputs": [],
      "payable": false,
      "stateMutability": "nonpayable",
      "type": "function"
    },
    {
      "constant": false,
      "inputs": [
        {
          "name": "_bountyMTX",
          "type": "uint256"
        }
      ],
      "name": "createRound",
      "outputs": [
        {
          "name": "_roundAddress",
          "type": "address"
        }
      ],
      "payable": false,
      "stateMutability": "nonpayable",
      "type": "function"
    },
    {
      "constant": false,
      "inputs": [
        {
          "name": "_duration",
          "type": "uint256"
        },
        {
          "name": "_reviewPeriod",
          "type": "uint256"
        }
      ],
      "name": "startRound",
      "outputs": [],
      "payable": false,
      "stateMutability": "nonpayable",
      "type": "function"
    },
    {
      "constant": false,
      "inputs": [
        {
          "name": "_entrantAddress",
          "type": "address"
        }
      ],
      "name": "enterUserInTournament",
      "outputs": [
        {
          "name": "_success",
          "type": "bool"
        }
      ],
      "payable": false,
      "stateMutability": "nonpayable",
      "type": "function"
    },
    {
      "constant": true,
      "inputs": [],
      "name": "getEntryFee",
      "outputs": [
        {
          "name": "",
          "type": "uint256"
        }
      ],
      "payable": false,
      "stateMutability": "view",
      "type": "function"
    },
    {
      "constant": false,
      "inputs": [],
      "name": "collectEntryFee",
      "outputs": [
        {
          "name": "",
          "type": "bool"
        }
      ],
      "payable": false,
      "stateMutability": "nonpayable",
      "type": "function"
    },
    {
      "constant": false,
      "inputs": [
        {
          "name": "_title",
          "type": "string"
        },
        {
          "name": "_owner",
          "type": "address"
        },
        {
          "name": "_externalAddress",
          "type": "bytes"
        },
        {
          "name": "_contributors",
          "type": "address[]"
        },
        {
          "name": "_contributorRewardDistribution",
          "type": "uint128[]"
        },
        {
          "name": "_references",
          "type": "address[]"
        }
      ],
      "name": "createSubmission",
      "outputs": [
        {
          "name": "_submissionAddress",
          "type": "address"
        }
      ],
      "payable": false,
      "stateMutability": "nonpayable",
      "type": "function"
    }
  ],
  "bytecode": "0x60606040526003600d55600e805460ff19169055600060125534156200002457600080fd5b60405162002a7138038062002a7183398101604052808051919060200180519190602001805191906020018051919060200180518201919060200180518201919060200180518201919060200180519190602001805160008054600160a060020a03191633600160a060020a0390811691909117909155909250871615159050620000ae57600080fd5b60008211620000bc57600080fd5b600160a060020a0387161515620000d257600080fd5b60018054600160a060020a03808c16600160a060020a031992831617909255600280548b8416908316179055600380548a84169083161790554260075560008054928916929091169190911790556006858051620001359291602001906200017e565b5060048480516200014b9291602001906200017e565b506005838051620001619291602001906200017e565b50600f829055601091909155601155506200022395505050505050565b828054600181600116156101000203166002900490600052602060002090601f016020900481019282601f10620001c157805160ff1916838001178555620001f1565b82800160010185558215620001f1579182015b82811115620001f1578251825591602001919060010190620001d4565b50620001ff92915062000203565b5090565b6200022091905b80821115620001ff57600081556001016200020a565b90565b61283e80620002336000396000f3006060604052600436106102245763ffffffff7c0100000000000000000000000000000000000000000000000000000000600035041663072ea61c8114610229578063114765991461024e5780631faf969b1461027557806328d576d71461028857806329cc545e146102b45780632d830cd5146102f05780632f54bf6e146103085780632fc1f190146103345780633b249810146103475780633c7bb9131461035a5780633da1bba1146103865780633ea26fe01461039c578063447411f31461050e5780634644c51b1461052157806347535d7b1461054d57806348f73095146105605780634a79d50c1461057357806352c01fab146105fd5780635ace2914146106295780635c11a3e41461067a5780636ec02be91461068d5780636fe56420146106a057806372910be0146106b35780637af52ade14610704578063893d20e81461071757806389f3beb61461072a5780638a19c8bc1461073d5780638c1fc0bb1461077e5780638c65c81f146107aa5780638da5cb5b146107c0578063a68e8a86146107d3578063a968c4b9146107e6578063aa53d50414610818578063ab88ef681461082b578063c1a28b381461083e578063c39643721461088f578063c5561236146108a8578063dbe55e56146108bb578063e139a20c146108ce578063e586a4f014610934578063e70347bb14610947578063eb770d0c1461095a578063ef430aa614610970578063f1653f6e14610983578063f2fde38b14610996575b600080fd5b341561023457600080fd5b61023c6109c2565b60405190815260200160405180910390f35b341561025957600080fd5b6102616109c8565b604051901515815260200160405180910390f35b341561028057600080fd5b61023c6109d1565b341561029357600080fd5b61026173ffffffffffffffffffffffffffffffffffffffff600435166109d7565b34156102bf57600080fd5b6102c7610c7e565b60405173ffffffffffffffffffffffffffffffffffffffff909116815260200160405180910390f35b34156102fb57600080fd5b610306600435610c9a565b005b341561031357600080fd5b61026173ffffffffffffffffffffffffffffffffffffffff60043516610cfd565b341561033f57600080fd5b6102c7610d1e565b341561035257600080fd5b61023c610d3b565b341561036557600080fd5b61030673ffffffffffffffffffffffffffffffffffffffff60043516610d41565b341561039157600080fd5b6102c7600435610fbf565b34156103a757600080fd5b6102c760046024813581810190830135806020601f8201819004810201604051908101604052818152929190602084018383808284378201915050505050509190803573ffffffffffffffffffffffffffffffffffffffff1690602001909190803590602001908201803590602001908080601f0160208091040260200160405190810160405281815292919060208401838380828437820191505050505050919080359060200190820180359060200190808060200260200160405190810160405280939291908181526020018383602002808284378201915050505050509190803590602001908201803590602001908080602002602001604051908101604052809392919081815260200183836020028082843782019150505050505091908035906020019082018035906020019080806020026020016040519081016040528093929190818152602001838360200280828437509496506113a595505050505050565b341561051957600080fd5b61023c611aed565b341561052c57600080fd5b61030673ffffffffffffffffffffffffffffffffffffffff60043516611af3565b341561055857600080fd5b610261611b4d565b341561056b57600080fd5b61023c611b56565b341561057e57600080fd5b610586611b5c565b60405160208082528190810183818151815260200191508051906020019080838360005b838110156105c25780820151838201526020016105aa565b50505050905090810190601f1680156105ef5780820380516001836020036101000a031916815260200191505b509250505060405180910390f35b341561060857600080fd5b61026173ffffffffffffffffffffffffffffffffffffffff60043516611bfa565b341561063457600080fd5b61030660046024813581810190830135806020601f82018190048102016040519081016040528181529291906020840183838082843750949650611c2595505050505050565b341561068557600080fd5b610586611c64565b341561069857600080fd5b61023c611d0c565b34156106ab57600080fd5b6102c7611d12565b34156106be57600080fd5b61030660046024813581810190830135806020601f82018190048102016040519081016040528181529291906020840183838082843750949650611d2e95505050505050565b341561070f57600080fd5b610261611d69565b341561072257600080fd5b6102c7611e7a565b341561073557600080fd5b61023c611e96565b341561074857600080fd5b610750611e9c565b60405191825273ffffffffffffffffffffffffffffffffffffffff1660208201526040908101905180910390f35b341561078957600080fd5b61026173ffffffffffffffffffffffffffffffffffffffff60043516611edf565b34156107b557600080fd5b6102c7600435611ef4565b34156107cb57600080fd5b6102c7611f29565b34156107de57600080fd5b610261611f45565b34156107f157600080fd5b61026173ffffffffffffffffffffffffffffffffffffffff60043581169060243516611f72565b341561082357600080fd5b61023c6120b9565b341561083657600080fd5b61023c6120bf565b341561084957600080fd5b61030660046024813581810190830135806020601f820181900481020160405190810160405281815292919060208401838380828437509496506120c595505050505050565b341561089a57600080fd5b6103066004356024356120ed565b34156108b357600080fd5b61026161221a565b34156108c657600080fd5b6102c76122cb565b34156108d957600080fd5b6108e16122e7565b60405160208082528190810183818151815260200191508051906020019060200280838360005b83811015610920578082015183820152602001610908565b505050509050019250505060405180910390f35b341561093f57600080fd5b61023c6123a3565b341561095257600080fd5b6105866123a9565b341561096557600080fd5b610306600435612414565b341561097b57600080fd5b610586612441565b341561098e57600080fd5b61023c6124ac565b34156109a157600080fd5b61030673ffffffffffffffffffffffffffffffffffffffff600435166124b2565b60115481565b600e5460ff1681565b600d5481565b600154600090819081903373ffffffffffffffffffffffffffffffffffffffff908116911614610a0657600080fd5b610a0e611b4d565b1515610a1957600080fd5b73ffffffffffffffffffffffffffffffffffffffff841660009081526015602052604090205460ff16151560011415610a555760009250610c77565b60025460115473ffffffffffffffffffffffffffffffffffffffff90911692508263dd62ed3e86306000604051602001526040517c010000000000000000000000000000000000000000000000000000000063ffffffff851602815273ffffffffffffffffffffffffffffffffffffffff928316600482015291166024820152604401602060405180830381600087803b1515610af157600080fd5b6102c65a03f11515610b0257600080fd5b5050506040518051905010151515610b1957600080fd5b8173ffffffffffffffffffffffffffffffffffffffff166323b872dd85306011546000604051602001526040517c010000000000000000000000000000000000000000000000000000000063ffffffff861602815273ffffffffffffffffffffffffffffffffffffffff93841660048201529190921660248201526044810191909152606401602060405180830381600087803b1515610bb857600080fd5b6102c65a03f11515610bc957600080fd5b50505060405180519150508015610c735773ffffffffffffffffffffffffffffffffffffffff84166000908152601560205260409020805460ff191660019081178255601154918101919091556016805490918101610c288382612743565b50600091825260209091200180547fffffffffffffffffffffffff00000000000000000000000000000000000000001673ffffffffffffffffffffffffffffffffffffffff86161790555b8092505b5050919050565b60025473ffffffffffffffffffffffffffffffffffffffff1681565b6001543373ffffffffffffffffffffffffffffffffffffffff90811691161480610cdf57506000543373ffffffffffffffffffffffffffffffffffffffff9081169116145b1515610cea57600080fd5b6009548111610cf857600080fd5b600d55565b60005473ffffffffffffffffffffffffffffffffffffffff91821691161490565b60015473ffffffffffffffffffffffffffffffffffffffff165b90565b600b5481565b600980546000918291829182916000198101908110610d5c57fe5b60009182526020909120015473ffffffffffffffffffffffffffffffffffffffff16935083630b299208866040517c010000000000000000000000000000000000000000000000000000000063ffffffff841602815273ffffffffffffffffffffffffffffffffffffffff9091166004820152602401600060405180830381600087803b1515610deb57600080fd5b6102c65a03f11515610dfc57600080fd5b5050507f7a4f6edbca9ed97194ce723e574776da48cb8afcff0d96fb90a4ee76ffef4e5a8560405173ffffffffffffffffffffffffffffffffffffffff909116815260200160405180910390a1600d546009541415610fb857610e5d611f45565b1515610e6857600080fd5b600e805460ff1916905560015473ffffffffffffffffffffffffffffffffffffffff9081169350841663f49bff7b6000604051602001526040518163ffffffff167c0100000000000000000000000000000000000000000000000000000000028152600401602060405180830381600087803b1515610ee657600080fd5b6102c65a03f11515610ef757600080fd5b505050604051805160095490935091505073ffffffffffffffffffffffffffffffffffffffff83166350912da1308388866040517c010000000000000000000000000000000000000000000000000000000063ffffffff871602815273ffffffffffffffffffffffffffffffffffffffff94851660048201526024810193909352921660448201526064810191909152608401600060405180830381600087803b1515610fa357600080fd5b6102c65a03f11515610fb457600080fd5b5050505b5050505050565b600354600254600d5460095460009373ffffffffffffffffffffffffffffffffffffffff908116931691849182918291600101141561117e5760105460015490925073ffffffffffffffffffffffffffffffffffffffff80871691637f12d52a91163033866000604051602001526040517c010000000000000000000000000000000000000000000000000000000063ffffffff871602815273ffffffffffffffffffffffffffffffffffffffff94851660048201529284166024840152921660448201526064810191909152608401602060405180830381600087803b15156110a857600080fd5b6102c65a03f115156110b957600080fd5b50505060405180519050925060006010819055508373ffffffffffffffffffffffffffffffffffffffff1663a9059cbb84846000604051602001526040517c010000000000000000000000000000000000000000000000000000000063ffffffff851602815273ffffffffffffffffffffffffffffffffffffffff90921660048301526024820152604401602060405180830381600087803b151561115d57600080fd5b6102c65a03f1151561116e57600080fd5b505050604051805190505061130b565b601054611191908863ffffffff61254316565b60015490915073ffffffffffffffffffffffffffffffffffffffff80871691637f12d52a911630338b6000604051602001526040517c010000000000000000000000000000000000000000000000000000000063ffffffff871602815273ffffffffffffffffffffffffffffffffffffffff94851660048201529284166024840152921660448201526064810191909152608401602060405180830381600087803b151561123e57600080fd5b6102c65a03f1151561124f57600080fd5b5050506040518051601083905593505073ffffffffffffffffffffffffffffffffffffffff841663a9059cbb84896000604051602001526040517c010000000000000000000000000000000000000000000000000000000063ffffffff851602815273ffffffffffffffffffffffffffffffffffffffff90921660048301526024820152604401602060405180830381600087803b15156112ef57600080fd5b6102c65a03f1151561130057600080fd5b505050604051805150505b73ffffffffffffffffffffffffffffffffffffffff83166000908152600a60205260409020805460ff1916600190811790915560098054909181016113508382612743565b50600091825260209091200180547fffffffffffffffffffffffff00000000000000000000000000000000000000001673ffffffffffffffffffffffffffffffffffffffff8516179055509095945050505050565b73ffffffffffffffffffffffffffffffffffffffff33166000908152601560205260408120548190819060ff168015156113de57600080fd5b600154339073ffffffffffffffffffffffffffffffffffffffff168063532311c4836000604051602001526040517c010000000000000000000000000000000000000000000000000000000063ffffffff841602815273ffffffffffffffffffffffffffffffffffffffff9091166004820152602401602060405180830381600087803b151561146d57600080fd5b6102c65a03f1151561147e57600080fd5b50505060405180519050151561149357600080fd5b61149b611b4d565b15156114a657600080fd5b60015473ffffffffffffffffffffffffffffffffffffffff16636a44e43d8c6000604051602001526040517c010000000000000000000000000000000000000000000000000000000063ffffffff841602815273ffffffffffffffffffffffffffffffffffffffff9091166004820152602401602060405180830381600087803b151561153257600080fd5b6102c65a03f1151561154357600080fd5b505050604051805195505073ffffffffffffffffffffffffffffffffffffffff8516151561157057600080fd5b60098054600019810190811061158257fe5b906000526020600020900160009054906101000a900473ffffffffffffffffffffffffffffffffffffffff1673ffffffffffffffffffffffffffffffffffffffff16632d6991788d8d888e8c8f8f6000604051602001526040518863ffffffff167c010000000000000000000000000000000000000000000000000000000002815260040180806020018873ffffffffffffffffffffffffffffffffffffffff1673ffffffffffffffffffffffffffffffffffffffff1681526020018773ffffffffffffffffffffffffffffffffffffffff1673ffffffffffffffffffffffffffffffffffffffff1681526020018060200180602001806020018060200186810386528d818151815260200191508051906020019080838360005b838110156116b557808201518382015260200161169d565b50505050905090810190601f1680156116e25780820380516001836020036101000a031916815260200191505b5086810385528a818151815260200191508051906020019080838360005b83811015611718578082015183820152602001611700565b50505050905090810190601f1680156117455780820380516001836020036101000a031916815260200191505b50868103845289818151815260200191508051906020019060200280838360005b8381101561177e578082015183820152602001611766565b50505050905001868103835288818151815260200191508051906020019060200280838360005b838110156117bd5780820151838201526020016117a5565b50505050905001868103825287818151815260200191508051906020019060200280838360005b838110156117fc5780820151838201526020016117e4565b505050509050019c50505050505050505050505050602060405180830381600087803b151561182a57600080fd5b6102c65a03f1151561183b57600080fd5b505050604051805160015490955073ffffffffffffffffffffffffffffffffffffffff169050638c593a8c85896000604051602001526040518363ffffffff167c0100000000000000000000000000000000000000000000000000000000028152600401808373ffffffffffffffffffffffffffffffffffffffff1673ffffffffffffffffffffffffffffffffffffffff16815260200180602001828103825283818151815260200191508051906020019060200280838360005b8381101561190e5780820151838201526020016118f6565b505050509050019350505050602060405180830381600087803b151561193357600080fd5b6102c65a03f1151561194457600080fd5b5050506040518051505060125461196290600163ffffffff61255516565b6012556040805190810160409081526001825273ffffffffffffffffffffffffffffffffffffffff3381166000818152601360209081528482205481870152918152601482528381209289168152919052208151815460ff1916901515178155602082015160019182015573ffffffffffffffffffffffffffffffffffffffff331660009081526013602052604090208054909250908101611a048382612743565b50600091825260209091200180547fffffffffffffffffffffffff00000000000000000000000000000000000000001673ffffffffffffffffffffffffffffffffffffffff868116919091179091556001541663ab9583d933866040517c010000000000000000000000000000000000000000000000000000000063ffffffff851602815273ffffffffffffffffffffffffffffffffffffffff928316600482015291166024820152604401600060405180830381600087803b1515611ac957600080fd5b6102c65a03f11515611ada57600080fd5b50949d9c50505050505050505050505050565b60085481565b6009547f5fbb3d346317d5ecdb86412d4c69c7503ff4dbed1eccd4cb6290453ea0b1a32290600019018260405191825273ffffffffffffffffffffffffffffffffffffffff1660208201526040908101905180910390a150565b600e5460ff1690565b600c5481565b60048054600181600116156101000203166002900480601f016020809104026020016040519081016040528092919081815260200182805460018160011615610100020316600290048015611bf25780601f10611bc757610100808354040283529160200191611bf2565b820191906000526020600020905b815481529060010190602001808311611bd557829003601f168201915b505050505081565b73ffffffffffffffffffffffffffffffffffffffff1660009081526015602052604090205460ff1690565b6000543373ffffffffffffffffffffffffffffffffffffffff908116911614611c4d57600080fd5b6005818051611c6092916020019061276c565b5050565b611c6c6127e6565b60058054600181600116156101000203166002900480601f016020809104026020016040519081016040528092919081815260200182805460018160011615610100020316600290048015611d025780601f10611cd757610100808354040283529160200191611d02565b820191906000526020600020905b815481529060010190602001808311611ce557829003601f168201915b5050505050905090565b60125490565b60035473ffffffffffffffffffffffffffffffffffffffff1681565b6000543373ffffffffffffffffffffffffffffffffffffffff908116911614611d5657600080fd5b6004818051611c6092916020019061276c565b60025473ffffffffffffffffffffffffffffffffffffffff3381811660009081526015602052604080822060010154919493909316928492849263a9059cbb92859051602001526040517c010000000000000000000000000000000000000000000000000000000063ffffffff851602815273ffffffffffffffffffffffffffffffffffffffff90921660048301526024820152604401602060405180830381600087803b1515611e1957600080fd5b6102c65a03f11515611e2a57600080fd5b50505060405180519150508015611e705773ffffffffffffffffffffffffffffffffffffffff331660009081526015602052604081206001908101919091559250611e75565b600092505b505090565b60005473ffffffffffffffffffffffffffffffffffffffff1690565b60165490565b600980546000918291906000198201828110611eb457fe5b60009182526020909120015490925073ffffffffffffffffffffffffffffffffffffffff1690509091565b600a6020526000908152604090205460ff1681565b6009805482908110611f0257fe5b60009182526020909120015473ffffffffffffffffffffffffffffffffffffffff16905081565b60005473ffffffffffffffffffffffffffffffffffffffff1681565b6000600c544210158015611f5f5750600b54600c54014211155b8015611f6d5750600e5460ff165b905090565b6001546000903373ffffffffffffffffffffffffffffffffffffffff908116911614611f9d57600080fd5b73ffffffffffffffffffffffffffffffffffffffff80831660009081526014602090815260408083209387168352929052205460ff16156120af57601254611fec90600163ffffffff61254316565b60125573ffffffffffffffffffffffffffffffffffffffff8083166000908152601360209081526040808320601483528184209488168452939091529020600101548154811061203857fe5b6000918252602080832090910180547fffffffffffffffffffffffff000000000000000000000000000000000000000016905573ffffffffffffffffffffffffffffffffffffffff8481168352601482526040808420918716845291528120805460ff1916815560019081019190915590506120b3565b5060005b92915050565b600f5481565b60105481565b6000543373ffffffffffffffffffffffffffffffffffffffff90811691161461022457600080fd5b6009805460009190600019810190811061210357fe5b600091825260209091200154600e5473ffffffffffffffffffffffffffffffffffffffff909116915060ff16151561213d5761213d61256b565b600d54600954141561215557428301600c55600b8290555b8073ffffffffffffffffffffffffffffffffffffffff16635a7d5f5084846040517c010000000000000000000000000000000000000000000000000000000063ffffffff851602815260048101929092526024820152604401600060405180830381600087803b15156121c757600080fd5b6102c65a03f115156121d857600080fd5b50506009547f33a701182892fd888ed152ca2ac23771a32e814469b7cd255965471e1af3a65991506000190160405190815260200160405180910390a1505050565b600980546000918291600019810190811061223157fe5b600091825260208220015473ffffffffffffffffffffffffffffffffffffffff16915081906347535d7b90604051602001526040518163ffffffff167c0100000000000000000000000000000000000000000000000000000000028152600401602060405180830381600087803b15156122aa57600080fd5b6102c65a03f115156122bb57600080fd5b50505060405180519250505b5090565b60015473ffffffffffffffffffffffffffffffffffffffff1681565b6122ef6127e6565b6122f76127e6565b601360003373ffffffffffffffffffffffffffffffffffffffff1673ffffffffffffffffffffffffffffffffffffffff16815260200190815260200160002080548060200260200160405190810160405280929190818152602001828054801561239757602002820191906000526020600020905b815473ffffffffffffffffffffffffffffffffffffffff16815260019091019060200180831161236c575b50939695505050505050565b60115490565b60058054600181600116156101000203166002900480601f016020809104026020016040519081016040528092919081815260200182805460018160011615610100020316600290048015611bf25780601f10611bc757610100808354040283529160200191611bf2565b6000543373ffffffffffffffffffffffffffffffffffffffff90811691161461243c57600080fd5b601155565b60068054600181600116156101000203166002900480601f016020809104026020016040519081016040528092919081815260200182805460018160011615610100020316600290048015611bf25780601f10611bc757610100808354040283529160200191611bf2565b60075481565b6000543373ffffffffffffffffffffffffffffffffffffffff9081169116146124da57600080fd5b73ffffffffffffffffffffffffffffffffffffffff811615156124fc57600080fd5b600080547fffffffffffffffffffffffff00000000000000000000000000000000000000001673ffffffffffffffffffffffffffffffffffffffff92909216919091179055565b60008282111561254f57fe5b50900390565b60008282018381101561256457fe5b9392505050565b600e805460ff1916600190811790915554600054600f5460115473ffffffffffffffffffffffffffffffffffffffff938416938493635490904b939116913091600491600591906040517c010000000000000000000000000000000000000000000000000000000063ffffffff891602815273ffffffffffffffffffffffffffffffffffffffff8088166004830190815290871660248301526084820184905260a4820183905260c06044830190815286546002600019610100600184161502019091160460c4840181905291929091606482019160e40190889080156126935780601f1061266857610100808354040283529160200191612693565b820191906000526020600020905b81548152906001019060200180831161267657829003601f168201915b50508381038252865460026000196101006001841615020190911604808252602090910190879080156127075780601f106126dc57610100808354040283529160200191612707565b820191906000526020600020905b8154815290600101906020018083116126ea57829003601f168201915b505098505050505050505050600060405180830381600087803b151561272c57600080fd5b6102c65a03f1151561273d57600080fd5b50505050565b815481835581811511612767576000838152602090206127679181019083016127f8565b505050565b828054600181600116156101000203166002900490600052602060002090601f016020900481019282601f106127ad57805160ff19168380011785556127da565b828001600101855582156127da579182015b828111156127da5782518255916020019190600101906127bf565b506122c79291506127f8565b60206040519081016040526000815290565b610d3891905b808211156122c757600081556001016127fe5600a165627a7a72305820e86e7c2b8f98edcb34efe8f3c5600385999747a6d525c75376a736caa7ca3d0e0029",
  "source": "pragma solidity ^0.4.18;\n\nimport '../libraries/strings/strings.sol';\nimport '../libraries/math/SafeMath.sol';\nimport '../interfaces/IMatryxPlatform.sol';\nimport '../interfaces/IMatryxTournament.sol';\nimport '../interfaces/factories/IMatryxRoundFactory.sol';\nimport '../interfaces/IMatryxRound.sol';\nimport '../interfaces/IMatryxToken.sol';\nimport './Ownable.sol';\n\n/// @title Tournament - The Matryx tournament.\n/// @author Max Howard - <max@nanome.ai>, Sam Hessenauer - <sam@nanome.ai>\ncontract MatryxTournament is Ownable, IMatryxTournament {\n    using SafeMath for uint256;\n    using strings for *;\n    \n    // TODO: condense and put in structs\n    //Platform identification\n    address public platformAddress;\n    address public matryxTokenAddress;\n    address public matryxRoundFactoryAddress;\n\n    //Tournament identification\n    string public title;\n    bytes public externalAddress;\n    string public category;\n\n    // Timing and State\n    uint256 public timeCreated;\n    uint256 public tournamentOpenedTime;\n    address[] public rounds;\n    mapping(address=>bool) public isRound;\n    uint256 public reviewPeriod;\n    uint256 public tournamentClosedTime;\n    uint public maxRounds = 3;\n    bool public tournamentOpen = false;\n\n    // Reward and fee\n    uint256 public Bounty;\n    uint256 public BountyLeft;\n    uint256 public entryFee;\n\n    // address roundDelegate;\n    // bytes4 fnSelector_chooseWinner = bytes4(keccak256(\"chooseWinner(address)\"));\n    // bytes4 fnSelector_createRound = bytes4(keccak256(\"createRound(uint256)\"));\n    // bytes4 fnSelector_startRound = bytes4(keccak256(\"startRound(uint256)\"));\n\n    // TODO: Automatic round creation mechanism\n\n    // Submission tracking\n    uint256 numberOfSubmissions = 0;\n    mapping(address=>address[]) private entrantToSubmissions;\n    mapping(address=>mapping(address=>uint256_optional)) private entrantToSubmissionToSubmissionIndex;\n    mapping(address=>uint256_optional) private addressToIsEntrant;\n    address[] private allEntrants;\n\n    function MatryxTournament(address _platformAddress, address _matryxTokenAddress, address _matryxRoundFactoryAddress, address _owner, string _category, string _tournamentTitle, bytes _externalAddress, uint256 _Bounty, uint256 _entryFee) public {\n        //Clean inputs\n        require(_owner != 0x0);\n        //require(!_tournamentName.toSlice().empty());\n        require(_Bounty > 0);\n        require(_matryxRoundFactoryAddress != 0x0);\n        \n        platformAddress = _platformAddress;\n        matryxTokenAddress = _matryxTokenAddress;\n        matryxRoundFactoryAddress = _matryxRoundFactoryAddress;\n\n        timeCreated = now;\n        // Identification\n        owner = _owner;\n        category = _category;\n        title = _tournamentTitle;\n        externalAddress = _externalAddress;\n        // Reward and fee\n        Bounty = _Bounty;\n        BountyLeft = _Bounty;\n        entryFee = _entryFee;\n\n        // roundDelegate = IMatryxPlatform(platformAddress).getRoundLibAddress();\n    }\n\n    /*\n     * Structs\n     */\n\n    struct uint256_optional\n    {\n        bool exists;\n        uint256 value;\n    }\n\n    struct SubmissionLocation\n    {\n        uint256 roundIndex;\n        uint256 submissionIndex;\n    }\n\n    /*\n     * Events\n     */\n\n    event RoundStarted(uint256 _roundIndex);\n    // Fired at the end of every round, one time per submission created in that round\n    event SubmissionCreated(uint256 _roundIndex, address _submissionAddress);\n    event RoundWinnerChosen(address _submissionAddress);\n\n    /// @dev Allows rounds to invoke SubmissionCreated events on this tournament.\n    /// @param _submissionAddress Address of the submission.\n    function invokeSubmissionCreatedEvent(address _submissionAddress) public\n    {\n        SubmissionCreated(rounds.length-1, _submissionAddress);\n    }\n\n    /*\n     * Modifiers\n     */\n\n    /// @dev Requires the function caller to be the platform.\n    modifier onlyPlatform()\n    {\n        require(msg.sender == platformAddress);\n        _;\n    }\n\n    modifier onlyRound()\n    {\n        require(isRound[msg.sender]);\n        _;\n    }\n\n    modifier onlySubmission(address _submissionAddress, address _author)\n    {\n        // If the submission does not exist,\n        // the address of the submission we return will not be msg.sender\n        // It will either be \n        // 1) The first submission, or\n        // 2) all 0s from having deleted it previously.\n        uint256 indexOfSubmission = entrantToSubmissionToSubmissionIndex[_author][_submissionAddress].value;\n        address submissionAddress = entrantToSubmissions[_author][indexOfSubmission];\n        require(_submissionAddress == msg.sender);\n        _;\n    }\n\n    modifier onlyPeerLinked(address _sender)\n    {\n        IMatryxPlatform platform = IMatryxPlatform(platformAddress);\n        require(platform.hasPeer(_sender));\n        _;\n    }\n\n    /// @dev Requires the function caller to be an entrant.\n    modifier onlyEntrant()\n    {\n        bool senderIsEntrant = addressToIsEntrant[msg.sender].exists;\n        require(senderIsEntrant);\n        _;\n    }\n\n    /// @dev Requires the function caller to be the platform or the owner of this tournament\n    modifier platformOrOwner()\n    {\n        require((msg.sender == platformAddress)||(msg.sender == owner));\n        _;\n    }\n\n    modifier whileTournamentOpen()\n    {\n        require(isOpen());\n        _;\n    }\n\n    // /// @dev Requires the tournament to be open.\n    // modifier duringReviewPeriod()\n    // {\n    //     // TODO: Finish me!\n    //     require(isInReview());\n    //     _;\n    // }\n\n    modifier whileRoundsLeft()\n    {\n        require(rounds.length < maxRounds);\n        _;\n    }\n\n    modifier whileBountyLeft(uint256 _nextRoundBounty)\n    {\n        require(BountyLeft.sub(_nextRoundBounty) >= 0);\n        _;\n    }\n\n    /*\n    * State Maintenance Methods\n    */\n\n    function removeSubmission(address _submissionAddress, address _author) public onlyPlatform returns (bool)\n    {\n        if(entrantToSubmissionToSubmissionIndex[_author][_submissionAddress].exists)\n        {\n            numberOfSubmissions = numberOfSubmissions.sub(1);\n            delete entrantToSubmissions[_author][entrantToSubmissionToSubmissionIndex[_author][_submissionAddress].value];\n            delete entrantToSubmissionToSubmissionIndex[_author][_submissionAddress];\n            return true;\n        }\n\n        return false;\n    }\n\n    /*\n     * Access Control Methods\n     */\n\n    /// @dev Returns whether or not the sender is an entrant in this tournament\n    /// @param _sender Explicit sender address.\n    /// @return Whether or not the sender is an entrant in this tournament.\n    function isEntrant(address _sender) public view returns (bool)\n    {\n        return addressToIsEntrant[_sender].exists;\n    }\n\n    /// @dev Returns true if the tournament is open.\n    /// @return Whether or not the tournament is open.\n    function isOpen() public view returns (bool)\n    {\n        return tournamentOpen;\n    }\n\n    function isInReview() public view returns (bool)\n    {\n        return (now >= tournamentClosedTime) && (now <= tournamentClosedTime + reviewPeriod) && tournamentOpen;\n    }\n\n    /// @dev Returns whether or not a round of this tournament is open.\n    /// @return _roundOpen Whether or not a round is open on this tournament.\n    function roundIsOpen() public constant returns (bool)\n    {\n        IMatryxRound round = IMatryxRound(rounds[rounds.length-1]);\n        return round.isOpen();\n    }\n\n    /*\n     * Getter Methods\n     */\n\n     function getPlatform() public view returns (address _platformAddress)\n     {\n        return platformAddress;\n     }\n\n    /// @dev Returns the external address of the tournament.\n    /// @return _externalAddress Off-chain content hash of tournament details (ipfs hash)\n    function getExternalAddress() public view returns (bytes _externalAddress)\n    {\n        return externalAddress;\n    }\n\n    /// @dev Returns the current round number.\n    /// @return _currentRound Number of the current round.\n    function currentRound() public constant returns (uint256 _currentRound, address _currentRoundAddress)\n    {\n        return (rounds.length, rounds[rounds.length-1]);\n    }\n\n    /// @dev Returns all of the sender's submissions to this tournament.\n    /// @return (_roundIndices[], _submissionIndices[]) Locations of the sender's submissions.\n    function mySubmissions() public view returns (address[])\n    {\n        address[] memory _mySubmissions = entrantToSubmissions[msg.sender];\n        return _mySubmissions;\n    }\n\n    /// @dev Returns the number of submissions made to this tournament.\n    /// @return _submissionCount Number of submissions made to this tournament.\n    function submissionCount() public view returns (uint256 _submissionCount)\n    {\n        return numberOfSubmissions;\n    }\n\n    function entrantCount() public view returns (uint256 _entrantCount)\n    {\n        return allEntrants.length;\n    }\n\n    /*\n     * Setter Methods\n     */\n\n    function setTitle(string _title) public onlyOwner\n    {\n        title = _title;\n    }\n\n    function setExternalAddress(bytes _externalAddress) public onlyOwner\n    {\n        externalAddress = _externalAddress;\n    }\n\n    function setEntryFee(uint256 _entryFee) public onlyOwner\n    {\n        entryFee = _entryFee;\n    }\n\n    /// @dev Set the maximum number of rounds for the tournament.\n    /// @param _newMaxRounds New maximum number of rounds possible for this tournament.\n    function setNumberOfRounds(uint256 _newMaxRounds) public platformOrOwner\n    {\n        require(_newMaxRounds > rounds.length);\n        maxRounds = _newMaxRounds;\n    }\n\n    function setCategory(string _category) public onlyOwner\n    {\n        // if(!category.toSlice().empty())\n        // {\n        //     revert();\n        // }\n        revert();\n    }\n\n    /*\n     * Tournament Admin Methods\n     */\n\n    /// @dev Chooses the winner for the round. If this is the last round, closes the tournament.\n    /// @param _submissionAddress Address of the winning submission\n    function chooseWinner(address _submissionAddress) public\n    {\n        // TODO: Implement popular vote default winner chosen to avoid\n        // locking up MTX in this tournament (would happen if the tournament\n        // poser tried to choose a winner after the review period ended).\n        IMatryxRound round = IMatryxRound(rounds[rounds.length-1]);\n\n        // End the round.\n        round.chooseWinningSubmission(_submissionAddress);\n        RoundWinnerChosen(_submissionAddress);\n\n        // Conditionally end the tournament\n        if(rounds.length == maxRounds)\n        {\n            require(isInReview());\n            tournamentOpen = false;\n\n            IMatryxPlatform platform = IMatryxPlatform(platformAddress);\n            uint256 bounty = round.getBounty();\n            uint256 roundNumber = rounds.length;\n            platform.invokeTournamentClosedEvent(address(this), roundNumber, _submissionAddress, bounty);\n        }\n    }\n\n    /// @dev Creates a new round.\n    /// @return The new round's address.\n    function createRound(uint256 _bountyMTX) public returns (address _roundAddress) \n    {\n        IMatryxRoundFactory roundFactory = IMatryxRoundFactory(matryxRoundFactoryAddress);\n        IMatryxToken matryxToken = IMatryxToken(matryxTokenAddress);\n        address newRoundAddress;\n\n        if(rounds.length+1 == maxRounds)\n        {\n            uint256 lastBounty = BountyLeft;\n            newRoundAddress = roundFactory.createRound(platformAddress, this, msg.sender, BountyLeft);\n            BountyLeft = 0;\n            // Transfer the round bounty to the round.\n            matryxToken.transfer(newRoundAddress, lastBounty);\n        }\n        else\n        {\n            uint256 remainingBountyAfterRoundCreated = BountyLeft.sub(_bountyMTX);\n            newRoundAddress = roundFactory.createRound(platformAddress, this, msg.sender, _bountyMTX);\n            BountyLeft = remainingBountyAfterRoundCreated;\n            // Transfer the round bounty to the round.\n            matryxToken.transfer(newRoundAddress, _bountyMTX);\n        }\n        \n        isRound[newRoundAddress] = true;\n        rounds.push(newRoundAddress);\n        return newRoundAddress;\n    }\n\n    /// @dev Opens this tournament up to submissions; called by startRound.\n    function openTournament() internal\n    {\n        tournamentOpen = true;\n        IMatryxPlatform platform = IMatryxPlatform(platformAddress);\n        platform.invokeTournamentOpenedEvent(owner, this, title, externalAddress, Bounty, entryFee);\n    }\n\n    /// @dev Starts the latest round.\n    /// @param _duration Duration of the round in seconds.\n    function startRound(uint256 _duration, uint256 _reviewPeriod) public\n    {\n        IMatryxRound round = IMatryxRound(rounds[rounds.length-1]);\n        \n        if(!tournamentOpen)\n        {\n            openTournament();\n        }\n\n        if(rounds.length == maxRounds)\n        {\n            tournamentClosedTime = now + _duration;\n            reviewPeriod = _reviewPeriod;\n        }\n        \n        round.Start(_duration, _reviewPeriod);\n        RoundStarted(rounds.length-1);\n    }\n\n    /*\n     * Entrant Methods\n     */\n\n    /// @dev Enters the user into the tournament.\n    /// @param _entrantAddress Address of the user to enter.\n    /// @return success Whether or not the user was entered successfully.\n    function enterUserInTournament(address _entrantAddress) public onlyPlatform whileTournamentOpen returns (bool _success)\n    {\n        if(addressToIsEntrant[_entrantAddress].exists == true)\n        {\n            return false;\n        }\n\n        IMatryxToken matryxToken = IMatryxToken(matryxTokenAddress);\n        require(matryxToken.allowance(_entrantAddress, this) >= entryFee);\n        bool transferSuccess = matryxToken.transferFrom(_entrantAddress, this, entryFee);\n\n        if(transferSuccess)\n        {\n            // Finally, change the tournament's state to reflect the user entering.\n            addressToIsEntrant[_entrantAddress].exists = true;\n            addressToIsEntrant[_entrantAddress].value = entryFee;\n            allEntrants.push(_entrantAddress);\n        }\n\n        return transferSuccess;\n    }\n\n    /// @dev Returns the fee in MTX to be payed by a prospective entrant.\n    /// @return Entry fee for this tournament.\n    function getEntryFee() public view returns (uint256)\n    {\n        return entryFee;\n    }\n\n    function collectEntryFee() public returns (bool)\n    {\n        IMatryxToken matryxToken = IMatryxToken(matryxTokenAddress);\n        bool success = matryxToken.transfer(msg.sender, addressToIsEntrant[msg.sender].value);\n        if(success)\n        {\n            addressToIsEntrant[msg.sender].value = 0;\n            return true;\n        }\n\n        return false;\n    }\n\n    function createSubmission(string _title, address _owner, bytes _externalAddress, address[] _contributors, uint128[] _contributorRewardDistribution, address[] _references) public onlyEntrant onlyPeerLinked(msg.sender) whileTournamentOpen returns (address _submissionAddress)\n    {\n        // This check is critical for MatryxPeer.\n        address peerAddress = IMatryxPlatform(platformAddress).peerAddress(_owner);\n        require(peerAddress != 0x0);\n\n        address submissionAddress = IMatryxRound(rounds[rounds.length-1]).createSubmission(_title, _owner, peerAddress, _externalAddress, _references, _contributors, _contributorRewardDistribution);\n        // Send out reference requests to the authors of other submissions\n        IMatryxPlatform(platformAddress).handleReferenceRequestsForSubmission(submissionAddress, _references);\n\n        numberOfSubmissions = numberOfSubmissions.add(1);\n        entrantToSubmissionToSubmissionIndex[msg.sender][submissionAddress] = uint256_optional({exists:true, value:entrantToSubmissions[msg.sender].length});\n        entrantToSubmissions[msg.sender].push(submissionAddress);\n        IMatryxPlatform(platformAddress).updateSubmissions(msg.sender, submissionAddress);\n        \n        return submissionAddress;\n    }\n}",
  "sourcePath": "/Users/maxhoward/Desktop/Ethereum/Development/Matryx AWS/Projects/matryx-alpha-source/contracts/MatryxTournament.sol",
  "compiler": {
    "name": "solc",
    "version": "0.4.19+commit.c4cbbb05.Emscripten.clang"
  },
  "schemaVersion": "2.0.0",
  "updatedAt": "2018-04-04T16:45:06.695Z"
}