{
  "contractName": "MatryxSubmission",
  "abi": [
    {
      "constant": true,
      "inputs": [
        {
          "name": "_sender",
          "type": "address"
        }
      ],
      "name": "isOwner",
      "outputs": [
        {
          "name": "_isOwner",
          "type": "bool"
        }
      ],
      "payable": false,
      "stateMutability": "view",
      "type": "function"
    },
    {
      "constant": true,
      "inputs": [],
      "name": "getOwner",
      "outputs": [
        {
          "name": "_owner",
          "type": "address"
        }
      ],
      "payable": false,
      "stateMutability": "view",
      "type": "function"
    },
    {
      "constant": true,
      "inputs": [],
      "name": "owner",
      "outputs": [
        {
          "name": "",
          "type": "address"
        }
      ],
      "payable": false,
      "stateMutability": "view",
      "type": "function"
    },
    {
      "constant": false,
      "inputs": [
        {
          "name": "newOwner",
          "type": "address"
        }
      ],
      "name": "transferOwnership",
      "outputs": [],
      "payable": false,
      "stateMutability": "nonpayable",
      "type": "function"
    },
    {
      "inputs": [
        {
          "name": "_owner",
          "type": "address"
        },
        {
          "name": "_platformAddress",
          "type": "address"
        },
        {
          "name": "_tournamentAddress",
          "type": "address"
        },
        {
          "name": "_roundAddress",
          "type": "address"
        },
        {
          "components": [
            {
              "name": "title",
              "type": "bytes32[3]"
            },
            {
              "name": "descriptionHash",
              "type": "bytes32[2]"
            },
            {
              "name": "fileHash",
              "type": "bytes32[2]"
            },
            {
              "name": "timeSubmitted",
              "type": "uint256"
            },
            {
              "name": "timeUpdated",
              "type": "uint256"
            }
          ],
          "name": "_submissionData",
          "type": "tuple"
        }
      ],
      "payable": false,
      "stateMutability": "nonpayable",
      "type": "constructor"
    },
    {
      "payable": false,
      "stateMutability": "nonpayable",
      "type": "fallback"
    },
    {
      "constant": true,
      "inputs": [],
      "name": "getTournament",
      "outputs": [
        {
          "name": "",
          "type": "address"
        }
      ],
      "payable": false,
      "stateMutability": "view",
      "type": "function"
    },
    {
      "constant": true,
      "inputs": [],
      "name": "getRound",
      "outputs": [
        {
          "name": "",
          "type": "address"
        }
      ],
      "payable": false,
      "stateMutability": "view",
      "type": "function"
    },
    {
      "constant": true,
      "inputs": [
        {
          "name": "_requester",
          "type": "address"
        }
      ],
      "name": "isAccessible",
      "outputs": [
        {
          "name": "",
          "type": "bool"
        }
      ],
      "payable": false,
      "stateMutability": "view",
      "type": "function"
    },
    {
      "constant": true,
      "inputs": [],
      "name": "getData",
      "outputs": [
        {
          "components": [
            {
              "name": "title",
              "type": "bytes32[3]"
            },
            {
              "name": "descriptionHash",
              "type": "bytes32[2]"
            },
            {
              "name": "fileHash",
              "type": "bytes32[2]"
            },
            {
              "name": "timeSubmitted",
              "type": "uint256"
            },
            {
              "name": "timeUpdated",
              "type": "uint256"
            }
          ],
          "name": "_data",
          "type": "tuple"
        }
      ],
      "payable": false,
      "stateMutability": "view",
      "type": "function"
    },
    {
      "constant": true,
      "inputs": [],
      "name": "getTitle",
      "outputs": [
        {
          "name": "",
          "type": "bytes32[3]"
        }
      ],
      "payable": false,
      "stateMutability": "view",
      "type": "function"
    },
    {
      "constant": true,
      "inputs": [],
      "name": "getAuthor",
      "outputs": [
        {
          "name": "",
          "type": "address"
        }
      ],
      "payable": false,
      "stateMutability": "view",
      "type": "function"
    },
    {
      "constant": true,
      "inputs": [],
      "name": "getDescriptionHash",
      "outputs": [
        {
          "name": "",
          "type": "bytes32[2]"
        }
      ],
      "payable": false,
      "stateMutability": "view",
      "type": "function"
    },
    {
      "constant": true,
      "inputs": [],
      "name": "getFileHash",
      "outputs": [
        {
          "name": "",
          "type": "bytes32[2]"
        }
      ],
      "payable": false,
      "stateMutability": "view",
      "type": "function"
    },
    {
      "constant": true,
      "inputs": [],
      "name": "getReferences",
      "outputs": [
        {
          "name": "",
          "type": "address[]"
        }
      ],
      "payable": false,
      "stateMutability": "view",
      "type": "function"
    },
    {
      "constant": true,
      "inputs": [],
      "name": "getContributors",
      "outputs": [
        {
          "name": "",
          "type": "address[]"
        }
      ],
      "payable": false,
      "stateMutability": "view",
      "type": "function"
    },
    {
      "constant": true,
      "inputs": [],
      "name": "getTimeSubmitted",
      "outputs": [
        {
          "name": "",
          "type": "uint256"
        }
      ],
      "payable": false,
      "stateMutability": "view",
      "type": "function"
    },
    {
      "constant": true,
      "inputs": [],
      "name": "getTimeUpdated",
      "outputs": [
        {
          "name": "",
          "type": "uint256"
        }
      ],
      "payable": false,
      "stateMutability": "view",
      "type": "function"
    },
    {
      "constant": true,
      "inputs": [],
      "name": "getTotalWinnings",
      "outputs": [
        {
          "name": "",
          "type": "uint256"
        }
      ],
      "payable": false,
      "stateMutability": "view",
      "type": "function"
    },
    {
      "constant": false,
      "inputs": [
        {
          "components": [
            {
              "name": "title",
              "type": "bytes32[3]"
            },
            {
              "name": "descriptionHash",
              "type": "bytes32[2]"
            },
            {
              "name": "fileHash",
              "type": "bytes32[2]"
            }
          ],
          "name": "_modificationData",
          "type": "tuple"
        }
      ],
      "name": "updateData",
      "outputs": [],
      "payable": false,
      "stateMutability": "nonpayable",
      "type": "function"
    },
    {
      "constant": false,
      "inputs": [
        {
          "components": [
            {
              "name": "contributorsToAdd",
              "type": "address[]"
            },
            {
              "name": "contributorRewardDistribution",
              "type": "uint128[]"
            },
            {
              "name": "contributorsToRemove",
              "type": "address[]"
            }
          ],
          "name": "_contributorsModificationData",
          "type": "tuple"
        }
      ],
      "name": "updateContributors",
      "outputs": [],
      "payable": false,
      "stateMutability": "nonpayable",
      "type": "function"
    },
    {
      "constant": false,
      "inputs": [
        {
          "components": [
            {
              "name": "referencesToAdd",
              "type": "address[]"
            },
            {
              "name": "referencesToRemove",
              "type": "address[]"
            }
          ],
          "name": "_referencesModificationData",
          "type": "tuple"
        }
      ],
      "name": "updateReferences",
      "outputs": [],
      "payable": false,
      "stateMutability": "nonpayable",
      "type": "function"
    },
    {
      "constant": false,
      "inputs": [
        {
          "name": "_amount",
          "type": "uint256"
        }
      ],
      "name": "addToWinnings",
      "outputs": [],
      "payable": false,
      "stateMutability": "nonpayable",
      "type": "function"
    },
    {
      "constant": false,
      "inputs": [
        {
          "name": "_reference",
          "type": "address"
        }
      ],
      "name": "addReference",
      "outputs": [],
      "payable": false,
      "stateMutability": "nonpayable",
      "type": "function"
    },
    {
      "constant": false,
      "inputs": [
        {
          "name": "_references",
          "type": "address[]"
        }
      ],
      "name": "addReferences",
      "outputs": [],
      "payable": false,
      "stateMutability": "nonpayable",
      "type": "function"
    },
    {
      "constant": false,
      "inputs": [
        {
          "name": "_reference",
          "type": "address"
        }
      ],
      "name": "removeReference",
      "outputs": [],
      "payable": false,
      "stateMutability": "nonpayable",
      "type": "function"
    },
    {
      "constant": false,
      "inputs": [],
      "name": "receiveReferenceRequest",
      "outputs": [],
      "payable": false,
      "stateMutability": "nonpayable",
      "type": "function"
    },
    {
      "constant": false,
      "inputs": [],
      "name": "cancelReferenceRequest",
      "outputs": [],
      "payable": false,
      "stateMutability": "nonpayable",
      "type": "function"
    },
    {
      "constant": false,
      "inputs": [
        {
          "name": "_reference",
          "type": "address"
        }
      ],
      "name": "approveReference",
      "outputs": [],
      "payable": false,
      "stateMutability": "nonpayable",
      "type": "function"
    },
    {
      "constant": false,
      "inputs": [
        {
          "name": "_reference",
          "type": "address"
        }
      ],
      "name": "removeReferenceApproval",
      "outputs": [],
      "payable": false,
      "stateMutability": "nonpayable",
      "type": "function"
    },
    {
      "constant": false,
      "inputs": [
        {
          "name": "_reference",
          "type": "address"
        }
      ],
      "name": "flagMissingReference",
      "outputs": [],
      "payable": false,
      "stateMutability": "nonpayable",
      "type": "function"
    },
    {
      "constant": false,
      "inputs": [
        {
          "name": "_reference",
          "type": "address"
        }
      ],
      "name": "removeMissingReferenceFlag",
      "outputs": [],
      "payable": false,
      "stateMutability": "nonpayable",
      "type": "function"
    },
    {
      "constant": false,
      "inputs": [
        {
          "components": [
            {
              "name": "contributors",
              "type": "address[]"
            },
            {
              "name": "contributorRewardDistribution",
              "type": "uint128[]"
            },
            {
              "name": "references",
              "type": "address[]"
            }
          ],
          "name": "_contribsAndRefs",
          "type": "tuple"
        }
      ],
      "name": "setContributorsAndReferences",
      "outputs": [],
      "payable": false,
      "stateMutability": "nonpayable",
      "type": "function"
    },
    {
      "constant": false,
      "inputs": [
        {
          "name": "_contributor",
          "type": "address"
        },
        {
          "name": "_bountyAllocation",
          "type": "uint128"
        }
      ],
      "name": "addContributor",
      "outputs": [],
      "payable": false,
      "stateMutability": "nonpayable",
      "type": "function"
    },
    {
      "constant": false,
      "inputs": [
        {
          "name": "_contributorsToAdd",
          "type": "address[]"
        },
        {
          "name": "_distribution",
          "type": "uint128[]"
        }
      ],
      "name": "addContributors",
      "outputs": [],
      "payable": false,
      "stateMutability": "nonpayable",
      "type": "function"
    },
    {
      "constant": false,
      "inputs": [
        {
          "name": "_contributorIndex",
          "type": "uint256"
        }
      ],
      "name": "removeContributor",
      "outputs": [],
      "payable": false,
      "stateMutability": "nonpayable",
      "type": "function"
    },
    {
      "constant": false,
      "inputs": [
        {
          "name": "_contributorsToRemove",
          "type": "address[]"
        }
      ],
      "name": "removeContributors",
      "outputs": [],
      "payable": false,
      "stateMutability": "nonpayable",
      "type": "function"
    },
    {
      "constant": false,
      "inputs": [],
      "name": "getBalance",
      "outputs": [
        {
          "name": "",
          "type": "uint256"
        }
      ],
      "payable": false,
      "stateMutability": "nonpayable",
      "type": "function"
    },
    {
      "constant": false,
      "inputs": [],
      "name": "withdrawReward",
      "outputs": [],
      "payable": false,
      "stateMutability": "nonpayable",
      "type": "function"
    },
    {
      "constant": true,
      "inputs": [],
      "name": "myReward",
      "outputs": [
        {
          "name": "",
          "type": "uint256"
        }
      ],
      "payable": false,
      "stateMutability": "view",
      "type": "function"
    }
  ],
  "bytecode": "0x6080604052670de0b6b3a76400006020553480156200001d57600080fd5b506040516101a08062003a5b833981018060405262000040919081019062000433565b6000805433600160a060020a031991821617909155600180548216600160a060020a038781169190911790915560028054831686831617905560038054909216908416178155815182916004916200009b91839190620001da565b506020820151620000b390600383019060026200021f565b506040820151620000cb90600583019060026200021f565b506060820151600782015560809091015160089091015560008054600160a060020a031916600160a060020a03878116919091179091556001546040517f6a44e43d000000000000000000000000000000000000000000000000000000008152911690636a44e43d9062000144908890600401620004c5565b602060405180830381600087803b1580156200015f57600080fd5b505af115801562000174573d6000803e3d6000fd5b505050506040513d601f19601f820116820180604052506200019a91908101906200040a565b601f8054600160a060020a031916600160a060020a039283161790819055161515620001c557600080fd5b505042600b819055600c55506200052c915050565b82600381019282156200020d579160200282015b828111156200020d5782518255602090920191600190910190620001ee565b506200021b92915062000251565b5090565b82600281019282156200020d57916020028201828111156200020d5782518255602090920191600190910190620001ee565b6200026e91905b808211156200021b576000815560010162000258565b90565b60006200027f825162000520565b9392505050565b6000601f820183136200029857600080fd5b6002620002af620002a98262000502565b620004db565b91508183856020840282011115620002c657600080fd5b60005b83811015620002f65781620002df88826200036a565b8452506020928301929190910190600101620002c9565b5050505092915050565b6000601f820183136200031257600080fd5b600362000323620002a98262000502565b915081838560208402820111156200033a57600080fd5b60005b83811015620002f657816200035388826200036a565b84525060209283019291909101906001016200033d565b60006200027f82516200026e565b600061012082840312156200038c57600080fd5b6200039860a0620004db565b90506000620003a8848462000300565b8252506060620003bb8484830162000286565b60208301525060a0620003d18482850162000286565b60408301525060e0620003e7848285016200036a565b606083015250610100620003fe848285016200036a565b60808301525092915050565b6000602082840312156200041d57600080fd5b60006200042b848462000271565b949350505050565b60008060008060006101a086880312156200044d57600080fd5b60006200045b888862000271565b95505060206200046e8882890162000271565b9450506040620004818882890162000271565b9350506060620004948882890162000271565b9250506080620004a78882890162000378565b9150509295509295909350565b620004bf8162000520565b82525050565b60208101620004d58284620004b4565b92915050565b6040518181016001604060020a0381118282101715620004fa57600080fd5b604052919050565b60006001604060020a038211156200051957600080fd5b5060200290565b600160a060020a031690565b61351f806200053c6000396000f3006080604052600436106101d75763ffffffff7c0100000000000000000000000000000000000000000000000000000000600035041663076b7f7681146101fc57806309b542bb1461021e5780630cbfdb2d1461023e5780630fb3395c1461025e57806312065fe01461027e5780631af73c32146102a957806323bab50b146102c9578063245edf06146102e95780632f54bf6e1461030b57806332c9c9d3146103385780633bc5de3014610358578063428495701461037a578063444e31ca1461038f57806357de221f146103a45780635de8439f146103c45780636948f406146103e457806374756091146104045780637a6337fa146104245780638493f71f14610446578063893d20e81461045b5780638da5cb5b1461047d5780638efa5410146104925780639b057610146104a75780639f8743f7146104bc5780639fb86a87146104d1578063a52dd12f146104f1578063a5faa12514610511578063ae1ca69214610526578063af157c191461053b578063b288e0c114610550578063c7af355114610570578063c885bc5814610585578063e4e3e83a1461059a578063e7139ec0146105ba578063e76c293e146105da578063f2fde38b146105ef578063f889b6d41461060f578063ff3c1a8f1461062f575b3480156101e357600080fd5b5061dead6000526002601ea060003560005260046000a0005b34801561020857600080fd5b5061021c610217366004612d42565b610651565b005b34801561022a57600080fd5b5061021c610239366004612dca565b6107af565b34801561024a57600080fd5b5061021c610259366004612c12565b61089c565b34801561026a57600080fd5b5061021c610279366004612c12565b6109a2565b34801561028a57600080fd5b50610293610a5c565b6040516102a0919061341a565b60405180910390f35b3480156102b557600080fd5b5061021c6102c4366004612c90565b610b10565b3480156102d557600080fd5b5061021c6102e4366004612c12565b610c74565b3480156102f557600080fd5b506102fe610d0a565b6040516102a091906132a0565b34801561031757600080fd5b5061032b610326366004612c12565b610d5c565b6040516102a091906132bc565b34801561034457600080fd5b5061021c610353366004612c12565b610d7d565b34801561036457600080fd5b5061036d610e83565b6040516102a09190613351565b34801561038657600080fd5b50610293610f69565b34801561039b57600080fd5b5061021c611042565b3480156103b057600080fd5b5061021c6103bf366004612d77565b61107f565b3480156103d057600080fd5b5061021c6103df366004612dac565b6111c4565b3480156103f057600080fd5b5061021c6103ff366004612cc5565b6112e9565b34801561041057600080fd5b5061021c61041f366004612dca565b61131b565b34801561043057600080fd5b506104396114bf565b6040516102a0919061328f565b34801561045257600080fd5b506102fe611540565b34801561046757600080fd5b5061047061158b565b6040516102a09190613224565b34801561048957600080fd5b506104706115a7565b34801561049e57600080fd5b506102936115c3565b3480156104b357600080fd5b506102936115c9565b3480156104c857600080fd5b506104706115cf565b3480156104dd57600080fd5b5061021c6104ec366004612c90565b6115eb565b3480156104fd57600080fd5b5061032b61050c366004612c12565b611681565b34801561051d57600080fd5b50610470611cbe565b34801561053257600080fd5b50610293611cf3565b34801561054757600080fd5b50610439611cf9565b34801561055c57600080fd5b5061021c61056b366004612d42565b611d79565b34801561057c57600080fd5b5061021c611dd2565b34801561059157600080fd5b5061021c611e0a565b3480156105a657600080fd5b5061021c6105b5366004612c12565b611f20565b3480156105c657600080fd5b5061021c6105d5366004612c12565b612026565b3480156105e657600080fd5b5061047061212c565b3480156105fb57600080fd5b5061021c61060a366004612c12565b612148565b34801561061b57600080fd5b5061021c61062a366004612c56565b6121d5565b34801561063b57600080fd5b506106446122eb565b6040516102a091906132ae565b60005473ffffffffffffffffffffffffffffffffffffffff16331461067557600080fd5b600354604080517f1865c57d000000000000000000000000000000000000000000000000000000008152905160029273ffffffffffffffffffffffffffffffffffffffff1691631865c57d9160048083019260209291908290030181600087803b1580156106e257600080fd5b505af11580156106f6573d6000803e3d6000fd5b505050506040513d601f19601f8201168201806040525061071a9190810190612de8565b1461072457600080fd5b6040517fca3e2b7400000000000000000000000000000000000000000000000000000000815273__LibSubmission_________________________9063ca3e2b749061077c90600490601c90600d90879084016132d8565b60006040518083038186803b15801561079457600080fd5b505af41580156107a8573d6000803e3d6000fd5b5050505050565b60035473ffffffffffffffffffffffffffffffffffffffff1633148061087857506003546040517fb6a3497500000000000000000000000000000000000000000000000000000000815273ffffffffffffffffffffffffffffffffffffffff9091169063b6a3497590610826903390600401613224565b602060405180830381600087803b15801561084057600080fd5b505af1158015610854573d6000803e3d6000fd5b505050506040513d601f19601f820116820180604052506108789190810190612d24565b151561088357600080fd5b600d54610896908263ffffffff61233716565b600d5550565b6001546040517f3e44cf7800000000000000000000000000000000000000000000000000000000815273ffffffffffffffffffffffffffffffffffffffff90911690633e44cf78906108f2903390600401613224565b602060405180830381600087803b15801561090c57600080fd5b505af1158015610920573d6000803e3d6000fd5b505050506040513d601f19601f820116820180604052506109449190810190612d24565b151561094f57600080fd5b6040517fb0bba0ff00000000000000000000000000000000000000000000000000000000815273__LibSubmissionTrust____________________9063b0bba0ff9061077c9060129085906004016133ff565b60005473ffffffffffffffffffffffffffffffffffffffff1633146109c657600080fd5b60005473ffffffffffffffffffffffffffffffffffffffff1633146109ea57600080fd5b6001546040517fcb1602d700000000000000000000000000000000000000000000000000000000815273__LibSubmissionTrust____________________9163cb1602d79161077c91601c91601291879173ffffffffffffffffffffffffffffffffffffffff9091169060040161331c565b6003546040517ff8b2cb4f00000000000000000000000000000000000000000000000000000000815260009173ffffffffffffffffffffffffffffffffffffffff16908290829063f8b2cb4f90610ab79030906004016132ca565b602060405180830381600087803b158015610ad157600080fd5b505af1158015610ae5573d6000803e3d6000fd5b505050506040513d601f19601f82011682018060405250610b099190810190612de8565b9392505050565b6000805473ffffffffffffffffffffffffffffffffffffffff163314610b3557600080fd5b5060005b81518163ffffffff161015610c7057610bba600d6003016000848463ffffffff16815181101515610b6657fe5b602090810290910181015173ffffffffffffffffffffffffffffffffffffffff16825281019190915260400160002054600f546fffffffffffffffffffffffffffffffff908116911663ffffffff61234616565b600f80546fffffffffffffffffffffffffffffffff19166fffffffffffffffffffffffffffffffff9290921691909117905581516000906010908290859063ffffffff8616908110610c0857fe5b60209081029190910181015173ffffffffffffffffffffffffffffffffffffffff16825281019190915260400160002080546fffffffffffffffffffffffffffffffff19166fffffffffffffffffffffffffffffffff92909216919091179055600101610b39565b5050565b60005473ffffffffffffffffffffffffffffffffffffffff163314610c9857600080fd5b6001546040517faf9d1a4000000000000000000000000000000000000000000000000000000000815273__LibSubmissionTrust____________________9163af9d1a409161077c91601c91601291879173ffffffffffffffffffffffffffffffffffffffff9091169060040161331c565b610d12612755565b33610d1c81611681565b1515610d2757600080fd5b60408051808201918290529060079060029082845b81548152600190910190602001808311610d3c575b505050505091505090565b60005473ffffffffffffffffffffffffffffffffffffffff91821691161490565b6001546040517f3e44cf7800000000000000000000000000000000000000000000000000000000815273ffffffffffffffffffffffffffffffffffffffff90911690633e44cf7890610dd3903390600401613224565b602060405180830381600087803b158015610ded57600080fd5b505af1158015610e01573d6000803e3d6000fd5b505050506040513d601f19601f82011682018060405250610e259190810190612d24565b1515610e3057600080fd5b6040517f35974e8f00000000000000000000000000000000000000000000000000000000815273__LibSubmissionTrust____________________906335974e8f9061077c9060129085906004016133ff565b610e8b612770565b33610e9581611681565b1515610ea057600080fd5b60408051610100810190915260048160a081018260038282826020028201915b81548152600190910190602001808311610ec0575050509183525050604080518082019182905260209092019190600384019060029082845b81548152600190910190602001808311610ef9575050509183525050604080518082019182905260209092019190600584019060029082845b81548152600190910190602001808311610f3257505050505081526020016007820154815260200160088201548152505091505090565b6001546040517f223c8136000000000000000000000000000000000000000000000000000000008152600091829173__LibSubmission_________________________9163223c813691610fdc9173ffffffffffffffffffffffffffffffffffffffff1690600d90601290600401613267565b60206040518083038186803b158015610ff457600080fd5b505af4158015611008573d6000803e3d6000fd5b505050506040513d601f19601f8201168201806040525061102c9190810190612de8565b905061103c601c600d3384612372565b91505090565b60015473ffffffffffffffffffffffffffffffffffffffff16331461106657600080fd5b60155461107a90600163ffffffff61253616565b601555565b60005473ffffffffffffffffffffffffffffffffffffffff1633146110a357600080fd5b600354604080517f1865c57d000000000000000000000000000000000000000000000000000000008152905160029273ffffffffffffffffffffffffffffffffffffffff1691631865c57d9160048083019260209291908290030181600087803b15801561111057600080fd5b505af1158015611124573d6000803e3d6000fd5b505050506040513d601f19601f820116820180604052506111489190810190612de8565b1461115257600080fd5b6001546040517f71bb626100000000000000000000000000000000000000000000000000000000815273__LibSubmission_________________________916371bb62619161077c91600491601c91601291889173ffffffffffffffffffffffffffffffffffffffff169085016133a9565b60005473ffffffffffffffffffffffffffffffffffffffff1633146111e857600080fd5b600354604080517f1865c57d000000000000000000000000000000000000000000000000000000008152905160029273ffffffffffffffffffffffffffffffffffffffff1691631865c57d9160048083019260209291908290030181600087803b15801561125557600080fd5b505af1158015611269573d6000803e3d6000fd5b505050506040513d601f19601f8201168201806040525061128d9190810190612de8565b1461129757600080fd5b6040517f92ee139000000000000000000000000000000000000000000000000000000000815273__LibSubmission_________________________906392ee13909061077c90600490859082016133e3565b60005473ffffffffffffffffffffffffffffffffffffffff16331461130d57600080fd5b610c70601c600d8484612542565b60005473ffffffffffffffffffffffffffffffffffffffff16331461133f57600080fd5b60005473ffffffffffffffffffffffffffffffffffffffff16331461136357600080fd5b601c80546113d291601091600091908590811061137c57fe5b600091825260208083209091015473ffffffffffffffffffffffffffffffffffffffff168352820192909252604001902054600f546fffffffffffffffffffffffffffffffff908116911663ffffffff61234616565b600f80546fffffffffffffffffffffffffffffffff19166fffffffffffffffffffffffffffffffff92909216919091179055601c80546000916010918391908590811061141b57fe5b60009182526020808320919091015473ffffffffffffffffffffffffffffffffffffffff168352820192909252604001902080546fffffffffffffffffffffffffffffffff19166fffffffffffffffffffffffffffffffff92909216919091179055601c80548290811061148b57fe5b600091825260209091200180547fffffffffffffffffffffffff000000000000000000000000000000000000000016905550565b6060336114cb81611681565b15156114d657600080fd5b601e805460408051602080840282018101909252828152929190830182828015610d5157602002820191906000526020600020905b815473ffffffffffffffffffffffffffffffffffffffff16815260019091019060200180831161150b57505050505091505090565b611548612755565b3361155281611681565b151561155d57600080fd5b60408051808201918290526009805482529091600290600a60208501808311610d3c57505050505091505090565b60005473ffffffffffffffffffffffffffffffffffffffff1690565b60005473ffffffffffffffffffffffffffffffffffffffff1681565b600c5490565b600d5490565b60035473ffffffffffffffffffffffffffffffffffffffff1690565b60005473ffffffffffffffffffffffffffffffffffffffff16331461160f57600080fd5b6001546040517fcf6cea4b00000000000000000000000000000000000000000000000000000000815273__LibSubmissionTrust____________________9163cf6cea4b9161077c91600491601c91601291889173ffffffffffffffffffffffffffffffffffffffff16908501613360565b600354600254604080517f2fc1f190000000000000000000000000000000000000000000000000000000008152905160009373ffffffffffffffffffffffffffffffffffffffff908116931691849182918291829182918291829182918a91632fc1f1909160048082019260209290919082900301818787803b15801561170757600080fd5b505af115801561171b573d6000803e3d6000fd5b505050506040513d601f19601f8201168201806040525061173f9190810190612c38565b73ffffffffffffffffffffffffffffffffffffffff168c73ffffffffffffffffffffffffffffffffffffffff16149750600360009054906101000a900473ffffffffffffffffffffffffffffffffffffffff1673ffffffffffffffffffffffffffffffffffffffff168c73ffffffffffffffffffffffffffffffffffffffff161496506000809054906101000a900473ffffffffffffffffffffffffffffffffffffffff1673ffffffffffffffffffffffffffffffffffffffff168c73ffffffffffffffffffffffffffffffffffffffff161495506003600681111561182157fe5b600360009054906101000a900473ffffffffffffffffffffffffffffffffffffffff1673ffffffffffffffffffffffffffffffffffffffff16631865c57d6040518163ffffffff167c0100000000000000000000000000000000000000000000000000000000028152600401602060405180830381600087803b1580156118a757600080fd5b505af11580156118bb573d6000803e3d6000fd5b505050506040513d601f19601f820116820180604052506118df9190810190612de8565b6002546040517f52c01fab0000000000000000000000000000000000000000000000000000000081529290911015965073ffffffffffffffffffffffffffffffffffffffff16906352c01fab9061193a908f90600401613224565b602060405180830381600087803b15801561195457600080fd5b505af1158015611968573d6000803e3d6000fd5b505050506040513d601f19601f8201168201806040525061198c9190810190612d24565b93508b73ffffffffffffffffffffffffffffffffffffffff168973ffffffffffffffffffffffffffffffffffffffff1663893d20e86040518163ffffffff167c0100000000000000000000000000000000000000000000000000000000028152600401602060405180830381600087803b158015611a0957600080fd5b505af1158015611a1d573d6000803e3d6000fd5b505050506040513d601f19601f82011682018060405250611a419190810190612c38565b73ffffffffffffffffffffffffffffffffffffffff16149250848015611a6b57508280611a6b5750835b91506005600360009054906101000a900473ffffffffffffffffffffffffffffffffffffffff1673ffffffffffffffffffffffffffffffffffffffff16631865c57d6040518163ffffffff167c0100000000000000000000000000000000000000000000000000000000028152600401602060405180830381600087803b158015611af557600080fd5b505af1158015611b09573d6000803e3d6000fd5b505050506040513d601f19601f82011682018060405250611b2d9190810190612de8565b101590508780611b3a5750865b80611b425750855b80611b4a5750815b80611bf857506001546040517f3e44cf7800000000000000000000000000000000000000000000000000000000815273ffffffffffffffffffffffffffffffffffffffff90911690633e44cf7890611ba6908f90600401613224565b602060405180830381600087803b158015611bc057600080fd5b505af1158015611bd4573d6000803e3d6000fd5b505050506040513d601f19601f82011682018060405250611bf89190810190612d24565b80611ca657506001546040517f818b5fa800000000000000000000000000000000000000000000000000000000815273ffffffffffffffffffffffffffffffffffffffff9091169063818b5fa890611c54908f90600401613224565b602060405180830381600087803b158015611c6e57600080fd5b505af1158015611c82573d6000803e3d6000fd5b505050506040513d601f19601f82011682018060405250611ca69190810190612d24565b80611cae5750805b9c9b505050505050505050505050565b600033611cca81611681565b1515611cd557600080fd5b5050601f5473ffffffffffffffffffffffffffffffffffffffff1690565b600b5490565b606033611d0581611681565b1515611d1057600080fd5b601c805460408051602080840282018101909252828152929190830182828015610d515760200282019190600052602060002090815473ffffffffffffffffffffffffffffffffffffffff16815260019091019060200180831161150b57505050505091505090565b6040517fb376fecb00000000000000000000000000000000000000000000000000000000815273__LibSubmission_________________________9063b376fecb9061077c90601c90600d9060129087906004016132d8565b60015473ffffffffffffffffffffffffffffffffffffffff163314611df657600080fd5b60155461107a90600163ffffffff61233716565b60005473ffffffffffffffffffffffffffffffffffffffff16331480611e505750336000908152601060205260409020546fffffffffffffffffffffffffffffffff1615155b80611e72575060035473ffffffffffffffffffffffffffffffffffffffff1633145b1515611e7d57600080fd5b6001546040517f36b39c0800000000000000000000000000000000000000000000000000000000815273__LibSubmission_________________________916336b39c0891611eee9173ffffffffffffffffffffffffffffffffffffffff1690601c90600d90601290600401613232565b60006040518083038186803b158015611f0657600080fd5b505af4158015611f1a573d6000803e3d6000fd5b50505050565b6001546040517f3e44cf7800000000000000000000000000000000000000000000000000000000815273ffffffffffffffffffffffffffffffffffffffff90911690633e44cf7890611f76903390600401613224565b602060405180830381600087803b158015611f9057600080fd5b505af1158015611fa4573d6000803e3d6000fd5b505050506040513d601f19601f82011682018060405250611fc89190810190612d24565b1515611fd357600080fd5b6040517ff5d7873800000000000000000000000000000000000000000000000000000000815273__LibSubmissionTrust____________________9063f5d787389061077c9060129085906004016133ff565b6001546040517f3e44cf7800000000000000000000000000000000000000000000000000000000815273ffffffffffffffffffffffffffffffffffffffff90911690633e44cf789061207c903390600401613224565b602060405180830381600087803b15801561209657600080fd5b505af11580156120aa573d6000803e3d6000fd5b505050506040513d601f19601f820116820180604052506120ce9190810190612d24565b15156120d957600080fd5b6040517fed357c9400000000000000000000000000000000000000000000000000000000815273__LibSubmissionTrust____________________9063ed357c949061077c9060129085906004016133ff565b60025473ffffffffffffffffffffffffffffffffffffffff1690565b60005473ffffffffffffffffffffffffffffffffffffffff16331461216c57600080fd5b73ffffffffffffffffffffffffffffffffffffffff8116151561218e57600080fd5b600080547fffffffffffffffffffffffff00000000000000000000000000000000000000001673ffffffffffffffffffffffffffffffffffffffff92909216919091179055565b6000805473ffffffffffffffffffffffffffffffffffffffff1633146121fa57600080fd5b601c8054600181019091557f0e4562a10381dec21b205ed72637e6b1b523bdd0e4d4d50af5cd23dd4500a2110180547fffffffffffffffffffffffff00000000000000000000000000000000000000001673ffffffffffffffffffffffffffffffffffffffff8516908117909155600090815260106020526040902080546fffffffffffffffffffffffffffffffff19166fffffffffffffffffffffffffffffffff84811691909117909155600f546122b49116836126f6565b600f80546fffffffffffffffffffffffffffffffff19166fffffffffffffffffffffffffffffffff92909216919091179055505050565b6122f36127b3565b336122fd81611681565b151561230857600080fd5b6040805160608101918290526004805482529091600390600560208501808311610d3c57505050505091505090565b600082820183811015610b0957fe5b60006fffffffffffffffffffffffffffffffff808416908316111561236757fe5b508082035b92915050565b835460009082908290156123945761239182600263ffffffff61271a16565b91505b6040517f2f54bf6e0000000000000000000000000000000000000000000000000000000081523090632f54bf6e906123d0908890600401613224565b602060405180830381600087803b1580156123ea57600080fd5b505af11580156123fe573d6000803e3d6000fd5b505050506040513d601f19601f820116820180604052506124229190810190612d24565b156124675773ffffffffffffffffffffffffffffffffffffffff8516600090815260048701602052604090205461246090839063ffffffff61253616565b925061252c565b600286015473ffffffffffffffffffffffffffffffffffffffff861660009081526003880160205260409020546124d2916fffffffffffffffffffffffffffffffff908116916124c69116670de0b6b3a764000063ffffffff61273116565b9063ffffffff61271a16565b73ffffffffffffffffffffffffffffffffffffffff861660009081526004880160205260409020549091506125299061251d670de0b6b3a76400006124c6858763ffffffff61273116565b9063ffffffff61253616565b92505b5050949350505050565b60008282111561236757fe5b805182516000911461255357600080fd5b5060005b82518163ffffffff1610156107a8576125aa828263ffffffff1681518110151561257d57fe5b6020908102909101015160028601546fffffffffffffffffffffffffffffffff169063ffffffff6126f616565b6002850180546fffffffffffffffffffffffffffffffff19166fffffffffffffffffffffffffffffffff929092169190911790558151829063ffffffff83169081106125f257fe5b90602001906020020151846003016000858463ffffffff1681518110151561261657fe5b60209081029190910181015173ffffffffffffffffffffffffffffffffffffffff16825281019190915260400160002080546fffffffffffffffffffffffffffffffff19166fffffffffffffffffffffffffffffffff9290921691909117905582518590849063ffffffff841690811061268c57fe5b60209081029190910181015182546001808201855560009485529290932090920180547fffffffffffffffffffffffff00000000000000000000000000000000000000001673ffffffffffffffffffffffffffffffffffffffff9093169290921790915501612557565b60008282016fffffffffffffffffffffffffffffffff8085169082161015610b0957fe5b600080828481151561272857fe5b04949350505050565b600082820283158061274d575082848281151561274a57fe5b04145b1515610b0957fe5b60408051808201825290600290829080388339509192915050565b610120604051908101604052806127856127b3565b8152602001612792612755565b815260200161279f612755565b815260200160008152602001600081525090565b6060604051908101604052806003906020820280388339509192915050565b6000610b0982356134a7565b6000610b0982516134a7565b6000601f820183136127fb57600080fd5b813561280e6128098261344f565b613428565b9150818183526020840193506020810190508385602084028201111561283357600080fd5b60005b8381101561285f578161284988826127d2565b8452506020928301929190910190600101612836565b5050505092915050565b6000601f8201831361287a57600080fd5b81356128886128098261344f565b915081818352602084019350602081019050838560208402820111156128ad57600080fd5b60005b8381101561285f57816128c388826127d2565b84525060209283019291909101906001016128b0565b6000601f820183136128ea57600080fd5b60026128f861280982613470565b9150818385602084028201111561290e57600080fd5b60005b8381101561285f57816129248882612a87565b8452506020928301929190910190600101612911565b6000601f8201831361294b57600080fd5b600361295961280982613470565b9150818385602084028201111561296f57600080fd5b60005b8381101561285f57816129858882612a87565b8452506020928301929190910190600101612972565b6000601f820183136129ac57600080fd5b81356129ba6128098261344f565b915081818352602084019350602081019050838560208402820111156129df57600080fd5b60005b8381101561285f57816129f58882612bfa565b84525060209283019291909101906001016129e2565b6000601f82018313612a1c57600080fd5b8135612a2a6128098261344f565b91508181835260208401935060208101905083856020840282011115612a4f57600080fd5b60005b8381101561285f5781612a658882612bfa565b8452506020928301929190910190600101612a52565b6000610b0982516134c0565b6000610b098235613494565b600060608284031215612aa557600080fd5b612aaf6060613428565b9050813567ffffffffffffffff811115612ac857600080fd5b612ad4848285016127ea565b825250602082013567ffffffffffffffff811115612af157600080fd5b612afd8482850161299b565b602083015250604082013567ffffffffffffffff811115612b1d57600080fd5b612b29848285016127ea565b60408301525092915050565b600060408284031215612b4757600080fd5b612b516040613428565b9050813567ffffffffffffffff811115612b6a57600080fd5b612b76848285016127ea565b825250602082013567ffffffffffffffff811115612b9357600080fd5b612b9f848285016127ea565b60208301525092915050565b600060e08284031215612bbd57600080fd5b612bc76060613428565b90506000612bd5848461293a565b8252506060612be6848483016128d9565b60208301525060a0612b29848285016128d9565b6000610b0982356134c5565b6000610b098251613494565b600060208284031215612c2457600080fd5b6000612c3084846127d2565b949350505050565b600060208284031215612c4a57600080fd5b6000612c3084846127de565b60008060408385031215612c6957600080fd5b6000612c7585856127d2565b9250506020612c8685828601612bfa565b9150509250929050565b600060208284031215612ca257600080fd5b813567ffffffffffffffff811115612cb957600080fd5b612c3084828501612869565b60008060408385031215612cd857600080fd5b823567ffffffffffffffff811115612cef57600080fd5b612cfb85828601612869565b925050602083013567ffffffffffffffff811115612d1857600080fd5b612c8685828601612a0b565b600060208284031215612d3657600080fd5b6000612c308484612a7b565b600060208284031215612d5457600080fd5b813567ffffffffffffffff811115612d6b57600080fd5b612c3084828501612a93565b600060208284031215612d8957600080fd5b813567ffffffffffffffff811115612da057600080fd5b612c3084828501612b35565b600060e08284031215612dbe57600080fd5b6000612c308484612bab565b600060208284031215612ddc57600080fd5b6000612c308484612a87565b600060208284031215612dfa57600080fd5b6000612c308484612c06565b612e0f816134a7565b82525050565b6000612e2082613497565b808452602084019350612e328361348e565b60005b82811015612e6257612e48868351612e06565b612e518261348e565b602096909601959150600101612e35565b5093949350505050565b6000612e7782613497565b808452602084019350612e898361348e565b60005b82811015612e6257612e9f868351612e06565b612ea88261348e565b602096909601959150600101612e8c565b6000612ec482613497565b808452602084019350612ed68361348e565b60005b82811015612e6257612eec868351612e06565b612ef58261348e565b602096909601959150600101612ed9565b612f0f8161349b565b612f1882613494565b60005b828110156107a857612f2e8583516130e8565b612f378261348e565b602095909501949150600101612f1b565b612f518161349b565b612f5a82613494565b60005b828110156107a857612f708583516130e8565b612f798261348e565b602095909501949150600101612f5d565b612f938161349b565b612f9c82613494565b60005b828110156107a857612fb28583516130e8565b612fbb8261348e565b602095909501949150600101612f9f565b612fd5816134a1565b612fde82613494565b60005b828110156107a857612ff48583516130e8565b612ffd8261348e565b602095909501949150600101612fe1565b613017816134a1565b61302082613494565b60005b828110156107a8576130368583516130e8565b61303f8261348e565b602095909501949150600101613023565b613059816134a1565b61306282613494565b60005b828110156107a8576130788583516130e8565b6130818261348e565b602095909501949150600101613065565b600061309d82613497565b8084526020840193506130af8361348e565b60005b82811015612e62576130c586835161321b565b6130ce8261348e565b6020969096019591506001016130b2565b612e0f816134c0565b612e0f81613494565b612e0f816134da565b80516060808452600091908401906131128282612eb9565b9150506020830151848203602086015261312c8282613092565b915050604083015184820360408601526131468282612eb9565b95945050505050565b9052565b805160408084526000919084019061316b8282612eb9565b915050602083015184820360208601526131468282612eb9565b8051610120830190613197848261300e565b5060208201516131aa6060850182612f48565b5060408201516131bd60a0850182612f48565b5060608201516131d060e08501826130e8565b506080820151611f1a6101008501826130e8565b805160e08301906131f58482613050565b5060208201516132086060850182612f8a565b506040820151611f1a60a0850182612f8a565b612e0f816134c5565b6020810161236c8284612e06565b608081016132408287612e06565b61324d602083018661314f565b61325a604083018561314f565b613146606083018461314f565b606081016132758286612e06565b613282602083018561314f565b612c30604083018461314f565b60208082528101610b098184612e15565b6040810161236c8284612f06565b6060810161236c8284612fcc565b6020810161236c82846130df565b6020810161236c82846130f1565b608081016132e6828761314f565b6132f3602083018661314f565b613300604083018561314f565b818103606083015261331281846130fa565b9695505050505050565b6080810161332a828761314f565b613337602083018661314f565b6133446040830185612e06565b6131466060830184612e06565b610120810161236c8284613185565b60a0810161336e828861314f565b61337b602083018761314f565b613388604083018661314f565b818103606083015261339a8185612e6c565b90506133126080830184612e06565b60a081016133b7828861314f565b6133c4602083018761314f565b6133d1604083018661314f565b818103606083015261339a8185613153565b61010081016133f2828561314f565b610b0960208301846131e4565b6040810161340d828561314f565b610b096020830184612e06565b6020810161236c82846130e8565b60405181810167ffffffffffffffff8111828210171561344757600080fd5b604052919050565b600067ffffffffffffffff82111561346657600080fd5b5060209081020190565b600067ffffffffffffffff82111561348757600080fd5b5060200290565b60200190565b90565b5190565b50600290565b50600390565b73ffffffffffffffffffffffffffffffffffffffff1690565b151590565b6fffffffffffffffffffffffffffffffff1690565b600061236c826134a75600a265627a7a7230582081240c5effe306b567701fb90c13d511f636c807a8caa93dd812fae3890bd1cc6c6578706572696d656e74616cf50037",
  "source": "pragma solidity ^0.4.18;\npragma experimental ABIEncoderV2;\n\n\nimport \"../libraries/math/SafeMath.sol\";\nimport \"../libraries/math/SafeMath128.sol\";\nimport \"../libraries/strings/strings.sol\";\nimport \"../libraries/LibConstruction.sol\";\nimport \"../libraries/LibEnums.sol\";\nimport \"../libraries/submission/LibSubmission.sol\";\nimport \"../libraries/submission/LibSubmissionTrust.sol\";\nimport \"../interfaces/IMatryxToken.sol\";\nimport \"../interfaces/IMatryxPeer.sol\";\nimport \"../interfaces/IMatryxPlatform.sol\";\nimport \"../interfaces/IMatryxTournament.sol\";\nimport \"../interfaces/IMatryxRound.sol\";\nimport \"../interfaces/IMatryxSubmission.sol\";\nimport \"./Ownable.sol\";\n\ncontract MatryxSubmission is Ownable, IMatryxSubmission {\n    using SafeMath for uint256;\n    using SafeMath128 for uint128;\n    using SafeMath for uint32;\n    using strings for *;\n\n    // Parent identification\n    address private platformAddress;\n    address private tournamentAddress;\n    address private roundAddress;\n\n    // Submission\n    LibConstruction.SubmissionData data;\n    LibSubmission.RewardData rewardData;\n    LibSubmission.TrustData trustData;\n    LibConstruction.ContributorsAndReferences contributorsAndReferences;\n\n    address author;\n\n    uint256 one = 10**18;\n\n    constructor(address _owner, address _platformAddress, address _tournamentAddress, address _roundAddress, LibConstruction.SubmissionData _submissionData) public\n    {\n        platformAddress = _platformAddress;\n        tournamentAddress = _tournamentAddress;\n        roundAddress = _roundAddress;\n\n        data = _submissionData;\n        owner = _owner;\n        author = IMatryxPlatform(platformAddress).peerAddress(_owner);\n        require(author != 0x0);\n\n        data.timeSubmitted = now;\n        data.timeUpdated = now;\n    }\n\n    /*\n    * Modifiers\n    */\n\n    // modifier onlyAuthor() {\n    //    \trequire(msg.sender == author);\n    //    \t_;\n    //  \t}\n\n    modifier onlyPlatform() {\n        require(msg.sender == platformAddress);\n        _;\n    }\n\n    // modifier onlyRound()\n    // {\n    // \trequire(msg.sender == roundAddress);\n    // \t_;\n    // }\n\n    modifier ownerContributorOrRound()\n    {\n        require(msg.sender == owner || rewardData.contributorToBountyDividend[msg.sender] != 0 || msg.sender == roundAddress);\n        _;\n    }\n\n    modifier onlyPeer()\n    {\n        require(IMatryxPlatform(platformAddress).isPeer(msg.sender));\n        _;\n    }\n\n    // A modifier to ensure that information can only obtained\n    // about this submission when it should be.\n    modifier whenAccessible(address _requester)\n    {\n        require(isAccessible(_requester));\n        _;\n    }\n\n    modifier onlySubmissionOrRound()\n    {\n        require(msg.sender == roundAddress || IMatryxRound(roundAddress).submissionExists(msg.sender));\n        _;\n    }\n\n    modifier onlyOwnerOrThis()\n    {\n        require(msg.sender == owner || msg.sender == address(this));\n        _;\n    }\n\n    modifier duringOpenSubmission()\n    {\n        require(IMatryxRound(roundAddress).getState() == uint256(LibEnums.RoundState.Open));\n        _;\n    }\n\n    /*\n    * Getter Methods\n    */\n\n    function() public {\n        assembly {\n            mstore(0, 0xdead)\n            log0(0x1e, 0x02)\n            mstore(0, calldataload(0x0))\n            log0(0, 0x04)\n        }\n    }\n\n    function getTournament() public view returns (address) {\n        return tournamentAddress;\n    }\n\n    function getRound() public view returns (address) {\n        return roundAddress;\n    }\n\n    function isAccessible(address _requester) public view returns (bool)\n    {\n        IMatryxRound round = IMatryxRound(roundAddress);\n        Ownable ownableTournament = Ownable(tournamentAddress);\n\n        bool isPlatform = _requester == IMatryxTournament(tournamentAddress).getPlatform();\n        bool isRound = _requester == roundAddress;\n        bool ownsThisSubmission = _requester == owner;\n        bool roundAtLeastInReview = IMatryxRound(roundAddress).getState() >= uint256(LibEnums.RoundState.InReview);\n        bool requesterIsEntrant = IMatryxTournament(tournamentAddress).isEntrant(_requester);\n        bool requesterOwnsTournament = ownableTournament.getOwner() == _requester;\n        bool duringReviewAndRequesterInTournament = roundAtLeastInReview && (requesterOwnsTournament || requesterIsEntrant);\n        // TODO: think about next steps (encryption)\n        bool roundIsClosed = IMatryxRound(roundAddress).getState() >= uint256(LibEnums.RoundState.Closed);\n\n        return isPlatform || isRound || ownsThisSubmission || duringReviewAndRequesterInTournament || IMatryxPlatform(platformAddress).isPeer(_requester) || IMatryxPlatform(platformAddress).isSubmission(_requester) || roundIsClosed;\n    }\n\n    function getData() public view whenAccessible(msg.sender) returns(LibConstruction.SubmissionData _data)\n    {\n        return data;\n    }\n\n    function getTitle() public view whenAccessible(msg.sender) returns(bytes32[3]) {\n        return data.title;\n    }\n\n    function getAuthor() public view whenAccessible(msg.sender) returns(address) {\n        return author;\n    }\n\n    function getDescriptionHash() public view whenAccessible(msg.sender) returns (bytes32[2])\n    {\n        return data.descriptionHash;\n    }\n\n    function getFileHash() public view whenAccessible(msg.sender) returns (bytes32[2])\n    {\n        return data.fileHash;\n    }\n\n    function getReferences() public view whenAccessible(msg.sender) returns(address[]) {\n        return contributorsAndReferences.references;\n    }\n\n    function getContributors() public view whenAccessible(msg.sender) returns(address[]) {\n        return contributorsAndReferences.contributors;\n    }\n\n    function getTimeSubmitted() public view returns(uint256) {\n        return data.timeSubmitted;\n    }\n\n    function getTimeUpdated() public view returns(uint256) {\n        return data.timeUpdated;\n    }\n\n    function getTotalWinnings() public view returns(uint256) {\n        return rewardData.winnings;\n    }\n\n    /*\n    * Setter Methods\n    */\n\n    function updateData(LibConstruction.SubmissionModificationData _modificationData) public onlyOwner duringOpenSubmission\n    {\n        LibSubmission.updateData(data, _modificationData);\n    }\n\n    function updateContributors(LibConstruction.ContributorsModificationData _contributorsModificationData) public onlyOwner duringOpenSubmission\n    {\n        LibSubmission.updateContributors(data, contributorsAndReferences, rewardData, _contributorsModificationData);\n    }\n\n    function updateReferences(LibConstruction.ReferencesModificationData _referencesModificationData) public onlyOwner duringOpenSubmission\n    {\n        LibSubmission.updateReferences(data, contributorsAndReferences, trustData, _referencesModificationData, platformAddress);\n    }\n\n    function addToWinnings(uint256 _amount) public onlySubmissionOrRound\n    {\n        rewardData.winnings = rewardData.winnings.add(_amount);\n    }\n\n    /// @dev Add a missing reference to a submission (callable only by submission's owner).\n    /// @param _reference Address of additional reference to include.\n\n    function addReference(address _reference) onlyOwner public onlyOwner\n    {\n        LibSubmissionTrust.addReference(contributorsAndReferences, trustData, _reference, platformAddress);\n    }\n\n    function addReferences(address[] _references) public onlyOwner\n    {\n        LibSubmissionTrust.addReferences(data, contributorsAndReferences, trustData, _references, platformAddress);\n    }\n\n    // // Debug function. ?MAYBEDO:Delete\n    // function addressIsFlagged(address _reference) public view returns (bool, bool)\n    // {\n    // \treturn (addressToReferenceInfo[_reference].flagged, missingReferenceToIndex[_reference].exists);\n    // }\n\n    /// @dev Remove an erroneous reference to a submission (callable only by submission's owner).\n    /// @param _reference Address of reference to remove.\n\n    function removeReference(address _reference) onlyOwner public\n    {\n        LibSubmissionTrust.removeReference(contributorsAndReferences, trustData, _reference, platformAddress);\n    }\n\n    function receiveReferenceRequest() public onlyPlatform\n    {\n        trustData.totalReferenceCount = trustData.totalReferenceCount.add(1);\n    }\n\n    function cancelReferenceRequest() public onlyPlatform\n    {\n        trustData.totalReferenceCount = trustData.totalReferenceCount.sub(1);\n    }\n\n    /// @dev Called by the owner of _reference when this submission is approved to list _reference\n    /// as a reference.\n    /// _reference Reference being approved by msg.sender.\n    function approveReference(address _reference) public onlyPeer\n    {\n        LibSubmissionTrust.approveReference(trustData, _reference);\n    }\n\n    /// @dev \t\t\t  Called by the owner of the _reference to remove their approval of a reference\n    ///\t\t \t\t\t  within this submission.\n    /// @param _reference Reference that peer is revoking the approval of to be included\n    ///\t\t\t\t\t  in this submission.\n    function removeReferenceApproval(address _reference) public onlyPeer\n    {\n        LibSubmissionTrust.removeReferenceApproval(trustData, _reference);\n    }\n\n    /// @dev \tCalled by the owner of _reference when this submission does not list _reference\n    /// \t\tas a reference.\n    /// @param  _reference Missing reference in this submission.\n    function flagMissingReference(address _reference) public onlyPeer\n    {\n        LibSubmissionTrust.flagMissingReference(trustData, _reference);\n    }\n\n    /// @dev \t\t\t  Called by the owner of _reference to remove a missing reference flag placed on a reference\n    ///\t\t \t\t\t  as missing.\n    /// @param _reference Reference previously marked by peer as missing.\n    function removeMissingReferenceFlag(address _reference) public onlyPeer\n    {\n        LibSubmissionTrust.removeMissingReferenceFlag(trustData, _reference);\n    }\n\n    /// @dev Sets contributors and references at submission creation time\n    /// @param _contribsAndRefs Struct containing contributors, reward distribution, and references\n    function setContributorsAndReferences(LibConstruction.ContributorsAndReferences _contribsAndRefs) public // onlyOwner? add appropriate modifier\n    {\n        LibSubmission.setContributorsAndReferences(contributorsAndReferences, rewardData, trustData, _contribsAndRefs);\n    }\n\n    /// @dev Add a contributor to a submission (callable only by submission's owner).\n    /// @param _contributor Address of contributor to add to the submission.\n    function addContributor(address _contributor, uint128 _bountyAllocation) public onlyOwner\n    {\n        contributorsAndReferences.contributors.push(_contributor);\n\n        rewardData.contributorToBountyDividend[_contributor] = _bountyAllocation;\n        rewardData.contributorBountyDivisor = rewardData.contributorBountyDivisor.add(_bountyAllocation);\n\n        IMatryxRound round = IMatryxRound(roundAddress);\n    }\n\n    function addContributors(address[] _contributorsToAdd, uint128[] _distribution) public onlyOwner\n    {\n        LibSubmission.addContributors(contributorsAndReferences, rewardData, _contributorsToAdd, _distribution);\n    }\n\n    /// @dev Remove a contributor from a submission (callable only by submission's owner).\n    /// @param _contributorIndex Index of the contributor to remove from the submission.\n    function removeContributor(uint256 _contributorIndex) onlyOwner public onlyOwner\n    {\n        rewardData.contributorBountyDivisor = rewardData.contributorBountyDivisor.sub(rewardData.contributorToBountyDividend[contributorsAndReferences.contributors[_contributorIndex]]);\n        rewardData.contributorToBountyDividend[contributorsAndReferences.contributors[_contributorIndex]] = 0;\n\n        delete contributorsAndReferences.contributors[_contributorIndex];\n    }\n\n    function removeContributors(address[] _contributorsToRemove) public onlyOwner\n    {\n        for(uint32 i = 0; i < _contributorsToRemove.length; i++)\n        {\n            rewardData.contributorBountyDivisor = rewardData.contributorBountyDivisor.sub(rewardData.contributorToBountyDividend[_contributorsToRemove[i]]);\n            rewardData.contributorToBountyDividend[_contributorsToRemove[i]] = 0;\n        }\n    }\n\n    function getBalance() public returns (uint256)\n    {\n        IMatryxRound round = IMatryxRound(roundAddress);\n        uint256 _balance = round.getBalance(this);\n        return _balance;\n    }\n\n    function withdrawReward() public ownerContributorOrRound\n    {\n        LibSubmission.withdrawReward(platformAddress, contributorsAndReferences, rewardData, trustData);\n    }\n\n    function myReward() public view returns (uint256)\n    {\n        uint256 transferAmount = LibSubmission.getTransferAmount(platformAddress, rewardData, trustData);\n        return LibSubmission._myReward(contributorsAndReferences, rewardData, msg.sender, transferAmount);\n    }\n\n}\n",
  "sourcePath": "/Users/maxhoward/Desktop/Ethereum/MatryxPlatform/contracts/MatryxSubmission.sol",
  "compiler": {
    "name": "solc",
    "version": "0.4.24+commit.e67f0147.Emscripten.clang"
  },
  "schemaVersion": "2.0.1",
  "updatedAt": "2018-08-01T22:01:21.915Z"
}