{
  "contractName": "MatryxTournamentFactory",
  "abi": [
    {
      "constant": true,
      "inputs": [],
      "name": "matryxTokenAddress",
      "outputs": [
        {
          "name": "",
          "type": "address"
        }
      ],
      "payable": false,
      "stateMutability": "view",
      "type": "function"
    },
    {
      "constant": true,
      "inputs": [
        {
          "name": "_sender",
          "type": "address"
        }
      ],
      "name": "isOwner",
      "outputs": [
        {
          "name": "_isOwner",
          "type": "bool"
        }
      ],
      "payable": false,
      "stateMutability": "view",
      "type": "function"
    },
    {
      "constant": true,
      "inputs": [],
      "name": "matryxRoundFactoryAddress",
      "outputs": [
        {
          "name": "",
          "type": "address"
        }
      ],
      "payable": false,
      "stateMutability": "view",
      "type": "function"
    },
    {
      "constant": true,
      "inputs": [],
      "name": "getOwner",
      "outputs": [
        {
          "name": "_owner",
          "type": "address"
        }
      ],
      "payable": false,
      "stateMutability": "view",
      "type": "function"
    },
    {
      "constant": true,
      "inputs": [],
      "name": "owner",
      "outputs": [
        {
          "name": "",
          "type": "address"
        }
      ],
      "payable": false,
      "stateMutability": "view",
      "type": "function"
    },
    {
      "constant": true,
      "inputs": [],
      "name": "platformAddress",
      "outputs": [
        {
          "name": "",
          "type": "address"
        }
      ],
      "payable": false,
      "stateMutability": "view",
      "type": "function"
    },
    {
      "constant": false,
      "inputs": [
        {
          "name": "newOwner",
          "type": "address"
        }
      ],
      "name": "transferOwnership",
      "outputs": [],
      "payable": false,
      "stateMutability": "nonpayable",
      "type": "function"
    },
    {
      "inputs": [
        {
          "name": "_matryxTokenAddress",
          "type": "address"
        },
        {
          "name": "_matryxRoundFactoryAddress",
          "type": "address"
        }
      ],
      "payable": false,
      "stateMutability": "nonpayable",
      "type": "constructor"
    },
    {
      "constant": false,
      "inputs": [
        {
          "name": "_owner",
          "type": "address"
        },
        {
          "name": "_category",
          "type": "string"
        },
        {
          "name": "_tournamentTitle",
          "type": "string"
        },
        {
          "name": "_externalAddress",
          "type": "bytes"
        },
        {
          "name": "_BountyMTX",
          "type": "uint256"
        },
        {
          "name": "_entryFee",
          "type": "uint256"
        }
      ],
      "name": "createTournament",
      "outputs": [
        {
          "name": "_tournamentAddress",
          "type": "address"
        }
      ],
      "payable": false,
      "stateMutability": "nonpayable",
      "type": "function"
    },
    {
      "constant": false,
      "inputs": [
        {
          "name": "_platformAddress",
          "type": "address"
        }
      ],
      "name": "setPlatform",
      "outputs": [],
      "payable": false,
      "stateMutability": "nonpayable",
      "type": "function"
    }
  ],
  "bytecode": "0x6060604052341561000f57600080fd5b6040516040806130bd833981016040528080519190602001805160008054600160a060020a03338116600160a060020a0319928316179092556001805496831696821696909617909555600380549190921694169390931790925550506130428061007b6000396000f3006060604052600436106100985763ffffffff7c01000000000000000000000000000000000000000000000000000000006000350416631021b496811461009d57806329cc545e146101bd5780632f54bf6e146101d05780636945c5ea146102105780636fe564201461023e578063893d20e8146102515780638da5cb5b14610264578063dbe55e5614610277578063f2fde38b1461028a575b600080fd5b34156100a857600080fd5b6101946004803573ffffffffffffffffffffffffffffffffffffffff169060446024803590810190830135806020601f8201819004810201604051908101604052818152929190602084018383808284378201915050505050509190803590602001908201803590602001908080601f01602080910402602001604051908101604052818152929190602084018383808284378201915050505050509190803590602001908201803590602001908080601f016020809104026020016040519081016040528181529291906020840183838082843750949650508435946020013593506102b692505050565b60405173ffffffffffffffffffffffffffffffffffffffff909116815260200160405180910390f35b34156101c857600080fd5b61019461049b565b34156101db57600080fd5b6101fc73ffffffffffffffffffffffffffffffffffffffff600435166104b7565b604051901515815260200160405180910390f35b341561021b57600080fd5b61023c73ffffffffffffffffffffffffffffffffffffffff600435166104d8565b005b341561024957600080fd5b610194610547565b341561025c57600080fd5b610194610563565b341561026f57600080fd5b61019461057f565b341561028257600080fd5b61019461059b565b341561029557600080fd5b61023c73ffffffffffffffffffffffffffffffffffffffff600435166105b7565b600254600154600354600092839273ffffffffffffffffffffffffffffffffffffffff9182169290821691168a8a8a8a8a8a6102f0610648565b73ffffffffffffffffffffffffffffffffffffffff808b168252898116602083015288811660408301528716606082015260e081018390526101008101829052610120608082018181529060a083019060c0840190840189818151815260200191508051906020019080838360005b8381101561037757808201518382015260200161035f565b50505050905090810190601f1680156103a45780820380516001836020036101000a031916815260200191505b50848103835288818151815260200191508051906020019080838360005b838110156103da5780820151838201526020016103c2565b50505050905090810190601f1680156104075780820380516001836020036101000a031916815260200191505b50848103825287818151815260200191508051906020019080838360005b8381101561043d578082015183820152602001610425565b50505050905090810190601f16801561046a5780820380516001836020036101000a031916815260200191505b509c50505050505050505050505050604051809103906000f080151561048f57600080fd5b98975050505050505050565b60015473ffffffffffffffffffffffffffffffffffffffff1681565b60005473ffffffffffffffffffffffffffffffffffffffff91821691161490565b6000543373ffffffffffffffffffffffffffffffffffffffff90811691161461050057600080fd5b600280547fffffffffffffffffffffffff00000000000000000000000000000000000000001673ffffffffffffffffffffffffffffffffffffffff92909216919091179055565b60035473ffffffffffffffffffffffffffffffffffffffff1681565b60005473ffffffffffffffffffffffffffffffffffffffff1690565b60005473ffffffffffffffffffffffffffffffffffffffff1681565b60025473ffffffffffffffffffffffffffffffffffffffff1681565b6000543373ffffffffffffffffffffffffffffffffffffffff9081169116146105df57600080fd5b73ffffffffffffffffffffffffffffffffffffffff8116151561060157600080fd5b600080547fffffffffffffffffffffffff00000000000000000000000000000000000000001673ffffffffffffffffffffffffffffffffffffffff92909216919091179055565b6040516129be8061065983390190560060606040526003600d55600e805460ff19169055600060125534156200002457600080fd5b604051620029be380380620029be83398101604052808051919060200180519190602001805191906020018051919060200180518201919060200180518201919060200180518201919060200180519190602001805160008054600160a060020a03191633600160a060020a0390811691909117909155909250871615159050620000ae57600080fd5b60008211620000bc57600080fd5b600160a060020a0387161515620000d257600080fd5b60018054600160a060020a03808c16600160a060020a031992831617909255600280548b8416908316179055600380548a84169083161790554260075560008054928916929091169190911790556006858051620001359291602001906200017e565b5060048480516200014b9291602001906200017e565b506005838051620001619291602001906200017e565b50600f829055601091909155601155506200022395505050505050565b828054600181600116156101000203166002900490600052602060002090601f016020900481019282601f10620001c157805160ff1916838001178555620001f1565b82800160010185558215620001f1579182015b82811115620001f1578251825591602001919060010190620001d4565b50620001ff92915062000203565b5090565b6200022091905b80821115620001ff57600081556001016200020a565b90565b61278b80620002336000396000f3006060604052600436106102245763ffffffff7c0100000000000000000000000000000000000000000000000000000000600035041663072ea61c8114610229578063114765991461024e5780631faf969b1461027557806328d576d71461028857806329cc545e146102b45780632d830cd5146102f05780632f54bf6e146103085780632fc1f190146103345780633b249810146103475780633c7bb9131461035a5780633da1bba114610386578063447411f31461039c5780634644c51b146103af57806347535d7b146103db57806348f73095146103ee5780634a79d50c1461040157806352c01fab1461048b5780635ace2914146104b75780635c11a3e4146105085780636ec02be91461051b5780636fe564201461052e57806372910be0146105415780637af52ade14610592578063893d20e8146105a557806389f3beb6146105b85780638a19c8bc146105cb5780638c1fc0bb1461060c5780638c65c81f146106385780638da5cb5b1461064e578063a68e8a8614610661578063a968c4b914610674578063aa53d504146106a6578063ab88ef68146106b9578063c1a28b38146106cc578063c39643721461071d578063c556123614610736578063dbe55e5614610749578063e139a20c1461075c578063e586a4f0146107c2578063e70347bb146107d5578063eb770d0c146107e8578063ee5ba56c146107fe578063ef430aa614610934578063f1653f6e14610947578063f2fde38b1461095a575b600080fd5b341561023457600080fd5b61023c610986565b60405190815260200160405180910390f35b341561025957600080fd5b61026161098c565b604051901515815260200160405180910390f35b341561028057600080fd5b61023c610995565b341561029357600080fd5b61026173ffffffffffffffffffffffffffffffffffffffff6004351661099b565b34156102bf57600080fd5b6102c7610c42565b60405173ffffffffffffffffffffffffffffffffffffffff909116815260200160405180910390f35b34156102fb57600080fd5b610306600435610c5e565b005b341561031357600080fd5b61026173ffffffffffffffffffffffffffffffffffffffff60043516610cc1565b341561033f57600080fd5b6102c7610ce2565b341561035257600080fd5b61023c610cff565b341561036557600080fd5b61030673ffffffffffffffffffffffffffffffffffffffff60043516610d05565b341561039157600080fd5b6102c7600435610f83565b34156103a757600080fd5b61023c611369565b34156103ba57600080fd5b61030673ffffffffffffffffffffffffffffffffffffffff6004351661136f565b34156103e657600080fd5b6102616113c9565b34156103f957600080fd5b61023c6113d2565b341561040c57600080fd5b6104146113d8565b60405160208082528190810183818151815260200191508051906020019080838360005b83811015610450578082015183820152602001610438565b50505050905090810190601f16801561047d5780820380516001836020036101000a031916815260200191505b509250505060405180910390f35b341561049657600080fd5b61026173ffffffffffffffffffffffffffffffffffffffff60043516611476565b34156104c257600080fd5b61030660046024813581810190830135806020601f820181900481020160405190810160405281815292919060208401838380828437509496506114a195505050505050565b341561051357600080fd5b6104146114e0565b341561052657600080fd5b61023c611588565b341561053957600080fd5b6102c761158e565b341561054c57600080fd5b61030660046024813581810190830135806020601f820181900481020160405190810160405281815292919060208401838380828437509496506115aa95505050505050565b341561059d57600080fd5b6102616115e5565b34156105b057600080fd5b6102c76116f6565b34156105c357600080fd5b61023c611712565b34156105d657600080fd5b6105de611718565b60405191825273ffffffffffffffffffffffffffffffffffffffff1660208201526040908101905180910390f35b341561061757600080fd5b61026173ffffffffffffffffffffffffffffffffffffffff6004351661175b565b341561064357600080fd5b6102c7600435611770565b341561065957600080fd5b6102c76117a5565b341561066c57600080fd5b6102616117c1565b341561067f57600080fd5b61026173ffffffffffffffffffffffffffffffffffffffff600435811690602435166117ee565b34156106b157600080fd5b61023c611935565b34156106c457600080fd5b61023c61193b565b34156106d757600080fd5b61030660046024813581810190830135806020601f8201819004810201604051908101604052818152929190602084018383808284375094965061194195505050505050565b341561072857600080fd5b610306600435602435611969565b341561074157600080fd5b610261611a96565b341561075457600080fd5b6102c7611b47565b341561076757600080fd5b61076f611b63565b60405160208082528190810183818151815260200191508051906020019060200280838360005b838110156107ae578082015183820152602001610796565b505050509050019250505060405180910390f35b34156107cd57600080fd5b61023c611c1f565b34156107e057600080fd5b610414611c25565b34156107f357600080fd5b610306600435611c90565b341561080957600080fd5b6102c760046024813581810190830135806020601f8201819004810201604051908101604052818152929190602084018383808284378201915050505050509190803573ffffffffffffffffffffffffffffffffffffffff1690602001909190803590602001908201803590602001908080601f0160208091040260200160405190810160405281815292919060208401838380828437820191505050505050919080359060200190820180359060200190808060200260200160405190810160405280939291908181526020018383602002808284378201915050505050509190803590602001908201803590602001908080602002602001604051908101604052809392919081815260200183836020028082843750949650505050913515159150611cbd9050565b341561093f57600080fd5b61041461238e565b341561095257600080fd5b61023c6123f9565b341561096557600080fd5b61030673ffffffffffffffffffffffffffffffffffffffff600435166123ff565b60115481565b600e5460ff1681565b600d5481565b600154600090819081903373ffffffffffffffffffffffffffffffffffffffff9081169116146109ca57600080fd5b6109d26113c9565b15156109dd57600080fd5b73ffffffffffffffffffffffffffffffffffffffff841660009081526015602052604090205460ff16151560011415610a195760009250610c3b565b60025460115473ffffffffffffffffffffffffffffffffffffffff90911692508263dd62ed3e86306000604051602001526040517c010000000000000000000000000000000000000000000000000000000063ffffffff851602815273ffffffffffffffffffffffffffffffffffffffff928316600482015291166024820152604401602060405180830381600087803b1515610ab557600080fd5b6102c65a03f11515610ac657600080fd5b5050506040518051905010151515610add57600080fd5b8173ffffffffffffffffffffffffffffffffffffffff166323b872dd85306011546000604051602001526040517c010000000000000000000000000000000000000000000000000000000063ffffffff861602815273ffffffffffffffffffffffffffffffffffffffff93841660048201529190921660248201526044810191909152606401602060405180830381600087803b1515610b7c57600080fd5b6102c65a03f11515610b8d57600080fd5b50505060405180519150508015610c375773ffffffffffffffffffffffffffffffffffffffff84166000908152601560205260409020805460ff191660019081178255601154918101919091556016805490918101610bec8382612690565b50600091825260209091200180547fffffffffffffffffffffffff00000000000000000000000000000000000000001673ffffffffffffffffffffffffffffffffffffffff86161790555b8092505b5050919050565b60025473ffffffffffffffffffffffffffffffffffffffff1681565b6001543373ffffffffffffffffffffffffffffffffffffffff90811691161480610ca357506000543373ffffffffffffffffffffffffffffffffffffffff9081169116145b1515610cae57600080fd5b6009548111610cbc57600080fd5b600d55565b60005473ffffffffffffffffffffffffffffffffffffffff91821691161490565b60015473ffffffffffffffffffffffffffffffffffffffff165b90565b600b5481565b600980546000918291829182916000198101908110610d2057fe5b60009182526020909120015473ffffffffffffffffffffffffffffffffffffffff16935083630b299208866040517c010000000000000000000000000000000000000000000000000000000063ffffffff841602815273ffffffffffffffffffffffffffffffffffffffff9091166004820152602401600060405180830381600087803b1515610daf57600080fd5b6102c65a03f11515610dc057600080fd5b5050507f7a4f6edbca9ed97194ce723e574776da48cb8afcff0d96fb90a4ee76ffef4e5a8560405173ffffffffffffffffffffffffffffffffffffffff909116815260200160405180910390a1600d546009541415610f7c57610e216117c1565b1515610e2c57600080fd5b600e805460ff1916905560015473ffffffffffffffffffffffffffffffffffffffff9081169350841663f49bff7b6000604051602001526040518163ffffffff167c0100000000000000000000000000000000000000000000000000000000028152600401602060405180830381600087803b1515610eaa57600080fd5b6102c65a03f11515610ebb57600080fd5b505050604051805160095490935091505073ffffffffffffffffffffffffffffffffffffffff83166350912da1308388866040517c010000000000000000000000000000000000000000000000000000000063ffffffff871602815273ffffffffffffffffffffffffffffffffffffffff94851660048201526024810193909352921660448201526064810191909152608401600060405180830381600087803b1515610f6757600080fd5b6102c65a03f11515610f7857600080fd5b5050505b5050505050565b600354600254600d5460095460009373ffffffffffffffffffffffffffffffffffffffff90811693169184918291829160010114156111425760105460015490925073ffffffffffffffffffffffffffffffffffffffff80871691637f12d52a91163033866000604051602001526040517c010000000000000000000000000000000000000000000000000000000063ffffffff871602815273ffffffffffffffffffffffffffffffffffffffff94851660048201529284166024840152921660448201526064810191909152608401602060405180830381600087803b151561106c57600080fd5b6102c65a03f1151561107d57600080fd5b50505060405180519050925060006010819055508373ffffffffffffffffffffffffffffffffffffffff1663a9059cbb84846000604051602001526040517c010000000000000000000000000000000000000000000000000000000063ffffffff851602815273ffffffffffffffffffffffffffffffffffffffff90921660048301526024820152604401602060405180830381600087803b151561112157600080fd5b6102c65a03f1151561113257600080fd5b50505060405180519050506112cf565b601054611155908863ffffffff61249016565b60015490915073ffffffffffffffffffffffffffffffffffffffff80871691637f12d52a911630338b6000604051602001526040517c010000000000000000000000000000000000000000000000000000000063ffffffff871602815273ffffffffffffffffffffffffffffffffffffffff94851660048201529284166024840152921660448201526064810191909152608401602060405180830381600087803b151561120257600080fd5b6102c65a03f1151561121357600080fd5b5050506040518051601083905593505073ffffffffffffffffffffffffffffffffffffffff841663a9059cbb84896000604051602001526040517c010000000000000000000000000000000000000000000000000000000063ffffffff851602815273ffffffffffffffffffffffffffffffffffffffff90921660048301526024820152604401602060405180830381600087803b15156112b357600080fd5b6102c65a03f115156112c457600080fd5b505050604051805150505b73ffffffffffffffffffffffffffffffffffffffff83166000908152600a60205260409020805460ff1916600190811790915560098054909181016113148382612690565b50600091825260209091200180547fffffffffffffffffffffffff00000000000000000000000000000000000000001673ffffffffffffffffffffffffffffffffffffffff8516179055509095945050505050565b60085481565b6009547f5fbb3d346317d5ecdb86412d4c69c7503ff4dbed1eccd4cb6290453ea0b1a32290600019018260405191825273ffffffffffffffffffffffffffffffffffffffff1660208201526040908101905180910390a150565b600e5460ff1690565b600c5481565b60048054600181600116156101000203166002900480601f01602080910402602001604051908101604052809291908181526020018280546001816001161561010002031660029004801561146e5780601f106114435761010080835404028352916020019161146e565b820191906000526020600020905b81548152906001019060200180831161145157829003601f168201915b505050505081565b73ffffffffffffffffffffffffffffffffffffffff1660009081526015602052604090205460ff1690565b6000543373ffffffffffffffffffffffffffffffffffffffff9081169116146114c957600080fd5b60058180516114dc9291602001906126b9565b5050565b6114e8612733565b60058054600181600116156101000203166002900480601f01602080910402602001604051908101604052809291908181526020018280546001816001161561010002031660029004801561157e5780601f106115535761010080835404028352916020019161157e565b820191906000526020600020905b81548152906001019060200180831161156157829003601f168201915b5050505050905090565b60125490565b60035473ffffffffffffffffffffffffffffffffffffffff1681565b6000543373ffffffffffffffffffffffffffffffffffffffff9081169116146115d257600080fd5b60048180516114dc9291602001906126b9565b60025473ffffffffffffffffffffffffffffffffffffffff3381811660009081526015602052604080822060010154919493909316928492849263a9059cbb92859051602001526040517c010000000000000000000000000000000000000000000000000000000063ffffffff851602815273ffffffffffffffffffffffffffffffffffffffff90921660048301526024820152604401602060405180830381600087803b151561169557600080fd5b6102c65a03f115156116a657600080fd5b505050604051805191505080156116ec5773ffffffffffffffffffffffffffffffffffffffff3316600090815260156020526040812060019081019190915592506116f1565b600092505b505090565b60005473ffffffffffffffffffffffffffffffffffffffff1690565b60165490565b60098054600091829190600019820182811061173057fe5b60009182526020909120015490925073ffffffffffffffffffffffffffffffffffffffff1690509091565b600a6020526000908152604090205460ff1681565b600980548290811061177e57fe5b60009182526020909120015473ffffffffffffffffffffffffffffffffffffffff16905081565b60005473ffffffffffffffffffffffffffffffffffffffff1681565b6000600c5442101580156117db5750600b54600c54014211155b80156117e95750600e5460ff165b905090565b6001546000903373ffffffffffffffffffffffffffffffffffffffff90811691161461181957600080fd5b73ffffffffffffffffffffffffffffffffffffffff80831660009081526014602090815260408083209387168352929052205460ff161561192b5760125461186890600163ffffffff61249016565b60125573ffffffffffffffffffffffffffffffffffffffff808316600090815260136020908152604080832060148352818420948816845293909152902060010154815481106118b457fe5b6000918252602080832090910180547fffffffffffffffffffffffff000000000000000000000000000000000000000016905573ffffffffffffffffffffffffffffffffffffffff8481168352601482526040808420918716845291528120805460ff19168155600190810191909155905061192f565b5060005b92915050565b600f5481565b60105481565b6000543373ffffffffffffffffffffffffffffffffffffffff90811691161461022457600080fd5b6009805460009190600019810190811061197f57fe5b600091825260209091200154600e5473ffffffffffffffffffffffffffffffffffffffff909116915060ff1615156119b9576119b96124a2565b600d5460095414156119d157428301600c55600b8290555b8073ffffffffffffffffffffffffffffffffffffffff16635a7d5f5084846040517c010000000000000000000000000000000000000000000000000000000063ffffffff851602815260048101929092526024820152604401600060405180830381600087803b1515611a4357600080fd5b6102c65a03f11515611a5457600080fd5b50506009547f33a701182892fd888ed152ca2ac23771a32e814469b7cd255965471e1af3a65991506000190160405190815260200160405180910390a1505050565b6009805460009182916000198101908110611aad57fe5b600091825260208220015473ffffffffffffffffffffffffffffffffffffffff16915081906347535d7b90604051602001526040518163ffffffff167c0100000000000000000000000000000000000000000000000000000000028152600401602060405180830381600087803b1515611b2657600080fd5b6102c65a03f11515611b3757600080fd5b50505060405180519250505b5090565b60015473ffffffffffffffffffffffffffffffffffffffff1681565b611b6b612733565b611b73612733565b601360003373ffffffffffffffffffffffffffffffffffffffff1673ffffffffffffffffffffffffffffffffffffffff168152602001908152602001600020805480602002602001604051908101604052809291908181526020018280548015611c1357602002820191906000526020600020905b815473ffffffffffffffffffffffffffffffffffffffff168152600190910190602001808311611be8575b50939695505050505050565b60115490565b60058054600181600116156101000203166002900480601f01602080910402602001604051908101604052809291908181526020018280546001816001161561010002031660029004801561146e5780601f106114435761010080835404028352916020019161146e565b6000543373ffffffffffffffffffffffffffffffffffffffff908116911614611cb857600080fd5b601155565b73ffffffffffffffffffffffffffffffffffffffff33166000908152601560205260408120548190819060ff16801515611cf657600080fd5b600154339073ffffffffffffffffffffffffffffffffffffffff168063532311c4836000604051602001526040517c010000000000000000000000000000000000000000000000000000000063ffffffff841602815273ffffffffffffffffffffffffffffffffffffffff9091166004820152602401602060405180830381600087803b1515611d8557600080fd5b6102c65a03f11515611d9657600080fd5b505050604051805190501515611dab57600080fd5b611db36113c9565b1515611dbe57600080fd5b60015473ffffffffffffffffffffffffffffffffffffffff16636a44e43d8c6000604051602001526040517c010000000000000000000000000000000000000000000000000000000063ffffffff841602815273ffffffffffffffffffffffffffffffffffffffff9091166004820152602401602060405180830381600087803b1515611e4a57600080fd5b6102c65a03f11515611e5b57600080fd5b505050604051805195505073ffffffffffffffffffffffffffffffffffffffff85161515611e8857600080fd5b600980546000198101908110611e9a57fe5b906000526020600020900160009054906101000a900473ffffffffffffffffffffffffffffffffffffffff1673ffffffffffffffffffffffffffffffffffffffff1663f3eda8e88d8d888e8d8f8e6000604051602001526040517c010000000000000000000000000000000000000000000000000000000063ffffffff8a1602815273ffffffffffffffffffffffffffffffffffffffff80881660248301528616604482015281151560c482015260e0600482019081529081906064810190608481019060a481019060e4018c818151815260200191508051906020019080838360005b83811015611f96578082015183820152602001611f7e565b50505050905090810190601f168015611fc35780820380516001836020036101000a031916815260200191505b50858103845289818151815260200191508051906020019080838360005b83811015611ff9578082015183820152602001611fe1565b50505050905090810190601f1680156120265780820380516001836020036101000a031916815260200191505b50858103835288818151815260200191508051906020019060200280838360005b8381101561205f578082015183820152602001612047565b50505050905001858103825287818151815260200191508051906020019060200280838360005b8381101561209e578082015183820152602001612086565b505050509050019b505050505050505050505050602060405180830381600087803b15156120cb57600080fd5b6102c65a03f115156120dc57600080fd5b505050604051805160015490955073ffffffffffffffffffffffffffffffffffffffff169050638c593a8c858a6000604051602001526040518363ffffffff167c0100000000000000000000000000000000000000000000000000000000028152600401808373ffffffffffffffffffffffffffffffffffffffff1673ffffffffffffffffffffffffffffffffffffffff16815260200180602001828103825283818151815260200191508051906020019060200280838360005b838110156121af578082015183820152602001612197565b505050509050019350505050602060405180830381600087803b15156121d457600080fd5b6102c65a03f115156121e557600080fd5b5050506040518051505060125461220390600163ffffffff61267a16565b6012556040805190810160409081526001825273ffffffffffffffffffffffffffffffffffffffff3381166000818152601360209081528482205481870152918152601482528381209289168152919052208151815460ff1916901515178155602082015160019182015573ffffffffffffffffffffffffffffffffffffffff3316600090815260136020526040902080549092509081016122a58382612690565b50600091825260209091200180547fffffffffffffffffffffffff00000000000000000000000000000000000000001673ffffffffffffffffffffffffffffffffffffffff868116919091179091556001541663ab9583d933866040517c010000000000000000000000000000000000000000000000000000000063ffffffff851602815273ffffffffffffffffffffffffffffffffffffffff928316600482015291166024820152604401600060405180830381600087803b151561236a57600080fd5b6102c65a03f1151561237b57600080fd5b50949d9c50505050505050505050505050565b60068054600181600116156101000203166002900480601f01602080910402602001604051908101604052809291908181526020018280546001816001161561010002031660029004801561146e5780601f106114435761010080835404028352916020019161146e565b60075481565b6000543373ffffffffffffffffffffffffffffffffffffffff90811691161461242757600080fd5b73ffffffffffffffffffffffffffffffffffffffff8116151561244957600080fd5b600080547fffffffffffffffffffffffff00000000000000000000000000000000000000001673ffffffffffffffffffffffffffffffffffffffff92909216919091179055565b60008282111561249c57fe5b50900390565b600e805460ff1916600190811790915554600054600f5460115473ffffffffffffffffffffffffffffffffffffffff938416938493635490904b939116913091600491600591906040517c010000000000000000000000000000000000000000000000000000000063ffffffff891602815273ffffffffffffffffffffffffffffffffffffffff8088166004830190815290871660248301526084820184905260a4820183905260c06044830190815286546002600019610100600184161502019091160460c4840181905291929091606482019160e40190889080156125ca5780601f1061259f576101008083540402835291602001916125ca565b820191906000526020600020905b8154815290600101906020018083116125ad57829003601f168201915b505083810382528654600260001961010060018416150201909116048082526020909101908790801561263e5780601f106126135761010080835404028352916020019161263e565b820191906000526020600020905b81548152906001019060200180831161262157829003601f168201915b505098505050505050505050600060405180830381600087803b151561266357600080fd5b6102c65a03f1151561267457600080fd5b50505050565b60008282018381101561268957fe5b9392505050565b8154818355818115116126b4576000838152602090206126b4918101908301612745565b505050565b828054600181600116156101000203166002900490600052602060002090601f016020900481019282601f106126fa57805160ff1916838001178555612727565b82800160010185558215612727579182015b8281111561272757825182559160200191906001019061270c565b50611b43929150612745565b60206040519081016040526000815290565b610cfc91905b80821115611b43576000815560010161274b5600a165627a7a723058201a913addeccbf56f0af42628ad1bccd71bd0a3fc5a59deb5dd16eeed6803eb2b0029a165627a7a72305820385f571093fa05dd30144f0b8acdc31659ab1e817123c31eef86c0b5511901f00029",
  "source": "pragma solidity ^0.4.18;\n\nimport '../MatryxTournament.sol';\nimport '../Ownable.sol';\n\ncontract MatryxTournamentFactory is Ownable {\n\taddress public matryxTokenAddress;\n\taddress public platformAddress;\n\taddress public matryxRoundFactoryAddress;\n\n\tfunction MatryxTournamentFactory(address _matryxTokenAddress, address _matryxRoundFactoryAddress) public {\n\t\tmatryxTokenAddress = _matryxTokenAddress;\n\t\tmatryxRoundFactoryAddress = _matryxRoundFactoryAddress;\n\t}\n\n\tfunction createTournament(address _owner, string _category, string _tournamentTitle, bytes _externalAddress, uint256 _BountyMTX, uint256 _entryFee) public returns (address _tournamentAddress) {\n\t\tMatryxTournament newTournament = new MatryxTournament(platformAddress, matryxTokenAddress, matryxRoundFactoryAddress, _owner, _category, _tournamentTitle, _externalAddress, _BountyMTX, _entryFee);\n\t\treturn newTournament;\n\t}\n\n\tfunction setPlatform(address _platformAddress) public onlyOwner\n\t{\n\t\tplatformAddress = _platformAddress;\n\t}\n}",
  "sourcePath": "/Users/maxhoward/Desktop/Ethereum/Development/Matryx AWS/Projects/matryx-alpha-source/contracts/factories/MatryxTournamentFactory.sol",
  "compiler": {
    "name": "solc",
    "version": "0.4.19+commit.c4cbbb05.Emscripten.clang"
  },
  "schemaVersion": "2.0.0",
  "updatedAt": "2018-03-30T22:31:31.840Z"
}