{
  "contractName": "MatryxTournament",
  "abi": [
    {
      "constant": true,
      "inputs": [],
      "name": "matryxTokenAddress",
      "outputs": [
        {
          "name": "",
          "type": "address"
        }
      ],
      "payable": false,
      "stateMutability": "view",
      "type": "function"
    },
    {
      "constant": true,
      "inputs": [
        {
          "name": "_sender",
          "type": "address"
        }
      ],
      "name": "isOwner",
      "outputs": [
        {
          "name": "_isOwner",
          "type": "bool"
        }
      ],
      "payable": false,
      "stateMutability": "view",
      "type": "function"
    },
    {
      "constant": true,
      "inputs": [],
      "name": "tournamentOpenedTime",
      "outputs": [
        {
          "name": "",
          "type": "uint256"
        }
      ],
      "payable": false,
      "stateMutability": "view",
      "type": "function"
    },
    {
      "constant": true,
      "inputs": [],
      "name": "matryxRoundFactoryAddress",
      "outputs": [
        {
          "name": "",
          "type": "address"
        }
      ],
      "payable": false,
      "stateMutability": "view",
      "type": "function"
    },
    {
      "constant": true,
      "inputs": [],
      "name": "owner",
      "outputs": [
        {
          "name": "",
          "type": "address"
        }
      ],
      "payable": false,
      "stateMutability": "view",
      "type": "function"
    },
    {
      "constant": true,
      "inputs": [],
      "name": "platformAddress",
      "outputs": [
        {
          "name": "",
          "type": "address"
        }
      ],
      "payable": false,
      "stateMutability": "view",
      "type": "function"
    },
    {
      "constant": true,
      "inputs": [],
      "name": "timeCreated",
      "outputs": [
        {
          "name": "",
          "type": "uint256"
        }
      ],
      "payable": false,
      "stateMutability": "view",
      "type": "function"
    },
    {
      "constant": false,
      "inputs": [
        {
          "name": "newOwner",
          "type": "address"
        }
      ],
      "name": "transferOwnership",
      "outputs": [],
      "payable": false,
      "stateMutability": "nonpayable",
      "type": "function"
    },
    {
      "inputs": [
        {
          "name": "_category",
          "type": "string"
        },
        {
          "components": [
            {
              "name": "category",
              "type": "string"
            },
            {
              "name": "title_1",
              "type": "bytes32"
            },
            {
              "name": "title_2",
              "type": "bytes32"
            },
            {
              "name": "title_3",
              "type": "bytes32"
            },
            {
              "name": "descriptionHash_1",
              "type": "bytes32"
            },
            {
              "name": "descriptionHash_2",
              "type": "bytes32"
            },
            {
              "name": "fileHash_1",
              "type": "bytes32"
            },
            {
              "name": "fileHash_2",
              "type": "bytes32"
            },
            {
              "name": "bounty",
              "type": "uint256"
            },
            {
              "name": "entryFee",
              "type": "uint256"
            }
          ],
          "name": "tournamentData",
          "type": "tuple"
        },
        {
          "components": [
            {
              "name": "start",
              "type": "uint256"
            },
            {
              "name": "end",
              "type": "uint256"
            },
            {
              "name": "reviewPeriodDuration",
              "type": "uint256"
            },
            {
              "name": "bounty",
              "type": "uint256"
            }
          ],
          "name": "roundData",
          "type": "tuple"
        },
        {
          "name": "_platformAddress",
          "type": "address"
        },
        {
          "name": "_matryxTokenAddress",
          "type": "address"
        },
        {
          "name": "_matryxRoundFactoryAddress",
          "type": "address"
        },
        {
          "name": "_owner",
          "type": "address"
        }
      ],
      "payable": false,
      "stateMutability": "nonpayable",
      "type": "constructor"
    },
    {
      "anonymous": false,
      "inputs": [
        {
          "indexed": false,
          "name": "_startTime",
          "type": "uint256"
        },
        {
          "indexed": false,
          "name": "_endTime",
          "type": "uint256"
        },
        {
          "indexed": false,
          "name": "_reviewPeriodDuration",
          "type": "uint256"
        },
        {
          "indexed": false,
          "name": "_roundAddress",
          "type": "address"
        },
        {
          "indexed": false,
          "name": "_roundNumber",
          "type": "uint256"
        }
      ],
      "name": "NewRound",
      "type": "event"
    },
    {
      "anonymous": false,
      "inputs": [
        {
          "indexed": false,
          "name": "_roundIndex",
          "type": "uint256"
        },
        {
          "indexed": false,
          "name": "_submissionAddress",
          "type": "address"
        }
      ],
      "name": "SubmissionCreated",
      "type": "event"
    },
    {
      "anonymous": false,
      "inputs": [
        {
          "indexed": false,
          "name": "_submissionAddresses",
          "type": "address[]"
        }
      ],
      "name": "RoundWinnersChosen",
      "type": "event"
    },
    {
      "constant": false,
      "inputs": [
        {
          "name": "_submissionAddress",
          "type": "address"
        }
      ],
      "name": "invokeSubmissionCreatedEvent",
      "outputs": [],
      "payable": false,
      "stateMutability": "nonpayable",
      "type": "function"
    },
    {
      "constant": false,
      "inputs": [
        {
          "name": "_submissionAddress",
          "type": "address"
        },
        {
          "name": "_author",
          "type": "address"
        }
      ],
      "name": "removeSubmission",
      "outputs": [
        {
          "name": "",
          "type": "bool"
        }
      ],
      "payable": false,
      "stateMutability": "nonpayable",
      "type": "function"
    },
    {
      "constant": true,
      "inputs": [
        {
          "name": "_sender",
          "type": "address"
        }
      ],
      "name": "isEntrant",
      "outputs": [
        {
          "name": "",
          "type": "bool"
        }
      ],
      "payable": false,
      "stateMutability": "view",
      "type": "function"
    },
    {
      "constant": true,
      "inputs": [],
      "name": "getState",
      "outputs": [
        {
          "name": "",
          "type": "uint256"
        }
      ],
      "payable": false,
      "stateMutability": "view",
      "type": "function"
    },
    {
      "constant": true,
      "inputs": [],
      "name": "getPlatform",
      "outputs": [
        {
          "name": "_platformAddress",
          "type": "address"
        }
      ],
      "payable": false,
      "stateMutability": "view",
      "type": "function"
    },
    {
      "constant": true,
      "inputs": [],
      "name": "getData",
      "outputs": [
        {
          "components": [
            {
              "name": "category",
              "type": "string"
            },
            {
              "name": "title_1",
              "type": "bytes32"
            },
            {
              "name": "title_2",
              "type": "bytes32"
            },
            {
              "name": "title_3",
              "type": "bytes32"
            },
            {
              "name": "descriptionHash_1",
              "type": "bytes32"
            },
            {
              "name": "descriptionHash_2",
              "type": "bytes32"
            },
            {
              "name": "fileHash_1",
              "type": "bytes32"
            },
            {
              "name": "fileHash_2",
              "type": "bytes32"
            },
            {
              "name": "bounty",
              "type": "uint256"
            },
            {
              "name": "entryFee",
              "type": "uint256"
            }
          ],
          "name": "_data",
          "type": "tuple"
        }
      ],
      "payable": false,
      "stateMutability": "view",
      "type": "function"
    },
    {
      "constant": true,
      "inputs": [
        {
          "name": "_roundAddress",
          "type": "address"
        }
      ],
      "name": "isRound",
      "outputs": [
        {
          "name": "_isRound",
          "type": "bool"
        }
      ],
      "payable": false,
      "stateMutability": "view",
      "type": "function"
    },
    {
      "constant": true,
      "inputs": [],
      "name": "getRounds",
      "outputs": [
        {
          "name": "_rounds",
          "type": "address[]"
        }
      ],
      "payable": false,
      "stateMutability": "view",
      "type": "function"
    },
    {
      "constant": true,
      "inputs": [],
      "name": "getTitle",
      "outputs": [
        {
          "name": "_title",
          "type": "bytes32[3]"
        }
      ],
      "payable": false,
      "stateMutability": "view",
      "type": "function"
    },
    {
      "constant": true,
      "inputs": [],
      "name": "getCategory",
      "outputs": [
        {
          "name": "_category",
          "type": "string"
        }
      ],
      "payable": false,
      "stateMutability": "view",
      "type": "function"
    },
    {
      "constant": true,
      "inputs": [],
      "name": "getOwner",
      "outputs": [
        {
          "name": "_owner",
          "type": "address"
        }
      ],
      "payable": false,
      "stateMutability": "view",
      "type": "function"
    },
    {
      "constant": true,
      "inputs": [],
      "name": "getDescriptionHash",
      "outputs": [
        {
          "name": "_descriptionHash",
          "type": "bytes32[2]"
        }
      ],
      "payable": false,
      "stateMutability": "view",
      "type": "function"
    },
    {
      "constant": true,
      "inputs": [],
      "name": "getFileHash",
      "outputs": [
        {
          "name": "_fileHash",
          "type": "bytes32[2]"
        }
      ],
      "payable": false,
      "stateMutability": "view",
      "type": "function"
    },
    {
      "constant": true,
      "inputs": [],
      "name": "currentRound",
      "outputs": [
        {
          "name": "_currentRound",
          "type": "uint256"
        },
        {
          "name": "_currentRoundAddress",
          "type": "address"
        }
      ],
      "payable": false,
      "stateMutability": "view",
      "type": "function"
    },
    {
      "constant": true,
      "inputs": [],
      "name": "getBounty",
      "outputs": [
        {
          "name": "_tournamentBounty",
          "type": "uint256"
        }
      ],
      "payable": false,
      "stateMutability": "view",
      "type": "function"
    },
    {
      "constant": true,
      "inputs": [],
      "name": "getBalance",
      "outputs": [
        {
          "name": "_tournamentBalance",
          "type": "uint256"
        }
      ],
      "payable": false,
      "stateMutability": "view",
      "type": "function"
    },
    {
      "constant": true,
      "inputs": [],
      "name": "mySubmissions",
      "outputs": [
        {
          "name": "",
          "type": "address[]"
        }
      ],
      "payable": false,
      "stateMutability": "view",
      "type": "function"
    },
    {
      "constant": true,
      "inputs": [],
      "name": "submissionCount",
      "outputs": [
        {
          "name": "_submissionCount",
          "type": "uint256"
        }
      ],
      "payable": false,
      "stateMutability": "view",
      "type": "function"
    },
    {
      "constant": true,
      "inputs": [],
      "name": "entrantCount",
      "outputs": [
        {
          "name": "_entrantCount",
          "type": "uint256"
        }
      ],
      "payable": false,
      "stateMutability": "view",
      "type": "function"
    },
    {
      "constant": false,
      "inputs": [
        {
          "components": [
            {
              "name": "title_1",
              "type": "bytes32"
            },
            {
              "name": "title_2",
              "type": "bytes32"
            },
            {
              "name": "title_3",
              "type": "bytes32"
            },
            {
              "name": "descriptionHash_1",
              "type": "bytes32"
            },
            {
              "name": "descriptionHash_2",
              "type": "bytes32"
            },
            {
              "name": "fileHash_1",
              "type": "bytes32"
            },
            {
              "name": "fileHash_2",
              "type": "bytes32"
            },
            {
              "name": "entryFee",
              "type": "uint256"
            },
            {
              "name": "entryFeeChanged",
              "type": "bool"
            }
          ],
          "name": "tournamentData",
          "type": "tuple"
        },
        {
          "name": "_category",
          "type": "string"
        }
      ],
      "name": "update",
      "outputs": [],
      "payable": false,
      "stateMutability": "nonpayable",
      "type": "function"
    },
    {
      "constant": false,
      "inputs": [
        {
          "name": "_submissionAddresses",
          "type": "address[]"
        },
        {
          "name": "_rewardDistribution",
          "type": "uint256[]"
        },
        {
          "components": [
            {
              "name": "start",
              "type": "uint256"
            },
            {
              "name": "end",
              "type": "uint256"
            },
            {
              "name": "reviewPeriodDuration",
              "type": "uint256"
            },
            {
              "name": "bounty",
              "type": "uint256"
            }
          ],
          "name": "_roundData",
          "type": "tuple"
        },
        {
          "name": "_selectWinnerAction",
          "type": "uint256"
        }
      ],
      "name": "selectWinners",
      "outputs": [],
      "payable": false,
      "stateMutability": "nonpayable",
      "type": "function"
    },
    {
      "constant": false,
      "inputs": [
        {
          "components": [
            {
              "name": "start",
              "type": "uint256"
            },
            {
              "name": "end",
              "type": "uint256"
            },
            {
              "name": "reviewPeriodDuration",
              "type": "uint256"
            },
            {
              "name": "bounty",
              "type": "uint256"
            }
          ],
          "name": "_roundData",
          "type": "tuple"
        }
      ],
      "name": "editGhostRound",
      "outputs": [],
      "payable": false,
      "stateMutability": "nonpayable",
      "type": "function"
    },
    {
      "constant": false,
      "inputs": [
        {
          "name": "_mtxAllocation",
          "type": "uint256"
        }
      ],
      "name": "allocateMoreToRound",
      "outputs": [],
      "payable": false,
      "stateMutability": "nonpayable",
      "type": "function"
    },
    {
      "constant": false,
      "inputs": [],
      "name": "jumpToNextRound",
      "outputs": [],
      "payable": false,
      "stateMutability": "nonpayable",
      "type": "function"
    },
    {
      "constant": false,
      "inputs": [],
      "name": "stopTournament",
      "outputs": [],
      "payable": false,
      "stateMutability": "nonpayable",
      "type": "function"
    },
    {
      "constant": false,
      "inputs": [
        {
          "components": [
            {
              "name": "start",
              "type": "uint256"
            },
            {
              "name": "end",
              "type": "uint256"
            },
            {
              "name": "reviewPeriodDuration",
              "type": "uint256"
            },
            {
              "name": "bounty",
              "type": "uint256"
            }
          ],
          "name": "roundData",
          "type": "tuple"
        },
        {
          "name": "_automaticCreation",
          "type": "bool"
        }
      ],
      "name": "createRound",
      "outputs": [
        {
          "name": "_roundAddress",
          "type": "address"
        }
      ],
      "payable": false,
      "stateMutability": "nonpayable",
      "type": "function"
    },
    {
      "constant": false,
      "inputs": [
        {
          "components": [
            {
              "name": "start",
              "type": "uint256"
            },
            {
              "name": "end",
              "type": "uint256"
            },
            {
              "name": "reviewPeriodDuration",
              "type": "uint256"
            },
            {
              "name": "bounty",
              "type": "uint256"
            }
          ],
          "name": "roundData",
          "type": "tuple"
        },
        {
          "name": "_automaticCreation",
          "type": "bool"
        }
      ],
      "name": "createRoundTwo",
      "outputs": [
        {
          "name": "_roundAddress",
          "type": "address"
        }
      ],
      "payable": false,
      "stateMutability": "nonpayable",
      "type": "function"
    },
    {
      "constant": false,
      "inputs": [
        {
          "name": "_roundIndex",
          "type": "uint256"
        },
        {
          "name": "_bountyMTX",
          "type": "uint256"
        }
      ],
      "name": "sendBountyToRound",
      "outputs": [],
      "payable": false,
      "stateMutability": "nonpayable",
      "type": "function"
    },
    {
      "constant": false,
      "inputs": [
        {
          "name": "_entrantAddress",
          "type": "address"
        }
      ],
      "name": "enterUserInTournament",
      "outputs": [
        {
          "name": "_success",
          "type": "bool"
        }
      ],
      "payable": false,
      "stateMutability": "nonpayable",
      "type": "function"
    },
    {
      "constant": true,
      "inputs": [],
      "name": "getEntryFee",
      "outputs": [
        {
          "name": "",
          "type": "uint256"
        }
      ],
      "payable": false,
      "stateMutability": "view",
      "type": "function"
    },
    {
      "constant": false,
      "inputs": [],
      "name": "collectMyEntryFee",
      "outputs": [],
      "payable": false,
      "stateMutability": "nonpayable",
      "type": "function"
    },
    {
      "constant": false,
      "inputs": [
        {
          "name": "_contributors",
          "type": "address[]"
        },
        {
          "name": "_contributorRewardDistribution",
          "type": "uint128[]"
        },
        {
          "name": "_references",
          "type": "address[]"
        },
        {
          "components": [
            {
              "name": "title",
              "type": "string"
            },
            {
              "name": "owner",
              "type": "address"
            },
            {
              "name": "contentHash",
              "type": "bytes"
            },
            {
              "name": "isPublic",
              "type": "bool"
            }
          ],
          "name": "submissionData",
          "type": "tuple"
        }
      ],
      "name": "createSubmission",
      "outputs": [
        {
          "name": "_submissionAddress",
          "type": "address"
        }
      ],
      "payable": false,
      "stateMutability": "nonpayable",
      "type": "function"
    },
    {
      "constant": false,
      "inputs": [],
      "name": "withdrawFromAbandoned",
      "outputs": [],
      "payable": false,
      "stateMutability": "nonpayable",
      "type": "function"
    }
  ],
  "bytecode": "0x60806040523480156200001157600080fd5b506040516200339c3803806200339c8339810180604052620000379190810190620004f1565b6000805433600160a060020a031991821617909155600180548216600160a060020a038781169190911790915560028054831686831617905560038054831685831617905542600f5560048054909216908316179055855180518791600591620000a991839160209091019062000215565b50602082810151600183015560408301516002830155606083015160038301556080830151600483015560a083015160058084019190915560c0840151600684015560e0840151600784015561010084015160088401556101209093015160099092019190915588516200012192918a019062000215565b506200013885600064010000000062000146810204565b505050505050505062000748565b6001546002546003546040517fcfa037dc00000000000000000000000000000000000000000000000000000000815260009373__LibTournamentAdminMethods_____________9363cfa037dc93620001ba93601193600160a060020a039081169381169216908a908a9060040162000651565b60206040518083038186803b158015620001d357600080fd5b505af4158015620001e8573d6000803e3d6000fd5b505050506040513d601f19601f820116820180604052506200020e9190810190620004c8565b9392505050565b828054600181600116156101000203166002900490600052602060002090601f016020900481019282601f106200025857805160ff191683800117855562000288565b8280016001018555821562000288579182015b82811115620002885782518255916020019190600101906200026b565b50620002969291506200029a565b5090565b620002b791905b80821115620002965760008155600101620002a1565b90565b60006200020e825162000708565b60006200020e8251620002b7565b6000601f82018313620002e857600080fd5b8151620002ff620002f982620006e0565b620006b9565b915080825260208301602083018583830111156200031c57600080fd5b6200032983828462000719565b50505092915050565b6000608082840312156200034557600080fd5b620003516080620006b9565b90506000620003618484620002c8565b82525060206200037484848301620002c8565b60208301525060406200038a84828501620002c8565b6040830152506060620003a084828501620002c8565b60608301525092915050565b60006101408284031215620003c057600080fd5b620003cd610140620006b9565b82519091506001604060020a03811115620003e757600080fd5b620003f584828501620002d6565b82525060206200040884848301620002c8565b60208301525060406200041e84828501620002c8565b60408301525060606200043484828501620002c8565b60608301525060806200044a84828501620002c8565b60808301525060a06200046084828501620002c8565b60a08301525060c06200047684828501620002c8565b60c08301525060e06200048c84828501620002c8565b60e083015250610100620004a384828501620002c8565b61010083015250610120620004bb84828501620002c8565b6101208301525092915050565b600060208284031215620004db57600080fd5b6000620004e98484620002ba565b949350505050565b6000806000806000806000610140888a0312156200050e57600080fd5b87516001604060020a038111156200052557600080fd5b620005338a828b01620002d6565b97505060208801516001604060020a038111156200055057600080fd5b6200055e8a828b01620003ac565b9650506040620005718a828b0162000332565b95505060c0620005848a828b01620002ba565b94505060e0620005978a828b01620002ba565b935050610100620005ab8a828b01620002ba565b925050610120620005bf8a828b01620002ba565b91505092959891949750929550565b620005d98162000708565b82525050565b620005d98162000714565b80516080830190620005fd848262000646565b50602082015162000612602085018262000646565b50604082015162000627604085018262000646565b5060608201516200063c606085018262000646565b50505050565b9052565b620005d981620002b7565b610120810162000662828962000642565b620006716020830188620005ce565b620006806040830187620005ce565b6200068f6060830186620005ce565b6200069e6080830185620005ea565b620006ae610100830184620005df565b979650505050505050565b6040518181016001604060020a0381118282101715620006d857600080fd5b604052919050565b60006001604060020a03821115620006f757600080fd5b506020601f91909101601f19160190565b600160a060020a031690565b151590565b60005b83811015620007365781810151838201526020016200071c565b838111156200063c5750506000910152565b612c4480620007586000396000f3006080604052600436106101f85763ffffffff7c0100000000000000000000000000000000000000000000000000000000600035041663072a456081146101fd57806312065fe01461021f57806315dc132e1461024a5780631865c57d1461027757806323721e241461028c578063245edf06146102ac57806328d576d7146102ce57806329cc545e146102fb5780632f54bf6e146103105780632fc1f190146103305780633809eba2146103455780633bc5de3014610365578063447411f31461038757806345df19451461039c5780634644c51b146103b157806352c01fab146103d1578063542fe6c2146103f15780636984d070146104065780636ec02be9146104285780636fe564201461043d57806380258e47146104525780638493f71f14610474578063893d20e81461048957806389f3beb61461049e5780638a19c8bc146104b35780638c1fc0bb146104d65780638da5cb5b146104f6578063934b5fee1461050b5780639baec2071461052b578063a968c4b914610540578063b6cd26db14610560578063c2f897bf14610580578063d3de0a6d14610595578063dbe55e56146105b5578063e139a20c146105ca578063e586a4f0146105df578063ee1729c4146105f4578063f1653f6e14610614578063f2fde38b14610629578063f49bff7b14610649578063ff3c1a8f1461065e575b600080fd5b34801561020957600080fd5b5061021d610218366004612287565b610680565b005b34801561022b57600080fd5b50610234610744565b6040516102419190612aa7565b60405180910390f35b34801561025657600080fd5b5061026a61026536600461208d565b610809565b604051610241919061276a565b34801561028357600080fd5b50610234610b2c565b34801561029857600080fd5b5061021d6102a73660046122f3565b610bd0565b3480156102b857600080fd5b506102c1610cf8565b60405161024191906127a4565b3480156102da57600080fd5b506102ee6102e936600461200f565b610d1e565b60405161024191906127c0565b34801561030757600080fd5b5061026a610e08565b34801561031c57600080fd5b506102ee61032b36600461200f565b610e24565b34801561033c57600080fd5b5061026a610e45565b34801561035157600080fd5b5061026a61036036600461220d565b610e61565b34801561037157600080fd5b5061037a610e90565b6040516102419190612a19565b34801561039357600080fd5b50610234610f99565b3480156103a857600080fd5b5061021d610f9f565b3480156103bd57600080fd5b5061021d6103cc36600461200f565b61103f565b3480156103dd57600080fd5b506102ee6103ec36600461200f565b6110a2565b3480156103fd57600080fd5b5061021d6110cd565b34801561041257600080fd5b5061041b61115a565b6040516102419190612793565b34801561043457600080fd5b506102346111cc565b34801561044957600080fd5b5061026a6111d2565b34801561045e57600080fd5b506104676111ee565b6040516102419190612836565b34801561048057600080fd5b506102c161127b565b34801561049557600080fd5b5061026a61129b565b3480156104aa57600080fd5b506102346112b7565b3480156104bf57600080fd5b506104c86112bd565b604051610241929190612ab5565b3480156104e257600080fd5b506102ee6104f136600461200f565b61136b565b34801561050257600080fd5b5061026a611396565b34801561051757600080fd5b5061021d61052636600461214d565b6113b2565b34801561053757600080fd5b5061021d611486565b34801561054c57600080fd5b506102ee61055b366004612053565b61151c565b34801561056c57600080fd5b5061021d61057b36600461223d565b61167a565b34801561058c57600080fd5b5061021d611743565b3480156105a157600080fd5b5061021d6105b03660046121ef565b6117b8565b3480156105c157600080fd5b5061026a611849565b3480156105d657600080fd5b5061041b611865565b3480156105eb57600080fd5b506102346118e4565b34801561060057600080fd5b5061026a61060f36600461220d565b6118ea565b34801561062057600080fd5b506102346119d7565b34801561063557600080fd5b5061021d61064436600461200f565b6119dd565b34801561065557600080fd5b50610234611a6a565b34801561066a57600080fd5b50610673611adf565b60405161024191906127b2565b60045473ffffffffffffffffffffffffffffffffffffffff1633146106a457600080fd5b6002546040517f5fd45f0b00000000000000000000000000000000000000000000000000000000815273__LibTournamentAdminMethods_____________91635fd45f0b9161071191601191869173ffffffffffffffffffffffffffffffffffffffff16906004016129fe565b60006040518083038186803b15801561072957600080fd5b505af415801561073d573d6000803e3d6000fd5b5050505050565b6013546002546040517f70a0823100000000000000000000000000000000000000000000000000000000815260009261080492909173ffffffffffffffffffffffffffffffffffffffff909116906370a08231906107a690309060040161276a565b602060405180830381600087803b1580156107c057600080fd5b505af11580156107d4573d6000803e3d6000fd5b505050506040513d601f19601f820116820180604052506107f891908101906122a5565b9063ffffffff611b0716565b905090565b336000908152601a602052604081205460ff1680151561082857600080fd5b6001546040517f532311c4000000000000000000000000000000000000000000000000000000008152339173ffffffffffffffffffffffffffffffffffffffff1690819063532311c49061088090859060040161276a565b602060405180830381600087803b15801561089a57600080fd5b505af11580156108ae573d6000803e3d6000fd5b505050506040513d601f19601f820116820180604052506108d291908101906121d1565b15156108dd57600080fd5b60006108e76112bd565b9150600190508173ffffffffffffffffffffffffffffffffffffffff16631865c57d6040518163ffffffff167c0100000000000000000000000000000000000000000000000000000000028152600401602060405180830381600087803b15801561095157600080fd5b505af1158015610965573d6000803e3d6000fd5b505050506040513d601f19601f8201168201806040525061098991908101906122a5565b141561099457600080fd5b600261099e610b2c565b146109a857600080fd5b6017541515610a5957600154600654600754600854600954600a54600d54600e546040517f201afb7600000000000000000000000000000000000000000000000000000000815273ffffffffffffffffffffffffffffffffffffffff9098169763201afb7697610a26979096909590949093909290916004016127ce565b600060405180830381600087803b158015610a4057600080fd5b505af1158015610a54573d6000803e3d6000fd5b505050505b6001546040517f3a9ed3e300000000000000000000000000000000000000000000000000000000815273__LibTournamentEntrantMethods___________91633a9ed3e391610acf9160119160169173ffffffffffffffffffffffffffffffffffffffff16908f908f908f908f90600401612960565b60206040518083038186803b158015610ae757600080fd5b505af4158015610afb573d6000803e3d6000fd5b505050506040513d601f19601f82011682018060405250610b1f9190810190612035565b9998505050505050505050565b6040517f5726b16f00000000000000000000000000000000000000000000000000000000815260009073__LibTournamentStateManagement__________90635726b16f90610b8090601190600401612847565b60206040518083038186803b158015610b9857600080fd5b505af4158015610bac573d6000803e3d6000fd5b505050506040513d601f19601f8201168201806040525061080491908101906122a5565b60015473ffffffffffffffffffffffffffffffffffffffff163314610bf457600080fd5b601454610c07908263ffffffff611b1916565b6014556002546011805473ffffffffffffffffffffffffffffffffffffffff9092169163a9059cbb919085908110610c3b57fe5b6000918252602090912001546040517c010000000000000000000000000000000000000000000000000000000063ffffffff8416028152610c979173ffffffffffffffffffffffffffffffffffffffff16908590600401612778565b602060405180830381600087803b158015610cb157600080fd5b505af1158015610cc5573d6000803e3d6000fd5b505050506040513d601f19601f82011682018060405250610ce991908101906121d1565b1515610cf457600080fd5b5050565b610d00611ba7565b610d08611ba7565b6009548152600a548160015b6020020152905090565b60015460009073ffffffffffffffffffffffffffffffffffffffff163314610d4557600080fd5b6002610d4f610b2c565b14610d5957600080fd5b6040517fa09c5c9900000000000000000000000000000000000000000000000000000000815273__LibTournamentEntrantMethods___________9063a09c5c9990610db2906005906011906016908890600401612a72565b60206040518083038186803b158015610dca57600080fd5b505af4158015610dde573d6000803e3d6000fd5b505050506040513d601f19601f82011682018060405250610e0291908101906121d1565b92915050565b60025473ffffffffffffffffffffffffffffffffffffffff1681565b60005473ffffffffffffffffffffffffffffffffffffffff91821691161490565b60015473ffffffffffffffffffffffffffffffffffffffff1690565b3360009081526012602052604081205460ff161515610e7f57600080fd5b610e898383611b28565b9392505050565b610e98611bc2565b60408051600580546101606020601f600260001961010060018716150201909416939093049283018190040284018101909452610140830181815292939192849290918491840182828015610f2e5780601f10610f0357610100808354040283529160200191610f2e565b820191906000526020600020905b815481529060010190602001808311610f1157829003601f168201915b505050918352505060018201546020820152600282015460408201526003820154606082015260048201546080820152600582015460a0820152600682015460c0820152600782015460e0820152600882015461010082015260099091015461012090910152905090565b60105481565b6002546040517f734e4a1600000000000000000000000000000000000000000000000000000000815273__LibTournamentEntrantMethods___________9163734e4a169161100d9160119160169173ffffffffffffffffffffffffffffffffffffffff1690600401612945565b60006040518083038186803b15801561102557600080fd5b505af4158015611039573d6000803e3d6000fd5b50505050565b3360009081526012602052604090205460ff16151561105d57600080fd5b6011546040517f5fbb3d346317d5ecdb86412d4c69c7503ff4dbed1eccd4cb6290453ea0b1a3229161109791600019909101908490612ab5565b60405180910390a150565b73ffffffffffffffffffffffffffffffffffffffff166000908152601a602052604090205460ff1690565b336000908152601a602052604090205460ff168015156110ec57600080fd5b6002546040517fddc23bd000000000000000000000000000000000000000000000000000000000815273__LibTournamentEntrantMethods___________9163ddc23bd0916107119160119160169173ffffffffffffffffffffffffffffffffffffffff1690600401612945565b606060116000018054806020026020016040519081016040528092919081815260200182805480156111c257602002820191906000526020600020905b815473ffffffffffffffffffffffffffffffffffffffff168152600190910190602001808311611197575b5050505050905090565b60175490565b60035473ffffffffffffffffffffffffffffffffffffffff1681565b60058054604080516020601f60026000196101006001881615020190951694909404938401819004810282018101909252828152606093909290918301828280156111c25780601f1061124f576101008083540402835291602001916111c2565b820191906000526020600020905b81548152906001019060200180831161125d57509395945050505050565b611283611ba7565b61128b611ba7565b600b548152600c54816001610d14565b60045473ffffffffffffffffffffffffffffffffffffffff1690565b601b5490565b60008073__LibTournamentStateManagement__________630386922b60116040518263ffffffff167c01000000000000000000000000000000000000000000000000000000000281526004016113149190612847565b604080518083038186803b15801561132b57600080fd5b505af415801561133f573d6000803e3d6000fd5b505050506040513d601f19601f8201168201806040525061136391908101906122c3565b915091509091565b73ffffffffffffffffffffffffffffffffffffffff1660009081526012602052604090205460ff1690565b60045473ffffffffffffffffffffffffffffffffffffffff1681565b60045473ffffffffffffffffffffffffffffffffffffffff1633146113d657600080fd5b6001546002546040517f5014b85100000000000000000000000000000000000000000000000000000000815273__LibTournamentAdminMethods_____________92635014b851926114509260119273ffffffffffffffffffffffffffffffffffffffff9081169216908a908a908a908a906004016128d9565b60006040518083038186803b15801561146857600080fd5b505af415801561147c573d6000803e3d6000fd5b5050505050505050565b60045473ffffffffffffffffffffffffffffffffffffffff1633146114aa57600080fd5b6001546002546040517fa91d59d600000000000000000000000000000000000000000000000000000000815273__LibTournamentAdminMethods_____________9263a91d59d69261100d9260119273ffffffffffffffffffffffffffffffffffffffff908116921690600401612855565b60015460009073ffffffffffffffffffffffffffffffffffffffff16331461154357600080fd5b73ffffffffffffffffffffffffffffffffffffffff80831660009081526019602090815260408083209387168352929052205460ff16151561158457600080fd5b60175461159890600163ffffffff611b0716565b60175573ffffffffffffffffffffffffffffffffffffffff808316600090815260186020908152604080832060198352818420948816845293909152902060010154815481106115e457fe5b6000918252602080832090910180547fffffffffffffffffffffffff000000000000000000000000000000000000000016905573ffffffffffffffffffffffffffffffffffffffff848116835260198252604080842091871684529152812080547fffffffffffffffffffffffffffffffffffffffffffffffffffffffffffffff00168155600190810191909155905092915050565b60045473ffffffffffffffffffffffffffffffffffffffff16331461169e57600080fd5b6001546040517f45fbeca000000000000000000000000000000000000000000000000000000000815273__LibTournamentAdminMethods_____________916345fbeca09161170f916005918791879173ffffffffffffffffffffffffffffffffffffffff90911690600401612a2a565b60006040518083038186803b15801561172757600080fd5b505af415801561173b573d6000803e3d6000fd5b505050505050565b60045473ffffffffffffffffffffffffffffffffffffffff16331461176757600080fd5b6040517faf41094900000000000000000000000000000000000000000000000000000000815273__LibTournamentAdminMethods_____________9063af4109499061100d90601190600401612847565b60045473ffffffffffffffffffffffffffffffffffffffff1633146117dc57600080fd5b6002546040517f672ec62300000000000000000000000000000000000000000000000000000000815273__LibTournamentAdminMethods_____________9163672ec6239161071191601191869173ffffffffffffffffffffffffffffffffffffffff16906004016129d6565b60015473ffffffffffffffffffffffffffffffffffffffff1681565b3360009081526018602090815260409182902080548351818402810184019094528084526060938493909291908301828280156118d857602002820191906000526020600020905b815473ffffffffffffffffffffffffffffffffffffffff1681526001909101906020018083116118ad575b50939695505050505050565b600e5490565b3360009081526012602052604081205460ff16151561190857600080fd5b6001546002546003546040517fbe9935d900000000000000000000000000000000000000000000000000000000815273__LibTournamentAdminMethods_____________9363be9935d9936119879360119373ffffffffffffffffffffffffffffffffffffffff9384169392831692909116908a908a9060040161287d565b60206040518083038186803b15801561199f57600080fd5b505af41580156119b3573d6000803e3d6000fd5b505050506040513d601f19601f82011682018060405250610e899190810190612035565b600f5481565b60045473ffffffffffffffffffffffffffffffffffffffff163314611a0157600080fd5b73ffffffffffffffffffffffffffffffffffffffff81161515611a2357600080fd5b600080547fffffffffffffffffffffffff00000000000000000000000000000000000000001673ffffffffffffffffffffffffffffffffffffffff92909216919091179055565b6014546013546002546040517f70a08231000000000000000000000000000000000000000000000000000000008152600093610804939092611ad39273ffffffffffffffffffffffffffffffffffffffff909116906370a08231906107a690309060040161276a565b9063ffffffff611b1916565b611ae7611c16565b611aef611c16565b60065481526007546020820152600854816002610d14565b600082821115611b1357fe5b50900390565b600082820183811015610e8957fe5b6001546002546003546040517fcfa037dc00000000000000000000000000000000000000000000000000000000815260009373__LibTournamentAdminMethods_____________9363cfa037dc936119879360119373ffffffffffffffffffffffffffffffffffffffff9081169381169216908a908a9060040161287d565b60408051808201825290600290829080388339509192915050565b6040805161014081018252606080825260006020830181905292820183905281018290526080810182905260a0810182905260c0810182905260e08101829052610100810182905261012081019190915290565b6060604051908101604052806003906020820280388339509192915050565b6000610e898235612b77565b6000610e898251612b77565b6000601f82018313611c5e57600080fd5b8135611c71611c6c82612af7565b612ad0565b91508181835260208401935060208101905083856020840282011115611c9657600080fd5b60005b83811015611cc25781611cac8882611c35565b8452506020928301929190910190600101611c99565b5050505092915050565b6000601f82018313611cdd57600080fd5b8135611ceb611c6c82612af7565b91508181835260208401935060208101905083856020840282011115611d1057600080fd5b60005b83811015611cc25781611d268882611ff7565b8452506020928301929190910190600101611d13565b6000601f82018313611d4d57600080fd5b8135611d5b611c6c82612af7565b91508181835260208401935060208101905083856020840282011115611d8057600080fd5b60005b83811015611cc25781611d968882611dc4565b8452506020928301929190910190600101611d83565b6000610e898235612b90565b6000610e898251612b90565b6000610e898235612b64565b6000601f82018313611de157600080fd5b8135611def611c6c82612b18565b91508082526020830160208301858383011115611e0b57600080fd5b611e16838284612baa565b50505092915050565b600060808284031215611e3157600080fd5b611e3b6080612ad0565b90506000611e498484611dc4565b8252506020611e5a84848301611dc4565b6020830152506040611e6e84828501611dc4565b6040830152506060611e8284828501611dc4565b60608301525092915050565b600060808284031215611ea057600080fd5b611eaa6080612ad0565b9050813567ffffffffffffffff811115611ec357600080fd5b611ecf84828501611dd0565b8252506020611ee084848301611c35565b602083015250604082013567ffffffffffffffff811115611f0057600080fd5b611f0c84828501611dd0565b6040830152506060611e8284828501611dac565b60006101208284031215611f3357600080fd5b611f3e610120612ad0565b90506000611f4c8484611dc4565b8252506020611f5d84848301611dc4565b6020830152506040611f7184828501611dc4565b6040830152506060611f8584828501611dc4565b6060830152506080611f9984828501611dc4565b60808301525060a0611fad84828501611dc4565b60a08301525060c0611fc184828501611dc4565b60c08301525060e0611fd584828501611dc4565b60e083015250610100611fea84828501611dac565b6101008301525092915050565b6000610e898235612b95565b6000610e898251612b64565b60006020828403121561202157600080fd5b600061202d8484611c35565b949350505050565b60006020828403121561204757600080fd5b600061202d8484611c41565b6000806040838503121561206657600080fd5b60006120728585611c35565b925050602061208385828601611c35565b9150509250929050565b600080600080608085870312156120a357600080fd5b843567ffffffffffffffff8111156120ba57600080fd5b6120c687828801611c4d565b945050602085013567ffffffffffffffff8111156120e357600080fd5b6120ef87828801611ccc565b935050604085013567ffffffffffffffff81111561210c57600080fd5b61211887828801611c4d565b925050606085013567ffffffffffffffff81111561213557600080fd5b61214187828801611e8e565b91505092959194509250565b60008060008060e0858703121561216357600080fd5b843567ffffffffffffffff81111561217a57600080fd5b61218687828801611c4d565b945050602085013567ffffffffffffffff8111156121a357600080fd5b6121af87828801611d3c565b93505060406121c087828801611e1f565b92505060c061214187828801611dc4565b6000602082840312156121e357600080fd5b600061202d8484611db8565b60006080828403121561220157600080fd5b600061202d8484611e1f565b60008060a0838503121561222057600080fd5b600061222c8585611e1f565b925050608061208385828601611dac565b600080610140838503121561225157600080fd5b600061225d8585611f20565b92505061012083013567ffffffffffffffff81111561227b57600080fd5b61208385828601611dd0565b60006020828403121561229957600080fd5b600061202d8484611dc4565b6000602082840312156122b757600080fd5b600061202d8484612003565b600080604083850312156122d657600080fd5b60006122e28585612003565b925050602061208385828601611c41565b6000806040838503121561230657600080fd5b60006123128585611dc4565b925050602061208385828601611dc4565b61232c81612b77565b82525050565b600061233d82612b67565b80845260208401935061234f83612b5e565b60005b8281101561237f57612365868351612323565b61236e82612b5e565b602096909601959150600101612352565b5093949350505050565b600061239482612b67565b8084526020840193506123a683612b5e565b60005b8281101561237f576123bc868351612323565b6123c582612b5e565b6020969096019591506001016123a9565b6123df81612b6b565b6123e882612b64565b60005b8281101561073d576123fe8583516124fd565b61240782612b5e565b6020959095019491506001016123eb565b61242181612b71565b61242a82612b64565b60005b8281101561073d576124408583516124fd565b61244982612b5e565b60209590950194915060010161242d565b600061246582612b67565b80845260208401935061247783612b5e565b60005b8281101561237f5761248d868351612761565b61249682612b5e565b60209690960195915060010161247a565b60006124b282612b67565b8084526020840193506124c483612b5e565b60005b8281101561237f576124da8683516124fd565b6124e382612b5e565b6020969096019591506001016124c7565b61232c81612b90565b61232c81612b64565b600061251182612b67565b808452612525816020860160208601612bb6565b61252e81612be2565b9093016020019392505050565b9052565b8051608083019061255084826124fd565b50602082015161256360208501826124fd565b50604082015161257660408501826124fd565b50606082015161103960608501826124fd565b80516080808452600091908401906125a18282612506565b91505060208301516125b66020860182612323565b50604083015184820360408601526125ce8282612506565b91505060608301516125e360608601826124f4565b509392505050565b8051610140808452600091908401906126048282612506565b915050602083015161261960208601826124fd565b50604083015161262c60408601826124fd565b50606083015161263f60608601826124fd565b50608083015161265260808601826124fd565b5060a083015161266560a08601826124fd565b5060c083015161267860c08601826124fd565b5060e083015161268b60e08601826124fd565b506101008301516126a06101008601826124fd565b506101208301516125e36101208601826124fd565b80516101208301906126c784826124fd565b5060208201516126da60208501826124fd565b5060408201516126ed60408501826124fd565b50606082015161270060608501826124fd565b50608082015161271360808501826124fd565b5060a082015161272660a08501826124fd565b5060c082015161273960c08501826124fd565b5060e082015161274c60e08501826124fd565b506101008201516110396101008501826124f4565b61232c81612b95565b60208101610e028284612323565b604081016127868285612323565b610e8960208301846124fd565b60208082528101610e898184612332565b60408101610e0282846123d6565b60608101610e028284612418565b60208101610e0282846124f4565b60e081016127dc828a6124fd565b6127e960208301896124fd565b6127f660408301886124fd565b61280360608301876124fd565b61281060808301866124fd565b61281d60a08301856124fd565b61282a60c08301846124fd565b98975050505050505050565b60208082528101610e898184612506565b60208101610e02828461253b565b60608101612863828661253b565b6128706020830185612323565b61202d6040830184612323565b610120810161288c828961253b565b6128996020830188612323565b6128a66040830187612323565b6128b36060830186612323565b6128c0608083018561253f565b6128ce6101008301846124f4565b979650505050505050565b61014081016128e8828a61253b565b6128f56020830189612323565b6129026040830188612323565b81810360608301526129148187612389565b9050818103608083015261292881866124a7565b905061293760a083018561253f565b61282a6101208301846124fd565b60608101612953828661253b565b612870602083018561253b565b60e0810161296e828a61253b565b61297b602083018961253b565b6129886040830188612323565b818103606083015261299a8187612389565b905081810360808301526129ae818661245a565b905081810360a08301526129c28185612389565b905081810360c0830152610b1f8184612589565b60c081016129e4828661253b565b6129f1602083018561253f565b61202d60a0830184612323565b60608101612a0c828661253b565b61287060208301856124fd565b60208082528101610e8981846125eb565b6101808101612a39828761253b565b612a4660208301866126b5565b818103610140830152612a598185612506565b9050612a69610160830184612323565b95945050505050565b60808101612a80828761253b565b612a8d602083018661253b565b612a9a604083018561253b565b612a696060830184612323565b60208101610e0282846124fd565b60408101612ac382856124fd565b610e896020830184612323565b60405181810167ffffffffffffffff81118282101715612aef57600080fd5b604052919050565b600067ffffffffffffffff821115612b0e57600080fd5b5060209081020190565b600067ffffffffffffffff821115612b2f57600080fd5b506020601f919091017fffffffffffffffffffffffffffffffffffffffffffffffffffffffffffffffe0160190565b60200190565b90565b5190565b50600290565b50600390565b73ffffffffffffffffffffffffffffffffffffffff1690565b151590565b6fffffffffffffffffffffffffffffffff1690565b82818337506000910152565b60005b83811015612bd1578181015183820152602001612bb9565b838111156110395750506000910152565b601f017fffffffffffffffffffffffffffffffffffffffffffffffffffffffffffffffe016905600a265627a7a723058209694b69439fff7f675a517bd334c6fa352241ae9ec6636ca906da7d463768b536c6578706572696d656e74616cf50037",
  "source": " pragma solidity ^0.4.18;\n pragma experimental ABIEncoderV2;\n\nimport \"../libraries/strings/strings.sol\";\nimport \"../libraries/math/SafeMath.sol\";\nimport \"../libraries/LibConstruction.sol\";\n//import \"../libraries/interfaces/tournament/iLibTournamentStateManagement.sol\";\nimport \"../libraries/tournament/LibTournamentStateManagement.sol\";\nimport \"../libraries/tournament/LibTournamentAdminMethods.sol\";\nimport \"../libraries/tournament/LibTournamentEntrantMethods.sol\";\nimport \"../interfaces/IMatryxPlatform.sol\";\nimport \"../interfaces/IMatryxTournament.sol\";\nimport \"../interfaces/factories/IMatryxRoundFactory.sol\";\nimport \"../interfaces/IMatryxRound.sol\";\nimport \"../interfaces/IMatryxToken.sol\";\nimport \"./Ownable.sol\";\n\n/// @title Tournament - The Matryx tournament.\n/// @author Max Howard - <max@nanome.ai>, Sam Hessenauer - <sam@nanome.ai>\ncontract MatryxTournament is Ownable, IMatryxTournament {\n    using SafeMath for uint256;\n    using strings for *;\n    using LibTournamentAdminMethods for LibConstruction.TournamentData;\n\n    // TODO: condense and put in structs\n    // Platform identification\n    address public platformAddress;\n    address public matryxTokenAddress;\n    address public matryxRoundFactoryAddress;\n\n    // TODO: Create setter for this (resume here for upgrade system.)\n    // address public libTournamentStateManagement;\n\n    //Tournament identification\n    address public owner;\n    LibConstruction.TournamentData data;\n    // Timing and State\n    uint256 public timeCreated;\n    uint256 public tournamentOpenedTime;\n    LibTournamentStateManagement.StateData stateData;\n    // Submission tracking\n    LibTournamentStateManagement.EntryData entryData;\n\n    // address roundDelegate;\n    // bytes4 fnSelector_chooseWinner = bytes4(keccak256(\"chooseWinner(address)\"));\n    // bytes4 fnSelector_createRound = bytes4(keccak256(\"createRound(uint256)\"));\n    // bytes4 fnSelector_startRound = bytes4(keccak256(\"startRound(uint256)\"));\n\n    constructor(string _category, LibConstruction.TournamentData tournamentData, LibConstruction.RoundData roundData, address _platformAddress, address _matryxTokenAddress, address _matryxRoundFactoryAddress, address _owner) \n    {\n        //Clean inputs\n        //require(_owner != 0x0);\n        //require(tournamentData.title[0] != 0x0);\n        //require(tournamentData.Bounty > 0);\n        //require(_matryxRoundFactoryAddress != 0x0);\n        \n        platformAddress = _platformAddress;\n        matryxTokenAddress = _matryxTokenAddress;\n        matryxRoundFactoryAddress = _matryxRoundFactoryAddress;\n\n        timeCreated = now;\n        // Identification\n        owner = _owner;\n        data = tournamentData;\n        data.category = _category;\n\n        _createRound(roundData, false);\n        // roundDelegate = IMatryxPlatform(platformAddress).getRoundLibAddress();\n    }\n\n    /*\n     * Structs\n     */\n\n    struct uint256_optional\n    {\n        bool exists;\n        uint256 value;\n    }\n\n    struct SubmissionLocation\n    {\n        uint256 roundIndex;\n        uint256 submissionIndex;\n    }\n\n    /*\n     * Events\n     */\n\n    event NewRound(uint256 _startTime, uint256 _endTime, uint256 _reviewPeriodDuration, address _roundAddress, uint256 _roundNumber);\n    //event RoundStarted(uint256 _roundIndex);\n    // Fired at the end of every round, one time per submission created in that round\n    event SubmissionCreated(uint256 _roundIndex, address _submissionAddress);\n    event RoundWinnersChosen(address[] _submissionAddresses);\n\n    /// @dev Allows rounds to invoke SubmissionCreated events on this tournament.\n    /// @param _submissionAddress Address of the submission.\n    function invokeSubmissionCreatedEvent(address _submissionAddress) public onlyRound\n    {\n        emit SubmissionCreated(stateData.rounds.length-1, _submissionAddress);\n    }\n\n    /*\n     * Modifiers\n     */\n\n    /// @dev Requires the function caller to be the platform.\n    modifier onlyPlatform()\n    {\n        require(msg.sender == platformAddress);\n        _;\n    }\n\n    modifier onlyRound()\n    {\n        require(stateData.isRound[msg.sender]);\n        _;\n    }\n\n    // modifier onlySubmission(address _submissionAddress, address _author)\n    // {\n    //     // If the submission does not exist,\n    //     // the address of the submission we return will not be msg.sender\n    //     // It will either be \n    //     // 1) The first submission, or\n    //     // 2) all 0s from having deleted it previously.\n    //     uint256 indexOfSubmission = entrantToSubmissionToSubmissionIndex[_author][_submissionAddress].value;\n    //     address submissionAddress = entrantToSubmissions[_author][indexOfSubmission];\n    //     require(_submissionAddress == msg.sender);\n    //     _;\n    // }\n\n    modifier onlyPeerLinked(address _sender)\n    {\n        IMatryxPlatform platform = IMatryxPlatform(platformAddress);\n        require(platform.hasPeer(_sender));\n        _;\n    }\n\n    /// @dev Requires the function caller to be an entrant.\n    modifier onlyEntrant()\n    {\n        bool senderIsEntrant = entryData.addressToEntryFeePaid[msg.sender].exists;\n        require(senderIsEntrant);\n        _;\n    }\n\n    /// @dev Requires the function caller to be the platform or the owner of this tournament\n    modifier platformOrOwner()\n    {\n        require((msg.sender == platformAddress)||(msg.sender == owner));\n        _;\n    }\n\n    modifier whileTournamentOpen()\n    {\n        require(getState() == uint256(TournamentState.Open));\n        _;\n    }\n\n    modifier ifRoundHasFunds()\n    {\n        // require((IMatryxRound(currentRound()[1]).getState()) != uint256(RoundState.Unfunded));\n        address currentRoundAddress;\n\n        (,currentRoundAddress) = currentRound();\n        require(IMatryxRound(currentRoundAddress).getState() != uint256(RoundState.Unfunded));\n        _;\n    }\n\n    modifier onlyOwner()\n    {\n        require(msg.sender == owner);\n        _;\n    }\n\n    // /// @dev Requires the tournament to be open.\n    // modifier duringReviewPeriod()\n    // {\n    //     // TODO: Finish me!\n    //     require(isInReview());\n    //     _;\n    // }\n\n    // TODO: Use MatryxToken\n    // modifier whileBountyLeft(uint256 _nextRoundBounty)\n    // {\n    //     require(BountyLeft.sub(_nextRoundBounty) >= 0);\n    //     _;\n    // }\n\n    /*\n    * State Maintenance Methods\n    */\n\n    function removeSubmission(address _submissionAddress, address _author) public onlyPlatform returns (bool)\n    {\n        require(entryData.entrantToSubmissionToSubmissionIndex[_author][_submissionAddress].exists);\n        entryData.numberOfSubmissions = entryData.numberOfSubmissions.sub(1);\n        delete entryData.entrantToSubmissions[_author][entryData.entrantToSubmissionToSubmissionIndex[_author][_submissionAddress].value];\n        delete entryData.entrantToSubmissionToSubmissionIndex[_author][_submissionAddress];\n        return true;\n    }\n\n    /*\n     * Access Control Methods\n     */\n\n    /// @dev Returns whether or not the sender is an entrant in this tournament\n    /// @param _sender Explicit sender address.\n    /// @return Whether or not the sender is an entrant in this tournament.\n    function isEntrant(address _sender) public view returns (bool)\n    {\n        return entryData.addressToEntryFeePaid[_sender].exists;\n    }\n\n    enum TournamentState { NotYetOpen, OnHold, Open, Closed, Abandoned}\n    enum RoundState { NotYetOpen, Unfunded, Open, InReview, HasWinners, Closed, Abandoned }\n    enum ParticipantType { Nonentrant, Entrant, Contributor, Author }\n    enum SelectWinnerAction { DoNothing, StartNextRound, CloseTournament }\n    /// @dev Returns the state of the tournament. One of:\n    /// NotYetOpen, Open, Closed, Abandoned\n    function getState() public view returns (uint256)\n    {\n        return LibTournamentStateManagement.getState(stateData);\n    }\n\n    /*\n     * Getter Methods\n     */\n\n    function getPlatform() public view returns (address _platformAddress)\n    {\n        return platformAddress;\n    }\n\n    function getData() public view returns (LibConstruction.TournamentData _data)\n    {\n        return data;\n    }\n\n    function isRound(address _roundAddress) public view returns (bool _isRound)\n    {\n        return stateData.isRound[_roundAddress];\n    }\n\n    function getRounds() public view returns (address[] _rounds)\n    {\n        return stateData.rounds;\n    }\n\n    function getTitle() public view returns (bytes32[3] _title)\n    {\n        bytes32[3] memory title;\n        title[0] = data.title_1;\n        title[1] = data.title_2;\n        title[2] = data.title_3;\n        return title;\n    }\n\n    function getCategory() public view returns (string _category)\n    {\n        // return IMatryxPlatform(platformAddress).hashForCategory(categoryHash);\n        // TODO: Fix me\n        return data.category;\n    }\n\n    function getOwner() public view returns (address _owner)\n    {\n        return owner;\n    }\n\n    // @dev Returns the external address of the tournament.\n    // @return _descriptionHash Off-chain content hash of tournament details (ipfs hash)\n    function getDescriptionHash() public view returns (bytes32[2] _descriptionHash)\n    {\n        bytes32[2] memory descriptionHash;\n        descriptionHash[0] = data.descriptionHash_1;\n        descriptionHash[1] = data.descriptionHash_2;\n        return descriptionHash;\n    }\n\n    function getFileHash() public view returns (bytes32[2] _fileHash)\n    {\n        bytes32[2] memory fileHash;\n        fileHash[0] = data.fileHash_1;\n        fileHash[1] = data.fileHash_2;\n        return fileHash;\n    }\n\n    /// @dev Returns the current round number.\n    /// @return _currentRound Number of the current round.\n    function currentRound() public view returns (uint256 _currentRound, address _currentRoundAddress)\n    {\n        return LibTournamentStateManagement.currentRound(stateData);\n    }\n\n    ///@dev Returns this tournament's bounty.\n    function getBounty() public view returns (uint256 _tournamentBounty)\n    {  \n        return IMatryxToken(matryxTokenAddress).balanceOf(address(this)).sub(stateData.entryFeesTotal).add(stateData.roundBountyAllocation);\n    }\n\n    // @dev Returns the remaining bounty this tournament is able to award.\n    function getBalance() public view returns (uint256 _tournamentBalance)\n    {\n        return IMatryxToken(matryxTokenAddress).balanceOf(address(this)).sub(stateData.entryFeesTotal);\n    }\n\n    ///@dev Returns the round that was created implicitly for the user after they chose the \"DoNothing\" option\n    ///     when choosing their round winners.\n    ///@return _ghostAddress Address of the upcoming round created during winner selection\n    function getGhostRound() internal returns (uint256 _index, address _ghostAddress)\n    {\n        return LibTournamentStateManagement.getGhostRound(stateData);\n    }\n\n    /// @dev Returns all of the sender's submissions to this tournament.\n    /// @return (_roundIndices[], _submissionIndices[]) Locations of the sender's submissions.\n    function mySubmissions() public view returns (address[])\n    {\n        address[] memory _mySubmissions = entryData.entrantToSubmissions[msg.sender];\n        return _mySubmissions;\n    }\n\n    /// @dev Returns the number of submissions made to this tournament.\n    /// @return _submissionCount Number of submissions made to this tournament.\n    function submissionCount() public view returns (uint256 _submissionCount)\n    {\n        return entryData.numberOfSubmissions;\n    }\n\n    function entrantCount() public view returns (uint256 _entrantCount)\n    {\n        return entryData.numberOfEntrants;\n    }\n\n    /*\n     * Setter Methods\n     */\n\n    function update(LibConstruction.TournamentModificationData tournamentData, string _category) public onlyOwner\n    {\n        data.update(tournamentData, _category, platformAddress);\n    }\n\n    /*\n     * Tournament Admin Methods\n     */\n\n    /// @dev Chooses the winner(s) of the current round. If this is the last round, \n    //       this method will also close the tournament.\n    /// @param _submissionAddresses The winning submission addresses\n    /// @param _rewardDistribution Distribution indicating how to split the reward among the submissions\n    function selectWinners(address[] _submissionAddresses, uint256[] _rewardDistribution, LibConstruction.RoundData _roundData, uint256 _selectWinnerAction) public onlyOwner\n    {\n        LibTournamentAdminMethods.selectWinners(stateData, platformAddress, matryxTokenAddress, _submissionAddresses, _rewardDistribution, _roundData, _selectWinnerAction);\n    }\n\n    function editGhostRound(LibConstruction.RoundData _roundData) public onlyOwner\n    {\n\n        LibTournamentAdminMethods.editGhostRound(stateData, _roundData, matryxTokenAddress);\n    }\n\n    ///@dev Allocates some of this tournament's balance to the current round\n    function allocateMoreToRound(uint256 _mtxAllocation) public onlyOwner\n    {\n        LibTournamentAdminMethods.allocateMoreToRound(stateData, _mtxAllocation, matryxTokenAddress);\n    }\n\n    /// @dev This function should be called after the user selects winners for their tournament and chooses the \"DoNothing\" option\n    function jumpToNextRound() public onlyOwner\n    {\n        LibTournamentAdminMethods.jumpToNextRound(stateData);\n    }\n\n    /// @dev This function closes the tournament after the tournament owner selects their winners with the \"DoNothing\" option\n    function stopTournament() public onlyOwner\n    {\n        LibTournamentAdminMethods.stopTournament(stateData, platformAddress, matryxTokenAddress);\n    }\n\n    /// @dev Creates a new round.\n    /// @return The new round's address.\n    function createRound(LibConstruction.RoundData roundData, bool _automaticCreation) public onlyRound returns (address _roundAddress)\n    {\n        return _createRound(roundData, _automaticCreation);\n    }\n\n    function createRoundTwo(LibConstruction.RoundData roundData, bool _automaticCreation) public onlyRound returns (address _roundAddress)\n    {\n        return LibTournamentAdminMethods.createRoundTwo(stateData, platformAddress, matryxTokenAddress, matryxRoundFactoryAddress, roundData, _automaticCreation);\n    }\n\n    function _createRound(LibConstruction.RoundData roundData, bool _automaticCreation) private returns (address _roundAddress)\n    {\n        return LibTournamentAdminMethods.createRound(stateData, platformAddress, matryxTokenAddress, matryxRoundFactoryAddress, roundData, _automaticCreation);\n    }\n\n    function sendBountyToRound(uint256 _roundIndex, uint256 _bountyMTX) public onlyPlatform\n    {\n        stateData.roundBountyAllocation = stateData.roundBountyAllocation.add(_bountyMTX);\n        require(IMatryxToken(matryxTokenAddress).transfer(stateData.rounds[_roundIndex], _bountyMTX));\n    }\n\n    /*\n     * Entrant Methods\n     */\n\n    // LibTournamentEntrantMethods\n    /// @dev Enters the user into the tournament.\n    /// @param _entrantAddress Address of the user to enter.\n    /// @return success Whether or not the user was entered successfully.\n    function enterUserInTournament(address _entrantAddress) public onlyPlatform whileTournamentOpen returns (bool _success)\n    {\n        return LibTournamentEntrantMethods.enterUserInTournament(data, stateData, entryData, _entrantAddress);\n    }\n\n    /// @dev Returns the fee in MTX to be payed by a prospective entrant.\n    /// @return Entry fee for this tournament.\n    function getEntryFee() public view returns (uint256)\n    {\n        return data.entryFee;\n    }\n\n    function collectMyEntryFee() public\n    {\n        LibTournamentEntrantMethods.collectMyEntryFee(stateData, entryData, matryxTokenAddress);\n    }\n\n    function createSubmission(address[] _contributors, uint128[] _contributorRewardDistribution, address[] _references, LibConstruction.SubmissionData submissionData) public onlyEntrant onlyPeerLinked(msg.sender) ifRoundHasFunds whileTournamentOpen returns (address _submissionAddress)\n    {\n        if(entryData.numberOfSubmissions == 0)\n        {\n            IMatryxPlatform(platformAddress).invokeTournamentOpenedEvent(data.title_1, data.title_2, data.title_3, data.descriptionHash_1, data.descriptionHash_2, data.bounty, data.entryFee);\n        }\n\n        return LibTournamentEntrantMethods.createSubmission(stateData, entryData, platformAddress, _contributors, _contributorRewardDistribution, _references, submissionData);\n    }\n\n    function withdrawFromAbandoned() public onlyEntrant\n    {\n        LibTournamentEntrantMethods.withdrawFromAbandoned(stateData, entryData, matryxTokenAddress);\n    }\n}",
  "sourcePath": "/Users/maxhoward/Desktop/Ethereum/Development/Matryx/Projects/MatryxPlatform/contracts/MatryxTournament.sol",
  "compiler": {
    "name": "solc",
    "version": "0.4.24+commit.e67f0147.Emscripten.clang"
  },
  "schemaVersion": "2.0.0",
  "updatedAt": "2018-07-04T00:57:36.553Z"
}