{
  "contractName": "MatryxRound",
  "abi": [
    {
      "constant": true,
      "inputs": [],
      "name": "tournamentAddress",
      "outputs": [
        {
          "name": "",
          "type": "address"
        }
      ],
      "payable": false,
      "stateMutability": "view",
      "type": "function"
    },
    {
      "constant": true,
      "inputs": [
        {
          "name": "_sender",
          "type": "address"
        }
      ],
      "name": "isOwner",
      "outputs": [
        {
          "name": "_isOwner",
          "type": "bool"
        }
      ],
      "payable": false,
      "stateMutability": "view",
      "type": "function"
    },
    {
      "constant": true,
      "inputs": [],
      "name": "getOwner",
      "outputs": [
        {
          "name": "_owner",
          "type": "address"
        }
      ],
      "payable": false,
      "stateMutability": "view",
      "type": "function"
    },
    {
      "constant": true,
      "inputs": [],
      "name": "owner",
      "outputs": [
        {
          "name": "",
          "type": "address"
        }
      ],
      "payable": false,
      "stateMutability": "view",
      "type": "function"
    },
    {
      "constant": true,
      "inputs": [],
      "name": "matryxSubmissionFactoryAddress",
      "outputs": [
        {
          "name": "",
          "type": "address"
        }
      ],
      "payable": false,
      "stateMutability": "view",
      "type": "function"
    },
    {
      "constant": true,
      "inputs": [],
      "name": "platformAddress",
      "outputs": [
        {
          "name": "",
          "type": "address"
        }
      ],
      "payable": false,
      "stateMutability": "view",
      "type": "function"
    },
    {
      "constant": false,
      "inputs": [
        {
          "name": "newOwner",
          "type": "address"
        }
      ],
      "name": "transferOwnership",
      "outputs": [],
      "payable": false,
      "stateMutability": "nonpayable",
      "type": "function"
    },
    {
      "inputs": [
        {
          "name": "_platformAddress",
          "type": "address"
        },
        {
          "name": "_tournamentAddress",
          "type": "address"
        },
        {
          "name": "_submissionFactoryAddress",
          "type": "address"
        },
        {
          "name": "_owner",
          "type": "address"
        },
        {
          "components": [
            {
              "name": "start",
              "type": "uint256"
            },
            {
              "name": "end",
              "type": "uint256"
            },
            {
              "name": "reviewPeriodDuration",
              "type": "uint256"
            },
            {
              "name": "bounty",
              "type": "uint256"
            },
            {
              "name": "closed",
              "type": "bool"
            }
          ],
          "name": "_roundData",
          "type": "tuple"
        }
      ],
      "payable": false,
      "stateMutability": "nonpayable",
      "type": "constructor"
    },
    {
      "constant": false,
      "inputs": [
        {
          "name": "_submissionAddress",
          "type": "address"
        }
      ],
      "name": "submissionExists",
      "outputs": [
        {
          "name": "",
          "type": "bool"
        }
      ],
      "payable": false,
      "stateMutability": "nonpayable",
      "type": "function"
    },
    {
      "constant": false,
      "inputs": [
        {
          "name": "_mtxAllocation",
          "type": "uint256"
        }
      ],
      "name": "addBounty",
      "outputs": [],
      "payable": false,
      "stateMutability": "nonpayable",
      "type": "function"
    },
    {
      "constant": false,
      "inputs": [
        {
          "name": "_nameHash",
          "type": "bytes32"
        },
        {
          "name": "_contractAddress",
          "type": "address"
        }
      ],
      "name": "setContractAddress",
      "outputs": [],
      "payable": false,
      "stateMutability": "nonpayable",
      "type": "function"
    },
    {
      "constant": false,
      "inputs": [
        {
          "name": "_nameHash",
          "type": "bytes32"
        }
      ],
      "name": "getContractAddress",
      "outputs": [
        {
          "name": "contractAddress",
          "type": "address"
        }
      ],
      "payable": false,
      "stateMutability": "nonpayable",
      "type": "function"
    },
    {
      "constant": true,
      "inputs": [],
      "name": "getState",
      "outputs": [
        {
          "name": "",
          "type": "uint256"
        }
      ],
      "payable": false,
      "stateMutability": "view",
      "type": "function"
    },
    {
      "constant": true,
      "inputs": [],
      "name": "getPlatform",
      "outputs": [
        {
          "name": "",
          "type": "address"
        }
      ],
      "payable": false,
      "stateMutability": "view",
      "type": "function"
    },
    {
      "constant": true,
      "inputs": [],
      "name": "getTournament",
      "outputs": [
        {
          "name": "",
          "type": "address"
        }
      ],
      "payable": false,
      "stateMutability": "view",
      "type": "function"
    },
    {
      "constant": true,
      "inputs": [],
      "name": "getStartTime",
      "outputs": [
        {
          "name": "",
          "type": "uint256"
        }
      ],
      "payable": false,
      "stateMutability": "view",
      "type": "function"
    },
    {
      "constant": true,
      "inputs": [],
      "name": "getEndTime",
      "outputs": [
        {
          "name": "",
          "type": "uint256"
        }
      ],
      "payable": false,
      "stateMutability": "view",
      "type": "function"
    },
    {
      "constant": true,
      "inputs": [],
      "name": "getBounty",
      "outputs": [
        {
          "name": "",
          "type": "uint256"
        }
      ],
      "payable": false,
      "stateMutability": "view",
      "type": "function"
    },
    {
      "constant": true,
      "inputs": [],
      "name": "remainingBounty",
      "outputs": [
        {
          "name": "",
          "type": "uint256"
        }
      ],
      "payable": false,
      "stateMutability": "view",
      "type": "function"
    },
    {
      "constant": true,
      "inputs": [],
      "name": "getTokenAddress",
      "outputs": [
        {
          "name": "",
          "type": "address"
        }
      ],
      "payable": false,
      "stateMutability": "view",
      "type": "function"
    },
    {
      "constant": true,
      "inputs": [],
      "name": "getSubmissions",
      "outputs": [
        {
          "name": "_submissions",
          "type": "address[]"
        }
      ],
      "payable": false,
      "stateMutability": "view",
      "type": "function"
    },
    {
      "constant": true,
      "inputs": [
        {
          "name": "_submissionAddress",
          "type": "address"
        }
      ],
      "name": "getBalance",
      "outputs": [
        {
          "name": "",
          "type": "uint256"
        }
      ],
      "payable": false,
      "stateMutability": "view",
      "type": "function"
    },
    {
      "constant": true,
      "inputs": [],
      "name": "getRoundBalance",
      "outputs": [
        {
          "name": "",
          "type": "uint256"
        }
      ],
      "payable": false,
      "stateMutability": "view",
      "type": "function"
    },
    {
      "constant": true,
      "inputs": [],
      "name": "submissionsChosen",
      "outputs": [
        {
          "name": "",
          "type": "bool"
        }
      ],
      "payable": false,
      "stateMutability": "view",
      "type": "function"
    },
    {
      "constant": true,
      "inputs": [],
      "name": "getWinningSubmissionAddresses",
      "outputs": [
        {
          "name": "",
          "type": "address[]"
        }
      ],
      "payable": false,
      "stateMutability": "view",
      "type": "function"
    },
    {
      "constant": true,
      "inputs": [],
      "name": "numberOfSubmissions",
      "outputs": [
        {
          "name": "",
          "type": "uint256"
        }
      ],
      "payable": false,
      "stateMutability": "view",
      "type": "function"
    },
    {
      "constant": false,
      "inputs": [
        {
          "name": "_currentRoundEndTime",
          "type": "uint256"
        },
        {
          "components": [
            {
              "name": "start",
              "type": "uint256"
            },
            {
              "name": "end",
              "type": "uint256"
            },
            {
              "name": "reviewPeriodDuration",
              "type": "uint256"
            },
            {
              "name": "bounty",
              "type": "uint256"
            },
            {
              "name": "closed",
              "type": "bool"
            }
          ],
          "name": "_roundData",
          "type": "tuple"
        }
      ],
      "name": "editRound",
      "outputs": [],
      "payable": false,
      "stateMutability": "nonpayable",
      "type": "function"
    },
    {
      "constant": false,
      "inputs": [
        {
          "name": "_amount",
          "type": "uint256"
        }
      ],
      "name": "transferToTournament",
      "outputs": [],
      "payable": false,
      "stateMutability": "nonpayable",
      "type": "function"
    },
    {
      "constant": false,
      "inputs": [
        {
          "components": [
            {
              "name": "winningSubmissions",
              "type": "address[]"
            },
            {
              "name": "rewardDistribution",
              "type": "uint256[]"
            },
            {
              "name": "selectWinnerAction",
              "type": "uint256"
            },
            {
              "name": "rewardDistributionTotal",
              "type": "uint256"
            }
          ],
          "name": "_selectWinnersData",
          "type": "tuple"
        },
        {
          "components": [
            {
              "name": "start",
              "type": "uint256"
            },
            {
              "name": "end",
              "type": "uint256"
            },
            {
              "name": "reviewPeriodDuration",
              "type": "uint256"
            },
            {
              "name": "bounty",
              "type": "uint256"
            },
            {
              "name": "closed",
              "type": "bool"
            }
          ],
          "name": "_roundData",
          "type": "tuple"
        }
      ],
      "name": "selectWinningSubmissions",
      "outputs": [],
      "payable": false,
      "stateMutability": "nonpayable",
      "type": "function"
    },
    {
      "constant": false,
      "inputs": [],
      "name": "transferBountyToTournament",
      "outputs": [
        {
          "name": "",
          "type": "uint256"
        }
      ],
      "payable": false,
      "stateMutability": "nonpayable",
      "type": "function"
    },
    {
      "constant": false,
      "inputs": [
        {
          "name": "_tournamentBalance",
          "type": "uint256"
        }
      ],
      "name": "transferAllToWinners",
      "outputs": [],
      "payable": false,
      "stateMutability": "nonpayable",
      "type": "function"
    },
    {
      "constant": false,
      "inputs": [],
      "name": "startNow",
      "outputs": [],
      "payable": false,
      "stateMutability": "nonpayable",
      "type": "function"
    },
    {
      "constant": false,
      "inputs": [],
      "name": "closeRound",
      "outputs": [],
      "payable": false,
      "stateMutability": "nonpayable",
      "type": "function"
    },
    {
      "constant": false,
      "inputs": [
        {
          "name": "_owner",
          "type": "address"
        },
        {
          "name": "platformAddress",
          "type": "address"
        },
        {
          "components": [
            {
              "name": "title",
              "type": "bytes32[3]"
            },
            {
              "name": "descriptionHash",
              "type": "bytes32[2]"
            },
            {
              "name": "fileHash",
              "type": "bytes32[2]"
            },
            {
              "name": "timeSubmitted",
              "type": "uint256"
            },
            {
              "name": "timeUpdated",
              "type": "uint256"
            }
          ],
          "name": "submissionData",
          "type": "tuple"
        }
      ],
      "name": "createSubmission",
      "outputs": [
        {
          "name": "_submissionAddress",
          "type": "address"
        }
      ],
      "payable": false,
      "stateMutability": "nonpayable",
      "type": "function"
    }
  ],
  "bytecode": "0x60806040523480156200001157600080fd5b50604051610120806200280e83398101806040526200003491908101906200029a565b6000805460018054600160a060020a0319908116600160a060020a038a81169190911790925560028054821689841617905560038054821688841617905533928116831716908516179091556060820151600855604080517f4c6962546f75726e616d656e7441646d696e4d6574686f647300000000000000815290516019918190039190910181207f0d2020dd0000000000000000000000000000000000000000000000000000000082529190630d2020dd90620000f89084906004016200032c565b602060405180830381600087803b1580156200011357600080fd5b505af115801562000128573d6000803e3d6000fd5b505050506040513d601f19601f820116820180604052506200014e919081019062000271565b60008281526004602052604090208054600160a060020a031916600160a060020a03929092169190911790556200018e826401000000006200019a810204565b5050505050506200037e565b8051600555602081015160065560400151600755565b6000620001be82516200036d565b9392505050565b6000620001be825162000379565b600060a08284031215620001e657600080fd5b620001f260a062000342565b9050600062000202848462000263565b8252506020620002158484830162000263565b60208301525060406200022b8482850162000263565b6040830152506060620002418482850162000263565b60608301525060806200025784828501620001c5565b60808301525092915050565b6000620001be82516200036a565b6000602082840312156200028457600080fd5b6000620002928484620001b0565b949350505050565b60008060008060006101208688031215620002b457600080fd5b6000620002c28888620001b0565b9550506020620002d588828901620001b0565b9450506040620002e888828901620001b0565b9350506060620002fb88828901620001b0565b92505060806200030e88828901620001d3565b9150509295509295909350565b62000326816200036a565b82525050565b602081016200033c82846200031b565b92915050565b60405181810167ffffffffffffffff811182821017156200036257600080fd5b604052919050565b90565b600160a060020a031690565b151590565b612480806200038e6000396000f3006080604052600436106101a05763ffffffff7c010000000000000000000000000000000000000000000000000000000060003504166303d66a9781146101a557806307417cf1146101d05780630befb0a5146101f25780630d2020dd146102075780630e3db9f21461022757806310fe9ae81461023e5780631865c57d14610253578063241b15ad146102685780632f0713bb1461027d5780632f54bf6e1461029d5780632fc1f190146102ca578063389994f9146102df57806338e43895146102f4578063439f5ac2146103145780635325cdba1461032957806354f6aa201461034957806357c60fb01461036b578063856646fd1461038b578063893d20e8146103ab5780638da5cb5b146103c05780638fa4e7b9146103d5578063b0ff5492146103f5578063b6a349751461040a578063c828371e1461042a578063dbe55e561461043f578063e001f84114610454578063e278fe6f14610474578063e76c293e14610489578063e9e8b446146101f2578063ed0984601461049e578063f2fde38b146104b3578063f49bff7b146104d3578063f8b2cb4f146104e8575b600080fd5b3480156101b157600080fd5b506101ba610508565b6040516101c7919061224a565b60405180910390f35b3480156101dc57600080fd5b506101e5610524565b6040516101c79190612390565b3480156101fe57600080fd5b506101e56106c6565b34801561021357600080fd5b506101ba610222366004611ea6565b610815565b34801561023357600080fd5b5061023c61083d565b005b34801561024a57600080fd5b506101ba610898565b34801561025f57600080fd5b506101e561093c565b34801561027457600080fd5b506101e56109de565b34801561028957600080fd5b5061023c610298366004611ea6565b6109e4565b3480156102a957600080fd5b506102bd6102b8366004611df6565b610b90565b6040516101c7919061230f565b3480156102d657600080fd5b506101ba610bb1565b3480156102eb57600080fd5b506102bd610bcd565b34801561030057600080fd5b5061023c61030f366004611ea6565b610bd5565b34801561032057600080fd5b506101e5610c7a565b34801561033557600080fd5b5061023c610344366004611ea6565b610c80565b34801561035557600080fd5b5061035e610f84565b6040516101c791906122fe565b34801561037757600080fd5b506101ba610386366004611e3a565b610ff6565b34801561039757600080fd5b5061023c6103a6366004611efe565b61142d565b3480156103b757600080fd5b506101ba611567565b3480156103cc57600080fd5b506101ba611583565b3480156103e157600080fd5b5061023c6103f0366004611f63565b61159f565b34801561040157600080fd5b506101ba61164c565b34801561041657600080fd5b506102bd610425366004611df6565b611668565b34801561043657600080fd5b506101e5611693565b34801561044b57600080fd5b506101ba611699565b34801561046057600080fd5b5061023c61046f366004611ec4565b6116b5565b34801561048057600080fd5b5061023c61172c565b34801561049557600080fd5b506101ba611791565b3480156104aa57600080fd5b5061035e6117ad565b3480156104bf57600080fd5b5061023c6104ce366004611df6565b61181d565b3480156104df57600080fd5b506101e56118aa565b3480156104f457600080fd5b506101e5610503366004611df6565b6118b0565b60025473ffffffffffffffffffffffffffffffffffffffff1681565b600254600090819073ffffffffffffffffffffffffffffffffffffffff16331461054d57600080fd5b6105556106c6565b9050600160009054906101000a900473ffffffffffffffffffffffffffffffffffffffff1673ffffffffffffffffffffffffffffffffffffffff166310fe9ae86040518163ffffffff167c0100000000000000000000000000000000000000000000000000000000028152600401602060405180830381600087803b1580156105dd57600080fd5b505af11580156105f1573d6000803e3d6000fd5b505050506040513d601f19601f820116820180604052506106159190810190611e1c565b6002546040517fa9059cbb00000000000000000000000000000000000000000000000000000000815273ffffffffffffffffffffffffffffffffffffffff9283169263a9059cbb9261066e9291169085906004016122e3565b602060405180830381600087803b15801561068857600080fd5b505af115801561069c573d6000803e3d6000fd5b505050506040513d601f19601f820116820180604052506106c09190810190611e88565b50919050565b600154604080517f10fe9ae8000000000000000000000000000000000000000000000000000000008152905160009273ffffffffffffffffffffffffffffffffffffffff16916310fe9ae891600480830192602092919082900301818787803b15801561073257600080fd5b505af1158015610746573d6000803e3d6000fd5b505050506040513d601f19601f8201168201806040525061076a9190810190611e1c565b73ffffffffffffffffffffffffffffffffffffffff166370a08231306040518263ffffffff167c01000000000000000000000000000000000000000000000000000000000281526004016107be919061231d565b602060405180830381600087803b1580156107d857600080fd5b505af11580156107ec573d6000803e3d6000fd5b505050506040513d601f19601f820116820180604052506108109190810190611f45565b905090565b60009081526004602052604090205473ffffffffffffffffffffffffffffffffffffffff1690565b60025460009073ffffffffffffffffffffffffffffffffffffffff16331461086457600080fd5b6005546006546108799163ffffffff611a0016565b426005819055909150610892908263ffffffff611a1216565b60065550565b600154604080517f10fe9ae8000000000000000000000000000000000000000000000000000000008152905160009273ffffffffffffffffffffffffffffffffffffffff16916310fe9ae891600480830192602092919082900301818787803b15801561090457600080fd5b505af1158015610918573d6000803e3d6000fd5b505050506040513d601f19601f820116820180604052506108109190810190611e1c565b6001546040517f05b00ec100000000000000000000000000000000000000000000000000000000815260009173__LibRound______________________________916305b00ec1916109b29173ffffffffffffffffffffffffffffffffffffffff90911690600590600a90600e906004016122a5565b60206040518083038186803b1580156109ca57600080fd5b505af41580156107ec573d6000803e3d6000fd5b600e5490565b60025473ffffffffffffffffffffffffffffffffffffffff163314610a0857600080fd5b6000610a1261093c565b14610a1c57600080fd5b600160009054906101000a900473ffffffffffffffffffffffffffffffffffffffff1673ffffffffffffffffffffffffffffffffffffffff166310fe9ae86040518163ffffffff167c0100000000000000000000000000000000000000000000000000000000028152600401602060405180830381600087803b158015610aa257600080fd5b505af1158015610ab6573d6000803e3d6000fd5b505050506040513d601f19601f82011682018060405250610ada9190810190611e1c565b73ffffffffffffffffffffffffffffffffffffffff1663a9059cbb33836040518363ffffffff167c0100000000000000000000000000000000000000000000000000000000028152600401610b309291906122e3565b602060405180830381600087803b158015610b4a57600080fd5b505af1158015610b5e573d6000803e3d6000fd5b505050506040513d601f19601f82011682018060405250610b829190810190611e88565b1515610b8d57600080fd5b50565b60005473ffffffffffffffffffffffffffffffffffffffff91821691161490565b60015473ffffffffffffffffffffffffffffffffffffffff1690565b600a54151590565b600254604080517f4c6962546f75726e616d656e7441646d696e4d6574686f647300000000000000815290519081900360190190203373ffffffffffffffffffffffffffffffffffffffff909216821491600091610c3290610815565b73ffffffffffffffffffffffffffffffffffffffff161490508180610c545750805b1515610c5f57600080fd5b600854610c72908463ffffffff611a1216565b600855505050565b60065490565b6002546000908190819073ffffffffffffffffffffffffffffffffffffffff163314610cab57600080fd5b600092505b600a54831015610f7e57600854610ccd908563ffffffff611a1216565b9150610d37670de0b6b3a7640000610d1f84610d2b600a60030154610d1f670de0b6b3a7640000600a6001018b815481101515610d0657fe5b9060005260206000200154611a2890919063ffffffff16565b9063ffffffff611a4c16565b9063ffffffff611a2816565b9050600160009054906101000a900473ffffffffffffffffffffffffffffffffffffffff1673ffffffffffffffffffffffffffffffffffffffff166310fe9ae86040518163ffffffff167c0100000000000000000000000000000000000000000000000000000000028152600401602060405180830381600087803b158015610dbf57600080fd5b505af1158015610dd3573d6000803e3d6000fd5b505050506040513d601f19601f82011682018060405250610df79190810190611e1c565b73ffffffffffffffffffffffffffffffffffffffff1663a9059cbb600a60000185815481101515610e2457fe5b6000918252602090912001546040517c010000000000000000000000000000000000000000000000000000000063ffffffff8416028152610e809173ffffffffffffffffffffffffffffffffffffffff169085906004016122e3565b602060405180830381600087803b158015610e9a57600080fd5b505af1158015610eae573d6000803e3d6000fd5b505050506040513d601f19601f82011682018060405250610ed29190810190611e88565b50600a805484908110610ee157fe5b6000918252602090912001546040517f09b542bb00000000000000000000000000000000000000000000000000000000815273ffffffffffffffffffffffffffffffffffffffff909116906309b542bb90610f40908490600401612390565b600060405180830381600087803b158015610f5a57600080fd5b505af1158015610f6e573d6000803e3d6000fd5b505060019094019350610cb09050565b50505050565b6060600e600001805480602002602001604051908101604052809291908181526020018280548015610fec57602002820191906000526020600020905b815473ffffffffffffffffffffffffffffffffffffffff168152600190910190602001808311610fc1575b5050505050905090565b600254604080517f4c6962546f75726e616d656e7441646d696e4d6574686f64730000000000000081529051908190036019019020600091829182913373ffffffffffffffffffffffffffffffffffffffff90911681149183919061105a90610815565b73ffffffffffffffffffffffffffffffffffffffff16149050818061107c5750805b151561108757600080fd5b600261109161093c565b1461109b57600080fd5b73ffffffffffffffffffffffffffffffffffffffff881615156110bd57600080fd5b6003546002546040517f6c4074f700000000000000000000000000000000000000000000000000000000815273ffffffffffffffffffffffffffffffffffffffff92831692636c4074f79261111e928d928d92169030908d90600401612258565b602060405180830381600087803b15801561113857600080fd5b505af115801561114c573d6000803e3d6000fd5b505050506040513d601f19601f820116820180604052506111709190810190611e1c565b73ffffffffffffffffffffffffffffffffffffffff80821660008181526011602052604080822080547fffffffffffffffffffffffffffffffffffffffffffffffffffffffffffffff00166001908117909155600e805491820181559092527fbb7b4a454dc3493923482f07822329ed19e8244eff582cc204f8554c3620c3fd90910180547fffffffffffffffffffffffff000000000000000000000000000000000000000016909217909155517f6a44e43d000000000000000000000000000000000000000000000000000000008152919550881690636a44e43d9061125b908b9060040161224a565b602060405180830381600087803b15801561127557600080fd5b505af1158015611289573d6000803e3d6000fd5b505050506040513d601f19601f820116820180604052506112ad9190810190611e1c565b73ffffffffffffffffffffffffffffffffffffffff8116600090815260106020526040902054909350151561134d57600f80546001810182556000919091527f8d1108e10bcb7c27dddfc02ed9d693a074039d026cf4ea4240b40f7d581ac8020180547fffffffffffffffffffffffff00000000000000000000000000000000000000001673ffffffffffffffffffffffffffffffffffffffff8a161790555b73ffffffffffffffffffffffffffffffffffffffff83811660009081526010602090815260408083208054600181018255908452919092200180547fffffffffffffffffffffffff00000000000000000000000000000000000000001687841617905560025490517f4644c51b000000000000000000000000000000000000000000000000000000008152911690634644c51b906113ef90879060040161224a565b600060405180830381600087803b15801561140957600080fd5b505af115801561141d573d6000803e3d6000fd5b50959a9950505050505050505050565b600254604080517f4c6962546f75726e616d656e7441646d696e4d6574686f647300000000000000815290519081900360190190203373ffffffffffffffffffffffffffffffffffffffff90921682149160009161148a90610815565b73ffffffffffffffffffffffffffffffffffffffff1614905081806114ac5750805b15156114b757600080fd5b60065415156114c557600080fd5b60036114cf61093c565b146114d957600080fd5b6040517f6e86d66200000000000000000000000000000000000000000000000000000000815273__LibRound______________________________90636e86d6629061153190600590600a908990899060040161232b565b60006040518083038186803b15801561154957600080fd5b505af415801561155d573d6000803e3d6000fd5b5050505050505050565b60005473ffffffffffffffffffffffffffffffffffffffff1690565b60005473ffffffffffffffffffffffffffffffffffffffff1681565b60025473ffffffffffffffffffffffffffffffffffffffff1633146115c357600080fd5b6040517fb666875000000000000000000000000000000000000000000000000000000000815273__LibRound______________________________9063b6668750906116189060059086908690600401612368565b60006040518083038186803b15801561163057600080fd5b505af4158015611644573d6000803e3d6000fd5b505050505050565b60035473ffffffffffffffffffffffffffffffffffffffff1681565b73ffffffffffffffffffffffffffffffffffffffff1660009081526011602052604090205460ff1690565b60055490565b60015473ffffffffffffffffffffffffffffffffffffffff1681565b60005473ffffffffffffffffffffffffffffffffffffffff1633146116d957600080fd5b60009182526004602052604090912080547fffffffffffffffffffffffff00000000000000000000000000000000000000001673ffffffffffffffffffffffffffffffffffffffff909216919091179055565b60025473ffffffffffffffffffffffffffffffffffffffff16331461175057600080fd5b600461175a61093c565b1461176457600080fd5b600980547fffffffffffffffffffffffffffffffffffffffffffffffffffffffffffffff00166001179055565b60025473ffffffffffffffffffffffffffffffffffffffff1690565b6060600a600001805480602002602001604051908101604052809291908181526020018280548015610fec5760200282019190600052602060002090815473ffffffffffffffffffffffffffffffffffffffff168152600190910190602001808311610fc1575050505050905090565b60005473ffffffffffffffffffffffffffffffffffffffff16331461184157600080fd5b73ffffffffffffffffffffffffffffffffffffffff8116151561186357600080fd5b600080547fffffffffffffffffffffffff00000000000000000000000000000000000000001673ffffffffffffffffffffffffffffffffffffffff92909216919091179055565b60085490565b600154604080517f10fe9ae8000000000000000000000000000000000000000000000000000000008152905160009273ffffffffffffffffffffffffffffffffffffffff16916310fe9ae891600480830192602092919082900301818787803b15801561191c57600080fd5b505af1158015611930573d6000803e3d6000fd5b505050506040513d601f19601f820116820180604052506119549190810190611e1c565b73ffffffffffffffffffffffffffffffffffffffff166370a08231836040518263ffffffff167c01000000000000000000000000000000000000000000000000000000000281526004016119a8919061224a565b602060405180830381600087803b1580156119c257600080fd5b505af11580156119d6573d6000803e3d6000fd5b505050506040513d601f19601f820116820180604052506119fa9190810190611f45565b92915050565b600082821115611a0c57fe5b50900390565b600082820183811015611a2157fe5b9392505050565b6000828202831580611a445750828482811515611a4157fe5b04145b1515611a2157fe5b6000808284811515611a5a57fe5b04949350505050565b6000611a21823561241d565b6000611a21825161241d565b6000601f82018313611a8c57600080fd5b8135611a9f611a9a826123c5565b61239e565b91508181835260208401935060208101905083856020840282011115611ac457600080fd5b60005b83811015611af05781611ada8882611a63565b8452506020928301929190910190600101611ac7565b5050505092915050565b6000601f82018313611b0b57600080fd5b6002611b19611a9a826123e6565b91508183856020840282011115611b2f57600080fd5b60005b83811015611af05781611b458882611c44565b8452506020928301929190910190600101611b32565b6000601f82018313611b6c57600080fd5b6003611b7a611a9a826123e6565b91508183856020840282011115611b9057600080fd5b60005b83811015611af05781611ba68882611c44565b8452506020928301929190910190600101611b93565b6000601f82018313611bcd57600080fd5b8135611bdb611a9a826123c5565b91508181835260208401935060208101905083856020840282011115611c0057600080fd5b60005b83811015611af05781611c168882611c44565b8452506020928301929190910190600101611c03565b6000611a218235612436565b6000611a218251612436565b6000611a21823561240a565b600060a08284031215611c6257600080fd5b611c6c60a061239e565b90506000611c7a8484611c44565b8252506020611c8b84848301611c44565b6020830152506040611c9f84828501611c44565b6040830152506060611cb384828501611c44565b6060830152506080611cc784828501611c2c565b60808301525092915050565b600060808284031215611ce557600080fd5b611cef608061239e565b9050813567ffffffffffffffff811115611d0857600080fd5b611d1484828501611a7b565b825250602082013567ffffffffffffffff811115611d3157600080fd5b611d3d84828501611bbc565b6020830152506040611d5184828501611c44565b6040830152506060611d6584828501611c44565b60608301525092915050565b60006101208284031215611d8457600080fd5b611d8e60a061239e565b90506000611d9c8484611b5b565b8252506060611dad84848301611afa565b60208301525060a0611dc184828501611afa565b60408301525060e0611dd584828501611c44565b606083015250610100611cc784828501611c44565b6000611a21825161240a565b600060208284031215611e0857600080fd5b6000611e148484611a63565b949350505050565b600060208284031215611e2e57600080fd5b6000611e148484611a6f565b60008060006101608486031215611e5057600080fd5b6000611e5c8686611a63565b9350506020611e6d86828701611a63565b9250506040611e7e86828701611d71565b9150509250925092565b600060208284031215611e9a57600080fd5b6000611e148484611c38565b600060208284031215611eb857600080fd5b6000611e148484611c44565b60008060408385031215611ed757600080fd5b6000611ee38585611c44565b9250506020611ef485828601611a63565b9150509250929050565b60008060c08385031215611f1157600080fd5b823567ffffffffffffffff811115611f2857600080fd5b611f3485828601611cd3565b9250506020611ef485828601611c50565b600060208284031215611f5757600080fd5b6000611e148484611dea565b60008060c08385031215611f7657600080fd5b6000611f348585611c44565b611f8b8161241d565b82525050565b6000611f9c8261240d565b808452602084019350611fae83612404565b60005b82811015611fde57611fc4868351611f82565b611fcd82612404565b602096909601959150600101611fb1565b5093949350505050565b6000611ff38261240d565b80845260208401935061200583612404565b60005b82811015611fde5761201b868351611f82565b61202482612404565b602096909601959150600101612008565b61203e81612411565b6120478261240a565b60005b828110156120775761205d858351612116565b61206682612404565b60209590950194915060010161204a565b5050505050565b61208781612417565b6120908261240a565b60005b82811015612077576120a6858351612116565b6120af82612404565b602095909501949150600101612093565b60006120cb8261240d565b8084526020840193506120dd83612404565b60005b82811015611fde576120f3868351612116565b6120fc82612404565b6020969096019591506001016120e0565b611f8b81612436565b611f8b8161240a565b611f8b8161243b565b805160a08301906121398482612116565b50602082015161214c6020850182612116565b50604082015161215f6040850182612116565b5060608201516121726060850182612116565b506080820151610f7e608085018261210d565b9052565b80516080808452600091908401906121a18282611fe8565b915050602083015184820360208601526121bb82826120c0565b91505060408301516121d06040860182612116565b5060608301516121e36060860182612116565b509392505050565b80516101208301906121fd848261207e565b5060208201516122106060850182612035565b50604082015161222360a0850182612035565b50606082015161223660e0850182612116565b506080820151610f7e610100850182612116565b602081016119fa8284611f82565b6101a081016122678288611f82565b6122746020830187611f82565b6122816040830186611f82565b61228e606083018561211f565b61229b60808301846121eb565b9695505050505050565b608081016122b38287611f82565b6122c06020830186612185565b6122cd6040830185612185565b6122da6060830184612185565b95945050505050565b604081016122f18285611f82565b611a216020830184612116565b60208082528101611a218184611f91565b602081016119fa828461210d565b602081016119fa828461211f565b610100810161233a8287612185565b6123476020830186612185565b81810360408301526123598185612189565b90506122da6060830184612128565b60e081016123768286612185565b6123836020830185612116565b611e146040830184612128565b602081016119fa8284612116565b60405181810167ffffffffffffffff811182821017156123bd57600080fd5b604052919050565b600067ffffffffffffffff8211156123dc57600080fd5b5060209081020190565b600067ffffffffffffffff8211156123fd57600080fd5b5060200290565b60200190565b90565b5190565b50600290565b50600390565b73ffffffffffffffffffffffffffffffffffffffff1690565b151590565b60006119fa8261241d5600a265627a7a723058203fed0f8187214501203701bb5ec2f7c7659a0f5f18a69a170eac7f12b41a1cfb6c6578706572696d656e74616cf50037",
  "source": "pragma solidity ^0.4.18;\npragma experimental ABIEncoderV2;\n\nimport \"../libraries/math/SafeMath.sol\";\nimport \"../libraries/LibConstruction.sol\";\nimport \"../libraries/round/LibRound.sol\";\nimport \"../libraries/LibIterable.sol\";\nimport \"../libraries/LibEnums.sol\";\nimport \"../interfaces/IMatryxToken.sol\";\nimport \"../interfaces/IMatryxPlatform.sol\";\nimport \"../interfaces/IMatryxTournament.sol\";\nimport \"../interfaces/IMatryxRound.sol\";\nimport \"../interfaces/factories/IMatryxRoundFactory.sol\";\nimport \"../interfaces/factories/IMatryxSubmissionFactory.sol\";\nimport \"../interfaces/IMatryxSubmission.sol\";\nimport \"./Ownable.sol\";\n\n/// @title MatryxRound - A round within a Matryx tournament.\n/// @author Max Howard - <max@nanome.ai>, Sam Hessenauer - <sam@nanome.ai>\ncontract MatryxRound is Ownable, IMatryxRound {\n    using SafeMath for uint256;\n\n    // TODO: allow for refunds\n    // TODO: condense and put in structs\n\n    address public platformAddress;\n    address public tournamentAddress;\n    address public matryxSubmissionFactoryAddress;\n\n    //This will be the contract address for all the contracts we need to interact with\n    mapping(bytes32=>address) private contracts;\n\n    LibConstruction.RoundData data;\n    LibRound.SelectWinnersData winningSubmissionsData;\n    LibRound.SubmissionsData submissionsData;\n    LibRound.SubmissionAndEntrantTracking submissionEntrantTrackingData;\n\n    constructor(address _platformAddress, address _tournamentAddress, address _submissionFactoryAddress, address _owner, LibConstruction.RoundData _roundData) public\n    {\n        platformAddress = _platformAddress;\n        tournamentAddress = _tournamentAddress;\n        matryxSubmissionFactoryAddress = _submissionFactoryAddress;\n\n        owner = _owner;\n        data.bounty = _roundData.bounty;\n\n        bytes32 tournamentAdminLibHash = keccak256(\"LibTournamentAdminMethods\");\n        contracts[tournamentAdminLibHash] = IMatryxRoundFactory(msg.sender).getContractAddress(tournamentAdminLibHash);\n        scheduleStart(_roundData);\n    }\n\n    /*\n     * Modifiers\n     */\n\n    /// @dev Requires that this round is in the open submission state.\n    modifier duringOpenRound()\n    {\n        require(getState() == uint256(LibEnums.RoundState.Open));\n        _;\n    }\n\n    /// @dev Requires that this round is in the winner selection state.\n    modifier duringReviewPeriod()\n    {\n        require(data.end != 0);\n        require(getState() == uint256(LibEnums.RoundState.InReview));\n        _;\n    }\n\n    // @dev Requires that a winner has been selected for this round.\n    // modifier afterWinnerSelected()\n    // {\n    // \trequire(winningSubmissions[0] != 0x0);\n    // \t_;\n    // }\n\n    // Unused\n    // modifier onlySubmission()\n    // {\n    //     require(submissionEntrantTrackingData.submissionExists[msg.sender]);\n    //     _;\n    // }\n\n    modifier onlyTournament()\n    {\n        require(msg.sender == tournamentAddress);\n        _;\n    }\n\n    modifier onlyTournamentOrLib()\n    {\n        bool isTournament = msg.sender == tournamentAddress;\n        bool isLib = getContractAddress(keccak256(\"LibTournamentAdminMethods\")) == msg.sender;\n        require(isTournament || isLib);\n        _;\n    }\n\n    // Unused\n    /// @dev Requires that the desired submission is accessible to the requester.\n    // modifier whenAccessible(address _requester, uint256 _index)\n    // {\n    //     require(IMatryxSubmission(submissionsData.submissions[_index]).isAccessible(_requester));\n    //     _;\n    // }\n\n    function submissionExists(address _submissionAddress) public returns (bool)\n    {\n        return submissionEntrantTrackingData.submissionExists[_submissionAddress];\n    }\n\n    /// @dev Requires the function caller to be the platform or the owner of this tournament\n    // modifier tournamentOrOwner()\n    // {\n    //     require((msg.sender == tournamentAddress)||(msg.sender == owner));\n    //     _;\n    // }\n\n    // Unused\n    // @dev Requires that the sender be the submission's author.\n    // modifier onlySubmissionAuthor()\n    // {\n    //     require(submissionEntrantTrackingData.authorToSubmissionAddress[msg.sender].length != 0);\n    //     _;\n    // }\n\n    /*\n     * State Maintenance Methods\n     */\n\n    // function removeSubmission(address _submissionAddress) public onlyTournament returns (bool)\n    // {\n            // TODO: Implement with LLLLL (optimized linked list)\n    // \t}\n    // }\n\n    function addBounty(uint256 _mtxAllocation) public onlyTournamentOrLib\n    {\n        data.bounty = data.bounty.add(_mtxAllocation);\n    }\n\n    /*\n     * Access Control Methods\n     */\n\n    /// @dev Sets an address for a contract the platform should know about.\n    /// @param _nameHash Keccak256 hash of the name of the contract to give an address to.\n    /// @param _contractAddress Address to be assigned for the given contract name.\n    function setContractAddress(bytes32 _nameHash, address _contractAddress) public onlyOwner\n    {\n        contracts[_nameHash] = _contractAddress;\n    }\n\n    /// @dev Gets the address of a contract the platform knows about.\n    /// @param _nameHash Keccak256 hash of the name of the contract to look for.\n    /// @return Address of the contract with the designated name.\n    function getContractAddress(bytes32 _nameHash) public returns (address contractAddress)\n    {\n        return contracts[_nameHash];\n    }\n\n    //TODO - LLL THIS Function\n    // @dev Returns the state of the round.\n    // The round can be in one of 6 states:\n    // NotYetOpen, Open, InReview, HasWinners, Closed, Abandoned\n    function getState() public view returns (uint256)\n    {\n        return LibRound.getState(platformAddress, data, winningSubmissionsData, submissionsData);\n    }\n\n    /*\n     * Getter Methods\n     */\n\n    function getPlatform() public view returns (address) {\n        return platformAddress;\n    }\n\n    function getTournament() public view returns (address) {\n        return tournamentAddress;\n    }\n\n    function getStartTime() public view returns (uint256)\n    {\n        return data.start;\n    }\n\n    function getEndTime() public view returns (uint256)\n    {\n        return data.end;\n    }\n\n    function getBounty() public view returns (uint256)\n    {\n        return data.bounty;\n    }\n\n    function remainingBounty() public view returns (uint256)\n    {\n        return IMatryxToken(IMatryxPlatform(platformAddress).getTokenAddress()).balanceOf(this);\n    }\n\n    function getTokenAddress() public view returns (address)\n    {\n        return IMatryxPlatform(platformAddress).getTokenAddress();\n    }\n\n    /// @dev Returns all submissions made to this round.\n    /// @return _submissions All submissions made to this round.\n    function getSubmissions() public view returns (address[] _submissions)\n    {\n        return submissionsData.submissions;\n    }\n\n    /// @dev Returns the balance of a particular submission\n    /// @param _submissionAddress Address of the submission\n    /// @return Balance of the bounty\n    function getBalance(address _submissionAddress) public view returns (uint256)\n    {\n        return IMatryxToken(IMatryxPlatform(platformAddress).getTokenAddress()).balanceOf(_submissionAddress);\n    }\n\n    function getRoundBalance() public view returns (uint256)\n    {\n        return IMatryxToken(IMatryxPlatform(platformAddress).getTokenAddress()).balanceOf(this);\n    }\n\n    /// @dev Returns whether or not a winning submission has been chosen.\n    /// @return Whether or not a submission has been chosen.\n    function submissionsChosen() public view returns (bool)\n    {\n        return winningSubmissionsData.winningSubmissions.length != 0;\n    }\n\n    /// @dev Returns the index of this round's winning submission.\n    /// @return Index of the winning submission.\n    function getWinningSubmissionAddresses() public view returns (address[])\n    {\n        return winningSubmissionsData.winningSubmissions;\n    }\n\n    /// @dev Returns the number of submissions made to this round.\n    /// @return Number of submissions made to this round.\n    function numberOfSubmissions() public view returns (uint256)\n    {\n        return submissionsData.submissions.length;\n    }\n\n    /*\n     * Round Admin Methods\n     */\n\n\n    /// @dev Starts the round (callable only by the owner of the round).\n    function scheduleStart(LibConstruction.RoundData _roundData) internal\n    {\n        data.start = _roundData.start;\n        data.end = _roundData.end;\n        data.reviewPeriodDuration = _roundData.reviewPeriodDuration;\n    }\n\n    /// @dev Allows the tournament to edit the\n    function editRound(uint256 _currentRoundEndTime, LibConstruction.RoundData _roundData) public onlyTournament\n    {\n        LibRound.editRound(data, _currentRoundEndTime, _roundData);\n    }\n\n    function transferToTournament(uint256 _amount) public onlyTournament\n    {\n        require(getState() == uint256(LibEnums.RoundState.NotYetOpen));\n        require(IMatryxToken(IMatryxPlatform(platformAddress).getTokenAddress()).transfer(msg.sender, _amount));\n    }\n\n    /// @dev Choose a winning submission for the round (callable only by the owner of the round).\n    /// @param _selectWinnersData Data containing:\n    ///   winningSubmissions: Addresses of the winning submissions\n    ///   rewardDistribution: Distribution indicating how to split the MTX reward among the submissions\n    ///   rewardDistributionTotal: (Unused)\n    /// @param _roundData Data containing:\n    ///   start: Start time (seconds since unix-epoch) for next round\n    ///   end: End time (seconds since unix-epoch) for next round\n    ///   reviewPeriodDuration: Number of seconds to allow for winning submissions to be selected in next round\n    ///   bounty: Bounty in MTX for next round\n    ///   closed: (Unused)\n    function selectWinningSubmissions(LibRound.SelectWinnersData _selectWinnersData, LibConstruction.RoundData _roundData) public onlyTournamentOrLib duringReviewPeriod\n    {\n        LibRound.selectWinningSubmissions(data, winningSubmissionsData, _selectWinnersData, _roundData);\n    }\n\n    /// @dev Allows contributors to withdraw a portion of the round bounty if the round has been abandoned.\n    function transferBountyToTournament() public onlyTournament returns (uint256)\n    {\n        uint256 remaining = remainingBounty();\n        IMatryxToken(IMatryxPlatform(platformAddress).getTokenAddress()).transfer(tournamentAddress, remaining);\n        return remaining;\n    }\n\n    function transferAllToWinners(uint256 _tournamentBalance) public onlyTournament\n    {\n        for(uint256 i = 0; i < winningSubmissionsData.winningSubmissions.length; i++)\n        {\n            // Calculate total reward denominator and store it somewhere when\n            uint totalBalance = data.bounty.add(_tournamentBalance);\n            uint256 reward = winningSubmissionsData.rewardDistribution[i].mul(1*10**18).div(winningSubmissionsData.rewardDistributionTotal).mul(totalBalance).div(1*10**18);\n            // Transfer the reward to the submission\n            IMatryxToken(IMatryxPlatform(platformAddress).getTokenAddress()).transfer(winningSubmissionsData.winningSubmissions[i], reward);\n            IMatryxSubmission(winningSubmissionsData.winningSubmissions[i]).addToWinnings(reward);\n        }\n    }\n\n    function startNow() public onlyTournament\n    {\n        uint256 duration = data.end.sub(data.start);\n        data.start = now;\n        data.end = data.start.add(duration);\n    }\n\n    function closeRound() public onlyTournament\n    {\n        require(getState() == uint256(LibEnums.RoundState.HasWinners));\n        data.closed = true;\n    }\n\n    /*\n     * Entrant Methods\n     */\n\n    /// @dev Create a new submission. Called by MatryxTournament\n    /// @param _owner Owner of this submission.\n    /// @param submissionData The data of the submission. Includes:\n    ///\t\ttitle: Title of the submission.\n    ///\t\towner: The owner of the submission.\n    ///\t\tcontentHash: Off-chain content hash of submission details (ipfs hash)\n    ///\t\tcontributors: Contributors to this submission.\n    ///\t\tcontributorRewardDistribution: Informs how the reward should be distributed among the contributors\n    /// \tshould this submission win.\n    ///\t\treferences: Addresses of submissions referenced in creating this submission.\n    /// @return _submissionAddress Location of this submission within this round.\n    function createSubmission(address _owner, address platformAddress, LibConstruction.SubmissionData submissionData) public onlyTournamentOrLib duringOpenRound returns (address _submissionAddress)\n    {\n        require(_owner != 0x0);\n\n        address submissionAddress = IMatryxSubmissionFactory(matryxSubmissionFactoryAddress).createSubmission(_owner, platformAddress, tournamentAddress, this, submissionData);\n        // submission bookkeeping\n        submissionEntrantTrackingData.submissionExists[submissionAddress] = true;\n        submissionsData.submissions.push(submissionAddress);\n        // // TODO: Change to 'authors.push' once MatryxPeer is part of MatryxPlatform\n        address submissionAuthor = IMatryxPlatform(platformAddress).peerAddress(_owner);\n        if(submissionEntrantTrackingData.authorToSubmissionAddress[submissionAuthor].length == 0)\n        {\n            submissionsData.submissionOwners.push(_owner);\n        }\n\n        submissionEntrantTrackingData.authorToSubmissionAddress[submissionAuthor].push(submissionAddress);\n\n        IMatryxTournament(tournamentAddress).invokeSubmissionCreatedEvent(submissionAddress);\n        return submissionAddress;\n    }\n\n    // function pullPayoutIntoSubmission() public onlySubmission returns (uint256)\n    // {\n    //     require(getState() == uint256(LibEnums.RoundState.Closed));\n    //     // If the submission's already been paid, revert\n    //     require(submissionToHasBeenPayed[msg.sender] == false);\n    //     // If the tournament closed, we need to pull the tournament funds into this round.\n    //     if(IMatryxTournament(tournamentAddress).getState() == uint256(LibEnums.TournamentState.Closed) && remainingBounty() > 0)\n    //     {\n    //         IMatryxTournament(tournamentAddress).pullRemainingBountyIntoRound();\n    //     }\n\n    //     // Transfer the reward to its recipient if it deserves a reward (and mark that its been given out)\n\n    //     for(uint256 i = 0; i < winningSubmissions.length; i++)\n    //     {\n    //         if(msg.sender == winningSubmissions[i])\n    //         {\n    //             submissionToHasBeenPayed[msg.sender] = true;\n    //             // Calculate total reward denominator and store it somewhere when\n    //             uint256 reward = (rewardDistribution[i].mul(1*10**18).div(rewardDistributionTotal)).mul(bounty);\n    //             // Transfer the reward to the submission\n    //             IMatryxToken(matryxTokenAddress).transfer(msg.sender, reward);\n    //             return reward;\n    //         }\n    //     }\n\n    //     // TODO:\n    //     // Or we could never transfer funds to the round in the first place.\n    //     // This would allow this function to exist on the tournament instead of the round.\n    //     // I'd need to reintroduce bountyLeft so that the tournament knew how much is left for the round.\n    //     // If I reintroduced it, it would be to the tournament, so that submission.withdrawReward wouldn't have to call round.bountyLeft to figure out how much to ask the tournament for.\n    //     // The tournament would just transfer as much as the submission deserved into it.\n    //     // bountyLeft would be stored as a value under a rounds structure.\n    //     // This would eventually involve writing a library to do round functions.\n    //     // For now, this can be a hardcoded library.\n    //     // Eventually, this library will be part of the upgrade system.\n    //     // Upgrade system will eventually allow for data, data migration and code contracts to exist and be swapped per contract\n    //     // All data and code contract addresses will be sourced from one contract, the MatryxVersionManager.\n    //     // This contract will also contain data migrators to migrate from one version to another (for when data structures change)\n    // }\n}\n",
  "sourcePath": "/Users/maxhoward/Desktop/Ethereum/MatryxPlatform/contracts/MatryxRound.sol",
  "compiler": {
    "name": "solc",
    "version": "0.4.24+commit.e67f0147.Emscripten.clang"
  },
  "schemaVersion": "2.0.1",
  "updatedAt": "2018-08-01T22:01:21.913Z"
}