{
  "contractName": "MatryxPlatform",
  "abi": [
    {
      "constant": true,
      "inputs": [],
      "name": "matryxTournamentFactoryAddress",
      "outputs": [
        {
          "name": "",
          "type": "address"
        }
      ],
      "payable": false,
      "stateMutability": "view",
      "type": "function"
    },
    {
      "constant": true,
      "inputs": [],
      "name": "matryxTokenAddress",
      "outputs": [
        {
          "name": "",
          "type": "address"
        }
      ],
      "payable": false,
      "stateMutability": "view",
      "type": "function"
    },
    {
      "constant": true,
      "inputs": [
        {
          "name": "_sender",
          "type": "address"
        }
      ],
      "name": "isOwner",
      "outputs": [
        {
          "name": "_isOwner",
          "type": "bool"
        }
      ],
      "payable": false,
      "stateMutability": "view",
      "type": "function"
    },
    {
      "constant": true,
      "inputs": [
        {
          "name": "",
          "type": "bytes32"
        }
      ],
      "name": "categoryIterator",
      "outputs": [
        {
          "name": "name",
          "type": "string"
        },
        {
          "name": "count",
          "type": "uint128"
        },
        {
          "name": "prev",
          "type": "bytes32"
        },
        {
          "name": "next",
          "type": "bytes32"
        }
      ],
      "payable": false,
      "stateMutability": "view",
      "type": "function"
    },
    {
      "constant": true,
      "inputs": [],
      "name": "hashOfLastCategory",
      "outputs": [
        {
          "name": "",
          "type": "bytes32"
        }
      ],
      "payable": false,
      "stateMutability": "view",
      "type": "function"
    },
    {
      "constant": true,
      "inputs": [
        {
          "name": "",
          "type": "address"
        }
      ],
      "name": "peerExists",
      "outputs": [
        {
          "name": "",
          "type": "bool"
        }
      ],
      "payable": false,
      "stateMutability": "view",
      "type": "function"
    },
    {
      "constant": true,
      "inputs": [
        {
          "name": "",
          "type": "uint256"
        }
      ],
      "name": "topCategoryByCount",
      "outputs": [
        {
          "name": "",
          "type": "bytes32"
        }
      ],
      "payable": false,
      "stateMutability": "view",
      "type": "function"
    },
    {
      "constant": true,
      "inputs": [],
      "name": "getOwner",
      "outputs": [
        {
          "name": "_owner",
          "type": "address"
        }
      ],
      "payable": false,
      "stateMutability": "view",
      "type": "function"
    },
    {
      "constant": true,
      "inputs": [],
      "name": "matryxRoundLibAddress",
      "outputs": [
        {
          "name": "",
          "type": "address"
        }
      ],
      "payable": false,
      "stateMutability": "view",
      "type": "function"
    },
    {
      "constant": true,
      "inputs": [],
      "name": "owner",
      "outputs": [
        {
          "name": "",
          "type": "address"
        }
      ],
      "payable": false,
      "stateMutability": "view",
      "type": "function"
    },
    {
      "constant": true,
      "inputs": [
        {
          "name": "",
          "type": "address"
        }
      ],
      "name": "ownerToPeerAndPeerToOwner",
      "outputs": [
        {
          "name": "",
          "type": "address"
        }
      ],
      "payable": false,
      "stateMutability": "view",
      "type": "function"
    },
    {
      "constant": true,
      "inputs": [],
      "name": "matryxPeerFactoryAddress",
      "outputs": [
        {
          "name": "",
          "type": "address"
        }
      ],
      "payable": false,
      "stateMutability": "view",
      "type": "function"
    },
    {
      "constant": true,
      "inputs": [],
      "name": "hashOfTopCategory",
      "outputs": [
        {
          "name": "",
          "type": "bytes32"
        }
      ],
      "payable": false,
      "stateMutability": "view",
      "type": "function"
    },
    {
      "constant": true,
      "inputs": [],
      "name": "matryxSubmissionFactoryAddress",
      "outputs": [
        {
          "name": "",
          "type": "address"
        }
      ],
      "payable": false,
      "stateMutability": "view",
      "type": "function"
    },
    {
      "constant": true,
      "inputs": [],
      "name": "matryxSubmissionTrustLibAddress",
      "outputs": [
        {
          "name": "",
          "type": "address"
        }
      ],
      "payable": false,
      "stateMutability": "view",
      "type": "function"
    },
    {
      "constant": true,
      "inputs": [
        {
          "name": "",
          "type": "uint256"
        }
      ],
      "name": "categoryList",
      "outputs": [
        {
          "name": "",
          "type": "string"
        }
      ],
      "payable": false,
      "stateMutability": "view",
      "type": "function"
    },
    {
      "constant": true,
      "inputs": [
        {
          "name": "",
          "type": "uint256"
        }
      ],
      "name": "allTournaments",
      "outputs": [
        {
          "name": "",
          "type": "address"
        }
      ],
      "payable": false,
      "stateMutability": "view",
      "type": "function"
    },
    {
      "constant": false,
      "inputs": [
        {
          "name": "newOwner",
          "type": "address"
        }
      ],
      "name": "transferOwnership",
      "outputs": [],
      "payable": false,
      "stateMutability": "nonpayable",
      "type": "function"
    },
    {
      "inputs": [
        {
          "name": "_matryxTokenAddress",
          "type": "address"
        },
        {
          "name": "_matryxPeerFactoryAddress",
          "type": "address"
        },
        {
          "name": "_matryxTournamentFactoryAddress",
          "type": "address"
        },
        {
          "name": "_matryxSubmissionFactoryAddress",
          "type": "address"
        },
        {
          "name": "_matryxSubmissionTrustLibAddress",
          "type": "address"
        }
      ],
      "payable": false,
      "stateMutability": "nonpayable",
      "type": "constructor"
    },
    {
      "anonymous": false,
      "inputs": [
        {
          "indexed": false,
          "name": "_discipline",
          "type": "string"
        },
        {
          "indexed": false,
          "name": "_owner",
          "type": "address"
        },
        {
          "indexed": false,
          "name": "_tournamentAddress",
          "type": "address"
        },
        {
          "indexed": false,
          "name": "_tournamentName_1",
          "type": "bytes32"
        },
        {
          "indexed": false,
          "name": "_tournamentName_2",
          "type": "bytes32"
        },
        {
          "indexed": false,
          "name": "_tournamentName_3",
          "type": "bytes32"
        },
        {
          "indexed": false,
          "name": "_externalAddress_1",
          "type": "bytes32"
        },
        {
          "indexed": false,
          "name": "_externalAddress_2",
          "type": "bytes32"
        },
        {
          "indexed": false,
          "name": "_MTXReward",
          "type": "uint256"
        },
        {
          "indexed": false,
          "name": "_entryFee",
          "type": "uint256"
        }
      ],
      "name": "TournamentCreated",
      "type": "event"
    },
    {
      "anonymous": false,
      "inputs": [
        {
          "indexed": false,
          "name": "_owner",
          "type": "address"
        },
        {
          "indexed": false,
          "name": "_tournamentAddress",
          "type": "address"
        },
        {
          "indexed": false,
          "name": "_tournamentName_1",
          "type": "bytes32"
        },
        {
          "indexed": false,
          "name": "_tournamentName_2",
          "type": "bytes32"
        },
        {
          "indexed": false,
          "name": "_tournamentName_3",
          "type": "bytes32"
        },
        {
          "indexed": false,
          "name": "_externalAddress_1",
          "type": "bytes32"
        },
        {
          "indexed": false,
          "name": "_externalAddress_2",
          "type": "bytes32"
        },
        {
          "indexed": false,
          "name": "_MTXReward",
          "type": "uint256"
        },
        {
          "indexed": false,
          "name": "_entryFee",
          "type": "uint256"
        }
      ],
      "name": "TournamentOpened",
      "type": "event"
    },
    {
      "anonymous": false,
      "inputs": [
        {
          "indexed": false,
          "name": "_tournamentAddress",
          "type": "address"
        },
        {
          "indexed": false,
          "name": "_finalRoundNumber",
          "type": "uint256"
        },
        {
          "indexed": false,
          "name": "_MTXReward",
          "type": "uint256"
        }
      ],
      "name": "TournamentClosed",
      "type": "event"
    },
    {
      "anonymous": false,
      "inputs": [
        {
          "indexed": false,
          "name": "_entrant",
          "type": "address"
        },
        {
          "indexed": false,
          "name": "_tournamentAddress",
          "type": "address"
        }
      ],
      "name": "UserEnteredTournament",
      "type": "event"
    },
    {
      "anonymous": false,
      "inputs": [
        {
          "indexed": false,
          "name": "queryID",
          "type": "string"
        }
      ],
      "name": "QueryID",
      "type": "event"
    },
    {
      "constant": false,
      "inputs": [
        {
          "name": "_owner",
          "type": "address"
        },
        {
          "name": "_tournamentName_1",
          "type": "bytes32"
        },
        {
          "name": "_tournamentName_2",
          "type": "bytes32"
        },
        {
          "name": "_tournamentName_3",
          "type": "bytes32"
        },
        {
          "name": "_externalAddress_1",
          "type": "bytes32"
        },
        {
          "name": "_externalAddress_2",
          "type": "bytes32"
        },
        {
          "name": "_MTXReward",
          "type": "uint256"
        },
        {
          "name": "_entryFee",
          "type": "uint256"
        }
      ],
      "name": "invokeTournamentOpenedEvent",
      "outputs": [],
      "payable": false,
      "stateMutability": "nonpayable",
      "type": "function"
    },
    {
      "constant": false,
      "inputs": [
        {
          "name": "_finalRoundNumber",
          "type": "uint256"
        },
        {
          "name": "_MTXReward",
          "type": "uint256"
        }
      ],
      "name": "invokeTournamentClosedEvent",
      "outputs": [],
      "payable": false,
      "stateMutability": "nonpayable",
      "type": "function"
    },
    {
      "constant": false,
      "inputs": [
        {
          "name": "_submissionAddress",
          "type": "address"
        },
        {
          "name": "_references",
          "type": "address[]"
        }
      ],
      "name": "handleReferenceRequestsForSubmission",
      "outputs": [
        {
          "name": "",
          "type": "bool"
        }
      ],
      "payable": false,
      "stateMutability": "nonpayable",
      "type": "function"
    },
    {
      "constant": false,
      "inputs": [
        {
          "name": "_reference",
          "type": "address"
        }
      ],
      "name": "handleReferenceRequestForSubmission",
      "outputs": [
        {
          "name": "",
          "type": "bool"
        }
      ],
      "payable": false,
      "stateMutability": "nonpayable",
      "type": "function"
    },
    {
      "constant": false,
      "inputs": [
        {
          "name": "_reference",
          "type": "address"
        }
      ],
      "name": "handleCancelledReferenceRequestForSubmission",
      "outputs": [
        {
          "name": "",
          "type": "bool"
        }
      ],
      "payable": false,
      "stateMutability": "nonpayable",
      "type": "function"
    },
    {
      "constant": false,
      "inputs": [
        {
          "name": "_owner",
          "type": "address"
        },
        {
          "name": "_submission",
          "type": "address"
        }
      ],
      "name": "updateSubmissions",
      "outputs": [],
      "payable": false,
      "stateMutability": "nonpayable",
      "type": "function"
    },
    {
      "constant": false,
      "inputs": [
        {
          "name": "_submissionAddress",
          "type": "address"
        },
        {
          "name": "_tournamentAddress",
          "type": "address"
        }
      ],
      "name": "removeSubmission",
      "outputs": [
        {
          "name": "",
          "type": "bool"
        }
      ],
      "payable": false,
      "stateMutability": "nonpayable",
      "type": "function"
    },
    {
      "constant": true,
      "inputs": [
        {
          "name": "_category",
          "type": "string"
        }
      ],
      "name": "getTournamentsByCategory",
      "outputs": [
        {
          "name": "",
          "type": "address[]"
        }
      ],
      "payable": false,
      "stateMutability": "view",
      "type": "function"
    },
    {
      "constant": true,
      "inputs": [
        {
          "name": "_category",
          "type": "string"
        }
      ],
      "name": "getCategoryCount",
      "outputs": [
        {
          "name": "",
          "type": "uint256"
        }
      ],
      "payable": false,
      "stateMutability": "view",
      "type": "function"
    },
    {
      "constant": true,
      "inputs": [
        {
          "name": "_index",
          "type": "uint256"
        }
      ],
      "name": "getTopCategory",
      "outputs": [
        {
          "name": "",
          "type": "string"
        }
      ],
      "payable": false,
      "stateMutability": "view",
      "type": "function"
    },
    {
      "constant": true,
      "inputs": [
        {
          "name": "_index",
          "type": "uint256"
        }
      ],
      "name": "getCategoryByIndex",
      "outputs": [
        {
          "name": "",
          "type": "string"
        }
      ],
      "payable": false,
      "stateMutability": "view",
      "type": "function"
    },
    {
      "constant": false,
      "inputs": [
        {
          "name": "_tournamentAddress",
          "type": "address"
        }
      ],
      "name": "enterTournament",
      "outputs": [
        {
          "name": "_success",
          "type": "bool"
        }
      ],
      "payable": false,
      "stateMutability": "nonpayable",
      "type": "function"
    },
    {
      "constant": false,
      "inputs": [
        {
          "name": "_category",
          "type": "string"
        },
        {
          "components": [
            {
              "name": "categoryHash",
              "type": "bytes32"
            },
            {
              "name": "title_1",
              "type": "bytes32"
            },
            {
              "name": "title_2",
              "type": "bytes32"
            },
            {
              "name": "title_3",
              "type": "bytes32"
            },
            {
              "name": "descriptionHash_1",
              "type": "bytes32"
            },
            {
              "name": "descriptionHash_2",
              "type": "bytes32"
            },
            {
              "name": "bounty",
              "type": "uint256"
            },
            {
              "name": "entryFee",
              "type": "uint256"
            }
          ],
          "name": "tournamentData",
          "type": "tuple"
        },
        {
          "components": [
            {
              "name": "start",
              "type": "uint256"
            },
            {
              "name": "end",
              "type": "uint256"
            },
            {
              "name": "reviewDuration",
              "type": "uint256"
            },
            {
              "name": "bounty",
              "type": "uint256"
            }
          ],
          "name": "roundData",
          "type": "tuple"
        }
      ],
      "name": "createTournament",
      "outputs": [
        {
          "name": "_tournamentAddress",
          "type": "address"
        }
      ],
      "payable": false,
      "stateMutability": "nonpayable",
      "type": "function"
    },
    {
      "constant": false,
      "inputs": [],
      "name": "createPeer",
      "outputs": [
        {
          "name": "",
          "type": "address"
        }
      ],
      "payable": false,
      "stateMutability": "nonpayable",
      "type": "function"
    },
    {
      "constant": true,
      "inputs": [
        {
          "name": "_peerAddress",
          "type": "address"
        }
      ],
      "name": "isPeer",
      "outputs": [
        {
          "name": "",
          "type": "bool"
        }
      ],
      "payable": false,
      "stateMutability": "view",
      "type": "function"
    },
    {
      "constant": true,
      "inputs": [
        {
          "name": "_sender",
          "type": "address"
        }
      ],
      "name": "hasPeer",
      "outputs": [
        {
          "name": "",
          "type": "bool"
        }
      ],
      "payable": false,
      "stateMutability": "view",
      "type": "function"
    },
    {
      "constant": true,
      "inputs": [
        {
          "name": "_peer",
          "type": "address"
        },
        {
          "name": "_reference",
          "type": "address"
        }
      ],
      "name": "peerExistsAndOwnsSubmission",
      "outputs": [
        {
          "name": "",
          "type": "bool"
        }
      ],
      "payable": false,
      "stateMutability": "view",
      "type": "function"
    },
    {
      "constant": true,
      "inputs": [
        {
          "name": "_sender",
          "type": "address"
        }
      ],
      "name": "peerAddress",
      "outputs": [
        {
          "name": "",
          "type": "address"
        }
      ],
      "payable": false,
      "stateMutability": "view",
      "type": "function"
    },
    {
      "constant": true,
      "inputs": [
        {
          "name": "_submissionAddress",
          "type": "address"
        }
      ],
      "name": "isSubmission",
      "outputs": [
        {
          "name": "",
          "type": "bool"
        }
      ],
      "payable": false,
      "stateMutability": "view",
      "type": "function"
    },
    {
      "constant": true,
      "inputs": [
        {
          "name": "_categoryHash",
          "type": "bytes32"
        }
      ],
      "name": "hashForCategory",
      "outputs": [
        {
          "name": "_category",
          "type": "string"
        }
      ],
      "payable": false,
      "stateMutability": "view",
      "type": "function"
    },
    {
      "constant": true,
      "inputs": [
        {
          "name": "_tournamentAddress",
          "type": "address"
        }
      ],
      "name": "getTournament_IsMine",
      "outputs": [
        {
          "name": "_isMine",
          "type": "bool"
        }
      ],
      "payable": false,
      "stateMutability": "view",
      "type": "function"
    },
    {
      "constant": false,
      "inputs": [
        {
          "name": "_gratitude",
          "type": "uint256"
        }
      ],
      "name": "setSubmissionGratitude",
      "outputs": [],
      "payable": false,
      "stateMutability": "nonpayable",
      "type": "function"
    },
    {
      "constant": true,
      "inputs": [],
      "name": "getTokenAddress",
      "outputs": [
        {
          "name": "",
          "type": "address"
        }
      ],
      "payable": false,
      "stateMutability": "view",
      "type": "function"
    },
    {
      "constant": true,
      "inputs": [],
      "name": "getSubmissionTrustLibrary",
      "outputs": [
        {
          "name": "",
          "type": "address"
        }
      ],
      "payable": false,
      "stateMutability": "view",
      "type": "function"
    },
    {
      "constant": true,
      "inputs": [],
      "name": "getSubmissionGratitude",
      "outputs": [
        {
          "name": "",
          "type": "uint256"
        }
      ],
      "payable": false,
      "stateMutability": "view",
      "type": "function"
    },
    {
      "constant": true,
      "inputs": [],
      "name": "myTournaments",
      "outputs": [
        {
          "name": "",
          "type": "address[]"
        }
      ],
      "payable": false,
      "stateMutability": "view",
      "type": "function"
    },
    {
      "constant": true,
      "inputs": [],
      "name": "mySubmissions",
      "outputs": [
        {
          "name": "",
          "type": "address[]"
        }
      ],
      "payable": false,
      "stateMutability": "view",
      "type": "function"
    },
    {
      "constant": true,
      "inputs": [],
      "name": "tournamentCount",
      "outputs": [
        {
          "name": "_tournamentCount",
          "type": "uint256"
        }
      ],
      "payable": false,
      "stateMutability": "view",
      "type": "function"
    },
    {
      "constant": true,
      "inputs": [
        {
          "name": "_index",
          "type": "uint256"
        }
      ],
      "name": "getTournamentAtIndex",
      "outputs": [
        {
          "name": "_tournamentAddress",
          "type": "address"
        }
      ],
      "payable": false,
      "stateMutability": "view",
      "type": "function"
    }
  ],
  "bytecode": "0x60c0604052600160808190526702c68af0bb14000060a08190526015805460ff19169092179091556016553480156200003757600080fd5b5060405160a080620037ee8339810180604052620000599190810190620000db565b6000805433600160a060020a031991821617909155600180548216600160a060020a03978816179055600280548216958716959095179094556003805485169386169390931790925560048054841691851691909117905560058054909216921691909117905562000167565b6000620000d482516200015b565b9392505050565b600080600080600060a08688031215620000f457600080fd5b6000620001028888620000c6565b95505060206200011588828901620000c6565b94505060406200012888828901620000c6565b93505060606200013b88828901620000c6565b92505060806200014e88828901620000c6565b9150509295509295909350565b600160a060020a031690565b61367780620001776000396000f30060806040526004361061023a5763ffffffff7c010000000000000000000000000000000000000000000000000000000060003504166310fe9ae8811461023f5780631411f0a81461026a5780631d2245f51461029757806327252a0c146102b957806329cc545e146102ce5780632f54bf6e146102e35780633e44cf7814610310578063493a7af3146103305780634cbb12a91461036057806351488bce14610382578063532311c4146103a25780636a44e43d146103c25780636e2b2c7c146103e257806370e592b8146103f75780637cb997b714610417578063818b5fa8146104375780638423e63e14610457578063893d20e8146104775780638ac702721461048c5780638c593a8c146104a15780638d1d498c146104c15780638da5cb5b146104e1578063984ed206146104f657806399db60dd14610516578063a2d0ab4714610536578063a923251e1461054b578063a968c4b91461056d578063ab9583d91461058d578063ac17741b146105ad578063ae945a36146105cd578063b0ff5492146105e2578063b20a2dce146105f7578063b2fad5541461060c578063b846e21c1461062c578063c13ae92a14610641578063c21260a514610661578063c839984a14610681578063d4f056d4146106a1578063e139a20c146106c1578063e14feaea146106d6578063e6493561146106f6578063e8a0ed0d14610716578063f2fde38b14610736578063f3dc0d2514610756578063f7468a3c1461076b578063f7c3609d1461078b578063fb5032d6146107a0575b600080fd5b34801561024b57600080fd5b506102546107c0565b60405161026191906132e7565b60405180910390f35b34801561027657600080fd5b5061028a61028536600461302d565b6107dd565b6040516102619190613421565b3480156102a357600080fd5b506102ac610888565b60405161026191906133d9565b3480156102c557600080fd5b50610254610900565b3480156102da57600080fd5b5061025461091c565b3480156102ef57600080fd5b506103036102fe366004612e99565b610938565b60405161026191906133ea565b34801561031c57600080fd5b5061030361032b366004612e99565b610959565b34801561033c57600080fd5b5061035061034b36600461302d565b610984565b6040516102619493929190613509565b34801561036c57600080fd5b50610375610a4c565b60405161026191906133f8565b34801561038e57600080fd5b5061030361039d366004612edd565b610a52565b3480156103ae57600080fd5b506103036103bd366004612e99565b610ad6565b3480156103ce57600080fd5b506102546103dd366004612e99565b610b03565b3480156103ee57600080fd5b50610375610b2e565b34801561040357600080fd5b50610303610412366004612e99565b610b34565b34801561042357600080fd5b5061028a61043236600461302d565b610b49565b34801561044357600080fd5b50610303610452366004612e99565b610c2b565b34801561046357600080fd5b5061037561047236600461302d565b610c56565b34801561048357600080fd5b50610254610c68565b34801561049857600080fd5b50610254610c84565b3480156104ad57600080fd5b506103036104bc366004612f17565b610ca0565b3480156104cd57600080fd5b5061028a6104dc36600461302d565b610ebc565b3480156104ed57600080fd5b50610254610ef4565b34801561050257600080fd5b5061025461051136600461302d565b610f10565b34801561052257600080fd5b50610254610531366004612e99565b610f63565b34801561054257600080fd5b50610254610f8b565b34801561055757600080fd5b5061056b610566366004612f5f565b610fa7565b005b34801561057957600080fd5b50610303610588366004612edd565b611016565b34801561059957600080fd5b5061056b6105a8366004612edd565b6112c9565b3480156105b957600080fd5b506102ac6105c836600461304b565b6113ad565b3480156105d957600080fd5b50610375611458565b3480156105ee57600080fd5b5061025461145e565b34801561060357600080fd5b5061037561147a565b34801561061857600080fd5b50610303610627366004612e99565b611495565b34801561063857600080fd5b50610254611676565b34801561064d57600080fd5b5061056b61065c36600461302d565b611692565b34801561066d57600080fd5b5061028a61067c36600461302d565b611700565b34801561068d57600080fd5b5061025461069c36600461302d565b6117a7565b3480156106ad57600080fd5b506103756106bc36600461304b565b6117dc565b3480156106cd57600080fd5b506102ac61182b565b3480156106e257600080fd5b5061056b6106f1366004613111565b6118a1565b34801561070257600080fd5b5061025461071136600461308d565b6118fe565b34801561072257600080fd5b50610303610731366004612e99565b611bf7565b34801561074257600080fd5b5061056b610751366004612e99565b611d01565b34801561076257600080fd5b50610254611d83565b34801561077757600080fd5b50610303610786366004612e99565b611d9f565b34801561079757600080fd5b50610254612031565b3480156107ac57600080fd5b506103036107bb366004612e99565b612183565b60015473ffffffffffffffffffffffffffffffffffffffff165b90565b6060600c828154811015156107ee57fe5b600091825260209182902001805460408051601f600260001961010060018716150201909416939093049283018590048502810185019091528181529283018282801561087c5780601f106108515761010080835404028352916020019161087c565b820191906000526020600020905b81548152906001019060200180831161085f57829003601f168201915b50505050509050919050565b336000908152601260209081526040918290208054835181840281018401909452808452606093928301828280156108f657602002820191906000526020600020905b815473ffffffffffffffffffffffffffffffffffffffff1681526001909101906020018083116108cb575b5050505050905090565b60035473ffffffffffffffffffffffffffffffffffffffff1681565b60015473ffffffffffffffffffffffffffffffffffffffff1681565b60005473ffffffffffffffffffffffffffffffffffffffff91821691161490565b73ffffffffffffffffffffffffffffffffffffffff166000908152600d602052604090205460ff1690565b600b6020908152600091825260409182902080548351601f60026000196101006001861615020190931692909204918201849004840281018401909452808452909291839190830182828015610a1b5780601f106109f057610100808354040283529160200191610a1b565b820191906000526020600020905b8154815290600101906020018083116109fe57829003601f168201915b505050506001830154600284015460039094015492936fffffffffffffffffffffffffffffffff9091169290915084565b60095481565b73ffffffffffffffffffffffffffffffffffffffff8083166000818152600d60209081526040808320548686168085526011845282852054958552600e8452828520549096168452600f835281842095845294909152812054909260ff9081169281169116828015610ac15750815b8015610aca5750805b93505b50505092915050565b73ffffffffffffffffffffffffffffffffffffffff9081166000908152600e602052604090205416151590565b73ffffffffffffffffffffffffffffffffffffffff9081166000908152600e60205260409020541690565b60075490565b600d6020526000908152604090205460ff1681565b6008546000818152600b602052604090206060919060015b848111610b96576000928352600b60205260408084206003015480855293209150821515610b8e57610b96565b600101610b61565b8154604080516020601f60026000196101006001881615020190951694909404938401819004810282018101909252828152918491830182828015610c1c5780601f10610bf157610100808354040283529160200191610c1c565b820191906000526020600020905b815481529060010190602001808311610bff57829003601f168201915b50505050509350505050919050565b73ffffffffffffffffffffffffffffffffffffffff1660009081526011602052604090205460ff1690565b600a6020526000908152604090205481565b60005473ffffffffffffffffffffffffffffffffffffffff1690565b60065473ffffffffffffffffffffffffffffffffffffffff1681565b33600090815260106020526040812054819081908190819060ff161515610cc657600080fd5b600093505b8551841015610eb2578584815181101515610ce257fe5b906020019060200201519250610cf783610c2b565b1515610d0257610ea7565b8291508173ffffffffffffffffffffffffffffffffffffffff1663a5faa1256040518163ffffffff167c0100000000000000000000000000000000000000000000000000000000028152600401602060405180830381600087803b158015610d6957600080fd5b505af1158015610d7d573d6000803e3d6000fd5b505050506040513d601f19601f82011682018060405250610da19190810190612ebf565b6040517fd1bbd31200000000000000000000000000000000000000000000000000000000815290915073ffffffffffffffffffffffffffffffffffffffff82169063d1bbd31290610df8908a9087906004016132f5565b600060405180830381600087803b158015610e1257600080fd5b505af1158015610e26573d6000803e3d6000fd5b505050508173ffffffffffffffffffffffffffffffffffffffff1663c7af35516040518163ffffffff167c0100000000000000000000000000000000000000000000000000000000028152600401600060405180830381600087803b158015610e8e57600080fd5b505af1158015610ea2573d6000803e3d6000fd5b505050505b600190930192610ccb565b5050505092915050565b5060408051808201909152601281527f74656d706f726172792063617465676f72790000000000000000000000000000602082015290565b60005473ffffffffffffffffffffffffffffffffffffffff1681565b600080821015610f1f57600080fd5b6007548210610f2d57600080fd5b6007805483908110610f3b57fe5b60009182526020909120015473ffffffffffffffffffffffffffffffffffffffff1692915050565b600e6020526000908152604090205473ffffffffffffffffffffffffffffffffffffffff1681565b60025473ffffffffffffffffffffffffffffffffffffffff1681565b3360009081526010602052604090205460ff161515610fc557600080fd5b7f67463a82a3de9d3302dd325602c0b0ac0ba5437fa8e04a6aeb8b218be7d7d54b88338989898989898960405161100499989796959493929190613310565b60405180910390a15050505050505050565b336000908152600f6020908152604080832073ffffffffffffffffffffffffffffffffffffffff8616845290915281205481908190819060ff16151561105b57600080fd5b73ffffffffffffffffffffffffffffffffffffffff851660009081526010602052604090205460ff16151561108f57600080fd5b73ffffffffffffffffffffffffffffffffffffffff861660009081526011602052604090205460ff1615156110c357600080fd5b8592508573ffffffffffffffffffffffffffffffffffffffff1663893d20e86040518163ffffffff167c0100000000000000000000000000000000000000000000000000000000028152600401602060405180830381600087803b15801561112a57600080fd5b505af115801561113e573d6000803e3d6000fd5b505050506040513d601f19601f820116820180604052506111629190810190612ebf565b73ffffffffffffffffffffffffffffffffffffffff8082166000818152601460209081526040808320948c1683529381528382206001015460118252848320805460ff191690559282526013905291909120805492945090925090829081106111c757fe5b60009182526020808320909101805473ffffffffffffffffffffffffffffffffffffffff1916905573ffffffffffffffffffffffffffffffffffffffff84811683526014825260408084208a83168552909252818320805460ff1916815560010192909255517fa968c4b90000000000000000000000000000000000000000000000000000000081529086169063a968c4b99061126a90899086906004016132f5565b602060405180830381600087803b15801561128457600080fd5b505af1158015611298573d6000803e3d6000fd5b505050506040513d601f19601f820116820180604052506112bc919081019061300f565b5060019695505050505050565b3360009081526010602052604090205460ff1615156112e757600080fd5b604080518082018252600180825273ffffffffffffffffffffffffffffffffffffffff948516600081815260136020908152858220805482870190815284845260148352878420989099168084529782528683209551865490151560ff1991821617875598519585019590955584548085018655948252808220909401805473ffffffffffffffffffffffffffffffffffffffff191687179055908152600f83528381209481529382528284208054861682179055601190915291208054909216179055565b6060600b600084846040518083838082843782019150509250505060405180910390206000191660001916815260200190815260200160002060040180548060200260200160405190810160405280929190818152602001828054801561144a57602002820191906000526020600020905b815473ffffffffffffffffffffffffffffffffffffffff16815260019091019060200180831161141f575b505050505090505b92915050565b60085481565b60045473ffffffffffffffffffffffffffffffffffffffff1681565b60155460009060ff16151561148e57600080fd5b5060165490565b336000908152601160205260408120548190819060ff1615156114b757600080fd5b6114c084610c2b565b15156114cb57600080fd5b8391508173ffffffffffffffffffffffffffffffffffffffff1663a5faa1256040518163ffffffff167c0100000000000000000000000000000000000000000000000000000000028152600401602060405180830381600087803b15801561153257600080fd5b505af1158015611546573d6000803e3d6000fd5b505050506040513d601f19601f8201168201806040525061156a9190810190612ebf565b6040517fd1bbd31200000000000000000000000000000000000000000000000000000000815290915073ffffffffffffffffffffffffffffffffffffffff82169063d1bbd312906115c190339088906004016132f5565b600060405180830381600087803b1580156115db57600080fd5b505af11580156115ef573d6000803e3d6000fd5b505050508173ffffffffffffffffffffffffffffffffffffffff1663c7af35516040518163ffffffff167c0100000000000000000000000000000000000000000000000000000000028152600401600060405180830381600087803b15801561165757600080fd5b505af115801561166b573d6000803e3d6000fd5b505050505050919050565b60055473ffffffffffffffffffffffffffffffffffffffff1681565b60005473ffffffffffffffffffffffffffffffffffffffff1633146116b657600080fd5b600081101580156116cf5750670de0b6b3a76400008111155b15156116d757fe5b60408051808201909152600180825260209091018290526015805460ff19169091179055601655565b600c80548290811061170e57fe5b600091825260209182902001805460408051601f600260001961010060018716150201909416939093049283018590048502810185019091528181529350909183018282801561179f5780601f106117745761010080835404028352916020019161179f565b820191906000526020600020905b81548152906001019060200180831161178257829003601f168201915b505050505081565b60078054829081106117b557fe5b60009182526020909120015473ffffffffffffffffffffffffffffffffffffffff16905081565b6000600b600084846040518083838082843760408051919093018190039020865250602085019590955250505001600020600101546fffffffffffffffffffffffffffffffff16905092915050565b336000908152601360209081526040918290208054835181840281018401909452808452606093928301828280156108f65760200282019190600052602060002090815473ffffffffffffffffffffffffffffffffffffffff1681526001909101906020018083116108cb575050505050905090565b3360009081526010602052604090205460ff1615156118bf57600080fd5b7f575670c81f31b6e19bd59bbbe1729f3f052ae8a508d3977e1e1b2b752a256edb3383836040516118f2939291906133be565b60405180910390a15050565b6003546040517f57d215f900000000000000000000000000000000000000000000000000000000815260009173ffffffffffffffffffffffffffffffffffffffff1690829082906357d215f99061195f9089908990899033906004016134cc565b602060405180830381600087803b15801561197957600080fd5b505af115801561198d573d6000803e3d6000fd5b505050506040513d601f19601f820116820180604052506119b19190810190612ebf565b90507f0a3eabe50f6fdb1131643d035f8bde7e91d600ba5d64c4a17de4d9c9fef3ec63863383886020015189604001518a606001518b608001518c60a001518d60c001518e60e00151604051611a109a99989796959493929190613432565b60405180910390a1611a228187612345565b60015460c08601516040517f23b872dd00000000000000000000000000000000000000000000000000000000815273ffffffffffffffffffffffffffffffffffffffff909216916323b872dd91611a7f9133918691600401613396565b602060405180830381600087803b158015611a9957600080fd5b505af1158015611aad573d6000803e3d6000fd5b505050506040513d601f19601f82011682018060405250611ad1919081019061300f565b1515611adc57600080fd5b60608401516040517f23721e2400000000000000000000000000000000000000000000000000000000815273ffffffffffffffffffffffffffffffffffffffff8316916323721e2491611b3491600091600401613406565b600060405180830381600087803b158015611b4e57600080fd5b505af1158015611b62573d6000803e3d6000fd5b50506007805460018082019092557fa66cc928b5edb82af9bd49922954155ab7b0942694bea4ce44661d9a8736c68801805473ffffffffffffffffffffffffffffffffffffffff191673ffffffffffffffffffffffffffffffffffffffff86169081179091556000908152601060205260409020805460ff1916909117905550611bee90503382612a86565b95945050505050565b73ffffffffffffffffffffffffffffffffffffffff8116600090815260106020526040812054819060ff161515611c2d57600080fd5b8290503373ffffffffffffffffffffffffffffffffffffffff168173ffffffffffffffffffffffffffffffffffffffff1663893d20e86040518163ffffffff167c0100000000000000000000000000000000000000000000000000000000028152600401602060405180830381600087803b158015611cab57600080fd5b505af1158015611cbf573d6000803e3d6000fd5b505050506040513d601f19601f82011682018060405250611ce39190810190612ebf565b73ffffffffffffffffffffffffffffffffffffffff16149392505050565b60005473ffffffffffffffffffffffffffffffffffffffff163314611d2557600080fd5b73ffffffffffffffffffffffffffffffffffffffff81161515611d4757600080fd5b6000805473ffffffffffffffffffffffffffffffffffffffff191673ffffffffffffffffffffffffffffffffffffffff92909216919091179055565b60055473ffffffffffffffffffffffffffffffffffffffff1690565b60008060008033611daf81610ad6565b1515611dba57600080fd5b73ffffffffffffffffffffffffffffffffffffffff861660009081526010602052604090205460ff161515611dee57600080fd5b8593508373ffffffffffffffffffffffffffffffffffffffff1663e586a4f06040518163ffffffff167c0100000000000000000000000000000000000000000000000000000000028152600401602060405180830381600087803b158015611e5557600080fd5b505af1158015611e69573d6000803e3d6000fd5b505050506040513d601f19601f82011682018060405250611e8d91908101906130f3565b6001546040517f23b872dd00000000000000000000000000000000000000000000000000000000815291945073ffffffffffffffffffffffffffffffffffffffff16906323b872dd90611ee89033908a908890600401613396565b602060405180830381600087803b158015611f0257600080fd5b505af1158015611f16573d6000803e3d6000fd5b505050506040513d601f19601f82011682018060405250611f3a919081019061300f565b91508115612028576040517f28d576d700000000000000000000000000000000000000000000000000000000815273ffffffffffffffffffffffffffffffffffffffff8516906328d576d790611f949033906004016132e7565b602060405180830381600087803b158015611fae57600080fd5b505af1158015611fc2573d6000803e3d6000fd5b505050506040513d601f19601f82011682018060405250611fe6919081019061300f565b91508115612028577f5891a745b8d042d48bd1e4aed889e63bdc3e44242bb75694ea97573460e03a8b338760405161201f9291906132f5565b60405180910390a15b50949350505050565b336000908152600e60205260408120548190819073ffffffffffffffffffffffffffffffffffffffff161561206557600080fd5b6002546040517f48bf957700000000000000000000000000000000000000000000000000000000815273ffffffffffffffffffffffffffffffffffffffff909116925082906348bf9577906120be9033906004016132e7565b602060405180830381600087803b1580156120d857600080fd5b505af11580156120ec573d6000803e3d6000fd5b505050506040513d601f19601f820116820180604052506121109190810190612ebf565b73ffffffffffffffffffffffffffffffffffffffff166000818152600d60209081526040808320805460ff1916600117905533808452600e909252808320805473ffffffffffffffffffffffffffffffffffffffff19908116861790915593835290912080549092161790555090919050565b336000908152601160205260408120548190819060ff1615156121a557600080fd5b6121ae84610c2b565b15156121b957600080fd5b8391508173ffffffffffffffffffffffffffffffffffffffff1663a5faa1256040518163ffffffff167c0100000000000000000000000000000000000000000000000000000000028152600401602060405180830381600087803b15801561222057600080fd5b505af1158015612234573d6000803e3d6000fd5b505050506040513d601f19601f820116820180604052506122589190810190612ebf565b6040517fa1cc4ac100000000000000000000000000000000000000000000000000000000815290915073ffffffffffffffffffffffffffffffffffffffff82169063a1cc4ac1906122af90339088906004016132f5565b600060405180830381600087803b1580156122c957600080fd5b505af11580156122dd573d6000803e3d6000fd5b505050508173ffffffffffffffffffffffffffffffffffffffff1663444e31ca6040518163ffffffff167c0100000000000000000000000000000000000000000000000000000000028152600401600060405180830381600087803b15801561165757600080fd5b6000806000806000806000806000896040518082805190602001908083835b602083106123835780518252601f199092019160209182019101612364565b51815160209384036101000a600019018019909216911617905260408051929094018290039091206000818152600b90925292902060010154919c50506fffffffffffffffffffffffffffffffff16151591506126da905057600c8054600181018083556000929092528b51612420917fdf6966c971051c3d54ec59162606531493a51404a002842f56009d7e5cf4a8c7019060208e0190612ade565b5050600854151561253557600889905560098990556040805160a0810182528b815260016020808301919091526000828401819052606083018190528351818152808301855260808401528c8152600b825292909220815180519293919261248b9284920190612ade565b506020828101516001830180547fffffffffffffffffffffffffffffffff00000000000000000000000000000000166fffffffffffffffffffffffffffffffff9092169190911790556040830151600283015560608301516003830155608083015180516124ff9260048501920190612b5c565b5050600160005250600a6020527fbbc70db1b6c7afd11e79c0fb0051300458f1a3acb8ee9789d9b6b26c61ad9bc789905561267c565b6040805160a0810182528b81526001602080830191909152600954828401526000606083018190528351818152808301855260808401528c8152600b825292909220815180519293919261258c9284920190612ade565b506020828101516001830180547fffffffffffffffffffffffffffffffff00000000000000000000000000000000166fffffffffffffffffffffffffffffffff9092169190911790556040830151600283015560608301516003830155608083015180516126009260048501920190612b5c565b50506009546000908152600b6020908152604082206003018c90556001909152600a9052507fbbc70db1b6c7afd11e79c0fb0051300458f1a3acb8ee9789d9b6b26c61ad9bc754151561267c576001600052600a6020527fbbc70db1b6c7afd11e79c0fb0051300458f1a3acb8ee9789d9b6b26c61ad9bc78990555b6000898152600b6020908152604082206004018054600181018255908352912001805473ffffffffffffffffffffffffffffffffffffffff191673ffffffffffffffffffffffffffffffffffffffff8d161790556009899055612a79565b600b60008a600019166000191681526020019081526020016000206004018b90806001815401808255809150509060018203906000526020600020016000909192909190916101000a81548173ffffffffffffffffffffffffffffffffffffffff021916908373ffffffffffffffffffffffffffffffffffffffff16021790555050600b60008a6000191660001916815260200190815260200160002060010160009054906101000a90046fffffffffffffffffffffffffffffffff166fffffffffffffffffffffffffffffffff169750600b60008a6000191660001916815260200190815260200160002060010160009054906101000a90046fffffffffffffffffffffffffffffffff16600101965086600b60008b6000191660001916815260200190815260200160002060010160006101000a8154816fffffffffffffffffffffffffffffffff02191690836fffffffffffffffffffffffffffffffff160217905550600a6000886fffffffffffffffffffffffffffffffff16815260200190815260200160002054600019166000600102141561289a576fffffffffffffffffffffffffffffffff87166000908152600a602052604090208990555b6000898152600b602052604090206002015415612a2c576000898152600b602052604080822060028101548352908220600190810154928c905201546fffffffffffffffffffffffffffffffff91821691161115612a2c576000898152600b60209081526040808320600101546fffffffffffffffffffffffffffffffff90811660001901168352600a90915290205460085490965086141561293d5760088990555b60095489141561294d5760098690555b5050506000838152600b6020526040808220888352912060038083018054600280850180549486015490935585015491829055939550919350828914929091156129ab5760028501546000908152600b602052604090206003018990555b6003840154156129cf5760038401546000908152600b602052604090206002018690555b82156129e8576002850189905560038401869055612a2c565b60028501829055600384018190558115612a11576000828152600b602052604090206003018690555b8015612a2c576000818152600b602052604090206002018990555b6000898152600b602052604090206003015415612a69576000898152600b60209081526040808320600301548b8452600a90925290912055612a79565b6000888152600a60205260408120555b5050505050505050505050565b73ffffffffffffffffffffffffffffffffffffffff918216600090815260126020908152604082208054600181018255908352912001805473ffffffffffffffffffffffffffffffffffffffff191691909216179055565b828054600181600116156101000203166002900490600052602060002090601f016020900481019282601f10612b1f57805160ff1916838001178555612b4c565b82800160010185558215612b4c579182015b82811115612b4c578251825591602001919060010190612b31565b50612b58929150612bd7565b5090565b828054828255906000526020600020908101928215612bcb579160200282015b82811115612bcb578251825473ffffffffffffffffffffffffffffffffffffffff191673ffffffffffffffffffffffffffffffffffffffff909116178255602090920191600190910190612b7c565b50612b58929150612bf1565b6107da91905b80821115612b585760008155600101612bdd565b6107da91905b80821115612b5857805473ffffffffffffffffffffffffffffffffffffffff19168155600101612bf7565b6000612c2e82356135bd565b9392505050565b6000612c2e82516135bd565b6000601f82018313612c5257600080fd5b8135612c65612c608261356a565b613543565b91508181835260208401935060208101905083856020840282011115612c8a57600080fd5b60005b83811015610eb25781612ca08882612c22565b8452506020928301929190910190600101612c8d565b6000612c2e82516135d6565b6000612c2e82356107da565b600080601f83018413612ce057600080fd5b50813567ffffffffffffffff811115612cf857600080fd5b602083019150836001820283011115612d1057600080fd5b9250929050565b6000601f82018313612d2857600080fd5b8135612d36612c608261358b565b91508082526020830160208301858383011115612d5257600080fd5b610acd8382846135fb565b600060808284031215612d6f57600080fd5b612d796080613543565b90506000612d878484612cc2565b8252506020612d9884848301612cc2565b6020830152506040612dac84828501612cc2565b6040830152506060612dc084828501612cc2565b60608301525092915050565b60006101008284031215612ddf57600080fd5b612dea610100613543565b90506000612df88484612cc2565b8252506020612e0984848301612cc2565b6020830152506040612e1d84828501612cc2565b6040830152506060612e3184828501612cc2565b6060830152506080612e4584828501612cc2565b60808301525060a0612e5984828501612cc2565b60a08301525060c0612e6d84828501612cc2565b60c08301525060e0612e8184828501612cc2565b60e08301525092915050565b6000612c2e82516107da565b600060208284031215612eab57600080fd5b6000612eb78484612c22565b949350505050565b600060208284031215612ed157600080fd5b6000612eb78484612c35565b60008060408385031215612ef057600080fd5b6000612efc8585612c22565b9250506020612f0d85828601612c22565b9150509250929050565b60008060408385031215612f2a57600080fd5b6000612f368585612c22565b925050602083013567ffffffffffffffff811115612f5357600080fd5b612f0d85828601612c41565b600080600080600080600080610100898b031215612f7c57600080fd5b6000612f888b8b612c22565b9850506020612f998b828c01612cc2565b9750506040612faa8b828c01612cc2565b9650506060612fbb8b828c01612cc2565b9550506080612fcc8b828c01612cc2565b94505060a0612fdd8b828c01612cc2565b93505060c0612fee8b828c01612cc2565b92505060e0612fff8b828c01612cc2565b9150509295985092959890939650565b60006020828403121561302157600080fd5b6000612eb78484612cb6565b60006020828403121561303f57600080fd5b6000612eb78484612cc2565b6000806020838503121561305e57600080fd5b823567ffffffffffffffff81111561307557600080fd5b61308185828601612cce565b92509250509250929050565b60008060006101a084860312156130a357600080fd5b833567ffffffffffffffff8111156130ba57600080fd5b6130c686828701612d17565b93505060206130d786828701612dcc565b9250506101206130e986828701612d5d565b9150509250925092565b60006020828403121561310557600080fd5b6000612eb78484612e8d565b6000806040838503121561312457600080fd5b60006131308585612cc2565b9250506020612f0d85828601612cc2565b61314a816135bd565b82525050565b600061315b826135b9565b80845260208401935061316d836135b3565b60005b8281101561319d57613183868351613141565b61318c826135b3565b602096909601959150600101613170565b5093949350505050565b61314a816135d6565b61314a816107da565b61314a816135f0565b60006131cd826135b9565b8084526131e1816020860160208601613607565b6131ea81613633565b9093016020019392505050565b8051608083019061320884826131b0565b50602082015161321b60208501826131b0565b50604082015161322e60408501826131b0565b50606082015161324160608501826131b0565b50505050565b805161010083019061325984826131b0565b50602082015161326c60208501826131b0565b50604082015161327f60408501826131b0565b50606082015161329260608501826131b0565b5060808201516132a560808501826131b0565b5060a08201516132b860a08501826131b0565b5060c08201516132cb60c08501826131b0565b5060e082015161324160e08501826131b0565b61314a816135db565b602081016114528284613141565b604081016133038285613141565b612c2e6020830184613141565b610120810161331f828c613141565b61332c602083018b613141565b613339604083018a6131b0565b61334660608301896131b0565b61335360808301886131b0565b61336060a08301876131b0565b61336d60c08301866131b0565b61337a60e08301856131b0565b6133886101008301846131b0565b9a9950505050505050505050565b606081016133a48286613141565b6133b16020830185613141565b612eb760408301846131b0565b606081016133cc8286613141565b6133b160208301856131b0565b60208082528101612c2e8184613150565b6020810161145282846131a7565b6020810161145282846131b0565b6040810161341482856131b9565b612c2e60208301846131b0565b60208082528101612c2e81846131c2565b6101408082528101613444818d6131c2565b9050613453602083018c613141565b613460604083018b613141565b61346d606083018a6131b0565b61347a60808301896131b0565b61348760a08301886131b0565b61349460c08301876131b0565b6134a160e08301866131b0565b6134af6101008301856131b0565b6134bd6101208301846131b0565b9b9a5050505050505050505050565b6101c080825281016134de81876131c2565b90506134ed6020830186613247565b6134fb6101208301856131f7565b611bee6101a0830184613141565b6080808252810161351a81876131c2565b905061352960208301866132de565b61353660408301856131b0565b611bee60608301846131b0565b60405181810167ffffffffffffffff8111828210171561356257600080fd5b604052919050565b600067ffffffffffffffff82111561358157600080fd5b5060209081020190565b600067ffffffffffffffff8211156135a257600080fd5b506020601f91909101601f19160190565b60200190565b5190565b73ffffffffffffffffffffffffffffffffffffffff1690565b151590565b6fffffffffffffffffffffffffffffffff1690565b6000611452826107da565b82818337506000910152565b60005b8381101561362257818101518382015260200161360a565b838111156132415750506000910152565b601f01601f1916905600a265627a7a72305820c19069c825af16d460c82a8e8ea7eae6cce19fb7f7f94f48d856050d399f0deb6c6578706572696d656e74616cf50037",
  "source": "pragma solidity ^0.4.18;\npragma experimental ABIEncoderV2;\n\nimport \"../libraries/math/SafeMath.sol\";\nimport \"../libraries/math/SafeMath128.sol\";\nimport \"../interfaces/IMatryxToken.sol\";\nimport \"../interfaces/IMatryxPeer.sol\";\nimport \"../interfaces/IMatryxPlatform.sol\";\nimport \"../interfaces/factories/IMatryxPeerFactory.sol\";\nimport \"../interfaces/factories/IMatryxTournamentFactory.sol\";\nimport \"../interfaces/IMatryxTournament.sol\";\nimport \"../interfaces/IMatryxRound.sol\";\nimport \"../interfaces/IMatryxSubmission.sol\";\nimport \"./Ownable.sol\";\n\n/// @title MatryxPlatform - The Matryx platform contract.\n/// @author Max Howard - <max@nanome.ai>, Sam Hessenauer - <sam@nanome.ai>\ncontract MatryxPlatform is Ownable {\n  using SafeMath for uint256;\n  using SafeMath128 for uint128;\n\n  // TODO: condense and put in structs\n  address public matryxTokenAddress;\n  address public matryxPeerFactoryAddress;\n  address public matryxTournamentFactoryAddress;\n  address public matryxSubmissionFactoryAddress;\n  address public matryxSubmissionTrustLibAddress;\n  address public matryxRoundLibAddress;\n\n  address[] public allTournaments;\n  bytes32 public hashOfTopCategory;\n  bytes32 public hashOfLastCategory;\n  mapping(uint256=>bytes32) public  topCategoryByCount;\n  mapping(bytes32=>category) public categoryIterator;\n  string[] public categoryList;\n\n  mapping(address=>bool) public peerExists;\n  mapping(address=>address) public ownerToPeerAndPeerToOwner;\n  mapping(address=>mapping(address=>bool)) addressToOwnsSubmission;\n  mapping(address=>bool) tournamentExists;\n  mapping(address=>bool) submissionExists;\n\n  mapping(address=>address[]) entrantToTournamentArray;\n  mapping(address=>address[]) ownerToSubmissionArray;\n  mapping(address=>mapping(address=>uint256_optional))  ownerToSubmissionToSubmissionIndex;\n\n  uint256_optional submissionGratitude = uint256_optional({exists: true, value: 2*10**17});\n\n  function MatryxPlatform(address _matryxTokenAddress, address _matryxPeerFactoryAddress, address _matryxTournamentFactoryAddress, address _matryxSubmissionFactoryAddress, address _matryxSubmissionTrustLibAddress) public\n  {\n    matryxTokenAddress = _matryxTokenAddress;\n    matryxPeerFactoryAddress = _matryxPeerFactoryAddress;\n    matryxTournamentFactoryAddress = _matryxTournamentFactoryAddress;\n    matryxSubmissionFactoryAddress = _matryxSubmissionFactoryAddress;\n    matryxSubmissionTrustLibAddress = _matryxSubmissionTrustLibAddress;\n  }\n\n  /*\n   * Structs\n   */\n\n  struct uint256_optional\n  {\n    bool exists;\n    uint256 value;\n  }\n\n  struct category\n  {\n    string name;\n    uint128 count;\n    bytes32 prev;\n    bytes32 next;\n    address[] tournaments;\n  }\n\n  /*\n   * Events\n   */\n\n  event TournamentCreated(string _discipline, address _owner, address _tournamentAddress, bytes32 _tournamentName_1, bytes32 _tournamentName_2, bytes32 _tournamentName_3, bytes32 _externalAddress_1, bytes32 _externalAddress_2, uint256 _MTXReward, uint256 _entryFee);\n  event TournamentOpened(address _owner, address _tournamentAddress, bytes32 _tournamentName_1, bytes32 _tournamentName_2, bytes32 _tournamentName_3, bytes32 _externalAddress_1, bytes32 _externalAddress_2, uint256 _MTXReward, uint256 _entryFee);\n  event TournamentClosed(address _tournamentAddress, uint256 _finalRoundNumber, uint256 _MTXReward);\n  event UserEnteredTournament(address _entrant, address _tournamentAddress);\n  event QueryID(string queryID);\n  /// @dev Allows tournaments to invoke tournamentOpened events on the platform.\n  /// @param _owner Owner of the tournament.\n  /// @param _tournamentName_1 First part of the tournament name.\n  /// @param _tournamentName_2 Second part of the tournament name.\n  /// @param _tournamentName_3 Third part of the tournament name.\n  /// @param _externalAddress_1 First part of the external address of the tournament.\n  /// @param _externalAddress_2 Second part of the external address of the tournament.\n  /// @param _MTXReward Reward for winning the tournament.\n  /// @param _entryFee Fee for entering into the tournament.\n  function invokeTournamentOpenedEvent(address _owner, bytes32 _tournamentName_1, bytes32 _tournamentName_2, bytes32 _tournamentName_3, bytes32 _externalAddress_1, bytes32 _externalAddress_2, uint256 _MTXReward, uint256 _entryFee) public onlyTournament\n  {\n    TournamentOpened(_owner, msg.sender, _tournamentName_1, _tournamentName_2, _tournamentName_3, _externalAddress_1, _externalAddress_2, _MTXReward, _entryFee);\n  }\n\n  /// @dev Allows tournaments to invoke tournamentClosed events on the platform.\n  /// @param _finalRoundNumber Index of the round containing the winning submission.\n  function invokeTournamentClosedEvent(uint256 _finalRoundNumber, uint256 _MTXReward) public onlyTournament\n  {\n    TournamentClosed(msg.sender, _finalRoundNumber, _MTXReward);\n  }\n\n  /* \n   * Modifiers\n   */\n\n  modifier onlyTournament\n  {\n    require(tournamentExists[msg.sender]);\n    _;\n  }\n\n  modifier onlySubmission\n  {\n    require(submissionExists[msg.sender]);\n    _;\n  }\n\n  modifier onlyPeerLinked(address _sender)\n  {\n    require(hasPeer(_sender));\n    _;\n  }\n\n  /*\n   * State Maintenance Methods\n   */\n\n  // @dev Sends out reference requests for a particular submission.\n  // @param _references Reference whose authors will be sent requests.\n  // @returns Whether or not all references were successfully sent a request.\n  function handleReferenceRequestsForSubmission(address _submissionAddress, address[] _references) public onlyTournament returns (bool) \n  {\n    for(uint256 i = 0; i < _references.length; i++)\n    {\n      address _referenceAddress = _references[i];\n\n      if(!isSubmission(_referenceAddress))\n      {\n        // TODO: Introduce uint error codes\n        // for returning things like \"Reference _ is not submission\"\n        continue;\n      }\n\n      IMatryxSubmission submission = IMatryxSubmission(_referenceAddress);\n      address author = submission.getAuthor();\n      IMatryxPeer(author).receiveReferenceRequest(_submissionAddress, _referenceAddress);\n      submission.receiveReferenceRequest();\n    }\n  }\n\n  // @dev Sends out a reference request for a submission (must be called by the submission).\n  // @param _reference Reference whose author will be sent a request.\n  // @returns Whether or not all references were successfully sent a request.\n  function handleReferenceRequestForSubmission(address _reference) public onlySubmission returns (bool)\n  {\n      require(isSubmission(_reference));\n      IMatryxSubmission submission = IMatryxSubmission(_reference);\n      address author = submission.getAuthor();\n      IMatryxPeer(author).receiveReferenceRequest(msg.sender, _reference);\n      submission.receiveReferenceRequest();\n  }\n\n  function handleCancelledReferenceRequestForSubmission(address _reference) public onlySubmission returns (bool)\n  {\n    require(isSubmission(_reference));\n    IMatryxSubmission submission = IMatryxSubmission(_reference);\n    address author = submission.getAuthor();\n    IMatryxPeer(author).receiveCancelledReferenceRequest(msg.sender, _reference);\n    submission.cancelReferenceRequest();\n  }\n\n  function updateUsersTournaments(address _owner, address _tournament) internal\n  {\n    entrantToTournamentArray[_owner].push(_tournament);\n  }\n\n  function updateSubmissions(address _owner, address _submission) public onlyTournament\n  {\n    ownerToSubmissionToSubmissionIndex[_owner][_submission] = uint256_optional({exists:true, value:ownerToSubmissionArray[_owner].length});\n    ownerToSubmissionArray[_owner].push(_submission);\n    addressToOwnsSubmission[_owner][_submission] = true;\n    submissionExists[_submission] = true;\n  }\n\n  function removeSubmission(address _submissionAddress, address _tournamentAddress) public returns (bool)\n  {\n    require(addressToOwnsSubmission[msg.sender][_submissionAddress]);\n    require(tournamentExists[_tournamentAddress]);\n    require(submissionExists[_submissionAddress]);\n\n      IMatryxSubmission submission = IMatryxSubmission(_submissionAddress);\n      address owner = Ownable(_submissionAddress).getOwner();\n      uint256 submissionIndex = ownerToSubmissionToSubmissionIndex[owner][_submissionAddress].value;\n\n      submissionExists[_submissionAddress] = false;\n      delete ownerToSubmissionArray[owner][submissionIndex];\n      delete ownerToSubmissionToSubmissionIndex[owner][_submissionAddress];\n\n      IMatryxTournament(_tournamentAddress).removeSubmission(_submissionAddress, owner);\n      return true;\n  }\n\n  function addTournamentToCategory(address _tournamentAddress, string _category) internal\n  {\n    bytes32 hashOfCategory = keccak256(_category);\n    // If this is the first tournament in its category\n    if(categoryIterator[hashOfCategory].count == 0)\n    {\n      // Push the new category to a list of categories\n      categoryList.push(_category);\n\n      // If its the first category ever\n      if(hashOfTopCategory == 0x0)\n      {\n        // Update the top category pointer\n        hashOfTopCategory = hashOfCategory;\n        hashOfLastCategory = hashOfCategory;\n        // Create a new entry in the iterator for it and don't store previous or next pointers\n        categoryIterator[hashOfCategory] = category({name: _category, count: 1, prev: 0x0, next: 0x0, tournaments: new address[](0)});\n        // Store the mapping from count 1 to this category\n         topCategoryByCount[1] = hashOfCategory;\n      }\n      else\n      {\n        // If this is not the first category ever,\n        // Create a new iterator entry, complete with a prev pointer to the previous last category\n        categoryIterator[hashOfCategory] = category({name: _category, count: 1, prev: hashOfLastCategory, next: 0x0, tournaments: new address[](0)});\n        // Update that previous last category's next pointer (there's one more after it now)\n        categoryIterator[hashOfLastCategory].next = hashOfCategory;\n\n        if( topCategoryByCount[1] == 0x0)\n        {\n           topCategoryByCount[1] = hashOfCategory;\n        }\n      }\n\n      // Push to the tournaments list for this category\n      categoryIterator[hashOfCategory].tournaments.push(_tournamentAddress);\n      // Update the last category pointer\n      hashOfLastCategory = hashOfCategory;\n      return;\n    }\n\n    categoryIterator[hashOfCategory].tournaments.push(_tournamentAddress);\n\n    uint256 categoryCount = categoryIterator[hashOfCategory].count;\n    // If this category has the top relative count (category.prev.count > category.count):\n    //  If category.next exists, the top category for our previous count becomes category.next,\n    //  otherwise (category.next doesn't exist), the top category for our previous count\n    //  we set to 0x0.\n    // if( topCategoryByCount[categoryCount] == hashOfCategory)\n    // {\n    //   if(categoryIterator[hashOfCategory].next != 0x0)\n    //   {\n    //      topCategoryByCount[categoryCount] = categoryIterator[hashOfCategory].next;\n    //   }\n    //   else\n    //   {\n    //      topCategoryByCount[categoryCount] = 0x0;\n    //   }\n    // }\n\n    uint128 newCount = categoryIterator[hashOfCategory].count + 1;\n    categoryIterator[hashOfCategory].count = newCount;\n\n    // If the top category for our new count is not defined, \n    // define it as this category.\n    if( topCategoryByCount[newCount] == 0)\n    {\n       topCategoryByCount[newCount] = hashOfCategory;\n    }\n\n    // If the count of the category is now greater than the previous category\n    // swap it with the top category of its count.\n    if(categoryIterator[hashOfCategory].prev != 0x0)\n    {\n      if(categoryIterator[hashOfCategory].count > categoryIterator[categoryIterator[hashOfCategory].prev].count)\n      {\n        // define A as the top category of its count\n        bytes32 hashOfTopA =  topCategoryByCount[categoryIterator[hashOfCategory].count-1];\n        if(hashOfTopA == hashOfTopCategory)\n        {\n          hashOfTopCategory = hashOfCategory;\n        }\n\n        if(hashOfCategory == hashOfLastCategory)\n        {\n          //update pointer to hash of last category\n          hashOfLastCategory = hashOfTopA;\n        }\n\n        //flip the two categories and rearrange the pointers\n        category storage A = categoryIterator[hashOfTopA];\n        category storage B = categoryIterator[hashOfCategory];\n\n        bool adjacent = A.next == hashOfCategory;\n        bytes32 Bprev = B.prev;\n        bytes32 Anext = A.next;\n\n        A.next = B.next;\n        B.prev = A.prev;\n\n        if(A.prev != 0x0)\n        {\n          categoryIterator[A.prev].next = hashOfCategory;\n        }\n        if(B.next != 0x0)\n        {\n          categoryIterator[B.next].prev = hashOfTopA;\n        }\n        \n        if(adjacent)\n        {\n          A.prev = hashOfCategory;\n          B.next = hashOfTopA;\n        }\n        else\n        {\n          A.prev = Bprev;\n          B.next = Anext;\n          if(Bprev != 0x0)\n          {\n            categoryIterator[Bprev].next = hashOfTopA;\n          }\n          if(Anext != 0x0)\n          {\n            categoryIterator[Anext].prev = hashOfCategory;\n          }\n        }\n      }\n    }\n\n    //update top category by count\n      if(categoryIterator[hashOfCategory].next != 0x0)\n      {\n         topCategoryByCount[categoryCount] = categoryIterator[hashOfCategory].next;\n      }\n      else\n      {\n         topCategoryByCount[categoryCount] = 0x0;\n      }\n  }\n\n  function getTournamentsByCategory(string _category) external constant returns (address[])\n  {\n    return categoryIterator[keccak256(_category)].tournaments;\n  }\n\n  function getCategoryCount(string _category) external constant returns (uint256)\n  {\n    return categoryIterator[keccak256(_category)].count;\n  }\n\n  //Get the index-th topmost category (index 0 returns the overall top category)\n  function getTopCategory(uint256 _index) external constant returns (string)\n  {\n    bytes32 categoryHash = hashOfTopCategory;\n    string storage categoryName  = categoryIterator[categoryHash].name;\n\n    for(uint256 i = 1; i <= _index; i++)\n    {\n      categoryHash = categoryIterator[categoryHash].next;\n      categoryName = categoryIterator[categoryHash].name;\n    \n      if(categoryHash == 0x0)\n      {\n        break;\n      }\n    }\n\n    return categoryName;\n  }\n\n  function getCategoryByIndex(uint256 _index) public constant returns (string)\n  {\n    return categoryList[_index];\n  }\n\n  // function switchTournamentCategory(string discipline) onlyTournament public\n  // {\n  //   revert();\n  // }\n\n  /* \n   * Tournament Entry Methods\n   */\n\n  /// @dev Enter the user into a tournament and charge the entry fee.\n  /// @param _tournamentAddress Address of the tournament to enter into.\n  /// @return _success Whether or not user was successfully entered into the tournament.\n  function enterTournament(address _tournamentAddress) public onlyPeerLinked(msg.sender) returns (bool _success)\n  {\n      require(tournamentExists[_tournamentAddress]);\n      \n      IMatryxTournament tournament = IMatryxTournament(_tournamentAddress);\n      uint256 entryFee = tournament.getEntryFee();\n\n      bool success = IMatryxToken(matryxTokenAddress).transferFrom(msg.sender, _tournamentAddress, entryFee);\n      if(success)\n      {\n        success = tournament.enterUserInTournament(msg.sender);\n        if(success)\n        {\n          UserEnteredTournament(msg.sender, _tournamentAddress);\n        }\n      }\n\n      return success;\n  }\n\n  /* \n   * Tournament Admin Methods\n   */\n\n  /// @dev Create a new tournament.\n  /// @param tournamentData Data to populate the new tournament with. Includes:\n  ///    category: Discipline the tournament falls under.\n  ///    title: Name of the new tournament.\n  ///    contentHash: Off-chain content hash of tournament details (ipfs hash)\n  ///    Bounty: Total tournament reward in MTX.\n  ///    entryFee: Fee to charge participant upon entering into the tournament.\n  /// @param roundData Data to populate the first round of the tournament with. Includes:\n  ///    startTime: The start time (unix-epoch-based) of the first round.\n  ///    endTime: The end time (unix-epoch-based) of the first round.\n  ///    reviewDuration: The amount of the tournament owner has to determine the winners of the round.\n  ///    bounty: The reward for the first round's winners.\n  /// @return _tournamentAddress Address of the newly created tournament.\n  function createTournament(string _category, LibConstruction.TournamentData tournamentData, LibConstruction.RoundData roundData) returns (address _tournamentAddress)\n  {\n    IMatryxTournamentFactory tournamentFactory = IMatryxTournamentFactory(matryxTournamentFactoryAddress);\n    address newTournament = tournamentFactory.createTournament(_category, tournamentData, roundData, msg.sender);\n    //MatryxToken.transferFrom(newTournament, **round_address**, uint256 bounty);\n    TournamentCreated(_category, msg.sender, newTournament, tournamentData.title_1, tournamentData.title_2, tournamentData.title_3, tournamentData.descriptionHash_1, tournamentData.descriptionHash_2, tournamentData.bounty, tournamentData.entryFee);\n    \n    addTournamentToCategory(newTournament, _category);\n\n    require(IMatryxToken(matryxTokenAddress).transferFrom(msg.sender, newTournament, tournamentData.bounty));\n    IMatryxTournament(newTournament).sendBountyToRound(0, roundData.bounty);\n    //update data structures\n    allTournaments.push(newTournament);\n    tournamentExists[newTournament] = true;\n    updateUsersTournaments(msg.sender, newTournament);\n\n    return newTournament;\n  }\n\n  /*\n   * Access Control Methods\n   */\n\n  function createPeer() public returns (address)\n  {\n    require(ownerToPeerAndPeerToOwner[msg.sender] == 0x0);\n    IMatryxPeerFactory peerFactory = IMatryxPeerFactory(matryxPeerFactoryAddress);\n    address peer = peerFactory.createPeer(msg.sender);\n    peerExists[peer] = true;\n    ownerToPeerAndPeerToOwner[msg.sender] = peer;\n    ownerToPeerAndPeerToOwner[peer] = msg.sender;\n  }\n\n  function isPeer(address _peerAddress) public constant returns (bool)\n  {\n    return peerExists[_peerAddress];\n  }\n\n  function hasPeer(address _sender) public constant returns (bool)\n  {\n    return (ownerToPeerAndPeerToOwner[_sender] != 0x0);\n  }\n\n  function peerExistsAndOwnsSubmission(address _peer, address _reference) public constant returns (bool)\n  {\n    bool isAPeer = peerExists[_peer];\n    bool referenceIsSubmission = submissionExists[_reference];\n    bool peerOwnsSubmission = addressToOwnsSubmission[ownerToPeerAndPeerToOwner[_peer]][_reference];\n\n    return isAPeer && referenceIsSubmission && peerOwnsSubmission;\n  }\n\n  function peerAddress(address _sender) public constant returns (address)\n  {\n    return ownerToPeerAndPeerToOwner[_sender];\n  }\n\n  function isSubmission(address _submissionAddress) public constant returns (bool)\n  {\n    return submissionExists[_submissionAddress];\n  }\n\n  function hashForCategory(bytes32 _categoryHash) public constant returns (string _category)\n  {\n    return \"temporary category\";\n  }\n\n  /// @dev Returns whether or not the given tournament belongs to the sender.\n  /// @param _tournamentAddress Address of the tournament to check.\n  /// @return _isMine Whether or not the tournament belongs to the sender.\n  function getTournament_IsMine(address _tournamentAddress) public constant returns (bool _isMine)\n  {\n    require(tournamentExists[_tournamentAddress]);\n    Ownable tournament = Ownable(_tournamentAddress);\n    return (tournament.getOwner() == msg.sender);\n  }\n\n  /*\n   * Setter Methods\n   */ \n\n    /// @dev              Set the relative amount of MTX to be delivered to a submission's\n    ///                   references\n    /// @param _gratitude Weight from 0 to 1 (18 decimal uint) specifying enforced submission \n    ///                   gratitude\n    function setSubmissionGratitude(uint256 _gratitude) public onlyOwner\n    {\n        assert(_gratitude >= 0 && _gratitude <= (1*10**18));\n        submissionGratitude = uint256_optional({exists: true, value: _gratitude});\n    }\n\n  /*\n   * Getter Methods\n   */\n\n   function getTokenAddress() public constant returns (address)\n   {\n      return matryxTokenAddress;\n   }\n\n   function getSubmissionTrustLibrary() public constant returns (address)\n   {\n      return matryxSubmissionTrustLibAddress;\n   }\n\n   /// @dev    Returns a weight from 0 to 1 (18 decimal uint) indicating\n   ///         how much of a submission's reward goes to its references.\n   /// @return Relative amount of MTX going to references of submissions under this tournament.\n   function getSubmissionGratitude() public constant returns (uint256)\n   {\n    require(submissionGratitude.exists);\n    return submissionGratitude.value;\n   }\n\n   /// @dev Returns addresses for submissions the sender has created.\n   /// @return Address array representing submissions.\n   function myTournaments() public constant returns (address[])\n   {\n    return entrantToTournamentArray[msg.sender];\n   }\n\n   function mySubmissions() public constant returns (address[])\n   {\n    return ownerToSubmissionArray[msg.sender];\n   }\n\n   /// @dev Returns the total number of tournaments\n   /// @return _tournamentCount Total number of tournaments.\n   function tournamentCount() public constant returns (uint256 _tournamentCount)\n   {\n       return allTournaments.length;\n   }\n \n   function getTournamentAtIndex(uint256 _index) public constant returns (address _tournamentAddress)\n   {\n     require(_index >= 0);\n     require(_index < allTournaments.length);\n     return allTournaments[_index];\n   }\n}",
  "sourcePath": "/Users/maxhoward/Desktop/Ethereum/Development/Matryx/Projects/MatryxPlatform/contracts/MatryxPlatform.sol",
  "compiler": {
    "name": "solc",
    "version": "0.4.24+commit.e67f0147.Emscripten.clang"
  },
  "schemaVersion": "2.0.0",
  "updatedAt": "2018-06-27T23:52:08.587Z"
}