{
  "contractName": "MatryxPlatform",
  "abi": [
    {
      "constant": true,
      "inputs": [],
      "name": "matryxTournamentFactoryAddress",
      "outputs": [
        {
          "name": "",
          "type": "address"
        }
      ],
      "payable": false,
      "stateMutability": "view",
      "type": "function"
    },
    {
      "constant": true,
      "inputs": [],
      "name": "matryxTokenAddress",
      "outputs": [
        {
          "name": "",
          "type": "address"
        }
      ],
      "payable": false,
      "stateMutability": "view",
      "type": "function"
    },
    {
      "constant": true,
      "inputs": [
        {
          "name": "_sender",
          "type": "address"
        }
      ],
      "name": "isOwner",
      "outputs": [
        {
          "name": "_isOwner",
          "type": "bool"
        }
      ],
      "payable": false,
      "stateMutability": "view",
      "type": "function"
    },
    {
      "constant": true,
      "inputs": [
        {
          "name": "",
          "type": "bytes32"
        }
      ],
      "name": "categoryIterator",
      "outputs": [
        {
          "name": "name",
          "type": "string"
        },
        {
          "name": "count",
          "type": "uint128"
        },
        {
          "name": "prev",
          "type": "bytes32"
        },
        {
          "name": "next",
          "type": "bytes32"
        }
      ],
      "payable": false,
      "stateMutability": "view",
      "type": "function"
    },
    {
      "constant": true,
      "inputs": [],
      "name": "hashOfLastCategory",
      "outputs": [
        {
          "name": "",
          "type": "bytes32"
        }
      ],
      "payable": false,
      "stateMutability": "view",
      "type": "function"
    },
    {
      "constant": true,
      "inputs": [
        {
          "name": "",
          "type": "address"
        }
      ],
      "name": "peerExists",
      "outputs": [
        {
          "name": "",
          "type": "bool"
        }
      ],
      "payable": false,
      "stateMutability": "view",
      "type": "function"
    },
    {
      "constant": true,
      "inputs": [
        {
          "name": "",
          "type": "uint256"
        }
      ],
      "name": "topCategoryByCount",
      "outputs": [
        {
          "name": "",
          "type": "bytes32"
        }
      ],
      "payable": false,
      "stateMutability": "view",
      "type": "function"
    },
    {
      "constant": true,
      "inputs": [],
      "name": "getOwner",
      "outputs": [
        {
          "name": "_owner",
          "type": "address"
        }
      ],
      "payable": false,
      "stateMutability": "view",
      "type": "function"
    },
    {
      "constant": true,
      "inputs": [],
      "name": "matryxRoundLibAddress",
      "outputs": [
        {
          "name": "",
          "type": "address"
        }
      ],
      "payable": false,
      "stateMutability": "view",
      "type": "function"
    },
    {
      "constant": true,
      "inputs": [],
      "name": "owner",
      "outputs": [
        {
          "name": "",
          "type": "address"
        }
      ],
      "payable": false,
      "stateMutability": "view",
      "type": "function"
    },
    {
      "constant": true,
      "inputs": [
        {
          "name": "",
          "type": "address"
        }
      ],
      "name": "ownerToPeerAndPeerToOwner",
      "outputs": [
        {
          "name": "",
          "type": "address"
        }
      ],
      "payable": false,
      "stateMutability": "view",
      "type": "function"
    },
    {
      "constant": true,
      "inputs": [],
      "name": "matryxPeerFactoryAddress",
      "outputs": [
        {
          "name": "",
          "type": "address"
        }
      ],
      "payable": false,
      "stateMutability": "view",
      "type": "function"
    },
    {
      "constant": true,
      "inputs": [],
      "name": "hashOfTopCategory",
      "outputs": [
        {
          "name": "",
          "type": "bytes32"
        }
      ],
      "payable": false,
      "stateMutability": "view",
      "type": "function"
    },
    {
      "constant": true,
      "inputs": [],
      "name": "matryxSubmissionFactoryAddress",
      "outputs": [
        {
          "name": "",
          "type": "address"
        }
      ],
      "payable": false,
      "stateMutability": "view",
      "type": "function"
    },
    {
      "constant": true,
      "inputs": [],
      "name": "matryxSubmissionTrustLibAddress",
      "outputs": [
        {
          "name": "",
          "type": "address"
        }
      ],
      "payable": false,
      "stateMutability": "view",
      "type": "function"
    },
    {
      "constant": true,
      "inputs": [
        {
          "name": "",
          "type": "uint256"
        }
      ],
      "name": "categoryList",
      "outputs": [
        {
          "name": "",
          "type": "string"
        }
      ],
      "payable": false,
      "stateMutability": "view",
      "type": "function"
    },
    {
      "constant": true,
      "inputs": [
        {
          "name": "",
          "type": "uint256"
        }
      ],
      "name": "allTournaments",
      "outputs": [
        {
          "name": "",
          "type": "address"
        }
      ],
      "payable": false,
      "stateMutability": "view",
      "type": "function"
    },
    {
      "constant": false,
      "inputs": [
        {
          "name": "newOwner",
          "type": "address"
        }
      ],
      "name": "transferOwnership",
      "outputs": [],
      "payable": false,
      "stateMutability": "nonpayable",
      "type": "function"
    },
    {
      "inputs": [
        {
          "name": "_matryxTokenAddress",
          "type": "address"
        },
        {
          "name": "_matryxPeerFactoryAddress",
          "type": "address"
        },
        {
          "name": "_matryxTournamentFactoryAddress",
          "type": "address"
        },
        {
          "name": "_matryxSubmissionFactoryAddress",
          "type": "address"
        },
        {
          "name": "_matryxSubmissionTrustLibAddress",
          "type": "address"
        }
      ],
      "payable": false,
      "stateMutability": "nonpayable",
      "type": "constructor"
    },
    {
      "anonymous": false,
      "inputs": [
        {
          "indexed": false,
          "name": "_discipline",
          "type": "string"
        },
        {
          "indexed": false,
          "name": "_owner",
          "type": "address"
        },
        {
          "indexed": false,
          "name": "_tournamentAddress",
          "type": "address"
        },
        {
          "indexed": false,
          "name": "_tournamentName_1",
          "type": "bytes32"
        },
        {
          "indexed": false,
          "name": "_tournamentName_2",
          "type": "bytes32"
        },
        {
          "indexed": false,
          "name": "_tournamentName_3",
          "type": "bytes32"
        },
        {
          "indexed": false,
          "name": "_externalAddress_1",
          "type": "bytes32"
        },
        {
          "indexed": false,
          "name": "_externalAddress_2",
          "type": "bytes32"
        },
        {
          "indexed": false,
          "name": "_MTXReward",
          "type": "uint256"
        },
        {
          "indexed": false,
          "name": "_entryFee",
          "type": "uint256"
        }
      ],
      "name": "TournamentCreated",
      "type": "event"
    },
    {
      "anonymous": false,
      "inputs": [
        {
          "indexed": false,
          "name": "_owner",
          "type": "address"
        },
        {
          "indexed": false,
          "name": "_tournamentAddress",
          "type": "address"
        },
        {
          "indexed": false,
          "name": "_tournamentName_1",
          "type": "bytes32"
        },
        {
          "indexed": false,
          "name": "_tournamentName_2",
          "type": "bytes32"
        },
        {
          "indexed": false,
          "name": "_tournamentName_3",
          "type": "bytes32"
        },
        {
          "indexed": false,
          "name": "_externalAddress_1",
          "type": "bytes32"
        },
        {
          "indexed": false,
          "name": "_externalAddress_2",
          "type": "bytes32"
        },
        {
          "indexed": false,
          "name": "_MTXReward",
          "type": "uint256"
        },
        {
          "indexed": false,
          "name": "_entryFee",
          "type": "uint256"
        }
      ],
      "name": "TournamentOpened",
      "type": "event"
    },
    {
      "anonymous": false,
      "inputs": [
        {
          "indexed": false,
          "name": "_tournamentAddress",
          "type": "address"
        },
        {
          "indexed": false,
          "name": "_finalRoundNumber",
          "type": "uint256"
        },
        {
          "indexed": false,
          "name": "_winningSubmissionAddresses",
          "type": "address[]"
        },
        {
          "indexed": false,
          "name": "_MTXReward",
          "type": "uint256"
        }
      ],
      "name": "TournamentClosed",
      "type": "event"
    },
    {
      "anonymous": false,
      "inputs": [
        {
          "indexed": false,
          "name": "_entrant",
          "type": "address"
        },
        {
          "indexed": false,
          "name": "_tournamentAddress",
          "type": "address"
        }
      ],
      "name": "UserEnteredTournament",
      "type": "event"
    },
    {
      "anonymous": false,
      "inputs": [
        {
          "indexed": false,
          "name": "queryID",
          "type": "string"
        }
      ],
      "name": "QueryID",
      "type": "event"
    },
    {
      "constant": false,
      "inputs": [
        {
          "name": "_owner",
          "type": "address"
        },
        {
          "name": "_tournamentName_1",
          "type": "bytes32"
        },
        {
          "name": "_tournamentName_2",
          "type": "bytes32"
        },
        {
          "name": "_tournamentName_3",
          "type": "bytes32"
        },
        {
          "name": "_externalAddress_1",
          "type": "bytes32"
        },
        {
          "name": "_externalAddress_2",
          "type": "bytes32"
        },
        {
          "name": "_MTXReward",
          "type": "uint256"
        },
        {
          "name": "_entryFee",
          "type": "uint256"
        }
      ],
      "name": "invokeTournamentOpenedEvent",
      "outputs": [],
      "payable": false,
      "stateMutability": "nonpayable",
      "type": "function"
    },
    {
      "constant": false,
      "inputs": [
        {
          "name": "_finalRoundNumber",
          "type": "uint256"
        },
        {
          "name": "_winningSubmissionAddresses",
          "type": "address[]"
        },
        {
          "name": "_rewardDistribution",
          "type": "uint256[]"
        },
        {
          "name": "_MTXReward",
          "type": "uint256"
        }
      ],
      "name": "invokeTournamentClosedEvent",
      "outputs": [],
      "payable": false,
      "stateMutability": "nonpayable",
      "type": "function"
    },
    {
      "constant": false,
      "inputs": [
        {
          "name": "_submissionAddress",
          "type": "address"
        },
        {
          "name": "_references",
          "type": "address[]"
        }
      ],
      "name": "handleReferenceRequestsForSubmission",
      "outputs": [
        {
          "name": "",
          "type": "bool"
        }
      ],
      "payable": false,
      "stateMutability": "nonpayable",
      "type": "function"
    },
    {
      "constant": false,
      "inputs": [
        {
          "name": "_reference",
          "type": "address"
        }
      ],
      "name": "handleReferenceRequestForSubmission",
      "outputs": [
        {
          "name": "",
          "type": "bool"
        }
      ],
      "payable": false,
      "stateMutability": "nonpayable",
      "type": "function"
    },
    {
      "constant": false,
      "inputs": [
        {
          "name": "_reference",
          "type": "address"
        }
      ],
      "name": "handleCancelledReferenceRequestForSubmission",
      "outputs": [
        {
          "name": "",
          "type": "bool"
        }
      ],
      "payable": false,
      "stateMutability": "nonpayable",
      "type": "function"
    },
    {
      "constant": false,
      "inputs": [
        {
          "name": "_owner",
          "type": "address"
        },
        {
          "name": "_submission",
          "type": "address"
        }
      ],
      "name": "updateSubmissions",
      "outputs": [],
      "payable": false,
      "stateMutability": "nonpayable",
      "type": "function"
    },
    {
      "constant": false,
      "inputs": [
        {
          "name": "_submissionAddress",
          "type": "address"
        },
        {
          "name": "_tournamentAddress",
          "type": "address"
        }
      ],
      "name": "removeSubmission",
      "outputs": [
        {
          "name": "",
          "type": "bool"
        }
      ],
      "payable": false,
      "stateMutability": "nonpayable",
      "type": "function"
    },
    {
      "constant": true,
      "inputs": [
        {
          "name": "_category",
          "type": "string"
        }
      ],
      "name": "getTournamentsByCategory",
      "outputs": [
        {
          "name": "",
          "type": "address[]"
        }
      ],
      "payable": false,
      "stateMutability": "view",
      "type": "function"
    },
    {
      "constant": true,
      "inputs": [
        {
          "name": "_category",
          "type": "string"
        }
      ],
      "name": "getCategoryCount",
      "outputs": [
        {
          "name": "",
          "type": "uint256"
        }
      ],
      "payable": false,
      "stateMutability": "view",
      "type": "function"
    },
    {
      "constant": true,
      "inputs": [
        {
          "name": "_index",
          "type": "uint256"
        }
      ],
      "name": "getTopCategory",
      "outputs": [
        {
          "name": "",
          "type": "string"
        }
      ],
      "payable": false,
      "stateMutability": "view",
      "type": "function"
    },
    {
      "constant": true,
      "inputs": [
        {
          "name": "_index",
          "type": "uint256"
        }
      ],
      "name": "getCategoryByIndex",
      "outputs": [
        {
          "name": "",
          "type": "string"
        }
      ],
      "payable": false,
      "stateMutability": "view",
      "type": "function"
    },
    {
      "constant": false,
      "inputs": [
        {
          "name": "_tournamentAddress",
          "type": "address"
        }
      ],
      "name": "enterTournament",
      "outputs": [
        {
          "name": "_success",
          "type": "bool"
        }
      ],
      "payable": false,
      "stateMutability": "nonpayable",
      "type": "function"
    },
    {
      "constant": false,
      "inputs": [
        {
          "name": "_category",
          "type": "string"
        },
        {
          "components": [
            {
              "name": "categoryHash",
              "type": "bytes32"
            },
            {
              "name": "title_1",
              "type": "bytes32"
            },
            {
              "name": "title_2",
              "type": "bytes32"
            },
            {
              "name": "title_3",
              "type": "bytes32"
            },
            {
              "name": "contentHash_1",
              "type": "bytes32"
            },
            {
              "name": "contentHash_2",
              "type": "bytes32"
            },
            {
              "name": "Bounty",
              "type": "uint256"
            },
            {
              "name": "entryFee",
              "type": "uint256"
            }
          ],
          "name": "tournamentData",
          "type": "tuple"
        },
        {
          "components": [
            {
              "name": "start",
              "type": "uint256"
            },
            {
              "name": "end",
              "type": "uint256"
            },
            {
              "name": "reviewDuration",
              "type": "uint256"
            },
            {
              "name": "bounty",
              "type": "uint256"
            }
          ],
          "name": "roundData",
          "type": "tuple"
        }
      ],
      "name": "createTournament",
      "outputs": [
        {
          "name": "_tournamentAddress",
          "type": "address"
        }
      ],
      "payable": false,
      "stateMutability": "nonpayable",
      "type": "function"
    },
    {
      "constant": false,
      "inputs": [],
      "name": "createPeer",
      "outputs": [
        {
          "name": "",
          "type": "address"
        }
      ],
      "payable": false,
      "stateMutability": "nonpayable",
      "type": "function"
    },
    {
      "constant": true,
      "inputs": [
        {
          "name": "_peerAddress",
          "type": "address"
        }
      ],
      "name": "isPeer",
      "outputs": [
        {
          "name": "",
          "type": "bool"
        }
      ],
      "payable": false,
      "stateMutability": "view",
      "type": "function"
    },
    {
      "constant": true,
      "inputs": [
        {
          "name": "_sender",
          "type": "address"
        }
      ],
      "name": "hasPeer",
      "outputs": [
        {
          "name": "",
          "type": "bool"
        }
      ],
      "payable": false,
      "stateMutability": "view",
      "type": "function"
    },
    {
      "constant": true,
      "inputs": [
        {
          "name": "_peer",
          "type": "address"
        },
        {
          "name": "_reference",
          "type": "address"
        }
      ],
      "name": "peerExistsAndOwnsSubmission",
      "outputs": [
        {
          "name": "",
          "type": "bool"
        }
      ],
      "payable": false,
      "stateMutability": "view",
      "type": "function"
    },
    {
      "constant": true,
      "inputs": [
        {
          "name": "_sender",
          "type": "address"
        }
      ],
      "name": "peerAddress",
      "outputs": [
        {
          "name": "",
          "type": "address"
        }
      ],
      "payable": false,
      "stateMutability": "view",
      "type": "function"
    },
    {
      "constant": true,
      "inputs": [
        {
          "name": "_submissionAddress",
          "type": "address"
        }
      ],
      "name": "isSubmission",
      "outputs": [
        {
          "name": "",
          "type": "bool"
        }
      ],
      "payable": false,
      "stateMutability": "view",
      "type": "function"
    },
    {
      "constant": true,
      "inputs": [
        {
          "name": "_categoryHash",
          "type": "bytes32"
        }
      ],
      "name": "hashForCategory",
      "outputs": [
        {
          "name": "_category",
          "type": "string"
        }
      ],
      "payable": false,
      "stateMutability": "view",
      "type": "function"
    },
    {
      "constant": true,
      "inputs": [
        {
          "name": "_tournamentAddress",
          "type": "address"
        }
      ],
      "name": "getTournament_IsMine",
      "outputs": [
        {
          "name": "_isMine",
          "type": "bool"
        }
      ],
      "payable": false,
      "stateMutability": "view",
      "type": "function"
    },
    {
      "constant": false,
      "inputs": [
        {
          "name": "_gratitude",
          "type": "uint256"
        }
      ],
      "name": "setSubmissionGratitude",
      "outputs": [],
      "payable": false,
      "stateMutability": "nonpayable",
      "type": "function"
    },
    {
      "constant": true,
      "inputs": [],
      "name": "getTokenAddress",
      "outputs": [
        {
          "name": "",
          "type": "address"
        }
      ],
      "payable": false,
      "stateMutability": "view",
      "type": "function"
    },
    {
      "constant": true,
      "inputs": [],
      "name": "getSubmissionTrustLibrary",
      "outputs": [
        {
          "name": "",
          "type": "address"
        }
      ],
      "payable": false,
      "stateMutability": "view",
      "type": "function"
    },
    {
      "constant": true,
      "inputs": [],
      "name": "getSubmissionGratitude",
      "outputs": [
        {
          "name": "",
          "type": "uint256"
        }
      ],
      "payable": false,
      "stateMutability": "view",
      "type": "function"
    },
    {
      "constant": true,
      "inputs": [],
      "name": "myTournaments",
      "outputs": [
        {
          "name": "",
          "type": "address[]"
        }
      ],
      "payable": false,
      "stateMutability": "view",
      "type": "function"
    },
    {
      "constant": true,
      "inputs": [],
      "name": "mySubmissions",
      "outputs": [
        {
          "name": "",
          "type": "address[]"
        }
      ],
      "payable": false,
      "stateMutability": "view",
      "type": "function"
    },
    {
      "constant": true,
      "inputs": [],
      "name": "tournamentCount",
      "outputs": [
        {
          "name": "_tournamentCount",
          "type": "uint256"
        }
      ],
      "payable": false,
      "stateMutability": "view",
      "type": "function"
    },
    {
      "constant": true,
      "inputs": [
        {
          "name": "_index",
          "type": "uint256"
        }
      ],
      "name": "getTournamentAtIndex",
      "outputs": [
        {
          "name": "_tournamentAddress",
          "type": "address"
        }
      ],
      "payable": false,
      "stateMutability": "view",
      "type": "function"
    }
  ],
  "bytecode": "0x60c0604052600160808190526702c68af0bb14000060a08190526015805460ff19169092179091556016553480156200003757600080fd5b5060405160a080620038d08339810180604052620000599190810190620000db565b6000805433600160a060020a031991821617909155600180548216600160a060020a03978816179055600280548216958716959095179094556003805485169386169390931790925560048054841691851691909117905560058054909216921691909117905562000167565b6000620000d482516200015b565b9392505050565b600080600080600060a08688031215620000f457600080fd5b6000620001028888620000c6565b95505060206200011588828901620000c6565b94505060406200012888828901620000c6565b93505060606200013b88828901620000c6565b92505060806200014e88828901620000c6565b9150509295509295909350565b600160a060020a031690565b61375980620001776000396000f30060806040526004361061023a5763ffffffff7c010000000000000000000000000000000000000000000000000000000060003504166310fe9ae8811461023f5780631411f0a81461026a5780631d2245f51461029757806327252a0c146102b957806329cc545e146102ce5780632f54bf6e146102e357806331f4c5d3146103105780633e44cf7814610332578063493a7af3146103525780634cbb12a91461038257806351488bce146103a4578063532311c4146103c45780636a44e43d146103e45780636e2b2c7c1461040457806370e592b8146104195780637cb997b714610439578063818b5fa8146104595780638423e63e14610479578063893d20e8146104995780638ac70272146104ae5780638c593a8c146104c35780638d1d498c146104e35780638da5cb5b14610503578063984ed2061461051857806399db60dd14610538578063a2d0ab4714610558578063a923251e1461056d578063a968c4b91461058d578063ab9583d9146105ad578063ac17741b146105cd578063ae945a36146105ed578063b0ff549214610602578063b20a2dce14610617578063b2fad5541461062c578063b846e21c1461064c578063c13ae92a14610661578063c21260a514610681578063c839984a146106a1578063d4f056d4146106c1578063e139a20c146106e1578063e6493561146106f6578063e8a0ed0d14610716578063f2fde38b14610736578063f3dc0d2514610756578063f7468a3c1461076b578063f7c3609d1461078b578063fb5032d6146107a0575b600080fd5b34801561024b57600080fd5b506102546107c0565b60405161026191906133ba565b60405180910390f35b34801561027657600080fd5b5061028a61028536600461309f565b6107dd565b6040516102619190613515565b3480156102a357600080fd5b506102ac610888565b60405161026191906134cd565b3480156102c557600080fd5b50610254610900565b3480156102da57600080fd5b5061025461091c565b3480156102ef57600080fd5b506103036102fe366004612f0b565b610938565b60405161026191906134de565b34801561031c57600080fd5b5061033061032b366004613183565b610959565b005b34801561033e57600080fd5b5061030361034d366004612f0b565b6109ba565b34801561035e57600080fd5b5061037261036d36600461309f565b6109e5565b60405161026194939291906135c0565b34801561038e57600080fd5b50610397610aad565b60405161026191906134ec565b3480156103b057600080fd5b506103036103bf366004612f4f565b610ab3565b3480156103d057600080fd5b506103036103df366004612f0b565b610b37565b3480156103f057600080fd5b506102546103ff366004612f0b565b610b64565b34801561041057600080fd5b50610397610b8f565b34801561042557600080fd5b50610303610434366004612f0b565b610b95565b34801561044557600080fd5b5061028a61045436600461309f565b610baa565b34801561046557600080fd5b50610303610474366004612f0b565b610c8c565b34801561048557600080fd5b5061039761049436600461309f565b610cb7565b3480156104a557600080fd5b50610254610cc9565b3480156104ba57600080fd5b50610254610ce5565b3480156104cf57600080fd5b506103036104de366004612f89565b610d01565b3480156104ef57600080fd5b5061028a6104fe36600461309f565b610f1d565b34801561050f57600080fd5b50610254610f55565b34801561052457600080fd5b5061025461053336600461309f565b610f71565b34801561054457600080fd5b50610254610553366004612f0b565b610fc4565b34801561056457600080fd5b50610254610fec565b34801561057957600080fd5b50610330610588366004612fd1565b611008565b34801561059957600080fd5b506103036105a8366004612f4f565b611077565b3480156105b957600080fd5b506103306105c8366004612f4f565b61132a565b3480156105d957600080fd5b506102ac6105e83660046130bd565b61140e565b3480156105f957600080fd5b506103976114b9565b34801561060e57600080fd5b506102546114bf565b34801561062357600080fd5b506103976114db565b34801561063857600080fd5b50610303610647366004612f0b565b6114f6565b34801561065857600080fd5b506102546116d7565b34801561066d57600080fd5b5061033061067c36600461309f565b6116f3565b34801561068d57600080fd5b5061028a61069c36600461309f565b611761565b3480156106ad57600080fd5b506102546106bc36600461309f565b611808565b3480156106cd57600080fd5b506103976106dc3660046130bd565b61183d565b3480156106ed57600080fd5b506102ac61188c565b34801561070257600080fd5b506102546107113660046130ff565b611902565b34801561072257600080fd5b50610303610731366004612f0b565b611bf9565b34801561074257600080fd5b50610330610751366004612f0b565b611d03565b34801561076257600080fd5b50610254611d85565b34801561077757600080fd5b50610303610786366004612f0b565b611da1565b34801561079757600080fd5b50610254612033565b3480156107ac57600080fd5b506103036107bb366004612f0b565b612185565b60015473ffffffffffffffffffffffffffffffffffffffff165b90565b6060600c828154811015156107ee57fe5b600091825260209182902001805460408051601f600260001961010060018716150201909416939093049283018590048502810185019091528181529283018282801561087c5780601f106108515761010080835404028352916020019161087c565b820191906000526020600020905b81548152906001019060200180831161085f57829003601f168201915b50505050509050919050565b336000908152601260209081526040918290208054835181840281018401909452808452606093928301828280156108f657602002820191906000526020600020905b815473ffffffffffffffffffffffffffffffffffffffff1681526001909101906020018083116108cb575b5050505050905090565b60035473ffffffffffffffffffffffffffffffffffffffff1681565b60015473ffffffffffffffffffffffffffffffffffffffff1681565b60005473ffffffffffffffffffffffffffffffffffffffff91821691161490565b3360009081526010602052604090205460ff16151561097757600080fd5b7f983fdae4f6f66b5b7f1305ad07fe9b9de2851309ae41a2fe8d9e3aec8ef3e186338585846040516109ac9493929190613491565b60405180910390a150505050565b73ffffffffffffffffffffffffffffffffffffffff166000908152600d602052604090205460ff1690565b600b6020908152600091825260409182902080548351601f60026000196101006001861615020190931692909204918201849004840281018401909452808452909291839190830182828015610a7c5780601f10610a5157610100808354040283529160200191610a7c565b820191906000526020600020905b815481529060010190602001808311610a5f57829003601f168201915b505050506001830154600284015460039094015492936fffffffffffffffffffffffffffffffff9091169290915084565b60095481565b73ffffffffffffffffffffffffffffffffffffffff8083166000818152600d60209081526040808320548686168085526011845282852054958552600e8452828520549096168452600f835281842095845294909152812054909260ff9081169281169116828015610b225750815b8015610b2b5750805b93505b50505092915050565b73ffffffffffffffffffffffffffffffffffffffff9081166000908152600e602052604090205416151590565b73ffffffffffffffffffffffffffffffffffffffff9081166000908152600e60205260409020541690565b60075490565b600d6020526000908152604090205460ff1681565b6008546000818152600b602052604090206060919060015b848111610bf7576000928352600b60205260408084206003015480855293209150821515610bef57610bf7565b600101610bc2565b8154604080516020601f60026000196101006001881615020190951694909404938401819004810282018101909252828152918491830182828015610c7d5780601f10610c5257610100808354040283529160200191610c7d565b820191906000526020600020905b815481529060010190602001808311610c6057829003601f168201915b50505050509350505050919050565b73ffffffffffffffffffffffffffffffffffffffff1660009081526011602052604090205460ff1690565b600a6020526000908152604090205481565b60005473ffffffffffffffffffffffffffffffffffffffff1690565b60065473ffffffffffffffffffffffffffffffffffffffff1681565b33600090815260106020526040812054819081908190819060ff161515610d2757600080fd5b600093505b8551841015610f13578584815181101515610d4357fe5b906020019060200201519250610d5883610c8c565b1515610d6357610f08565b8291508173ffffffffffffffffffffffffffffffffffffffff1663a5faa1256040518163ffffffff167c0100000000000000000000000000000000000000000000000000000000028152600401602060405180830381600087803b158015610dca57600080fd5b505af1158015610dde573d6000803e3d6000fd5b505050506040513d601f19601f82011682018060405250610e029190810190612f31565b6040517fd1bbd31200000000000000000000000000000000000000000000000000000000815290915073ffffffffffffffffffffffffffffffffffffffff82169063d1bbd31290610e59908a9087906004016133c8565b600060405180830381600087803b158015610e7357600080fd5b505af1158015610e87573d6000803e3d6000fd5b505050508173ffffffffffffffffffffffffffffffffffffffff1663c7af35516040518163ffffffff167c0100000000000000000000000000000000000000000000000000000000028152600401600060405180830381600087803b158015610eef57600080fd5b505af1158015610f03573d6000803e3d6000fd5b505050505b600190930192610d2c565b5050505092915050565b5060408051808201909152601281527f74656d706f726172792063617465676f72790000000000000000000000000000602082015290565b60005473ffffffffffffffffffffffffffffffffffffffff1681565b600080821015610f8057600080fd5b6007548210610f8e57600080fd5b6007805483908110610f9c57fe5b60009182526020909120015473ffffffffffffffffffffffffffffffffffffffff1692915050565b600e6020526000908152604090205473ffffffffffffffffffffffffffffffffffffffff1681565b60025473ffffffffffffffffffffffffffffffffffffffff1681565b3360009081526010602052604090205460ff16151561102657600080fd5b7f67463a82a3de9d3302dd325602c0b0ac0ba5437fa8e04a6aeb8b218be7d7d54b883389898989898989604051611065999897969594939291906133e3565b60405180910390a15050505050505050565b336000908152600f6020908152604080832073ffffffffffffffffffffffffffffffffffffffff8616845290915281205481908190819060ff1615156110bc57600080fd5b73ffffffffffffffffffffffffffffffffffffffff851660009081526010602052604090205460ff1615156110f057600080fd5b73ffffffffffffffffffffffffffffffffffffffff861660009081526011602052604090205460ff16151561112457600080fd5b8592508573ffffffffffffffffffffffffffffffffffffffff1663893d20e86040518163ffffffff167c0100000000000000000000000000000000000000000000000000000000028152600401602060405180830381600087803b15801561118b57600080fd5b505af115801561119f573d6000803e3d6000fd5b505050506040513d601f19601f820116820180604052506111c39190810190612f31565b73ffffffffffffffffffffffffffffffffffffffff8082166000818152601460209081526040808320948c1683529381528382206001015460118252848320805460ff1916905592825260139052919091208054929450909250908290811061122857fe5b60009182526020808320909101805473ffffffffffffffffffffffffffffffffffffffff1916905573ffffffffffffffffffffffffffffffffffffffff84811683526014825260408084208a83168552909252818320805460ff1916815560010192909255517fa968c4b90000000000000000000000000000000000000000000000000000000081529086169063a968c4b9906112cb90899086906004016133c8565b602060405180830381600087803b1580156112e557600080fd5b505af11580156112f9573d6000803e3d6000fd5b505050506040513d601f19601f8201168201806040525061131d9190810190613081565b5060019695505050505050565b3360009081526010602052604090205460ff16151561134857600080fd5b604080518082018252600180825273ffffffffffffffffffffffffffffffffffffffff948516600081815260136020908152858220805482870190815284845260148352878420989099168084529782528683209551865490151560ff1991821617875598519585019590955584548085018655948252808220909401805473ffffffffffffffffffffffffffffffffffffffff191687179055908152600f83528381209481529382528284208054861682179055601190915291208054909216179055565b6060600b60008484604051808383808284378201915050925050506040518091039020600019166000191681526020019081526020016000206004018054806020026020016040519081016040528092919081815260200182805480156114ab57602002820191906000526020600020905b815473ffffffffffffffffffffffffffffffffffffffff168152600190910190602001808311611480575b505050505090505b92915050565b60085481565b60045473ffffffffffffffffffffffffffffffffffffffff1681565b60155460009060ff1615156114ef57600080fd5b5060165490565b336000908152601160205260408120548190819060ff16151561151857600080fd5b61152184610c8c565b151561152c57600080fd5b8391508173ffffffffffffffffffffffffffffffffffffffff1663a5faa1256040518163ffffffff167c0100000000000000000000000000000000000000000000000000000000028152600401602060405180830381600087803b15801561159357600080fd5b505af11580156115a7573d6000803e3d6000fd5b505050506040513d601f19601f820116820180604052506115cb9190810190612f31565b6040517fd1bbd31200000000000000000000000000000000000000000000000000000000815290915073ffffffffffffffffffffffffffffffffffffffff82169063d1bbd3129061162290339088906004016133c8565b600060405180830381600087803b15801561163c57600080fd5b505af1158015611650573d6000803e3d6000fd5b505050508173ffffffffffffffffffffffffffffffffffffffff1663c7af35516040518163ffffffff167c0100000000000000000000000000000000000000000000000000000000028152600401600060405180830381600087803b1580156116b857600080fd5b505af11580156116cc573d6000803e3d6000fd5b505050505050919050565b60055473ffffffffffffffffffffffffffffffffffffffff1681565b60005473ffffffffffffffffffffffffffffffffffffffff16331461171757600080fd5b600081101580156117305750670de0b6b3a76400008111155b151561173857fe5b60408051808201909152600180825260209091018290526015805460ff19169091179055601655565b600c80548290811061176f57fe5b600091825260209182902001805460408051601f60026000196101006001871615020190941693909304928301859004850281018501909152818152935090918301828280156118005780601f106117d557610100808354040283529160200191611800565b820191906000526020600020905b8154815290600101906020018083116117e357829003601f168201915b505050505081565b600780548290811061181657fe5b60009182526020909120015473ffffffffffffffffffffffffffffffffffffffff16905081565b6000600b600084846040518083838082843760408051919093018190039020865250602085019590955250505001600020600101546fffffffffffffffffffffffffffffffff16905092915050565b336000908152601360209081526040918290208054835181840281018401909452808452606093928301828280156108f65760200282019190600052602060002090815473ffffffffffffffffffffffffffffffffffffffff1681526001909101906020018083116108cb575050505050905090565b6003546040517fc56736b800000000000000000000000000000000000000000000000000000000815260009173ffffffffffffffffffffffffffffffffffffffff16908290829063c56736b890611961908890889033906004016135fa565b602060405180830381600087803b15801561197b57600080fd5b505af115801561198f573d6000803e3d6000fd5b505050506040513d601f19601f820116820180604052506119b39190810190612f31565b90507f0a3eabe50f6fdb1131643d035f8bde7e91d600ba5d64c4a17de4d9c9fef3ec63863383886020015189604001518a606001518b608001518c60a001518d60c001518e60e00151604051611a129a99989796959493929190613526565b60405180910390a1611a248187612347565b60015460c08601516040517f23b872dd00000000000000000000000000000000000000000000000000000000815273ffffffffffffffffffffffffffffffffffffffff909216916323b872dd91611a819133918691600401613469565b602060405180830381600087803b158015611a9b57600080fd5b505af1158015611aaf573d6000803e3d6000fd5b505050506040513d601f19601f82011682018060405250611ad39190810190613081565b1515611ade57600080fd5b60608401516040517f23721e2400000000000000000000000000000000000000000000000000000000815273ffffffffffffffffffffffffffffffffffffffff8316916323721e2491611b36916000916004016134fa565b600060405180830381600087803b158015611b5057600080fd5b505af1158015611b64573d6000803e3d6000fd5b50506007805460018082019092557fa66cc928b5edb82af9bd49922954155ab7b0942694bea4ce44661d9a8736c68801805473ffffffffffffffffffffffffffffffffffffffff191673ffffffffffffffffffffffffffffffffffffffff86169081179091556000908152601060205260409020805460ff1916909117905550611bf090503382612a88565b95945050505050565b73ffffffffffffffffffffffffffffffffffffffff8116600090815260106020526040812054819060ff161515611c2f57600080fd5b8290503373ffffffffffffffffffffffffffffffffffffffff168173ffffffffffffffffffffffffffffffffffffffff1663893d20e86040518163ffffffff167c0100000000000000000000000000000000000000000000000000000000028152600401602060405180830381600087803b158015611cad57600080fd5b505af1158015611cc1573d6000803e3d6000fd5b505050506040513d601f19601f82011682018060405250611ce59190810190612f31565b73ffffffffffffffffffffffffffffffffffffffff16149392505050565b60005473ffffffffffffffffffffffffffffffffffffffff163314611d2757600080fd5b73ffffffffffffffffffffffffffffffffffffffff81161515611d4957600080fd5b6000805473ffffffffffffffffffffffffffffffffffffffff191673ffffffffffffffffffffffffffffffffffffffff92909216919091179055565b60055473ffffffffffffffffffffffffffffffffffffffff1690565b60008060008033611db181610b37565b1515611dbc57600080fd5b73ffffffffffffffffffffffffffffffffffffffff861660009081526010602052604090205460ff161515611df057600080fd5b8593508373ffffffffffffffffffffffffffffffffffffffff1663e586a4f06040518163ffffffff167c0100000000000000000000000000000000000000000000000000000000028152600401602060405180830381600087803b158015611e5757600080fd5b505af1158015611e6b573d6000803e3d6000fd5b505050506040513d601f19601f82011682018060405250611e8f9190810190613165565b6001546040517f23b872dd00000000000000000000000000000000000000000000000000000000815291945073ffffffffffffffffffffffffffffffffffffffff16906323b872dd90611eea9033908a908890600401613469565b602060405180830381600087803b158015611f0457600080fd5b505af1158015611f18573d6000803e3d6000fd5b505050506040513d601f19601f82011682018060405250611f3c9190810190613081565b9150811561202a576040517f28d576d700000000000000000000000000000000000000000000000000000000815273ffffffffffffffffffffffffffffffffffffffff8516906328d576d790611f969033906004016133ba565b602060405180830381600087803b158015611fb057600080fd5b505af1158015611fc4573d6000803e3d6000fd5b505050506040513d601f19601f82011682018060405250611fe89190810190613081565b9150811561202a577f5891a745b8d042d48bd1e4aed889e63bdc3e44242bb75694ea97573460e03a8b33876040516120219291906133c8565b60405180910390a15b50949350505050565b336000908152600e60205260408120548190819073ffffffffffffffffffffffffffffffffffffffff161561206757600080fd5b6002546040517f48bf957700000000000000000000000000000000000000000000000000000000815273ffffffffffffffffffffffffffffffffffffffff909116925082906348bf9577906120c09033906004016133ba565b602060405180830381600087803b1580156120da57600080fd5b505af11580156120ee573d6000803e3d6000fd5b505050506040513d601f19601f820116820180604052506121129190810190612f31565b73ffffffffffffffffffffffffffffffffffffffff166000818152600d60209081526040808320805460ff1916600117905533808452600e909252808320805473ffffffffffffffffffffffffffffffffffffffff19908116861790915593835290912080549092161790555090919050565b336000908152601160205260408120548190819060ff1615156121a757600080fd5b6121b084610c8c565b15156121bb57600080fd5b8391508173ffffffffffffffffffffffffffffffffffffffff1663a5faa1256040518163ffffffff167c0100000000000000000000000000000000000000000000000000000000028152600401602060405180830381600087803b15801561222257600080fd5b505af1158015612236573d6000803e3d6000fd5b505050506040513d601f19601f8201168201806040525061225a9190810190612f31565b6040517fa1cc4ac100000000000000000000000000000000000000000000000000000000815290915073ffffffffffffffffffffffffffffffffffffffff82169063a1cc4ac1906122b190339088906004016133c8565b600060405180830381600087803b1580156122cb57600080fd5b505af11580156122df573d6000803e3d6000fd5b505050508173ffffffffffffffffffffffffffffffffffffffff1663444e31ca6040518163ffffffff167c0100000000000000000000000000000000000000000000000000000000028152600401600060405180830381600087803b1580156116b857600080fd5b6000806000806000806000806000896040518082805190602001908083835b602083106123855780518252601f199092019160209182019101612366565b51815160209384036101000a600019018019909216911617905260408051929094018290039091206000818152600b90925292902060010154919c50506fffffffffffffffffffffffffffffffff16151591506126dc905057600c8054600181018083556000929092528b51612422917fdf6966c971051c3d54ec59162606531493a51404a002842f56009d7e5cf4a8c7019060208e0190612ae0565b5050600854151561253757600889905560098990556040805160a0810182528b815260016020808301919091526000828401819052606083018190528351818152808301855260808401528c8152600b825292909220815180519293919261248d9284920190612ae0565b506020828101516001830180547fffffffffffffffffffffffffffffffff00000000000000000000000000000000166fffffffffffffffffffffffffffffffff9092169190911790556040830151600283015560608301516003830155608083015180516125019260048501920190612b5e565b5050600160005250600a6020527fbbc70db1b6c7afd11e79c0fb0051300458f1a3acb8ee9789d9b6b26c61ad9bc789905561267e565b6040805160a0810182528b81526001602080830191909152600954828401526000606083018190528351818152808301855260808401528c8152600b825292909220815180519293919261258e9284920190612ae0565b506020828101516001830180547fffffffffffffffffffffffffffffffff00000000000000000000000000000000166fffffffffffffffffffffffffffffffff9092169190911790556040830151600283015560608301516003830155608083015180516126029260048501920190612b5e565b50506009546000908152600b6020908152604082206003018c90556001909152600a9052507fbbc70db1b6c7afd11e79c0fb0051300458f1a3acb8ee9789d9b6b26c61ad9bc754151561267e576001600052600a6020527fbbc70db1b6c7afd11e79c0fb0051300458f1a3acb8ee9789d9b6b26c61ad9bc78990555b6000898152600b6020908152604082206004018054600181018255908352912001805473ffffffffffffffffffffffffffffffffffffffff191673ffffffffffffffffffffffffffffffffffffffff8d161790556009899055612a7b565b600b60008a600019166000191681526020019081526020016000206004018b90806001815401808255809150509060018203906000526020600020016000909192909190916101000a81548173ffffffffffffffffffffffffffffffffffffffff021916908373ffffffffffffffffffffffffffffffffffffffff16021790555050600b60008a6000191660001916815260200190815260200160002060010160009054906101000a90046fffffffffffffffffffffffffffffffff166fffffffffffffffffffffffffffffffff169750600b60008a6000191660001916815260200190815260200160002060010160009054906101000a90046fffffffffffffffffffffffffffffffff16600101965086600b60008b6000191660001916815260200190815260200160002060010160006101000a8154816fffffffffffffffffffffffffffffffff02191690836fffffffffffffffffffffffffffffffff160217905550600a6000886fffffffffffffffffffffffffffffffff16815260200190815260200160002054600019166000600102141561289c576fffffffffffffffffffffffffffffffff87166000908152600a602052604090208990555b6000898152600b602052604090206002015415612a2e576000898152600b602052604080822060028101548352908220600190810154928c905201546fffffffffffffffffffffffffffffffff91821691161115612a2e576000898152600b60209081526040808320600101546fffffffffffffffffffffffffffffffff90811660001901168352600a90915290205460085490965086141561293f5760088990555b60095489141561294f5760098690555b5050506000838152600b6020526040808220888352912060038083018054600280850180549486015490935585015491829055939550919350828914929091156129ad5760028501546000908152600b602052604090206003018990555b6003840154156129d15760038401546000908152600b602052604090206002018690555b82156129ea576002850189905560038401869055612a2e565b60028501829055600384018190558115612a13576000828152600b602052604090206003018690555b8015612a2e576000818152600b602052604090206002018990555b6000898152600b602052604090206003015415612a6b576000898152600b60209081526040808320600301548b8452600a90925290912055612a7b565b6000888152600a60205260408120555b5050505050505050505050565b73ffffffffffffffffffffffffffffffffffffffff918216600090815260126020908152604082208054600181018255908352912001805473ffffffffffffffffffffffffffffffffffffffff191691909216179055565b828054600181600116156101000203166002900490600052602060002090601f016020900481019282601f10612b2157805160ff1916838001178555612b4e565b82800160010185558215612b4e579182015b82811115612b4e578251825591602001919060010190612b33565b50612b5a929150612bd9565b5090565b828054828255906000526020600020908101928215612bcd579160200282015b82811115612bcd578251825473ffffffffffffffffffffffffffffffffffffffff191673ffffffffffffffffffffffffffffffffffffffff909116178255602090920191600190910190612b7e565b50612b5a929150612bf3565b6107da91905b80821115612b5a5760008155600101612bdf565b6107da91905b80821115612b5a57805473ffffffffffffffffffffffffffffffffffffffff19168155600101612bf9565b6000612c30823561369f565b9392505050565b6000612c30825161369f565b6000601f82018313612c5457600080fd5b8135612c67612c628261364c565b613625565b91508181835260208401935060208101905083856020840282011115612c8c57600080fd5b60005b83811015610f135781612ca28882612c24565b8452506020928301929190910190600101612c8f565b6000601f82018313612cc957600080fd5b8135612cd7612c628261364c565b91508181835260208401935060208101905083856020840282011115612cfc57600080fd5b60005b83811015610f135781612d128882612d34565b8452506020928301929190910190600101612cff565b6000612c3082516136b8565b6000612c3082356107da565b600080601f83018413612d5257600080fd5b50813567ffffffffffffffff811115612d6a57600080fd5b602083019150836001820283011115612d8257600080fd5b9250929050565b6000601f82018313612d9a57600080fd5b8135612da8612c628261366d565b91508082526020830160208301858383011115612dc457600080fd5b610b2e8382846136dd565b600060808284031215612de157600080fd5b612deb6080613625565b90506000612df98484612d34565b8252506020612e0a84848301612d34565b6020830152506040612e1e84828501612d34565b6040830152506060612e3284828501612d34565b60608301525092915050565b60006101008284031215612e5157600080fd5b612e5c610100613625565b90506000612e6a8484612d34565b8252506020612e7b84848301612d34565b6020830152506040612e8f84828501612d34565b6040830152506060612ea384828501612d34565b6060830152506080612eb784828501612d34565b60808301525060a0612ecb84828501612d34565b60a08301525060c0612edf84828501612d34565b60c08301525060e0612ef384828501612d34565b60e08301525092915050565b6000612c3082516107da565b600060208284031215612f1d57600080fd5b6000612f298484612c24565b949350505050565b600060208284031215612f4357600080fd5b6000612f298484612c37565b60008060408385031215612f6257600080fd5b6000612f6e8585612c24565b9250506020612f7f85828601612c24565b9150509250929050565b60008060408385031215612f9c57600080fd5b6000612fa88585612c24565b925050602083013567ffffffffffffffff811115612fc557600080fd5b612f7f85828601612c43565b600080600080600080600080610100898b031215612fee57600080fd5b6000612ffa8b8b612c24565b985050602061300b8b828c01612d34565b975050604061301c8b828c01612d34565b965050606061302d8b828c01612d34565b955050608061303e8b828c01612d34565b94505060a061304f8b828c01612d34565b93505060c06130608b828c01612d34565b92505060e06130718b828c01612d34565b9150509295985092959890939650565b60006020828403121561309357600080fd5b6000612f298484612d28565b6000602082840312156130b157600080fd5b6000612f298484612d34565b600080602083850312156130d057600080fd5b823567ffffffffffffffff8111156130e757600080fd5b6130f385828601612d40565b92509250509250929050565b60008060006101a0848603121561311557600080fd5b833567ffffffffffffffff81111561312c57600080fd5b61313886828701612d89565b935050602061314986828701612e3e565b92505061012061315b86828701612dcf565b9150509250925092565b60006020828403121561317757600080fd5b6000612f298484612eff565b6000806000806080858703121561319957600080fd5b60006131a58787612d34565b945050602085013567ffffffffffffffff8111156131c257600080fd5b6131ce87828801612c43565b935050604085013567ffffffffffffffff8111156131eb57600080fd5b6131f787828801612cb8565b925050606061320887828801612d34565b91505092959194509250565b61321d8161369f565b82525050565b600061322e8261369b565b80845260208401935061324083613695565b60005b8281101561327057613256868351613214565b61325f82613695565b602096909601959150600101613243565b5093949350505050565b61321d816136b8565b61321d816107da565b61321d816136d2565b60006132a08261369b565b8084526132b48160208601602086016136e9565b6132bd81613715565b9093016020019392505050565b805160808301906132db8482613283565b5060208201516132ee6020850182613283565b5060408201516133016040850182613283565b5060608201516133146060850182613283565b50505050565b805161010083019061332c8482613283565b50602082015161333f6020850182613283565b5060408201516133526040850182613283565b5060608201516133656060850182613283565b5060808201516133786080850182613283565b5060a082015161338b60a0850182613283565b5060c082015161339e60c0850182613283565b5060e082015161331460e0850182613283565b61321d816136bd565b602081016114b38284613214565b604081016133d68285613214565b612c306020830184613214565b61012081016133f2828c613214565b6133ff602083018b613214565b61340c604083018a613283565b6134196060830189613283565b6134266080830188613283565b61343360a0830187613283565b61344060c0830186613283565b61344d60e0830185613283565b61345b610100830184613283565b9a9950505050505050505050565b606081016134778286613214565b6134846020830185613214565b612f296040830184613283565b6080810161349f8287613214565b6134ac6020830186613283565b81810360408301526134be8185613223565b9050611bf06060830184613283565b60208082528101612c308184613223565b602081016114b3828461327a565b602081016114b38284613283565b60408101613508828561328c565b612c306020830184613283565b60208082528101612c308184613295565b6101408082528101613538818d613295565b9050613547602083018c613214565b613554604083018b613214565b613561606083018a613283565b61356e6080830189613283565b61357b60a0830188613283565b61358860c0830187613283565b61359560e0830186613283565b6135a3610100830185613283565b6135b1610120830184613283565b9b9a5050505050505050505050565b608080825281016135d18187613295565b90506135e060208301866133b1565b6135ed6040830185613283565b611bf06060830184613283565b6101a08101613609828661331a565b6136176101008301856132ca565b612f29610180830184613214565b60405181810167ffffffffffffffff8111828210171561364457600080fd5b604052919050565b600067ffffffffffffffff82111561366357600080fd5b5060209081020190565b600067ffffffffffffffff82111561368457600080fd5b506020601f91909101601f19160190565b60200190565b5190565b73ffffffffffffffffffffffffffffffffffffffff1690565b151590565b6fffffffffffffffffffffffffffffffff1690565b60006114b3826107da565b82818337506000910152565b60005b838110156137045781810151838201526020016136ec565b838111156133145750506000910152565b601f01601f1916905600a265627a7a72305820d916b2f793ade09ce6a1cb6ed2726e579e7d578899c3bf072fa9aaa9794799786c6578706572696d656e74616cf50037",
  "source": "pragma solidity ^0.4.18;\npragma experimental ABIEncoderV2;\n\nimport \"../libraries/math/SafeMath.sol\";\nimport \"../libraries/math/SafeMath128.sol\";\nimport \"../interfaces/IMatryxToken.sol\";\nimport \"../interfaces/IMatryxPeer.sol\";\nimport \"../interfaces/IMatryxPlatform.sol\";\nimport \"../interfaces/factories/IMatryxPeerFactory.sol\";\nimport \"../interfaces/factories/IMatryxTournamentFactory.sol\";\nimport \"../interfaces/IMatryxTournament.sol\";\nimport \"../interfaces/IMatryxRound.sol\";\nimport \"../interfaces/IMatryxSubmission.sol\";\nimport \"./Ownable.sol\";\n\n/// @title MatryxPlatform - The Matryx platform contract.\n/// @author Max Howard - <max@nanome.ai>, Sam Hessenauer - <sam@nanome.ai>\ncontract MatryxPlatform is Ownable {\n  using SafeMath for uint256;\n  using SafeMath128 for uint128;\n\n  // TODO: condense and put in structs\n  address public matryxTokenAddress;\n  address public matryxPeerFactoryAddress;\n  address public matryxTournamentFactoryAddress;\n  address public matryxSubmissionFactoryAddress;\n  address public matryxSubmissionTrustLibAddress;\n  address public matryxRoundLibAddress;\n\n  address[] public allTournaments;\n  bytes32 public hashOfTopCategory;\n  bytes32 public hashOfLastCategory;\n  mapping(uint256=>bytes32) public  topCategoryByCount;\n  mapping(bytes32=>category) public categoryIterator;\n  string[] public categoryList;\n\n  mapping(address=>bool) public peerExists;\n  mapping(address=>address) public ownerToPeerAndPeerToOwner;\n  mapping(address=>mapping(address=>bool)) addressToOwnsSubmission;\n  mapping(address=>bool) tournamentExists;\n  mapping(address=>bool) submissionExists;\n\n  mapping(address=>address[]) entrantToTournamentArray;\n  mapping(address=>address[]) ownerToSubmissionArray;\n  mapping(address=>mapping(address=>uint256_optional))  ownerToSubmissionToSubmissionIndex;\n\n  uint256_optional submissionGratitude = uint256_optional({exists: true, value: 2*10**17});\n\n  function MatryxPlatform(address _matryxTokenAddress, address _matryxPeerFactoryAddress, address _matryxTournamentFactoryAddress, address _matryxSubmissionFactoryAddress, address _matryxSubmissionTrustLibAddress) public\n  {\n    matryxTokenAddress = _matryxTokenAddress;\n    matryxPeerFactoryAddress = _matryxPeerFactoryAddress;\n    matryxTournamentFactoryAddress = _matryxTournamentFactoryAddress;\n    matryxSubmissionFactoryAddress = _matryxSubmissionFactoryAddress;\n    matryxSubmissionTrustLibAddress = _matryxSubmissionTrustLibAddress;\n  }\n\n  /*\n   * Structs\n   */\n\n  struct uint256_optional\n  {\n    bool exists;\n    uint256 value;\n  }\n\n  struct category\n  {\n    string name;\n    uint128 count;\n    bytes32 prev;\n    bytes32 next;\n    address[] tournaments;\n  }\n\n  /*\n   * Events\n   */\n\n  event TournamentCreated(string _discipline, address _owner, address _tournamentAddress, bytes32 _tournamentName_1, bytes32 _tournamentName_2, bytes32 _tournamentName_3, bytes32 _externalAddress_1, bytes32 _externalAddress_2, uint256 _MTXReward, uint256 _entryFee);\n  event TournamentOpened(address _owner, address _tournamentAddress, bytes32 _tournamentName_1, bytes32 _tournamentName_2, bytes32 _tournamentName_3, bytes32 _externalAddress_1, bytes32 _externalAddress_2, uint256 _MTXReward, uint256 _entryFee);\n  event TournamentClosed(address _tournamentAddress, uint256 _finalRoundNumber, address[] _winningSubmissionAddresses, uint256 _MTXReward);\n  event UserEnteredTournament(address _entrant, address _tournamentAddress);\n  event QueryID(string queryID);\n  /// @dev Allows tournaments to invoke tournamentOpened events on the platform.\n  /// @param _owner Owner of the tournament.\n  /// @param _tournamentName_1 First part of the tournament name.\n  /// @param _tournamentName_2 Second part of the tournament name.\n  /// @param _tournamentName_3 Third part of the tournament name.\n  /// @param _externalAddress_1 First part of the external address of the tournament.\n  /// @param _externalAddress_2 Second part of the external address of the tournament.\n  /// @param _MTXReward Reward for winning the tournament.\n  /// @param _entryFee Fee for entering into the tournament.\n  function invokeTournamentOpenedEvent(address _owner, bytes32 _tournamentName_1, bytes32 _tournamentName_2, bytes32 _tournamentName_3, bytes32 _externalAddress_1, bytes32 _externalAddress_2, uint256 _MTXReward, uint256 _entryFee) public onlyTournament\n  {\n    TournamentOpened(_owner, msg.sender, _tournamentName_1, _tournamentName_2, _tournamentName_3, _externalAddress_1, _externalAddress_2, _MTXReward, _entryFee);\n  }\n\n  /// @dev Allows tournaments to invoke tournamentClosed events on the platform.\n  /// @param _finalRoundNumber Index of the round containing the winning submission.\n  /// @param _winningSubmissionAddresses Address of the winning submission.\n  /// @param _rewardDistribution Distribution indicating how to split the reward among the submissions\n  function invokeTournamentClosedEvent(uint256 _finalRoundNumber, address[] _winningSubmissionAddresses, uint256[] _rewardDistribution, uint256 _MTXReward) public onlyTournament\n  {\n    TournamentClosed(msg.sender, _finalRoundNumber, _winningSubmissionAddresses, _MTXReward);\n  }\n\n  /* \n   * Modifiers\n   */\n\n  modifier onlyTournament\n  {\n    require(tournamentExists[msg.sender]);\n    _;\n  }\n\n  modifier onlySubmission\n  {\n    require(submissionExists[msg.sender]);\n    _;\n  }\n\n  modifier onlyPeerLinked(address _sender)\n  {\n    require(hasPeer(_sender));\n    _;\n  }\n\n  /*\n   * State Maintenance Methods\n   */\n\n  // @dev Sends out reference requests for a particular submission.\n  // @param _references Reference whose authors will be sent requests.\n  // @returns Whether or not all references were successfully sent a request.\n  function handleReferenceRequestsForSubmission(address _submissionAddress, address[] _references) public onlyTournament returns (bool) \n  {\n    for(uint256 i = 0; i < _references.length; i++)\n    {\n      address _referenceAddress = _references[i];\n\n      if(!isSubmission(_referenceAddress))\n      {\n        // TODO: Introduce uint error codes\n        // for returning things like \"Reference _ is not submission\"\n        continue;\n      }\n\n      IMatryxSubmission submission = IMatryxSubmission(_referenceAddress);\n      address author = submission.getAuthor();\n      IMatryxPeer(author).receiveReferenceRequest(_submissionAddress, _referenceAddress);\n      submission.receiveReferenceRequest();\n    }\n  }\n\n  // @dev Sends out a reference request for a submission (must be called by the submission).\n  // @param _reference Reference whose author will be sent a request.\n  // @returns Whether or not all references were successfully sent a request.\n  function handleReferenceRequestForSubmission(address _reference) public onlySubmission returns (bool)\n  {\n      require(isSubmission(_reference));\n      IMatryxSubmission submission = IMatryxSubmission(_reference);\n      address author = submission.getAuthor();\n      IMatryxPeer(author).receiveReferenceRequest(msg.sender, _reference);\n      submission.receiveReferenceRequest();\n  }\n\n  function handleCancelledReferenceRequestForSubmission(address _reference) public onlySubmission returns (bool)\n  {\n    require(isSubmission(_reference));\n    IMatryxSubmission submission = IMatryxSubmission(_reference);\n    address author = submission.getAuthor();\n    IMatryxPeer(author).receiveCancelledReferenceRequest(msg.sender, _reference);\n    submission.cancelReferenceRequest();\n  }\n\n  function updateUsersTournaments(address _owner, address _tournament) internal\n  {\n    entrantToTournamentArray[_owner].push(_tournament);\n  }\n\n  function updateSubmissions(address _owner, address _submission) public onlyTournament\n  {\n    ownerToSubmissionToSubmissionIndex[_owner][_submission] = uint256_optional({exists:true, value:ownerToSubmissionArray[_owner].length});\n    ownerToSubmissionArray[_owner].push(_submission);\n    addressToOwnsSubmission[_owner][_submission] = true;\n    submissionExists[_submission] = true;\n  }\n\n  function removeSubmission(address _submissionAddress, address _tournamentAddress) public returns (bool)\n  {\n    require(addressToOwnsSubmission[msg.sender][_submissionAddress]);\n    require(tournamentExists[_tournamentAddress]);\n    require(submissionExists[_submissionAddress]);\n\n      IMatryxSubmission submission = IMatryxSubmission(_submissionAddress);\n      address owner = Ownable(_submissionAddress).getOwner();\n      uint256 submissionIndex = ownerToSubmissionToSubmissionIndex[owner][_submissionAddress].value;\n\n      submissionExists[_submissionAddress] = false;\n      delete ownerToSubmissionArray[owner][submissionIndex];\n      delete ownerToSubmissionToSubmissionIndex[owner][_submissionAddress];\n\n      IMatryxTournament(_tournamentAddress).removeSubmission(_submissionAddress, owner);\n      return true;\n  }\n\n  function addTournamentToCategory(address _tournamentAddress, string _category) internal\n  {\n    bytes32 hashOfCategory = keccak256(_category);\n    // If this is the first tournament in its category\n    if(categoryIterator[hashOfCategory].count == 0)\n    {\n      // Push the new category to a list of categories\n      categoryList.push(_category);\n\n      // If its the first category ever\n      if(hashOfTopCategory == 0x0)\n      {\n        // Update the top category pointer\n        hashOfTopCategory = hashOfCategory;\n        hashOfLastCategory = hashOfCategory;\n        // Create a new entry in the iterator for it and don't store previous or next pointers\n        categoryIterator[hashOfCategory] = category({name: _category, count: 1, prev: 0x0, next: 0x0, tournaments: new address[](0)});\n        // Store the mapping from count 1 to this category\n         topCategoryByCount[1] = hashOfCategory;\n      }\n      else\n      {\n        // If this is not the first category ever,\n        // Create a new iterator entry, complete with a prev pointer to the previous last category\n        categoryIterator[hashOfCategory] = category({name: _category, count: 1, prev: hashOfLastCategory, next: 0x0, tournaments: new address[](0)});\n        // Update that previous last category's next pointer (there's one more after it now)\n        categoryIterator[hashOfLastCategory].next = hashOfCategory;\n\n        if( topCategoryByCount[1] == 0x0)\n        {\n           topCategoryByCount[1] = hashOfCategory;\n        }\n      }\n\n      // Push to the tournaments list for this category\n      categoryIterator[hashOfCategory].tournaments.push(_tournamentAddress);\n      // Update the last category pointer\n      hashOfLastCategory = hashOfCategory;\n      return;\n    }\n\n    categoryIterator[hashOfCategory].tournaments.push(_tournamentAddress);\n\n    uint256 categoryCount = categoryIterator[hashOfCategory].count;\n    // If this category has the top relative count (category.prev.count > category.count):\n    //  If category.next exists, the top category for our previous count becomes category.next,\n    //  otherwise (category.next doesn't exist), the top category for our previous count\n    //  we set to 0x0.\n    // if( topCategoryByCount[categoryCount] == hashOfCategory)\n    // {\n    //   if(categoryIterator[hashOfCategory].next != 0x0)\n    //   {\n    //      topCategoryByCount[categoryCount] = categoryIterator[hashOfCategory].next;\n    //   }\n    //   else\n    //   {\n    //      topCategoryByCount[categoryCount] = 0x0;\n    //   }\n    // }\n\n    uint128 newCount = categoryIterator[hashOfCategory].count + 1;\n    categoryIterator[hashOfCategory].count = newCount;\n\n    // If the top category for our new count is not defined, \n    // define it as this category.\n    if( topCategoryByCount[newCount] == 0)\n    {\n       topCategoryByCount[newCount] = hashOfCategory;\n    }\n\n    // If the count of the category is now greater than the previous category\n    // swap it with the top category of its count.\n    if(categoryIterator[hashOfCategory].prev != 0x0)\n    {\n      if(categoryIterator[hashOfCategory].count > categoryIterator[categoryIterator[hashOfCategory].prev].count)\n      {\n        // define A as the top category of its count\n        bytes32 hashOfTopA =  topCategoryByCount[categoryIterator[hashOfCategory].count-1];\n        if(hashOfTopA == hashOfTopCategory)\n        {\n          hashOfTopCategory = hashOfCategory;\n        }\n\n        if(hashOfCategory == hashOfLastCategory)\n        {\n          //update pointer to hash of last category\n          hashOfLastCategory = hashOfTopA;\n        }\n\n        //flip the two categories and rearrange the pointers\n        category storage A = categoryIterator[hashOfTopA];\n        category storage B = categoryIterator[hashOfCategory];\n\n        bool adjacent = A.next == hashOfCategory;\n        bytes32 Bprev = B.prev;\n        bytes32 Anext = A.next;\n\n        A.next = B.next;\n        B.prev = A.prev;\n\n        if(A.prev != 0x0)\n        {\n          categoryIterator[A.prev].next = hashOfCategory;\n        }\n        if(B.next != 0x0)\n        {\n          categoryIterator[B.next].prev = hashOfTopA;\n        }\n        \n        if(adjacent)\n        {\n          A.prev = hashOfCategory;\n          B.next = hashOfTopA;\n        }\n        else\n        {\n          A.prev = Bprev;\n          B.next = Anext;\n          if(Bprev != 0x0)\n          {\n            categoryIterator[Bprev].next = hashOfTopA;\n          }\n          if(Anext != 0x0)\n          {\n            categoryIterator[Anext].prev = hashOfCategory;\n          }\n        }\n      }\n    }\n\n    //update top category by count\n      if(categoryIterator[hashOfCategory].next != 0x0)\n      {\n         topCategoryByCount[categoryCount] = categoryIterator[hashOfCategory].next;\n      }\n      else\n      {\n         topCategoryByCount[categoryCount] = 0x0;\n      }\n  }\n\n  function getTournamentsByCategory(string _category) external constant returns (address[])\n  {\n    return categoryIterator[keccak256(_category)].tournaments;\n  }\n\n  function getCategoryCount(string _category) external constant returns (uint256)\n  {\n    return categoryIterator[keccak256(_category)].count;\n  }\n\n  //Get the index-th topmost category (index 0 returns the overall top category)\n  function getTopCategory(uint256 _index) external constant returns (string)\n  {\n    bytes32 categoryHash = hashOfTopCategory;\n    string storage categoryName  = categoryIterator[categoryHash].name;\n\n    for(uint256 i = 1; i <= _index; i++)\n    {\n      categoryHash = categoryIterator[categoryHash].next;\n      categoryName = categoryIterator[categoryHash].name;\n    \n      if(categoryHash == 0x0)\n      {\n        break;\n      }\n    }\n\n    return categoryName;\n  }\n\n  function getCategoryByIndex(uint256 _index) public constant returns (string)\n  {\n    return categoryList[_index];\n  }\n\n  // function switchTournamentCategory(string discipline) onlyTournament public\n  // {\n  //   revert();\n  // }\n\n  /* \n   * Tournament Entry Methods\n   */\n\n  /// @dev Enter the user into a tournament and charge the entry fee.\n  /// @param _tournamentAddress Address of the tournament to enter into.\n  /// @return _success Whether or not user was successfully entered into the tournament.\n  function enterTournament(address _tournamentAddress) public onlyPeerLinked(msg.sender) returns (bool _success)\n  {\n      require(tournamentExists[_tournamentAddress]);\n      \n      IMatryxTournament tournament = IMatryxTournament(_tournamentAddress);\n      uint256 entryFee = tournament.getEntryFee();\n\n      bool success = IMatryxToken(matryxTokenAddress).transferFrom(msg.sender, _tournamentAddress, entryFee);\n      if(success)\n      {\n        success = tournament.enterUserInTournament(msg.sender);\n        if(success)\n        {\n          UserEnteredTournament(msg.sender, _tournamentAddress);\n        }\n      }\n\n      return success;\n  }\n\n  /* \n   * Tournament Admin Methods\n   */\n\n  /// @dev Create a new tournament.\n  /// @param tournamentData Data to populate the new tournament with. Includes:\n  ///    category: Discipline the tournament falls under.\n  ///    title: Name of the new tournament.\n  ///    contentHash: Off-chain content hash of tournament details (ipfs hash)\n  ///    Bounty: Total tournament reward in MTX.\n  ///    entryFee: Fee to charge participant upon entering into the tournament.\n  /// @param roundData Data to populate the first round of the tournament with. Includes:\n  ///    startTime: The start time (unix-epoch-based) of the first round.\n  ///    endTime: The end time (unix-epoch-based) of the first round.\n  ///    reviewDuration: The amount of the tournament owner has to determine the winners of the round.\n  ///    bounty: The reward for the first round's winners.\n  /// @return _tournamentAddress Address of the newly created tournament.\n  function createTournament(string _category, LibConstruction.TournamentData tournamentData, LibConstruction.RoundData roundData) returns (address _tournamentAddress)\n  {\n    IMatryxTournamentFactory tournamentFactory = IMatryxTournamentFactory(matryxTournamentFactoryAddress);\n    address newTournament = tournamentFactory.createTournament(tournamentData, roundData, msg.sender);\n    //MatryxToken.transferFrom(newTournament, **round_address**, uint256 bounty);\n    TournamentCreated(_category, msg.sender, newTournament, tournamentData.title_1, tournamentData.title_2, tournamentData.title_3, tournamentData.contentHash_1, tournamentData.contentHash_2, tournamentData.Bounty, tournamentData.entryFee);\n    \n    addTournamentToCategory(newTournament, _category);\n\n    require(IMatryxToken(matryxTokenAddress).transferFrom(msg.sender, newTournament, tournamentData.Bounty));\n    IMatryxTournament(newTournament).sendBountyToRound(0, roundData.bounty);\n    //update data structures\n    allTournaments.push(newTournament);\n    tournamentExists[newTournament] = true;\n    updateUsersTournaments(msg.sender, newTournament);\n\n    return newTournament;\n  }\n\n  /*\n   * Access Control Methods\n   */\n\n  function createPeer() public returns (address)\n  {\n    require(ownerToPeerAndPeerToOwner[msg.sender] == 0x0);\n    IMatryxPeerFactory peerFactory = IMatryxPeerFactory(matryxPeerFactoryAddress);\n    address peer = peerFactory.createPeer(msg.sender);\n    peerExists[peer] = true;\n    ownerToPeerAndPeerToOwner[msg.sender] = peer;\n    ownerToPeerAndPeerToOwner[peer] = msg.sender;\n  }\n\n  function isPeer(address _peerAddress) public constant returns (bool)\n  {\n    return peerExists[_peerAddress];\n  }\n\n  function hasPeer(address _sender) public constant returns (bool)\n  {\n    return (ownerToPeerAndPeerToOwner[_sender] != 0x0);\n  }\n\n  function peerExistsAndOwnsSubmission(address _peer, address _reference) public constant returns (bool)\n  {\n    bool isAPeer = peerExists[_peer];\n    bool referenceIsSubmission = submissionExists[_reference];\n    bool peerOwnsSubmission = addressToOwnsSubmission[ownerToPeerAndPeerToOwner[_peer]][_reference];\n\n    return isAPeer && referenceIsSubmission && peerOwnsSubmission;\n  }\n\n  function peerAddress(address _sender) public constant returns (address)\n  {\n    return ownerToPeerAndPeerToOwner[_sender];\n  }\n\n  function isSubmission(address _submissionAddress) public constant returns (bool)\n  {\n    return submissionExists[_submissionAddress];\n  }\n\n  function hashForCategory(bytes32 _categoryHash) public constant returns (string _category)\n  {\n    return \"temporary category\";\n  }\n\n  /// @dev Returns whether or not the given tournament belongs to the sender.\n  /// @param _tournamentAddress Address of the tournament to check.\n  /// @return _isMine Whether or not the tournament belongs to the sender.\n  function getTournament_IsMine(address _tournamentAddress) public constant returns (bool _isMine)\n  {\n    require(tournamentExists[_tournamentAddress]);\n    Ownable tournament = Ownable(_tournamentAddress);\n    return (tournament.getOwner() == msg.sender);\n  }\n\n  /*\n   * Setter Methods\n   */ \n\n    /// @dev              Set the relative amount of MTX to be delivered to a submission's\n    ///                   references\n    /// @param _gratitude Weight from 0 to 1 (18 decimal uint) specifying enforced submission \n    ///                   gratitude\n    function setSubmissionGratitude(uint256 _gratitude) public onlyOwner\n    {\n        assert(_gratitude >= 0 && _gratitude <= (1*10**18));\n        submissionGratitude = uint256_optional({exists: true, value: _gratitude});\n    }\n\n  /*\n   * Getter Methods\n   */\n\n   function getTokenAddress() public constant returns (address)\n   {\n      return matryxTokenAddress;\n   }\n\n   function getSubmissionTrustLibrary() public constant returns (address)\n   {\n      return matryxSubmissionTrustLibAddress;\n   }\n\n   /// @dev    Returns a weight from 0 to 1 (18 decimal uint) indicating\n   ///         how much of a submission's reward goes to its references.\n   /// @return Relative amount of MTX going to references of submissions under this tournament.\n   function getSubmissionGratitude() public constant returns (uint256)\n   {\n    require(submissionGratitude.exists);\n    return submissionGratitude.value;\n   }\n\n   /// @dev Returns addresses for submissions the sender has created.\n   /// @return Address array representing submissions.\n   function myTournaments() public constant returns (address[])\n   {\n    return entrantToTournamentArray[msg.sender];\n   }\n\n   function mySubmissions() public constant returns (address[])\n   {\n    return ownerToSubmissionArray[msg.sender];\n   }\n\n   /// @dev Returns the total number of tournaments\n   /// @return _tournamentCount Total number of tournaments.\n   function tournamentCount() public constant returns (uint256 _tournamentCount)\n   {\n       return allTournaments.length;\n   }\n \n   function getTournamentAtIndex(uint256 _index) public constant returns (address _tournamentAddress)\n   {\n     require(_index >= 0);\n     require(_index < allTournaments.length);\n     return allTournaments[_index];\n   }\n}",
  "sourcePath": "/Users/maxhoward/Desktop/Ethereum/Development/Matryx/Projects/MatryxPlatform/contracts/MatryxPlatform.sol",
  "compiler": {
    "name": "solc",
    "version": "0.4.24+commit.e67f0147.Emscripten.clang"
  },
  "schemaVersion": "2.0.0",
  "updatedAt": "2018-06-22T18:13:21.440Z"
}