{
  "contractName": "MintableToken",
  "abi": [
    {
      "constant": false,
      "inputs": [
        {
          "name": "addr",
          "type": "address"
        },
        {
          "name": "state",
          "type": "bool"
        }
      ],
      "name": "setTransferAgent",
      "outputs": [],
      "payable": false,
      "stateMutability": "nonpayable",
      "type": "function"
    },
    {
      "constant": true,
      "inputs": [],
      "name": "mintingFinished",
      "outputs": [
        {
          "name": "",
          "type": "bool"
        }
      ],
      "payable": false,
      "stateMutability": "view",
      "type": "function"
    },
    {
      "constant": false,
      "inputs": [
        {
          "name": "_spender",
          "type": "address"
        },
        {
          "name": "_value",
          "type": "uint256"
        }
      ],
      "name": "approve",
      "outputs": [
        {
          "name": "",
          "type": "bool"
        }
      ],
      "payable": false,
      "stateMutability": "nonpayable",
      "type": "function"
    },
    {
      "constant": true,
      "inputs": [],
      "name": "totalSupply",
      "outputs": [
        {
          "name": "",
          "type": "uint256"
        }
      ],
      "payable": false,
      "stateMutability": "view",
      "type": "function"
    },
    {
      "constant": false,
      "inputs": [
        {
          "name": "_from",
          "type": "address"
        },
        {
          "name": "_to",
          "type": "address"
        },
        {
          "name": "_value",
          "type": "uint256"
        }
      ],
      "name": "transferFrom",
      "outputs": [
        {
          "name": "success",
          "type": "bool"
        }
      ],
      "payable": false,
      "stateMutability": "nonpayable",
      "type": "function"
    },
    {
      "constant": false,
      "inputs": [
        {
          "name": "addr",
          "type": "address"
        }
      ],
      "name": "setReleaseAgent",
      "outputs": [],
      "payable": false,
      "stateMutability": "nonpayable",
      "type": "function"
    },
    {
      "constant": false,
      "inputs": [],
      "name": "releaseTokenTransfer",
      "outputs": [],
      "payable": false,
      "stateMutability": "nonpayable",
      "type": "function"
    },
    {
      "constant": true,
      "inputs": [
        {
          "name": "_owner",
          "type": "address"
        }
      ],
      "name": "balanceOf",
      "outputs": [
        {
          "name": "balance",
          "type": "uint256"
        }
      ],
      "payable": false,
      "stateMutability": "view",
      "type": "function"
    },
    {
      "constant": true,
      "inputs": [
        {
          "name": "",
          "type": "address"
        }
      ],
      "name": "transferAgents",
      "outputs": [
        {
          "name": "",
          "type": "bool"
        }
      ],
      "payable": false,
      "stateMutability": "view",
      "type": "function"
    },
    {
      "constant": true,
      "inputs": [],
      "name": "owner",
      "outputs": [
        {
          "name": "",
          "type": "address"
        }
      ],
      "payable": false,
      "stateMutability": "view",
      "type": "function"
    },
    {
      "constant": true,
      "inputs": [],
      "name": "released",
      "outputs": [
        {
          "name": "",
          "type": "bool"
        }
      ],
      "payable": false,
      "stateMutability": "view",
      "type": "function"
    },
    {
      "constant": false,
      "inputs": [
        {
          "name": "_to",
          "type": "address"
        },
        {
          "name": "_value",
          "type": "uint256"
        }
      ],
      "name": "transfer",
      "outputs": [
        {
          "name": "success",
          "type": "bool"
        }
      ],
      "payable": false,
      "stateMutability": "nonpayable",
      "type": "function"
    },
    {
      "constant": true,
      "inputs": [],
      "name": "releaseAgent",
      "outputs": [
        {
          "name": "",
          "type": "address"
        }
      ],
      "payable": false,
      "stateMutability": "view",
      "type": "function"
    },
    {
      "constant": true,
      "inputs": [
        {
          "name": "_owner",
          "type": "address"
        },
        {
          "name": "_spender",
          "type": "address"
        }
      ],
      "name": "allowance",
      "outputs": [
        {
          "name": "remaining",
          "type": "uint256"
        }
      ],
      "payable": false,
      "stateMutability": "view",
      "type": "function"
    },
    {
      "constant": false,
      "inputs": [
        {
          "name": "newOwner",
          "type": "address"
        }
      ],
      "name": "transferOwnership",
      "outputs": [],
      "payable": false,
      "stateMutability": "nonpayable",
      "type": "function"
    },
    {
      "anonymous": false,
      "inputs": [
        {
          "indexed": true,
          "name": "to",
          "type": "address"
        },
        {
          "indexed": false,
          "name": "amount",
          "type": "uint256"
        }
      ],
      "name": "Mint",
      "type": "event"
    },
    {
      "anonymous": false,
      "inputs": [],
      "name": "MintFinished",
      "type": "event"
    },
    {
      "anonymous": false,
      "inputs": [
        {
          "indexed": true,
          "name": "from",
          "type": "address"
        },
        {
          "indexed": true,
          "name": "to",
          "type": "address"
        },
        {
          "indexed": false,
          "name": "value",
          "type": "uint256"
        }
      ],
      "name": "Transfer",
      "type": "event"
    },
    {
      "anonymous": false,
      "inputs": [
        {
          "indexed": true,
          "name": "owner",
          "type": "address"
        },
        {
          "indexed": true,
          "name": "spender",
          "type": "address"
        },
        {
          "indexed": false,
          "name": "value",
          "type": "uint256"
        }
      ],
      "name": "Approval",
      "type": "event"
    },
    {
      "constant": false,
      "inputs": [
        {
          "name": "_to",
          "type": "address"
        },
        {
          "name": "_amount",
          "type": "uint256"
        }
      ],
      "name": "mint",
      "outputs": [
        {
          "name": "",
          "type": "bool"
        }
      ],
      "payable": false,
      "stateMutability": "nonpayable",
      "type": "function"
    },
    {
      "constant": false,
      "inputs": [],
      "name": "finishMinting",
      "outputs": [
        {
          "name": "",
          "type": "bool"
        }
      ],
      "payable": false,
      "stateMutability": "nonpayable",
      "type": "function"
    }
  ],
  "bytecode": "0x60606040526004805460a060020a60ff02191690556006805460ff1916905560008054600160a060020a033316600160a060020a0319909116179055610a518061004a6000396000f3006060604052600436106100f05763ffffffff7c010000000000000000000000000000000000000000000000000000000060003504166302f652a381146100f557806305d2035b1461011b578063095ea7b31461014257806318160ddd1461016457806323b872dd1461018957806329ff4f53146101b157806340c10f19146101d05780635f412d4f146101f257806370a08231146102055780637d64bcb414610224578063867c2857146102375780638da5cb5b146102565780639613252114610285578063a9059cbb14610298578063d1f276d3146102ba578063dd62ed3e146102cd578063f2fde38b146102f2575b600080fd5b341561010057600080fd5b610119600160a060020a03600435166024351515610311565b005b341561012657600080fd5b61012e610383565b604051901515815260200160405180910390f35b341561014d57600080fd5b61012e600160a060020a036004351660243561038c565b341561016f57600080fd5b610177610432565b60405190815260200160405180910390f35b341561019457600080fd5b61012e600160a060020a0360043581169060243516604435610438565b34156101bc57600080fd5b610119600160a060020a036004351661049d565b34156101db57600080fd5b61012e600160a060020a0360043516602435610513565b34156101fd57600080fd5b610119610618565b341561021057600080fd5b610177600160a060020a0360043516610674565b341561022f57600080fd5b61012e61068f565b341561024257600080fd5b61012e600160a060020a03600435166106ea565b341561026157600080fd5b6102696106ff565b604051600160a060020a03909116815260200160405180910390f35b341561029057600080fd5b61012e61070e565b34156102a357600080fd5b61012e600160a060020a036004351660243561072f565b34156102c557600080fd5b610269610792565b34156102d857600080fd5b610177600160a060020a03600435811690602435166107a1565b34156102fd57600080fd5b610119600160a060020a03600435166107cc565b60005433600160a060020a0390811691161461032c57600080fd5b60045460009074010000000000000000000000000000000000000000900460ff161561035757600080fd5b50600160a060020a03919091166000908152600560205260409020805460ff1916911515919091179055565b60065460ff1681565b60008115806103be5750600160a060020a03338116600090815260036020908152604080832093871683529290522054155b15156103c957600080fd5b600160a060020a03338116600081815260036020908152604080832094881680845294909152908190208590557f8c5be1e5ebec7d5bd14f71427d1e84f3dd0314c0f7b2291e5b200ac8c7c3b9259085905190815260200160405180910390a350600192915050565b60015481565b600454600090849074010000000000000000000000000000000000000000900460ff168061047e5750600160a060020a03811660009081526005602052604090205460ff165b151561048957600080fd5b61049485858561082b565b95945050505050565b60005433600160a060020a039081169116146104b857600080fd5b60045460009074010000000000000000000000000000000000000000900460ff16156104e357600080fd5b506004805473ffffffffffffffffffffffffffffffffffffffff1916600160a060020a0392909216919091179055565b6000805433600160a060020a0390811691161461052f57600080fd5b60065460ff161561053f57600080fd5b600154610552908363ffffffff61093e16565b600155600160a060020a03831660009081526002602052604090205461057e908363ffffffff61093e16565b600160a060020a0384166000818152600260205260409081902092909255907f0f6798a560793a54c3bcfe86a93cde1e73087d944c0ea20544137d41213968859084905190815260200160405180910390a282600160a060020a031660007fddf252ad1be2c89b69c2b068fc378daa952ba7f163c4a11628f55a4df523b3ef8460405190815260200160405180910390a350600192915050565b60045433600160a060020a0390811691161461063357600080fd5b600480547fffffffffffffffffffffff00ffffffffffffffffffffffffffffffffffffffff1674010000000000000000000000000000000000000000179055565b600160a060020a031660009081526002602052604090205490565b6000805433600160a060020a039081169116146106ab57600080fd5b6006805460ff191660011790557fae5184fba832cb2b1f702aca6117b8d265eaf03ad33eb133f19dde0f5920fa0860405160405180910390a150600190565b60056020526000908152604090205460ff1681565b600054600160a060020a031681565b60045474010000000000000000000000000000000000000000900460ff1681565b600454600090339074010000000000000000000000000000000000000000900460ff16806107755750600160a060020a03811660009081526005602052604090205460ff165b151561078057600080fd5b61078a8484610954565b949350505050565b600454600160a060020a031681565b600160a060020a03918216600090815260036020908152604080832093909416825291909152205490565b60005433600160a060020a039081169116146107e757600080fd5b600160a060020a03811615156107fc57600080fd5b6000805473ffffffffffffffffffffffffffffffffffffffff1916600160a060020a0392909216919091179055565b600160a060020a038084166000908152600360209081526040808320338516845282528083205493861683526002909152812054909190610872908463ffffffff61093e16565b600160a060020a0380861660009081526002602052604080822093909355908716815220546108a7908463ffffffff610a1316565b600160a060020a0386166000908152600260205260409020556108d0818463ffffffff610a1316565b600160a060020a03808716600081815260036020908152604080832033861684529091529081902093909355908616917fddf252ad1be2c89b69c2b068fc378daa952ba7f163c4a11628f55a4df523b3ef9086905190815260200160405180910390a3506001949350505050565b60008282018381101561094d57fe5b9392505050565b600160a060020a03331660009081526002602052604081205461097d908363ffffffff610a1316565b600160a060020a0333811660009081526002602052604080822093909355908516815220546109b2908363ffffffff61093e16565b600160a060020a0380851660008181526002602052604090819020939093559133909116907fddf252ad1be2c89b69c2b068fc378daa952ba7f163c4a11628f55a4df523b3ef9085905190815260200160405180910390a350600192915050565b600082821115610a1f57fe5b509003905600a165627a7a72305820af5af9a6a7ad34d06b9bc7bdb858dbc0fea5ccd22fd25fdf8df9f4e57838d0ea0029",
  "source": "pragma solidity ^0.4.13;\n\n\nimport './ReleasableToken.sol';\n\n\n/**\n * @title Mintable token\n * @dev Simple ERC20 Token example, with mintable token creation\n * @dev Issue: * https://github.com/OpenZeppelin/zeppelin-solidity/issues/120\n * Based on code by TokenMarketNet: https://github.com/TokenMarketNet/ico/blob/master/contracts/MintableToken.sol\n */\n\ncontract MintableToken is ReleasableToken {\n  event Mint(address indexed to, uint256 amount);\n  event MintFinished();\n\n  bool public mintingFinished = false;\n\n  modifier canMint() {\n    require(!mintingFinished);\n    _;\n  }\n\n  /**\n   * @dev Function to mint tokens\n   * @param _to The address that will recieve the minted tokens.\n   * @param _amount The amount of tokens to mint.\n   * @return A boolean that indicates if the operation was successful.\n   */\n  function mint(address _to, uint256 _amount) public onlyOwner canMint returns (bool) {\n    totalSupply = totalSupply.add(_amount);\n    balances[_to] = balances[_to].add(_amount);\n    Mint(_to, _amount);\n    Transfer(0x0, _to, _amount);\n    return true;\n  }\n\n  /**\n   * @dev Function to stop minting new tokens.\n   * @return True if the operation was successful.\n   */\n  function finishMinting() public onlyOwner returns (bool) {\n    mintingFinished = true;\n    MintFinished();\n    return true;\n  }\n}",
  "sourcePath": "/Users/maxhoward/Desktop/Ethereum/Development/Matryx AWS/Projects/matryx-alpha-source/contracts/MatryxToken/MintableToken.sol",
  "compiler": {
    "name": "solc",
    "version": "0.4.19+commit.c4cbbb05.Emscripten.clang"
  },
  "schemaVersion": "2.0.0",
  "updatedAt": "2018-03-26T22:01:40.527Z"
}