{
  "contractName": "ReleasableToken",
  "abi": [
    {
      "constant": false,
      "inputs": [
        {
          "name": "_spender",
          "type": "address"
        },
        {
          "name": "_value",
          "type": "uint256"
        }
      ],
      "name": "approve",
      "outputs": [
        {
          "name": "",
          "type": "bool"
        }
      ],
      "payable": false,
      "stateMutability": "nonpayable",
      "type": "function"
    },
    {
      "constant": true,
      "inputs": [],
      "name": "totalSupply",
      "outputs": [
        {
          "name": "",
          "type": "uint256"
        }
      ],
      "payable": false,
      "stateMutability": "view",
      "type": "function"
    },
    {
      "constant": true,
      "inputs": [
        {
          "name": "_owner",
          "type": "address"
        }
      ],
      "name": "balanceOf",
      "outputs": [
        {
          "name": "balance",
          "type": "uint256"
        }
      ],
      "payable": false,
      "stateMutability": "view",
      "type": "function"
    },
    {
      "constant": true,
      "inputs": [
        {
          "name": "",
          "type": "address"
        }
      ],
      "name": "transferAgents",
      "outputs": [
        {
          "name": "",
          "type": "bool"
        }
      ],
      "payable": false,
      "stateMutability": "view",
      "type": "function"
    },
    {
      "constant": true,
      "inputs": [],
      "name": "owner",
      "outputs": [
        {
          "name": "",
          "type": "address"
        }
      ],
      "payable": false,
      "stateMutability": "view",
      "type": "function"
    },
    {
      "constant": true,
      "inputs": [],
      "name": "released",
      "outputs": [
        {
          "name": "",
          "type": "bool"
        }
      ],
      "payable": false,
      "stateMutability": "view",
      "type": "function"
    },
    {
      "constant": true,
      "inputs": [],
      "name": "releaseAgent",
      "outputs": [
        {
          "name": "",
          "type": "address"
        }
      ],
      "payable": false,
      "stateMutability": "view",
      "type": "function"
    },
    {
      "constant": true,
      "inputs": [
        {
          "name": "_owner",
          "type": "address"
        },
        {
          "name": "_spender",
          "type": "address"
        }
      ],
      "name": "allowance",
      "outputs": [
        {
          "name": "remaining",
          "type": "uint256"
        }
      ],
      "payable": false,
      "stateMutability": "view",
      "type": "function"
    },
    {
      "constant": false,
      "inputs": [
        {
          "name": "newOwner",
          "type": "address"
        }
      ],
      "name": "transferOwnership",
      "outputs": [],
      "payable": false,
      "stateMutability": "nonpayable",
      "type": "function"
    },
    {
      "anonymous": false,
      "inputs": [
        {
          "indexed": true,
          "name": "from",
          "type": "address"
        },
        {
          "indexed": true,
          "name": "to",
          "type": "address"
        },
        {
          "indexed": false,
          "name": "value",
          "type": "uint256"
        }
      ],
      "name": "Transfer",
      "type": "event"
    },
    {
      "anonymous": false,
      "inputs": [
        {
          "indexed": true,
          "name": "owner",
          "type": "address"
        },
        {
          "indexed": true,
          "name": "spender",
          "type": "address"
        },
        {
          "indexed": false,
          "name": "value",
          "type": "uint256"
        }
      ],
      "name": "Approval",
      "type": "event"
    },
    {
      "constant": false,
      "inputs": [
        {
          "name": "addr",
          "type": "address"
        }
      ],
      "name": "setReleaseAgent",
      "outputs": [],
      "payable": false,
      "stateMutability": "nonpayable",
      "type": "function"
    },
    {
      "constant": false,
      "inputs": [
        {
          "name": "addr",
          "type": "address"
        },
        {
          "name": "state",
          "type": "bool"
        }
      ],
      "name": "setTransferAgent",
      "outputs": [],
      "payable": false,
      "stateMutability": "nonpayable",
      "type": "function"
    },
    {
      "constant": false,
      "inputs": [],
      "name": "releaseTokenTransfer",
      "outputs": [],
      "payable": false,
      "stateMutability": "nonpayable",
      "type": "function"
    },
    {
      "constant": false,
      "inputs": [
        {
          "name": "_to",
          "type": "address"
        },
        {
          "name": "_value",
          "type": "uint256"
        }
      ],
      "name": "transfer",
      "outputs": [
        {
          "name": "success",
          "type": "bool"
        }
      ],
      "payable": false,
      "stateMutability": "nonpayable",
      "type": "function"
    },
    {
      "constant": false,
      "inputs": [
        {
          "name": "_from",
          "type": "address"
        },
        {
          "name": "_to",
          "type": "address"
        },
        {
          "name": "_value",
          "type": "uint256"
        }
      ],
      "name": "transferFrom",
      "outputs": [
        {
          "name": "success",
          "type": "bool"
        }
      ],
      "payable": false,
      "stateMutability": "nonpayable",
      "type": "function"
    }
  ],
  "bytecode": "0x60806040526004805460a060020a60ff021916905560008054600160a060020a03191633179055610a48806100356000396000f3006080604052600436106100cf5763ffffffff7c010000000000000000000000000000000000000000000000000000000060003504166302f652a381146100d4578063095ea7b31461010957806318160ddd1461014e57806323b872dd1461017557806329ff4f53146101ac5780635f412d4f146101da57806370a08231146101ef578063867c28571461021d5780638da5cb5b1461024b5780639613252114610289578063a9059cbb1461029e578063d1f276d3146102cf578063dd62ed3e146102e4578063f2fde38b14610318575b600080fd5b3480156100e057600080fd5b5061010773ffffffffffffffffffffffffffffffffffffffff600435166024351515610346565b005b34801561011557600080fd5b5061013a73ffffffffffffffffffffffffffffffffffffffff600435166024356103ec565b604080519115158252519081900360200190f35b34801561015a57600080fd5b506101636104a8565b60408051918252519081900360200190f35b34801561018157600080fd5b5061013a73ffffffffffffffffffffffffffffffffffffffff600435811690602435166044356104ae565b3480156101b857600080fd5b5061010773ffffffffffffffffffffffffffffffffffffffff60043516610520565b3480156101e657600080fd5b506101076105b7565b3480156101fb57600080fd5b5061016373ffffffffffffffffffffffffffffffffffffffff6004351661061c565b34801561022957600080fd5b5061013a73ffffffffffffffffffffffffffffffffffffffff60043516610644565b34801561025757600080fd5b50610260610659565b6040805173ffffffffffffffffffffffffffffffffffffffff9092168252519081900360200190f35b34801561029557600080fd5b5061013a610675565b3480156102aa57600080fd5b5061013a73ffffffffffffffffffffffffffffffffffffffff60043516602435610696565b3480156102db57600080fd5b50610260610706565b3480156102f057600080fd5b5061016373ffffffffffffffffffffffffffffffffffffffff60043581169060243516610722565b34801561032457600080fd5b5061010773ffffffffffffffffffffffffffffffffffffffff6004351661075a565b60005473ffffffffffffffffffffffffffffffffffffffff16331461036a57600080fd5b60045460009074010000000000000000000000000000000000000000900460ff161561039557600080fd5b5073ffffffffffffffffffffffffffffffffffffffff91909116600090815260056020526040902080547fffffffffffffffffffffffffffffffffffffffffffffffffffffffffffffff0016911515919091179055565b6000811580610429575033600090815260036020908152604080832073ffffffffffffffffffffffffffffffffffffffff87168452909152902054155b151561043457600080fd5b33600081815260036020908152604080832073ffffffffffffffffffffffffffffffffffffffff881680855290835292819020869055805186815290519293927f8c5be1e5ebec7d5bd14f71427d1e84f3dd0314c0f7b2291e5b200ac8c7c3b925929181900390910190a350600192915050565b60015481565b600454600090849074010000000000000000000000000000000000000000900460ff1680610501575073ffffffffffffffffffffffffffffffffffffffff811660009081526005602052604090205460ff165b151561050c57600080fd5b6105178585856107e7565b95945050505050565b60005473ffffffffffffffffffffffffffffffffffffffff16331461054457600080fd5b60045460009074010000000000000000000000000000000000000000900460ff161561056f57600080fd5b50600480547fffffffffffffffffffffffff00000000000000000000000000000000000000001673ffffffffffffffffffffffffffffffffffffffff92909216919091179055565b60045473ffffffffffffffffffffffffffffffffffffffff1633146105db57600080fd5b600480547fffffffffffffffffffffff00ffffffffffffffffffffffffffffffffffffffff1674010000000000000000000000000000000000000000179055565b73ffffffffffffffffffffffffffffffffffffffff1660009081526002602052604090205490565b60056020526000908152604090205460ff1681565b60005473ffffffffffffffffffffffffffffffffffffffff1681565b60045474010000000000000000000000000000000000000000900460ff1681565b600454600090339074010000000000000000000000000000000000000000900460ff16806106e9575073ffffffffffffffffffffffffffffffffffffffff811660009081526005602052604090205460ff165b15156106f457600080fd5b6106fe848461092a565b949350505050565b60045473ffffffffffffffffffffffffffffffffffffffff1681565b73ffffffffffffffffffffffffffffffffffffffff918216600090815260036020908152604080832093909416825291909152205490565b60005473ffffffffffffffffffffffffffffffffffffffff16331461077e57600080fd5b73ffffffffffffffffffffffffffffffffffffffff811615156107a057600080fd5b600080547fffffffffffffffffffffffff00000000000000000000000000000000000000001673ffffffffffffffffffffffffffffffffffffffff92909216919091179055565b73ffffffffffffffffffffffffffffffffffffffff808416600090815260036020908152604080832033845282528083205493861683526002909152812054909190610839908463ffffffff6109f416565b73ffffffffffffffffffffffffffffffffffffffff808616600090815260026020526040808220939093559087168152205461087b908463ffffffff610a0a16565b73ffffffffffffffffffffffffffffffffffffffff86166000908152600260205260409020556108b1818463ffffffff610a0a16565b73ffffffffffffffffffffffffffffffffffffffff808716600081815260036020908152604080832033845282529182902094909455805187815290519288169391927fddf252ad1be2c89b69c2b068fc378daa952ba7f163c4a11628f55a4df523b3ef929181900390910190a3506001949350505050565b3360009081526002602052604081205461094a908363ffffffff610a0a16565b336000908152600260205260408082209290925573ffffffffffffffffffffffffffffffffffffffff851681522054610989908363ffffffff6109f416565b73ffffffffffffffffffffffffffffffffffffffff84166000818152600260209081526040918290209390935580518581529051919233927fddf252ad1be2c89b69c2b068fc378daa952ba7f163c4a11628f55a4df523b3ef9281900390910190a350600192915050565b600082820183811015610a0357fe5b9392505050565b600082821115610a1657fe5b509003905600a165627a7a723058202c7fb96868dd9b05b9b3c952b62bd121300c9df0e0bd179ce45389006bc7eb580029",
  "source": "/**\n * This smart contract code is Copyright 2017 TokenMarket Ltd. For more information see https://tokenmarket.net\n *\n * Licensed under the Apache License, version 2.0: https://github.com/TokenMarketNet/ico/blob/master/LICENSE.txt\n */\n\npragma solidity ^0.4.13;\n\nimport \"./StandardToken.sol\";\n\n/**\n * Define interface for releasing the token transfer after a successful crowdsale.\n */\ncontract ReleasableToken is StandardToken {\n\n  /* The finalizer contract that allows unlift the transfer limits on this token */\n  address public releaseAgent;\n\n  /** A crowdsale contract can release us to the wild if ICO success. If false we are are in transfer lock up period.*/\n  bool public released = false;\n\n  /** Map of agents that are allowed to transfer tokens regardless of the lock down period. These are crowdsale contracts and possible the team multisig itself. */\n  mapping (address => bool) public transferAgents;\n\n  /**\n   * Limit token transfer until the crowdsale is over.\n   *\n   */\n  modifier canTransfer(address _sender) {\n    require(released || transferAgents[_sender]);\n    _;\n  }\n\n  /** The function can be called only before or after the tokens have been releasesd */\n  modifier inReleaseState(bool releaseState) {\n    require(releaseState == released);\n    _;\n  }\n\n  /** The function can be called only by a whitelisted release agent. */\n  modifier onlyReleaseAgent() {\n    require(msg.sender == releaseAgent);\n    _;\n  }\n\n  /**\n   * Set the contract that can call release and make the token transferable.\n   *\n   * Design choice. Allow reset the release agent to fix fat finger mistakes.\n   */\n  function setReleaseAgent(address addr) onlyOwner inReleaseState(false) public {\n\n    // We don't do interface check here as we might want to a normal wallet address to act as a release agent\n    releaseAgent = addr;\n  }\n\n  /**\n   * Owner can allow a particular address (a crowdsale contract) to transfer tokens despite the lock up period.\n   */\n  function setTransferAgent(address addr, bool state) onlyOwner inReleaseState(false) public {\n    transferAgents[addr] = state;\n  }\n\n  /**\n   * One way function to release the tokens to the wild.\n   *\n   * Can be called only from the release agent that is the final ICO contract. It is only called if the crowdsale has been success (first milestone reached).\n   */\n  function releaseTokenTransfer() public onlyReleaseAgent {\n    released = true;\n  }\n\n  function transfer(address _to, uint _value) canTransfer(msg.sender) public returns (bool success) {\n    // Call StandardToken.transfer()\n   return super.transfer(_to, _value);\n  }\n\n  function transferFrom(address _from, address _to, uint _value) canTransfer(_from) public returns (bool success) {\n    // Call StandardToken.transferForm()\n    return super.transferFrom(_from, _to, _value);\n  }\n\n}",
  "sourcePath": "/Users/maxhoward/Desktop/Ethereum/Development/Matryx/Projects/MatryxPlatform/contracts/MatryxToken/ReleasableToken.sol",
  "compiler": {
    "name": "solc",
    "version": "0.4.24+commit.e67f0147.Emscripten.clang"
  },
  "schemaVersion": "2.0.0",
  "updatedAt": "2018-07-03T00:19:58.511Z"
}