{
  "contractName": "RoundManagement",
  "abi": [
    {
      "constant": true,
      "inputs": [],
      "name": "entryFee",
      "outputs": [
        {
          "name": "",
          "type": "uint256"
        }
      ],
      "payable": false,
      "stateMutability": "view",
      "type": "function"
    },
    {
      "constant": true,
      "inputs": [],
      "name": "tournamentOpen",
      "outputs": [
        {
          "name": "",
          "type": "bool"
        }
      ],
      "payable": false,
      "stateMutability": "view",
      "type": "function"
    },
    {
      "constant": true,
      "inputs": [],
      "name": "maxRounds",
      "outputs": [
        {
          "name": "",
          "type": "uint256"
        }
      ],
      "payable": false,
      "stateMutability": "view",
      "type": "function"
    },
    {
      "constant": true,
      "inputs": [],
      "name": "matryxTokenAddress",
      "outputs": [
        {
          "name": "",
          "type": "address"
        }
      ],
      "payable": false,
      "stateMutability": "view",
      "type": "function"
    },
    {
      "constant": true,
      "inputs": [
        {
          "name": "_sender",
          "type": "address"
        }
      ],
      "name": "isOwner",
      "outputs": [
        {
          "name": "_isOwner",
          "type": "bool"
        }
      ],
      "payable": false,
      "stateMutability": "view",
      "type": "function"
    },
    {
      "constant": true,
      "inputs": [],
      "name": "reviewPeriod",
      "outputs": [
        {
          "name": "",
          "type": "uint256"
        }
      ],
      "payable": false,
      "stateMutability": "view",
      "type": "function"
    },
    {
      "constant": true,
      "inputs": [],
      "name": "tournamentOpenedTime",
      "outputs": [
        {
          "name": "",
          "type": "uint256"
        }
      ],
      "payable": false,
      "stateMutability": "view",
      "type": "function"
    },
    {
      "constant": true,
      "inputs": [],
      "name": "tournamentClosedTime",
      "outputs": [
        {
          "name": "",
          "type": "uint256"
        }
      ],
      "payable": false,
      "stateMutability": "view",
      "type": "function"
    },
    {
      "constant": true,
      "inputs": [],
      "name": "title",
      "outputs": [
        {
          "name": "",
          "type": "string"
        }
      ],
      "payable": false,
      "stateMutability": "view",
      "type": "function"
    },
    {
      "constant": true,
      "inputs": [],
      "name": "matryxRoundFactoryAddress",
      "outputs": [
        {
          "name": "",
          "type": "address"
        }
      ],
      "payable": false,
      "stateMutability": "view",
      "type": "function"
    },
    {
      "constant": true,
      "inputs": [],
      "name": "BountyMTX",
      "outputs": [
        {
          "name": "",
          "type": "uint256"
        }
      ],
      "payable": false,
      "stateMutability": "view",
      "type": "function"
    },
    {
      "constant": true,
      "inputs": [],
      "name": "getOwner",
      "outputs": [
        {
          "name": "_owner",
          "type": "address"
        }
      ],
      "payable": false,
      "stateMutability": "view",
      "type": "function"
    },
    {
      "constant": true,
      "inputs": [
        {
          "name": "",
          "type": "address"
        }
      ],
      "name": "isRound",
      "outputs": [
        {
          "name": "",
          "type": "bool"
        }
      ],
      "payable": false,
      "stateMutability": "view",
      "type": "function"
    },
    {
      "constant": true,
      "inputs": [
        {
          "name": "",
          "type": "uint256"
        }
      ],
      "name": "rounds",
      "outputs": [
        {
          "name": "",
          "type": "address"
        }
      ],
      "payable": false,
      "stateMutability": "view",
      "type": "function"
    },
    {
      "constant": true,
      "inputs": [],
      "name": "owner",
      "outputs": [
        {
          "name": "",
          "type": "address"
        }
      ],
      "payable": false,
      "stateMutability": "view",
      "type": "function"
    },
    {
      "constant": true,
      "inputs": [],
      "name": "discipline",
      "outputs": [
        {
          "name": "",
          "type": "string"
        }
      ],
      "payable": false,
      "stateMutability": "view",
      "type": "function"
    },
    {
      "constant": true,
      "inputs": [],
      "name": "platformAddress",
      "outputs": [
        {
          "name": "",
          "type": "address"
        }
      ],
      "payable": false,
      "stateMutability": "view",
      "type": "function"
    },
    {
      "constant": true,
      "inputs": [],
      "name": "externalAddress",
      "outputs": [
        {
          "name": "",
          "type": "bytes"
        }
      ],
      "payable": false,
      "stateMutability": "view",
      "type": "function"
    },
    {
      "constant": true,
      "inputs": [],
      "name": "timeCreated",
      "outputs": [
        {
          "name": "",
          "type": "uint256"
        }
      ],
      "payable": false,
      "stateMutability": "view",
      "type": "function"
    },
    {
      "constant": false,
      "inputs": [
        {
          "name": "newOwner",
          "type": "address"
        }
      ],
      "name": "transferOwnership",
      "outputs": [],
      "payable": false,
      "stateMutability": "nonpayable",
      "type": "function"
    },
    {
      "constant": true,
      "inputs": [],
      "name": "BountyMTXLeft",
      "outputs": [
        {
          "name": "",
          "type": "uint256"
        }
      ],
      "payable": false,
      "stateMutability": "view",
      "type": "function"
    },
    {
      "anonymous": false,
      "inputs": [
        {
          "indexed": false,
          "name": "_roundIndex",
          "type": "uint256"
        }
      ],
      "name": "RoundStarted",
      "type": "event"
    },
    {
      "anonymous": false,
      "inputs": [
        {
          "indexed": false,
          "name": "_roundIndex",
          "type": "uint256"
        },
        {
          "indexed": false,
          "name": "_submissionAddress",
          "type": "address"
        }
      ],
      "name": "SubmissionCreated",
      "type": "event"
    },
    {
      "anonymous": false,
      "inputs": [
        {
          "indexed": false,
          "name": "_submissionAddress",
          "type": "address"
        }
      ],
      "name": "RoundWinnerChosen",
      "type": "event"
    },
    {
      "constant": true,
      "inputs": [],
      "name": "isInReview",
      "outputs": [
        {
          "name": "",
          "type": "bool"
        }
      ],
      "payable": false,
      "stateMutability": "view",
      "type": "function"
    },
    {
      "constant": false,
      "inputs": [
        {
          "name": "_submissionAddress",
          "type": "address"
        }
      ],
      "name": "chooseWinner",
      "outputs": [],
      "payable": false,
      "stateMutability": "nonpayable",
      "type": "function"
    },
    {
      "constant": false,
      "inputs": [
        {
          "name": "_bountyMTX",
          "type": "uint256"
        }
      ],
      "name": "createRound",
      "outputs": [
        {
          "name": "_roundAddress",
          "type": "address"
        }
      ],
      "payable": false,
      "stateMutability": "nonpayable",
      "type": "function"
    },
    {
      "constant": false,
      "inputs": [
        {
          "name": "_duration",
          "type": "uint256"
        },
        {
          "name": "_reviewPeriod",
          "type": "uint256"
        }
      ],
      "name": "startRound",
      "outputs": [],
      "payable": false,
      "stateMutability": "nonpayable",
      "type": "function"
    }
  ],
  "bytecode": "0x60606040526003600d55600e805460ff19169055600060128190558054600160a060020a033316600160a060020a0319909116179055611160806100446000396000f3006060604052600436106101485763ffffffff7c0100000000000000000000000000000000000000000000000000000000600035041663072ea61c811461014d57806311476599146101725780631faf969b1461019957806329cc545e146101ac5780632f54bf6e146101e85780633b249810146102145780633c7bb913146102275780633da1bba114610255578063447411f31461026b57806348f730951461027e5780634a79d50c146102915780636fe564201461031b5780637b99cf101461032e578063893d20e8146103415780638c1fc0bb146103545780638c65c81f146103805780638da5cb5b14610396578063a68e8a86146103a9578063b1902e0f146103bc578063c3964372146103cf578063dbe55e56146103e8578063e70347bb146103fb578063f1653f6e1461040e578063f2fde38b14610421578063ff4da9491461044d575b600080fd5b341561015857600080fd5b610160610460565b60405190815260200160405180910390f35b341561017d57600080fd5b610185610466565b604051901515815260200160405180910390f35b34156101a457600080fd5b61016061046f565b34156101b757600080fd5b6101bf610475565b60405173ffffffffffffffffffffffffffffffffffffffff909116815260200160405180910390f35b34156101f357600080fd5b61018573ffffffffffffffffffffffffffffffffffffffff60043516610491565b341561021f57600080fd5b6101606104b2565b341561023257600080fd5b61025373ffffffffffffffffffffffffffffffffffffffff600435166104b8565b005b341561026057600080fd5b6101bf600435610719565b341561027657600080fd5b610160610aff565b341561028957600080fd5b610160610b05565b341561029c57600080fd5b6102a4610b0b565b60405160208082528190810183818151815260200191508051906020019080838360005b838110156102e05780820151838201526020016102c8565b50505050905090810190601f16801561030d5780820380516001836020036101000a031916815260200191505b509250505060405180910390f35b341561032657600080fd5b6101bf610ba9565b341561033957600080fd5b610160610bc5565b341561034c57600080fd5b6101bf610bcb565b341561035f57600080fd5b61018573ffffffffffffffffffffffffffffffffffffffff60043516610be8565b341561038b57600080fd5b6101bf600435610bfd565b34156103a157600080fd5b6101bf610c32565b34156103b457600080fd5b610185610c4e565b34156103c757600080fd5b6102a4610c6d565b34156103da57600080fd5b610253600435602435610cd8565b34156103f357600080fd5b6101bf610de9565b341561040657600080fd5b6102a4610e05565b341561041957600080fd5b610160610e70565b341561042c57600080fd5b61025373ffffffffffffffffffffffffffffffffffffffff60043516610e76565b341561045857600080fd5b610160610f07565b60115481565b600e5460ff1681565b600d5481565b60025473ffffffffffffffffffffffffffffffffffffffff1681565b60005473ffffffffffffffffffffffffffffffffffffffff91821691161490565b600b5481565b60098054600091829160001981019081106104cf57fe5b60009182526020909120015473ffffffffffffffffffffffffffffffffffffffff16915081630b299208846040517c010000000000000000000000000000000000000000000000000000000063ffffffff841602815273ffffffffffffffffffffffffffffffffffffffff9091166004820152602401600060405180830381600087803b151561055e57600080fd5b6102c65a03f1151561056f57600080fd5b5050507f7a4f6edbca9ed97194ce723e574776da48cb8afcff0d96fb90a4ee76ffef4e5a8360405173ffffffffffffffffffffffffffffffffffffffff909116815260200160405180910390a1600d546009541415610714576105d0610c4e565b15156105db57600080fd5b50600e805460ff1916905560015460095473ffffffffffffffffffffffffffffffffffffffff9182169182916350912da1913091908790871663f49bff7b6000604051602001526040518163ffffffff167c0100000000000000000000000000000000000000000000000000000000028152600401602060405180830381600087803b151561066957600080fd5b6102c65a03f1151561067a57600080fd5b505050604051805190506040517c010000000000000000000000000000000000000000000000000000000063ffffffff871602815273ffffffffffffffffffffffffffffffffffffffff94851660048201526024810193909352921660448201526064810191909152608401600060405180830381600087803b15156106ff57600080fd5b6102c65a03f1151561071057600080fd5b5050505b505050565b600354600254600d5460095460009373ffffffffffffffffffffffffffffffffffffffff90811693169184918291829160010114156108d85760105460015490925073ffffffffffffffffffffffffffffffffffffffff80871691637f12d52a91163033866000604051602001526040517c010000000000000000000000000000000000000000000000000000000063ffffffff871602815273ffffffffffffffffffffffffffffffffffffffff94851660048201529284166024840152921660448201526064810191909152608401602060405180830381600087803b151561080257600080fd5b6102c65a03f1151561081357600080fd5b50505060405180519050925060006010819055508373ffffffffffffffffffffffffffffffffffffffff1663a9059cbb84846000604051602001526040517c010000000000000000000000000000000000000000000000000000000063ffffffff851602815273ffffffffffffffffffffffffffffffffffffffff90921660048301526024820152604401602060405180830381600087803b15156108b757600080fd5b6102c65a03f115156108c857600080fd5b5050506040518051905050610a65565b6010546108eb908863ffffffff610f0d16565b60015490915073ffffffffffffffffffffffffffffffffffffffff80871691637f12d52a911630338b6000604051602001526040517c010000000000000000000000000000000000000000000000000000000063ffffffff871602815273ffffffffffffffffffffffffffffffffffffffff94851660048201529284166024840152921660448201526064810191909152608401602060405180830381600087803b151561099857600080fd5b6102c65a03f115156109a957600080fd5b5050506040518051601083905593505073ffffffffffffffffffffffffffffffffffffffff841663a9059cbb84896000604051602001526040517c010000000000000000000000000000000000000000000000000000000063ffffffff851602815273ffffffffffffffffffffffffffffffffffffffff90921660048301526024820152604401602060405180830381600087803b1515610a4957600080fd5b6102c65a03f11515610a5a57600080fd5b505050604051805150505b73ffffffffffffffffffffffffffffffffffffffff83166000908152600a60205260409020805460ff191660019081179091556009805490918101610aaa83826110f7565b50600091825260209091200180547fffffffffffffffffffffffff00000000000000000000000000000000000000001673ffffffffffffffffffffffffffffffffffffffff8516179055509095945050505050565b60085481565b600c5481565b60048054600181600116156101000203166002900480601f016020809104026020016040519081016040528092919081815260200182805460018160011615610100020316600290048015610ba15780601f10610b7657610100808354040283529160200191610ba1565b820191906000526020600020905b815481529060010190602001808311610b8457829003601f168201915b505050505081565b60035473ffffffffffffffffffffffffffffffffffffffff1681565b600f5481565b60005473ffffffffffffffffffffffffffffffffffffffff165b90565b600a6020526000908152604090205460ff1681565b6009805482908110610c0b57fe5b60009182526020909120015473ffffffffffffffffffffffffffffffffffffffff16905081565b60005473ffffffffffffffffffffffffffffffffffffffff1681565b6000600c544210158015610c685750600b54600c54014211155b905090565b60068054600181600116156101000203166002900480601f016020809104026020016040519081016040528092919081815260200182805460018160011615610100020316600290048015610ba15780601f10610b7657610100808354040283529160200191610ba1565b60098054600091906000198101908110610cee57fe5b60009182526020909120015473ffffffffffffffffffffffffffffffffffffffff16905080635a7d5f5084846040517c010000000000000000000000000000000000000000000000000000000063ffffffff851602815260048101929092526024820152604401600060405180830381600087803b1515610d6e57600080fd5b6102c65a03f11515610d7f57600080fd5b5050600e5460ff1615159050610d9757610d97610f1f565b600d546009541415610daa57428301600c555b6009547f33a701182892fd888ed152ca2ac23771a32e814469b7cd255965471e1af3a659906000190160405190815260200160405180910390a1505050565b60015473ffffffffffffffffffffffffffffffffffffffff1681565b60058054600181600116156101000203166002900480601f016020809104026020016040519081016040528092919081815260200182805460018160011615610100020316600290048015610ba15780601f10610b7657610100808354040283529160200191610ba1565b60075481565b6000543373ffffffffffffffffffffffffffffffffffffffff908116911614610e9e57600080fd5b73ffffffffffffffffffffffffffffffffffffffff81161515610ec057600080fd5b600080547fffffffffffffffffffffffff00000000000000000000000000000000000000001673ffffffffffffffffffffffffffffffffffffffff92909216919091179055565b60105481565b600082821115610f1957fe5b50900390565b600e805460ff1916600190811790915554600054600f5460115473ffffffffffffffffffffffffffffffffffffffff938416938493635490904b939116913091600491600591906040517c010000000000000000000000000000000000000000000000000000000063ffffffff891602815273ffffffffffffffffffffffffffffffffffffffff8088166004830190815290871660248301526084820184905260a4820183905260c06044830190815286546002600019610100600184161502019091160460c4840181905291929091606482019160e40190889080156110475780601f1061101c57610100808354040283529160200191611047565b820191906000526020600020905b81548152906001019060200180831161102a57829003601f168201915b50508381038252865460026000196101006001841615020190911604808252602090910190879080156110bb5780601f10611090576101008083540402835291602001916110bb565b820191906000526020600020905b81548152906001019060200180831161109e57829003601f168201915b505098505050505050505050600060405180830381600087803b15156110e057600080fd5b6102c65a03f115156110f157600080fd5b50505050565b81548183558181151161071457600083815260209020610714918101908301610be591905b80821115611130576000815560010161111c565b50905600a165627a7a72305820dda7eee7ccffc18b52bd7e525ce0058629d79511c5eb879eec893b8082c3e3df0029",
  "source": "pragma solidity ^0.4.18;\n\nimport '../libraries/strings/strings.sol';\nimport '../libraries/math/SafeMath.sol';\nimport '../interfaces/IMatryxPlatform.sol';\nimport '../interfaces/IMatryxTournament.sol';\nimport '../interfaces/factories/IMatryxRoundFactory.sol';\nimport '../interfaces/IMatryxRound.sol';\nimport '../interfaces/IMatryxToken.sol';\nimport './Ownable.sol';\n\n/// @title Tournament - The Matryx tournament.\n/// @author Max Howard - <max@nanome.ai>, Sam Hessenauer - <sam@nanome.ai>\ncontract RoundManagement is Ownable\n{\n\tusing SafeMath for uint256;\n\n\t// TODO: condense and put in structs\n    //Platform identification\n    address public platformAddress;\n    address public matryxTokenAddress;\n    address public matryxRoundFactoryAddress;\n\n    //Tournament identification\n    string public title;\n    bytes public externalAddress;\n    string public discipline;\n\n    // Timing and State\n    uint256 public timeCreated;\n    uint256 public tournamentOpenedTime;\n    address[] public rounds;\n    mapping(address=>bool) public isRound;\n    uint256 public reviewPeriod;\n    uint256 public tournamentClosedTime;\n    uint public maxRounds = 3;\n    bool public tournamentOpen = false;\n\n    // Reward and fee\n    uint256 public BountyMTX;\n    uint256 public BountyMTXLeft;\n    uint256 public entryFee;\n\n    // TODO: Automatic round creation mechanism\n\n    // Submission tracking\n    uint256 numberOfSubmissions = 0;\n    mapping(address=>address[]) private entrantToSubmissions;\n    mapping(address=>mapping(address=>uint256_optional)) private entrantToSubmissionToSubmissionIndex;\n    mapping(address=>uint256_optional) private addressToIsEntrant;\n    address[] private allEntrants;\n\n    /*\n     * Structs\n     */\n\n    struct uint256_optional\n    {\n        bool exists;\n        uint256 value;\n    }\n\n    struct SubmissionLocation\n    {\n        uint256 roundIndex;\n        uint256 submissionIndex;\n    }\n\n    /*\n     * Events\n     */\n\n    event RoundStarted(uint256 _roundIndex);\n    // Fired at the end of every round, one time per submission created in that round\n    event SubmissionCreated(uint256 _roundIndex, address _submissionAddress);\n    event RoundWinnerChosen(address _submissionAddress);\n\n    function isInReview() public view returns (bool)\n    {\n        return now >= tournamentClosedTime && now <= tournamentClosedTime + reviewPeriod;\n    }\n\n    /// @dev Chooses the winner for the round. If this is the last round, closes the tournament.\n    /// @param _submissionAddress Address of the winning submission\n    function chooseWinner(address _submissionAddress) public\n    {\n        // TODO: Implement popular vote default winner chosen to avoid\n        // locking up MTX in this tournament (would happen if the tournament\n        // poser tried to choose a winner after the review period ended).\n        IMatryxRound round = IMatryxRound(rounds[rounds.length-1]);\n        round.chooseWinningSubmission(_submissionAddress);\n        RoundWinnerChosen(_submissionAddress);\n\n        if(rounds.length == maxRounds)\n        {\n            require(isInReview());\n            tournamentOpen = false;\n\n            IMatryxPlatform platform = IMatryxPlatform(platformAddress);\n            platform.invokeTournamentClosedEvent(this, rounds.length, _submissionAddress, round.getBounty());\n        }\n    }\n\n    /// @dev Creates a new round.\n    /// @return The new round's address.\n    function createRound(uint256 _bountyMTX) public returns (address _roundAddress) \n    {\n        IMatryxRoundFactory roundFactory = IMatryxRoundFactory(matryxRoundFactoryAddress);\n        IMatryxToken matryxToken = IMatryxToken(matryxTokenAddress);\n        address newRoundAddress;\n\n        if(rounds.length+1 == maxRounds)\n        {\n            uint256 lastBounty = BountyMTXLeft;\n            newRoundAddress = roundFactory.createRound(platformAddress, this, msg.sender, BountyMTXLeft);\n            BountyMTXLeft = 0;\n            // Transfer the round bounty to the round.\n            matryxToken.transfer(newRoundAddress, lastBounty);\n        }\n        else\n        {\n            uint256 remainingBountyAfterRoundCreated = BountyMTXLeft.sub(_bountyMTX);\n            newRoundAddress = roundFactory.createRound(platformAddress, this, msg.sender, _bountyMTX);\n            BountyMTXLeft = remainingBountyAfterRoundCreated;\n            // Transfer the round bounty to the round.\n            matryxToken.transfer(newRoundAddress, _bountyMTX);\n        }\n        \n        isRound[newRoundAddress] = true;\n        rounds.push(newRoundAddress);\n        return newRoundAddress;\n    }\n\n    /// @dev Starts the latest round.\n    /// @param _duration Duration of the round in seconds.\n    function startRound(uint256 _duration, uint256 _reviewPeriod) public\n    {\n        IMatryxRound round = IMatryxRound(rounds[rounds.length-1]);\n        round.Start(_duration, _reviewPeriod);\n        if(!tournamentOpen)\n        {\n            openTournament();\n        }\n\n        if(rounds.length == maxRounds)\n        {\n            tournamentClosedTime = now + _duration;\n        }\n\n        RoundStarted(rounds.length-1);\n    }\n\n    /// @dev Opens this tournament up to submissions; called by startRound.\n    function openTournament() internal\n    {\n        tournamentOpen = true;\n        IMatryxPlatform platform = IMatryxPlatform(platformAddress);\n        platform.invokeTournamentOpenedEvent(owner, this, title, externalAddress, BountyMTX, entryFee);\n    }\n}",
  "sourcePath": "/Users/maxhoward/Desktop/Ethereum/Development/Matryx AWS/Projects/matryx-alpha-source/contracts/RoundManagement.sol",
  "compiler": {
    "name": "solc",
    "version": "0.4.19+commit.c4cbbb05.Emscripten.clang"
  },
  "schemaVersion": "2.0.0",
  "updatedAt": "2018-04-05T19:08:36.043Z"
}