{
  "contractName": "RoundManagement",
  "abi": [
    {
      "constant": true,
      "inputs": [],
      "name": "entryFee",
      "outputs": [
        {
          "name": "",
          "type": "uint256"
        }
      ],
      "payable": false,
      "stateMutability": "view",
      "type": "function"
    },
    {
      "constant": true,
      "inputs": [],
      "name": "tournamentOpen",
      "outputs": [
        {
          "name": "",
          "type": "bool"
        }
      ],
      "payable": false,
      "stateMutability": "view",
      "type": "function"
    },
    {
      "constant": true,
      "inputs": [],
      "name": "maxRounds",
      "outputs": [
        {
          "name": "",
          "type": "uint256"
        }
      ],
      "payable": false,
      "stateMutability": "view",
      "type": "function"
    },
    {
      "constant": true,
      "inputs": [],
      "name": "matryxTokenAddress",
      "outputs": [
        {
          "name": "",
          "type": "address"
        }
      ],
      "payable": false,
      "stateMutability": "view",
      "type": "function"
    },
    {
      "constant": true,
      "inputs": [
        {
          "name": "_sender",
          "type": "address"
        }
      ],
      "name": "isOwner",
      "outputs": [
        {
          "name": "_isOwner",
          "type": "bool"
        }
      ],
      "payable": false,
      "stateMutability": "view",
      "type": "function"
    },
    {
      "constant": true,
      "inputs": [],
      "name": "reviewPeriod",
      "outputs": [
        {
          "name": "",
          "type": "uint256"
        }
      ],
      "payable": false,
      "stateMutability": "view",
      "type": "function"
    },
    {
      "constant": true,
      "inputs": [],
      "name": "tournamentOpenedTime",
      "outputs": [
        {
          "name": "",
          "type": "uint256"
        }
      ],
      "payable": false,
      "stateMutability": "view",
      "type": "function"
    },
    {
      "constant": true,
      "inputs": [],
      "name": "tournamentClosedTime",
      "outputs": [
        {
          "name": "",
          "type": "uint256"
        }
      ],
      "payable": false,
      "stateMutability": "view",
      "type": "function"
    },
    {
      "constant": true,
      "inputs": [],
      "name": "title",
      "outputs": [
        {
          "name": "",
          "type": "string"
        }
      ],
      "payable": false,
      "stateMutability": "view",
      "type": "function"
    },
    {
      "constant": true,
      "inputs": [],
      "name": "matryxRoundFactoryAddress",
      "outputs": [
        {
          "name": "",
          "type": "address"
        }
      ],
      "payable": false,
      "stateMutability": "view",
      "type": "function"
    },
    {
      "constant": true,
      "inputs": [],
      "name": "BountyMTX",
      "outputs": [
        {
          "name": "",
          "type": "uint256"
        }
      ],
      "payable": false,
      "stateMutability": "view",
      "type": "function"
    },
    {
      "constant": true,
      "inputs": [],
      "name": "getOwner",
      "outputs": [
        {
          "name": "_owner",
          "type": "address"
        }
      ],
      "payable": false,
      "stateMutability": "view",
      "type": "function"
    },
    {
      "constant": true,
      "inputs": [
        {
          "name": "",
          "type": "address"
        }
      ],
      "name": "isRound",
      "outputs": [
        {
          "name": "",
          "type": "bool"
        }
      ],
      "payable": false,
      "stateMutability": "view",
      "type": "function"
    },
    {
      "constant": true,
      "inputs": [
        {
          "name": "",
          "type": "uint256"
        }
      ],
      "name": "rounds",
      "outputs": [
        {
          "name": "",
          "type": "address"
        }
      ],
      "payable": false,
      "stateMutability": "view",
      "type": "function"
    },
    {
      "constant": true,
      "inputs": [],
      "name": "owner",
      "outputs": [
        {
          "name": "",
          "type": "address"
        }
      ],
      "payable": false,
      "stateMutability": "view",
      "type": "function"
    },
    {
      "constant": true,
      "inputs": [],
      "name": "discipline",
      "outputs": [
        {
          "name": "",
          "type": "string"
        }
      ],
      "payable": false,
      "stateMutability": "view",
      "type": "function"
    },
    {
      "constant": true,
      "inputs": [],
      "name": "platformAddress",
      "outputs": [
        {
          "name": "",
          "type": "address"
        }
      ],
      "payable": false,
      "stateMutability": "view",
      "type": "function"
    },
    {
      "constant": true,
      "inputs": [],
      "name": "externalAddress",
      "outputs": [
        {
          "name": "",
          "type": "bytes"
        }
      ],
      "payable": false,
      "stateMutability": "view",
      "type": "function"
    },
    {
      "constant": true,
      "inputs": [],
      "name": "timeCreated",
      "outputs": [
        {
          "name": "",
          "type": "uint256"
        }
      ],
      "payable": false,
      "stateMutability": "view",
      "type": "function"
    },
    {
      "constant": false,
      "inputs": [
        {
          "name": "newOwner",
          "type": "address"
        }
      ],
      "name": "transferOwnership",
      "outputs": [],
      "payable": false,
      "stateMutability": "nonpayable",
      "type": "function"
    },
    {
      "constant": true,
      "inputs": [],
      "name": "BountyMTXLeft",
      "outputs": [
        {
          "name": "",
          "type": "uint256"
        }
      ],
      "payable": false,
      "stateMutability": "view",
      "type": "function"
    },
    {
      "anonymous": false,
      "inputs": [
        {
          "indexed": false,
          "name": "_roundIndex",
          "type": "uint256"
        }
      ],
      "name": "RoundStarted",
      "type": "event"
    },
    {
      "anonymous": false,
      "inputs": [
        {
          "indexed": false,
          "name": "_roundIndex",
          "type": "uint256"
        },
        {
          "indexed": false,
          "name": "_submissionAddress",
          "type": "address"
        }
      ],
      "name": "SubmissionCreated",
      "type": "event"
    },
    {
      "anonymous": false,
      "inputs": [
        {
          "indexed": false,
          "name": "_submissionAddress",
          "type": "address"
        }
      ],
      "name": "RoundWinnerChosen",
      "type": "event"
    },
    {
      "constant": true,
      "inputs": [],
      "name": "isInReview",
      "outputs": [
        {
          "name": "",
          "type": "bool"
        }
      ],
      "payable": false,
      "stateMutability": "view",
      "type": "function"
    },
    {
      "constant": false,
      "inputs": [
        {
          "name": "_submissionAddress",
          "type": "address"
        }
      ],
      "name": "chooseWinner",
      "outputs": [],
      "payable": false,
      "stateMutability": "nonpayable",
      "type": "function"
    },
    {
      "constant": false,
      "inputs": [
        {
          "name": "_bountyMTX",
          "type": "uint256"
        }
      ],
      "name": "createRound",
      "outputs": [
        {
          "name": "_roundAddress",
          "type": "address"
        }
      ],
      "payable": false,
      "stateMutability": "nonpayable",
      "type": "function"
    },
    {
      "constant": false,
      "inputs": [
        {
          "name": "_duration",
          "type": "uint256"
        },
        {
          "name": "_reviewPeriod",
          "type": "uint256"
        }
      ],
      "name": "startRound",
      "outputs": [],
      "payable": false,
      "stateMutability": "nonpayable",
      "type": "function"
    }
  ],
  "bytecode": "0x60606040526003600d55600e805460ff19169055600060128190558054600160a060020a033316600160a060020a0319909116179055610f90806100446000396000f3006060604052600436106101485763ffffffff7c0100000000000000000000000000000000000000000000000000000000600035041663072ea61c811461014d57806311476599146101725780631faf969b1461019957806329cc545e146101ac5780632f54bf6e146101db5780633b249810146101fa5780633c7bb9131461020d5780633da1bba11461022e578063447411f31461024457806348f73095146102575780634a79d50c1461026a5780636fe56420146102f45780637b99cf1014610307578063893d20e81461031a5780638c1fc0bb1461032d5780638c65c81f1461034c5780638da5cb5b14610362578063a68e8a8614610375578063b1902e0f14610388578063c39643721461039b578063dbe55e56146103b4578063e70347bb146103c7578063f1653f6e146103da578063f2fde38b146103ed578063ff4da9491461040c575b600080fd5b341561015857600080fd5b61016061041f565b60405190815260200160405180910390f35b341561017d57600080fd5b610185610425565b604051901515815260200160405180910390f35b34156101a457600080fd5b61016061042e565b34156101b757600080fd5b6101bf610434565b604051600160a060020a03909116815260200160405180910390f35b34156101e657600080fd5b610185600160a060020a0360043516610443565b341561020557600080fd5b610160610457565b341561021857600080fd5b61022c600160a060020a036004351661045d565b005b341561023957600080fd5b6101bf60043561067d565b341561024f57600080fd5b6101606109c9565b341561026257600080fd5b6101606109cf565b341561027557600080fd5b61027d6109d5565b60405160208082528190810183818151815260200191508051906020019080838360005b838110156102b95780820151838201526020016102a1565b50505050905090810190601f1680156102e65780820380516001836020036101000a031916815260200191505b509250505060405180910390f35b34156102ff57600080fd5b6101bf610a73565b341561031257600080fd5b610160610a82565b341561032557600080fd5b6101bf610a88565b341561033857600080fd5b610185600160a060020a0360043516610a98565b341561035757600080fd5b6101bf600435610aad565b341561036d57600080fd5b6101bf610ad5565b341561038057600080fd5b610185610ae4565b341561039357600080fd5b61027d610b03565b34156103a657600080fd5b61022c600435602435610b6e565b34156103bf57600080fd5b6101bf610c72565b34156103d257600080fd5b61027d610c81565b34156103e557600080fd5b610160610cec565b34156103f857600080fd5b61022c600160a060020a0360043516610cf2565b341561041757600080fd5b610160610d51565b60115481565b600e5460ff1681565b600d5481565b600254600160a060020a031681565b600054600160a060020a0391821691161490565b600b5481565b600980546000918291600019810190811061047457fe5b600091825260209091200154600160a060020a0316915081630b299208846040517c010000000000000000000000000000000000000000000000000000000063ffffffff8416028152600160a060020a039091166004820152602401600060405180830381600087803b15156104e957600080fd5b6102c65a03f115156104fa57600080fd5b5050507f7a4f6edbca9ed97194ce723e574776da48cb8afcff0d96fb90a4ee76ffef4e5a83604051600160a060020a03909116815260200160405180910390a1600d5460095414156106785761054e610ae4565b151561055957600080fd5b50600e805460ff19169055600154600954600160a060020a039182169182916350912da1913091908790871663f49bff7b6000604051602001526040518163ffffffff167c0100000000000000000000000000000000000000000000000000000000028152600401602060405180830381600087803b15156105da57600080fd5b6102c65a03f115156105eb57600080fd5b505050604051805190506040517c010000000000000000000000000000000000000000000000000000000063ffffffff8716028152600160a060020a0394851660048201526024810193909352921660448201526064810191909152608401600060405180830381600087803b151561066357600080fd5b6102c65a03f1151561067457600080fd5b5050505b505050565b600354600254600d54600954600093600160a060020a0390811693169184918291829160010114156107fb57601054600154909250600160a060020a0380871691637f12d52a91163033866000604051602001526040517c010000000000000000000000000000000000000000000000000000000063ffffffff8716028152600160a060020a0394851660048201529284166024840152921660448201526064810191909152608401602060405180830381600087803b151561073f57600080fd5b6102c65a03f1151561075057600080fd5b505050604051805190509250600060108190555083600160a060020a031663a9059cbb84846000604051602001526040517c010000000000000000000000000000000000000000000000000000000063ffffffff8516028152600160a060020a0390921660048301526024820152604401602060405180830381600087803b15156107da57600080fd5b6102c65a03f115156107eb57600080fd5b5050506040518051905050610954565b60105461080e908863ffffffff610d5716565b600154909150600160a060020a0380871691637f12d52a911630338b6000604051602001526040517c010000000000000000000000000000000000000000000000000000000063ffffffff8716028152600160a060020a0394851660048201529284166024840152921660448201526064810191909152608401602060405180830381600087803b15156108a157600080fd5b6102c65a03f115156108b257600080fd5b50505060405180516010839055935050600160a060020a03841663a9059cbb84896000604051602001526040517c010000000000000000000000000000000000000000000000000000000063ffffffff8516028152600160a060020a0390921660048301526024820152604401602060405180830381600087803b151561093857600080fd5b6102c65a03f1151561094957600080fd5b505050604051805150505b600160a060020a0383166000908152600a60205260409020805460ff19166001908117909155600980549091810161098c8382610f27565b506000918252602090912001805473ffffffffffffffffffffffffffffffffffffffff1916600160a060020a038516179055509095945050505050565b60085481565b600c5481565b60048054600181600116156101000203166002900480601f016020809104026020016040519081016040528092919081815260200182805460018160011615610100020316600290048015610a6b5780601f10610a4057610100808354040283529160200191610a6b565b820191906000526020600020905b815481529060010190602001808311610a4e57829003601f168201915b505050505081565b600354600160a060020a031681565b600f5481565b600054600160a060020a03165b90565b600a6020526000908152604090205460ff1681565b6009805482908110610abb57fe5b600091825260209091200154600160a060020a0316905081565b600054600160a060020a031681565b6000600c544210158015610afe5750600b54600c54014211155b905090565b60068054600181600116156101000203166002900480601f016020809104026020016040519081016040528092919081815260200182805460018160011615610100020316600290048015610a6b5780601f10610a4057610100808354040283529160200191610a6b565b60098054600091906000198101908110610b8457fe5b600091825260209091200154600160a060020a0316905080635a7d5f5084846040517c010000000000000000000000000000000000000000000000000000000063ffffffff851602815260048101929092526024820152604401600060405180830381600087803b1515610bf757600080fd5b6102c65a03f11515610c0857600080fd5b5050600e5460ff1615159050610c2057610c20610d69565b600d546009541415610c3357428301600c555b6009547f33a701182892fd888ed152ca2ac23771a32e814469b7cd255965471e1af3a659906000190160405190815260200160405180910390a1505050565b600154600160a060020a031681565b60058054600181600116156101000203166002900480601f016020809104026020016040519081016040528092919081815260200182805460018160011615610100020316600290048015610a6b5780601f10610a4057610100808354040283529160200191610a6b565b60075481565b60005433600160a060020a03908116911614610d0d57600080fd5b600160a060020a0381161515610d2257600080fd5b6000805473ffffffffffffffffffffffffffffffffffffffff1916600160a060020a0392909216919091179055565b60105481565b600082821115610d6357fe5b50900390565b600e805460ff1916600190811790915554600054600f54601154600160a060020a03938416938493635490904b939116913091600491600591906040517c010000000000000000000000000000000000000000000000000000000063ffffffff8916028152600160a060020a038088166004830190815290871660248301526084820184905260a4820183905260c06044830190815286546002600019610100600184161502019091160460c4840181905291929091606482019160e4019088908015610e775780601f10610e4c57610100808354040283529160200191610e77565b820191906000526020600020905b815481529060010190602001808311610e5a57829003601f168201915b5050838103825286546002600019610100600184161502019091160480825260209091019087908015610eeb5780601f10610ec057610100808354040283529160200191610eeb565b820191906000526020600020905b815481529060010190602001808311610ece57829003601f168201915b505098505050505050505050600060405180830381600087803b1515610f1057600080fd5b6102c65a03f11515610f2157600080fd5b50505050565b81548183558181151161067857600083815260209020610678918101908301610a9591905b80821115610f605760008155600101610f4c565b50905600a165627a7a72305820eab95c5e6add8f8f1a457c272e61e1b4ca7353fec823d8840632a737ba7828f10029",
  "source": "pragma solidity ^0.4.18;\n\nimport '../libraries/strings/strings.sol';\nimport '../libraries/math/SafeMath.sol';\nimport '../interfaces/IMatryxPlatform.sol';\nimport '../interfaces/IMatryxTournament.sol';\nimport '../interfaces/factories/IMatryxRoundFactory.sol';\nimport '../interfaces/IMatryxRound.sol';\nimport '../interfaces/IMatryxToken.sol';\nimport './Ownable.sol';\n\n/// @title Tournament - The Matryx tournament.\n/// @author Max Howard - <max@nanome.ai>, Sam Hessenauer - <sam@nanome.ai>\ncontract RoundManagement is Ownable\n{\n\tusing SafeMath for uint256;\n\n\t// TODO: condense and put in structs\n    //Platform identification\n    address public platformAddress;\n    address public matryxTokenAddress;\n    address public matryxRoundFactoryAddress;\n\n    //Tournament identification\n    string public title;\n    bytes public externalAddress;\n    string public discipline;\n\n    // Timing and State\n    uint256 public timeCreated;\n    uint256 public tournamentOpenedTime;\n    address[] public rounds;\n    mapping(address=>bool) public isRound;\n    uint256 public reviewPeriod;\n    uint256 public tournamentClosedTime;\n    uint public maxRounds = 3;\n    bool public tournamentOpen = false;\n\n    // Reward and fee\n    uint256 public BountyMTX;\n    uint256 public BountyMTXLeft;\n    uint256 public entryFee;\n\n    // TODO: Automatic round creation mechanism\n\n    // Submission tracking\n    uint256 numberOfSubmissions = 0;\n    mapping(address=>address[]) private entrantToSubmissions;\n    mapping(address=>mapping(address=>uint256_optional)) private entrantToSubmissionToSubmissionIndex;\n    mapping(address=>uint256_optional) private addressToIsEntrant;\n    address[] private allEntrants;\n\n    /*\n     * Structs\n     */\n\n    struct uint256_optional\n    {\n        bool exists;\n        uint256 value;\n    }\n\n    struct SubmissionLocation\n    {\n        uint256 roundIndex;\n        uint256 submissionIndex;\n    }\n\n    /*\n     * Events\n     */\n\n    event RoundStarted(uint256 _roundIndex);\n    // Fired at the end of every round, one time per submission created in that round\n    event SubmissionCreated(uint256 _roundIndex, address _submissionAddress);\n    event RoundWinnerChosen(address _submissionAddress);\n\n    function isInReview() public view returns (bool)\n    {\n        return now >= tournamentClosedTime && now <= tournamentClosedTime + reviewPeriod;\n    }\n\n    /// @dev Chooses the winner for the round. If this is the last round, closes the tournament.\n    /// @param _submissionAddress Address of the winning submission\n    function chooseWinner(address _submissionAddress) public\n    {\n        // TODO: Implement popular vote default winner chosen to avoid\n        // locking up MTX in this tournament (would happen if the tournament\n        // poser tried to choose a winner after the review period ended).\n        IMatryxRound round = IMatryxRound(rounds[rounds.length-1]);\n        round.chooseWinningSubmission(_submissionAddress);\n        RoundWinnerChosen(_submissionAddress);\n\n        if(rounds.length == maxRounds)\n        {\n            require(isInReview());\n            tournamentOpen = false;\n\n            IMatryxPlatform platform = IMatryxPlatform(platformAddress);\n            platform.invokeTournamentClosedEvent(this, rounds.length, _submissionAddress, round.getBounty());\n        }\n    }\n\n    /// @dev Creates a new round.\n    /// @return The new round's address.\n    function createRound(uint256 _bountyMTX) public returns (address _roundAddress) \n    {\n        IMatryxRoundFactory roundFactory = IMatryxRoundFactory(matryxRoundFactoryAddress);\n        IMatryxToken matryxToken = IMatryxToken(matryxTokenAddress);\n        address newRoundAddress;\n\n        if(rounds.length+1 == maxRounds)\n        {\n            uint256 lastBounty = BountyMTXLeft;\n            newRoundAddress = roundFactory.createRound(platformAddress, this, msg.sender, BountyMTXLeft);\n            BountyMTXLeft = 0;\n            // Transfer the round bounty to the round.\n            matryxToken.transfer(newRoundAddress, lastBounty);\n        }\n        else\n        {\n            uint256 remainingBountyAfterRoundCreated = BountyMTXLeft.sub(_bountyMTX);\n            newRoundAddress = roundFactory.createRound(platformAddress, this, msg.sender, _bountyMTX);\n            BountyMTXLeft = remainingBountyAfterRoundCreated;\n            // Transfer the round bounty to the round.\n            matryxToken.transfer(newRoundAddress, _bountyMTX);\n        }\n        \n        isRound[newRoundAddress] = true;\n        rounds.push(newRoundAddress);\n        return newRoundAddress;\n    }\n\n    /// @dev Starts the latest round.\n    /// @param _duration Duration of the round in seconds.\n    function startRound(uint256 _duration, uint256 _reviewPeriod) public\n    {\n        IMatryxRound round = IMatryxRound(rounds[rounds.length-1]);\n        round.Start(_duration, _reviewPeriod);\n        if(!tournamentOpen)\n        {\n            openTournament();\n        }\n\n        if(rounds.length == maxRounds)\n        {\n            tournamentClosedTime = now + _duration;\n        }\n\n        RoundStarted(rounds.length-1);\n    }\n\n    /// @dev Opens this tournament up to submissions; called by startRound.\n    function openTournament() internal\n    {\n        tournamentOpen = true;\n        IMatryxPlatform platform = IMatryxPlatform(platformAddress);\n        platform.invokeTournamentOpenedEvent(owner, this, title, externalAddress, BountyMTX, entryFee);\n    }\n}",
  "sourcePath": "/Users/maxhoward/Desktop/Ethereum/Development/Matryx AWS/Projects/matryx-alpha-source/contracts/RoundManagement.sol",
  "compiler": {
    "name": "solc",
    "version": "0.4.19+commit.c4cbbb05.Emscripten.clang"
  },
  "schemaVersion": "2.0.0",
  "updatedAt": "2018-03-26T21:05:41.121Z"
}