{
  "contractName": "Submission",
  "abi": [
    {
      "constant": true,
      "inputs": [],
      "name": "tournamentAddress",
      "outputs": [
        {
          "name": "",
          "type": "address"
        }
      ],
      "payable": false,
      "stateMutability": "view",
      "type": "function"
    },
    {
      "constant": true,
      "inputs": [],
      "name": "getSubmissionOwner",
      "outputs": [
        {
          "name": "",
          "type": "address"
        }
      ],
      "payable": false,
      "stateMutability": "view",
      "type": "function"
    },
    {
      "constant": true,
      "inputs": [],
      "name": "tournamentOwner",
      "outputs": [
        {
          "name": "",
          "type": "address"
        }
      ],
      "payable": false,
      "stateMutability": "view",
      "type": "function"
    },
    {
      "constant": true,
      "inputs": [],
      "name": "getExternalAddress",
      "outputs": [
        {
          "name": "",
          "type": "bytes32"
        }
      ],
      "payable": false,
      "stateMutability": "view",
      "type": "function"
    },
    {
      "constant": true,
      "inputs": [],
      "name": "getReferences",
      "outputs": [
        {
          "name": "",
          "type": "address[]"
        }
      ],
      "payable": false,
      "stateMutability": "view",
      "type": "function"
    },
    {
      "constant": true,
      "inputs": [],
      "name": "owner",
      "outputs": [
        {
          "name": "_owner",
          "type": "address"
        }
      ],
      "payable": false,
      "stateMutability": "view",
      "type": "function"
    },
    {
      "constant": true,
      "inputs": [],
      "name": "timeSubmitted",
      "outputs": [
        {
          "name": "",
          "type": "uint256"
        }
      ],
      "payable": false,
      "stateMutability": "view",
      "type": "function"
    },
    {
      "constant": true,
      "inputs": [],
      "name": "getTimeSubmitted",
      "outputs": [
        {
          "name": "",
          "type": "uint256"
        }
      ],
      "payable": false,
      "stateMutability": "view",
      "type": "function"
    },
    {
      "constant": true,
      "inputs": [],
      "name": "getContributors",
      "outputs": [
        {
          "name": "",
          "type": "address[]"
        }
      ],
      "payable": false,
      "stateMutability": "view",
      "type": "function"
    },
    {
      "constant": false,
      "inputs": [
        {
          "name": "newOwner",
          "type": "address"
        }
      ],
      "name": "transferOwnership",
      "outputs": [],
      "payable": false,
      "stateMutability": "nonpayable",
      "type": "function"
    },
    {
      "constant": false,
      "inputs": [],
      "name": "makeExternallyAccessibleDuringTournament",
      "outputs": [],
      "payable": false,
      "stateMutability": "nonpayable",
      "type": "function"
    },
    {
      "constant": true,
      "inputs": [],
      "name": "submissionOwner",
      "outputs": [
        {
          "name": "",
          "type": "address"
        }
      ],
      "payable": false,
      "stateMutability": "view",
      "type": "function"
    },
    {
      "inputs": [
        {
          "name": "_tournamentAddress",
          "type": "address"
        },
        {
          "name": "_tournamentOwner",
          "type": "address"
        },
        {
          "name": "_submissionOwner",
          "type": "address"
        },
        {
          "name": "_name",
          "type": "string"
        },
        {
          "name": "_externalAddress",
          "type": "bytes32"
        },
        {
          "name": "_references",
          "type": "address[]"
        },
        {
          "name": "_contributors",
          "type": "address[]"
        },
        {
          "name": "_timeSubmitted",
          "type": "uint256"
        },
        {
          "name": "_roundEndTime",
          "type": "uint256"
        }
      ],
      "payable": false,
      "stateMutability": "nonpayable",
      "type": "constructor"
    }
  ],
  "bytecode": "0x606060405234156200001057600080fd5b604051620013933803806200139383398101604052808051906020019091908051906020019091908051906020019091908051820191906020018051906020019091908051820191906020018051820191906020018051906020019091908051906020019091905050336000806101000a81548173ffffffffffffffffffffffffffffffffffffffff021916908373ffffffffffffffffffffffffffffffffffffffff16021790555060008773ffffffffffffffffffffffffffffffffffffffff1614151515620000e057600080fd5b88600160006101000a81548173ffffffffffffffffffffffffffffffffffffffff021916908373ffffffffffffffffffffffffffffffffffffffff16021790555087600260006101000a81548173ffffffffffffffffffffffffffffffffffffffff021916908373ffffffffffffffffffffffffffffffffffffffff16021790555085600390805190602001906200017a92919062000216565b5086600460006101000a81548173ffffffffffffffffffffffffffffffffffffffff021916908373ffffffffffffffffffffffffffffffffffffffff1602179055508360059080519060200190620001d49291906200029d565b508260069080519060200190620001ed9291906200029d565b50846007816000191690555081600881905550806009819055505050505050505050506200039a565b828054600181600116156101000203166002900490600052602060002090601f016020900481019282601f106200025957805160ff19168380011785556200028a565b828001600101855582156200028a579182015b82811115620002895782518255916020019190600101906200026c565b5b5090506200029991906200032c565b5090565b82805482825590600052602060002090810192821562000319579160200282015b82811115620003185782518260006101000a81548173ffffffffffffffffffffffffffffffffffffffff021916908373ffffffffffffffffffffffffffffffffffffffff16021790555091602001919060010190620002be565b5b50905062000328919062000354565b5090565b6200035191905b808211156200034d57600081600090555060010162000333565b5090565b90565b6200039791905b808211156200039357600081816101000a81549073ffffffffffffffffffffffffffffffffffffffff0219169055506001016200035b565b5090565b90565b610fe980620003aa6000396000f3006060604052600436106100ba576000357c0100000000000000000000000000000000000000000000000000000000900463ffffffff16806303d66a97146100bf578063433bcd6114610114578063563b39dc146101695780635c11a3e4146101be5780637a6337fa146101ef5780638da5cb5b146102595780639ba1941b146102ae578063ae1ca692146102d7578063af157c1914610300578063f2fde38b1461036a578063f5c758d6146103a3578063f73c970f146103b8575b600080fd5b34156100ca57600080fd5b6100d261040d565b604051808273ffffffffffffffffffffffffffffffffffffffff1673ffffffffffffffffffffffffffffffffffffffff16815260200191505060405180910390f35b341561011f57600080fd5b610127610433565b604051808273ffffffffffffffffffffffffffffffffffffffff1673ffffffffffffffffffffffffffffffffffffffff16815260200191505060405180910390f35b341561017457600080fd5b61017c610604565b604051808273ffffffffffffffffffffffffffffffffffffffff1673ffffffffffffffffffffffffffffffffffffffff16815260200191505060405180910390f35b34156101c957600080fd5b6101d161062a565b60405180826000191660001916815260200191505060405180910390f35b34156101fa57600080fd5b6102026107db565b6040518080602001828103825283818151815260200191508051906020019060200280838360005b8381101561024557808201518184015260208101905061022a565b505050509050019250505060405180910390f35b341561026457600080fd5b61026c610a16565b604051808273ffffffffffffffffffffffffffffffffffffffff1673ffffffffffffffffffffffffffffffffffffffff16815260200191505060405180910390f35b34156102b957600080fd5b6102c1610a3f565b6040518082815260200191505060405180910390f35b34156102e257600080fd5b6102ea610a45565b6040518082815260200191505060405180910390f35b341561030b57600080fd5b610313610bf6565b6040518080602001828103825283818151815260200191508051906020019060200280838360005b8381101561035657808201518184015260208101905061033b565b505050509050019250505060405180910390f35b341561037557600080fd5b6103a1600480803573ffffffffffffffffffffffffffffffffffffffff16906020019091905050610e31565b005b34156103ae57600080fd5b6103b6610f0b565b005b34156103c357600080fd5b6103cb610f83565b604051808273ffffffffffffffffffffffffffffffffffffffff1673ffffffffffffffffffffffffffffffffffffffff16815260200191505060405180910390f35b600160009054906101000a900473ffffffffffffffffffffffffffffffffffffffff1681565b6000806000806000600160009054906101000a900473ffffffffffffffffffffffffffffffffffffffff1693508373ffffffffffffffffffffffffffffffffffffffff16632f54bf6e336000604051602001526040518263ffffffff167c0100000000000000000000000000000000000000000000000000000000028152600401808273ffffffffffffffffffffffffffffffffffffffff1673ffffffffffffffffffffffffffffffffffffffff168152602001915050602060405180830381600087803b151561050357600080fd5b6102c65a03f1151561051457600080fd5b505050604051805190509250600a60009054906101000a900460ff1691508373ffffffffffffffffffffffffffffffffffffffff1663114765996000604051602001526040518163ffffffff167c0100000000000000000000000000000000000000000000000000000000028152600401602060405180830381600087803b151561059e57600080fd5b6102c65a03f115156105af57600080fd5b5050506040518051905015905082806105c55750815b806105cd5750805b15156105d857600080fd5b600460009054906101000a900473ffffffffffffffffffffffffffffffffffffffff1694505050505090565b600260009054906101000a900473ffffffffffffffffffffffffffffffffffffffff1681565b6000806000806000600160009054906101000a900473ffffffffffffffffffffffffffffffffffffffff1693508373ffffffffffffffffffffffffffffffffffffffff16632f54bf6e336000604051602001526040518263ffffffff167c0100000000000000000000000000000000000000000000000000000000028152600401808273ffffffffffffffffffffffffffffffffffffffff1673ffffffffffffffffffffffffffffffffffffffff168152602001915050602060405180830381600087803b15156106fa57600080fd5b6102c65a03f1151561070b57600080fd5b505050604051805190509250600a60009054906101000a900460ff1691508373ffffffffffffffffffffffffffffffffffffffff1663114765996000604051602001526040518163ffffffff167c0100000000000000000000000000000000000000000000000000000000028152600401602060405180830381600087803b151561079557600080fd5b6102c65a03f115156107a657600080fd5b5050506040518051905015905082806107bc5750815b806107c45750805b15156107cf57600080fd5b60075494505050505090565b6107e3610fa9565b600080600080600160009054906101000a900473ffffffffffffffffffffffffffffffffffffffff1693508373ffffffffffffffffffffffffffffffffffffffff16632f54bf6e336000604051602001526040518263ffffffff167c0100000000000000000000000000000000000000000000000000000000028152600401808273ffffffffffffffffffffffffffffffffffffffff1673ffffffffffffffffffffffffffffffffffffffff168152602001915050602060405180830381600087803b15156108b157600080fd5b6102c65a03f115156108c257600080fd5b505050604051805190509250600a60009054906101000a900460ff1691508373ffffffffffffffffffffffffffffffffffffffff1663114765996000604051602001526040518163ffffffff167c0100000000000000000000000000000000000000000000000000000000028152600401602060405180830381600087803b151561094c57600080fd5b6102c65a03f1151561095d57600080fd5b5050506040518051905015905082806109735750815b8061097b5750805b151561098657600080fd5b6005805480602002602001604051908101604052809291908181526020018280548015610a0857602002820191906000526020600020905b8160009054906101000a900473ffffffffffffffffffffffffffffffffffffffff1673ffffffffffffffffffffffffffffffffffffffff16815260200190600101908083116109be575b505050505094505050505090565b60008060009054906101000a900473ffffffffffffffffffffffffffffffffffffffff16905090565b60085481565b6000806000806000600160009054906101000a900473ffffffffffffffffffffffffffffffffffffffff1693508373ffffffffffffffffffffffffffffffffffffffff16632f54bf6e336000604051602001526040518263ffffffff167c0100000000000000000000000000000000000000000000000000000000028152600401808273ffffffffffffffffffffffffffffffffffffffff1673ffffffffffffffffffffffffffffffffffffffff168152602001915050602060405180830381600087803b1515610b1557600080fd5b6102c65a03f11515610b2657600080fd5b505050604051805190509250600a60009054906101000a900460ff1691508373ffffffffffffffffffffffffffffffffffffffff1663114765996000604051602001526040518163ffffffff167c0100000000000000000000000000000000000000000000000000000000028152600401602060405180830381600087803b1515610bb057600080fd5b6102c65a03f11515610bc157600080fd5b505050604051805190501590508280610bd75750815b80610bdf5750805b1515610bea57600080fd5b60085494505050505090565b610bfe610fa9565b600080600080600160009054906101000a900473ffffffffffffffffffffffffffffffffffffffff1693508373ffffffffffffffffffffffffffffffffffffffff16632f54bf6e336000604051602001526040518263ffffffff167c0100000000000000000000000000000000000000000000000000000000028152600401808273ffffffffffffffffffffffffffffffffffffffff1673ffffffffffffffffffffffffffffffffffffffff168152602001915050602060405180830381600087803b1515610ccc57600080fd5b6102c65a03f11515610cdd57600080fd5b505050604051805190509250600a60009054906101000a900460ff1691508373ffffffffffffffffffffffffffffffffffffffff1663114765996000604051602001526040518163ffffffff167c0100000000000000000000000000000000000000000000000000000000028152600401602060405180830381600087803b1515610d6757600080fd5b6102c65a03f11515610d7857600080fd5b505050604051805190501590508280610d8e5750815b80610d965750805b1515610da157600080fd5b6006805480602002602001604051908101604052809291908181526020018280548015610e2357602002820191906000526020600020905b8160009054906101000a900473ffffffffffffffffffffffffffffffffffffffff1673ffffffffffffffffffffffffffffffffffffffff1681526020019060010190808311610dd9575b505050505094505050505090565b6000809054906101000a900473ffffffffffffffffffffffffffffffffffffffff1673ffffffffffffffffffffffffffffffffffffffff163373ffffffffffffffffffffffffffffffffffffffff16141515610e8c57600080fd5b600073ffffffffffffffffffffffffffffffffffffffff168173ffffffffffffffffffffffffffffffffffffffff1614151515610ec857600080fd5b806000806101000a81548173ffffffffffffffffffffffffffffffffffffffff021916908373ffffffffffffffffffffffffffffffffffffffff16021790555050565b6000809054906101000a900473ffffffffffffffffffffffffffffffffffffffff1673ffffffffffffffffffffffffffffffffffffffff163373ffffffffffffffffffffffffffffffffffffffff16141515610f6657600080fd5b6001600a60006101000a81548160ff021916908315150217905550565b600460009054906101000a900473ffffffffffffffffffffffffffffffffffffffff1681565b6020604051908101604052806000815250905600a165627a7a72305820909acc74206936584258a32751812a3dd05488389543280570b2785b477d5f2c0029",
  "source": "pragma solidity ^0.4.18;\n\n\nimport './Ownable.sol';\nimport './Tournament.sol';\n\n///Creating a submission and the functionality\ncontract Submission is Ownable {\n\n\t// Tournament identification\n\taddress public tournamentAddress;\n\taddress public tournamentOwner;\n\tbool tournamentIsClosed;\n\t\n\t// Submission\n\tstring name;\n\taddress public submissionOwner;\n\taddress[] references;\n\taddress[] contributors;\n\tbytes32 externalAddress;\n\tuint256 public timeSubmitted;\n\tuint256 private roundEndTime;\n\tbool externallyAccessibleDuringTournament;\n\n\t// Submission Constructor\n\tfunction Submission(address _tournamentAddress, address _tournamentOwner, address _submissionOwner, string _name, bytes32 _externalAddress, address[] _references, address[] _contributors, uint256 _timeSubmitted, uint256 _roundEndTime) public {\n\t\t//Clean inputs\n\t\trequire(_submissionOwner != 0x0);\n\n\t\ttournamentAddress = _tournamentAddress;\n\t\ttournamentOwner = _tournamentOwner;\n\t\tname = _name;\n\t\tsubmissionOwner = _submissionOwner;\n\t\treferences = _references;\n\t\tcontributors = _contributors;\n\t\texternalAddress = _externalAddress;\n\t\ttimeSubmitted = _timeSubmitted;\n\t\troundEndTime = _roundEndTime;\n\t}\n\n\t// ----------------- Modifiers -----------------\n\n\t// A modifier to ensure that information can be obtained\n\t// about this submission only when it should be (when the creator decides it can\n\t// or after the tournament has been closed).\n\tmodifier whenAccessible()\n\t{\n\t\t// NEEDS WORK.\n\t\t// TODO: Figure out who should set tournamentIsClosed\n\t\t// TODO: Figure out how to make this work for multiple rounds.\n\t\t// TODO: Figure out how to make this submission inaccessible to tournament entrants\n\t\t// when the round this was created in is the current round\n\t\t// (this submission should be visible to those in the tournament if\n\t\t// it was created last round, two rounds ago, etc.)\n\n\t\tTournament tournament = Tournament(tournamentAddress);\n\t\tbool senderOwnsTournament = tournament.isOwner(msg.sender);\n\n\t\tbool externallyAccessible = externallyAccessibleDuringTournament;\n\n\t\t// TODO: Think about this next part carefully.\n\t\t// Who is responsible for tournamentIsClosed? This submission? The tournament?\n\t\t// How often are users going to call the accessors of a submission? And on the other hand...\n\t\t// How expensive would it be for the tournament owner to update all submissions?\n\n\t\t// tl;dr Who should pay what gas:\n\t\t//    1) tournament creator a lot, but only once? \n\t\t//    2) submission creators a little, but potentially many times?\n\t\t//    3) both??\n\t\tbool closedTournament = !tournament.tournamentOpen();\n\n\t\trequire(senderOwnsTournament || externallyAccessible || closedTournament);\n\t\t_;\n\t}\n\n\t// ----------------- Accessor Methods -----------------\n\n\tfunction getSubmissionOwner() constant whenAccessible public returns (address) {\n\t\treturn submissionOwner;\n\t}\n\n\tfunction getReferences() constant whenAccessible public returns(address[]) {\n\t\treturn references;\n\t}\n\n\tfunction getContributors() constant whenAccessible public returns(address[]) {\n\t\treturn contributors;\n\t}\n\n\tfunction getExternalAddress() constant whenAccessible public returns(bytes32) {\n\t\treturn externalAddress;\n\t}\n\n\tfunction getTimeSubmitted() constant whenAccessible public returns(uint256) {\n\t\treturn timeSubmitted;\n\t}\n\n\t/*\n\tTODO\n\tFunction - turn the submission into public when the round ends\n\tOnly the tournament\n\t*/\n\n\t//TODO setters with correct scoping\n\n\tfunction makeExternallyAccessibleDuringTournament() onlyOwner public\n\t{\n\t\texternallyAccessibleDuringTournament = true;\n\t}\n\n}",
  "sourcePath": "/Users/maxhoward/Desktop/Ethereum Development/Matryx AWS/Projects/matryx-alpha-source/contracts/Submission.sol",
  "compiler": {
    "name": "solc",
    "version": "0.4.18+commit.9cf6e910.Emscripten.clang"
  },
  "schemaVersion": "1.0.1",
  "updatedAt": "2017-12-07T03:00:24.937Z"
}