{
  "contractName": "SubmissionTrust",
  "abi": [
    {
      "constant": true,
      "inputs": [],
      "name": "approvedReferences",
      "outputs": [
        {
          "name": "",
          "type": "uint256"
        }
      ],
      "payable": false,
      "stateMutability": "view",
      "type": "function"
    },
    {
      "constant": true,
      "inputs": [
        {
          "name": "",
          "type": "address"
        }
      ],
      "name": "addressToAmountWithdrawn",
      "outputs": [
        {
          "name": "",
          "type": "uint256"
        }
      ],
      "payable": false,
      "stateMutability": "view",
      "type": "function"
    },
    {
      "constant": true,
      "inputs": [],
      "name": "contributorBountyDivisor",
      "outputs": [
        {
          "name": "",
          "type": "uint128"
        }
      ],
      "payable": false,
      "stateMutability": "view",
      "type": "function"
    },
    {
      "constant": true,
      "inputs": [
        {
          "name": "_sender",
          "type": "address"
        }
      ],
      "name": "isOwner",
      "outputs": [
        {
          "name": "_isOwner",
          "type": "bool"
        }
      ],
      "payable": false,
      "stateMutability": "view",
      "type": "function"
    },
    {
      "constant": true,
      "inputs": [
        {
          "name": "",
          "type": "address"
        }
      ],
      "name": "contributorToBountyDividend",
      "outputs": [
        {
          "name": "",
          "type": "uint128"
        }
      ],
      "payable": false,
      "stateMutability": "view",
      "type": "function"
    },
    {
      "constant": true,
      "inputs": [],
      "name": "approvalTrust",
      "outputs": [
        {
          "name": "",
          "type": "uint128"
        }
      ],
      "payable": false,
      "stateMutability": "view",
      "type": "function"
    },
    {
      "constant": true,
      "inputs": [
        {
          "name": "",
          "type": "uint256"
        }
      ],
      "name": "approvingPeers",
      "outputs": [
        {
          "name": "",
          "type": "address"
        }
      ],
      "payable": false,
      "stateMutability": "view",
      "type": "function"
    },
    {
      "constant": true,
      "inputs": [],
      "name": "getOwner",
      "outputs": [
        {
          "name": "_owner",
          "type": "address"
        }
      ],
      "payable": false,
      "stateMutability": "view",
      "type": "function"
    },
    {
      "constant": true,
      "inputs": [],
      "name": "owner",
      "outputs": [
        {
          "name": "",
          "type": "address"
        }
      ],
      "payable": false,
      "stateMutability": "view",
      "type": "function"
    },
    {
      "constant": true,
      "inputs": [
        {
          "name": "",
          "type": "uint256"
        }
      ],
      "name": "missingReferences",
      "outputs": [
        {
          "name": "",
          "type": "address"
        }
      ],
      "payable": false,
      "stateMutability": "view",
      "type": "function"
    },
    {
      "constant": true,
      "inputs": [],
      "name": "totalReferenceCount",
      "outputs": [
        {
          "name": "",
          "type": "uint256"
        }
      ],
      "payable": false,
      "stateMutability": "view",
      "type": "function"
    },
    {
      "constant": true,
      "inputs": [],
      "name": "isPublic",
      "outputs": [
        {
          "name": "",
          "type": "bool"
        }
      ],
      "payable": false,
      "stateMutability": "view",
      "type": "function"
    },
    {
      "constant": true,
      "inputs": [],
      "name": "totalPossibleTrust",
      "outputs": [
        {
          "name": "",
          "type": "uint256"
        }
      ],
      "payable": false,
      "stateMutability": "view",
      "type": "function"
    },
    {
      "constant": false,
      "inputs": [
        {
          "name": "newOwner",
          "type": "address"
        }
      ],
      "name": "transferOwnership",
      "outputs": [],
      "payable": false,
      "stateMutability": "nonpayable",
      "type": "function"
    },
    {
      "constant": false,
      "inputs": [
        {
          "name": "_reference",
          "type": "address"
        }
      ],
      "name": "addReference",
      "outputs": [],
      "payable": false,
      "stateMutability": "nonpayable",
      "type": "function"
    },
    {
      "constant": false,
      "inputs": [
        {
          "name": "_reference",
          "type": "address"
        }
      ],
      "name": "removeReference",
      "outputs": [],
      "payable": false,
      "stateMutability": "nonpayable",
      "type": "function"
    },
    {
      "constant": false,
      "inputs": [
        {
          "name": "_reference",
          "type": "address"
        }
      ],
      "name": "approveReference",
      "outputs": [],
      "payable": false,
      "stateMutability": "nonpayable",
      "type": "function"
    },
    {
      "constant": false,
      "inputs": [
        {
          "name": "_reference",
          "type": "address"
        }
      ],
      "name": "removeReferenceApproval",
      "outputs": [],
      "payable": false,
      "stateMutability": "nonpayable",
      "type": "function"
    },
    {
      "constant": false,
      "inputs": [
        {
          "name": "_reference",
          "type": "address"
        }
      ],
      "name": "flagMissingReference",
      "outputs": [],
      "payable": false,
      "stateMutability": "nonpayable",
      "type": "function"
    },
    {
      "constant": false,
      "inputs": [
        {
          "name": "_reference",
          "type": "address"
        }
      ],
      "name": "removeMissingReferenceFlag",
      "outputs": [],
      "payable": false,
      "stateMutability": "nonpayable",
      "type": "function"
    }
  ],
  "bytecode": "0x6080604052670de0b6b3a7640000600a5560008054600160a060020a0319163317905561235c806100316000396000f3006080604052600436106101115763ffffffff7c01000000000000000000000000000000000000000000000000000000006000350416630cbfdb2d81146101165780630fb3395c146101465780631abaf3fc146101745780631c96e14d1461019b57806323bab50b146101c957806329f9e665146101f75780632f54bf6e1461023157806332c9c9d3146102735780634586de5d146102a157806382966f8b146102cf57806389054583146102e4578063893d20e8146103255780638da5cb5b1461033a5780639c1b92a11461034f578063c865697814610367578063dc9a15351461037c578063e4e3e83a14610391578063e7139ec0146103bf578063e9946c23146103ed578063f2fde38b14610402575b600080fd5b34801561012257600080fd5b5061014473ffffffffffffffffffffffffffffffffffffffff60043516610430565b005b34801561015257600080fd5b5061014473ffffffffffffffffffffffffffffffffffffffff6004351661073d565b34801561018057600080fd5b50610189610ae1565b60408051918252519081900360200190f35b3480156101a757600080fd5b5061018973ffffffffffffffffffffffffffffffffffffffff60043516610ae7565b3480156101d557600080fd5b5061014473ffffffffffffffffffffffffffffffffffffffff60043516610af9565b34801561020357600080fd5b5061020c610ea2565b604080516fffffffffffffffffffffffffffffffff9092168252519081900360200190f35b34801561023d57600080fd5b5061025f73ffffffffffffffffffffffffffffffffffffffff60043516610eba565b604080519115158252519081900360200190f35b34801561027f57600080fd5b5061014473ffffffffffffffffffffffffffffffffffffffff60043516610edb565b3480156102ad57600080fd5b5061020c73ffffffffffffffffffffffffffffffffffffffff600435166115dc565b3480156102db57600080fd5b5061020c611600565b3480156102f057600080fd5b506102fc600435611618565b6040805173ffffffffffffffffffffffffffffffffffffffff9092168252519081900360200190f35b34801561033157600080fd5b506102fc61164d565b34801561034657600080fd5b506102fc611669565b34801561035b57600080fd5b506102fc600435611685565b34801561037357600080fd5b50610189611693565b34801561038857600080fd5b5061025f611699565b34801561039d57600080fd5b5061014473ffffffffffffffffffffffffffffffffffffffff600435166116a2565b3480156103cb57600080fd5b5061014473ffffffffffffffffffffffffffffffffffffffff600435166119cc565b3480156103f957600080fd5b50610189612082565b34801561040e57600080fd5b5061014473ffffffffffffffffffffffffffffffffffffffff60043516612088565b600154604080517f3e44cf78000000000000000000000000000000000000000000000000000000008152336004820152905173ffffffffffffffffffffffffffffffffffffffff90921691633e44cf78916024808201926020929091908290030181600087803b1580156104a357600080fd5b505af11580156104b7573d6000803e3d6000fd5b505050506040513d60208110156104cd57600080fd5b505115156104da57600080fd5b73ffffffffffffffffffffffffffffffffffffffff81166000908152601160205260409020546601000000000000900460ff16151560011461051b57600080fd5b73ffffffffffffffffffffffffffffffffffffffff81166000908152600f6020818152604080842080547fffffffffffffffffffffffffffffffffffffffffffffffffffffffffffffff0016815560118352932080547fffffffffffffffffffffffffffffffffffffffffffffffffff00ffffffffffff169055525460108054909161010090046fffffffffffffffffffffffffffffffff169081106105bd57fe5b60009182526020808320909101805473ffffffffffffffffffffffffffffffffffffffff191690553382526012905260409020546106079063ffffffff9081169060019061210a16565b336000908152601260209081526040808320805463ffffffff191663ffffffff95861617905573ffffffffffffffffffffffffffffffffffffffff851683526011909152902054600c5461067f926fffffffffffffffffffffffffffffffff9182169267010000000000000090049091169061213116565b600c80546fffffffffffffffffffffffffffffffff19166fffffffffffffffffffffffffffffffff92831617905573ffffffffffffffffffffffffffffffffffffffff8216600090815260116020908152604080832054338452600b909252909120546106fb9290811691670100000000000000900416612131565b336000908152600b6020526040902080546fffffffffffffffffffffffffffffffff19166fffffffffffffffffffffffffffffffff9290921691909117905550565b600154604080517f3e44cf78000000000000000000000000000000000000000000000000000000008152336004820152905160009273ffffffffffffffffffffffffffffffffffffffff1691633e44cf7891602480830192602092919082900301818787803b1580156107af57600080fd5b505af11580156107c3573d6000803e3d6000fd5b505050506040513d60208110156107d957600080fd5b505115156107e657600080fd5b73ffffffffffffffffffffffffffffffffffffffff8216600090815260116020526040902054640100000000900460ff161561082157600080fd5b600154604080517fb2fad55400000000000000000000000000000000000000000000000000000000815273ffffffffffffffffffffffffffffffffffffffff85811660048301529151919092169163b2fad5549160248083019260209291908290030181600087803b15801561089657600080fd5b505af11580156108aa573d6000803e3d6000fd5b505050506040513d60208110156108c057600080fd5b5050600880546001810182557ff3f7a9fe364faab93b216da50a3214154f22a0a2b415b23a84c8169e8b636ee301805473ffffffffffffffffffffffffffffffffffffffff191673ffffffffffffffffffffffffffffffffffffffff85169081179091559054600091825260116020526040909120805464010000000063ffffffff199091167fffffffffffffffffffffffffffffffffffffffffffffffffffffffffffffffff90930163ffffffff16929092177fffffffffffffffffffffffffffffffffffffffffffffffffffffff00ffffffff16919091179081905560ff66010000000000009091041615610add578173ffffffffffffffffffffffffffffffffffffffff1663a5faa1256040518163ffffffff167c0100000000000000000000000000000000000000000000000000000000028152600401602060405180830381600087803b158015610a1557600080fd5b505af1158015610a29573d6000803e3d6000fd5b505050506040513d6020811015610a3f57600080fd5b5051604080517f268c7dcb00000000000000000000000000000000000000000000000000000000815230600482015273ffffffffffffffffffffffffffffffffffffffff858116602483015291519293509083169163268c7dcb9160448082019260009290919082900301818387803b158015610abb57600080fd5b505af1158015610acf573d6000803e3d6000fd5b50505050610add818361215c565b5050565b60135481565b60186020526000908152604090205481565b600154604080517f3e44cf780000000000000000000000000000000000000000000000000000000081523360048201529051600092839273ffffffffffffffffffffffffffffffffffffffff90911691633e44cf789160248082019260209290919082900301818787803b158015610b7057600080fd5b505af1158015610b84573d6000803e3d6000fd5b505050506040513d6020811015610b9a57600080fd5b50511515610ba757600080fd5b73ffffffffffffffffffffffffffffffffffffffff8316600090815260116020526040902054640100000000900460ff161515600114610be657600080fd5b600154604080517ffb5032d600000000000000000000000000000000000000000000000000000000815273ffffffffffffffffffffffffffffffffffffffff86811660048301529151919092169163fb5032d69160248083019260209291908290030181600087803b158015610c5b57600080fd5b505af1158015610c6f573d6000803e3d6000fd5b505050506040513d6020811015610c8557600080fd5b505073ffffffffffffffffffffffffffffffffffffffff831660009081526011602052604090205465010000000000900460ff1615610dea578273ffffffffffffffffffffffffffffffffffffffff1663a5faa1256040518163ffffffff167c0100000000000000000000000000000000000000000000000000000000028152600401602060405180830381600087803b158015610d2257600080fd5b505af1158015610d36573d6000803e3d6000fd5b505050506040513d6020811015610d4c57600080fd5b5051604080517fc464e29400000000000000000000000000000000000000000000000000000000815230600482015273ffffffffffffffffffffffffffffffffffffffff868116602483015291519294509084169163c464e2949160448082019260009290919082900301818387803b158015610dc857600080fd5b505af1158015610ddc573d6000803e3d6000fd5b50505050610dea828461215c565b5073ffffffffffffffffffffffffffffffffffffffff82166000908152601160205260409020546008805463ffffffff9092169182908110610e2857fe5b60009182526020808320909101805473ffffffffffffffffffffffffffffffffffffffff1916905573ffffffffffffffffffffffffffffffffffffffff949094168152601190935250506040812080547fffffffffffffffffff000000000000000000000000000000000000000000000016815560010155565b6017546fffffffffffffffffffffffffffffffff1681565b60005473ffffffffffffffffffffffffffffffffffffffff91821691161490565b600154604080517f3e44cf780000000000000000000000000000000000000000000000000000000081523360048201529051600092839283928392839273ffffffffffffffffffffffffffffffffffffffff90911691633e44cf789160248082019260209290919082900301818787803b158015610f5857600080fd5b505af1158015610f6c573d6000803e3d6000fd5b505050506040513d6020811015610f8257600080fd5b50511515610f8f57600080fd5b73ffffffffffffffffffffffffffffffffffffffff8616600090815260116020526040902054640100000000900460ff1615610fca57600080fd5b73ffffffffffffffffffffffffffffffffffffffff86166000908152601160205260409020546601000000000000900460ff161561100757600080fd5b60108054600181810183557f1b6847dc741a1b0cd08d278845f9d819d87b734759afb55fe2de5cb82a9ae672909101805473ffffffffffffffffffffffffffffffffffffffff8a1673ffffffffffffffffffffffffffffffffffffffff19909116811790915560408051808201825292835292546fffffffffffffffffffffffffffffffff7fffffffffffffffffffffffffffffffffffffffffffffffffffffffffffffffff91909101811660208481019182526000938452600f8152858420945185549251909316610100027fffffffffffffffffffffffffffffff00000000000000000000000000000000ff9315157fffffffffffffffffffffffffffffffffffffffffffffffffffffffffffffff009093169290921792909216179092556011825282812080547fffffffffffffffffffffffffffffffffffffffffffffffffff00ffffffffffff16660100000000000017905582517fffe6a18e0000000000000000000000000000000000000000000000000000000081529251339850889363ffe6a18e936004808301949193928390030190829087803b1580156111af57600080fd5b505af11580156111c3573d6000803e3d6000fd5b505050506040513d60208110156111d957600080fd5b5051600c54336000908152601260205260409020549195506fffffffffffffffffffffffffffffffff16935063ffffffff16151561126557600e80546001810182556000919091527fbb7b4a454dc3493923482f07822329ed19e8244eff582cc204f8554c3620c3fd01805473ffffffffffffffffffffffffffffffffffffffff19163317905561131b565b336000908152600b6020526040902054600c5461129d916fffffffffffffffffffffffffffffffff918216911663ffffffff61210a16565b600c80546fffffffffffffffffffffffffffffffff19166fffffffffffffffffffffffffffffffff92831617905573ffffffffffffffffffffffffffffffffffffffff8716600090815260116020526040902060010154600d5461131792909170010000000000000000000000000000000090041661225c565b600d555b336000908152601260205260409020546113419063ffffffff9081169060019061213116565b336000908152601260209081526040808320805463ffffffff191663ffffffff959095169490941790935582517ffa6daea7000000000000000000000000000000000000000000000000000000008152306004820152925173ffffffffffffffffffffffffffffffffffffffff89169363fa6daea79360248083019493928390030190829087803b1580156113d557600080fd5b505af11580156113e9573d6000803e3d6000fd5b505050506040513d60208110156113ff57600080fd5b505191506114256fffffffffffffffffffffffffffffffff85168363ffffffff61226816565b90506114516fffffffffffffffffffffffffffffffff8216670de0b6b3a764000063ffffffff6122e616565b336000908152600b6020526040902080546fffffffffffffffffffffffffffffffff19166fffffffffffffffffffffffffffffffff83811691909117909155600c549192506114a1911682612131565b600c80546fffffffffffffffffffffffffffffffff19166fffffffffffffffffffffffffffffffff92831617905573ffffffffffffffffffffffffffffffffffffffff8716600090815260116020526040902060010180548216700100000000000000000000000000000000928716928302179055600d5461152291612321565b600d55600c5461154d906fffffffffffffffffffffffffffffffff858116911663ffffffff61210a16565b73ffffffffffffffffffffffffffffffffffffffff8716600090815260116020526040902080546fffffffffffffffffffffffffffffffff92909216670100000000000000027fffffffffffffffffff00000000000000000000000000000000ffffffffffffff9092169190911790556014546115d190600163ffffffff61232116565b601455505050505050565b6016602052600090815260409020546fffffffffffffffffffffffffffffffff1681565b600c546fffffffffffffffffffffffffffffffff1681565b600e80548290811061162657fe5b60009182526020909120015473ffffffffffffffffffffffffffffffffffffffff16905081565b60005473ffffffffffffffffffffffffffffffffffffffff1690565b60005473ffffffffffffffffffffffffffffffffffffffff1681565b601080548290811061162657fe5b60145481565b601c5460ff1681565b600154604080517f3e44cf78000000000000000000000000000000000000000000000000000000008152336004820152905173ffffffffffffffffffffffffffffffffffffffff90921691633e44cf78916024808201926020929091908290030181600087803b15801561171557600080fd5b505af1158015611729573d6000803e3d6000fd5b505050506040513d602081101561173f57600080fd5b5051151561174c57600080fd5b73ffffffffffffffffffffffffffffffffffffffff811660009081526011602052604090205465010000000000900460ff16151560011461178c57600080fd5b6013546117a090600163ffffffff61225c16565b60135573ffffffffffffffffffffffffffffffffffffffff8116600090815260116020526040902080547fffffffffffffffffffffffffffffffffffffffffffffffffffff00ffffffffff16908190556601000000000000900460ff16156118975773ffffffffffffffffffffffffffffffffffffffff81166000908152600f602052604090205460108054839261010090046fffffffffffffffffffffffffffffffff1690811061184e57fe5b9060005260206000200160006101000a81548173ffffffffffffffffffffffffffffffffffffffff021916908373ffffffffffffffffffffffffffffffffffffffff1602179055505b336000908152601260205260409020546118c59063ffffffff64010000000090910481169060019061210a16565b33600090815260126020908152604080832080547fffffffffffffffffffffffffffffffffffffffffffffffff00000000ffffffff1664010000000063ffffffff9687160217905573ffffffffffffffffffffffffffffffffffffffff851683526011909152902060010154600c54611958926fffffffffffffffffffffffffffffffff91821692919091169061210a16565b600c80546fffffffffffffffffffffffffffffffff19166fffffffffffffffffffffffffffffffff92831617905573ffffffffffffffffffffffffffffffffffffffff8216600090815260116020908152604080832060010154338452600b909252909120546106fb92908116911661210a565b600154604080517f3e44cf780000000000000000000000000000000000000000000000000000000081523360048201529051600092839283928392839273ffffffffffffffffffffffffffffffffffffffff90911691633e44cf789160248082019260209290919082900301818787803b158015611a4957600080fd5b505af1158015611a5d573d6000803e3d6000fd5b505050506040513d6020811015611a7357600080fd5b50511515611a8057600080fd5b73ffffffffffffffffffffffffffffffffffffffff8616600090815260116020526040902054640100000000900460ff161515600114611abf57600080fd5b73ffffffffffffffffffffffffffffffffffffffff861660009081526011602052604090205465010000000000900460ff1615611afb57600080fd5b601354611b0f90600163ffffffff61232116565b60135573ffffffffffffffffffffffffffffffffffffffff8616600090815260116020908152604080832080547fffffffffffffffffffffffffffffffffffffffffffffffffffff00ffffffffff1665010000000000179055600f90915290205460ff1615611beb5773ffffffffffffffffffffffffffffffffffffffff86166000908152600f602052604090205460108054909161010090046fffffffffffffffffffffffffffffffff16908110611bc457fe5b6000918252602090912001805473ffffffffffffffffffffffffffffffffffffffff191690555b3394508473ffffffffffffffffffffffffffffffffffffffff1663ffe6a18e6040518163ffffffff167c0100000000000000000000000000000000000000000000000000000000028152600401602060405180830381600087803b158015611c5257600080fd5b505af1158015611c66573d6000803e3d6000fd5b505050506040513d6020811015611c7c57600080fd5b5051600c54336000908152601260205260409020549195506fffffffffffffffffffffffffffffffff169350640100000000900463ffffffff161515611d1057600e80546001810182556000919091527fbb7b4a454dc3493923482f07822329ed19e8244eff582cc204f8554c3620c3fd01805473ffffffffffffffffffffffffffffffffffffffff191633179055611dc6565b336000908152600b6020526040902054600c54611d48916fffffffffffffffffffffffffffffffff918216911663ffffffff61210a16565b600c80546fffffffffffffffffffffffffffffffff19166fffffffffffffffffffffffffffffffff92831617905573ffffffffffffffffffffffffffffffffffffffff8716600090815260116020526040902060010154600d54611dc292909170010000000000000000000000000000000090041661225c565b600d555b33600090815260126020526040902054611df49063ffffffff64010000000090910481169060019061213116565b336000908152601260209081526040808320805463ffffffff95909516640100000000027fffffffffffffffffffffffffffffffffffffffffffffffff00000000ffffffff9095169490941790935582517ffa6daea7000000000000000000000000000000000000000000000000000000008152306004820152925173ffffffffffffffffffffffffffffffffffffffff89169363fa6daea79360248083019493928390030190829087803b158015611eac57600080fd5b505af1158015611ec0573d6000803e3d6000fd5b505050506040513d6020811015611ed657600080fd5b50519150611efc6fffffffffffffffffffffffffffffffff85168363ffffffff61226816565b9050611f286fffffffffffffffffffffffffffffffff8216670de0b6b3a764000063ffffffff6122e616565b336000908152600b6020526040902080546fffffffffffffffffffffffffffffffff19166fffffffffffffffffffffffffffffffff83811691909117909155600c54919250611f78911682612131565b600c80546fffffffffffffffffffffffffffffffff19166fffffffffffffffffffffffffffffffff92831617905573ffffffffffffffffffffffffffffffffffffffff8716600090815260116020526040902060010180548216700100000000000000000000000000000000928716928302179055600d54611ff991612321565b600d55600c54612021906fffffffffffffffffffffffffffffffff168463ffffffff61210a16565b73ffffffffffffffffffffffffffffffffffffffff96909616600090815260116020526040902060010180546fffffffffffffffffffffffffffffffff19166fffffffffffffffffffffffffffffffff909716969096179095555050505050565b600d5481565b60005473ffffffffffffffffffffffffffffffffffffffff1633146120ac57600080fd5b73ffffffffffffffffffffffffffffffffffffffff811615156120ce57600080fd5b6000805473ffffffffffffffffffffffffffffffffffffffff191673ffffffffffffffffffffffffffffffffffffffff92909216919091179055565b60006fffffffffffffffffffffffffffffffff808416908316111561212b57fe5b50900390565b60008282016fffffffffffffffffffffffffffffffff808516908216101561215557fe5b9392505050565b73ffffffffffffffffffffffffffffffffffffffff821660009081526012602052604081205461219f9063ffffffff640100000000820481169181169061213116565b90506fffffffffffffffffffffffffffffffff811615156122575773ffffffffffffffffffffffffffffffffffffffff8216600090815260116020526040902060010154600d546122159170010000000000000000000000000000000090046fffffffffffffffffffffffffffffffff1661225c565b600d5573ffffffffffffffffffffffffffffffffffffffff8216600090815260116020526040902060010180546fffffffffffffffffffffffffffffffff1690555b505050565b60008282111561212b57fe5b60008282026fffffffffffffffffffffffffffffffff841615806122de5750826fffffffffffffffffffffffffffffffff16846fffffffffffffffffffffffffffffffff16826fffffffffffffffffffffffffffffffff168115156122c957fe5b046fffffffffffffffffffffffffffffffff16145b151561215557fe5b600080826fffffffffffffffffffffffffffffffff16846fffffffffffffffffffffffffffffffff1681151561231857fe5b04949350505050565b60008282018381101561215557fe00a165627a7a72305820348813e309d5811d16d8886890c6f37bc3b6da376119baa562b99b57d07ccddc0029",
  "source": "pragma solidity ^0.4.18;\n\nimport '../../libraries/math/SafeMath.sol';\nimport '../../libraries/math/SafeMath128.sol';\nimport '../../interfaces/IMatryxToken.sol';\nimport '../../interfaces/IMatryxPeer.sol';\nimport '../../interfaces/IMatryxPlatform.sol';\nimport '../../interfaces/IMatryxTournament.sol';\nimport '../../interfaces/IMatryxRound.sol';\nimport '../../interfaces/IMatryxSubmission.sol';\nimport '../Ownable.sol';\n\ncontract SubmissionTrust is Ownable\n{\n    using SafeMath for uint256;\n    using SafeMath128 for uint128;\n\n    // Parent identification\n    address private platformAddress;\n    address private tournamentAddress;\n    address private roundAddress;\n\n    // Submission\n    string title;\n    address author;\n    bytes descriptionHash;\n    bytes fileHash;\n    address[] references;\n    uint256 winnings;\n\n    uint256 one = 10**18;\n\n    // Tracks the normalized trust gained through peers approving this submission\n    mapping(address=>uint128) authorToApprovalTrustGiven;\n    uint128 public approvalTrust;\n    uint256 public totalPossibleTrust;\n    address[] public approvingPeers;\n\n    // Tracks the proportion of references this submission has approved\n    mapping(address=>uint128_optional) missingReferenceToIndex;\n    address[] public missingReferences;\n    mapping(address=>ReferenceInfo) addressToReferenceInfo;\n    mapping(address=>ReferenceStats) referenceStatsByAuthor;\n    uint256 public approvedReferences;\n    uint256 public totalReferenceCount;\n\n    address[] contributors;\n    mapping(address=>uint128) public contributorToBountyDividend;\n    uint128 public contributorBountyDivisor;\n    mapping(address=>uint256) public addressToAmountWithdrawn;\n    uint256 amountTransferredToReferences;\n    uint256 timeSubmitted;\n    uint256 timeUpdated;\n    bool public isPublic;\n\n    struct ReferenceInfo\n    {\n        uint32 index;\n        bool exists;\n        bool approved;\n        bool flagged;\n        uint128 negativeReputationAffect;\n        uint128 positiveReputationAffect;\n        uint128 authorReputation;\n    }\n\n    struct ReferenceStats\n    {\n        uint32 numberMissing;\n        uint32 numberApproved;\n    }\n\n    struct uint128_optional\n    {\n        bool exists;\n        uint128 value;\n    }\n\n    modifier onlyPeer()\n    {\n        require(IMatryxPlatform(platformAddress).isPeer(msg.sender));\n        _;\n    }\n\n    function cleanAuthorTrust(address _referenceAuthor, address _reference) internal\n    {\n        // If there are no more approved or flagged references by this author,\n        // remove their influence over our reputation (subtract their reputation from\n        // this submission's total possible trust value)\n        uint128 numberApprovedOrMissing = uint128(referenceStatsByAuthor[_referenceAuthor].numberApproved).add(uint128(referenceStatsByAuthor[_referenceAuthor].numberMissing));\n        if(numberApprovedOrMissing == 0)\n        {\n            totalPossibleTrust = totalPossibleTrust.sub(addressToReferenceInfo[_reference].authorReputation);\n            addressToReferenceInfo[_reference].authorReputation = 0;\n        }\n    }\n\n    /// @dev Add a missing reference to a submission (callable only by submission's owner).\n    /// @param _reference Address of additional reference to include.\n    function addReference(address _reference) public onlyPeer\n    {\n        require(addressToReferenceInfo[_reference].exists == false);\n        IMatryxPlatform(platformAddress).handleReferenceRequestForSubmission(_reference);\n        references.push(_reference);\n        addressToReferenceInfo[_reference].index = uint32(references.length-1);\n        addressToReferenceInfo[_reference].exists = true;\n\n        // We know that the parameter is a valid submission\n        // as deemed by the platform. Therefore we're able to\n        // get its author without worrying that we don't\n        // know what code we're calling.\n        if(addressToReferenceInfo[_reference].flagged)\n        {\n            address referenceAuthor = IMatryxSubmission(_reference).getAuthor();\n            // If this testing session fails, the below line is the culprit.\n            IMatryxPeer(referenceAuthor).removeMissingReferenceFlag(this, _reference);\n            cleanAuthorTrust(referenceAuthor, _reference);\n        }\n    }\n\n    /// @dev Remove an erroneous reference to a submission (callable only by submission's owner).\n    /// @param _reference Address of reference to remove.\n    function removeReference(address _reference) public onlyPeer\n    {\n        require(addressToReferenceInfo[_reference].exists == true);\n        IMatryxPlatform(platformAddress).handleCancelledReferenceRequestForSubmission(_reference);\n        // We know that the parameter is a valid submission\n        // as deemed by the platform. Therefore we're able to\n        // call getAuthor without worrying that we don't\n        // know what code we're calling.\n        if(addressToReferenceInfo[_reference].approved)\n        {\n            address referenceAuthor = IMatryxSubmission(_reference).getAuthor();\n            IMatryxPeer(referenceAuthor).removeReferenceApproval(this, _reference);\n            cleanAuthorTrust(referenceAuthor, _reference);\n        }\n\n        uint256 referenceIndex = addressToReferenceInfo[_reference].index;\n        delete references[referenceIndex];\n        delete addressToReferenceInfo[_reference];\n    }\n\n    /// @dev Called by the owner of _reference when this submission is approved to list _reference\n    /// as a reference.\n    /// _reference Reference being approved by msg.sender.\n    function approveReference(address _reference) public onlyPeer\n    {\n        require(addressToReferenceInfo[_reference].exists == true);\n        require(addressToReferenceInfo[_reference].approved == false);\n\n        // Update state variables regarding the approved reference\n        approvedReferences = approvedReferences.add(1);\n        addressToReferenceInfo[_reference].approved = true;\n        if(missingReferenceToIndex[_reference].exists)\n        {\n            delete missingReferences[missingReferenceToIndex[_reference].value];\n        }\n\n        // Update submission reputation variables\n        IMatryxPeer peer = IMatryxPeer(msg.sender);\n        uint128 peersReputation = peer.getReputation();\n        uint128 originalTrust = approvalTrust;\n        \n        if(referenceStatsByAuthor[msg.sender].numberApproved == 0)\n        {\n            approvingPeers.push(msg.sender);\n        }\n        else\n        {\n            approvalTrust = approvalTrust.sub(authorToApprovalTrustGiven[msg.sender]);\n            totalPossibleTrust = totalPossibleTrust.sub(addressToReferenceInfo[_reference].authorReputation);\n        }\n\n        referenceStatsByAuthor[msg.sender].numberApproved = uint32(uint128(referenceStatsByAuthor[msg.sender].numberApproved).add(1));\n\n        uint128 normalizedProportionOfReferenceApprovals = peer.getApprovedReferenceProportion(this);\n        uint128 trustToAdd = peersReputation.mul(normalizedProportionOfReferenceApprovals);\n        trustToAdd = trustToAdd.div(1*10**18);\n        authorToApprovalTrustGiven[msg.sender] = trustToAdd;\n        approvalTrust = approvalTrust.add(trustToAdd);\n        addressToReferenceInfo[_reference].authorReputation = peersReputation;\n        totalPossibleTrust = totalPossibleTrust.add(peersReputation);\n        // Store the difference in reputation that approving this reference caused to this submission.\n        // We may need this value if this approval is ever revoked by the trust-lending peer.\n        addressToReferenceInfo[_reference].positiveReputationAffect = approvalTrust.sub(originalTrust);\n    }\n\n    /// @dev   Called by the owner of the _reference to remove their approval of a reference\n    ///        within this submission.\n    /// @param _reference Reference that peer is revoking the approval of to be included\n    ///        in this submission.\n    function removeReferenceApproval(address _reference) public onlyPeer\n    {\n        require(addressToReferenceInfo[_reference].approved == true);\n\n        approvedReferences = approvedReferences.sub(1);\n        addressToReferenceInfo[_reference].approved = false;\n\n        if(addressToReferenceInfo[_reference].flagged)\n        {\n            // TODO: TEST THIS THOROUGHLY.\n            missingReferences[missingReferenceToIndex[_reference].value] = _reference;\n        }\n\n        referenceStatsByAuthor[msg.sender].numberApproved = uint32(uint128(referenceStatsByAuthor[msg.sender].numberApproved).sub(1));\n\n        approvalTrust = approvalTrust.sub(addressToReferenceInfo[_reference].positiveReputationAffect);\n        authorToApprovalTrustGiven[msg.sender] = authorToApprovalTrustGiven[msg.sender].sub(addressToReferenceInfo[_reference].positiveReputationAffect);\n    }\n\n    /// @dev    Called by the owner of _reference when this submission does not list _reference\n    ///         as a reference.\n    /// @param  _reference Missing reference in this submission.\n    function flagMissingReference(address _reference) public onlyPeer\n    {\n        require(addressToReferenceInfo[_reference].exists == false);\n        require(addressToReferenceInfo[_reference].flagged == false);\n\n        // Update state variables regarding the missing reference\n        missingReferences.push(_reference);\n        missingReferenceToIndex[_reference] = uint128_optional(true, uint128(missingReferences.length)-1);\n        addressToReferenceInfo[_reference].flagged = true;\n        \n        // Update submission reputation state variables\n        IMatryxPeer peer = IMatryxPeer(msg.sender);\n        uint128 peersReputation = peer.getReputation();\n        uint128 originalTrust = approvalTrust;\n\n        if(referenceStatsByAuthor[msg.sender].numberMissing == 0)\n        {\n            approvingPeers.push(msg.sender);\n        }\n        else\n        {\n            approvalTrust = approvalTrust.sub(authorToApprovalTrustGiven[msg.sender]);\n            totalPossibleTrust = totalPossibleTrust.sub(addressToReferenceInfo[_reference].authorReputation);\n        }\n\n        referenceStatsByAuthor[msg.sender].numberMissing = uint32(uint128(referenceStatsByAuthor[msg.sender].numberMissing).add(1));\n\n        uint128 normalizedProportionOfReferenceApprovals = peer.getApprovedReferenceProportion(this);\n        uint128 trustToAdd = peersReputation.mul(normalizedProportionOfReferenceApprovals);\n        trustToAdd = trustToAdd.div(1*10**18);\n        authorToApprovalTrustGiven[msg.sender] = trustToAdd;\n        approvalTrust = approvalTrust.add(trustToAdd);\n        addressToReferenceInfo[_reference].authorReputation = peersReputation;\n        totalPossibleTrust = totalPossibleTrust.add(peersReputation);\n        // Store the difference in reputation that flagging this reference caused to this submission.\n        // We may need this value if this flag is ever revoked by the trust-detracting peer.\n        addressToReferenceInfo[_reference].negativeReputationAffect = originalTrust.sub(approvalTrust);\n\n        totalReferenceCount = totalReferenceCount.add(1);\n    }\n\n    /// @dev    Called by the owner of _reference to remove a missing reference flag placed on a reference\n    ///         as missing.\n    /// @param _reference Reference previously marked by peer as missing.\n    function removeMissingReferenceFlag(address _reference) public onlyPeer\n    {\n        //Ensure that this reference was previously flagged as missing (MatryxSubmission)\n        require(addressToReferenceInfo[_reference].flagged == true);\n\n        missingReferenceToIndex[_reference].exists = false;\n        addressToReferenceInfo[_reference].flagged = false;\n        delete missingReferences[missingReferenceToIndex[_reference].value];\n\n        referenceStatsByAuthor[msg.sender].numberMissing = uint32(uint128(referenceStatsByAuthor[msg.sender].numberMissing).sub(1));\n        \n        approvalTrust = approvalTrust.add(addressToReferenceInfo[_reference].negativeReputationAffect);\n        authorToApprovalTrustGiven[msg.sender] = authorToApprovalTrustGiven[msg.sender].add(addressToReferenceInfo[_reference].negativeReputationAffect);\n    }\n}",
  "sourcePath": "/Users/maxhoward/Desktop/Ethereum/Development/Matryx/Projects/MatryxPlatform/contracts/reputation/SubmissionTrust.sol",
  "compiler": {
    "name": "solc",
    "version": "0.4.24+commit.e67f0147.Emscripten.clang"
  },
  "schemaVersion": "2.0.0",
  "updatedAt": "2018-07-12T19:23:06.747Z"
}