{
  "contractName": "SubmissionTrust",
  "abi": [
    {
      "constant": true,
      "inputs": [],
      "name": "approvedReferences",
      "outputs": [
        {
          "name": "",
          "type": "uint256"
        }
      ],
      "payable": false,
      "stateMutability": "view",
      "type": "function"
    },
    {
      "constant": true,
      "inputs": [
        {
          "name": "_sender",
          "type": "address"
        }
      ],
      "name": "isOwner",
      "outputs": [
        {
          "name": "_isOwner",
          "type": "bool"
        }
      ],
      "payable": false,
      "stateMutability": "view",
      "type": "function"
    },
    {
      "constant": true,
      "inputs": [],
      "name": "approvalTrust",
      "outputs": [
        {
          "name": "",
          "type": "uint128"
        }
      ],
      "payable": false,
      "stateMutability": "view",
      "type": "function"
    },
    {
      "constant": true,
      "inputs": [
        {
          "name": "",
          "type": "uint256"
        }
      ],
      "name": "approvingPeers",
      "outputs": [
        {
          "name": "",
          "type": "address"
        }
      ],
      "payable": false,
      "stateMutability": "view",
      "type": "function"
    },
    {
      "constant": true,
      "inputs": [],
      "name": "getOwner",
      "outputs": [
        {
          "name": "_owner",
          "type": "address"
        }
      ],
      "payable": false,
      "stateMutability": "view",
      "type": "function"
    },
    {
      "constant": true,
      "inputs": [],
      "name": "owner",
      "outputs": [
        {
          "name": "",
          "type": "address"
        }
      ],
      "payable": false,
      "stateMutability": "view",
      "type": "function"
    },
    {
      "constant": true,
      "inputs": [
        {
          "name": "",
          "type": "uint256"
        }
      ],
      "name": "missingReferences",
      "outputs": [
        {
          "name": "",
          "type": "address"
        }
      ],
      "payable": false,
      "stateMutability": "view",
      "type": "function"
    },
    {
      "constant": true,
      "inputs": [],
      "name": "publicallyAccessibleDuringTournament",
      "outputs": [
        {
          "name": "",
          "type": "bool"
        }
      ],
      "payable": false,
      "stateMutability": "view",
      "type": "function"
    },
    {
      "constant": true,
      "inputs": [],
      "name": "totalReferenceCount",
      "outputs": [
        {
          "name": "",
          "type": "uint256"
        }
      ],
      "payable": false,
      "stateMutability": "view",
      "type": "function"
    },
    {
      "constant": true,
      "inputs": [],
      "name": "totalPossibleTrust",
      "outputs": [
        {
          "name": "",
          "type": "uint256"
        }
      ],
      "payable": false,
      "stateMutability": "view",
      "type": "function"
    },
    {
      "constant": false,
      "inputs": [
        {
          "name": "newOwner",
          "type": "address"
        }
      ],
      "name": "transferOwnership",
      "outputs": [],
      "payable": false,
      "stateMutability": "nonpayable",
      "type": "function"
    },
    {
      "constant": false,
      "inputs": [
        {
          "name": "_reference",
          "type": "address"
        }
      ],
      "name": "addReference",
      "outputs": [],
      "payable": false,
      "stateMutability": "nonpayable",
      "type": "function"
    },
    {
      "constant": false,
      "inputs": [
        {
          "name": "_reference",
          "type": "address"
        }
      ],
      "name": "removeReference",
      "outputs": [],
      "payable": false,
      "stateMutability": "nonpayable",
      "type": "function"
    },
    {
      "constant": false,
      "inputs": [
        {
          "name": "_reference",
          "type": "address"
        }
      ],
      "name": "approveReference",
      "outputs": [],
      "payable": false,
      "stateMutability": "nonpayable",
      "type": "function"
    },
    {
      "constant": false,
      "inputs": [
        {
          "name": "_reference",
          "type": "address"
        }
      ],
      "name": "removeReferenceApproval",
      "outputs": [],
      "payable": false,
      "stateMutability": "nonpayable",
      "type": "function"
    },
    {
      "constant": false,
      "inputs": [
        {
          "name": "_reference",
          "type": "address"
        }
      ],
      "name": "flagMissingReference",
      "outputs": [],
      "payable": false,
      "stateMutability": "nonpayable",
      "type": "function"
    },
    {
      "constant": false,
      "inputs": [
        {
          "name": "_reference",
          "type": "address"
        }
      ],
      "name": "removeMissingReferenceFlag",
      "outputs": [],
      "payable": false,
      "stateMutability": "nonpayable",
      "type": "function"
    }
  ],
  "bytecode": "0x606060405260008054600160a060020a033316600160a060020a0319909116179055611ed8806100306000396000f3006060604052600436106100f05763ffffffff7c01000000000000000000000000000000000000000000000000000000006000350416630cbfdb2d81146100f55780630fb3395c146101235780631abaf3fc1461014f57806323bab50b146101745780632f54bf6e146101a057806332c9c9d3146101e057806382966f8b1461020c5780638905458314610244578063893d20e8146102835780638da5cb5b146102965780639c1b92a1146102a9578063ac260ba0146102bf578063c8656978146102d2578063e4e3e83a146102e5578063e7139ec014610311578063e9946c231461033d578063f2fde38b14610350575b600080fd5b341561010057600080fd5b61012173ffffffffffffffffffffffffffffffffffffffff6004351661037c565b005b341561012e57600080fd5b61012173ffffffffffffffffffffffffffffffffffffffff600435166105da565b341561015a57600080fd5b6101626108b5565b60405190815260200160405180910390f35b341561017f57600080fd5b61012173ffffffffffffffffffffffffffffffffffffffff600435166108bb565b34156101ab57600080fd5b6101cc73ffffffffffffffffffffffffffffffffffffffff60043516610bc4565b604051901515815260200160405180910390f35b34156101eb57600080fd5b61012173ffffffffffffffffffffffffffffffffffffffff60043516610be5565b341561021757600080fd5b61021f61127f565b6040516fffffffffffffffffffffffffffffffff909116815260200160405180910390f35b341561024f57600080fd5b61025a600435611297565b60405173ffffffffffffffffffffffffffffffffffffffff909116815260200160405180910390f35b341561028e57600080fd5b61025a6112cc565b34156102a157600080fd5b61025a6112e9565b34156102b457600080fd5b61025a600435611305565b34156102ca57600080fd5b6101cc611313565b34156102dd57600080fd5b61016261131c565b34156102f057600080fd5b61012173ffffffffffffffffffffffffffffffffffffffff60043516611322565b341561031c57600080fd5b61012173ffffffffffffffffffffffffffffffffffffffff60043516611582565b341561034857600080fd5b610162611bbd565b341561035b57600080fd5b61012173ffffffffffffffffffffffffffffffffffffffff60043516611bc3565b73ffffffffffffffffffffffffffffffffffffffff81166000908152600e60205260409020546601000000000000900460ff1615156001146103bd57600080fd5b73ffffffffffffffffffffffffffffffffffffffff81166000908152600c60208181526040808420805460ff19168155600e83529320805466ff000000000000191690555254600d8054909161010090046fffffffffffffffffffffffffffffffff1690811061042957fe5b60009182526020808320909101805473ffffffffffffffffffffffffffffffffffffffff191690553373ffffffffffffffffffffffffffffffffffffffff168252600f905260409020546104899063ffffffff90811690600190611c4916565b3373ffffffffffffffffffffffffffffffffffffffff9081166000908152600f60209081526040808320805463ffffffff191663ffffffff9687161790559285168252600e90522054600954610503926fffffffffffffffffffffffffffffffff91821692670100000000000000900490911690611c7016565b600980546fffffffffffffffffffffffffffffffff19166fffffffffffffffffffffffffffffffff92831617905573ffffffffffffffffffffffffffffffffffffffff8281166000908152600e602090815260408083205433909416835260089091529020546105829290811691670100000000000000900416611c70565b3373ffffffffffffffffffffffffffffffffffffffff16600090815260086020526040902080546fffffffffffffffffffffffffffffffff19166fffffffffffffffffffffffffffffffff9290921691909117905550565b73ffffffffffffffffffffffffffffffffffffffff81166000908152600e6020526040812054640100000000900460ff161561061557600080fd5b60015473ffffffffffffffffffffffffffffffffffffffff1663b2fad554836000604051602001526040517c010000000000000000000000000000000000000000000000000000000063ffffffff841602815273ffffffffffffffffffffffffffffffffffffffff9091166004820152602401602060405180830381600087803b15156106a157600080fd5b6102c65a03f115156106b257600080fd5b5050506040518051505060078054600181016106ce8382611e6f565b506000918252602080832091909101805473ffffffffffffffffffffffffffffffffffffffff861673ffffffffffffffffffffffffffffffffffffffff199091168117909155600754908352600e909152604090912080547fffffffffffffffffffffffffffffffffffffffffffffffffffffff00ffffffff63ffffffff6000199094019390931663ffffffff19909116179190911664010000000017908190556601000000000000900460ff16156108a7578173ffffffffffffffffffffffffffffffffffffffff1663a5faa1256000604051602001526040518163ffffffff167c0100000000000000000000000000000000000000000000000000000000028152600401602060405180830381600087803b15156107ed57600080fd5b6102c65a03f115156107fe57600080fd5b505050604051805191505073ffffffffffffffffffffffffffffffffffffffff811663268c7dcb30846040517c010000000000000000000000000000000000000000000000000000000063ffffffff851602815273ffffffffffffffffffffffffffffffffffffffff928316600482015291166024820152604401600060405180830381600087803b151561089257600080fd5b6102c65a03f115156108a357600080fd5b5050505b6108b18183611c9b565b5050565b60105481565b73ffffffffffffffffffffffffffffffffffffffff81166000908152600e60205260408120548190640100000000900460ff1615156001146108fc57600080fd5b60015473ffffffffffffffffffffffffffffffffffffffff1663fb5032d6846000604051602001526040517c010000000000000000000000000000000000000000000000000000000063ffffffff841602815273ffffffffffffffffffffffffffffffffffffffff9091166004820152602401602060405180830381600087803b151561098857600080fd5b6102c65a03f1151561099957600080fd5b5050506040518051505073ffffffffffffffffffffffffffffffffffffffff831663a5faa1256000604051602001526040518163ffffffff167c0100000000000000000000000000000000000000000000000000000000028152600401602060405180830381600087803b1515610a0f57600080fd5b6102c65a03f11515610a2057600080fd5b505050604051805173ffffffffffffffffffffffffffffffffffffffff85166000908152600e602052604090205490935065010000000000900460ff16159050610b02578173ffffffffffffffffffffffffffffffffffffffff1663c464e29430856040517c010000000000000000000000000000000000000000000000000000000063ffffffff851602815273ffffffffffffffffffffffffffffffffffffffff928316600482015291166024820152604401600060405180830381600087803b1515610aed57600080fd5b6102c65a03f11515610afe57600080fd5b5050505b610b0c8284611c9b565b5073ffffffffffffffffffffffffffffffffffffffff82166000908152600e60205260409020546007805463ffffffff9092169182908110610b4a57fe5b60009182526020808320909101805473ffffffffffffffffffffffffffffffffffffffff1916905573ffffffffffffffffffffffffffffffffffffffff949094168152600e90935250506040812080547fffffffffffffffffff000000000000000000000000000000000000000000000016815560010155565b60005473ffffffffffffffffffffffffffffffffffffffff91821691161490565b73ffffffffffffffffffffffffffffffffffffffff81166000908152600e60205260408120548190819081908190640100000000900460ff1615610c2857600080fd5b73ffffffffffffffffffffffffffffffffffffffff86166000908152600e60205260409020546601000000000000900460ff1615610c6557600080fd5b600d805460018101610c778382611e6f565b506000918252602090912001805473ffffffffffffffffffffffffffffffffffffffff191673ffffffffffffffffffffffffffffffffffffffff881617905560408051908101604090815260018252600d54600019016fffffffffffffffffffffffffffffffff1660208084019190915273ffffffffffffffffffffffffffffffffffffffff89166000908152600c909152208151815460ff1916901515178155602082015181546fffffffffffffffffffffffffffffffff91909116610100027fffffffffffffffffffffffffffffff00000000000000000000000000000000ff9091161790555073ffffffffffffffffffffffffffffffffffffffff8087166000908152600e6020526040808220805466ff000000000000191666010000000000001790553397509187169163ffe6a18e919051602001526040518163ffffffff167c0100000000000000000000000000000000000000000000000000000000028152600401602060405180830381600087803b1515610df857600080fd5b6102c65a03f11515610e0957600080fd5b505050604051805160095473ffffffffffffffffffffffffffffffffffffffff33166000908152600f60205260409020549196506fffffffffffffffffffffffffffffffff16945063ffffffff1615159050610eb557600b805460018101610e718382611e6f565b506000918252602090912001805473ffffffffffffffffffffffffffffffffffffffff19163373ffffffffffffffffffffffffffffffffffffffff16179055610f81565b73ffffffffffffffffffffffffffffffffffffffff3316600090815260086020526040902054600954610f03916fffffffffffffffffffffffffffffffff918216911663ffffffff611c4916565b600980546fffffffffffffffffffffffffffffffff19166fffffffffffffffffffffffffffffffff92831617905573ffffffffffffffffffffffffffffffffffffffff87166000908152600e6020526040902060010154600a54610f7d929091700100000000000000000000000000000000900416611d9b565b600a555b73ffffffffffffffffffffffffffffffffffffffff33166000908152600f6020526040902054610fbd9063ffffffff90811690600190611c7016565b3373ffffffffffffffffffffffffffffffffffffffff9081166000908152600f6020526040808220805463ffffffff191663ffffffff95909516949094179093559087169163fa6daea791309151602001526040517c010000000000000000000000000000000000000000000000000000000063ffffffff841602815273ffffffffffffffffffffffffffffffffffffffff9091166004820152602401602060405180830381600087803b151561107357600080fd5b6102c65a03f1151561108457600080fd5b505050604051805192506110b290506fffffffffffffffffffffffffffffffff85168363ffffffff611da716565b90506110de6fffffffffffffffffffffffffffffffff8216670de0b6b3a764000063ffffffff611e2516565b3373ffffffffffffffffffffffffffffffffffffffff16600090815260086020526040902080546fffffffffffffffffffffffffffffffff19166fffffffffffffffffffffffffffffffff83811691909117909155600954919250611144911682611c70565b600980546fffffffffffffffffffffffffffffffff19166fffffffffffffffffffffffffffffffff92831617905573ffffffffffffffffffffffffffffffffffffffff87166000908152600e6020526040902060010180548216700100000000000000000000000000000000928716928302179055600a546111c591611e60565b600a556009546111f0906fffffffffffffffffffffffffffffffff858116911663ffffffff611c4916565b73ffffffffffffffffffffffffffffffffffffffff87166000908152600e6020526040902080546fffffffffffffffffffffffffffffffff92909216670100000000000000027fffffffffffffffffff00000000000000000000000000000000ffffffffffffff90921691909117905560115461127490600163ffffffff611e6016565b601155505050505050565b6009546fffffffffffffffffffffffffffffffff1681565b600b8054829081106112a557fe5b60009182526020909120015473ffffffffffffffffffffffffffffffffffffffff16905081565b60005473ffffffffffffffffffffffffffffffffffffffff165b90565b60005473ffffffffffffffffffffffffffffffffffffffff1681565b600d8054829081106112a557fe5b60155460ff1681565b60115481565b73ffffffffffffffffffffffffffffffffffffffff81166000908152600e60205260409020805465ff000000000019166501000000000017905560105461137090600163ffffffff611d9b16565b60105573ffffffffffffffffffffffffffffffffffffffff81166000908152600e60205260409020805465ff00000000001916908190556601000000000000900460ff16156114495773ffffffffffffffffffffffffffffffffffffffff81166000908152600c6020526040902054600d8054839261010090046fffffffffffffffffffffffffffffffff1690811061140557fe5b6000918252602090912001805473ffffffffffffffffffffffffffffffffffffffff191673ffffffffffffffffffffffffffffffffffffffff929092169190911790555b73ffffffffffffffffffffffffffffffffffffffff33166000908152600f602052604090205461148d9063ffffffff640100000000909104811690600190611c4916565b3373ffffffffffffffffffffffffffffffffffffffff9081166000908152600f60209081526040808320805467ffffffff00000000191664010000000063ffffffff978816021790559285168252600e9052206001015460095461150b926fffffffffffffffffffffffffffffffff918216929190911690611c4916565b600980546fffffffffffffffffffffffffffffffff19166fffffffffffffffffffffffffffffffff92831617905573ffffffffffffffffffffffffffffffffffffffff8281166000908152600e60209081526040808320600101543390941683526008909152902054610582929081169116611c49565b73ffffffffffffffffffffffffffffffffffffffff81166000908152600e60205260408120548190819081908190640100000000900460ff1615156001146115c957600080fd5b73ffffffffffffffffffffffffffffffffffffffff86166000908152600e602052604090205465010000000000900460ff161561160557600080fd5b60105461161990600163ffffffff611e6016565b60105573ffffffffffffffffffffffffffffffffffffffff86166000908152600e60209081526040808320805465ff0000000000191665010000000000179055600c90915290205460ff16156116dc5773ffffffffffffffffffffffffffffffffffffffff86166000908152600c6020526040902054600d8054909161010090046fffffffffffffffffffffffffffffffff169081106116b557fe5b6000918252602090912001805473ffffffffffffffffffffffffffffffffffffffff191690555b3394508473ffffffffffffffffffffffffffffffffffffffff1663ffe6a18e6000604051602001526040518163ffffffff167c0100000000000000000000000000000000000000000000000000000000028152600401602060405180830381600087803b151561174b57600080fd5b6102c65a03f1151561175c57600080fd5b50505060405180516009543373ffffffffffffffffffffffffffffffffffffffff166000908152600f60205260409020549196506fffffffffffffffffffffffffffffffff169450640100000000900463ffffffff161515905061181057600b8054600181016117cc8382611e6f565b506000918252602090912001805473ffffffffffffffffffffffffffffffffffffffff19163373ffffffffffffffffffffffffffffffffffffffff161790556118dc565b73ffffffffffffffffffffffffffffffffffffffff331660009081526008602052604090205460095461185e916fffffffffffffffffffffffffffffffff918216911663ffffffff611c4916565b600980546fffffffffffffffffffffffffffffffff19166fffffffffffffffffffffffffffffffff92831617905573ffffffffffffffffffffffffffffffffffffffff87166000908152600e6020526040902060010154600a546118d8929091700100000000000000000000000000000000900416611d9b565b600a555b73ffffffffffffffffffffffffffffffffffffffff33166000908152600f60205260409020546119209063ffffffff640100000000909104811690600190611c7016565b73ffffffffffffffffffffffffffffffffffffffff3381166000908152600f6020526040808220805463ffffffff959095166401000000000267ffffffff0000000019909516949094179093559087169163fa6daea791309151602001526040517c010000000000000000000000000000000000000000000000000000000063ffffffff841602815273ffffffffffffffffffffffffffffffffffffffff9091166004820152602401602060405180830381600087803b15156119e257600080fd5b6102c65a03f115156119f357600080fd5b50505060405180519250611a2190506fffffffffffffffffffffffffffffffff85168363ffffffff611da716565b9050611a4d6fffffffffffffffffffffffffffffffff8216670de0b6b3a764000063ffffffff611e2516565b3373ffffffffffffffffffffffffffffffffffffffff16600090815260086020526040902080546fffffffffffffffffffffffffffffffff19166fffffffffffffffffffffffffffffffff83811691909117909155600954919250611ab3911682611c70565b600980546fffffffffffffffffffffffffffffffff19166fffffffffffffffffffffffffffffffff92831617905573ffffffffffffffffffffffffffffffffffffffff87166000908152600e6020526040902060010180548216700100000000000000000000000000000000928716928302179055600a54611b3491611e60565b600a55600954611b5c906fffffffffffffffffffffffffffffffff168463ffffffff611c4916565b73ffffffffffffffffffffffffffffffffffffffff969096166000908152600e6020526040902060010180546fffffffffffffffffffffffffffffffff19166fffffffffffffffffffffffffffffffff909716969096179095555050505050565b600a5481565b6000543373ffffffffffffffffffffffffffffffffffffffff908116911614611beb57600080fd5b73ffffffffffffffffffffffffffffffffffffffff81161515611c0d57600080fd5b6000805473ffffffffffffffffffffffffffffffffffffffff191673ffffffffffffffffffffffffffffffffffffffff92909216919091179055565b60006fffffffffffffffffffffffffffffffff8084169083161115611c6a57fe5b50900390565b60008282016fffffffffffffffffffffffffffffffff8085169082161015611c9457fe5b9392505050565b73ffffffffffffffffffffffffffffffffffffffff82166000908152600f6020526040812054611cde9063ffffffff6401000000008204811691811690611c7016565b90506fffffffffffffffffffffffffffffffff81161515611d965773ffffffffffffffffffffffffffffffffffffffff82166000908152600e6020526040902060010154600a54611d549170010000000000000000000000000000000090046fffffffffffffffffffffffffffffffff16611d9b565b600a5573ffffffffffffffffffffffffffffffffffffffff82166000908152600e6020526040902060010180546fffffffffffffffffffffffffffffffff1690555b505050565b600082821115611c6a57fe5b60008282026fffffffffffffffffffffffffffffffff84161580611e1d5750826fffffffffffffffffffffffffffffffff16846fffffffffffffffffffffffffffffffff16826fffffffffffffffffffffffffffffffff16811515611e0857fe5b046fffffffffffffffffffffffffffffffff16145b1515611c9457fe5b600080826fffffffffffffffffffffffffffffffff16846fffffffffffffffffffffffffffffffff16811515611e5757fe5b04949350505050565b600082820183811015611c9457fe5b815481835581811511611d9657600083815260209020611d969181019083016112e691905b80821115611ea85760008155600101611e94565b50905600a165627a7a7230582073df72d256ae6ad741ec6f6454fd0cb24b158cb6465688c5480b3b2be7e2e6ad0029",
  "source": "pragma solidity ^0.4.18;\n\nimport '../../libraries/math/SafeMath.sol';\nimport '../../libraries/math/SafeMath128.sol';\nimport '../../interfaces/IMatryxToken.sol';\nimport '../../interfaces/IMatryxPeer.sol';\nimport '../../interfaces/IMatryxPlatform.sol';\nimport '../../interfaces/IMatryxTournament.sol';\nimport '../../interfaces/IMatryxRound.sol';\nimport '../../interfaces/IMatryxSubmission.sol';\nimport '../Ownable.sol';\n\ncontract SubmissionTrust is Ownable\n{\n\tusing SafeMath for uint256;\n\tusing SafeMath128 for uint128;\n\n\t// Parent identification\n\taddress private platformAddress;\n\taddress private tournamentAddress;\n\taddress private roundAddress;\n\t\n\t// Submission\n\tstring title;\n\taddress author;\n\tbytes32 externalAddress;\n\taddress[] references;\n\n\t// Tracks the normalized trust gained through peers approving this submission\n\tmapping(address=>uint128) authorToApprovalTrustGiven;\n\tuint128 public approvalTrust;\n\tuint256 public totalPossibleTrust;\n\taddress[] public approvingPeers;\n\n\t// Tracks the proportion of references this submission has approved\n\tmapping(address=>uint128_optional) missingReferenceToIndex;\n\taddress[] public missingReferences;\n\tmapping(address=>ReferenceInfo) addressToReferenceInfo;\n\tmapping(address=>ReferenceStats) referenceStatsByAuthor;\n\tuint256 public approvedReferences;\n\tuint256 public totalReferenceCount;\n\n\taddress[] contributors;\n\tuint256 timeSubmitted;\n\tuint256 timeUpdated;\n\tbool public publicallyAccessibleDuringTournament;\n\n\tstruct ReferenceInfo\n\t{\n\t\tuint32 index;\n\t\tbool exists;\n\t\tbool approved;\n\t\tbool flagged;\n\t\tuint128 negativeReputationAffect;\n\t\tuint128 positiveReputationAffect;\n\t\tuint128 authorReputation;\n\t}\n\n\tstruct ReferenceStats\n\t{\n\t\tuint32 numberMissing;\n\t\tuint32 numberApproved;\n\t}\n\n\tstruct uint128_optional\n\t{\n\t\tbool exists;\n\t\tuint128 value;\n\t}\n\n\tfunction cleanAuthorTrust(address _referenceAuthor, address _reference) internal\n\t{\n\t\t// If there are no more approved or flagged references by this author,\n\t\t// remove their influence over our reputation (subtract their reputation from\n\t\t// this submission's total possible trust value)\n\t\tuint128 numberApprovedOrMissing = uint128(referenceStatsByAuthor[_referenceAuthor].numberApproved).add(uint128(referenceStatsByAuthor[_referenceAuthor].numberMissing));\n\t\tif(numberApprovedOrMissing == 0)\n\t\t{\n\t\t\ttotalPossibleTrust = totalPossibleTrust.sub(addressToReferenceInfo[_reference].authorReputation);\n\t\t\taddressToReferenceInfo[_reference].authorReputation = 0;\n\t\t}\n\t}\n\n\t/// @dev Add a missing reference to a submission (callable only by submission's owner).\n    /// @param _reference Address of additional reference to include.\n\tfunction addReference(address _reference) public \n\t{\n\t\trequire(addressToReferenceInfo[_reference].exists == false);\n\t\tIMatryxPlatform(platformAddress).handleReferenceRequestForSubmission(_reference);\n\t\treferences.push(_reference);\n\t\taddressToReferenceInfo[_reference].index = uint32(references.length-1);\n\t\taddressToReferenceInfo[_reference].exists = true;\n\n\t\t// We know that the parameter is a valid submission\n\t\t// as deemed by the platform. Therefore we're able to\n\t\t// get it's author without worrying that we don't\n\t\t// know what code we're calling.\n\t\tif(addressToReferenceInfo[_reference].flagged)\n\t\t{\n\t\t\taddress referenceAuthor = IMatryxSubmission(_reference).getAuthor();\n\t\t\tIMatryxPeer(referenceAuthor).removeMissingReferenceFlag(this, _reference);\n\t\t}\n\n\t\tcleanAuthorTrust(referenceAuthor, _reference);\n\t}\n\n\t/// @dev Remove an erroneous reference to a submission (callable only by submission's owner).\n    /// @param _reference Address of reference to remove.\n\tfunction removeReference(address _reference) public\n\t{\n\t\trequire(addressToReferenceInfo[_reference].exists == true);\n\t\tIMatryxPlatform(platformAddress).handleCancelledReferenceRequestForSubmission(_reference);\n\t\t// We know that the parameter is a valid submission\n\t\t// as deemed by the platform. Therefore we're able to\n\t\t// call getAuthor without worrying that we don't\n\t\t// know what code we're calling.\n\t\taddress referenceAuthor = IMatryxSubmission(_reference).getAuthor();\n\t\tif(addressToReferenceInfo[_reference].approved)\n\t\t{\n\t\t\tIMatryxPeer(referenceAuthor).removeReferenceApproval(this, _reference);\n\t\t}\n\n\t\tcleanAuthorTrust(referenceAuthor, _reference);\n\n\t\tuint256 referenceIndex = addressToReferenceInfo[_reference].index;\n\t\tdelete references[referenceIndex];\n\t\tdelete addressToReferenceInfo[_reference];\n\t}\n\n\t/// @dev Called by the owner of _reference when this submission is approved to list _reference\n\t/// as a reference.\n\t/// _reference Reference being approved by msg.sender.\n\tfunction approveReference(address _reference) public\n\t{\n\t\trequire(addressToReferenceInfo[_reference].exists == true);\n  \t\trequire(addressToReferenceInfo[_reference].approved == false);\n\n  \t\t// Update state variables regarding the approved reference\n  \t\tapprovedReferences = approvedReferences.add(1);\n\t\taddressToReferenceInfo[_reference].approved = true;\n\t\tif(missingReferenceToIndex[_reference].exists)\n\t\t{\n\t\t\tdelete missingReferences[missingReferenceToIndex[_reference].value];\n\t\t}\n\n  \t\t// Update submission reputation variables\n\t\tIMatryxPeer peer = IMatryxPeer(msg.sender);\n\t\tuint128 peersReputation = peer.getReputation();\n\t\tuint128 originalTrust = approvalTrust;\n\t\t\n\t\tif(referenceStatsByAuthor[msg.sender].numberApproved == 0)\n\t\t{\t\n\t\t\tapprovingPeers.push(msg.sender);\n\t\t}\n\t\telse\n\t\t{\n\t\t\tapprovalTrust = approvalTrust.sub(authorToApprovalTrustGiven[msg.sender]);\n\t\t\ttotalPossibleTrust = totalPossibleTrust.sub(addressToReferenceInfo[_reference].authorReputation);\n\t\t}\n\n\t\treferenceStatsByAuthor[msg.sender].numberApproved = uint32(uint128(referenceStatsByAuthor[msg.sender].numberApproved).add(1));\n\n\t\tuint128 normalizedProportionOfReferenceApprovals = peer.getApprovedReferenceProportion(this);\n\t\tuint128 trustToAdd = peersReputation.mul(normalizedProportionOfReferenceApprovals);\n\t\ttrustToAdd = trustToAdd.div(1*10**18);\n\t\tauthorToApprovalTrustGiven[msg.sender] = trustToAdd;\n\t\tapprovalTrust = approvalTrust.add(trustToAdd);\n\t\taddressToReferenceInfo[_reference].authorReputation = peersReputation;\n\t\ttotalPossibleTrust = totalPossibleTrust.add(peersReputation);\n\t\t// Store the difference in reputation that approving this reference caused to this submission.\n\t\t// We may need this value if this approval is ever revoked by the trust-lending peer.\n\t\taddressToReferenceInfo[_reference].positiveReputationAffect = approvalTrust.sub(originalTrust);\n\t}\n\n\t/// @dev \t\t\t  Called by the owner of the _reference to remove their approval of a reference\n\t///\t\t \t\t\t  within this submission.\n\t/// @param _reference Reference that peer is revoking the approval of to be included\n\t///\t\t\t\t\t  in this submission.\n\tfunction removeReferenceApproval(address _reference) public\n\t{\n\t\trequire(addressToReferenceInfo[_reference].approved = true);\n\n\t\tapprovedReferences = approvedReferences.sub(1);\n\t\taddressToReferenceInfo[_reference].approved = false;\n\n\t\tif(addressToReferenceInfo[_reference].flagged)\n\t\t{\n\t\t\t// TODO: TEST THIS THOROUGHLY.\n\t\t\tmissingReferences[missingReferenceToIndex[_reference].value] = _reference;\n\t\t}\n\n\t\treferenceStatsByAuthor[msg.sender].numberApproved = uint32(uint128(referenceStatsByAuthor[msg.sender].numberApproved).sub(1));\n\n\t\tapprovalTrust = approvalTrust.sub(addressToReferenceInfo[_reference].positiveReputationAffect);\n\t\tauthorToApprovalTrustGiven[msg.sender] = authorToApprovalTrustGiven[msg.sender].sub(addressToReferenceInfo[_reference].positiveReputationAffect);\n\t}\n\n\t/// @dev \tCalled by the owner of _reference when this submission does not list _reference\n\t/// \t\tas a reference.\n\t/// @param  _reference Missing reference in this submission.\n\tfunction flagMissingReference(address _reference) public\n\t{\n\t\trequire(addressToReferenceInfo[_reference].exists == false);\n  \t\trequire(addressToReferenceInfo[_reference].flagged == false);\n\n\t\t// Update state variables regarding the missing reference\n\t\tmissingReferences.push(_reference);\n\t\tmissingReferenceToIndex[_reference] = uint128_optional(true, uint128(missingReferences.length)-1);\n\t\taddressToReferenceInfo[_reference].flagged = true;\n\t\t\n\t\t// Update submission reputation state variables\n\t\tIMatryxPeer peer = IMatryxPeer(msg.sender);\n\t\tuint128 peersReputation = peer.getReputation();\n\t\tuint128 originalTrust = approvalTrust;\n\n\t\tif(referenceStatsByAuthor[msg.sender].numberMissing == 0)\n\t\t{\n\t\t\tapprovingPeers.push(msg.sender);\n\t\t}\n\t\telse\n\t\t{\n\t\t\tapprovalTrust = approvalTrust.sub(authorToApprovalTrustGiven[msg.sender]);\n\t\t\ttotalPossibleTrust = totalPossibleTrust.sub(addressToReferenceInfo[_reference].authorReputation);\n\t\t}\n\n\t\treferenceStatsByAuthor[msg.sender].numberMissing = uint32(uint128(referenceStatsByAuthor[msg.sender].numberMissing).add(1));\n\n\t\tuint128 normalizedProportionOfReferenceApprovals = peer.getApprovedReferenceProportion(this);\n\t\tuint128 trustToAdd = peersReputation.mul(normalizedProportionOfReferenceApprovals);\n\t\ttrustToAdd = trustToAdd.div(1*10**18);\n\t\tauthorToApprovalTrustGiven[msg.sender] = trustToAdd;\n\t\tapprovalTrust = approvalTrust.add(trustToAdd);\n\t\taddressToReferenceInfo[_reference].authorReputation = peersReputation;\n\t\ttotalPossibleTrust = totalPossibleTrust.add(peersReputation);\n\t\t// Store the difference in reputation that flagging this reference caused to this submission.\n\t\t// We may need this value if this flag is ever revoked by the trust-detracting peer.\n\t\taddressToReferenceInfo[_reference].negativeReputationAffect = originalTrust.sub(approvalTrust);\n\n\t\ttotalReferenceCount = totalReferenceCount.add(1);\n\t}\n\n\t/// @dev \t\t\t  Called by the owner of _reference to remove a missing reference flag placed on a reference\n\t///\t\t \t\t\t  as missing.\n\t/// @param _reference Reference previously marked by peer as missing.\n\tfunction removeMissingReferenceFlag(address _reference) public\n\t{\n\t\t// TODO: Ensure that this reference was previously flagged as missing (MatryxSubmission)\n\t\trequire(addressToReferenceInfo[_reference].flagged == true);\n\n\t\tmissingReferenceToIndex[_reference].exists = false;\n\t\taddressToReferenceInfo[_reference].flagged = false;\n\t\tdelete missingReferences[missingReferenceToIndex[_reference].value];\n\n\t\treferenceStatsByAuthor[msg.sender].numberMissing = uint32(uint128(referenceStatsByAuthor[msg.sender].numberMissing).sub(1));\n\t\t\n\t\tapprovalTrust = approvalTrust.add(addressToReferenceInfo[_reference].negativeReputationAffect);\n\t\tauthorToApprovalTrustGiven[msg.sender] = authorToApprovalTrustGiven[msg.sender].add(addressToReferenceInfo[_reference].negativeReputationAffect);\n\t}\n}",
  "sourcePath": "/Users/maxhoward/Desktop/Ethereum/Development/Matryx AWS/Projects/matryx-alpha-source/contracts/reputation/SubmissionTrust.sol",
  "compiler": {
    "name": "solc",
    "version": "0.4.19+commit.c4cbbb05.Emscripten.clang"
  },
  "schemaVersion": "2.0.0",
  "updatedAt": "2018-03-29T04:53:06.315Z"
}