{
  "contractName": "SubmissionViewer",
  "abi": [
    {
      "constant": false,
      "inputs": [
        {
          "name": "_name",
          "type": "string"
        },
        {
          "name": "_externalAddress",
          "type": "bytes32"
        },
        {
          "name": "_references",
          "type": "address[]"
        },
        {
          "name": "_contributors",
          "type": "address[]"
        },
        {
          "name": "_timeSubmitted",
          "type": "uint256"
        },
        {
          "name": "_submissionOwner",
          "type": "address"
        }
      ],
      "name": "CallSubmissionCreatedEvent",
      "outputs": [],
      "payable": false,
      "stateMutability": "nonpayable",
      "type": "function"
    },
    {
      "anonymous": false,
      "inputs": [
        {
          "indexed": false,
          "name": "name",
          "type": "string"
        },
        {
          "indexed": false,
          "name": "externalAddress",
          "type": "bytes32"
        },
        {
          "indexed": false,
          "name": "references",
          "type": "address[]"
        },
        {
          "indexed": false,
          "name": "contributors",
          "type": "address[]"
        },
        {
          "indexed": false,
          "name": "timeSubmitted",
          "type": "uint256"
        },
        {
          "indexed": false,
          "name": "submissionOwner",
          "type": "address"
        }
      ],
      "name": "owner",
      "type": "function",
      "constant": true,
      "outputs": [
        {
          "name": "",
          "type": "address"
        }
      ],
      "payable": false,
      "stateMutability": "view"
    },
    {
      "constant": false,
      "inputs": [
        {
          "name": "newOwner",
          "type": "address"
        }
      ],
      "name": "transferOwnership",
      "outputs": [],
      "payable": false,
      "stateMutability": "nonpayable",
      "type": "function"
    },
    {
      "anonymous": false,
      "inputs": [
        {
          "indexed": false,
          "name": "name",
          "type": "string"
        },
        {
          "indexed": false,
          "name": "externalAddress",
          "type": "bytes32"
        },
        {
          "indexed": false,
          "name": "references",
          "type": "address[]"
        },
        {
          "indexed": false,
          "name": "contributors",
          "type": "address[]"
        },
        {
          "indexed": false,
          "name": "timeSubmitted",
          "type": "uint256"
        },
        {
          "indexed": false,
          "name": "submissionOwner",
          "type": "address"
        }
      ],
      "name": "SubmissionCreated",
      "type": "event"
    }
  ],
  "bytecode": "0x6060604052336000806101000a81548173ffffffffffffffffffffffffffffffffffffffff021916908373ffffffffffffffffffffffffffffffffffffffff160217905550610504806100536000396000f300606060405260043610610057576000357c0100000000000000000000000000000000000000000000000000000000900463ffffffff16806345ef21991461005c5780638da5cb5b1461016e578063f2fde38b146101c3575b600080fd5b341561006757600080fd5b61016c600480803590602001908201803590602001908080601f0160208091040260200160405190810160405280939291908181526020018383808284378201915050505050509190803560001916906020019091908035906020019082018035906020019080806020026020016040519081016040528093929190818152602001838360200280828437820191505050505050919080359060200190820180359060200190808060200260200160405190810160405280939291908181526020018383602002808284378201915050505050509190803590602001909190803573ffffffffffffffffffffffffffffffffffffffff169060200190919050506101fc565b005b341561017957600080fd5b6101816103d9565b604051808273ffffffffffffffffffffffffffffffffffffffff1673ffffffffffffffffffffffffffffffffffffffff16815260200191505060405180910390f35b34156101ce57600080fd5b6101fa600480803573ffffffffffffffffffffffffffffffffffffffff169060200190919050506103fe565b005b6000809054906101000a900473ffffffffffffffffffffffffffffffffffffffff1673ffffffffffffffffffffffffffffffffffffffff163373ffffffffffffffffffffffffffffffffffffffff1614151561025757600080fd5b7ffc989a9618eb34fd6e0f6e0058fa2bd0eac01d863f6626a767b4d8ec647c501c8686868686866040518080602001876000191660001916815260200180602001806020018681526020018573ffffffffffffffffffffffffffffffffffffffff1673ffffffffffffffffffffffffffffffffffffffff16815260200184810384528a818151815260200191508051906020019080838360005b8381101561030c5780820151818401526020810190506102f1565b50505050905090810190601f1680156103395780820380516001836020036101000a031916815260200191505b50848103835288818151815260200191508051906020019060200280838360005b8381101561037557808201518184015260208101905061035a565b50505050905001848103825287818151815260200191508051906020019060200280838360005b838110156103b757808201518184015260208101905061039c565b50505050905001995050505050505050505060405180910390a1505050505050565b6000809054906101000a900473ffffffffffffffffffffffffffffffffffffffff1681565b6000809054906101000a900473ffffffffffffffffffffffffffffffffffffffff1673ffffffffffffffffffffffffffffffffffffffff163373ffffffffffffffffffffffffffffffffffffffff1614151561045957600080fd5b600073ffffffffffffffffffffffffffffffffffffffff168173ffffffffffffffffffffffffffffffffffffffff161415151561049557600080fd5b806000806101000a81548173ffffffffffffffffffffffffffffffffffffffff021916908373ffffffffffffffffffffffffffffffffffffffff160217905550505600a165627a7a72305820b5bbad27003b0043d7a76a45b4c91a62b95adfa014c9e0596c302aba44fb8cfb0029",
  "source": "pragma solidity ^0.4.18;\n\n\nimport './Ownable.sol';\n\n// Allows a user to easily view all tournaments\ncontract SubmissionViewer is Ownable{\n\n\t// An event to be fired at the end of every round,\n\t// one time per submission that was created in that round\n\tevent SubmissionCreated(string name, bytes32 externalAddress, address[] references, address[] contributors, uint256 timeSubmitted, address submissionOwner);\n\n\t// Allows another contract to call the SubmissionCreated event\n\tfunction CallSubmissionCreatedEvent(string _name, bytes32 _externalAddress, address[] _references, address[] _contributors, uint256 _timeSubmitted, address _submissionOwner) public onlyOwner\n\t{\n\t\tSubmissionCreated(_name, _externalAddress, _references, _contributors, _timeSubmitted, _submissionOwner);\n\t}\n}",
  "sourcePath": "/Users/maxhoward/Desktop/Ethereum Development/Matryx AWS/Projects/matryx-alpha-source/contracts/SubmissionViewer.sol",
  "compiler": {
    "name": "solc",
    "version": "0.4.18+commit.9cf6e910.Emscripten.clang"
  },
  "schemaVersion": "1.0.1",
  "updatedAt": "2017-12-06T23:42:34.288Z"
}