{
  "contractName": "SubmissionTrust",
  "abi": [
    {
      "constant": true,
      "inputs": [],
      "name": "approvedReferences",
      "outputs": [
        {
          "name": "",
          "type": "uint256"
        }
      ],
      "payable": false,
      "stateMutability": "view",
      "type": "function"
    },
    {
      "constant": true,
      "inputs": [],
      "name": "contributorBountyDivisor",
      "outputs": [
        {
          "name": "",
          "type": "uint128"
        }
      ],
      "payable": false,
      "stateMutability": "view",
      "type": "function"
    },
    {
      "constant": true,
      "inputs": [
        {
          "name": "_sender",
          "type": "address"
        }
      ],
      "name": "isOwner",
      "outputs": [
        {
          "name": "_isOwner",
          "type": "bool"
        }
      ],
      "payable": false,
      "stateMutability": "view",
      "type": "function"
    },
    {
      "constant": true,
      "inputs": [
        {
          "name": "",
          "type": "address"
        }
      ],
      "name": "contributorToBountyDividend",
      "outputs": [
        {
          "name": "",
          "type": "uint128"
        }
      ],
      "payable": false,
      "stateMutability": "view",
      "type": "function"
    },
    {
      "constant": true,
      "inputs": [],
      "name": "approvalTrust",
      "outputs": [
        {
          "name": "",
          "type": "uint128"
        }
      ],
      "payable": false,
      "stateMutability": "view",
      "type": "function"
    },
    {
      "constant": true,
      "inputs": [
        {
          "name": "",
          "type": "uint256"
        }
      ],
      "name": "approvingPeers",
      "outputs": [
        {
          "name": "",
          "type": "address"
        }
      ],
      "payable": false,
      "stateMutability": "view",
      "type": "function"
    },
    {
      "constant": true,
      "inputs": [],
      "name": "getOwner",
      "outputs": [
        {
          "name": "_owner",
          "type": "address"
        }
      ],
      "payable": false,
      "stateMutability": "view",
      "type": "function"
    },
    {
      "constant": true,
      "inputs": [],
      "name": "owner",
      "outputs": [
        {
          "name": "",
          "type": "address"
        }
      ],
      "payable": false,
      "stateMutability": "view",
      "type": "function"
    },
    {
      "constant": true,
      "inputs": [
        {
          "name": "",
          "type": "uint256"
        }
      ],
      "name": "missingReferences",
      "outputs": [
        {
          "name": "",
          "type": "address"
        }
      ],
      "payable": false,
      "stateMutability": "view",
      "type": "function"
    },
    {
      "constant": true,
      "inputs": [],
      "name": "publicallyAccessibleDuringTournament",
      "outputs": [
        {
          "name": "",
          "type": "bool"
        }
      ],
      "payable": false,
      "stateMutability": "view",
      "type": "function"
    },
    {
      "constant": true,
      "inputs": [],
      "name": "totalReferenceCount",
      "outputs": [
        {
          "name": "",
          "type": "uint256"
        }
      ],
      "payable": false,
      "stateMutability": "view",
      "type": "function"
    },
    {
      "constant": true,
      "inputs": [],
      "name": "totalPossibleTrust",
      "outputs": [
        {
          "name": "",
          "type": "uint256"
        }
      ],
      "payable": false,
      "stateMutability": "view",
      "type": "function"
    },
    {
      "constant": false,
      "inputs": [
        {
          "name": "newOwner",
          "type": "address"
        }
      ],
      "name": "transferOwnership",
      "outputs": [],
      "payable": false,
      "stateMutability": "nonpayable",
      "type": "function"
    },
    {
      "constant": false,
      "inputs": [
        {
          "name": "_reference",
          "type": "address"
        }
      ],
      "name": "addReference",
      "outputs": [],
      "payable": false,
      "stateMutability": "nonpayable",
      "type": "function"
    },
    {
      "constant": false,
      "inputs": [
        {
          "name": "_reference",
          "type": "address"
        }
      ],
      "name": "removeReference",
      "outputs": [],
      "payable": false,
      "stateMutability": "nonpayable",
      "type": "function"
    },
    {
      "constant": false,
      "inputs": [
        {
          "name": "_reference",
          "type": "address"
        }
      ],
      "name": "approveReference",
      "outputs": [],
      "payable": false,
      "stateMutability": "nonpayable",
      "type": "function"
    },
    {
      "constant": false,
      "inputs": [
        {
          "name": "_reference",
          "type": "address"
        }
      ],
      "name": "removeReferenceApproval",
      "outputs": [],
      "payable": false,
      "stateMutability": "nonpayable",
      "type": "function"
    },
    {
      "constant": false,
      "inputs": [
        {
          "name": "_reference",
          "type": "address"
        }
      ],
      "name": "flagMissingReference",
      "outputs": [],
      "payable": false,
      "stateMutability": "nonpayable",
      "type": "function"
    },
    {
      "constant": false,
      "inputs": [
        {
          "name": "_reference",
          "type": "address"
        }
      ],
      "name": "removeMissingReferenceFlag",
      "outputs": [],
      "payable": false,
      "stateMutability": "nonpayable",
      "type": "function"
    }
  ],
  "bytecode": "0x608060405260008054600160a060020a03191633179055611f10806100256000396000f3006080604052600436106101065763ffffffff7c01000000000000000000000000000000000000000000000000000000006000350416630cbfdb2d811461010b5780630fb3395c1461013b5780631abaf3fc1461016957806323bab50b1461019057806329f9e665146101be5780632f54bf6e146101f857806332c9c9d31461023a5780634586de5d1461026857806382966f8b1461029657806389054583146102ab578063893d20e8146102ec5780638da5cb5b146103015780639c1b92a114610316578063ac260ba01461032e578063c865697814610343578063e4e3e83a14610358578063e7139ec014610386578063e9946c23146103b4578063f2fde38b146103c9575b600080fd5b34801561011757600080fd5b5061013973ffffffffffffffffffffffffffffffffffffffff600435166103f7565b005b34801561014757600080fd5b5061013973ffffffffffffffffffffffffffffffffffffffff6004351661065a565b34801561017557600080fd5b5061017e610955565b60408051918252519081900360200190f35b34801561019c57600080fd5b5061013973ffffffffffffffffffffffffffffffffffffffff6004351661095b565b3480156101ca57600080fd5b506101d3610c58565b604080516fffffffffffffffffffffffffffffffff9092168252519081900360200190f35b34801561020457600080fd5b5061022673ffffffffffffffffffffffffffffffffffffffff60043516610c70565b604080519115158252519081900360200190f35b34801561024657600080fd5b5061013973ffffffffffffffffffffffffffffffffffffffff60043516610c91565b34801561027457600080fd5b506101d373ffffffffffffffffffffffffffffffffffffffff600435166112e6565b3480156102a257600080fd5b506101d361130a565b3480156102b757600080fd5b506102c3600435611322565b6040805173ffffffffffffffffffffffffffffffffffffffff9092168252519081900360200190f35b3480156102f857600080fd5b506102c3611357565b34801561030d57600080fd5b506102c3611373565b34801561032257600080fd5b506102c360043561138f565b34801561033a57600080fd5b5061022661139d565b34801561034f57600080fd5b5061017e6113a6565b34801561036457600080fd5b5061013973ffffffffffffffffffffffffffffffffffffffff600435166113ac565b34801561039257600080fd5b5061013973ffffffffffffffffffffffffffffffffffffffff6004351661162c565b3480156103c057600080fd5b5061017e611c36565b3480156103d557600080fd5b5061013973ffffffffffffffffffffffffffffffffffffffff60043516611c3c565b73ffffffffffffffffffffffffffffffffffffffff81166000908152600e60205260409020546601000000000000900460ff16151560011461043857600080fd5b73ffffffffffffffffffffffffffffffffffffffff81166000908152600c6020818152604080842080547fffffffffffffffffffffffffffffffffffffffffffffffffffffffffffffff00168155600e8352932080547fffffffffffffffffffffffffffffffffffffffffffffffffff00ffffffffffff1690555254600d8054909161010090046fffffffffffffffffffffffffffffffff169081106104da57fe5b60009182526020808320909101805473ffffffffffffffffffffffffffffffffffffffff19169055338252600f905260409020546105249063ffffffff90811690600190611cbe16565b336000908152600f60209081526040808320805463ffffffff191663ffffffff95861617905573ffffffffffffffffffffffffffffffffffffffff85168352600e90915290205460095461059c926fffffffffffffffffffffffffffffffff91821692670100000000000000900490911690611ce516565b600980546fffffffffffffffffffffffffffffffff19166fffffffffffffffffffffffffffffffff92831617905573ffffffffffffffffffffffffffffffffffffffff82166000908152600e60209081526040808320543384526008909252909120546106189290811691670100000000000000900416611ce5565b33600090815260086020526040902080546fffffffffffffffffffffffffffffffff19166fffffffffffffffffffffffffffffffff9290921691909117905550565b73ffffffffffffffffffffffffffffffffffffffff81166000908152600e6020526040812054640100000000900460ff161561069557600080fd5b600154604080517fb2fad55400000000000000000000000000000000000000000000000000000000815273ffffffffffffffffffffffffffffffffffffffff85811660048301529151919092169163b2fad5549160248083019260209291908290030181600087803b15801561070a57600080fd5b505af115801561071e573d6000803e3d6000fd5b505050506040513d602081101561073457600080fd5b5050600780546001810182557fa66cc928b5edb82af9bd49922954155ab7b0942694bea4ce44661d9a8736c68801805473ffffffffffffffffffffffffffffffffffffffff191673ffffffffffffffffffffffffffffffffffffffff851690811790915590546000918252600e6020526040909120805464010000000063ffffffff199091167fffffffffffffffffffffffffffffffffffffffffffffffffffffffffffffffff90930163ffffffff16929092177fffffffffffffffffffffffffffffffffffffffffffffffffffffff00ffffffff16919091179081905560ff66010000000000009091041615610951578173ffffffffffffffffffffffffffffffffffffffff1663a5faa1256040518163ffffffff167c0100000000000000000000000000000000000000000000000000000000028152600401602060405180830381600087803b15801561088957600080fd5b505af115801561089d573d6000803e3d6000fd5b505050506040513d60208110156108b357600080fd5b5051604080517f268c7dcb00000000000000000000000000000000000000000000000000000000815230600482015273ffffffffffffffffffffffffffffffffffffffff858116602483015291519293509083169163268c7dcb9160448082019260009290919082900301818387803b15801561092f57600080fd5b505af1158015610943573d6000803e3d6000fd5b505050506109518183611d10565b5050565b60105481565b73ffffffffffffffffffffffffffffffffffffffff81166000908152600e60205260408120548190640100000000900460ff16151560011461099c57600080fd5b600154604080517ffb5032d600000000000000000000000000000000000000000000000000000000815273ffffffffffffffffffffffffffffffffffffffff86811660048301529151919092169163fb5032d69160248083019260209291908290030181600087803b158015610a1157600080fd5b505af1158015610a25573d6000803e3d6000fd5b505050506040513d6020811015610a3b57600080fd5b505073ffffffffffffffffffffffffffffffffffffffff83166000908152600e602052604090205465010000000000900460ff1615610ba0578273ffffffffffffffffffffffffffffffffffffffff1663a5faa1256040518163ffffffff167c0100000000000000000000000000000000000000000000000000000000028152600401602060405180830381600087803b158015610ad857600080fd5b505af1158015610aec573d6000803e3d6000fd5b505050506040513d6020811015610b0257600080fd5b5051604080517fc464e29400000000000000000000000000000000000000000000000000000000815230600482015273ffffffffffffffffffffffffffffffffffffffff868116602483015291519294509084169163c464e2949160448082019260009290919082900301818387803b158015610b7e57600080fd5b505af1158015610b92573d6000803e3d6000fd5b50505050610ba08284611d10565b5073ffffffffffffffffffffffffffffffffffffffff82166000908152600e60205260409020546007805463ffffffff9092169182908110610bde57fe5b60009182526020808320909101805473ffffffffffffffffffffffffffffffffffffffff1916905573ffffffffffffffffffffffffffffffffffffffff949094168152600e90935250506040812080547fffffffffffffffffff000000000000000000000000000000000000000000000016815560010155565b6014546fffffffffffffffffffffffffffffffff1681565b60005473ffffffffffffffffffffffffffffffffffffffff91821691161490565b73ffffffffffffffffffffffffffffffffffffffff81166000908152600e60205260408120548190819081908190640100000000900460ff1615610cd457600080fd5b73ffffffffffffffffffffffffffffffffffffffff86166000908152600e60205260409020546601000000000000900460ff1615610d1157600080fd5b600d8054600181810183557fd7b6990105719101dabeb77144f2a3385c8033acd3af97e9423a695e81ad1eb5909101805473ffffffffffffffffffffffffffffffffffffffff8a1673ffffffffffffffffffffffffffffffffffffffff19909116811790915560408051808201825292835292546fffffffffffffffffffffffffffffffff7fffffffffffffffffffffffffffffffffffffffffffffffffffffffffffffffff91909101811660208481019182526000938452600c8152858420945185549251909316610100027fffffffffffffffffffffffffffffff00000000000000000000000000000000ff9315157fffffffffffffffffffffffffffffffffffffffffffffffffffffffffffffff00909316929092179290921617909255600e825282812080547fffffffffffffffffffffffffffffffffffffffffffffffffff00ffffffffffff16660100000000000017905582517fffe6a18e0000000000000000000000000000000000000000000000000000000081529251339850889363ffe6a18e936004808301949193928390030190829087803b158015610eb957600080fd5b505af1158015610ecd573d6000803e3d6000fd5b505050506040513d6020811015610ee357600080fd5b5051600954336000908152600f60205260409020549195506fffffffffffffffffffffffffffffffff16935063ffffffff161515610f6f57600b80546001810182556000919091527f0175b7a638427703f0dbe7bb9bbf987a2551717b34e79f33b5b1008d1fa01db901805473ffffffffffffffffffffffffffffffffffffffff191633179055611025565b33600090815260086020526040902054600954610fa7916fffffffffffffffffffffffffffffffff918216911663ffffffff611cbe16565b600980546fffffffffffffffffffffffffffffffff19166fffffffffffffffffffffffffffffffff92831617905573ffffffffffffffffffffffffffffffffffffffff87166000908152600e6020526040902060010154600a54611021929091700100000000000000000000000000000000900416611e10565b600a555b336000908152600f602052604090205461104b9063ffffffff90811690600190611ce516565b336000908152600f60209081526040808320805463ffffffff191663ffffffff959095169490941790935582517ffa6daea7000000000000000000000000000000000000000000000000000000008152306004820152925173ffffffffffffffffffffffffffffffffffffffff89169363fa6daea79360248083019493928390030190829087803b1580156110df57600080fd5b505af11580156110f3573d6000803e3d6000fd5b505050506040513d602081101561110957600080fd5b5051915061112f6fffffffffffffffffffffffffffffffff85168363ffffffff611e1c16565b905061115b6fffffffffffffffffffffffffffffffff8216670de0b6b3a764000063ffffffff611e9a16565b33600090815260086020526040902080546fffffffffffffffffffffffffffffffff19166fffffffffffffffffffffffffffffffff838116919091179091556009549192506111ab911682611ce5565b600980546fffffffffffffffffffffffffffffffff19166fffffffffffffffffffffffffffffffff92831617905573ffffffffffffffffffffffffffffffffffffffff87166000908152600e6020526040902060010180548216700100000000000000000000000000000000928716928302179055600a5461122c91611ed5565b600a55600954611257906fffffffffffffffffffffffffffffffff858116911663ffffffff611cbe16565b73ffffffffffffffffffffffffffffffffffffffff87166000908152600e6020526040902080546fffffffffffffffffffffffffffffffff92909216670100000000000000027fffffffffffffffffff00000000000000000000000000000000ffffffffffffff9092169190911790556011546112db90600163ffffffff611ed516565b601155505050505050565b6013602052600090815260409020546fffffffffffffffffffffffffffffffff1681565b6009546fffffffffffffffffffffffffffffffff1681565b600b80548290811061133057fe5b60009182526020909120015473ffffffffffffffffffffffffffffffffffffffff16905081565b60005473ffffffffffffffffffffffffffffffffffffffff1690565b60005473ffffffffffffffffffffffffffffffffffffffff1681565b600d80548290811061133057fe5b60175460ff1681565b60115481565b73ffffffffffffffffffffffffffffffffffffffff81166000908152600e602052604090205465010000000000900460ff1615156001146113ec57600080fd5b60105461140090600163ffffffff611e1016565b60105573ffffffffffffffffffffffffffffffffffffffff81166000908152600e6020526040902080547fffffffffffffffffffffffffffffffffffffffffffffffffffff00ffffffffff16908190556601000000000000900460ff16156114f75773ffffffffffffffffffffffffffffffffffffffff81166000908152600c6020526040902054600d8054839261010090046fffffffffffffffffffffffffffffffff169081106114ae57fe5b9060005260206000200160006101000a81548173ffffffffffffffffffffffffffffffffffffffff021916908373ffffffffffffffffffffffffffffffffffffffff1602179055505b336000908152600f60205260409020546115259063ffffffff640100000000909104811690600190611cbe16565b336000908152600f6020908152604080832080547fffffffffffffffffffffffffffffffffffffffffffffffff00000000ffffffff1664010000000063ffffffff9687160217905573ffffffffffffffffffffffffffffffffffffffff85168352600e9091529020600101546009546115b8926fffffffffffffffffffffffffffffffff918216929190911690611cbe16565b600980546fffffffffffffffffffffffffffffffff19166fffffffffffffffffffffffffffffffff92831617905573ffffffffffffffffffffffffffffffffffffffff82166000908152600e6020908152604080832060010154338452600890925290912054610618929081169116611cbe565b73ffffffffffffffffffffffffffffffffffffffff81166000908152600e60205260408120548190819081908190640100000000900460ff16151560011461167357600080fd5b73ffffffffffffffffffffffffffffffffffffffff86166000908152600e602052604090205465010000000000900460ff16156116af57600080fd5b6010546116c390600163ffffffff611ed516565b60105573ffffffffffffffffffffffffffffffffffffffff86166000908152600e6020908152604080832080547fffffffffffffffffffffffffffffffffffffffffffffffffffff00ffffffffff1665010000000000179055600c90915290205460ff161561179f5773ffffffffffffffffffffffffffffffffffffffff86166000908152600c6020526040902054600d8054909161010090046fffffffffffffffffffffffffffffffff1690811061177857fe5b6000918252602090912001805473ffffffffffffffffffffffffffffffffffffffff191690555b3394508473ffffffffffffffffffffffffffffffffffffffff1663ffe6a18e6040518163ffffffff167c0100000000000000000000000000000000000000000000000000000000028152600401602060405180830381600087803b15801561180657600080fd5b505af115801561181a573d6000803e3d6000fd5b505050506040513d602081101561183057600080fd5b5051600954336000908152600f60205260409020549195506fffffffffffffffffffffffffffffffff169350640100000000900463ffffffff1615156118c457600b80546001810182556000919091527f0175b7a638427703f0dbe7bb9bbf987a2551717b34e79f33b5b1008d1fa01db901805473ffffffffffffffffffffffffffffffffffffffff19163317905561197a565b336000908152600860205260409020546009546118fc916fffffffffffffffffffffffffffffffff918216911663ffffffff611cbe16565b600980546fffffffffffffffffffffffffffffffff19166fffffffffffffffffffffffffffffffff92831617905573ffffffffffffffffffffffffffffffffffffffff87166000908152600e6020526040902060010154600a54611976929091700100000000000000000000000000000000900416611e10565b600a555b336000908152600f60205260409020546119a89063ffffffff640100000000909104811690600190611ce516565b336000908152600f60209081526040808320805463ffffffff95909516640100000000027fffffffffffffffffffffffffffffffffffffffffffffffff00000000ffffffff9095169490941790935582517ffa6daea7000000000000000000000000000000000000000000000000000000008152306004820152925173ffffffffffffffffffffffffffffffffffffffff89169363fa6daea79360248083019493928390030190829087803b158015611a6057600080fd5b505af1158015611a74573d6000803e3d6000fd5b505050506040513d6020811015611a8a57600080fd5b50519150611ab06fffffffffffffffffffffffffffffffff85168363ffffffff611e1c16565b9050611adc6fffffffffffffffffffffffffffffffff8216670de0b6b3a764000063ffffffff611e9a16565b33600090815260086020526040902080546fffffffffffffffffffffffffffffffff19166fffffffffffffffffffffffffffffffff83811691909117909155600954919250611b2c911682611ce5565b600980546fffffffffffffffffffffffffffffffff19166fffffffffffffffffffffffffffffffff92831617905573ffffffffffffffffffffffffffffffffffffffff87166000908152600e6020526040902060010180548216700100000000000000000000000000000000928716928302179055600a54611bad91611ed5565b600a55600954611bd5906fffffffffffffffffffffffffffffffff168463ffffffff611cbe16565b73ffffffffffffffffffffffffffffffffffffffff969096166000908152600e6020526040902060010180546fffffffffffffffffffffffffffffffff19166fffffffffffffffffffffffffffffffff909716969096179095555050505050565b600a5481565b60005473ffffffffffffffffffffffffffffffffffffffff163314611c6057600080fd5b73ffffffffffffffffffffffffffffffffffffffff81161515611c8257600080fd5b6000805473ffffffffffffffffffffffffffffffffffffffff191673ffffffffffffffffffffffffffffffffffffffff92909216919091179055565b60006fffffffffffffffffffffffffffffffff8084169083161115611cdf57fe5b50900390565b60008282016fffffffffffffffffffffffffffffffff8085169082161015611d0957fe5b9392505050565b73ffffffffffffffffffffffffffffffffffffffff82166000908152600f6020526040812054611d539063ffffffff6401000000008204811691811690611ce516565b90506fffffffffffffffffffffffffffffffff81161515611e0b5773ffffffffffffffffffffffffffffffffffffffff82166000908152600e6020526040902060010154600a54611dc99170010000000000000000000000000000000090046fffffffffffffffffffffffffffffffff16611e10565b600a5573ffffffffffffffffffffffffffffffffffffffff82166000908152600e6020526040902060010180546fffffffffffffffffffffffffffffffff1690555b505050565b600082821115611cdf57fe5b60008282026fffffffffffffffffffffffffffffffff84161580611e925750826fffffffffffffffffffffffffffffffff16846fffffffffffffffffffffffffffffffff16826fffffffffffffffffffffffffffffffff16811515611e7d57fe5b046fffffffffffffffffffffffffffffffff16145b1515611d0957fe5b600080826fffffffffffffffffffffffffffffffff16846fffffffffffffffffffffffffffffffff16811515611ecc57fe5b04949350505050565b600082820183811015611d0957fe00a165627a7a72305820fd65a414d043dbe4ae3c9af857b14f339cd0ed990b9d834345781261a0e5277c0029",
  "source": "pragma solidity ^0.4.18;\n\nimport '../../libraries/math/SafeMath.sol';\nimport '../../libraries/math/SafeMath128.sol';\nimport '../../interfaces/IMatryxToken.sol';\nimport '../../interfaces/IMatryxPeer.sol';\nimport '../../interfaces/IMatryxPlatform.sol';\nimport '../../interfaces/IMatryxTournament.sol';\nimport '../../interfaces/IMatryxRound.sol';\nimport '../../interfaces/IMatryxSubmission.sol';\nimport '../Ownable.sol';\n\ncontract SubmissionTrust is Ownable\n{\n\tusing SafeMath for uint256;\n\tusing SafeMath128 for uint128;\n\n\t// Parent identification\n\taddress private platformAddress;\n\taddress private tournamentAddress;\n\taddress private roundAddress;\n\t\n\t// Submission\n\tstring title;\n\taddress author;\n\tbytes externalAddress;\n\taddress[] references;\n\n\t// Tracks the normalized trust gained through peers approving this submission\n\tmapping(address=>uint128) authorToApprovalTrustGiven;\n\tuint128 public approvalTrust;\n\tuint256 public totalPossibleTrust;\n\taddress[] public approvingPeers;\n\n\t// Tracks the proportion of references this submission has approved\n\tmapping(address=>uint128_optional) missingReferenceToIndex;\n\taddress[] public missingReferences;\n\tmapping(address=>ReferenceInfo) addressToReferenceInfo;\n\tmapping(address=>ReferenceStats) referenceStatsByAuthor;\n\tuint256 public approvedReferences;\n\tuint256 public totalReferenceCount;\n\n\taddress[] contributors;\n\tmapping(address=>uint128) public contributorToBountyDividend;\n\tuint128 public contributorBountyDivisor;\n\tuint256 timeSubmitted;\n\tuint256 timeUpdated;\n\tbool public publicallyAccessibleDuringTournament;\n\n\tstruct ReferenceInfo\n\t{\n\t\tuint32 index;\n\t\tbool exists;\n\t\tbool approved;\n\t\tbool flagged;\n\t\tuint128 negativeReputationAffect;\n\t\tuint128 positiveReputationAffect;\n\t\tuint128 authorReputation;\n\t}\n\n\tstruct ReferenceStats\n\t{\n\t\tuint32 numberMissing;\n\t\tuint32 numberApproved;\n\t}\n\n\tstruct uint128_optional\n\t{\n\t\tbool exists;\n\t\tuint128 value;\n\t}\n\n\tfunction cleanAuthorTrust(address _referenceAuthor, address _reference) internal\n\t{\n\t\t// If there are no more approved or flagged references by this author,\n\t\t// remove their influence over our reputation (subtract their reputation from\n\t\t// this submission's total possible trust value)\n\t\tuint128 numberApprovedOrMissing = uint128(referenceStatsByAuthor[_referenceAuthor].numberApproved).add(uint128(referenceStatsByAuthor[_referenceAuthor].numberMissing));\n\t\tif(numberApprovedOrMissing == 0)\n\t\t{\n\t\t\ttotalPossibleTrust = totalPossibleTrust.sub(addressToReferenceInfo[_reference].authorReputation);\n\t\t\taddressToReferenceInfo[_reference].authorReputation = 0;\n\t\t}\n\t}\n\n\t/// @dev Add a missing reference to a submission (callable only by submission's owner).\n    /// @param _reference Address of additional reference to include.\n\tfunction addReference(address _reference) public \n\t{\n\t\trequire(addressToReferenceInfo[_reference].exists == false);\n\t\tIMatryxPlatform(platformAddress).handleReferenceRequestForSubmission(_reference);\n\t\treferences.push(_reference);\n\t\taddressToReferenceInfo[_reference].index = uint32(references.length-1);\n\t\taddressToReferenceInfo[_reference].exists = true;\n\n\t\t// We know that the parameter is a valid submission\n\t\t// as deemed by the platform. Therefore we're able to\n\t\t// get its author without worrying that we don't\n\t\t// know what code we're calling.\n\t\tif(addressToReferenceInfo[_reference].flagged)\n\t\t{\n\t\t\taddress referenceAuthor = IMatryxSubmission(_reference).getAuthor();\n\t\t\t// If this testing session fails, the below line is the culprit.\n\t\t\tIMatryxPeer(referenceAuthor).removeMissingReferenceFlag(this, _reference);\n\t\t\tcleanAuthorTrust(referenceAuthor, _reference);\n\t\t}\n\t}\n\n\t/// @dev Remove an erroneous reference to a submission (callable only by submission's owner).\n    /// @param _reference Address of reference to remove.\n\tfunction removeReference(address _reference) public\n\t{\n\t\trequire(addressToReferenceInfo[_reference].exists == true);\n\t\tIMatryxPlatform(platformAddress).handleCancelledReferenceRequestForSubmission(_reference);\n\t\t// We know that the parameter is a valid submission\n\t\t// as deemed by the platform. Therefore we're able to\n\t\t// call getAuthor without worrying that we don't\n\t\t// know what code we're calling.\n\t\tif(addressToReferenceInfo[_reference].approved)\n\t\t{\n\t\t\taddress referenceAuthor = IMatryxSubmission(_reference).getAuthor();\n\t\t\tIMatryxPeer(referenceAuthor).removeReferenceApproval(this, _reference);\n\t\t\tcleanAuthorTrust(referenceAuthor, _reference);\n\t\t}\n\n\t\tuint256 referenceIndex = addressToReferenceInfo[_reference].index;\n\t\tdelete references[referenceIndex];\n\t\tdelete addressToReferenceInfo[_reference];\n\t}\n\n\t/// @dev Called by the owner of _reference when this submission is approved to list _reference\n\t/// as a reference.\n\t/// _reference Reference being approved by msg.sender.\n\tfunction approveReference(address _reference) public\n\t{\n\t\trequire(addressToReferenceInfo[_reference].exists == true);\n  \t\trequire(addressToReferenceInfo[_reference].approved == false);\n\n  \t\t// Update state variables regarding the approved reference\n  \t\tapprovedReferences = approvedReferences.add(1);\n\t\taddressToReferenceInfo[_reference].approved = true;\n\t\tif(missingReferenceToIndex[_reference].exists)\n\t\t{\n\t\t\tdelete missingReferences[missingReferenceToIndex[_reference].value];\n\t\t}\n\n  \t\t// Update submission reputation variables\n\t\tIMatryxPeer peer = IMatryxPeer(msg.sender);\n\t\tuint128 peersReputation = peer.getReputation();\n\t\tuint128 originalTrust = approvalTrust;\n\t\t\n\t\tif(referenceStatsByAuthor[msg.sender].numberApproved == 0)\n\t\t{\t\n\t\t\tapprovingPeers.push(msg.sender);\n\t\t}\n\t\telse\n\t\t{\n\t\t\tapprovalTrust = approvalTrust.sub(authorToApprovalTrustGiven[msg.sender]);\n\t\t\ttotalPossibleTrust = totalPossibleTrust.sub(addressToReferenceInfo[_reference].authorReputation);\n\t\t}\n\n\t\treferenceStatsByAuthor[msg.sender].numberApproved = uint32(uint128(referenceStatsByAuthor[msg.sender].numberApproved).add(1));\n\n\t\tuint128 normalizedProportionOfReferenceApprovals = peer.getApprovedReferenceProportion(this);\n\t\tuint128 trustToAdd = peersReputation.mul(normalizedProportionOfReferenceApprovals);\n\t\ttrustToAdd = trustToAdd.div(1*10**18);\n\t\tauthorToApprovalTrustGiven[msg.sender] = trustToAdd;\n\t\tapprovalTrust = approvalTrust.add(trustToAdd);\n\t\taddressToReferenceInfo[_reference].authorReputation = peersReputation;\n\t\ttotalPossibleTrust = totalPossibleTrust.add(peersReputation);\n\t\t// Store the difference in reputation that approving this reference caused to this submission.\n\t\t// We may need this value if this approval is ever revoked by the trust-lending peer.\n\t\taddressToReferenceInfo[_reference].positiveReputationAffect = approvalTrust.sub(originalTrust);\n\t}\n\n\t/// @dev \t\t\t  Called by the owner of the _reference to remove their approval of a reference\n\t///\t\t \t\t\t  within this submission.\n\t/// @param _reference Reference that peer is revoking the approval of to be included\n\t///\t\t\t\t\t  in this submission.\n\tfunction removeReferenceApproval(address _reference) public\n\t{\n\t\trequire(addressToReferenceInfo[_reference].approved == true);\n\n\t\tapprovedReferences = approvedReferences.sub(1);\n\t\taddressToReferenceInfo[_reference].approved = false;\n\n\t\tif(addressToReferenceInfo[_reference].flagged)\n\t\t{\n\t\t\t// TODO: TEST THIS THOROUGHLY.\n\t\t\tmissingReferences[missingReferenceToIndex[_reference].value] = _reference;\n\t\t}\n\n\t\treferenceStatsByAuthor[msg.sender].numberApproved = uint32(uint128(referenceStatsByAuthor[msg.sender].numberApproved).sub(1));\n\n\t\tapprovalTrust = approvalTrust.sub(addressToReferenceInfo[_reference].positiveReputationAffect);\n\t\tauthorToApprovalTrustGiven[msg.sender] = authorToApprovalTrustGiven[msg.sender].sub(addressToReferenceInfo[_reference].positiveReputationAffect);\n\t}\n\n\t/// @dev \tCalled by the owner of _reference when this submission does not list _reference\n\t/// \t\tas a reference.\n\t/// @param  _reference Missing reference in this submission.\n\tfunction flagMissingReference(address _reference) public\n\t{\n\t\trequire(addressToReferenceInfo[_reference].exists == false);\n  \t\trequire(addressToReferenceInfo[_reference].flagged == false);\n\n\t\t// Update state variables regarding the missing reference\n\t\tmissingReferences.push(_reference);\n\t\tmissingReferenceToIndex[_reference] = uint128_optional(true, uint128(missingReferences.length)-1);\n\t\taddressToReferenceInfo[_reference].flagged = true;\n\t\t\n\t\t// Update submission reputation state variables\n\t\tIMatryxPeer peer = IMatryxPeer(msg.sender);\n\t\tuint128 peersReputation = peer.getReputation();\n\t\tuint128 originalTrust = approvalTrust;\n\n\t\tif(referenceStatsByAuthor[msg.sender].numberMissing == 0)\n\t\t{\n\t\t\tapprovingPeers.push(msg.sender);\n\t\t}\n\t\telse\n\t\t{\n\t\t\tapprovalTrust = approvalTrust.sub(authorToApprovalTrustGiven[msg.sender]);\n\t\t\ttotalPossibleTrust = totalPossibleTrust.sub(addressToReferenceInfo[_reference].authorReputation);\n\t\t}\n\n\t\treferenceStatsByAuthor[msg.sender].numberMissing = uint32(uint128(referenceStatsByAuthor[msg.sender].numberMissing).add(1));\n\n\t\tuint128 normalizedProportionOfReferenceApprovals = peer.getApprovedReferenceProportion(this);\n\t\tuint128 trustToAdd = peersReputation.mul(normalizedProportionOfReferenceApprovals);\n\t\ttrustToAdd = trustToAdd.div(1*10**18);\n\t\tauthorToApprovalTrustGiven[msg.sender] = trustToAdd;\n\t\tapprovalTrust = approvalTrust.add(trustToAdd);\n\t\taddressToReferenceInfo[_reference].authorReputation = peersReputation;\n\t\ttotalPossibleTrust = totalPossibleTrust.add(peersReputation);\n\t\t// Store the difference in reputation that flagging this reference caused to this submission.\n\t\t// We may need this value if this flag is ever revoked by the trust-detracting peer.\n\t\taddressToReferenceInfo[_reference].negativeReputationAffect = originalTrust.sub(approvalTrust);\n\n\t\ttotalReferenceCount = totalReferenceCount.add(1);\n\t}\n\n\t/// @dev \t\t\t  Called by the owner of _reference to remove a missing reference flag placed on a reference\n\t///\t\t \t\t\t  as missing.\n\t/// @param _reference Reference previously marked by peer as missing.\n\tfunction removeMissingReferenceFlag(address _reference) public\n\t{\n\t\t//Ensure that this reference was previously flagged as missing (MatryxSubmission)\n\t\trequire(addressToReferenceInfo[_reference].flagged == true);\n\n\t\tmissingReferenceToIndex[_reference].exists = false;\n\t\taddressToReferenceInfo[_reference].flagged = false;\n\t\tdelete missingReferences[missingReferenceToIndex[_reference].value];\n\n\t\treferenceStatsByAuthor[msg.sender].numberMissing = uint32(uint128(referenceStatsByAuthor[msg.sender].numberMissing).sub(1));\n\t\t\n\t\tapprovalTrust = approvalTrust.add(addressToReferenceInfo[_reference].negativeReputationAffect);\n\t\tauthorToApprovalTrustGiven[msg.sender] = authorToApprovalTrustGiven[msg.sender].add(addressToReferenceInfo[_reference].negativeReputationAffect);\n\t}\n}",
  "sourcePath": "/Users/maxhoward/Desktop/Ethereum/Development/Matryx/Projects/MatryxPlatform/contracts/reputation/SubmissionTrust.sol",
  "compiler": {
    "name": "solc",
    "version": "0.4.24+commit.e67f0147.Emscripten.clang"
  },
  "schemaVersion": "2.0.0",
  "updatedAt": "2018-06-20T21:38:30.387Z"
}