{
  "contractName": "Submission",
  "abi": [
    {
      "constant": true,
      "inputs": [],
      "name": "tournamentAddress",
      "outputs": [
        {
          "name": "",
          "type": "address"
        }
      ],
      "payable": false,
      "stateMutability": "view",
      "type": "function"
    },
    {
      "constant": true,
      "inputs": [],
      "name": "getSubmissionOwner",
      "outputs": [
        {
          "name": "",
          "type": "address"
        }
      ],
      "payable": false,
      "stateMutability": "view",
      "type": "function"
    },
    {
      "constant": true,
      "inputs": [],
      "name": "tournamentOwner",
      "outputs": [
        {
          "name": "",
          "type": "address"
        }
      ],
      "payable": false,
      "stateMutability": "view",
      "type": "function"
    },
    {
      "constant": true,
      "inputs": [],
      "name": "getExternalAddress",
      "outputs": [
        {
          "name": "",
          "type": "bytes32"
        }
      ],
      "payable": false,
      "stateMutability": "view",
      "type": "function"
    },
    {
      "constant": true,
      "inputs": [],
      "name": "getReferences",
      "outputs": [
        {
          "name": "",
          "type": "address[]"
        }
      ],
      "payable": false,
      "stateMutability": "view",
      "type": "function"
    },
    {
      "constant": true,
      "inputs": [],
      "name": "owner",
      "outputs": [
        {
          "name": "",
          "type": "address"
        }
      ],
      "payable": false,
      "stateMutability": "view",
      "type": "function"
    },
    {
      "constant": true,
      "inputs": [],
      "name": "timeSubmitted",
      "outputs": [
        {
          "name": "",
          "type": "uint256"
        }
      ],
      "payable": false,
      "stateMutability": "view",
      "type": "function"
    },
    {
      "constant": true,
      "inputs": [],
      "name": "getTimeSubmitted",
      "outputs": [
        {
          "name": "",
          "type": "uint256"
        }
      ],
      "payable": false,
      "stateMutability": "view",
      "type": "function"
    },
    {
      "constant": true,
      "inputs": [],
      "name": "getContributors",
      "outputs": [
        {
          "name": "",
          "type": "address[]"
        }
      ],
      "payable": false,
      "stateMutability": "view",
      "type": "function"
    },
    {
      "constant": false,
      "inputs": [
        {
          "name": "newOwner",
          "type": "address"
        }
      ],
      "name": "transferOwnership",
      "outputs": [],
      "payable": false,
      "stateMutability": "nonpayable",
      "type": "function"
    },
    {
      "constant": false,
      "inputs": [],
      "name": "makeExternallyAccessibleDuringTournament",
      "outputs": [],
      "payable": false,
      "stateMutability": "nonpayable",
      "type": "function"
    },
    {
      "constant": true,
      "inputs": [],
      "name": "submissionOwner",
      "outputs": [
        {
          "name": "",
          "type": "address"
        }
      ],
      "payable": false,
      "stateMutability": "view",
      "type": "function"
    },
    {
      "inputs": [
        {
          "name": "_tournamentAddress",
          "type": "address"
        },
        {
          "name": "_tournamentOwner",
          "type": "address"
        },
        {
          "name": "_submissionOwner",
          "type": "address"
        },
        {
          "name": "name",
          "type": "string"
        },
        {
          "name": "_externalAddress",
          "type": "bytes32"
        },
        {
          "name": "_references",
          "type": "address[]"
        },
        {
          "name": "_contributors",
          "type": "address[]"
        },
        {
          "name": "_timeSubmitted",
          "type": "uint256"
        },
        {
          "name": "_roundEndTime",
          "type": "uint256"
        }
      ],
      "payable": false,
      "stateMutability": "nonpayable",
      "type": "constructor"
    }
  ],
  "bytecode": "0x6060604052341561000f57600080fd5b604051620012b8380380620012b883398101604052808051906020019091908051906020019091908051906020019091908051820191906020018051906020019091908051820191906020018051820191906020018051906020019091908051906020019091905050336000806101000a81548173ffffffffffffffffffffffffffffffffffffffff021916908373ffffffffffffffffffffffffffffffffffffffff16021790555060008773ffffffffffffffffffffffffffffffffffffffff16141515156100de57600080fd5b88600160006101000a81548173ffffffffffffffffffffffffffffffffffffffff021916908373ffffffffffffffffffffffffffffffffffffffff16021790555087600260006101000a81548173ffffffffffffffffffffffffffffffffffffffff021916908373ffffffffffffffffffffffffffffffffffffffff16021790555086600360006101000a81548173ffffffffffffffffffffffffffffffffffffffff021916908373ffffffffffffffffffffffffffffffffffffffff16021790555083600490805190602001906101b79291906101f6565b5082600590805190602001906101ce9291906101f6565b50846006816000191690555081600781905550806008819055505050505050505050506102c3565b82805482825590600052602060002090810192821561026f579160200282015b8281111561026e5782518260006101000a81548173ffffffffffffffffffffffffffffffffffffffff021916908373ffffffffffffffffffffffffffffffffffffffff16021790555091602001919060010190610216565b5b50905061027c9190610280565b5090565b6102c091905b808211156102bc57600081816101000a81549073ffffffffffffffffffffffffffffffffffffffff021916905550600101610286565b5090565b90565b610fe580620002d36000396000f3006060604052600436106100ba576000357c0100000000000000000000000000000000000000000000000000000000900463ffffffff16806303d66a97146100bf578063433bcd6114610114578063563b39dc146101695780635c11a3e4146101be5780637a6337fa146101ef5780638da5cb5b146102595780639ba1941b146102ae578063ae1ca692146102d7578063af157c1914610300578063f2fde38b1461036a578063f5c758d6146103a3578063f73c970f146103b8575b600080fd5b34156100ca57600080fd5b6100d261040d565b604051808273ffffffffffffffffffffffffffffffffffffffff1673ffffffffffffffffffffffffffffffffffffffff16815260200191505060405180910390f35b341561011f57600080fd5b610127610433565b604051808273ffffffffffffffffffffffffffffffffffffffff1673ffffffffffffffffffffffffffffffffffffffff16815260200191505060405180910390f35b341561017457600080fd5b61017c610604565b604051808273ffffffffffffffffffffffffffffffffffffffff1673ffffffffffffffffffffffffffffffffffffffff16815260200191505060405180910390f35b34156101c957600080fd5b6101d161062a565b60405180826000191660001916815260200191505060405180910390f35b34156101fa57600080fd5b6102026107db565b6040518080602001828103825283818151815260200191508051906020019060200280838360005b8381101561024557808201518184015260208101905061022a565b505050509050019250505060405180910390f35b341561026457600080fd5b61026c610a16565b604051808273ffffffffffffffffffffffffffffffffffffffff1673ffffffffffffffffffffffffffffffffffffffff16815260200191505060405180910390f35b34156102b957600080fd5b6102c1610a3b565b6040518082815260200191505060405180910390f35b34156102e257600080fd5b6102ea610a41565b6040518082815260200191505060405180910390f35b341561030b57600080fd5b610313610bf2565b6040518080602001828103825283818151815260200191508051906020019060200280838360005b8381101561035657808201518184015260208101905061033b565b505050509050019250505060405180910390f35b341561037557600080fd5b6103a1600480803573ffffffffffffffffffffffffffffffffffffffff16906020019091905050610e2d565b005b34156103ae57600080fd5b6103b6610f07565b005b34156103c357600080fd5b6103cb610f7f565b604051808273ffffffffffffffffffffffffffffffffffffffff1673ffffffffffffffffffffffffffffffffffffffff16815260200191505060405180910390f35b600160009054906101000a900473ffffffffffffffffffffffffffffffffffffffff1681565b6000806000806000600160009054906101000a900473ffffffffffffffffffffffffffffffffffffffff1693508373ffffffffffffffffffffffffffffffffffffffff16632f54bf6e336000604051602001526040518263ffffffff167c0100000000000000000000000000000000000000000000000000000000028152600401808273ffffffffffffffffffffffffffffffffffffffff1673ffffffffffffffffffffffffffffffffffffffff168152602001915050602060405180830381600087803b151561050357600080fd5b6102c65a03f1151561051457600080fd5b505050604051805190509250600960009054906101000a900460ff1691508373ffffffffffffffffffffffffffffffffffffffff1663114765996000604051602001526040518163ffffffff167c0100000000000000000000000000000000000000000000000000000000028152600401602060405180830381600087803b151561059e57600080fd5b6102c65a03f115156105af57600080fd5b5050506040518051905015905082806105c55750815b806105cd5750805b15156105d857600080fd5b600360009054906101000a900473ffffffffffffffffffffffffffffffffffffffff1694505050505090565b600260009054906101000a900473ffffffffffffffffffffffffffffffffffffffff1681565b6000806000806000600160009054906101000a900473ffffffffffffffffffffffffffffffffffffffff1693508373ffffffffffffffffffffffffffffffffffffffff16632f54bf6e336000604051602001526040518263ffffffff167c0100000000000000000000000000000000000000000000000000000000028152600401808273ffffffffffffffffffffffffffffffffffffffff1673ffffffffffffffffffffffffffffffffffffffff168152602001915050602060405180830381600087803b15156106fa57600080fd5b6102c65a03f1151561070b57600080fd5b505050604051805190509250600960009054906101000a900460ff1691508373ffffffffffffffffffffffffffffffffffffffff1663114765996000604051602001526040518163ffffffff167c0100000000000000000000000000000000000000000000000000000000028152600401602060405180830381600087803b151561079557600080fd5b6102c65a03f115156107a657600080fd5b5050506040518051905015905082806107bc5750815b806107c45750805b15156107cf57600080fd5b60065494505050505090565b6107e3610fa5565b600080600080600160009054906101000a900473ffffffffffffffffffffffffffffffffffffffff1693508373ffffffffffffffffffffffffffffffffffffffff16632f54bf6e336000604051602001526040518263ffffffff167c0100000000000000000000000000000000000000000000000000000000028152600401808273ffffffffffffffffffffffffffffffffffffffff1673ffffffffffffffffffffffffffffffffffffffff168152602001915050602060405180830381600087803b15156108b157600080fd5b6102c65a03f115156108c257600080fd5b505050604051805190509250600960009054906101000a900460ff1691508373ffffffffffffffffffffffffffffffffffffffff1663114765996000604051602001526040518163ffffffff167c0100000000000000000000000000000000000000000000000000000000028152600401602060405180830381600087803b151561094c57600080fd5b6102c65a03f1151561095d57600080fd5b5050506040518051905015905082806109735750815b8061097b5750805b151561098657600080fd5b6004805480602002602001604051908101604052809291908181526020018280548015610a0857602002820191906000526020600020905b8160009054906101000a900473ffffffffffffffffffffffffffffffffffffffff1673ffffffffffffffffffffffffffffffffffffffff16815260200190600101908083116109be575b505050505094505050505090565b6000809054906101000a900473ffffffffffffffffffffffffffffffffffffffff1681565b60075481565b6000806000806000600160009054906101000a900473ffffffffffffffffffffffffffffffffffffffff1693508373ffffffffffffffffffffffffffffffffffffffff16632f54bf6e336000604051602001526040518263ffffffff167c0100000000000000000000000000000000000000000000000000000000028152600401808273ffffffffffffffffffffffffffffffffffffffff1673ffffffffffffffffffffffffffffffffffffffff168152602001915050602060405180830381600087803b1515610b1157600080fd5b6102c65a03f11515610b2257600080fd5b505050604051805190509250600960009054906101000a900460ff1691508373ffffffffffffffffffffffffffffffffffffffff1663114765996000604051602001526040518163ffffffff167c0100000000000000000000000000000000000000000000000000000000028152600401602060405180830381600087803b1515610bac57600080fd5b6102c65a03f11515610bbd57600080fd5b505050604051805190501590508280610bd35750815b80610bdb5750805b1515610be657600080fd5b60075494505050505090565b610bfa610fa5565b600080600080600160009054906101000a900473ffffffffffffffffffffffffffffffffffffffff1693508373ffffffffffffffffffffffffffffffffffffffff16632f54bf6e336000604051602001526040518263ffffffff167c0100000000000000000000000000000000000000000000000000000000028152600401808273ffffffffffffffffffffffffffffffffffffffff1673ffffffffffffffffffffffffffffffffffffffff168152602001915050602060405180830381600087803b1515610cc857600080fd5b6102c65a03f11515610cd957600080fd5b505050604051805190509250600960009054906101000a900460ff1691508373ffffffffffffffffffffffffffffffffffffffff1663114765996000604051602001526040518163ffffffff167c0100000000000000000000000000000000000000000000000000000000028152600401602060405180830381600087803b1515610d6357600080fd5b6102c65a03f11515610d7457600080fd5b505050604051805190501590508280610d8a5750815b80610d925750805b1515610d9d57600080fd5b6005805480602002602001604051908101604052809291908181526020018280548015610e1f57602002820191906000526020600020905b8160009054906101000a900473ffffffffffffffffffffffffffffffffffffffff1673ffffffffffffffffffffffffffffffffffffffff1681526020019060010190808311610dd5575b505050505094505050505090565b6000809054906101000a900473ffffffffffffffffffffffffffffffffffffffff1673ffffffffffffffffffffffffffffffffffffffff163373ffffffffffffffffffffffffffffffffffffffff16141515610e8857600080fd5b600073ffffffffffffffffffffffffffffffffffffffff168173ffffffffffffffffffffffffffffffffffffffff1614151515610ec457600080fd5b806000806101000a81548173ffffffffffffffffffffffffffffffffffffffff021916908373ffffffffffffffffffffffffffffffffffffffff16021790555050565b6000809054906101000a900473ffffffffffffffffffffffffffffffffffffffff1673ffffffffffffffffffffffffffffffffffffffff163373ffffffffffffffffffffffffffffffffffffffff16141515610f6257600080fd5b6001600960006101000a81548160ff021916908315150217905550565b600360009054906101000a900473ffffffffffffffffffffffffffffffffffffffff1681565b6020604051908101604052806000815250905600a165627a7a7230582049b2ac84be3401f5b9591f8751811991fccb1646617e8fc18c67648c6607afd60029",
  "source": "pragma solidity ^0.4.18;\n\n\nimport './Ownable.sol';\nimport './Tournament.sol';\n\n///Creating a submission and the functionality\ncontract Submission is Ownable {\n\n\t// Tournament identification\n\taddress public tournamentAddress;\n\taddress public tournamentOwner;\n\tbool tournamentIsClosed;\n\t\n\t// Submission\n\taddress public submissionOwner;\n\taddress[] references;\n\taddress[] contributors;\n\tbytes32 externalAddress;\n\tuint256 public timeSubmitted;\n\tuint256 private roundEndTime;\n\tbool externallyAccessibleDuringTournament;\n\n\t// Submission Constructor\n\tfunction Submission(address _tournamentAddress, address _tournamentOwner, address _submissionOwner, string name, bytes32 _externalAddress, address[] _references, address[] _contributors, uint256 _timeSubmitted, uint256 _roundEndTime) public {\n\t\t//Clean inputs\n\t\trequire(_submissionOwner != 0x0);\n\n\t\ttournamentAddress = _tournamentAddress;\n\t\ttournamentOwner = _tournamentOwner;\n\t\tsubmissionOwner = _submissionOwner;\n\t\treferences = _references;\n\t\tcontributors = _contributors;\n\t\texternalAddress = _externalAddress;\n\t\ttimeSubmitted = _timeSubmitted;\n\t\troundEndTime = _roundEndTime;\n\t}\n\n\t// ----------------- Modifiers -----------------\n\n\t// A modifier to ensure that information can be obtained\n\t// about this submission only when it should be (when the creator decides it can\n\t// or after the tournament has been closed).\n\tmodifier whenAccessible()\n\t{\n\t\t// NEEDS WORK.\n\t\t// TODO: Figure out who should set tournamentIsClosed\n\t\t// TODO: Figure out how to make this work for multiple rounds.\n\t\t// TODO: Figure out how to make this submission inaccessible to tournament entrants\n\t\t// when the round this was created in is the current round\n\t\t// (this submission should be visible to those in the tournament if\n\t\t// it was created last round, two rounds ago, etc.)\n\n\t\tTournament tournament = Tournament(tournamentAddress);\n\t\tbool senderOwnsTournament = tournament.isOwner(msg.sender);\n\n\t\tbool externallyAccessible = externallyAccessibleDuringTournament;\n\n\t\t// TODO: Think about this next part carefully.\n\t\t// Who is responsible for tournamentIsClosed? This submission? The tournament?\n\t\t// How often are users going to call the accessors of a submission? And on the other hand...\n\t\t// How expensive would it be for the tournament owner to update all submissions?\n\n\t\t// tl;dr Who should pay what gas:\n\t\t//    1) tournament creator a lot, but only once? \n\t\t//    2) submission creators a little, but potentially many times?\n\t\t//    3) both??\n\t\tbool closedTournament = !tournament.tournamentOpen();\n\n\t\trequire(senderOwnsTournament || externallyAccessible || closedTournament);\n\t\t_;\n\t}\n\n\t// ----------------- Accessor Methods -----------------\n\n\tfunction getSubmissionOwner() constant whenAccessible public returns (address) {\n\t\treturn submissionOwner;\n\t}\n\n\tfunction getReferences() constant whenAccessible public returns(address[]) {\n\t\treturn references;\n\t}\n\n\tfunction getContributors() constant whenAccessible public returns(address[]) {\n\t\treturn contributors;\n\t}\n\n\tfunction getExternalAddress() constant whenAccessible public returns(bytes32) {\n\t\treturn externalAddress;\n\t}\n\n\tfunction getTimeSubmitted() constant whenAccessible public returns(uint256) {\n\t\treturn timeSubmitted;\n\t}\n\n\t/*\n\tTODO\n\tFunction - turn the submission into public when the round ends\n\tOnly the tournament\n\t*/\n\n\t//TODO setters with correct scoping\n\n\tfunction makeExternallyAccessibleDuringTournament() onlyOwner public\n\t{\n\t\texternallyAccessibleDuringTournament = true;\n\t}\n\n}",
  "sourcePath": "/Users/maxhoward/Desktop/Ethereum Development/Matryx AWS/Projects/matryx-alpha-source/contracts/Submission.sol",
  "compiler": {
    "name": "solc",
    "version": "0.4.18+commit.9cf6e910.Emscripten.clang"
  },
  "schemaVersion": "1.0.1",
  "updatedAt": "2017-12-06T02:09:32.607Z"
}