{
  "contractName": "SubmissionTrust",
  "abi": [
    {
      "constant": true,
      "inputs": [],
      "name": "approvedReferences",
      "outputs": [
        {
          "name": "",
          "type": "uint256"
        }
      ],
      "payable": false,
      "stateMutability": "view",
      "type": "function"
    },
    {
      "constant": true,
      "inputs": [
        {
          "name": "_sender",
          "type": "address"
        }
      ],
      "name": "isOwner",
      "outputs": [
        {
          "name": "_isOwner",
          "type": "bool"
        }
      ],
      "payable": false,
      "stateMutability": "view",
      "type": "function"
    },
    {
      "constant": true,
      "inputs": [],
      "name": "approvalTrust",
      "outputs": [
        {
          "name": "",
          "type": "uint128"
        }
      ],
      "payable": false,
      "stateMutability": "view",
      "type": "function"
    },
    {
      "constant": true,
      "inputs": [
        {
          "name": "",
          "type": "uint256"
        }
      ],
      "name": "approvingPeers",
      "outputs": [
        {
          "name": "",
          "type": "address"
        }
      ],
      "payable": false,
      "stateMutability": "view",
      "type": "function"
    },
    {
      "constant": true,
      "inputs": [],
      "name": "getOwner",
      "outputs": [
        {
          "name": "_owner",
          "type": "address"
        }
      ],
      "payable": false,
      "stateMutability": "view",
      "type": "function"
    },
    {
      "constant": true,
      "inputs": [],
      "name": "owner",
      "outputs": [
        {
          "name": "",
          "type": "address"
        }
      ],
      "payable": false,
      "stateMutability": "view",
      "type": "function"
    },
    {
      "constant": true,
      "inputs": [
        {
          "name": "",
          "type": "uint256"
        }
      ],
      "name": "missingReferences",
      "outputs": [
        {
          "name": "",
          "type": "address"
        }
      ],
      "payable": false,
      "stateMutability": "view",
      "type": "function"
    },
    {
      "constant": true,
      "inputs": [],
      "name": "publicallyAccessibleDuringTournament",
      "outputs": [
        {
          "name": "",
          "type": "bool"
        }
      ],
      "payable": false,
      "stateMutability": "view",
      "type": "function"
    },
    {
      "constant": true,
      "inputs": [],
      "name": "totalReferenceCount",
      "outputs": [
        {
          "name": "",
          "type": "uint256"
        }
      ],
      "payable": false,
      "stateMutability": "view",
      "type": "function"
    },
    {
      "constant": true,
      "inputs": [],
      "name": "totalPossibleTrust",
      "outputs": [
        {
          "name": "",
          "type": "uint256"
        }
      ],
      "payable": false,
      "stateMutability": "view",
      "type": "function"
    },
    {
      "constant": false,
      "inputs": [
        {
          "name": "newOwner",
          "type": "address"
        }
      ],
      "name": "transferOwnership",
      "outputs": [],
      "payable": false,
      "stateMutability": "nonpayable",
      "type": "function"
    },
    {
      "constant": false,
      "inputs": [
        {
          "name": "_reference",
          "type": "address"
        }
      ],
      "name": "addReference",
      "outputs": [],
      "payable": false,
      "stateMutability": "nonpayable",
      "type": "function"
    },
    {
      "constant": false,
      "inputs": [
        {
          "name": "_reference",
          "type": "address"
        }
      ],
      "name": "removeReference",
      "outputs": [],
      "payable": false,
      "stateMutability": "nonpayable",
      "type": "function"
    },
    {
      "constant": false,
      "inputs": [
        {
          "name": "_reference",
          "type": "address"
        }
      ],
      "name": "approveReference",
      "outputs": [],
      "payable": false,
      "stateMutability": "nonpayable",
      "type": "function"
    },
    {
      "constant": false,
      "inputs": [
        {
          "name": "_reference",
          "type": "address"
        }
      ],
      "name": "removeReferenceApproval",
      "outputs": [],
      "payable": false,
      "stateMutability": "nonpayable",
      "type": "function"
    },
    {
      "constant": false,
      "inputs": [
        {
          "name": "_reference",
          "type": "address"
        }
      ],
      "name": "flagMissingReference",
      "outputs": [],
      "payable": false,
      "stateMutability": "nonpayable",
      "type": "function"
    },
    {
      "constant": false,
      "inputs": [
        {
          "name": "_reference",
          "type": "address"
        }
      ],
      "name": "removeMissingReferenceFlag",
      "outputs": [],
      "payable": false,
      "stateMutability": "nonpayable",
      "type": "function"
    }
  ],
  "bytecode": "0x606060405260008054600160a060020a033316600160a060020a0319909116179055611fae806100306000396000f3006060604052600436106100f05763ffffffff7c01000000000000000000000000000000000000000000000000000000006000350416630cbfdb2d81146100f55780630fb3395c146101235780631abaf3fc1461014f57806323bab50b146101745780632f54bf6e146101a057806332c9c9d3146101e057806382966f8b1461020c5780638905458314610244578063893d20e8146102835780638da5cb5b146102965780639c1b92a1146102a9578063ac260ba0146102bf578063c8656978146102d2578063e4e3e83a146102e5578063e7139ec014610311578063e9946c231461033d578063f2fde38b14610350575b600080fd5b341561010057600080fd5b61012173ffffffffffffffffffffffffffffffffffffffff6004351661037c565b005b341561012e57600080fd5b61012173ffffffffffffffffffffffffffffffffffffffff60043516610610565b341561015a57600080fd5b610162610909565b60405190815260200160405180910390f35b341561017f57600080fd5b61012173ffffffffffffffffffffffffffffffffffffffff6004351661090f565b34156101ab57600080fd5b6101cc73ffffffffffffffffffffffffffffffffffffffff60043516610c18565b604051901515815260200160405180910390f35b34156101eb57600080fd5b61012173ffffffffffffffffffffffffffffffffffffffff60043516610c39565b341561021757600080fd5b61021f611327565b6040516fffffffffffffffffffffffffffffffff909116815260200160405180910390f35b341561024f57600080fd5b61025a60043561133f565b60405173ffffffffffffffffffffffffffffffffffffffff909116815260200160405180910390f35b341561028e57600080fd5b61025a611374565b34156102a157600080fd5b61025a611391565b34156102b457600080fd5b61025a6004356113ad565b34156102ca57600080fd5b6101cc6113bb565b34156102dd57600080fd5b6101626113c4565b34156102f057600080fd5b61012173ffffffffffffffffffffffffffffffffffffffff600435166113ca565b341561031c57600080fd5b61012173ffffffffffffffffffffffffffffffffffffffff60043516611641565b341561034857600080fd5b610162611c93565b341561035b57600080fd5b61012173ffffffffffffffffffffffffffffffffffffffff60043516611c99565b73ffffffffffffffffffffffffffffffffffffffff81166000908152600e60205260409020546601000000000000900460ff1615156001146103bd57600080fd5b73ffffffffffffffffffffffffffffffffffffffff81166000908152600c6020818152604080842080547fffffffffffffffffffffffffffffffffffffffffffffffffffffffffffffff00168155600e8352932080547fffffffffffffffffffffffffffffffffffffffffffffffffff00ffffffffffff1690555254600d8054909161010090046fffffffffffffffffffffffffffffffff1690811061045f57fe5b60009182526020808320909101805473ffffffffffffffffffffffffffffffffffffffff191690553373ffffffffffffffffffffffffffffffffffffffff168252600f905260409020546104bf9063ffffffff90811690600190611d1f16565b3373ffffffffffffffffffffffffffffffffffffffff9081166000908152600f60209081526040808320805463ffffffff191663ffffffff9687161790559285168252600e90522054600954610539926fffffffffffffffffffffffffffffffff91821692670100000000000000900490911690611d4616565b600980546fffffffffffffffffffffffffffffffff19166fffffffffffffffffffffffffffffffff92831617905573ffffffffffffffffffffffffffffffffffffffff8281166000908152600e602090815260408083205433909416835260089091529020546105b89290811691670100000000000000900416611d46565b3373ffffffffffffffffffffffffffffffffffffffff16600090815260086020526040902080546fffffffffffffffffffffffffffffffff19166fffffffffffffffffffffffffffffffff9290921691909117905550565b73ffffffffffffffffffffffffffffffffffffffff81166000908152600e6020526040812054640100000000900460ff161561064b57600080fd5b60015473ffffffffffffffffffffffffffffffffffffffff1663b2fad554836000604051602001526040517c010000000000000000000000000000000000000000000000000000000063ffffffff841602815273ffffffffffffffffffffffffffffffffffffffff9091166004820152602401602060405180830381600087803b15156106d757600080fd5b6102c65a03f115156106e857600080fd5b5050506040518051505060078054600181016107048382611f45565b506000918252602080832091909101805473ffffffffffffffffffffffffffffffffffffffff861673ffffffffffffffffffffffffffffffffffffffff199091168117909155600754908352600e909152604090912080547fffffffffffffffffffffffffffffffffffffffffffffffffffffff00ffffffff63ffffffff7fffffffffffffffffffffffffffffffffffffffffffffffffffffffffffffffff9094019390931663ffffffff19909116179190911664010000000017908190556601000000000000900460ff16156108fb578173ffffffffffffffffffffffffffffffffffffffff1663a5faa1256000604051602001526040518163ffffffff167c0100000000000000000000000000000000000000000000000000000000028152600401602060405180830381600087803b151561084157600080fd5b6102c65a03f1151561085257600080fd5b505050604051805191505073ffffffffffffffffffffffffffffffffffffffff811663268c7dcb30846040517c010000000000000000000000000000000000000000000000000000000063ffffffff851602815273ffffffffffffffffffffffffffffffffffffffff928316600482015291166024820152604401600060405180830381600087803b15156108e657600080fd5b6102c65a03f115156108f757600080fd5b5050505b6109058183611d71565b5050565b60105481565b73ffffffffffffffffffffffffffffffffffffffff81166000908152600e60205260408120548190640100000000900460ff16151560011461095057600080fd5b60015473ffffffffffffffffffffffffffffffffffffffff1663fb5032d6846000604051602001526040517c010000000000000000000000000000000000000000000000000000000063ffffffff841602815273ffffffffffffffffffffffffffffffffffffffff9091166004820152602401602060405180830381600087803b15156109dc57600080fd5b6102c65a03f115156109ed57600080fd5b5050506040518051505073ffffffffffffffffffffffffffffffffffffffff831663a5faa1256000604051602001526040518163ffffffff167c0100000000000000000000000000000000000000000000000000000000028152600401602060405180830381600087803b1515610a6357600080fd5b6102c65a03f11515610a7457600080fd5b505050604051805173ffffffffffffffffffffffffffffffffffffffff85166000908152600e602052604090205490935065010000000000900460ff16159050610b56578173ffffffffffffffffffffffffffffffffffffffff1663c464e29430856040517c010000000000000000000000000000000000000000000000000000000063ffffffff851602815273ffffffffffffffffffffffffffffffffffffffff928316600482015291166024820152604401600060405180830381600087803b1515610b4157600080fd5b6102c65a03f11515610b5257600080fd5b5050505b610b608284611d71565b5073ffffffffffffffffffffffffffffffffffffffff82166000908152600e60205260409020546007805463ffffffff9092169182908110610b9e57fe5b60009182526020808320909101805473ffffffffffffffffffffffffffffffffffffffff1916905573ffffffffffffffffffffffffffffffffffffffff949094168152600e90935250506040812080547fffffffffffffffffff000000000000000000000000000000000000000000000016815560010155565b60005473ffffffffffffffffffffffffffffffffffffffff91821691161490565b73ffffffffffffffffffffffffffffffffffffffff81166000908152600e60205260408120548190819081908190640100000000900460ff1615610c7c57600080fd5b73ffffffffffffffffffffffffffffffffffffffff86166000908152600e60205260409020546601000000000000900460ff1615610cb957600080fd5b600d805460018101610ccb8382611f45565b506000918252602090912001805473ffffffffffffffffffffffffffffffffffffffff191673ffffffffffffffffffffffffffffffffffffffff881617905560408051908101604090815260018252600d547fffffffffffffffffffffffffffffffffffffffffffffffffffffffffffffffff016fffffffffffffffffffffffffffffffff1660208084019190915273ffffffffffffffffffffffffffffffffffffffff89166000908152600c90915220815181547fffffffffffffffffffffffffffffffffffffffffffffffffffffffffffffff0016901515178155602082015181546fffffffffffffffffffffffffffffffff91909116610100027fffffffffffffffffffffffffffffff00000000000000000000000000000000ff9091161790555073ffffffffffffffffffffffffffffffffffffffff8087166000908152600e602052604080822080547fffffffffffffffffffffffffffffffffffffffffffffffffff00ffffffffffff1666010000000000001790553397509187169163ffe6a18e919051602001526040518163ffffffff167c0100000000000000000000000000000000000000000000000000000000028152600401602060405180830381600087803b1515610ea057600080fd5b6102c65a03f11515610eb157600080fd5b505050604051805160095473ffffffffffffffffffffffffffffffffffffffff33166000908152600f60205260409020549196506fffffffffffffffffffffffffffffffff16945063ffffffff1615159050610f5d57600b805460018101610f198382611f45565b506000918252602090912001805473ffffffffffffffffffffffffffffffffffffffff19163373ffffffffffffffffffffffffffffffffffffffff16179055611029565b73ffffffffffffffffffffffffffffffffffffffff3316600090815260086020526040902054600954610fab916fffffffffffffffffffffffffffffffff918216911663ffffffff611d1f16565b600980546fffffffffffffffffffffffffffffffff19166fffffffffffffffffffffffffffffffff92831617905573ffffffffffffffffffffffffffffffffffffffff87166000908152600e6020526040902060010154600a54611025929091700100000000000000000000000000000000900416611e71565b600a555b73ffffffffffffffffffffffffffffffffffffffff33166000908152600f60205260409020546110659063ffffffff90811690600190611d4616565b3373ffffffffffffffffffffffffffffffffffffffff9081166000908152600f6020526040808220805463ffffffff191663ffffffff95909516949094179093559087169163fa6daea791309151602001526040517c010000000000000000000000000000000000000000000000000000000063ffffffff841602815273ffffffffffffffffffffffffffffffffffffffff9091166004820152602401602060405180830381600087803b151561111b57600080fd5b6102c65a03f1151561112c57600080fd5b5050506040518051925061115a90506fffffffffffffffffffffffffffffffff85168363ffffffff611e7d16565b90506111866fffffffffffffffffffffffffffffffff8216670de0b6b3a764000063ffffffff611efb16565b3373ffffffffffffffffffffffffffffffffffffffff16600090815260086020526040902080546fffffffffffffffffffffffffffffffff19166fffffffffffffffffffffffffffffffff838116919091179091556009549192506111ec911682611d46565b600980546fffffffffffffffffffffffffffffffff19166fffffffffffffffffffffffffffffffff92831617905573ffffffffffffffffffffffffffffffffffffffff87166000908152600e6020526040902060010180548216700100000000000000000000000000000000928716928302179055600a5461126d91611f36565b600a55600954611298906fffffffffffffffffffffffffffffffff858116911663ffffffff611d1f16565b73ffffffffffffffffffffffffffffffffffffffff87166000908152600e6020526040902080546fffffffffffffffffffffffffffffffff92909216670100000000000000027fffffffffffffffffff00000000000000000000000000000000ffffffffffffff90921691909117905560115461131c90600163ffffffff611f3616565b601155505050505050565b6009546fffffffffffffffffffffffffffffffff1681565b600b80548290811061134d57fe5b60009182526020909120015473ffffffffffffffffffffffffffffffffffffffff16905081565b60005473ffffffffffffffffffffffffffffffffffffffff165b90565b60005473ffffffffffffffffffffffffffffffffffffffff1681565b600d80548290811061134d57fe5b60155460ff1681565b60115481565b73ffffffffffffffffffffffffffffffffffffffff81166000908152600e60205260409020805465ff000000000019166501000000000017905560105461141890600163ffffffff611e7116565b60105573ffffffffffffffffffffffffffffffffffffffff81166000908152600e60205260409020805465ff00000000001916908190556601000000000000900460ff16156114f15773ffffffffffffffffffffffffffffffffffffffff81166000908152600c6020526040902054600d8054839261010090046fffffffffffffffffffffffffffffffff169081106114ad57fe5b6000918252602090912001805473ffffffffffffffffffffffffffffffffffffffff191673ffffffffffffffffffffffffffffffffffffffff929092169190911790555b73ffffffffffffffffffffffffffffffffffffffff33166000908152600f60205260409020546115359063ffffffff640100000000909104811690600190611d1f16565b3373ffffffffffffffffffffffffffffffffffffffff9081166000908152600f6020908152604080832080547fffffffffffffffffffffffffffffffffffffffffffffffff00000000ffffffff1664010000000063ffffffff978816021790559285168252600e905220600101546009546115ca926fffffffffffffffffffffffffffffffff918216929190911690611d1f16565b600980546fffffffffffffffffffffffffffffffff19166fffffffffffffffffffffffffffffffff92831617905573ffffffffffffffffffffffffffffffffffffffff8281166000908152600e602090815260408083206001015433909416835260089091529020546105b8929081169116611d1f565b73ffffffffffffffffffffffffffffffffffffffff81166000908152600e60205260408120548190819081908190640100000000900460ff16151560011461168857600080fd5b73ffffffffffffffffffffffffffffffffffffffff86166000908152600e602052604090205465010000000000900460ff16156116c457600080fd5b6010546116d890600163ffffffff611f3616565b60105573ffffffffffffffffffffffffffffffffffffffff86166000908152600e60209081526040808320805465ff0000000000191665010000000000179055600c90915290205460ff161561179b5773ffffffffffffffffffffffffffffffffffffffff86166000908152600c6020526040902054600d8054909161010090046fffffffffffffffffffffffffffffffff1690811061177457fe5b6000918252602090912001805473ffffffffffffffffffffffffffffffffffffffff191690555b3394508473ffffffffffffffffffffffffffffffffffffffff1663ffe6a18e6000604051602001526040518163ffffffff167c0100000000000000000000000000000000000000000000000000000000028152600401602060405180830381600087803b151561180a57600080fd5b6102c65a03f1151561181b57600080fd5b50505060405180516009543373ffffffffffffffffffffffffffffffffffffffff166000908152600f60205260409020549196506fffffffffffffffffffffffffffffffff169450640100000000900463ffffffff16151590506118cf57600b80546001810161188b8382611f45565b506000918252602090912001805473ffffffffffffffffffffffffffffffffffffffff19163373ffffffffffffffffffffffffffffffffffffffff1617905561199b565b73ffffffffffffffffffffffffffffffffffffffff331660009081526008602052604090205460095461191d916fffffffffffffffffffffffffffffffff918216911663ffffffff611d1f16565b600980546fffffffffffffffffffffffffffffffff19166fffffffffffffffffffffffffffffffff92831617905573ffffffffffffffffffffffffffffffffffffffff87166000908152600e6020526040902060010154600a54611997929091700100000000000000000000000000000000900416611e71565b600a555b73ffffffffffffffffffffffffffffffffffffffff33166000908152600f60205260409020546119df9063ffffffff640100000000909104811690600190611d4616565b73ffffffffffffffffffffffffffffffffffffffff3381166000908152600f6020526040808220805463ffffffff95909516640100000000027fffffffffffffffffffffffffffffffffffffffffffffffff00000000ffffffff909516949094179093559087169163fa6daea791309151602001526040517c010000000000000000000000000000000000000000000000000000000063ffffffff841602815273ffffffffffffffffffffffffffffffffffffffff9091166004820152602401602060405180830381600087803b1515611ab857600080fd5b6102c65a03f11515611ac957600080fd5b50505060405180519250611af790506fffffffffffffffffffffffffffffffff85168363ffffffff611e7d16565b9050611b236fffffffffffffffffffffffffffffffff8216670de0b6b3a764000063ffffffff611efb16565b3373ffffffffffffffffffffffffffffffffffffffff16600090815260086020526040902080546fffffffffffffffffffffffffffffffff19166fffffffffffffffffffffffffffffffff83811691909117909155600954919250611b89911682611d46565b600980546fffffffffffffffffffffffffffffffff19166fffffffffffffffffffffffffffffffff92831617905573ffffffffffffffffffffffffffffffffffffffff87166000908152600e6020526040902060010180548216700100000000000000000000000000000000928716928302179055600a54611c0a91611f36565b600a55600954611c32906fffffffffffffffffffffffffffffffff168463ffffffff611d1f16565b73ffffffffffffffffffffffffffffffffffffffff969096166000908152600e6020526040902060010180546fffffffffffffffffffffffffffffffff19166fffffffffffffffffffffffffffffffff909716969096179095555050505050565b600a5481565b6000543373ffffffffffffffffffffffffffffffffffffffff908116911614611cc157600080fd5b73ffffffffffffffffffffffffffffffffffffffff81161515611ce357600080fd5b6000805473ffffffffffffffffffffffffffffffffffffffff191673ffffffffffffffffffffffffffffffffffffffff92909216919091179055565b60006fffffffffffffffffffffffffffffffff8084169083161115611d4057fe5b50900390565b60008282016fffffffffffffffffffffffffffffffff8085169082161015611d6a57fe5b9392505050565b73ffffffffffffffffffffffffffffffffffffffff82166000908152600f6020526040812054611db49063ffffffff6401000000008204811691811690611d4616565b90506fffffffffffffffffffffffffffffffff81161515611e6c5773ffffffffffffffffffffffffffffffffffffffff82166000908152600e6020526040902060010154600a54611e2a9170010000000000000000000000000000000090046fffffffffffffffffffffffffffffffff16611e71565b600a5573ffffffffffffffffffffffffffffffffffffffff82166000908152600e6020526040902060010180546fffffffffffffffffffffffffffffffff1690555b505050565b600082821115611d4057fe5b60008282026fffffffffffffffffffffffffffffffff84161580611ef35750826fffffffffffffffffffffffffffffffff16846fffffffffffffffffffffffffffffffff16826fffffffffffffffffffffffffffffffff16811515611ede57fe5b046fffffffffffffffffffffffffffffffff16145b1515611d6a57fe5b600080826fffffffffffffffffffffffffffffffff16846fffffffffffffffffffffffffffffffff16811515611f2d57fe5b04949350505050565b600082820183811015611d6a57fe5b815481835581811511611e6c57600083815260209020611e6c91810190830161138e91905b80821115611f7e5760008155600101611f6a565b50905600a165627a7a723058201ef45500fa55463f5295d6c8b6247f4d9c3302e079b8761944927ed26b150cca0029",
  "source": "pragma solidity ^0.4.18;\n\nimport '../../libraries/math/SafeMath.sol';\nimport '../../libraries/math/SafeMath128.sol';\nimport '../../interfaces/IMatryxToken.sol';\nimport '../../interfaces/IMatryxPeer.sol';\nimport '../../interfaces/IMatryxPlatform.sol';\nimport '../../interfaces/IMatryxTournament.sol';\nimport '../../interfaces/IMatryxRound.sol';\nimport '../../interfaces/IMatryxSubmission.sol';\nimport '../Ownable.sol';\n\ncontract SubmissionTrust is Ownable\n{\n\tusing SafeMath for uint256;\n\tusing SafeMath128 for uint128;\n\n\t// Parent identification\n\taddress private platformAddress;\n\taddress private tournamentAddress;\n\taddress private roundAddress;\n\t\n\t// Submission\n\tstring title;\n\taddress author;\n\tbytes32 externalAddress;\n\taddress[] references;\n\n\t// Tracks the normalized trust gained through peers approving this submission\n\tmapping(address=>uint128) authorToApprovalTrustGiven;\n\tuint128 public approvalTrust;\n\tuint256 public totalPossibleTrust;\n\taddress[] public approvingPeers;\n\n\t// Tracks the proportion of references this submission has approved\n\tmapping(address=>uint128_optional) missingReferenceToIndex;\n\taddress[] public missingReferences;\n\tmapping(address=>ReferenceInfo) addressToReferenceInfo;\n\tmapping(address=>ReferenceStats) referenceStatsByAuthor;\n\tuint256 public approvedReferences;\n\tuint256 public totalReferenceCount;\n\n\taddress[] contributors;\n\tuint256 timeSubmitted;\n\tuint256 timeUpdated;\n\tbool public publicallyAccessibleDuringTournament;\n\n\tstruct ReferenceInfo\n\t{\n\t\tuint32 index;\n\t\tbool exists;\n\t\tbool approved;\n\t\tbool flagged;\n\t\tuint128 negativeReputationAffect;\n\t\tuint128 positiveReputationAffect;\n\t\tuint128 authorReputation;\n\t}\n\n\tstruct ReferenceStats\n\t{\n\t\tuint32 numberMissing;\n\t\tuint32 numberApproved;\n\t}\n\n\tstruct uint128_optional\n\t{\n\t\tbool exists;\n\t\tuint128 value;\n\t}\n\n\tfunction cleanAuthorTrust(address _referenceAuthor, address _reference) internal\n\t{\n\t\t// If there are no more approved or flagged references by this author,\n\t\t// remove their influence over our reputation (subtract their reputation from\n\t\t// this submission's total possible trust value)\n\t\tuint128 numberApprovedOrMissing = uint128(referenceStatsByAuthor[_referenceAuthor].numberApproved).add(uint128(referenceStatsByAuthor[_referenceAuthor].numberMissing));\n\t\tif(numberApprovedOrMissing == 0)\n\t\t{\n\t\t\ttotalPossibleTrust = totalPossibleTrust.sub(addressToReferenceInfo[_reference].authorReputation);\n\t\t\taddressToReferenceInfo[_reference].authorReputation = 0;\n\t\t}\n\t}\n\n\t/// @dev Add a missing reference to a submission (callable only by submission's owner).\n    /// @param _reference Address of additional reference to include.\n\tfunction addReference(address _reference) public \n\t{\n\t\trequire(addressToReferenceInfo[_reference].exists == false);\n\t\tIMatryxPlatform(platformAddress).handleReferenceRequestForSubmission(_reference);\n\t\treferences.push(_reference);\n\t\taddressToReferenceInfo[_reference].index = uint32(references.length-1);\n\t\taddressToReferenceInfo[_reference].exists = true;\n\n\t\t// We know that the parameter is a valid submission\n\t\t// as deemed by the platform. Therefore we're able to\n\t\t// get it's author without worrying that we don't\n\t\t// know what code we're calling.\n\t\tif(addressToReferenceInfo[_reference].flagged)\n\t\t{\n\t\t\taddress referenceAuthor = IMatryxSubmission(_reference).getAuthor();\n\t\t\tIMatryxPeer(referenceAuthor).removeMissingReferenceFlag(this, _reference);\n\t\t}\n\n\t\tcleanAuthorTrust(referenceAuthor, _reference);\n\t}\n\n\t/// @dev Remove an erroneous reference to a submission (callable only by submission's owner).\n    /// @param _reference Address of reference to remove.\n\tfunction removeReference(address _reference) public\n\t{\n\t\trequire(addressToReferenceInfo[_reference].exists == true);\n\t\tIMatryxPlatform(platformAddress).handleCancelledReferenceRequestForSubmission(_reference);\n\t\t// We know that the parameter is a valid submission\n\t\t// as deemed by the platform. Therefore we're able to\n\t\t// call getAuthor without worrying that we don't\n\t\t// know what code we're calling.\n\t\taddress referenceAuthor = IMatryxSubmission(_reference).getAuthor();\n\t\tif(addressToReferenceInfo[_reference].approved)\n\t\t{\n\t\t\tIMatryxPeer(referenceAuthor).removeReferenceApproval(this, _reference);\n\t\t}\n\n\t\tcleanAuthorTrust(referenceAuthor, _reference);\n\n\t\tuint256 referenceIndex = addressToReferenceInfo[_reference].index;\n\t\tdelete references[referenceIndex];\n\t\tdelete addressToReferenceInfo[_reference];\n\t}\n\n\t/// @dev Called by the owner of _reference when this submission is approved to list _reference\n\t/// as a reference.\n\t/// _reference Reference being approved by msg.sender.\n\tfunction approveReference(address _reference) public\n\t{\n\t\trequire(addressToReferenceInfo[_reference].exists == true);\n  \t\trequire(addressToReferenceInfo[_reference].approved == false);\n\n  \t\t// Update state variables regarding the approved reference\n  \t\tapprovedReferences = approvedReferences.add(1);\n\t\taddressToReferenceInfo[_reference].approved = true;\n\t\tif(missingReferenceToIndex[_reference].exists)\n\t\t{\n\t\t\tdelete missingReferences[missingReferenceToIndex[_reference].value];\n\t\t}\n\n  \t\t// Update submission reputation variables\n\t\tIMatryxPeer peer = IMatryxPeer(msg.sender);\n\t\tuint128 peersReputation = peer.getReputation();\n\t\tuint128 originalTrust = approvalTrust;\n\t\t\n\t\tif(referenceStatsByAuthor[msg.sender].numberApproved == 0)\n\t\t{\t\n\t\t\tapprovingPeers.push(msg.sender);\n\t\t}\n\t\telse\n\t\t{\n\t\t\tapprovalTrust = approvalTrust.sub(authorToApprovalTrustGiven[msg.sender]);\n\t\t\ttotalPossibleTrust = totalPossibleTrust.sub(addressToReferenceInfo[_reference].authorReputation);\n\t\t}\n\n\t\treferenceStatsByAuthor[msg.sender].numberApproved = uint32(uint128(referenceStatsByAuthor[msg.sender].numberApproved).add(1));\n\n\t\tuint128 normalizedProportionOfReferenceApprovals = peer.getApprovedReferenceProportion(this);\n\t\tuint128 trustToAdd = peersReputation.mul(normalizedProportionOfReferenceApprovals);\n\t\ttrustToAdd = trustToAdd.div(1*10**18);\n\t\tauthorToApprovalTrustGiven[msg.sender] = trustToAdd;\n\t\tapprovalTrust = approvalTrust.add(trustToAdd);\n\t\taddressToReferenceInfo[_reference].authorReputation = peersReputation;\n\t\ttotalPossibleTrust = totalPossibleTrust.add(peersReputation);\n\t\t// Store the difference in reputation that approving this reference caused to this submission.\n\t\t// We may need this value if this approval is ever revoked by the trust-lending peer.\n\t\taddressToReferenceInfo[_reference].positiveReputationAffect = approvalTrust.sub(originalTrust);\n\t}\n\n\t/// @dev \t\t\t  Called by the owner of the _reference to remove their approval of a reference\n\t///\t\t \t\t\t  within this submission.\n\t/// @param _reference Reference that peer is revoking the approval of to be included\n\t///\t\t\t\t\t  in this submission.\n\tfunction removeReferenceApproval(address _reference) public\n\t{\n\t\trequire(addressToReferenceInfo[_reference].approved = true);\n\n\t\tapprovedReferences = approvedReferences.sub(1);\n\t\taddressToReferenceInfo[_reference].approved = false;\n\n\t\tif(addressToReferenceInfo[_reference].flagged)\n\t\t{\n\t\t\t// TODO: TEST THIS THOROUGHLY.\n\t\t\tmissingReferences[missingReferenceToIndex[_reference].value] = _reference;\n\t\t}\n\n\t\treferenceStatsByAuthor[msg.sender].numberApproved = uint32(uint128(referenceStatsByAuthor[msg.sender].numberApproved).sub(1));\n\n\t\tapprovalTrust = approvalTrust.sub(addressToReferenceInfo[_reference].positiveReputationAffect);\n\t\tauthorToApprovalTrustGiven[msg.sender] = authorToApprovalTrustGiven[msg.sender].sub(addressToReferenceInfo[_reference].positiveReputationAffect);\n\t}\n\n\t/// @dev \tCalled by the owner of _reference when this submission does not list _reference\n\t/// \t\tas a reference.\n\t/// @param  _reference Missing reference in this submission.\n\tfunction flagMissingReference(address _reference) public\n\t{\n\t\trequire(addressToReferenceInfo[_reference].exists == false);\n  \t\trequire(addressToReferenceInfo[_reference].flagged == false);\n\n\t\t// Update state variables regarding the missing reference\n\t\tmissingReferences.push(_reference);\n\t\tmissingReferenceToIndex[_reference] = uint128_optional(true, uint128(missingReferences.length)-1);\n\t\taddressToReferenceInfo[_reference].flagged = true;\n\t\t\n\t\t// Update submission reputation state variables\n\t\tIMatryxPeer peer = IMatryxPeer(msg.sender);\n\t\tuint128 peersReputation = peer.getReputation();\n\t\tuint128 originalTrust = approvalTrust;\n\n\t\tif(referenceStatsByAuthor[msg.sender].numberMissing == 0)\n\t\t{\n\t\t\tapprovingPeers.push(msg.sender);\n\t\t}\n\t\telse\n\t\t{\n\t\t\tapprovalTrust = approvalTrust.sub(authorToApprovalTrustGiven[msg.sender]);\n\t\t\ttotalPossibleTrust = totalPossibleTrust.sub(addressToReferenceInfo[_reference].authorReputation);\n\t\t}\n\n\t\treferenceStatsByAuthor[msg.sender].numberMissing = uint32(uint128(referenceStatsByAuthor[msg.sender].numberMissing).add(1));\n\n\t\tuint128 normalizedProportionOfReferenceApprovals = peer.getApprovedReferenceProportion(this);\n\t\tuint128 trustToAdd = peersReputation.mul(normalizedProportionOfReferenceApprovals);\n\t\ttrustToAdd = trustToAdd.div(1*10**18);\n\t\tauthorToApprovalTrustGiven[msg.sender] = trustToAdd;\n\t\tapprovalTrust = approvalTrust.add(trustToAdd);\n\t\taddressToReferenceInfo[_reference].authorReputation = peersReputation;\n\t\ttotalPossibleTrust = totalPossibleTrust.add(peersReputation);\n\t\t// Store the difference in reputation that flagging this reference caused to this submission.\n\t\t// We may need this value if this flag is ever revoked by the trust-detracting peer.\n\t\taddressToReferenceInfo[_reference].negativeReputationAffect = originalTrust.sub(approvalTrust);\n\n\t\ttotalReferenceCount = totalReferenceCount.add(1);\n\t}\n\n\t/// @dev \t\t\t  Called by the owner of _reference to remove a missing reference flag placed on a reference\n\t///\t\t \t\t\t  as missing.\n\t/// @param _reference Reference previously marked by peer as missing.\n\tfunction removeMissingReferenceFlag(address _reference) public\n\t{\n\t\t// TODO: Ensure that this reference was previously flagged as missing (MatryxSubmission)\n\t\trequire(addressToReferenceInfo[_reference].flagged == true);\n\n\t\tmissingReferenceToIndex[_reference].exists = false;\n\t\taddressToReferenceInfo[_reference].flagged = false;\n\t\tdelete missingReferences[missingReferenceToIndex[_reference].value];\n\n\t\treferenceStatsByAuthor[msg.sender].numberMissing = uint32(uint128(referenceStatsByAuthor[msg.sender].numberMissing).sub(1));\n\t\t\n\t\tapprovalTrust = approvalTrust.add(addressToReferenceInfo[_reference].negativeReputationAffect);\n\t\tauthorToApprovalTrustGiven[msg.sender] = authorToApprovalTrustGiven[msg.sender].add(addressToReferenceInfo[_reference].negativeReputationAffect);\n\t}\n}",
  "sourcePath": "/Users/maxhoward/Desktop/Ethereum/Development/Matryx AWS/Projects/matryx-alpha-source/contracts/reputation/SubmissionTrust.sol",
  "compiler": {
    "name": "solc",
    "version": "0.4.19+commit.c4cbbb05.Emscripten.clang"
  },
  "schemaVersion": "2.0.0",
  "updatedAt": "2018-03-30T22:31:31.850Z"
}