{
  "contractName": "SubmissionViewer",
  "abi": [
    {
      "constant": false,
      "inputs": [
        {
          "name": "_name",
          "type": "string"
        },
        {
          "name": "_externalAddress",
          "type": "bytes32"
        },
        {
          "name": "_references",
          "type": "address[]"
        },
        {
          "name": "_contributors",
          "type": "address[]"
        },
        {
          "name": "_timeSubmitted",
          "type": "uint256"
        },
        {
          "name": "_submissionOwner",
          "type": "address"
        }
      ],
      "name": "CallSubmissionCreatedEvent",
      "outputs": [],
      "payable": false,
      "stateMutability": "nonpayable",
      "type": "function"
    },
    {
      "anonymous": false,
      "inputs": [
        {
          "indexed": false,
          "name": "name",
          "type": "string"
        },
        {
          "indexed": false,
          "name": "externalAddress",
          "type": "bytes32"
        },
        {
          "indexed": false,
          "name": "references",
          "type": "address[]"
        },
        {
          "indexed": false,
          "name": "contributors",
          "type": "address[]"
        },
        {
          "indexed": false,
          "name": "timeSubmitted",
          "type": "uint256"
        },
        {
          "indexed": false,
          "name": "submissionOwner",
          "type": "address"
        }
      ],
      "name": "SubmissionCreated",
      "type": "event"
    }
  ],
  "bytecode": "0x6060604052341561000f57600080fd5b6103068061001e6000396000f300606060405260043610610041576000357c0100000000000000000000000000000000000000000000000000000000900463ffffffff16806345ef219914610046575b600080fd5b341561005157600080fd5b610156600480803590602001908201803590602001908080601f0160208091040260200160405190810160405280939291908181526020018383808284378201915050505050509190803560001916906020019091908035906020019082018035906020019080806020026020016040519081016040528093929190818152602001838360200280828437820191505050505050919080359060200190820180359060200190808060200260200160405190810160405280939291908181526020018383602002808284378201915050505050509190803590602001909190803573ffffffffffffffffffffffffffffffffffffffff16906020019091905050610158565b005b7ffc989a9618eb34fd6e0f6e0058fa2bd0eac01d863f6626a767b4d8ec647c501c8686868686866040518080602001876000191660001916815260200180602001806020018681526020018573ffffffffffffffffffffffffffffffffffffffff1673ffffffffffffffffffffffffffffffffffffffff16815260200184810384528a818151815260200191508051906020019080838360005b8381101561020d5780820151818401526020810190506101f2565b50505050905090810190601f16801561023a5780820380516001836020036101000a031916815260200191505b50848103835288818151815260200191508051906020019060200280838360005b8381101561027657808201518184015260208101905061025b565b50505050905001848103825287818151815260200191508051906020019060200280838360005b838110156102b857808201518184015260208101905061029d565b50505050905001995050505050505050505060405180910390a15050505050505600a165627a7a723058206c5cc57f30a8a134349894188ffcf72b473aa781322d411edb23bc7f113e0be30029",
  "source": "pragma solidity ^0.4.18;\n\n\nimport './Ownable.sol';\n\n// Allows a user to easily view all tournaments\ncontract SubmissionViewer {\n\t// An event to be fired at the end of every round,\n\t// one time per submission that was created in that round\n\tevent SubmissionCreated(string name, bytes32 externalAddress, address[] references, address[] contributors, uint256 timeSubmitted, address submissionOwner);\n\n\t// Allows another contract to call the SubmissionCreated event\n\t// TODO (IMPORTANT!): Add modifier to gaurantee that only the tournament can call this function.\n\tfunction CallSubmissionCreatedEvent(string _name, bytes32 _externalAddress, address[] _references, address[] _contributors, uint256 _timeSubmitted, address _submissionOwner)\n\t{\n\t\tSubmissionCreated(_name, _externalAddress, _references, _contributors, _timeSubmitted, _submissionOwner);\n\t}\n}",
  "sourcePath": "/Users/maxhoward/Desktop/Ethereum Development/Matryx AWS/Projects/matryx-alpha-source/contracts/SubmissionViewer.sol",
  "compiler": {
    "name": "solc",
    "version": "0.4.18+commit.9cf6e910.Emscripten.clang"
  },
  "schemaVersion": "1.0.1",
  "updatedAt": "2017-12-06T02:09:32.594Z"
}