{
  "contractName": "TestMigrationTarget",
  "abi": [
    {
      "constant": false,
      "inputs": [
        {
          "name": "_spender",
          "type": "address"
        },
        {
          "name": "_value",
          "type": "uint256"
        }
      ],
      "name": "approve",
      "outputs": [
        {
          "name": "",
          "type": "bool"
        }
      ],
      "payable": false,
      "stateMutability": "nonpayable",
      "type": "function"
    },
    {
      "constant": true,
      "inputs": [],
      "name": "totalSupply",
      "outputs": [
        {
          "name": "",
          "type": "uint256"
        }
      ],
      "payable": false,
      "stateMutability": "view",
      "type": "function"
    },
    {
      "constant": false,
      "inputs": [
        {
          "name": "_from",
          "type": "address"
        },
        {
          "name": "_to",
          "type": "address"
        },
        {
          "name": "_value",
          "type": "uint256"
        }
      ],
      "name": "transferFrom",
      "outputs": [
        {
          "name": "",
          "type": "bool"
        }
      ],
      "payable": false,
      "stateMutability": "nonpayable",
      "type": "function"
    },
    {
      "constant": true,
      "inputs": [],
      "name": "originalSupply",
      "outputs": [
        {
          "name": "",
          "type": "uint256"
        }
      ],
      "payable": false,
      "stateMutability": "view",
      "type": "function"
    },
    {
      "constant": true,
      "inputs": [],
      "name": "isUpgradeAgent",
      "outputs": [
        {
          "name": "",
          "type": "bool"
        }
      ],
      "payable": false,
      "stateMutability": "view",
      "type": "function"
    },
    {
      "constant": true,
      "inputs": [
        {
          "name": "_owner",
          "type": "address"
        }
      ],
      "name": "balanceOf",
      "outputs": [
        {
          "name": "balance",
          "type": "uint256"
        }
      ],
      "payable": false,
      "stateMutability": "view",
      "type": "function"
    },
    {
      "constant": true,
      "inputs": [],
      "name": "owner",
      "outputs": [
        {
          "name": "",
          "type": "address"
        }
      ],
      "payable": false,
      "stateMutability": "view",
      "type": "function"
    },
    {
      "constant": false,
      "inputs": [
        {
          "name": "_to",
          "type": "address"
        },
        {
          "name": "_value",
          "type": "uint256"
        }
      ],
      "name": "transfer",
      "outputs": [
        {
          "name": "",
          "type": "bool"
        }
      ],
      "payable": false,
      "stateMutability": "nonpayable",
      "type": "function"
    },
    {
      "constant": true,
      "inputs": [],
      "name": "oldToken",
      "outputs": [
        {
          "name": "",
          "type": "address"
        }
      ],
      "payable": false,
      "stateMutability": "view",
      "type": "function"
    },
    {
      "constant": true,
      "inputs": [
        {
          "name": "_owner",
          "type": "address"
        },
        {
          "name": "_spender",
          "type": "address"
        }
      ],
      "name": "allowance",
      "outputs": [
        {
          "name": "remaining",
          "type": "uint256"
        }
      ],
      "payable": false,
      "stateMutability": "view",
      "type": "function"
    },
    {
      "constant": false,
      "inputs": [
        {
          "name": "newOwner",
          "type": "address"
        }
      ],
      "name": "transferOwnership",
      "outputs": [],
      "payable": false,
      "stateMutability": "nonpayable",
      "type": "function"
    },
    {
      "inputs": [
        {
          "name": "_oldToken",
          "type": "address"
        }
      ],
      "payable": false,
      "stateMutability": "nonpayable",
      "type": "constructor"
    },
    {
      "payable": false,
      "stateMutability": "nonpayable",
      "type": "fallback"
    },
    {
      "anonymous": false,
      "inputs": [
        {
          "indexed": true,
          "name": "from",
          "type": "address"
        },
        {
          "indexed": true,
          "name": "to",
          "type": "address"
        },
        {
          "indexed": false,
          "name": "value",
          "type": "uint256"
        }
      ],
      "name": "Transfer",
      "type": "event"
    },
    {
      "anonymous": false,
      "inputs": [
        {
          "indexed": true,
          "name": "owner",
          "type": "address"
        },
        {
          "indexed": true,
          "name": "spender",
          "type": "address"
        },
        {
          "indexed": false,
          "name": "value",
          "type": "uint256"
        }
      ],
      "name": "Approval",
      "type": "event"
    },
    {
      "constant": false,
      "inputs": [
        {
          "name": "_from",
          "type": "address"
        },
        {
          "name": "_value",
          "type": "uint256"
        }
      ],
      "name": "upgradeFrom",
      "outputs": [],
      "payable": false,
      "stateMutability": "nonpayable",
      "type": "function"
    }
  ],
  "bytecode": "0x608060405234801561001057600080fd5b50604051602080610905833981016040525160008054600160a060020a0319908116331790915560058054600160a060020a0380851691909316179081905516151561005b57600080fd5b80600160a060020a03166318160ddd6040518163ffffffff167c0100000000000000000000000000000000000000000000000000000000028152600401602060405180830381600087803b1580156100b257600080fd5b505af11580156100c6573d6000803e3d6000fd5b505050506040513d60208110156100dc57600080fd5b5051600681905515156100ee57600080fd5b50610807806100fe6000396000f3006080604052600436106100b95763ffffffff7c0100000000000000000000000000000000000000000000000000000000600035041663095ea7b381146100cb57806318160ddd1461011057806323b872dd146101375780634b2ba0dd1461016e57806361d3d7a61461018357806370a0823114610198578063753e88e5146101c65780638da5cb5b146101f9578063a9059cbb14610237578063b31c710a14610268578063dd62ed3e1461027d578063f2fde38b146102b1575b3480156100c557600080fd5b50600080fd5b3480156100d757600080fd5b506100fc73ffffffffffffffffffffffffffffffffffffffff600435166024356102df565b604080519115158252519081900360200190f35b34801561011c57600080fd5b5061012561039b565b60408051918252519081900360200190f35b34801561014357600080fd5b506100fc73ffffffffffffffffffffffffffffffffffffffff600435811690602435166044356103a1565b34801561017a57600080fd5b506101256104e4565b34801561018f57600080fd5b506100fc6104ea565b3480156101a457600080fd5b5061012573ffffffffffffffffffffffffffffffffffffffff600435166104ef565b3480156101d257600080fd5b506101f773ffffffffffffffffffffffffffffffffffffffff60043516602435610517565b005b34801561020557600080fd5b5061020e6105ec565b6040805173ffffffffffffffffffffffffffffffffffffffff9092168252519081900360200190f35b34801561024357600080fd5b506100fc73ffffffffffffffffffffffffffffffffffffffff60043516602435610608565b34801561027457600080fd5b5061020e6106d2565b34801561028957600080fd5b5061012573ffffffffffffffffffffffffffffffffffffffff600435811690602435166106ee565b3480156102bd57600080fd5b506101f773ffffffffffffffffffffffffffffffffffffffff60043516610726565b600081158061031c575033600090815260036020908152604080832073ffffffffffffffffffffffffffffffffffffffff87168452909152902054155b151561032757600080fd5b33600081815260036020908152604080832073ffffffffffffffffffffffffffffffffffffffff881680855290835292819020869055805186815290519293927f8c5be1e5ebec7d5bd14f71427d1e84f3dd0314c0f7b2291e5b200ac8c7c3b925929181900390910190a350600192915050565b60015481565b73ffffffffffffffffffffffffffffffffffffffff8084166000908152600360209081526040808320338452825280832054938616835260029091528120549091906103f3908463ffffffff6107b316565b73ffffffffffffffffffffffffffffffffffffffff8086166000908152600260205260408082209390935590871681522054610435908463ffffffff6107c916565b73ffffffffffffffffffffffffffffffffffffffff861660009081526002602052604090205561046b818463ffffffff6107c916565b73ffffffffffffffffffffffffffffffffffffffff808716600081815260036020908152604080832033845282529182902094909455805187815290519288169391927fddf252ad1be2c89b69c2b068fc378daa952ba7f163c4a11628f55a4df523b3ef929181900390910190a3506001949350505050565b60065481565b600190565b73ffffffffffffffffffffffffffffffffffffffff1660009081526002602052604090205490565b60055473ffffffffffffffffffffffffffffffffffffffff16331461053b57600080fd5b60015461054e908263ffffffff6107b316565b60015573ffffffffffffffffffffffffffffffffffffffff8216600090815260026020526040902054610587908263ffffffff6107b316565b73ffffffffffffffffffffffffffffffffffffffff831660008181526002602090815260408083209490945583518581529351929391927fddf252ad1be2c89b69c2b068fc378daa952ba7f163c4a11628f55a4df523b3ef9281900390910190a35050565b60005473ffffffffffffffffffffffffffffffffffffffff1681565b33600090815260026020526040812054610628908363ffffffff6107c916565b336000908152600260205260408082209290925573ffffffffffffffffffffffffffffffffffffffff851681522054610667908363ffffffff6107b316565b73ffffffffffffffffffffffffffffffffffffffff84166000818152600260209081526040918290209390935580518581529051919233927fddf252ad1be2c89b69c2b068fc378daa952ba7f163c4a11628f55a4df523b3ef9281900390910190a350600192915050565b60055473ffffffffffffffffffffffffffffffffffffffff1681565b73ffffffffffffffffffffffffffffffffffffffff918216600090815260036020908152604080832093909416825291909152205490565b60005473ffffffffffffffffffffffffffffffffffffffff16331461074a57600080fd5b73ffffffffffffffffffffffffffffffffffffffff8116151561076c57600080fd5b600080547fffffffffffffffffffffffff00000000000000000000000000000000000000001673ffffffffffffffffffffffffffffffffffffffff92909216919091179055565b6000828201838110156107c257fe5b9392505050565b6000828211156107d557fe5b509003905600a165627a7a7230582028093ffda57c3c301605273d436bbee526012238692f54bba91f0d2059f647380029",
  "source": "pragma solidity ^0.4.13;\n\nimport \"../UpgradeableToken.sol\";\n\n/**\n * A sample token that is used as a migration testing target.\n *\n * This is not an actual token, but just a stub used in testing.\n */\ncontract TestMigrationTarget is StandardToken, UpgradeAgent {\n\n  UpgradeableToken public oldToken;\n\n  uint public originalSupply;\n\n  function TestMigrationTarget(UpgradeableToken _oldToken) public {\n\n    oldToken = _oldToken;\n\n    // Let's not set bad old token\n    require(address(oldToken) != 0);\n\n    // Let's make sure we have something to migrate\n    originalSupply = _oldToken.totalSupply();\n    require(originalSupply != 0);\n  }\n\n  function upgradeFrom(address _from, uint256 _value) public {\n    require(msg.sender == address(oldToken)); // only upgrade from oldToken\n\n    // Mint new tokens to the migrator\n    totalSupply = totalSupply.add(_value);\n    balances[_from] = balances[_from].add(_value);\n    Transfer(0, _from, _value);\n  }\n\n  function() public {\n    revert();\n  }\n\n}\n",
  "sourcePath": "/Users/ajm/Desktop/matryx/MatryxPlatform/contracts/MatryxToken/test/TestMigrationTarget.sol",
  "compiler": {
    "name": "solc",
    "version": "0.4.24+commit.e67f0147.Emscripten.clang"
  },
  "schemaVersion": "2.0.0",
  "updatedAt": "2018-06-29T21:57:19.168Z"
}