{
  "contractName": "TestMigrationTarget",
  "abi": [
    {
      "constant": false,
      "inputs": [
        {
          "name": "_spender",
          "type": "address"
        },
        {
          "name": "_value",
          "type": "uint256"
        }
      ],
      "name": "approve",
      "outputs": [
        {
          "name": "",
          "type": "bool"
        }
      ],
      "payable": false,
      "stateMutability": "nonpayable",
      "type": "function"
    },
    {
      "constant": true,
      "inputs": [],
      "name": "totalSupply",
      "outputs": [
        {
          "name": "",
          "type": "uint256"
        }
      ],
      "payable": false,
      "stateMutability": "view",
      "type": "function"
    },
    {
      "constant": false,
      "inputs": [
        {
          "name": "_from",
          "type": "address"
        },
        {
          "name": "_to",
          "type": "address"
        },
        {
          "name": "_value",
          "type": "uint256"
        }
      ],
      "name": "transferFrom",
      "outputs": [
        {
          "name": "",
          "type": "bool"
        }
      ],
      "payable": false,
      "stateMutability": "nonpayable",
      "type": "function"
    },
    {
      "constant": true,
      "inputs": [],
      "name": "originalSupply",
      "outputs": [
        {
          "name": "",
          "type": "uint256"
        }
      ],
      "payable": false,
      "stateMutability": "view",
      "type": "function"
    },
    {
      "constant": true,
      "inputs": [],
      "name": "isUpgradeAgent",
      "outputs": [
        {
          "name": "",
          "type": "bool"
        }
      ],
      "payable": false,
      "stateMutability": "view",
      "type": "function"
    },
    {
      "constant": true,
      "inputs": [
        {
          "name": "_owner",
          "type": "address"
        }
      ],
      "name": "balanceOf",
      "outputs": [
        {
          "name": "balance",
          "type": "uint256"
        }
      ],
      "payable": false,
      "stateMutability": "view",
      "type": "function"
    },
    {
      "constant": true,
      "inputs": [],
      "name": "owner",
      "outputs": [
        {
          "name": "",
          "type": "address"
        }
      ],
      "payable": false,
      "stateMutability": "view",
      "type": "function"
    },
    {
      "constant": false,
      "inputs": [
        {
          "name": "_to",
          "type": "address"
        },
        {
          "name": "_value",
          "type": "uint256"
        }
      ],
      "name": "transfer",
      "outputs": [
        {
          "name": "",
          "type": "bool"
        }
      ],
      "payable": false,
      "stateMutability": "nonpayable",
      "type": "function"
    },
    {
      "constant": true,
      "inputs": [],
      "name": "oldToken",
      "outputs": [
        {
          "name": "",
          "type": "address"
        }
      ],
      "payable": false,
      "stateMutability": "view",
      "type": "function"
    },
    {
      "constant": true,
      "inputs": [
        {
          "name": "_owner",
          "type": "address"
        },
        {
          "name": "_spender",
          "type": "address"
        }
      ],
      "name": "allowance",
      "outputs": [
        {
          "name": "remaining",
          "type": "uint256"
        }
      ],
      "payable": false,
      "stateMutability": "view",
      "type": "function"
    },
    {
      "constant": false,
      "inputs": [
        {
          "name": "newOwner",
          "type": "address"
        }
      ],
      "name": "transferOwnership",
      "outputs": [],
      "payable": false,
      "stateMutability": "nonpayable",
      "type": "function"
    },
    {
      "inputs": [
        {
          "name": "_oldToken",
          "type": "address"
        }
      ],
      "payable": false,
      "stateMutability": "nonpayable",
      "type": "constructor"
    },
    {
      "payable": false,
      "stateMutability": "nonpayable",
      "type": "fallback"
    },
    {
      "anonymous": false,
      "inputs": [
        {
          "indexed": true,
          "name": "from",
          "type": "address"
        },
        {
          "indexed": true,
          "name": "to",
          "type": "address"
        },
        {
          "indexed": false,
          "name": "value",
          "type": "uint256"
        }
      ],
      "name": "Transfer",
      "type": "event"
    },
    {
      "anonymous": false,
      "inputs": [
        {
          "indexed": true,
          "name": "owner",
          "type": "address"
        },
        {
          "indexed": true,
          "name": "spender",
          "type": "address"
        },
        {
          "indexed": false,
          "name": "value",
          "type": "uint256"
        }
      ],
      "name": "Approval",
      "type": "event"
    },
    {
      "constant": false,
      "inputs": [
        {
          "name": "_from",
          "type": "address"
        },
        {
          "name": "_value",
          "type": "uint256"
        }
      ],
      "name": "upgradeFrom",
      "outputs": [],
      "payable": false,
      "stateMutability": "nonpayable",
      "type": "function"
    }
  ],
  "bytecode": "0x6060604052341561000f57600080fd5b6040516020806109148339810160405280805160008054600160a060020a03338116600160a060020a0319928316179092556005805483851692169190911790819055919350161515905061006357600080fd5b80600160a060020a03166318160ddd6000604051602001526040518163ffffffff167c0100000000000000000000000000000000000000000000000000000000028152600401602060405180830381600087803b15156100c257600080fd5b6102c65a03f115156100d357600080fd5b50505060405180516006819055151590506100ed57600080fd5b50610817806100fd6000396000f3006060604052600436106100b95763ffffffff7c0100000000000000000000000000000000000000000000000000000000600035041663095ea7b381146100c957806318160ddd1461010c57806323b872dd146101315780634b2ba0dd1461016657806361d3d7a61461017957806370a082311461018c578063753e88e5146101b85780638da5cb5b146101e9578063a9059cbb14610225578063b31c710a14610254578063dd62ed3e14610267578063f2fde38b14610299575b34156100c457600080fd5b600080fd5b34156100d457600080fd5b6100f873ffffffffffffffffffffffffffffffffffffffff600435166024356102c5565b604051901515815260200160405180910390f35b341561011757600080fd5b61011f610385565b60405190815260200160405180910390f35b341561013c57600080fd5b6100f873ffffffffffffffffffffffffffffffffffffffff6004358116906024351660443561038b565b341561017157600080fd5b61011f6104d2565b341561018457600080fd5b6100f86104d8565b341561019757600080fd5b61011f73ffffffffffffffffffffffffffffffffffffffff600435166104dd565b34156101c357600080fd5b6101e773ffffffffffffffffffffffffffffffffffffffff60043516602435610505565b005b34156101f457600080fd5b6101fc6105dc565b60405173ffffffffffffffffffffffffffffffffffffffff909116815260200160405180910390f35b341561023057600080fd5b6100f873ffffffffffffffffffffffffffffffffffffffff600435166024356105f8565b341561025f57600080fd5b6101fc6106de565b341561027257600080fd5b61011f73ffffffffffffffffffffffffffffffffffffffff600435811690602435166106fa565b34156102a457600080fd5b6101e773ffffffffffffffffffffffffffffffffffffffff60043516610732565b6000811580610304575073ffffffffffffffffffffffffffffffffffffffff338116600090815260036020908152604080832093871683529290522054155b151561030f57600080fd5b73ffffffffffffffffffffffffffffffffffffffff338116600081815260036020908152604080832094881680845294909152908190208590557f8c5be1e5ebec7d5bd14f71427d1e84f3dd0314c0f7b2291e5b200ac8c7c3b9259085905190815260200160405180910390a350600192915050565b60015481565b73ffffffffffffffffffffffffffffffffffffffff80841660009081526003602090815260408083203385168452825280832054938616835260029091528120549091906103df908463ffffffff6107c316565b73ffffffffffffffffffffffffffffffffffffffff8086166000908152600260205260408082209390935590871681522054610421908463ffffffff6107d916565b73ffffffffffffffffffffffffffffffffffffffff8616600090815260026020526040902055610457818463ffffffff6107d916565b73ffffffffffffffffffffffffffffffffffffffff808716600081815260036020908152604080832033861684529091529081902093909355908616917fddf252ad1be2c89b69c2b068fc378daa952ba7f163c4a11628f55a4df523b3ef9086905190815260200160405180910390a3506001949350505050565b60065481565b600190565b73ffffffffffffffffffffffffffffffffffffffff1660009081526002602052604090205490565b6005543373ffffffffffffffffffffffffffffffffffffffff90811691161461052d57600080fd5b600154610540908263ffffffff6107c316565b60015573ffffffffffffffffffffffffffffffffffffffff8216600090815260026020526040902054610579908263ffffffff6107c316565b73ffffffffffffffffffffffffffffffffffffffff83166000818152600260205260408082209390935590917fddf252ad1be2c89b69c2b068fc378daa952ba7f163c4a11628f55a4df523b3ef9084905190815260200160405180910390a35050565b60005473ffffffffffffffffffffffffffffffffffffffff1681565b73ffffffffffffffffffffffffffffffffffffffff331660009081526002602052604081205461062e908363ffffffff6107d916565b73ffffffffffffffffffffffffffffffffffffffff3381166000908152600260205260408082209390935590851681522054610670908363ffffffff6107c316565b73ffffffffffffffffffffffffffffffffffffffff80851660008181526002602052604090819020939093559133909116907fddf252ad1be2c89b69c2b068fc378daa952ba7f163c4a11628f55a4df523b3ef9085905190815260200160405180910390a350600192915050565b60055473ffffffffffffffffffffffffffffffffffffffff1681565b73ffffffffffffffffffffffffffffffffffffffff918216600090815260036020908152604080832093909416825291909152205490565b6000543373ffffffffffffffffffffffffffffffffffffffff90811691161461075a57600080fd5b73ffffffffffffffffffffffffffffffffffffffff8116151561077c57600080fd5b600080547fffffffffffffffffffffffff00000000000000000000000000000000000000001673ffffffffffffffffffffffffffffffffffffffff92909216919091179055565b6000828201838110156107d257fe5b9392505050565b6000828211156107e557fe5b509003905600a165627a7a7230582056c48215bdcd86413ad3190fff6994ccbf98f30293e419fa875b98ecf691e2290029",
  "source": "pragma solidity ^0.4.13;\n\nimport \"../UpgradeableToken.sol\";\n\n/**\n * A sample token that is used as a migration testing target.\n *\n * This is not an actual token, but just a stub used in testing.\n */\ncontract TestMigrationTarget is StandardToken, UpgradeAgent {\n\n  UpgradeableToken public oldToken;\n\n  uint public originalSupply;\n\n  function TestMigrationTarget(UpgradeableToken _oldToken) public {\n\n    oldToken = _oldToken;\n\n    // Let's not set bad old token\n    require(address(oldToken) != 0);\n\n    // Let's make sure we have something to migrate\n    originalSupply = _oldToken.totalSupply();\n    require(originalSupply != 0);\n  }\n\n  function upgradeFrom(address _from, uint256 _value) public {\n    require(msg.sender == address(oldToken)); // only upgrade from oldToken\n\n    // Mint new tokens to the migrator\n    totalSupply = totalSupply.add(_value);\n    balances[_from] = balances[_from].add(_value);\n    Transfer(0, _from, _value);\n  }\n\n  function() public {\n    revert();\n  }\n\n}\n",
  "sourcePath": "/Users/maxhoward/Desktop/Ethereum/Development/Matryx AWS/Projects/matryx-alpha-source/contracts/MatryxToken/test/TestMigrationTarget.sol",
  "compiler": {
    "name": "solc",
    "version": "0.4.19+commit.c4cbbb05.Emscripten.clang"
  },
  "schemaVersion": "2.0.0",
  "updatedAt": "2018-03-30T22:31:23.246Z"
}