{
  "contractName": "Tournament",
  "abi": [
    {
      "constant": true,
      "inputs": [],
      "name": "entryFee",
      "outputs": [
        {
          "name": "",
          "type": "uint256"
        }
      ],
      "payable": false,
      "stateMutability": "view",
      "type": "function"
    },
    {
      "constant": true,
      "inputs": [],
      "name": "tournamentOpen",
      "outputs": [
        {
          "name": "",
          "type": "bool"
        }
      ],
      "payable": false,
      "stateMutability": "view",
      "type": "function"
    },
    {
      "constant": true,
      "inputs": [],
      "name": "MTXReward",
      "outputs": [
        {
          "name": "",
          "type": "uint256"
        }
      ],
      "payable": false,
      "stateMutability": "view",
      "type": "function"
    },
    {
      "constant": true,
      "inputs": [],
      "name": "maxRounds",
      "outputs": [
        {
          "name": "",
          "type": "uint256"
        }
      ],
      "payable": false,
      "stateMutability": "view",
      "type": "function"
    },
    {
      "constant": true,
      "inputs": [
        {
          "name": "_string",
          "type": "string"
        }
      ],
      "name": "stringIsEmpty",
      "outputs": [
        {
          "name": "",
          "type": "bool"
        }
      ],
      "payable": false,
      "stateMutability": "pure",
      "type": "function"
    },
    {
      "constant": false,
      "inputs": [
        {
          "name": "_entrantAddress",
          "type": "address"
        }
      ],
      "name": "enterUserInTournament",
      "outputs": [
        {
          "name": "_submissionViewer",
          "type": "address"
        }
      ],
      "payable": false,
      "stateMutability": "nonpayable",
      "type": "function"
    },
    {
      "constant": true,
      "inputs": [
        {
          "name": "_sender",
          "type": "address"
        }
      ],
      "name": "isOwner",
      "outputs": [
        {
          "name": "",
          "type": "bool"
        }
      ],
      "payable": false,
      "stateMutability": "view",
      "type": "function"
    },
    {
      "constant": true,
      "inputs": [],
      "name": "reviewPeriod",
      "outputs": [
        {
          "name": "",
          "type": "uint256"
        }
      ],
      "payable": false,
      "stateMutability": "view",
      "type": "function"
    },
    {
      "constant": true,
      "inputs": [],
      "name": "tournamentOwner",
      "outputs": [
        {
          "name": "",
          "type": "address"
        }
      ],
      "payable": false,
      "stateMutability": "view",
      "type": "function"
    },
    {
      "constant": true,
      "inputs": [],
      "name": "tournamentStartTime",
      "outputs": [
        {
          "name": "",
          "type": "uint256"
        }
      ],
      "payable": false,
      "stateMutability": "view",
      "type": "function"
    },
    {
      "constant": true,
      "inputs": [],
      "name": "getExternalAddress",
      "outputs": [
        {
          "name": "",
          "type": "bytes32"
        }
      ],
      "payable": false,
      "stateMutability": "view",
      "type": "function"
    },
    {
      "constant": true,
      "inputs": [],
      "name": "endOfTournamentTime",
      "outputs": [
        {
          "name": "",
          "type": "uint256"
        }
      ],
      "payable": false,
      "stateMutability": "view",
      "type": "function"
    },
    {
      "constant": false,
      "inputs": [],
      "name": "StartTournament",
      "outputs": [],
      "payable": false,
      "stateMutability": "nonpayable",
      "type": "function"
    },
    {
      "constant": true,
      "inputs": [],
      "name": "updatePublicSubmissions",
      "outputs": [],
      "payable": false,
      "stateMutability": "pure",
      "type": "function"
    },
    {
      "constant": true,
      "inputs": [],
      "name": "currentRound",
      "outputs": [
        {
          "name": "",
          "type": "uint256"
        }
      ],
      "payable": false,
      "stateMutability": "view",
      "type": "function"
    },
    {
      "constant": true,
      "inputs": [],
      "name": "owner",
      "outputs": [
        {
          "name": "",
          "type": "address"
        }
      ],
      "payable": false,
      "stateMutability": "view",
      "type": "function"
    },
    {
      "constant": true,
      "inputs": [],
      "name": "tournamentName",
      "outputs": [
        {
          "name": "",
          "type": "string"
        }
      ],
      "payable": false,
      "stateMutability": "view",
      "type": "function"
    },
    {
      "constant": false,
      "inputs": [],
      "name": "ChooseWinner",
      "outputs": [],
      "payable": false,
      "stateMutability": "nonpayable",
      "type": "function"
    },
    {
      "constant": false,
      "inputs": [
        {
          "name": "_name",
          "type": "string"
        },
        {
          "name": "_externalAddress",
          "type": "bytes32"
        },
        {
          "name": "_references",
          "type": "address[]"
        },
        {
          "name": "_contributors",
          "type": "address[]"
        }
      ],
      "name": "createSubmission",
      "outputs": [
        {
          "name": "_submissionAddress",
          "type": "address"
        }
      ],
      "payable": false,
      "stateMutability": "nonpayable",
      "type": "function"
    },
    {
      "constant": true,
      "inputs": [],
      "name": "platformAddress",
      "outputs": [
        {
          "name": "",
          "type": "address"
        }
      ],
      "payable": false,
      "stateMutability": "view",
      "type": "function"
    },
    {
      "constant": true,
      "inputs": [],
      "name": "roundStartTime",
      "outputs": [
        {
          "name": "",
          "type": "uint256"
        }
      ],
      "payable": false,
      "stateMutability": "view",
      "type": "function"
    },
    {
      "constant": true,
      "inputs": [],
      "name": "roundEndTime",
      "outputs": [
        {
          "name": "",
          "type": "uint256"
        }
      ],
      "payable": false,
      "stateMutability": "view",
      "type": "function"
    },
    {
      "constant": true,
      "inputs": [],
      "name": "getEntryFee",
      "outputs": [
        {
          "name": "",
          "type": "uint256"
        }
      ],
      "payable": false,
      "stateMutability": "view",
      "type": "function"
    },
    {
      "constant": true,
      "inputs": [],
      "name": "externalAddress",
      "outputs": [
        {
          "name": "",
          "type": "bytes32"
        }
      ],
      "payable": false,
      "stateMutability": "view",
      "type": "function"
    },
    {
      "constant": true,
      "inputs": [],
      "name": "timeCreated",
      "outputs": [
        {
          "name": "",
          "type": "uint256"
        }
      ],
      "payable": false,
      "stateMutability": "view",
      "type": "function"
    },
    {
      "constant": false,
      "inputs": [
        {
          "name": "newOwner",
          "type": "address"
        }
      ],
      "name": "transferOwnership",
      "outputs": [],
      "payable": false,
      "stateMutability": "nonpayable",
      "type": "function"
    },
    {
      "inputs": [
        {
          "name": "_tournamentOwner",
          "type": "address"
        },
        {
          "name": "_tournamentName",
          "type": "string"
        },
        {
          "name": "_externalAddress",
          "type": "bytes32"
        },
        {
          "name": "_tournamentStartTime",
          "type": "uint256"
        },
        {
          "name": "_roundStartTime",
          "type": "uint256"
        },
        {
          "name": "_roundEndTime",
          "type": "uint256"
        },
        {
          "name": "_reviewPeriod",
          "type": "uint256"
        },
        {
          "name": "_endOfTournamentTime",
          "type": "uint256"
        },
        {
          "name": "_MTXReward",
          "type": "uint256"
        },
        {
          "name": "_entryFee",
          "type": "uint256"
        },
        {
          "name": "_currentRound",
          "type": "uint256"
        },
        {
          "name": "_maxRounds",
          "type": "uint256"
        }
      ],
      "payable": false,
      "stateMutability": "nonpayable",
      "type": "constructor"
    }
  ],
  "bytecode": "0x60606040526001600d5534156200001557600080fd5b60405162002dab38038062002dab83398101604052808051906020019091908051820191906020018051906020019091908051906020019091908051906020019091908051906020019091908051906020019091908051906020019091908051906020019091908051906020019091908051906020019091908051906020019091905050336000806101000a81548173ffffffffffffffffffffffffffffffffffffffff021916908373ffffffffffffffffffffffffffffffffffffffff16021790555060008c73ffffffffffffffffffffffffffffffffffffffff16141515156200010057600080fd5b6200011f8b620002fc64010000000002620008ae176401000000009004565b1515156200012c57600080fd5b4289101515156200013c57600080fd5b42871115156200014b57600080fd5b600086141515156200015c57600080fd5b42851115156200016b57600080fd5b6000841115156200017b57600080fd5b600082101515156200018c57600080fd5b600081101515156200019d57600080fd5b33600160006101000a81548173ffffffffffffffffffffffffffffffffffffffff021916908373ffffffffffffffffffffffffffffffffffffffff160217905550426006819055508b600360006101000a81548173ffffffffffffffffffffffffffffffffffffffff021916908373ffffffffffffffffffffffffffffffffffffffff1602179055508a600490805190602001906200023e9291906200032b565b50896005816000191690555088600781905550876008819055508660098190555085600a8190555084600b8190555081600c8190555080600d8190555083600f819055508260108190555062000293620003b2565b604051809103906000f0801515620002aa57600080fd5b601360006101000a81548173ffffffffffffffffffffffffffffffffffffffff021916908373ffffffffffffffffffffffffffffffffffffffff160217905550505050505050505050505050620003ff565b600062000308620003c3565b82905060008151141562000320576001915062000325565b600091505b50919050565b828054600181600116156101000203166002900490600052602060002090601f016020900481019282601f106200036e57805160ff19168380011785556200039f565b828001600101855582156200039f579182015b828111156200039e57825182559160200191906001019062000381565b5b509050620003ae9190620003d7565b5090565b6040516103248062002a8783390190565b602060405190810160405280600081525090565b620003fc91905b80821115620003f8576000816000905550600101620003de565b5090565b90565b612678806200040f6000396000f3006060604052600436106200016f576000357c0100000000000000000000000000000000000000000000000000000000900463ffffffff168063072ea61c14620001745780631147659914620001a057806316bffb3b14620001d05780631faf969b14620001fc5780632678e7cf146200022857806328d576d714620002a05780632f54bf6e146200031c5780633b2498101462000370578063563b39dc146200039c57806358a5b0f614620003f45780635c11a3e414620004205780635cb116bd146200045457806380ce04e8146200048057806384c7dee314620004985780638a19c8bc14620004b05780638da5cb5b14620004dc578063a21190d21462000534578063a43628f614620005c8578063af45718b14620005e0578063dbe55e56146200070d578063dd4f8f741462000765578063e40205d61462000791578063e586a4f014620007bd578063e70347bb14620007e9578063f1653f6e146200081d578063f2fde38b1462000849575b600080fd5b34156200018057600080fd5b6200018a62000885565b6040518082815260200191505060405180910390f35b3415620001ac57600080fd5b620001b66200088b565b604051808215151515815260200191505060405180910390f35b3415620001dc57600080fd5b620001e6620008a2565b6040518082815260200191505060405180910390f35b34156200020857600080fd5b62000212620008a8565b6040518082815260200191505060405180910390f35b34156200023457600080fd5b62000286600480803590602001908201803590602001908080601f01602080910402602001604051908101604052809392919081815260200183838082843782019150505050505091905050620008ae565b604051808215151515815260200191505060405180910390f35b3415620002ac57600080fd5b620002da600480803573ffffffffffffffffffffffffffffffffffffffff16906020019091905050620008dd565b604051808273ffffffffffffffffffffffffffffffffffffffff1673ffffffffffffffffffffffffffffffffffffffff16815260200191505060405180910390f35b34156200032857600080fd5b62000356600480803573ffffffffffffffffffffffffffffffffffffffff16906020019091905050620009be565b604051808215151515815260200191505060405180910390f35b34156200037c57600080fd5b6200038662000a1c565b6040518082815260200191505060405180910390f35b3415620003a857600080fd5b620003b262000a22565b604051808273ffffffffffffffffffffffffffffffffffffffff1673ffffffffffffffffffffffffffffffffffffffff16815260200191505060405180910390f35b34156200040057600080fd5b6200040a62000a48565b6040518082815260200191505060405180910390f35b34156200042c57600080fd5b6200043662000a4e565b60405180826000191660001916815260200191505060405180910390f35b34156200046057600080fd5b6200046a62000a58565b6040518082815260200191505060405180910390f35b34156200048c57600080fd5b6200049662000a5e565b005b3415620004a457600080fd5b620004ae62000ad7565b005b3415620004bc57600080fd5b620004c662000ad9565b6040518082815260200191505060405180910390f35b3415620004e857600080fd5b620004f262000adf565b604051808273ffffffffffffffffffffffffffffffffffffffff1673ffffffffffffffffffffffffffffffffffffffff16815260200191505060405180910390f35b34156200054057600080fd5b6200054a62000b04565b6040518080602001828103825283818151815260200191508051906020019080838360005b838110156200058c5780820151818401526020810190506200056f565b50505050905090810190601f168015620005ba5780820380516001836020036101000a031916815260200191505b509250505060405180910390f35b3415620005d457600080fd5b620005de62000ba6565b005b3415620005ec57600080fd5b620006cb600480803590602001908201803590602001908080601f0160208091040260200160405190810160405280939291908181526020018383808284378201915050505050509190803560001916906020019091908035906020019082018035906020019080806020026020016040519081016040528093929190818152602001838360200280828437820191505050505050919080359060200190820180359060200190808060200260200160405190810160405280939291908181526020018383602002808284378201915050505050509190505062000c1f565b604051808273ffffffffffffffffffffffffffffffffffffffff1673ffffffffffffffffffffffffffffffffffffffff16815260200191505060405180910390f35b34156200071957600080fd5b62000723620010c5565b604051808273ffffffffffffffffffffffffffffffffffffffff1673ffffffffffffffffffffffffffffffffffffffff16815260200191505060405180910390f35b34156200077157600080fd5b6200077b620010eb565b6040518082815260200191505060405180910390f35b34156200079d57600080fd5b620007a7620010f1565b6040518082815260200191505060405180910390f35b3415620007c957600080fd5b620007d3620010f7565b6040518082815260200191505060405180910390f35b3415620007f557600080fd5b620007ff62001101565b60405180826000191660001916815260200191505060405180910390f35b34156200082957600080fd5b6200083362001107565b6040518082815260200191505060405180910390f35b34156200085557600080fd5b62000883600480803573ffffffffffffffffffffffffffffffffffffffff169060200190919050506200110d565b005b60105481565b6000600e60009054906101000a900460ff16905090565b600f5481565b600d5481565b6000620008ba620011e9565b829050600081511415620008d25760019150620008d7565b600091505b50919050565b60003373ffffffffffffffffffffffffffffffffffffffff16600160009054906101000a900473ffffffffffffffffffffffffffffffffffffffff1673ffffffffffffffffffffffffffffffffffffffff161415156200093c57600080fd5b6001601460008473ffffffffffffffffffffffffffffffffffffffff1673ffffffffffffffffffffffffffffffffffffffff16815260200190815260200160002060006101000a81548160ff021916908315150217905550601360009054906101000a900473ffffffffffffffffffffffffffffffffffffffff169050919050565b6000806000809054906101000a900473ffffffffffffffffffffffffffffffffffffffff1673ffffffffffffffffffffffffffffffffffffffff168373ffffffffffffffffffffffffffffffffffffffff1614905080915050919050565b600a5481565b600360009054906101000a900473ffffffffffffffffffffffffffffffffffffffff1681565b60075481565b6000600554905090565b600b5481565b6000809054906101000a900473ffffffffffffffffffffffffffffffffffffffff1673ffffffffffffffffffffffffffffffffffffffff163373ffffffffffffffffffffffffffffffffffffffff1614151562000aba57600080fd5b6001600e60006101000a81548160ff021916908315150217905550565b565b600c5481565b6000809054906101000a900473ffffffffffffffffffffffffffffffffffffffff1681565b60048054600181600116156101000203166002900480601f01602080910402602001604051908101604052809291908181526020018280546001816001161561010002031660029004801562000b9e5780601f1062000b725761010080835404028352916020019162000b9e565b820191906000526020600020905b81548152906001019060200180831162000b8057829003601f168201915b505050505081565b6000809054906101000a900473ffffffffffffffffffffffffffffffffffffffff1673ffffffffffffffffffffffffffffffffffffffff163373ffffffffffffffffffffffffffffffffffffffff1614151562000c0257600080fd5b6000600e60006101000a81548160ff021916908315150217905550565b600080600080601460003373ffffffffffffffffffffffffffffffffffffffff1673ffffffffffffffffffffffffffffffffffffffff16815260200190815260200160002060009054906101000a900460ff16905080151562000c8157600080fd5b6001151562000c8f57600080fd5b6001151562000c9d57600080fd5b42925030600360009054906101000a900473ffffffffffffffffffffffffffffffffffffffff16338a8a8a8a8960095462000cd7620011fd565b808a73ffffffffffffffffffffffffffffffffffffffff1673ffffffffffffffffffffffffffffffffffffffff1681526020018973ffffffffffffffffffffffffffffffffffffffff1673ffffffffffffffffffffffffffffffffffffffff1681526020018873ffffffffffffffffffffffffffffffffffffffff1673ffffffffffffffffffffffffffffffffffffffff168152602001806020018760001916600019168152602001806020018060200186815260200185815260200184810384528a818151815260200191508051906020019080838360005b8381101562000dce57808201518184015260208101905062000db1565b50505050905090810190601f16801562000dfc5780820380516001836020036101000a031916815260200191505b50848103835288818151815260200191508051906020019060200280838360005b8381101562000e3a57808201518184015260208101905062000e1d565b50505050905001848103825287818151815260200191508051906020019060200280838360005b8381101562000e7e57808201518184015260208101905062000e61565b505050509050019c50505050505050505050505050604051809103906000f080151562000eaa57600080fd5b9150876002908051906020019062000ec49291906200120e565b50601360009054906101000a900473ffffffffffffffffffffffffffffffffffffffff1673ffffffffffffffffffffffffffffffffffffffff166345ef219989600554898988336040518763ffffffff167c01000000000000000000000000000000000000000000000000000000000281526004018080602001876000191660001916815260200180602001806020018681526020018573ffffffffffffffffffffffffffffffffffffffff1673ffffffffffffffffffffffffffffffffffffffff16815260200184810384528a818151815260200191508051906020019080838360005b8381101562000fc657808201518184015260208101905062000fa9565b50505050905090810190601f16801562000ff45780820380516001836020036101000a031916815260200191505b50848103835288818151815260200191508051906020019060200280838360005b838110156200103257808201518184015260208101905062001015565b50505050905001848103825287818151815260200191508051906020019060200280838360005b838110156200107657808201518184015260208101905062001059565b505050509050019950505050505050505050600060405180830381600087803b1515620010a257600080fd5b6102c65a03f11515620010b457600080fd5b505050819350505050949350505050565b600160009054906101000a900473ffffffffffffffffffffffffffffffffffffffff1681565b60085481565b60095481565b6000601054905090565b60055481565b60065481565b6000809054906101000a900473ffffffffffffffffffffffffffffffffffffffff1673ffffffffffffffffffffffffffffffffffffffff163373ffffffffffffffffffffffffffffffffffffffff161415156200116957600080fd5b600073ffffffffffffffffffffffffffffffffffffffff168173ffffffffffffffffffffffffffffffffffffffff1614151515620011a657600080fd5b806000806101000a81548173ffffffffffffffffffffffffffffffffffffffff021916908373ffffffffffffffffffffffffffffffffffffffff16021790555050565b602060405190810160405280600081525090565b60405161138f80620012be83390190565b828054600181600116156101000203166002900490600052602060002090601f016020900481019282601f106200125157805160ff191683800117855562001282565b8280016001018555821562001282579182015b828111156200128157825182559160200191906001019062001264565b5b50905062001291919062001295565b5090565b620012ba91905b80821115620012b65760008160009055506001016200129c565b5090565b905600606060405234156200001057600080fd5b6040516200138f3803806200138f83398101604052808051906020019091908051906020019091908051906020019091908051820191906020018051906020019091908051820191906020018051820191906020018051906020019091908051906020019091905050336000806101000a81548173ffffffffffffffffffffffffffffffffffffffff021916908373ffffffffffffffffffffffffffffffffffffffff16021790555060008773ffffffffffffffffffffffffffffffffffffffff1614151515620000e057600080fd5b88600160006101000a81548173ffffffffffffffffffffffffffffffffffffffff021916908373ffffffffffffffffffffffffffffffffffffffff16021790555087600260006101000a81548173ffffffffffffffffffffffffffffffffffffffff021916908373ffffffffffffffffffffffffffffffffffffffff16021790555085600390805190602001906200017a92919062000216565b5086600460006101000a81548173ffffffffffffffffffffffffffffffffffffffff021916908373ffffffffffffffffffffffffffffffffffffffff1602179055508360059080519060200190620001d49291906200029d565b508260069080519060200190620001ed9291906200029d565b50846007816000191690555081600881905550806009819055505050505050505050506200039a565b828054600181600116156101000203166002900490600052602060002090601f016020900481019282601f106200025957805160ff19168380011785556200028a565b828001600101855582156200028a579182015b82811115620002895782518255916020019190600101906200026c565b5b5090506200029991906200032c565b5090565b82805482825590600052602060002090810192821562000319579160200282015b82811115620003185782518260006101000a81548173ffffffffffffffffffffffffffffffffffffffff021916908373ffffffffffffffffffffffffffffffffffffffff16021790555091602001919060010190620002be565b5b50905062000328919062000354565b5090565b6200035191905b808211156200034d57600081600090555060010162000333565b5090565b90565b6200039791905b808211156200039357600081816101000a81549073ffffffffffffffffffffffffffffffffffffffff0219169055506001016200035b565b5090565b90565b610fe580620003aa6000396000f3006060604052600436106100ba576000357c0100000000000000000000000000000000000000000000000000000000900463ffffffff16806303d66a97146100bf578063433bcd6114610114578063563b39dc146101695780635c11a3e4146101be5780637a6337fa146101ef5780638da5cb5b146102595780639ba1941b146102ae578063ae1ca692146102d7578063af157c1914610300578063f2fde38b1461036a578063f5c758d6146103a3578063f73c970f146103b8575b600080fd5b34156100ca57600080fd5b6100d261040d565b604051808273ffffffffffffffffffffffffffffffffffffffff1673ffffffffffffffffffffffffffffffffffffffff16815260200191505060405180910390f35b341561011f57600080fd5b610127610433565b604051808273ffffffffffffffffffffffffffffffffffffffff1673ffffffffffffffffffffffffffffffffffffffff16815260200191505060405180910390f35b341561017457600080fd5b61017c610604565b604051808273ffffffffffffffffffffffffffffffffffffffff1673ffffffffffffffffffffffffffffffffffffffff16815260200191505060405180910390f35b34156101c957600080fd5b6101d161062a565b60405180826000191660001916815260200191505060405180910390f35b34156101fa57600080fd5b6102026107db565b6040518080602001828103825283818151815260200191508051906020019060200280838360005b8381101561024557808201518184015260208101905061022a565b505050509050019250505060405180910390f35b341561026457600080fd5b61026c610a16565b604051808273ffffffffffffffffffffffffffffffffffffffff1673ffffffffffffffffffffffffffffffffffffffff16815260200191505060405180910390f35b34156102b957600080fd5b6102c1610a3b565b6040518082815260200191505060405180910390f35b34156102e257600080fd5b6102ea610a41565b6040518082815260200191505060405180910390f35b341561030b57600080fd5b610313610bf2565b6040518080602001828103825283818151815260200191508051906020019060200280838360005b8381101561035657808201518184015260208101905061033b565b505050509050019250505060405180910390f35b341561037557600080fd5b6103a1600480803573ffffffffffffffffffffffffffffffffffffffff16906020019091905050610e2d565b005b34156103ae57600080fd5b6103b6610f07565b005b34156103c357600080fd5b6103cb610f7f565b604051808273ffffffffffffffffffffffffffffffffffffffff1673ffffffffffffffffffffffffffffffffffffffff16815260200191505060405180910390f35b600160009054906101000a900473ffffffffffffffffffffffffffffffffffffffff1681565b6000806000806000600160009054906101000a900473ffffffffffffffffffffffffffffffffffffffff1693508373ffffffffffffffffffffffffffffffffffffffff16632f54bf6e336000604051602001526040518263ffffffff167c0100000000000000000000000000000000000000000000000000000000028152600401808273ffffffffffffffffffffffffffffffffffffffff1673ffffffffffffffffffffffffffffffffffffffff168152602001915050602060405180830381600087803b151561050357600080fd5b6102c65a03f1151561051457600080fd5b505050604051805190509250600a60009054906101000a900460ff1691508373ffffffffffffffffffffffffffffffffffffffff1663114765996000604051602001526040518163ffffffff167c0100000000000000000000000000000000000000000000000000000000028152600401602060405180830381600087803b151561059e57600080fd5b6102c65a03f115156105af57600080fd5b5050506040518051905015905082806105c55750815b806105cd5750805b15156105d857600080fd5b600460009054906101000a900473ffffffffffffffffffffffffffffffffffffffff1694505050505090565b600260009054906101000a900473ffffffffffffffffffffffffffffffffffffffff1681565b6000806000806000600160009054906101000a900473ffffffffffffffffffffffffffffffffffffffff1693508373ffffffffffffffffffffffffffffffffffffffff16632f54bf6e336000604051602001526040518263ffffffff167c0100000000000000000000000000000000000000000000000000000000028152600401808273ffffffffffffffffffffffffffffffffffffffff1673ffffffffffffffffffffffffffffffffffffffff168152602001915050602060405180830381600087803b15156106fa57600080fd5b6102c65a03f1151561070b57600080fd5b505050604051805190509250600a60009054906101000a900460ff1691508373ffffffffffffffffffffffffffffffffffffffff1663114765996000604051602001526040518163ffffffff167c0100000000000000000000000000000000000000000000000000000000028152600401602060405180830381600087803b151561079557600080fd5b6102c65a03f115156107a657600080fd5b5050506040518051905015905082806107bc5750815b806107c45750805b15156107cf57600080fd5b60075494505050505090565b6107e3610fa5565b600080600080600160009054906101000a900473ffffffffffffffffffffffffffffffffffffffff1693508373ffffffffffffffffffffffffffffffffffffffff16632f54bf6e336000604051602001526040518263ffffffff167c0100000000000000000000000000000000000000000000000000000000028152600401808273ffffffffffffffffffffffffffffffffffffffff1673ffffffffffffffffffffffffffffffffffffffff168152602001915050602060405180830381600087803b15156108b157600080fd5b6102c65a03f115156108c257600080fd5b505050604051805190509250600a60009054906101000a900460ff1691508373ffffffffffffffffffffffffffffffffffffffff1663114765996000604051602001526040518163ffffffff167c0100000000000000000000000000000000000000000000000000000000028152600401602060405180830381600087803b151561094c57600080fd5b6102c65a03f1151561095d57600080fd5b5050506040518051905015905082806109735750815b8061097b5750805b151561098657600080fd5b6005805480602002602001604051908101604052809291908181526020018280548015610a0857602002820191906000526020600020905b8160009054906101000a900473ffffffffffffffffffffffffffffffffffffffff1673ffffffffffffffffffffffffffffffffffffffff16815260200190600101908083116109be575b505050505094505050505090565b6000809054906101000a900473ffffffffffffffffffffffffffffffffffffffff1681565b60085481565b6000806000806000600160009054906101000a900473ffffffffffffffffffffffffffffffffffffffff1693508373ffffffffffffffffffffffffffffffffffffffff16632f54bf6e336000604051602001526040518263ffffffff167c0100000000000000000000000000000000000000000000000000000000028152600401808273ffffffffffffffffffffffffffffffffffffffff1673ffffffffffffffffffffffffffffffffffffffff168152602001915050602060405180830381600087803b1515610b1157600080fd5b6102c65a03f11515610b2257600080fd5b505050604051805190509250600a60009054906101000a900460ff1691508373ffffffffffffffffffffffffffffffffffffffff1663114765996000604051602001526040518163ffffffff167c0100000000000000000000000000000000000000000000000000000000028152600401602060405180830381600087803b1515610bac57600080fd5b6102c65a03f11515610bbd57600080fd5b505050604051805190501590508280610bd35750815b80610bdb5750805b1515610be657600080fd5b60085494505050505090565b610bfa610fa5565b600080600080600160009054906101000a900473ffffffffffffffffffffffffffffffffffffffff1693508373ffffffffffffffffffffffffffffffffffffffff16632f54bf6e336000604051602001526040518263ffffffff167c0100000000000000000000000000000000000000000000000000000000028152600401808273ffffffffffffffffffffffffffffffffffffffff1673ffffffffffffffffffffffffffffffffffffffff168152602001915050602060405180830381600087803b1515610cc857600080fd5b6102c65a03f11515610cd957600080fd5b505050604051805190509250600a60009054906101000a900460ff1691508373ffffffffffffffffffffffffffffffffffffffff1663114765996000604051602001526040518163ffffffff167c0100000000000000000000000000000000000000000000000000000000028152600401602060405180830381600087803b1515610d6357600080fd5b6102c65a03f11515610d7457600080fd5b505050604051805190501590508280610d8a5750815b80610d925750805b1515610d9d57600080fd5b6006805480602002602001604051908101604052809291908181526020018280548015610e1f57602002820191906000526020600020905b8160009054906101000a900473ffffffffffffffffffffffffffffffffffffffff1673ffffffffffffffffffffffffffffffffffffffff1681526020019060010190808311610dd5575b505050505094505050505090565b6000809054906101000a900473ffffffffffffffffffffffffffffffffffffffff1673ffffffffffffffffffffffffffffffffffffffff163373ffffffffffffffffffffffffffffffffffffffff16141515610e8857600080fd5b600073ffffffffffffffffffffffffffffffffffffffff168173ffffffffffffffffffffffffffffffffffffffff1614151515610ec457600080fd5b806000806101000a81548173ffffffffffffffffffffffffffffffffffffffff021916908373ffffffffffffffffffffffffffffffffffffffff16021790555050565b6000809054906101000a900473ffffffffffffffffffffffffffffffffffffffff1673ffffffffffffffffffffffffffffffffffffffff163373ffffffffffffffffffffffffffffffffffffffff16141515610f6257600080fd5b6001600a60006101000a81548160ff021916908315150217905550565b600460009054906101000a900473ffffffffffffffffffffffffffffffffffffffff1681565b6020604051908101604052806000815250905600a165627a7a72305820af9c1087845815b227fbfcee61d24d3a5f01e15ed6cee95906fd5711cab9a6ec0029a165627a7a7230582056532a9b1bea303640b3c053ef62c752c72bc7b054e3bb5d6ccacdf0e4f7a91e00296060604052341561000f57600080fd5b6103068061001e6000396000f300606060405260043610610041576000357c0100000000000000000000000000000000000000000000000000000000900463ffffffff16806345ef219914610046575b600080fd5b341561005157600080fd5b610156600480803590602001908201803590602001908080601f0160208091040260200160405190810160405280939291908181526020018383808284378201915050505050509190803560001916906020019091908035906020019082018035906020019080806020026020016040519081016040528093929190818152602001838360200280828437820191505050505050919080359060200190820180359060200190808060200260200160405190810160405280939291908181526020018383602002808284378201915050505050509190803590602001909190803573ffffffffffffffffffffffffffffffffffffffff16906020019091905050610158565b005b7ffc989a9618eb34fd6e0f6e0058fa2bd0eac01d863f6626a767b4d8ec647c501c8686868686866040518080602001876000191660001916815260200180602001806020018681526020018573ffffffffffffffffffffffffffffffffffffffff1673ffffffffffffffffffffffffffffffffffffffff16815260200184810384528a818151815260200191508051906020019080838360005b8381101561020d5780820151818401526020810190506101f2565b50505050905090810190601f16801561023a5780820380516001836020036101000a031916815260200191505b50848103835288818151815260200191508051906020019060200280838360005b8381101561027657808201518184015260208101905061025b565b50505050905001848103825287818151815260200191508051906020019060200280838360005b838110156102b857808201518184015260208101905061029d565b50505050905001995050505050505050505060405180910390a15050505050505600a165627a7a723058206c5cc57f30a8a134349894188ffcf72b473aa781322d411edb23bc7f113e0be30029",
  "source": "pragma solidity ^0.4.18;\n\nimport './Ownable.sol';\nimport './Submission.sol';\nimport './SubmissionViewer.sol';\n\n///Creating a Tournament and the functionality\ncontract Tournament is Ownable {\n\n    //Platform identification\n    address public platformAddress;\n\n    //Tournament identification\n    string name;\n    address public tournamentOwner;\n    string public tournamentName;\n    bytes32 public externalAddress;\n\n    // Timing\n    uint256 public timeCreated;\n    uint256 public tournamentStartTime;\n    uint256 public roundStartTime;\n    uint256 public roundEndTime;\n    uint256 public reviewPeriod;\n    uint256 public endOfTournamentTime;\n    uint public currentRound; //0\n    uint public maxRounds = 1;\n    bool public tournamentOpen;\n\n    // Reward and fee\n    uint public MTXReward;\n    uint256 public entryFee;\n\n    // Submission tracking\n    address[] private submissionList;\n    string[] private submissionNames;\n    SubmissionViewer private submissionViewer;\n    mapping(address => bool) private isEntrant;\n\n    // Tournament Constructor\n    function Tournament(address _tournamentOwner, string _tournamentName, bytes32 _externalAddress, uint256 _tournamentStartTime, uint256 _roundStartTime, uint256 _roundEndTime, uint256 _reviewPeriod, \n        uint256 _endOfTournamentTime, uint256 _MTXReward, uint256 _entryFee, uint _currentRound, uint _maxRounds) public {\n        //Clean the inputs\n        //Clean inputs\n        require(_tournamentOwner != 0x0);\n        require(!stringIsEmpty(_tournamentName));\n        require(_tournamentStartTime >= now);\n        require(_roundEndTime > now);\n        require(_reviewPeriod != 0);\n        require(_endOfTournamentTime >  now);\n        require(_MTXReward > 0);\n        require(_currentRound >= 0);\n        require(_maxRounds >= 0);\n\n        platformAddress = msg.sender;\n        timeCreated = now;\n\n        // Constructor assignments\n        // Identification\n        tournamentOwner = _tournamentOwner;\n        tournamentName = _tournamentName;\n        externalAddress = _externalAddress;\n        // Timing & Rounds\n        tournamentStartTime = _tournamentStartTime;\n        roundStartTime = _roundStartTime;\n        roundEndTime = _roundEndTime;\n        reviewPeriod = _reviewPeriod;\n        endOfTournamentTime = _endOfTournamentTime;\n        currentRound = _currentRound;\n        maxRounds = _maxRounds;\n        // Reward and fee\n        MTXReward = _MTXReward;\n        entryFee = _entryFee;\n        // Submission viewing\n        submissionViewer = new SubmissionViewer();\n    }\n\n    // ----------------- Modifiers -----------------\n\n    // Modifier requiring function caller to be the platform \n    modifier onlyPlatform()\n    {\n        require(platformAddress == msg.sender);\n        _;\n    }\n\n    // Modifier requiring function caller to be an entrant\n    modifier onlyEntrant()\n    {\n        bool senderIsEntrant = isEntrant[msg.sender];\n        require(senderIsEntrant);\n        _;\n    }\n\n    // Modifier requiring the round to be open\n    modifier whileRoundOpen()\n    {\n        // TODO: Implement me!\n        require(true);\n        _;\n    }\n\n    // Modifier requiring the tournament to be open\n    modifier whileTournamentOpen()\n    {\n        // TODO: Implement me!\n        require(true);\n\n        /* Sam's logic\n        * Logic for active vs. inactive tournaments\n        * tournamentOpen = true;\n        * if(endOfTournamentTime <= now){\n        *     tournamentOpen = false;\n        * }\n\n            if(tournamentOpen == true){\n        */\n\n        /*\n         *   Max's logic: \n         *   if(maxRounds > 0)\n         *   {\n         *\n         *   }\n         *   else if(roundEndTime < now)\n         *   {\n         *       require(tournamentOpen);\n         *   }\n         */\n\n         _;\n    }\n\n    // ----------------- Accessor Methods -----------------\n\n    // Returns true if a given address is the owner (an owner...?) of this tournament\n    function isOwner(address _sender) public view returns (bool)\n    {\n        bool senderIsOwner = _sender == owner;\n        return senderIsOwner;\n    }\n\n    // Returns true if the tournament is open\n    function tournamentOpen() public view returns (bool)\n    {\n        return tournamentOpen;\n    }\n\n    // Returns the external address of the tournament\n    function getExternalAddress() public view returns (bytes32)\n    {\n        return externalAddress;\n    }\n\n    // ----------------- Tournament Administration Methods -----------------\n\n    // TODO: Refactor so that the owner is actually the owner and not the platform.\n\n    // Called by the owner to start the tournament\n    function StartTournament() public onlyOwner\n    {\n        // TODO: Implement me!\n        tournamentOpen = true;\n    }\n\n    // Updates the submissions visible via the SubmissionViewer\n    function updatePublicSubmissions() public pure\n    {\n        // TODO: Implement me!\n        // Foreach submission made in a previous round,\n        // send an event from \n    }\n\n    // To be called by the tournament owner to choose a tournament winner\n    function ChooseWinner() public onlyOwner\n    {\n        // TODO: Implement me!\n        tournamentOpen = false;\n        // Tell each submission that the tournament is over?\n        // (See Submission::whenAccessible)\n    }\n\n    // ----------------- Tournament Entry Methods -----------------\n\n    // Enters the user into the tournament and returns to them\n    // the address of the submissionViewer, which generates events\n    // for submissions made during previous rounds of the tournament.\n    function enterUserInTournament(address _entrantAddress) public onlyPlatform returns (address _submissionViewer)\n    {\n        isEntrant[_entrantAddress] = true;\n        return address(submissionViewer);\n    }\n\n    // Returns the fee in MTX to be payed by a prospective entrant\n    // to the tournament\n    function getEntryFee() public view returns (uint256)\n    {\n        return entryFee;\n    }\n\n    // ----------------- Submission Methods -----------------\n\n    // Creates a submission under this tournament\n    function createSubmission(string _name, bytes32 _externalAddress, address[] _references, address[] _contributors) public onlyEntrant whileRoundOpen whileTournamentOpen returns (address _submissionAddress) {\n\n        uint256 timeSubmitted = now;\n        address newSubmission = new Submission(this, tournamentOwner, msg.sender, _name, _externalAddress, _references, _contributors, timeSubmitted, roundEndTime);\n\n        name = _name;\n\n        // TODO: Remove this event call and place all calls to it in updatePublicSubmissions.\n        // Do this after the round logic has been ironed out.\n        submissionViewer.CallSubmissionCreatedEvent(_name, externalAddress, _references, _contributors, timeSubmitted, msg.sender);\n\n        return address(newSubmission);\n    }\n\n    // Helper function.\n    // TODO: Move to library.\n    function stringIsEmpty(string _string) public pure returns (bool)\n    {\n        bytes memory bytesString = bytes(_string); // Uses memory\n        if (bytesString.length == 0) \n        {\n            return true;\n        }\n        else\n        {\n            return false;\n        }\n    }\n    \n\n} // end of Tournament contract",
  "sourcePath": "/Users/maxhoward/Desktop/Ethereum Development/Matryx AWS/Projects/matryx-alpha-source/contracts/Tournament.sol",
  "compiler": {
    "name": "solc",
    "version": "0.4.18+commit.9cf6e910.Emscripten.clang"
  },
  "schemaVersion": "1.0.1",
  "updatedAt": "2017-12-06T23:40:26.029Z"
}