{
  "contractName": "UpgradeableToken",
  "abi": [
    {
      "constant": false,
      "inputs": [
        {
          "name": "_spender",
          "type": "address"
        },
        {
          "name": "_value",
          "type": "uint256"
        }
      ],
      "name": "approve",
      "outputs": [
        {
          "name": "",
          "type": "bool"
        }
      ],
      "payable": false,
      "stateMutability": "nonpayable",
      "type": "function"
    },
    {
      "constant": true,
      "inputs": [],
      "name": "totalSupply",
      "outputs": [
        {
          "name": "",
          "type": "uint256"
        }
      ],
      "payable": false,
      "stateMutability": "view",
      "type": "function"
    },
    {
      "constant": false,
      "inputs": [
        {
          "name": "_from",
          "type": "address"
        },
        {
          "name": "_to",
          "type": "address"
        },
        {
          "name": "_value",
          "type": "uint256"
        }
      ],
      "name": "transferFrom",
      "outputs": [
        {
          "name": "",
          "type": "bool"
        }
      ],
      "payable": false,
      "stateMutability": "nonpayable",
      "type": "function"
    },
    {
      "constant": true,
      "inputs": [],
      "name": "upgradeAgent",
      "outputs": [
        {
          "name": "",
          "type": "address"
        }
      ],
      "payable": false,
      "stateMutability": "view",
      "type": "function"
    },
    {
      "constant": true,
      "inputs": [],
      "name": "upgradeMaster",
      "outputs": [
        {
          "name": "",
          "type": "address"
        }
      ],
      "payable": false,
      "stateMutability": "view",
      "type": "function"
    },
    {
      "constant": true,
      "inputs": [
        {
          "name": "_owner",
          "type": "address"
        }
      ],
      "name": "balanceOf",
      "outputs": [
        {
          "name": "balance",
          "type": "uint256"
        }
      ],
      "payable": false,
      "stateMutability": "view",
      "type": "function"
    },
    {
      "constant": true,
      "inputs": [],
      "name": "owner",
      "outputs": [
        {
          "name": "",
          "type": "address"
        }
      ],
      "payable": false,
      "stateMutability": "view",
      "type": "function"
    },
    {
      "constant": false,
      "inputs": [
        {
          "name": "_to",
          "type": "address"
        },
        {
          "name": "_value",
          "type": "uint256"
        }
      ],
      "name": "transfer",
      "outputs": [
        {
          "name": "",
          "type": "bool"
        }
      ],
      "payable": false,
      "stateMutability": "nonpayable",
      "type": "function"
    },
    {
      "constant": true,
      "inputs": [],
      "name": "totalUpgraded",
      "outputs": [
        {
          "name": "",
          "type": "uint256"
        }
      ],
      "payable": false,
      "stateMutability": "view",
      "type": "function"
    },
    {
      "constant": true,
      "inputs": [
        {
          "name": "_owner",
          "type": "address"
        },
        {
          "name": "_spender",
          "type": "address"
        }
      ],
      "name": "allowance",
      "outputs": [
        {
          "name": "remaining",
          "type": "uint256"
        }
      ],
      "payable": false,
      "stateMutability": "view",
      "type": "function"
    },
    {
      "constant": false,
      "inputs": [
        {
          "name": "newOwner",
          "type": "address"
        }
      ],
      "name": "transferOwnership",
      "outputs": [],
      "payable": false,
      "stateMutability": "nonpayable",
      "type": "function"
    },
    {
      "inputs": [
        {
          "name": "_upgradeMaster",
          "type": "address"
        }
      ],
      "payable": false,
      "stateMutability": "nonpayable",
      "type": "constructor"
    },
    {
      "anonymous": false,
      "inputs": [
        {
          "indexed": true,
          "name": "_from",
          "type": "address"
        },
        {
          "indexed": true,
          "name": "_to",
          "type": "address"
        },
        {
          "indexed": false,
          "name": "_value",
          "type": "uint256"
        }
      ],
      "name": "Upgrade",
      "type": "event"
    },
    {
      "anonymous": false,
      "inputs": [
        {
          "indexed": false,
          "name": "agent",
          "type": "address"
        }
      ],
      "name": "UpgradeAgentSet",
      "type": "event"
    },
    {
      "anonymous": false,
      "inputs": [
        {
          "indexed": true,
          "name": "from",
          "type": "address"
        },
        {
          "indexed": true,
          "name": "to",
          "type": "address"
        },
        {
          "indexed": false,
          "name": "value",
          "type": "uint256"
        }
      ],
      "name": "Transfer",
      "type": "event"
    },
    {
      "anonymous": false,
      "inputs": [
        {
          "indexed": true,
          "name": "owner",
          "type": "address"
        },
        {
          "indexed": true,
          "name": "spender",
          "type": "address"
        },
        {
          "indexed": false,
          "name": "value",
          "type": "uint256"
        }
      ],
      "name": "Approval",
      "type": "event"
    },
    {
      "constant": false,
      "inputs": [
        {
          "name": "value",
          "type": "uint256"
        }
      ],
      "name": "upgrade",
      "outputs": [],
      "payable": false,
      "stateMutability": "nonpayable",
      "type": "function"
    },
    {
      "constant": false,
      "inputs": [
        {
          "name": "agent",
          "type": "address"
        }
      ],
      "name": "setUpgradeAgent",
      "outputs": [],
      "payable": false,
      "stateMutability": "nonpayable",
      "type": "function"
    },
    {
      "constant": true,
      "inputs": [],
      "name": "getUpgradeState",
      "outputs": [
        {
          "name": "",
          "type": "uint8"
        }
      ],
      "payable": false,
      "stateMutability": "view",
      "type": "function"
    },
    {
      "constant": false,
      "inputs": [
        {
          "name": "master",
          "type": "address"
        }
      ],
      "name": "setUpgradeMaster",
      "outputs": [],
      "payable": false,
      "stateMutability": "nonpayable",
      "type": "function"
    }
  ],
  "bytecode": "0x6060604052341561000f57600080fd5b604051602080610d028339810160405280805160008054600160a060020a03338116600160a060020a031992831617909255600480549290931691161790555050610ca38061005f6000396000f3006060604052600436106100da5763ffffffff7c0100000000000000000000000000000000000000000000000000000000600035041663095ea7b381146100df57806318160ddd1461012257806323b872dd1461014757806345977d031461017c5780635de4ccb014610194578063600440cb146101d057806370a08231146101e35780638444b3911461020f5780638da5cb5b14610246578063a9059cbb14610259578063c752ff6214610288578063d7e7088a1461029b578063dd62ed3e146102c7578063f2fde38b146102f9578063ffeb7d7514610325575b600080fd5b34156100ea57600080fd5b61010e73ffffffffffffffffffffffffffffffffffffffff60043516602435610351565b604051901515815260200160405180910390f35b341561012d57600080fd5b610135610411565b60405190815260200160405180910390f35b341561015257600080fd5b61010e73ffffffffffffffffffffffffffffffffffffffff60043581169060243516604435610417565b341561018757600080fd5b61019260043561055e565b005b341561019f57600080fd5b6101a7610720565b60405173ffffffffffffffffffffffffffffffffffffffff909116815260200160405180910390f35b34156101db57600080fd5b6101a761073c565b34156101ee57600080fd5b61013573ffffffffffffffffffffffffffffffffffffffff60043516610758565b341561021a57600080fd5b610222610780565b6040518082600481111561023257fe5b60ff16815260200191505060405180910390f35b341561025157600080fd5b6101a76107c2565b341561026457600080fd5b61010e73ffffffffffffffffffffffffffffffffffffffff600435166024356107de565b341561029357600080fd5b6101356108c4565b34156102a657600080fd5b61019273ffffffffffffffffffffffffffffffffffffffff600435166108ca565b34156102d257600080fd5b61013573ffffffffffffffffffffffffffffffffffffffff60043581169060243516610af5565b341561030457600080fd5b61019273ffffffffffffffffffffffffffffffffffffffff60043516610b2d565b341561033057600080fd5b61019273ffffffffffffffffffffffffffffffffffffffff60043516610bbe565b6000811580610390575073ffffffffffffffffffffffffffffffffffffffff338116600090815260036020908152604080832093871683529290522054155b151561039b57600080fd5b73ffffffffffffffffffffffffffffffffffffffff338116600081815260036020908152604080832094881680845294909152908190208590557f8c5be1e5ebec7d5bd14f71427d1e84f3dd0314c0f7b2291e5b200ac8c7c3b9259085905190815260200160405180910390a350600192915050565b60015481565b73ffffffffffffffffffffffffffffffffffffffff808416600090815260036020908152604080832033851684528252808320549386168352600290915281205490919061046b908463ffffffff610c4f16565b73ffffffffffffffffffffffffffffffffffffffff80861660009081526002602052604080822093909355908716815220546104ad908463ffffffff610c6516565b73ffffffffffffffffffffffffffffffffffffffff86166000908152600260205260409020556104e3818463ffffffff610c6516565b73ffffffffffffffffffffffffffffffffffffffff808716600081815260036020908152604080832033861684529091529081902093909355908616917fddf252ad1be2c89b69c2b068fc378daa952ba7f163c4a11628f55a4df523b3ef9086905190815260200160405180910390a3506001949350505050565b6000610568610780565b9050600381600481111561057857fe5b148061058f5750600481600481111561058d57fe5b145b151561059a57600080fd5b8115156105a657600080fd5b73ffffffffffffffffffffffffffffffffffffffff33166000908152600260205260409020546105dc908363ffffffff610c6516565b73ffffffffffffffffffffffffffffffffffffffff3316600090815260026020526040902055600154610615908363ffffffff610c6516565b60015560065461062b908363ffffffff610c4f16565b60065560055473ffffffffffffffffffffffffffffffffffffffff1663753e88e533846040517c010000000000000000000000000000000000000000000000000000000063ffffffff851602815273ffffffffffffffffffffffffffffffffffffffff90921660048301526024820152604401600060405180830381600087803b15156106b757600080fd5b6102c65a03f115156106c857600080fd5b505060055473ffffffffffffffffffffffffffffffffffffffff908116915033167f7e5c344a8141a805725cb476f76c6953b842222b967edd1f78ddb6e8b3f397ac8460405190815260200160405180910390a35050565b60055473ffffffffffffffffffffffffffffffffffffffff1681565b60045473ffffffffffffffffffffffffffffffffffffffff1681565b73ffffffffffffffffffffffffffffffffffffffff1660009081526002602052604090205490565b60055460009073ffffffffffffffffffffffffffffffffffffffff1615156107aa575060026107bf565b60065415156107bb575060036107bf565b5060045b90565b60005473ffffffffffffffffffffffffffffffffffffffff1681565b73ffffffffffffffffffffffffffffffffffffffff3316600090815260026020526040812054610814908363ffffffff610c6516565b73ffffffffffffffffffffffffffffffffffffffff3381166000908152600260205260408082209390935590851681522054610856908363ffffffff610c4f16565b73ffffffffffffffffffffffffffffffffffffffff80851660008181526002602052604090819020939093559133909116907fddf252ad1be2c89b69c2b068fc378daa952ba7f163c4a11628f55a4df523b3ef9085905190815260200160405180910390a350600192915050565b60065481565b73ffffffffffffffffffffffffffffffffffffffff811615156108ec57600080fd5b6004543373ffffffffffffffffffffffffffffffffffffffff90811691161461091457600080fd5b600461091e610780565b600481111561092957fe5b141561093457600080fd5b600580547fffffffffffffffffffffffff00000000000000000000000000000000000000001673ffffffffffffffffffffffffffffffffffffffff8381169190911791829055166361d3d7a66000604051602001526040518163ffffffff167c0100000000000000000000000000000000000000000000000000000000028152600401602060405180830381600087803b15156109d057600080fd5b6102c65a03f115156109e157600080fd5b5050506040518051905015156109f657600080fd5b60015460055473ffffffffffffffffffffffffffffffffffffffff16634b2ba0dd6000604051602001526040518163ffffffff167c0100000000000000000000000000000000000000000000000000000000028152600401602060405180830381600087803b1515610a6757600080fd5b6102c65a03f11515610a7857600080fd5b5050506040518051905014151515610a8f57600080fd5b6005547f7845d5aa74cc410e35571258d954f23b82276e160fe8c188fa80566580f279cc9073ffffffffffffffffffffffffffffffffffffffff1660405173ffffffffffffffffffffffffffffffffffffffff909116815260200160405180910390a150565b73ffffffffffffffffffffffffffffffffffffffff918216600090815260036020908152604080832093909416825291909152205490565b6000543373ffffffffffffffffffffffffffffffffffffffff908116911614610b5557600080fd5b73ffffffffffffffffffffffffffffffffffffffff81161515610b7757600080fd5b600080547fffffffffffffffffffffffff00000000000000000000000000000000000000001673ffffffffffffffffffffffffffffffffffffffff92909216919091179055565b73ffffffffffffffffffffffffffffffffffffffff81161515610be057600080fd5b6004543373ffffffffffffffffffffffffffffffffffffffff908116911614610c0857600080fd5b600480547fffffffffffffffffffffffff00000000000000000000000000000000000000001673ffffffffffffffffffffffffffffffffffffffff92909216919091179055565b600082820183811015610c5e57fe5b9392505050565b600082821115610c7157fe5b509003905600a165627a7a72305820d5bfb40dc9a314a13526f1786f46efb4cbde385ab09c3a3834dd45b17adc46c70029",
  "source": "/**\n * This smart contract code is Copyright 2017 TokenMarket Ltd. For more information see https://tokenmarket.net\n *\n * Licensed under the Apache License, version 2.0: https://github.com/TokenMarketNet/ico/blob/master/LICENSE.txt\n */\n\npragma solidity ^0.4.13;\n\nimport './StandardToken.sol';\nimport \"./ownership/UpgradeAgent.sol\";\n\n/**\n * A token upgrade mechanism where users can opt-in amount of tokens to the next smart contract revision.\n *\n * First envisioned by Golem and Lunyr projects.\n */\ncontract UpgradeableToken is StandardToken {\n\n  /** Contract / person who can set the upgrade path. This can be the same as team multisig wallet, as what it is with its default value. */\n  address public upgradeMaster;\n\n  /** The next contract where the tokens will be migrated. */\n  UpgradeAgent public upgradeAgent;\n\n  /** How many tokens we have upgraded by now. */\n  uint256 public totalUpgraded;\n\n  /**\n   * Upgrade states.\n   *\n   * - NotAllowed: The child contract has not reached a condition where the upgrade can bgun\n   * - WaitingForAgent: Token allows upgrade, but we don't have a new agent yet\n   * - ReadyToUpgrade: The agent is set, but not a single token has been upgraded yet\n   * - Upgrading: Upgrade agent is set and the balance holders can upgrade their tokens\n   *\n   */\n  enum UpgradeState {Unknown, NotAllowed, WaitingForAgent, ReadyToUpgrade, Upgrading}\n\n  /**\n   * Somebody has upgraded some of his tokens.\n   */\n  event Upgrade(address indexed _from, address indexed _to, uint256 _value);\n\n  /**\n   * New upgrade agent available.\n   */\n  event UpgradeAgentSet(address agent);\n\n  /**\n   * Do not allow construction without upgrade master set.\n   */\n  function UpgradeableToken(address _upgradeMaster) public {\n    upgradeMaster = _upgradeMaster;\n  }\n\n  /**\n   * Allow the token holder to upgrade some of their tokens to a new contract.\n   */\n  function upgrade(uint256 value) public {\n\n      UpgradeState state = getUpgradeState();\n      require(state == UpgradeState.ReadyToUpgrade || state == UpgradeState.Upgrading);\n\n      // Validate input value.\n      require(value != 0);\n\n      balances[msg.sender] = balances[msg.sender].sub(value);\n\n      // Take tokens out from circulation\n      totalSupply = totalSupply.sub(value);\n      totalUpgraded = totalUpgraded.add(value);\n\n      // Upgrade agent reissues the tokens\n      upgradeAgent.upgradeFrom(msg.sender, value);\n      Upgrade(msg.sender, upgradeAgent, value);\n  }\n\n  /**\n   * Set an upgrade agent that handles\n   */\n  function setUpgradeAgent(address agent) external {\n\n      require(agent != 0x0);\n      // Only a master can designate the next agent\n      require(msg.sender == upgradeMaster);\n      // Upgrade has already begun for an agent\n      require(getUpgradeState() != UpgradeState.Upgrading);\n\n      upgradeAgent = UpgradeAgent(agent);\n\n      // Bad interface\n      require(upgradeAgent.isUpgradeAgent());\n      // Make sure that token supplies match in source and target\n      require(upgradeAgent.originalSupply() != totalSupply);\n\n      UpgradeAgentSet(upgradeAgent);\n  }\n\n  /**\n   * Get the state of the token upgrade.\n   */\n  function getUpgradeState() public constant returns(UpgradeState) {\n    if(address(upgradeAgent) == 0x00) return UpgradeState.WaitingForAgent;\n    else if(totalUpgraded == 0) return UpgradeState.ReadyToUpgrade;\n    else return UpgradeState.Upgrading;\n  }\n\n  /**\n   * Change the upgrade master.\n   *\n   * This allows us to set a new owner for the upgrade mechanism.\n   */\n  function setUpgradeMaster(address master) public {\n      require(master != 0x0);\n      require(msg.sender == upgradeMaster);\n      upgradeMaster = master;\n  }\n\n\n}",
  "sourcePath": "/Users/maxhoward/Desktop/Ethereum/Development/Matryx AWS/Projects/matryx-alpha-source/contracts/MatryxToken/UpgradeableToken.sol",
  "compiler": {
    "name": "solc",
    "version": "0.4.19+commit.c4cbbb05.Emscripten.clang"
  },
  "schemaVersion": "2.0.0",
  "updatedAt": "2018-03-29T18:43:54.481Z"
}